{
  "_format": "hh-sol-artifact-1",
  "contractName": "Students",
  "sourceName": "contracts/Students.sol",
  "abi": [
    {
      "anonymous": false,
      "inputs": [
        {
          "indexed": false,
          "internalType": "uint256",
          "name": "id",
          "type": "uint256"
        },
        {
          "indexed": false,
          "internalType": "string",
          "name": "firstname",
          "type": "string"
        },
        {
          "indexed": false,
          "internalType": "string",
          "name": "lastname",
          "type": "string"
        },
        {
          "indexed": false,
          "internalType": "uint256",
          "name": "birthdate",
          "type": "uint256"
        }
      ],
      "name": "StudentAdded",
      "type": "event"
    },
    {
      "anonymous": false,
      "inputs": [
        {
          "indexed": false,
          "internalType": "uint256",
          "name": "id",
          "type": "uint256"
        }
      ],
      "name": "StudentDeleted",
      "type": "event"
    },
    {
      "anonymous": false,
      "inputs": [
        {
          "indexed": false,
          "internalType": "uint256",
          "name": "id",
          "type": "uint256"
        },
        {
          "indexed": false,
          "internalType": "string",
          "name": "firstname",
          "type": "string"
        },
        {
          "indexed": false,
          "internalType": "string",
          "name": "lastname",
          "type": "string"
        },
        {
          "indexed": false,
          "internalType": "uint256",
          "name": "birthdate",
          "type": "uint256"
        }
      ],
      "name": "StudentEdited",
      "type": "event"
    },
    {
      "inputs": [
        {
          "internalType": "uint256",
          "name": "_id",
          "type": "uint256"
        }
      ],
      "name": "getStudent",
      "outputs": [
        {
          "internalType": "string",
          "name": "",
          "type": "string"
        },
        {
          "internalType": "string",
          "name": "",
          "type": "string"
        },
        {
          "internalType": "uint256",
          "name": "",
          "type": "uint256"
        }
      ],
      "stateMutability": "view",
      "type": "function"
    },
    {
      "inputs": [],
      "name": "getStudentsIds",
      "outputs": [
        {
          "internalType": "uint256[]",
          "name": "",
          "type": "uint256[]"
        }
      ],
      "stateMutability": "view",
      "type": "function"
    },
    {
      "inputs": [
        {
          "internalType": "uint256",
          "name": "",
          "type": "uint256"
        }
      ],
      "name": "students",
      "outputs": [
        {
          "internalType": "uint256",
          "name": "id",
          "type": "uint256"
        },
        {
          "internalType": "string",
          "name": "firstname",
          "type": "string"
        },
        {
          "internalType": "string",
          "name": "lastname",
          "type": "string"
        },
        {
          "internalType": "uint256",
          "name": "birthdate",
          "type": "uint256"
        }
      ],
      "stateMutability": "view",
      "type": "function"
    },
    {
      "inputs": [
        {
          "internalType": "uint256",
          "name": "",
          "type": "uint256"
        }
      ],
      "name": "studentsIds",
      "outputs": [
        {
          "internalType": "uint256",
          "name": "",
          "type": "uint256"
        }
      ],
      "stateMutability": "view",
      "type": "function"
    }
  ],
  "bytecode": "0x608060405234801561001057600080fd5b506108e9806100206000396000f3fe608060405234801561001057600080fd5b506004361061004c5760003560e01c806306ead22e14610051578063461c71b214610084578063642f9163146100a2578063df3a12dd146100d4575b600080fd5b61006b60048036038101906100669190610588565b610104565b60405161007b9493929190610654565b60405180910390f35b61008c610244565b6040516100999190610765565b60405180910390f35b6100bc60048036038101906100b79190610588565b6102d8565b6040516100cb93929190610787565b60405180910390f35b6100ee60048036038101906100e99190610588565b610526565b6040516100fb91906107cc565b60405180910390f35b600060205280600052604060002060009150905080600001549080600101805461012d90610816565b80601f016020809104026020016040519081016040528092919081815260200182805461015990610816565b80156101a65780601f1061017b576101008083540402835291602001916101a6565b820191906000526020600020905b81548152906001019060200180831161018957829003601f168201915b5050505050908060020180546101bb90610816565b80601f01602080910402602001604051908101604052809291908181526020018280546101e790610816565b80156102345780601f1061020957610100808354040283529160200191610234565b820191906000526020600020905b81548152906001019060200180831161021757829003601f168201915b5050505050908060030154905084565b606061025a67efa82b5968256cc060c01b61054a565b61026e67803a291d8ae6799f60c01b61054a565b61028267f3df4483e82d4c8d60c01b61054a565b60018054806020026020016040519081016040528092919081815260200182805480156102ce57602002820191906000526020600020905b8154815260200190600101908083116102ba575b5050505050905090565b60608060006102f1677cdb6ef5cbed1e3d60c01b61054a565b610305677f0cceaac7cfa9ce60c01b61054a565b61031967d24e39081913322960c01b61054a565b61032d677be0137893f7d8be60c01b61054a565b60008060008681526020019081526020016000206000015403610385576040517f08c379a000000000000000000000000000000000000000000000000000000000815260040161037c90610893565b60405180910390fd5b610399675cd447a5b617b78060c01b61054a565b6103ad67c2ba5ce93628c4d360c01b61054a565b6103c167085df455a24fa24860c01b61054a565b6000808581526020019081526020016000206001016000808681526020019081526020016000206002016000808781526020019081526020016000206003015482805461040d90610816565b80601f016020809104026020016040519081016040528092919081815260200182805461043990610816565b80156104865780601f1061045b57610100808354040283529160200191610486565b820191906000526020600020905b81548152906001019060200180831161046957829003601f168201915b5050505050925081805461049990610816565b80601f01602080910402602001604051908101604052809291908181526020018280546104c590610816565b80156105125780601f106104e757610100808354040283529160200191610512565b820191906000526020600020905b8154815290600101906020018083116104f557829003601f168201915b505050505091509250925092509193909250565b6001818154811061053657600080fd5b906000526020600020016000915090505481565b50565b600080fd5b6000819050919050565b61056581610552565b811461057057600080fd5b50565b6000813590506105828161055c565b92915050565b60006020828403121561059e5761059d61054d565b5b60006105ac84828501610573565b91505092915050565b6105be81610552565b82525050565b600081519050919050565b600082825260208201905092915050565b60005b838110156105fe5780820151818401526020810190506105e3565b60008484015250505050565b6000601f19601f8301169050919050565b6000610626826105c4565b61063081856105cf565b93506106408185602086016105e0565b6106498161060a565b840191505092915050565b600060808201905061066960008301876105b5565b818103602083015261067b818661061b565b9050818103604083015261068f818561061b565b905061069e60608301846105b5565b95945050505050565b600081519050919050565b600082825260208201905092915050565b6000819050602082019050919050565b6106dc81610552565b82525050565b60006106ee83836106d3565b60208301905092915050565b6000602082019050919050565b6000610712826106a7565b61071c81856106b2565b9350610727836106c3565b8060005b8381101561075857815161073f88826106e2565b975061074a836106fa565b92505060018101905061072b565b5085935050505092915050565b6000602082019050818103600083015261077f8184610707565b905092915050565b600060608201905081810360008301526107a1818661061b565b905081810360208301526107b5818561061b565b90506107c460408301846105b5565b949350505050565b60006020820190506107e160008301846105b5565b92915050565b7f4e487b7100000000000000000000000000000000000000000000000000000000600052602260045260246000fd5b6000600282049050600182168061082e57607f821691505b602082108103610841576108406107e7565b5b50919050565b7f53747564656e7420646f65736e27742065786973740000000000000000000000600082015250565b600061087d6015836105cf565b915061088882610847565b602082019050919050565b600060208201905081810360008301526108ac81610870565b905091905056fea2646970667358221220b436a817fec03ef0d9512f7fac40196e22181919741f9ed2d7a205aeea660e0864736f6c63430008130033",
  "linkReferences": {},
  "deployedLinkReferences": {}
}