{
  "_format": "hh-sol-artifact-1",
  "contractName": "Students",
  "sourceName": "contracts/Students.sol",
  "abi": [
    {
      "anonymous": false,
      "inputs": [
        {
          "indexed": false,
          "internalType": "uint256",
          "name": "id",
          "type": "uint256"
        },
        {
          "indexed": false,
          "internalType": "string",
          "name": "firstname",
          "type": "string"
        },
        {
          "indexed": false,
          "internalType": "string",
          "name": "lastname",
          "type": "string"
        },
        {
          "indexed": false,
          "internalType": "uint256",
          "name": "birthdate",
          "type": "uint256"
        }
      ],
      "name": "StudentAdded",
      "type": "event"
    },
    {
      "anonymous": false,
      "inputs": [
        {
          "indexed": false,
          "internalType": "uint256",
          "name": "id",
          "type": "uint256"
        }
      ],
      "name": "StudentDeleted",
      "type": "event"
    },
    {
      "anonymous": false,
      "inputs": [
        {
          "indexed": false,
          "internalType": "uint256",
          "name": "id",
          "type": "uint256"
        },
        {
          "indexed": false,
          "internalType": "string",
          "name": "firstname",
          "type": "string"
        },
        {
          "indexed": false,
          "internalType": "string",
          "name": "lastname",
          "type": "string"
        },
        {
          "indexed": false,
          "internalType": "uint256",
          "name": "birthdate",
          "type": "uint256"
        }
      ],
      "name": "StudentEdited",
      "type": "event"
    },
    {
      "inputs": [
        {
          "internalType": "uint256",
          "name": "_id",
          "type": "uint256"
        }
      ],
      "name": "getStudent",
      "outputs": [
        {
          "components": [
            {
              "internalType": "uint256",
              "name": "id",
              "type": "uint256"
            },
            {
              "internalType": "string",
              "name": "firstname",
              "type": "string"
            },
            {
              "internalType": "string",
              "name": "lastname",
              "type": "string"
            },
            {
              "internalType": "uint256",
              "name": "birthdate",
              "type": "uint256"
            }
          ],
          "internalType": "struct Students.Student",
          "name": "",
          "type": "tuple"
        }
      ],
      "stateMutability": "view",
      "type": "function"
    },
    {
      "inputs": [
        {
          "internalType": "uint256",
          "name": "",
          "type": "uint256"
        }
      ],
      "name": "students",
      "outputs": [
        {
          "internalType": "uint256",
          "name": "id",
          "type": "uint256"
        },
        {
          "internalType": "string",
          "name": "firstname",
          "type": "string"
        },
        {
          "internalType": "string",
          "name": "lastname",
          "type": "string"
        },
        {
          "internalType": "uint256",
          "name": "birthdate",
          "type": "uint256"
        }
      ],
      "stateMutability": "view",
      "type": "function"
    },
    {
      "inputs": [
        {
          "internalType": "uint256",
          "name": "",
          "type": "uint256"
        }
      ],
      "name": "studentsIds",
      "outputs": [
        {
          "internalType": "uint256",
          "name": "",
          "type": "uint256"
        }
      ],
      "stateMutability": "view",
      "type": "function"
    }
  ],
  "bytecode": "0x608060405234801561001057600080fd5b5061054d806100206000396000f3fe608060405234801561001057600080fd5b50600436106100415760003560e01c806306ead22e14610046578063642f916314610072578063df3a12dd14610092575b600080fd5b6100596100543660046103e7565b6100b3565b6040516100699493929190610446565b60405180910390f35b6100856100803660046103e7565b6101ec565b6040516100699190610483565b6100a56100a03660046103e7565b6103c6565b604051908152602001610069565b600060208190529081526040902080546001820180549192916100d5906104dd565b80601f0160208091040260200160405190810160405280929190818152602001828054610101906104dd565b801561014e5780601f106101235761010080835404028352916020019161014e565b820191906000526020600020905b81548152906001019060200180831161013157829003601f168201915b505050505090806002018054610163906104dd565b80601f016020809104026020016040519081016040528092919081815260200182805461018f906104dd565b80156101dc5780601f106101b1576101008083540402835291602001916101dc565b820191906000526020600020905b8154815290600101906020018083116101bf57829003601f168201915b5050505050908060030154905084565b6102176040518060800160405280600081526020016060815260200160608152602001600081525090565b60008281526020819052604081205490036102705760405162461bcd60e51b815260206004820152601560248201527414dd1d59195b9d08191bd95cdb89dd08195e1a5cdd605a1b604482015260640160405180910390fd5b600082815260208181526040918290208251608081019093528054835260018101805491928401916102a1906104dd565b80601f01602080910402602001604051908101604052809291908181526020018280546102cd906104dd565b801561031a5780601f106102ef5761010080835404028352916020019161031a565b820191906000526020600020905b8154815290600101906020018083116102fd57829003601f168201915b50505050508152602001600282018054610333906104dd565b80601f016020809104026020016040519081016040528092919081815260200182805461035f906104dd565b80156103ac5780601f10610381576101008083540402835291602001916103ac565b820191906000526020600020905b81548152906001019060200180831161038f57829003601f168201915b505050505081526020016003820154815250509050919050565b600181815481106103d657600080fd5b600091825260209091200154905081565b6000602082840312156103f957600080fd5b5035919050565b6000815180845260005b818110156104265760208185018101518683018201520161040a565b506000602082860101526020601f19601f83011685010191505092915050565b84815260806020820152600061045f6080830186610400565b82810360408401526104718186610400565b91505082606083015295945050505050565b602081528151602082015260006020830151608060408401526104a960a0840182610400565b90506040840151601f198483030160608501526104c68282610400565b915050606084015160808401528091505092915050565b600181811c908216806104f157607f821691505b60208210810361051157634e487b7160e01b600052602260045260246000fd5b5091905056fea264697066735822122080e5334df8d2228df6fbeb1bd7a023ebe4096ed6e4d0117b46f8de412a22293a64736f6c63430008130033",
  "linkReferences": {},
  "deployedLinkReferences": {}
}