{
  "_format": "hh-sol-artifact-1",
  "contractName": "Students",
  "sourceName": "contracts/Students.sol",
  "abi": [
    {
      "anonymous": false,
      "inputs": [
        {
          "indexed": false,
          "internalType": "uint256",
          "name": "id",
          "type": "uint256"
        },
        {
          "indexed": false,
          "internalType": "string",
          "name": "firstname",
          "type": "string"
        },
        {
          "indexed": false,
          "internalType": "string",
          "name": "lastname",
          "type": "string"
        },
        {
          "indexed": false,
          "internalType": "uint256",
          "name": "birthdate",
          "type": "uint256"
        }
      ],
      "name": "StudentAdded",
      "type": "event"
    },
    {
      "anonymous": false,
      "inputs": [
        {
          "indexed": false,
          "internalType": "uint256",
          "name": "id",
          "type": "uint256"
        }
      ],
      "name": "StudentDeleted",
      "type": "event"
    },
    {
      "anonymous": false,
      "inputs": [
        {
          "indexed": false,
          "internalType": "uint256",
          "name": "id",
          "type": "uint256"
        },
        {
          "indexed": false,
          "internalType": "string",
          "name": "firstname",
          "type": "string"
        },
        {
          "indexed": false,
          "internalType": "string",
          "name": "lastname",
          "type": "string"
        },
        {
          "indexed": false,
          "internalType": "uint256",
          "name": "birthdate",
          "type": "uint256"
        }
      ],
      "name": "StudentEdited",
      "type": "event"
    },
    {
      "inputs": [
        {
          "internalType": "uint256",
          "name": "_id",
          "type": "uint256"
        }
      ],
      "name": "getStudent",
      "outputs": [
        {
          "components": [
            {
              "internalType": "uint256",
              "name": "id",
              "type": "uint256"
            },
            {
              "internalType": "string",
              "name": "firstname",
              "type": "string"
            },
            {
              "internalType": "string",
              "name": "lastname",
              "type": "string"
            },
            {
              "internalType": "uint256",
              "name": "birthdate",
              "type": "uint256"
            }
          ],
          "internalType": "struct Students.Student",
          "name": "",
          "type": "tuple"
        }
      ],
      "stateMutability": "view",
      "type": "function"
    },
    {
      "inputs": [
        {
          "internalType": "uint256",
          "name": "",
          "type": "uint256"
        }
      ],
      "name": "students",
      "outputs": [
        {
          "internalType": "uint256",
          "name": "id",
          "type": "uint256"
        },
        {
          "internalType": "string",
          "name": "firstname",
          "type": "string"
        },
        {
          "internalType": "string",
          "name": "lastname",
          "type": "string"
        },
        {
          "internalType": "uint256",
          "name": "birthdate",
          "type": "uint256"
        }
      ],
      "stateMutability": "view",
      "type": "function"
    }
  ],
  "bytecode": "0x608060405234801561001057600080fd5b50610792806100206000396000f3fe608060405234801561001057600080fd5b50600436106100365760003560e01c806306ead22e1461003b578063642f91631461006e575b600080fd5b6100556004803603810190610050919061048c565b61009e565b6040516100659493929190610558565b60405180910390f35b6100886004803603810190610083919061048c565b6101de565b604051610095919061066e565b60405180910390f35b60006020528060005260406000206000915090508060000154908060010180546100c7906106bf565b80601f01602080910402602001604051908101604052809291908181526020018280546100f3906106bf565b80156101405780601f1061011557610100808354040283529160200191610140565b820191906000526020600020905b81548152906001019060200180831161012357829003601f168201915b505050505090806002018054610155906106bf565b80601f0160208091040260200160405190810160405280929190818152602001828054610181906106bf565b80156101ce5780601f106101a3576101008083540402835291602001916101ce565b820191906000526020600020905b8154815290600101906020018083116101b157829003601f168201915b5050505050908060030154905084565b6101e6610429565b6101fa67fb7138474997668360c01b610426565b61020e67cabf37fb9b0fe09360c01b610426565b610222678f0d48f9169a161c60c01b610426565b610236676f1c6119a0e8189b60c01b610426565b6000806000848152602001908152602001600020600001540361028e576040517f08c379a00000000000000000000000000000000000000000000000000000000081526004016102859061073c565b60405180910390fd5b6102a2671efbc114ca82ba3a60c01b610426565b6102b667b5e10ccf1dfb2cbf60c01b610426565b6102ca6724af5e47dd5e209b60c01b610426565b60008083815260200190815260200160002060405180608001604052908160008201548152602001600182018054610301906106bf565b80601f016020809104026020016040519081016040528092919081815260200182805461032d906106bf565b801561037a5780601f1061034f5761010080835404028352916020019161037a565b820191906000526020600020905b81548152906001019060200180831161035d57829003601f168201915b50505050508152602001600282018054610393906106bf565b80601f01602080910402602001604051908101604052809291908181526020018280546103bf906106bf565b801561040c5780601f106103e15761010080835404028352916020019161040c565b820191906000526020600020905b8154815290600101906020018083116103ef57829003601f168201915b505050505081526020016003820154815250509050919050565b50565b6040518060800160405280600081526020016060815260200160608152602001600081525090565b600080fd5b6000819050919050565b61046981610456565b811461047457600080fd5b50565b60008135905061048681610460565b92915050565b6000602082840312156104a2576104a1610451565b5b60006104b084828501610477565b91505092915050565b6104c281610456565b82525050565b600081519050919050565b600082825260208201905092915050565b60005b838110156105025780820151818401526020810190506104e7565b60008484015250505050565b6000601f19601f8301169050919050565b600061052a826104c8565b61053481856104d3565b93506105448185602086016104e4565b61054d8161050e565b840191505092915050565b600060808201905061056d60008301876104b9565b818103602083015261057f818661051f565b90508181036040830152610593818561051f565b90506105a260608301846104b9565b95945050505050565b6105b481610456565b82525050565b600082825260208201905092915050565b60006105d6826104c8565b6105e081856105ba565b93506105f08185602086016104e4565b6105f98161050e565b840191505092915050565b600060808301600083015161061c60008601826105ab565b506020830151848203602086015261063482826105cb565b9150506040830151848203604086015261064e82826105cb565b915050606083015161066360608601826105ab565b508091505092915050565b600060208201905081810360008301526106888184610604565b905092915050565b7f4e487b7100000000000000000000000000000000000000000000000000000000600052602260045260246000fd5b600060028204905060018216806106d757607f821691505b6020821081036106ea576106e9610690565b5b50919050565b7f53747564656e7420646f65736e27742065786973740000000000000000000000600082015250565b60006107266015836104d3565b9150610731826106f0565b602082019050919050565b6000602082019050818103600083015261075581610719565b905091905056fea264697066735822122018d8d95060c873a580e24b86d2f381507390bb0e688776fbec45fd83dfd240f964736f6c63430008130033",
  "linkReferences": {},
  "deployedLinkReferences": {}
}