{
  "_format": "hh-sol-artifact-1",
  "contractName": "Students",
  "sourceName": "contracts/Students.sol",
  "abi": [
    {
      "anonymous": false,
      "inputs": [
        {
          "indexed": false,
          "internalType": "uint256",
          "name": "id",
          "type": "uint256"
        },
        {
          "indexed": false,
          "internalType": "string",
          "name": "firstname",
          "type": "string"
        },
        {
          "indexed": false,
          "internalType": "string",
          "name": "lastname",
          "type": "string"
        },
        {
          "indexed": false,
          "internalType": "uint256",
          "name": "birthdate",
          "type": "uint256"
        }
      ],
      "name": "StudentAdded",
      "type": "event"
    },
    {
      "anonymous": false,
      "inputs": [
        {
          "indexed": false,
          "internalType": "uint256",
          "name": "id",
          "type": "uint256"
        }
      ],
      "name": "StudentDeleted",
      "type": "event"
    },
    {
      "anonymous": false,
      "inputs": [
        {
          "indexed": false,
          "internalType": "uint256",
          "name": "id",
          "type": "uint256"
        },
        {
          "indexed": false,
          "internalType": "string",
          "name": "firstname",
          "type": "string"
        },
        {
          "indexed": false,
          "internalType": "string",
          "name": "lastname",
          "type": "string"
        },
        {
          "indexed": false,
          "internalType": "uint256",
          "name": "birthdate",
          "type": "uint256"
        }
      ],
      "name": "StudentEdited",
      "type": "event"
    },
    {
      "inputs": [
        {
          "internalType": "uint256",
          "name": "_id",
          "type": "uint256"
        }
      ],
      "name": "getStudent",
      "outputs": [
        {
          "internalType": "string",
          "name": "",
          "type": "string"
        },
        {
          "internalType": "string",
          "name": "",
          "type": "string"
        },
        {
          "internalType": "uint256",
          "name": "",
          "type": "uint256"
        }
      ],
      "stateMutability": "view",
      "type": "function"
    },
    {
      "inputs": [
        {
          "internalType": "uint256",
          "name": "",
          "type": "uint256"
        }
      ],
      "name": "students",
      "outputs": [
        {
          "internalType": "uint256",
          "name": "id",
          "type": "uint256"
        },
        {
          "internalType": "string",
          "name": "firstname",
          "type": "string"
        },
        {
          "internalType": "string",
          "name": "lastname",
          "type": "string"
        },
        {
          "internalType": "uint256",
          "name": "birthdate",
          "type": "uint256"
        }
      ],
      "stateMutability": "view",
      "type": "function"
    },
    {
      "inputs": [
        {
          "internalType": "uint256",
          "name": "",
          "type": "uint256"
        }
      ],
      "name": "studentsIds",
      "outputs": [
        {
          "internalType": "uint256",
          "name": "",
          "type": "uint256"
        }
      ],
      "stateMutability": "view",
      "type": "function"
    }
  ],
  "bytecode": "0x608060405234801561001057600080fd5b506104f3806100206000396000f3fe608060405234801561001057600080fd5b50600436106100415760003560e01c806306ead22e14610046578063642f916314610072578063df3a12dd14610094575b600080fd5b6100596100543660046103b1565b6100b5565b6040516100699493929190610410565b60405180910390f35b6100856100803660046103b1565b6101ee565b6040516100699392919061044d565b6100a76100a23660046103b1565b610390565b604051908152602001610069565b600060208190529081526040902080546001820180549192916100d790610483565b80601f016020809104026020016040519081016040528092919081815260200182805461010390610483565b80156101505780601f1061012557610100808354040283529160200191610150565b820191906000526020600020905b81548152906001019060200180831161013357829003601f168201915b50505050509080600201805461016590610483565b80601f016020809104026020016040519081016040528092919081815260200182805461019190610483565b80156101de5780601f106101b3576101008083540402835291602001916101de565b820191906000526020600020905b8154815290600101906020018083116101c157829003601f168201915b5050505050908060030154905084565b6000818152602081905260408120546060918291810361024c5760405162461bcd60e51b815260206004820152601560248201527414dd1d59195b9d08191bd95cdb89dd08195e1a5cdd605a1b604482015260640160405180910390fd5b6000848152602081905260409020600381015460018201805490926002019190839061027790610483565b80601f01602080910402602001604051908101604052809291908181526020018280546102a390610483565b80156102f05780601f106102c5576101008083540402835291602001916102f0565b820191906000526020600020905b8154815290600101906020018083116102d357829003601f168201915b5050505050925081805461030390610483565b80601f016020809104026020016040519081016040528092919081815260200182805461032f90610483565b801561037c5780601f106103515761010080835404028352916020019161037c565b820191906000526020600020905b81548152906001019060200180831161035f57829003601f168201915b505050505091509250925092509193909250565b600181815481106103a057600080fd5b600091825260209091200154905081565b6000602082840312156103c357600080fd5b5035919050565b6000815180845260005b818110156103f0576020818501810151868301820152016103d4565b506000602082860101526020601f19601f83011685010191505092915050565b84815260806020820152600061042960808301866103ca565b828103604084015261043b81866103ca565b91505082606083015295945050505050565b60608152600061046060608301866103ca565b828103602084015261047281866103ca565b915050826040830152949350505050565b600181811c9082168061049757607f821691505b6020821081036104b757634e487b7160e01b600052602260045260246000fd5b5091905056fea26469706673582212207c82580838824c858befa1473c9649f1dcf04f19adcdd2b09a8ea9191db4a45764736f6c63430008130033",
  "linkReferences": {},
  "deployedLinkReferences": {}
}