{
  "_format": "hh-sol-artifact-1",
  "contractName": "Students",
  "sourceName": "contracts/Students.sol",
  "abi": [
    {
      "anonymous": false,
      "inputs": [
        {
          "indexed": false,
          "internalType": "uint256",
          "name": "id",
          "type": "uint256"
        },
        {
          "indexed": false,
          "internalType": "string",
          "name": "firstname",
          "type": "string"
        },
        {
          "indexed": false,
          "internalType": "string",
          "name": "lastname",
          "type": "string"
        },
        {
          "indexed": false,
          "internalType": "uint256",
          "name": "birthdate",
          "type": "uint256"
        }
      ],
      "name": "StudentAdded",
      "type": "event"
    },
    {
      "anonymous": false,
      "inputs": [
        {
          "indexed": false,
          "internalType": "uint256",
          "name": "id",
          "type": "uint256"
        }
      ],
      "name": "StudentDeleted",
      "type": "event"
    },
    {
      "anonymous": false,
      "inputs": [
        {
          "indexed": false,
          "internalType": "uint256",
          "name": "id",
          "type": "uint256"
        },
        {
          "indexed": false,
          "internalType": "string",
          "name": "firstname",
          "type": "string"
        },
        {
          "indexed": false,
          "internalType": "string",
          "name": "lastname",
          "type": "string"
        },
        {
          "indexed": false,
          "internalType": "uint256",
          "name": "birthdate",
          "type": "uint256"
        }
      ],
      "name": "StudentEdited",
      "type": "event"
    },
    {
      "inputs": [
        {
          "internalType": "uint256",
          "name": "_id",
          "type": "uint256"
        }
      ],
      "name": "getStudent",
      "outputs": [
        {
          "internalType": "string",
          "name": "",
          "type": "string"
        },
        {
          "internalType": "string",
          "name": "",
          "type": "string"
        },
        {
          "internalType": "uint256",
          "name": "",
          "type": "uint256"
        }
      ],
      "stateMutability": "view",
      "type": "function"
    },
    {
      "inputs": [],
      "name": "getStudentsIds",
      "outputs": [
        {
          "internalType": "uint256[]",
          "name": "",
          "type": "uint256[]"
        }
      ],
      "stateMutability": "view",
      "type": "function"
    },
    {
      "inputs": [
        {
          "internalType": "uint256",
          "name": "",
          "type": "uint256"
        }
      ],
      "name": "students",
      "outputs": [
        {
          "internalType": "uint256",
          "name": "id",
          "type": "uint256"
        },
        {
          "internalType": "string",
          "name": "firstname",
          "type": "string"
        },
        {
          "internalType": "string",
          "name": "lastname",
          "type": "string"
        },
        {
          "internalType": "uint256",
          "name": "birthdate",
          "type": "uint256"
        }
      ],
      "stateMutability": "view",
      "type": "function"
    },
    {
      "inputs": [
        {
          "internalType": "uint256",
          "name": "",
          "type": "uint256"
        }
      ],
      "name": "studentsIds",
      "outputs": [
        {
          "internalType": "uint256",
          "name": "",
          "type": "uint256"
        }
      ],
      "stateMutability": "view",
      "type": "function"
    }
  ],
  "bytecode": "0x608060405234801561001057600080fd5b506105af806100206000396000f3fe608060405234801561001057600080fd5b506004361061004c5760003560e01c806306ead22e14610051578063461c71b21461007d578063642f916314610092578063df3a12dd146100b4575b600080fd5b61006461005f366004610429565b6100d5565b6040516100749493929190610488565b60405180910390f35b61008561020e565b60405161007491906104c5565b6100a56100a0366004610429565b610266565b60405161007493929190610509565b6100c76100c2366004610429565b610408565b604051908152602001610074565b600060208190529081526040902080546001820180549192916100f79061053f565b80601f01602080910402602001604051908101604052809291908181526020018280546101239061053f565b80156101705780601f1061014557610100808354040283529160200191610170565b820191906000526020600020905b81548152906001019060200180831161015357829003601f168201915b5050505050908060020180546101859061053f565b80601f01602080910402602001604051908101604052809291908181526020018280546101b19061053f565b80156101fe5780601f106101d3576101008083540402835291602001916101fe565b820191906000526020600020905b8154815290600101906020018083116101e157829003601f168201915b5050505050908060030154905084565b6060600180548060200260200160405190810160405280929190818152602001828054801561025c57602002820191906000526020600020905b815481526020019060010190808311610248575b5050505050905090565b600081815260208190526040812054606091829181036102c45760405162461bcd60e51b815260206004820152601560248201527414dd1d59195b9d08191bd95cdb89dd08195e1a5cdd605a1b604482015260640160405180910390fd5b600084815260208190526040902060038101546001820180549092600201919083906102ef9061053f565b80601f016020809104026020016040519081016040528092919081815260200182805461031b9061053f565b80156103685780601f1061033d57610100808354040283529160200191610368565b820191906000526020600020905b81548152906001019060200180831161034b57829003601f168201915b5050505050925081805461037b9061053f565b80601f01602080910402602001604051908101604052809291908181526020018280546103a79061053f565b80156103f45780601f106103c9576101008083540402835291602001916103f4565b820191906000526020600020905b8154815290600101906020018083116103d757829003601f168201915b505050505091509250925092509193909250565b6001818154811061041857600080fd5b600091825260209091200154905081565b60006020828403121561043b57600080fd5b5035919050565b6000815180845260005b818110156104685760208185018101518683018201520161044c565b506000602082860101526020601f19601f83011685010191505092915050565b8481526080602082015260006104a16080830186610442565b82810360408401526104b38186610442565b91505082606083015295945050505050565b6020808252825182820181905260009190848201906040850190845b818110156104fd578351835292840192918401916001016104e1565b50909695505050505050565b60608152600061051c6060830186610442565b828103602084015261052e8186610442565b915050826040830152949350505050565b600181811c9082168061055357607f821691505b60208210810361057357634e487b7160e01b600052602260045260246000fd5b5091905056fea2646970667358221220736b83b3948769b615525f73a714de78dfd33b09a51f379477fc7edf1fa77e7364736f6c63430008130033",
  "linkReferences": {},
  "deployedLinkReferences": {}
}