{
  "_format": "hh-sol-artifact-1",
  "contractName": "AddressToString",
  "sourceName": "contracts/utils/AddressToString.sol",
  "abi": [
    {
      "inputs": [
        {
          "internalType": "address",
          "name": "_address",
          "type": "address"
        }
      ],
      "name": "addToStr",
      "outputs": [
        {
          "internalType": "string",
          "name": "",
          "type": "string"
        }
      ],
      "stateMutability": "pure",
      "type": "function"
    }
  ],
  "bytecode": "0x608060405234801561001057600080fd5b50610767806100206000396000f3fe608060405234801561001057600080fd5b506004361061002b5760003560e01c806312ac167c14610030575b600080fd5b61004a600480360381019061004591906104fd565b610060565b60405161005791906105ba565b60405180910390f35b606061007667c6c2a97e3fce25a460c01b610497565b61008a678b9003f64629527160c01b610497565b61009e679a3115c808db295760c01b610497565b60008273ffffffffffffffffffffffffffffffffffffffff1660001b90506100d067de4b0ed40e05566460c01b610497565b6100e46710d85f562cda14c460c01b610497565b60006040518060400160405280601081526020017f3031323334353637383961626364656600000000000000000000000000000000815250905061013267340afe87cd14d3fb60c01b610497565b61014667fdcf0d66da28a43660c01b610497565b6000602a67ffffffffffffffff811115610163576101626105dc565b5b6040519080825280601f01601f1916602001820160405280156101955781602001600182028036833780820191505090505b5090506101ac67fab9f092363f74b060c01b610497565b7f3000000000000000000000000000000000000000000000000000000000000000816000815181106101e1576101e061060b565b5b60200101907effffffffffffffffffffffffffffffffffffffffffffffffffffffffffffff1916908160001a90535061022467ed9fcec2dd0e556260c01b610497565b7f7800000000000000000000000000000000000000000000000000000000000000816001815181106102595761025861060b565b5b60200101907effffffffffffffffffffffffffffffffffffffffffffffffffffffffffffff1916908160001a90535061029c67da9c01a3a26884fc60c01b610497565b6102b067cee081367d156c8b60c01b610497565b60005b6014811015610463576102d06725a4132e77404c0b60c01b610497565b82600485600c846102e19190610673565b602081106102f2576102f161060b565b5b1a60f81b7effffffffffffffffffffffffffffffffffffffffffffffffffffffffffffff1916901c60f81c60ff16815181106103315761033061060b565b5b602001015160f81c60f81b8260028361034a91906106a7565b60026103569190610673565b815181106103675761036661060b565b5b60200101907effffffffffffffffffffffffffffffffffffffffffffffffffffffffffffff1916908160001a9053506103aa6770a8741b582a334060c01b610497565b82600f60f81b85600c846103be9190610673565b602081106103cf576103ce61060b565b5b1a60f81b1660f81c60ff16815181106103eb576103ea61060b565b5b602001015160f81c60f81b8260028361040491906106a7565b60036104109190610673565b815181106104215761042061060b565b5b60200101907effffffffffffffffffffffffffffffffffffffffffffffffffffffffffffff1916908160001a905350808061045b906106e9565b9150506102b3565b5061047867e337d3bb0e02809d60c01b610497565b61048c679f8efc402a44a4f960c01b610497565b809350505050919050565b50565b600080fd5b600073ffffffffffffffffffffffffffffffffffffffff82169050919050565b60006104ca8261049f565b9050919050565b6104da816104bf565b81146104e557600080fd5b50565b6000813590506104f7816104d1565b92915050565b6000602082840312156105135761051261049a565b5b6000610521848285016104e8565b91505092915050565b600081519050919050565b600082825260208201905092915050565b60005b83811015610564578082015181840152602081019050610549565b60008484015250505050565b6000601f19601f8301169050919050565b600061058c8261052a565b6105968185610535565b93506105a6818560208601610546565b6105af81610570565b840191505092915050565b600060208201905081810360008301526105d48184610581565b905092915050565b7f4e487b7100000000000000000000000000000000000000000000000000000000600052604160045260246000fd5b7f4e487b7100000000000000000000000000000000000000000000000000000000600052603260045260246000fd5b6000819050919050565b7f4e487b7100000000000000000000000000000000000000000000000000000000600052601160045260246000fd5b600061067e8261063a565b91506106898361063a565b92508282019050808211156106a1576106a0610644565b5b92915050565b60006106b28261063a565b91506106bd8361063a565b92508282026106cb8161063a565b915082820484148315176106e2576106e1610644565b5b5092915050565b60006106f48261063a565b91507fffffffffffffffffffffffffffffffffffffffffffffffffffffffffffffffff820361072657610725610644565b5b60018201905091905056fea2646970667358221220d9bf92148d0946370ed5749ce4177c1e1c08b1fa9d6cbf804d089b03140665ce64736f6c63430008130033",
  "linkReferences": {},
  "deployedLinkReferences": {}
}