{
  "_format": "hh-sol-artifact-1",
  "contractName": "AddressToString",
  "sourceName": "contracts/utils/AddressToString.sol",
  "abi": [
    {
      "inputs": [
        {
          "internalType": "address",
          "name": "_address",
          "type": "address"
        }
      ],
      "name": "addToStr",
      "outputs": [
        {
          "internalType": "string",
          "name": "",
          "type": "string"
        }
      ],
      "stateMutability": "pure",
      "type": "function"
    }
  ],
  "bytecode": "0x608060405234801561001057600080fd5b5061036d806100206000396000f3fe608060405234801561001057600080fd5b506004361061002b5760003560e01c806312ac167c14610030575b600080fd5b61004361003e366004610244565b610059565b6040516100509190610274565b60405180910390f35b604080518082018252601081526f181899199a1a9b1b9c1cb0b131b232b360811b60208201528151602a80825260608281019094526001600160a01b0385169291600091602082018180368337019050509050600360fc1b816000815181106100c4576100c46102c2565b60200101906001600160f81b031916908160001a905350600f60fb1b816001815181106100f3576100f36102c2565b60200101906001600160f81b031916908160001a90535060005b601481101561023b578260048561012584600c6102ee565b60208110610135576101356102c2565b1a60f81b6001600160f81b031916901c60f81c60ff168151811061015b5761015b6102c2565b01602001516001600160f81b03191682610176836002610307565b6101819060026102ee565b81518110610191576101916102c2565b60200101906001600160f81b031916908160001a90535082846101b583600c6102ee565b602081106101c5576101c56102c2565b825191901a600f169081106101dc576101dc6102c2565b01602001516001600160f81b031916826101f7836002610307565b6102029060036102ee565b81518110610212576102126102c2565b60200101906001600160f81b031916908160001a905350806102338161031e565b91505061010d565b50949350505050565b60006020828403121561025657600080fd5b81356001600160a01b038116811461026d57600080fd5b9392505050565b600060208083528351808285015260005b818110156102a157858101830151858201604001528201610285565b506000604082860101526040601f19601f8301168501019250505092915050565b634e487b7160e01b600052603260045260246000fd5b634e487b7160e01b600052601160045260246000fd5b80820180821115610301576103016102d8565b92915050565b8082028115828204841417610301576103016102d8565b600060018201610330576103306102d8565b506001019056fea26469706673582212209f4f230edd8ab2f497cf05443e0c26e7817a4a9ecdad82276465a287f5fe044364736f6c63430008130033",
  "linkReferences": {},
  "deployedLinkReferences": {}
}