{"contracts/Certifications.sol":{"Certifications":{"abi":[{"inputs":[{"internalType":"address","name":"certifier_admin1","type":"address"},{"internalType":"address","name":"certifier_admin2","type":"address"}],"stateMutability":"nonpayable","type":"constructor"},{"anonymous":false,"inputs":[{"indexed":true,"internalType":"bytes32","name":"role","type":"bytes32"},{"indexed":true,"internalType":"bytes32","name":"previousAdminRole","type":"bytes32"},{"indexed":true,"internalType":"bytes32","name":"newAdminRole","type":"bytes32"}],"name":"RoleAdminChanged","type":"event"},{"anonymous":false,"inputs":[{"indexed":true,"internalType":"bytes32","name":"role","type":"bytes32"},{"indexed":true,"internalType":"address","name":"account","type":"address"},{"indexed":true,"internalType":"address","name":"sender","type":"address"}],"name":"RoleGranted","type":"event"},{"anonymous":false,"inputs":[{"indexed":true,"internalType":"bytes32","name":"role","type":"bytes32"},{"indexed":true,"internalType":"address","name":"account","type":"address"},{"indexed":true,"internalType":"address","name":"sender","type":"address"}],"name":"RoleRevoked","type":"event"},{"anonymous":false,"inputs":[{"indexed":false,"internalType":"uint256","name":"studentId","type":"uint256"},{"indexed":false,"internalType":"enum Certifications.appreciation","name":"appreciation","type":"uint8"},{"indexed":false,"internalType":"enum Certifications.degree","name":"degree","type":"uint8"},{"indexed":false,"internalType":"enum Certifications.program","name":"program","type":"uint8"}],"name":"certificationEmited","type":"event"},{"anonymous":false,"inputs":[{"indexed":false,"internalType":"bytes32","name":"multiSigName","type":"bytes32"}],"name":"multiSigCleared","type":"event"},{"anonymous":false,"inputs":[{"indexed":false,"internalType":"bytes32","name":"multiSigName","type":"bytes32"}],"name":"multiSigSigned","type":"event"},{"inputs":[],"name":"CERTIFIER","outputs":[{"internalType":"bytes32","name":"","type":"bytes32"}],"stateMutability":"view","type":"function"},{"inputs":[],"name":"CERTIFIER_ADMIN","outputs":[{"internalType":"bytes32","name":"","type":"bytes32"}],"stateMutability":"view","type":"function"},{"inputs":[],"name":"DEFAULT_ADMIN_ROLE","outputs":[{"internalType":"bytes32","name":"","type":"bytes32"}],"stateMutability":"view","type":"function"},{"inputs":[],"name":"MAX_CERTIFIERS","outputs":[{"internalType":"uint8","name":"","type":"uint8"}],"stateMutability":"view","type":"function"},{"inputs":[],"name":"MAX_CERTIFIERS_ADMIN","outputs":[{"internalType":"uint8","name":"","type":"uint8"}],"stateMutability":"view","type":"function"},{"inputs":[],"name":"MIN_CERTIFIERS_ADMIN","outputs":[{"internalType":"uint8","name":"","type":"uint8"}],"stateMutability":"view","type":"function"},{"inputs":[],"name":"PERCENT_TO_CERTIFY","outputs":[{"internalType":"uint8","name":"","type":"uint8"}],"stateMutability":"view","type":"function"},{"inputs":[],"name":"PERCENT_TO_EDIT_CERTIFICATE","outputs":[{"internalType":"uint8","name":"","type":"uint8"}],"stateMutability":"view","type":"function"},{"inputs":[],"name":"PERCENT_TO_GRANT_CERTIFIER","outputs":[{"internalType":"uint8","name":"","type":"uint8"}],"stateMutability":"view","type":"function"},{"inputs":[],"name":"PERCENT_TO_GRANT_CERTIFIER_ADMIN","outputs":[{"internalType":"uint8","name":"","type":"uint8"}],"stateMutability":"view","type":"function"},{"inputs":[],"name":"PERCENT_TO_REVOKE_CERTIFIER","outputs":[{"internalType":"uint8","name":"","type":"uint8"}],"stateMutability":"view","type":"function"},{"inputs":[],"name":"PERCENT_TO_REVOKE_CERTIFIER_ADMIN","outputs":[{"internalType":"uint8","name":"","type":"uint8"}],"stateMutability":"view","type":"function"},{"inputs":[{"internalType":"uint256","name":"a","type":"uint256"},{"internalType":"uint256","name":"b","type":"uint256"}],"name":"ceilUDiv","outputs":[{"internalType":"uint256","name":"","type":"uint256"}],"stateMutability":"pure","type":"function"},{"inputs":[{"internalType":"bytes32","name":"","type":"bytes32"}],"name":"certificates","outputs":[{"internalType":"enum Certifications.appreciation","name":"appreciation","type":"uint8"},{"internalType":"enum Certifications.degree","name":"degree","type":"uint8"},{"internalType":"enum Certifications.program","name":"program","type":"uint8"},{"internalType":"uint256","name":"emition_date","type":"uint256"},{"internalType":"bool","name":"validity","type":"bool"},{"internalType":"uint256","name":"id","type":"uint256"},{"internalType":"bytes32","name":"firstname","type":"bytes32"},{"internalType":"bytes32","name":"lastname","type":"bytes32"},{"internalType":"uint256","name":"birthdate","type":"uint256"}],"stateMutability":"view","type":"function"},{"inputs":[{"internalType":"uint256","name":"studentId","type":"uint256"},{"internalType":"string","name":"studentFirstname","type":"string"},{"internalType":"string","name":"studentLastname","type":"string"},{"internalType":"uint256","name":"studentBirthdate","type":"uint256"},{"internalType":"enum Certifications.appreciation","name":"app","type":"uint8"},{"internalType":"enum Certifications.degree","name":"deg","type":"uint8"},{"internalType":"enum Certifications.program","name":"prog","type":"uint8"}],"name":"certify","outputs":[],"stateMutability":"nonpayable","type":"function"},{"inputs":[{"internalType":"bytes32","name":"role","type":"bytes32"}],"name":"getRoleAdmin","outputs":[{"internalType":"bytes32","name":"","type":"bytes32"}],"stateMutability":"view","type":"function"},{"inputs":[{"internalType":"bytes32","name":"roleHash","type":"bytes32"},{"internalType":"address","name":"target","type":"address"},{"internalType":"bool","name":"sign","type":"bool"}],"name":"grantAnyRole","outputs":[],"stateMutability":"nonpayable","type":"function"},{"inputs":[{"internalType":"bytes32","name":"role","type":"bytes32"},{"internalType":"address","name":"account","type":"address"}],"name":"grantRole","outputs":[],"stateMutability":"nonpayable","type":"function"},{"inputs":[{"internalType":"bytes32","name":"role","type":"bytes32"},{"internalType":"address","name":"account","type":"address"}],"name":"hasRole","outputs":[{"internalType":"bool","name":"","type":"bool"}],"stateMutability":"view","type":"function"},{"inputs":[{"internalType":"bytes32","name":"","type":"bytes32"}],"name":"multiSig","outputs":[{"internalType":"bool","name":"created","type":"bool"},{"internalType":"bytes32","name":"role","type":"bytes32"},{"internalType":"uint8","name":"count","type":"uint8"},{"internalType":"uint8","name":"id","type":"uint8"},{"internalType":"string","name":"info","type":"string"}],"stateMutability":"view","type":"function"},{"inputs":[{"internalType":"uint256","name":"","type":"uint256"}],"name":"multiSigId","outputs":[{"internalType":"bytes32","name":"","type":"bytes32"}],"stateMutability":"view","type":"function"},{"inputs":[{"internalType":"bytes32","name":"","type":"bytes32"},{"internalType":"address","name":"","type":"address"}],"name":"renounceRole","outputs":[],"stateMutability":"nonpayable","type":"function"},{"inputs":[{"internalType":"bytes32","name":"roleHash","type":"bytes32"},{"internalType":"address","name":"target","type":"address"},{"internalType":"bool","name":"sign","type":"bool"}],"name":"revokeAnyRole","outputs":[],"stateMutability":"nonpayable","type":"function"},{"inputs":[{"internalType":"bytes32","name":"role","type":"bytes32"},{"internalType":"address","name":"account","type":"address"}],"name":"revokeRole","outputs":[],"stateMutability":"nonpayable","type":"function"},{"inputs":[{"internalType":"bytes4","name":"interfaceId","type":"bytes4"}],"name":"supportsInterface","outputs":[{"internalType":"bool","name":"","type":"bool"}],"stateMutability":"view","type":"function"}],"evm":{"bytecode":{"linkReferences":{},"object":"60806040523480156200001157600080fd5b5060405162005f1f38038062005f1f83398181016040528101906200003791906200099c565b6200005367a0b843672511ab5560c01b620007b660201b60201c565b6200006f677c7927e4b5bd48f460c01b620007b660201b60201c565b6200008b67a4ebbaf8faac82d260c01b620007b660201b60201c565b620000a76797b47e77a9a7b3fc60c01b620007b660201b60201c565b600073ffffffffffffffffffffffffffffffffffffffff168273ffffffffffffffffffffffffffffffffffffffff160362000119576040517f08c379a0000000000000000000000000000000000000000000000000000000008152600401620001109062000a6a565b60405180910390fd5b6200013567758438fa606727d960c01b620007b660201b60201c565b6200015167589e0c39053cad2660c01b620007b660201b60201c565b6200016d6759de4f2a505f6c6d60c01b620007b660201b60201c565b62000189676d4a2d08a14ea23160c01b620007b660201b60201c565b600073ffffffffffffffffffffffffffffffffffffffff168173ffffffffffffffffffffffffffffffffffffffff1603620001fb576040517f08c379a0000000000000000000000000000000000000000000000000000000008152600401620001f29062000b02565b60405180910390fd5b6200021767c3b37424d9c469d060c01b620007b660201b60201c565b6200023367740ce2464856c2b360c01b620007b660201b60201c565b6200024f676ae93f6bf114c2f760c01b620007b660201b60201c565b6200026b677a7ed0c4e584401460c01b620007b660201b60201c565b8073ffffffffffffffffffffffffffffffffffffffff168273ffffffffffffffffffffffffffffffffffffffff1603620002dc576040517f08c379a0000000000000000000000000000000000000000000000000000000008152600401620002d39062000b9a565b60405180910390fd5b620002f86745d4f9869d13660b60c01b620007b660201b60201c565b62000314671cbdd7add0b2dd5c60c01b620007b660201b60201c565b6200033067f2a3b9ba0bc2281e60c01b620007b660201b60201c565b620003627f4bbeb6fd3e5222e55f2f8b0c35bc228e0a06a25d0da772fdb02c3b92fa004f8883620007b960201b60201c565b6200037e679859be0913bc1e1760c01b620007b660201b60201c565b6200039a678f5912fc196c66fb60c01b620007b660201b60201c565b620003cc7f4bbeb6fd3e5222e55f2f8b0c35bc228e0a06a25d0da772fdb02c3b92fa004f8882620007cf60201b60201c565b620003e867d451ad32aab430b860c01b620007b660201b60201c565b6040518060e00160405280600263ffffffff168152602001600260ff1663ffffffff168152602001600f60ff1663ffffffff168152602001605060ff168152602001605060ff1681526020017f4bbeb6fd3e5222e55f2f8b0c35bc228e0a06a25d0da772fdb02c3b92fa004f8881526020016040516020016200046b9062000c17565b604051602081830303815290604052620004859062000c77565b815250600160007f4bbeb6fd3e5222e55f2f8b0c35bc228e0a06a25d0da772fdb02c3b92fa004f88815260200190815260200160002060008201518160000160006101000a81548163ffffffff021916908363ffffffff16021790555060208201518160000160046101000a81548163ffffffff021916908363ffffffff16021790555060408201518160000160086101000a81548163ffffffff021916908363ffffffff160217905550606082015181600001600c6101000a81548160ff021916908360ff160217905550608082015181600001600d6101000a81548160ff021916908360ff16021790555060a0820151816001015560c08201518160020155905050620005a5672f872260ec70aa8060c01b620007b660201b60201c565b620005c167e28d98831e470a0e60c01b620007b660201b60201c565b620005f47fd646ae07eb0d0f77457502a65e7407930dff4cd4fd99abc6aac87a753f4c8a426000620007b960201b60201c565b620006106770e61a765dfb20aa60c01b620007b660201b60201c565b6040518060e00160405280600063ffffffff168152602001600063ffffffff168152602001600f60ff1663ffffffff168152602001605060ff168152602001605060ff1681526020017f4bbeb6fd3e5222e55f2f8b0c35bc228e0a06a25d0da772fdb02c3b92fa004f888152602001604051602001620006909062000d37565b604051602081830303815290604052620006aa9062000c77565b815250600160007fd646ae07eb0d0f77457502a65e7407930dff4cd4fd99abc6aac87a753f4c8a42815260200190815260200160002060008201518160000160006101000a81548163ffffffff021916908363ffffffff16021790555060208201518160000160046101000a81548163ffffffff021916908363ffffffff16021790555060408201518160000160086101000a81548163ffffffff021916908363ffffffff160217905550606082015181600001600c6101000a81548160ff021916908360ff160217905550608082015181600001600d6101000a81548160ff021916908360ff16021790555060a0820151816001015560c08201518160020155905050505062000d4e565b50565b620007cb8282620007cf60201b60201c565b5050565b620007e18282620008c060201b60201c565b620008bc57600160008084815260200190815260200160002060000160008373ffffffffffffffffffffffffffffffffffffffff1673ffffffffffffffffffffffffffffffffffffffff16815260200190815260200160002060006101000a81548160ff021916908315150217905550620008616200092a60201b60201c565b73ffffffffffffffffffffffffffffffffffffffff168173ffffffffffffffffffffffffffffffffffffffff16837f2f8788117e7eff1d82e926ec794901d17c78024a50270940304540a733656f0d60405160405180910390a45b5050565b600080600084815260200190815260200160002060000160008373ffffffffffffffffffffffffffffffffffffffff1673ffffffffffffffffffffffffffffffffffffffff16815260200190815260200160002060009054906101000a900460ff16905092915050565b600033905090565b600080fd5b600073ffffffffffffffffffffffffffffffffffffffff82169050919050565b6000620009648262000937565b9050919050565b620009768162000957565b81146200098257600080fd5b50565b60008151905062000996816200096b565b92915050565b60008060408385031215620009b657620009b562000932565b5b6000620009c68582860162000985565b9250506020620009d98582860162000985565b9150509250929050565b600082825260208201905092915050565b7f4365727469666965722061646d696e3120616464726573732063616e6e6f742060008201527f6265203000000000000000000000000000000000000000000000000000000000602082015250565b600062000a52602483620009e3565b915062000a5f82620009f4565b604082019050919050565b6000602082019050818103600083015262000a858162000a43565b9050919050565b7f4365727469666965722061646d696e3220616464726573732063616e6e6f742060008201527f6265203000000000000000000000000000000000000000000000000000000000602082015250565b600062000aea602483620009e3565b915062000af78262000a8c565b604082019050919050565b6000602082019050818103600083015262000b1d8162000adb565b9050919050565b7f436572746966696572206164647265737365732063616e6e6f7420626520746860008201527f652073616d650000000000000000000000000000000000000000000000000000602082015250565b600062000b82602683620009e3565b915062000b8f8262000b24565b604082019050919050565b6000602082019050818103600083015262000bb58162000b73565b9050919050565b600081905092915050565b7f4345525449464945525f41444d494e0000000000000000000000000000000000600082015250565b600062000bff600f8362000bbc565b915062000c0c8262000bc7565b600f82019050919050565b600062000c248262000bf0565b9150819050919050565b600081519050919050565b6000819050602082019050919050565b6000819050919050565b600062000c61825162000c49565b80915050919050565b600082821b905092915050565b600062000c848262000c2e565b8262000c908462000c39565b905062000c9d8162000c53565b9250602082101562000ce05762000cdb7fffffffffffffffffffffffffffffffffffffffffffffffffffffffffffffffff8360200360080262000c6a565b831692505b5050919050565b7f4345525449464945520000000000000000000000000000000000000000000000600082015250565b600062000d1f60098362000bbc565b915062000d2c8262000ce7565b600982019050919050565b600062000d448262000d10565b9150819050919050565b6151c18062000d5e6000396000f3fe608060405234801561001057600080fd5b50600436106101735760003560e01c80636bc6421b116100de5780639e33990911610097578063bf80209111610071578063bf8020911461045e578063d3243ad81461048e578063d547741f146104aa578063e05f2fb4146104c657610173565b80639e33990914610404578063a217fddf14610422578063b86bc74f1461044057610173565b80636bc6421b14610314578063719129be14610332578063742f06881461034e5780637cd29fb71461038657806391d14854146103a45780639dd09a73146103d457610173565b80632e83c14b116101305780632e83c14b146102665780632f2ff15d1461028257806333b72e491461029e57806336568abe146102bc5780634da11a20146102d85780635907ebea146102f657610173565b806301ffc9a7146101785780630f68794a146101a85780631a968069146101c65780631a9cfe28146101fa578063248a9ca3146102185780632cd94e4f14610248575b600080fd5b610192600480360381019061018d919061362b565b6104e4565b60405161019f9190613673565b60405180910390f35b6101b061055e565b6040516101bd91906136aa565b60405180910390f35b6101e060048036038101906101db91906136fb565b610563565b6040516101f19594939291906137c7565b60405180910390f35b610202610648565b60405161020f91906136aa565b60405180910390f35b610232600480360381019061022d91906136fb565b61064d565b60405161023f9190613821565b60405180910390f35b61025061066c565b60405161025d91906136aa565b60405180910390f35b610280600480360381019061027b9190613a16565b610671565b005b61029c60048036038101906102979190613b4e565b610fa9565b005b6102a6610fca565b6040516102b391906136aa565b60405180910390f35b6102d660048036038101906102d19190613b4e565b610fcf565b005b6102e0611046565b6040516102ed91906136aa565b60405180910390f35b6102fe61104b565b60405161030b91906136aa565b60405180910390f35b61031c611050565b60405161032991906136aa565b60405180910390f35b61034c60048036038101906103479190613bba565b611055565b005b610368600480360381019061036391906136fb565b6118d9565b60405161037d99989796959493929190613d23565b60405180910390f35b61038e61195b565b60405161039b91906136aa565b60405180910390f35b6103be60048036038101906103b99190613b4e565b611960565b6040516103cb9190613673565b60405180910390f35b6103ee60048036038101906103e99190613db0565b6119ca565b6040516103fb9190613821565b60405180910390f35b61040c6119e2565b60405161041991906136aa565b60405180910390f35b61042a6119e7565b6040516104379190613821565b60405180910390f35b6104486119ee565b6040516104559190613821565b60405180910390f35b61047860048036038101906104739190613ddd565b611a12565b6040516104859190613e1d565b60405180910390f35b6104a860048036038101906104a39190613bba565b611b0f565b005b6104c460048036038101906104bf9190613b4e565b6126d2565b005b6104ce6126f3565b6040516104db9190613821565b60405180910390f35b60007f7965db0b000000000000000000000000000000000000000000000000000000007bffffffffffffffffffffffffffffffffffffffffffffffffffffffff1916827bffffffffffffffffffffffffffffffffffffffffffffffffffffffff19161480610557575061055682612717565b5b9050919050565b605081565b60026020528060005260406000206000915090508060000160009054906101000a900460ff16908060010154908060020160009054906101000a900460ff16908060020160019054906101000a900460ff16908060050180546105c590613e67565b80601f01602080910402602001604051908101604052809291908181526020018280546105f190613e67565b801561063e5780601f106106135761010080835404028352916020019161063e565b820191906000526020600020905b81548152906001019060200180831161062157829003601f168201915b5050505050905085565b605081565b6000806000838152602001908152602001600020600101549050919050565b605081565b61068567d0a65ecdfb35759e60c01b612781565b61069967fecb9a5516d562ad60c01b612781565b6106ad6711522e4c80b8acf560c01b612781565b6106c1675a87c8131b0f347660c01b612781565b6106eb7fd646ae07eb0d0f77457502a65e7407930dff4cd4fd99abc6aac87a753f4c8a4233611960565b61072a576040517f08c379a000000000000000000000000000000000000000000000000000000000815260040161072190613ee4565b60405180910390fd5b61073e67b52e37c57f13f03660c01b612781565b61075267c6bc374fa7feff0160c01b612781565b6107666786ac1e62d24a349860c01b612781565b61077a679e5c2cdd766b16de60c01b612781565b6000600381111561078e5761078d613c0d565b5b8360038111156107a1576107a0613c0d565b5b101580156107d357506003808111156107bd576107bc613c0d565b5b8360038111156107d0576107cf613c0d565b5b11155b610812576040517f08c379a000000000000000000000000000000000000000000000000000000000815260040161080990613f50565b60405180910390fd5b6108266753aaaf9320fe18fd60c01b612781565b61083a67ab49e147b91272b360c01b612781565b61084e679ab8a363c1db47f760c01b612781565b61086267c80f0b231c338b2d60c01b612781565b6000600281111561087657610875613c0d565b5b82600281111561088957610888613c0d565b5b101580156108bb57506002808111156108a5576108a4613c0d565b5b8260028111156108b8576108b7613c0d565b5b11155b6108fa576040517f08c379a00000000000000000000000000000000000000000000000000000000081526004016108f190613fbc565b60405180910390fd5b61090e675397bbbeef836ad860c01b612781565b610922679b6d6670acbbe93360c01b612781565b610936678dba3cfcdd7ab4ab60c01b612781565b61094a672e1f532eb4156eb560c01b612781565b6000600f81111561095e5761095d613c0d565b5b81600f81111561097157610970613c0d565b5b101580156109a35750600f8081111561098d5761098c613c0d565b5b81600f8111156109a05761099f613c0d565b5b11155b6109e2576040517f08c379a00000000000000000000000000000000000000000000000000000000081526004016109d990614028565b60405180910390fd5b6109f667b763b8910a23efee60c01b612781565b610a0a67acd6a8c8f4d574b660c01b612781565b610a1e677697096d64270cdb60c01b612781565b610a32673318f6946f78197860c01b612781565b600015156005600089868686604051602001610a5194939291906140cd565b60405160208183030381529060405280519060200120815260200190815260200160002060020160009054906101000a900460ff16151514610ac8576040517f08c379a0000000000000000000000000000000000000000000000000000000008152600401610abf90614167565b60405180910390fd5b610adc67d4c4533d7e9a60a660c01b612781565b610af06732954512786739f560c01b612781565b610b046724bcd6ffdfbd0d4d60c01b612781565b600087848484604051602001610b1d94939291906141de565b604051602081830303815290604052805190602001209050610b49677338a703ca5a2a9660c01b612781565b610b5d673b1e688b7d79d00d60c01b612781565b610c29817fd646ae07eb0d0f77457502a65e7407930dff4cd4fd99abc6aac87a753f4c8a428a604051602001610b939190614237565b60405160208183030381529060405287604051602001610bb39190614252565b60405160208183030381529060405287604051602001610bd3919061426d565b60405160208183030381529060405287604051602001610bf39190614288565b604051602081830303815290604052604051602001610c159493929190614320565b604051602081830303815290604052612784565b610c3d676bea465bb441461060c01b612781565b610c5167e8c1fa74bacd7fbb60c01b612781565b600015156002600083815260200190815260200160002060030160003373ffffffffffffffffffffffffffffffffffffffff1673ffffffffffffffffffffffffffffffffffffffff16815260200190815260200160002060009054906101000a900460ff16151503610d7957610cd1671f5319feb6477e3560c01b612781565b610ce567f438d58dfb1be18260c01b612781565b610cf9678ef10dcaeac9036f60c01b612781565b610d156002600083815260200190815260200160002033612928565b610d296735f2056c8483d80460c01b612781565b610d3d67c187d7d65cf65af260c01b612781565b7fb431a69783a2491a0c400ff16dab32cd442abf8fe5af63a526a7248d730192f881604051610d6c9190613821565b60405180910390a1610d8e565b610d8d67ade7a62c071e519d60c01b612781565b5b610da2675439b2c4cd16482360c01b612781565b610db6672f6377f918fc3e7460c01b612781565b610e1c603360ff16600160007fd646ae07eb0d0f77457502a65e7407930dff4cd4fd99abc6aac87a753f4c8a42815260200190815260200160002060000160009054906101000a900463ffffffff16610e0f91906143d9565b63ffffffff166064611a12565b6002600083815260200190815260200160002060020160009054906101000a900460ff1660ff1610610f8a57610e5c6762c646c22c573f3e60c01b612781565b610e7067220ad4741fc3df5d60c01b612781565b610e846799a0b0988af0867760c01b612781565b610e9f60026000838152602001908152602001600020612baa565b610eb3675d49ac61be8ebd7160c01b612781565b610ec767ac18a9a1ec69e6b860c01b612781565b7f562618dbcf74b61ae5b0f229fe40ba6d5b6ae6b4248f8c89a870dda7c77135f681604051610ef69190613821565b60405180910390a1610f1267698bf9a5753ef89160c01b612781565b610f26674a780f79854977d860c01b612781565b610f858888604051602001610f3b9190614416565b604051602081830303815290604052610f539061446a565b88604051602001610f649190614416565b604051602081830303815290604052610f7c9061446a565b88888888612cf7565b610f9f565b610f9e6769ad2177cecd222f60c01b612781565b5b5050505050505050565b610fb28261064d565b610fbb81612f2b565b610fc58383612f3f565b505050565b600281565b610fe367515d414290ef63a760c01b612781565b610ff767408d4005470649cf60c01b612781565b61100b679c54a3cc10a34a3d60c01b612781565b6040517f08c379a000000000000000000000000000000000000000000000000000000000815260040161103d90614543565b60405180910390fd5b605081565b600f81565b603381565b61106967f9332553eceb56d860c01b612781565b61107d677d4cea3f8d4622d560c01b612781565b61109167eb262170ab108a0360c01b612781565b60006001600085815260200190815260200160002090506110bc67978f6ecc8f60681960c01b612781565b6110d067d61646692ed40d1060c01b612781565b6110e467281f41604962ef6360c01b612781565b8060000160009054906101000a900463ffffffff1663ffffffff168160000160089054906101000a900463ffffffff1663ffffffff161181600201546040516020016111309190614584565b60405160208183030381529060405260405160200161114f91906145eb565b6040516020818303038152906040529061119f576040517f08c379a00000000000000000000000000000000000000000000000000000000081526004016111969190614620565b60405180910390fd5b506111b46701dc47e9dc7e2d4960c01b612781565b6111c867e00c6e3f0d9a678b60c01b612781565b6111dc67211496b55cb50cff60c01b612781565b6111f067fa27c246eee8a08b60c01b612781565b6111fe816001015433611960565b81600201546040516020016112139190614584565b604051602081830303815290604052604051602001611232919061468e565b60405160208183030381529060405290611282576040517f08c379a00000000000000000000000000000000000000000000000000000000081526004016112799190614620565b60405180910390fd5b5061129767ba7a7d4f3ff1ed8260c01b612781565b6112ab6719a84e662ed6d2e460c01b612781565b6112bf67553b9ae776c1ac0760c01b612781565b6112d36776e3a440f346f78b60c01b612781565b600015156112e18585611960565b15151481600201546040516020016112f99190614584565b60405160208183030381529060405260405160200161131891906146e9565b60405160208183030381529060405290611368576040517f08c379a000000000000000000000000000000000000000000000000000000000815260040161135f9190614620565b60405180910390fd5b5061137d672fe19dd197ae71b760c01b612781565b611391674dadad20973e5e5d60c01b612781565b6113a567dcfd845b2fe814ee60c01b612781565b600083856040516020016113ba9291906147a3565b6040516020818303038152906040528051906020012090506113e66787c8ea0feda3ada560c01b612781565b6113fa67124f1dad53c69bc560c01b612781565b61146c81836001015484600201546040516020016114189190614584565b6040516020818303038152906040528760405160200161143891906147da565b60405160208183030381529060405260405160200161145892919061481b565b604051602081830303815290604052612784565b611480676e8d3572b8c8ba0b60c01b612781565b61149467ec4e2bcd0646233360c01b612781565b8280156115055750600015156002600083815260200190815260200160002060030160003373ffffffffffffffffffffffffffffffffffffffff1673ffffffffffffffffffffffffffffffffffffffff16815260200190815260200160002060009054906101000a900460ff161515145b156115c65761151e6771868017dd9ea9a260c01b612781565b61153267ab1bd67fcc0dc4e660c01b612781565b6115466714693ce83117a4a660c01b612781565b6115626002600083815260200190815260200160002033612928565b611576671ee91d41820de70160c01b612781565b61158a6765714ee521157c1660c01b612781565b7fb431a69783a2491a0c400ff16dab32cd442abf8fe5af63a526a7248d730192f8816040516115b99190613821565b60405180910390a16116cc565b6115da67647b5b224d6b094960c01b612781565b6115ee6765b7e103c94a229d60c01b612781565b60001515831515036116b65761160e6712792db49bd8000860c01b612781565b611622673a5a274be22801d260c01b612781565b61163667493634455e2d80e960c01b612781565b611652600260008381526020019081526020016000203361301f565b611666671175e050037a7c2760c01b612781565b61167a675137f0b970b59aa760c01b612781565b7fb431a69783a2491a0c400ff16dab32cd442abf8fe5af63a526a7248d730192f8816040516116a99190613821565b60405180910390a16116cb565b6116ca677ba3d7ad982f17c160c01b612781565b5b5b6116e0675ff2fe70f0a1650860c01b612781565b6116f46739d9fb6b575ba4e360c01b612781565b61174e82600001600c9054906101000a900460ff1660ff16600160008560010154815260200190815260200160002060000160009054906101000a900463ffffffff1661174191906143d9565b63ffffffff166064611a12565b6002600083815260200190815260200160002060020160009054906101000a900460ff1660ff16106118bd5761178e67248dca5c34ff865b60c01b612781565b6117a26752d84047f7ec1fd860c01b612781565b6117b667ae030a65c15f875560c01b612781565b6117d160026000838152602001908152602001600020612baa565b6117e5674dbd682bd4fc310660c01b612781565b6117f96714f96b5406597f9960c01b612781565b7f562618dbcf74b61ae5b0f229fe40ba6d5b6ae6b4248f8c89a870dda7c77135f6816040516118289190613821565b60405180910390a1611844670df07991caef353d60c01b612781565b61185867ae62ea1482f5a88360c01b612781565b6118628585612f3f565b61187667163e0e75e54e0c8a60c01b612781565b60018260000160008282829054906101000a900463ffffffff1661189a919061485d565b92506101000a81548163ffffffff021916908363ffffffff1602179055506118d2565b6118d167a4e6a19cbfe5167960c01b612781565b5b5050505050565b60056020528060005260406000206000915090508060000160009054906101000a900460ff16908060000160019054906101000a900460ff16908060000160029054906101000a900460ff16908060010154908060020160009054906101000a900460ff16908060030154908060040154908060050154908060060154905089565b605081565b600080600084815260200190815260200160002060000160008373ffffffffffffffffffffffffffffffffffffffff1673ffffffffffffffffffffffffffffffffffffffff16815260200190815260200160002060009054906101000a900460ff16905092915050565b60036020528060005260406000206000915090505481565b600f81565b6000801b81565b7fd646ae07eb0d0f77457502a65e7407930dff4cd4fd99abc6aac87a753f4c8a4281565b6000611a2867e2216d700919d82560c01b6131d7565b611a3c67b1db7aabfe3050a860c01b6131d7565b611a5067fdcaa693f4162f1060c01b6131d7565b60008284611a5e91906148c4565b03611ab257611a7767178361176c5b175760c01b6131d7565b611a8b67c4b9aedac44523b960c01b6131d7565b611a9f67a4703adbb9f130da60c01b6131d7565b8183611aab91906148f5565b9050611b09565b611ac6677ca098a9ee65439360c01b6131d7565b611ada67f7b14ce8c55b802460c01b6131d7565b611aee670d0b3c9dde3a472760c01b6131d7565b60018284611afc91906148f5565b611b069190614926565b90505b92915050565b611b23675c78a7177eb1a8fb60c01b612781565b611b3767bf4499ff51c0c22160c01b612781565b611b4b67822948be4d3ef9a760c01b612781565b6000600160008581526020019081526020016000209050611b766796129956313adf1b60c01b612781565b611b8a67a37df02138054e5260c01b612781565b611b9e67b057154329c49bf860c01b612781565b8060000160049054906101000a900463ffffffff1663ffffffff168160000160009054906101000a900463ffffffff1663ffffffff16118160020154604051602001611bea9190614584565b604051602081830303815290604052604051602001611c099190614980565b60405160208183030381529060405290611c59576040517f08c379a0000000000000000000000000000000000000000000000000000000008152600401611c509190614620565b60405180910390fd5b50611c6e67e3a8e90515cce0b760c01b612781565b611c8267b5a228e10270e22560c01b612781565b611c96673ddb288b7f8fde5860c01b612781565b611caa6728ffed5c4bbb136d60c01b612781565b611cb48484611960565b8160020154604051602001611cc99190614584565b604051602081830303815290604052604051602001611ce891906149db565b60405160208183030381529060405290611d38576040517f08c379a0000000000000000000000000000000000000000000000000000000008152600401611d2f9190614620565b60405180910390fd5b50611d4d671a14e86b1536e0c460c01b612781565b611d61678190894182f1322760c01b612781565b611d75675e914cc764a08bdc60c01b612781565b611d896759cb1221e0215d5e60c01b612781565b611d97816001015433611960565b8160020154604051602001611dac9190614584565b604051602081830303815290604052604051602001611dcb919061468e565b60405160208183030381529060405290611e1b576040517f08c379a0000000000000000000000000000000000000000000000000000000008152600401611e129190614620565b60405180910390fd5b50611e30676d76b91fe9de0f8c60c01b612781565b611e4467bdf8a12455256e9760c01b612781565b611e5867ed9c0b858915e64660c01b612781565b60008385604051602001611e6d929190614a4d565b604051602081830303815290604052805190602001209050611e9967649bd458a200725760c01b612781565b611ead670b6b16ea080ccdb260c01b612781565b611f1f8183600101548460020154604051602001611ecb9190614584565b60405160208183030381529060405287604051602001611eeb91906147da565b604051602081830303815290604052604051602001611f0b929190614aaa565b604051602081830303815290604052612784565b611f3367689b85ae64f251bf60c01b612781565b611f476735e2a6e6763de1be60c01b612781565b828015611fb85750600015156002600083815260200190815260200160002060030160003373ffffffffffffffffffffffffffffffffffffffff1673ffffffffffffffffffffffffffffffffffffffff16815260200190815260200160002060009054906101000a900460ff161515145b1561207957611fd16709e04ae92e1584c060c01b612781565b611fe5672117bb302f321a4960c01b612781565b611ff967918f30a7fad8441260c01b612781565b6120156002600083815260200190815260200160002033612928565b612029679d26a0bcae16f15560c01b612781565b61203d6762560a22786c9d8960c01b612781565b7fb431a69783a2491a0c400ff16dab32cd442abf8fe5af63a526a7248d730192f88160405161206c9190613821565b60405180910390a161217f565b61208d676ad05dd6ad0c5e8e60c01b612781565b6120a167b018fb771a8f126a60c01b612781565b6000151583151503612169576120c1673838e17e05cad86e60c01b612781565b6120d5673b992ef7312a36a260c01b612781565b6120e967d1937d9a9d9ede4b60c01b612781565b612105600260008381526020019081526020016000203361301f565b61211967eba93d2f1c3a372560c01b612781565b61212d67e583d3490fb5c11a60c01b612781565b7fb431a69783a2491a0c400ff16dab32cd442abf8fe5af63a526a7248d730192f88160405161215c9190613821565b60405180910390a161217e565b61217d6703c216aef0914c7d60c01b612781565b5b5b61219367e929230dacd39fc460c01b612781565b6121a767f0423ad893494d1f60c01b612781565b8160010154851415801561223a575061221082600001600d9054906101000a900460ff1660ff16600160008560010154815260200190815260200160002060000160009054906101000a900463ffffffff1661220391906143d9565b63ffffffff166064611a12565b6002600083815260200190815260200160002060020160009054906101000a900460ff1660ff1610155b80156122565750612255670e4635f8420cba4d60c01b6131da565b5b8061231657508160010154851480156122f957506122cf82600001600d9054906101000a900460ff1660ff1660018060008660010154815260200190815260200160002060000160009054906101000a900463ffffffff166122b89190614aec565b6122c291906143d9565b63ffffffff166064611a12565b6002600083815260200190815260200160002060020160009054906101000a900460ff1660ff1610155b8015612315575061231467a8f356ae64e80fb260c01b6131da565b5b5b156126b65761232f6787081979864afeae60c01b612781565b612343677547dde3e6de66c160c01b612781565b6123576776a3d74fa8fa545760c01b612781565b60005b60045481101561258657612378674ed9ea8c9338f00060c01b612781565b61238c679baa3422236fc69f60c01b612781565b60011515600260006003600085815260200190815260200160002054815260200190815260200160002060030160008773ffffffffffffffffffffffffffffffffffffffff1673ffffffffffffffffffffffffffffffffffffffff16815260200190815260200160002060009054906101000a900460ff16151514801561243b575085600260006003600085815260200190815260200160002054815260200190815260200160002060010154145b1561255e5761245467c5044043363bb23760c01b612781565b61246867bfc6b0f370d7024960c01b612781565b6001600260006003600085815260200190815260200160002054815260200190815260200160002060020160008282829054906101000a900460ff166124ae9190614b24565b92506101000a81548160ff021916908360ff1602179055506124da679ccb8433f30b7f6160c01b612781565b6000600260006003600085815260200190815260200160002054815260200190815260200160002060030160008773ffffffffffffffffffffffffffffffffffffffff1673ffffffffffffffffffffffffffffffffffffffff16815260200190815260200160002060006101000a81548160ff021916908315150217905550612573565b612572670842a97201189b8b60c01b612781565b5b808061257e90614b59565b91505061235a565b5061259b67ca8d401c43f5f9d760c01b612781565b6125af67e22dcaa2865f121160c01b612781565b6125ca60026000838152602001908152602001600020612baa565b6125de674aba95960958e73260c01b612781565b6125f26730249e749f45b5e460c01b612781565b7f562618dbcf74b61ae5b0f229fe40ba6d5b6ae6b4248f8c89a870dda7c77135f6816040516126219190613821565b60405180910390a161263d67374dfd98b823c8cf60c01b612781565b6126516720270532058f02e560c01b612781565b61265b85856131e5565b61266f679e04f1a5c5bda7df60c01b612781565b60018260000160008282829054906101000a900463ffffffff166126939190614aec565b92506101000a81548163ffffffff021916908363ffffffff1602179055506126cb565b6126ca67d618060faf473a2a60c01b612781565b5b5050505050565b6126db8261064d565b6126e481612f2b565b6126ee83836131e5565b505050565b7f4bbeb6fd3e5222e55f2f8b0c35bc228e0a06a25d0da772fdb02c3b92fa004f8881565b60007f01ffc9a7000000000000000000000000000000000000000000000000000000007bffffffffffffffffffffffffffffffffffffffffffffffffffffffff1916827bffffffffffffffffffffffffffffffffffffffffffffffffffffffff1916149050919050565b50565b6127986768c3bd0af40a1b5d60c01b612781565b6127ac672bc4242ebebe428960c01b612781565b6127c067e87324c8c42b714760c01b612781565b600015156002600085815260200190815260200160002060000160009054906101000a900460ff1615150361290e57612803672c4d7d6a241e4b8960c01b612781565b61281767f2f486595854747960c01b612781565b60016002600085815260200190815260200160002060000160006101000a81548160ff02191690831515021790555061285a678e01888c80102d3760c01b612781565b826003600060045481526020019081526020016000208190555061288867bc51f865c49130a860c01b612781565b60016004600082825461289b9190614926565b925050819055506128b667f8b6ac0350413cde60c01b612781565b8160026000858152602001908152602001600020600101819055506128e5674f5571dc82a8340f60c01b612781565b806002600085815260200190815260200160002060050190816129089190614d40565b50612923565b61292267df20ef43cd86120a60c01b612781565b5b505050565b61293c671314b6e431bedcfb60c01b6132c6565b61295067152daf20762df40b60c01b6132c6565b6129646755e49ea65d7289e060c01b6132c6565b61297867d3562b1c72a659d260c01b6132c6565b600015158260030160008373ffffffffffffffffffffffffffffffffffffffff1673ffffffffffffffffffffffffffffffffffffffff16815260200190815260200160002060009054906101000a900460ff16151514612a0d576040517f08c379a0000000000000000000000000000000000000000000000000000000008152600401612a0490614e5e565b60405180910390fd5b612a2167ac3bead4f17e4c3360c01b6132c6565b612a356709b738277559f6df60c01b6132c6565b808260040160008460020160019054906101000a900460ff1660ff16815260200190815260200160002060006101000a81548173ffffffffffffffffffffffffffffffffffffffff021916908373ffffffffffffffffffffffffffffffffffffffff160217905550612ab167d8ed15d80cef1d0460c01b6132c6565b81600201600181819054906101000a900460ff1680929190612ad290614e7e565b91906101000a81548160ff021916908360ff16021790555050612aff67c405dc6cbccb9d0760c01b6132c6565b60018260030160008373ffffffffffffffffffffffffffffffffffffffff1673ffffffffffffffffffffffffffffffffffffffff16815260200190815260200160002060006101000a81548160ff021916908315150217905550612b6d675e03a53d01baaf7860c01b6132c6565b60018260020160008282829054906101000a900460ff16612b8e9190614ea7565b92506101000a81548160ff021916908360ff1602179055505050565b612bbe67e1f2f8d4806beae660c01b6132c6565b612bd267a98859a1e9023fef60c01b6132c6565b60008160020160006101000a81548160ff021916908360ff160217905550612c0467fb5e23843aae82c760c01b6132c6565b612c1867d7e29696126fb63060c01b6132c6565b60005b8160020160019054906101000a900460ff1660ff168160ff161015612cf357612c4e67f8b20febdf336cc960c01b6132c6565b60008260030160008460040160008560ff16815260200190815260200160002060009054906101000a900473ffffffffffffffffffffffffffffffffffffffff1673ffffffffffffffffffffffffffffffffffffffff1673ffffffffffffffffffffffffffffffffffffffff16815260200190815260200160002060006101000a81548160ff0219169083151502179055508080612ceb90614e7e565b915050612c1b565b5050565b612d0b6759aacab69e3a1cf860c01b612781565b612d1f671f8604b2e035df8c60c01b612781565b604051806101200160405280846003811115612d3e57612d3d613c0d565b5b8152602001836002811115612d5657612d55613c0d565b5b815260200182600f811115612d6e57612d6d613c0d565b5b8152602001428152602001600115158152602001888152602001878152602001868152602001858152506005600089868686604051602001612db394939291906140cd565b60405160208183030381529060405280519060200120815260200190815260200160002060008201518160000160006101000a81548160ff02191690836003811115612e0257612e01613c0d565b5b021790555060208201518160000160016101000a81548160ff02191690836002811115612e3257612e31613c0d565b5b021790555060408201518160000160026101000a81548160ff0219169083600f811115612e6257612e61613c0d565b5b02179055506060820151816001015560808201518160020160006101000a81548160ff02191690831515021790555060a0820151816003015560c0820151816004015560e082015181600501556101008201518160060155905050612ed1674341521415b393ff60c01b612781565b612ee5673abda3db58ee88d660c01b612781565b7fb55811dd01470a227956304b027c610c7cdf9dd622dcc47791380261d56dc6ed87848484604051612f1a9493929190614edc565b60405180910390a150505050505050565b612f3c81612f376132c9565b6132d1565b50565b612f498282611960565b61301b57600160008084815260200190815260200160002060000160008373ffffffffffffffffffffffffffffffffffffffff1673ffffffffffffffffffffffffffffffffffffffff16815260200190815260200160002060006101000a81548160ff021916908315150217905550612fc06132c9565b73ffffffffffffffffffffffffffffffffffffffff168173ffffffffffffffffffffffffffffffffffffffff16837f2f8788117e7eff1d82e926ec794901d17c78024a50270940304540a733656f0d60405160405180910390a45b5050565b61303367b2ab78ab4e88a8b660c01b6132c6565b6130476783265a09f7a3b23d60c01b6132c6565b61305b67bfb6ee6be08c69fc60c01b6132c6565b61306f679d946af72c018eef60c01b6132c6565b600115158260030160008373ffffffffffffffffffffffffffffffffffffffff1673ffffffffffffffffffffffffffffffffffffffff16815260200190815260200160002060009054906101000a900460ff16151514613104576040517f08c379a00000000000000000000000000000000000000000000000000000000081526004016130fb90614f93565b60405180910390fd5b61311867a8f0c02c3645e77d60c01b6132c6565b61312c671aeaea7a22f3a63560c01b6132c6565b60008260030160008373ffffffffffffffffffffffffffffffffffffffff1673ffffffffffffffffffffffffffffffffffffffff16815260200190815260200160002060006101000a81548160ff02191690831515021790555061319a67124280e1781f78c360c01b6132c6565b60018260020160008282829054906101000a900460ff166131bb9190614b24565b92506101000a81548160ff021916908360ff1602179055505050565b50565b600060019050919050565b6131ef8282611960565b156132c257600080600084815260200190815260200160002060000160008373ffffffffffffffffffffffffffffffffffffffff1673ffffffffffffffffffffffffffffffffffffffff16815260200190815260200160002060006101000a81548160ff0219169083151502179055506132676132c9565b73ffffffffffffffffffffffffffffffffffffffff168173ffffffffffffffffffffffffffffffffffffffff16837ff6391f5c32d9c69d2a47ea670b442974b53935d1edc7fd64eb21e047a839171b60405160405180910390a45b5050565b50565b600033905090565b6132db8282611960565b613352576132e881613356565b6132f68360001c6020613383565b60405160200161330792919061504b565b6040516020818303038152906040526040517f08c379a00000000000000000000000000000000000000000000000000000000081526004016133499190614620565b60405180910390fd5b5050565b606061337c8273ffffffffffffffffffffffffffffffffffffffff16601460ff16613383565b9050919050565b6060600060028360026133969190615085565b6133a09190614926565b67ffffffffffffffff8111156133b9576133b861387c565b5b6040519080825280601f01601f1916602001820160405280156133eb5781602001600182028036833780820191505090505b5090507f300000000000000000000000000000000000000000000000000000000000000081600081518110613423576134226150c7565b5b60200101907effffffffffffffffffffffffffffffffffffffffffffffffffffffffffffff1916908160001a9053507f780000000000000000000000000000000000000000000000000000000000000081600181518110613487576134866150c7565b5b60200101907effffffffffffffffffffffffffffffffffffffffffffffffffffffffffffff1916908160001a905350600060018460026134c79190615085565b6134d19190614926565b90505b6001811115613571577f3031323334353637383961626364656600000000000000000000000000000000600f861660108110613513576135126150c7565b5b1a60f81b82828151811061352a576135296150c7565b5b60200101907effffffffffffffffffffffffffffffffffffffffffffffffffffffffffffff1916908160001a905350600485901c94508061356a906150f6565b90506134d4565b50600084146135b5576040517f08c379a00000000000000000000000000000000000000000000000000000000081526004016135ac9061516b565b60405180910390fd5b8091505092915050565b6000604051905090565b600080fd5b600080fd5b60007fffffffff0000000000000000000000000000000000000000000000000000000082169050919050565b613608816135d3565b811461361357600080fd5b50565b600081359050613625816135ff565b92915050565b600060208284031215613641576136406135c9565b5b600061364f84828501613616565b91505092915050565b60008115159050919050565b61366d81613658565b82525050565b60006020820190506136886000830184613664565b92915050565b600060ff82169050919050565b6136a48161368e565b82525050565b60006020820190506136bf600083018461369b565b92915050565b6000819050919050565b6136d8816136c5565b81146136e357600080fd5b50565b6000813590506136f5816136cf565b92915050565b600060208284031215613711576137106135c9565b5b600061371f848285016136e6565b91505092915050565b613731816136c5565b82525050565b600081519050919050565b600082825260208201905092915050565b60005b83811015613771578082015181840152602081019050613756565b60008484015250505050565b6000601f19601f8301169050919050565b600061379982613737565b6137a38185613742565b93506137b3818560208601613753565b6137bc8161377d565b840191505092915050565b600060a0820190506137dc6000830188613664565b6137e96020830187613728565b6137f6604083018661369b565b613803606083018561369b565b8181036080830152613815818461378e565b90509695505050505050565b60006020820190506138366000830184613728565b92915050565b6000819050919050565b61384f8161383c565b811461385a57600080fd5b50565b60008135905061386c81613846565b92915050565b600080fd5b600080fd5b7f4e487b7100000000000000000000000000000000000000000000000000000000600052604160045260246000fd5b6138b48261377d565b810181811067ffffffffffffffff821117156138d3576138d261387c565b5b80604052505050565b60006138e66135bf565b90506138f282826138ab565b919050565b600067ffffffffffffffff8211156139125761391161387c565b5b61391b8261377d565b9050602081019050919050565b82818337600083830152505050565b600061394a613945846138f7565b6138dc565b90508281526020810184848401111561396657613965613877565b5b613971848285613928565b509392505050565b600082601f83011261398e5761398d613872565b5b813561399e848260208601613937565b91505092915050565b600481106139b457600080fd5b50565b6000813590506139c6816139a7565b92915050565b600381106139d957600080fd5b50565b6000813590506139eb816139cc565b92915050565b601081106139fe57600080fd5b50565b600081359050613a10816139f1565b92915050565b600080600080600080600060e0888a031215613a3557613a346135c9565b5b6000613a438a828b0161385d565b975050602088013567ffffffffffffffff811115613a6457613a636135ce565b5b613a708a828b01613979565b965050604088013567ffffffffffffffff811115613a9157613a906135ce565b5b613a9d8a828b01613979565b9550506060613aae8a828b0161385d565b9450506080613abf8a828b016139b7565b93505060a0613ad08a828b016139dc565b92505060c0613ae18a828b01613a01565b91505092959891949750929550565b600073ffffffffffffffffffffffffffffffffffffffff82169050919050565b6000613b1b82613af0565b9050919050565b613b2b81613b10565b8114613b3657600080fd5b50565b600081359050613b4881613b22565b92915050565b60008060408385031215613b6557613b646135c9565b5b6000613b73858286016136e6565b9250506020613b8485828601613b39565b9150509250929050565b613b9781613658565b8114613ba257600080fd5b50565b600081359050613bb481613b8e565b92915050565b600080600060608486031215613bd357613bd26135c9565b5b6000613be1868287016136e6565b9350506020613bf286828701613b39565b9250506040613c0386828701613ba5565b9150509250925092565b7f4e487b7100000000000000000000000000000000000000000000000000000000600052602160045260246000fd5b60048110613c4d57613c4c613c0d565b5b50565b6000819050613c5e82613c3c565b919050565b6000613c6e82613c50565b9050919050565b613c7e81613c63565b82525050565b60038110613c9557613c94613c0d565b5b50565b6000819050613ca682613c84565b919050565b6000613cb682613c98565b9050919050565b613cc681613cab565b82525050565b60108110613cdd57613cdc613c0d565b5b50565b6000819050613cee82613ccc565b919050565b6000613cfe82613ce0565b9050919050565b613d0e81613cf3565b82525050565b613d1d8161383c565b82525050565b600061012082019050613d39600083018c613c75565b613d46602083018b613cbd565b613d53604083018a613d05565b613d606060830189613d14565b613d6d6080830188613664565b613d7a60a0830187613d14565b613d8760c0830186613728565b613d9460e0830185613728565b613da2610100830184613d14565b9a9950505050505050505050565b600060208284031215613dc657613dc56135c9565b5b6000613dd48482850161385d565b91505092915050565b60008060408385031215613df457613df36135c9565b5b6000613e028582860161385d565b9250506020613e138582860161385d565b9150509250929050565b6000602082019050613e326000830184613d14565b92915050565b7f4e487b7100000000000000000000000000000000000000000000000000000000600052602260045260246000fd5b60006002820490506001821680613e7f57607f821691505b602082108103613e9257613e91613e38565b5b50919050565b7f43616c6c6572206973206e6f7420612063657274696669657200000000000000600082015250565b6000613ece601983613742565b9150613ed982613e98565b602082019050919050565b60006020820190508181036000830152613efd81613ec1565b9050919050565b7f417070726563696174696f6e206973206e6f742076616c696400000000000000600082015250565b6000613f3a601983613742565b9150613f4582613f04565b602082019050919050565b60006020820190508181036000830152613f6981613f2d565b9050919050565b7f446567726565206973206e6f742076616c696400000000000000000000000000600082015250565b6000613fa6601383613742565b9150613fb182613f70565b602082019050919050565b60006020820190508181036000830152613fd581613f99565b9050919050565b7f50726f6772616d206973206e6f742076616c6964000000000000000000000000600082015250565b6000614012601483613742565b915061401d82613fdc565b602082019050919050565b6000602082019050818103600083015261404181614005565b9050919050565b6000819050919050565b61406361405e8261383c565b614048565b82525050565b60008160f81b9050919050565b600061408182614069565b9050919050565b61409961409482613c63565b614076565b82525050565b6140b06140ab82613cab565b614076565b82525050565b6140c76140c282613cf3565b614076565b82525050565b60006140d98287614052565b6020820191506140e98286614088565b6001820191506140f9828561409f565b60018201915061410982846140b6565b60018201915081905095945050505050565b7f5468697320636572746966696361746520616c72656164792065786973747300600082015250565b6000614151601f83613742565b915061415c8261411b565b602082019050919050565b6000602082019050818103600083015261418081614144565b9050919050565b600081905092915050565b7f4345525449465900000000000000000000000000000000000000000000000000600082015250565b60006141c8600783614187565b91506141d382614192565b600782019050919050565b60006141ea8287614052565b6020820191506141f9826141bb565b91506142058286614088565b600182019150614215828561409f565b60018201915061422582846140b6565b60018201915081905095945050505050565b60006142438284614052565b60208201915081905092915050565b600061425e8284614088565b60018201915081905092915050565b6000614279828461409f565b60018201915081905092915050565b600061429482846140b6565b60018201915081905092915050565b7f4365727469667920000000000000000000000000000000000000000000000000815250565b60006142d482613737565b6142de8185614187565b93506142ee818560208601613753565b80840191505092915050565b7f2000000000000000000000000000000000000000000000000000000000000000815250565b600061432b826142a3565b60088201915061433b82876142c9565b9150614346826142fa565b60018201915061435682866142c9565b9150614361826142fa565b60018201915061437182856142c9565b915061437c826142fa565b60018201915061438c82846142c9565b915081905095945050505050565b600063ffffffff82169050919050565b7f4e487b7100000000000000000000000000000000000000000000000000000000600052601160045260246000fd5b60006143e48261439a565b91506143ef8361439a565b92508282026143fd8161439a565b915080821461440f5761440e6143aa565b5b5092915050565b600061442282846142c9565b915081905092915050565b600081519050919050565b6000819050602082019050919050565b600061445482516136c5565b80915050919050565b600082821b905092915050565b60006144758261442d565b8261447f84614438565b905061448a81614448565b925060208210156144ca576144c57fffffffffffffffffffffffffffffffffffffffffffffffffffffffffffffffff8360200360080261445d565b831692505b5050919050565b7f596f752063616e27742072656e6f756e636520746f20796f757220726f6c652e60008201527f20506c6561736520636f6e746163742061646d696e7300000000000000000000602082015250565b600061452d603683613742565b9150614538826144d1565b604082019050919050565b6000602082019050818103600083015261455c81614520565b9050919050565b6000819050919050565b61457e614579826136c5565b614563565b82525050565b6000614590828461456d565b60208201915081905092915050565b7f4d61782000000000000000000000000000000000000000000000000000000000815250565b7f2072656163686564000000000000000000000000000000000000000000000000815250565b60006145f68261459f565b60048201915061460682846142c9565b9150614611826145c5565b60088201915081905092915050565b6000602082019050818103600083015261463a818461378e565b905092915050565b7f43616c6c6572206973206e6f7420612000000000000000000000000000000000815250565b7f2061646d696e0000000000000000000000000000000000000000000000000000815250565b600061469982614642565b6010820191506146a982846142c9565b91506146b482614668565b60068201915081905092915050565b7f54686973206164647265737320697320616c7265616479206120000000000000815250565b60006146f4826146c3565b601a8201915061470482846142c9565b915081905092915050565b60008160601b9050919050565b60006147278261470f565b9050919050565b60006147398261471c565b9050919050565b61475161474c82613b10565b61472e565b82525050565b7f4752414e54000000000000000000000000000000000000000000000000000000600082015250565b600061478d600583614187565b915061479882614757565b600582019050919050565b60006147af8285614740565b6014820191506147be82614780565b91506147ca828461456d565b6020820191508190509392505050565b60006147e68284614740565b60148201915081905092915050565b7f4772616e74200000000000000000000000000000000000000000000000000000815250565b6000614826826147f5565b60068201915061483682856142c9565b9150614841826142fa565b60018201915061485182846142c9565b91508190509392505050565b60006148688261439a565b91506148738361439a565b9250828201905063ffffffff81111561488f5761488e6143aa565b5b92915050565b7f4e487b7100000000000000000000000000000000000000000000000000000000600052601260045260246000fd5b60006148cf8261383c565b91506148da8361383c565b9250826148ea576148e9614895565b5b828206905092915050565b60006149008261383c565b915061490b8361383c565b92508261491b5761491a614895565b5b828204905092915050565b60006149318261383c565b915061493c8361383c565b9250828201905080821115614954576149536143aa565b5b92915050565b7f4d696e2000000000000000000000000000000000000000000000000000000000815250565b600061498b8261495a565b60048201915061499b82846142c9565b91506149a6826145c5565b60088201915081905092915050565b7f546869732061646472657373206973206e6f7420612000000000000000000000815250565b60006149e6826149b5565b6016820191506149f682846142c9565b915081905092915050565b7f5245564f4b450000000000000000000000000000000000000000000000000000600082015250565b6000614a37600683614187565b9150614a4282614a01565b600682019050919050565b6000614a598285614740565b601482019150614a6882614a2a565b9150614a74828461456d565b6020820191508190509392505050565b7f5265766f6b652000000000000000000000000000000000000000000000000000815250565b6000614ab582614a84565b600782019150614ac582856142c9565b9150614ad0826142fa565b600182019150614ae082846142c9565b91508190509392505050565b6000614af78261439a565b9150614b028361439a565b9250828203905063ffffffff811115614b1e57614b1d6143aa565b5b92915050565b6000614b2f8261368e565b9150614b3a8361368e565b9250828203905060ff811115614b5357614b526143aa565b5b92915050565b6000614b648261383c565b91507fffffffffffffffffffffffffffffffffffffffffffffffffffffffffffffffff8203614b9657614b956143aa565b5b600182019050919050565b60008190508160005260206000209050919050565b60006020601f8301049050919050565b600060088302614bf67fffffffffffffffffffffffffffffffffffffffffffffffffffffffffffffffff8261445d565b614c00868361445d565b95508019841693508086168417925050509392505050565b6000819050919050565b6000614c3d614c38614c338461383c565b614c18565b61383c565b9050919050565b6000819050919050565b614c5783614c22565b614c6b614c6382614c44565b848454614bc6565b825550505050565b600090565b614c80614c73565b614c8b818484614c4e565b505050565b5b81811015614caf57614ca4600082614c78565b600181019050614c91565b5050565b601f821115614cf457614cc581614ba1565b614cce84614bb6565b81016020851015614cdd578190505b614cf1614ce985614bb6565b830182614c90565b50505b505050565b600082821c905092915050565b6000614d1760001984600802614cf9565b1980831691505092915050565b6000614d308383614d06565b9150826002028217905092915050565b614d4982613737565b67ffffffffffffffff811115614d6257614d6161387c565b5b614d6c8254613e67565b614d77828285614cb3565b600060209050601f831160018114614daa5760008415614d98578287015190505b614da28582614d24565b865550614e0a565b601f198416614db886614ba1565b60005b82811015614de057848901518255600182019150602085019450602081019050614dbb565b86831015614dfd5784890151614df9601f891682614d06565b8355505b6001600288020188555050505b505050505050565b7f596f7520616c7265616479207369676e65642074686973206d756c7469736967600082015250565b6000614e48602083613742565b9150614e5382614e12565b602082019050919050565b60006020820190508181036000830152614e7781614e3b565b9050919050565b6000614e898261368e565b915060ff8203614e9c57614e9b6143aa565b5b600182019050919050565b6000614eb28261368e565b9150614ebd8361368e565b9250828201905060ff811115614ed657614ed56143aa565b5b92915050565b6000608082019050614ef16000830187613d14565b614efe6020830186613c75565b614f0b6040830185613cbd565b614f186060830184613d05565b95945050505050565b7f596f752068617665206e6f7465207369676e65642074686973206d756c74697360008201527f6967207965740000000000000000000000000000000000000000000000000000602082015250565b6000614f7d602683613742565b9150614f8882614f21565b604082019050919050565b60006020820190508181036000830152614fac81614f70565b9050919050565b7f416363657373436f6e74726f6c3a206163636f756e7420000000000000000000600082015250565b6000614fe9601783614187565b9150614ff482614fb3565b601782019050919050565b7f206973206d697373696e6720726f6c6520000000000000000000000000000000600082015250565b6000615035601183614187565b915061504082614fff565b601182019050919050565b600061505682614fdc565b915061506282856142c9565b915061506d82615028565b915061507982846142c9565b91508190509392505050565b60006150908261383c565b915061509b8361383c565b92508282026150a98161383c565b915082820484148315176150c0576150bf6143aa565b5b5092915050565b7f4e487b7100000000000000000000000000000000000000000000000000000000600052603260045260246000fd5b60006151018261383c565b915060008203615114576151136143aa565b5b600182039050919050565b7f537472696e67733a20686578206c656e67746820696e73756666696369656e74600082015250565b6000615155602083613742565b91506151608261511f565b602082019050919050565b6000602082019050818103600083015261518481615148565b905091905056fea26469706673582212205d0b236d6e7ecc232d6a8fed7cf31e991cbbef2a993869973ec4f0f8dda68bad64736f6c63430008130033","opcodes":"PUSH1 0x80 PUSH1 0x40 MSTORE CALLVALUE DUP1 ISZERO PUSH3 0x11 JUMPI PUSH1 0x0 DUP1 REVERT JUMPDEST POP PUSH1 0x40 MLOAD PUSH3 0x5F1F CODESIZE SUB DUP1 PUSH3 0x5F1F DUP4 CODECOPY DUP2 DUP2 ADD PUSH1 0x40 MSTORE DUP2 ADD SWAP1 PUSH3 0x37 SWAP2 SWAP1 PUSH3 0x99C JUMP JUMPDEST PUSH3 0x53 PUSH8 0xA0B843672511AB55 PUSH1 0xC0 SHL PUSH3 0x7B6 PUSH1 0x20 SHL PUSH1 0x20 SHR JUMP JUMPDEST PUSH3 0x6F PUSH8 0x7C7927E4B5BD48F4 PUSH1 0xC0 SHL PUSH3 0x7B6 PUSH1 0x20 SHL PUSH1 0x20 SHR JUMP JUMPDEST PUSH3 0x8B PUSH8 0xA4EBBAF8FAAC82D2 PUSH1 0xC0 SHL PUSH3 0x7B6 PUSH1 0x20 SHL PUSH1 0x20 SHR JUMP JUMPDEST PUSH3 0xA7 PUSH8 0x97B47E77A9A7B3FC PUSH1 0xC0 SHL PUSH3 0x7B6 PUSH1 0x20 SHL PUSH1 0x20 SHR JUMP JUMPDEST PUSH1 0x0 PUSH20 0xFFFFFFFFFFFFFFFFFFFFFFFFFFFFFFFFFFFFFFFF AND DUP3 PUSH20 0xFFFFFFFFFFFFFFFFFFFFFFFFFFFFFFFFFFFFFFFF AND SUB PUSH3 0x119 JUMPI PUSH1 0x40 MLOAD PUSH32 0x8C379A000000000000000000000000000000000000000000000000000000000 DUP2 MSTORE PUSH1 0x4 ADD PUSH3 0x110 SWAP1 PUSH3 0xA6A JUMP JUMPDEST PUSH1 0x40 MLOAD DUP1 SWAP2 SUB SWAP1 REVERT JUMPDEST PUSH3 0x135 PUSH8 0x758438FA606727D9 PUSH1 0xC0 SHL PUSH3 0x7B6 PUSH1 0x20 SHL PUSH1 0x20 SHR JUMP JUMPDEST PUSH3 0x151 PUSH8 0x589E0C39053CAD26 PUSH1 0xC0 SHL PUSH3 0x7B6 PUSH1 0x20 SHL PUSH1 0x20 SHR JUMP JUMPDEST PUSH3 0x16D PUSH8 0x59DE4F2A505F6C6D PUSH1 0xC0 SHL PUSH3 0x7B6 PUSH1 0x20 SHL PUSH1 0x20 SHR JUMP JUMPDEST PUSH3 0x189 PUSH8 0x6D4A2D08A14EA231 PUSH1 0xC0 SHL PUSH3 0x7B6 PUSH1 0x20 SHL PUSH1 0x20 SHR JUMP JUMPDEST PUSH1 0x0 PUSH20 0xFFFFFFFFFFFFFFFFFFFFFFFFFFFFFFFFFFFFFFFF AND DUP2 PUSH20 0xFFFFFFFFFFFFFFFFFFFFFFFFFFFFFFFFFFFFFFFF AND SUB PUSH3 0x1FB JUMPI PUSH1 0x40 MLOAD PUSH32 0x8C379A000000000000000000000000000000000000000000000000000000000 DUP2 MSTORE PUSH1 0x4 ADD PUSH3 0x1F2 SWAP1 PUSH3 0xB02 JUMP JUMPDEST PUSH1 0x40 MLOAD DUP1 SWAP2 SUB SWAP1 REVERT JUMPDEST PUSH3 0x217 PUSH8 0xC3B37424D9C469D0 PUSH1 0xC0 SHL PUSH3 0x7B6 PUSH1 0x20 SHL PUSH1 0x20 SHR JUMP JUMPDEST PUSH3 0x233 PUSH8 0x740CE2464856C2B3 PUSH1 0xC0 SHL PUSH3 0x7B6 PUSH1 0x20 SHL PUSH1 0x20 SHR JUMP JUMPDEST PUSH3 0x24F PUSH8 0x6AE93F6BF114C2F7 PUSH1 0xC0 SHL PUSH3 0x7B6 PUSH1 0x20 SHL PUSH1 0x20 SHR JUMP JUMPDEST PUSH3 0x26B PUSH8 0x7A7ED0C4E5844014 PUSH1 0xC0 SHL PUSH3 0x7B6 PUSH1 0x20 SHL PUSH1 0x20 SHR JUMP JUMPDEST DUP1 PUSH20 0xFFFFFFFFFFFFFFFFFFFFFFFFFFFFFFFFFFFFFFFF AND DUP3 PUSH20 0xFFFFFFFFFFFFFFFFFFFFFFFFFFFFFFFFFFFFFFFF AND SUB PUSH3 0x2DC JUMPI PUSH1 0x40 MLOAD PUSH32 0x8C379A000000000000000000000000000000000000000000000000000000000 DUP2 MSTORE PUSH1 0x4 ADD PUSH3 0x2D3 SWAP1 PUSH3 0xB9A JUMP JUMPDEST PUSH1 0x40 MLOAD DUP1 SWAP2 SUB SWAP1 REVERT JUMPDEST PUSH3 0x2F8 PUSH8 0x45D4F9869D13660B PUSH1 0xC0 SHL PUSH3 0x7B6 PUSH1 0x20 SHL PUSH1 0x20 SHR JUMP JUMPDEST PUSH3 0x314 PUSH8 0x1CBDD7ADD0B2DD5C PUSH1 0xC0 SHL PUSH3 0x7B6 PUSH1 0x20 SHL PUSH1 0x20 SHR JUMP JUMPDEST PUSH3 0x330 PUSH8 0xF2A3B9BA0BC2281E PUSH1 0xC0 SHL PUSH3 0x7B6 PUSH1 0x20 SHL PUSH1 0x20 SHR JUMP JUMPDEST PUSH3 0x362 PUSH32 0x4BBEB6FD3E5222E55F2F8B0C35BC228E0A06A25D0DA772FDB02C3B92FA004F88 DUP4 PUSH3 0x7B9 PUSH1 0x20 SHL PUSH1 0x20 SHR JUMP JUMPDEST PUSH3 0x37E PUSH8 0x9859BE0913BC1E17 PUSH1 0xC0 SHL PUSH3 0x7B6 PUSH1 0x20 SHL PUSH1 0x20 SHR JUMP JUMPDEST PUSH3 0x39A PUSH8 0x8F5912FC196C66FB PUSH1 0xC0 SHL PUSH3 0x7B6 PUSH1 0x20 SHL PUSH1 0x20 SHR JUMP JUMPDEST PUSH3 0x3CC PUSH32 0x4BBEB6FD3E5222E55F2F8B0C35BC228E0A06A25D0DA772FDB02C3B92FA004F88 DUP3 PUSH3 0x7CF PUSH1 0x20 SHL PUSH1 0x20 SHR JUMP JUMPDEST PUSH3 0x3E8 PUSH8 0xD451AD32AAB430B8 PUSH1 0xC0 SHL PUSH3 0x7B6 PUSH1 0x20 SHL PUSH1 0x20 SHR JUMP JUMPDEST PUSH1 0x40 MLOAD DUP1 PUSH1 0xE0 ADD PUSH1 0x40 MSTORE DUP1 PUSH1 0x2 PUSH4 0xFFFFFFFF AND DUP2 MSTORE PUSH1 0x20 ADD PUSH1 0x2 PUSH1 0xFF AND PUSH4 0xFFFFFFFF AND DUP2 MSTORE PUSH1 0x20 ADD PUSH1 0xF PUSH1 0xFF AND PUSH4 0xFFFFFFFF AND DUP2 MSTORE PUSH1 0x20 ADD PUSH1 0x50 PUSH1 0xFF AND DUP2 MSTORE PUSH1 0x20 ADD PUSH1 0x50 PUSH1 0xFF AND DUP2 MSTORE PUSH1 0x20 ADD PUSH32 0x4BBEB6FD3E5222E55F2F8B0C35BC228E0A06A25D0DA772FDB02C3B92FA004F88 DUP2 MSTORE PUSH1 0x20 ADD PUSH1 0x40 MLOAD PUSH1 0x20 ADD PUSH3 0x46B SWAP1 PUSH3 0xC17 JUMP JUMPDEST PUSH1 0x40 MLOAD PUSH1 0x20 DUP2 DUP4 SUB SUB DUP2 MSTORE SWAP1 PUSH1 0x40 MSTORE PUSH3 0x485 SWAP1 PUSH3 0xC77 JUMP JUMPDEST DUP2 MSTORE POP PUSH1 0x1 PUSH1 0x0 PUSH32 0x4BBEB6FD3E5222E55F2F8B0C35BC228E0A06A25D0DA772FDB02C3B92FA004F88 DUP2 MSTORE PUSH1 0x20 ADD SWAP1 DUP2 MSTORE PUSH1 0x20 ADD PUSH1 0x0 KECCAK256 PUSH1 0x0 DUP3 ADD MLOAD DUP2 PUSH1 0x0 ADD PUSH1 0x0 PUSH2 0x100 EXP DUP2 SLOAD DUP2 PUSH4 0xFFFFFFFF MUL NOT AND SWAP1 DUP4 PUSH4 0xFFFFFFFF AND MUL OR SWAP1 SSTORE POP PUSH1 0x20 DUP3 ADD MLOAD DUP2 PUSH1 0x0 ADD PUSH1 0x4 PUSH2 0x100 EXP DUP2 SLOAD DUP2 PUSH4 0xFFFFFFFF MUL NOT AND SWAP1 DUP4 PUSH4 0xFFFFFFFF AND MUL OR SWAP1 SSTORE POP PUSH1 0x40 DUP3 ADD MLOAD DUP2 PUSH1 0x0 ADD PUSH1 0x8 PUSH2 0x100 EXP DUP2 SLOAD DUP2 PUSH4 0xFFFFFFFF MUL NOT AND SWAP1 DUP4 PUSH4 0xFFFFFFFF AND MUL OR SWAP1 SSTORE POP PUSH1 0x60 DUP3 ADD MLOAD DUP2 PUSH1 0x0 ADD PUSH1 0xC PUSH2 0x100 EXP DUP2 SLOAD DUP2 PUSH1 0xFF MUL NOT AND SWAP1 DUP4 PUSH1 0xFF AND MUL OR SWAP1 SSTORE POP PUSH1 0x80 DUP3 ADD MLOAD DUP2 PUSH1 0x0 ADD PUSH1 0xD PUSH2 0x100 EXP DUP2 SLOAD DUP2 PUSH1 0xFF MUL NOT AND SWAP1 DUP4 PUSH1 0xFF AND MUL OR SWAP1 SSTORE POP PUSH1 0xA0 DUP3 ADD MLOAD DUP2 PUSH1 0x1 ADD SSTORE PUSH1 0xC0 DUP3 ADD MLOAD DUP2 PUSH1 0x2 ADD SSTORE SWAP1 POP POP PUSH3 0x5A5 PUSH8 0x2F872260EC70AA80 PUSH1 0xC0 SHL PUSH3 0x7B6 PUSH1 0x20 SHL PUSH1 0x20 SHR JUMP JUMPDEST PUSH3 0x5C1 PUSH8 0xE28D98831E470A0E PUSH1 0xC0 SHL PUSH3 0x7B6 PUSH1 0x20 SHL PUSH1 0x20 SHR JUMP JUMPDEST PUSH3 0x5F4 PUSH32 0xD646AE07EB0D0F77457502A65E7407930DFF4CD4FD99ABC6AAC87A753F4C8A42 PUSH1 0x0 PUSH3 0x7B9 PUSH1 0x20 SHL PUSH1 0x20 SHR JUMP JUMPDEST PUSH3 0x610 PUSH8 0x70E61A765DFB20AA PUSH1 0xC0 SHL PUSH3 0x7B6 PUSH1 0x20 SHL PUSH1 0x20 SHR JUMP JUMPDEST PUSH1 0x40 MLOAD DUP1 PUSH1 0xE0 ADD PUSH1 0x40 MSTORE DUP1 PUSH1 0x0 PUSH4 0xFFFFFFFF AND DUP2 MSTORE PUSH1 0x20 ADD PUSH1 0x0 PUSH4 0xFFFFFFFF AND DUP2 MSTORE PUSH1 0x20 ADD PUSH1 0xF PUSH1 0xFF AND PUSH4 0xFFFFFFFF AND DUP2 MSTORE PUSH1 0x20 ADD PUSH1 0x50 PUSH1 0xFF AND DUP2 MSTORE PUSH1 0x20 ADD PUSH1 0x50 PUSH1 0xFF AND DUP2 MSTORE PUSH1 0x20 ADD PUSH32 0x4BBEB6FD3E5222E55F2F8B0C35BC228E0A06A25D0DA772FDB02C3B92FA004F88 DUP2 MSTORE PUSH1 0x20 ADD PUSH1 0x40 MLOAD PUSH1 0x20 ADD PUSH3 0x690 SWAP1 PUSH3 0xD37 JUMP JUMPDEST PUSH1 0x40 MLOAD PUSH1 0x20 DUP2 DUP4 SUB SUB DUP2 MSTORE SWAP1 PUSH1 0x40 MSTORE PUSH3 0x6AA SWAP1 PUSH3 0xC77 JUMP JUMPDEST DUP2 MSTORE POP PUSH1 0x1 PUSH1 0x0 PUSH32 0xD646AE07EB0D0F77457502A65E7407930DFF4CD4FD99ABC6AAC87A753F4C8A42 DUP2 MSTORE PUSH1 0x20 ADD SWAP1 DUP2 MSTORE PUSH1 0x20 ADD PUSH1 0x0 KECCAK256 PUSH1 0x0 DUP3 ADD MLOAD DUP2 PUSH1 0x0 ADD PUSH1 0x0 PUSH2 0x100 EXP DUP2 SLOAD DUP2 PUSH4 0xFFFFFFFF MUL NOT AND SWAP1 DUP4 PUSH4 0xFFFFFFFF AND MUL OR SWAP1 SSTORE POP PUSH1 0x20 DUP3 ADD MLOAD DUP2 PUSH1 0x0 ADD PUSH1 0x4 PUSH2 0x100 EXP DUP2 SLOAD DUP2 PUSH4 0xFFFFFFFF MUL NOT AND SWAP1 DUP4 PUSH4 0xFFFFFFFF AND MUL OR SWAP1 SSTORE POP PUSH1 0x40 DUP3 ADD MLOAD DUP2 PUSH1 0x0 ADD PUSH1 0x8 PUSH2 0x100 EXP DUP2 SLOAD DUP2 PUSH4 0xFFFFFFFF MUL NOT AND SWAP1 DUP4 PUSH4 0xFFFFFFFF AND MUL OR SWAP1 SSTORE POP PUSH1 0x60 DUP3 ADD MLOAD DUP2 PUSH1 0x0 ADD PUSH1 0xC PUSH2 0x100 EXP DUP2 SLOAD DUP2 PUSH1 0xFF MUL NOT AND SWAP1 DUP4 PUSH1 0xFF AND MUL OR SWAP1 SSTORE POP PUSH1 0x80 DUP3 ADD MLOAD DUP2 PUSH1 0x0 ADD PUSH1 0xD PUSH2 0x100 EXP DUP2 SLOAD DUP2 PUSH1 0xFF MUL NOT AND SWAP1 DUP4 PUSH1 0xFF AND MUL OR SWAP1 SSTORE POP PUSH1 0xA0 DUP3 ADD MLOAD DUP2 PUSH1 0x1 ADD SSTORE PUSH1 0xC0 DUP3 ADD MLOAD DUP2 PUSH1 0x2 ADD SSTORE SWAP1 POP POP POP POP PUSH3 0xD4E JUMP JUMPDEST POP JUMP JUMPDEST PUSH3 0x7CB DUP3 DUP3 PUSH3 0x7CF PUSH1 0x20 SHL PUSH1 0x20 SHR JUMP JUMPDEST POP POP JUMP JUMPDEST PUSH3 0x7E1 DUP3 DUP3 PUSH3 0x8C0 PUSH1 0x20 SHL PUSH1 0x20 SHR JUMP JUMPDEST PUSH3 0x8BC JUMPI PUSH1 0x1 PUSH1 0x0 DUP1 DUP5 DUP2 MSTORE PUSH1 0x20 ADD SWAP1 DUP2 MSTORE PUSH1 0x20 ADD PUSH1 0x0 KECCAK256 PUSH1 0x0 ADD PUSH1 0x0 DUP4 PUSH20 0xFFFFFFFFFFFFFFFFFFFFFFFFFFFFFFFFFFFFFFFF AND PUSH20 0xFFFFFFFFFFFFFFFFFFFFFFFFFFFFFFFFFFFFFFFF AND DUP2 MSTORE PUSH1 0x20 ADD SWAP1 DUP2 MSTORE PUSH1 0x20 ADD PUSH1 0x0 KECCAK256 PUSH1 0x0 PUSH2 0x100 EXP DUP2 SLOAD DUP2 PUSH1 0xFF MUL NOT AND SWAP1 DUP4 ISZERO ISZERO MUL OR SWAP1 SSTORE POP PUSH3 0x861 PUSH3 0x92A PUSH1 0x20 SHL PUSH1 0x20 SHR JUMP JUMPDEST PUSH20 0xFFFFFFFFFFFFFFFFFFFFFFFFFFFFFFFFFFFFFFFF AND DUP2 PUSH20 0xFFFFFFFFFFFFFFFFFFFFFFFFFFFFFFFFFFFFFFFF AND DUP4 PUSH32 0x2F8788117E7EFF1D82E926EC794901D17C78024A50270940304540A733656F0D PUSH1 0x40 MLOAD PUSH1 0x40 MLOAD DUP1 SWAP2 SUB SWAP1 LOG4 JUMPDEST POP POP JUMP JUMPDEST PUSH1 0x0 DUP1 PUSH1 0x0 DUP5 DUP2 MSTORE PUSH1 0x20 ADD SWAP1 DUP2 MSTORE PUSH1 0x20 ADD PUSH1 0x0 KECCAK256 PUSH1 0x0 ADD PUSH1 0x0 DUP4 PUSH20 0xFFFFFFFFFFFFFFFFFFFFFFFFFFFFFFFFFFFFFFFF AND PUSH20 0xFFFFFFFFFFFFFFFFFFFFFFFFFFFFFFFFFFFFFFFF AND DUP2 MSTORE PUSH1 0x20 ADD SWAP1 DUP2 MSTORE PUSH1 0x20 ADD PUSH1 0x0 KECCAK256 PUSH1 0x0 SWAP1 SLOAD SWAP1 PUSH2 0x100 EXP SWAP1 DIV PUSH1 0xFF AND SWAP1 POP SWAP3 SWAP2 POP POP JUMP JUMPDEST PUSH1 0x0 CALLER SWAP1 POP SWAP1 JUMP JUMPDEST PUSH1 0x0 DUP1 REVERT JUMPDEST PUSH1 0x0 PUSH20 0xFFFFFFFFFFFFFFFFFFFFFFFFFFFFFFFFFFFFFFFF DUP3 AND SWAP1 POP SWAP2 SWAP1 POP JUMP JUMPDEST PUSH1 0x0 PUSH3 0x964 DUP3 PUSH3 0x937 JUMP JUMPDEST SWAP1 POP SWAP2 SWAP1 POP JUMP JUMPDEST PUSH3 0x976 DUP2 PUSH3 0x957 JUMP JUMPDEST DUP2 EQ PUSH3 0x982 JUMPI PUSH1 0x0 DUP1 REVERT JUMPDEST POP JUMP JUMPDEST PUSH1 0x0 DUP2 MLOAD SWAP1 POP PUSH3 0x996 DUP2 PUSH3 0x96B JUMP JUMPDEST SWAP3 SWAP2 POP POP JUMP JUMPDEST PUSH1 0x0 DUP1 PUSH1 0x40 DUP4 DUP6 SUB SLT ISZERO PUSH3 0x9B6 JUMPI PUSH3 0x9B5 PUSH3 0x932 JUMP JUMPDEST JUMPDEST PUSH1 0x0 PUSH3 0x9C6 DUP6 DUP3 DUP7 ADD PUSH3 0x985 JUMP JUMPDEST SWAP3 POP POP PUSH1 0x20 PUSH3 0x9D9 DUP6 DUP3 DUP7 ADD PUSH3 0x985 JUMP JUMPDEST SWAP2 POP POP SWAP3 POP SWAP3 SWAP1 POP JUMP JUMPDEST PUSH1 0x0 DUP3 DUP3 MSTORE PUSH1 0x20 DUP3 ADD SWAP1 POP SWAP3 SWAP2 POP POP JUMP JUMPDEST PUSH32 0x4365727469666965722061646D696E3120616464726573732063616E6E6F7420 PUSH1 0x0 DUP3 ADD MSTORE PUSH32 0x6265203000000000000000000000000000000000000000000000000000000000 PUSH1 0x20 DUP3 ADD MSTORE POP JUMP JUMPDEST PUSH1 0x0 PUSH3 0xA52 PUSH1 0x24 DUP4 PUSH3 0x9E3 JUMP JUMPDEST SWAP2 POP PUSH3 0xA5F DUP3 PUSH3 0x9F4 JUMP JUMPDEST PUSH1 0x40 DUP3 ADD SWAP1 POP SWAP2 SWAP1 POP JUMP JUMPDEST PUSH1 0x0 PUSH1 0x20 DUP3 ADD SWAP1 POP DUP2 DUP2 SUB PUSH1 0x0 DUP4 ADD MSTORE PUSH3 0xA85 DUP2 PUSH3 0xA43 JUMP JUMPDEST SWAP1 POP SWAP2 SWAP1 POP JUMP JUMPDEST PUSH32 0x4365727469666965722061646D696E3220616464726573732063616E6E6F7420 PUSH1 0x0 DUP3 ADD MSTORE PUSH32 0x6265203000000000000000000000000000000000000000000000000000000000 PUSH1 0x20 DUP3 ADD MSTORE POP JUMP JUMPDEST PUSH1 0x0 PUSH3 0xAEA PUSH1 0x24 DUP4 PUSH3 0x9E3 JUMP JUMPDEST SWAP2 POP PUSH3 0xAF7 DUP3 PUSH3 0xA8C JUMP JUMPDEST PUSH1 0x40 DUP3 ADD SWAP1 POP SWAP2 SWAP1 POP JUMP JUMPDEST PUSH1 0x0 PUSH1 0x20 DUP3 ADD SWAP1 POP DUP2 DUP2 SUB PUSH1 0x0 DUP4 ADD MSTORE PUSH3 0xB1D DUP2 PUSH3 0xADB JUMP JUMPDEST SWAP1 POP SWAP2 SWAP1 POP JUMP JUMPDEST PUSH32 0x436572746966696572206164647265737365732063616E6E6F74206265207468 PUSH1 0x0 DUP3 ADD MSTORE PUSH32 0x652073616D650000000000000000000000000000000000000000000000000000 PUSH1 0x20 DUP3 ADD MSTORE POP JUMP JUMPDEST PUSH1 0x0 PUSH3 0xB82 PUSH1 0x26 DUP4 PUSH3 0x9E3 JUMP JUMPDEST SWAP2 POP PUSH3 0xB8F DUP3 PUSH3 0xB24 JUMP JUMPDEST PUSH1 0x40 DUP3 ADD SWAP1 POP SWAP2 SWAP1 POP JUMP JUMPDEST PUSH1 0x0 PUSH1 0x20 DUP3 ADD SWAP1 POP DUP2 DUP2 SUB PUSH1 0x0 DUP4 ADD MSTORE PUSH3 0xBB5 DUP2 PUSH3 0xB73 JUMP JUMPDEST SWAP1 POP SWAP2 SWAP1 POP JUMP JUMPDEST PUSH1 0x0 DUP2 SWAP1 POP SWAP3 SWAP2 POP POP JUMP JUMPDEST PUSH32 0x4345525449464945525F41444D494E0000000000000000000000000000000000 PUSH1 0x0 DUP3 ADD MSTORE POP JUMP JUMPDEST PUSH1 0x0 PUSH3 0xBFF PUSH1 0xF DUP4 PUSH3 0xBBC JUMP JUMPDEST SWAP2 POP PUSH3 0xC0C DUP3 PUSH3 0xBC7 JUMP JUMPDEST PUSH1 0xF DUP3 ADD SWAP1 POP SWAP2 SWAP1 POP JUMP JUMPDEST PUSH1 0x0 PUSH3 0xC24 DUP3 PUSH3 0xBF0 JUMP JUMPDEST SWAP2 POP DUP2 SWAP1 POP SWAP2 SWAP1 POP JUMP JUMPDEST PUSH1 0x0 DUP2 MLOAD SWAP1 POP SWAP2 SWAP1 POP JUMP JUMPDEST PUSH1 0x0 DUP2 SWAP1 POP PUSH1 0x20 DUP3 ADD SWAP1 POP SWAP2 SWAP1 POP JUMP JUMPDEST PUSH1 0x0 DUP2 SWAP1 POP SWAP2 SWAP1 POP JUMP JUMPDEST PUSH1 0x0 PUSH3 0xC61 DUP3 MLOAD PUSH3 0xC49 JUMP JUMPDEST DUP1 SWAP2 POP POP SWAP2 SWAP1 POP JUMP JUMPDEST PUSH1 0x0 DUP3 DUP3 SHL SWAP1 POP SWAP3 SWAP2 POP POP JUMP JUMPDEST PUSH1 0x0 PUSH3 0xC84 DUP3 PUSH3 0xC2E JUMP JUMPDEST DUP3 PUSH3 0xC90 DUP5 PUSH3 0xC39 JUMP JUMPDEST SWAP1 POP PUSH3 0xC9D DUP2 PUSH3 0xC53 JUMP JUMPDEST SWAP3 POP PUSH1 0x20 DUP3 LT ISZERO PUSH3 0xCE0 JUMPI PUSH3 0xCDB PUSH32 0xFFFFFFFFFFFFFFFFFFFFFFFFFFFFFFFFFFFFFFFFFFFFFFFFFFFFFFFFFFFFFFFF DUP4 PUSH1 0x20 SUB PUSH1 0x8 MUL PUSH3 0xC6A JUMP JUMPDEST DUP4 AND SWAP3 POP JUMPDEST POP POP SWAP2 SWAP1 POP JUMP JUMPDEST PUSH32 0x4345525449464945520000000000000000000000000000000000000000000000 PUSH1 0x0 DUP3 ADD MSTORE POP JUMP JUMPDEST PUSH1 0x0 PUSH3 0xD1F PUSH1 0x9 DUP4 PUSH3 0xBBC JUMP JUMPDEST SWAP2 POP PUSH3 0xD2C DUP3 PUSH3 0xCE7 JUMP JUMPDEST PUSH1 0x9 DUP3 ADD SWAP1 POP SWAP2 SWAP1 POP JUMP JUMPDEST PUSH1 0x0 PUSH3 0xD44 DUP3 PUSH3 0xD10 JUMP JUMPDEST SWAP2 POP DUP2 SWAP1 POP SWAP2 SWAP1 POP JUMP JUMPDEST PUSH2 0x51C1 DUP1 PUSH3 0xD5E PUSH1 0x0 CODECOPY PUSH1 0x0 RETURN INVALID PUSH1 0x80 PUSH1 0x40 MSTORE CALLVALUE DUP1 ISZERO PUSH2 0x10 JUMPI PUSH1 0x0 DUP1 REVERT JUMPDEST POP PUSH1 0x4 CALLDATASIZE LT PUSH2 0x173 JUMPI PUSH1 0x0 CALLDATALOAD PUSH1 0xE0 SHR DUP1 PUSH4 0x6BC6421B GT PUSH2 0xDE JUMPI DUP1 PUSH4 0x9E339909 GT PUSH2 0x97 JUMPI DUP1 PUSH4 0xBF802091 GT PUSH2 0x71 JUMPI DUP1 PUSH4 0xBF802091 EQ PUSH2 0x45E JUMPI DUP1 PUSH4 0xD3243AD8 EQ PUSH2 0x48E JUMPI DUP1 PUSH4 0xD547741F EQ PUSH2 0x4AA JUMPI DUP1 PUSH4 0xE05F2FB4 EQ PUSH2 0x4C6 JUMPI PUSH2 0x173 JUMP JUMPDEST DUP1 PUSH4 0x9E339909 EQ PUSH2 0x404 JUMPI DUP1 PUSH4 0xA217FDDF EQ PUSH2 0x422 JUMPI DUP1 PUSH4 0xB86BC74F EQ PUSH2 0x440 JUMPI PUSH2 0x173 JUMP JUMPDEST DUP1 PUSH4 0x6BC6421B EQ PUSH2 0x314 JUMPI DUP1 PUSH4 0x719129BE EQ PUSH2 0x332 JUMPI DUP1 PUSH4 0x742F0688 EQ PUSH2 0x34E JUMPI DUP1 PUSH4 0x7CD29FB7 EQ PUSH2 0x386 JUMPI DUP1 PUSH4 0x91D14854 EQ PUSH2 0x3A4 JUMPI DUP1 PUSH4 0x9DD09A73 EQ PUSH2 0x3D4 JUMPI PUSH2 0x173 JUMP JUMPDEST DUP1 PUSH4 0x2E83C14B GT PUSH2 0x130 JUMPI DUP1 PUSH4 0x2E83C14B EQ PUSH2 0x266 JUMPI DUP1 PUSH4 0x2F2FF15D EQ PUSH2 0x282 JUMPI DUP1 PUSH4 0x33B72E49 EQ PUSH2 0x29E JUMPI DUP1 PUSH4 0x36568ABE EQ PUSH2 0x2BC JUMPI DUP1 PUSH4 0x4DA11A20 EQ PUSH2 0x2D8 JUMPI DUP1 PUSH4 0x5907EBEA EQ PUSH2 0x2F6 JUMPI PUSH2 0x173 JUMP JUMPDEST DUP1 PUSH4 0x1FFC9A7 EQ PUSH2 0x178 JUMPI DUP1 PUSH4 0xF68794A EQ PUSH2 0x1A8 JUMPI DUP1 PUSH4 0x1A968069 EQ PUSH2 0x1C6 JUMPI DUP1 PUSH4 0x1A9CFE28 EQ PUSH2 0x1FA JUMPI DUP1 PUSH4 0x248A9CA3 EQ PUSH2 0x218 JUMPI DUP1 PUSH4 0x2CD94E4F EQ PUSH2 0x248 JUMPI JUMPDEST PUSH1 0x0 DUP1 REVERT JUMPDEST PUSH2 0x192 PUSH1 0x4 DUP1 CALLDATASIZE SUB DUP2 ADD SWAP1 PUSH2 0x18D SWAP2 SWAP1 PUSH2 0x362B JUMP JUMPDEST PUSH2 0x4E4 JUMP JUMPDEST PUSH1 0x40 MLOAD PUSH2 0x19F SWAP2 SWAP1 PUSH2 0x3673 JUMP JUMPDEST PUSH1 0x40 MLOAD DUP1 SWAP2 SUB SWAP1 RETURN JUMPDEST PUSH2 0x1B0 PUSH2 0x55E JUMP JUMPDEST PUSH1 0x40 MLOAD PUSH2 0x1BD SWAP2 SWAP1 PUSH2 0x36AA JUMP JUMPDEST PUSH1 0x40 MLOAD DUP1 SWAP2 SUB SWAP1 RETURN JUMPDEST PUSH2 0x1E0 PUSH1 0x4 DUP1 CALLDATASIZE SUB DUP2 ADD SWAP1 PUSH2 0x1DB SWAP2 SWAP1 PUSH2 0x36FB JUMP JUMPDEST PUSH2 0x563 JUMP JUMPDEST PUSH1 0x40 MLOAD PUSH2 0x1F1 SWAP6 SWAP5 SWAP4 SWAP3 SWAP2 SWAP1 PUSH2 0x37C7 JUMP JUMPDEST PUSH1 0x40 MLOAD DUP1 SWAP2 SUB SWAP1 RETURN JUMPDEST PUSH2 0x202 PUSH2 0x648 JUMP JUMPDEST PUSH1 0x40 MLOAD PUSH2 0x20F SWAP2 SWAP1 PUSH2 0x36AA JUMP JUMPDEST PUSH1 0x40 MLOAD DUP1 SWAP2 SUB SWAP1 RETURN JUMPDEST PUSH2 0x232 PUSH1 0x4 DUP1 CALLDATASIZE SUB DUP2 ADD SWAP1 PUSH2 0x22D SWAP2 SWAP1 PUSH2 0x36FB JUMP JUMPDEST PUSH2 0x64D JUMP JUMPDEST PUSH1 0x40 MLOAD PUSH2 0x23F SWAP2 SWAP1 PUSH2 0x3821 JUMP JUMPDEST PUSH1 0x40 MLOAD DUP1 SWAP2 SUB SWAP1 RETURN JUMPDEST PUSH2 0x250 PUSH2 0x66C JUMP JUMPDEST PUSH1 0x40 MLOAD PUSH2 0x25D SWAP2 SWAP1 PUSH2 0x36AA JUMP JUMPDEST PUSH1 0x40 MLOAD DUP1 SWAP2 SUB SWAP1 RETURN JUMPDEST PUSH2 0x280 PUSH1 0x4 DUP1 CALLDATASIZE SUB DUP2 ADD SWAP1 PUSH2 0x27B SWAP2 SWAP1 PUSH2 0x3A16 JUMP JUMPDEST PUSH2 0x671 JUMP JUMPDEST STOP JUMPDEST PUSH2 0x29C PUSH1 0x4 DUP1 CALLDATASIZE SUB DUP2 ADD SWAP1 PUSH2 0x297 SWAP2 SWAP1 PUSH2 0x3B4E JUMP JUMPDEST PUSH2 0xFA9 JUMP JUMPDEST STOP JUMPDEST PUSH2 0x2A6 PUSH2 0xFCA JUMP JUMPDEST PUSH1 0x40 MLOAD PUSH2 0x2B3 SWAP2 SWAP1 PUSH2 0x36AA JUMP JUMPDEST PUSH1 0x40 MLOAD DUP1 SWAP2 SUB SWAP1 RETURN JUMPDEST PUSH2 0x2D6 PUSH1 0x4 DUP1 CALLDATASIZE SUB DUP2 ADD SWAP1 PUSH2 0x2D1 SWAP2 SWAP1 PUSH2 0x3B4E JUMP JUMPDEST PUSH2 0xFCF JUMP JUMPDEST STOP JUMPDEST PUSH2 0x2E0 PUSH2 0x1046 JUMP JUMPDEST PUSH1 0x40 MLOAD PUSH2 0x2ED SWAP2 SWAP1 PUSH2 0x36AA JUMP JUMPDEST PUSH1 0x40 MLOAD DUP1 SWAP2 SUB SWAP1 RETURN JUMPDEST PUSH2 0x2FE PUSH2 0x104B JUMP JUMPDEST PUSH1 0x40 MLOAD PUSH2 0x30B SWAP2 SWAP1 PUSH2 0x36AA JUMP JUMPDEST PUSH1 0x40 MLOAD DUP1 SWAP2 SUB SWAP1 RETURN JUMPDEST PUSH2 0x31C PUSH2 0x1050 JUMP JUMPDEST PUSH1 0x40 MLOAD PUSH2 0x329 SWAP2 SWAP1 PUSH2 0x36AA JUMP JUMPDEST PUSH1 0x40 MLOAD DUP1 SWAP2 SUB SWAP1 RETURN JUMPDEST PUSH2 0x34C PUSH1 0x4 DUP1 CALLDATASIZE SUB DUP2 ADD SWAP1 PUSH2 0x347 SWAP2 SWAP1 PUSH2 0x3BBA JUMP JUMPDEST PUSH2 0x1055 JUMP JUMPDEST STOP JUMPDEST PUSH2 0x368 PUSH1 0x4 DUP1 CALLDATASIZE SUB DUP2 ADD SWAP1 PUSH2 0x363 SWAP2 SWAP1 PUSH2 0x36FB JUMP JUMPDEST PUSH2 0x18D9 JUMP JUMPDEST PUSH1 0x40 MLOAD PUSH2 0x37D SWAP10 SWAP9 SWAP8 SWAP7 SWAP6 SWAP5 SWAP4 SWAP3 SWAP2 SWAP1 PUSH2 0x3D23 JUMP JUMPDEST PUSH1 0x40 MLOAD DUP1 SWAP2 SUB SWAP1 RETURN JUMPDEST PUSH2 0x38E PUSH2 0x195B JUMP JUMPDEST PUSH1 0x40 MLOAD PUSH2 0x39B SWAP2 SWAP1 PUSH2 0x36AA JUMP JUMPDEST PUSH1 0x40 MLOAD DUP1 SWAP2 SUB SWAP1 RETURN JUMPDEST PUSH2 0x3BE PUSH1 0x4 DUP1 CALLDATASIZE SUB DUP2 ADD SWAP1 PUSH2 0x3B9 SWAP2 SWAP1 PUSH2 0x3B4E JUMP JUMPDEST PUSH2 0x1960 JUMP JUMPDEST PUSH1 0x40 MLOAD PUSH2 0x3CB SWAP2 SWAP1 PUSH2 0x3673 JUMP JUMPDEST PUSH1 0x40 MLOAD DUP1 SWAP2 SUB SWAP1 RETURN JUMPDEST PUSH2 0x3EE PUSH1 0x4 DUP1 CALLDATASIZE SUB DUP2 ADD SWAP1 PUSH2 0x3E9 SWAP2 SWAP1 PUSH2 0x3DB0 JUMP JUMPDEST PUSH2 0x19CA JUMP JUMPDEST PUSH1 0x40 MLOAD PUSH2 0x3FB SWAP2 SWAP1 PUSH2 0x3821 JUMP JUMPDEST PUSH1 0x40 MLOAD DUP1 SWAP2 SUB SWAP1 RETURN JUMPDEST PUSH2 0x40C PUSH2 0x19E2 JUMP JUMPDEST PUSH1 0x40 MLOAD PUSH2 0x419 SWAP2 SWAP1 PUSH2 0x36AA JUMP JUMPDEST PUSH1 0x40 MLOAD DUP1 SWAP2 SUB SWAP1 RETURN JUMPDEST PUSH2 0x42A PUSH2 0x19E7 JUMP JUMPDEST PUSH1 0x40 MLOAD PUSH2 0x437 SWAP2 SWAP1 PUSH2 0x3821 JUMP JUMPDEST PUSH1 0x40 MLOAD DUP1 SWAP2 SUB SWAP1 RETURN JUMPDEST PUSH2 0x448 PUSH2 0x19EE JUMP JUMPDEST PUSH1 0x40 MLOAD PUSH2 0x455 SWAP2 SWAP1 PUSH2 0x3821 JUMP JUMPDEST PUSH1 0x40 MLOAD DUP1 SWAP2 SUB SWAP1 RETURN JUMPDEST PUSH2 0x478 PUSH1 0x4 DUP1 CALLDATASIZE SUB DUP2 ADD SWAP1 PUSH2 0x473 SWAP2 SWAP1 PUSH2 0x3DDD JUMP JUMPDEST PUSH2 0x1A12 JUMP JUMPDEST PUSH1 0x40 MLOAD PUSH2 0x485 SWAP2 SWAP1 PUSH2 0x3E1D JUMP JUMPDEST PUSH1 0x40 MLOAD DUP1 SWAP2 SUB SWAP1 RETURN JUMPDEST PUSH2 0x4A8 PUSH1 0x4 DUP1 CALLDATASIZE SUB DUP2 ADD SWAP1 PUSH2 0x4A3 SWAP2 SWAP1 PUSH2 0x3BBA JUMP JUMPDEST PUSH2 0x1B0F JUMP JUMPDEST STOP JUMPDEST PUSH2 0x4C4 PUSH1 0x4 DUP1 CALLDATASIZE SUB DUP2 ADD SWAP1 PUSH2 0x4BF SWAP2 SWAP1 PUSH2 0x3B4E JUMP JUMPDEST PUSH2 0x26D2 JUMP JUMPDEST STOP JUMPDEST PUSH2 0x4CE PUSH2 0x26F3 JUMP JUMPDEST PUSH1 0x40 MLOAD PUSH2 0x4DB SWAP2 SWAP1 PUSH2 0x3821 JUMP JUMPDEST PUSH1 0x40 MLOAD DUP1 SWAP2 SUB SWAP1 RETURN JUMPDEST PUSH1 0x0 PUSH32 0x7965DB0B00000000000000000000000000000000000000000000000000000000 PUSH28 0xFFFFFFFFFFFFFFFFFFFFFFFFFFFFFFFFFFFFFFFFFFFFFFFFFFFFFFFF NOT AND DUP3 PUSH28 0xFFFFFFFFFFFFFFFFFFFFFFFFFFFFFFFFFFFFFFFFFFFFFFFFFFFFFFFF NOT AND EQ DUP1 PUSH2 0x557 JUMPI POP PUSH2 0x556 DUP3 PUSH2 0x2717 JUMP JUMPDEST JUMPDEST SWAP1 POP SWAP2 SWAP1 POP JUMP JUMPDEST PUSH1 0x50 DUP2 JUMP JUMPDEST PUSH1 0x2 PUSH1 0x20 MSTORE DUP1 PUSH1 0x0 MSTORE PUSH1 0x40 PUSH1 0x0 KECCAK256 PUSH1 0x0 SWAP2 POP SWAP1 POP DUP1 PUSH1 0x0 ADD PUSH1 0x0 SWAP1 SLOAD SWAP1 PUSH2 0x100 EXP SWAP1 DIV PUSH1 0xFF AND SWAP1 DUP1 PUSH1 0x1 ADD SLOAD SWAP1 DUP1 PUSH1 0x2 ADD PUSH1 0x0 SWAP1 SLOAD SWAP1 PUSH2 0x100 EXP SWAP1 DIV PUSH1 0xFF AND SWAP1 DUP1 PUSH1 0x2 ADD PUSH1 0x1 SWAP1 SLOAD SWAP1 PUSH2 0x100 EXP SWAP1 DIV PUSH1 0xFF AND SWAP1 DUP1 PUSH1 0x5 ADD DUP1 SLOAD PUSH2 0x5C5 SWAP1 PUSH2 0x3E67 JUMP JUMPDEST DUP1 PUSH1 0x1F ADD PUSH1 0x20 DUP1 SWAP2 DIV MUL PUSH1 0x20 ADD PUSH1 0x40 MLOAD SWAP1 DUP2 ADD PUSH1 0x40 MSTORE DUP1 SWAP3 SWAP2 SWAP1 DUP2 DUP2 MSTORE PUSH1 0x20 ADD DUP3 DUP1 SLOAD PUSH2 0x5F1 SWAP1 PUSH2 0x3E67 JUMP JUMPDEST DUP1 ISZERO PUSH2 0x63E JUMPI DUP1 PUSH1 0x1F LT PUSH2 0x613 JUMPI PUSH2 0x100 DUP1 DUP4 SLOAD DIV MUL DUP4 MSTORE SWAP2 PUSH1 0x20 ADD SWAP2 PUSH2 0x63E JUMP JUMPDEST DUP3 ADD SWAP2 SWAP1 PUSH1 0x0 MSTORE PUSH1 0x20 PUSH1 0x0 KECCAK256 SWAP1 JUMPDEST DUP2 SLOAD DUP2 MSTORE SWAP1 PUSH1 0x1 ADD SWAP1 PUSH1 0x20 ADD DUP1 DUP4 GT PUSH2 0x621 JUMPI DUP3 SWAP1 SUB PUSH1 0x1F AND DUP3 ADD SWAP2 JUMPDEST POP POP POP POP POP SWAP1 POP DUP6 JUMP JUMPDEST PUSH1 0x50 DUP2 JUMP JUMPDEST PUSH1 0x0 DUP1 PUSH1 0x0 DUP4 DUP2 MSTORE PUSH1 0x20 ADD SWAP1 DUP2 MSTORE PUSH1 0x20 ADD PUSH1 0x0 KECCAK256 PUSH1 0x1 ADD SLOAD SWAP1 POP SWAP2 SWAP1 POP JUMP JUMPDEST PUSH1 0x50 DUP2 JUMP JUMPDEST PUSH2 0x685 PUSH8 0xD0A65ECDFB35759E PUSH1 0xC0 SHL PUSH2 0x2781 JUMP JUMPDEST PUSH2 0x699 PUSH8 0xFECB9A5516D562AD PUSH1 0xC0 SHL PUSH2 0x2781 JUMP JUMPDEST PUSH2 0x6AD PUSH8 0x11522E4C80B8ACF5 PUSH1 0xC0 SHL PUSH2 0x2781 JUMP JUMPDEST PUSH2 0x6C1 PUSH8 0x5A87C8131B0F3476 PUSH1 0xC0 SHL PUSH2 0x2781 JUMP JUMPDEST PUSH2 0x6EB PUSH32 0xD646AE07EB0D0F77457502A65E7407930DFF4CD4FD99ABC6AAC87A753F4C8A42 CALLER PUSH2 0x1960 JUMP JUMPDEST PUSH2 0x72A JUMPI PUSH1 0x40 MLOAD PUSH32 0x8C379A000000000000000000000000000000000000000000000000000000000 DUP2 MSTORE PUSH1 0x4 ADD PUSH2 0x721 SWAP1 PUSH2 0x3EE4 JUMP JUMPDEST PUSH1 0x40 MLOAD DUP1 SWAP2 SUB SWAP1 REVERT JUMPDEST PUSH2 0x73E PUSH8 0xB52E37C57F13F036 PUSH1 0xC0 SHL PUSH2 0x2781 JUMP JUMPDEST PUSH2 0x752 PUSH8 0xC6BC374FA7FEFF01 PUSH1 0xC0 SHL PUSH2 0x2781 JUMP JUMPDEST PUSH2 0x766 PUSH8 0x86AC1E62D24A3498 PUSH1 0xC0 SHL PUSH2 0x2781 JUMP JUMPDEST PUSH2 0x77A PUSH8 0x9E5C2CDD766B16DE PUSH1 0xC0 SHL PUSH2 0x2781 JUMP JUMPDEST PUSH1 0x0 PUSH1 0x3 DUP2 GT ISZERO PUSH2 0x78E JUMPI PUSH2 0x78D PUSH2 0x3C0D JUMP JUMPDEST JUMPDEST DUP4 PUSH1 0x3 DUP2 GT ISZERO PUSH2 0x7A1 JUMPI PUSH2 0x7A0 PUSH2 0x3C0D JUMP JUMPDEST JUMPDEST LT ISZERO DUP1 ISZERO PUSH2 0x7D3 JUMPI POP PUSH1 0x3 DUP1 DUP2 GT ISZERO PUSH2 0x7BD JUMPI PUSH2 0x7BC PUSH2 0x3C0D JUMP JUMPDEST JUMPDEST DUP4 PUSH1 0x3 DUP2 GT ISZERO PUSH2 0x7D0 JUMPI PUSH2 0x7CF PUSH2 0x3C0D JUMP JUMPDEST JUMPDEST GT ISZERO JUMPDEST PUSH2 0x812 JUMPI PUSH1 0x40 MLOAD PUSH32 0x8C379A000000000000000000000000000000000000000000000000000000000 DUP2 MSTORE PUSH1 0x4 ADD PUSH2 0x809 SWAP1 PUSH2 0x3F50 JUMP JUMPDEST PUSH1 0x40 MLOAD DUP1 SWAP2 SUB SWAP1 REVERT JUMPDEST PUSH2 0x826 PUSH8 0x53AAAF9320FE18FD PUSH1 0xC0 SHL PUSH2 0x2781 JUMP JUMPDEST PUSH2 0x83A PUSH8 0xAB49E147B91272B3 PUSH1 0xC0 SHL PUSH2 0x2781 JUMP JUMPDEST PUSH2 0x84E PUSH8 0x9AB8A363C1DB47F7 PUSH1 0xC0 SHL PUSH2 0x2781 JUMP JUMPDEST PUSH2 0x862 PUSH8 0xC80F0B231C338B2D PUSH1 0xC0 SHL PUSH2 0x2781 JUMP JUMPDEST PUSH1 0x0 PUSH1 0x2 DUP2 GT ISZERO PUSH2 0x876 JUMPI PUSH2 0x875 PUSH2 0x3C0D JUMP JUMPDEST JUMPDEST DUP3 PUSH1 0x2 DUP2 GT ISZERO PUSH2 0x889 JUMPI PUSH2 0x888 PUSH2 0x3C0D JUMP JUMPDEST JUMPDEST LT ISZERO DUP1 ISZERO PUSH2 0x8BB JUMPI POP PUSH1 0x2 DUP1 DUP2 GT ISZERO PUSH2 0x8A5 JUMPI PUSH2 0x8A4 PUSH2 0x3C0D JUMP JUMPDEST JUMPDEST DUP3 PUSH1 0x2 DUP2 GT ISZERO PUSH2 0x8B8 JUMPI PUSH2 0x8B7 PUSH2 0x3C0D JUMP JUMPDEST JUMPDEST GT ISZERO JUMPDEST PUSH2 0x8FA JUMPI PUSH1 0x40 MLOAD PUSH32 0x8C379A000000000000000000000000000000000000000000000000000000000 DUP2 MSTORE PUSH1 0x4 ADD PUSH2 0x8F1 SWAP1 PUSH2 0x3FBC JUMP JUMPDEST PUSH1 0x40 MLOAD DUP1 SWAP2 SUB SWAP1 REVERT JUMPDEST PUSH2 0x90E PUSH8 0x5397BBBEEF836AD8 PUSH1 0xC0 SHL PUSH2 0x2781 JUMP JUMPDEST PUSH2 0x922 PUSH8 0x9B6D6670ACBBE933 PUSH1 0xC0 SHL PUSH2 0x2781 JUMP JUMPDEST PUSH2 0x936 PUSH8 0x8DBA3CFCDD7AB4AB PUSH1 0xC0 SHL PUSH2 0x2781 JUMP JUMPDEST PUSH2 0x94A PUSH8 0x2E1F532EB4156EB5 PUSH1 0xC0 SHL PUSH2 0x2781 JUMP JUMPDEST PUSH1 0x0 PUSH1 0xF DUP2 GT ISZERO PUSH2 0x95E JUMPI PUSH2 0x95D PUSH2 0x3C0D JUMP JUMPDEST JUMPDEST DUP2 PUSH1 0xF DUP2 GT ISZERO PUSH2 0x971 JUMPI PUSH2 0x970 PUSH2 0x3C0D JUMP JUMPDEST JUMPDEST LT ISZERO DUP1 ISZERO PUSH2 0x9A3 JUMPI POP PUSH1 0xF DUP1 DUP2 GT ISZERO PUSH2 0x98D JUMPI PUSH2 0x98C PUSH2 0x3C0D JUMP JUMPDEST JUMPDEST DUP2 PUSH1 0xF DUP2 GT ISZERO PUSH2 0x9A0 JUMPI PUSH2 0x99F PUSH2 0x3C0D JUMP JUMPDEST JUMPDEST GT ISZERO JUMPDEST PUSH2 0x9E2 JUMPI PUSH1 0x40 MLOAD PUSH32 0x8C379A000000000000000000000000000000000000000000000000000000000 DUP2 MSTORE PUSH1 0x4 ADD PUSH2 0x9D9 SWAP1 PUSH2 0x4028 JUMP JUMPDEST PUSH1 0x40 MLOAD DUP1 SWAP2 SUB SWAP1 REVERT JUMPDEST PUSH2 0x9F6 PUSH8 0xB763B8910A23EFEE PUSH1 0xC0 SHL PUSH2 0x2781 JUMP JUMPDEST PUSH2 0xA0A PUSH8 0xACD6A8C8F4D574B6 PUSH1 0xC0 SHL PUSH2 0x2781 JUMP JUMPDEST PUSH2 0xA1E PUSH8 0x7697096D64270CDB PUSH1 0xC0 SHL PUSH2 0x2781 JUMP JUMPDEST PUSH2 0xA32 PUSH8 0x3318F6946F781978 PUSH1 0xC0 SHL PUSH2 0x2781 JUMP JUMPDEST PUSH1 0x0 ISZERO ISZERO PUSH1 0x5 PUSH1 0x0 DUP10 DUP7 DUP7 DUP7 PUSH1 0x40 MLOAD PUSH1 0x20 ADD PUSH2 0xA51 SWAP5 SWAP4 SWAP3 SWAP2 SWAP1 PUSH2 0x40CD JUMP JUMPDEST PUSH1 0x40 MLOAD PUSH1 0x20 DUP2 DUP4 SUB SUB DUP2 MSTORE SWAP1 PUSH1 0x40 MSTORE DUP1 MLOAD SWAP1 PUSH1 0x20 ADD KECCAK256 DUP2 MSTORE PUSH1 0x20 ADD SWAP1 DUP2 MSTORE PUSH1 0x20 ADD PUSH1 0x0 KECCAK256 PUSH1 0x2 ADD PUSH1 0x0 SWAP1 SLOAD SWAP1 PUSH2 0x100 EXP SWAP1 DIV PUSH1 0xFF AND ISZERO ISZERO EQ PUSH2 0xAC8 JUMPI PUSH1 0x40 MLOAD PUSH32 0x8C379A000000000000000000000000000000000000000000000000000000000 DUP2 MSTORE PUSH1 0x4 ADD PUSH2 0xABF SWAP1 PUSH2 0x4167 JUMP JUMPDEST PUSH1 0x40 MLOAD DUP1 SWAP2 SUB SWAP1 REVERT JUMPDEST PUSH2 0xADC PUSH8 0xD4C4533D7E9A60A6 PUSH1 0xC0 SHL PUSH2 0x2781 JUMP JUMPDEST PUSH2 0xAF0 PUSH8 0x32954512786739F5 PUSH1 0xC0 SHL PUSH2 0x2781 JUMP JUMPDEST PUSH2 0xB04 PUSH8 0x24BCD6FFDFBD0D4D PUSH1 0xC0 SHL PUSH2 0x2781 JUMP JUMPDEST PUSH1 0x0 DUP8 DUP5 DUP5 DUP5 PUSH1 0x40 MLOAD PUSH1 0x20 ADD PUSH2 0xB1D SWAP5 SWAP4 SWAP3 SWAP2 SWAP1 PUSH2 0x41DE JUMP JUMPDEST PUSH1 0x40 MLOAD PUSH1 0x20 DUP2 DUP4 SUB SUB DUP2 MSTORE SWAP1 PUSH1 0x40 MSTORE DUP1 MLOAD SWAP1 PUSH1 0x20 ADD KECCAK256 SWAP1 POP PUSH2 0xB49 PUSH8 0x7338A703CA5A2A96 PUSH1 0xC0 SHL PUSH2 0x2781 JUMP JUMPDEST PUSH2 0xB5D PUSH8 0x3B1E688B7D79D00D PUSH1 0xC0 SHL PUSH2 0x2781 JUMP JUMPDEST PUSH2 0xC29 DUP2 PUSH32 0xD646AE07EB0D0F77457502A65E7407930DFF4CD4FD99ABC6AAC87A753F4C8A42 DUP11 PUSH1 0x40 MLOAD PUSH1 0x20 ADD PUSH2 0xB93 SWAP2 SWAP1 PUSH2 0x4237 JUMP JUMPDEST PUSH1 0x40 MLOAD PUSH1 0x20 DUP2 DUP4 SUB SUB DUP2 MSTORE SWAP1 PUSH1 0x40 MSTORE DUP8 PUSH1 0x40 MLOAD PUSH1 0x20 ADD PUSH2 0xBB3 SWAP2 SWAP1 PUSH2 0x4252 JUMP JUMPDEST PUSH1 0x40 MLOAD PUSH1 0x20 DUP2 DUP4 SUB SUB DUP2 MSTORE SWAP1 PUSH1 0x40 MSTORE DUP8 PUSH1 0x40 MLOAD PUSH1 0x20 ADD PUSH2 0xBD3 SWAP2 SWAP1 PUSH2 0x426D JUMP JUMPDEST PUSH1 0x40 MLOAD PUSH1 0x20 DUP2 DUP4 SUB SUB DUP2 MSTORE SWAP1 PUSH1 0x40 MSTORE DUP8 PUSH1 0x40 MLOAD PUSH1 0x20 ADD PUSH2 0xBF3 SWAP2 SWAP1 PUSH2 0x4288 JUMP JUMPDEST PUSH1 0x40 MLOAD PUSH1 0x20 DUP2 DUP4 SUB SUB DUP2 MSTORE SWAP1 PUSH1 0x40 MSTORE PUSH1 0x40 MLOAD PUSH1 0x20 ADD PUSH2 0xC15 SWAP5 SWAP4 SWAP3 SWAP2 SWAP1 PUSH2 0x4320 JUMP JUMPDEST PUSH1 0x40 MLOAD PUSH1 0x20 DUP2 DUP4 SUB SUB DUP2 MSTORE SWAP1 PUSH1 0x40 MSTORE PUSH2 0x2784 JUMP JUMPDEST PUSH2 0xC3D PUSH8 0x6BEA465BB4414610 PUSH1 0xC0 SHL PUSH2 0x2781 JUMP JUMPDEST PUSH2 0xC51 PUSH8 0xE8C1FA74BACD7FBB PUSH1 0xC0 SHL PUSH2 0x2781 JUMP JUMPDEST PUSH1 0x0 ISZERO ISZERO PUSH1 0x2 PUSH1 0x0 DUP4 DUP2 MSTORE PUSH1 0x20 ADD SWAP1 DUP2 MSTORE PUSH1 0x20 ADD PUSH1 0x0 KECCAK256 PUSH1 0x3 ADD PUSH1 0x0 CALLER PUSH20 0xFFFFFFFFFFFFFFFFFFFFFFFFFFFFFFFFFFFFFFFF AND PUSH20 0xFFFFFFFFFFFFFFFFFFFFFFFFFFFFFFFFFFFFFFFF AND DUP2 MSTORE PUSH1 0x20 ADD SWAP1 DUP2 MSTORE PUSH1 0x20 ADD PUSH1 0x0 KECCAK256 PUSH1 0x0 SWAP1 SLOAD SWAP1 PUSH2 0x100 EXP SWAP1 DIV PUSH1 0xFF AND ISZERO ISZERO SUB PUSH2 0xD79 JUMPI PUSH2 0xCD1 PUSH8 0x1F5319FEB6477E35 PUSH1 0xC0 SHL PUSH2 0x2781 JUMP JUMPDEST PUSH2 0xCE5 PUSH8 0xF438D58DFB1BE182 PUSH1 0xC0 SHL PUSH2 0x2781 JUMP JUMPDEST PUSH2 0xCF9 PUSH8 0x8EF10DCAEAC9036F PUSH1 0xC0 SHL PUSH2 0x2781 JUMP JUMPDEST PUSH2 0xD15 PUSH1 0x2 PUSH1 0x0 DUP4 DUP2 MSTORE PUSH1 0x20 ADD SWAP1 DUP2 MSTORE PUSH1 0x20 ADD PUSH1 0x0 KECCAK256 CALLER PUSH2 0x2928 JUMP JUMPDEST PUSH2 0xD29 PUSH8 0x35F2056C8483D804 PUSH1 0xC0 SHL PUSH2 0x2781 JUMP JUMPDEST PUSH2 0xD3D PUSH8 0xC187D7D65CF65AF2 PUSH1 0xC0 SHL PUSH2 0x2781 JUMP JUMPDEST PUSH32 0xB431A69783A2491A0C400FF16DAB32CD442ABF8FE5AF63A526A7248D730192F8 DUP2 PUSH1 0x40 MLOAD PUSH2 0xD6C SWAP2 SWAP1 PUSH2 0x3821 JUMP JUMPDEST PUSH1 0x40 MLOAD DUP1 SWAP2 SUB SWAP1 LOG1 PUSH2 0xD8E JUMP JUMPDEST PUSH2 0xD8D PUSH8 0xADE7A62C071E519D PUSH1 0xC0 SHL PUSH2 0x2781 JUMP JUMPDEST JUMPDEST PUSH2 0xDA2 PUSH8 0x5439B2C4CD164823 PUSH1 0xC0 SHL PUSH2 0x2781 JUMP JUMPDEST PUSH2 0xDB6 PUSH8 0x2F6377F918FC3E74 PUSH1 0xC0 SHL PUSH2 0x2781 JUMP JUMPDEST PUSH2 0xE1C PUSH1 0x33 PUSH1 0xFF AND PUSH1 0x1 PUSH1 0x0 PUSH32 0xD646AE07EB0D0F77457502A65E7407930DFF4CD4FD99ABC6AAC87A753F4C8A42 DUP2 MSTORE PUSH1 0x20 ADD SWAP1 DUP2 MSTORE PUSH1 0x20 ADD PUSH1 0x0 KECCAK256 PUSH1 0x0 ADD PUSH1 0x0 SWAP1 SLOAD SWAP1 PUSH2 0x100 EXP SWAP1 DIV PUSH4 0xFFFFFFFF AND PUSH2 0xE0F SWAP2 SWAP1 PUSH2 0x43D9 JUMP JUMPDEST PUSH4 0xFFFFFFFF AND PUSH1 0x64 PUSH2 0x1A12 JUMP JUMPDEST PUSH1 0x2 PUSH1 0x0 DUP4 DUP2 MSTORE PUSH1 0x20 ADD SWAP1 DUP2 MSTORE PUSH1 0x20 ADD PUSH1 0x0 KECCAK256 PUSH1 0x2 ADD PUSH1 0x0 SWAP1 SLOAD SWAP1 PUSH2 0x100 EXP SWAP1 DIV PUSH1 0xFF AND PUSH1 0xFF AND LT PUSH2 0xF8A JUMPI PUSH2 0xE5C PUSH8 0x62C646C22C573F3E PUSH1 0xC0 SHL PUSH2 0x2781 JUMP JUMPDEST PUSH2 0xE70 PUSH8 0x220AD4741FC3DF5D PUSH1 0xC0 SHL PUSH2 0x2781 JUMP JUMPDEST PUSH2 0xE84 PUSH8 0x99A0B0988AF08677 PUSH1 0xC0 SHL PUSH2 0x2781 JUMP JUMPDEST PUSH2 0xE9F PUSH1 0x2 PUSH1 0x0 DUP4 DUP2 MSTORE PUSH1 0x20 ADD SWAP1 DUP2 MSTORE PUSH1 0x20 ADD PUSH1 0x0 KECCAK256 PUSH2 0x2BAA JUMP JUMPDEST PUSH2 0xEB3 PUSH8 0x5D49AC61BE8EBD71 PUSH1 0xC0 SHL PUSH2 0x2781 JUMP JUMPDEST PUSH2 0xEC7 PUSH8 0xAC18A9A1EC69E6B8 PUSH1 0xC0 SHL PUSH2 0x2781 JUMP JUMPDEST PUSH32 0x562618DBCF74B61AE5B0F229FE40BA6D5B6AE6B4248F8C89A870DDA7C77135F6 DUP2 PUSH1 0x40 MLOAD PUSH2 0xEF6 SWAP2 SWAP1 PUSH2 0x3821 JUMP JUMPDEST PUSH1 0x40 MLOAD DUP1 SWAP2 SUB SWAP1 LOG1 PUSH2 0xF12 PUSH8 0x698BF9A5753EF891 PUSH1 0xC0 SHL PUSH2 0x2781 JUMP JUMPDEST PUSH2 0xF26 PUSH8 0x4A780F79854977D8 PUSH1 0xC0 SHL PUSH2 0x2781 JUMP JUMPDEST PUSH2 0xF85 DUP9 DUP9 PUSH1 0x40 MLOAD PUSH1 0x20 ADD PUSH2 0xF3B SWAP2 SWAP1 PUSH2 0x4416 JUMP JUMPDEST PUSH1 0x40 MLOAD PUSH1 0x20 DUP2 DUP4 SUB SUB DUP2 MSTORE SWAP1 PUSH1 0x40 MSTORE PUSH2 0xF53 SWAP1 PUSH2 0x446A JUMP JUMPDEST DUP9 PUSH1 0x40 MLOAD PUSH1 0x20 ADD PUSH2 0xF64 SWAP2 SWAP1 PUSH2 0x4416 JUMP JUMPDEST PUSH1 0x40 MLOAD PUSH1 0x20 DUP2 DUP4 SUB SUB DUP2 MSTORE SWAP1 PUSH1 0x40 MSTORE PUSH2 0xF7C SWAP1 PUSH2 0x446A JUMP JUMPDEST DUP9 DUP9 DUP9 DUP9 PUSH2 0x2CF7 JUMP JUMPDEST PUSH2 0xF9F JUMP JUMPDEST PUSH2 0xF9E PUSH8 0x69AD2177CECD222F PUSH1 0xC0 SHL PUSH2 0x2781 JUMP JUMPDEST JUMPDEST POP POP POP POP POP POP POP POP JUMP JUMPDEST PUSH2 0xFB2 DUP3 PUSH2 0x64D JUMP JUMPDEST PUSH2 0xFBB DUP2 PUSH2 0x2F2B JUMP JUMPDEST PUSH2 0xFC5 DUP4 DUP4 PUSH2 0x2F3F JUMP JUMPDEST POP POP POP JUMP JUMPDEST PUSH1 0x2 DUP2 JUMP JUMPDEST PUSH2 0xFE3 PUSH8 0x515D414290EF63A7 PUSH1 0xC0 SHL PUSH2 0x2781 JUMP JUMPDEST PUSH2 0xFF7 PUSH8 0x408D4005470649CF PUSH1 0xC0 SHL PUSH2 0x2781 JUMP JUMPDEST PUSH2 0x100B PUSH8 0x9C54A3CC10A34A3D PUSH1 0xC0 SHL PUSH2 0x2781 JUMP JUMPDEST PUSH1 0x40 MLOAD PUSH32 0x8C379A000000000000000000000000000000000000000000000000000000000 DUP2 MSTORE PUSH1 0x4 ADD PUSH2 0x103D SWAP1 PUSH2 0x4543 JUMP JUMPDEST PUSH1 0x40 MLOAD DUP1 SWAP2 SUB SWAP1 REVERT JUMPDEST PUSH1 0x50 DUP2 JUMP JUMPDEST PUSH1 0xF DUP2 JUMP JUMPDEST PUSH1 0x33 DUP2 JUMP JUMPDEST PUSH2 0x1069 PUSH8 0xF9332553ECEB56D8 PUSH1 0xC0 SHL PUSH2 0x2781 JUMP JUMPDEST PUSH2 0x107D PUSH8 0x7D4CEA3F8D4622D5 PUSH1 0xC0 SHL PUSH2 0x2781 JUMP JUMPDEST PUSH2 0x1091 PUSH8 0xEB262170AB108A03 PUSH1 0xC0 SHL PUSH2 0x2781 JUMP JUMPDEST PUSH1 0x0 PUSH1 0x1 PUSH1 0x0 DUP6 DUP2 MSTORE PUSH1 0x20 ADD SWAP1 DUP2 MSTORE PUSH1 0x20 ADD PUSH1 0x0 KECCAK256 SWAP1 POP PUSH2 0x10BC PUSH8 0x978F6ECC8F606819 PUSH1 0xC0 SHL PUSH2 0x2781 JUMP JUMPDEST PUSH2 0x10D0 PUSH8 0xD61646692ED40D10 PUSH1 0xC0 SHL PUSH2 0x2781 JUMP JUMPDEST PUSH2 0x10E4 PUSH8 0x281F41604962EF63 PUSH1 0xC0 SHL PUSH2 0x2781 JUMP JUMPDEST DUP1 PUSH1 0x0 ADD PUSH1 0x0 SWAP1 SLOAD SWAP1 PUSH2 0x100 EXP SWAP1 DIV PUSH4 0xFFFFFFFF AND PUSH4 0xFFFFFFFF AND DUP2 PUSH1 0x0 ADD PUSH1 0x8 SWAP1 SLOAD SWAP1 PUSH2 0x100 EXP SWAP1 DIV PUSH4 0xFFFFFFFF AND PUSH4 0xFFFFFFFF AND GT DUP2 PUSH1 0x2 ADD SLOAD PUSH1 0x40 MLOAD PUSH1 0x20 ADD PUSH2 0x1130 SWAP2 SWAP1 PUSH2 0x4584 JUMP JUMPDEST PUSH1 0x40 MLOAD PUSH1 0x20 DUP2 DUP4 SUB SUB DUP2 MSTORE SWAP1 PUSH1 0x40 MSTORE PUSH1 0x40 MLOAD PUSH1 0x20 ADD PUSH2 0x114F SWAP2 SWAP1 PUSH2 0x45EB JUMP JUMPDEST PUSH1 0x40 MLOAD PUSH1 0x20 DUP2 DUP4 SUB SUB DUP2 MSTORE SWAP1 PUSH1 0x40 MSTORE SWAP1 PUSH2 0x119F JUMPI PUSH1 0x40 MLOAD PUSH32 0x8C379A000000000000000000000000000000000000000000000000000000000 DUP2 MSTORE PUSH1 0x4 ADD PUSH2 0x1196 SWAP2 SWAP1 PUSH2 0x4620 JUMP JUMPDEST PUSH1 0x40 MLOAD DUP1 SWAP2 SUB SWAP1 REVERT JUMPDEST POP PUSH2 0x11B4 PUSH8 0x1DC47E9DC7E2D49 PUSH1 0xC0 SHL PUSH2 0x2781 JUMP JUMPDEST PUSH2 0x11C8 PUSH8 0xE00C6E3F0D9A678B PUSH1 0xC0 SHL PUSH2 0x2781 JUMP JUMPDEST PUSH2 0x11DC PUSH8 0x211496B55CB50CFF PUSH1 0xC0 SHL PUSH2 0x2781 JUMP JUMPDEST PUSH2 0x11F0 PUSH8 0xFA27C246EEE8A08B PUSH1 0xC0 SHL PUSH2 0x2781 JUMP JUMPDEST PUSH2 0x11FE DUP2 PUSH1 0x1 ADD SLOAD CALLER PUSH2 0x1960 JUMP JUMPDEST DUP2 PUSH1 0x2 ADD SLOAD PUSH1 0x40 MLOAD PUSH1 0x20 ADD PUSH2 0x1213 SWAP2 SWAP1 PUSH2 0x4584 JUMP JUMPDEST PUSH1 0x40 MLOAD PUSH1 0x20 DUP2 DUP4 SUB SUB DUP2 MSTORE SWAP1 PUSH1 0x40 MSTORE PUSH1 0x40 MLOAD PUSH1 0x20 ADD PUSH2 0x1232 SWAP2 SWAP1 PUSH2 0x468E JUMP JUMPDEST PUSH1 0x40 MLOAD PUSH1 0x20 DUP2 DUP4 SUB SUB DUP2 MSTORE SWAP1 PUSH1 0x40 MSTORE SWAP1 PUSH2 0x1282 JUMPI PUSH1 0x40 MLOAD PUSH32 0x8C379A000000000000000000000000000000000000000000000000000000000 DUP2 MSTORE PUSH1 0x4 ADD PUSH2 0x1279 SWAP2 SWAP1 PUSH2 0x4620 JUMP JUMPDEST PUSH1 0x40 MLOAD DUP1 SWAP2 SUB SWAP1 REVERT JUMPDEST POP PUSH2 0x1297 PUSH8 0xBA7A7D4F3FF1ED82 PUSH1 0xC0 SHL PUSH2 0x2781 JUMP JUMPDEST PUSH2 0x12AB PUSH8 0x19A84E662ED6D2E4 PUSH1 0xC0 SHL PUSH2 0x2781 JUMP JUMPDEST PUSH2 0x12BF PUSH8 0x553B9AE776C1AC07 PUSH1 0xC0 SHL PUSH2 0x2781 JUMP JUMPDEST PUSH2 0x12D3 PUSH8 0x76E3A440F346F78B PUSH1 0xC0 SHL PUSH2 0x2781 JUMP JUMPDEST PUSH1 0x0 ISZERO ISZERO PUSH2 0x12E1 DUP6 DUP6 PUSH2 0x1960 JUMP JUMPDEST ISZERO ISZERO EQ DUP2 PUSH1 0x2 ADD SLOAD PUSH1 0x40 MLOAD PUSH1 0x20 ADD PUSH2 0x12F9 SWAP2 SWAP1 PUSH2 0x4584 JUMP JUMPDEST PUSH1 0x40 MLOAD PUSH1 0x20 DUP2 DUP4 SUB SUB DUP2 MSTORE SWAP1 PUSH1 0x40 MSTORE PUSH1 0x40 MLOAD PUSH1 0x20 ADD PUSH2 0x1318 SWAP2 SWAP1 PUSH2 0x46E9 JUMP JUMPDEST PUSH1 0x40 MLOAD PUSH1 0x20 DUP2 DUP4 SUB SUB DUP2 MSTORE SWAP1 PUSH1 0x40 MSTORE SWAP1 PUSH2 0x1368 JUMPI PUSH1 0x40 MLOAD PUSH32 0x8C379A000000000000000000000000000000000000000000000000000000000 DUP2 MSTORE PUSH1 0x4 ADD PUSH2 0x135F SWAP2 SWAP1 PUSH2 0x4620 JUMP JUMPDEST PUSH1 0x40 MLOAD DUP1 SWAP2 SUB SWAP1 REVERT JUMPDEST POP PUSH2 0x137D PUSH8 0x2FE19DD197AE71B7 PUSH1 0xC0 SHL PUSH2 0x2781 JUMP JUMPDEST PUSH2 0x1391 PUSH8 0x4DADAD20973E5E5D PUSH1 0xC0 SHL PUSH2 0x2781 JUMP JUMPDEST PUSH2 0x13A5 PUSH8 0xDCFD845B2FE814EE PUSH1 0xC0 SHL PUSH2 0x2781 JUMP JUMPDEST PUSH1 0x0 DUP4 DUP6 PUSH1 0x40 MLOAD PUSH1 0x20 ADD PUSH2 0x13BA SWAP3 SWAP2 SWAP1 PUSH2 0x47A3 JUMP JUMPDEST PUSH1 0x40 MLOAD PUSH1 0x20 DUP2 DUP4 SUB SUB DUP2 MSTORE SWAP1 PUSH1 0x40 MSTORE DUP1 MLOAD SWAP1 PUSH1 0x20 ADD KECCAK256 SWAP1 POP PUSH2 0x13E6 PUSH8 0x87C8EA0FEDA3ADA5 PUSH1 0xC0 SHL PUSH2 0x2781 JUMP JUMPDEST PUSH2 0x13FA PUSH8 0x124F1DAD53C69BC5 PUSH1 0xC0 SHL PUSH2 0x2781 JUMP JUMPDEST PUSH2 0x146C DUP2 DUP4 PUSH1 0x1 ADD SLOAD DUP5 PUSH1 0x2 ADD SLOAD PUSH1 0x40 MLOAD PUSH1 0x20 ADD PUSH2 0x1418 SWAP2 SWAP1 PUSH2 0x4584 JUMP JUMPDEST PUSH1 0x40 MLOAD PUSH1 0x20 DUP2 DUP4 SUB SUB DUP2 MSTORE SWAP1 PUSH1 0x40 MSTORE DUP8 PUSH1 0x40 MLOAD PUSH1 0x20 ADD PUSH2 0x1438 SWAP2 SWAP1 PUSH2 0x47DA JUMP JUMPDEST PUSH1 0x40 MLOAD PUSH1 0x20 DUP2 DUP4 SUB SUB DUP2 MSTORE SWAP1 PUSH1 0x40 MSTORE PUSH1 0x40 MLOAD PUSH1 0x20 ADD PUSH2 0x1458 SWAP3 SWAP2 SWAP1 PUSH2 0x481B JUMP JUMPDEST PUSH1 0x40 MLOAD PUSH1 0x20 DUP2 DUP4 SUB SUB DUP2 MSTORE SWAP1 PUSH1 0x40 MSTORE PUSH2 0x2784 JUMP JUMPDEST PUSH2 0x1480 PUSH8 0x6E8D3572B8C8BA0B PUSH1 0xC0 SHL PUSH2 0x2781 JUMP JUMPDEST PUSH2 0x1494 PUSH8 0xEC4E2BCD06462333 PUSH1 0xC0 SHL PUSH2 0x2781 JUMP JUMPDEST DUP3 DUP1 ISZERO PUSH2 0x1505 JUMPI POP PUSH1 0x0 ISZERO ISZERO PUSH1 0x2 PUSH1 0x0 DUP4 DUP2 MSTORE PUSH1 0x20 ADD SWAP1 DUP2 MSTORE PUSH1 0x20 ADD PUSH1 0x0 KECCAK256 PUSH1 0x3 ADD PUSH1 0x0 CALLER PUSH20 0xFFFFFFFFFFFFFFFFFFFFFFFFFFFFFFFFFFFFFFFF AND PUSH20 0xFFFFFFFFFFFFFFFFFFFFFFFFFFFFFFFFFFFFFFFF AND DUP2 MSTORE PUSH1 0x20 ADD SWAP1 DUP2 MSTORE PUSH1 0x20 ADD PUSH1 0x0 KECCAK256 PUSH1 0x0 SWAP1 SLOAD SWAP1 PUSH2 0x100 EXP SWAP1 DIV PUSH1 0xFF AND ISZERO ISZERO EQ JUMPDEST ISZERO PUSH2 0x15C6 JUMPI PUSH2 0x151E PUSH8 0x71868017DD9EA9A2 PUSH1 0xC0 SHL PUSH2 0x2781 JUMP JUMPDEST PUSH2 0x1532 PUSH8 0xAB1BD67FCC0DC4E6 PUSH1 0xC0 SHL PUSH2 0x2781 JUMP JUMPDEST PUSH2 0x1546 PUSH8 0x14693CE83117A4A6 PUSH1 0xC0 SHL PUSH2 0x2781 JUMP JUMPDEST PUSH2 0x1562 PUSH1 0x2 PUSH1 0x0 DUP4 DUP2 MSTORE PUSH1 0x20 ADD SWAP1 DUP2 MSTORE PUSH1 0x20 ADD PUSH1 0x0 KECCAK256 CALLER PUSH2 0x2928 JUMP JUMPDEST PUSH2 0x1576 PUSH8 0x1EE91D41820DE701 PUSH1 0xC0 SHL PUSH2 0x2781 JUMP JUMPDEST PUSH2 0x158A PUSH8 0x65714EE521157C16 PUSH1 0xC0 SHL PUSH2 0x2781 JUMP JUMPDEST PUSH32 0xB431A69783A2491A0C400FF16DAB32CD442ABF8FE5AF63A526A7248D730192F8 DUP2 PUSH1 0x40 MLOAD PUSH2 0x15B9 SWAP2 SWAP1 PUSH2 0x3821 JUMP JUMPDEST PUSH1 0x40 MLOAD DUP1 SWAP2 SUB SWAP1 LOG1 PUSH2 0x16CC JUMP JUMPDEST PUSH2 0x15DA PUSH8 0x647B5B224D6B0949 PUSH1 0xC0 SHL PUSH2 0x2781 JUMP JUMPDEST PUSH2 0x15EE PUSH8 0x65B7E103C94A229D PUSH1 0xC0 SHL PUSH2 0x2781 JUMP JUMPDEST PUSH1 0x0 ISZERO ISZERO DUP4 ISZERO ISZERO SUB PUSH2 0x16B6 JUMPI PUSH2 0x160E PUSH8 0x12792DB49BD80008 PUSH1 0xC0 SHL PUSH2 0x2781 JUMP JUMPDEST PUSH2 0x1622 PUSH8 0x3A5A274BE22801D2 PUSH1 0xC0 SHL PUSH2 0x2781 JUMP JUMPDEST PUSH2 0x1636 PUSH8 0x493634455E2D80E9 PUSH1 0xC0 SHL PUSH2 0x2781 JUMP JUMPDEST PUSH2 0x1652 PUSH1 0x2 PUSH1 0x0 DUP4 DUP2 MSTORE PUSH1 0x20 ADD SWAP1 DUP2 MSTORE PUSH1 0x20 ADD PUSH1 0x0 KECCAK256 CALLER PUSH2 0x301F JUMP JUMPDEST PUSH2 0x1666 PUSH8 0x1175E050037A7C27 PUSH1 0xC0 SHL PUSH2 0x2781 JUMP JUMPDEST PUSH2 0x167A PUSH8 0x5137F0B970B59AA7 PUSH1 0xC0 SHL PUSH2 0x2781 JUMP JUMPDEST PUSH32 0xB431A69783A2491A0C400FF16DAB32CD442ABF8FE5AF63A526A7248D730192F8 DUP2 PUSH1 0x40 MLOAD PUSH2 0x16A9 SWAP2 SWAP1 PUSH2 0x3821 JUMP JUMPDEST PUSH1 0x40 MLOAD DUP1 SWAP2 SUB SWAP1 LOG1 PUSH2 0x16CB JUMP JUMPDEST PUSH2 0x16CA PUSH8 0x7BA3D7AD982F17C1 PUSH1 0xC0 SHL PUSH2 0x2781 JUMP JUMPDEST JUMPDEST JUMPDEST PUSH2 0x16E0 PUSH8 0x5FF2FE70F0A16508 PUSH1 0xC0 SHL PUSH2 0x2781 JUMP JUMPDEST PUSH2 0x16F4 PUSH8 0x39D9FB6B575BA4E3 PUSH1 0xC0 SHL PUSH2 0x2781 JUMP JUMPDEST PUSH2 0x174E DUP3 PUSH1 0x0 ADD PUSH1 0xC SWAP1 SLOAD SWAP1 PUSH2 0x100 EXP SWAP1 DIV PUSH1 0xFF AND PUSH1 0xFF AND PUSH1 0x1 PUSH1 0x0 DUP6 PUSH1 0x1 ADD SLOAD DUP2 MSTORE PUSH1 0x20 ADD SWAP1 DUP2 MSTORE PUSH1 0x20 ADD PUSH1 0x0 KECCAK256 PUSH1 0x0 ADD PUSH1 0x0 SWAP1 SLOAD SWAP1 PUSH2 0x100 EXP SWAP1 DIV PUSH4 0xFFFFFFFF AND PUSH2 0x1741 SWAP2 SWAP1 PUSH2 0x43D9 JUMP JUMPDEST PUSH4 0xFFFFFFFF AND PUSH1 0x64 PUSH2 0x1A12 JUMP JUMPDEST PUSH1 0x2 PUSH1 0x0 DUP4 DUP2 MSTORE PUSH1 0x20 ADD SWAP1 DUP2 MSTORE PUSH1 0x20 ADD PUSH1 0x0 KECCAK256 PUSH1 0x2 ADD PUSH1 0x0 SWAP1 SLOAD SWAP1 PUSH2 0x100 EXP SWAP1 DIV PUSH1 0xFF AND PUSH1 0xFF AND LT PUSH2 0x18BD JUMPI PUSH2 0x178E PUSH8 0x248DCA5C34FF865B PUSH1 0xC0 SHL PUSH2 0x2781 JUMP JUMPDEST PUSH2 0x17A2 PUSH8 0x52D84047F7EC1FD8 PUSH1 0xC0 SHL PUSH2 0x2781 JUMP JUMPDEST PUSH2 0x17B6 PUSH8 0xAE030A65C15F8755 PUSH1 0xC0 SHL PUSH2 0x2781 JUMP JUMPDEST PUSH2 0x17D1 PUSH1 0x2 PUSH1 0x0 DUP4 DUP2 MSTORE PUSH1 0x20 ADD SWAP1 DUP2 MSTORE PUSH1 0x20 ADD PUSH1 0x0 KECCAK256 PUSH2 0x2BAA JUMP JUMPDEST PUSH2 0x17E5 PUSH8 0x4DBD682BD4FC3106 PUSH1 0xC0 SHL PUSH2 0x2781 JUMP JUMPDEST PUSH2 0x17F9 PUSH8 0x14F96B5406597F99 PUSH1 0xC0 SHL PUSH2 0x2781 JUMP JUMPDEST PUSH32 0x562618DBCF74B61AE5B0F229FE40BA6D5B6AE6B4248F8C89A870DDA7C77135F6 DUP2 PUSH1 0x40 MLOAD PUSH2 0x1828 SWAP2 SWAP1 PUSH2 0x3821 JUMP JUMPDEST PUSH1 0x40 MLOAD DUP1 SWAP2 SUB SWAP1 LOG1 PUSH2 0x1844 PUSH8 0xDF07991CAEF353D PUSH1 0xC0 SHL PUSH2 0x2781 JUMP JUMPDEST PUSH2 0x1858 PUSH8 0xAE62EA1482F5A883 PUSH1 0xC0 SHL PUSH2 0x2781 JUMP JUMPDEST PUSH2 0x1862 DUP6 DUP6 PUSH2 0x2F3F JUMP JUMPDEST PUSH2 0x1876 PUSH8 0x163E0E75E54E0C8A PUSH1 0xC0 SHL PUSH2 0x2781 JUMP JUMPDEST PUSH1 0x1 DUP3 PUSH1 0x0 ADD PUSH1 0x0 DUP3 DUP3 DUP3 SWAP1 SLOAD SWAP1 PUSH2 0x100 EXP SWAP1 DIV PUSH4 0xFFFFFFFF AND PUSH2 0x189A SWAP2 SWAP1 PUSH2 0x485D JUMP JUMPDEST SWAP3 POP PUSH2 0x100 EXP DUP2 SLOAD DUP2 PUSH4 0xFFFFFFFF MUL NOT AND SWAP1 DUP4 PUSH4 0xFFFFFFFF AND MUL OR SWAP1 SSTORE POP PUSH2 0x18D2 JUMP JUMPDEST PUSH2 0x18D1 PUSH8 0xA4E6A19CBFE51679 PUSH1 0xC0 SHL PUSH2 0x2781 JUMP JUMPDEST JUMPDEST POP POP POP POP POP JUMP JUMPDEST PUSH1 0x5 PUSH1 0x20 MSTORE DUP1 PUSH1 0x0 MSTORE PUSH1 0x40 PUSH1 0x0 KECCAK256 PUSH1 0x0 SWAP2 POP SWAP1 POP DUP1 PUSH1 0x0 ADD PUSH1 0x0 SWAP1 SLOAD SWAP1 PUSH2 0x100 EXP SWAP1 DIV PUSH1 0xFF AND SWAP1 DUP1 PUSH1 0x0 ADD PUSH1 0x1 SWAP1 SLOAD SWAP1 PUSH2 0x100 EXP SWAP1 DIV PUSH1 0xFF AND SWAP1 DUP1 PUSH1 0x0 ADD PUSH1 0x2 SWAP1 SLOAD SWAP1 PUSH2 0x100 EXP SWAP1 DIV PUSH1 0xFF AND SWAP1 DUP1 PUSH1 0x1 ADD SLOAD SWAP1 DUP1 PUSH1 0x2 ADD PUSH1 0x0 SWAP1 SLOAD SWAP1 PUSH2 0x100 EXP SWAP1 DIV PUSH1 0xFF AND SWAP1 DUP1 PUSH1 0x3 ADD SLOAD SWAP1 DUP1 PUSH1 0x4 ADD SLOAD SWAP1 DUP1 PUSH1 0x5 ADD SLOAD SWAP1 DUP1 PUSH1 0x6 ADD SLOAD SWAP1 POP DUP10 JUMP JUMPDEST PUSH1 0x50 DUP2 JUMP JUMPDEST PUSH1 0x0 DUP1 PUSH1 0x0 DUP5 DUP2 MSTORE PUSH1 0x20 ADD SWAP1 DUP2 MSTORE PUSH1 0x20 ADD PUSH1 0x0 KECCAK256 PUSH1 0x0 ADD PUSH1 0x0 DUP4 PUSH20 0xFFFFFFFFFFFFFFFFFFFFFFFFFFFFFFFFFFFFFFFF AND PUSH20 0xFFFFFFFFFFFFFFFFFFFFFFFFFFFFFFFFFFFFFFFF AND DUP2 MSTORE PUSH1 0x20 ADD SWAP1 DUP2 MSTORE PUSH1 0x20 ADD PUSH1 0x0 KECCAK256 PUSH1 0x0 SWAP1 SLOAD SWAP1 PUSH2 0x100 EXP SWAP1 DIV PUSH1 0xFF AND SWAP1 POP SWAP3 SWAP2 POP POP JUMP JUMPDEST PUSH1 0x3 PUSH1 0x20 MSTORE DUP1 PUSH1 0x0 MSTORE PUSH1 0x40 PUSH1 0x0 KECCAK256 PUSH1 0x0 SWAP2 POP SWAP1 POP SLOAD DUP2 JUMP JUMPDEST PUSH1 0xF DUP2 JUMP JUMPDEST PUSH1 0x0 DUP1 SHL DUP2 JUMP JUMPDEST PUSH32 0xD646AE07EB0D0F77457502A65E7407930DFF4CD4FD99ABC6AAC87A753F4C8A42 DUP2 JUMP JUMPDEST PUSH1 0x0 PUSH2 0x1A28 PUSH8 0xE2216D700919D825 PUSH1 0xC0 SHL PUSH2 0x31D7 JUMP JUMPDEST PUSH2 0x1A3C PUSH8 0xB1DB7AABFE3050A8 PUSH1 0xC0 SHL PUSH2 0x31D7 JUMP JUMPDEST PUSH2 0x1A50 PUSH8 0xFDCAA693F4162F10 PUSH1 0xC0 SHL PUSH2 0x31D7 JUMP JUMPDEST PUSH1 0x0 DUP3 DUP5 PUSH2 0x1A5E SWAP2 SWAP1 PUSH2 0x48C4 JUMP JUMPDEST SUB PUSH2 0x1AB2 JUMPI PUSH2 0x1A77 PUSH8 0x178361176C5B1757 PUSH1 0xC0 SHL PUSH2 0x31D7 JUMP JUMPDEST PUSH2 0x1A8B PUSH8 0xC4B9AEDAC44523B9 PUSH1 0xC0 SHL PUSH2 0x31D7 JUMP JUMPDEST PUSH2 0x1A9F PUSH8 0xA4703ADBB9F130DA PUSH1 0xC0 SHL PUSH2 0x31D7 JUMP JUMPDEST DUP2 DUP4 PUSH2 0x1AAB SWAP2 SWAP1 PUSH2 0x48F5 JUMP JUMPDEST SWAP1 POP PUSH2 0x1B09 JUMP JUMPDEST PUSH2 0x1AC6 PUSH8 0x7CA098A9EE654393 PUSH1 0xC0 SHL PUSH2 0x31D7 JUMP JUMPDEST PUSH2 0x1ADA PUSH8 0xF7B14CE8C55B8024 PUSH1 0xC0 SHL PUSH2 0x31D7 JUMP JUMPDEST PUSH2 0x1AEE PUSH8 0xD0B3C9DDE3A4727 PUSH1 0xC0 SHL PUSH2 0x31D7 JUMP JUMPDEST PUSH1 0x1 DUP3 DUP5 PUSH2 0x1AFC SWAP2 SWAP1 PUSH2 0x48F5 JUMP JUMPDEST PUSH2 0x1B06 SWAP2 SWAP1 PUSH2 0x4926 JUMP JUMPDEST SWAP1 POP JUMPDEST SWAP3 SWAP2 POP POP JUMP JUMPDEST PUSH2 0x1B23 PUSH8 0x5C78A7177EB1A8FB PUSH1 0xC0 SHL PUSH2 0x2781 JUMP JUMPDEST PUSH2 0x1B37 PUSH8 0xBF4499FF51C0C221 PUSH1 0xC0 SHL PUSH2 0x2781 JUMP JUMPDEST PUSH2 0x1B4B PUSH8 0x822948BE4D3EF9A7 PUSH1 0xC0 SHL PUSH2 0x2781 JUMP JUMPDEST PUSH1 0x0 PUSH1 0x1 PUSH1 0x0 DUP6 DUP2 MSTORE PUSH1 0x20 ADD SWAP1 DUP2 MSTORE PUSH1 0x20 ADD PUSH1 0x0 KECCAK256 SWAP1 POP PUSH2 0x1B76 PUSH8 0x96129956313ADF1B PUSH1 0xC0 SHL PUSH2 0x2781 JUMP JUMPDEST PUSH2 0x1B8A PUSH8 0xA37DF02138054E52 PUSH1 0xC0 SHL PUSH2 0x2781 JUMP JUMPDEST PUSH2 0x1B9E PUSH8 0xB057154329C49BF8 PUSH1 0xC0 SHL PUSH2 0x2781 JUMP JUMPDEST DUP1 PUSH1 0x0 ADD PUSH1 0x4 SWAP1 SLOAD SWAP1 PUSH2 0x100 EXP SWAP1 DIV PUSH4 0xFFFFFFFF AND PUSH4 0xFFFFFFFF AND DUP2 PUSH1 0x0 ADD PUSH1 0x0 SWAP1 SLOAD SWAP1 PUSH2 0x100 EXP SWAP1 DIV PUSH4 0xFFFFFFFF AND PUSH4 0xFFFFFFFF AND GT DUP2 PUSH1 0x2 ADD SLOAD PUSH1 0x40 MLOAD PUSH1 0x20 ADD PUSH2 0x1BEA SWAP2 SWAP1 PUSH2 0x4584 JUMP JUMPDEST PUSH1 0x40 MLOAD PUSH1 0x20 DUP2 DUP4 SUB SUB DUP2 MSTORE SWAP1 PUSH1 0x40 MSTORE PUSH1 0x40 MLOAD PUSH1 0x20 ADD PUSH2 0x1C09 SWAP2 SWAP1 PUSH2 0x4980 JUMP JUMPDEST PUSH1 0x40 MLOAD PUSH1 0x20 DUP2 DUP4 SUB SUB DUP2 MSTORE SWAP1 PUSH1 0x40 MSTORE SWAP1 PUSH2 0x1C59 JUMPI PUSH1 0x40 MLOAD PUSH32 0x8C379A000000000000000000000000000000000000000000000000000000000 DUP2 MSTORE PUSH1 0x4 ADD PUSH2 0x1C50 SWAP2 SWAP1 PUSH2 0x4620 JUMP JUMPDEST PUSH1 0x40 MLOAD DUP1 SWAP2 SUB SWAP1 REVERT JUMPDEST POP PUSH2 0x1C6E PUSH8 0xE3A8E90515CCE0B7 PUSH1 0xC0 SHL PUSH2 0x2781 JUMP JUMPDEST PUSH2 0x1C82 PUSH8 0xB5A228E10270E225 PUSH1 0xC0 SHL PUSH2 0x2781 JUMP JUMPDEST PUSH2 0x1C96 PUSH8 0x3DDB288B7F8FDE58 PUSH1 0xC0 SHL PUSH2 0x2781 JUMP JUMPDEST PUSH2 0x1CAA PUSH8 0x28FFED5C4BBB136D PUSH1 0xC0 SHL PUSH2 0x2781 JUMP JUMPDEST PUSH2 0x1CB4 DUP5 DUP5 PUSH2 0x1960 JUMP JUMPDEST DUP2 PUSH1 0x2 ADD SLOAD PUSH1 0x40 MLOAD PUSH1 0x20 ADD PUSH2 0x1CC9 SWAP2 SWAP1 PUSH2 0x4584 JUMP JUMPDEST PUSH1 0x40 MLOAD PUSH1 0x20 DUP2 DUP4 SUB SUB DUP2 MSTORE SWAP1 PUSH1 0x40 MSTORE PUSH1 0x40 MLOAD PUSH1 0x20 ADD PUSH2 0x1CE8 SWAP2 SWAP1 PUSH2 0x49DB JUMP JUMPDEST PUSH1 0x40 MLOAD PUSH1 0x20 DUP2 DUP4 SUB SUB DUP2 MSTORE SWAP1 PUSH1 0x40 MSTORE SWAP1 PUSH2 0x1D38 JUMPI PUSH1 0x40 MLOAD PUSH32 0x8C379A000000000000000000000000000000000000000000000000000000000 DUP2 MSTORE PUSH1 0x4 ADD PUSH2 0x1D2F SWAP2 SWAP1 PUSH2 0x4620 JUMP JUMPDEST PUSH1 0x40 MLOAD DUP1 SWAP2 SUB SWAP1 REVERT JUMPDEST POP PUSH2 0x1D4D PUSH8 0x1A14E86B1536E0C4 PUSH1 0xC0 SHL PUSH2 0x2781 JUMP JUMPDEST PUSH2 0x1D61 PUSH8 0x8190894182F13227 PUSH1 0xC0 SHL PUSH2 0x2781 JUMP JUMPDEST PUSH2 0x1D75 PUSH8 0x5E914CC764A08BDC PUSH1 0xC0 SHL PUSH2 0x2781 JUMP JUMPDEST PUSH2 0x1D89 PUSH8 0x59CB1221E0215D5E PUSH1 0xC0 SHL PUSH2 0x2781 JUMP JUMPDEST PUSH2 0x1D97 DUP2 PUSH1 0x1 ADD SLOAD CALLER PUSH2 0x1960 JUMP JUMPDEST DUP2 PUSH1 0x2 ADD SLOAD PUSH1 0x40 MLOAD PUSH1 0x20 ADD PUSH2 0x1DAC SWAP2 SWAP1 PUSH2 0x4584 JUMP JUMPDEST PUSH1 0x40 MLOAD PUSH1 0x20 DUP2 DUP4 SUB SUB DUP2 MSTORE SWAP1 PUSH1 0x40 MSTORE PUSH1 0x40 MLOAD PUSH1 0x20 ADD PUSH2 0x1DCB SWAP2 SWAP1 PUSH2 0x468E JUMP JUMPDEST PUSH1 0x40 MLOAD PUSH1 0x20 DUP2 DUP4 SUB SUB DUP2 MSTORE SWAP1 PUSH1 0x40 MSTORE SWAP1 PUSH2 0x1E1B JUMPI PUSH1 0x40 MLOAD PUSH32 0x8C379A000000000000000000000000000000000000000000000000000000000 DUP2 MSTORE PUSH1 0x4 ADD PUSH2 0x1E12 SWAP2 SWAP1 PUSH2 0x4620 JUMP JUMPDEST PUSH1 0x40 MLOAD DUP1 SWAP2 SUB SWAP1 REVERT JUMPDEST POP PUSH2 0x1E30 PUSH8 0x6D76B91FE9DE0F8C PUSH1 0xC0 SHL PUSH2 0x2781 JUMP JUMPDEST PUSH2 0x1E44 PUSH8 0xBDF8A12455256E97 PUSH1 0xC0 SHL PUSH2 0x2781 JUMP JUMPDEST PUSH2 0x1E58 PUSH8 0xED9C0B858915E646 PUSH1 0xC0 SHL PUSH2 0x2781 JUMP JUMPDEST PUSH1 0x0 DUP4 DUP6 PUSH1 0x40 MLOAD PUSH1 0x20 ADD PUSH2 0x1E6D SWAP3 SWAP2 SWAP1 PUSH2 0x4A4D JUMP JUMPDEST PUSH1 0x40 MLOAD PUSH1 0x20 DUP2 DUP4 SUB SUB DUP2 MSTORE SWAP1 PUSH1 0x40 MSTORE DUP1 MLOAD SWAP1 PUSH1 0x20 ADD KECCAK256 SWAP1 POP PUSH2 0x1E99 PUSH8 0x649BD458A2007257 PUSH1 0xC0 SHL PUSH2 0x2781 JUMP JUMPDEST PUSH2 0x1EAD PUSH8 0xB6B16EA080CCDB2 PUSH1 0xC0 SHL PUSH2 0x2781 JUMP JUMPDEST PUSH2 0x1F1F DUP2 DUP4 PUSH1 0x1 ADD SLOAD DUP5 PUSH1 0x2 ADD SLOAD PUSH1 0x40 MLOAD PUSH1 0x20 ADD PUSH2 0x1ECB SWAP2 SWAP1 PUSH2 0x4584 JUMP JUMPDEST PUSH1 0x40 MLOAD PUSH1 0x20 DUP2 DUP4 SUB SUB DUP2 MSTORE SWAP1 PUSH1 0x40 MSTORE DUP8 PUSH1 0x40 MLOAD PUSH1 0x20 ADD PUSH2 0x1EEB SWAP2 SWAP1 PUSH2 0x47DA JUMP JUMPDEST PUSH1 0x40 MLOAD PUSH1 0x20 DUP2 DUP4 SUB SUB DUP2 MSTORE SWAP1 PUSH1 0x40 MSTORE PUSH1 0x40 MLOAD PUSH1 0x20 ADD PUSH2 0x1F0B SWAP3 SWAP2 SWAP1 PUSH2 0x4AAA JUMP JUMPDEST PUSH1 0x40 MLOAD PUSH1 0x20 DUP2 DUP4 SUB SUB DUP2 MSTORE SWAP1 PUSH1 0x40 MSTORE PUSH2 0x2784 JUMP JUMPDEST PUSH2 0x1F33 PUSH8 0x689B85AE64F251BF PUSH1 0xC0 SHL PUSH2 0x2781 JUMP JUMPDEST PUSH2 0x1F47 PUSH8 0x35E2A6E6763DE1BE PUSH1 0xC0 SHL PUSH2 0x2781 JUMP JUMPDEST DUP3 DUP1 ISZERO PUSH2 0x1FB8 JUMPI POP PUSH1 0x0 ISZERO ISZERO PUSH1 0x2 PUSH1 0x0 DUP4 DUP2 MSTORE PUSH1 0x20 ADD SWAP1 DUP2 MSTORE PUSH1 0x20 ADD PUSH1 0x0 KECCAK256 PUSH1 0x3 ADD PUSH1 0x0 CALLER PUSH20 0xFFFFFFFFFFFFFFFFFFFFFFFFFFFFFFFFFFFFFFFF AND PUSH20 0xFFFFFFFFFFFFFFFFFFFFFFFFFFFFFFFFFFFFFFFF AND DUP2 MSTORE PUSH1 0x20 ADD SWAP1 DUP2 MSTORE PUSH1 0x20 ADD PUSH1 0x0 KECCAK256 PUSH1 0x0 SWAP1 SLOAD SWAP1 PUSH2 0x100 EXP SWAP1 DIV PUSH1 0xFF AND ISZERO ISZERO EQ JUMPDEST ISZERO PUSH2 0x2079 JUMPI PUSH2 0x1FD1 PUSH8 0x9E04AE92E1584C0 PUSH1 0xC0 SHL PUSH2 0x2781 JUMP JUMPDEST PUSH2 0x1FE5 PUSH8 0x2117BB302F321A49 PUSH1 0xC0 SHL PUSH2 0x2781 JUMP JUMPDEST PUSH2 0x1FF9 PUSH8 0x918F30A7FAD84412 PUSH1 0xC0 SHL PUSH2 0x2781 JUMP JUMPDEST PUSH2 0x2015 PUSH1 0x2 PUSH1 0x0 DUP4 DUP2 MSTORE PUSH1 0x20 ADD SWAP1 DUP2 MSTORE PUSH1 0x20 ADD PUSH1 0x0 KECCAK256 CALLER PUSH2 0x2928 JUMP JUMPDEST PUSH2 0x2029 PUSH8 0x9D26A0BCAE16F155 PUSH1 0xC0 SHL PUSH2 0x2781 JUMP JUMPDEST PUSH2 0x203D PUSH8 0x62560A22786C9D89 PUSH1 0xC0 SHL PUSH2 0x2781 JUMP JUMPDEST PUSH32 0xB431A69783A2491A0C400FF16DAB32CD442ABF8FE5AF63A526A7248D730192F8 DUP2 PUSH1 0x40 MLOAD PUSH2 0x206C SWAP2 SWAP1 PUSH2 0x3821 JUMP JUMPDEST PUSH1 0x40 MLOAD DUP1 SWAP2 SUB SWAP1 LOG1 PUSH2 0x217F JUMP JUMPDEST PUSH2 0x208D PUSH8 0x6AD05DD6AD0C5E8E PUSH1 0xC0 SHL PUSH2 0x2781 JUMP JUMPDEST PUSH2 0x20A1 PUSH8 0xB018FB771A8F126A PUSH1 0xC0 SHL PUSH2 0x2781 JUMP JUMPDEST PUSH1 0x0 ISZERO ISZERO DUP4 ISZERO ISZERO SUB PUSH2 0x2169 JUMPI PUSH2 0x20C1 PUSH8 0x3838E17E05CAD86E PUSH1 0xC0 SHL PUSH2 0x2781 JUMP JUMPDEST PUSH2 0x20D5 PUSH8 0x3B992EF7312A36A2 PUSH1 0xC0 SHL PUSH2 0x2781 JUMP JUMPDEST PUSH2 0x20E9 PUSH8 0xD1937D9A9D9EDE4B PUSH1 0xC0 SHL PUSH2 0x2781 JUMP JUMPDEST PUSH2 0x2105 PUSH1 0x2 PUSH1 0x0 DUP4 DUP2 MSTORE PUSH1 0x20 ADD SWAP1 DUP2 MSTORE PUSH1 0x20 ADD PUSH1 0x0 KECCAK256 CALLER PUSH2 0x301F JUMP JUMPDEST PUSH2 0x2119 PUSH8 0xEBA93D2F1C3A3725 PUSH1 0xC0 SHL PUSH2 0x2781 JUMP JUMPDEST PUSH2 0x212D PUSH8 0xE583D3490FB5C11A PUSH1 0xC0 SHL PUSH2 0x2781 JUMP JUMPDEST PUSH32 0xB431A69783A2491A0C400FF16DAB32CD442ABF8FE5AF63A526A7248D730192F8 DUP2 PUSH1 0x40 MLOAD PUSH2 0x215C SWAP2 SWAP1 PUSH2 0x3821 JUMP JUMPDEST PUSH1 0x40 MLOAD DUP1 SWAP2 SUB SWAP1 LOG1 PUSH2 0x217E JUMP JUMPDEST PUSH2 0x217D PUSH8 0x3C216AEF0914C7D PUSH1 0xC0 SHL PUSH2 0x2781 JUMP JUMPDEST JUMPDEST JUMPDEST PUSH2 0x2193 PUSH8 0xE929230DACD39FC4 PUSH1 0xC0 SHL PUSH2 0x2781 JUMP JUMPDEST PUSH2 0x21A7 PUSH8 0xF0423AD893494D1F PUSH1 0xC0 SHL PUSH2 0x2781 JUMP JUMPDEST DUP2 PUSH1 0x1 ADD SLOAD DUP6 EQ ISZERO DUP1 ISZERO PUSH2 0x223A JUMPI POP PUSH2 0x2210 DUP3 PUSH1 0x0 ADD PUSH1 0xD SWAP1 SLOAD SWAP1 PUSH2 0x100 EXP SWAP1 DIV PUSH1 0xFF AND PUSH1 0xFF AND PUSH1 0x1 PUSH1 0x0 DUP6 PUSH1 0x1 ADD SLOAD DUP2 MSTORE PUSH1 0x20 ADD SWAP1 DUP2 MSTORE PUSH1 0x20 ADD PUSH1 0x0 KECCAK256 PUSH1 0x0 ADD PUSH1 0x0 SWAP1 SLOAD SWAP1 PUSH2 0x100 EXP SWAP1 DIV PUSH4 0xFFFFFFFF AND PUSH2 0x2203 SWAP2 SWAP1 PUSH2 0x43D9 JUMP JUMPDEST PUSH4 0xFFFFFFFF AND PUSH1 0x64 PUSH2 0x1A12 JUMP JUMPDEST PUSH1 0x2 PUSH1 0x0 DUP4 DUP2 MSTORE PUSH1 0x20 ADD SWAP1 DUP2 MSTORE PUSH1 0x20 ADD PUSH1 0x0 KECCAK256 PUSH1 0x2 ADD PUSH1 0x0 SWAP1 SLOAD SWAP1 PUSH2 0x100 EXP SWAP1 DIV PUSH1 0xFF AND PUSH1 0xFF AND LT ISZERO JUMPDEST DUP1 ISZERO PUSH2 0x2256 JUMPI POP PUSH2 0x2255 PUSH8 0xE4635F8420CBA4D PUSH1 0xC0 SHL PUSH2 0x31DA JUMP JUMPDEST JUMPDEST DUP1 PUSH2 0x2316 JUMPI POP DUP2 PUSH1 0x1 ADD SLOAD DUP6 EQ DUP1 ISZERO PUSH2 0x22F9 JUMPI POP PUSH2 0x22CF DUP3 PUSH1 0x0 ADD PUSH1 0xD SWAP1 SLOAD SWAP1 PUSH2 0x100 EXP SWAP1 DIV PUSH1 0xFF AND PUSH1 0xFF AND PUSH1 0x1 DUP1 PUSH1 0x0 DUP7 PUSH1 0x1 ADD SLOAD DUP2 MSTORE PUSH1 0x20 ADD SWAP1 DUP2 MSTORE PUSH1 0x20 ADD PUSH1 0x0 KECCAK256 PUSH1 0x0 ADD PUSH1 0x0 SWAP1 SLOAD SWAP1 PUSH2 0x100 EXP SWAP1 DIV PUSH4 0xFFFFFFFF AND PUSH2 0x22B8 SWAP2 SWAP1 PUSH2 0x4AEC JUMP JUMPDEST PUSH2 0x22C2 SWAP2 SWAP1 PUSH2 0x43D9 JUMP JUMPDEST PUSH4 0xFFFFFFFF AND PUSH1 0x64 PUSH2 0x1A12 JUMP JUMPDEST PUSH1 0x2 PUSH1 0x0 DUP4 DUP2 MSTORE PUSH1 0x20 ADD SWAP1 DUP2 MSTORE PUSH1 0x20 ADD PUSH1 0x0 KECCAK256 PUSH1 0x2 ADD PUSH1 0x0 SWAP1 SLOAD SWAP1 PUSH2 0x100 EXP SWAP1 DIV PUSH1 0xFF AND PUSH1 0xFF AND LT ISZERO JUMPDEST DUP1 ISZERO PUSH2 0x2315 JUMPI POP PUSH2 0x2314 PUSH8 0xA8F356AE64E80FB2 PUSH1 0xC0 SHL PUSH2 0x31DA JUMP JUMPDEST JUMPDEST JUMPDEST ISZERO PUSH2 0x26B6 JUMPI PUSH2 0x232F PUSH8 0x87081979864AFEAE PUSH1 0xC0 SHL PUSH2 0x2781 JUMP JUMPDEST PUSH2 0x2343 PUSH8 0x7547DDE3E6DE66C1 PUSH1 0xC0 SHL PUSH2 0x2781 JUMP JUMPDEST PUSH2 0x2357 PUSH8 0x76A3D74FA8FA5457 PUSH1 0xC0 SHL PUSH2 0x2781 JUMP JUMPDEST PUSH1 0x0 JUMPDEST PUSH1 0x4 SLOAD DUP2 LT ISZERO PUSH2 0x2586 JUMPI PUSH2 0x2378 PUSH8 0x4ED9EA8C9338F000 PUSH1 0xC0 SHL PUSH2 0x2781 JUMP JUMPDEST PUSH2 0x238C PUSH8 0x9BAA3422236FC69F PUSH1 0xC0 SHL PUSH2 0x2781 JUMP JUMPDEST PUSH1 0x1 ISZERO ISZERO PUSH1 0x2 PUSH1 0x0 PUSH1 0x3 PUSH1 0x0 DUP6 DUP2 MSTORE PUSH1 0x20 ADD SWAP1 DUP2 MSTORE PUSH1 0x20 ADD PUSH1 0x0 KECCAK256 SLOAD DUP2 MSTORE PUSH1 0x20 ADD SWAP1 DUP2 MSTORE PUSH1 0x20 ADD PUSH1 0x0 KECCAK256 PUSH1 0x3 ADD PUSH1 0x0 DUP8 PUSH20 0xFFFFFFFFFFFFFFFFFFFFFFFFFFFFFFFFFFFFFFFF AND PUSH20 0xFFFFFFFFFFFFFFFFFFFFFFFFFFFFFFFFFFFFFFFF AND DUP2 MSTORE PUSH1 0x20 ADD SWAP1 DUP2 MSTORE PUSH1 0x20 ADD PUSH1 0x0 KECCAK256 PUSH1 0x0 SWAP1 SLOAD SWAP1 PUSH2 0x100 EXP SWAP1 DIV PUSH1 0xFF AND ISZERO ISZERO EQ DUP1 ISZERO PUSH2 0x243B JUMPI POP DUP6 PUSH1 0x2 PUSH1 0x0 PUSH1 0x3 PUSH1 0x0 DUP6 DUP2 MSTORE PUSH1 0x20 ADD SWAP1 DUP2 MSTORE PUSH1 0x20 ADD PUSH1 0x0 KECCAK256 SLOAD DUP2 MSTORE PUSH1 0x20 ADD SWAP1 DUP2 MSTORE PUSH1 0x20 ADD PUSH1 0x0 KECCAK256 PUSH1 0x1 ADD SLOAD EQ JUMPDEST ISZERO PUSH2 0x255E JUMPI PUSH2 0x2454 PUSH8 0xC5044043363BB237 PUSH1 0xC0 SHL PUSH2 0x2781 JUMP JUMPDEST PUSH2 0x2468 PUSH8 0xBFC6B0F370D70249 PUSH1 0xC0 SHL PUSH2 0x2781 JUMP JUMPDEST PUSH1 0x1 PUSH1 0x2 PUSH1 0x0 PUSH1 0x3 PUSH1 0x0 DUP6 DUP2 MSTORE PUSH1 0x20 ADD SWAP1 DUP2 MSTORE PUSH1 0x20 ADD PUSH1 0x0 KECCAK256 SLOAD DUP2 MSTORE PUSH1 0x20 ADD SWAP1 DUP2 MSTORE PUSH1 0x20 ADD PUSH1 0x0 KECCAK256 PUSH1 0x2 ADD PUSH1 0x0 DUP3 DUP3 DUP3 SWAP1 SLOAD SWAP1 PUSH2 0x100 EXP SWAP1 DIV PUSH1 0xFF AND PUSH2 0x24AE SWAP2 SWAP1 PUSH2 0x4B24 JUMP JUMPDEST SWAP3 POP PUSH2 0x100 EXP DUP2 SLOAD DUP2 PUSH1 0xFF MUL NOT AND SWAP1 DUP4 PUSH1 0xFF AND MUL OR SWAP1 SSTORE POP PUSH2 0x24DA PUSH8 0x9CCB8433F30B7F61 PUSH1 0xC0 SHL PUSH2 0x2781 JUMP JUMPDEST PUSH1 0x0 PUSH1 0x2 PUSH1 0x0 PUSH1 0x3 PUSH1 0x0 DUP6 DUP2 MSTORE PUSH1 0x20 ADD SWAP1 DUP2 MSTORE PUSH1 0x20 ADD PUSH1 0x0 KECCAK256 SLOAD DUP2 MSTORE PUSH1 0x20 ADD SWAP1 DUP2 MSTORE PUSH1 0x20 ADD PUSH1 0x0 KECCAK256 PUSH1 0x3 ADD PUSH1 0x0 DUP8 PUSH20 0xFFFFFFFFFFFFFFFFFFFFFFFFFFFFFFFFFFFFFFFF AND PUSH20 0xFFFFFFFFFFFFFFFFFFFFFFFFFFFFFFFFFFFFFFFF AND DUP2 MSTORE PUSH1 0x20 ADD SWAP1 DUP2 MSTORE PUSH1 0x20 ADD PUSH1 0x0 KECCAK256 PUSH1 0x0 PUSH2 0x100 EXP DUP2 SLOAD DUP2 PUSH1 0xFF MUL NOT AND SWAP1 DUP4 ISZERO ISZERO MUL OR SWAP1 SSTORE POP PUSH2 0x2573 JUMP JUMPDEST PUSH2 0x2572 PUSH8 0x842A97201189B8B PUSH1 0xC0 SHL PUSH2 0x2781 JUMP JUMPDEST JUMPDEST DUP1 DUP1 PUSH2 0x257E SWAP1 PUSH2 0x4B59 JUMP JUMPDEST SWAP2 POP POP PUSH2 0x235A JUMP JUMPDEST POP PUSH2 0x259B PUSH8 0xCA8D401C43F5F9D7 PUSH1 0xC0 SHL PUSH2 0x2781 JUMP JUMPDEST PUSH2 0x25AF PUSH8 0xE22DCAA2865F1211 PUSH1 0xC0 SHL PUSH2 0x2781 JUMP JUMPDEST PUSH2 0x25CA PUSH1 0x2 PUSH1 0x0 DUP4 DUP2 MSTORE PUSH1 0x20 ADD SWAP1 DUP2 MSTORE PUSH1 0x20 ADD PUSH1 0x0 KECCAK256 PUSH2 0x2BAA JUMP JUMPDEST PUSH2 0x25DE PUSH8 0x4ABA95960958E732 PUSH1 0xC0 SHL PUSH2 0x2781 JUMP JUMPDEST PUSH2 0x25F2 PUSH8 0x30249E749F45B5E4 PUSH1 0xC0 SHL PUSH2 0x2781 JUMP JUMPDEST PUSH32 0x562618DBCF74B61AE5B0F229FE40BA6D5B6AE6B4248F8C89A870DDA7C77135F6 DUP2 PUSH1 0x40 MLOAD PUSH2 0x2621 SWAP2 SWAP1 PUSH2 0x3821 JUMP JUMPDEST PUSH1 0x40 MLOAD DUP1 SWAP2 SUB SWAP1 LOG1 PUSH2 0x263D PUSH8 0x374DFD98B823C8CF PUSH1 0xC0 SHL PUSH2 0x2781 JUMP JUMPDEST PUSH2 0x2651 PUSH8 0x20270532058F02E5 PUSH1 0xC0 SHL PUSH2 0x2781 JUMP JUMPDEST PUSH2 0x265B DUP6 DUP6 PUSH2 0x31E5 JUMP JUMPDEST PUSH2 0x266F PUSH8 0x9E04F1A5C5BDA7DF PUSH1 0xC0 SHL PUSH2 0x2781 JUMP JUMPDEST PUSH1 0x1 DUP3 PUSH1 0x0 ADD PUSH1 0x0 DUP3 DUP3 DUP3 SWAP1 SLOAD SWAP1 PUSH2 0x100 EXP SWAP1 DIV PUSH4 0xFFFFFFFF AND PUSH2 0x2693 SWAP2 SWAP1 PUSH2 0x4AEC JUMP JUMPDEST SWAP3 POP PUSH2 0x100 EXP DUP2 SLOAD DUP2 PUSH4 0xFFFFFFFF MUL NOT AND SWAP1 DUP4 PUSH4 0xFFFFFFFF AND MUL OR SWAP1 SSTORE POP PUSH2 0x26CB JUMP JUMPDEST PUSH2 0x26CA PUSH8 0xD618060FAF473A2A PUSH1 0xC0 SHL PUSH2 0x2781 JUMP JUMPDEST JUMPDEST POP POP POP POP POP JUMP JUMPDEST PUSH2 0x26DB DUP3 PUSH2 0x64D JUMP JUMPDEST PUSH2 0x26E4 DUP2 PUSH2 0x2F2B JUMP JUMPDEST PUSH2 0x26EE DUP4 DUP4 PUSH2 0x31E5 JUMP JUMPDEST POP POP POP JUMP JUMPDEST PUSH32 0x4BBEB6FD3E5222E55F2F8B0C35BC228E0A06A25D0DA772FDB02C3B92FA004F88 DUP2 JUMP JUMPDEST PUSH1 0x0 PUSH32 0x1FFC9A700000000000000000000000000000000000000000000000000000000 PUSH28 0xFFFFFFFFFFFFFFFFFFFFFFFFFFFFFFFFFFFFFFFFFFFFFFFFFFFFFFFF NOT AND DUP3 PUSH28 0xFFFFFFFFFFFFFFFFFFFFFFFFFFFFFFFFFFFFFFFFFFFFFFFFFFFFFFFF NOT AND EQ SWAP1 POP SWAP2 SWAP1 POP JUMP JUMPDEST POP JUMP JUMPDEST PUSH2 0x2798 PUSH8 0x68C3BD0AF40A1B5D PUSH1 0xC0 SHL PUSH2 0x2781 JUMP JUMPDEST PUSH2 0x27AC PUSH8 0x2BC4242EBEBE4289 PUSH1 0xC0 SHL PUSH2 0x2781 JUMP JUMPDEST PUSH2 0x27C0 PUSH8 0xE87324C8C42B7147 PUSH1 0xC0 SHL PUSH2 0x2781 JUMP JUMPDEST PUSH1 0x0 ISZERO ISZERO PUSH1 0x2 PUSH1 0x0 DUP6 DUP2 MSTORE PUSH1 0x20 ADD SWAP1 DUP2 MSTORE PUSH1 0x20 ADD PUSH1 0x0 KECCAK256 PUSH1 0x0 ADD PUSH1 0x0 SWAP1 SLOAD SWAP1 PUSH2 0x100 EXP SWAP1 DIV PUSH1 0xFF AND ISZERO ISZERO SUB PUSH2 0x290E JUMPI PUSH2 0x2803 PUSH8 0x2C4D7D6A241E4B89 PUSH1 0xC0 SHL PUSH2 0x2781 JUMP JUMPDEST PUSH2 0x2817 PUSH8 0xF2F4865958547479 PUSH1 0xC0 SHL PUSH2 0x2781 JUMP JUMPDEST PUSH1 0x1 PUSH1 0x2 PUSH1 0x0 DUP6 DUP2 MSTORE PUSH1 0x20 ADD SWAP1 DUP2 MSTORE PUSH1 0x20 ADD PUSH1 0x0 KECCAK256 PUSH1 0x0 ADD PUSH1 0x0 PUSH2 0x100 EXP DUP2 SLOAD DUP2 PUSH1 0xFF MUL NOT AND SWAP1 DUP4 ISZERO ISZERO MUL OR SWAP1 SSTORE POP PUSH2 0x285A PUSH8 0x8E01888C80102D37 PUSH1 0xC0 SHL PUSH2 0x2781 JUMP JUMPDEST DUP3 PUSH1 0x3 PUSH1 0x0 PUSH1 0x4 SLOAD DUP2 MSTORE PUSH1 0x20 ADD SWAP1 DUP2 MSTORE PUSH1 0x20 ADD PUSH1 0x0 KECCAK256 DUP2 SWAP1 SSTORE POP PUSH2 0x2888 PUSH8 0xBC51F865C49130A8 PUSH1 0xC0 SHL PUSH2 0x2781 JUMP JUMPDEST PUSH1 0x1 PUSH1 0x4 PUSH1 0x0 DUP3 DUP3 SLOAD PUSH2 0x289B SWAP2 SWAP1 PUSH2 0x4926 JUMP JUMPDEST SWAP3 POP POP DUP2 SWAP1 SSTORE POP PUSH2 0x28B6 PUSH8 0xF8B6AC0350413CDE PUSH1 0xC0 SHL PUSH2 0x2781 JUMP JUMPDEST DUP2 PUSH1 0x2 PUSH1 0x0 DUP6 DUP2 MSTORE PUSH1 0x20 ADD SWAP1 DUP2 MSTORE PUSH1 0x20 ADD PUSH1 0x0 KECCAK256 PUSH1 0x1 ADD DUP2 SWAP1 SSTORE POP PUSH2 0x28E5 PUSH8 0x4F5571DC82A8340F PUSH1 0xC0 SHL PUSH2 0x2781 JUMP JUMPDEST DUP1 PUSH1 0x2 PUSH1 0x0 DUP6 DUP2 MSTORE PUSH1 0x20 ADD SWAP1 DUP2 MSTORE PUSH1 0x20 ADD PUSH1 0x0 KECCAK256 PUSH1 0x5 ADD SWAP1 DUP2 PUSH2 0x2908 SWAP2 SWAP1 PUSH2 0x4D40 JUMP JUMPDEST POP PUSH2 0x2923 JUMP JUMPDEST PUSH2 0x2922 PUSH8 0xDF20EF43CD86120A PUSH1 0xC0 SHL PUSH2 0x2781 JUMP JUMPDEST JUMPDEST POP POP POP JUMP JUMPDEST PUSH2 0x293C PUSH8 0x1314B6E431BEDCFB PUSH1 0xC0 SHL PUSH2 0x32C6 JUMP JUMPDEST PUSH2 0x2950 PUSH8 0x152DAF20762DF40B PUSH1 0xC0 SHL PUSH2 0x32C6 JUMP JUMPDEST PUSH2 0x2964 PUSH8 0x55E49EA65D7289E0 PUSH1 0xC0 SHL PUSH2 0x32C6 JUMP JUMPDEST PUSH2 0x2978 PUSH8 0xD3562B1C72A659D2 PUSH1 0xC0 SHL PUSH2 0x32C6 JUMP JUMPDEST PUSH1 0x0 ISZERO ISZERO DUP3 PUSH1 0x3 ADD PUSH1 0x0 DUP4 PUSH20 0xFFFFFFFFFFFFFFFFFFFFFFFFFFFFFFFFFFFFFFFF AND PUSH20 0xFFFFFFFFFFFFFFFFFFFFFFFFFFFFFFFFFFFFFFFF AND DUP2 MSTORE PUSH1 0x20 ADD SWAP1 DUP2 MSTORE PUSH1 0x20 ADD PUSH1 0x0 KECCAK256 PUSH1 0x0 SWAP1 SLOAD SWAP1 PUSH2 0x100 EXP SWAP1 DIV PUSH1 0xFF AND ISZERO ISZERO EQ PUSH2 0x2A0D JUMPI PUSH1 0x40 MLOAD PUSH32 0x8C379A000000000000000000000000000000000000000000000000000000000 DUP2 MSTORE PUSH1 0x4 ADD PUSH2 0x2A04 SWAP1 PUSH2 0x4E5E JUMP JUMPDEST PUSH1 0x40 MLOAD DUP1 SWAP2 SUB SWAP1 REVERT JUMPDEST PUSH2 0x2A21 PUSH8 0xAC3BEAD4F17E4C33 PUSH1 0xC0 SHL PUSH2 0x32C6 JUMP JUMPDEST PUSH2 0x2A35 PUSH8 0x9B738277559F6DF PUSH1 0xC0 SHL PUSH2 0x32C6 JUMP JUMPDEST DUP1 DUP3 PUSH1 0x4 ADD PUSH1 0x0 DUP5 PUSH1 0x2 ADD PUSH1 0x1 SWAP1 SLOAD SWAP1 PUSH2 0x100 EXP SWAP1 DIV PUSH1 0xFF AND PUSH1 0xFF AND DUP2 MSTORE PUSH1 0x20 ADD SWAP1 DUP2 MSTORE PUSH1 0x20 ADD PUSH1 0x0 KECCAK256 PUSH1 0x0 PUSH2 0x100 EXP DUP2 SLOAD DUP2 PUSH20 0xFFFFFFFFFFFFFFFFFFFFFFFFFFFFFFFFFFFFFFFF MUL NOT AND SWAP1 DUP4 PUSH20 0xFFFFFFFFFFFFFFFFFFFFFFFFFFFFFFFFFFFFFFFF AND MUL OR SWAP1 SSTORE POP PUSH2 0x2AB1 PUSH8 0xD8ED15D80CEF1D04 PUSH1 0xC0 SHL PUSH2 0x32C6 JUMP JUMPDEST DUP2 PUSH1 0x2 ADD PUSH1 0x1 DUP2 DUP2 SWAP1 SLOAD SWAP1 PUSH2 0x100 EXP SWAP1 DIV PUSH1 0xFF AND DUP1 SWAP3 SWAP2 SWAP1 PUSH2 0x2AD2 SWAP1 PUSH2 0x4E7E JUMP JUMPDEST SWAP2 SWAP1 PUSH2 0x100 EXP DUP2 SLOAD DUP2 PUSH1 0xFF MUL NOT AND SWAP1 DUP4 PUSH1 0xFF AND MUL OR SWAP1 SSTORE POP POP PUSH2 0x2AFF PUSH8 0xC405DC6CBCCB9D07 PUSH1 0xC0 SHL PUSH2 0x32C6 JUMP JUMPDEST PUSH1 0x1 DUP3 PUSH1 0x3 ADD PUSH1 0x0 DUP4 PUSH20 0xFFFFFFFFFFFFFFFFFFFFFFFFFFFFFFFFFFFFFFFF AND PUSH20 0xFFFFFFFFFFFFFFFFFFFFFFFFFFFFFFFFFFFFFFFF AND DUP2 MSTORE PUSH1 0x20 ADD SWAP1 DUP2 MSTORE PUSH1 0x20 ADD PUSH1 0x0 KECCAK256 PUSH1 0x0 PUSH2 0x100 EXP DUP2 SLOAD DUP2 PUSH1 0xFF MUL NOT AND SWAP1 DUP4 ISZERO ISZERO MUL OR SWAP1 SSTORE POP PUSH2 0x2B6D PUSH8 0x5E03A53D01BAAF78 PUSH1 0xC0 SHL PUSH2 0x32C6 JUMP JUMPDEST PUSH1 0x1 DUP3 PUSH1 0x2 ADD PUSH1 0x0 DUP3 DUP3 DUP3 SWAP1 SLOAD SWAP1 PUSH2 0x100 EXP SWAP1 DIV PUSH1 0xFF AND PUSH2 0x2B8E SWAP2 SWAP1 PUSH2 0x4EA7 JUMP JUMPDEST SWAP3 POP PUSH2 0x100 EXP DUP2 SLOAD DUP2 PUSH1 0xFF MUL NOT AND SWAP1 DUP4 PUSH1 0xFF AND MUL OR SWAP1 SSTORE POP POP POP JUMP JUMPDEST PUSH2 0x2BBE PUSH8 0xE1F2F8D4806BEAE6 PUSH1 0xC0 SHL PUSH2 0x32C6 JUMP JUMPDEST PUSH2 0x2BD2 PUSH8 0xA98859A1E9023FEF PUSH1 0xC0 SHL PUSH2 0x32C6 JUMP JUMPDEST PUSH1 0x0 DUP2 PUSH1 0x2 ADD PUSH1 0x0 PUSH2 0x100 EXP DUP2 SLOAD DUP2 PUSH1 0xFF MUL NOT AND SWAP1 DUP4 PUSH1 0xFF AND MUL OR SWAP1 SSTORE POP PUSH2 0x2C04 PUSH8 0xFB5E23843AAE82C7 PUSH1 0xC0 SHL PUSH2 0x32C6 JUMP JUMPDEST PUSH2 0x2C18 PUSH8 0xD7E29696126FB630 PUSH1 0xC0 SHL PUSH2 0x32C6 JUMP JUMPDEST PUSH1 0x0 JUMPDEST DUP2 PUSH1 0x2 ADD PUSH1 0x1 SWAP1 SLOAD SWAP1 PUSH2 0x100 EXP SWAP1 DIV PUSH1 0xFF AND PUSH1 0xFF AND DUP2 PUSH1 0xFF AND LT ISZERO PUSH2 0x2CF3 JUMPI PUSH2 0x2C4E PUSH8 0xF8B20FEBDF336CC9 PUSH1 0xC0 SHL PUSH2 0x32C6 JUMP JUMPDEST PUSH1 0x0 DUP3 PUSH1 0x3 ADD PUSH1 0x0 DUP5 PUSH1 0x4 ADD PUSH1 0x0 DUP6 PUSH1 0xFF AND DUP2 MSTORE PUSH1 0x20 ADD SWAP1 DUP2 MSTORE PUSH1 0x20 ADD PUSH1 0x0 KECCAK256 PUSH1 0x0 SWAP1 SLOAD SWAP1 PUSH2 0x100 EXP SWAP1 DIV PUSH20 0xFFFFFFFFFFFFFFFFFFFFFFFFFFFFFFFFFFFFFFFF AND PUSH20 0xFFFFFFFFFFFFFFFFFFFFFFFFFFFFFFFFFFFFFFFF AND PUSH20 0xFFFFFFFFFFFFFFFFFFFFFFFFFFFFFFFFFFFFFFFF AND DUP2 MSTORE PUSH1 0x20 ADD SWAP1 DUP2 MSTORE PUSH1 0x20 ADD PUSH1 0x0 KECCAK256 PUSH1 0x0 PUSH2 0x100 EXP DUP2 SLOAD DUP2 PUSH1 0xFF MUL NOT AND SWAP1 DUP4 ISZERO ISZERO MUL OR SWAP1 SSTORE POP DUP1 DUP1 PUSH2 0x2CEB SWAP1 PUSH2 0x4E7E JUMP JUMPDEST SWAP2 POP POP PUSH2 0x2C1B JUMP JUMPDEST POP POP JUMP JUMPDEST PUSH2 0x2D0B PUSH8 0x59AACAB69E3A1CF8 PUSH1 0xC0 SHL PUSH2 0x2781 JUMP JUMPDEST PUSH2 0x2D1F PUSH8 0x1F8604B2E035DF8C PUSH1 0xC0 SHL PUSH2 0x2781 JUMP JUMPDEST PUSH1 0x40 MLOAD DUP1 PUSH2 0x120 ADD PUSH1 0x40 MSTORE DUP1 DUP5 PUSH1 0x3 DUP2 GT ISZERO PUSH2 0x2D3E JUMPI PUSH2 0x2D3D PUSH2 0x3C0D JUMP JUMPDEST JUMPDEST DUP2 MSTORE PUSH1 0x20 ADD DUP4 PUSH1 0x2 DUP2 GT ISZERO PUSH2 0x2D56 JUMPI PUSH2 0x2D55 PUSH2 0x3C0D JUMP JUMPDEST JUMPDEST DUP2 MSTORE PUSH1 0x20 ADD DUP3 PUSH1 0xF DUP2 GT ISZERO PUSH2 0x2D6E JUMPI PUSH2 0x2D6D PUSH2 0x3C0D JUMP JUMPDEST JUMPDEST DUP2 MSTORE PUSH1 0x20 ADD TIMESTAMP DUP2 MSTORE PUSH1 0x20 ADD PUSH1 0x1 ISZERO ISZERO DUP2 MSTORE PUSH1 0x20 ADD DUP9 DUP2 MSTORE PUSH1 0x20 ADD DUP8 DUP2 MSTORE PUSH1 0x20 ADD DUP7 DUP2 MSTORE PUSH1 0x20 ADD DUP6 DUP2 MSTORE POP PUSH1 0x5 PUSH1 0x0 DUP10 DUP7 DUP7 DUP7 PUSH1 0x40 MLOAD PUSH1 0x20 ADD PUSH2 0x2DB3 SWAP5 SWAP4 SWAP3 SWAP2 SWAP1 PUSH2 0x40CD JUMP JUMPDEST PUSH1 0x40 MLOAD PUSH1 0x20 DUP2 DUP4 SUB SUB DUP2 MSTORE SWAP1 PUSH1 0x40 MSTORE DUP1 MLOAD SWAP1 PUSH1 0x20 ADD KECCAK256 DUP2 MSTORE PUSH1 0x20 ADD SWAP1 DUP2 MSTORE PUSH1 0x20 ADD PUSH1 0x0 KECCAK256 PUSH1 0x0 DUP3 ADD MLOAD DUP2 PUSH1 0x0 ADD PUSH1 0x0 PUSH2 0x100 EXP DUP2 SLOAD DUP2 PUSH1 0xFF MUL NOT AND SWAP1 DUP4 PUSH1 0x3 DUP2 GT ISZERO PUSH2 0x2E02 JUMPI PUSH2 0x2E01 PUSH2 0x3C0D JUMP JUMPDEST JUMPDEST MUL OR SWAP1 SSTORE POP PUSH1 0x20 DUP3 ADD MLOAD DUP2 PUSH1 0x0 ADD PUSH1 0x1 PUSH2 0x100 EXP DUP2 SLOAD DUP2 PUSH1 0xFF MUL NOT AND SWAP1 DUP4 PUSH1 0x2 DUP2 GT ISZERO PUSH2 0x2E32 JUMPI PUSH2 0x2E31 PUSH2 0x3C0D JUMP JUMPDEST JUMPDEST MUL OR SWAP1 SSTORE POP PUSH1 0x40 DUP3 ADD MLOAD DUP2 PUSH1 0x0 ADD PUSH1 0x2 PUSH2 0x100 EXP DUP2 SLOAD DUP2 PUSH1 0xFF MUL NOT AND SWAP1 DUP4 PUSH1 0xF DUP2 GT ISZERO PUSH2 0x2E62 JUMPI PUSH2 0x2E61 PUSH2 0x3C0D JUMP JUMPDEST JUMPDEST MUL OR SWAP1 SSTORE POP PUSH1 0x60 DUP3 ADD MLOAD DUP2 PUSH1 0x1 ADD SSTORE PUSH1 0x80 DUP3 ADD MLOAD DUP2 PUSH1 0x2 ADD PUSH1 0x0 PUSH2 0x100 EXP DUP2 SLOAD DUP2 PUSH1 0xFF MUL NOT AND SWAP1 DUP4 ISZERO ISZERO MUL OR SWAP1 SSTORE POP PUSH1 0xA0 DUP3 ADD MLOAD DUP2 PUSH1 0x3 ADD SSTORE PUSH1 0xC0 DUP3 ADD MLOAD DUP2 PUSH1 0x4 ADD SSTORE PUSH1 0xE0 DUP3 ADD MLOAD DUP2 PUSH1 0x5 ADD SSTORE PUSH2 0x100 DUP3 ADD MLOAD DUP2 PUSH1 0x6 ADD SSTORE SWAP1 POP POP PUSH2 0x2ED1 PUSH8 0x4341521415B393FF PUSH1 0xC0 SHL PUSH2 0x2781 JUMP JUMPDEST PUSH2 0x2EE5 PUSH8 0x3ABDA3DB58EE88D6 PUSH1 0xC0 SHL PUSH2 0x2781 JUMP JUMPDEST PUSH32 0xB55811DD01470A227956304B027C610C7CDF9DD622DCC47791380261D56DC6ED DUP8 DUP5 DUP5 DUP5 PUSH1 0x40 MLOAD PUSH2 0x2F1A SWAP5 SWAP4 SWAP3 SWAP2 SWAP1 PUSH2 0x4EDC JUMP JUMPDEST PUSH1 0x40 MLOAD DUP1 SWAP2 SUB SWAP1 LOG1 POP POP POP POP POP POP POP JUMP JUMPDEST PUSH2 0x2F3C DUP2 PUSH2 0x2F37 PUSH2 0x32C9 JUMP JUMPDEST PUSH2 0x32D1 JUMP JUMPDEST POP JUMP JUMPDEST PUSH2 0x2F49 DUP3 DUP3 PUSH2 0x1960 JUMP JUMPDEST PUSH2 0x301B JUMPI PUSH1 0x1 PUSH1 0x0 DUP1 DUP5 DUP2 MSTORE PUSH1 0x20 ADD SWAP1 DUP2 MSTORE PUSH1 0x20 ADD PUSH1 0x0 KECCAK256 PUSH1 0x0 ADD PUSH1 0x0 DUP4 PUSH20 0xFFFFFFFFFFFFFFFFFFFFFFFFFFFFFFFFFFFFFFFF AND PUSH20 0xFFFFFFFFFFFFFFFFFFFFFFFFFFFFFFFFFFFFFFFF AND DUP2 MSTORE PUSH1 0x20 ADD SWAP1 DUP2 MSTORE PUSH1 0x20 ADD PUSH1 0x0 KECCAK256 PUSH1 0x0 PUSH2 0x100 EXP DUP2 SLOAD DUP2 PUSH1 0xFF MUL NOT AND SWAP1 DUP4 ISZERO ISZERO MUL OR SWAP1 SSTORE POP PUSH2 0x2FC0 PUSH2 0x32C9 JUMP JUMPDEST PUSH20 0xFFFFFFFFFFFFFFFFFFFFFFFFFFFFFFFFFFFFFFFF AND DUP2 PUSH20 0xFFFFFFFFFFFFFFFFFFFFFFFFFFFFFFFFFFFFFFFF AND DUP4 PUSH32 0x2F8788117E7EFF1D82E926EC794901D17C78024A50270940304540A733656F0D PUSH1 0x40 MLOAD PUSH1 0x40 MLOAD DUP1 SWAP2 SUB SWAP1 LOG4 JUMPDEST POP POP JUMP JUMPDEST PUSH2 0x3033 PUSH8 0xB2AB78AB4E88A8B6 PUSH1 0xC0 SHL PUSH2 0x32C6 JUMP JUMPDEST PUSH2 0x3047 PUSH8 0x83265A09F7A3B23D PUSH1 0xC0 SHL PUSH2 0x32C6 JUMP JUMPDEST PUSH2 0x305B PUSH8 0xBFB6EE6BE08C69FC PUSH1 0xC0 SHL PUSH2 0x32C6 JUMP JUMPDEST PUSH2 0x306F PUSH8 0x9D946AF72C018EEF PUSH1 0xC0 SHL PUSH2 0x32C6 JUMP JUMPDEST PUSH1 0x1 ISZERO ISZERO DUP3 PUSH1 0x3 ADD PUSH1 0x0 DUP4 PUSH20 0xFFFFFFFFFFFFFFFFFFFFFFFFFFFFFFFFFFFFFFFF AND PUSH20 0xFFFFFFFFFFFFFFFFFFFFFFFFFFFFFFFFFFFFFFFF AND DUP2 MSTORE PUSH1 0x20 ADD SWAP1 DUP2 MSTORE PUSH1 0x20 ADD PUSH1 0x0 KECCAK256 PUSH1 0x0 SWAP1 SLOAD SWAP1 PUSH2 0x100 EXP SWAP1 DIV PUSH1 0xFF AND ISZERO ISZERO EQ PUSH2 0x3104 JUMPI PUSH1 0x40 MLOAD PUSH32 0x8C379A000000000000000000000000000000000000000000000000000000000 DUP2 MSTORE PUSH1 0x4 ADD PUSH2 0x30FB SWAP1 PUSH2 0x4F93 JUMP JUMPDEST PUSH1 0x40 MLOAD DUP1 SWAP2 SUB SWAP1 REVERT JUMPDEST PUSH2 0x3118 PUSH8 0xA8F0C02C3645E77D PUSH1 0xC0 SHL PUSH2 0x32C6 JUMP JUMPDEST PUSH2 0x312C PUSH8 0x1AEAEA7A22F3A635 PUSH1 0xC0 SHL PUSH2 0x32C6 JUMP JUMPDEST PUSH1 0x0 DUP3 PUSH1 0x3 ADD PUSH1 0x0 DUP4 PUSH20 0xFFFFFFFFFFFFFFFFFFFFFFFFFFFFFFFFFFFFFFFF AND PUSH20 0xFFFFFFFFFFFFFFFFFFFFFFFFFFFFFFFFFFFFFFFF AND DUP2 MSTORE PUSH1 0x20 ADD SWAP1 DUP2 MSTORE PUSH1 0x20 ADD PUSH1 0x0 KECCAK256 PUSH1 0x0 PUSH2 0x100 EXP DUP2 SLOAD DUP2 PUSH1 0xFF MUL NOT AND SWAP1 DUP4 ISZERO ISZERO MUL OR SWAP1 SSTORE POP PUSH2 0x319A PUSH8 0x124280E1781F78C3 PUSH1 0xC0 SHL PUSH2 0x32C6 JUMP JUMPDEST PUSH1 0x1 DUP3 PUSH1 0x2 ADD PUSH1 0x0 DUP3 DUP3 DUP3 SWAP1 SLOAD SWAP1 PUSH2 0x100 EXP SWAP1 DIV PUSH1 0xFF AND PUSH2 0x31BB SWAP2 SWAP1 PUSH2 0x4B24 JUMP JUMPDEST SWAP3 POP PUSH2 0x100 EXP DUP2 SLOAD DUP2 PUSH1 0xFF MUL NOT AND SWAP1 DUP4 PUSH1 0xFF AND MUL OR SWAP1 SSTORE POP POP POP JUMP JUMPDEST POP JUMP JUMPDEST PUSH1 0x0 PUSH1 0x1 SWAP1 POP SWAP2 SWAP1 POP JUMP JUMPDEST PUSH2 0x31EF DUP3 DUP3 PUSH2 0x1960 JUMP JUMPDEST ISZERO PUSH2 0x32C2 JUMPI PUSH1 0x0 DUP1 PUSH1 0x0 DUP5 DUP2 MSTORE PUSH1 0x20 ADD SWAP1 DUP2 MSTORE PUSH1 0x20 ADD PUSH1 0x0 KECCAK256 PUSH1 0x0 ADD PUSH1 0x0 DUP4 PUSH20 0xFFFFFFFFFFFFFFFFFFFFFFFFFFFFFFFFFFFFFFFF AND PUSH20 0xFFFFFFFFFFFFFFFFFFFFFFFFFFFFFFFFFFFFFFFF AND DUP2 MSTORE PUSH1 0x20 ADD SWAP1 DUP2 MSTORE PUSH1 0x20 ADD PUSH1 0x0 KECCAK256 PUSH1 0x0 PUSH2 0x100 EXP DUP2 SLOAD DUP2 PUSH1 0xFF MUL NOT AND SWAP1 DUP4 ISZERO ISZERO MUL OR SWAP1 SSTORE POP PUSH2 0x3267 PUSH2 0x32C9 JUMP JUMPDEST PUSH20 0xFFFFFFFFFFFFFFFFFFFFFFFFFFFFFFFFFFFFFFFF AND DUP2 PUSH20 0xFFFFFFFFFFFFFFFFFFFFFFFFFFFFFFFFFFFFFFFF AND DUP4 PUSH32 0xF6391F5C32D9C69D2A47EA670B442974B53935D1EDC7FD64EB21E047A839171B PUSH1 0x40 MLOAD PUSH1 0x40 MLOAD DUP1 SWAP2 SUB SWAP1 LOG4 JUMPDEST POP POP JUMP JUMPDEST POP JUMP JUMPDEST PUSH1 0x0 CALLER SWAP1 POP SWAP1 JUMP JUMPDEST PUSH2 0x32DB DUP3 DUP3 PUSH2 0x1960 JUMP JUMPDEST PUSH2 0x3352 JUMPI PUSH2 0x32E8 DUP2 PUSH2 0x3356 JUMP JUMPDEST PUSH2 0x32F6 DUP4 PUSH1 0x0 SHR PUSH1 0x20 PUSH2 0x3383 JUMP JUMPDEST PUSH1 0x40 MLOAD PUSH1 0x20 ADD PUSH2 0x3307 SWAP3 SWAP2 SWAP1 PUSH2 0x504B JUMP JUMPDEST PUSH1 0x40 MLOAD PUSH1 0x20 DUP2 DUP4 SUB SUB DUP2 MSTORE SWAP1 PUSH1 0x40 MSTORE PUSH1 0x40 MLOAD PUSH32 0x8C379A000000000000000000000000000000000000000000000000000000000 DUP2 MSTORE PUSH1 0x4 ADD PUSH2 0x3349 SWAP2 SWAP1 PUSH2 0x4620 JUMP JUMPDEST PUSH1 0x40 MLOAD DUP1 SWAP2 SUB SWAP1 REVERT JUMPDEST POP POP JUMP JUMPDEST PUSH1 0x60 PUSH2 0x337C DUP3 PUSH20 0xFFFFFFFFFFFFFFFFFFFFFFFFFFFFFFFFFFFFFFFF AND PUSH1 0x14 PUSH1 0xFF AND PUSH2 0x3383 JUMP JUMPDEST SWAP1 POP SWAP2 SWAP1 POP JUMP JUMPDEST PUSH1 0x60 PUSH1 0x0 PUSH1 0x2 DUP4 PUSH1 0x2 PUSH2 0x3396 SWAP2 SWAP1 PUSH2 0x5085 JUMP JUMPDEST PUSH2 0x33A0 SWAP2 SWAP1 PUSH2 0x4926 JUMP JUMPDEST PUSH8 0xFFFFFFFFFFFFFFFF DUP2 GT ISZERO PUSH2 0x33B9 JUMPI PUSH2 0x33B8 PUSH2 0x387C JUMP JUMPDEST JUMPDEST PUSH1 0x40 MLOAD SWAP1 DUP1 DUP3 MSTORE DUP1 PUSH1 0x1F ADD PUSH1 0x1F NOT AND PUSH1 0x20 ADD DUP3 ADD PUSH1 0x40 MSTORE DUP1 ISZERO PUSH2 0x33EB JUMPI DUP2 PUSH1 0x20 ADD PUSH1 0x1 DUP3 MUL DUP1 CALLDATASIZE DUP4 CALLDATACOPY DUP1 DUP3 ADD SWAP2 POP POP SWAP1 POP JUMPDEST POP SWAP1 POP PUSH32 0x3000000000000000000000000000000000000000000000000000000000000000 DUP2 PUSH1 0x0 DUP2 MLOAD DUP2 LT PUSH2 0x3423 JUMPI PUSH2 0x3422 PUSH2 0x50C7 JUMP JUMPDEST JUMPDEST PUSH1 0x20 ADD ADD SWAP1 PUSH31 0xFFFFFFFFFFFFFFFFFFFFFFFFFFFFFFFFFFFFFFFFFFFFFFFFFFFFFFFFFFFFFF NOT AND SWAP1 DUP2 PUSH1 0x0 BYTE SWAP1 MSTORE8 POP PUSH32 0x7800000000000000000000000000000000000000000000000000000000000000 DUP2 PUSH1 0x1 DUP2 MLOAD DUP2 LT PUSH2 0x3487 JUMPI PUSH2 0x3486 PUSH2 0x50C7 JUMP JUMPDEST JUMPDEST PUSH1 0x20 ADD ADD SWAP1 PUSH31 0xFFFFFFFFFFFFFFFFFFFFFFFFFFFFFFFFFFFFFFFFFFFFFFFFFFFFFFFFFFFFFF NOT AND SWAP1 DUP2 PUSH1 0x0 BYTE SWAP1 MSTORE8 POP PUSH1 0x0 PUSH1 0x1 DUP5 PUSH1 0x2 PUSH2 0x34C7 SWAP2 SWAP1 PUSH2 0x5085 JUMP JUMPDEST PUSH2 0x34D1 SWAP2 SWAP1 PUSH2 0x4926 JUMP JUMPDEST SWAP1 POP JUMPDEST PUSH1 0x1 DUP2 GT ISZERO PUSH2 0x3571 JUMPI PUSH32 0x3031323334353637383961626364656600000000000000000000000000000000 PUSH1 0xF DUP7 AND PUSH1 0x10 DUP2 LT PUSH2 0x3513 JUMPI PUSH2 0x3512 PUSH2 0x50C7 JUMP JUMPDEST JUMPDEST BYTE PUSH1 0xF8 SHL DUP3 DUP3 DUP2 MLOAD DUP2 LT PUSH2 0x352A JUMPI PUSH2 0x3529 PUSH2 0x50C7 JUMP JUMPDEST JUMPDEST PUSH1 0x20 ADD ADD SWAP1 PUSH31 0xFFFFFFFFFFFFFFFFFFFFFFFFFFFFFFFFFFFFFFFFFFFFFFFFFFFFFFFFFFFFFF NOT AND SWAP1 DUP2 PUSH1 0x0 BYTE SWAP1 MSTORE8 POP PUSH1 0x4 DUP6 SWAP1 SHR SWAP5 POP DUP1 PUSH2 0x356A SWAP1 PUSH2 0x50F6 JUMP JUMPDEST SWAP1 POP PUSH2 0x34D4 JUMP JUMPDEST POP PUSH1 0x0 DUP5 EQ PUSH2 0x35B5 JUMPI PUSH1 0x40 MLOAD PUSH32 0x8C379A000000000000000000000000000000000000000000000000000000000 DUP2 MSTORE PUSH1 0x4 ADD PUSH2 0x35AC SWAP1 PUSH2 0x516B JUMP JUMPDEST PUSH1 0x40 MLOAD DUP1 SWAP2 SUB SWAP1 REVERT JUMPDEST DUP1 SWAP2 POP POP SWAP3 SWAP2 POP POP JUMP JUMPDEST PUSH1 0x0 PUSH1 0x40 MLOAD SWAP1 POP SWAP1 JUMP JUMPDEST PUSH1 0x0 DUP1 REVERT JUMPDEST PUSH1 0x0 DUP1 REVERT JUMPDEST PUSH1 0x0 PUSH32 0xFFFFFFFF00000000000000000000000000000000000000000000000000000000 DUP3 AND SWAP1 POP SWAP2 SWAP1 POP JUMP JUMPDEST PUSH2 0x3608 DUP2 PUSH2 0x35D3 JUMP JUMPDEST DUP2 EQ PUSH2 0x3613 JUMPI PUSH1 0x0 DUP1 REVERT JUMPDEST POP JUMP JUMPDEST PUSH1 0x0 DUP2 CALLDATALOAD SWAP1 POP PUSH2 0x3625 DUP2 PUSH2 0x35FF JUMP JUMPDEST SWAP3 SWAP2 POP POP JUMP JUMPDEST PUSH1 0x0 PUSH1 0x20 DUP3 DUP5 SUB SLT ISZERO PUSH2 0x3641 JUMPI PUSH2 0x3640 PUSH2 0x35C9 JUMP JUMPDEST JUMPDEST PUSH1 0x0 PUSH2 0x364F DUP5 DUP3 DUP6 ADD PUSH2 0x3616 JUMP JUMPDEST SWAP2 POP POP SWAP3 SWAP2 POP POP JUMP JUMPDEST PUSH1 0x0 DUP2 ISZERO ISZERO SWAP1 POP SWAP2 SWAP1 POP JUMP JUMPDEST PUSH2 0x366D DUP2 PUSH2 0x3658 JUMP JUMPDEST DUP3 MSTORE POP POP JUMP JUMPDEST PUSH1 0x0 PUSH1 0x20 DUP3 ADD SWAP1 POP PUSH2 0x3688 PUSH1 0x0 DUP4 ADD DUP5 PUSH2 0x3664 JUMP JUMPDEST SWAP3 SWAP2 POP POP JUMP JUMPDEST PUSH1 0x0 PUSH1 0xFF DUP3 AND SWAP1 POP SWAP2 SWAP1 POP JUMP JUMPDEST PUSH2 0x36A4 DUP2 PUSH2 0x368E JUMP JUMPDEST DUP3 MSTORE POP POP JUMP JUMPDEST PUSH1 0x0 PUSH1 0x20 DUP3 ADD SWAP1 POP PUSH2 0x36BF PUSH1 0x0 DUP4 ADD DUP5 PUSH2 0x369B JUMP JUMPDEST SWAP3 SWAP2 POP POP JUMP JUMPDEST PUSH1 0x0 DUP2 SWAP1 POP SWAP2 SWAP1 POP JUMP JUMPDEST PUSH2 0x36D8 DUP2 PUSH2 0x36C5 JUMP JUMPDEST DUP2 EQ PUSH2 0x36E3 JUMPI PUSH1 0x0 DUP1 REVERT JUMPDEST POP JUMP JUMPDEST PUSH1 0x0 DUP2 CALLDATALOAD SWAP1 POP PUSH2 0x36F5 DUP2 PUSH2 0x36CF JUMP JUMPDEST SWAP3 SWAP2 POP POP JUMP JUMPDEST PUSH1 0x0 PUSH1 0x20 DUP3 DUP5 SUB SLT ISZERO PUSH2 0x3711 JUMPI PUSH2 0x3710 PUSH2 0x35C9 JUMP JUMPDEST JUMPDEST PUSH1 0x0 PUSH2 0x371F DUP5 DUP3 DUP6 ADD PUSH2 0x36E6 JUMP JUMPDEST SWAP2 POP POP SWAP3 SWAP2 POP POP JUMP JUMPDEST PUSH2 0x3731 DUP2 PUSH2 0x36C5 JUMP JUMPDEST DUP3 MSTORE POP POP JUMP JUMPDEST PUSH1 0x0 DUP2 MLOAD SWAP1 POP SWAP2 SWAP1 POP JUMP JUMPDEST PUSH1 0x0 DUP3 DUP3 MSTORE PUSH1 0x20 DUP3 ADD SWAP1 POP SWAP3 SWAP2 POP POP JUMP JUMPDEST PUSH1 0x0 JUMPDEST DUP4 DUP2 LT ISZERO PUSH2 0x3771 JUMPI DUP1 DUP3 ADD MLOAD DUP2 DUP5 ADD MSTORE PUSH1 0x20 DUP2 ADD SWAP1 POP PUSH2 0x3756 JUMP JUMPDEST PUSH1 0x0 DUP5 DUP5 ADD MSTORE POP POP POP POP JUMP JUMPDEST PUSH1 0x0 PUSH1 0x1F NOT PUSH1 0x1F DUP4 ADD AND SWAP1 POP SWAP2 SWAP1 POP JUMP JUMPDEST PUSH1 0x0 PUSH2 0x3799 DUP3 PUSH2 0x3737 JUMP JUMPDEST PUSH2 0x37A3 DUP2 DUP6 PUSH2 0x3742 JUMP JUMPDEST SWAP4 POP PUSH2 0x37B3 DUP2 DUP6 PUSH1 0x20 DUP7 ADD PUSH2 0x3753 JUMP JUMPDEST PUSH2 0x37BC DUP2 PUSH2 0x377D JUMP JUMPDEST DUP5 ADD SWAP2 POP POP SWAP3 SWAP2 POP POP JUMP JUMPDEST PUSH1 0x0 PUSH1 0xA0 DUP3 ADD SWAP1 POP PUSH2 0x37DC PUSH1 0x0 DUP4 ADD DUP9 PUSH2 0x3664 JUMP JUMPDEST PUSH2 0x37E9 PUSH1 0x20 DUP4 ADD DUP8 PUSH2 0x3728 JUMP JUMPDEST PUSH2 0x37F6 PUSH1 0x40 DUP4 ADD DUP7 PUSH2 0x369B JUMP JUMPDEST PUSH2 0x3803 PUSH1 0x60 DUP4 ADD DUP6 PUSH2 0x369B JUMP JUMPDEST DUP2 DUP2 SUB PUSH1 0x80 DUP4 ADD MSTORE PUSH2 0x3815 DUP2 DUP5 PUSH2 0x378E JUMP JUMPDEST SWAP1 POP SWAP7 SWAP6 POP POP POP POP POP POP JUMP JUMPDEST PUSH1 0x0 PUSH1 0x20 DUP3 ADD SWAP1 POP PUSH2 0x3836 PUSH1 0x0 DUP4 ADD DUP5 PUSH2 0x3728 JUMP JUMPDEST SWAP3 SWAP2 POP POP JUMP JUMPDEST PUSH1 0x0 DUP2 SWAP1 POP SWAP2 SWAP1 POP JUMP JUMPDEST PUSH2 0x384F DUP2 PUSH2 0x383C JUMP JUMPDEST DUP2 EQ PUSH2 0x385A JUMPI PUSH1 0x0 DUP1 REVERT JUMPDEST POP JUMP JUMPDEST PUSH1 0x0 DUP2 CALLDATALOAD SWAP1 POP PUSH2 0x386C DUP2 PUSH2 0x3846 JUMP JUMPDEST SWAP3 SWAP2 POP POP JUMP JUMPDEST PUSH1 0x0 DUP1 REVERT JUMPDEST PUSH1 0x0 DUP1 REVERT JUMPDEST PUSH32 0x4E487B7100000000000000000000000000000000000000000000000000000000 PUSH1 0x0 MSTORE PUSH1 0x41 PUSH1 0x4 MSTORE PUSH1 0x24 PUSH1 0x0 REVERT JUMPDEST PUSH2 0x38B4 DUP3 PUSH2 0x377D JUMP JUMPDEST DUP2 ADD DUP2 DUP2 LT PUSH8 0xFFFFFFFFFFFFFFFF DUP3 GT OR ISZERO PUSH2 0x38D3 JUMPI PUSH2 0x38D2 PUSH2 0x387C JUMP JUMPDEST JUMPDEST DUP1 PUSH1 0x40 MSTORE POP POP POP JUMP JUMPDEST PUSH1 0x0 PUSH2 0x38E6 PUSH2 0x35BF JUMP JUMPDEST SWAP1 POP PUSH2 0x38F2 DUP3 DUP3 PUSH2 0x38AB JUMP JUMPDEST SWAP2 SWAP1 POP JUMP JUMPDEST PUSH1 0x0 PUSH8 0xFFFFFFFFFFFFFFFF DUP3 GT ISZERO PUSH2 0x3912 JUMPI PUSH2 0x3911 PUSH2 0x387C JUMP JUMPDEST JUMPDEST PUSH2 0x391B DUP3 PUSH2 0x377D JUMP JUMPDEST SWAP1 POP PUSH1 0x20 DUP2 ADD SWAP1 POP SWAP2 SWAP1 POP JUMP JUMPDEST DUP3 DUP2 DUP4 CALLDATACOPY PUSH1 0x0 DUP4 DUP4 ADD MSTORE POP POP POP JUMP JUMPDEST PUSH1 0x0 PUSH2 0x394A PUSH2 0x3945 DUP5 PUSH2 0x38F7 JUMP JUMPDEST PUSH2 0x38DC JUMP JUMPDEST SWAP1 POP DUP3 DUP2 MSTORE PUSH1 0x20 DUP2 ADD DUP5 DUP5 DUP5 ADD GT ISZERO PUSH2 0x3966 JUMPI PUSH2 0x3965 PUSH2 0x3877 JUMP JUMPDEST JUMPDEST PUSH2 0x3971 DUP5 DUP3 DUP6 PUSH2 0x3928 JUMP JUMPDEST POP SWAP4 SWAP3 POP POP POP JUMP JUMPDEST PUSH1 0x0 DUP3 PUSH1 0x1F DUP4 ADD SLT PUSH2 0x398E JUMPI PUSH2 0x398D PUSH2 0x3872 JUMP JUMPDEST JUMPDEST DUP2 CALLDATALOAD PUSH2 0x399E DUP5 DUP3 PUSH1 0x20 DUP7 ADD PUSH2 0x3937 JUMP JUMPDEST SWAP2 POP POP SWAP3 SWAP2 POP POP JUMP JUMPDEST PUSH1 0x4 DUP2 LT PUSH2 0x39B4 JUMPI PUSH1 0x0 DUP1 REVERT JUMPDEST POP JUMP JUMPDEST PUSH1 0x0 DUP2 CALLDATALOAD SWAP1 POP PUSH2 0x39C6 DUP2 PUSH2 0x39A7 JUMP JUMPDEST SWAP3 SWAP2 POP POP JUMP JUMPDEST PUSH1 0x3 DUP2 LT PUSH2 0x39D9 JUMPI PUSH1 0x0 DUP1 REVERT JUMPDEST POP JUMP JUMPDEST PUSH1 0x0 DUP2 CALLDATALOAD SWAP1 POP PUSH2 0x39EB DUP2 PUSH2 0x39CC JUMP JUMPDEST SWAP3 SWAP2 POP POP JUMP JUMPDEST PUSH1 0x10 DUP2 LT PUSH2 0x39FE JUMPI PUSH1 0x0 DUP1 REVERT JUMPDEST POP JUMP JUMPDEST PUSH1 0x0 DUP2 CALLDATALOAD SWAP1 POP PUSH2 0x3A10 DUP2 PUSH2 0x39F1 JUMP JUMPDEST SWAP3 SWAP2 POP POP JUMP JUMPDEST PUSH1 0x0 DUP1 PUSH1 0x0 DUP1 PUSH1 0x0 DUP1 PUSH1 0x0 PUSH1 0xE0 DUP9 DUP11 SUB SLT ISZERO PUSH2 0x3A35 JUMPI PUSH2 0x3A34 PUSH2 0x35C9 JUMP JUMPDEST JUMPDEST PUSH1 0x0 PUSH2 0x3A43 DUP11 DUP3 DUP12 ADD PUSH2 0x385D JUMP JUMPDEST SWAP8 POP POP PUSH1 0x20 DUP9 ADD CALLDATALOAD PUSH8 0xFFFFFFFFFFFFFFFF DUP2 GT ISZERO PUSH2 0x3A64 JUMPI PUSH2 0x3A63 PUSH2 0x35CE JUMP JUMPDEST JUMPDEST PUSH2 0x3A70 DUP11 DUP3 DUP12 ADD PUSH2 0x3979 JUMP JUMPDEST SWAP7 POP POP PUSH1 0x40 DUP9 ADD CALLDATALOAD PUSH8 0xFFFFFFFFFFFFFFFF DUP2 GT ISZERO PUSH2 0x3A91 JUMPI PUSH2 0x3A90 PUSH2 0x35CE JUMP JUMPDEST JUMPDEST PUSH2 0x3A9D DUP11 DUP3 DUP12 ADD PUSH2 0x3979 JUMP JUMPDEST SWAP6 POP POP PUSH1 0x60 PUSH2 0x3AAE DUP11 DUP3 DUP12 ADD PUSH2 0x385D JUMP JUMPDEST SWAP5 POP POP PUSH1 0x80 PUSH2 0x3ABF DUP11 DUP3 DUP12 ADD PUSH2 0x39B7 JUMP JUMPDEST SWAP4 POP POP PUSH1 0xA0 PUSH2 0x3AD0 DUP11 DUP3 DUP12 ADD PUSH2 0x39DC JUMP JUMPDEST SWAP3 POP POP PUSH1 0xC0 PUSH2 0x3AE1 DUP11 DUP3 DUP12 ADD PUSH2 0x3A01 JUMP JUMPDEST SWAP2 POP POP SWAP3 SWAP6 SWAP9 SWAP2 SWAP5 SWAP8 POP SWAP3 SWAP6 POP JUMP JUMPDEST PUSH1 0x0 PUSH20 0xFFFFFFFFFFFFFFFFFFFFFFFFFFFFFFFFFFFFFFFF DUP3 AND SWAP1 POP SWAP2 SWAP1 POP JUMP JUMPDEST PUSH1 0x0 PUSH2 0x3B1B DUP3 PUSH2 0x3AF0 JUMP JUMPDEST SWAP1 POP SWAP2 SWAP1 POP JUMP JUMPDEST PUSH2 0x3B2B DUP2 PUSH2 0x3B10 JUMP JUMPDEST DUP2 EQ PUSH2 0x3B36 JUMPI PUSH1 0x0 DUP1 REVERT JUMPDEST POP JUMP JUMPDEST PUSH1 0x0 DUP2 CALLDATALOAD SWAP1 POP PUSH2 0x3B48 DUP2 PUSH2 0x3B22 JUMP JUMPDEST SWAP3 SWAP2 POP POP JUMP JUMPDEST PUSH1 0x0 DUP1 PUSH1 0x40 DUP4 DUP6 SUB SLT ISZERO PUSH2 0x3B65 JUMPI PUSH2 0x3B64 PUSH2 0x35C9 JUMP JUMPDEST JUMPDEST PUSH1 0x0 PUSH2 0x3B73 DUP6 DUP3 DUP7 ADD PUSH2 0x36E6 JUMP JUMPDEST SWAP3 POP POP PUSH1 0x20 PUSH2 0x3B84 DUP6 DUP3 DUP7 ADD PUSH2 0x3B39 JUMP JUMPDEST SWAP2 POP POP SWAP3 POP SWAP3 SWAP1 POP JUMP JUMPDEST PUSH2 0x3B97 DUP2 PUSH2 0x3658 JUMP JUMPDEST DUP2 EQ PUSH2 0x3BA2 JUMPI PUSH1 0x0 DUP1 REVERT JUMPDEST POP JUMP JUMPDEST PUSH1 0x0 DUP2 CALLDATALOAD SWAP1 POP PUSH2 0x3BB4 DUP2 PUSH2 0x3B8E JUMP JUMPDEST SWAP3 SWAP2 POP POP JUMP JUMPDEST PUSH1 0x0 DUP1 PUSH1 0x0 PUSH1 0x60 DUP5 DUP7 SUB SLT ISZERO PUSH2 0x3BD3 JUMPI PUSH2 0x3BD2 PUSH2 0x35C9 JUMP JUMPDEST JUMPDEST PUSH1 0x0 PUSH2 0x3BE1 DUP7 DUP3 DUP8 ADD PUSH2 0x36E6 JUMP JUMPDEST SWAP4 POP POP PUSH1 0x20 PUSH2 0x3BF2 DUP7 DUP3 DUP8 ADD PUSH2 0x3B39 JUMP JUMPDEST SWAP3 POP POP PUSH1 0x40 PUSH2 0x3C03 DUP7 DUP3 DUP8 ADD PUSH2 0x3BA5 JUMP JUMPDEST SWAP2 POP POP SWAP3 POP SWAP3 POP SWAP3 JUMP JUMPDEST PUSH32 0x4E487B7100000000000000000000000000000000000000000000000000000000 PUSH1 0x0 MSTORE PUSH1 0x21 PUSH1 0x4 MSTORE PUSH1 0x24 PUSH1 0x0 REVERT JUMPDEST PUSH1 0x4 DUP2 LT PUSH2 0x3C4D JUMPI PUSH2 0x3C4C PUSH2 0x3C0D JUMP JUMPDEST JUMPDEST POP JUMP JUMPDEST PUSH1 0x0 DUP2 SWAP1 POP PUSH2 0x3C5E DUP3 PUSH2 0x3C3C JUMP JUMPDEST SWAP2 SWAP1 POP JUMP JUMPDEST PUSH1 0x0 PUSH2 0x3C6E DUP3 PUSH2 0x3C50 JUMP JUMPDEST SWAP1 POP SWAP2 SWAP1 POP JUMP JUMPDEST PUSH2 0x3C7E DUP2 PUSH2 0x3C63 JUMP JUMPDEST DUP3 MSTORE POP POP JUMP JUMPDEST PUSH1 0x3 DUP2 LT PUSH2 0x3C95 JUMPI PUSH2 0x3C94 PUSH2 0x3C0D JUMP JUMPDEST JUMPDEST POP JUMP JUMPDEST PUSH1 0x0 DUP2 SWAP1 POP PUSH2 0x3CA6 DUP3 PUSH2 0x3C84 JUMP JUMPDEST SWAP2 SWAP1 POP JUMP JUMPDEST PUSH1 0x0 PUSH2 0x3CB6 DUP3 PUSH2 0x3C98 JUMP JUMPDEST SWAP1 POP SWAP2 SWAP1 POP JUMP JUMPDEST PUSH2 0x3CC6 DUP2 PUSH2 0x3CAB JUMP JUMPDEST DUP3 MSTORE POP POP JUMP JUMPDEST PUSH1 0x10 DUP2 LT PUSH2 0x3CDD JUMPI PUSH2 0x3CDC PUSH2 0x3C0D JUMP JUMPDEST JUMPDEST POP JUMP JUMPDEST PUSH1 0x0 DUP2 SWAP1 POP PUSH2 0x3CEE DUP3 PUSH2 0x3CCC JUMP JUMPDEST SWAP2 SWAP1 POP JUMP JUMPDEST PUSH1 0x0 PUSH2 0x3CFE DUP3 PUSH2 0x3CE0 JUMP JUMPDEST SWAP1 POP SWAP2 SWAP1 POP JUMP JUMPDEST PUSH2 0x3D0E DUP2 PUSH2 0x3CF3 JUMP JUMPDEST DUP3 MSTORE POP POP JUMP JUMPDEST PUSH2 0x3D1D DUP2 PUSH2 0x383C JUMP JUMPDEST DUP3 MSTORE POP POP JUMP JUMPDEST PUSH1 0x0 PUSH2 0x120 DUP3 ADD SWAP1 POP PUSH2 0x3D39 PUSH1 0x0 DUP4 ADD DUP13 PUSH2 0x3C75 JUMP JUMPDEST PUSH2 0x3D46 PUSH1 0x20 DUP4 ADD DUP12 PUSH2 0x3CBD JUMP JUMPDEST PUSH2 0x3D53 PUSH1 0x40 DUP4 ADD DUP11 PUSH2 0x3D05 JUMP JUMPDEST PUSH2 0x3D60 PUSH1 0x60 DUP4 ADD DUP10 PUSH2 0x3D14 JUMP JUMPDEST PUSH2 0x3D6D PUSH1 0x80 DUP4 ADD DUP9 PUSH2 0x3664 JUMP JUMPDEST PUSH2 0x3D7A PUSH1 0xA0 DUP4 ADD DUP8 PUSH2 0x3D14 JUMP JUMPDEST PUSH2 0x3D87 PUSH1 0xC0 DUP4 ADD DUP7 PUSH2 0x3728 JUMP JUMPDEST PUSH2 0x3D94 PUSH1 0xE0 DUP4 ADD DUP6 PUSH2 0x3728 JUMP JUMPDEST PUSH2 0x3DA2 PUSH2 0x100 DUP4 ADD DUP5 PUSH2 0x3D14 JUMP JUMPDEST SWAP11 SWAP10 POP POP POP POP POP POP POP POP POP POP JUMP JUMPDEST PUSH1 0x0 PUSH1 0x20 DUP3 DUP5 SUB SLT ISZERO PUSH2 0x3DC6 JUMPI PUSH2 0x3DC5 PUSH2 0x35C9 JUMP JUMPDEST JUMPDEST PUSH1 0x0 PUSH2 0x3DD4 DUP5 DUP3 DUP6 ADD PUSH2 0x385D JUMP JUMPDEST SWAP2 POP POP SWAP3 SWAP2 POP POP JUMP JUMPDEST PUSH1 0x0 DUP1 PUSH1 0x40 DUP4 DUP6 SUB SLT ISZERO PUSH2 0x3DF4 JUMPI PUSH2 0x3DF3 PUSH2 0x35C9 JUMP JUMPDEST JUMPDEST PUSH1 0x0 PUSH2 0x3E02 DUP6 DUP3 DUP7 ADD PUSH2 0x385D JUMP JUMPDEST SWAP3 POP POP PUSH1 0x20 PUSH2 0x3E13 DUP6 DUP3 DUP7 ADD PUSH2 0x385D JUMP JUMPDEST SWAP2 POP POP SWAP3 POP SWAP3 SWAP1 POP JUMP JUMPDEST PUSH1 0x0 PUSH1 0x20 DUP3 ADD SWAP1 POP PUSH2 0x3E32 PUSH1 0x0 DUP4 ADD DUP5 PUSH2 0x3D14 JUMP JUMPDEST SWAP3 SWAP2 POP POP JUMP JUMPDEST PUSH32 0x4E487B7100000000000000000000000000000000000000000000000000000000 PUSH1 0x0 MSTORE PUSH1 0x22 PUSH1 0x4 MSTORE PUSH1 0x24 PUSH1 0x0 REVERT JUMPDEST PUSH1 0x0 PUSH1 0x2 DUP3 DIV SWAP1 POP PUSH1 0x1 DUP3 AND DUP1 PUSH2 0x3E7F JUMPI PUSH1 0x7F DUP3 AND SWAP2 POP JUMPDEST PUSH1 0x20 DUP3 LT DUP2 SUB PUSH2 0x3E92 JUMPI PUSH2 0x3E91 PUSH2 0x3E38 JUMP JUMPDEST JUMPDEST POP SWAP2 SWAP1 POP JUMP JUMPDEST PUSH32 0x43616C6C6572206973206E6F7420612063657274696669657200000000000000 PUSH1 0x0 DUP3 ADD MSTORE POP JUMP JUMPDEST PUSH1 0x0 PUSH2 0x3ECE PUSH1 0x19 DUP4 PUSH2 0x3742 JUMP JUMPDEST SWAP2 POP PUSH2 0x3ED9 DUP3 PUSH2 0x3E98 JUMP JUMPDEST PUSH1 0x20 DUP3 ADD SWAP1 POP SWAP2 SWAP1 POP JUMP JUMPDEST PUSH1 0x0 PUSH1 0x20 DUP3 ADD SWAP1 POP DUP2 DUP2 SUB PUSH1 0x0 DUP4 ADD MSTORE PUSH2 0x3EFD DUP2 PUSH2 0x3EC1 JUMP JUMPDEST SWAP1 POP SWAP2 SWAP1 POP JUMP JUMPDEST PUSH32 0x417070726563696174696F6E206973206E6F742076616C696400000000000000 PUSH1 0x0 DUP3 ADD MSTORE POP JUMP JUMPDEST PUSH1 0x0 PUSH2 0x3F3A PUSH1 0x19 DUP4 PUSH2 0x3742 JUMP JUMPDEST SWAP2 POP PUSH2 0x3F45 DUP3 PUSH2 0x3F04 JUMP JUMPDEST PUSH1 0x20 DUP3 ADD SWAP1 POP SWAP2 SWAP1 POP JUMP JUMPDEST PUSH1 0x0 PUSH1 0x20 DUP3 ADD SWAP1 POP DUP2 DUP2 SUB PUSH1 0x0 DUP4 ADD MSTORE PUSH2 0x3F69 DUP2 PUSH2 0x3F2D JUMP JUMPDEST SWAP1 POP SWAP2 SWAP1 POP JUMP JUMPDEST PUSH32 0x446567726565206973206E6F742076616C696400000000000000000000000000 PUSH1 0x0 DUP3 ADD MSTORE POP JUMP JUMPDEST PUSH1 0x0 PUSH2 0x3FA6 PUSH1 0x13 DUP4 PUSH2 0x3742 JUMP JUMPDEST SWAP2 POP PUSH2 0x3FB1 DUP3 PUSH2 0x3F70 JUMP JUMPDEST PUSH1 0x20 DUP3 ADD SWAP1 POP SWAP2 SWAP1 POP JUMP JUMPDEST PUSH1 0x0 PUSH1 0x20 DUP3 ADD SWAP1 POP DUP2 DUP2 SUB PUSH1 0x0 DUP4 ADD MSTORE PUSH2 0x3FD5 DUP2 PUSH2 0x3F99 JUMP JUMPDEST SWAP1 POP SWAP2 SWAP1 POP JUMP JUMPDEST PUSH32 0x50726F6772616D206973206E6F742076616C6964000000000000000000000000 PUSH1 0x0 DUP3 ADD MSTORE POP JUMP JUMPDEST PUSH1 0x0 PUSH2 0x4012 PUSH1 0x14 DUP4 PUSH2 0x3742 JUMP JUMPDEST SWAP2 POP PUSH2 0x401D DUP3 PUSH2 0x3FDC JUMP JUMPDEST PUSH1 0x20 DUP3 ADD SWAP1 POP SWAP2 SWAP1 POP JUMP JUMPDEST PUSH1 0x0 PUSH1 0x20 DUP3 ADD SWAP1 POP DUP2 DUP2 SUB PUSH1 0x0 DUP4 ADD MSTORE PUSH2 0x4041 DUP2 PUSH2 0x4005 JUMP JUMPDEST SWAP1 POP SWAP2 SWAP1 POP JUMP JUMPDEST PUSH1 0x0 DUP2 SWAP1 POP SWAP2 SWAP1 POP JUMP JUMPDEST PUSH2 0x4063 PUSH2 0x405E DUP3 PUSH2 0x383C JUMP JUMPDEST PUSH2 0x4048 JUMP JUMPDEST DUP3 MSTORE POP POP JUMP JUMPDEST PUSH1 0x0 DUP2 PUSH1 0xF8 SHL SWAP1 POP SWAP2 SWAP1 POP JUMP JUMPDEST PUSH1 0x0 PUSH2 0x4081 DUP3 PUSH2 0x4069 JUMP JUMPDEST SWAP1 POP SWAP2 SWAP1 POP JUMP JUMPDEST PUSH2 0x4099 PUSH2 0x4094 DUP3 PUSH2 0x3C63 JUMP JUMPDEST PUSH2 0x4076 JUMP JUMPDEST DUP3 MSTORE POP POP JUMP JUMPDEST PUSH2 0x40B0 PUSH2 0x40AB DUP3 PUSH2 0x3CAB JUMP JUMPDEST PUSH2 0x4076 JUMP JUMPDEST DUP3 MSTORE POP POP JUMP JUMPDEST PUSH2 0x40C7 PUSH2 0x40C2 DUP3 PUSH2 0x3CF3 JUMP JUMPDEST PUSH2 0x4076 JUMP JUMPDEST DUP3 MSTORE POP POP JUMP JUMPDEST PUSH1 0x0 PUSH2 0x40D9 DUP3 DUP8 PUSH2 0x4052 JUMP JUMPDEST PUSH1 0x20 DUP3 ADD SWAP2 POP PUSH2 0x40E9 DUP3 DUP7 PUSH2 0x4088 JUMP JUMPDEST PUSH1 0x1 DUP3 ADD SWAP2 POP PUSH2 0x40F9 DUP3 DUP6 PUSH2 0x409F JUMP JUMPDEST PUSH1 0x1 DUP3 ADD SWAP2 POP PUSH2 0x4109 DUP3 DUP5 PUSH2 0x40B6 JUMP JUMPDEST PUSH1 0x1 DUP3 ADD SWAP2 POP DUP2 SWAP1 POP SWAP6 SWAP5 POP POP POP POP POP JUMP JUMPDEST PUSH32 0x5468697320636572746966696361746520616C72656164792065786973747300 PUSH1 0x0 DUP3 ADD MSTORE POP JUMP JUMPDEST PUSH1 0x0 PUSH2 0x4151 PUSH1 0x1F DUP4 PUSH2 0x3742 JUMP JUMPDEST SWAP2 POP PUSH2 0x415C DUP3 PUSH2 0x411B JUMP JUMPDEST PUSH1 0x20 DUP3 ADD SWAP1 POP SWAP2 SWAP1 POP JUMP JUMPDEST PUSH1 0x0 PUSH1 0x20 DUP3 ADD SWAP1 POP DUP2 DUP2 SUB PUSH1 0x0 DUP4 ADD MSTORE PUSH2 0x4180 DUP2 PUSH2 0x4144 JUMP JUMPDEST SWAP1 POP SWAP2 SWAP1 POP JUMP JUMPDEST PUSH1 0x0 DUP2 SWAP1 POP SWAP3 SWAP2 POP POP JUMP JUMPDEST PUSH32 0x4345525449465900000000000000000000000000000000000000000000000000 PUSH1 0x0 DUP3 ADD MSTORE POP JUMP JUMPDEST PUSH1 0x0 PUSH2 0x41C8 PUSH1 0x7 DUP4 PUSH2 0x4187 JUMP JUMPDEST SWAP2 POP PUSH2 0x41D3 DUP3 PUSH2 0x4192 JUMP JUMPDEST PUSH1 0x7 DUP3 ADD SWAP1 POP SWAP2 SWAP1 POP JUMP JUMPDEST PUSH1 0x0 PUSH2 0x41EA DUP3 DUP8 PUSH2 0x4052 JUMP JUMPDEST PUSH1 0x20 DUP3 ADD SWAP2 POP PUSH2 0x41F9 DUP3 PUSH2 0x41BB JUMP JUMPDEST SWAP2 POP PUSH2 0x4205 DUP3 DUP7 PUSH2 0x4088 JUMP JUMPDEST PUSH1 0x1 DUP3 ADD SWAP2 POP PUSH2 0x4215 DUP3 DUP6 PUSH2 0x409F JUMP JUMPDEST PUSH1 0x1 DUP3 ADD SWAP2 POP PUSH2 0x4225 DUP3 DUP5 PUSH2 0x40B6 JUMP JUMPDEST PUSH1 0x1 DUP3 ADD SWAP2 POP DUP2 SWAP1 POP SWAP6 SWAP5 POP POP POP POP POP JUMP JUMPDEST PUSH1 0x0 PUSH2 0x4243 DUP3 DUP5 PUSH2 0x4052 JUMP JUMPDEST PUSH1 0x20 DUP3 ADD SWAP2 POP DUP2 SWAP1 POP SWAP3 SWAP2 POP POP JUMP JUMPDEST PUSH1 0x0 PUSH2 0x425E DUP3 DUP5 PUSH2 0x4088 JUMP JUMPDEST PUSH1 0x1 DUP3 ADD SWAP2 POP DUP2 SWAP1 POP SWAP3 SWAP2 POP POP JUMP JUMPDEST PUSH1 0x0 PUSH2 0x4279 DUP3 DUP5 PUSH2 0x409F JUMP JUMPDEST PUSH1 0x1 DUP3 ADD SWAP2 POP DUP2 SWAP1 POP SWAP3 SWAP2 POP POP JUMP JUMPDEST PUSH1 0x0 PUSH2 0x4294 DUP3 DUP5 PUSH2 0x40B6 JUMP JUMPDEST PUSH1 0x1 DUP3 ADD SWAP2 POP DUP2 SWAP1 POP SWAP3 SWAP2 POP POP JUMP JUMPDEST PUSH32 0x4365727469667920000000000000000000000000000000000000000000000000 DUP2 MSTORE POP JUMP JUMPDEST PUSH1 0x0 PUSH2 0x42D4 DUP3 PUSH2 0x3737 JUMP JUMPDEST PUSH2 0x42DE DUP2 DUP6 PUSH2 0x4187 JUMP JUMPDEST SWAP4 POP PUSH2 0x42EE DUP2 DUP6 PUSH1 0x20 DUP7 ADD PUSH2 0x3753 JUMP JUMPDEST DUP1 DUP5 ADD SWAP2 POP POP SWAP3 SWAP2 POP POP JUMP JUMPDEST PUSH32 0x2000000000000000000000000000000000000000000000000000000000000000 DUP2 MSTORE POP JUMP JUMPDEST PUSH1 0x0 PUSH2 0x432B DUP3 PUSH2 0x42A3 JUMP JUMPDEST PUSH1 0x8 DUP3 ADD SWAP2 POP PUSH2 0x433B DUP3 DUP8 PUSH2 0x42C9 JUMP JUMPDEST SWAP2 POP PUSH2 0x4346 DUP3 PUSH2 0x42FA JUMP JUMPDEST PUSH1 0x1 DUP3 ADD SWAP2 POP PUSH2 0x4356 DUP3 DUP7 PUSH2 0x42C9 JUMP JUMPDEST SWAP2 POP PUSH2 0x4361 DUP3 PUSH2 0x42FA JUMP JUMPDEST PUSH1 0x1 DUP3 ADD SWAP2 POP PUSH2 0x4371 DUP3 DUP6 PUSH2 0x42C9 JUMP JUMPDEST SWAP2 POP PUSH2 0x437C DUP3 PUSH2 0x42FA JUMP JUMPDEST PUSH1 0x1 DUP3 ADD SWAP2 POP PUSH2 0x438C DUP3 DUP5 PUSH2 0x42C9 JUMP JUMPDEST SWAP2 POP DUP2 SWAP1 POP SWAP6 SWAP5 POP POP POP POP POP JUMP JUMPDEST PUSH1 0x0 PUSH4 0xFFFFFFFF DUP3 AND SWAP1 POP SWAP2 SWAP1 POP JUMP JUMPDEST PUSH32 0x4E487B7100000000000000000000000000000000000000000000000000000000 PUSH1 0x0 MSTORE PUSH1 0x11 PUSH1 0x4 MSTORE PUSH1 0x24 PUSH1 0x0 REVERT JUMPDEST PUSH1 0x0 PUSH2 0x43E4 DUP3 PUSH2 0x439A JUMP JUMPDEST SWAP2 POP PUSH2 0x43EF DUP4 PUSH2 0x439A JUMP JUMPDEST SWAP3 POP DUP3 DUP3 MUL PUSH2 0x43FD DUP2 PUSH2 0x439A JUMP JUMPDEST SWAP2 POP DUP1 DUP3 EQ PUSH2 0x440F JUMPI PUSH2 0x440E PUSH2 0x43AA JUMP JUMPDEST JUMPDEST POP SWAP3 SWAP2 POP POP JUMP JUMPDEST PUSH1 0x0 PUSH2 0x4422 DUP3 DUP5 PUSH2 0x42C9 JUMP JUMPDEST SWAP2 POP DUP2 SWAP1 POP SWAP3 SWAP2 POP POP JUMP JUMPDEST PUSH1 0x0 DUP2 MLOAD SWAP1 POP SWAP2 SWAP1 POP JUMP JUMPDEST PUSH1 0x0 DUP2 SWAP1 POP PUSH1 0x20 DUP3 ADD SWAP1 POP SWAP2 SWAP1 POP JUMP JUMPDEST PUSH1 0x0 PUSH2 0x4454 DUP3 MLOAD PUSH2 0x36C5 JUMP JUMPDEST DUP1 SWAP2 POP POP SWAP2 SWAP1 POP JUMP JUMPDEST PUSH1 0x0 DUP3 DUP3 SHL SWAP1 POP SWAP3 SWAP2 POP POP JUMP JUMPDEST PUSH1 0x0 PUSH2 0x4475 DUP3 PUSH2 0x442D JUMP JUMPDEST DUP3 PUSH2 0x447F DUP5 PUSH2 0x4438 JUMP JUMPDEST SWAP1 POP PUSH2 0x448A DUP2 PUSH2 0x4448 JUMP JUMPDEST SWAP3 POP PUSH1 0x20 DUP3 LT ISZERO PUSH2 0x44CA JUMPI PUSH2 0x44C5 PUSH32 0xFFFFFFFFFFFFFFFFFFFFFFFFFFFFFFFFFFFFFFFFFFFFFFFFFFFFFFFFFFFFFFFF DUP4 PUSH1 0x20 SUB PUSH1 0x8 MUL PUSH2 0x445D JUMP JUMPDEST DUP4 AND SWAP3 POP JUMPDEST POP POP SWAP2 SWAP1 POP JUMP JUMPDEST PUSH32 0x596F752063616E27742072656E6F756E636520746F20796F757220726F6C652E PUSH1 0x0 DUP3 ADD MSTORE PUSH32 0x20506C6561736520636F6E746163742061646D696E7300000000000000000000 PUSH1 0x20 DUP3 ADD MSTORE POP JUMP JUMPDEST PUSH1 0x0 PUSH2 0x452D PUSH1 0x36 DUP4 PUSH2 0x3742 JUMP JUMPDEST SWAP2 POP PUSH2 0x4538 DUP3 PUSH2 0x44D1 JUMP JUMPDEST PUSH1 0x40 DUP3 ADD SWAP1 POP SWAP2 SWAP1 POP JUMP JUMPDEST PUSH1 0x0 PUSH1 0x20 DUP3 ADD SWAP1 POP DUP2 DUP2 SUB PUSH1 0x0 DUP4 ADD MSTORE PUSH2 0x455C DUP2 PUSH2 0x4520 JUMP JUMPDEST SWAP1 POP SWAP2 SWAP1 POP JUMP JUMPDEST PUSH1 0x0 DUP2 SWAP1 POP SWAP2 SWAP1 POP JUMP JUMPDEST PUSH2 0x457E PUSH2 0x4579 DUP3 PUSH2 0x36C5 JUMP JUMPDEST PUSH2 0x4563 JUMP JUMPDEST DUP3 MSTORE POP POP JUMP JUMPDEST PUSH1 0x0 PUSH2 0x4590 DUP3 DUP5 PUSH2 0x456D JUMP JUMPDEST PUSH1 0x20 DUP3 ADD SWAP2 POP DUP2 SWAP1 POP SWAP3 SWAP2 POP POP JUMP JUMPDEST PUSH32 0x4D61782000000000000000000000000000000000000000000000000000000000 DUP2 MSTORE POP JUMP JUMPDEST PUSH32 0x2072656163686564000000000000000000000000000000000000000000000000 DUP2 MSTORE POP JUMP JUMPDEST PUSH1 0x0 PUSH2 0x45F6 DUP3 PUSH2 0x459F JUMP JUMPDEST PUSH1 0x4 DUP3 ADD SWAP2 POP PUSH2 0x4606 DUP3 DUP5 PUSH2 0x42C9 JUMP JUMPDEST SWAP2 POP PUSH2 0x4611 DUP3 PUSH2 0x45C5 JUMP JUMPDEST PUSH1 0x8 DUP3 ADD SWAP2 POP DUP2 SWAP1 POP SWAP3 SWAP2 POP POP JUMP JUMPDEST PUSH1 0x0 PUSH1 0x20 DUP3 ADD SWAP1 POP DUP2 DUP2 SUB PUSH1 0x0 DUP4 ADD MSTORE PUSH2 0x463A DUP2 DUP5 PUSH2 0x378E JUMP JUMPDEST SWAP1 POP SWAP3 SWAP2 POP POP JUMP JUMPDEST PUSH32 0x43616C6C6572206973206E6F7420612000000000000000000000000000000000 DUP2 MSTORE POP JUMP JUMPDEST PUSH32 0x2061646D696E0000000000000000000000000000000000000000000000000000 DUP2 MSTORE POP JUMP JUMPDEST PUSH1 0x0 PUSH2 0x4699 DUP3 PUSH2 0x4642 JUMP JUMPDEST PUSH1 0x10 DUP3 ADD SWAP2 POP PUSH2 0x46A9 DUP3 DUP5 PUSH2 0x42C9 JUMP JUMPDEST SWAP2 POP PUSH2 0x46B4 DUP3 PUSH2 0x4668 JUMP JUMPDEST PUSH1 0x6 DUP3 ADD SWAP2 POP DUP2 SWAP1 POP SWAP3 SWAP2 POP POP JUMP JUMPDEST PUSH32 0x54686973206164647265737320697320616C7265616479206120000000000000 DUP2 MSTORE POP JUMP JUMPDEST PUSH1 0x0 PUSH2 0x46F4 DUP3 PUSH2 0x46C3 JUMP JUMPDEST PUSH1 0x1A DUP3 ADD SWAP2 POP PUSH2 0x4704 DUP3 DUP5 PUSH2 0x42C9 JUMP JUMPDEST SWAP2 POP DUP2 SWAP1 POP SWAP3 SWAP2 POP POP JUMP JUMPDEST PUSH1 0x0 DUP2 PUSH1 0x60 SHL SWAP1 POP SWAP2 SWAP1 POP JUMP JUMPDEST PUSH1 0x0 PUSH2 0x4727 DUP3 PUSH2 0x470F JUMP JUMPDEST SWAP1 POP SWAP2 SWAP1 POP JUMP JUMPDEST PUSH1 0x0 PUSH2 0x4739 DUP3 PUSH2 0x471C JUMP JUMPDEST SWAP1 POP SWAP2 SWAP1 POP JUMP JUMPDEST PUSH2 0x4751 PUSH2 0x474C DUP3 PUSH2 0x3B10 JUMP JUMPDEST PUSH2 0x472E JUMP JUMPDEST DUP3 MSTORE POP POP JUMP JUMPDEST PUSH32 0x4752414E54000000000000000000000000000000000000000000000000000000 PUSH1 0x0 DUP3 ADD MSTORE POP JUMP JUMPDEST PUSH1 0x0 PUSH2 0x478D PUSH1 0x5 DUP4 PUSH2 0x4187 JUMP JUMPDEST SWAP2 POP PUSH2 0x4798 DUP3 PUSH2 0x4757 JUMP JUMPDEST PUSH1 0x5 DUP3 ADD SWAP1 POP SWAP2 SWAP1 POP JUMP JUMPDEST PUSH1 0x0 PUSH2 0x47AF DUP3 DUP6 PUSH2 0x4740 JUMP JUMPDEST PUSH1 0x14 DUP3 ADD SWAP2 POP PUSH2 0x47BE DUP3 PUSH2 0x4780 JUMP JUMPDEST SWAP2 POP PUSH2 0x47CA DUP3 DUP5 PUSH2 0x456D JUMP JUMPDEST PUSH1 0x20 DUP3 ADD SWAP2 POP DUP2 SWAP1 POP SWAP4 SWAP3 POP POP POP JUMP JUMPDEST PUSH1 0x0 PUSH2 0x47E6 DUP3 DUP5 PUSH2 0x4740 JUMP JUMPDEST PUSH1 0x14 DUP3 ADD SWAP2 POP DUP2 SWAP1 POP SWAP3 SWAP2 POP POP JUMP JUMPDEST PUSH32 0x4772616E74200000000000000000000000000000000000000000000000000000 DUP2 MSTORE POP JUMP JUMPDEST PUSH1 0x0 PUSH2 0x4826 DUP3 PUSH2 0x47F5 JUMP JUMPDEST PUSH1 0x6 DUP3 ADD SWAP2 POP PUSH2 0x4836 DUP3 DUP6 PUSH2 0x42C9 JUMP JUMPDEST SWAP2 POP PUSH2 0x4841 DUP3 PUSH2 0x42FA JUMP JUMPDEST PUSH1 0x1 DUP3 ADD SWAP2 POP PUSH2 0x4851 DUP3 DUP5 PUSH2 0x42C9 JUMP JUMPDEST SWAP2 POP DUP2 SWAP1 POP SWAP4 SWAP3 POP POP POP JUMP JUMPDEST PUSH1 0x0 PUSH2 0x4868 DUP3 PUSH2 0x439A JUMP JUMPDEST SWAP2 POP PUSH2 0x4873 DUP4 PUSH2 0x439A JUMP JUMPDEST SWAP3 POP DUP3 DUP3 ADD SWAP1 POP PUSH4 0xFFFFFFFF DUP2 GT ISZERO PUSH2 0x488F JUMPI PUSH2 0x488E PUSH2 0x43AA JUMP JUMPDEST JUMPDEST SWAP3 SWAP2 POP POP JUMP JUMPDEST PUSH32 0x4E487B7100000000000000000000000000000000000000000000000000000000 PUSH1 0x0 MSTORE PUSH1 0x12 PUSH1 0x4 MSTORE PUSH1 0x24 PUSH1 0x0 REVERT JUMPDEST PUSH1 0x0 PUSH2 0x48CF DUP3 PUSH2 0x383C JUMP JUMPDEST SWAP2 POP PUSH2 0x48DA DUP4 PUSH2 0x383C JUMP JUMPDEST SWAP3 POP DUP3 PUSH2 0x48EA JUMPI PUSH2 0x48E9 PUSH2 0x4895 JUMP JUMPDEST JUMPDEST DUP3 DUP3 MOD SWAP1 POP SWAP3 SWAP2 POP POP JUMP JUMPDEST PUSH1 0x0 PUSH2 0x4900 DUP3 PUSH2 0x383C JUMP JUMPDEST SWAP2 POP PUSH2 0x490B DUP4 PUSH2 0x383C JUMP JUMPDEST SWAP3 POP DUP3 PUSH2 0x491B JUMPI PUSH2 0x491A PUSH2 0x4895 JUMP JUMPDEST JUMPDEST DUP3 DUP3 DIV SWAP1 POP SWAP3 SWAP2 POP POP JUMP JUMPDEST PUSH1 0x0 PUSH2 0x4931 DUP3 PUSH2 0x383C JUMP JUMPDEST SWAP2 POP PUSH2 0x493C DUP4 PUSH2 0x383C JUMP JUMPDEST SWAP3 POP DUP3 DUP3 ADD SWAP1 POP DUP1 DUP3 GT ISZERO PUSH2 0x4954 JUMPI PUSH2 0x4953 PUSH2 0x43AA JUMP JUMPDEST JUMPDEST SWAP3 SWAP2 POP POP JUMP JUMPDEST PUSH32 0x4D696E2000000000000000000000000000000000000000000000000000000000 DUP2 MSTORE POP JUMP JUMPDEST PUSH1 0x0 PUSH2 0x498B DUP3 PUSH2 0x495A JUMP JUMPDEST PUSH1 0x4 DUP3 ADD SWAP2 POP PUSH2 0x499B DUP3 DUP5 PUSH2 0x42C9 JUMP JUMPDEST SWAP2 POP PUSH2 0x49A6 DUP3 PUSH2 0x45C5 JUMP JUMPDEST PUSH1 0x8 DUP3 ADD SWAP2 POP DUP2 SWAP1 POP SWAP3 SWAP2 POP POP JUMP JUMPDEST PUSH32 0x546869732061646472657373206973206E6F7420612000000000000000000000 DUP2 MSTORE POP JUMP JUMPDEST PUSH1 0x0 PUSH2 0x49E6 DUP3 PUSH2 0x49B5 JUMP JUMPDEST PUSH1 0x16 DUP3 ADD SWAP2 POP PUSH2 0x49F6 DUP3 DUP5 PUSH2 0x42C9 JUMP JUMPDEST SWAP2 POP DUP2 SWAP1 POP SWAP3 SWAP2 POP POP JUMP JUMPDEST PUSH32 0x5245564F4B450000000000000000000000000000000000000000000000000000 PUSH1 0x0 DUP3 ADD MSTORE POP JUMP JUMPDEST PUSH1 0x0 PUSH2 0x4A37 PUSH1 0x6 DUP4 PUSH2 0x4187 JUMP JUMPDEST SWAP2 POP PUSH2 0x4A42 DUP3 PUSH2 0x4A01 JUMP JUMPDEST PUSH1 0x6 DUP3 ADD SWAP1 POP SWAP2 SWAP1 POP JUMP JUMPDEST PUSH1 0x0 PUSH2 0x4A59 DUP3 DUP6 PUSH2 0x4740 JUMP JUMPDEST PUSH1 0x14 DUP3 ADD SWAP2 POP PUSH2 0x4A68 DUP3 PUSH2 0x4A2A JUMP JUMPDEST SWAP2 POP PUSH2 0x4A74 DUP3 DUP5 PUSH2 0x456D JUMP JUMPDEST PUSH1 0x20 DUP3 ADD SWAP2 POP DUP2 SWAP1 POP SWAP4 SWAP3 POP POP POP JUMP JUMPDEST PUSH32 0x5265766F6B652000000000000000000000000000000000000000000000000000 DUP2 MSTORE POP JUMP JUMPDEST PUSH1 0x0 PUSH2 0x4AB5 DUP3 PUSH2 0x4A84 JUMP JUMPDEST PUSH1 0x7 DUP3 ADD SWAP2 POP PUSH2 0x4AC5 DUP3 DUP6 PUSH2 0x42C9 JUMP JUMPDEST SWAP2 POP PUSH2 0x4AD0 DUP3 PUSH2 0x42FA JUMP JUMPDEST PUSH1 0x1 DUP3 ADD SWAP2 POP PUSH2 0x4AE0 DUP3 DUP5 PUSH2 0x42C9 JUMP JUMPDEST SWAP2 POP DUP2 SWAP1 POP SWAP4 SWAP3 POP POP POP JUMP JUMPDEST PUSH1 0x0 PUSH2 0x4AF7 DUP3 PUSH2 0x439A JUMP JUMPDEST SWAP2 POP PUSH2 0x4B02 DUP4 PUSH2 0x439A JUMP JUMPDEST SWAP3 POP DUP3 DUP3 SUB SWAP1 POP PUSH4 0xFFFFFFFF DUP2 GT ISZERO PUSH2 0x4B1E JUMPI PUSH2 0x4B1D PUSH2 0x43AA JUMP JUMPDEST JUMPDEST SWAP3 SWAP2 POP POP JUMP JUMPDEST PUSH1 0x0 PUSH2 0x4B2F DUP3 PUSH2 0x368E JUMP JUMPDEST SWAP2 POP PUSH2 0x4B3A DUP4 PUSH2 0x368E JUMP JUMPDEST SWAP3 POP DUP3 DUP3 SUB SWAP1 POP PUSH1 0xFF DUP2 GT ISZERO PUSH2 0x4B53 JUMPI PUSH2 0x4B52 PUSH2 0x43AA JUMP JUMPDEST JUMPDEST SWAP3 SWAP2 POP POP JUMP JUMPDEST PUSH1 0x0 PUSH2 0x4B64 DUP3 PUSH2 0x383C JUMP JUMPDEST SWAP2 POP PUSH32 0xFFFFFFFFFFFFFFFFFFFFFFFFFFFFFFFFFFFFFFFFFFFFFFFFFFFFFFFFFFFFFFFF DUP3 SUB PUSH2 0x4B96 JUMPI PUSH2 0x4B95 PUSH2 0x43AA JUMP JUMPDEST JUMPDEST PUSH1 0x1 DUP3 ADD SWAP1 POP SWAP2 SWAP1 POP JUMP JUMPDEST PUSH1 0x0 DUP2 SWAP1 POP DUP2 PUSH1 0x0 MSTORE PUSH1 0x20 PUSH1 0x0 KECCAK256 SWAP1 POP SWAP2 SWAP1 POP JUMP JUMPDEST PUSH1 0x0 PUSH1 0x20 PUSH1 0x1F DUP4 ADD DIV SWAP1 POP SWAP2 SWAP1 POP JUMP JUMPDEST PUSH1 0x0 PUSH1 0x8 DUP4 MUL PUSH2 0x4BF6 PUSH32 0xFFFFFFFFFFFFFFFFFFFFFFFFFFFFFFFFFFFFFFFFFFFFFFFFFFFFFFFFFFFFFFFF DUP3 PUSH2 0x445D JUMP JUMPDEST PUSH2 0x4C00 DUP7 DUP4 PUSH2 0x445D JUMP JUMPDEST SWAP6 POP DUP1 NOT DUP5 AND SWAP4 POP DUP1 DUP7 AND DUP5 OR SWAP3 POP POP POP SWAP4 SWAP3 POP POP POP JUMP JUMPDEST PUSH1 0x0 DUP2 SWAP1 POP SWAP2 SWAP1 POP JUMP JUMPDEST PUSH1 0x0 PUSH2 0x4C3D PUSH2 0x4C38 PUSH2 0x4C33 DUP5 PUSH2 0x383C JUMP JUMPDEST PUSH2 0x4C18 JUMP JUMPDEST PUSH2 0x383C JUMP JUMPDEST SWAP1 POP SWAP2 SWAP1 POP JUMP JUMPDEST PUSH1 0x0 DUP2 SWAP1 POP SWAP2 SWAP1 POP JUMP JUMPDEST PUSH2 0x4C57 DUP4 PUSH2 0x4C22 JUMP JUMPDEST PUSH2 0x4C6B PUSH2 0x4C63 DUP3 PUSH2 0x4C44 JUMP JUMPDEST DUP5 DUP5 SLOAD PUSH2 0x4BC6 JUMP JUMPDEST DUP3 SSTORE POP POP POP POP JUMP JUMPDEST PUSH1 0x0 SWAP1 JUMP JUMPDEST PUSH2 0x4C80 PUSH2 0x4C73 JUMP JUMPDEST PUSH2 0x4C8B DUP2 DUP5 DUP5 PUSH2 0x4C4E JUMP JUMPDEST POP POP POP JUMP JUMPDEST JUMPDEST DUP2 DUP2 LT ISZERO PUSH2 0x4CAF JUMPI PUSH2 0x4CA4 PUSH1 0x0 DUP3 PUSH2 0x4C78 JUMP JUMPDEST PUSH1 0x1 DUP2 ADD SWAP1 POP PUSH2 0x4C91 JUMP JUMPDEST POP POP JUMP JUMPDEST PUSH1 0x1F DUP3 GT ISZERO PUSH2 0x4CF4 JUMPI PUSH2 0x4CC5 DUP2 PUSH2 0x4BA1 JUMP JUMPDEST PUSH2 0x4CCE DUP5 PUSH2 0x4BB6 JUMP JUMPDEST DUP2 ADD PUSH1 0x20 DUP6 LT ISZERO PUSH2 0x4CDD JUMPI DUP2 SWAP1 POP JUMPDEST PUSH2 0x4CF1 PUSH2 0x4CE9 DUP6 PUSH2 0x4BB6 JUMP JUMPDEST DUP4 ADD DUP3 PUSH2 0x4C90 JUMP JUMPDEST POP POP JUMPDEST POP POP POP JUMP JUMPDEST PUSH1 0x0 DUP3 DUP3 SHR SWAP1 POP SWAP3 SWAP2 POP POP JUMP JUMPDEST PUSH1 0x0 PUSH2 0x4D17 PUSH1 0x0 NOT DUP5 PUSH1 0x8 MUL PUSH2 0x4CF9 JUMP JUMPDEST NOT DUP1 DUP4 AND SWAP2 POP POP SWAP3 SWAP2 POP POP JUMP JUMPDEST PUSH1 0x0 PUSH2 0x4D30 DUP4 DUP4 PUSH2 0x4D06 JUMP JUMPDEST SWAP2 POP DUP3 PUSH1 0x2 MUL DUP3 OR SWAP1 POP SWAP3 SWAP2 POP POP JUMP JUMPDEST PUSH2 0x4D49 DUP3 PUSH2 0x3737 JUMP JUMPDEST PUSH8 0xFFFFFFFFFFFFFFFF DUP2 GT ISZERO PUSH2 0x4D62 JUMPI PUSH2 0x4D61 PUSH2 0x387C JUMP JUMPDEST JUMPDEST PUSH2 0x4D6C DUP3 SLOAD PUSH2 0x3E67 JUMP JUMPDEST PUSH2 0x4D77 DUP3 DUP3 DUP6 PUSH2 0x4CB3 JUMP JUMPDEST PUSH1 0x0 PUSH1 0x20 SWAP1 POP PUSH1 0x1F DUP4 GT PUSH1 0x1 DUP2 EQ PUSH2 0x4DAA JUMPI PUSH1 0x0 DUP5 ISZERO PUSH2 0x4D98 JUMPI DUP3 DUP8 ADD MLOAD SWAP1 POP JUMPDEST PUSH2 0x4DA2 DUP6 DUP3 PUSH2 0x4D24 JUMP JUMPDEST DUP7 SSTORE POP PUSH2 0x4E0A JUMP JUMPDEST PUSH1 0x1F NOT DUP5 AND PUSH2 0x4DB8 DUP7 PUSH2 0x4BA1 JUMP JUMPDEST PUSH1 0x0 JUMPDEST DUP3 DUP2 LT ISZERO PUSH2 0x4DE0 JUMPI DUP5 DUP10 ADD MLOAD DUP3 SSTORE PUSH1 0x1 DUP3 ADD SWAP2 POP PUSH1 0x20 DUP6 ADD SWAP5 POP PUSH1 0x20 DUP2 ADD SWAP1 POP PUSH2 0x4DBB JUMP JUMPDEST DUP7 DUP4 LT ISZERO PUSH2 0x4DFD JUMPI DUP5 DUP10 ADD MLOAD PUSH2 0x4DF9 PUSH1 0x1F DUP10 AND DUP3 PUSH2 0x4D06 JUMP JUMPDEST DUP4 SSTORE POP JUMPDEST PUSH1 0x1 PUSH1 0x2 DUP9 MUL ADD DUP9 SSTORE POP POP POP JUMPDEST POP POP POP POP POP POP JUMP JUMPDEST PUSH32 0x596F7520616C7265616479207369676E65642074686973206D756C7469736967 PUSH1 0x0 DUP3 ADD MSTORE POP JUMP JUMPDEST PUSH1 0x0 PUSH2 0x4E48 PUSH1 0x20 DUP4 PUSH2 0x3742 JUMP JUMPDEST SWAP2 POP PUSH2 0x4E53 DUP3 PUSH2 0x4E12 JUMP JUMPDEST PUSH1 0x20 DUP3 ADD SWAP1 POP SWAP2 SWAP1 POP JUMP JUMPDEST PUSH1 0x0 PUSH1 0x20 DUP3 ADD SWAP1 POP DUP2 DUP2 SUB PUSH1 0x0 DUP4 ADD MSTORE PUSH2 0x4E77 DUP2 PUSH2 0x4E3B JUMP JUMPDEST SWAP1 POP SWAP2 SWAP1 POP JUMP JUMPDEST PUSH1 0x0 PUSH2 0x4E89 DUP3 PUSH2 0x368E JUMP JUMPDEST SWAP2 POP PUSH1 0xFF DUP3 SUB PUSH2 0x4E9C JUMPI PUSH2 0x4E9B PUSH2 0x43AA JUMP JUMPDEST JUMPDEST PUSH1 0x1 DUP3 ADD SWAP1 POP SWAP2 SWAP1 POP JUMP JUMPDEST PUSH1 0x0 PUSH2 0x4EB2 DUP3 PUSH2 0x368E JUMP JUMPDEST SWAP2 POP PUSH2 0x4EBD DUP4 PUSH2 0x368E JUMP JUMPDEST SWAP3 POP DUP3 DUP3 ADD SWAP1 POP PUSH1 0xFF DUP2 GT ISZERO PUSH2 0x4ED6 JUMPI PUSH2 0x4ED5 PUSH2 0x43AA JUMP JUMPDEST JUMPDEST SWAP3 SWAP2 POP POP JUMP JUMPDEST PUSH1 0x0 PUSH1 0x80 DUP3 ADD SWAP1 POP PUSH2 0x4EF1 PUSH1 0x0 DUP4 ADD DUP8 PUSH2 0x3D14 JUMP JUMPDEST PUSH2 0x4EFE PUSH1 0x20 DUP4 ADD DUP7 PUSH2 0x3C75 JUMP JUMPDEST PUSH2 0x4F0B PUSH1 0x40 DUP4 ADD DUP6 PUSH2 0x3CBD JUMP JUMPDEST PUSH2 0x4F18 PUSH1 0x60 DUP4 ADD DUP5 PUSH2 0x3D05 JUMP JUMPDEST SWAP6 SWAP5 POP POP POP POP POP JUMP JUMPDEST PUSH32 0x596F752068617665206E6F7465207369676E65642074686973206D756C746973 PUSH1 0x0 DUP3 ADD MSTORE PUSH32 0x6967207965740000000000000000000000000000000000000000000000000000 PUSH1 0x20 DUP3 ADD MSTORE POP JUMP JUMPDEST PUSH1 0x0 PUSH2 0x4F7D PUSH1 0x26 DUP4 PUSH2 0x3742 JUMP JUMPDEST SWAP2 POP PUSH2 0x4F88 DUP3 PUSH2 0x4F21 JUMP JUMPDEST PUSH1 0x40 DUP3 ADD SWAP1 POP SWAP2 SWAP1 POP JUMP JUMPDEST PUSH1 0x0 PUSH1 0x20 DUP3 ADD SWAP1 POP DUP2 DUP2 SUB PUSH1 0x0 DUP4 ADD MSTORE PUSH2 0x4FAC DUP2 PUSH2 0x4F70 JUMP JUMPDEST SWAP1 POP SWAP2 SWAP1 POP JUMP JUMPDEST PUSH32 0x416363657373436F6E74726F6C3A206163636F756E7420000000000000000000 PUSH1 0x0 DUP3 ADD MSTORE POP JUMP JUMPDEST PUSH1 0x0 PUSH2 0x4FE9 PUSH1 0x17 DUP4 PUSH2 0x4187 JUMP JUMPDEST SWAP2 POP PUSH2 0x4FF4 DUP3 PUSH2 0x4FB3 JUMP JUMPDEST PUSH1 0x17 DUP3 ADD SWAP1 POP SWAP2 SWAP1 POP JUMP JUMPDEST PUSH32 0x206973206D697373696E6720726F6C6520000000000000000000000000000000 PUSH1 0x0 DUP3 ADD MSTORE POP JUMP JUMPDEST PUSH1 0x0 PUSH2 0x5035 PUSH1 0x11 DUP4 PUSH2 0x4187 JUMP JUMPDEST SWAP2 POP PUSH2 0x5040 DUP3 PUSH2 0x4FFF JUMP JUMPDEST PUSH1 0x11 DUP3 ADD SWAP1 POP SWAP2 SWAP1 POP JUMP JUMPDEST PUSH1 0x0 PUSH2 0x5056 DUP3 PUSH2 0x4FDC JUMP JUMPDEST SWAP2 POP PUSH2 0x5062 DUP3 DUP6 PUSH2 0x42C9 JUMP JUMPDEST SWAP2 POP PUSH2 0x506D DUP3 PUSH2 0x5028 JUMP JUMPDEST SWAP2 POP PUSH2 0x5079 DUP3 DUP5 PUSH2 0x42C9 JUMP JUMPDEST SWAP2 POP DUP2 SWAP1 POP SWAP4 SWAP3 POP POP POP JUMP JUMPDEST PUSH1 0x0 PUSH2 0x5090 DUP3 PUSH2 0x383C JUMP JUMPDEST SWAP2 POP PUSH2 0x509B DUP4 PUSH2 0x383C JUMP JUMPDEST SWAP3 POP DUP3 DUP3 MUL PUSH2 0x50A9 DUP2 PUSH2 0x383C JUMP JUMPDEST SWAP2 POP DUP3 DUP3 DIV DUP5 EQ DUP4 ISZERO OR PUSH2 0x50C0 JUMPI PUSH2 0x50BF PUSH2 0x43AA JUMP JUMPDEST JUMPDEST POP SWAP3 SWAP2 POP POP JUMP JUMPDEST PUSH32 0x4E487B7100000000000000000000000000000000000000000000000000000000 PUSH1 0x0 MSTORE PUSH1 0x32 PUSH1 0x4 MSTORE PUSH1 0x24 PUSH1 0x0 REVERT JUMPDEST PUSH1 0x0 PUSH2 0x5101 DUP3 PUSH2 0x383C JUMP JUMPDEST SWAP2 POP PUSH1 0x0 DUP3 SUB PUSH2 0x5114 JUMPI PUSH2 0x5113 PUSH2 0x43AA JUMP JUMPDEST JUMPDEST PUSH1 0x1 DUP3 SUB SWAP1 POP SWAP2 SWAP1 POP JUMP JUMPDEST PUSH32 0x537472696E67733A20686578206C656E67746820696E73756666696369656E74 PUSH1 0x0 DUP3 ADD MSTORE POP JUMP JUMPDEST PUSH1 0x0 PUSH2 0x5155 PUSH1 0x20 DUP4 PUSH2 0x3742 JUMP JUMPDEST SWAP2 POP PUSH2 0x5160 DUP3 PUSH2 0x511F JUMP JUMPDEST PUSH1 0x20 DUP3 ADD SWAP1 POP SWAP2 SWAP1 POP JUMP JUMPDEST PUSH1 0x0 PUSH1 0x20 DUP3 ADD SWAP1 POP DUP2 DUP2 SUB PUSH1 0x0 DUP4 ADD MSTORE PUSH2 0x5184 DUP2 PUSH2 0x5148 JUMP JUMPDEST SWAP1 POP SWAP2 SWAP1 POP JUMP INVALID LOG2 PUSH5 0x6970667358 0x22 SLT KECCAK256 0x5D SIGNEXTEND 0x23 PUSH14 0x6E7ECC232D6A8FED7CF31E991CBB 0xEF 0x2A SWAP10 CODESIZE PUSH10 0x973EC4F0F8DDA68BAD64 PUSH20 0x6F6C634300081300330000000000000000000000 "},"methodIdentifiers":{"CERTIFIER()":"b86bc74f","CERTIFIER_ADMIN()":"e05f2fb4","DEFAULT_ADMIN_ROLE()":"a217fddf","MAX_CERTIFIERS()":"5907ebea","MAX_CERTIFIERS_ADMIN()":"9e339909","MIN_CERTIFIERS_ADMIN()":"33b72e49","PERCENT_TO_CERTIFY()":"6bc6421b","PERCENT_TO_EDIT_CERTIFICATE()":"2cd94e4f","PERCENT_TO_GRANT_CERTIFIER()":"4da11a20","PERCENT_TO_GRANT_CERTIFIER_ADMIN()":"0f68794a","PERCENT_TO_REVOKE_CERTIFIER()":"1a9cfe28","PERCENT_TO_REVOKE_CERTIFIER_ADMIN()":"7cd29fb7","ceilUDiv(uint256,uint256)":"bf802091","certificates(bytes32)":"742f0688","certify(uint256,string,string,uint256,uint8,uint8,uint8)":"2e83c14b","getRoleAdmin(bytes32)":"248a9ca3","grantAnyRole(bytes32,address,bool)":"719129be","grantRole(bytes32,address)":"2f2ff15d","hasRole(bytes32,address)":"91d14854","multiSig(bytes32)":"1a968069","multiSigId(uint256)":"9dd09a73","renounceRole(bytes32,address)":"36568abe","revokeAnyRole(bytes32,address,bool)":"d3243ad8","revokeRole(bytes32,address)":"d547741f","supportsInterface(bytes4)":"01ffc9a7"}}}}}