{"contracts/utils/Maths.sol":{"Maths":{"abi":[{"inputs":[{"internalType":"uint256","name":"a","type":"uint256"},{"internalType":"uint256","name":"b","type":"uint256"}],"name":"ceilUDiv","outputs":[{"internalType":"uint256","name":"","type":"uint256"}],"stateMutability":"pure","type":"function"}],"evm":{"bytecode":{"linkReferences":{},"object":"608060405234801561001057600080fd5b5061032f806100206000396000f3fe608060405234801561001057600080fd5b506004361061002b5760003560e01c8063bf80209114610030575b600080fd5b61004a6004803603810190610045919061019b565b610060565b60405161005791906101ea565b60405180910390f35b60006100766781ec30575acdfcda60c01b61015d565b61008a6782dd669ff696d28260c01b61015d565b61009e67832c73ccbe439b9160c01b61015d565b600082846100ac9190610234565b03610100576100c567a7e29dd6442a81da60c01b61015d565b6100d9677f6e93298effc57760c01b61015d565b6100ed67f79f009c55d6c1fe60c01b61015d565b81836100f99190610294565b9050610157565b61011467c5eb65d730ac892160c01b61015d565b61012867b7c0510cc6ac22c560c01b61015d565b61013c67a46511ac2baa58d960c01b61015d565b6001828461014a9190610294565b61015491906102c5565b90505b92915050565b50565b600080fd5b6000819050919050565b61017881610165565b811461018357600080fd5b50565b6000813590506101958161016f565b92915050565b600080604083850312156101b2576101b1610160565b5b60006101c085828601610186565b92505060206101d185828601610186565b9150509250929050565b6101e481610165565b82525050565b60006020820190506101ff60008301846101db565b92915050565b7f4e487b7100000000000000000000000000000000000000000000000000000000600052601260045260246000fd5b600061023f82610165565b915061024a83610165565b92508261025a57610259610205565b5b828206905092915050565b7f4e487b7100000000000000000000000000000000000000000000000000000000600052601160045260246000fd5b600061029f82610165565b91506102aa83610165565b9250826102ba576102b9610205565b5b828204905092915050565b60006102d082610165565b91506102db83610165565b92508282019050808211156102f3576102f2610265565b5b9291505056fea26469706673582212204837fad61e946e88d062c8dea3c3bb304b73dbdec0dcb94a5719629f939261d564736f6c63430008130033","opcodes":"PUSH1 0x80 PUSH1 0x40 MSTORE CALLVALUE DUP1 ISZERO PUSH2 0x10 JUMPI PUSH1 0x0 DUP1 REVERT JUMPDEST POP PUSH2 0x32F DUP1 PUSH2 0x20 PUSH1 0x0 CODECOPY PUSH1 0x0 RETURN INVALID PUSH1 0x80 PUSH1 0x40 MSTORE CALLVALUE DUP1 ISZERO PUSH2 0x10 JUMPI PUSH1 0x0 DUP1 REVERT JUMPDEST POP PUSH1 0x4 CALLDATASIZE LT PUSH2 0x2B JUMPI PUSH1 0x0 CALLDATALOAD PUSH1 0xE0 SHR DUP1 PUSH4 0xBF802091 EQ PUSH2 0x30 JUMPI JUMPDEST PUSH1 0x0 DUP1 REVERT JUMPDEST PUSH2 0x4A PUSH1 0x4 DUP1 CALLDATASIZE SUB DUP2 ADD SWAP1 PUSH2 0x45 SWAP2 SWAP1 PUSH2 0x19B JUMP JUMPDEST PUSH2 0x60 JUMP JUMPDEST PUSH1 0x40 MLOAD PUSH2 0x57 SWAP2 SWAP1 PUSH2 0x1EA JUMP JUMPDEST PUSH1 0x40 MLOAD DUP1 SWAP2 SUB SWAP1 RETURN JUMPDEST PUSH1 0x0 PUSH2 0x76 PUSH8 0x81EC30575ACDFCDA PUSH1 0xC0 SHL PUSH2 0x15D JUMP JUMPDEST PUSH2 0x8A PUSH8 0x82DD669FF696D282 PUSH1 0xC0 SHL PUSH2 0x15D JUMP JUMPDEST PUSH2 0x9E PUSH8 0x832C73CCBE439B91 PUSH1 0xC0 SHL PUSH2 0x15D JUMP JUMPDEST PUSH1 0x0 DUP3 DUP5 PUSH2 0xAC SWAP2 SWAP1 PUSH2 0x234 JUMP JUMPDEST SUB PUSH2 0x100 JUMPI PUSH2 0xC5 PUSH8 0xA7E29DD6442A81DA PUSH1 0xC0 SHL PUSH2 0x15D JUMP JUMPDEST PUSH2 0xD9 PUSH8 0x7F6E93298EFFC577 PUSH1 0xC0 SHL PUSH2 0x15D JUMP JUMPDEST PUSH2 0xED PUSH8 0xF79F009C55D6C1FE PUSH1 0xC0 SHL PUSH2 0x15D JUMP JUMPDEST DUP2 DUP4 PUSH2 0xF9 SWAP2 SWAP1 PUSH2 0x294 JUMP JUMPDEST SWAP1 POP PUSH2 0x157 JUMP JUMPDEST PUSH2 0x114 PUSH8 0xC5EB65D730AC8921 PUSH1 0xC0 SHL PUSH2 0x15D JUMP JUMPDEST PUSH2 0x128 PUSH8 0xB7C0510CC6AC22C5 PUSH1 0xC0 SHL PUSH2 0x15D JUMP JUMPDEST PUSH2 0x13C PUSH8 0xA46511AC2BAA58D9 PUSH1 0xC0 SHL PUSH2 0x15D JUMP JUMPDEST PUSH1 0x1 DUP3 DUP5 PUSH2 0x14A SWAP2 SWAP1 PUSH2 0x294 JUMP JUMPDEST PUSH2 0x154 SWAP2 SWAP1 PUSH2 0x2C5 JUMP JUMPDEST SWAP1 POP JUMPDEST SWAP3 SWAP2 POP POP JUMP JUMPDEST POP JUMP JUMPDEST PUSH1 0x0 DUP1 REVERT JUMPDEST PUSH1 0x0 DUP2 SWAP1 POP SWAP2 SWAP1 POP JUMP JUMPDEST PUSH2 0x178 DUP2 PUSH2 0x165 JUMP JUMPDEST DUP2 EQ PUSH2 0x183 JUMPI PUSH1 0x0 DUP1 REVERT JUMPDEST POP JUMP JUMPDEST PUSH1 0x0 DUP2 CALLDATALOAD SWAP1 POP PUSH2 0x195 DUP2 PUSH2 0x16F JUMP JUMPDEST SWAP3 SWAP2 POP POP JUMP JUMPDEST PUSH1 0x0 DUP1 PUSH1 0x40 DUP4 DUP6 SUB SLT ISZERO PUSH2 0x1B2 JUMPI PUSH2 0x1B1 PUSH2 0x160 JUMP JUMPDEST JUMPDEST PUSH1 0x0 PUSH2 0x1C0 DUP6 DUP3 DUP7 ADD PUSH2 0x186 JUMP JUMPDEST SWAP3 POP POP PUSH1 0x20 PUSH2 0x1D1 DUP6 DUP3 DUP7 ADD PUSH2 0x186 JUMP JUMPDEST SWAP2 POP POP SWAP3 POP SWAP3 SWAP1 POP JUMP JUMPDEST PUSH2 0x1E4 DUP2 PUSH2 0x165 JUMP JUMPDEST DUP3 MSTORE POP POP JUMP JUMPDEST PUSH1 0x0 PUSH1 0x20 DUP3 ADD SWAP1 POP PUSH2 0x1FF PUSH1 0x0 DUP4 ADD DUP5 PUSH2 0x1DB JUMP JUMPDEST SWAP3 SWAP2 POP POP JUMP JUMPDEST PUSH32 0x4E487B7100000000000000000000000000000000000000000000000000000000 PUSH1 0x0 MSTORE PUSH1 0x12 PUSH1 0x4 MSTORE PUSH1 0x24 PUSH1 0x0 REVERT JUMPDEST PUSH1 0x0 PUSH2 0x23F DUP3 PUSH2 0x165 JUMP JUMPDEST SWAP2 POP PUSH2 0x24A DUP4 PUSH2 0x165 JUMP JUMPDEST SWAP3 POP DUP3 PUSH2 0x25A JUMPI PUSH2 0x259 PUSH2 0x205 JUMP JUMPDEST JUMPDEST DUP3 DUP3 MOD SWAP1 POP SWAP3 SWAP2 POP POP JUMP JUMPDEST PUSH32 0x4E487B7100000000000000000000000000000000000000000000000000000000 PUSH1 0x0 MSTORE PUSH1 0x11 PUSH1 0x4 MSTORE PUSH1 0x24 PUSH1 0x0 REVERT JUMPDEST PUSH1 0x0 PUSH2 0x29F DUP3 PUSH2 0x165 JUMP JUMPDEST SWAP2 POP PUSH2 0x2AA DUP4 PUSH2 0x165 JUMP JUMPDEST SWAP3 POP DUP3 PUSH2 0x2BA JUMPI PUSH2 0x2B9 PUSH2 0x205 JUMP JUMPDEST JUMPDEST DUP3 DUP3 DIV SWAP1 POP SWAP3 SWAP2 POP POP JUMP JUMPDEST PUSH1 0x0 PUSH2 0x2D0 DUP3 PUSH2 0x165 JUMP JUMPDEST SWAP2 POP PUSH2 0x2DB DUP4 PUSH2 0x165 JUMP JUMPDEST SWAP3 POP DUP3 DUP3 ADD SWAP1 POP DUP1 DUP3 GT ISZERO PUSH2 0x2F3 JUMPI PUSH2 0x2F2 PUSH2 0x265 JUMP JUMPDEST JUMPDEST SWAP3 SWAP2 POP POP JUMP INVALID LOG2 PUSH5 0x6970667358 0x22 SLT KECCAK256 BASEFEE CALLDATACOPY STATICCALL 0xD6 0x1E SWAP5 PUSH15 0x88D062C8DEA3C3BB304B73DBDEC0DC 0xB9 0x4A JUMPI NOT PUSH3 0x9F9392 PUSH2 0xD564 PUSH20 0x6F6C634300081300330000000000000000000000 "},"methodIdentifiers":{"ceilUDiv(uint256,uint256)":"bf802091"}}}}}