{"contracts/Certifications.sol":{"Certifications":{"abi":[{"inputs":[{"internalType":"address","name":"certifier_admin1","type":"address"},{"internalType":"address","name":"certifier_admin2","type":"address"}],"stateMutability":"nonpayable","type":"constructor"},{"anonymous":false,"inputs":[{"indexed":true,"internalType":"bytes32","name":"role","type":"bytes32"},{"indexed":true,"internalType":"bytes32","name":"previousAdminRole","type":"bytes32"},{"indexed":true,"internalType":"bytes32","name":"newAdminRole","type":"bytes32"}],"name":"RoleAdminChanged","type":"event"},{"anonymous":false,"inputs":[{"indexed":true,"internalType":"bytes32","name":"role","type":"bytes32"},{"indexed":true,"internalType":"address","name":"account","type":"address"},{"indexed":true,"internalType":"address","name":"sender","type":"address"}],"name":"RoleGranted","type":"event"},{"anonymous":false,"inputs":[{"indexed":true,"internalType":"bytes32","name":"role","type":"bytes32"},{"indexed":true,"internalType":"address","name":"account","type":"address"},{"indexed":true,"internalType":"address","name":"sender","type":"address"}],"name":"RoleRevoked","type":"event"},{"anonymous":false,"inputs":[{"indexed":false,"internalType":"uint256","name":"studentId","type":"uint256"},{"indexed":false,"internalType":"enum Certifications.appreciation","name":"appreciation","type":"uint8"},{"indexed":false,"internalType":"enum Certifications.degree","name":"degree","type":"uint8"},{"indexed":false,"internalType":"enum Certifications.program","name":"program","type":"uint8"}],"name":"certificationEmited","type":"event"},{"anonymous":false,"inputs":[{"indexed":false,"internalType":"bytes32","name":"multiSigName","type":"bytes32"}],"name":"multiSigCleared","type":"event"},{"anonymous":false,"inputs":[{"indexed":false,"internalType":"bytes32","name":"multiSigName","type":"bytes32"}],"name":"multiSigSigned","type":"event"},{"inputs":[],"name":"CERTIFIER","outputs":[{"internalType":"bytes32","name":"","type":"bytes32"}],"stateMutability":"view","type":"function"},{"inputs":[],"name":"CERTIFIER_ADMIN","outputs":[{"internalType":"bytes32","name":"","type":"bytes32"}],"stateMutability":"view","type":"function"},{"inputs":[],"name":"DEFAULT_ADMIN_ROLE","outputs":[{"internalType":"bytes32","name":"","type":"bytes32"}],"stateMutability":"view","type":"function"},{"inputs":[],"name":"MAX_CERTIFIERS","outputs":[{"internalType":"uint8","name":"","type":"uint8"}],"stateMutability":"view","type":"function"},{"inputs":[],"name":"MAX_CERTIFIERS_ADMIN","outputs":[{"internalType":"uint8","name":"","type":"uint8"}],"stateMutability":"view","type":"function"},{"inputs":[],"name":"MIN_CERTIFIERS_ADMIN","outputs":[{"internalType":"uint8","name":"","type":"uint8"}],"stateMutability":"view","type":"function"},{"inputs":[],"name":"PERCENT_TO_CERTIFY","outputs":[{"internalType":"uint8","name":"","type":"uint8"}],"stateMutability":"view","type":"function"},{"inputs":[],"name":"PERCENT_TO_EDIT_CERTIFICATE","outputs":[{"internalType":"uint8","name":"","type":"uint8"}],"stateMutability":"view","type":"function"},{"inputs":[],"name":"PERCENT_TO_GRANT_CERTIFIER","outputs":[{"internalType":"uint8","name":"","type":"uint8"}],"stateMutability":"view","type":"function"},{"inputs":[],"name":"PERCENT_TO_GRANT_CERTIFIER_ADMIN","outputs":[{"internalType":"uint8","name":"","type":"uint8"}],"stateMutability":"view","type":"function"},{"inputs":[],"name":"PERCENT_TO_REVOKE_CERTIFIER","outputs":[{"internalType":"uint8","name":"","type":"uint8"}],"stateMutability":"view","type":"function"},{"inputs":[],"name":"PERCENT_TO_REVOKE_CERTIFIER_ADMIN","outputs":[{"internalType":"uint8","name":"","type":"uint8"}],"stateMutability":"view","type":"function"},{"inputs":[{"internalType":"uint256","name":"a","type":"uint256"},{"internalType":"uint256","name":"b","type":"uint256"}],"name":"ceilUDiv","outputs":[{"internalType":"uint256","name":"","type":"uint256"}],"stateMutability":"pure","type":"function"},{"inputs":[{"internalType":"bytes32","name":"","type":"bytes32"}],"name":"certificates","outputs":[{"internalType":"enum Certifications.appreciation","name":"appreciation","type":"uint8"},{"internalType":"enum Certifications.degree","name":"degree","type":"uint8"},{"internalType":"enum Certifications.program","name":"program","type":"uint8"},{"internalType":"uint256","name":"emition_date","type":"uint256"},{"internalType":"bool","name":"validity","type":"bool"},{"internalType":"uint256","name":"stud_id","type":"uint256"}],"stateMutability":"view","type":"function"},{"inputs":[{"internalType":"uint256","name":"studentId","type":"uint256"},{"internalType":"enum Certifications.appreciation","name":"app","type":"uint8"},{"internalType":"enum Certifications.degree","name":"deg","type":"uint8"},{"internalType":"enum Certifications.program","name":"prog","type":"uint8"},{"internalType":"bool","name":"approve","type":"bool"}],"name":"certify","outputs":[],"stateMutability":"nonpayable","type":"function"},{"inputs":[{"internalType":"uint256","name":"studentId","type":"uint256"},{"internalType":"enum Certifications.appreciation","name":"app","type":"uint8"},{"internalType":"enum Certifications.degree","name":"deg","type":"uint8"},{"internalType":"enum Certifications.program","name":"prog","type":"uint8"},{"internalType":"bool","name":"approve","type":"bool"}],"name":"deleteCertificate","outputs":[],"stateMutability":"nonpayable","type":"function"},{"inputs":[{"internalType":"bytes32","name":"role","type":"bytes32"}],"name":"getRoleAdmin","outputs":[{"internalType":"bytes32","name":"","type":"bytes32"}],"stateMutability":"view","type":"function"},{"inputs":[{"internalType":"bytes32","name":"roleHash","type":"bytes32"},{"internalType":"address","name":"target","type":"address"},{"internalType":"bool","name":"approve","type":"bool"}],"name":"grantAnyRole","outputs":[],"stateMutability":"nonpayable","type":"function"},{"inputs":[{"internalType":"bytes32","name":"role","type":"bytes32"},{"internalType":"address","name":"account","type":"address"}],"name":"grantRole","outputs":[],"stateMutability":"nonpayable","type":"function"},{"inputs":[{"internalType":"bytes32","name":"role","type":"bytes32"},{"internalType":"address","name":"account","type":"address"}],"name":"hasRole","outputs":[{"internalType":"bool","name":"","type":"bool"}],"stateMutability":"view","type":"function"},{"inputs":[{"internalType":"bytes32","name":"","type":"bytes32"}],"name":"multiSig","outputs":[{"internalType":"bool","name":"created","type":"bool"},{"internalType":"bytes32","name":"role","type":"bytes32"},{"internalType":"uint8","name":"count","type":"uint8"},{"internalType":"uint8","name":"id","type":"uint8"},{"internalType":"string","name":"info","type":"string"}],"stateMutability":"view","type":"function"},{"inputs":[{"internalType":"uint256","name":"","type":"uint256"}],"name":"multiSigId","outputs":[{"internalType":"bytes32","name":"","type":"bytes32"}],"stateMutability":"view","type":"function"},{"inputs":[{"internalType":"bytes32","name":"","type":"bytes32"},{"internalType":"address","name":"","type":"address"}],"name":"renounceRole","outputs":[],"stateMutability":"nonpayable","type":"function"},{"inputs":[{"internalType":"bytes32","name":"roleHash","type":"bytes32"},{"internalType":"address","name":"target","type":"address"},{"internalType":"bool","name":"approve","type":"bool"}],"name":"revokeAnyRole","outputs":[],"stateMutability":"nonpayable","type":"function"},{"inputs":[{"internalType":"bytes32","name":"role","type":"bytes32"},{"internalType":"address","name":"account","type":"address"}],"name":"revokeRole","outputs":[],"stateMutability":"nonpayable","type":"function"},{"inputs":[{"internalType":"bytes4","name":"interfaceId","type":"bytes4"}],"name":"supportsInterface","outputs":[{"internalType":"bool","name":"","type":"bool"}],"stateMutability":"view","type":"function"}],"evm":{"bytecode":{"linkReferences":{},"object":"60806040523480156200001157600080fd5b506040516200692e3803806200692e83398181016040528101906200003791906200099c565b6200005367213863767febee4a60c01b620007b660201b60201c565b6200006f672d86523e849fc68d60c01b620007b660201b60201c565b6200008b67689f9d36814699ed60c01b620007b660201b60201c565b620000a767f194d1ffc0447ea960c01b620007b660201b60201c565b600073ffffffffffffffffffffffffffffffffffffffff168273ffffffffffffffffffffffffffffffffffffffff160362000119576040517f08c379a0000000000000000000000000000000000000000000000000000000008152600401620001109062000a6a565b60405180910390fd5b620001356789a333387d41a6b660c01b620007b660201b60201c565b62000151675da07d83cb2bab9d60c01b620007b660201b60201c565b6200016d67f25ac83becfb3ba860c01b620007b660201b60201c565b6200018967386935278dae822660c01b620007b660201b60201c565b600073ffffffffffffffffffffffffffffffffffffffff168173ffffffffffffffffffffffffffffffffffffffff1603620001fb576040517f08c379a0000000000000000000000000000000000000000000000000000000008152600401620001f29062000b02565b60405180910390fd5b6200021767ccb3b5b8af78b2cb60c01b620007b660201b60201c565b6200023367e0f5824ede3cb57d60c01b620007b660201b60201c565b6200024f67f4b14bead3785a6660c01b620007b660201b60201c565b6200026b6743d8ba5b87e2e64860c01b620007b660201b60201c565b8073ffffffffffffffffffffffffffffffffffffffff168273ffffffffffffffffffffffffffffffffffffffff1603620002dc576040517f08c379a0000000000000000000000000000000000000000000000000000000008152600401620002d39062000b9a565b60405180910390fd5b620002f8675882f3b1b847165d60c01b620007b660201b60201c565b6200031467ec6dbc09e6a8d3c360c01b620007b660201b60201c565b620003306787fec01562de0d7760c01b620007b660201b60201c565b620003627f4bbeb6fd3e5222e55f2f8b0c35bc228e0a06a25d0da772fdb02c3b92fa004f8883620007b960201b60201c565b6200037e67b815fa764d360f8060c01b620007b660201b60201c565b6200039a676c848ca2d28cc2e760c01b620007b660201b60201c565b620003cc7f4bbeb6fd3e5222e55f2f8b0c35bc228e0a06a25d0da772fdb02c3b92fa004f8882620007cf60201b60201c565b620003e86762a5c10409c68fa660c01b620007b660201b60201c565b6040518060e00160405280600263ffffffff168152602001600260ff1663ffffffff168152602001600f60ff1663ffffffff168152602001605060ff168152602001605060ff1681526020017f4bbeb6fd3e5222e55f2f8b0c35bc228e0a06a25d0da772fdb02c3b92fa004f8881526020016040516020016200046b9062000c17565b604051602081830303815290604052620004859062000c77565b815250600160007f4bbeb6fd3e5222e55f2f8b0c35bc228e0a06a25d0da772fdb02c3b92fa004f88815260200190815260200160002060008201518160000160006101000a81548163ffffffff021916908363ffffffff16021790555060208201518160000160046101000a81548163ffffffff021916908363ffffffff16021790555060408201518160000160086101000a81548163ffffffff021916908363ffffffff160217905550606082015181600001600c6101000a81548160ff021916908360ff160217905550608082015181600001600d6101000a81548160ff021916908360ff16021790555060a0820151816001015560c08201518160020155905050620005a56767be7bcfb8b646a360c01b620007b660201b60201c565b620005c167ab4b51ef7195398660c01b620007b660201b60201c565b620005f47fd646ae07eb0d0f77457502a65e7407930dff4cd4fd99abc6aac87a753f4c8a426000620007b960201b60201c565b620006106745513953a8aaed3b60c01b620007b660201b60201c565b6040518060e00160405280600063ffffffff168152602001600063ffffffff168152602001600f60ff1663ffffffff168152602001605060ff168152602001605060ff1681526020017f4bbeb6fd3e5222e55f2f8b0c35bc228e0a06a25d0da772fdb02c3b92fa004f888152602001604051602001620006909062000d37565b604051602081830303815290604052620006aa9062000c77565b815250600160007fd646ae07eb0d0f77457502a65e7407930dff4cd4fd99abc6aac87a753f4c8a42815260200190815260200160002060008201518160000160006101000a81548163ffffffff021916908363ffffffff16021790555060208201518160000160046101000a81548163ffffffff021916908363ffffffff16021790555060408201518160000160086101000a81548163ffffffff021916908363ffffffff160217905550606082015181600001600c6101000a81548160ff021916908360ff160217905550608082015181600001600d6101000a81548160ff021916908360ff16021790555060a0820151816001015560c08201518160020155905050505062000d4e565b50565b620007cb8282620007cf60201b60201c565b5050565b620007e18282620008c060201b60201c565b620008bc57600160008084815260200190815260200160002060000160008373ffffffffffffffffffffffffffffffffffffffff1673ffffffffffffffffffffffffffffffffffffffff16815260200190815260200160002060006101000a81548160ff021916908315150217905550620008616200092a60201b60201c565b73ffffffffffffffffffffffffffffffffffffffff168173ffffffffffffffffffffffffffffffffffffffff16837f2f8788117e7eff1d82e926ec794901d17c78024a50270940304540a733656f0d60405160405180910390a45b5050565b600080600084815260200190815260200160002060000160008373ffffffffffffffffffffffffffffffffffffffff1673ffffffffffffffffffffffffffffffffffffffff16815260200190815260200160002060009054906101000a900460ff16905092915050565b600033905090565b600080fd5b600073ffffffffffffffffffffffffffffffffffffffff82169050919050565b6000620009648262000937565b9050919050565b620009768162000957565b81146200098257600080fd5b50565b60008151905062000996816200096b565b92915050565b60008060408385031215620009b657620009b562000932565b5b6000620009c68582860162000985565b9250506020620009d98582860162000985565b9150509250929050565b600082825260208201905092915050565b7f4365727469666965722061646d696e3120616464726573732063616e6e6f742060008201527f6265203000000000000000000000000000000000000000000000000000000000602082015250565b600062000a52602483620009e3565b915062000a5f82620009f4565b604082019050919050565b6000602082019050818103600083015262000a858162000a43565b9050919050565b7f4365727469666965722061646d696e3220616464726573732063616e6e6f742060008201527f6265203000000000000000000000000000000000000000000000000000000000602082015250565b600062000aea602483620009e3565b915062000af78262000a8c565b604082019050919050565b6000602082019050818103600083015262000b1d8162000adb565b9050919050565b7f436572746966696572206164647265737365732063616e6e6f7420626520746860008201527f652073616d650000000000000000000000000000000000000000000000000000602082015250565b600062000b82602683620009e3565b915062000b8f8262000b24565b604082019050919050565b6000602082019050818103600083015262000bb58162000b73565b9050919050565b600081905092915050565b7f4345525449464945525f41444d494e0000000000000000000000000000000000600082015250565b600062000bff600f8362000bbc565b915062000c0c8262000bc7565b600f82019050919050565b600062000c248262000bf0565b9150819050919050565b600081519050919050565b6000819050602082019050919050565b6000819050919050565b600062000c61825162000c49565b80915050919050565b600082821b905092915050565b600062000c848262000c2e565b8262000c908462000c39565b905062000c9d8162000c53565b9250602082101562000ce05762000cdb7fffffffffffffffffffffffffffffffffffffffffffffffffffffffffffffffff8360200360080262000c6a565b831692505b5050919050565b7f4345525449464945520000000000000000000000000000000000000000000000600082015250565b600062000d1f60098362000bbc565b915062000d2c8262000ce7565b600982019050919050565b600062000d448262000d10565b9150819050919050565b615bd08062000d5e6000396000f3fe608060405234801561001057600080fd5b506004361061018e5760003560e01c8063742f0688116100de578063a217fddf11610097578063bf80209111610071578063bf80209114610492578063d3243ad8146104c2578063d547741f146104de578063e05f2fb4146104fa5761018e565b8063a217fddf1461043a578063ace8191014610458578063b86bc74f146104745761018e565b8063742f06881461034d5780637cd29fb7146103825780638856a0e9146103a057806391d14854146103bc5780639dd09a73146103ec5780639e3399091461041c5761018e565b80632f2ff15d1161014b5780634da11a20116101255780634da11a20146102d75780635907ebea146102f55780636bc6421b14610313578063719129be146103315761018e565b80632f2ff15d1461028157806333b72e491461029d57806336568abe146102bb5761018e565b806301ffc9a7146101935780630f68794a146101c35780631a968069146101e15780631a9cfe2814610215578063248a9ca3146102335780632cd94e4f14610263575b600080fd5b6101ad60048036038101906101a891906140c8565b610518565b6040516101ba9190614110565b60405180910390f35b6101cb610592565b6040516101d89190614147565b60405180910390f35b6101fb60048036038101906101f69190614198565b610597565b60405161020c959493929190614264565b60405180910390f35b61021d61067c565b60405161022a9190614147565b60405180910390f35b61024d60048036038101906102489190614198565b610681565b60405161025a91906142be565b60405180910390f35b61026b6106a0565b6040516102789190614147565b60405180910390f35b61029b60048036038101906102969190614337565b6106a5565b005b6102a56106c6565b6040516102b29190614147565b60405180910390f35b6102d560048036038101906102d09190614337565b6106cb565b005b6102df610742565b6040516102ec9190614147565b60405180910390f35b6102fd610747565b60405161030a9190614147565b60405180910390f35b61031b61074c565b6040516103289190614147565b60405180910390f35b61034b600480360381019061034691906143a3565b610751565b005b61036760048036038101906103629190614198565b610fd5565b60405161037996959493929190614516565b60405180910390f35b61038a611045565b6040516103979190614147565b60405180910390f35b6103ba60048036038101906103b59190614612565b61104a565b005b6103d660048036038101906103d19190614337565b611a63565b6040516103e39190614110565b60405180910390f35b6104066004803603810190610401919061468d565b611acd565b60405161041391906142be565b60405180910390f35b610424611ae5565b6040516104319190614147565b60405180910390f35b610442611aea565b60405161044f91906142be565b60405180910390f35b610472600480360381019061046d9190614612565b611af1565b005b61047c6124cf565b60405161048991906142be565b60405180910390f35b6104ac60048036038101906104a791906146ba565b6124f3565b6040516104b991906146fa565b60405180910390f35b6104dc60048036038101906104d791906143a3565b6125f0565b005b6104f860048036038101906104f39190614337565b6131b3565b005b6105026131d4565b60405161050f91906142be565b60405180910390f35b60007f7965db0b000000000000000000000000000000000000000000000000000000007bffffffffffffffffffffffffffffffffffffffffffffffffffffffff1916827bffffffffffffffffffffffffffffffffffffffffffffffffffffffff1916148061058b575061058a826131f8565b5b9050919050565b605081565b60026020528060005260406000206000915090508060000160009054906101000a900460ff16908060010154908060020160009054906101000a900460ff16908060020160019054906101000a900460ff16908060050180546105f990614744565b80601f016020809104026020016040519081016040528092919081815260200182805461062590614744565b80156106725780601f1061064757610100808354040283529160200191610672565b820191906000526020600020905b81548152906001019060200180831161065557829003601f168201915b5050505050905085565b605081565b6000806000838152602001908152602001600020600101549050919050565b605081565b6106ae82610681565b6106b781613262565b6106c18383613276565b505050565b600281565b6106df67515d414290ef63a760c01b613356565b6106f367408d4005470649cf60c01b613356565b610707679c54a3cc10a34a3d60c01b613356565b6040517f08c379a0000000000000000000000000000000000000000000000000000000008152600401610739906147e7565b60405180910390fd5b605081565b600f81565b603381565b61076567e5a91bfc65f0c4b160c01b613356565b610779674900a3687504079c60c01b613356565b61078d674fce23ae6bb9dc7f60c01b613356565b60006001600085815260200190815260200160002090506107b867a37f82e1ae7b555d60c01b613356565b6107cc67db9f0c54e294074460c01b613356565b6107e067e392881a64b85dd960c01b613356565b8060000160009054906101000a900463ffffffff1663ffffffff168160000160089054906101000a900463ffffffff1663ffffffff1611816002015460405160200161082c9190614828565b60405160208183030381529060405260405160200161084b91906148cb565b6040516020818303038152906040529061089b576040517f08c379a00000000000000000000000000000000000000000000000000000000081526004016108929190614900565b60405180910390fd5b506108b0673b69b5f7da0fc98560c01b613356565b6108c46739878fdc39193a5c60c01b613356565b6108d867efd429d53dea246260c01b613356565b6108ec67ef5c68bad402a4e060c01b613356565b6108fa816001015433611a63565b816002015460405160200161090f9190614828565b60405160208183030381529060405260405160200161092e919061496e565b6040516020818303038152906040529061097e576040517f08c379a00000000000000000000000000000000000000000000000000000000081526004016109759190614900565b60405180910390fd5b5061099367b55b9f6d9d1026af60c01b613356565b6109a767c7765049f91a4ef760c01b613356565b6109bb67a6d489319a22f36060c01b613356565b6109cf67a5644b271bdebd0560c01b613356565b600015156109dd8585611a63565b15151481600201546040516020016109f59190614828565b604051602081830303815290604052604051602001610a1491906149c9565b60405160208183030381529060405290610a64576040517f08c379a0000000000000000000000000000000000000000000000000000000008152600401610a5b9190614900565b60405180910390fd5b50610a796773766d50c37ae17460c01b613356565b610a8d678b979d26b761488e60c01b613356565b610aa1674773b74ca2dfd97760c01b613356565b60008385604051602001610ab6929190614a83565b604051602081830303815290604052805190602001209050610ae2673a3c8e3b93c77fd760c01b613356565b610af667de5b5a61926c36c960c01b613356565b610b688183600101548460020154604051602001610b149190614828565b60405160208183030381529060405287604051602001610b349190614aba565b604051602081830303815290604052604051602001610b54929190614b21565b604051602081830303815290604052613359565b610b7c67fba333423761151560c01b613356565b610b9067a458fc201c41f2eb60c01b613356565b828015610c015750600015156002600083815260200190815260200160002060030160003373ffffffffffffffffffffffffffffffffffffffff1673ffffffffffffffffffffffffffffffffffffffff16815260200190815260200160002060009054906101000a900460ff161515145b15610cc257610c1a6732e4132dad12190060c01b613356565b610c2e675903462ab1321cac60c01b613356565b610c426795a317ec06f83c1060c01b613356565b610c5e60026000838152602001908152602001600020336134fd565b610c7267b1d4635b098ce77a60c01b613356565b610c8667a0b843672511ab5560c01b613356565b7fb431a69783a2491a0c400ff16dab32cd442abf8fe5af63a526a7248d730192f881604051610cb591906142be565b60405180910390a1610dc8565b610cd6677c7927e4b5bd48f460c01b613356565b610cea67a4ebbaf8faac82d260c01b613356565b6000151583151503610db257610d0a6797b47e77a9a7b3fc60c01b613356565b610d1e67758438fa606727d960c01b613356565b610d3267589e0c39053cad2660c01b613356565b610d4e600260008381526020019081526020016000203361377f565b610d626759de4f2a505f6c6d60c01b613356565b610d76676d4a2d08a14ea23160c01b613356565b7fb431a69783a2491a0c400ff16dab32cd442abf8fe5af63a526a7248d730192f881604051610da591906142be565b60405180910390a1610dc7565b610dc667c3b37424d9c469d060c01b613356565b5b5b610ddc67740ce2464856c2b360c01b613356565b610df0676ae93f6bf114c2f760c01b613356565b610e4a82600001600c9054906101000a900460ff1660ff16600160008560010154815260200190815260200160002060000160009054906101000a900463ffffffff16610e3d9190614ba2565b63ffffffff1660646124f3565b6002600083815260200190815260200160002060020160009054906101000a900460ff1660ff1610610fb957610e8a677a7ed0c4e584401460c01b613356565b610e9e6745d4f9869d13660b60c01b613356565b610eb2671cbdd7add0b2dd5c60c01b613356565b610ecd60026000838152602001908152602001600020613937565b610ee167f2a3b9ba0bc2281e60c01b613356565b610ef5679859be0913bc1e1760c01b613356565b7f562618dbcf74b61ae5b0f229fe40ba6d5b6ae6b4248f8c89a870dda7c77135f681604051610f2491906142be565b60405180910390a1610f40678f5912fc196c66fb60c01b613356565b610f5467d451ad32aab430b860c01b613356565b610f5e8585613276565b610f72672f872260ec70aa8060c01b613356565b60018260000160008282829054906101000a900463ffffffff16610f969190614bdf565b92506101000a81548163ffffffff021916908363ffffffff160217905550610fce565b610fcd67e28d98831e470a0e60c01b613356565b5b5050505050565b60056020528060005260406000206000915090508060000160009054906101000a900460ff16908060000160019054906101000a900460ff16908060000160029054906101000a900460ff16908060010154908060020160009054906101000a900460ff16908060030154905086565b605081565b61105e679e04f1a5c5bda7df60c01b613356565b61107267d618060faf473a2a60c01b613356565b6110866759aacab69e3a1cf860c01b613356565b61109a671f8604b2e035df8c60c01b613356565b6110c47fd646ae07eb0d0f77457502a65e7407930dff4cd4fd99abc6aac87a753f4c8a4233611a63565b611103576040517f08c379a00000000000000000000000000000000000000000000000000000000081526004016110fa90614c63565b60405180910390fd5b611117674341521415b393ff60c01b613356565b61112b673abda3db58ee88d660c01b613356565b61113f67d0a65ecdfb35759e60c01b613356565b61115367fecb9a5516d562ad60c01b613356565b60006003811115611167576111666143f6565b5b84600381111561117a576111796143f6565b5b101580156111ac5750600380811115611196576111956143f6565b5b8460038111156111a9576111a86143f6565b5b11155b6111eb576040517f08c379a00000000000000000000000000000000000000000000000000000000081526004016111e290614ccf565b60405180910390fd5b6111ff6711522e4c80b8acf560c01b613356565b611213675a87c8131b0f347660c01b613356565b61122767b52e37c57f13f03660c01b613356565b61123b67c6bc374fa7feff0160c01b613356565b6000600281111561124f5761124e6143f6565b5b836002811115611262576112616143f6565b5b10158015611294575060028081111561127e5761127d6143f6565b5b836002811115611291576112906143f6565b5b11155b6112d3576040517f08c379a00000000000000000000000000000000000000000000000000000000081526004016112ca90614d3b565b60405180910390fd5b6112e76786ac1e62d24a349860c01b613356565b6112fb679e5c2cdd766b16de60c01b613356565b61130f6753aaaf9320fe18fd60c01b613356565b61132367ab49e147b91272b360c01b613356565b6000600f811115611337576113366143f6565b5b82600f81111561134a576113496143f6565b5b1015801561137c5750600f80811115611366576113656143f6565b5b82600f811115611379576113786143f6565b5b11155b6113bb576040517f08c379a00000000000000000000000000000000000000000000000000000000081526004016113b290614da7565b60405180910390fd5b6113cf679ab8a363c1db47f760c01b613356565b6113e367c80f0b231c338b2d60c01b613356565b6113f7675397bbbeef836ad860c01b613356565b61140b679b6d6670acbbe93360c01b613356565b60011515600560008787878760405160200161142a9493929190614e4c565b60405160208183030381529060405280519060200120815260200190815260200160002060020160009054906101000a900460ff161515146114a1576040517f08c379a000000000000000000000000000000000000000000000000000000000815260040161149890614ee6565b60405180910390fd5b6114b5678dba3cfcdd7ab4ab60c01b613356565b6114c9672e1f532eb4156eb560c01b613356565b6114dd67b763b8910a23efee60c01b613356565b6000858585856040516020016114f69493929190614f52565b60405160208183030381529060405280519060200120905061152267acd6a8c8f4d574b660c01b613356565b611536677697096d64270cdb60c01b613356565b611602817fd646ae07eb0d0f77457502a65e7407930dff4cd4fd99abc6aac87a753f4c8a428860405160200161156c9190614fab565b6040516020818303038152906040528860405160200161158c9190614fc6565b604051602081830303815290604052886040516020016115ac9190614fe1565b604051602081830303815290604052886040516020016115cc9190614ffc565b6040516020818303038152906040526040516020016115ee949392919061503d565b604051602081830303815290604052613359565b611616673318f6946f78197860c01b613356565b61162a67d4c4533d7e9a60a660c01b613356565b81801561169b5750600015156002600083815260200190815260200160002060030160003373ffffffffffffffffffffffffffffffffffffffff1673ffffffffffffffffffffffffffffffffffffffff16815260200190815260200160002060009054906101000a900460ff161515145b1561175c576116b46732954512786739f560c01b613356565b6116c86724bcd6ffdfbd0d4d60c01b613356565b6116dc677338a703ca5a2a9660c01b613356565b6116f860026000838152602001908152602001600020336134fd565b61170c673b1e688b7d79d00d60c01b613356565b611720676bea465bb441461060c01b613356565b7fb431a69783a2491a0c400ff16dab32cd442abf8fe5af63a526a7248d730192f88160405161174f91906142be565b60405180910390a1611862565b61177067e8c1fa74bacd7fbb60c01b613356565b611784671f5319feb6477e3560c01b613356565b600015158215150361184c576117a467f438d58dfb1be18260c01b613356565b6117b8678ef10dcaeac9036f60c01b613356565b6117cc6735f2056c8483d80460c01b613356565b6117e8600260008381526020019081526020016000203361377f565b6117fc67c187d7d65cf65af260c01b613356565b61181067ade7a62c071e519d60c01b613356565b7fb431a69783a2491a0c400ff16dab32cd442abf8fe5af63a526a7248d730192f88160405161183f91906142be565b60405180910390a1611861565b611860675439b2c4cd16482360c01b613356565b5b5b611876672f6377f918fc3e7460c01b613356565b61188a6762c646c22c573f3e60c01b613356565b6118f0605060ff16600160007fd646ae07eb0d0f77457502a65e7407930dff4cd4fd99abc6aac87a753f4c8a42815260200190815260200160002060000160009054906101000a900463ffffffff166118e39190614ba2565b63ffffffff1660646124f3565b6002600083815260200190815260200160002060020160009054906101000a900460ff1660ff1610611a465761193067220ad4741fc3df5d60c01b613356565b6119446799a0b0988af0867760c01b613356565b611958675d49ac61be8ebd7160c01b613356565b61197360026000838152602001908152602001600020613937565b61198767ac18a9a1ec69e6b860c01b613356565b61199b67698bf9a5753ef89160c01b613356565b7f562618dbcf74b61ae5b0f229fe40ba6d5b6ae6b4248f8c89a870dda7c77135f6816040516119ca91906142be565b60405180910390a16119e6674a780f79854977d860c01b613356565b60006005600088888888604051602001611a039493929190614e4c565b60405160208183030381529060405280519060200120815260200190815260200160002060020160006101000a81548160ff021916908315150217905550611a5b565b611a5a6769ad2177cecd222f60c01b613356565b5b505050505050565b600080600084815260200190815260200160002060000160008373ffffffffffffffffffffffffffffffffffffffff1673ffffffffffffffffffffffffffffffffffffffff16815260200190815260200160002060009054906101000a900460ff16905092915050565b60036020528060005260406000206000915090505481565b600f81565b6000801b81565b611b056796129956313adf1b60c01b613356565b611b1967a37df02138054e5260c01b613356565b611b2d67b057154329c49bf860c01b613356565b611b4167e3a8e90515cce0b760c01b613356565b611b6b7fd646ae07eb0d0f77457502a65e7407930dff4cd4fd99abc6aac87a753f4c8a4233611a63565b611baa576040517f08c379a0000000000000000000000000000000000000000000000000000000008152600401611ba190614c63565b60405180910390fd5b611bbe67b5a228e10270e22560c01b613356565b611bd2673ddb288b7f8fde5860c01b613356565b611be66728ffed5c4bbb136d60c01b613356565b611bfa671a14e86b1536e0c460c01b613356565b60006003811115611c0e57611c0d6143f6565b5b846003811115611c2157611c206143f6565b5b10158015611c535750600380811115611c3d57611c3c6143f6565b5b846003811115611c5057611c4f6143f6565b5b11155b611c92576040517f08c379a0000000000000000000000000000000000000000000000000000000008152600401611c8990614ccf565b60405180910390fd5b611ca6678190894182f1322760c01b613356565b611cba675e914cc764a08bdc60c01b613356565b611cce6759cb1221e0215d5e60c01b613356565b611ce2676d76b91fe9de0f8c60c01b613356565b60006002811115611cf657611cf56143f6565b5b836002811115611d0957611d086143f6565b5b10158015611d3b5750600280811115611d2557611d246143f6565b5b836002811115611d3857611d376143f6565b5b11155b611d7a576040517f08c379a0000000000000000000000000000000000000000000000000000000008152600401611d7190614d3b565b60405180910390fd5b611d8e67bdf8a12455256e9760c01b613356565b611da267ed9c0b858915e64660c01b613356565b611db667649bd458a200725760c01b613356565b611dca670b6b16ea080ccdb260c01b613356565b6000600f811115611dde57611ddd6143f6565b5b82600f811115611df157611df06143f6565b5b10158015611e235750600f80811115611e0d57611e0c6143f6565b5b82600f811115611e2057611e1f6143f6565b5b11155b611e62576040517f08c379a0000000000000000000000000000000000000000000000000000000008152600401611e5990614da7565b60405180910390fd5b611e7667689b85ae64f251bf60c01b613356565b611e8a6735e2a6e6763de1be60c01b613356565b611e9e6709e04ae92e1584c060c01b613356565b611eb2672117bb302f321a4960c01b613356565b600015156005600087878787604051602001611ed19493929190614e4c565b60405160208183030381529060405280519060200120815260200190815260200160002060020160009054906101000a900460ff16151514611f48576040517f08c379a0000000000000000000000000000000000000000000000000000000008152600401611f3f90615103565b60405180910390fd5b611f5c67918f30a7fad8441260c01b613356565b611f70679d26a0bcae16f15560c01b613356565b611f846762560a22786c9d8960c01b613356565b600085858585604051602001611f9d949392919061516f565b604051602081830303815290604052805190602001209050611fc9676ad05dd6ad0c5e8e60c01b613356565b611fdd67b018fb771a8f126a60c01b613356565b6120a9817fd646ae07eb0d0f77457502a65e7407930dff4cd4fd99abc6aac87a753f4c8a42886040516020016120139190614fab565b604051602081830303815290604052886040516020016120339190614fc6565b604051602081830303815290604052886040516020016120539190614fe1565b604051602081830303815290604052886040516020016120739190614ffc565b60405160208183030381529060405260405160200161209594939291906151ee565b604051602081830303815290604052613359565b6120bd673838e17e05cad86e60c01b613356565b6120d1673b992ef7312a36a260c01b613356565b8180156121425750600015156002600083815260200190815260200160002060030160003373ffffffffffffffffffffffffffffffffffffffff1673ffffffffffffffffffffffffffffffffffffffff16815260200190815260200160002060009054906101000a900460ff161515145b156122035761215b67d1937d9a9d9ede4b60c01b613356565b61216f67eba93d2f1c3a372560c01b613356565b61218367e583d3490fb5c11a60c01b613356565b61219f60026000838152602001908152602001600020336134fd565b6121b36703c216aef0914c7d60c01b613356565b6121c767e929230dacd39fc460c01b613356565b7fb431a69783a2491a0c400ff16dab32cd442abf8fe5af63a526a7248d730192f8816040516121f691906142be565b60405180910390a1612309565b61221767f0423ad893494d1f60c01b613356565b61222b670e4635f8420cba4d60c01b613356565b60001515821515036122f35761224b67a8f356ae64e80fb260c01b613356565b61225f6787081979864afeae60c01b613356565b612273677547dde3e6de66c160c01b613356565b61228f600260008381526020019081526020016000203361377f565b6122a36776a3d74fa8fa545760c01b613356565b6122b7674ed9ea8c9338f00060c01b613356565b7fb431a69783a2491a0c400ff16dab32cd442abf8fe5af63a526a7248d730192f8816040516122e691906142be565b60405180910390a1612308565b612307679baa3422236fc69f60c01b613356565b5b5b61231d67c5044043363bb23760c01b613356565b61233167bfc6b0f370d7024960c01b613356565b612397603360ff16600160007fd646ae07eb0d0f77457502a65e7407930dff4cd4fd99abc6aac87a753f4c8a42815260200190815260200160002060000160009054906101000a900463ffffffff1661238a9190614ba2565b63ffffffff1660646124f3565b6002600083815260200190815260200160002060020160009054906101000a900460ff1660ff16106124b2576123d7679ccb8433f30b7f6160c01b613356565b6123eb670842a97201189b8b60c01b613356565b6123ff67ca8d401c43f5f9d760c01b613356565b61241a60026000838152602001908152602001600020613937565b61242e67e22dcaa2865f121160c01b613356565b612442674aba95960958e73260c01b613356565b7f562618dbcf74b61ae5b0f229fe40ba6d5b6ae6b4248f8c89a870dda7c77135f68160405161247191906142be565b60405180910390a161248d6730249e749f45b5e460c01b613356565b6124a167374dfd98b823c8cf60c01b613356565b6124ad86868686613a84565b6124c7565b6124c66720270532058f02e560c01b613356565b5b505050505050565b7fd646ae07eb0d0f77457502a65e7407930dff4cd4fd99abc6aac87a753f4c8a4281565b60006125096781ec30575acdfcda60c01b613c83565b61251d6782dd669ff696d28260c01b613c83565b61253167832c73ccbe439b9160c01b613c83565b6000828461253f9190615297565b036125935761255867a7e29dd6442a81da60c01b613c83565b61256c677f6e93298effc57760c01b613c83565b61258067f79f009c55d6c1fe60c01b613c83565b818361258c91906152c8565b90506125ea565b6125a767c5eb65d730ac892160c01b613c83565b6125bb67b7c0510cc6ac22c560c01b613c83565b6125cf67a46511ac2baa58d960c01b613c83565b600182846125dd91906152c8565b6125e791906152f9565b90505b92915050565b6126046770e61a765dfb20aa60c01b613356565b6126186768c3bd0af40a1b5d60c01b613356565b61262c672bc4242ebebe428960c01b613356565b600060016000858152602001908152602001600020905061265767e87324c8c42b714760c01b613356565b61266b672c4d7d6a241e4b8960c01b613356565b61267f67f2f486595854747960c01b613356565b8060000160049054906101000a900463ffffffff1663ffffffff168160000160009054906101000a900463ffffffff1663ffffffff161181600201546040516020016126cb9190614828565b6040516020818303038152906040526040516020016126ea9190615353565b6040516020818303038152906040529061273a576040517f08c379a00000000000000000000000000000000000000000000000000000000081526004016127319190614900565b60405180910390fd5b5061274f678e01888c80102d3760c01b613356565b61276367bc51f865c49130a860c01b613356565b61277767f8b6ac0350413cde60c01b613356565b61278b674f5571dc82a8340f60c01b613356565b6127958484611a63565b81600201546040516020016127aa9190614828565b6040516020818303038152906040526040516020016127c991906153ae565b60405160208183030381529060405290612819576040517f08c379a00000000000000000000000000000000000000000000000000000000081526004016128109190614900565b60405180910390fd5b5061282e67df20ef43cd86120a60c01b613356565b61284267f9332553eceb56d860c01b613356565b612856677d4cea3f8d4622d560c01b613356565b61286a67eb262170ab108a0360c01b613356565b612878816001015433611a63565b816002015460405160200161288d9190614828565b6040516020818303038152906040526040516020016128ac919061496e565b604051602081830303815290604052906128fc576040517f08c379a00000000000000000000000000000000000000000000000000000000081526004016128f39190614900565b60405180910390fd5b5061291167978f6ecc8f60681960c01b613356565b61292567d61646692ed40d1060c01b613356565b61293967281f41604962ef6360c01b613356565b6000838560405160200161294e929190615420565b60405160208183030381529060405280519060200120905061297a6701dc47e9dc7e2d4960c01b613356565b61298e67e00c6e3f0d9a678b60c01b613356565b612a0081836001015484600201546040516020016129ac9190614828565b604051602081830303815290604052876040516020016129cc9190614aba565b6040516020818303038152906040526040516020016129ec92919061547d565b604051602081830303815290604052613359565b612a1467211496b55cb50cff60c01b613356565b612a2867fa27c246eee8a08b60c01b613356565b828015612a995750600015156002600083815260200190815260200160002060030160003373ffffffffffffffffffffffffffffffffffffffff1673ffffffffffffffffffffffffffffffffffffffff16815260200190815260200160002060009054906101000a900460ff161515145b15612b5a57612ab267ba7a7d4f3ff1ed8260c01b613356565b612ac66719a84e662ed6d2e460c01b613356565b612ada67553b9ae776c1ac0760c01b613356565b612af660026000838152602001908152602001600020336134fd565b612b0a6776e3a440f346f78b60c01b613356565b612b1e672fe19dd197ae71b760c01b613356565b7fb431a69783a2491a0c400ff16dab32cd442abf8fe5af63a526a7248d730192f881604051612b4d91906142be565b60405180910390a1612c60565b612b6e674dadad20973e5e5d60c01b613356565b612b8267dcfd845b2fe814ee60c01b613356565b6000151583151503612c4a57612ba26787c8ea0feda3ada560c01b613356565b612bb667124f1dad53c69bc560c01b613356565b612bca676e8d3572b8c8ba0b60c01b613356565b612be6600260008381526020019081526020016000203361377f565b612bfa67ec4e2bcd0646233360c01b613356565b612c0e6771868017dd9ea9a260c01b613356565b7fb431a69783a2491a0c400ff16dab32cd442abf8fe5af63a526a7248d730192f881604051612c3d91906142be565b60405180910390a1612c5f565b612c5e67ab1bd67fcc0dc4e660c01b613356565b5b5b612c746714693ce83117a4a660c01b613356565b612c88671ee91d41820de70160c01b613356565b81600101548514158015612d1b5750612cf182600001600d9054906101000a900460ff1660ff16600160008560010154815260200190815260200160002060000160009054906101000a900463ffffffff16612ce49190614ba2565b63ffffffff1660646124f3565b6002600083815260200190815260200160002060020160009054906101000a900460ff1660ff1610155b8015612d375750612d366765714ee521157c1660c01b613c86565b5b80612df75750816001015485148015612dda5750612db082600001600d9054906101000a900460ff1660ff1660018060008660010154815260200190815260200160002060000160009054906101000a900463ffffffff16612d9991906154bf565b612da39190614ba2565b63ffffffff1660646124f3565b6002600083815260200190815260200160002060020160009054906101000a900460ff1660ff1610155b8015612df65750612df567647b5b224d6b094960c01b613c86565b5b5b1561319757612e106765b7e103c94a229d60c01b613356565b612e246712792db49bd8000860c01b613356565b612e38673a5a274be22801d260c01b613356565b60005b60045481101561306757612e5967493634455e2d80e960c01b613356565b612e6d671175e050037a7c2760c01b613356565b60011515600260006003600085815260200190815260200160002054815260200190815260200160002060030160008773ffffffffffffffffffffffffffffffffffffffff1673ffffffffffffffffffffffffffffffffffffffff16815260200190815260200160002060009054906101000a900460ff161515148015612f1c575085600260006003600085815260200190815260200160002054815260200190815260200160002060010154145b1561303f57612f35675137f0b970b59aa760c01b613356565b612f49677ba3d7ad982f17c160c01b613356565b6001600260006003600085815260200190815260200160002054815260200190815260200160002060020160008282829054906101000a900460ff16612f8f91906154f7565b92506101000a81548160ff021916908360ff160217905550612fbb675ff2fe70f0a1650860c01b613356565b6000600260006003600085815260200190815260200160002054815260200190815260200160002060030160008773ffffffffffffffffffffffffffffffffffffffff1673ffffffffffffffffffffffffffffffffffffffff16815260200190815260200160002060006101000a81548160ff021916908315150217905550613054565b6130536739d9fb6b575ba4e360c01b613356565b5b808061305f9061552c565b915050612e3b565b5061307c67248dca5c34ff865b60c01b613356565b6130906752d84047f7ec1fd860c01b613356565b6130ab60026000838152602001908152602001600020613937565b6130bf67ae030a65c15f875560c01b613356565b6130d3674dbd682bd4fc310660c01b613356565b7f562618dbcf74b61ae5b0f229fe40ba6d5b6ae6b4248f8c89a870dda7c77135f68160405161310291906142be565b60405180910390a161311e6714f96b5406597f9960c01b613356565b613132670df07991caef353d60c01b613356565b61313c8585613c91565b61315067ae62ea1482f5a88360c01b613356565b60018260000160008282829054906101000a900463ffffffff1661317491906154bf565b92506101000a81548163ffffffff021916908363ffffffff1602179055506131ac565b6131ab67163e0e75e54e0c8a60c01b613356565b5b5050505050565b6131bc82610681565b6131c581613262565b6131cf8383613c91565b505050565b7f4bbeb6fd3e5222e55f2f8b0c35bc228e0a06a25d0da772fdb02c3b92fa004f8881565b60007f01ffc9a7000000000000000000000000000000000000000000000000000000007bffffffffffffffffffffffffffffffffffffffffffffffffffffffff1916827bffffffffffffffffffffffffffffffffffffffffffffffffffffffff1916149050919050565b6132738161326e613d72565b613d7a565b50565b6132808282611a63565b61335257600160008084815260200190815260200160002060000160008373ffffffffffffffffffffffffffffffffffffffff1673ffffffffffffffffffffffffffffffffffffffff16815260200190815260200160002060006101000a81548160ff0219169083151502179055506132f7613d72565b73ffffffffffffffffffffffffffffffffffffffff168173ffffffffffffffffffffffffffffffffffffffff16837f2f8788117e7eff1d82e926ec794901d17c78024a50270940304540a733656f0d60405160405180910390a45b5050565b50565b61336d67a0247630c45fc01060c01b613356565b61338167cb56c9dffef6c09b60c01b613356565b613395670f6c466182e7daf460c01b613356565b600015156002600085815260200190815260200160002060000160009054906101000a900460ff161515036134e3576133d86796af1b9e171f5d0c60c01b613356565b6133ec676ea5a5cfdd40ca7760c01b613356565b60016002600085815260200190815260200160002060000160006101000a81548160ff02191690831515021790555061342f6734c805801ad925b460c01b613356565b826003600060045481526020019081526020016000208190555061345d67de2808851ea8535860c01b613356565b60016004600082825461347091906152f9565b9250508190555061348b677ab469cc82d327c160c01b613356565b8160026000858152602001908152602001600020600101819055506134ba6734fccb1c2034803560c01b613356565b806002600085815260200190815260200160002060050190816134dd919061574f565b506134f8565b6134f767fc92d0035d00688e60c01b613356565b5b505050565b61351167ea8284493f6fbf2960c01b613dff565b6135256737d5072686f3bd6060c01b613dff565b6135396766545a946de59f8d60c01b613dff565b61354d6731eaad2fffbc28cf60c01b613dff565b600015158260030160008373ffffffffffffffffffffffffffffffffffffffff1673ffffffffffffffffffffffffffffffffffffffff16815260200190815260200160002060009054906101000a900460ff161515146135e2576040517f08c379a00000000000000000000000000000000000000000000000000000000081526004016135d99061586d565b60405180910390fd5b6135f667f6d6508d26f3f5e560c01b613dff565b61360a67cdae7870d52eb87960c01b613dff565b808260040160008460020160019054906101000a900460ff1660ff16815260200190815260200160002060006101000a81548173ffffffffffffffffffffffffffffffffffffffff021916908373ffffffffffffffffffffffffffffffffffffffff16021790555061368667c2b6f3d8c6b4518560c01b613dff565b81600201600181819054906101000a900460ff16809291906136a79061588d565b91906101000a81548160ff021916908360ff160217905550506136d467683b58ce757835d160c01b613dff565b60018260030160008373ffffffffffffffffffffffffffffffffffffffff1673ffffffffffffffffffffffffffffffffffffffff16815260200190815260200160002060006101000a81548160ff021916908315150217905550613742677eb5646afe662d2b60c01b613dff565b60018260020160008282829054906101000a900460ff1661376391906158b6565b92506101000a81548160ff021916908360ff1602179055505050565b6137936751cd9add8177cb1e60c01b613dff565b6137a7676ebd3423ee3b665a60c01b613dff565b6137bb6769fdcbe1983a162660c01b613dff565b6137cf67ec9d93ff10f153e760c01b613dff565b600115158260030160008373ffffffffffffffffffffffffffffffffffffffff1673ffffffffffffffffffffffffffffffffffffffff16815260200190815260200160002060009054906101000a900460ff16151514613864576040517f08c379a000000000000000000000000000000000000000000000000000000000815260040161385b9061595d565b60405180910390fd5b6138786750584b137311d37460c01b613dff565b61388c6755e8d06217dde6ba60c01b613dff565b60008260030160008373ffffffffffffffffffffffffffffffffffffffff1673ffffffffffffffffffffffffffffffffffffffff16815260200190815260200160002060006101000a81548160ff0219169083151502179055506138fa67b945e5d11d41832a60c01b613dff565b60018260020160008282829054906101000a900460ff1661391b91906154f7565b92506101000a81548160ff021916908360ff1602179055505050565b61394b67343bee6a3141a1f860c01b613dff565b61395f67c55b4c989e4320fa60c01b613dff565b60008160020160006101000a81548160ff021916908360ff16021790555061399167d1d487718112cde860c01b613dff565b6139a567a3de6bd1a15b6e6a60c01b613dff565b60005b8160020160019054906101000a900460ff1660ff168160ff161015613a80576139db67715c20b636ac690e60c01b613dff565b60008260030160008460040160008560ff16815260200190815260200160002060009054906101000a900473ffffffffffffffffffffffffffffffffffffffff1673ffffffffffffffffffffffffffffffffffffffff1673ffffffffffffffffffffffffffffffffffffffff16815260200190815260200160002060006101000a81548160ff0219169083151502179055508080613a789061588d565b9150506139a8565b5050565b613a9867a4e6a19cbfe5167960c01b613356565b613aac675c78a7177eb1a8fb60c01b613356565b6040518060c00160405280846003811115613aca57613ac96143f6565b5b8152602001836002811115613ae257613ae16143f6565b5b815260200182600f811115613afa57613af96143f6565b5b8152602001428152602001600115158152602001858152506005600086868686604051602001613b2d9493929190614e4c565b60405160208183030381529060405280519060200120815260200190815260200160002060008201518160000160006101000a81548160ff02191690836003811115613b7c57613b7b6143f6565b5b021790555060208201518160000160016101000a81548160ff02191690836002811115613bac57613bab6143f6565b5b021790555060408201518160000160026101000a81548160ff0219169083600f811115613bdc57613bdb6143f6565b5b02179055506060820151816001015560808201518160020160006101000a81548160ff02191690831515021790555060a08201518160030155905050613c2c67bf4499ff51c0c22160c01b613356565b613c4067822948be4d3ef9a760c01b613356565b7fb55811dd01470a227956304b027c610c7cdf9dd622dcc47791380261d56dc6ed84848484604051613c75949392919061597d565b60405180910390a150505050565b50565b600060019050919050565b613c9b8282611a63565b15613d6e57600080600084815260200190815260200160002060000160008373ffffffffffffffffffffffffffffffffffffffff1673ffffffffffffffffffffffffffffffffffffffff16815260200190815260200160002060006101000a81548160ff021916908315150217905550613d13613d72565b73ffffffffffffffffffffffffffffffffffffffff168173ffffffffffffffffffffffffffffffffffffffff16837ff6391f5c32d9c69d2a47ea670b442974b53935d1edc7fd64eb21e047a839171b60405160405180910390a45b5050565b600033905090565b613d848282611a63565b613dfb57613d9181613e02565b613d9f8360001c6020613e2f565b604051602001613db0929190615a5a565b6040516020818303038152906040526040517f08c379a0000000000000000000000000000000000000000000000000000000008152600401613df29190614900565b60405180910390fd5b5050565b50565b6060613e288273ffffffffffffffffffffffffffffffffffffffff16601460ff16613e2f565b9050919050565b606060006002836002613e429190615a94565b613e4c91906152f9565b67ffffffffffffffff811115613e6557613e64615574565b5b6040519080825280601f01601f191660200182016040528015613e975781602001600182028036833780820191505090505b5090507f300000000000000000000000000000000000000000000000000000000000000081600081518110613ecf57613ece615ad6565b5b60200101907effffffffffffffffffffffffffffffffffffffffffffffffffffffffffffff1916908160001a9053507f780000000000000000000000000000000000000000000000000000000000000081600181518110613f3357613f32615ad6565b5b60200101907effffffffffffffffffffffffffffffffffffffffffffffffffffffffffffff1916908160001a90535060006001846002613f739190615a94565b613f7d91906152f9565b90505b600181111561401d577f3031323334353637383961626364656600000000000000000000000000000000600f861660108110613fbf57613fbe615ad6565b5b1a60f81b828281518110613fd657613fd5615ad6565b5b60200101907effffffffffffffffffffffffffffffffffffffffffffffffffffffffffffff1916908160001a905350600485901c94508061401690615b05565b9050613f80565b5060008414614061576040517f08c379a000000000000000000000000000000000000000000000000000000000815260040161405890615b7a565b60405180910390fd5b8091505092915050565b600080fd5b60007fffffffff0000000000000000000000000000000000000000000000000000000082169050919050565b6140a581614070565b81146140b057600080fd5b50565b6000813590506140c28161409c565b92915050565b6000602082840312156140de576140dd61406b565b5b60006140ec848285016140b3565b91505092915050565b60008115159050919050565b61410a816140f5565b82525050565b60006020820190506141256000830184614101565b92915050565b600060ff82169050919050565b6141418161412b565b82525050565b600060208201905061415c6000830184614138565b92915050565b6000819050919050565b61417581614162565b811461418057600080fd5b50565b6000813590506141928161416c565b92915050565b6000602082840312156141ae576141ad61406b565b5b60006141bc84828501614183565b91505092915050565b6141ce81614162565b82525050565b600081519050919050565b600082825260208201905092915050565b60005b8381101561420e5780820151818401526020810190506141f3565b60008484015250505050565b6000601f19601f8301169050919050565b6000614236826141d4565b61424081856141df565b93506142508185602086016141f0565b6142598161421a565b840191505092915050565b600060a0820190506142796000830188614101565b61428660208301876141c5565b6142936040830186614138565b6142a06060830185614138565b81810360808301526142b2818461422b565b90509695505050505050565b60006020820190506142d360008301846141c5565b92915050565b600073ffffffffffffffffffffffffffffffffffffffff82169050919050565b6000614304826142d9565b9050919050565b614314816142f9565b811461431f57600080fd5b50565b6000813590506143318161430b565b92915050565b6000806040838503121561434e5761434d61406b565b5b600061435c85828601614183565b925050602061436d85828601614322565b9150509250929050565b614380816140f5565b811461438b57600080fd5b50565b60008135905061439d81614377565b92915050565b6000806000606084860312156143bc576143bb61406b565b5b60006143ca86828701614183565b93505060206143db86828701614322565b92505060406143ec8682870161438e565b9150509250925092565b7f4e487b7100000000000000000000000000000000000000000000000000000000600052602160045260246000fd5b60048110614436576144356143f6565b5b50565b600081905061444782614425565b919050565b600061445782614439565b9050919050565b6144678161444c565b82525050565b6003811061447e5761447d6143f6565b5b50565b600081905061448f8261446d565b919050565b600061449f82614481565b9050919050565b6144af81614494565b82525050565b601081106144c6576144c56143f6565b5b50565b60008190506144d7826144b5565b919050565b60006144e7826144c9565b9050919050565b6144f7816144dc565b82525050565b6000819050919050565b614510816144fd565b82525050565b600060c08201905061452b600083018961445e565b61453860208301886144a6565b61454560408301876144ee565b6145526060830186614507565b61455f6080830185614101565b61456c60a0830184614507565b979650505050505050565b614580816144fd565b811461458b57600080fd5b50565b60008135905061459d81614577565b92915050565b600481106145b057600080fd5b50565b6000813590506145c2816145a3565b92915050565b600381106145d557600080fd5b50565b6000813590506145e7816145c8565b92915050565b601081106145fa57600080fd5b50565b60008135905061460c816145ed565b92915050565b600080600080600060a0868803121561462e5761462d61406b565b5b600061463c8882890161458e565b955050602061464d888289016145b3565b945050604061465e888289016145d8565b935050606061466f888289016145fd565b92505060806146808882890161438e565b9150509295509295909350565b6000602082840312156146a3576146a261406b565b5b60006146b18482850161458e565b91505092915050565b600080604083850312156146d1576146d061406b565b5b60006146df8582860161458e565b92505060206146f08582860161458e565b9150509250929050565b600060208201905061470f6000830184614507565b92915050565b7f4e487b7100000000000000000000000000000000000000000000000000000000600052602260045260246000fd5b6000600282049050600182168061475c57607f821691505b60208210810361476f5761476e614715565b5b50919050565b7f596f752063616e27742072656e6f756e636520746f20796f757220726f6c652e60008201527f20506c6561736520636f6e746163742061646d696e7300000000000000000000602082015250565b60006147d16036836141df565b91506147dc82614775565b604082019050919050565b60006020820190508181036000830152614800816147c4565b9050919050565b6000819050919050565b61482261481d82614162565b614807565b82525050565b60006148348284614811565b60208201915081905092915050565b7f4d61782000000000000000000000000000000000000000000000000000000000815250565b600081905092915050565b600061487f826141d4565b6148898185614869565b93506148998185602086016141f0565b80840191505092915050565b7f2072656163686564000000000000000000000000000000000000000000000000815250565b60006148d682614843565b6004820191506148e68284614874565b91506148f1826148a5565b60088201915081905092915050565b6000602082019050818103600083015261491a818461422b565b905092915050565b7f43616c6c6572206973206e6f7420612000000000000000000000000000000000815250565b7f2061646d696e0000000000000000000000000000000000000000000000000000815250565b600061497982614922565b6010820191506149898284614874565b915061499482614948565b60068201915081905092915050565b7f54686973206164647265737320697320616c7265616479206120000000000000815250565b60006149d4826149a3565b601a820191506149e48284614874565b915081905092915050565b60008160601b9050919050565b6000614a07826149ef565b9050919050565b6000614a19826149fc565b9050919050565b614a31614a2c826142f9565b614a0e565b82525050565b7f4752414e54000000000000000000000000000000000000000000000000000000600082015250565b6000614a6d600583614869565b9150614a7882614a37565b600582019050919050565b6000614a8f8285614a20565b601482019150614a9e82614a60565b9150614aaa8284614811565b6020820191508190509392505050565b6000614ac68284614a20565b60148201915081905092915050565b7f4772616e74200000000000000000000000000000000000000000000000000000815250565b7f2000000000000000000000000000000000000000000000000000000000000000815250565b6000614b2c82614ad5565b600682019150614b3c8285614874565b9150614b4782614afb565b600182019150614b578284614874565b91508190509392505050565b600063ffffffff82169050919050565b7f4e487b7100000000000000000000000000000000000000000000000000000000600052601160045260246000fd5b6000614bad82614b63565b9150614bb883614b63565b9250828202614bc681614b63565b9150808214614bd857614bd7614b73565b5b5092915050565b6000614bea82614b63565b9150614bf583614b63565b9250828201905063ffffffff811115614c1157614c10614b73565b5b92915050565b7f43616c6c6572206973206e6f7420612063657274696669657200000000000000600082015250565b6000614c4d6019836141df565b9150614c5882614c17565b602082019050919050565b60006020820190508181036000830152614c7c81614c40565b9050919050565b7f417070726563696174696f6e206973206e6f742076616c696400000000000000600082015250565b6000614cb96019836141df565b9150614cc482614c83565b602082019050919050565b60006020820190508181036000830152614ce881614cac565b9050919050565b7f446567726565206973206e6f742076616c696400000000000000000000000000600082015250565b6000614d256013836141df565b9150614d3082614cef565b602082019050919050565b60006020820190508181036000830152614d5481614d18565b9050919050565b7f50726f6772616d206973206e6f742076616c6964000000000000000000000000600082015250565b6000614d916014836141df565b9150614d9c82614d5b565b602082019050919050565b60006020820190508181036000830152614dc081614d84565b9050919050565b6000819050919050565b614de2614ddd826144fd565b614dc7565b82525050565b60008160f81b9050919050565b6000614e0082614de8565b9050919050565b614e18614e138261444c565b614df5565b82525050565b614e2f614e2a82614494565b614df5565b82525050565b614e46614e41826144dc565b614df5565b82525050565b6000614e588287614dd1565b602082019150614e688286614e07565b600182019150614e788285614e1e565b600182019150614e888284614e35565b60018201915081905095945050505050565b7f5468697320636572746966696361746520646f65736e27742065786973740000600082015250565b6000614ed0601e836141df565b9150614edb82614e9a565b602082019050919050565b60006020820190508181036000830152614eff81614ec3565b9050919050565b7f44454c4554450000000000000000000000000000000000000000000000000000600082015250565b6000614f3c600683614869565b9150614f4782614f06565b600682019050919050565b6000614f5e8287614dd1565b602082019150614f6e8286614e07565b600182019150614f7e8285614e1e565b600182019150614f8e8284614e35565b600182019150614f9d82614f2f565b915081905095945050505050565b6000614fb78284614dd1565b60208201915081905092915050565b6000614fd28284614e07565b60018201915081905092915050565b6000614fed8284614e1e565b60018201915081905092915050565b60006150088284614e35565b60018201915081905092915050565b7f44656c6574652000000000000000000000000000000000000000000000000000815250565b600061504882615017565b6007820191506150588287614874565b915061506382614afb565b6001820191506150738286614874565b915061507e82614afb565b60018201915061508e8285614874565b915061509982614afb565b6001820191506150a98284614874565b915081905095945050505050565b7f5468697320636572746966696361746520616c72656164792065786973747300600082015250565b60006150ed601f836141df565b91506150f8826150b7565b602082019050919050565b6000602082019050818103600083015261511c816150e0565b9050919050565b7f4345525449465900000000000000000000000000000000000000000000000000600082015250565b6000615159600783614869565b915061516482615123565b600782019050919050565b600061517b8287614dd1565b60208201915061518b8286614e07565b60018201915061519b8285614e1e565b6001820191506151ab8284614e35565b6001820191506151ba8261514c565b915081905095945050505050565b7f4365727469667920000000000000000000000000000000000000000000000000815250565b60006151f9826151c8565b6008820191506152098287614874565b915061521482614afb565b6001820191506152248286614874565b915061522f82614afb565b60018201915061523f8285614874565b915061524a82614afb565b60018201915061525a8284614874565b915081905095945050505050565b7f4e487b7100000000000000000000000000000000000000000000000000000000600052601260045260246000fd5b60006152a2826144fd565b91506152ad836144fd565b9250826152bd576152bc615268565b5b828206905092915050565b60006152d3826144fd565b91506152de836144fd565b9250826152ee576152ed615268565b5b828204905092915050565b6000615304826144fd565b915061530f836144fd565b925082820190508082111561532757615326614b73565b5b92915050565b7f4d696e2000000000000000000000000000000000000000000000000000000000815250565b600061535e8261532d565b60048201915061536e8284614874565b9150615379826148a5565b60088201915081905092915050565b7f546869732061646472657373206973206e6f7420612000000000000000000000815250565b60006153b982615388565b6016820191506153c98284614874565b915081905092915050565b7f5245564f4b450000000000000000000000000000000000000000000000000000600082015250565b600061540a600683614869565b9150615415826153d4565b600682019050919050565b600061542c8285614a20565b60148201915061543b826153fd565b91506154478284614811565b6020820191508190509392505050565b7f5265766f6b652000000000000000000000000000000000000000000000000000815250565b600061548882615457565b6007820191506154988285614874565b91506154a382614afb565b6001820191506154b38284614874565b91508190509392505050565b60006154ca82614b63565b91506154d583614b63565b9250828203905063ffffffff8111156154f1576154f0614b73565b5b92915050565b60006155028261412b565b915061550d8361412b565b9250828203905060ff81111561552657615525614b73565b5b92915050565b6000615537826144fd565b91507fffffffffffffffffffffffffffffffffffffffffffffffffffffffffffffffff820361556957615568614b73565b5b600182019050919050565b7f4e487b7100000000000000000000000000000000000000000000000000000000600052604160045260246000fd5b60008190508160005260206000209050919050565b60006020601f8301049050919050565b600082821b905092915050565b6000600883026156057fffffffffffffffffffffffffffffffffffffffffffffffffffffffffffffffff826155c8565b61560f86836155c8565b95508019841693508086168417925050509392505050565b6000819050919050565b600061564c615647615642846144fd565b615627565b6144fd565b9050919050565b6000819050919050565b61566683615631565b61567a61567282615653565b8484546155d5565b825550505050565b600090565b61568f615682565b61569a81848461565d565b505050565b5b818110156156be576156b3600082615687565b6001810190506156a0565b5050565b601f821115615703576156d4816155a3565b6156dd846155b8565b810160208510156156ec578190505b6157006156f8856155b8565b83018261569f565b50505b505050565b600082821c905092915050565b600061572660001984600802615708565b1980831691505092915050565b600061573f8383615715565b9150826002028217905092915050565b615758826141d4565b67ffffffffffffffff81111561577157615770615574565b5b61577b8254614744565b6157868282856156c2565b600060209050601f8311600181146157b957600084156157a7578287015190505b6157b18582615733565b865550615819565b601f1984166157c7866155a3565b60005b828110156157ef578489015182556001820191506020850194506020810190506157ca565b8683101561580c5784890151615808601f891682615715565b8355505b6001600288020188555050505b505050505050565b7f596f7520616c7265616479207369676e65642074686973206d756c7469736967600082015250565b60006158576020836141df565b915061586282615821565b602082019050919050565b600060208201905081810360008301526158868161584a565b9050919050565b60006158988261412b565b915060ff82036158ab576158aa614b73565b5b600182019050919050565b60006158c18261412b565b91506158cc8361412b565b9250828201905060ff8111156158e5576158e4614b73565b5b92915050565b7f596f752068617665206e6f7465207369676e65642074686973206d756c74697360008201527f6967207965740000000000000000000000000000000000000000000000000000602082015250565b60006159476026836141df565b9150615952826158eb565b604082019050919050565b600060208201905081810360008301526159768161593a565b9050919050565b60006080820190506159926000830187614507565b61599f602083018661445e565b6159ac60408301856144a6565b6159b960608301846144ee565b95945050505050565b7f416363657373436f6e74726f6c3a206163636f756e7420000000000000000000600082015250565b60006159f8601783614869565b9150615a03826159c2565b601782019050919050565b7f206973206d697373696e6720726f6c6520000000000000000000000000000000600082015250565b6000615a44601183614869565b9150615a4f82615a0e565b601182019050919050565b6000615a65826159eb565b9150615a718285614874565b9150615a7c82615a37565b9150615a888284614874565b91508190509392505050565b6000615a9f826144fd565b9150615aaa836144fd565b9250828202615ab8816144fd565b91508282048414831517615acf57615ace614b73565b5b5092915050565b7f4e487b7100000000000000000000000000000000000000000000000000000000600052603260045260246000fd5b6000615b10826144fd565b915060008203615b2357615b22614b73565b5b600182039050919050565b7f537472696e67733a20686578206c656e67746820696e73756666696369656e74600082015250565b6000615b646020836141df565b9150615b6f82615b2e565b602082019050919050565b60006020820190508181036000830152615b9381615b57565b905091905056fea26469706673582212204bb0005dba6de7cec4a66bf32725c28dfa8f5233fa65e3877ed9c7c8b4a5abab64736f6c63430008130033","opcodes":"PUSH1 0x80 PUSH1 0x40 MSTORE CALLVALUE DUP1 ISZERO PUSH3 0x11 JUMPI PUSH1 0x0 DUP1 REVERT JUMPDEST POP PUSH1 0x40 MLOAD PUSH3 0x692E CODESIZE SUB DUP1 PUSH3 0x692E DUP4 CODECOPY DUP2 DUP2 ADD PUSH1 0x40 MSTORE DUP2 ADD SWAP1 PUSH3 0x37 SWAP2 SWAP1 PUSH3 0x99C JUMP JUMPDEST PUSH3 0x53 PUSH8 0x213863767FEBEE4A PUSH1 0xC0 SHL PUSH3 0x7B6 PUSH1 0x20 SHL PUSH1 0x20 SHR JUMP JUMPDEST PUSH3 0x6F PUSH8 0x2D86523E849FC68D PUSH1 0xC0 SHL PUSH3 0x7B6 PUSH1 0x20 SHL PUSH1 0x20 SHR JUMP JUMPDEST PUSH3 0x8B PUSH8 0x689F9D36814699ED PUSH1 0xC0 SHL PUSH3 0x7B6 PUSH1 0x20 SHL PUSH1 0x20 SHR JUMP JUMPDEST PUSH3 0xA7 PUSH8 0xF194D1FFC0447EA9 PUSH1 0xC0 SHL PUSH3 0x7B6 PUSH1 0x20 SHL PUSH1 0x20 SHR JUMP JUMPDEST PUSH1 0x0 PUSH20 0xFFFFFFFFFFFFFFFFFFFFFFFFFFFFFFFFFFFFFFFF AND DUP3 PUSH20 0xFFFFFFFFFFFFFFFFFFFFFFFFFFFFFFFFFFFFFFFF AND SUB PUSH3 0x119 JUMPI PUSH1 0x40 MLOAD PUSH32 0x8C379A000000000000000000000000000000000000000000000000000000000 DUP2 MSTORE PUSH1 0x4 ADD PUSH3 0x110 SWAP1 PUSH3 0xA6A JUMP JUMPDEST PUSH1 0x40 MLOAD DUP1 SWAP2 SUB SWAP1 REVERT JUMPDEST PUSH3 0x135 PUSH8 0x89A333387D41A6B6 PUSH1 0xC0 SHL PUSH3 0x7B6 PUSH1 0x20 SHL PUSH1 0x20 SHR JUMP JUMPDEST PUSH3 0x151 PUSH8 0x5DA07D83CB2BAB9D PUSH1 0xC0 SHL PUSH3 0x7B6 PUSH1 0x20 SHL PUSH1 0x20 SHR JUMP JUMPDEST PUSH3 0x16D PUSH8 0xF25AC83BECFB3BA8 PUSH1 0xC0 SHL PUSH3 0x7B6 PUSH1 0x20 SHL PUSH1 0x20 SHR JUMP JUMPDEST PUSH3 0x189 PUSH8 0x386935278DAE8226 PUSH1 0xC0 SHL PUSH3 0x7B6 PUSH1 0x20 SHL PUSH1 0x20 SHR JUMP JUMPDEST PUSH1 0x0 PUSH20 0xFFFFFFFFFFFFFFFFFFFFFFFFFFFFFFFFFFFFFFFF AND DUP2 PUSH20 0xFFFFFFFFFFFFFFFFFFFFFFFFFFFFFFFFFFFFFFFF AND SUB PUSH3 0x1FB JUMPI PUSH1 0x40 MLOAD PUSH32 0x8C379A000000000000000000000000000000000000000000000000000000000 DUP2 MSTORE PUSH1 0x4 ADD PUSH3 0x1F2 SWAP1 PUSH3 0xB02 JUMP JUMPDEST PUSH1 0x40 MLOAD DUP1 SWAP2 SUB SWAP1 REVERT JUMPDEST PUSH3 0x217 PUSH8 0xCCB3B5B8AF78B2CB PUSH1 0xC0 SHL PUSH3 0x7B6 PUSH1 0x20 SHL PUSH1 0x20 SHR JUMP JUMPDEST PUSH3 0x233 PUSH8 0xE0F5824EDE3CB57D PUSH1 0xC0 SHL PUSH3 0x7B6 PUSH1 0x20 SHL PUSH1 0x20 SHR JUMP JUMPDEST PUSH3 0x24F PUSH8 0xF4B14BEAD3785A66 PUSH1 0xC0 SHL PUSH3 0x7B6 PUSH1 0x20 SHL PUSH1 0x20 SHR JUMP JUMPDEST PUSH3 0x26B PUSH8 0x43D8BA5B87E2E648 PUSH1 0xC0 SHL PUSH3 0x7B6 PUSH1 0x20 SHL PUSH1 0x20 SHR JUMP JUMPDEST DUP1 PUSH20 0xFFFFFFFFFFFFFFFFFFFFFFFFFFFFFFFFFFFFFFFF AND DUP3 PUSH20 0xFFFFFFFFFFFFFFFFFFFFFFFFFFFFFFFFFFFFFFFF AND SUB PUSH3 0x2DC JUMPI PUSH1 0x40 MLOAD PUSH32 0x8C379A000000000000000000000000000000000000000000000000000000000 DUP2 MSTORE PUSH1 0x4 ADD PUSH3 0x2D3 SWAP1 PUSH3 0xB9A JUMP JUMPDEST PUSH1 0x40 MLOAD DUP1 SWAP2 SUB SWAP1 REVERT JUMPDEST PUSH3 0x2F8 PUSH8 0x5882F3B1B847165D PUSH1 0xC0 SHL PUSH3 0x7B6 PUSH1 0x20 SHL PUSH1 0x20 SHR JUMP JUMPDEST PUSH3 0x314 PUSH8 0xEC6DBC09E6A8D3C3 PUSH1 0xC0 SHL PUSH3 0x7B6 PUSH1 0x20 SHL PUSH1 0x20 SHR JUMP JUMPDEST PUSH3 0x330 PUSH8 0x87FEC01562DE0D77 PUSH1 0xC0 SHL PUSH3 0x7B6 PUSH1 0x20 SHL PUSH1 0x20 SHR JUMP JUMPDEST PUSH3 0x362 PUSH32 0x4BBEB6FD3E5222E55F2F8B0C35BC228E0A06A25D0DA772FDB02C3B92FA004F88 DUP4 PUSH3 0x7B9 PUSH1 0x20 SHL PUSH1 0x20 SHR JUMP JUMPDEST PUSH3 0x37E PUSH8 0xB815FA764D360F80 PUSH1 0xC0 SHL PUSH3 0x7B6 PUSH1 0x20 SHL PUSH1 0x20 SHR JUMP JUMPDEST PUSH3 0x39A PUSH8 0x6C848CA2D28CC2E7 PUSH1 0xC0 SHL PUSH3 0x7B6 PUSH1 0x20 SHL PUSH1 0x20 SHR JUMP JUMPDEST PUSH3 0x3CC PUSH32 0x4BBEB6FD3E5222E55F2F8B0C35BC228E0A06A25D0DA772FDB02C3B92FA004F88 DUP3 PUSH3 0x7CF PUSH1 0x20 SHL PUSH1 0x20 SHR JUMP JUMPDEST PUSH3 0x3E8 PUSH8 0x62A5C10409C68FA6 PUSH1 0xC0 SHL PUSH3 0x7B6 PUSH1 0x20 SHL PUSH1 0x20 SHR JUMP JUMPDEST PUSH1 0x40 MLOAD DUP1 PUSH1 0xE0 ADD PUSH1 0x40 MSTORE DUP1 PUSH1 0x2 PUSH4 0xFFFFFFFF AND DUP2 MSTORE PUSH1 0x20 ADD PUSH1 0x2 PUSH1 0xFF AND PUSH4 0xFFFFFFFF AND DUP2 MSTORE PUSH1 0x20 ADD PUSH1 0xF PUSH1 0xFF AND PUSH4 0xFFFFFFFF AND DUP2 MSTORE PUSH1 0x20 ADD PUSH1 0x50 PUSH1 0xFF AND DUP2 MSTORE PUSH1 0x20 ADD PUSH1 0x50 PUSH1 0xFF AND DUP2 MSTORE PUSH1 0x20 ADD PUSH32 0x4BBEB6FD3E5222E55F2F8B0C35BC228E0A06A25D0DA772FDB02C3B92FA004F88 DUP2 MSTORE PUSH1 0x20 ADD PUSH1 0x40 MLOAD PUSH1 0x20 ADD PUSH3 0x46B SWAP1 PUSH3 0xC17 JUMP JUMPDEST PUSH1 0x40 MLOAD PUSH1 0x20 DUP2 DUP4 SUB SUB DUP2 MSTORE SWAP1 PUSH1 0x40 MSTORE PUSH3 0x485 SWAP1 PUSH3 0xC77 JUMP JUMPDEST DUP2 MSTORE POP PUSH1 0x1 PUSH1 0x0 PUSH32 0x4BBEB6FD3E5222E55F2F8B0C35BC228E0A06A25D0DA772FDB02C3B92FA004F88 DUP2 MSTORE PUSH1 0x20 ADD SWAP1 DUP2 MSTORE PUSH1 0x20 ADD PUSH1 0x0 KECCAK256 PUSH1 0x0 DUP3 ADD MLOAD DUP2 PUSH1 0x0 ADD PUSH1 0x0 PUSH2 0x100 EXP DUP2 SLOAD DUP2 PUSH4 0xFFFFFFFF MUL NOT AND SWAP1 DUP4 PUSH4 0xFFFFFFFF AND MUL OR SWAP1 SSTORE POP PUSH1 0x20 DUP3 ADD MLOAD DUP2 PUSH1 0x0 ADD PUSH1 0x4 PUSH2 0x100 EXP DUP2 SLOAD DUP2 PUSH4 0xFFFFFFFF MUL NOT AND SWAP1 DUP4 PUSH4 0xFFFFFFFF AND MUL OR SWAP1 SSTORE POP PUSH1 0x40 DUP3 ADD MLOAD DUP2 PUSH1 0x0 ADD PUSH1 0x8 PUSH2 0x100 EXP DUP2 SLOAD DUP2 PUSH4 0xFFFFFFFF MUL NOT AND SWAP1 DUP4 PUSH4 0xFFFFFFFF AND MUL OR SWAP1 SSTORE POP PUSH1 0x60 DUP3 ADD MLOAD DUP2 PUSH1 0x0 ADD PUSH1 0xC PUSH2 0x100 EXP DUP2 SLOAD DUP2 PUSH1 0xFF MUL NOT AND SWAP1 DUP4 PUSH1 0xFF AND MUL OR SWAP1 SSTORE POP PUSH1 0x80 DUP3 ADD MLOAD DUP2 PUSH1 0x0 ADD PUSH1 0xD PUSH2 0x100 EXP DUP2 SLOAD DUP2 PUSH1 0xFF MUL NOT AND SWAP1 DUP4 PUSH1 0xFF AND MUL OR SWAP1 SSTORE POP PUSH1 0xA0 DUP3 ADD MLOAD DUP2 PUSH1 0x1 ADD SSTORE PUSH1 0xC0 DUP3 ADD MLOAD DUP2 PUSH1 0x2 ADD SSTORE SWAP1 POP POP PUSH3 0x5A5 PUSH8 0x67BE7BCFB8B646A3 PUSH1 0xC0 SHL PUSH3 0x7B6 PUSH1 0x20 SHL PUSH1 0x20 SHR JUMP JUMPDEST PUSH3 0x5C1 PUSH8 0xAB4B51EF71953986 PUSH1 0xC0 SHL PUSH3 0x7B6 PUSH1 0x20 SHL PUSH1 0x20 SHR JUMP JUMPDEST PUSH3 0x5F4 PUSH32 0xD646AE07EB0D0F77457502A65E7407930DFF4CD4FD99ABC6AAC87A753F4C8A42 PUSH1 0x0 PUSH3 0x7B9 PUSH1 0x20 SHL PUSH1 0x20 SHR JUMP JUMPDEST PUSH3 0x610 PUSH8 0x45513953A8AAED3B PUSH1 0xC0 SHL PUSH3 0x7B6 PUSH1 0x20 SHL PUSH1 0x20 SHR JUMP JUMPDEST PUSH1 0x40 MLOAD DUP1 PUSH1 0xE0 ADD PUSH1 0x40 MSTORE DUP1 PUSH1 0x0 PUSH4 0xFFFFFFFF AND DUP2 MSTORE PUSH1 0x20 ADD PUSH1 0x0 PUSH4 0xFFFFFFFF AND DUP2 MSTORE PUSH1 0x20 ADD PUSH1 0xF PUSH1 0xFF AND PUSH4 0xFFFFFFFF AND DUP2 MSTORE PUSH1 0x20 ADD PUSH1 0x50 PUSH1 0xFF AND DUP2 MSTORE PUSH1 0x20 ADD PUSH1 0x50 PUSH1 0xFF AND DUP2 MSTORE PUSH1 0x20 ADD PUSH32 0x4BBEB6FD3E5222E55F2F8B0C35BC228E0A06A25D0DA772FDB02C3B92FA004F88 DUP2 MSTORE PUSH1 0x20 ADD PUSH1 0x40 MLOAD PUSH1 0x20 ADD PUSH3 0x690 SWAP1 PUSH3 0xD37 JUMP JUMPDEST PUSH1 0x40 MLOAD PUSH1 0x20 DUP2 DUP4 SUB SUB DUP2 MSTORE SWAP1 PUSH1 0x40 MSTORE PUSH3 0x6AA SWAP1 PUSH3 0xC77 JUMP JUMPDEST DUP2 MSTORE POP PUSH1 0x1 PUSH1 0x0 PUSH32 0xD646AE07EB0D0F77457502A65E7407930DFF4CD4FD99ABC6AAC87A753F4C8A42 DUP2 MSTORE PUSH1 0x20 ADD SWAP1 DUP2 MSTORE PUSH1 0x20 ADD PUSH1 0x0 KECCAK256 PUSH1 0x0 DUP3 ADD MLOAD DUP2 PUSH1 0x0 ADD PUSH1 0x0 PUSH2 0x100 EXP DUP2 SLOAD DUP2 PUSH4 0xFFFFFFFF MUL NOT AND SWAP1 DUP4 PUSH4 0xFFFFFFFF AND MUL OR SWAP1 SSTORE POP PUSH1 0x20 DUP3 ADD MLOAD DUP2 PUSH1 0x0 ADD PUSH1 0x4 PUSH2 0x100 EXP DUP2 SLOAD DUP2 PUSH4 0xFFFFFFFF MUL NOT AND SWAP1 DUP4 PUSH4 0xFFFFFFFF AND MUL OR SWAP1 SSTORE POP PUSH1 0x40 DUP3 ADD MLOAD DUP2 PUSH1 0x0 ADD PUSH1 0x8 PUSH2 0x100 EXP DUP2 SLOAD DUP2 PUSH4 0xFFFFFFFF MUL NOT AND SWAP1 DUP4 PUSH4 0xFFFFFFFF AND MUL OR SWAP1 SSTORE POP PUSH1 0x60 DUP3 ADD MLOAD DUP2 PUSH1 0x0 ADD PUSH1 0xC PUSH2 0x100 EXP DUP2 SLOAD DUP2 PUSH1 0xFF MUL NOT AND SWAP1 DUP4 PUSH1 0xFF AND MUL OR SWAP1 SSTORE POP PUSH1 0x80 DUP3 ADD MLOAD DUP2 PUSH1 0x0 ADD PUSH1 0xD PUSH2 0x100 EXP DUP2 SLOAD DUP2 PUSH1 0xFF MUL NOT AND SWAP1 DUP4 PUSH1 0xFF AND MUL OR SWAP1 SSTORE POP PUSH1 0xA0 DUP3 ADD MLOAD DUP2 PUSH1 0x1 ADD SSTORE PUSH1 0xC0 DUP3 ADD MLOAD DUP2 PUSH1 0x2 ADD SSTORE SWAP1 POP POP POP POP PUSH3 0xD4E JUMP JUMPDEST POP JUMP JUMPDEST PUSH3 0x7CB DUP3 DUP3 PUSH3 0x7CF PUSH1 0x20 SHL PUSH1 0x20 SHR JUMP JUMPDEST POP POP JUMP JUMPDEST PUSH3 0x7E1 DUP3 DUP3 PUSH3 0x8C0 PUSH1 0x20 SHL PUSH1 0x20 SHR JUMP JUMPDEST PUSH3 0x8BC JUMPI PUSH1 0x1 PUSH1 0x0 DUP1 DUP5 DUP2 MSTORE PUSH1 0x20 ADD SWAP1 DUP2 MSTORE PUSH1 0x20 ADD PUSH1 0x0 KECCAK256 PUSH1 0x0 ADD PUSH1 0x0 DUP4 PUSH20 0xFFFFFFFFFFFFFFFFFFFFFFFFFFFFFFFFFFFFFFFF AND PUSH20 0xFFFFFFFFFFFFFFFFFFFFFFFFFFFFFFFFFFFFFFFF AND DUP2 MSTORE PUSH1 0x20 ADD SWAP1 DUP2 MSTORE PUSH1 0x20 ADD PUSH1 0x0 KECCAK256 PUSH1 0x0 PUSH2 0x100 EXP DUP2 SLOAD DUP2 PUSH1 0xFF MUL NOT AND SWAP1 DUP4 ISZERO ISZERO MUL OR SWAP1 SSTORE POP PUSH3 0x861 PUSH3 0x92A PUSH1 0x20 SHL PUSH1 0x20 SHR JUMP JUMPDEST PUSH20 0xFFFFFFFFFFFFFFFFFFFFFFFFFFFFFFFFFFFFFFFF AND DUP2 PUSH20 0xFFFFFFFFFFFFFFFFFFFFFFFFFFFFFFFFFFFFFFFF AND DUP4 PUSH32 0x2F8788117E7EFF1D82E926EC794901D17C78024A50270940304540A733656F0D PUSH1 0x40 MLOAD PUSH1 0x40 MLOAD DUP1 SWAP2 SUB SWAP1 LOG4 JUMPDEST POP POP JUMP JUMPDEST PUSH1 0x0 DUP1 PUSH1 0x0 DUP5 DUP2 MSTORE PUSH1 0x20 ADD SWAP1 DUP2 MSTORE PUSH1 0x20 ADD PUSH1 0x0 KECCAK256 PUSH1 0x0 ADD PUSH1 0x0 DUP4 PUSH20 0xFFFFFFFFFFFFFFFFFFFFFFFFFFFFFFFFFFFFFFFF AND PUSH20 0xFFFFFFFFFFFFFFFFFFFFFFFFFFFFFFFFFFFFFFFF AND DUP2 MSTORE PUSH1 0x20 ADD SWAP1 DUP2 MSTORE PUSH1 0x20 ADD PUSH1 0x0 KECCAK256 PUSH1 0x0 SWAP1 SLOAD SWAP1 PUSH2 0x100 EXP SWAP1 DIV PUSH1 0xFF AND SWAP1 POP SWAP3 SWAP2 POP POP JUMP JUMPDEST PUSH1 0x0 CALLER SWAP1 POP SWAP1 JUMP JUMPDEST PUSH1 0x0 DUP1 REVERT JUMPDEST PUSH1 0x0 PUSH20 0xFFFFFFFFFFFFFFFFFFFFFFFFFFFFFFFFFFFFFFFF DUP3 AND SWAP1 POP SWAP2 SWAP1 POP JUMP JUMPDEST PUSH1 0x0 PUSH3 0x964 DUP3 PUSH3 0x937 JUMP JUMPDEST SWAP1 POP SWAP2 SWAP1 POP JUMP JUMPDEST PUSH3 0x976 DUP2 PUSH3 0x957 JUMP JUMPDEST DUP2 EQ PUSH3 0x982 JUMPI PUSH1 0x0 DUP1 REVERT JUMPDEST POP JUMP JUMPDEST PUSH1 0x0 DUP2 MLOAD SWAP1 POP PUSH3 0x996 DUP2 PUSH3 0x96B JUMP JUMPDEST SWAP3 SWAP2 POP POP JUMP JUMPDEST PUSH1 0x0 DUP1 PUSH1 0x40 DUP4 DUP6 SUB SLT ISZERO PUSH3 0x9B6 JUMPI PUSH3 0x9B5 PUSH3 0x932 JUMP JUMPDEST JUMPDEST PUSH1 0x0 PUSH3 0x9C6 DUP6 DUP3 DUP7 ADD PUSH3 0x985 JUMP JUMPDEST SWAP3 POP POP PUSH1 0x20 PUSH3 0x9D9 DUP6 DUP3 DUP7 ADD PUSH3 0x985 JUMP JUMPDEST SWAP2 POP POP SWAP3 POP SWAP3 SWAP1 POP JUMP JUMPDEST PUSH1 0x0 DUP3 DUP3 MSTORE PUSH1 0x20 DUP3 ADD SWAP1 POP SWAP3 SWAP2 POP POP JUMP JUMPDEST PUSH32 0x4365727469666965722061646D696E3120616464726573732063616E6E6F7420 PUSH1 0x0 DUP3 ADD MSTORE PUSH32 0x6265203000000000000000000000000000000000000000000000000000000000 PUSH1 0x20 DUP3 ADD MSTORE POP JUMP JUMPDEST PUSH1 0x0 PUSH3 0xA52 PUSH1 0x24 DUP4 PUSH3 0x9E3 JUMP JUMPDEST SWAP2 POP PUSH3 0xA5F DUP3 PUSH3 0x9F4 JUMP JUMPDEST PUSH1 0x40 DUP3 ADD SWAP1 POP SWAP2 SWAP1 POP JUMP JUMPDEST PUSH1 0x0 PUSH1 0x20 DUP3 ADD SWAP1 POP DUP2 DUP2 SUB PUSH1 0x0 DUP4 ADD MSTORE PUSH3 0xA85 DUP2 PUSH3 0xA43 JUMP JUMPDEST SWAP1 POP SWAP2 SWAP1 POP JUMP JUMPDEST PUSH32 0x4365727469666965722061646D696E3220616464726573732063616E6E6F7420 PUSH1 0x0 DUP3 ADD MSTORE PUSH32 0x6265203000000000000000000000000000000000000000000000000000000000 PUSH1 0x20 DUP3 ADD MSTORE POP JUMP JUMPDEST PUSH1 0x0 PUSH3 0xAEA PUSH1 0x24 DUP4 PUSH3 0x9E3 JUMP JUMPDEST SWAP2 POP PUSH3 0xAF7 DUP3 PUSH3 0xA8C JUMP JUMPDEST PUSH1 0x40 DUP3 ADD SWAP1 POP SWAP2 SWAP1 POP JUMP JUMPDEST PUSH1 0x0 PUSH1 0x20 DUP3 ADD SWAP1 POP DUP2 DUP2 SUB PUSH1 0x0 DUP4 ADD MSTORE PUSH3 0xB1D DUP2 PUSH3 0xADB JUMP JUMPDEST SWAP1 POP SWAP2 SWAP1 POP JUMP JUMPDEST PUSH32 0x436572746966696572206164647265737365732063616E6E6F74206265207468 PUSH1 0x0 DUP3 ADD MSTORE PUSH32 0x652073616D650000000000000000000000000000000000000000000000000000 PUSH1 0x20 DUP3 ADD MSTORE POP JUMP JUMPDEST PUSH1 0x0 PUSH3 0xB82 PUSH1 0x26 DUP4 PUSH3 0x9E3 JUMP JUMPDEST SWAP2 POP PUSH3 0xB8F DUP3 PUSH3 0xB24 JUMP JUMPDEST PUSH1 0x40 DUP3 ADD SWAP1 POP SWAP2 SWAP1 POP JUMP JUMPDEST PUSH1 0x0 PUSH1 0x20 DUP3 ADD SWAP1 POP DUP2 DUP2 SUB PUSH1 0x0 DUP4 ADD MSTORE PUSH3 0xBB5 DUP2 PUSH3 0xB73 JUMP JUMPDEST SWAP1 POP SWAP2 SWAP1 POP JUMP JUMPDEST PUSH1 0x0 DUP2 SWAP1 POP SWAP3 SWAP2 POP POP JUMP JUMPDEST PUSH32 0x4345525449464945525F41444D494E0000000000000000000000000000000000 PUSH1 0x0 DUP3 ADD MSTORE POP JUMP JUMPDEST PUSH1 0x0 PUSH3 0xBFF PUSH1 0xF DUP4 PUSH3 0xBBC JUMP JUMPDEST SWAP2 POP PUSH3 0xC0C DUP3 PUSH3 0xBC7 JUMP JUMPDEST PUSH1 0xF DUP3 ADD SWAP1 POP SWAP2 SWAP1 POP JUMP JUMPDEST PUSH1 0x0 PUSH3 0xC24 DUP3 PUSH3 0xBF0 JUMP JUMPDEST SWAP2 POP DUP2 SWAP1 POP SWAP2 SWAP1 POP JUMP JUMPDEST PUSH1 0x0 DUP2 MLOAD SWAP1 POP SWAP2 SWAP1 POP JUMP JUMPDEST PUSH1 0x0 DUP2 SWAP1 POP PUSH1 0x20 DUP3 ADD SWAP1 POP SWAP2 SWAP1 POP JUMP JUMPDEST PUSH1 0x0 DUP2 SWAP1 POP SWAP2 SWAP1 POP JUMP JUMPDEST PUSH1 0x0 PUSH3 0xC61 DUP3 MLOAD PUSH3 0xC49 JUMP JUMPDEST DUP1 SWAP2 POP POP SWAP2 SWAP1 POP JUMP JUMPDEST PUSH1 0x0 DUP3 DUP3 SHL SWAP1 POP SWAP3 SWAP2 POP POP JUMP JUMPDEST PUSH1 0x0 PUSH3 0xC84 DUP3 PUSH3 0xC2E JUMP JUMPDEST DUP3 PUSH3 0xC90 DUP5 PUSH3 0xC39 JUMP JUMPDEST SWAP1 POP PUSH3 0xC9D DUP2 PUSH3 0xC53 JUMP JUMPDEST SWAP3 POP PUSH1 0x20 DUP3 LT ISZERO PUSH3 0xCE0 JUMPI PUSH3 0xCDB PUSH32 0xFFFFFFFFFFFFFFFFFFFFFFFFFFFFFFFFFFFFFFFFFFFFFFFFFFFFFFFFFFFFFFFF DUP4 PUSH1 0x20 SUB PUSH1 0x8 MUL PUSH3 0xC6A JUMP JUMPDEST DUP4 AND SWAP3 POP JUMPDEST POP POP SWAP2 SWAP1 POP JUMP JUMPDEST PUSH32 0x4345525449464945520000000000000000000000000000000000000000000000 PUSH1 0x0 DUP3 ADD MSTORE POP JUMP JUMPDEST PUSH1 0x0 PUSH3 0xD1F PUSH1 0x9 DUP4 PUSH3 0xBBC JUMP JUMPDEST SWAP2 POP PUSH3 0xD2C DUP3 PUSH3 0xCE7 JUMP JUMPDEST PUSH1 0x9 DUP3 ADD SWAP1 POP SWAP2 SWAP1 POP JUMP JUMPDEST PUSH1 0x0 PUSH3 0xD44 DUP3 PUSH3 0xD10 JUMP JUMPDEST SWAP2 POP DUP2 SWAP1 POP SWAP2 SWAP1 POP JUMP JUMPDEST PUSH2 0x5BD0 DUP1 PUSH3 0xD5E PUSH1 0x0 CODECOPY PUSH1 0x0 RETURN INVALID PUSH1 0x80 PUSH1 0x40 MSTORE CALLVALUE DUP1 ISZERO PUSH2 0x10 JUMPI PUSH1 0x0 DUP1 REVERT JUMPDEST POP PUSH1 0x4 CALLDATASIZE LT PUSH2 0x18E JUMPI PUSH1 0x0 CALLDATALOAD PUSH1 0xE0 SHR DUP1 PUSH4 0x742F0688 GT PUSH2 0xDE JUMPI DUP1 PUSH4 0xA217FDDF GT PUSH2 0x97 JUMPI DUP1 PUSH4 0xBF802091 GT PUSH2 0x71 JUMPI DUP1 PUSH4 0xBF802091 EQ PUSH2 0x492 JUMPI DUP1 PUSH4 0xD3243AD8 EQ PUSH2 0x4C2 JUMPI DUP1 PUSH4 0xD547741F EQ PUSH2 0x4DE JUMPI DUP1 PUSH4 0xE05F2FB4 EQ PUSH2 0x4FA JUMPI PUSH2 0x18E JUMP JUMPDEST DUP1 PUSH4 0xA217FDDF EQ PUSH2 0x43A JUMPI DUP1 PUSH4 0xACE81910 EQ PUSH2 0x458 JUMPI DUP1 PUSH4 0xB86BC74F EQ PUSH2 0x474 JUMPI PUSH2 0x18E JUMP JUMPDEST DUP1 PUSH4 0x742F0688 EQ PUSH2 0x34D JUMPI DUP1 PUSH4 0x7CD29FB7 EQ PUSH2 0x382 JUMPI DUP1 PUSH4 0x8856A0E9 EQ PUSH2 0x3A0 JUMPI DUP1 PUSH4 0x91D14854 EQ PUSH2 0x3BC JUMPI DUP1 PUSH4 0x9DD09A73 EQ PUSH2 0x3EC JUMPI DUP1 PUSH4 0x9E339909 EQ PUSH2 0x41C JUMPI PUSH2 0x18E JUMP JUMPDEST DUP1 PUSH4 0x2F2FF15D GT PUSH2 0x14B JUMPI DUP1 PUSH4 0x4DA11A20 GT PUSH2 0x125 JUMPI DUP1 PUSH4 0x4DA11A20 EQ PUSH2 0x2D7 JUMPI DUP1 PUSH4 0x5907EBEA EQ PUSH2 0x2F5 JUMPI DUP1 PUSH4 0x6BC6421B EQ PUSH2 0x313 JUMPI DUP1 PUSH4 0x719129BE EQ PUSH2 0x331 JUMPI PUSH2 0x18E JUMP JUMPDEST DUP1 PUSH4 0x2F2FF15D EQ PUSH2 0x281 JUMPI DUP1 PUSH4 0x33B72E49 EQ PUSH2 0x29D JUMPI DUP1 PUSH4 0x36568ABE EQ PUSH2 0x2BB JUMPI PUSH2 0x18E JUMP JUMPDEST DUP1 PUSH4 0x1FFC9A7 EQ PUSH2 0x193 JUMPI DUP1 PUSH4 0xF68794A EQ PUSH2 0x1C3 JUMPI DUP1 PUSH4 0x1A968069 EQ PUSH2 0x1E1 JUMPI DUP1 PUSH4 0x1A9CFE28 EQ PUSH2 0x215 JUMPI DUP1 PUSH4 0x248A9CA3 EQ PUSH2 0x233 JUMPI DUP1 PUSH4 0x2CD94E4F EQ PUSH2 0x263 JUMPI JUMPDEST PUSH1 0x0 DUP1 REVERT JUMPDEST PUSH2 0x1AD PUSH1 0x4 DUP1 CALLDATASIZE SUB DUP2 ADD SWAP1 PUSH2 0x1A8 SWAP2 SWAP1 PUSH2 0x40C8 JUMP JUMPDEST PUSH2 0x518 JUMP JUMPDEST PUSH1 0x40 MLOAD PUSH2 0x1BA SWAP2 SWAP1 PUSH2 0x4110 JUMP JUMPDEST PUSH1 0x40 MLOAD DUP1 SWAP2 SUB SWAP1 RETURN JUMPDEST PUSH2 0x1CB PUSH2 0x592 JUMP JUMPDEST PUSH1 0x40 MLOAD PUSH2 0x1D8 SWAP2 SWAP1 PUSH2 0x4147 JUMP JUMPDEST PUSH1 0x40 MLOAD DUP1 SWAP2 SUB SWAP1 RETURN JUMPDEST PUSH2 0x1FB PUSH1 0x4 DUP1 CALLDATASIZE SUB DUP2 ADD SWAP1 PUSH2 0x1F6 SWAP2 SWAP1 PUSH2 0x4198 JUMP JUMPDEST PUSH2 0x597 JUMP JUMPDEST PUSH1 0x40 MLOAD PUSH2 0x20C SWAP6 SWAP5 SWAP4 SWAP3 SWAP2 SWAP1 PUSH2 0x4264 JUMP JUMPDEST PUSH1 0x40 MLOAD DUP1 SWAP2 SUB SWAP1 RETURN JUMPDEST PUSH2 0x21D PUSH2 0x67C JUMP JUMPDEST PUSH1 0x40 MLOAD PUSH2 0x22A SWAP2 SWAP1 PUSH2 0x4147 JUMP JUMPDEST PUSH1 0x40 MLOAD DUP1 SWAP2 SUB SWAP1 RETURN JUMPDEST PUSH2 0x24D PUSH1 0x4 DUP1 CALLDATASIZE SUB DUP2 ADD SWAP1 PUSH2 0x248 SWAP2 SWAP1 PUSH2 0x4198 JUMP JUMPDEST PUSH2 0x681 JUMP JUMPDEST PUSH1 0x40 MLOAD PUSH2 0x25A SWAP2 SWAP1 PUSH2 0x42BE JUMP JUMPDEST PUSH1 0x40 MLOAD DUP1 SWAP2 SUB SWAP1 RETURN JUMPDEST PUSH2 0x26B PUSH2 0x6A0 JUMP JUMPDEST PUSH1 0x40 MLOAD PUSH2 0x278 SWAP2 SWAP1 PUSH2 0x4147 JUMP JUMPDEST PUSH1 0x40 MLOAD DUP1 SWAP2 SUB SWAP1 RETURN JUMPDEST PUSH2 0x29B PUSH1 0x4 DUP1 CALLDATASIZE SUB DUP2 ADD SWAP1 PUSH2 0x296 SWAP2 SWAP1 PUSH2 0x4337 JUMP JUMPDEST PUSH2 0x6A5 JUMP JUMPDEST STOP JUMPDEST PUSH2 0x2A5 PUSH2 0x6C6 JUMP JUMPDEST PUSH1 0x40 MLOAD PUSH2 0x2B2 SWAP2 SWAP1 PUSH2 0x4147 JUMP JUMPDEST PUSH1 0x40 MLOAD DUP1 SWAP2 SUB SWAP1 RETURN JUMPDEST PUSH2 0x2D5 PUSH1 0x4 DUP1 CALLDATASIZE SUB DUP2 ADD SWAP1 PUSH2 0x2D0 SWAP2 SWAP1 PUSH2 0x4337 JUMP JUMPDEST PUSH2 0x6CB JUMP JUMPDEST STOP JUMPDEST PUSH2 0x2DF PUSH2 0x742 JUMP JUMPDEST PUSH1 0x40 MLOAD PUSH2 0x2EC SWAP2 SWAP1 PUSH2 0x4147 JUMP JUMPDEST PUSH1 0x40 MLOAD DUP1 SWAP2 SUB SWAP1 RETURN JUMPDEST PUSH2 0x2FD PUSH2 0x747 JUMP JUMPDEST PUSH1 0x40 MLOAD PUSH2 0x30A SWAP2 SWAP1 PUSH2 0x4147 JUMP JUMPDEST PUSH1 0x40 MLOAD DUP1 SWAP2 SUB SWAP1 RETURN JUMPDEST PUSH2 0x31B PUSH2 0x74C JUMP JUMPDEST PUSH1 0x40 MLOAD PUSH2 0x328 SWAP2 SWAP1 PUSH2 0x4147 JUMP JUMPDEST PUSH1 0x40 MLOAD DUP1 SWAP2 SUB SWAP1 RETURN JUMPDEST PUSH2 0x34B PUSH1 0x4 DUP1 CALLDATASIZE SUB DUP2 ADD SWAP1 PUSH2 0x346 SWAP2 SWAP1 PUSH2 0x43A3 JUMP JUMPDEST PUSH2 0x751 JUMP JUMPDEST STOP JUMPDEST PUSH2 0x367 PUSH1 0x4 DUP1 CALLDATASIZE SUB DUP2 ADD SWAP1 PUSH2 0x362 SWAP2 SWAP1 PUSH2 0x4198 JUMP JUMPDEST PUSH2 0xFD5 JUMP JUMPDEST PUSH1 0x40 MLOAD PUSH2 0x379 SWAP7 SWAP6 SWAP5 SWAP4 SWAP3 SWAP2 SWAP1 PUSH2 0x4516 JUMP JUMPDEST PUSH1 0x40 MLOAD DUP1 SWAP2 SUB SWAP1 RETURN JUMPDEST PUSH2 0x38A PUSH2 0x1045 JUMP JUMPDEST PUSH1 0x40 MLOAD PUSH2 0x397 SWAP2 SWAP1 PUSH2 0x4147 JUMP JUMPDEST PUSH1 0x40 MLOAD DUP1 SWAP2 SUB SWAP1 RETURN JUMPDEST PUSH2 0x3BA PUSH1 0x4 DUP1 CALLDATASIZE SUB DUP2 ADD SWAP1 PUSH2 0x3B5 SWAP2 SWAP1 PUSH2 0x4612 JUMP JUMPDEST PUSH2 0x104A JUMP JUMPDEST STOP JUMPDEST PUSH2 0x3D6 PUSH1 0x4 DUP1 CALLDATASIZE SUB DUP2 ADD SWAP1 PUSH2 0x3D1 SWAP2 SWAP1 PUSH2 0x4337 JUMP JUMPDEST PUSH2 0x1A63 JUMP JUMPDEST PUSH1 0x40 MLOAD PUSH2 0x3E3 SWAP2 SWAP1 PUSH2 0x4110 JUMP JUMPDEST PUSH1 0x40 MLOAD DUP1 SWAP2 SUB SWAP1 RETURN JUMPDEST PUSH2 0x406 PUSH1 0x4 DUP1 CALLDATASIZE SUB DUP2 ADD SWAP1 PUSH2 0x401 SWAP2 SWAP1 PUSH2 0x468D JUMP JUMPDEST PUSH2 0x1ACD JUMP JUMPDEST PUSH1 0x40 MLOAD PUSH2 0x413 SWAP2 SWAP1 PUSH2 0x42BE JUMP JUMPDEST PUSH1 0x40 MLOAD DUP1 SWAP2 SUB SWAP1 RETURN JUMPDEST PUSH2 0x424 PUSH2 0x1AE5 JUMP JUMPDEST PUSH1 0x40 MLOAD PUSH2 0x431 SWAP2 SWAP1 PUSH2 0x4147 JUMP JUMPDEST PUSH1 0x40 MLOAD DUP1 SWAP2 SUB SWAP1 RETURN JUMPDEST PUSH2 0x442 PUSH2 0x1AEA JUMP JUMPDEST PUSH1 0x40 MLOAD PUSH2 0x44F SWAP2 SWAP1 PUSH2 0x42BE JUMP JUMPDEST PUSH1 0x40 MLOAD DUP1 SWAP2 SUB SWAP1 RETURN JUMPDEST PUSH2 0x472 PUSH1 0x4 DUP1 CALLDATASIZE SUB DUP2 ADD SWAP1 PUSH2 0x46D SWAP2 SWAP1 PUSH2 0x4612 JUMP JUMPDEST PUSH2 0x1AF1 JUMP JUMPDEST STOP JUMPDEST PUSH2 0x47C PUSH2 0x24CF JUMP JUMPDEST PUSH1 0x40 MLOAD PUSH2 0x489 SWAP2 SWAP1 PUSH2 0x42BE JUMP JUMPDEST PUSH1 0x40 MLOAD DUP1 SWAP2 SUB SWAP1 RETURN JUMPDEST PUSH2 0x4AC PUSH1 0x4 DUP1 CALLDATASIZE SUB DUP2 ADD SWAP1 PUSH2 0x4A7 SWAP2 SWAP1 PUSH2 0x46BA JUMP JUMPDEST PUSH2 0x24F3 JUMP JUMPDEST PUSH1 0x40 MLOAD PUSH2 0x4B9 SWAP2 SWAP1 PUSH2 0x46FA JUMP JUMPDEST PUSH1 0x40 MLOAD DUP1 SWAP2 SUB SWAP1 RETURN JUMPDEST PUSH2 0x4DC PUSH1 0x4 DUP1 CALLDATASIZE SUB DUP2 ADD SWAP1 PUSH2 0x4D7 SWAP2 SWAP1 PUSH2 0x43A3 JUMP JUMPDEST PUSH2 0x25F0 JUMP JUMPDEST STOP JUMPDEST PUSH2 0x4F8 PUSH1 0x4 DUP1 CALLDATASIZE SUB DUP2 ADD SWAP1 PUSH2 0x4F3 SWAP2 SWAP1 PUSH2 0x4337 JUMP JUMPDEST PUSH2 0x31B3 JUMP JUMPDEST STOP JUMPDEST PUSH2 0x502 PUSH2 0x31D4 JUMP JUMPDEST PUSH1 0x40 MLOAD PUSH2 0x50F SWAP2 SWAP1 PUSH2 0x42BE JUMP JUMPDEST PUSH1 0x40 MLOAD DUP1 SWAP2 SUB SWAP1 RETURN JUMPDEST PUSH1 0x0 PUSH32 0x7965DB0B00000000000000000000000000000000000000000000000000000000 PUSH28 0xFFFFFFFFFFFFFFFFFFFFFFFFFFFFFFFFFFFFFFFFFFFFFFFFFFFFFFFF NOT AND DUP3 PUSH28 0xFFFFFFFFFFFFFFFFFFFFFFFFFFFFFFFFFFFFFFFFFFFFFFFFFFFFFFFF NOT AND EQ DUP1 PUSH2 0x58B JUMPI POP PUSH2 0x58A DUP3 PUSH2 0x31F8 JUMP JUMPDEST JUMPDEST SWAP1 POP SWAP2 SWAP1 POP JUMP JUMPDEST PUSH1 0x50 DUP2 JUMP JUMPDEST PUSH1 0x2 PUSH1 0x20 MSTORE DUP1 PUSH1 0x0 MSTORE PUSH1 0x40 PUSH1 0x0 KECCAK256 PUSH1 0x0 SWAP2 POP SWAP1 POP DUP1 PUSH1 0x0 ADD PUSH1 0x0 SWAP1 SLOAD SWAP1 PUSH2 0x100 EXP SWAP1 DIV PUSH1 0xFF AND SWAP1 DUP1 PUSH1 0x1 ADD SLOAD SWAP1 DUP1 PUSH1 0x2 ADD PUSH1 0x0 SWAP1 SLOAD SWAP1 PUSH2 0x100 EXP SWAP1 DIV PUSH1 0xFF AND SWAP1 DUP1 PUSH1 0x2 ADD PUSH1 0x1 SWAP1 SLOAD SWAP1 PUSH2 0x100 EXP SWAP1 DIV PUSH1 0xFF AND SWAP1 DUP1 PUSH1 0x5 ADD DUP1 SLOAD PUSH2 0x5F9 SWAP1 PUSH2 0x4744 JUMP JUMPDEST DUP1 PUSH1 0x1F ADD PUSH1 0x20 DUP1 SWAP2 DIV MUL PUSH1 0x20 ADD PUSH1 0x40 MLOAD SWAP1 DUP2 ADD PUSH1 0x40 MSTORE DUP1 SWAP3 SWAP2 SWAP1 DUP2 DUP2 MSTORE PUSH1 0x20 ADD DUP3 DUP1 SLOAD PUSH2 0x625 SWAP1 PUSH2 0x4744 JUMP JUMPDEST DUP1 ISZERO PUSH2 0x672 JUMPI DUP1 PUSH1 0x1F LT PUSH2 0x647 JUMPI PUSH2 0x100 DUP1 DUP4 SLOAD DIV MUL DUP4 MSTORE SWAP2 PUSH1 0x20 ADD SWAP2 PUSH2 0x672 JUMP JUMPDEST DUP3 ADD SWAP2 SWAP1 PUSH1 0x0 MSTORE PUSH1 0x20 PUSH1 0x0 KECCAK256 SWAP1 JUMPDEST DUP2 SLOAD DUP2 MSTORE SWAP1 PUSH1 0x1 ADD SWAP1 PUSH1 0x20 ADD DUP1 DUP4 GT PUSH2 0x655 JUMPI DUP3 SWAP1 SUB PUSH1 0x1F AND DUP3 ADD SWAP2 JUMPDEST POP POP POP POP POP SWAP1 POP DUP6 JUMP JUMPDEST PUSH1 0x50 DUP2 JUMP JUMPDEST PUSH1 0x0 DUP1 PUSH1 0x0 DUP4 DUP2 MSTORE PUSH1 0x20 ADD SWAP1 DUP2 MSTORE PUSH1 0x20 ADD PUSH1 0x0 KECCAK256 PUSH1 0x1 ADD SLOAD SWAP1 POP SWAP2 SWAP1 POP JUMP JUMPDEST PUSH1 0x50 DUP2 JUMP JUMPDEST PUSH2 0x6AE DUP3 PUSH2 0x681 JUMP JUMPDEST PUSH2 0x6B7 DUP2 PUSH2 0x3262 JUMP JUMPDEST PUSH2 0x6C1 DUP4 DUP4 PUSH2 0x3276 JUMP JUMPDEST POP POP POP JUMP JUMPDEST PUSH1 0x2 DUP2 JUMP JUMPDEST PUSH2 0x6DF PUSH8 0x515D414290EF63A7 PUSH1 0xC0 SHL PUSH2 0x3356 JUMP JUMPDEST PUSH2 0x6F3 PUSH8 0x408D4005470649CF PUSH1 0xC0 SHL PUSH2 0x3356 JUMP JUMPDEST PUSH2 0x707 PUSH8 0x9C54A3CC10A34A3D PUSH1 0xC0 SHL PUSH2 0x3356 JUMP JUMPDEST PUSH1 0x40 MLOAD PUSH32 0x8C379A000000000000000000000000000000000000000000000000000000000 DUP2 MSTORE PUSH1 0x4 ADD PUSH2 0x739 SWAP1 PUSH2 0x47E7 JUMP JUMPDEST PUSH1 0x40 MLOAD DUP1 SWAP2 SUB SWAP1 REVERT JUMPDEST PUSH1 0x50 DUP2 JUMP JUMPDEST PUSH1 0xF DUP2 JUMP JUMPDEST PUSH1 0x33 DUP2 JUMP JUMPDEST PUSH2 0x765 PUSH8 0xE5A91BFC65F0C4B1 PUSH1 0xC0 SHL PUSH2 0x3356 JUMP JUMPDEST PUSH2 0x779 PUSH8 0x4900A3687504079C PUSH1 0xC0 SHL PUSH2 0x3356 JUMP JUMPDEST PUSH2 0x78D PUSH8 0x4FCE23AE6BB9DC7F PUSH1 0xC0 SHL PUSH2 0x3356 JUMP JUMPDEST PUSH1 0x0 PUSH1 0x1 PUSH1 0x0 DUP6 DUP2 MSTORE PUSH1 0x20 ADD SWAP1 DUP2 MSTORE PUSH1 0x20 ADD PUSH1 0x0 KECCAK256 SWAP1 POP PUSH2 0x7B8 PUSH8 0xA37F82E1AE7B555D PUSH1 0xC0 SHL PUSH2 0x3356 JUMP JUMPDEST PUSH2 0x7CC PUSH8 0xDB9F0C54E2940744 PUSH1 0xC0 SHL PUSH2 0x3356 JUMP JUMPDEST PUSH2 0x7E0 PUSH8 0xE392881A64B85DD9 PUSH1 0xC0 SHL PUSH2 0x3356 JUMP JUMPDEST DUP1 PUSH1 0x0 ADD PUSH1 0x0 SWAP1 SLOAD SWAP1 PUSH2 0x100 EXP SWAP1 DIV PUSH4 0xFFFFFFFF AND PUSH4 0xFFFFFFFF AND DUP2 PUSH1 0x0 ADD PUSH1 0x8 SWAP1 SLOAD SWAP1 PUSH2 0x100 EXP SWAP1 DIV PUSH4 0xFFFFFFFF AND PUSH4 0xFFFFFFFF AND GT DUP2 PUSH1 0x2 ADD SLOAD PUSH1 0x40 MLOAD PUSH1 0x20 ADD PUSH2 0x82C SWAP2 SWAP1 PUSH2 0x4828 JUMP JUMPDEST PUSH1 0x40 MLOAD PUSH1 0x20 DUP2 DUP4 SUB SUB DUP2 MSTORE SWAP1 PUSH1 0x40 MSTORE PUSH1 0x40 MLOAD PUSH1 0x20 ADD PUSH2 0x84B SWAP2 SWAP1 PUSH2 0x48CB JUMP JUMPDEST PUSH1 0x40 MLOAD PUSH1 0x20 DUP2 DUP4 SUB SUB DUP2 MSTORE SWAP1 PUSH1 0x40 MSTORE SWAP1 PUSH2 0x89B JUMPI PUSH1 0x40 MLOAD PUSH32 0x8C379A000000000000000000000000000000000000000000000000000000000 DUP2 MSTORE PUSH1 0x4 ADD PUSH2 0x892 SWAP2 SWAP1 PUSH2 0x4900 JUMP JUMPDEST PUSH1 0x40 MLOAD DUP1 SWAP2 SUB SWAP1 REVERT JUMPDEST POP PUSH2 0x8B0 PUSH8 0x3B69B5F7DA0FC985 PUSH1 0xC0 SHL PUSH2 0x3356 JUMP JUMPDEST PUSH2 0x8C4 PUSH8 0x39878FDC39193A5C PUSH1 0xC0 SHL PUSH2 0x3356 JUMP JUMPDEST PUSH2 0x8D8 PUSH8 0xEFD429D53DEA2462 PUSH1 0xC0 SHL PUSH2 0x3356 JUMP JUMPDEST PUSH2 0x8EC PUSH8 0xEF5C68BAD402A4E0 PUSH1 0xC0 SHL PUSH2 0x3356 JUMP JUMPDEST PUSH2 0x8FA DUP2 PUSH1 0x1 ADD SLOAD CALLER PUSH2 0x1A63 JUMP JUMPDEST DUP2 PUSH1 0x2 ADD SLOAD PUSH1 0x40 MLOAD PUSH1 0x20 ADD PUSH2 0x90F SWAP2 SWAP1 PUSH2 0x4828 JUMP JUMPDEST PUSH1 0x40 MLOAD PUSH1 0x20 DUP2 DUP4 SUB SUB DUP2 MSTORE SWAP1 PUSH1 0x40 MSTORE PUSH1 0x40 MLOAD PUSH1 0x20 ADD PUSH2 0x92E SWAP2 SWAP1 PUSH2 0x496E JUMP JUMPDEST PUSH1 0x40 MLOAD PUSH1 0x20 DUP2 DUP4 SUB SUB DUP2 MSTORE SWAP1 PUSH1 0x40 MSTORE SWAP1 PUSH2 0x97E JUMPI PUSH1 0x40 MLOAD PUSH32 0x8C379A000000000000000000000000000000000000000000000000000000000 DUP2 MSTORE PUSH1 0x4 ADD PUSH2 0x975 SWAP2 SWAP1 PUSH2 0x4900 JUMP JUMPDEST PUSH1 0x40 MLOAD DUP1 SWAP2 SUB SWAP1 REVERT JUMPDEST POP PUSH2 0x993 PUSH8 0xB55B9F6D9D1026AF PUSH1 0xC0 SHL PUSH2 0x3356 JUMP JUMPDEST PUSH2 0x9A7 PUSH8 0xC7765049F91A4EF7 PUSH1 0xC0 SHL PUSH2 0x3356 JUMP JUMPDEST PUSH2 0x9BB PUSH8 0xA6D489319A22F360 PUSH1 0xC0 SHL PUSH2 0x3356 JUMP JUMPDEST PUSH2 0x9CF PUSH8 0xA5644B271BDEBD05 PUSH1 0xC0 SHL PUSH2 0x3356 JUMP JUMPDEST PUSH1 0x0 ISZERO ISZERO PUSH2 0x9DD DUP6 DUP6 PUSH2 0x1A63 JUMP JUMPDEST ISZERO ISZERO EQ DUP2 PUSH1 0x2 ADD SLOAD PUSH1 0x40 MLOAD PUSH1 0x20 ADD PUSH2 0x9F5 SWAP2 SWAP1 PUSH2 0x4828 JUMP JUMPDEST PUSH1 0x40 MLOAD PUSH1 0x20 DUP2 DUP4 SUB SUB DUP2 MSTORE SWAP1 PUSH1 0x40 MSTORE PUSH1 0x40 MLOAD PUSH1 0x20 ADD PUSH2 0xA14 SWAP2 SWAP1 PUSH2 0x49C9 JUMP JUMPDEST PUSH1 0x40 MLOAD PUSH1 0x20 DUP2 DUP4 SUB SUB DUP2 MSTORE SWAP1 PUSH1 0x40 MSTORE SWAP1 PUSH2 0xA64 JUMPI PUSH1 0x40 MLOAD PUSH32 0x8C379A000000000000000000000000000000000000000000000000000000000 DUP2 MSTORE PUSH1 0x4 ADD PUSH2 0xA5B SWAP2 SWAP1 PUSH2 0x4900 JUMP JUMPDEST PUSH1 0x40 MLOAD DUP1 SWAP2 SUB SWAP1 REVERT JUMPDEST POP PUSH2 0xA79 PUSH8 0x73766D50C37AE174 PUSH1 0xC0 SHL PUSH2 0x3356 JUMP JUMPDEST PUSH2 0xA8D PUSH8 0x8B979D26B761488E PUSH1 0xC0 SHL PUSH2 0x3356 JUMP JUMPDEST PUSH2 0xAA1 PUSH8 0x4773B74CA2DFD977 PUSH1 0xC0 SHL PUSH2 0x3356 JUMP JUMPDEST PUSH1 0x0 DUP4 DUP6 PUSH1 0x40 MLOAD PUSH1 0x20 ADD PUSH2 0xAB6 SWAP3 SWAP2 SWAP1 PUSH2 0x4A83 JUMP JUMPDEST PUSH1 0x40 MLOAD PUSH1 0x20 DUP2 DUP4 SUB SUB DUP2 MSTORE SWAP1 PUSH1 0x40 MSTORE DUP1 MLOAD SWAP1 PUSH1 0x20 ADD KECCAK256 SWAP1 POP PUSH2 0xAE2 PUSH8 0x3A3C8E3B93C77FD7 PUSH1 0xC0 SHL PUSH2 0x3356 JUMP JUMPDEST PUSH2 0xAF6 PUSH8 0xDE5B5A61926C36C9 PUSH1 0xC0 SHL PUSH2 0x3356 JUMP JUMPDEST PUSH2 0xB68 DUP2 DUP4 PUSH1 0x1 ADD SLOAD DUP5 PUSH1 0x2 ADD SLOAD PUSH1 0x40 MLOAD PUSH1 0x20 ADD PUSH2 0xB14 SWAP2 SWAP1 PUSH2 0x4828 JUMP JUMPDEST PUSH1 0x40 MLOAD PUSH1 0x20 DUP2 DUP4 SUB SUB DUP2 MSTORE SWAP1 PUSH1 0x40 MSTORE DUP8 PUSH1 0x40 MLOAD PUSH1 0x20 ADD PUSH2 0xB34 SWAP2 SWAP1 PUSH2 0x4ABA JUMP JUMPDEST PUSH1 0x40 MLOAD PUSH1 0x20 DUP2 DUP4 SUB SUB DUP2 MSTORE SWAP1 PUSH1 0x40 MSTORE PUSH1 0x40 MLOAD PUSH1 0x20 ADD PUSH2 0xB54 SWAP3 SWAP2 SWAP1 PUSH2 0x4B21 JUMP JUMPDEST PUSH1 0x40 MLOAD PUSH1 0x20 DUP2 DUP4 SUB SUB DUP2 MSTORE SWAP1 PUSH1 0x40 MSTORE PUSH2 0x3359 JUMP JUMPDEST PUSH2 0xB7C PUSH8 0xFBA3334237611515 PUSH1 0xC0 SHL PUSH2 0x3356 JUMP JUMPDEST PUSH2 0xB90 PUSH8 0xA458FC201C41F2EB PUSH1 0xC0 SHL PUSH2 0x3356 JUMP JUMPDEST DUP3 DUP1 ISZERO PUSH2 0xC01 JUMPI POP PUSH1 0x0 ISZERO ISZERO PUSH1 0x2 PUSH1 0x0 DUP4 DUP2 MSTORE PUSH1 0x20 ADD SWAP1 DUP2 MSTORE PUSH1 0x20 ADD PUSH1 0x0 KECCAK256 PUSH1 0x3 ADD PUSH1 0x0 CALLER PUSH20 0xFFFFFFFFFFFFFFFFFFFFFFFFFFFFFFFFFFFFFFFF AND PUSH20 0xFFFFFFFFFFFFFFFFFFFFFFFFFFFFFFFFFFFFFFFF AND DUP2 MSTORE PUSH1 0x20 ADD SWAP1 DUP2 MSTORE PUSH1 0x20 ADD PUSH1 0x0 KECCAK256 PUSH1 0x0 SWAP1 SLOAD SWAP1 PUSH2 0x100 EXP SWAP1 DIV PUSH1 0xFF AND ISZERO ISZERO EQ JUMPDEST ISZERO PUSH2 0xCC2 JUMPI PUSH2 0xC1A PUSH8 0x32E4132DAD121900 PUSH1 0xC0 SHL PUSH2 0x3356 JUMP JUMPDEST PUSH2 0xC2E PUSH8 0x5903462AB1321CAC PUSH1 0xC0 SHL PUSH2 0x3356 JUMP JUMPDEST PUSH2 0xC42 PUSH8 0x95A317EC06F83C10 PUSH1 0xC0 SHL PUSH2 0x3356 JUMP JUMPDEST PUSH2 0xC5E PUSH1 0x2 PUSH1 0x0 DUP4 DUP2 MSTORE PUSH1 0x20 ADD SWAP1 DUP2 MSTORE PUSH1 0x20 ADD PUSH1 0x0 KECCAK256 CALLER PUSH2 0x34FD JUMP JUMPDEST PUSH2 0xC72 PUSH8 0xB1D4635B098CE77A PUSH1 0xC0 SHL PUSH2 0x3356 JUMP JUMPDEST PUSH2 0xC86 PUSH8 0xA0B843672511AB55 PUSH1 0xC0 SHL PUSH2 0x3356 JUMP JUMPDEST PUSH32 0xB431A69783A2491A0C400FF16DAB32CD442ABF8FE5AF63A526A7248D730192F8 DUP2 PUSH1 0x40 MLOAD PUSH2 0xCB5 SWAP2 SWAP1 PUSH2 0x42BE JUMP JUMPDEST PUSH1 0x40 MLOAD DUP1 SWAP2 SUB SWAP1 LOG1 PUSH2 0xDC8 JUMP JUMPDEST PUSH2 0xCD6 PUSH8 0x7C7927E4B5BD48F4 PUSH1 0xC0 SHL PUSH2 0x3356 JUMP JUMPDEST PUSH2 0xCEA PUSH8 0xA4EBBAF8FAAC82D2 PUSH1 0xC0 SHL PUSH2 0x3356 JUMP JUMPDEST PUSH1 0x0 ISZERO ISZERO DUP4 ISZERO ISZERO SUB PUSH2 0xDB2 JUMPI PUSH2 0xD0A PUSH8 0x97B47E77A9A7B3FC PUSH1 0xC0 SHL PUSH2 0x3356 JUMP JUMPDEST PUSH2 0xD1E PUSH8 0x758438FA606727D9 PUSH1 0xC0 SHL PUSH2 0x3356 JUMP JUMPDEST PUSH2 0xD32 PUSH8 0x589E0C39053CAD26 PUSH1 0xC0 SHL PUSH2 0x3356 JUMP JUMPDEST PUSH2 0xD4E PUSH1 0x2 PUSH1 0x0 DUP4 DUP2 MSTORE PUSH1 0x20 ADD SWAP1 DUP2 MSTORE PUSH1 0x20 ADD PUSH1 0x0 KECCAK256 CALLER PUSH2 0x377F JUMP JUMPDEST PUSH2 0xD62 PUSH8 0x59DE4F2A505F6C6D PUSH1 0xC0 SHL PUSH2 0x3356 JUMP JUMPDEST PUSH2 0xD76 PUSH8 0x6D4A2D08A14EA231 PUSH1 0xC0 SHL PUSH2 0x3356 JUMP JUMPDEST PUSH32 0xB431A69783A2491A0C400FF16DAB32CD442ABF8FE5AF63A526A7248D730192F8 DUP2 PUSH1 0x40 MLOAD PUSH2 0xDA5 SWAP2 SWAP1 PUSH2 0x42BE JUMP JUMPDEST PUSH1 0x40 MLOAD DUP1 SWAP2 SUB SWAP1 LOG1 PUSH2 0xDC7 JUMP JUMPDEST PUSH2 0xDC6 PUSH8 0xC3B37424D9C469D0 PUSH1 0xC0 SHL PUSH2 0x3356 JUMP JUMPDEST JUMPDEST JUMPDEST PUSH2 0xDDC PUSH8 0x740CE2464856C2B3 PUSH1 0xC0 SHL PUSH2 0x3356 JUMP JUMPDEST PUSH2 0xDF0 PUSH8 0x6AE93F6BF114C2F7 PUSH1 0xC0 SHL PUSH2 0x3356 JUMP JUMPDEST PUSH2 0xE4A DUP3 PUSH1 0x0 ADD PUSH1 0xC SWAP1 SLOAD SWAP1 PUSH2 0x100 EXP SWAP1 DIV PUSH1 0xFF AND PUSH1 0xFF AND PUSH1 0x1 PUSH1 0x0 DUP6 PUSH1 0x1 ADD SLOAD DUP2 MSTORE PUSH1 0x20 ADD SWAP1 DUP2 MSTORE PUSH1 0x20 ADD PUSH1 0x0 KECCAK256 PUSH1 0x0 ADD PUSH1 0x0 SWAP1 SLOAD SWAP1 PUSH2 0x100 EXP SWAP1 DIV PUSH4 0xFFFFFFFF AND PUSH2 0xE3D SWAP2 SWAP1 PUSH2 0x4BA2 JUMP JUMPDEST PUSH4 0xFFFFFFFF AND PUSH1 0x64 PUSH2 0x24F3 JUMP JUMPDEST PUSH1 0x2 PUSH1 0x0 DUP4 DUP2 MSTORE PUSH1 0x20 ADD SWAP1 DUP2 MSTORE PUSH1 0x20 ADD PUSH1 0x0 KECCAK256 PUSH1 0x2 ADD PUSH1 0x0 SWAP1 SLOAD SWAP1 PUSH2 0x100 EXP SWAP1 DIV PUSH1 0xFF AND PUSH1 0xFF AND LT PUSH2 0xFB9 JUMPI PUSH2 0xE8A PUSH8 0x7A7ED0C4E5844014 PUSH1 0xC0 SHL PUSH2 0x3356 JUMP JUMPDEST PUSH2 0xE9E PUSH8 0x45D4F9869D13660B PUSH1 0xC0 SHL PUSH2 0x3356 JUMP JUMPDEST PUSH2 0xEB2 PUSH8 0x1CBDD7ADD0B2DD5C PUSH1 0xC0 SHL PUSH2 0x3356 JUMP JUMPDEST PUSH2 0xECD PUSH1 0x2 PUSH1 0x0 DUP4 DUP2 MSTORE PUSH1 0x20 ADD SWAP1 DUP2 MSTORE PUSH1 0x20 ADD PUSH1 0x0 KECCAK256 PUSH2 0x3937 JUMP JUMPDEST PUSH2 0xEE1 PUSH8 0xF2A3B9BA0BC2281E PUSH1 0xC0 SHL PUSH2 0x3356 JUMP JUMPDEST PUSH2 0xEF5 PUSH8 0x9859BE0913BC1E17 PUSH1 0xC0 SHL PUSH2 0x3356 JUMP JUMPDEST PUSH32 0x562618DBCF74B61AE5B0F229FE40BA6D5B6AE6B4248F8C89A870DDA7C77135F6 DUP2 PUSH1 0x40 MLOAD PUSH2 0xF24 SWAP2 SWAP1 PUSH2 0x42BE JUMP JUMPDEST PUSH1 0x40 MLOAD DUP1 SWAP2 SUB SWAP1 LOG1 PUSH2 0xF40 PUSH8 0x8F5912FC196C66FB PUSH1 0xC0 SHL PUSH2 0x3356 JUMP JUMPDEST PUSH2 0xF54 PUSH8 0xD451AD32AAB430B8 PUSH1 0xC0 SHL PUSH2 0x3356 JUMP JUMPDEST PUSH2 0xF5E DUP6 DUP6 PUSH2 0x3276 JUMP JUMPDEST PUSH2 0xF72 PUSH8 0x2F872260EC70AA80 PUSH1 0xC0 SHL PUSH2 0x3356 JUMP JUMPDEST PUSH1 0x1 DUP3 PUSH1 0x0 ADD PUSH1 0x0 DUP3 DUP3 DUP3 SWAP1 SLOAD SWAP1 PUSH2 0x100 EXP SWAP1 DIV PUSH4 0xFFFFFFFF AND PUSH2 0xF96 SWAP2 SWAP1 PUSH2 0x4BDF JUMP JUMPDEST SWAP3 POP PUSH2 0x100 EXP DUP2 SLOAD DUP2 PUSH4 0xFFFFFFFF MUL NOT AND SWAP1 DUP4 PUSH4 0xFFFFFFFF AND MUL OR SWAP1 SSTORE POP PUSH2 0xFCE JUMP JUMPDEST PUSH2 0xFCD PUSH8 0xE28D98831E470A0E PUSH1 0xC0 SHL PUSH2 0x3356 JUMP JUMPDEST JUMPDEST POP POP POP POP POP JUMP JUMPDEST PUSH1 0x5 PUSH1 0x20 MSTORE DUP1 PUSH1 0x0 MSTORE PUSH1 0x40 PUSH1 0x0 KECCAK256 PUSH1 0x0 SWAP2 POP SWAP1 POP DUP1 PUSH1 0x0 ADD PUSH1 0x0 SWAP1 SLOAD SWAP1 PUSH2 0x100 EXP SWAP1 DIV PUSH1 0xFF AND SWAP1 DUP1 PUSH1 0x0 ADD PUSH1 0x1 SWAP1 SLOAD SWAP1 PUSH2 0x100 EXP SWAP1 DIV PUSH1 0xFF AND SWAP1 DUP1 PUSH1 0x0 ADD PUSH1 0x2 SWAP1 SLOAD SWAP1 PUSH2 0x100 EXP SWAP1 DIV PUSH1 0xFF AND SWAP1 DUP1 PUSH1 0x1 ADD SLOAD SWAP1 DUP1 PUSH1 0x2 ADD PUSH1 0x0 SWAP1 SLOAD SWAP1 PUSH2 0x100 EXP SWAP1 DIV PUSH1 0xFF AND SWAP1 DUP1 PUSH1 0x3 ADD SLOAD SWAP1 POP DUP7 JUMP JUMPDEST PUSH1 0x50 DUP2 JUMP JUMPDEST PUSH2 0x105E PUSH8 0x9E04F1A5C5BDA7DF PUSH1 0xC0 SHL PUSH2 0x3356 JUMP JUMPDEST PUSH2 0x1072 PUSH8 0xD618060FAF473A2A PUSH1 0xC0 SHL PUSH2 0x3356 JUMP JUMPDEST PUSH2 0x1086 PUSH8 0x59AACAB69E3A1CF8 PUSH1 0xC0 SHL PUSH2 0x3356 JUMP JUMPDEST PUSH2 0x109A PUSH8 0x1F8604B2E035DF8C PUSH1 0xC0 SHL PUSH2 0x3356 JUMP JUMPDEST PUSH2 0x10C4 PUSH32 0xD646AE07EB0D0F77457502A65E7407930DFF4CD4FD99ABC6AAC87A753F4C8A42 CALLER PUSH2 0x1A63 JUMP JUMPDEST PUSH2 0x1103 JUMPI PUSH1 0x40 MLOAD PUSH32 0x8C379A000000000000000000000000000000000000000000000000000000000 DUP2 MSTORE PUSH1 0x4 ADD PUSH2 0x10FA SWAP1 PUSH2 0x4C63 JUMP JUMPDEST PUSH1 0x40 MLOAD DUP1 SWAP2 SUB SWAP1 REVERT JUMPDEST PUSH2 0x1117 PUSH8 0x4341521415B393FF PUSH1 0xC0 SHL PUSH2 0x3356 JUMP JUMPDEST PUSH2 0x112B PUSH8 0x3ABDA3DB58EE88D6 PUSH1 0xC0 SHL PUSH2 0x3356 JUMP JUMPDEST PUSH2 0x113F PUSH8 0xD0A65ECDFB35759E PUSH1 0xC0 SHL PUSH2 0x3356 JUMP JUMPDEST PUSH2 0x1153 PUSH8 0xFECB9A5516D562AD PUSH1 0xC0 SHL PUSH2 0x3356 JUMP JUMPDEST PUSH1 0x0 PUSH1 0x3 DUP2 GT ISZERO PUSH2 0x1167 JUMPI PUSH2 0x1166 PUSH2 0x43F6 JUMP JUMPDEST JUMPDEST DUP5 PUSH1 0x3 DUP2 GT ISZERO PUSH2 0x117A JUMPI PUSH2 0x1179 PUSH2 0x43F6 JUMP JUMPDEST JUMPDEST LT ISZERO DUP1 ISZERO PUSH2 0x11AC JUMPI POP PUSH1 0x3 DUP1 DUP2 GT ISZERO PUSH2 0x1196 JUMPI PUSH2 0x1195 PUSH2 0x43F6 JUMP JUMPDEST JUMPDEST DUP5 PUSH1 0x3 DUP2 GT ISZERO PUSH2 0x11A9 JUMPI PUSH2 0x11A8 PUSH2 0x43F6 JUMP JUMPDEST JUMPDEST GT ISZERO JUMPDEST PUSH2 0x11EB JUMPI PUSH1 0x40 MLOAD PUSH32 0x8C379A000000000000000000000000000000000000000000000000000000000 DUP2 MSTORE PUSH1 0x4 ADD PUSH2 0x11E2 SWAP1 PUSH2 0x4CCF JUMP JUMPDEST PUSH1 0x40 MLOAD DUP1 SWAP2 SUB SWAP1 REVERT JUMPDEST PUSH2 0x11FF PUSH8 0x11522E4C80B8ACF5 PUSH1 0xC0 SHL PUSH2 0x3356 JUMP JUMPDEST PUSH2 0x1213 PUSH8 0x5A87C8131B0F3476 PUSH1 0xC0 SHL PUSH2 0x3356 JUMP JUMPDEST PUSH2 0x1227 PUSH8 0xB52E37C57F13F036 PUSH1 0xC0 SHL PUSH2 0x3356 JUMP JUMPDEST PUSH2 0x123B PUSH8 0xC6BC374FA7FEFF01 PUSH1 0xC0 SHL PUSH2 0x3356 JUMP JUMPDEST PUSH1 0x0 PUSH1 0x2 DUP2 GT ISZERO PUSH2 0x124F JUMPI PUSH2 0x124E PUSH2 0x43F6 JUMP JUMPDEST JUMPDEST DUP4 PUSH1 0x2 DUP2 GT ISZERO PUSH2 0x1262 JUMPI PUSH2 0x1261 PUSH2 0x43F6 JUMP JUMPDEST JUMPDEST LT ISZERO DUP1 ISZERO PUSH2 0x1294 JUMPI POP PUSH1 0x2 DUP1 DUP2 GT ISZERO PUSH2 0x127E JUMPI PUSH2 0x127D PUSH2 0x43F6 JUMP JUMPDEST JUMPDEST DUP4 PUSH1 0x2 DUP2 GT ISZERO PUSH2 0x1291 JUMPI PUSH2 0x1290 PUSH2 0x43F6 JUMP JUMPDEST JUMPDEST GT ISZERO JUMPDEST PUSH2 0x12D3 JUMPI PUSH1 0x40 MLOAD PUSH32 0x8C379A000000000000000000000000000000000000000000000000000000000 DUP2 MSTORE PUSH1 0x4 ADD PUSH2 0x12CA SWAP1 PUSH2 0x4D3B JUMP JUMPDEST PUSH1 0x40 MLOAD DUP1 SWAP2 SUB SWAP1 REVERT JUMPDEST PUSH2 0x12E7 PUSH8 0x86AC1E62D24A3498 PUSH1 0xC0 SHL PUSH2 0x3356 JUMP JUMPDEST PUSH2 0x12FB PUSH8 0x9E5C2CDD766B16DE PUSH1 0xC0 SHL PUSH2 0x3356 JUMP JUMPDEST PUSH2 0x130F PUSH8 0x53AAAF9320FE18FD PUSH1 0xC0 SHL PUSH2 0x3356 JUMP JUMPDEST PUSH2 0x1323 PUSH8 0xAB49E147B91272B3 PUSH1 0xC0 SHL PUSH2 0x3356 JUMP JUMPDEST PUSH1 0x0 PUSH1 0xF DUP2 GT ISZERO PUSH2 0x1337 JUMPI PUSH2 0x1336 PUSH2 0x43F6 JUMP JUMPDEST JUMPDEST DUP3 PUSH1 0xF DUP2 GT ISZERO PUSH2 0x134A JUMPI PUSH2 0x1349 PUSH2 0x43F6 JUMP JUMPDEST JUMPDEST LT ISZERO DUP1 ISZERO PUSH2 0x137C JUMPI POP PUSH1 0xF DUP1 DUP2 GT ISZERO PUSH2 0x1366 JUMPI PUSH2 0x1365 PUSH2 0x43F6 JUMP JUMPDEST JUMPDEST DUP3 PUSH1 0xF DUP2 GT ISZERO PUSH2 0x1379 JUMPI PUSH2 0x1378 PUSH2 0x43F6 JUMP JUMPDEST JUMPDEST GT ISZERO JUMPDEST PUSH2 0x13BB JUMPI PUSH1 0x40 MLOAD PUSH32 0x8C379A000000000000000000000000000000000000000000000000000000000 DUP2 MSTORE PUSH1 0x4 ADD PUSH2 0x13B2 SWAP1 PUSH2 0x4DA7 JUMP JUMPDEST PUSH1 0x40 MLOAD DUP1 SWAP2 SUB SWAP1 REVERT JUMPDEST PUSH2 0x13CF PUSH8 0x9AB8A363C1DB47F7 PUSH1 0xC0 SHL PUSH2 0x3356 JUMP JUMPDEST PUSH2 0x13E3 PUSH8 0xC80F0B231C338B2D PUSH1 0xC0 SHL PUSH2 0x3356 JUMP JUMPDEST PUSH2 0x13F7 PUSH8 0x5397BBBEEF836AD8 PUSH1 0xC0 SHL PUSH2 0x3356 JUMP JUMPDEST PUSH2 0x140B PUSH8 0x9B6D6670ACBBE933 PUSH1 0xC0 SHL PUSH2 0x3356 JUMP JUMPDEST PUSH1 0x1 ISZERO ISZERO PUSH1 0x5 PUSH1 0x0 DUP8 DUP8 DUP8 DUP8 PUSH1 0x40 MLOAD PUSH1 0x20 ADD PUSH2 0x142A SWAP5 SWAP4 SWAP3 SWAP2 SWAP1 PUSH2 0x4E4C JUMP JUMPDEST PUSH1 0x40 MLOAD PUSH1 0x20 DUP2 DUP4 SUB SUB DUP2 MSTORE SWAP1 PUSH1 0x40 MSTORE DUP1 MLOAD SWAP1 PUSH1 0x20 ADD KECCAK256 DUP2 MSTORE PUSH1 0x20 ADD SWAP1 DUP2 MSTORE PUSH1 0x20 ADD PUSH1 0x0 KECCAK256 PUSH1 0x2 ADD PUSH1 0x0 SWAP1 SLOAD SWAP1 PUSH2 0x100 EXP SWAP1 DIV PUSH1 0xFF AND ISZERO ISZERO EQ PUSH2 0x14A1 JUMPI PUSH1 0x40 MLOAD PUSH32 0x8C379A000000000000000000000000000000000000000000000000000000000 DUP2 MSTORE PUSH1 0x4 ADD PUSH2 0x1498 SWAP1 PUSH2 0x4EE6 JUMP JUMPDEST PUSH1 0x40 MLOAD DUP1 SWAP2 SUB SWAP1 REVERT JUMPDEST PUSH2 0x14B5 PUSH8 0x8DBA3CFCDD7AB4AB PUSH1 0xC0 SHL PUSH2 0x3356 JUMP JUMPDEST PUSH2 0x14C9 PUSH8 0x2E1F532EB4156EB5 PUSH1 0xC0 SHL PUSH2 0x3356 JUMP JUMPDEST PUSH2 0x14DD PUSH8 0xB763B8910A23EFEE PUSH1 0xC0 SHL PUSH2 0x3356 JUMP JUMPDEST PUSH1 0x0 DUP6 DUP6 DUP6 DUP6 PUSH1 0x40 MLOAD PUSH1 0x20 ADD PUSH2 0x14F6 SWAP5 SWAP4 SWAP3 SWAP2 SWAP1 PUSH2 0x4F52 JUMP JUMPDEST PUSH1 0x40 MLOAD PUSH1 0x20 DUP2 DUP4 SUB SUB DUP2 MSTORE SWAP1 PUSH1 0x40 MSTORE DUP1 MLOAD SWAP1 PUSH1 0x20 ADD KECCAK256 SWAP1 POP PUSH2 0x1522 PUSH8 0xACD6A8C8F4D574B6 PUSH1 0xC0 SHL PUSH2 0x3356 JUMP JUMPDEST PUSH2 0x1536 PUSH8 0x7697096D64270CDB PUSH1 0xC0 SHL PUSH2 0x3356 JUMP JUMPDEST PUSH2 0x1602 DUP2 PUSH32 0xD646AE07EB0D0F77457502A65E7407930DFF4CD4FD99ABC6AAC87A753F4C8A42 DUP9 PUSH1 0x40 MLOAD PUSH1 0x20 ADD PUSH2 0x156C SWAP2 SWAP1 PUSH2 0x4FAB JUMP JUMPDEST PUSH1 0x40 MLOAD PUSH1 0x20 DUP2 DUP4 SUB SUB DUP2 MSTORE SWAP1 PUSH1 0x40 MSTORE DUP9 PUSH1 0x40 MLOAD PUSH1 0x20 ADD PUSH2 0x158C SWAP2 SWAP1 PUSH2 0x4FC6 JUMP JUMPDEST PUSH1 0x40 MLOAD PUSH1 0x20 DUP2 DUP4 SUB SUB DUP2 MSTORE SWAP1 PUSH1 0x40 MSTORE DUP9 PUSH1 0x40 MLOAD PUSH1 0x20 ADD PUSH2 0x15AC SWAP2 SWAP1 PUSH2 0x4FE1 JUMP JUMPDEST PUSH1 0x40 MLOAD PUSH1 0x20 DUP2 DUP4 SUB SUB DUP2 MSTORE SWAP1 PUSH1 0x40 MSTORE DUP9 PUSH1 0x40 MLOAD PUSH1 0x20 ADD PUSH2 0x15CC SWAP2 SWAP1 PUSH2 0x4FFC JUMP JUMPDEST PUSH1 0x40 MLOAD PUSH1 0x20 DUP2 DUP4 SUB SUB DUP2 MSTORE SWAP1 PUSH1 0x40 MSTORE PUSH1 0x40 MLOAD PUSH1 0x20 ADD PUSH2 0x15EE SWAP5 SWAP4 SWAP3 SWAP2 SWAP1 PUSH2 0x503D JUMP JUMPDEST PUSH1 0x40 MLOAD PUSH1 0x20 DUP2 DUP4 SUB SUB DUP2 MSTORE SWAP1 PUSH1 0x40 MSTORE PUSH2 0x3359 JUMP JUMPDEST PUSH2 0x1616 PUSH8 0x3318F6946F781978 PUSH1 0xC0 SHL PUSH2 0x3356 JUMP JUMPDEST PUSH2 0x162A PUSH8 0xD4C4533D7E9A60A6 PUSH1 0xC0 SHL PUSH2 0x3356 JUMP JUMPDEST DUP2 DUP1 ISZERO PUSH2 0x169B JUMPI POP PUSH1 0x0 ISZERO ISZERO PUSH1 0x2 PUSH1 0x0 DUP4 DUP2 MSTORE PUSH1 0x20 ADD SWAP1 DUP2 MSTORE PUSH1 0x20 ADD PUSH1 0x0 KECCAK256 PUSH1 0x3 ADD PUSH1 0x0 CALLER PUSH20 0xFFFFFFFFFFFFFFFFFFFFFFFFFFFFFFFFFFFFFFFF AND PUSH20 0xFFFFFFFFFFFFFFFFFFFFFFFFFFFFFFFFFFFFFFFF AND DUP2 MSTORE PUSH1 0x20 ADD SWAP1 DUP2 MSTORE PUSH1 0x20 ADD PUSH1 0x0 KECCAK256 PUSH1 0x0 SWAP1 SLOAD SWAP1 PUSH2 0x100 EXP SWAP1 DIV PUSH1 0xFF AND ISZERO ISZERO EQ JUMPDEST ISZERO PUSH2 0x175C JUMPI PUSH2 0x16B4 PUSH8 0x32954512786739F5 PUSH1 0xC0 SHL PUSH2 0x3356 JUMP JUMPDEST PUSH2 0x16C8 PUSH8 0x24BCD6FFDFBD0D4D PUSH1 0xC0 SHL PUSH2 0x3356 JUMP JUMPDEST PUSH2 0x16DC PUSH8 0x7338A703CA5A2A96 PUSH1 0xC0 SHL PUSH2 0x3356 JUMP JUMPDEST PUSH2 0x16F8 PUSH1 0x2 PUSH1 0x0 DUP4 DUP2 MSTORE PUSH1 0x20 ADD SWAP1 DUP2 MSTORE PUSH1 0x20 ADD PUSH1 0x0 KECCAK256 CALLER PUSH2 0x34FD JUMP JUMPDEST PUSH2 0x170C PUSH8 0x3B1E688B7D79D00D PUSH1 0xC0 SHL PUSH2 0x3356 JUMP JUMPDEST PUSH2 0x1720 PUSH8 0x6BEA465BB4414610 PUSH1 0xC0 SHL PUSH2 0x3356 JUMP JUMPDEST PUSH32 0xB431A69783A2491A0C400FF16DAB32CD442ABF8FE5AF63A526A7248D730192F8 DUP2 PUSH1 0x40 MLOAD PUSH2 0x174F SWAP2 SWAP1 PUSH2 0x42BE JUMP JUMPDEST PUSH1 0x40 MLOAD DUP1 SWAP2 SUB SWAP1 LOG1 PUSH2 0x1862 JUMP JUMPDEST PUSH2 0x1770 PUSH8 0xE8C1FA74BACD7FBB PUSH1 0xC0 SHL PUSH2 0x3356 JUMP JUMPDEST PUSH2 0x1784 PUSH8 0x1F5319FEB6477E35 PUSH1 0xC0 SHL PUSH2 0x3356 JUMP JUMPDEST PUSH1 0x0 ISZERO ISZERO DUP3 ISZERO ISZERO SUB PUSH2 0x184C JUMPI PUSH2 0x17A4 PUSH8 0xF438D58DFB1BE182 PUSH1 0xC0 SHL PUSH2 0x3356 JUMP JUMPDEST PUSH2 0x17B8 PUSH8 0x8EF10DCAEAC9036F PUSH1 0xC0 SHL PUSH2 0x3356 JUMP JUMPDEST PUSH2 0x17CC PUSH8 0x35F2056C8483D804 PUSH1 0xC0 SHL PUSH2 0x3356 JUMP JUMPDEST PUSH2 0x17E8 PUSH1 0x2 PUSH1 0x0 DUP4 DUP2 MSTORE PUSH1 0x20 ADD SWAP1 DUP2 MSTORE PUSH1 0x20 ADD PUSH1 0x0 KECCAK256 CALLER PUSH2 0x377F JUMP JUMPDEST PUSH2 0x17FC PUSH8 0xC187D7D65CF65AF2 PUSH1 0xC0 SHL PUSH2 0x3356 JUMP JUMPDEST PUSH2 0x1810 PUSH8 0xADE7A62C071E519D PUSH1 0xC0 SHL PUSH2 0x3356 JUMP JUMPDEST PUSH32 0xB431A69783A2491A0C400FF16DAB32CD442ABF8FE5AF63A526A7248D730192F8 DUP2 PUSH1 0x40 MLOAD PUSH2 0x183F SWAP2 SWAP1 PUSH2 0x42BE JUMP JUMPDEST PUSH1 0x40 MLOAD DUP1 SWAP2 SUB SWAP1 LOG1 PUSH2 0x1861 JUMP JUMPDEST PUSH2 0x1860 PUSH8 0x5439B2C4CD164823 PUSH1 0xC0 SHL PUSH2 0x3356 JUMP JUMPDEST JUMPDEST JUMPDEST PUSH2 0x1876 PUSH8 0x2F6377F918FC3E74 PUSH1 0xC0 SHL PUSH2 0x3356 JUMP JUMPDEST PUSH2 0x188A PUSH8 0x62C646C22C573F3E PUSH1 0xC0 SHL PUSH2 0x3356 JUMP JUMPDEST PUSH2 0x18F0 PUSH1 0x50 PUSH1 0xFF AND PUSH1 0x1 PUSH1 0x0 PUSH32 0xD646AE07EB0D0F77457502A65E7407930DFF4CD4FD99ABC6AAC87A753F4C8A42 DUP2 MSTORE PUSH1 0x20 ADD SWAP1 DUP2 MSTORE PUSH1 0x20 ADD PUSH1 0x0 KECCAK256 PUSH1 0x0 ADD PUSH1 0x0 SWAP1 SLOAD SWAP1 PUSH2 0x100 EXP SWAP1 DIV PUSH4 0xFFFFFFFF AND PUSH2 0x18E3 SWAP2 SWAP1 PUSH2 0x4BA2 JUMP JUMPDEST PUSH4 0xFFFFFFFF AND PUSH1 0x64 PUSH2 0x24F3 JUMP JUMPDEST PUSH1 0x2 PUSH1 0x0 DUP4 DUP2 MSTORE PUSH1 0x20 ADD SWAP1 DUP2 MSTORE PUSH1 0x20 ADD PUSH1 0x0 KECCAK256 PUSH1 0x2 ADD PUSH1 0x0 SWAP1 SLOAD SWAP1 PUSH2 0x100 EXP SWAP1 DIV PUSH1 0xFF AND PUSH1 0xFF AND LT PUSH2 0x1A46 JUMPI PUSH2 0x1930 PUSH8 0x220AD4741FC3DF5D PUSH1 0xC0 SHL PUSH2 0x3356 JUMP JUMPDEST PUSH2 0x1944 PUSH8 0x99A0B0988AF08677 PUSH1 0xC0 SHL PUSH2 0x3356 JUMP JUMPDEST PUSH2 0x1958 PUSH8 0x5D49AC61BE8EBD71 PUSH1 0xC0 SHL PUSH2 0x3356 JUMP JUMPDEST PUSH2 0x1973 PUSH1 0x2 PUSH1 0x0 DUP4 DUP2 MSTORE PUSH1 0x20 ADD SWAP1 DUP2 MSTORE PUSH1 0x20 ADD PUSH1 0x0 KECCAK256 PUSH2 0x3937 JUMP JUMPDEST PUSH2 0x1987 PUSH8 0xAC18A9A1EC69E6B8 PUSH1 0xC0 SHL PUSH2 0x3356 JUMP JUMPDEST PUSH2 0x199B PUSH8 0x698BF9A5753EF891 PUSH1 0xC0 SHL PUSH2 0x3356 JUMP JUMPDEST PUSH32 0x562618DBCF74B61AE5B0F229FE40BA6D5B6AE6B4248F8C89A870DDA7C77135F6 DUP2 PUSH1 0x40 MLOAD PUSH2 0x19CA SWAP2 SWAP1 PUSH2 0x42BE JUMP JUMPDEST PUSH1 0x40 MLOAD DUP1 SWAP2 SUB SWAP1 LOG1 PUSH2 0x19E6 PUSH8 0x4A780F79854977D8 PUSH1 0xC0 SHL PUSH2 0x3356 JUMP JUMPDEST PUSH1 0x0 PUSH1 0x5 PUSH1 0x0 DUP9 DUP9 DUP9 DUP9 PUSH1 0x40 MLOAD PUSH1 0x20 ADD PUSH2 0x1A03 SWAP5 SWAP4 SWAP3 SWAP2 SWAP1 PUSH2 0x4E4C JUMP JUMPDEST PUSH1 0x40 MLOAD PUSH1 0x20 DUP2 DUP4 SUB SUB DUP2 MSTORE SWAP1 PUSH1 0x40 MSTORE DUP1 MLOAD SWAP1 PUSH1 0x20 ADD KECCAK256 DUP2 MSTORE PUSH1 0x20 ADD SWAP1 DUP2 MSTORE PUSH1 0x20 ADD PUSH1 0x0 KECCAK256 PUSH1 0x2 ADD PUSH1 0x0 PUSH2 0x100 EXP DUP2 SLOAD DUP2 PUSH1 0xFF MUL NOT AND SWAP1 DUP4 ISZERO ISZERO MUL OR SWAP1 SSTORE POP PUSH2 0x1A5B JUMP JUMPDEST PUSH2 0x1A5A PUSH8 0x69AD2177CECD222F PUSH1 0xC0 SHL PUSH2 0x3356 JUMP JUMPDEST JUMPDEST POP POP POP POP POP POP JUMP JUMPDEST PUSH1 0x0 DUP1 PUSH1 0x0 DUP5 DUP2 MSTORE PUSH1 0x20 ADD SWAP1 DUP2 MSTORE PUSH1 0x20 ADD PUSH1 0x0 KECCAK256 PUSH1 0x0 ADD PUSH1 0x0 DUP4 PUSH20 0xFFFFFFFFFFFFFFFFFFFFFFFFFFFFFFFFFFFFFFFF AND PUSH20 0xFFFFFFFFFFFFFFFFFFFFFFFFFFFFFFFFFFFFFFFF AND DUP2 MSTORE PUSH1 0x20 ADD SWAP1 DUP2 MSTORE PUSH1 0x20 ADD PUSH1 0x0 KECCAK256 PUSH1 0x0 SWAP1 SLOAD SWAP1 PUSH2 0x100 EXP SWAP1 DIV PUSH1 0xFF AND SWAP1 POP SWAP3 SWAP2 POP POP JUMP JUMPDEST PUSH1 0x3 PUSH1 0x20 MSTORE DUP1 PUSH1 0x0 MSTORE PUSH1 0x40 PUSH1 0x0 KECCAK256 PUSH1 0x0 SWAP2 POP SWAP1 POP SLOAD DUP2 JUMP JUMPDEST PUSH1 0xF DUP2 JUMP JUMPDEST PUSH1 0x0 DUP1 SHL DUP2 JUMP JUMPDEST PUSH2 0x1B05 PUSH8 0x96129956313ADF1B PUSH1 0xC0 SHL PUSH2 0x3356 JUMP JUMPDEST PUSH2 0x1B19 PUSH8 0xA37DF02138054E52 PUSH1 0xC0 SHL PUSH2 0x3356 JUMP JUMPDEST PUSH2 0x1B2D PUSH8 0xB057154329C49BF8 PUSH1 0xC0 SHL PUSH2 0x3356 JUMP JUMPDEST PUSH2 0x1B41 PUSH8 0xE3A8E90515CCE0B7 PUSH1 0xC0 SHL PUSH2 0x3356 JUMP JUMPDEST PUSH2 0x1B6B PUSH32 0xD646AE07EB0D0F77457502A65E7407930DFF4CD4FD99ABC6AAC87A753F4C8A42 CALLER PUSH2 0x1A63 JUMP JUMPDEST PUSH2 0x1BAA JUMPI PUSH1 0x40 MLOAD PUSH32 0x8C379A000000000000000000000000000000000000000000000000000000000 DUP2 MSTORE PUSH1 0x4 ADD PUSH2 0x1BA1 SWAP1 PUSH2 0x4C63 JUMP JUMPDEST PUSH1 0x40 MLOAD DUP1 SWAP2 SUB SWAP1 REVERT JUMPDEST PUSH2 0x1BBE PUSH8 0xB5A228E10270E225 PUSH1 0xC0 SHL PUSH2 0x3356 JUMP JUMPDEST PUSH2 0x1BD2 PUSH8 0x3DDB288B7F8FDE58 PUSH1 0xC0 SHL PUSH2 0x3356 JUMP JUMPDEST PUSH2 0x1BE6 PUSH8 0x28FFED5C4BBB136D PUSH1 0xC0 SHL PUSH2 0x3356 JUMP JUMPDEST PUSH2 0x1BFA PUSH8 0x1A14E86B1536E0C4 PUSH1 0xC0 SHL PUSH2 0x3356 JUMP JUMPDEST PUSH1 0x0 PUSH1 0x3 DUP2 GT ISZERO PUSH2 0x1C0E JUMPI PUSH2 0x1C0D PUSH2 0x43F6 JUMP JUMPDEST JUMPDEST DUP5 PUSH1 0x3 DUP2 GT ISZERO PUSH2 0x1C21 JUMPI PUSH2 0x1C20 PUSH2 0x43F6 JUMP JUMPDEST JUMPDEST LT ISZERO DUP1 ISZERO PUSH2 0x1C53 JUMPI POP PUSH1 0x3 DUP1 DUP2 GT ISZERO PUSH2 0x1C3D JUMPI PUSH2 0x1C3C PUSH2 0x43F6 JUMP JUMPDEST JUMPDEST DUP5 PUSH1 0x3 DUP2 GT ISZERO PUSH2 0x1C50 JUMPI PUSH2 0x1C4F PUSH2 0x43F6 JUMP JUMPDEST JUMPDEST GT ISZERO JUMPDEST PUSH2 0x1C92 JUMPI PUSH1 0x40 MLOAD PUSH32 0x8C379A000000000000000000000000000000000000000000000000000000000 DUP2 MSTORE PUSH1 0x4 ADD PUSH2 0x1C89 SWAP1 PUSH2 0x4CCF JUMP JUMPDEST PUSH1 0x40 MLOAD DUP1 SWAP2 SUB SWAP1 REVERT JUMPDEST PUSH2 0x1CA6 PUSH8 0x8190894182F13227 PUSH1 0xC0 SHL PUSH2 0x3356 JUMP JUMPDEST PUSH2 0x1CBA PUSH8 0x5E914CC764A08BDC PUSH1 0xC0 SHL PUSH2 0x3356 JUMP JUMPDEST PUSH2 0x1CCE PUSH8 0x59CB1221E0215D5E PUSH1 0xC0 SHL PUSH2 0x3356 JUMP JUMPDEST PUSH2 0x1CE2 PUSH8 0x6D76B91FE9DE0F8C PUSH1 0xC0 SHL PUSH2 0x3356 JUMP JUMPDEST PUSH1 0x0 PUSH1 0x2 DUP2 GT ISZERO PUSH2 0x1CF6 JUMPI PUSH2 0x1CF5 PUSH2 0x43F6 JUMP JUMPDEST JUMPDEST DUP4 PUSH1 0x2 DUP2 GT ISZERO PUSH2 0x1D09 JUMPI PUSH2 0x1D08 PUSH2 0x43F6 JUMP JUMPDEST JUMPDEST LT ISZERO DUP1 ISZERO PUSH2 0x1D3B JUMPI POP PUSH1 0x2 DUP1 DUP2 GT ISZERO PUSH2 0x1D25 JUMPI PUSH2 0x1D24 PUSH2 0x43F6 JUMP JUMPDEST JUMPDEST DUP4 PUSH1 0x2 DUP2 GT ISZERO PUSH2 0x1D38 JUMPI PUSH2 0x1D37 PUSH2 0x43F6 JUMP JUMPDEST JUMPDEST GT ISZERO JUMPDEST PUSH2 0x1D7A JUMPI PUSH1 0x40 MLOAD PUSH32 0x8C379A000000000000000000000000000000000000000000000000000000000 DUP2 MSTORE PUSH1 0x4 ADD PUSH2 0x1D71 SWAP1 PUSH2 0x4D3B JUMP JUMPDEST PUSH1 0x40 MLOAD DUP1 SWAP2 SUB SWAP1 REVERT JUMPDEST PUSH2 0x1D8E PUSH8 0xBDF8A12455256E97 PUSH1 0xC0 SHL PUSH2 0x3356 JUMP JUMPDEST PUSH2 0x1DA2 PUSH8 0xED9C0B858915E646 PUSH1 0xC0 SHL PUSH2 0x3356 JUMP JUMPDEST PUSH2 0x1DB6 PUSH8 0x649BD458A2007257 PUSH1 0xC0 SHL PUSH2 0x3356 JUMP JUMPDEST PUSH2 0x1DCA PUSH8 0xB6B16EA080CCDB2 PUSH1 0xC0 SHL PUSH2 0x3356 JUMP JUMPDEST PUSH1 0x0 PUSH1 0xF DUP2 GT ISZERO PUSH2 0x1DDE JUMPI PUSH2 0x1DDD PUSH2 0x43F6 JUMP JUMPDEST JUMPDEST DUP3 PUSH1 0xF DUP2 GT ISZERO PUSH2 0x1DF1 JUMPI PUSH2 0x1DF0 PUSH2 0x43F6 JUMP JUMPDEST JUMPDEST LT ISZERO DUP1 ISZERO PUSH2 0x1E23 JUMPI POP PUSH1 0xF DUP1 DUP2 GT ISZERO PUSH2 0x1E0D JUMPI PUSH2 0x1E0C PUSH2 0x43F6 JUMP JUMPDEST JUMPDEST DUP3 PUSH1 0xF DUP2 GT ISZERO PUSH2 0x1E20 JUMPI PUSH2 0x1E1F PUSH2 0x43F6 JUMP JUMPDEST JUMPDEST GT ISZERO JUMPDEST PUSH2 0x1E62 JUMPI PUSH1 0x40 MLOAD PUSH32 0x8C379A000000000000000000000000000000000000000000000000000000000 DUP2 MSTORE PUSH1 0x4 ADD PUSH2 0x1E59 SWAP1 PUSH2 0x4DA7 JUMP JUMPDEST PUSH1 0x40 MLOAD DUP1 SWAP2 SUB SWAP1 REVERT JUMPDEST PUSH2 0x1E76 PUSH8 0x689B85AE64F251BF PUSH1 0xC0 SHL PUSH2 0x3356 JUMP JUMPDEST PUSH2 0x1E8A PUSH8 0x35E2A6E6763DE1BE PUSH1 0xC0 SHL PUSH2 0x3356 JUMP JUMPDEST PUSH2 0x1E9E PUSH8 0x9E04AE92E1584C0 PUSH1 0xC0 SHL PUSH2 0x3356 JUMP JUMPDEST PUSH2 0x1EB2 PUSH8 0x2117BB302F321A49 PUSH1 0xC0 SHL PUSH2 0x3356 JUMP JUMPDEST PUSH1 0x0 ISZERO ISZERO PUSH1 0x5 PUSH1 0x0 DUP8 DUP8 DUP8 DUP8 PUSH1 0x40 MLOAD PUSH1 0x20 ADD PUSH2 0x1ED1 SWAP5 SWAP4 SWAP3 SWAP2 SWAP1 PUSH2 0x4E4C JUMP JUMPDEST PUSH1 0x40 MLOAD PUSH1 0x20 DUP2 DUP4 SUB SUB DUP2 MSTORE SWAP1 PUSH1 0x40 MSTORE DUP1 MLOAD SWAP1 PUSH1 0x20 ADD KECCAK256 DUP2 MSTORE PUSH1 0x20 ADD SWAP1 DUP2 MSTORE PUSH1 0x20 ADD PUSH1 0x0 KECCAK256 PUSH1 0x2 ADD PUSH1 0x0 SWAP1 SLOAD SWAP1 PUSH2 0x100 EXP SWAP1 DIV PUSH1 0xFF AND ISZERO ISZERO EQ PUSH2 0x1F48 JUMPI PUSH1 0x40 MLOAD PUSH32 0x8C379A000000000000000000000000000000000000000000000000000000000 DUP2 MSTORE PUSH1 0x4 ADD PUSH2 0x1F3F SWAP1 PUSH2 0x5103 JUMP JUMPDEST PUSH1 0x40 MLOAD DUP1 SWAP2 SUB SWAP1 REVERT JUMPDEST PUSH2 0x1F5C PUSH8 0x918F30A7FAD84412 PUSH1 0xC0 SHL PUSH2 0x3356 JUMP JUMPDEST PUSH2 0x1F70 PUSH8 0x9D26A0BCAE16F155 PUSH1 0xC0 SHL PUSH2 0x3356 JUMP JUMPDEST PUSH2 0x1F84 PUSH8 0x62560A22786C9D89 PUSH1 0xC0 SHL PUSH2 0x3356 JUMP JUMPDEST PUSH1 0x0 DUP6 DUP6 DUP6 DUP6 PUSH1 0x40 MLOAD PUSH1 0x20 ADD PUSH2 0x1F9D SWAP5 SWAP4 SWAP3 SWAP2 SWAP1 PUSH2 0x516F JUMP JUMPDEST PUSH1 0x40 MLOAD PUSH1 0x20 DUP2 DUP4 SUB SUB DUP2 MSTORE SWAP1 PUSH1 0x40 MSTORE DUP1 MLOAD SWAP1 PUSH1 0x20 ADD KECCAK256 SWAP1 POP PUSH2 0x1FC9 PUSH8 0x6AD05DD6AD0C5E8E PUSH1 0xC0 SHL PUSH2 0x3356 JUMP JUMPDEST PUSH2 0x1FDD PUSH8 0xB018FB771A8F126A PUSH1 0xC0 SHL PUSH2 0x3356 JUMP JUMPDEST PUSH2 0x20A9 DUP2 PUSH32 0xD646AE07EB0D0F77457502A65E7407930DFF4CD4FD99ABC6AAC87A753F4C8A42 DUP9 PUSH1 0x40 MLOAD PUSH1 0x20 ADD PUSH2 0x2013 SWAP2 SWAP1 PUSH2 0x4FAB JUMP JUMPDEST PUSH1 0x40 MLOAD PUSH1 0x20 DUP2 DUP4 SUB SUB DUP2 MSTORE SWAP1 PUSH1 0x40 MSTORE DUP9 PUSH1 0x40 MLOAD PUSH1 0x20 ADD PUSH2 0x2033 SWAP2 SWAP1 PUSH2 0x4FC6 JUMP JUMPDEST PUSH1 0x40 MLOAD PUSH1 0x20 DUP2 DUP4 SUB SUB DUP2 MSTORE SWAP1 PUSH1 0x40 MSTORE DUP9 PUSH1 0x40 MLOAD PUSH1 0x20 ADD PUSH2 0x2053 SWAP2 SWAP1 PUSH2 0x4FE1 JUMP JUMPDEST PUSH1 0x40 MLOAD PUSH1 0x20 DUP2 DUP4 SUB SUB DUP2 MSTORE SWAP1 PUSH1 0x40 MSTORE DUP9 PUSH1 0x40 MLOAD PUSH1 0x20 ADD PUSH2 0x2073 SWAP2 SWAP1 PUSH2 0x4FFC JUMP JUMPDEST PUSH1 0x40 MLOAD PUSH1 0x20 DUP2 DUP4 SUB SUB DUP2 MSTORE SWAP1 PUSH1 0x40 MSTORE PUSH1 0x40 MLOAD PUSH1 0x20 ADD PUSH2 0x2095 SWAP5 SWAP4 SWAP3 SWAP2 SWAP1 PUSH2 0x51EE JUMP JUMPDEST PUSH1 0x40 MLOAD PUSH1 0x20 DUP2 DUP4 SUB SUB DUP2 MSTORE SWAP1 PUSH1 0x40 MSTORE PUSH2 0x3359 JUMP JUMPDEST PUSH2 0x20BD PUSH8 0x3838E17E05CAD86E PUSH1 0xC0 SHL PUSH2 0x3356 JUMP JUMPDEST PUSH2 0x20D1 PUSH8 0x3B992EF7312A36A2 PUSH1 0xC0 SHL PUSH2 0x3356 JUMP JUMPDEST DUP2 DUP1 ISZERO PUSH2 0x2142 JUMPI POP PUSH1 0x0 ISZERO ISZERO PUSH1 0x2 PUSH1 0x0 DUP4 DUP2 MSTORE PUSH1 0x20 ADD SWAP1 DUP2 MSTORE PUSH1 0x20 ADD PUSH1 0x0 KECCAK256 PUSH1 0x3 ADD PUSH1 0x0 CALLER PUSH20 0xFFFFFFFFFFFFFFFFFFFFFFFFFFFFFFFFFFFFFFFF AND PUSH20 0xFFFFFFFFFFFFFFFFFFFFFFFFFFFFFFFFFFFFFFFF AND DUP2 MSTORE PUSH1 0x20 ADD SWAP1 DUP2 MSTORE PUSH1 0x20 ADD PUSH1 0x0 KECCAK256 PUSH1 0x0 SWAP1 SLOAD SWAP1 PUSH2 0x100 EXP SWAP1 DIV PUSH1 0xFF AND ISZERO ISZERO EQ JUMPDEST ISZERO PUSH2 0x2203 JUMPI PUSH2 0x215B PUSH8 0xD1937D9A9D9EDE4B PUSH1 0xC0 SHL PUSH2 0x3356 JUMP JUMPDEST PUSH2 0x216F PUSH8 0xEBA93D2F1C3A3725 PUSH1 0xC0 SHL PUSH2 0x3356 JUMP JUMPDEST PUSH2 0x2183 PUSH8 0xE583D3490FB5C11A PUSH1 0xC0 SHL PUSH2 0x3356 JUMP JUMPDEST PUSH2 0x219F PUSH1 0x2 PUSH1 0x0 DUP4 DUP2 MSTORE PUSH1 0x20 ADD SWAP1 DUP2 MSTORE PUSH1 0x20 ADD PUSH1 0x0 KECCAK256 CALLER PUSH2 0x34FD JUMP JUMPDEST PUSH2 0x21B3 PUSH8 0x3C216AEF0914C7D PUSH1 0xC0 SHL PUSH2 0x3356 JUMP JUMPDEST PUSH2 0x21C7 PUSH8 0xE929230DACD39FC4 PUSH1 0xC0 SHL PUSH2 0x3356 JUMP JUMPDEST PUSH32 0xB431A69783A2491A0C400FF16DAB32CD442ABF8FE5AF63A526A7248D730192F8 DUP2 PUSH1 0x40 MLOAD PUSH2 0x21F6 SWAP2 SWAP1 PUSH2 0x42BE JUMP JUMPDEST PUSH1 0x40 MLOAD DUP1 SWAP2 SUB SWAP1 LOG1 PUSH2 0x2309 JUMP JUMPDEST PUSH2 0x2217 PUSH8 0xF0423AD893494D1F PUSH1 0xC0 SHL PUSH2 0x3356 JUMP JUMPDEST PUSH2 0x222B PUSH8 0xE4635F8420CBA4D PUSH1 0xC0 SHL PUSH2 0x3356 JUMP JUMPDEST PUSH1 0x0 ISZERO ISZERO DUP3 ISZERO ISZERO SUB PUSH2 0x22F3 JUMPI PUSH2 0x224B PUSH8 0xA8F356AE64E80FB2 PUSH1 0xC0 SHL PUSH2 0x3356 JUMP JUMPDEST PUSH2 0x225F PUSH8 0x87081979864AFEAE PUSH1 0xC0 SHL PUSH2 0x3356 JUMP JUMPDEST PUSH2 0x2273 PUSH8 0x7547DDE3E6DE66C1 PUSH1 0xC0 SHL PUSH2 0x3356 JUMP JUMPDEST PUSH2 0x228F PUSH1 0x2 PUSH1 0x0 DUP4 DUP2 MSTORE PUSH1 0x20 ADD SWAP1 DUP2 MSTORE PUSH1 0x20 ADD PUSH1 0x0 KECCAK256 CALLER PUSH2 0x377F JUMP JUMPDEST PUSH2 0x22A3 PUSH8 0x76A3D74FA8FA5457 PUSH1 0xC0 SHL PUSH2 0x3356 JUMP JUMPDEST PUSH2 0x22B7 PUSH8 0x4ED9EA8C9338F000 PUSH1 0xC0 SHL PUSH2 0x3356 JUMP JUMPDEST PUSH32 0xB431A69783A2491A0C400FF16DAB32CD442ABF8FE5AF63A526A7248D730192F8 DUP2 PUSH1 0x40 MLOAD PUSH2 0x22E6 SWAP2 SWAP1 PUSH2 0x42BE JUMP JUMPDEST PUSH1 0x40 MLOAD DUP1 SWAP2 SUB SWAP1 LOG1 PUSH2 0x2308 JUMP JUMPDEST PUSH2 0x2307 PUSH8 0x9BAA3422236FC69F PUSH1 0xC0 SHL PUSH2 0x3356 JUMP JUMPDEST JUMPDEST JUMPDEST PUSH2 0x231D PUSH8 0xC5044043363BB237 PUSH1 0xC0 SHL PUSH2 0x3356 JUMP JUMPDEST PUSH2 0x2331 PUSH8 0xBFC6B0F370D70249 PUSH1 0xC0 SHL PUSH2 0x3356 JUMP JUMPDEST PUSH2 0x2397 PUSH1 0x33 PUSH1 0xFF AND PUSH1 0x1 PUSH1 0x0 PUSH32 0xD646AE07EB0D0F77457502A65E7407930DFF4CD4FD99ABC6AAC87A753F4C8A42 DUP2 MSTORE PUSH1 0x20 ADD SWAP1 DUP2 MSTORE PUSH1 0x20 ADD PUSH1 0x0 KECCAK256 PUSH1 0x0 ADD PUSH1 0x0 SWAP1 SLOAD SWAP1 PUSH2 0x100 EXP SWAP1 DIV PUSH4 0xFFFFFFFF AND PUSH2 0x238A SWAP2 SWAP1 PUSH2 0x4BA2 JUMP JUMPDEST PUSH4 0xFFFFFFFF AND PUSH1 0x64 PUSH2 0x24F3 JUMP JUMPDEST PUSH1 0x2 PUSH1 0x0 DUP4 DUP2 MSTORE PUSH1 0x20 ADD SWAP1 DUP2 MSTORE PUSH1 0x20 ADD PUSH1 0x0 KECCAK256 PUSH1 0x2 ADD PUSH1 0x0 SWAP1 SLOAD SWAP1 PUSH2 0x100 EXP SWAP1 DIV PUSH1 0xFF AND PUSH1 0xFF AND LT PUSH2 0x24B2 JUMPI PUSH2 0x23D7 PUSH8 0x9CCB8433F30B7F61 PUSH1 0xC0 SHL PUSH2 0x3356 JUMP JUMPDEST PUSH2 0x23EB PUSH8 0x842A97201189B8B PUSH1 0xC0 SHL PUSH2 0x3356 JUMP JUMPDEST PUSH2 0x23FF PUSH8 0xCA8D401C43F5F9D7 PUSH1 0xC0 SHL PUSH2 0x3356 JUMP JUMPDEST PUSH2 0x241A PUSH1 0x2 PUSH1 0x0 DUP4 DUP2 MSTORE PUSH1 0x20 ADD SWAP1 DUP2 MSTORE PUSH1 0x20 ADD PUSH1 0x0 KECCAK256 PUSH2 0x3937 JUMP JUMPDEST PUSH2 0x242E PUSH8 0xE22DCAA2865F1211 PUSH1 0xC0 SHL PUSH2 0x3356 JUMP JUMPDEST PUSH2 0x2442 PUSH8 0x4ABA95960958E732 PUSH1 0xC0 SHL PUSH2 0x3356 JUMP JUMPDEST PUSH32 0x562618DBCF74B61AE5B0F229FE40BA6D5B6AE6B4248F8C89A870DDA7C77135F6 DUP2 PUSH1 0x40 MLOAD PUSH2 0x2471 SWAP2 SWAP1 PUSH2 0x42BE JUMP JUMPDEST PUSH1 0x40 MLOAD DUP1 SWAP2 SUB SWAP1 LOG1 PUSH2 0x248D PUSH8 0x30249E749F45B5E4 PUSH1 0xC0 SHL PUSH2 0x3356 JUMP JUMPDEST PUSH2 0x24A1 PUSH8 0x374DFD98B823C8CF PUSH1 0xC0 SHL PUSH2 0x3356 JUMP JUMPDEST PUSH2 0x24AD DUP7 DUP7 DUP7 DUP7 PUSH2 0x3A84 JUMP JUMPDEST PUSH2 0x24C7 JUMP JUMPDEST PUSH2 0x24C6 PUSH8 0x20270532058F02E5 PUSH1 0xC0 SHL PUSH2 0x3356 JUMP JUMPDEST JUMPDEST POP POP POP POP POP POP JUMP JUMPDEST PUSH32 0xD646AE07EB0D0F77457502A65E7407930DFF4CD4FD99ABC6AAC87A753F4C8A42 DUP2 JUMP JUMPDEST PUSH1 0x0 PUSH2 0x2509 PUSH8 0x81EC30575ACDFCDA PUSH1 0xC0 SHL PUSH2 0x3C83 JUMP JUMPDEST PUSH2 0x251D PUSH8 0x82DD669FF696D282 PUSH1 0xC0 SHL PUSH2 0x3C83 JUMP JUMPDEST PUSH2 0x2531 PUSH8 0x832C73CCBE439B91 PUSH1 0xC0 SHL PUSH2 0x3C83 JUMP JUMPDEST PUSH1 0x0 DUP3 DUP5 PUSH2 0x253F SWAP2 SWAP1 PUSH2 0x5297 JUMP JUMPDEST SUB PUSH2 0x2593 JUMPI PUSH2 0x2558 PUSH8 0xA7E29DD6442A81DA PUSH1 0xC0 SHL PUSH2 0x3C83 JUMP JUMPDEST PUSH2 0x256C PUSH8 0x7F6E93298EFFC577 PUSH1 0xC0 SHL PUSH2 0x3C83 JUMP JUMPDEST PUSH2 0x2580 PUSH8 0xF79F009C55D6C1FE PUSH1 0xC0 SHL PUSH2 0x3C83 JUMP JUMPDEST DUP2 DUP4 PUSH2 0x258C SWAP2 SWAP1 PUSH2 0x52C8 JUMP JUMPDEST SWAP1 POP PUSH2 0x25EA JUMP JUMPDEST PUSH2 0x25A7 PUSH8 0xC5EB65D730AC8921 PUSH1 0xC0 SHL PUSH2 0x3C83 JUMP JUMPDEST PUSH2 0x25BB PUSH8 0xB7C0510CC6AC22C5 PUSH1 0xC0 SHL PUSH2 0x3C83 JUMP JUMPDEST PUSH2 0x25CF PUSH8 0xA46511AC2BAA58D9 PUSH1 0xC0 SHL PUSH2 0x3C83 JUMP JUMPDEST PUSH1 0x1 DUP3 DUP5 PUSH2 0x25DD SWAP2 SWAP1 PUSH2 0x52C8 JUMP JUMPDEST PUSH2 0x25E7 SWAP2 SWAP1 PUSH2 0x52F9 JUMP JUMPDEST SWAP1 POP JUMPDEST SWAP3 SWAP2 POP POP JUMP JUMPDEST PUSH2 0x2604 PUSH8 0x70E61A765DFB20AA PUSH1 0xC0 SHL PUSH2 0x3356 JUMP JUMPDEST PUSH2 0x2618 PUSH8 0x68C3BD0AF40A1B5D PUSH1 0xC0 SHL PUSH2 0x3356 JUMP JUMPDEST PUSH2 0x262C PUSH8 0x2BC4242EBEBE4289 PUSH1 0xC0 SHL PUSH2 0x3356 JUMP JUMPDEST PUSH1 0x0 PUSH1 0x1 PUSH1 0x0 DUP6 DUP2 MSTORE PUSH1 0x20 ADD SWAP1 DUP2 MSTORE PUSH1 0x20 ADD PUSH1 0x0 KECCAK256 SWAP1 POP PUSH2 0x2657 PUSH8 0xE87324C8C42B7147 PUSH1 0xC0 SHL PUSH2 0x3356 JUMP JUMPDEST PUSH2 0x266B PUSH8 0x2C4D7D6A241E4B89 PUSH1 0xC0 SHL PUSH2 0x3356 JUMP JUMPDEST PUSH2 0x267F PUSH8 0xF2F4865958547479 PUSH1 0xC0 SHL PUSH2 0x3356 JUMP JUMPDEST DUP1 PUSH1 0x0 ADD PUSH1 0x4 SWAP1 SLOAD SWAP1 PUSH2 0x100 EXP SWAP1 DIV PUSH4 0xFFFFFFFF AND PUSH4 0xFFFFFFFF AND DUP2 PUSH1 0x0 ADD PUSH1 0x0 SWAP1 SLOAD SWAP1 PUSH2 0x100 EXP SWAP1 DIV PUSH4 0xFFFFFFFF AND PUSH4 0xFFFFFFFF AND GT DUP2 PUSH1 0x2 ADD SLOAD PUSH1 0x40 MLOAD PUSH1 0x20 ADD PUSH2 0x26CB SWAP2 SWAP1 PUSH2 0x4828 JUMP JUMPDEST PUSH1 0x40 MLOAD PUSH1 0x20 DUP2 DUP4 SUB SUB DUP2 MSTORE SWAP1 PUSH1 0x40 MSTORE PUSH1 0x40 MLOAD PUSH1 0x20 ADD PUSH2 0x26EA SWAP2 SWAP1 PUSH2 0x5353 JUMP JUMPDEST PUSH1 0x40 MLOAD PUSH1 0x20 DUP2 DUP4 SUB SUB DUP2 MSTORE SWAP1 PUSH1 0x40 MSTORE SWAP1 PUSH2 0x273A JUMPI PUSH1 0x40 MLOAD PUSH32 0x8C379A000000000000000000000000000000000000000000000000000000000 DUP2 MSTORE PUSH1 0x4 ADD PUSH2 0x2731 SWAP2 SWAP1 PUSH2 0x4900 JUMP JUMPDEST PUSH1 0x40 MLOAD DUP1 SWAP2 SUB SWAP1 REVERT JUMPDEST POP PUSH2 0x274F PUSH8 0x8E01888C80102D37 PUSH1 0xC0 SHL PUSH2 0x3356 JUMP JUMPDEST PUSH2 0x2763 PUSH8 0xBC51F865C49130A8 PUSH1 0xC0 SHL PUSH2 0x3356 JUMP JUMPDEST PUSH2 0x2777 PUSH8 0xF8B6AC0350413CDE PUSH1 0xC0 SHL PUSH2 0x3356 JUMP JUMPDEST PUSH2 0x278B PUSH8 0x4F5571DC82A8340F PUSH1 0xC0 SHL PUSH2 0x3356 JUMP JUMPDEST PUSH2 0x2795 DUP5 DUP5 PUSH2 0x1A63 JUMP JUMPDEST DUP2 PUSH1 0x2 ADD SLOAD PUSH1 0x40 MLOAD PUSH1 0x20 ADD PUSH2 0x27AA SWAP2 SWAP1 PUSH2 0x4828 JUMP JUMPDEST PUSH1 0x40 MLOAD PUSH1 0x20 DUP2 DUP4 SUB SUB DUP2 MSTORE SWAP1 PUSH1 0x40 MSTORE PUSH1 0x40 MLOAD PUSH1 0x20 ADD PUSH2 0x27C9 SWAP2 SWAP1 PUSH2 0x53AE JUMP JUMPDEST PUSH1 0x40 MLOAD PUSH1 0x20 DUP2 DUP4 SUB SUB DUP2 MSTORE SWAP1 PUSH1 0x40 MSTORE SWAP1 PUSH2 0x2819 JUMPI PUSH1 0x40 MLOAD PUSH32 0x8C379A000000000000000000000000000000000000000000000000000000000 DUP2 MSTORE PUSH1 0x4 ADD PUSH2 0x2810 SWAP2 SWAP1 PUSH2 0x4900 JUMP JUMPDEST PUSH1 0x40 MLOAD DUP1 SWAP2 SUB SWAP1 REVERT JUMPDEST POP PUSH2 0x282E PUSH8 0xDF20EF43CD86120A PUSH1 0xC0 SHL PUSH2 0x3356 JUMP JUMPDEST PUSH2 0x2842 PUSH8 0xF9332553ECEB56D8 PUSH1 0xC0 SHL PUSH2 0x3356 JUMP JUMPDEST PUSH2 0x2856 PUSH8 0x7D4CEA3F8D4622D5 PUSH1 0xC0 SHL PUSH2 0x3356 JUMP JUMPDEST PUSH2 0x286A PUSH8 0xEB262170AB108A03 PUSH1 0xC0 SHL PUSH2 0x3356 JUMP JUMPDEST PUSH2 0x2878 DUP2 PUSH1 0x1 ADD SLOAD CALLER PUSH2 0x1A63 JUMP JUMPDEST DUP2 PUSH1 0x2 ADD SLOAD PUSH1 0x40 MLOAD PUSH1 0x20 ADD PUSH2 0x288D SWAP2 SWAP1 PUSH2 0x4828 JUMP JUMPDEST PUSH1 0x40 MLOAD PUSH1 0x20 DUP2 DUP4 SUB SUB DUP2 MSTORE SWAP1 PUSH1 0x40 MSTORE PUSH1 0x40 MLOAD PUSH1 0x20 ADD PUSH2 0x28AC SWAP2 SWAP1 PUSH2 0x496E JUMP JUMPDEST PUSH1 0x40 MLOAD PUSH1 0x20 DUP2 DUP4 SUB SUB DUP2 MSTORE SWAP1 PUSH1 0x40 MSTORE SWAP1 PUSH2 0x28FC JUMPI PUSH1 0x40 MLOAD PUSH32 0x8C379A000000000000000000000000000000000000000000000000000000000 DUP2 MSTORE PUSH1 0x4 ADD PUSH2 0x28F3 SWAP2 SWAP1 PUSH2 0x4900 JUMP JUMPDEST PUSH1 0x40 MLOAD DUP1 SWAP2 SUB SWAP1 REVERT JUMPDEST POP PUSH2 0x2911 PUSH8 0x978F6ECC8F606819 PUSH1 0xC0 SHL PUSH2 0x3356 JUMP JUMPDEST PUSH2 0x2925 PUSH8 0xD61646692ED40D10 PUSH1 0xC0 SHL PUSH2 0x3356 JUMP JUMPDEST PUSH2 0x2939 PUSH8 0x281F41604962EF63 PUSH1 0xC0 SHL PUSH2 0x3356 JUMP JUMPDEST PUSH1 0x0 DUP4 DUP6 PUSH1 0x40 MLOAD PUSH1 0x20 ADD PUSH2 0x294E SWAP3 SWAP2 SWAP1 PUSH2 0x5420 JUMP JUMPDEST PUSH1 0x40 MLOAD PUSH1 0x20 DUP2 DUP4 SUB SUB DUP2 MSTORE SWAP1 PUSH1 0x40 MSTORE DUP1 MLOAD SWAP1 PUSH1 0x20 ADD KECCAK256 SWAP1 POP PUSH2 0x297A PUSH8 0x1DC47E9DC7E2D49 PUSH1 0xC0 SHL PUSH2 0x3356 JUMP JUMPDEST PUSH2 0x298E PUSH8 0xE00C6E3F0D9A678B PUSH1 0xC0 SHL PUSH2 0x3356 JUMP JUMPDEST PUSH2 0x2A00 DUP2 DUP4 PUSH1 0x1 ADD SLOAD DUP5 PUSH1 0x2 ADD SLOAD PUSH1 0x40 MLOAD PUSH1 0x20 ADD PUSH2 0x29AC SWAP2 SWAP1 PUSH2 0x4828 JUMP JUMPDEST PUSH1 0x40 MLOAD PUSH1 0x20 DUP2 DUP4 SUB SUB DUP2 MSTORE SWAP1 PUSH1 0x40 MSTORE DUP8 PUSH1 0x40 MLOAD PUSH1 0x20 ADD PUSH2 0x29CC SWAP2 SWAP1 PUSH2 0x4ABA JUMP JUMPDEST PUSH1 0x40 MLOAD PUSH1 0x20 DUP2 DUP4 SUB SUB DUP2 MSTORE SWAP1 PUSH1 0x40 MSTORE PUSH1 0x40 MLOAD PUSH1 0x20 ADD PUSH2 0x29EC SWAP3 SWAP2 SWAP1 PUSH2 0x547D JUMP JUMPDEST PUSH1 0x40 MLOAD PUSH1 0x20 DUP2 DUP4 SUB SUB DUP2 MSTORE SWAP1 PUSH1 0x40 MSTORE PUSH2 0x3359 JUMP JUMPDEST PUSH2 0x2A14 PUSH8 0x211496B55CB50CFF PUSH1 0xC0 SHL PUSH2 0x3356 JUMP JUMPDEST PUSH2 0x2A28 PUSH8 0xFA27C246EEE8A08B PUSH1 0xC0 SHL PUSH2 0x3356 JUMP JUMPDEST DUP3 DUP1 ISZERO PUSH2 0x2A99 JUMPI POP PUSH1 0x0 ISZERO ISZERO PUSH1 0x2 PUSH1 0x0 DUP4 DUP2 MSTORE PUSH1 0x20 ADD SWAP1 DUP2 MSTORE PUSH1 0x20 ADD PUSH1 0x0 KECCAK256 PUSH1 0x3 ADD PUSH1 0x0 CALLER PUSH20 0xFFFFFFFFFFFFFFFFFFFFFFFFFFFFFFFFFFFFFFFF AND PUSH20 0xFFFFFFFFFFFFFFFFFFFFFFFFFFFFFFFFFFFFFFFF AND DUP2 MSTORE PUSH1 0x20 ADD SWAP1 DUP2 MSTORE PUSH1 0x20 ADD PUSH1 0x0 KECCAK256 PUSH1 0x0 SWAP1 SLOAD SWAP1 PUSH2 0x100 EXP SWAP1 DIV PUSH1 0xFF AND ISZERO ISZERO EQ JUMPDEST ISZERO PUSH2 0x2B5A JUMPI PUSH2 0x2AB2 PUSH8 0xBA7A7D4F3FF1ED82 PUSH1 0xC0 SHL PUSH2 0x3356 JUMP JUMPDEST PUSH2 0x2AC6 PUSH8 0x19A84E662ED6D2E4 PUSH1 0xC0 SHL PUSH2 0x3356 JUMP JUMPDEST PUSH2 0x2ADA PUSH8 0x553B9AE776C1AC07 PUSH1 0xC0 SHL PUSH2 0x3356 JUMP JUMPDEST PUSH2 0x2AF6 PUSH1 0x2 PUSH1 0x0 DUP4 DUP2 MSTORE PUSH1 0x20 ADD SWAP1 DUP2 MSTORE PUSH1 0x20 ADD PUSH1 0x0 KECCAK256 CALLER PUSH2 0x34FD JUMP JUMPDEST PUSH2 0x2B0A PUSH8 0x76E3A440F346F78B PUSH1 0xC0 SHL PUSH2 0x3356 JUMP JUMPDEST PUSH2 0x2B1E PUSH8 0x2FE19DD197AE71B7 PUSH1 0xC0 SHL PUSH2 0x3356 JUMP JUMPDEST PUSH32 0xB431A69783A2491A0C400FF16DAB32CD442ABF8FE5AF63A526A7248D730192F8 DUP2 PUSH1 0x40 MLOAD PUSH2 0x2B4D SWAP2 SWAP1 PUSH2 0x42BE JUMP JUMPDEST PUSH1 0x40 MLOAD DUP1 SWAP2 SUB SWAP1 LOG1 PUSH2 0x2C60 JUMP JUMPDEST PUSH2 0x2B6E PUSH8 0x4DADAD20973E5E5D PUSH1 0xC0 SHL PUSH2 0x3356 JUMP JUMPDEST PUSH2 0x2B82 PUSH8 0xDCFD845B2FE814EE PUSH1 0xC0 SHL PUSH2 0x3356 JUMP JUMPDEST PUSH1 0x0 ISZERO ISZERO DUP4 ISZERO ISZERO SUB PUSH2 0x2C4A JUMPI PUSH2 0x2BA2 PUSH8 0x87C8EA0FEDA3ADA5 PUSH1 0xC0 SHL PUSH2 0x3356 JUMP JUMPDEST PUSH2 0x2BB6 PUSH8 0x124F1DAD53C69BC5 PUSH1 0xC0 SHL PUSH2 0x3356 JUMP JUMPDEST PUSH2 0x2BCA PUSH8 0x6E8D3572B8C8BA0B PUSH1 0xC0 SHL PUSH2 0x3356 JUMP JUMPDEST PUSH2 0x2BE6 PUSH1 0x2 PUSH1 0x0 DUP4 DUP2 MSTORE PUSH1 0x20 ADD SWAP1 DUP2 MSTORE PUSH1 0x20 ADD PUSH1 0x0 KECCAK256 CALLER PUSH2 0x377F JUMP JUMPDEST PUSH2 0x2BFA PUSH8 0xEC4E2BCD06462333 PUSH1 0xC0 SHL PUSH2 0x3356 JUMP JUMPDEST PUSH2 0x2C0E PUSH8 0x71868017DD9EA9A2 PUSH1 0xC0 SHL PUSH2 0x3356 JUMP JUMPDEST PUSH32 0xB431A69783A2491A0C400FF16DAB32CD442ABF8FE5AF63A526A7248D730192F8 DUP2 PUSH1 0x40 MLOAD PUSH2 0x2C3D SWAP2 SWAP1 PUSH2 0x42BE JUMP JUMPDEST PUSH1 0x40 MLOAD DUP1 SWAP2 SUB SWAP1 LOG1 PUSH2 0x2C5F JUMP JUMPDEST PUSH2 0x2C5E PUSH8 0xAB1BD67FCC0DC4E6 PUSH1 0xC0 SHL PUSH2 0x3356 JUMP JUMPDEST JUMPDEST JUMPDEST PUSH2 0x2C74 PUSH8 0x14693CE83117A4A6 PUSH1 0xC0 SHL PUSH2 0x3356 JUMP JUMPDEST PUSH2 0x2C88 PUSH8 0x1EE91D41820DE701 PUSH1 0xC0 SHL PUSH2 0x3356 JUMP JUMPDEST DUP2 PUSH1 0x1 ADD SLOAD DUP6 EQ ISZERO DUP1 ISZERO PUSH2 0x2D1B JUMPI POP PUSH2 0x2CF1 DUP3 PUSH1 0x0 ADD PUSH1 0xD SWAP1 SLOAD SWAP1 PUSH2 0x100 EXP SWAP1 DIV PUSH1 0xFF AND PUSH1 0xFF AND PUSH1 0x1 PUSH1 0x0 DUP6 PUSH1 0x1 ADD SLOAD DUP2 MSTORE PUSH1 0x20 ADD SWAP1 DUP2 MSTORE PUSH1 0x20 ADD PUSH1 0x0 KECCAK256 PUSH1 0x0 ADD PUSH1 0x0 SWAP1 SLOAD SWAP1 PUSH2 0x100 EXP SWAP1 DIV PUSH4 0xFFFFFFFF AND PUSH2 0x2CE4 SWAP2 SWAP1 PUSH2 0x4BA2 JUMP JUMPDEST PUSH4 0xFFFFFFFF AND PUSH1 0x64 PUSH2 0x24F3 JUMP JUMPDEST PUSH1 0x2 PUSH1 0x0 DUP4 DUP2 MSTORE PUSH1 0x20 ADD SWAP1 DUP2 MSTORE PUSH1 0x20 ADD PUSH1 0x0 KECCAK256 PUSH1 0x2 ADD PUSH1 0x0 SWAP1 SLOAD SWAP1 PUSH2 0x100 EXP SWAP1 DIV PUSH1 0xFF AND PUSH1 0xFF AND LT ISZERO JUMPDEST DUP1 ISZERO PUSH2 0x2D37 JUMPI POP PUSH2 0x2D36 PUSH8 0x65714EE521157C16 PUSH1 0xC0 SHL PUSH2 0x3C86 JUMP JUMPDEST JUMPDEST DUP1 PUSH2 0x2DF7 JUMPI POP DUP2 PUSH1 0x1 ADD SLOAD DUP6 EQ DUP1 ISZERO PUSH2 0x2DDA JUMPI POP PUSH2 0x2DB0 DUP3 PUSH1 0x0 ADD PUSH1 0xD SWAP1 SLOAD SWAP1 PUSH2 0x100 EXP SWAP1 DIV PUSH1 0xFF AND PUSH1 0xFF AND PUSH1 0x1 DUP1 PUSH1 0x0 DUP7 PUSH1 0x1 ADD SLOAD DUP2 MSTORE PUSH1 0x20 ADD SWAP1 DUP2 MSTORE PUSH1 0x20 ADD PUSH1 0x0 KECCAK256 PUSH1 0x0 ADD PUSH1 0x0 SWAP1 SLOAD SWAP1 PUSH2 0x100 EXP SWAP1 DIV PUSH4 0xFFFFFFFF AND PUSH2 0x2D99 SWAP2 SWAP1 PUSH2 0x54BF JUMP JUMPDEST PUSH2 0x2DA3 SWAP2 SWAP1 PUSH2 0x4BA2 JUMP JUMPDEST PUSH4 0xFFFFFFFF AND PUSH1 0x64 PUSH2 0x24F3 JUMP JUMPDEST PUSH1 0x2 PUSH1 0x0 DUP4 DUP2 MSTORE PUSH1 0x20 ADD SWAP1 DUP2 MSTORE PUSH1 0x20 ADD PUSH1 0x0 KECCAK256 PUSH1 0x2 ADD PUSH1 0x0 SWAP1 SLOAD SWAP1 PUSH2 0x100 EXP SWAP1 DIV PUSH1 0xFF AND PUSH1 0xFF AND LT ISZERO JUMPDEST DUP1 ISZERO PUSH2 0x2DF6 JUMPI POP PUSH2 0x2DF5 PUSH8 0x647B5B224D6B0949 PUSH1 0xC0 SHL PUSH2 0x3C86 JUMP JUMPDEST JUMPDEST JUMPDEST ISZERO PUSH2 0x3197 JUMPI PUSH2 0x2E10 PUSH8 0x65B7E103C94A229D PUSH1 0xC0 SHL PUSH2 0x3356 JUMP JUMPDEST PUSH2 0x2E24 PUSH8 0x12792DB49BD80008 PUSH1 0xC0 SHL PUSH2 0x3356 JUMP JUMPDEST PUSH2 0x2E38 PUSH8 0x3A5A274BE22801D2 PUSH1 0xC0 SHL PUSH2 0x3356 JUMP JUMPDEST PUSH1 0x0 JUMPDEST PUSH1 0x4 SLOAD DUP2 LT ISZERO PUSH2 0x3067 JUMPI PUSH2 0x2E59 PUSH8 0x493634455E2D80E9 PUSH1 0xC0 SHL PUSH2 0x3356 JUMP JUMPDEST PUSH2 0x2E6D PUSH8 0x1175E050037A7C27 PUSH1 0xC0 SHL PUSH2 0x3356 JUMP JUMPDEST PUSH1 0x1 ISZERO ISZERO PUSH1 0x2 PUSH1 0x0 PUSH1 0x3 PUSH1 0x0 DUP6 DUP2 MSTORE PUSH1 0x20 ADD SWAP1 DUP2 MSTORE PUSH1 0x20 ADD PUSH1 0x0 KECCAK256 SLOAD DUP2 MSTORE PUSH1 0x20 ADD SWAP1 DUP2 MSTORE PUSH1 0x20 ADD PUSH1 0x0 KECCAK256 PUSH1 0x3 ADD PUSH1 0x0 DUP8 PUSH20 0xFFFFFFFFFFFFFFFFFFFFFFFFFFFFFFFFFFFFFFFF AND PUSH20 0xFFFFFFFFFFFFFFFFFFFFFFFFFFFFFFFFFFFFFFFF AND DUP2 MSTORE PUSH1 0x20 ADD SWAP1 DUP2 MSTORE PUSH1 0x20 ADD PUSH1 0x0 KECCAK256 PUSH1 0x0 SWAP1 SLOAD SWAP1 PUSH2 0x100 EXP SWAP1 DIV PUSH1 0xFF AND ISZERO ISZERO EQ DUP1 ISZERO PUSH2 0x2F1C JUMPI POP DUP6 PUSH1 0x2 PUSH1 0x0 PUSH1 0x3 PUSH1 0x0 DUP6 DUP2 MSTORE PUSH1 0x20 ADD SWAP1 DUP2 MSTORE PUSH1 0x20 ADD PUSH1 0x0 KECCAK256 SLOAD DUP2 MSTORE PUSH1 0x20 ADD SWAP1 DUP2 MSTORE PUSH1 0x20 ADD PUSH1 0x0 KECCAK256 PUSH1 0x1 ADD SLOAD EQ JUMPDEST ISZERO PUSH2 0x303F JUMPI PUSH2 0x2F35 PUSH8 0x5137F0B970B59AA7 PUSH1 0xC0 SHL PUSH2 0x3356 JUMP JUMPDEST PUSH2 0x2F49 PUSH8 0x7BA3D7AD982F17C1 PUSH1 0xC0 SHL PUSH2 0x3356 JUMP JUMPDEST PUSH1 0x1 PUSH1 0x2 PUSH1 0x0 PUSH1 0x3 PUSH1 0x0 DUP6 DUP2 MSTORE PUSH1 0x20 ADD SWAP1 DUP2 MSTORE PUSH1 0x20 ADD PUSH1 0x0 KECCAK256 SLOAD DUP2 MSTORE PUSH1 0x20 ADD SWAP1 DUP2 MSTORE PUSH1 0x20 ADD PUSH1 0x0 KECCAK256 PUSH1 0x2 ADD PUSH1 0x0 DUP3 DUP3 DUP3 SWAP1 SLOAD SWAP1 PUSH2 0x100 EXP SWAP1 DIV PUSH1 0xFF AND PUSH2 0x2F8F SWAP2 SWAP1 PUSH2 0x54F7 JUMP JUMPDEST SWAP3 POP PUSH2 0x100 EXP DUP2 SLOAD DUP2 PUSH1 0xFF MUL NOT AND SWAP1 DUP4 PUSH1 0xFF AND MUL OR SWAP1 SSTORE POP PUSH2 0x2FBB PUSH8 0x5FF2FE70F0A16508 PUSH1 0xC0 SHL PUSH2 0x3356 JUMP JUMPDEST PUSH1 0x0 PUSH1 0x2 PUSH1 0x0 PUSH1 0x3 PUSH1 0x0 DUP6 DUP2 MSTORE PUSH1 0x20 ADD SWAP1 DUP2 MSTORE PUSH1 0x20 ADD PUSH1 0x0 KECCAK256 SLOAD DUP2 MSTORE PUSH1 0x20 ADD SWAP1 DUP2 MSTORE PUSH1 0x20 ADD PUSH1 0x0 KECCAK256 PUSH1 0x3 ADD PUSH1 0x0 DUP8 PUSH20 0xFFFFFFFFFFFFFFFFFFFFFFFFFFFFFFFFFFFFFFFF AND PUSH20 0xFFFFFFFFFFFFFFFFFFFFFFFFFFFFFFFFFFFFFFFF AND DUP2 MSTORE PUSH1 0x20 ADD SWAP1 DUP2 MSTORE PUSH1 0x20 ADD PUSH1 0x0 KECCAK256 PUSH1 0x0 PUSH2 0x100 EXP DUP2 SLOAD DUP2 PUSH1 0xFF MUL NOT AND SWAP1 DUP4 ISZERO ISZERO MUL OR SWAP1 SSTORE POP PUSH2 0x3054 JUMP JUMPDEST PUSH2 0x3053 PUSH8 0x39D9FB6B575BA4E3 PUSH1 0xC0 SHL PUSH2 0x3356 JUMP JUMPDEST JUMPDEST DUP1 DUP1 PUSH2 0x305F SWAP1 PUSH2 0x552C JUMP JUMPDEST SWAP2 POP POP PUSH2 0x2E3B JUMP JUMPDEST POP PUSH2 0x307C PUSH8 0x248DCA5C34FF865B PUSH1 0xC0 SHL PUSH2 0x3356 JUMP JUMPDEST PUSH2 0x3090 PUSH8 0x52D84047F7EC1FD8 PUSH1 0xC0 SHL PUSH2 0x3356 JUMP JUMPDEST PUSH2 0x30AB PUSH1 0x2 PUSH1 0x0 DUP4 DUP2 MSTORE PUSH1 0x20 ADD SWAP1 DUP2 MSTORE PUSH1 0x20 ADD PUSH1 0x0 KECCAK256 PUSH2 0x3937 JUMP JUMPDEST PUSH2 0x30BF PUSH8 0xAE030A65C15F8755 PUSH1 0xC0 SHL PUSH2 0x3356 JUMP JUMPDEST PUSH2 0x30D3 PUSH8 0x4DBD682BD4FC3106 PUSH1 0xC0 SHL PUSH2 0x3356 JUMP JUMPDEST PUSH32 0x562618DBCF74B61AE5B0F229FE40BA6D5B6AE6B4248F8C89A870DDA7C77135F6 DUP2 PUSH1 0x40 MLOAD PUSH2 0x3102 SWAP2 SWAP1 PUSH2 0x42BE JUMP JUMPDEST PUSH1 0x40 MLOAD DUP1 SWAP2 SUB SWAP1 LOG1 PUSH2 0x311E PUSH8 0x14F96B5406597F99 PUSH1 0xC0 SHL PUSH2 0x3356 JUMP JUMPDEST PUSH2 0x3132 PUSH8 0xDF07991CAEF353D PUSH1 0xC0 SHL PUSH2 0x3356 JUMP JUMPDEST PUSH2 0x313C DUP6 DUP6 PUSH2 0x3C91 JUMP JUMPDEST PUSH2 0x3150 PUSH8 0xAE62EA1482F5A883 PUSH1 0xC0 SHL PUSH2 0x3356 JUMP JUMPDEST PUSH1 0x1 DUP3 PUSH1 0x0 ADD PUSH1 0x0 DUP3 DUP3 DUP3 SWAP1 SLOAD SWAP1 PUSH2 0x100 EXP SWAP1 DIV PUSH4 0xFFFFFFFF AND PUSH2 0x3174 SWAP2 SWAP1 PUSH2 0x54BF JUMP JUMPDEST SWAP3 POP PUSH2 0x100 EXP DUP2 SLOAD DUP2 PUSH4 0xFFFFFFFF MUL NOT AND SWAP1 DUP4 PUSH4 0xFFFFFFFF AND MUL OR SWAP1 SSTORE POP PUSH2 0x31AC JUMP JUMPDEST PUSH2 0x31AB PUSH8 0x163E0E75E54E0C8A PUSH1 0xC0 SHL PUSH2 0x3356 JUMP JUMPDEST JUMPDEST POP POP POP POP POP JUMP JUMPDEST PUSH2 0x31BC DUP3 PUSH2 0x681 JUMP JUMPDEST PUSH2 0x31C5 DUP2 PUSH2 0x3262 JUMP JUMPDEST PUSH2 0x31CF DUP4 DUP4 PUSH2 0x3C91 JUMP JUMPDEST POP POP POP JUMP JUMPDEST PUSH32 0x4BBEB6FD3E5222E55F2F8B0C35BC228E0A06A25D0DA772FDB02C3B92FA004F88 DUP2 JUMP JUMPDEST PUSH1 0x0 PUSH32 0x1FFC9A700000000000000000000000000000000000000000000000000000000 PUSH28 0xFFFFFFFFFFFFFFFFFFFFFFFFFFFFFFFFFFFFFFFFFFFFFFFFFFFFFFFF NOT AND DUP3 PUSH28 0xFFFFFFFFFFFFFFFFFFFFFFFFFFFFFFFFFFFFFFFFFFFFFFFFFFFFFFFF NOT AND EQ SWAP1 POP SWAP2 SWAP1 POP JUMP JUMPDEST PUSH2 0x3273 DUP2 PUSH2 0x326E PUSH2 0x3D72 JUMP JUMPDEST PUSH2 0x3D7A JUMP JUMPDEST POP JUMP JUMPDEST PUSH2 0x3280 DUP3 DUP3 PUSH2 0x1A63 JUMP JUMPDEST PUSH2 0x3352 JUMPI PUSH1 0x1 PUSH1 0x0 DUP1 DUP5 DUP2 MSTORE PUSH1 0x20 ADD SWAP1 DUP2 MSTORE PUSH1 0x20 ADD PUSH1 0x0 KECCAK256 PUSH1 0x0 ADD PUSH1 0x0 DUP4 PUSH20 0xFFFFFFFFFFFFFFFFFFFFFFFFFFFFFFFFFFFFFFFF AND PUSH20 0xFFFFFFFFFFFFFFFFFFFFFFFFFFFFFFFFFFFFFFFF AND DUP2 MSTORE PUSH1 0x20 ADD SWAP1 DUP2 MSTORE PUSH1 0x20 ADD PUSH1 0x0 KECCAK256 PUSH1 0x0 PUSH2 0x100 EXP DUP2 SLOAD DUP2 PUSH1 0xFF MUL NOT AND SWAP1 DUP4 ISZERO ISZERO MUL OR SWAP1 SSTORE POP PUSH2 0x32F7 PUSH2 0x3D72 JUMP JUMPDEST PUSH20 0xFFFFFFFFFFFFFFFFFFFFFFFFFFFFFFFFFFFFFFFF AND DUP2 PUSH20 0xFFFFFFFFFFFFFFFFFFFFFFFFFFFFFFFFFFFFFFFF AND DUP4 PUSH32 0x2F8788117E7EFF1D82E926EC794901D17C78024A50270940304540A733656F0D PUSH1 0x40 MLOAD PUSH1 0x40 MLOAD DUP1 SWAP2 SUB SWAP1 LOG4 JUMPDEST POP POP JUMP JUMPDEST POP JUMP JUMPDEST PUSH2 0x336D PUSH8 0xA0247630C45FC010 PUSH1 0xC0 SHL PUSH2 0x3356 JUMP JUMPDEST PUSH2 0x3381 PUSH8 0xCB56C9DFFEF6C09B PUSH1 0xC0 SHL PUSH2 0x3356 JUMP JUMPDEST PUSH2 0x3395 PUSH8 0xF6C466182E7DAF4 PUSH1 0xC0 SHL PUSH2 0x3356 JUMP JUMPDEST PUSH1 0x0 ISZERO ISZERO PUSH1 0x2 PUSH1 0x0 DUP6 DUP2 MSTORE PUSH1 0x20 ADD SWAP1 DUP2 MSTORE PUSH1 0x20 ADD PUSH1 0x0 KECCAK256 PUSH1 0x0 ADD PUSH1 0x0 SWAP1 SLOAD SWAP1 PUSH2 0x100 EXP SWAP1 DIV PUSH1 0xFF AND ISZERO ISZERO SUB PUSH2 0x34E3 JUMPI PUSH2 0x33D8 PUSH8 0x96AF1B9E171F5D0C PUSH1 0xC0 SHL PUSH2 0x3356 JUMP JUMPDEST PUSH2 0x33EC PUSH8 0x6EA5A5CFDD40CA77 PUSH1 0xC0 SHL PUSH2 0x3356 JUMP JUMPDEST PUSH1 0x1 PUSH1 0x2 PUSH1 0x0 DUP6 DUP2 MSTORE PUSH1 0x20 ADD SWAP1 DUP2 MSTORE PUSH1 0x20 ADD PUSH1 0x0 KECCAK256 PUSH1 0x0 ADD PUSH1 0x0 PUSH2 0x100 EXP DUP2 SLOAD DUP2 PUSH1 0xFF MUL NOT AND SWAP1 DUP4 ISZERO ISZERO MUL OR SWAP1 SSTORE POP PUSH2 0x342F PUSH8 0x34C805801AD925B4 PUSH1 0xC0 SHL PUSH2 0x3356 JUMP JUMPDEST DUP3 PUSH1 0x3 PUSH1 0x0 PUSH1 0x4 SLOAD DUP2 MSTORE PUSH1 0x20 ADD SWAP1 DUP2 MSTORE PUSH1 0x20 ADD PUSH1 0x0 KECCAK256 DUP2 SWAP1 SSTORE POP PUSH2 0x345D PUSH8 0xDE2808851EA85358 PUSH1 0xC0 SHL PUSH2 0x3356 JUMP JUMPDEST PUSH1 0x1 PUSH1 0x4 PUSH1 0x0 DUP3 DUP3 SLOAD PUSH2 0x3470 SWAP2 SWAP1 PUSH2 0x52F9 JUMP JUMPDEST SWAP3 POP POP DUP2 SWAP1 SSTORE POP PUSH2 0x348B PUSH8 0x7AB469CC82D327C1 PUSH1 0xC0 SHL PUSH2 0x3356 JUMP JUMPDEST DUP2 PUSH1 0x2 PUSH1 0x0 DUP6 DUP2 MSTORE PUSH1 0x20 ADD SWAP1 DUP2 MSTORE PUSH1 0x20 ADD PUSH1 0x0 KECCAK256 PUSH1 0x1 ADD DUP2 SWAP1 SSTORE POP PUSH2 0x34BA PUSH8 0x34FCCB1C20348035 PUSH1 0xC0 SHL PUSH2 0x3356 JUMP JUMPDEST DUP1 PUSH1 0x2 PUSH1 0x0 DUP6 DUP2 MSTORE PUSH1 0x20 ADD SWAP1 DUP2 MSTORE PUSH1 0x20 ADD PUSH1 0x0 KECCAK256 PUSH1 0x5 ADD SWAP1 DUP2 PUSH2 0x34DD SWAP2 SWAP1 PUSH2 0x574F JUMP JUMPDEST POP PUSH2 0x34F8 JUMP JUMPDEST PUSH2 0x34F7 PUSH8 0xFC92D0035D00688E PUSH1 0xC0 SHL PUSH2 0x3356 JUMP JUMPDEST JUMPDEST POP POP POP JUMP JUMPDEST PUSH2 0x3511 PUSH8 0xEA8284493F6FBF29 PUSH1 0xC0 SHL PUSH2 0x3DFF JUMP JUMPDEST PUSH2 0x3525 PUSH8 0x37D5072686F3BD60 PUSH1 0xC0 SHL PUSH2 0x3DFF JUMP JUMPDEST PUSH2 0x3539 PUSH8 0x66545A946DE59F8D PUSH1 0xC0 SHL PUSH2 0x3DFF JUMP JUMPDEST PUSH2 0x354D PUSH8 0x31EAAD2FFFBC28CF PUSH1 0xC0 SHL PUSH2 0x3DFF JUMP JUMPDEST PUSH1 0x0 ISZERO ISZERO DUP3 PUSH1 0x3 ADD PUSH1 0x0 DUP4 PUSH20 0xFFFFFFFFFFFFFFFFFFFFFFFFFFFFFFFFFFFFFFFF AND PUSH20 0xFFFFFFFFFFFFFFFFFFFFFFFFFFFFFFFFFFFFFFFF AND DUP2 MSTORE PUSH1 0x20 ADD SWAP1 DUP2 MSTORE PUSH1 0x20 ADD PUSH1 0x0 KECCAK256 PUSH1 0x0 SWAP1 SLOAD SWAP1 PUSH2 0x100 EXP SWAP1 DIV PUSH1 0xFF AND ISZERO ISZERO EQ PUSH2 0x35E2 JUMPI PUSH1 0x40 MLOAD PUSH32 0x8C379A000000000000000000000000000000000000000000000000000000000 DUP2 MSTORE PUSH1 0x4 ADD PUSH2 0x35D9 SWAP1 PUSH2 0x586D JUMP JUMPDEST PUSH1 0x40 MLOAD DUP1 SWAP2 SUB SWAP1 REVERT JUMPDEST PUSH2 0x35F6 PUSH8 0xF6D6508D26F3F5E5 PUSH1 0xC0 SHL PUSH2 0x3DFF JUMP JUMPDEST PUSH2 0x360A PUSH8 0xCDAE7870D52EB879 PUSH1 0xC0 SHL PUSH2 0x3DFF JUMP JUMPDEST DUP1 DUP3 PUSH1 0x4 ADD PUSH1 0x0 DUP5 PUSH1 0x2 ADD PUSH1 0x1 SWAP1 SLOAD SWAP1 PUSH2 0x100 EXP SWAP1 DIV PUSH1 0xFF AND PUSH1 0xFF AND DUP2 MSTORE PUSH1 0x20 ADD SWAP1 DUP2 MSTORE PUSH1 0x20 ADD PUSH1 0x0 KECCAK256 PUSH1 0x0 PUSH2 0x100 EXP DUP2 SLOAD DUP2 PUSH20 0xFFFFFFFFFFFFFFFFFFFFFFFFFFFFFFFFFFFFFFFF MUL NOT AND SWAP1 DUP4 PUSH20 0xFFFFFFFFFFFFFFFFFFFFFFFFFFFFFFFFFFFFFFFF AND MUL OR SWAP1 SSTORE POP PUSH2 0x3686 PUSH8 0xC2B6F3D8C6B45185 PUSH1 0xC0 SHL PUSH2 0x3DFF JUMP JUMPDEST DUP2 PUSH1 0x2 ADD PUSH1 0x1 DUP2 DUP2 SWAP1 SLOAD SWAP1 PUSH2 0x100 EXP SWAP1 DIV PUSH1 0xFF AND DUP1 SWAP3 SWAP2 SWAP1 PUSH2 0x36A7 SWAP1 PUSH2 0x588D JUMP JUMPDEST SWAP2 SWAP1 PUSH2 0x100 EXP DUP2 SLOAD DUP2 PUSH1 0xFF MUL NOT AND SWAP1 DUP4 PUSH1 0xFF AND MUL OR SWAP1 SSTORE POP POP PUSH2 0x36D4 PUSH8 0x683B58CE757835D1 PUSH1 0xC0 SHL PUSH2 0x3DFF JUMP JUMPDEST PUSH1 0x1 DUP3 PUSH1 0x3 ADD PUSH1 0x0 DUP4 PUSH20 0xFFFFFFFFFFFFFFFFFFFFFFFFFFFFFFFFFFFFFFFF AND PUSH20 0xFFFFFFFFFFFFFFFFFFFFFFFFFFFFFFFFFFFFFFFF AND DUP2 MSTORE PUSH1 0x20 ADD SWAP1 DUP2 MSTORE PUSH1 0x20 ADD PUSH1 0x0 KECCAK256 PUSH1 0x0 PUSH2 0x100 EXP DUP2 SLOAD DUP2 PUSH1 0xFF MUL NOT AND SWAP1 DUP4 ISZERO ISZERO MUL OR SWAP1 SSTORE POP PUSH2 0x3742 PUSH8 0x7EB5646AFE662D2B PUSH1 0xC0 SHL PUSH2 0x3DFF JUMP JUMPDEST PUSH1 0x1 DUP3 PUSH1 0x2 ADD PUSH1 0x0 DUP3 DUP3 DUP3 SWAP1 SLOAD SWAP1 PUSH2 0x100 EXP SWAP1 DIV PUSH1 0xFF AND PUSH2 0x3763 SWAP2 SWAP1 PUSH2 0x58B6 JUMP JUMPDEST SWAP3 POP PUSH2 0x100 EXP DUP2 SLOAD DUP2 PUSH1 0xFF MUL NOT AND SWAP1 DUP4 PUSH1 0xFF AND MUL OR SWAP1 SSTORE POP POP POP JUMP JUMPDEST PUSH2 0x3793 PUSH8 0x51CD9ADD8177CB1E PUSH1 0xC0 SHL PUSH2 0x3DFF JUMP JUMPDEST PUSH2 0x37A7 PUSH8 0x6EBD3423EE3B665A PUSH1 0xC0 SHL PUSH2 0x3DFF JUMP JUMPDEST PUSH2 0x37BB PUSH8 0x69FDCBE1983A1626 PUSH1 0xC0 SHL PUSH2 0x3DFF JUMP JUMPDEST PUSH2 0x37CF PUSH8 0xEC9D93FF10F153E7 PUSH1 0xC0 SHL PUSH2 0x3DFF JUMP JUMPDEST PUSH1 0x1 ISZERO ISZERO DUP3 PUSH1 0x3 ADD PUSH1 0x0 DUP4 PUSH20 0xFFFFFFFFFFFFFFFFFFFFFFFFFFFFFFFFFFFFFFFF AND PUSH20 0xFFFFFFFFFFFFFFFFFFFFFFFFFFFFFFFFFFFFFFFF AND DUP2 MSTORE PUSH1 0x20 ADD SWAP1 DUP2 MSTORE PUSH1 0x20 ADD PUSH1 0x0 KECCAK256 PUSH1 0x0 SWAP1 SLOAD SWAP1 PUSH2 0x100 EXP SWAP1 DIV PUSH1 0xFF AND ISZERO ISZERO EQ PUSH2 0x3864 JUMPI PUSH1 0x40 MLOAD PUSH32 0x8C379A000000000000000000000000000000000000000000000000000000000 DUP2 MSTORE PUSH1 0x4 ADD PUSH2 0x385B SWAP1 PUSH2 0x595D JUMP JUMPDEST PUSH1 0x40 MLOAD DUP1 SWAP2 SUB SWAP1 REVERT JUMPDEST PUSH2 0x3878 PUSH8 0x50584B137311D374 PUSH1 0xC0 SHL PUSH2 0x3DFF JUMP JUMPDEST PUSH2 0x388C PUSH8 0x55E8D06217DDE6BA PUSH1 0xC0 SHL PUSH2 0x3DFF JUMP JUMPDEST PUSH1 0x0 DUP3 PUSH1 0x3 ADD PUSH1 0x0 DUP4 PUSH20 0xFFFFFFFFFFFFFFFFFFFFFFFFFFFFFFFFFFFFFFFF AND PUSH20 0xFFFFFFFFFFFFFFFFFFFFFFFFFFFFFFFFFFFFFFFF AND DUP2 MSTORE PUSH1 0x20 ADD SWAP1 DUP2 MSTORE PUSH1 0x20 ADD PUSH1 0x0 KECCAK256 PUSH1 0x0 PUSH2 0x100 EXP DUP2 SLOAD DUP2 PUSH1 0xFF MUL NOT AND SWAP1 DUP4 ISZERO ISZERO MUL OR SWAP1 SSTORE POP PUSH2 0x38FA PUSH8 0xB945E5D11D41832A PUSH1 0xC0 SHL PUSH2 0x3DFF JUMP JUMPDEST PUSH1 0x1 DUP3 PUSH1 0x2 ADD PUSH1 0x0 DUP3 DUP3 DUP3 SWAP1 SLOAD SWAP1 PUSH2 0x100 EXP SWAP1 DIV PUSH1 0xFF AND PUSH2 0x391B SWAP2 SWAP1 PUSH2 0x54F7 JUMP JUMPDEST SWAP3 POP PUSH2 0x100 EXP DUP2 SLOAD DUP2 PUSH1 0xFF MUL NOT AND SWAP1 DUP4 PUSH1 0xFF AND MUL OR SWAP1 SSTORE POP POP POP JUMP JUMPDEST PUSH2 0x394B PUSH8 0x343BEE6A3141A1F8 PUSH1 0xC0 SHL PUSH2 0x3DFF JUMP JUMPDEST PUSH2 0x395F PUSH8 0xC55B4C989E4320FA PUSH1 0xC0 SHL PUSH2 0x3DFF JUMP JUMPDEST PUSH1 0x0 DUP2 PUSH1 0x2 ADD PUSH1 0x0 PUSH2 0x100 EXP DUP2 SLOAD DUP2 PUSH1 0xFF MUL NOT AND SWAP1 DUP4 PUSH1 0xFF AND MUL OR SWAP1 SSTORE POP PUSH2 0x3991 PUSH8 0xD1D487718112CDE8 PUSH1 0xC0 SHL PUSH2 0x3DFF JUMP JUMPDEST PUSH2 0x39A5 PUSH8 0xA3DE6BD1A15B6E6A PUSH1 0xC0 SHL PUSH2 0x3DFF JUMP JUMPDEST PUSH1 0x0 JUMPDEST DUP2 PUSH1 0x2 ADD PUSH1 0x1 SWAP1 SLOAD SWAP1 PUSH2 0x100 EXP SWAP1 DIV PUSH1 0xFF AND PUSH1 0xFF AND DUP2 PUSH1 0xFF AND LT ISZERO PUSH2 0x3A80 JUMPI PUSH2 0x39DB PUSH8 0x715C20B636AC690E PUSH1 0xC0 SHL PUSH2 0x3DFF JUMP JUMPDEST PUSH1 0x0 DUP3 PUSH1 0x3 ADD PUSH1 0x0 DUP5 PUSH1 0x4 ADD PUSH1 0x0 DUP6 PUSH1 0xFF AND DUP2 MSTORE PUSH1 0x20 ADD SWAP1 DUP2 MSTORE PUSH1 0x20 ADD PUSH1 0x0 KECCAK256 PUSH1 0x0 SWAP1 SLOAD SWAP1 PUSH2 0x100 EXP SWAP1 DIV PUSH20 0xFFFFFFFFFFFFFFFFFFFFFFFFFFFFFFFFFFFFFFFF AND PUSH20 0xFFFFFFFFFFFFFFFFFFFFFFFFFFFFFFFFFFFFFFFF AND PUSH20 0xFFFFFFFFFFFFFFFFFFFFFFFFFFFFFFFFFFFFFFFF AND DUP2 MSTORE PUSH1 0x20 ADD SWAP1 DUP2 MSTORE PUSH1 0x20 ADD PUSH1 0x0 KECCAK256 PUSH1 0x0 PUSH2 0x100 EXP DUP2 SLOAD DUP2 PUSH1 0xFF MUL NOT AND SWAP1 DUP4 ISZERO ISZERO MUL OR SWAP1 SSTORE POP DUP1 DUP1 PUSH2 0x3A78 SWAP1 PUSH2 0x588D JUMP JUMPDEST SWAP2 POP POP PUSH2 0x39A8 JUMP JUMPDEST POP POP JUMP JUMPDEST PUSH2 0x3A98 PUSH8 0xA4E6A19CBFE51679 PUSH1 0xC0 SHL PUSH2 0x3356 JUMP JUMPDEST PUSH2 0x3AAC PUSH8 0x5C78A7177EB1A8FB PUSH1 0xC0 SHL PUSH2 0x3356 JUMP JUMPDEST PUSH1 0x40 MLOAD DUP1 PUSH1 0xC0 ADD PUSH1 0x40 MSTORE DUP1 DUP5 PUSH1 0x3 DUP2 GT ISZERO PUSH2 0x3ACA JUMPI PUSH2 0x3AC9 PUSH2 0x43F6 JUMP JUMPDEST JUMPDEST DUP2 MSTORE PUSH1 0x20 ADD DUP4 PUSH1 0x2 DUP2 GT ISZERO PUSH2 0x3AE2 JUMPI PUSH2 0x3AE1 PUSH2 0x43F6 JUMP JUMPDEST JUMPDEST DUP2 MSTORE PUSH1 0x20 ADD DUP3 PUSH1 0xF DUP2 GT ISZERO PUSH2 0x3AFA JUMPI PUSH2 0x3AF9 PUSH2 0x43F6 JUMP JUMPDEST JUMPDEST DUP2 MSTORE PUSH1 0x20 ADD TIMESTAMP DUP2 MSTORE PUSH1 0x20 ADD PUSH1 0x1 ISZERO ISZERO DUP2 MSTORE PUSH1 0x20 ADD DUP6 DUP2 MSTORE POP PUSH1 0x5 PUSH1 0x0 DUP7 DUP7 DUP7 DUP7 PUSH1 0x40 MLOAD PUSH1 0x20 ADD PUSH2 0x3B2D SWAP5 SWAP4 SWAP3 SWAP2 SWAP1 PUSH2 0x4E4C JUMP JUMPDEST PUSH1 0x40 MLOAD PUSH1 0x20 DUP2 DUP4 SUB SUB DUP2 MSTORE SWAP1 PUSH1 0x40 MSTORE DUP1 MLOAD SWAP1 PUSH1 0x20 ADD KECCAK256 DUP2 MSTORE PUSH1 0x20 ADD SWAP1 DUP2 MSTORE PUSH1 0x20 ADD PUSH1 0x0 KECCAK256 PUSH1 0x0 DUP3 ADD MLOAD DUP2 PUSH1 0x0 ADD PUSH1 0x0 PUSH2 0x100 EXP DUP2 SLOAD DUP2 PUSH1 0xFF MUL NOT AND SWAP1 DUP4 PUSH1 0x3 DUP2 GT ISZERO PUSH2 0x3B7C JUMPI PUSH2 0x3B7B PUSH2 0x43F6 JUMP JUMPDEST JUMPDEST MUL OR SWAP1 SSTORE POP PUSH1 0x20 DUP3 ADD MLOAD DUP2 PUSH1 0x0 ADD PUSH1 0x1 PUSH2 0x100 EXP DUP2 SLOAD DUP2 PUSH1 0xFF MUL NOT AND SWAP1 DUP4 PUSH1 0x2 DUP2 GT ISZERO PUSH2 0x3BAC JUMPI PUSH2 0x3BAB PUSH2 0x43F6 JUMP JUMPDEST JUMPDEST MUL OR SWAP1 SSTORE POP PUSH1 0x40 DUP3 ADD MLOAD DUP2 PUSH1 0x0 ADD PUSH1 0x2 PUSH2 0x100 EXP DUP2 SLOAD DUP2 PUSH1 0xFF MUL NOT AND SWAP1 DUP4 PUSH1 0xF DUP2 GT ISZERO PUSH2 0x3BDC JUMPI PUSH2 0x3BDB PUSH2 0x43F6 JUMP JUMPDEST JUMPDEST MUL OR SWAP1 SSTORE POP PUSH1 0x60 DUP3 ADD MLOAD DUP2 PUSH1 0x1 ADD SSTORE PUSH1 0x80 DUP3 ADD MLOAD DUP2 PUSH1 0x2 ADD PUSH1 0x0 PUSH2 0x100 EXP DUP2 SLOAD DUP2 PUSH1 0xFF MUL NOT AND SWAP1 DUP4 ISZERO ISZERO MUL OR SWAP1 SSTORE POP PUSH1 0xA0 DUP3 ADD MLOAD DUP2 PUSH1 0x3 ADD SSTORE SWAP1 POP POP PUSH2 0x3C2C PUSH8 0xBF4499FF51C0C221 PUSH1 0xC0 SHL PUSH2 0x3356 JUMP JUMPDEST PUSH2 0x3C40 PUSH8 0x822948BE4D3EF9A7 PUSH1 0xC0 SHL PUSH2 0x3356 JUMP JUMPDEST PUSH32 0xB55811DD01470A227956304B027C610C7CDF9DD622DCC47791380261D56DC6ED DUP5 DUP5 DUP5 DUP5 PUSH1 0x40 MLOAD PUSH2 0x3C75 SWAP5 SWAP4 SWAP3 SWAP2 SWAP1 PUSH2 0x597D JUMP JUMPDEST PUSH1 0x40 MLOAD DUP1 SWAP2 SUB SWAP1 LOG1 POP POP POP POP JUMP JUMPDEST POP JUMP JUMPDEST PUSH1 0x0 PUSH1 0x1 SWAP1 POP SWAP2 SWAP1 POP JUMP JUMPDEST PUSH2 0x3C9B DUP3 DUP3 PUSH2 0x1A63 JUMP JUMPDEST ISZERO PUSH2 0x3D6E JUMPI PUSH1 0x0 DUP1 PUSH1 0x0 DUP5 DUP2 MSTORE PUSH1 0x20 ADD SWAP1 DUP2 MSTORE PUSH1 0x20 ADD PUSH1 0x0 KECCAK256 PUSH1 0x0 ADD PUSH1 0x0 DUP4 PUSH20 0xFFFFFFFFFFFFFFFFFFFFFFFFFFFFFFFFFFFFFFFF AND PUSH20 0xFFFFFFFFFFFFFFFFFFFFFFFFFFFFFFFFFFFFFFFF AND DUP2 MSTORE PUSH1 0x20 ADD SWAP1 DUP2 MSTORE PUSH1 0x20 ADD PUSH1 0x0 KECCAK256 PUSH1 0x0 PUSH2 0x100 EXP DUP2 SLOAD DUP2 PUSH1 0xFF MUL NOT AND SWAP1 DUP4 ISZERO ISZERO MUL OR SWAP1 SSTORE POP PUSH2 0x3D13 PUSH2 0x3D72 JUMP JUMPDEST PUSH20 0xFFFFFFFFFFFFFFFFFFFFFFFFFFFFFFFFFFFFFFFF AND DUP2 PUSH20 0xFFFFFFFFFFFFFFFFFFFFFFFFFFFFFFFFFFFFFFFF AND DUP4 PUSH32 0xF6391F5C32D9C69D2A47EA670B442974B53935D1EDC7FD64EB21E047A839171B PUSH1 0x40 MLOAD PUSH1 0x40 MLOAD DUP1 SWAP2 SUB SWAP1 LOG4 JUMPDEST POP POP JUMP JUMPDEST PUSH1 0x0 CALLER SWAP1 POP SWAP1 JUMP JUMPDEST PUSH2 0x3D84 DUP3 DUP3 PUSH2 0x1A63 JUMP JUMPDEST PUSH2 0x3DFB JUMPI PUSH2 0x3D91 DUP2 PUSH2 0x3E02 JUMP JUMPDEST PUSH2 0x3D9F DUP4 PUSH1 0x0 SHR PUSH1 0x20 PUSH2 0x3E2F JUMP JUMPDEST PUSH1 0x40 MLOAD PUSH1 0x20 ADD PUSH2 0x3DB0 SWAP3 SWAP2 SWAP1 PUSH2 0x5A5A JUMP JUMPDEST PUSH1 0x40 MLOAD PUSH1 0x20 DUP2 DUP4 SUB SUB DUP2 MSTORE SWAP1 PUSH1 0x40 MSTORE PUSH1 0x40 MLOAD PUSH32 0x8C379A000000000000000000000000000000000000000000000000000000000 DUP2 MSTORE PUSH1 0x4 ADD PUSH2 0x3DF2 SWAP2 SWAP1 PUSH2 0x4900 JUMP JUMPDEST PUSH1 0x40 MLOAD DUP1 SWAP2 SUB SWAP1 REVERT JUMPDEST POP POP JUMP JUMPDEST POP JUMP JUMPDEST PUSH1 0x60 PUSH2 0x3E28 DUP3 PUSH20 0xFFFFFFFFFFFFFFFFFFFFFFFFFFFFFFFFFFFFFFFF AND PUSH1 0x14 PUSH1 0xFF AND PUSH2 0x3E2F JUMP JUMPDEST SWAP1 POP SWAP2 SWAP1 POP JUMP JUMPDEST PUSH1 0x60 PUSH1 0x0 PUSH1 0x2 DUP4 PUSH1 0x2 PUSH2 0x3E42 SWAP2 SWAP1 PUSH2 0x5A94 JUMP JUMPDEST PUSH2 0x3E4C SWAP2 SWAP1 PUSH2 0x52F9 JUMP JUMPDEST PUSH8 0xFFFFFFFFFFFFFFFF DUP2 GT ISZERO PUSH2 0x3E65 JUMPI PUSH2 0x3E64 PUSH2 0x5574 JUMP JUMPDEST JUMPDEST PUSH1 0x40 MLOAD SWAP1 DUP1 DUP3 MSTORE DUP1 PUSH1 0x1F ADD PUSH1 0x1F NOT AND PUSH1 0x20 ADD DUP3 ADD PUSH1 0x40 MSTORE DUP1 ISZERO PUSH2 0x3E97 JUMPI DUP2 PUSH1 0x20 ADD PUSH1 0x1 DUP3 MUL DUP1 CALLDATASIZE DUP4 CALLDATACOPY DUP1 DUP3 ADD SWAP2 POP POP SWAP1 POP JUMPDEST POP SWAP1 POP PUSH32 0x3000000000000000000000000000000000000000000000000000000000000000 DUP2 PUSH1 0x0 DUP2 MLOAD DUP2 LT PUSH2 0x3ECF JUMPI PUSH2 0x3ECE PUSH2 0x5AD6 JUMP JUMPDEST JUMPDEST PUSH1 0x20 ADD ADD SWAP1 PUSH31 0xFFFFFFFFFFFFFFFFFFFFFFFFFFFFFFFFFFFFFFFFFFFFFFFFFFFFFFFFFFFFFF NOT AND SWAP1 DUP2 PUSH1 0x0 BYTE SWAP1 MSTORE8 POP PUSH32 0x7800000000000000000000000000000000000000000000000000000000000000 DUP2 PUSH1 0x1 DUP2 MLOAD DUP2 LT PUSH2 0x3F33 JUMPI PUSH2 0x3F32 PUSH2 0x5AD6 JUMP JUMPDEST JUMPDEST PUSH1 0x20 ADD ADD SWAP1 PUSH31 0xFFFFFFFFFFFFFFFFFFFFFFFFFFFFFFFFFFFFFFFFFFFFFFFFFFFFFFFFFFFFFF NOT AND SWAP1 DUP2 PUSH1 0x0 BYTE SWAP1 MSTORE8 POP PUSH1 0x0 PUSH1 0x1 DUP5 PUSH1 0x2 PUSH2 0x3F73 SWAP2 SWAP1 PUSH2 0x5A94 JUMP JUMPDEST PUSH2 0x3F7D SWAP2 SWAP1 PUSH2 0x52F9 JUMP JUMPDEST SWAP1 POP JUMPDEST PUSH1 0x1 DUP2 GT ISZERO PUSH2 0x401D JUMPI PUSH32 0x3031323334353637383961626364656600000000000000000000000000000000 PUSH1 0xF DUP7 AND PUSH1 0x10 DUP2 LT PUSH2 0x3FBF JUMPI PUSH2 0x3FBE PUSH2 0x5AD6 JUMP JUMPDEST JUMPDEST BYTE PUSH1 0xF8 SHL DUP3 DUP3 DUP2 MLOAD DUP2 LT PUSH2 0x3FD6 JUMPI PUSH2 0x3FD5 PUSH2 0x5AD6 JUMP JUMPDEST JUMPDEST PUSH1 0x20 ADD ADD SWAP1 PUSH31 0xFFFFFFFFFFFFFFFFFFFFFFFFFFFFFFFFFFFFFFFFFFFFFFFFFFFFFFFFFFFFFF NOT AND SWAP1 DUP2 PUSH1 0x0 BYTE SWAP1 MSTORE8 POP PUSH1 0x4 DUP6 SWAP1 SHR SWAP5 POP DUP1 PUSH2 0x4016 SWAP1 PUSH2 0x5B05 JUMP JUMPDEST SWAP1 POP PUSH2 0x3F80 JUMP JUMPDEST POP PUSH1 0x0 DUP5 EQ PUSH2 0x4061 JUMPI PUSH1 0x40 MLOAD PUSH32 0x8C379A000000000000000000000000000000000000000000000000000000000 DUP2 MSTORE PUSH1 0x4 ADD PUSH2 0x4058 SWAP1 PUSH2 0x5B7A JUMP JUMPDEST PUSH1 0x40 MLOAD DUP1 SWAP2 SUB SWAP1 REVERT JUMPDEST DUP1 SWAP2 POP POP SWAP3 SWAP2 POP POP JUMP JUMPDEST PUSH1 0x0 DUP1 REVERT JUMPDEST PUSH1 0x0 PUSH32 0xFFFFFFFF00000000000000000000000000000000000000000000000000000000 DUP3 AND SWAP1 POP SWAP2 SWAP1 POP JUMP JUMPDEST PUSH2 0x40A5 DUP2 PUSH2 0x4070 JUMP JUMPDEST DUP2 EQ PUSH2 0x40B0 JUMPI PUSH1 0x0 DUP1 REVERT JUMPDEST POP JUMP JUMPDEST PUSH1 0x0 DUP2 CALLDATALOAD SWAP1 POP PUSH2 0x40C2 DUP2 PUSH2 0x409C JUMP JUMPDEST SWAP3 SWAP2 POP POP JUMP JUMPDEST PUSH1 0x0 PUSH1 0x20 DUP3 DUP5 SUB SLT ISZERO PUSH2 0x40DE JUMPI PUSH2 0x40DD PUSH2 0x406B JUMP JUMPDEST JUMPDEST PUSH1 0x0 PUSH2 0x40EC DUP5 DUP3 DUP6 ADD PUSH2 0x40B3 JUMP JUMPDEST SWAP2 POP POP SWAP3 SWAP2 POP POP JUMP JUMPDEST PUSH1 0x0 DUP2 ISZERO ISZERO SWAP1 POP SWAP2 SWAP1 POP JUMP JUMPDEST PUSH2 0x410A DUP2 PUSH2 0x40F5 JUMP JUMPDEST DUP3 MSTORE POP POP JUMP JUMPDEST PUSH1 0x0 PUSH1 0x20 DUP3 ADD SWAP1 POP PUSH2 0x4125 PUSH1 0x0 DUP4 ADD DUP5 PUSH2 0x4101 JUMP JUMPDEST SWAP3 SWAP2 POP POP JUMP JUMPDEST PUSH1 0x0 PUSH1 0xFF DUP3 AND SWAP1 POP SWAP2 SWAP1 POP JUMP JUMPDEST PUSH2 0x4141 DUP2 PUSH2 0x412B JUMP JUMPDEST DUP3 MSTORE POP POP JUMP JUMPDEST PUSH1 0x0 PUSH1 0x20 DUP3 ADD SWAP1 POP PUSH2 0x415C PUSH1 0x0 DUP4 ADD DUP5 PUSH2 0x4138 JUMP JUMPDEST SWAP3 SWAP2 POP POP JUMP JUMPDEST PUSH1 0x0 DUP2 SWAP1 POP SWAP2 SWAP1 POP JUMP JUMPDEST PUSH2 0x4175 DUP2 PUSH2 0x4162 JUMP JUMPDEST DUP2 EQ PUSH2 0x4180 JUMPI PUSH1 0x0 DUP1 REVERT JUMPDEST POP JUMP JUMPDEST PUSH1 0x0 DUP2 CALLDATALOAD SWAP1 POP PUSH2 0x4192 DUP2 PUSH2 0x416C JUMP JUMPDEST SWAP3 SWAP2 POP POP JUMP JUMPDEST PUSH1 0x0 PUSH1 0x20 DUP3 DUP5 SUB SLT ISZERO PUSH2 0x41AE JUMPI PUSH2 0x41AD PUSH2 0x406B JUMP JUMPDEST JUMPDEST PUSH1 0x0 PUSH2 0x41BC DUP5 DUP3 DUP6 ADD PUSH2 0x4183 JUMP JUMPDEST SWAP2 POP POP SWAP3 SWAP2 POP POP JUMP JUMPDEST PUSH2 0x41CE DUP2 PUSH2 0x4162 JUMP JUMPDEST DUP3 MSTORE POP POP JUMP JUMPDEST PUSH1 0x0 DUP2 MLOAD SWAP1 POP SWAP2 SWAP1 POP JUMP JUMPDEST PUSH1 0x0 DUP3 DUP3 MSTORE PUSH1 0x20 DUP3 ADD SWAP1 POP SWAP3 SWAP2 POP POP JUMP JUMPDEST PUSH1 0x0 JUMPDEST DUP4 DUP2 LT ISZERO PUSH2 0x420E JUMPI DUP1 DUP3 ADD MLOAD DUP2 DUP5 ADD MSTORE PUSH1 0x20 DUP2 ADD SWAP1 POP PUSH2 0x41F3 JUMP JUMPDEST PUSH1 0x0 DUP5 DUP5 ADD MSTORE POP POP POP POP JUMP JUMPDEST PUSH1 0x0 PUSH1 0x1F NOT PUSH1 0x1F DUP4 ADD AND SWAP1 POP SWAP2 SWAP1 POP JUMP JUMPDEST PUSH1 0x0 PUSH2 0x4236 DUP3 PUSH2 0x41D4 JUMP JUMPDEST PUSH2 0x4240 DUP2 DUP6 PUSH2 0x41DF JUMP JUMPDEST SWAP4 POP PUSH2 0x4250 DUP2 DUP6 PUSH1 0x20 DUP7 ADD PUSH2 0x41F0 JUMP JUMPDEST PUSH2 0x4259 DUP2 PUSH2 0x421A JUMP JUMPDEST DUP5 ADD SWAP2 POP POP SWAP3 SWAP2 POP POP JUMP JUMPDEST PUSH1 0x0 PUSH1 0xA0 DUP3 ADD SWAP1 POP PUSH2 0x4279 PUSH1 0x0 DUP4 ADD DUP9 PUSH2 0x4101 JUMP JUMPDEST PUSH2 0x4286 PUSH1 0x20 DUP4 ADD DUP8 PUSH2 0x41C5 JUMP JUMPDEST PUSH2 0x4293 PUSH1 0x40 DUP4 ADD DUP7 PUSH2 0x4138 JUMP JUMPDEST PUSH2 0x42A0 PUSH1 0x60 DUP4 ADD DUP6 PUSH2 0x4138 JUMP JUMPDEST DUP2 DUP2 SUB PUSH1 0x80 DUP4 ADD MSTORE PUSH2 0x42B2 DUP2 DUP5 PUSH2 0x422B JUMP JUMPDEST SWAP1 POP SWAP7 SWAP6 POP POP POP POP POP POP JUMP JUMPDEST PUSH1 0x0 PUSH1 0x20 DUP3 ADD SWAP1 POP PUSH2 0x42D3 PUSH1 0x0 DUP4 ADD DUP5 PUSH2 0x41C5 JUMP JUMPDEST SWAP3 SWAP2 POP POP JUMP JUMPDEST PUSH1 0x0 PUSH20 0xFFFFFFFFFFFFFFFFFFFFFFFFFFFFFFFFFFFFFFFF DUP3 AND SWAP1 POP SWAP2 SWAP1 POP JUMP JUMPDEST PUSH1 0x0 PUSH2 0x4304 DUP3 PUSH2 0x42D9 JUMP JUMPDEST SWAP1 POP SWAP2 SWAP1 POP JUMP JUMPDEST PUSH2 0x4314 DUP2 PUSH2 0x42F9 JUMP JUMPDEST DUP2 EQ PUSH2 0x431F JUMPI PUSH1 0x0 DUP1 REVERT JUMPDEST POP JUMP JUMPDEST PUSH1 0x0 DUP2 CALLDATALOAD SWAP1 POP PUSH2 0x4331 DUP2 PUSH2 0x430B JUMP JUMPDEST SWAP3 SWAP2 POP POP JUMP JUMPDEST PUSH1 0x0 DUP1 PUSH1 0x40 DUP4 DUP6 SUB SLT ISZERO PUSH2 0x434E JUMPI PUSH2 0x434D PUSH2 0x406B JUMP JUMPDEST JUMPDEST PUSH1 0x0 PUSH2 0x435C DUP6 DUP3 DUP7 ADD PUSH2 0x4183 JUMP JUMPDEST SWAP3 POP POP PUSH1 0x20 PUSH2 0x436D DUP6 DUP3 DUP7 ADD PUSH2 0x4322 JUMP JUMPDEST SWAP2 POP POP SWAP3 POP SWAP3 SWAP1 POP JUMP JUMPDEST PUSH2 0x4380 DUP2 PUSH2 0x40F5 JUMP JUMPDEST DUP2 EQ PUSH2 0x438B JUMPI PUSH1 0x0 DUP1 REVERT JUMPDEST POP JUMP JUMPDEST PUSH1 0x0 DUP2 CALLDATALOAD SWAP1 POP PUSH2 0x439D DUP2 PUSH2 0x4377 JUMP JUMPDEST SWAP3 SWAP2 POP POP JUMP JUMPDEST PUSH1 0x0 DUP1 PUSH1 0x0 PUSH1 0x60 DUP5 DUP7 SUB SLT ISZERO PUSH2 0x43BC JUMPI PUSH2 0x43BB PUSH2 0x406B JUMP JUMPDEST JUMPDEST PUSH1 0x0 PUSH2 0x43CA DUP7 DUP3 DUP8 ADD PUSH2 0x4183 JUMP JUMPDEST SWAP4 POP POP PUSH1 0x20 PUSH2 0x43DB DUP7 DUP3 DUP8 ADD PUSH2 0x4322 JUMP JUMPDEST SWAP3 POP POP PUSH1 0x40 PUSH2 0x43EC DUP7 DUP3 DUP8 ADD PUSH2 0x438E JUMP JUMPDEST SWAP2 POP POP SWAP3 POP SWAP3 POP SWAP3 JUMP JUMPDEST PUSH32 0x4E487B7100000000000000000000000000000000000000000000000000000000 PUSH1 0x0 MSTORE PUSH1 0x21 PUSH1 0x4 MSTORE PUSH1 0x24 PUSH1 0x0 REVERT JUMPDEST PUSH1 0x4 DUP2 LT PUSH2 0x4436 JUMPI PUSH2 0x4435 PUSH2 0x43F6 JUMP JUMPDEST JUMPDEST POP JUMP JUMPDEST PUSH1 0x0 DUP2 SWAP1 POP PUSH2 0x4447 DUP3 PUSH2 0x4425 JUMP JUMPDEST SWAP2 SWAP1 POP JUMP JUMPDEST PUSH1 0x0 PUSH2 0x4457 DUP3 PUSH2 0x4439 JUMP JUMPDEST SWAP1 POP SWAP2 SWAP1 POP JUMP JUMPDEST PUSH2 0x4467 DUP2 PUSH2 0x444C JUMP JUMPDEST DUP3 MSTORE POP POP JUMP JUMPDEST PUSH1 0x3 DUP2 LT PUSH2 0x447E JUMPI PUSH2 0x447D PUSH2 0x43F6 JUMP JUMPDEST JUMPDEST POP JUMP JUMPDEST PUSH1 0x0 DUP2 SWAP1 POP PUSH2 0x448F DUP3 PUSH2 0x446D JUMP JUMPDEST SWAP2 SWAP1 POP JUMP JUMPDEST PUSH1 0x0 PUSH2 0x449F DUP3 PUSH2 0x4481 JUMP JUMPDEST SWAP1 POP SWAP2 SWAP1 POP JUMP JUMPDEST PUSH2 0x44AF DUP2 PUSH2 0x4494 JUMP JUMPDEST DUP3 MSTORE POP POP JUMP JUMPDEST PUSH1 0x10 DUP2 LT PUSH2 0x44C6 JUMPI PUSH2 0x44C5 PUSH2 0x43F6 JUMP JUMPDEST JUMPDEST POP JUMP JUMPDEST PUSH1 0x0 DUP2 SWAP1 POP PUSH2 0x44D7 DUP3 PUSH2 0x44B5 JUMP JUMPDEST SWAP2 SWAP1 POP JUMP JUMPDEST PUSH1 0x0 PUSH2 0x44E7 DUP3 PUSH2 0x44C9 JUMP JUMPDEST SWAP1 POP SWAP2 SWAP1 POP JUMP JUMPDEST PUSH2 0x44F7 DUP2 PUSH2 0x44DC JUMP JUMPDEST DUP3 MSTORE POP POP JUMP JUMPDEST PUSH1 0x0 DUP2 SWAP1 POP SWAP2 SWAP1 POP JUMP JUMPDEST PUSH2 0x4510 DUP2 PUSH2 0x44FD JUMP JUMPDEST DUP3 MSTORE POP POP JUMP JUMPDEST PUSH1 0x0 PUSH1 0xC0 DUP3 ADD SWAP1 POP PUSH2 0x452B PUSH1 0x0 DUP4 ADD DUP10 PUSH2 0x445E JUMP JUMPDEST PUSH2 0x4538 PUSH1 0x20 DUP4 ADD DUP9 PUSH2 0x44A6 JUMP JUMPDEST PUSH2 0x4545 PUSH1 0x40 DUP4 ADD DUP8 PUSH2 0x44EE JUMP JUMPDEST PUSH2 0x4552 PUSH1 0x60 DUP4 ADD DUP7 PUSH2 0x4507 JUMP JUMPDEST PUSH2 0x455F PUSH1 0x80 DUP4 ADD DUP6 PUSH2 0x4101 JUMP JUMPDEST PUSH2 0x456C PUSH1 0xA0 DUP4 ADD DUP5 PUSH2 0x4507 JUMP JUMPDEST SWAP8 SWAP7 POP POP POP POP POP POP POP JUMP JUMPDEST PUSH2 0x4580 DUP2 PUSH2 0x44FD JUMP JUMPDEST DUP2 EQ PUSH2 0x458B JUMPI PUSH1 0x0 DUP1 REVERT JUMPDEST POP JUMP JUMPDEST PUSH1 0x0 DUP2 CALLDATALOAD SWAP1 POP PUSH2 0x459D DUP2 PUSH2 0x4577 JUMP JUMPDEST SWAP3 SWAP2 POP POP JUMP JUMPDEST PUSH1 0x4 DUP2 LT PUSH2 0x45B0 JUMPI PUSH1 0x0 DUP1 REVERT JUMPDEST POP JUMP JUMPDEST PUSH1 0x0 DUP2 CALLDATALOAD SWAP1 POP PUSH2 0x45C2 DUP2 PUSH2 0x45A3 JUMP JUMPDEST SWAP3 SWAP2 POP POP JUMP JUMPDEST PUSH1 0x3 DUP2 LT PUSH2 0x45D5 JUMPI PUSH1 0x0 DUP1 REVERT JUMPDEST POP JUMP JUMPDEST PUSH1 0x0 DUP2 CALLDATALOAD SWAP1 POP PUSH2 0x45E7 DUP2 PUSH2 0x45C8 JUMP JUMPDEST SWAP3 SWAP2 POP POP JUMP JUMPDEST PUSH1 0x10 DUP2 LT PUSH2 0x45FA JUMPI PUSH1 0x0 DUP1 REVERT JUMPDEST POP JUMP JUMPDEST PUSH1 0x0 DUP2 CALLDATALOAD SWAP1 POP PUSH2 0x460C DUP2 PUSH2 0x45ED JUMP JUMPDEST SWAP3 SWAP2 POP POP JUMP JUMPDEST PUSH1 0x0 DUP1 PUSH1 0x0 DUP1 PUSH1 0x0 PUSH1 0xA0 DUP7 DUP9 SUB SLT ISZERO PUSH2 0x462E JUMPI PUSH2 0x462D PUSH2 0x406B JUMP JUMPDEST JUMPDEST PUSH1 0x0 PUSH2 0x463C DUP9 DUP3 DUP10 ADD PUSH2 0x458E JUMP JUMPDEST SWAP6 POP POP PUSH1 0x20 PUSH2 0x464D DUP9 DUP3 DUP10 ADD PUSH2 0x45B3 JUMP JUMPDEST SWAP5 POP POP PUSH1 0x40 PUSH2 0x465E DUP9 DUP3 DUP10 ADD PUSH2 0x45D8 JUMP JUMPDEST SWAP4 POP POP PUSH1 0x60 PUSH2 0x466F DUP9 DUP3 DUP10 ADD PUSH2 0x45FD JUMP JUMPDEST SWAP3 POP POP PUSH1 0x80 PUSH2 0x4680 DUP9 DUP3 DUP10 ADD PUSH2 0x438E JUMP JUMPDEST SWAP2 POP POP SWAP3 SWAP6 POP SWAP3 SWAP6 SWAP1 SWAP4 POP JUMP JUMPDEST PUSH1 0x0 PUSH1 0x20 DUP3 DUP5 SUB SLT ISZERO PUSH2 0x46A3 JUMPI PUSH2 0x46A2 PUSH2 0x406B JUMP JUMPDEST JUMPDEST PUSH1 0x0 PUSH2 0x46B1 DUP5 DUP3 DUP6 ADD PUSH2 0x458E JUMP JUMPDEST SWAP2 POP POP SWAP3 SWAP2 POP POP JUMP JUMPDEST PUSH1 0x0 DUP1 PUSH1 0x40 DUP4 DUP6 SUB SLT ISZERO PUSH2 0x46D1 JUMPI PUSH2 0x46D0 PUSH2 0x406B JUMP JUMPDEST JUMPDEST PUSH1 0x0 PUSH2 0x46DF DUP6 DUP3 DUP7 ADD PUSH2 0x458E JUMP JUMPDEST SWAP3 POP POP PUSH1 0x20 PUSH2 0x46F0 DUP6 DUP3 DUP7 ADD PUSH2 0x458E JUMP JUMPDEST SWAP2 POP POP SWAP3 POP SWAP3 SWAP1 POP JUMP JUMPDEST PUSH1 0x0 PUSH1 0x20 DUP3 ADD SWAP1 POP PUSH2 0x470F PUSH1 0x0 DUP4 ADD DUP5 PUSH2 0x4507 JUMP JUMPDEST SWAP3 SWAP2 POP POP JUMP JUMPDEST PUSH32 0x4E487B7100000000000000000000000000000000000000000000000000000000 PUSH1 0x0 MSTORE PUSH1 0x22 PUSH1 0x4 MSTORE PUSH1 0x24 PUSH1 0x0 REVERT JUMPDEST PUSH1 0x0 PUSH1 0x2 DUP3 DIV SWAP1 POP PUSH1 0x1 DUP3 AND DUP1 PUSH2 0x475C JUMPI PUSH1 0x7F DUP3 AND SWAP2 POP JUMPDEST PUSH1 0x20 DUP3 LT DUP2 SUB PUSH2 0x476F JUMPI PUSH2 0x476E PUSH2 0x4715 JUMP JUMPDEST JUMPDEST POP SWAP2 SWAP1 POP JUMP JUMPDEST PUSH32 0x596F752063616E27742072656E6F756E636520746F20796F757220726F6C652E PUSH1 0x0 DUP3 ADD MSTORE PUSH32 0x20506C6561736520636F6E746163742061646D696E7300000000000000000000 PUSH1 0x20 DUP3 ADD MSTORE POP JUMP JUMPDEST PUSH1 0x0 PUSH2 0x47D1 PUSH1 0x36 DUP4 PUSH2 0x41DF JUMP JUMPDEST SWAP2 POP PUSH2 0x47DC DUP3 PUSH2 0x4775 JUMP JUMPDEST PUSH1 0x40 DUP3 ADD SWAP1 POP SWAP2 SWAP1 POP JUMP JUMPDEST PUSH1 0x0 PUSH1 0x20 DUP3 ADD SWAP1 POP DUP2 DUP2 SUB PUSH1 0x0 DUP4 ADD MSTORE PUSH2 0x4800 DUP2 PUSH2 0x47C4 JUMP JUMPDEST SWAP1 POP SWAP2 SWAP1 POP JUMP JUMPDEST PUSH1 0x0 DUP2 SWAP1 POP SWAP2 SWAP1 POP JUMP JUMPDEST PUSH2 0x4822 PUSH2 0x481D DUP3 PUSH2 0x4162 JUMP JUMPDEST PUSH2 0x4807 JUMP JUMPDEST DUP3 MSTORE POP POP JUMP JUMPDEST PUSH1 0x0 PUSH2 0x4834 DUP3 DUP5 PUSH2 0x4811 JUMP JUMPDEST PUSH1 0x20 DUP3 ADD SWAP2 POP DUP2 SWAP1 POP SWAP3 SWAP2 POP POP JUMP JUMPDEST PUSH32 0x4D61782000000000000000000000000000000000000000000000000000000000 DUP2 MSTORE POP JUMP JUMPDEST PUSH1 0x0 DUP2 SWAP1 POP SWAP3 SWAP2 POP POP JUMP JUMPDEST PUSH1 0x0 PUSH2 0x487F DUP3 PUSH2 0x41D4 JUMP JUMPDEST PUSH2 0x4889 DUP2 DUP6 PUSH2 0x4869 JUMP JUMPDEST SWAP4 POP PUSH2 0x4899 DUP2 DUP6 PUSH1 0x20 DUP7 ADD PUSH2 0x41F0 JUMP JUMPDEST DUP1 DUP5 ADD SWAP2 POP POP SWAP3 SWAP2 POP POP JUMP JUMPDEST PUSH32 0x2072656163686564000000000000000000000000000000000000000000000000 DUP2 MSTORE POP JUMP JUMPDEST PUSH1 0x0 PUSH2 0x48D6 DUP3 PUSH2 0x4843 JUMP JUMPDEST PUSH1 0x4 DUP3 ADD SWAP2 POP PUSH2 0x48E6 DUP3 DUP5 PUSH2 0x4874 JUMP JUMPDEST SWAP2 POP PUSH2 0x48F1 DUP3 PUSH2 0x48A5 JUMP JUMPDEST PUSH1 0x8 DUP3 ADD SWAP2 POP DUP2 SWAP1 POP SWAP3 SWAP2 POP POP JUMP JUMPDEST PUSH1 0x0 PUSH1 0x20 DUP3 ADD SWAP1 POP DUP2 DUP2 SUB PUSH1 0x0 DUP4 ADD MSTORE PUSH2 0x491A DUP2 DUP5 PUSH2 0x422B JUMP JUMPDEST SWAP1 POP SWAP3 SWAP2 POP POP JUMP JUMPDEST PUSH32 0x43616C6C6572206973206E6F7420612000000000000000000000000000000000 DUP2 MSTORE POP JUMP JUMPDEST PUSH32 0x2061646D696E0000000000000000000000000000000000000000000000000000 DUP2 MSTORE POP JUMP JUMPDEST PUSH1 0x0 PUSH2 0x4979 DUP3 PUSH2 0x4922 JUMP JUMPDEST PUSH1 0x10 DUP3 ADD SWAP2 POP PUSH2 0x4989 DUP3 DUP5 PUSH2 0x4874 JUMP JUMPDEST SWAP2 POP PUSH2 0x4994 DUP3 PUSH2 0x4948 JUMP JUMPDEST PUSH1 0x6 DUP3 ADD SWAP2 POP DUP2 SWAP1 POP SWAP3 SWAP2 POP POP JUMP JUMPDEST PUSH32 0x54686973206164647265737320697320616C7265616479206120000000000000 DUP2 MSTORE POP JUMP JUMPDEST PUSH1 0x0 PUSH2 0x49D4 DUP3 PUSH2 0x49A3 JUMP JUMPDEST PUSH1 0x1A DUP3 ADD SWAP2 POP PUSH2 0x49E4 DUP3 DUP5 PUSH2 0x4874 JUMP JUMPDEST SWAP2 POP DUP2 SWAP1 POP SWAP3 SWAP2 POP POP JUMP JUMPDEST PUSH1 0x0 DUP2 PUSH1 0x60 SHL SWAP1 POP SWAP2 SWAP1 POP JUMP JUMPDEST PUSH1 0x0 PUSH2 0x4A07 DUP3 PUSH2 0x49EF JUMP JUMPDEST SWAP1 POP SWAP2 SWAP1 POP JUMP JUMPDEST PUSH1 0x0 PUSH2 0x4A19 DUP3 PUSH2 0x49FC JUMP JUMPDEST SWAP1 POP SWAP2 SWAP1 POP JUMP JUMPDEST PUSH2 0x4A31 PUSH2 0x4A2C DUP3 PUSH2 0x42F9 JUMP JUMPDEST PUSH2 0x4A0E JUMP JUMPDEST DUP3 MSTORE POP POP JUMP JUMPDEST PUSH32 0x4752414E54000000000000000000000000000000000000000000000000000000 PUSH1 0x0 DUP3 ADD MSTORE POP JUMP JUMPDEST PUSH1 0x0 PUSH2 0x4A6D PUSH1 0x5 DUP4 PUSH2 0x4869 JUMP JUMPDEST SWAP2 POP PUSH2 0x4A78 DUP3 PUSH2 0x4A37 JUMP JUMPDEST PUSH1 0x5 DUP3 ADD SWAP1 POP SWAP2 SWAP1 POP JUMP JUMPDEST PUSH1 0x0 PUSH2 0x4A8F DUP3 DUP6 PUSH2 0x4A20 JUMP JUMPDEST PUSH1 0x14 DUP3 ADD SWAP2 POP PUSH2 0x4A9E DUP3 PUSH2 0x4A60 JUMP JUMPDEST SWAP2 POP PUSH2 0x4AAA DUP3 DUP5 PUSH2 0x4811 JUMP JUMPDEST PUSH1 0x20 DUP3 ADD SWAP2 POP DUP2 SWAP1 POP SWAP4 SWAP3 POP POP POP JUMP JUMPDEST PUSH1 0x0 PUSH2 0x4AC6 DUP3 DUP5 PUSH2 0x4A20 JUMP JUMPDEST PUSH1 0x14 DUP3 ADD SWAP2 POP DUP2 SWAP1 POP SWAP3 SWAP2 POP POP JUMP JUMPDEST PUSH32 0x4772616E74200000000000000000000000000000000000000000000000000000 DUP2 MSTORE POP JUMP JUMPDEST PUSH32 0x2000000000000000000000000000000000000000000000000000000000000000 DUP2 MSTORE POP JUMP JUMPDEST PUSH1 0x0 PUSH2 0x4B2C DUP3 PUSH2 0x4AD5 JUMP JUMPDEST PUSH1 0x6 DUP3 ADD SWAP2 POP PUSH2 0x4B3C DUP3 DUP6 PUSH2 0x4874 JUMP JUMPDEST SWAP2 POP PUSH2 0x4B47 DUP3 PUSH2 0x4AFB JUMP JUMPDEST PUSH1 0x1 DUP3 ADD SWAP2 POP PUSH2 0x4B57 DUP3 DUP5 PUSH2 0x4874 JUMP JUMPDEST SWAP2 POP DUP2 SWAP1 POP SWAP4 SWAP3 POP POP POP JUMP JUMPDEST PUSH1 0x0 PUSH4 0xFFFFFFFF DUP3 AND SWAP1 POP SWAP2 SWAP1 POP JUMP JUMPDEST PUSH32 0x4E487B7100000000000000000000000000000000000000000000000000000000 PUSH1 0x0 MSTORE PUSH1 0x11 PUSH1 0x4 MSTORE PUSH1 0x24 PUSH1 0x0 REVERT JUMPDEST PUSH1 0x0 PUSH2 0x4BAD DUP3 PUSH2 0x4B63 JUMP JUMPDEST SWAP2 POP PUSH2 0x4BB8 DUP4 PUSH2 0x4B63 JUMP JUMPDEST SWAP3 POP DUP3 DUP3 MUL PUSH2 0x4BC6 DUP2 PUSH2 0x4B63 JUMP JUMPDEST SWAP2 POP DUP1 DUP3 EQ PUSH2 0x4BD8 JUMPI PUSH2 0x4BD7 PUSH2 0x4B73 JUMP JUMPDEST JUMPDEST POP SWAP3 SWAP2 POP POP JUMP JUMPDEST PUSH1 0x0 PUSH2 0x4BEA DUP3 PUSH2 0x4B63 JUMP JUMPDEST SWAP2 POP PUSH2 0x4BF5 DUP4 PUSH2 0x4B63 JUMP JUMPDEST SWAP3 POP DUP3 DUP3 ADD SWAP1 POP PUSH4 0xFFFFFFFF DUP2 GT ISZERO PUSH2 0x4C11 JUMPI PUSH2 0x4C10 PUSH2 0x4B73 JUMP JUMPDEST JUMPDEST SWAP3 SWAP2 POP POP JUMP JUMPDEST PUSH32 0x43616C6C6572206973206E6F7420612063657274696669657200000000000000 PUSH1 0x0 DUP3 ADD MSTORE POP JUMP JUMPDEST PUSH1 0x0 PUSH2 0x4C4D PUSH1 0x19 DUP4 PUSH2 0x41DF JUMP JUMPDEST SWAP2 POP PUSH2 0x4C58 DUP3 PUSH2 0x4C17 JUMP JUMPDEST PUSH1 0x20 DUP3 ADD SWAP1 POP SWAP2 SWAP1 POP JUMP JUMPDEST PUSH1 0x0 PUSH1 0x20 DUP3 ADD SWAP1 POP DUP2 DUP2 SUB PUSH1 0x0 DUP4 ADD MSTORE PUSH2 0x4C7C DUP2 PUSH2 0x4C40 JUMP JUMPDEST SWAP1 POP SWAP2 SWAP1 POP JUMP JUMPDEST PUSH32 0x417070726563696174696F6E206973206E6F742076616C696400000000000000 PUSH1 0x0 DUP3 ADD MSTORE POP JUMP JUMPDEST PUSH1 0x0 PUSH2 0x4CB9 PUSH1 0x19 DUP4 PUSH2 0x41DF JUMP JUMPDEST SWAP2 POP PUSH2 0x4CC4 DUP3 PUSH2 0x4C83 JUMP JUMPDEST PUSH1 0x20 DUP3 ADD SWAP1 POP SWAP2 SWAP1 POP JUMP JUMPDEST PUSH1 0x0 PUSH1 0x20 DUP3 ADD SWAP1 POP DUP2 DUP2 SUB PUSH1 0x0 DUP4 ADD MSTORE PUSH2 0x4CE8 DUP2 PUSH2 0x4CAC JUMP JUMPDEST SWAP1 POP SWAP2 SWAP1 POP JUMP JUMPDEST PUSH32 0x446567726565206973206E6F742076616C696400000000000000000000000000 PUSH1 0x0 DUP3 ADD MSTORE POP JUMP JUMPDEST PUSH1 0x0 PUSH2 0x4D25 PUSH1 0x13 DUP4 PUSH2 0x41DF JUMP JUMPDEST SWAP2 POP PUSH2 0x4D30 DUP3 PUSH2 0x4CEF JUMP JUMPDEST PUSH1 0x20 DUP3 ADD SWAP1 POP SWAP2 SWAP1 POP JUMP JUMPDEST PUSH1 0x0 PUSH1 0x20 DUP3 ADD SWAP1 POP DUP2 DUP2 SUB PUSH1 0x0 DUP4 ADD MSTORE PUSH2 0x4D54 DUP2 PUSH2 0x4D18 JUMP JUMPDEST SWAP1 POP SWAP2 SWAP1 POP JUMP JUMPDEST PUSH32 0x50726F6772616D206973206E6F742076616C6964000000000000000000000000 PUSH1 0x0 DUP3 ADD MSTORE POP JUMP JUMPDEST PUSH1 0x0 PUSH2 0x4D91 PUSH1 0x14 DUP4 PUSH2 0x41DF JUMP JUMPDEST SWAP2 POP PUSH2 0x4D9C DUP3 PUSH2 0x4D5B JUMP JUMPDEST PUSH1 0x20 DUP3 ADD SWAP1 POP SWAP2 SWAP1 POP JUMP JUMPDEST PUSH1 0x0 PUSH1 0x20 DUP3 ADD SWAP1 POP DUP2 DUP2 SUB PUSH1 0x0 DUP4 ADD MSTORE PUSH2 0x4DC0 DUP2 PUSH2 0x4D84 JUMP JUMPDEST SWAP1 POP SWAP2 SWAP1 POP JUMP JUMPDEST PUSH1 0x0 DUP2 SWAP1 POP SWAP2 SWAP1 POP JUMP JUMPDEST PUSH2 0x4DE2 PUSH2 0x4DDD DUP3 PUSH2 0x44FD JUMP JUMPDEST PUSH2 0x4DC7 JUMP JUMPDEST DUP3 MSTORE POP POP JUMP JUMPDEST PUSH1 0x0 DUP2 PUSH1 0xF8 SHL SWAP1 POP SWAP2 SWAP1 POP JUMP JUMPDEST PUSH1 0x0 PUSH2 0x4E00 DUP3 PUSH2 0x4DE8 JUMP JUMPDEST SWAP1 POP SWAP2 SWAP1 POP JUMP JUMPDEST PUSH2 0x4E18 PUSH2 0x4E13 DUP3 PUSH2 0x444C JUMP JUMPDEST PUSH2 0x4DF5 JUMP JUMPDEST DUP3 MSTORE POP POP JUMP JUMPDEST PUSH2 0x4E2F PUSH2 0x4E2A DUP3 PUSH2 0x4494 JUMP JUMPDEST PUSH2 0x4DF5 JUMP JUMPDEST DUP3 MSTORE POP POP JUMP JUMPDEST PUSH2 0x4E46 PUSH2 0x4E41 DUP3 PUSH2 0x44DC JUMP JUMPDEST PUSH2 0x4DF5 JUMP JUMPDEST DUP3 MSTORE POP POP JUMP JUMPDEST PUSH1 0x0 PUSH2 0x4E58 DUP3 DUP8 PUSH2 0x4DD1 JUMP JUMPDEST PUSH1 0x20 DUP3 ADD SWAP2 POP PUSH2 0x4E68 DUP3 DUP7 PUSH2 0x4E07 JUMP JUMPDEST PUSH1 0x1 DUP3 ADD SWAP2 POP PUSH2 0x4E78 DUP3 DUP6 PUSH2 0x4E1E JUMP JUMPDEST PUSH1 0x1 DUP3 ADD SWAP2 POP PUSH2 0x4E88 DUP3 DUP5 PUSH2 0x4E35 JUMP JUMPDEST PUSH1 0x1 DUP3 ADD SWAP2 POP DUP2 SWAP1 POP SWAP6 SWAP5 POP POP POP POP POP JUMP JUMPDEST PUSH32 0x5468697320636572746966696361746520646F65736E27742065786973740000 PUSH1 0x0 DUP3 ADD MSTORE POP JUMP JUMPDEST PUSH1 0x0 PUSH2 0x4ED0 PUSH1 0x1E DUP4 PUSH2 0x41DF JUMP JUMPDEST SWAP2 POP PUSH2 0x4EDB DUP3 PUSH2 0x4E9A JUMP JUMPDEST PUSH1 0x20 DUP3 ADD SWAP1 POP SWAP2 SWAP1 POP JUMP JUMPDEST PUSH1 0x0 PUSH1 0x20 DUP3 ADD SWAP1 POP DUP2 DUP2 SUB PUSH1 0x0 DUP4 ADD MSTORE PUSH2 0x4EFF DUP2 PUSH2 0x4EC3 JUMP JUMPDEST SWAP1 POP SWAP2 SWAP1 POP JUMP JUMPDEST PUSH32 0x44454C4554450000000000000000000000000000000000000000000000000000 PUSH1 0x0 DUP3 ADD MSTORE POP JUMP JUMPDEST PUSH1 0x0 PUSH2 0x4F3C PUSH1 0x6 DUP4 PUSH2 0x4869 JUMP JUMPDEST SWAP2 POP PUSH2 0x4F47 DUP3 PUSH2 0x4F06 JUMP JUMPDEST PUSH1 0x6 DUP3 ADD SWAP1 POP SWAP2 SWAP1 POP JUMP JUMPDEST PUSH1 0x0 PUSH2 0x4F5E DUP3 DUP8 PUSH2 0x4DD1 JUMP JUMPDEST PUSH1 0x20 DUP3 ADD SWAP2 POP PUSH2 0x4F6E DUP3 DUP7 PUSH2 0x4E07 JUMP JUMPDEST PUSH1 0x1 DUP3 ADD SWAP2 POP PUSH2 0x4F7E DUP3 DUP6 PUSH2 0x4E1E JUMP JUMPDEST PUSH1 0x1 DUP3 ADD SWAP2 POP PUSH2 0x4F8E DUP3 DUP5 PUSH2 0x4E35 JUMP JUMPDEST PUSH1 0x1 DUP3 ADD SWAP2 POP PUSH2 0x4F9D DUP3 PUSH2 0x4F2F JUMP JUMPDEST SWAP2 POP DUP2 SWAP1 POP SWAP6 SWAP5 POP POP POP POP POP JUMP JUMPDEST PUSH1 0x0 PUSH2 0x4FB7 DUP3 DUP5 PUSH2 0x4DD1 JUMP JUMPDEST PUSH1 0x20 DUP3 ADD SWAP2 POP DUP2 SWAP1 POP SWAP3 SWAP2 POP POP JUMP JUMPDEST PUSH1 0x0 PUSH2 0x4FD2 DUP3 DUP5 PUSH2 0x4E07 JUMP JUMPDEST PUSH1 0x1 DUP3 ADD SWAP2 POP DUP2 SWAP1 POP SWAP3 SWAP2 POP POP JUMP JUMPDEST PUSH1 0x0 PUSH2 0x4FED DUP3 DUP5 PUSH2 0x4E1E JUMP JUMPDEST PUSH1 0x1 DUP3 ADD SWAP2 POP DUP2 SWAP1 POP SWAP3 SWAP2 POP POP JUMP JUMPDEST PUSH1 0x0 PUSH2 0x5008 DUP3 DUP5 PUSH2 0x4E35 JUMP JUMPDEST PUSH1 0x1 DUP3 ADD SWAP2 POP DUP2 SWAP1 POP SWAP3 SWAP2 POP POP JUMP JUMPDEST PUSH32 0x44656C6574652000000000000000000000000000000000000000000000000000 DUP2 MSTORE POP JUMP JUMPDEST PUSH1 0x0 PUSH2 0x5048 DUP3 PUSH2 0x5017 JUMP JUMPDEST PUSH1 0x7 DUP3 ADD SWAP2 POP PUSH2 0x5058 DUP3 DUP8 PUSH2 0x4874 JUMP JUMPDEST SWAP2 POP PUSH2 0x5063 DUP3 PUSH2 0x4AFB JUMP JUMPDEST PUSH1 0x1 DUP3 ADD SWAP2 POP PUSH2 0x5073 DUP3 DUP7 PUSH2 0x4874 JUMP JUMPDEST SWAP2 POP PUSH2 0x507E DUP3 PUSH2 0x4AFB JUMP JUMPDEST PUSH1 0x1 DUP3 ADD SWAP2 POP PUSH2 0x508E DUP3 DUP6 PUSH2 0x4874 JUMP JUMPDEST SWAP2 POP PUSH2 0x5099 DUP3 PUSH2 0x4AFB JUMP JUMPDEST PUSH1 0x1 DUP3 ADD SWAP2 POP PUSH2 0x50A9 DUP3 DUP5 PUSH2 0x4874 JUMP JUMPDEST SWAP2 POP DUP2 SWAP1 POP SWAP6 SWAP5 POP POP POP POP POP JUMP JUMPDEST PUSH32 0x5468697320636572746966696361746520616C72656164792065786973747300 PUSH1 0x0 DUP3 ADD MSTORE POP JUMP JUMPDEST PUSH1 0x0 PUSH2 0x50ED PUSH1 0x1F DUP4 PUSH2 0x41DF JUMP JUMPDEST SWAP2 POP PUSH2 0x50F8 DUP3 PUSH2 0x50B7 JUMP JUMPDEST PUSH1 0x20 DUP3 ADD SWAP1 POP SWAP2 SWAP1 POP JUMP JUMPDEST PUSH1 0x0 PUSH1 0x20 DUP3 ADD SWAP1 POP DUP2 DUP2 SUB PUSH1 0x0 DUP4 ADD MSTORE PUSH2 0x511C DUP2 PUSH2 0x50E0 JUMP JUMPDEST SWAP1 POP SWAP2 SWAP1 POP JUMP JUMPDEST PUSH32 0x4345525449465900000000000000000000000000000000000000000000000000 PUSH1 0x0 DUP3 ADD MSTORE POP JUMP JUMPDEST PUSH1 0x0 PUSH2 0x5159 PUSH1 0x7 DUP4 PUSH2 0x4869 JUMP JUMPDEST SWAP2 POP PUSH2 0x5164 DUP3 PUSH2 0x5123 JUMP JUMPDEST PUSH1 0x7 DUP3 ADD SWAP1 POP SWAP2 SWAP1 POP JUMP JUMPDEST PUSH1 0x0 PUSH2 0x517B DUP3 DUP8 PUSH2 0x4DD1 JUMP JUMPDEST PUSH1 0x20 DUP3 ADD SWAP2 POP PUSH2 0x518B DUP3 DUP7 PUSH2 0x4E07 JUMP JUMPDEST PUSH1 0x1 DUP3 ADD SWAP2 POP PUSH2 0x519B DUP3 DUP6 PUSH2 0x4E1E JUMP JUMPDEST PUSH1 0x1 DUP3 ADD SWAP2 POP PUSH2 0x51AB DUP3 DUP5 PUSH2 0x4E35 JUMP JUMPDEST PUSH1 0x1 DUP3 ADD SWAP2 POP PUSH2 0x51BA DUP3 PUSH2 0x514C JUMP JUMPDEST SWAP2 POP DUP2 SWAP1 POP SWAP6 SWAP5 POP POP POP POP POP JUMP JUMPDEST PUSH32 0x4365727469667920000000000000000000000000000000000000000000000000 DUP2 MSTORE POP JUMP JUMPDEST PUSH1 0x0 PUSH2 0x51F9 DUP3 PUSH2 0x51C8 JUMP JUMPDEST PUSH1 0x8 DUP3 ADD SWAP2 POP PUSH2 0x5209 DUP3 DUP8 PUSH2 0x4874 JUMP JUMPDEST SWAP2 POP PUSH2 0x5214 DUP3 PUSH2 0x4AFB JUMP JUMPDEST PUSH1 0x1 DUP3 ADD SWAP2 POP PUSH2 0x5224 DUP3 DUP7 PUSH2 0x4874 JUMP JUMPDEST SWAP2 POP PUSH2 0x522F DUP3 PUSH2 0x4AFB JUMP JUMPDEST PUSH1 0x1 DUP3 ADD SWAP2 POP PUSH2 0x523F DUP3 DUP6 PUSH2 0x4874 JUMP JUMPDEST SWAP2 POP PUSH2 0x524A DUP3 PUSH2 0x4AFB JUMP JUMPDEST PUSH1 0x1 DUP3 ADD SWAP2 POP PUSH2 0x525A DUP3 DUP5 PUSH2 0x4874 JUMP JUMPDEST SWAP2 POP DUP2 SWAP1 POP SWAP6 SWAP5 POP POP POP POP POP JUMP JUMPDEST PUSH32 0x4E487B7100000000000000000000000000000000000000000000000000000000 PUSH1 0x0 MSTORE PUSH1 0x12 PUSH1 0x4 MSTORE PUSH1 0x24 PUSH1 0x0 REVERT JUMPDEST PUSH1 0x0 PUSH2 0x52A2 DUP3 PUSH2 0x44FD JUMP JUMPDEST SWAP2 POP PUSH2 0x52AD DUP4 PUSH2 0x44FD JUMP JUMPDEST SWAP3 POP DUP3 PUSH2 0x52BD JUMPI PUSH2 0x52BC PUSH2 0x5268 JUMP JUMPDEST JUMPDEST DUP3 DUP3 MOD SWAP1 POP SWAP3 SWAP2 POP POP JUMP JUMPDEST PUSH1 0x0 PUSH2 0x52D3 DUP3 PUSH2 0x44FD JUMP JUMPDEST SWAP2 POP PUSH2 0x52DE DUP4 PUSH2 0x44FD JUMP JUMPDEST SWAP3 POP DUP3 PUSH2 0x52EE JUMPI PUSH2 0x52ED PUSH2 0x5268 JUMP JUMPDEST JUMPDEST DUP3 DUP3 DIV SWAP1 POP SWAP3 SWAP2 POP POP JUMP JUMPDEST PUSH1 0x0 PUSH2 0x5304 DUP3 PUSH2 0x44FD JUMP JUMPDEST SWAP2 POP PUSH2 0x530F DUP4 PUSH2 0x44FD JUMP JUMPDEST SWAP3 POP DUP3 DUP3 ADD SWAP1 POP DUP1 DUP3 GT ISZERO PUSH2 0x5327 JUMPI PUSH2 0x5326 PUSH2 0x4B73 JUMP JUMPDEST JUMPDEST SWAP3 SWAP2 POP POP JUMP JUMPDEST PUSH32 0x4D696E2000000000000000000000000000000000000000000000000000000000 DUP2 MSTORE POP JUMP JUMPDEST PUSH1 0x0 PUSH2 0x535E DUP3 PUSH2 0x532D JUMP JUMPDEST PUSH1 0x4 DUP3 ADD SWAP2 POP PUSH2 0x536E DUP3 DUP5 PUSH2 0x4874 JUMP JUMPDEST SWAP2 POP PUSH2 0x5379 DUP3 PUSH2 0x48A5 JUMP JUMPDEST PUSH1 0x8 DUP3 ADD SWAP2 POP DUP2 SWAP1 POP SWAP3 SWAP2 POP POP JUMP JUMPDEST PUSH32 0x546869732061646472657373206973206E6F7420612000000000000000000000 DUP2 MSTORE POP JUMP JUMPDEST PUSH1 0x0 PUSH2 0x53B9 DUP3 PUSH2 0x5388 JUMP JUMPDEST PUSH1 0x16 DUP3 ADD SWAP2 POP PUSH2 0x53C9 DUP3 DUP5 PUSH2 0x4874 JUMP JUMPDEST SWAP2 POP DUP2 SWAP1 POP SWAP3 SWAP2 POP POP JUMP JUMPDEST PUSH32 0x5245564F4B450000000000000000000000000000000000000000000000000000 PUSH1 0x0 DUP3 ADD MSTORE POP JUMP JUMPDEST PUSH1 0x0 PUSH2 0x540A PUSH1 0x6 DUP4 PUSH2 0x4869 JUMP JUMPDEST SWAP2 POP PUSH2 0x5415 DUP3 PUSH2 0x53D4 JUMP JUMPDEST PUSH1 0x6 DUP3 ADD SWAP1 POP SWAP2 SWAP1 POP JUMP JUMPDEST PUSH1 0x0 PUSH2 0x542C DUP3 DUP6 PUSH2 0x4A20 JUMP JUMPDEST PUSH1 0x14 DUP3 ADD SWAP2 POP PUSH2 0x543B DUP3 PUSH2 0x53FD JUMP JUMPDEST SWAP2 POP PUSH2 0x5447 DUP3 DUP5 PUSH2 0x4811 JUMP JUMPDEST PUSH1 0x20 DUP3 ADD SWAP2 POP DUP2 SWAP1 POP SWAP4 SWAP3 POP POP POP JUMP JUMPDEST PUSH32 0x5265766F6B652000000000000000000000000000000000000000000000000000 DUP2 MSTORE POP JUMP JUMPDEST PUSH1 0x0 PUSH2 0x5488 DUP3 PUSH2 0x5457 JUMP JUMPDEST PUSH1 0x7 DUP3 ADD SWAP2 POP PUSH2 0x5498 DUP3 DUP6 PUSH2 0x4874 JUMP JUMPDEST SWAP2 POP PUSH2 0x54A3 DUP3 PUSH2 0x4AFB JUMP JUMPDEST PUSH1 0x1 DUP3 ADD SWAP2 POP PUSH2 0x54B3 DUP3 DUP5 PUSH2 0x4874 JUMP JUMPDEST SWAP2 POP DUP2 SWAP1 POP SWAP4 SWAP3 POP POP POP JUMP JUMPDEST PUSH1 0x0 PUSH2 0x54CA DUP3 PUSH2 0x4B63 JUMP JUMPDEST SWAP2 POP PUSH2 0x54D5 DUP4 PUSH2 0x4B63 JUMP JUMPDEST SWAP3 POP DUP3 DUP3 SUB SWAP1 POP PUSH4 0xFFFFFFFF DUP2 GT ISZERO PUSH2 0x54F1 JUMPI PUSH2 0x54F0 PUSH2 0x4B73 JUMP JUMPDEST JUMPDEST SWAP3 SWAP2 POP POP JUMP JUMPDEST PUSH1 0x0 PUSH2 0x5502 DUP3 PUSH2 0x412B JUMP JUMPDEST SWAP2 POP PUSH2 0x550D DUP4 PUSH2 0x412B JUMP JUMPDEST SWAP3 POP DUP3 DUP3 SUB SWAP1 POP PUSH1 0xFF DUP2 GT ISZERO PUSH2 0x5526 JUMPI PUSH2 0x5525 PUSH2 0x4B73 JUMP JUMPDEST JUMPDEST SWAP3 SWAP2 POP POP JUMP JUMPDEST PUSH1 0x0 PUSH2 0x5537 DUP3 PUSH2 0x44FD JUMP JUMPDEST SWAP2 POP PUSH32 0xFFFFFFFFFFFFFFFFFFFFFFFFFFFFFFFFFFFFFFFFFFFFFFFFFFFFFFFFFFFFFFFF DUP3 SUB PUSH2 0x5569 JUMPI PUSH2 0x5568 PUSH2 0x4B73 JUMP JUMPDEST JUMPDEST PUSH1 0x1 DUP3 ADD SWAP1 POP SWAP2 SWAP1 POP JUMP JUMPDEST PUSH32 0x4E487B7100000000000000000000000000000000000000000000000000000000 PUSH1 0x0 MSTORE PUSH1 0x41 PUSH1 0x4 MSTORE PUSH1 0x24 PUSH1 0x0 REVERT JUMPDEST PUSH1 0x0 DUP2 SWAP1 POP DUP2 PUSH1 0x0 MSTORE PUSH1 0x20 PUSH1 0x0 KECCAK256 SWAP1 POP SWAP2 SWAP1 POP JUMP JUMPDEST PUSH1 0x0 PUSH1 0x20 PUSH1 0x1F DUP4 ADD DIV SWAP1 POP SWAP2 SWAP1 POP JUMP JUMPDEST PUSH1 0x0 DUP3 DUP3 SHL SWAP1 POP SWAP3 SWAP2 POP POP JUMP JUMPDEST PUSH1 0x0 PUSH1 0x8 DUP4 MUL PUSH2 0x5605 PUSH32 0xFFFFFFFFFFFFFFFFFFFFFFFFFFFFFFFFFFFFFFFFFFFFFFFFFFFFFFFFFFFFFFFF DUP3 PUSH2 0x55C8 JUMP JUMPDEST PUSH2 0x560F DUP7 DUP4 PUSH2 0x55C8 JUMP JUMPDEST SWAP6 POP DUP1 NOT DUP5 AND SWAP4 POP DUP1 DUP7 AND DUP5 OR SWAP3 POP POP POP SWAP4 SWAP3 POP POP POP JUMP JUMPDEST PUSH1 0x0 DUP2 SWAP1 POP SWAP2 SWAP1 POP JUMP JUMPDEST PUSH1 0x0 PUSH2 0x564C PUSH2 0x5647 PUSH2 0x5642 DUP5 PUSH2 0x44FD JUMP JUMPDEST PUSH2 0x5627 JUMP JUMPDEST PUSH2 0x44FD JUMP JUMPDEST SWAP1 POP SWAP2 SWAP1 POP JUMP JUMPDEST PUSH1 0x0 DUP2 SWAP1 POP SWAP2 SWAP1 POP JUMP JUMPDEST PUSH2 0x5666 DUP4 PUSH2 0x5631 JUMP JUMPDEST PUSH2 0x567A PUSH2 0x5672 DUP3 PUSH2 0x5653 JUMP JUMPDEST DUP5 DUP5 SLOAD PUSH2 0x55D5 JUMP JUMPDEST DUP3 SSTORE POP POP POP POP JUMP JUMPDEST PUSH1 0x0 SWAP1 JUMP JUMPDEST PUSH2 0x568F PUSH2 0x5682 JUMP JUMPDEST PUSH2 0x569A DUP2 DUP5 DUP5 PUSH2 0x565D JUMP JUMPDEST POP POP POP JUMP JUMPDEST JUMPDEST DUP2 DUP2 LT ISZERO PUSH2 0x56BE JUMPI PUSH2 0x56B3 PUSH1 0x0 DUP3 PUSH2 0x5687 JUMP JUMPDEST PUSH1 0x1 DUP2 ADD SWAP1 POP PUSH2 0x56A0 JUMP JUMPDEST POP POP JUMP JUMPDEST PUSH1 0x1F DUP3 GT ISZERO PUSH2 0x5703 JUMPI PUSH2 0x56D4 DUP2 PUSH2 0x55A3 JUMP JUMPDEST PUSH2 0x56DD DUP5 PUSH2 0x55B8 JUMP JUMPDEST DUP2 ADD PUSH1 0x20 DUP6 LT ISZERO PUSH2 0x56EC JUMPI DUP2 SWAP1 POP JUMPDEST PUSH2 0x5700 PUSH2 0x56F8 DUP6 PUSH2 0x55B8 JUMP JUMPDEST DUP4 ADD DUP3 PUSH2 0x569F JUMP JUMPDEST POP POP JUMPDEST POP POP POP JUMP JUMPDEST PUSH1 0x0 DUP3 DUP3 SHR SWAP1 POP SWAP3 SWAP2 POP POP JUMP JUMPDEST PUSH1 0x0 PUSH2 0x5726 PUSH1 0x0 NOT DUP5 PUSH1 0x8 MUL PUSH2 0x5708 JUMP JUMPDEST NOT DUP1 DUP4 AND SWAP2 POP POP SWAP3 SWAP2 POP POP JUMP JUMPDEST PUSH1 0x0 PUSH2 0x573F DUP4 DUP4 PUSH2 0x5715 JUMP JUMPDEST SWAP2 POP DUP3 PUSH1 0x2 MUL DUP3 OR SWAP1 POP SWAP3 SWAP2 POP POP JUMP JUMPDEST PUSH2 0x5758 DUP3 PUSH2 0x41D4 JUMP JUMPDEST PUSH8 0xFFFFFFFFFFFFFFFF DUP2 GT ISZERO PUSH2 0x5771 JUMPI PUSH2 0x5770 PUSH2 0x5574 JUMP JUMPDEST JUMPDEST PUSH2 0x577B DUP3 SLOAD PUSH2 0x4744 JUMP JUMPDEST PUSH2 0x5786 DUP3 DUP3 DUP6 PUSH2 0x56C2 JUMP JUMPDEST PUSH1 0x0 PUSH1 0x20 SWAP1 POP PUSH1 0x1F DUP4 GT PUSH1 0x1 DUP2 EQ PUSH2 0x57B9 JUMPI PUSH1 0x0 DUP5 ISZERO PUSH2 0x57A7 JUMPI DUP3 DUP8 ADD MLOAD SWAP1 POP JUMPDEST PUSH2 0x57B1 DUP6 DUP3 PUSH2 0x5733 JUMP JUMPDEST DUP7 SSTORE POP PUSH2 0x5819 JUMP JUMPDEST PUSH1 0x1F NOT DUP5 AND PUSH2 0x57C7 DUP7 PUSH2 0x55A3 JUMP JUMPDEST PUSH1 0x0 JUMPDEST DUP3 DUP2 LT ISZERO PUSH2 0x57EF JUMPI DUP5 DUP10 ADD MLOAD DUP3 SSTORE PUSH1 0x1 DUP3 ADD SWAP2 POP PUSH1 0x20 DUP6 ADD SWAP5 POP PUSH1 0x20 DUP2 ADD SWAP1 POP PUSH2 0x57CA JUMP JUMPDEST DUP7 DUP4 LT ISZERO PUSH2 0x580C JUMPI DUP5 DUP10 ADD MLOAD PUSH2 0x5808 PUSH1 0x1F DUP10 AND DUP3 PUSH2 0x5715 JUMP JUMPDEST DUP4 SSTORE POP JUMPDEST PUSH1 0x1 PUSH1 0x2 DUP9 MUL ADD DUP9 SSTORE POP POP POP JUMPDEST POP POP POP POP POP POP JUMP JUMPDEST PUSH32 0x596F7520616C7265616479207369676E65642074686973206D756C7469736967 PUSH1 0x0 DUP3 ADD MSTORE POP JUMP JUMPDEST PUSH1 0x0 PUSH2 0x5857 PUSH1 0x20 DUP4 PUSH2 0x41DF JUMP JUMPDEST SWAP2 POP PUSH2 0x5862 DUP3 PUSH2 0x5821 JUMP JUMPDEST PUSH1 0x20 DUP3 ADD SWAP1 POP SWAP2 SWAP1 POP JUMP JUMPDEST PUSH1 0x0 PUSH1 0x20 DUP3 ADD SWAP1 POP DUP2 DUP2 SUB PUSH1 0x0 DUP4 ADD MSTORE PUSH2 0x5886 DUP2 PUSH2 0x584A JUMP JUMPDEST SWAP1 POP SWAP2 SWAP1 POP JUMP JUMPDEST PUSH1 0x0 PUSH2 0x5898 DUP3 PUSH2 0x412B JUMP JUMPDEST SWAP2 POP PUSH1 0xFF DUP3 SUB PUSH2 0x58AB JUMPI PUSH2 0x58AA PUSH2 0x4B73 JUMP JUMPDEST JUMPDEST PUSH1 0x1 DUP3 ADD SWAP1 POP SWAP2 SWAP1 POP JUMP JUMPDEST PUSH1 0x0 PUSH2 0x58C1 DUP3 PUSH2 0x412B JUMP JUMPDEST SWAP2 POP PUSH2 0x58CC DUP4 PUSH2 0x412B JUMP JUMPDEST SWAP3 POP DUP3 DUP3 ADD SWAP1 POP PUSH1 0xFF DUP2 GT ISZERO PUSH2 0x58E5 JUMPI PUSH2 0x58E4 PUSH2 0x4B73 JUMP JUMPDEST JUMPDEST SWAP3 SWAP2 POP POP JUMP JUMPDEST PUSH32 0x596F752068617665206E6F7465207369676E65642074686973206D756C746973 PUSH1 0x0 DUP3 ADD MSTORE PUSH32 0x6967207965740000000000000000000000000000000000000000000000000000 PUSH1 0x20 DUP3 ADD MSTORE POP JUMP JUMPDEST PUSH1 0x0 PUSH2 0x5947 PUSH1 0x26 DUP4 PUSH2 0x41DF JUMP JUMPDEST SWAP2 POP PUSH2 0x5952 DUP3 PUSH2 0x58EB JUMP JUMPDEST PUSH1 0x40 DUP3 ADD SWAP1 POP SWAP2 SWAP1 POP JUMP JUMPDEST PUSH1 0x0 PUSH1 0x20 DUP3 ADD SWAP1 POP DUP2 DUP2 SUB PUSH1 0x0 DUP4 ADD MSTORE PUSH2 0x5976 DUP2 PUSH2 0x593A JUMP JUMPDEST SWAP1 POP SWAP2 SWAP1 POP JUMP JUMPDEST PUSH1 0x0 PUSH1 0x80 DUP3 ADD SWAP1 POP PUSH2 0x5992 PUSH1 0x0 DUP4 ADD DUP8 PUSH2 0x4507 JUMP JUMPDEST PUSH2 0x599F PUSH1 0x20 DUP4 ADD DUP7 PUSH2 0x445E JUMP JUMPDEST PUSH2 0x59AC PUSH1 0x40 DUP4 ADD DUP6 PUSH2 0x44A6 JUMP JUMPDEST PUSH2 0x59B9 PUSH1 0x60 DUP4 ADD DUP5 PUSH2 0x44EE JUMP JUMPDEST SWAP6 SWAP5 POP POP POP POP POP JUMP JUMPDEST PUSH32 0x416363657373436F6E74726F6C3A206163636F756E7420000000000000000000 PUSH1 0x0 DUP3 ADD MSTORE POP JUMP JUMPDEST PUSH1 0x0 PUSH2 0x59F8 PUSH1 0x17 DUP4 PUSH2 0x4869 JUMP JUMPDEST SWAP2 POP PUSH2 0x5A03 DUP3 PUSH2 0x59C2 JUMP JUMPDEST PUSH1 0x17 DUP3 ADD SWAP1 POP SWAP2 SWAP1 POP JUMP JUMPDEST PUSH32 0x206973206D697373696E6720726F6C6520000000000000000000000000000000 PUSH1 0x0 DUP3 ADD MSTORE POP JUMP JUMPDEST PUSH1 0x0 PUSH2 0x5A44 PUSH1 0x11 DUP4 PUSH2 0x4869 JUMP JUMPDEST SWAP2 POP PUSH2 0x5A4F DUP3 PUSH2 0x5A0E JUMP JUMPDEST PUSH1 0x11 DUP3 ADD SWAP1 POP SWAP2 SWAP1 POP JUMP JUMPDEST PUSH1 0x0 PUSH2 0x5A65 DUP3 PUSH2 0x59EB JUMP JUMPDEST SWAP2 POP PUSH2 0x5A71 DUP3 DUP6 PUSH2 0x4874 JUMP JUMPDEST SWAP2 POP PUSH2 0x5A7C DUP3 PUSH2 0x5A37 JUMP JUMPDEST SWAP2 POP PUSH2 0x5A88 DUP3 DUP5 PUSH2 0x4874 JUMP JUMPDEST SWAP2 POP DUP2 SWAP1 POP SWAP4 SWAP3 POP POP POP JUMP JUMPDEST PUSH1 0x0 PUSH2 0x5A9F DUP3 PUSH2 0x44FD JUMP JUMPDEST SWAP2 POP PUSH2 0x5AAA DUP4 PUSH2 0x44FD JUMP JUMPDEST SWAP3 POP DUP3 DUP3 MUL PUSH2 0x5AB8 DUP2 PUSH2 0x44FD JUMP JUMPDEST SWAP2 POP DUP3 DUP3 DIV DUP5 EQ DUP4 ISZERO OR PUSH2 0x5ACF JUMPI PUSH2 0x5ACE PUSH2 0x4B73 JUMP JUMPDEST JUMPDEST POP SWAP3 SWAP2 POP POP JUMP JUMPDEST PUSH32 0x4E487B7100000000000000000000000000000000000000000000000000000000 PUSH1 0x0 MSTORE PUSH1 0x32 PUSH1 0x4 MSTORE PUSH1 0x24 PUSH1 0x0 REVERT JUMPDEST PUSH1 0x0 PUSH2 0x5B10 DUP3 PUSH2 0x44FD JUMP JUMPDEST SWAP2 POP PUSH1 0x0 DUP3 SUB PUSH2 0x5B23 JUMPI PUSH2 0x5B22 PUSH2 0x4B73 JUMP JUMPDEST JUMPDEST PUSH1 0x1 DUP3 SUB SWAP1 POP SWAP2 SWAP1 POP JUMP JUMPDEST PUSH32 0x537472696E67733A20686578206C656E67746820696E73756666696369656E74 PUSH1 0x0 DUP3 ADD MSTORE POP JUMP JUMPDEST PUSH1 0x0 PUSH2 0x5B64 PUSH1 0x20 DUP4 PUSH2 0x41DF JUMP JUMPDEST SWAP2 POP PUSH2 0x5B6F DUP3 PUSH2 0x5B2E JUMP JUMPDEST PUSH1 0x20 DUP3 ADD SWAP1 POP SWAP2 SWAP1 POP JUMP JUMPDEST PUSH1 0x0 PUSH1 0x20 DUP3 ADD SWAP1 POP DUP2 DUP2 SUB PUSH1 0x0 DUP4 ADD MSTORE PUSH2 0x5B93 DUP2 PUSH2 0x5B57 JUMP JUMPDEST SWAP1 POP SWAP2 SWAP1 POP JUMP INVALID LOG2 PUSH5 0x6970667358 0x22 SLT KECCAK256 0x4B 0xB0 STOP 0x5D 0xBA PUSH14 0xE7CEC4A66BF32725C28DFA8F5233 STATICCALL PUSH6 0xE3877ED9C7C8 0xB4 0xA5 0xAB 0xAB PUSH5 0x736F6C6343 STOP ADDMOD SGT STOP CALLER "},"methodIdentifiers":{"CERTIFIER()":"b86bc74f","CERTIFIER_ADMIN()":"e05f2fb4","DEFAULT_ADMIN_ROLE()":"a217fddf","MAX_CERTIFIERS()":"5907ebea","MAX_CERTIFIERS_ADMIN()":"9e339909","MIN_CERTIFIERS_ADMIN()":"33b72e49","PERCENT_TO_CERTIFY()":"6bc6421b","PERCENT_TO_EDIT_CERTIFICATE()":"2cd94e4f","PERCENT_TO_GRANT_CERTIFIER()":"4da11a20","PERCENT_TO_GRANT_CERTIFIER_ADMIN()":"0f68794a","PERCENT_TO_REVOKE_CERTIFIER()":"1a9cfe28","PERCENT_TO_REVOKE_CERTIFIER_ADMIN()":"7cd29fb7","ceilUDiv(uint256,uint256)":"bf802091","certificates(bytes32)":"742f0688","certify(uint256,uint8,uint8,uint8,bool)":"ace81910","deleteCertificate(uint256,uint8,uint8,uint8,bool)":"8856a0e9","getRoleAdmin(bytes32)":"248a9ca3","grantAnyRole(bytes32,address,bool)":"719129be","grantRole(bytes32,address)":"2f2ff15d","hasRole(bytes32,address)":"91d14854","multiSig(bytes32)":"1a968069","multiSigId(uint256)":"9dd09a73","renounceRole(bytes32,address)":"36568abe","revokeAnyRole(bytes32,address,bool)":"d3243ad8","revokeRole(bytes32,address)":"d547741f","supportsInterface(bytes4)":"01ffc9a7"}}}}}