{"contracts/utils/AddressToString.sol":{"AddressToString":{"abi":[{"inputs":[{"internalType":"address","name":"_address","type":"address"}],"name":"addToStr","outputs":[{"internalType":"string","name":"","type":"string"}],"stateMutability":"pure","type":"function"}],"evm":{"bytecode":{"linkReferences":{},"object":"608060405234801561001057600080fd5b50610767806100206000396000f3fe608060405234801561001057600080fd5b506004361061002b5760003560e01c806312ac167c14610030575b600080fd5b61004a600480360381019061004591906104fd565b610060565b60405161005791906105ba565b60405180910390f35b606061007667c6c2a97e3fce25a460c01b610497565b61008a678b9003f64629527160c01b610497565b61009e679a3115c808db295760c01b610497565b60008273ffffffffffffffffffffffffffffffffffffffff1660001b90506100d067de4b0ed40e05566460c01b610497565b6100e46710d85f562cda14c460c01b610497565b60006040518060400160405280601081526020017f3031323334353637383961626364656600000000000000000000000000000000815250905061013267340afe87cd14d3fb60c01b610497565b61014667fdcf0d66da28a43660c01b610497565b6000602a67ffffffffffffffff811115610163576101626105dc565b5b6040519080825280601f01601f1916602001820160405280156101955781602001600182028036833780820191505090505b5090506101ac67fab9f092363f74b060c01b610497565b7f3000000000000000000000000000000000000000000000000000000000000000816000815181106101e1576101e061060b565b5b60200101907effffffffffffffffffffffffffffffffffffffffffffffffffffffffffffff1916908160001a90535061022467ed9fcec2dd0e556260c01b610497565b7f7800000000000000000000000000000000000000000000000000000000000000816001815181106102595761025861060b565b5b60200101907effffffffffffffffffffffffffffffffffffffffffffffffffffffffffffff1916908160001a90535061029c67da9c01a3a26884fc60c01b610497565b6102b067cee081367d156c8b60c01b610497565b60005b6014811015610463576102d06725a4132e77404c0b60c01b610497565b82600485600c846102e19190610673565b602081106102f2576102f161060b565b5b1a60f81b7effffffffffffffffffffffffffffffffffffffffffffffffffffffffffffff1916901c60f81c60ff16815181106103315761033061060b565b5b602001015160f81c60f81b8260028361034a91906106a7565b60026103569190610673565b815181106103675761036661060b565b5b60200101907effffffffffffffffffffffffffffffffffffffffffffffffffffffffffffff1916908160001a9053506103aa6770a8741b582a334060c01b610497565b82600f60f81b85600c846103be9190610673565b602081106103cf576103ce61060b565b5b1a60f81b1660f81c60ff16815181106103eb576103ea61060b565b5b602001015160f81c60f81b8260028361040491906106a7565b60036104109190610673565b815181106104215761042061060b565b5b60200101907effffffffffffffffffffffffffffffffffffffffffffffffffffffffffffff1916908160001a905350808061045b906106e9565b9150506102b3565b5061047867e337d3bb0e02809d60c01b610497565b61048c679f8efc402a44a4f960c01b610497565b809350505050919050565b50565b600080fd5b600073ffffffffffffffffffffffffffffffffffffffff82169050919050565b60006104ca8261049f565b9050919050565b6104da816104bf565b81146104e557600080fd5b50565b6000813590506104f7816104d1565b92915050565b6000602082840312156105135761051261049a565b5b6000610521848285016104e8565b91505092915050565b600081519050919050565b600082825260208201905092915050565b60005b83811015610564578082015181840152602081019050610549565b60008484015250505050565b6000601f19601f8301169050919050565b600061058c8261052a565b6105968185610535565b93506105a6818560208601610546565b6105af81610570565b840191505092915050565b600060208201905081810360008301526105d48184610581565b905092915050565b7f4e487b7100000000000000000000000000000000000000000000000000000000600052604160045260246000fd5b7f4e487b7100000000000000000000000000000000000000000000000000000000600052603260045260246000fd5b6000819050919050565b7f4e487b7100000000000000000000000000000000000000000000000000000000600052601160045260246000fd5b600061067e8261063a565b91506106898361063a565b92508282019050808211156106a1576106a0610644565b5b92915050565b60006106b28261063a565b91506106bd8361063a565b92508282026106cb8161063a565b915082820484148315176106e2576106e1610644565b5b5092915050565b60006106f48261063a565b91507fffffffffffffffffffffffffffffffffffffffffffffffffffffffffffffffff820361072657610725610644565b5b60018201905091905056fea2646970667358221220d9bf92148d0946370ed5749ce4177c1e1c08b1fa9d6cbf804d089b03140665ce64736f6c63430008130033","opcodes":"PUSH1 0x80 PUSH1 0x40 MSTORE CALLVALUE DUP1 ISZERO PUSH2 0x10 JUMPI PUSH1 0x0 DUP1 REVERT JUMPDEST POP PUSH2 0x767 DUP1 PUSH2 0x20 PUSH1 0x0 CODECOPY PUSH1 0x0 RETURN INVALID PUSH1 0x80 PUSH1 0x40 MSTORE CALLVALUE DUP1 ISZERO PUSH2 0x10 JUMPI PUSH1 0x0 DUP1 REVERT JUMPDEST POP PUSH1 0x4 CALLDATASIZE LT PUSH2 0x2B JUMPI PUSH1 0x0 CALLDATALOAD PUSH1 0xE0 SHR DUP1 PUSH4 0x12AC167C EQ PUSH2 0x30 JUMPI JUMPDEST PUSH1 0x0 DUP1 REVERT JUMPDEST PUSH2 0x4A PUSH1 0x4 DUP1 CALLDATASIZE SUB DUP2 ADD SWAP1 PUSH2 0x45 SWAP2 SWAP1 PUSH2 0x4FD JUMP JUMPDEST PUSH2 0x60 JUMP JUMPDEST PUSH1 0x40 MLOAD PUSH2 0x57 SWAP2 SWAP1 PUSH2 0x5BA JUMP JUMPDEST PUSH1 0x40 MLOAD DUP1 SWAP2 SUB SWAP1 RETURN JUMPDEST PUSH1 0x60 PUSH2 0x76 PUSH8 0xC6C2A97E3FCE25A4 PUSH1 0xC0 SHL PUSH2 0x497 JUMP JUMPDEST PUSH2 0x8A PUSH8 0x8B9003F646295271 PUSH1 0xC0 SHL PUSH2 0x497 JUMP JUMPDEST PUSH2 0x9E PUSH8 0x9A3115C808DB2957 PUSH1 0xC0 SHL PUSH2 0x497 JUMP JUMPDEST PUSH1 0x0 DUP3 PUSH20 0xFFFFFFFFFFFFFFFFFFFFFFFFFFFFFFFFFFFFFFFF AND PUSH1 0x0 SHL SWAP1 POP PUSH2 0xD0 PUSH8 0xDE4B0ED40E055664 PUSH1 0xC0 SHL PUSH2 0x497 JUMP JUMPDEST PUSH2 0xE4 PUSH8 0x10D85F562CDA14C4 PUSH1 0xC0 SHL PUSH2 0x497 JUMP JUMPDEST PUSH1 0x0 PUSH1 0x40 MLOAD DUP1 PUSH1 0x40 ADD PUSH1 0x40 MSTORE DUP1 PUSH1 0x10 DUP2 MSTORE PUSH1 0x20 ADD PUSH32 0x3031323334353637383961626364656600000000000000000000000000000000 DUP2 MSTORE POP SWAP1 POP PUSH2 0x132 PUSH8 0x340AFE87CD14D3FB PUSH1 0xC0 SHL PUSH2 0x497 JUMP JUMPDEST PUSH2 0x146 PUSH8 0xFDCF0D66DA28A436 PUSH1 0xC0 SHL PUSH2 0x497 JUMP JUMPDEST PUSH1 0x0 PUSH1 0x2A PUSH8 0xFFFFFFFFFFFFFFFF DUP2 GT ISZERO PUSH2 0x163 JUMPI PUSH2 0x162 PUSH2 0x5DC JUMP JUMPDEST JUMPDEST PUSH1 0x40 MLOAD SWAP1 DUP1 DUP3 MSTORE DUP1 PUSH1 0x1F ADD PUSH1 0x1F NOT AND PUSH1 0x20 ADD DUP3 ADD PUSH1 0x40 MSTORE DUP1 ISZERO PUSH2 0x195 JUMPI DUP2 PUSH1 0x20 ADD PUSH1 0x1 DUP3 MUL DUP1 CALLDATASIZE DUP4 CALLDATACOPY DUP1 DUP3 ADD SWAP2 POP POP SWAP1 POP JUMPDEST POP SWAP1 POP PUSH2 0x1AC PUSH8 0xFAB9F092363F74B0 PUSH1 0xC0 SHL PUSH2 0x497 JUMP JUMPDEST PUSH32 0x3000000000000000000000000000000000000000000000000000000000000000 DUP2 PUSH1 0x0 DUP2 MLOAD DUP2 LT PUSH2 0x1E1 JUMPI PUSH2 0x1E0 PUSH2 0x60B JUMP JUMPDEST JUMPDEST PUSH1 0x20 ADD ADD SWAP1 PUSH31 0xFFFFFFFFFFFFFFFFFFFFFFFFFFFFFFFFFFFFFFFFFFFFFFFFFFFFFFFFFFFFFF NOT AND SWAP1 DUP2 PUSH1 0x0 BYTE SWAP1 MSTORE8 POP PUSH2 0x224 PUSH8 0xED9FCEC2DD0E5562 PUSH1 0xC0 SHL PUSH2 0x497 JUMP JUMPDEST PUSH32 0x7800000000000000000000000000000000000000000000000000000000000000 DUP2 PUSH1 0x1 DUP2 MLOAD DUP2 LT PUSH2 0x259 JUMPI PUSH2 0x258 PUSH2 0x60B JUMP JUMPDEST JUMPDEST PUSH1 0x20 ADD ADD SWAP1 PUSH31 0xFFFFFFFFFFFFFFFFFFFFFFFFFFFFFFFFFFFFFFFFFFFFFFFFFFFFFFFFFFFFFF NOT AND SWAP1 DUP2 PUSH1 0x0 BYTE SWAP1 MSTORE8 POP PUSH2 0x29C PUSH8 0xDA9C01A3A26884FC PUSH1 0xC0 SHL PUSH2 0x497 JUMP JUMPDEST PUSH2 0x2B0 PUSH8 0xCEE081367D156C8B PUSH1 0xC0 SHL PUSH2 0x497 JUMP JUMPDEST PUSH1 0x0 JUMPDEST PUSH1 0x14 DUP2 LT ISZERO PUSH2 0x463 JUMPI PUSH2 0x2D0 PUSH8 0x25A4132E77404C0B PUSH1 0xC0 SHL PUSH2 0x497 JUMP JUMPDEST DUP3 PUSH1 0x4 DUP6 PUSH1 0xC DUP5 PUSH2 0x2E1 SWAP2 SWAP1 PUSH2 0x673 JUMP JUMPDEST PUSH1 0x20 DUP2 LT PUSH2 0x2F2 JUMPI PUSH2 0x2F1 PUSH2 0x60B JUMP JUMPDEST JUMPDEST BYTE PUSH1 0xF8 SHL PUSH31 0xFFFFFFFFFFFFFFFFFFFFFFFFFFFFFFFFFFFFFFFFFFFFFFFFFFFFFFFFFFFFFF NOT AND SWAP1 SHR PUSH1 0xF8 SHR PUSH1 0xFF AND DUP2 MLOAD DUP2 LT PUSH2 0x331 JUMPI PUSH2 0x330 PUSH2 0x60B JUMP JUMPDEST JUMPDEST PUSH1 0x20 ADD ADD MLOAD PUSH1 0xF8 SHR PUSH1 0xF8 SHL DUP3 PUSH1 0x2 DUP4 PUSH2 0x34A SWAP2 SWAP1 PUSH2 0x6A7 JUMP JUMPDEST PUSH1 0x2 PUSH2 0x356 SWAP2 SWAP1 PUSH2 0x673 JUMP JUMPDEST DUP2 MLOAD DUP2 LT PUSH2 0x367 JUMPI PUSH2 0x366 PUSH2 0x60B JUMP JUMPDEST JUMPDEST PUSH1 0x20 ADD ADD SWAP1 PUSH31 0xFFFFFFFFFFFFFFFFFFFFFFFFFFFFFFFFFFFFFFFFFFFFFFFFFFFFFFFFFFFFFF NOT AND SWAP1 DUP2 PUSH1 0x0 BYTE SWAP1 MSTORE8 POP PUSH2 0x3AA PUSH8 0x70A8741B582A3340 PUSH1 0xC0 SHL PUSH2 0x497 JUMP JUMPDEST DUP3 PUSH1 0xF PUSH1 0xF8 SHL DUP6 PUSH1 0xC DUP5 PUSH2 0x3BE SWAP2 SWAP1 PUSH2 0x673 JUMP JUMPDEST PUSH1 0x20 DUP2 LT PUSH2 0x3CF JUMPI PUSH2 0x3CE PUSH2 0x60B JUMP JUMPDEST JUMPDEST BYTE PUSH1 0xF8 SHL AND PUSH1 0xF8 SHR PUSH1 0xFF AND DUP2 MLOAD DUP2 LT PUSH2 0x3EB JUMPI PUSH2 0x3EA PUSH2 0x60B JUMP JUMPDEST JUMPDEST PUSH1 0x20 ADD ADD MLOAD PUSH1 0xF8 SHR PUSH1 0xF8 SHL DUP3 PUSH1 0x2 DUP4 PUSH2 0x404 SWAP2 SWAP1 PUSH2 0x6A7 JUMP JUMPDEST PUSH1 0x3 PUSH2 0x410 SWAP2 SWAP1 PUSH2 0x673 JUMP JUMPDEST DUP2 MLOAD DUP2 LT PUSH2 0x421 JUMPI PUSH2 0x420 PUSH2 0x60B JUMP JUMPDEST JUMPDEST PUSH1 0x20 ADD ADD SWAP1 PUSH31 0xFFFFFFFFFFFFFFFFFFFFFFFFFFFFFFFFFFFFFFFFFFFFFFFFFFFFFFFFFFFFFF NOT AND SWAP1 DUP2 PUSH1 0x0 BYTE SWAP1 MSTORE8 POP DUP1 DUP1 PUSH2 0x45B SWAP1 PUSH2 0x6E9 JUMP JUMPDEST SWAP2 POP POP PUSH2 0x2B3 JUMP JUMPDEST POP PUSH2 0x478 PUSH8 0xE337D3BB0E02809D PUSH1 0xC0 SHL PUSH2 0x497 JUMP JUMPDEST PUSH2 0x48C PUSH8 0x9F8EFC402A44A4F9 PUSH1 0xC0 SHL PUSH2 0x497 JUMP JUMPDEST DUP1 SWAP4 POP POP POP POP SWAP2 SWAP1 POP JUMP JUMPDEST POP JUMP JUMPDEST PUSH1 0x0 DUP1 REVERT JUMPDEST PUSH1 0x0 PUSH20 0xFFFFFFFFFFFFFFFFFFFFFFFFFFFFFFFFFFFFFFFF DUP3 AND SWAP1 POP SWAP2 SWAP1 POP JUMP JUMPDEST PUSH1 0x0 PUSH2 0x4CA DUP3 PUSH2 0x49F JUMP JUMPDEST SWAP1 POP SWAP2 SWAP1 POP JUMP JUMPDEST PUSH2 0x4DA DUP2 PUSH2 0x4BF JUMP JUMPDEST DUP2 EQ PUSH2 0x4E5 JUMPI PUSH1 0x0 DUP1 REVERT JUMPDEST POP JUMP JUMPDEST PUSH1 0x0 DUP2 CALLDATALOAD SWAP1 POP PUSH2 0x4F7 DUP2 PUSH2 0x4D1 JUMP JUMPDEST SWAP3 SWAP2 POP POP JUMP JUMPDEST PUSH1 0x0 PUSH1 0x20 DUP3 DUP5 SUB SLT ISZERO PUSH2 0x513 JUMPI PUSH2 0x512 PUSH2 0x49A JUMP JUMPDEST JUMPDEST PUSH1 0x0 PUSH2 0x521 DUP5 DUP3 DUP6 ADD PUSH2 0x4E8 JUMP JUMPDEST SWAP2 POP POP SWAP3 SWAP2 POP POP JUMP JUMPDEST PUSH1 0x0 DUP2 MLOAD SWAP1 POP SWAP2 SWAP1 POP JUMP JUMPDEST PUSH1 0x0 DUP3 DUP3 MSTORE PUSH1 0x20 DUP3 ADD SWAP1 POP SWAP3 SWAP2 POP POP JUMP JUMPDEST PUSH1 0x0 JUMPDEST DUP4 DUP2 LT ISZERO PUSH2 0x564 JUMPI DUP1 DUP3 ADD MLOAD DUP2 DUP5 ADD MSTORE PUSH1 0x20 DUP2 ADD SWAP1 POP PUSH2 0x549 JUMP JUMPDEST PUSH1 0x0 DUP5 DUP5 ADD MSTORE POP POP POP POP JUMP JUMPDEST PUSH1 0x0 PUSH1 0x1F NOT PUSH1 0x1F DUP4 ADD AND SWAP1 POP SWAP2 SWAP1 POP JUMP JUMPDEST PUSH1 0x0 PUSH2 0x58C DUP3 PUSH2 0x52A JUMP JUMPDEST PUSH2 0x596 DUP2 DUP6 PUSH2 0x535 JUMP JUMPDEST SWAP4 POP PUSH2 0x5A6 DUP2 DUP6 PUSH1 0x20 DUP7 ADD PUSH2 0x546 JUMP JUMPDEST PUSH2 0x5AF DUP2 PUSH2 0x570 JUMP JUMPDEST DUP5 ADD SWAP2 POP POP SWAP3 SWAP2 POP POP JUMP JUMPDEST PUSH1 0x0 PUSH1 0x20 DUP3 ADD SWAP1 POP DUP2 DUP2 SUB PUSH1 0x0 DUP4 ADD MSTORE PUSH2 0x5D4 DUP2 DUP5 PUSH2 0x581 JUMP JUMPDEST SWAP1 POP SWAP3 SWAP2 POP POP JUMP JUMPDEST PUSH32 0x4E487B7100000000000000000000000000000000000000000000000000000000 PUSH1 0x0 MSTORE PUSH1 0x41 PUSH1 0x4 MSTORE PUSH1 0x24 PUSH1 0x0 REVERT JUMPDEST PUSH32 0x4E487B7100000000000000000000000000000000000000000000000000000000 PUSH1 0x0 MSTORE PUSH1 0x32 PUSH1 0x4 MSTORE PUSH1 0x24 PUSH1 0x0 REVERT JUMPDEST PUSH1 0x0 DUP2 SWAP1 POP SWAP2 SWAP1 POP JUMP JUMPDEST PUSH32 0x4E487B7100000000000000000000000000000000000000000000000000000000 PUSH1 0x0 MSTORE PUSH1 0x11 PUSH1 0x4 MSTORE PUSH1 0x24 PUSH1 0x0 REVERT JUMPDEST PUSH1 0x0 PUSH2 0x67E DUP3 PUSH2 0x63A JUMP JUMPDEST SWAP2 POP PUSH2 0x689 DUP4 PUSH2 0x63A JUMP JUMPDEST SWAP3 POP DUP3 DUP3 ADD SWAP1 POP DUP1 DUP3 GT ISZERO PUSH2 0x6A1 JUMPI PUSH2 0x6A0 PUSH2 0x644 JUMP JUMPDEST JUMPDEST SWAP3 SWAP2 POP POP JUMP JUMPDEST PUSH1 0x0 PUSH2 0x6B2 DUP3 PUSH2 0x63A JUMP JUMPDEST SWAP2 POP PUSH2 0x6BD DUP4 PUSH2 0x63A JUMP JUMPDEST SWAP3 POP DUP3 DUP3 MUL PUSH2 0x6CB DUP2 PUSH2 0x63A JUMP JUMPDEST SWAP2 POP DUP3 DUP3 DIV DUP5 EQ DUP4 ISZERO OR PUSH2 0x6E2 JUMPI PUSH2 0x6E1 PUSH2 0x644 JUMP JUMPDEST JUMPDEST POP SWAP3 SWAP2 POP POP JUMP JUMPDEST PUSH1 0x0 PUSH2 0x6F4 DUP3 PUSH2 0x63A JUMP JUMPDEST SWAP2 POP PUSH32 0xFFFFFFFFFFFFFFFFFFFFFFFFFFFFFFFFFFFFFFFFFFFFFFFFFFFFFFFFFFFFFFFF DUP3 SUB PUSH2 0x726 JUMPI PUSH2 0x725 PUSH2 0x644 JUMP JUMPDEST JUMPDEST PUSH1 0x1 DUP3 ADD SWAP1 POP SWAP2 SWAP1 POP JUMP INVALID LOG2 PUSH5 0x6970667358 0x22 SLT KECCAK256 0xD9 0xBF SWAP3 EQ DUP14 MULMOD CHAINID CALLDATACOPY 0xE 0xD5 PUSH21 0x9CE4177C1E1C08B1FA9D6CBF804D089B03140665CE PUSH5 0x736F6C6343 STOP ADDMOD SGT STOP CALLER "},"methodIdentifiers":{"addToStr(address)":"12ac167c"}}}}}