{"contracts/Certifications.sol":{"Certifications":{"abi":[{"inputs":[{"internalType":"address","name":"certifier_admin1","type":"address"},{"internalType":"address","name":"certifier_admin2","type":"address"}],"stateMutability":"nonpayable","type":"constructor"},{"anonymous":false,"inputs":[{"indexed":true,"internalType":"bytes32","name":"role","type":"bytes32"},{"indexed":true,"internalType":"bytes32","name":"previousAdminRole","type":"bytes32"},{"indexed":true,"internalType":"bytes32","name":"newAdminRole","type":"bytes32"}],"name":"RoleAdminChanged","type":"event"},{"anonymous":false,"inputs":[{"indexed":true,"internalType":"bytes32","name":"role","type":"bytes32"},{"indexed":true,"internalType":"address","name":"account","type":"address"},{"indexed":true,"internalType":"address","name":"sender","type":"address"}],"name":"RoleGranted","type":"event"},{"anonymous":false,"inputs":[{"indexed":true,"internalType":"bytes32","name":"role","type":"bytes32"},{"indexed":true,"internalType":"address","name":"account","type":"address"},{"indexed":true,"internalType":"address","name":"sender","type":"address"}],"name":"RoleRevoked","type":"event"},{"anonymous":false,"inputs":[{"indexed":false,"internalType":"uint256","name":"id","type":"uint256"},{"indexed":false,"internalType":"string","name":"firstname","type":"string"},{"indexed":false,"internalType":"string","name":"lastname","type":"string"},{"indexed":false,"internalType":"uint256","name":"birthdate","type":"uint256"}],"name":"StudentAdded","type":"event"},{"anonymous":false,"inputs":[{"indexed":false,"internalType":"uint256","name":"id","type":"uint256"}],"name":"StudentDeleted","type":"event"},{"anonymous":false,"inputs":[{"indexed":false,"internalType":"uint256","name":"id","type":"uint256"},{"indexed":false,"internalType":"string","name":"firstname","type":"string"},{"indexed":false,"internalType":"string","name":"lastname","type":"string"},{"indexed":false,"internalType":"uint256","name":"birthdate","type":"uint256"}],"name":"StudentEdited","type":"event"},{"anonymous":false,"inputs":[{"indexed":false,"internalType":"uint256","name":"studentId","type":"uint256"},{"indexed":false,"internalType":"enum Certifications.appreciation","name":"appreciation","type":"uint8"},{"indexed":false,"internalType":"enum Certifications.degree","name":"degree","type":"uint8"},{"indexed":false,"internalType":"enum Certifications.program","name":"program","type":"uint8"}],"name":"certificationEmited","type":"event"},{"anonymous":false,"inputs":[{"indexed":false,"internalType":"bytes32","name":"multiSigName","type":"bytes32"}],"name":"multiSigCleared","type":"event"},{"anonymous":false,"inputs":[{"indexed":false,"internalType":"bytes32","name":"multiSigName","type":"bytes32"}],"name":"multiSigSigned","type":"event"},{"inputs":[],"name":"CERTIFIER","outputs":[{"internalType":"bytes32","name":"","type":"bytes32"}],"stateMutability":"view","type":"function"},{"inputs":[],"name":"CERTIFIER_ADMIN","outputs":[{"internalType":"bytes32","name":"","type":"bytes32"}],"stateMutability":"view","type":"function"},{"inputs":[],"name":"DEFAULT_ADMIN_ROLE","outputs":[{"internalType":"bytes32","name":"","type":"bytes32"}],"stateMutability":"view","type":"function"},{"inputs":[],"name":"MAX_CERTIFIERS","outputs":[{"internalType":"uint8","name":"","type":"uint8"}],"stateMutability":"view","type":"function"},{"inputs":[],"name":"MAX_CERTIFIERS_ADMIN","outputs":[{"internalType":"uint8","name":"","type":"uint8"}],"stateMutability":"view","type":"function"},{"inputs":[],"name":"MIN_CERTIFIERS_ADMIN","outputs":[{"internalType":"uint8","name":"","type":"uint8"}],"stateMutability":"view","type":"function"},{"inputs":[],"name":"PERCENT_TO_CERTIFY","outputs":[{"internalType":"uint8","name":"","type":"uint8"}],"stateMutability":"view","type":"function"},{"inputs":[],"name":"PERCENT_TO_DELETE_STUDENT","outputs":[{"internalType":"uint8","name":"","type":"uint8"}],"stateMutability":"view","type":"function"},{"inputs":[],"name":"PERCENT_TO_EDIT_CERTIFICATE","outputs":[{"internalType":"uint8","name":"","type":"uint8"}],"stateMutability":"view","type":"function"},{"inputs":[],"name":"PERCENT_TO_GRANT_CERTIFIER","outputs":[{"internalType":"uint8","name":"","type":"uint8"}],"stateMutability":"view","type":"function"},{"inputs":[],"name":"PERCENT_TO_GRANT_CERTIFIER_ADMIN","outputs":[{"internalType":"uint8","name":"","type":"uint8"}],"stateMutability":"view","type":"function"},{"inputs":[],"name":"PERCENT_TO_REVOKE_CERTIFIER","outputs":[{"internalType":"uint8","name":"","type":"uint8"}],"stateMutability":"view","type":"function"},{"inputs":[],"name":"PERCENT_TO_REVOKE_CERTIFIER_ADMIN","outputs":[{"internalType":"uint8","name":"","type":"uint8"}],"stateMutability":"view","type":"function"},{"inputs":[{"internalType":"address","name":"_address","type":"address"}],"name":"addToStr","outputs":[{"internalType":"string","name":"","type":"string"}],"stateMutability":"pure","type":"function"},{"inputs":[{"internalType":"uint256","name":"a","type":"uint256"},{"internalType":"uint256","name":"b","type":"uint256"}],"name":"ceilUDiv","outputs":[{"internalType":"uint256","name":"","type":"uint256"}],"stateMutability":"pure","type":"function"},{"inputs":[{"internalType":"bytes32","name":"","type":"bytes32"}],"name":"certificates","outputs":[{"internalType":"enum Certifications.appreciation","name":"appreciation","type":"uint8"},{"internalType":"enum Certifications.degree","name":"degree","type":"uint8"},{"internalType":"enum Certifications.program","name":"program","type":"uint8"},{"internalType":"uint256","name":"creation_date","type":"uint256"},{"internalType":"bool","name":"validity","type":"bool"},{"internalType":"uint256","name":"stud_id","type":"uint256"}],"stateMutability":"view","type":"function"},{"inputs":[{"internalType":"uint256","name":"","type":"uint256"},{"internalType":"uint256","name":"","type":"uint256"}],"name":"certificatesByStudent","outputs":[{"internalType":"bytes32","name":"","type":"bytes32"}],"stateMutability":"view","type":"function"},{"inputs":[{"internalType":"uint256","name":"studentId","type":"uint256"},{"internalType":"enum Certifications.appreciation","name":"app","type":"uint8"},{"internalType":"enum Certifications.degree","name":"deg","type":"uint8"},{"internalType":"enum Certifications.program","name":"prog","type":"uint8"},{"internalType":"bool","name":"approve","type":"bool"}],"name":"certify","outputs":[],"stateMutability":"nonpayable","type":"function"},{"inputs":[{"internalType":"uint256","name":"_id","type":"uint256"},{"internalType":"string","name":"_firstname","type":"string"},{"internalType":"string","name":"_lastname","type":"string"},{"internalType":"uint256","name":"_birthdate","type":"uint256"}],"name":"createStudent","outputs":[],"stateMutability":"nonpayable","type":"function"},{"inputs":[{"internalType":"uint256","name":"studentId","type":"uint256"},{"internalType":"enum Certifications.appreciation","name":"app","type":"uint8"},{"internalType":"enum Certifications.degree","name":"deg","type":"uint8"},{"internalType":"enum Certifications.program","name":"prog","type":"uint8"},{"internalType":"bool","name":"approve","type":"bool"}],"name":"deleteCertificate","outputs":[],"stateMutability":"nonpayable","type":"function"},{"inputs":[{"internalType":"uint256","name":"_id","type":"uint256"},{"internalType":"string","name":"_firstname","type":"string"},{"internalType":"string","name":"_lastname","type":"string"},{"internalType":"uint256","name":"_birthdate","type":"uint256"}],"name":"editStudentById","outputs":[],"stateMutability":"nonpayable","type":"function"},{"inputs":[{"internalType":"address","name":"signer","type":"address"}],"name":"getAllMultiSig","outputs":[{"internalType":"bytes32[]","name":"","type":"bytes32[]"},{"internalType":"uint8[]","name":"","type":"uint8[]"},{"internalType":"string[]","name":"","type":"string[]"},{"internalType":"bool[]","name":"","type":"bool[]"}],"stateMutability":"view","type":"function"},{"inputs":[{"internalType":"uint256","name":"_id","type":"uint256"}],"name":"getCertificatesByStudent","outputs":[{"internalType":"bytes32[]","name":"","type":"bytes32[]"}],"stateMutability":"view","type":"function"},{"inputs":[{"internalType":"bytes32","name":"_id","type":"bytes32"}],"name":"getCertificationById","outputs":[{"internalType":"uint8","name":"","type":"uint8"},{"internalType":"uint8","name":"","type":"uint8"},{"internalType":"uint8","name":"","type":"uint8"},{"internalType":"uint256","name":"","type":"uint256"},{"internalType":"uint256","name":"","type":"uint256"}],"stateMutability":"view","type":"function"},{"inputs":[{"internalType":"bytes32","name":"role","type":"bytes32"}],"name":"getRoleAdmin","outputs":[{"internalType":"bytes32","name":"","type":"bytes32"}],"stateMutability":"view","type":"function"},{"inputs":[{"internalType":"bytes32","name":"_role","type":"bytes32"}],"name":"getRoleMembersNb","outputs":[{"internalType":"uint256","name":"","type":"uint256"}],"stateMutability":"view","type":"function"},{"inputs":[{"internalType":"uint256","name":"_id","type":"uint256"}],"name":"getStudent","outputs":[{"internalType":"string","name":"","type":"string"},{"internalType":"string","name":"","type":"string"},{"internalType":"uint256","name":"","type":"uint256"}],"stateMutability":"view","type":"function"},{"inputs":[],"name":"getStudentsIds","outputs":[{"internalType":"uint256[]","name":"","type":"uint256[]"}],"stateMutability":"view","type":"function"},{"inputs":[{"internalType":"bytes32","name":"roleHash","type":"bytes32"},{"internalType":"address","name":"target","type":"address"},{"internalType":"bool","name":"approve","type":"bool"}],"name":"grantAnyRole","outputs":[],"stateMutability":"nonpayable","type":"function"},{"inputs":[{"internalType":"bytes32","name":"role","type":"bytes32"},{"internalType":"address","name":"account","type":"address"}],"name":"grantRole","outputs":[],"stateMutability":"nonpayable","type":"function"},{"inputs":[{"internalType":"bytes32","name":"role","type":"bytes32"},{"internalType":"address","name":"account","type":"address"}],"name":"hasRole","outputs":[{"internalType":"bool","name":"","type":"bool"}],"stateMutability":"view","type":"function"},{"inputs":[{"internalType":"bytes32","name":"","type":"bytes32"}],"name":"multiSig","outputs":[{"internalType":"bool","name":"created","type":"bool"},{"internalType":"bytes32","name":"role","type":"bytes32"},{"internalType":"uint8","name":"count","type":"uint8"},{"internalType":"uint8","name":"id","type":"uint8"},{"internalType":"string","name":"info","type":"string"}],"stateMutability":"view","type":"function"},{"inputs":[{"internalType":"uint256","name":"","type":"uint256"}],"name":"multiSigId","outputs":[{"internalType":"bytes32","name":"","type":"bytes32"}],"stateMutability":"view","type":"function"},{"inputs":[{"internalType":"uint256","name":"_id","type":"uint256"},{"internalType":"bool","name":"_approve","type":"bool"}],"name":"removeStudentById","outputs":[],"stateMutability":"nonpayable","type":"function"},{"inputs":[{"internalType":"bytes32","name":"","type":"bytes32"},{"internalType":"address","name":"","type":"address"}],"name":"renounceRole","outputs":[],"stateMutability":"nonpayable","type":"function"},{"inputs":[{"internalType":"bytes32","name":"roleHash","type":"bytes32"},{"internalType":"address","name":"target","type":"address"},{"internalType":"bool","name":"approve","type":"bool"}],"name":"revokeAnyRole","outputs":[],"stateMutability":"nonpayable","type":"function"},{"inputs":[{"internalType":"bytes32","name":"role","type":"bytes32"},{"internalType":"address","name":"account","type":"address"}],"name":"revokeRole","outputs":[],"stateMutability":"nonpayable","type":"function"},{"inputs":[{"internalType":"uint256","name":"","type":"uint256"}],"name":"students","outputs":[{"internalType":"uint256","name":"id","type":"uint256"},{"internalType":"string","name":"firstname","type":"string"},{"internalType":"string","name":"lastname","type":"string"},{"internalType":"uint256","name":"birthdate","type":"uint256"}],"stateMutability":"view","type":"function"},{"inputs":[{"internalType":"uint256","name":"","type":"uint256"}],"name":"studentsIds","outputs":[{"internalType":"uint256","name":"","type":"uint256"}],"stateMutability":"view","type":"function"},{"inputs":[{"internalType":"bytes4","name":"interfaceId","type":"bytes4"}],"name":"supportsInterface","outputs":[{"internalType":"bool","name":"","type":"bool"}],"stateMutability":"view","type":"function"}],"evm":{"bytecode":{"linkReferences":{},"object":"60806040523480156200001157600080fd5b506040516200a4913803806200a49183398181016040528101906200003791906200099c565b620000536729779e5c28a44e9360c01b620007b660201b60201c565b6200006f67f412bf9358166fd460c01b620007b660201b60201c565b6200008b67313d4c2f5b61a9dc60c01b620007b660201b60201c565b620000a767b704fb86bf9b0ae560c01b620007b660201b60201c565b600073ffffffffffffffffffffffffffffffffffffffff168273ffffffffffffffffffffffffffffffffffffffff160362000119576040517f08c379a0000000000000000000000000000000000000000000000000000000008152600401620001109062000a6a565b60405180910390fd5b620001356744df0a3ad3ca1c7460c01b620007b660201b60201c565b62000151675753b4ffa8a3fbd660c01b620007b660201b60201c565b6200016d6730e331aa91c4f9bc60c01b620007b660201b60201c565b62000189674eb2a36fb681e6cf60c01b620007b660201b60201c565b600073ffffffffffffffffffffffffffffffffffffffff168173ffffffffffffffffffffffffffffffffffffffff1603620001fb576040517f08c379a0000000000000000000000000000000000000000000000000000000008152600401620001f29062000b02565b60405180910390fd5b6200021767f2e70cd0c63d2b6d60c01b620007b660201b60201c565b6200023367f20ecf405b91af1260c01b620007b660201b60201c565b6200024f67c54fde1e8f0ccf5460c01b620007b660201b60201c565b6200026b67842d536c92f2195b60c01b620007b660201b60201c565b8073ffffffffffffffffffffffffffffffffffffffff168273ffffffffffffffffffffffffffffffffffffffff1603620002dc576040517f08c379a0000000000000000000000000000000000000000000000000000000008152600401620002d39062000b9a565b60405180910390fd5b620002f8679f63132de969868060c01b620007b660201b60201c565b620003146735cccddcc702659760c01b620007b660201b60201c565b62000330679e95cee7fe6e926560c01b620007b660201b60201c565b620003627f4bbeb6fd3e5222e55f2f8b0c35bc228e0a06a25d0da772fdb02c3b92fa004f8883620007b960201b60201c565b6200037e67c0c333f011d1fa4e60c01b620007b660201b60201c565b6200039a670c161197cf5c060e60c01b620007b660201b60201c565b620003cc7f4bbeb6fd3e5222e55f2f8b0c35bc228e0a06a25d0da772fdb02c3b92fa004f8882620007cf60201b60201c565b620003e8678ae199c6bad6788260c01b620007b660201b60201c565b6040518060e00160405280600263ffffffff168152602001600260ff1663ffffffff168152602001600f60ff1663ffffffff168152602001605060ff168152602001605060ff1681526020017f4bbeb6fd3e5222e55f2f8b0c35bc228e0a06a25d0da772fdb02c3b92fa004f8881526020016040516020016200046b9062000c17565b604051602081830303815290604052620004859062000c77565b815250600360007f4bbeb6fd3e5222e55f2f8b0c35bc228e0a06a25d0da772fdb02c3b92fa004f88815260200190815260200160002060008201518160000160006101000a81548163ffffffff021916908363ffffffff16021790555060208201518160000160046101000a81548163ffffffff021916908363ffffffff16021790555060408201518160000160086101000a81548163ffffffff021916908363ffffffff160217905550606082015181600001600c6101000a81548160ff021916908360ff160217905550608082015181600001600d6101000a81548160ff021916908360ff16021790555060a0820151816001015560c08201518160020155905050620005a56725e8248393bb070b60c01b620007b660201b60201c565b620005c16779dbe9f023bdb8c260c01b620007b660201b60201c565b620005f47fd646ae07eb0d0f77457502a65e7407930dff4cd4fd99abc6aac87a753f4c8a426000620007b960201b60201c565b6200061067a32025a628d05e9260c01b620007b660201b60201c565b6040518060e00160405280600063ffffffff168152602001600063ffffffff168152602001600f60ff1663ffffffff168152602001605060ff168152602001605060ff1681526020017f4bbeb6fd3e5222e55f2f8b0c35bc228e0a06a25d0da772fdb02c3b92fa004f888152602001604051602001620006909062000d37565b604051602081830303815290604052620006aa9062000c77565b815250600360007fd646ae07eb0d0f77457502a65e7407930dff4cd4fd99abc6aac87a753f4c8a42815260200190815260200160002060008201518160000160006101000a81548163ffffffff021916908363ffffffff16021790555060208201518160000160046101000a81548163ffffffff021916908363ffffffff16021790555060408201518160000160086101000a81548163ffffffff021916908363ffffffff160217905550606082015181600001600c6101000a81548160ff021916908360ff160217905550608082015181600001600d6101000a81548160ff021916908360ff16021790555060a0820151816001015560c08201518160020155905050505062000d4e565b50565b620007cb8282620007cf60201b60201c565b5050565b620007e18282620008c060201b60201c565b620008bc57600160008084815260200190815260200160002060000160008373ffffffffffffffffffffffffffffffffffffffff1673ffffffffffffffffffffffffffffffffffffffff16815260200190815260200160002060006101000a81548160ff021916908315150217905550620008616200092a60201b60201c565b73ffffffffffffffffffffffffffffffffffffffff168173ffffffffffffffffffffffffffffffffffffffff16837f2f8788117e7eff1d82e926ec794901d17c78024a50270940304540a733656f0d60405160405180910390a45b5050565b600080600084815260200190815260200160002060000160008373ffffffffffffffffffffffffffffffffffffffff1673ffffffffffffffffffffffffffffffffffffffff16815260200190815260200160002060009054906101000a900460ff16905092915050565b600033905090565b600080fd5b600073ffffffffffffffffffffffffffffffffffffffff82169050919050565b6000620009648262000937565b9050919050565b620009768162000957565b81146200098257600080fd5b50565b60008151905062000996816200096b565b92915050565b60008060408385031215620009b657620009b562000932565b5b6000620009c68582860162000985565b9250506020620009d98582860162000985565b9150509250929050565b600082825260208201905092915050565b7f4365727469666965722061646d696e3120616464726573732063616e6e6f742060008201527f6265203000000000000000000000000000000000000000000000000000000000602082015250565b600062000a52602483620009e3565b915062000a5f82620009f4565b604082019050919050565b6000602082019050818103600083015262000a858162000a43565b9050919050565b7f4365727469666965722061646d696e3220616464726573732063616e6e6f742060008201527f6265203000000000000000000000000000000000000000000000000000000000602082015250565b600062000aea602483620009e3565b915062000af78262000a8c565b604082019050919050565b6000602082019050818103600083015262000b1d8162000adb565b9050919050565b7f436572746966696572206164647265737365732063616e6e6f7420626520746860008201527f652073616d650000000000000000000000000000000000000000000000000000602082015250565b600062000b82602683620009e3565b915062000b8f8262000b24565b604082019050919050565b6000602082019050818103600083015262000bb58162000b73565b9050919050565b600081905092915050565b7f4345525449464945525f41444d494e0000000000000000000000000000000000600082015250565b600062000bff600f8362000bbc565b915062000c0c8262000bc7565b600f82019050919050565b600062000c248262000bf0565b9150819050919050565b600081519050919050565b6000819050602082019050919050565b6000819050919050565b600062000c61825162000c49565b80915050919050565b600082821b905092915050565b600062000c848262000c2e565b8262000c908462000c39565b905062000c9d8162000c53565b9250602082101562000ce05762000cdb7fffffffffffffffffffffffffffffffffffffffffffffffffffffffffffffffff8360200360080262000c6a565b831692505b5050919050565b7f4345525449464945520000000000000000000000000000000000000000000000600082015250565b600062000d1f60098362000bbc565b915062000d2c8262000ce7565b600982019050919050565b600062000d448262000d10565b9150819050919050565b6197338062000d5e6000396000f3fe608060405234801561001057600080fd5b50600436106102485760003560e01c80637cd29fb71161013b578063b86bc74f116100b8578063d547741f1161007c578063d547741f14610750578063d911f5531461076c578063df3a12dd146107a0578063e05f2fb4146107d0578063e5a357f5146107ee57610248565b8063b86bc74f146106ac578063bf802091146106ca578063c9dbcfda146106fa578063d0fb68c714610716578063d3243ad81461073457610248565b80639e339909116100ff5780639e33990914610608578063a1cebf5214610626578063a217fddf14610642578063a3eabd3d14610660578063ace819101461069057610248565b80637cd29fb71461053b5780638856a0e9146105595780638e82d0e71461057557806391d14854146105a85780639dd09a73146105d857610248565b806333b72e49116101c95780635907ebea1161018d5780635907ebea1461047c578063642f91631461049a5780636bc6421b146104cc578063719129be146104ea578063742f06881461050657610248565b806333b72e49146103d657806336568abe146103f4578063461c71b2146104105780634cce913b1461042e5780634da11a201461045e57610248565b80631a968069116102105780631a9680691461031a5780631a9cfe281461034e578063248a9ca31461036c5780632cd94e4f1461039c5780632f2ff15d146103ba57610248565b806301ffc9a71461024d57806305f84d451461027d57806306ead22e146102995780630f68794a146102cc57806312ac167c146102ea575b600080fd5b61026760048036038101906102629190616f2a565b61081e565b6040516102749190616f72565b60405180910390f35b61029760048036038101906102929190616fef565b610898565b005b6102b360048036038101906102ae919061702f565b610f8e565b6040516102c394939291906170fb565b60405180910390f35b6102d46110ce565b6040516102e1919061716a565b60405180910390f35b61030460048036038101906102ff91906171e3565b6110d3565b6040516103119190617210565b60405180910390f35b610334600480360381019061032f9190617268565b61150a565b6040516103459594939291906172a4565b60405180910390f35b6103566115ef565b604051610363919061716a565b60405180910390f35b61038660048036038101906103819190617268565b6115f4565b60405161039391906172fe565b60405180910390f35b6103a4611613565b6040516103b1919061716a565b60405180910390f35b6103d460048036038101906103cf9190617319565b611618565b005b6103de611639565b6040516103eb919061716a565b60405180910390f35b61040e60048036038101906104099190617319565b61163e565b005b6104186116b5565b6040516104259190617417565b60405180910390f35b61044860048036038101906104439190617439565b611749565b60405161045591906172fe565b60405180910390f35b61046661177a565b604051610473919061716a565b60405180910390f35b61048461177f565b604051610491919061716a565b60405180910390f35b6104b460048036038101906104af919061702f565b611784565b6040516104c393929190617479565b60405180910390f35b6104d46119d6565b6040516104e1919061716a565b60405180910390f35b61050460048036038101906104ff91906174be565b6119db565b005b610520600480360381019061051b9190617268565b612248565b60405161053296959493929190617618565b60405180910390f35b6105436122b8565b604051610550919061716a565b60405180910390f35b610573600480360381019061056e91906176e8565b6122bd565b005b61058f600480360381019061058a91906171e3565b612d59565b60405161059f9493929190617aa9565b60405180910390f35b6105c260048036038101906105bd9190617319565b61323c565b6040516105cf9190616f72565b60405180910390f35b6105f260048036038101906105ed919061702f565b6132a6565b6040516105ff91906172fe565b60405180910390f35b6106106132be565b60405161061d919061716a565b60405180910390f35b610640600480360381019061063b9190617c3f565b6132c3565b005b61064a6136c1565b60405161065791906172fe565b60405180910390f35b61067a60048036038101906106759190617268565b6136c8565b6040516106879190617cde565b60405180910390f35b6106aa60048036038101906106a591906176e8565b61373a565b005b6106b461419b565b6040516106c191906172fe565b60405180910390f35b6106e460048036038101906106df9190617439565b6141bf565b6040516106f19190617cde565b60405180910390f35b610714600480360381019061070f9190617c3f565b6142bc565b005b61071e6144ff565b60405161072b919061716a565b60405180910390f35b61074e600480360381019061074991906174be565b614504565b005b61076a60048036038101906107659190617319565b6150b1565b005b61078660048036038101906107819190617268565b6150d2565b604051610797959493929190617cf9565b60405180910390f35b6107ba60048036038101906107b5919061702f565b6152b3565b6040516107c79190617cde565b60405180910390f35b6107d86152d7565b6040516107e591906172fe565b60405180910390f35b6108086004803603810190610803919061702f565b6152fb565b6040516108159190617d4c565b60405180910390f35b60007f7965db0b000000000000000000000000000000000000000000000000000000007bffffffffffffffffffffffffffffffffffffffffffffffffffffffff1916827bffffffffffffffffffffffffffffffffffffffffffffffffffffffff1916148061089157506108908261544b565b5b9050919050565b6108ac67fc92d0035d00688e60c01b6154b5565b6108c067e5a91bfc65f0c4b160c01b6154b5565b6108d4674900a3687504079c60c01b6154b5565b6108e8674fce23ae6bb9dc7f60c01b6154b5565b6109127fd646ae07eb0d0f77457502a65e7407930dff4cd4fd99abc6aac87a753f4c8a423361323c565b610951576040517f08c379a000000000000000000000000000000000000000000000000000000000815260040161094890617dba565b60405180910390fd5b61096567a37f82e1ae7b555d60c01b6154b5565b61097967db9f0c54e294074460c01b6154b5565b61098d67e392881a64b85dd960c01b6154b5565b6109a1673b69b5f7da0fc98560c01b6154b5565b600082116109e4576040517f08c379a00000000000000000000000000000000000000000000000000000000081526004016109db90617e26565b60405180910390fd5b6109f86739878fdc39193a5c60c01b6154b5565b610a0c67efd429d53dea246260c01b6154b5565b610a2067ef5c68bad402a4e060c01b6154b5565b610a3467b55b9f6d9d1026af60c01b6154b5565b6000600160008481526020019081526020016000206000015403610a8d576040517f08c379a0000000000000000000000000000000000000000000000000000000008152600401610a8490617e92565b60405180910390fd5b610aa167c7765049f91a4ef760c01b6154b5565b610ab567a6d489319a22f36060c01b6154b5565b610ac967a5644b271bdebd0560c01b6154b5565b600082604051602001610adc9190617f2a565b604051602081830303815290604052805190602001209050610b086773766d50c37ae17460c01b6154b5565b610b1c678b979d26b761488e60c01b6154b5565b610b6e817fd646ae07eb0d0f77457502a65e7407930dff4cd4fd99abc6aac87a753f4c8a42610b4a866154b8565b604051602001610b5a9190617fa7565b604051602081830303815290604052615586565b610b82674773b74ca2dfd97760c01b6154b5565b610b96673a3c8e3b93c77fd760c01b6154b5565b818015610c075750600015156004600083815260200190815260200160002060030160003373ffffffffffffffffffffffffffffffffffffffff1673ffffffffffffffffffffffffffffffffffffffff16815260200190815260200160002060009054906101000a900460ff161515145b15610cc857610c2067de5b5a61926c36c960c01b6154b5565b610c3467fba333423761151560c01b6154b5565b610c4867a458fc201c41f2eb60c01b6154b5565b610c64600460008381526020019081526020016000203361572a565b610c786732e4132dad12190060c01b6154b5565b610c8c675903462ab1321cac60c01b6154b5565b7fb431a69783a2491a0c400ff16dab32cd442abf8fe5af63a526a7248d730192f881604051610cbb91906172fe565b60405180910390a1610dce565b610cdc6795a317ec06f83c1060c01b6154b5565b610cf067b1d4635b098ce77a60c01b6154b5565b6000151582151503610db857610d1067a0b843672511ab5560c01b6154b5565b610d24677c7927e4b5bd48f460c01b6154b5565b610d3867a4ebbaf8faac82d260c01b6154b5565b610d5460046000838152602001908152602001600020336159ac565b610d686797b47e77a9a7b3fc60c01b6154b5565b610d7c67758438fa606727d960c01b6154b5565b7fb431a69783a2491a0c400ff16dab32cd442abf8fe5af63a526a7248d730192f881604051610dab91906172fe565b60405180910390a1610dcd565b610dcc67589e0c39053cad2660c01b6154b5565b5b5b610de26759de4f2a505f6c6d60c01b6154b5565b610df6676d4a2d08a14ea23160c01b6154b5565b610e5c605060ff16600360007fd646ae07eb0d0f77457502a65e7407930dff4cd4fd99abc6aac87a753f4c8a42815260200190815260200160002060000160009054906101000a900463ffffffff16610e4f919061800c565b63ffffffff1660646141bf565b6004600083815260200190815260200160002060020160009054906101000a900460ff1660ff1610610f7457610e9c67c3b37424d9c469d060c01b6154b5565b610eb067740ce2464856c2b360c01b6154b5565b610ec4676ae93f6bf114c2f760c01b6154b5565b610edf60046000838152602001908152602001600020615b64565b610ef3677a7ed0c4e584401460c01b6154b5565b610f076745d4f9869d13660b60c01b6154b5565b7f562618dbcf74b61ae5b0f229fe40ba6d5b6ae6b4248f8c89a870dda7c77135f681604051610f3691906172fe565b60405180910390a1610f52671cbdd7add0b2dd5c60c01b6154b5565b610f6667f2a3b9ba0bc2281e60c01b6154b5565b610f6f83615cb1565b610f89565b610f88679859be0913bc1e1760c01b6154b5565b5b505050565b6001602052806000526040600020600091509050806000015490806001018054610fb790618078565b80601f0160208091040260200160405190810160405280929190818152602001828054610fe390618078565b80156110305780601f1061100557610100808354040283529160200191611030565b820191906000526020600020905b81548152906001019060200180831161101357829003601f168201915b50505050509080600201805461104590618078565b80601f016020809104026020016040519081016040528092919081815260200182805461107190618078565b80156110be5780601f10611093576101008083540402835291602001916110be565b820191906000526020600020905b8154815290600101906020018083116110a157829003601f168201915b5050505050908060030154905084565b605081565b60606110e967c6c2a97e3fce25a460c01b615e93565b6110fd678b9003f64629527160c01b615e93565b611111679a3115c808db295760c01b615e93565b60008273ffffffffffffffffffffffffffffffffffffffff1660001b905061114367de4b0ed40e05566460c01b615e93565b6111576710d85f562cda14c460c01b615e93565b60006040518060400160405280601081526020017f303132333435363738396162636465660000000000000000000000000000000081525090506111a567340afe87cd14d3fb60c01b615e93565b6111b967fdcf0d66da28a43660c01b615e93565b6000602a67ffffffffffffffff8111156111d6576111d5617b14565b5b6040519080825280601f01601f1916602001820160405280156112085781602001600182028036833780820191505090505b50905061121f67fab9f092363f74b060c01b615e93565b7f300000000000000000000000000000000000000000000000000000000000000081600081518110611254576112536180a9565b5b60200101907effffffffffffffffffffffffffffffffffffffffffffffffffffffffffffff1916908160001a90535061129767ed9fcec2dd0e556260c01b615e93565b7f7800000000000000000000000000000000000000000000000000000000000000816001815181106112cc576112cb6180a9565b5b60200101907effffffffffffffffffffffffffffffffffffffffffffffffffffffffffffff1916908160001a90535061130f67da9c01a3a26884fc60c01b615e93565b61132367cee081367d156c8b60c01b615e93565b60005b60148110156114d6576113436725a4132e77404c0b60c01b615e93565b82600485600c8461135491906180d8565b60208110611365576113646180a9565b5b1a60f81b7effffffffffffffffffffffffffffffffffffffffffffffffffffffffffffff1916901c60f81c60ff16815181106113a4576113a36180a9565b5b602001015160f81c60f81b826002836113bd919061810c565b60026113c991906180d8565b815181106113da576113d96180a9565b5b60200101907effffffffffffffffffffffffffffffffffffffffffffffffffffffffffffff1916908160001a90535061141d6770a8741b582a334060c01b615e93565b82600f60f81b85600c8461143191906180d8565b60208110611442576114416180a9565b5b1a60f81b1660f81c60ff168151811061145e5761145d6180a9565b5b602001015160f81c60f81b82600283611477919061810c565b600361148391906180d8565b81518110611494576114936180a9565b5b60200101907effffffffffffffffffffffffffffffffffffffffffffffffffffffffffffff1916908160001a90535080806114ce9061814e565b915050611326565b506114eb67e337d3bb0e02809d60c01b615e93565b6114ff679f8efc402a44a4f960c01b615e93565b809350505050919050565b60046020528060005260406000206000915090508060000160009054906101000a900460ff16908060010154908060020160009054906101000a900460ff16908060020160019054906101000a900460ff169080600501805461156c90618078565b80601f016020809104026020016040519081016040528092919081815260200182805461159890618078565b80156115e55780601f106115ba576101008083540402835291602001916115e5565b820191906000526020600020905b8154815290600101906020018083116115c857829003601f168201915b5050505050905085565b605081565b6000806000838152602001908152602001600020600101549050919050565b605081565b611621826115f4565b61162a81615e96565b6116348383615eaa565b505050565b600281565b61165267515d414290ef63a760c01b6154b5565b61166667408d4005470649cf60c01b6154b5565b61167a679c54a3cc10a34a3d60c01b6154b5565b6040517f08c379a00000000000000000000000000000000000000000000000000000000081526004016116ac90618208565b60405180910390fd5b60606116cb67efa82b5968256cc060c01b615f8a565b6116df67803a291d8ae6799f60c01b615f8a565b6116f367f3df4483e82d4c8d60c01b615f8a565b600280548060200260200160405190810160405280929190818152602001828054801561173f57602002820191906000526020600020905b81548152602001906001019080831161172b575b5050505050905090565b6008602052816000526040600020818154811061176557600080fd5b90600052602060002001600091509150505481565b605081565b600f81565b606080600061179d677cdb6ef5cbed1e3d60c01b615f8a565b6117b1677f0cceaac7cfa9ce60c01b615f8a565b6117c567d24e39081913322960c01b615f8a565b6117d9677be0137893f7d8be60c01b615f8a565b6000600160008681526020019081526020016000206000015403611832576040517f08c379a000000000000000000000000000000000000000000000000000000000815260040161182990618274565b60405180910390fd5b611846675cd447a5b617b78060c01b615f8a565b61185a67c2ba5ce93628c4d360c01b615f8a565b61186e67085df455a24fa24860c01b615f8a565b600160008581526020019081526020016000206001016001600086815260200190815260200160002060020160016000878152602001908152602001600020600301548280546118bd90618078565b80601f01602080910402602001604051908101604052809291908181526020018280546118e990618078565b80156119365780601f1061190b57610100808354040283529160200191611936565b820191906000526020600020905b81548152906001019060200180831161191957829003601f168201915b5050505050925081805461194990618078565b80601f016020809104026020016040519081016040528092919081815260200182805461197590618078565b80156119c25780601f10611997576101008083540402835291602001916119c2565b820191906000526020600020905b8154815290600101906020018083116119a557829003601f168201915b505050505091509250925092509193909250565b603381565b6119ef67928b579f6f77d60a60c01b6154b5565b611a03671eafb37a2fea50c360c01b6154b5565b611a17671c760441a51f00fe60c01b6154b5565b6000600360008581526020019081526020016000209050611a4267019381ea2a143a2660c01b6154b5565b611a5667bf6825f8b726169f60c01b6154b5565b611a6a674346da88ac06a84360c01b6154b5565b8060000160009054906101000a900463ffffffff1663ffffffff168160000160089054906101000a900463ffffffff1663ffffffff16118160020154604051602001611ab691906182b5565b604051602081830303815290604052604051602001611ad5919061831c565b60405160208183030381529060405290611b25576040517f08c379a0000000000000000000000000000000000000000000000000000000008152600401611b1c9190617210565b60405180910390fd5b50611b3a6739aba34486adf0da60c01b6154b5565b611b4e670a6059053a04f96460c01b6154b5565b611b6267ae953caa734ab3b060c01b6154b5565b611b7667f5900fc41a1b03e060c01b6154b5565b611b8481600101543361323c565b8160020154604051602001611b9991906182b5565b604051602081830303815290604052604051602001611bb8919061839d565b60405160208183030381529060405290611c08576040517f08c379a0000000000000000000000000000000000000000000000000000000008152600401611bff9190617210565b60405180910390fd5b50611c1d678f048ba93c318bdf60c01b6154b5565b611c3167eabba9f8cd63b62060c01b6154b5565b611c4567a6b100261d7ca0a160c01b6154b5565b611c59677c8571a546cd703b60c01b6154b5565b60001515611c67858561323c565b1515148160020154604051602001611c7f91906182b5565b604051602081830303815290604052604051602001611c9e91906183f8565b60405160208183030381529060405290611cee576040517f08c379a0000000000000000000000000000000000000000000000000000000008152600401611ce59190617210565b60405180910390fd5b50611d03676174d0f42c37649a60c01b6154b5565b611d17672212cda1dcb9ea1260c01b6154b5565b611d2b67a83a11a74eb277ae60c01b6154b5565b60008385604051602001611d409291906184b2565b604051602081830303815290604052805190602001209050611d6c6706ddd2fa1476c45260c01b6154b5565b611d8067476c17a0b8385f1760c01b6154b5565b611ddb8183600101548460020154604051602001611d9e91906182b5565b604051602081830303815290604052611db6886110d3565b604051602001611dc7929190618535565b604051602081830303815290604052615586565b611def671c07e5a9226be91660c01b6154b5565b611e036707862d5c1055513b60c01b6154b5565b828015611e745750600015156004600083815260200190815260200160002060030160003373ffffffffffffffffffffffffffffffffffffffff1673ffffffffffffffffffffffffffffffffffffffff16815260200190815260200160002060009054906101000a900460ff161515145b15611f3557611e8d6792f115933ddba31c60c01b6154b5565b611ea167f700b95d536177f360c01b6154b5565b611eb56782a82f6f1bd2c11660c01b6154b5565b611ed1600460008381526020019081526020016000203361572a565b611ee5672e2eef9c059dc20760c01b6154b5565b611ef9672071df197b17f30b60c01b6154b5565b7fb431a69783a2491a0c400ff16dab32cd442abf8fe5af63a526a7248d730192f881604051611f2891906172fe565b60405180910390a161203b565b611f496707b5a83c26feac2860c01b6154b5565b611f5d67d285a5263ec8e0f560c01b6154b5565b600015158315150361202557611f7d6705e4cbcc73c151f360c01b6154b5565b611f916760f35a062167334760c01b6154b5565b611fa5676596486d69562b7760c01b6154b5565b611fc160046000838152602001908152602001600020336159ac565b611fd567acefc79e49d8d98e60c01b6154b5565b611fe9670f1dd76d34c817f860c01b6154b5565b7fb431a69783a2491a0c400ff16dab32cd442abf8fe5af63a526a7248d730192f88160405161201891906172fe565b60405180910390a161203a565b612039676751378d318e7c4060c01b6154b5565b5b5b61204f674f87efa02c74e0f260c01b6154b5565b61206367df9346bf5f7ff81560c01b6154b5565b6120bd82600001600c9054906101000a900460ff1660ff16600360008560010154815260200190815260200160002060000160009054906101000a900463ffffffff166120b0919061800c565b63ffffffff1660646141bf565b6004600083815260200190815260200160002060020160009054906101000a900460ff1660ff161061222c576120fd6735dc9d0c045e8dea60c01b6154b5565b61211167b7dbf79ddba2cab760c01b6154b5565b61212567825657e0d56be41860c01b6154b5565b61214060046000838152602001908152602001600020615b64565b61215467dad7eba3d5ea0fc560c01b6154b5565b612168673d21f2ecda879ac760c01b6154b5565b7f562618dbcf74b61ae5b0f229fe40ba6d5b6ae6b4248f8c89a870dda7c77135f68160405161219791906172fe565b60405180910390a16121b367febe2105280dea4660c01b6154b5565b6121c767198f1e6710f1936360c01b6154b5565b6121d18585615eaa565b6121e56708fddfcc5363932f60c01b6154b5565b60018260000160008282829054906101000a900463ffffffff166122099190618577565b92506101000a81548163ffffffff021916908363ffffffff160217905550612241565b61224067ee4a48e3db8a324560c01b6154b5565b5b5050505050565b60076020528060005260406000206000915090508060000160009054906101000a900460ff16908060000160019054906101000a900460ff16908060000160029054906101000a900460ff16908060010154908060020160009054906101000a900460ff16908060030154905086565b605081565b6122d167bdf8a12455256e9760c01b6154b5565b6122e567ed9c0b858915e64660c01b6154b5565b6122f967649bd458a200725760c01b6154b5565b61230d670b6b16ea080ccdb260c01b6154b5565b6123377fd646ae07eb0d0f77457502a65e7407930dff4cd4fd99abc6aac87a753f4c8a423361323c565b612376576040517f08c379a000000000000000000000000000000000000000000000000000000000815260040161236d90617dba565b60405180910390fd5b61238a67689b85ae64f251bf60c01b6154b5565b61239e6735e2a6e6763de1be60c01b6154b5565b6123b26709e04ae92e1584c060c01b6154b5565b6123c6672117bb302f321a4960c01b6154b5565b600060016000878152602001908152602001600020600001540361241f576040517f08c379a000000000000000000000000000000000000000000000000000000000815260040161241690617e92565b60405180910390fd5b61243367918f30a7fad8441260c01b6154b5565b612447679d26a0bcae16f15560c01b6154b5565b61245b6762560a22786c9d8960c01b6154b5565b61246f676ad05dd6ad0c5e8e60c01b6154b5565b6000600381111561248357612482617511565b5b84600381111561249657612495617511565b5b101580156124c857506003808111156124b2576124b1617511565b5b8460038111156124c5576124c4617511565b5b11155b612507576040517f08c379a00000000000000000000000000000000000000000000000000000000081526004016124fe906185fb565b60405180910390fd5b61251b67b018fb771a8f126a60c01b6154b5565b61252f673838e17e05cad86e60c01b6154b5565b612543673b992ef7312a36a260c01b6154b5565b61255767d1937d9a9d9ede4b60c01b6154b5565b6000600281111561256b5761256a617511565b5b83600281111561257e5761257d617511565b5b101580156125b0575060028081111561259a57612599617511565b5b8360028111156125ad576125ac617511565b5b11155b6125ef576040517f08c379a00000000000000000000000000000000000000000000000000000000081526004016125e690618667565b60405180910390fd5b61260367eba93d2f1c3a372560c01b6154b5565b61261767e583d3490fb5c11a60c01b6154b5565b61262b6703c216aef0914c7d60c01b6154b5565b61263f67e929230dacd39fc460c01b6154b5565b6000600f81111561265357612652617511565b5b82600f81111561266657612665617511565b5b101580156126985750600f8081111561268257612681617511565b5b82600f81111561269557612694617511565b5b11155b6126d7576040517f08c379a00000000000000000000000000000000000000000000000000000000081526004016126ce906186d3565b60405180910390fd5b6126eb67f0423ad893494d1f60c01b6154b5565b6126ff670e4635f8420cba4d60c01b6154b5565b61271367a8f356ae64e80fb260c01b6154b5565b6127276787081979864afeae60c01b6154b5565b6001151560076000878787876040516020016127469493929190618757565b60405160208183030381529060405280519060200120815260200190815260200160002060020160009054906101000a900460ff161515146127bd576040517f08c379a00000000000000000000000000000000000000000000000000000000081526004016127b4906187f1565b60405180910390fd5b6127d1677547dde3e6de66c160c01b6154b5565b6127e56776a3d74fa8fa545760c01b6154b5565b6127f9674ed9ea8c9338f00060c01b6154b5565b600085858585604051602001612812949392919061885d565b60405160208183030381529060405280519060200120905061283e679baa3422236fc69f60c01b6154b5565b61285267c5044043363bb23760c01b6154b5565b6128f8817fd646ae07eb0d0f77457502a65e7407930dff4cd4fd99abc6aac87a753f4c8a42612880896154b8565b61289b89600381111561289657612895617511565b5b6154b8565b6128b68960028111156128b1576128b0617511565b5b6154b8565b6128d189600f8111156128cc576128cb617511565b5b6154b8565b6040516020016128e494939291906188dc565b604051602081830303815290604052615586565b61290c67bfc6b0f370d7024960c01b6154b5565b612920679ccb8433f30b7f6160c01b6154b5565b8180156129915750600015156004600083815260200190815260200160002060030160003373ffffffffffffffffffffffffffffffffffffffff1673ffffffffffffffffffffffffffffffffffffffff16815260200190815260200160002060009054906101000a900460ff161515145b15612a52576129aa670842a97201189b8b60c01b6154b5565b6129be67ca8d401c43f5f9d760c01b6154b5565b6129d267e22dcaa2865f121160c01b6154b5565b6129ee600460008381526020019081526020016000203361572a565b612a02674aba95960958e73260c01b6154b5565b612a166730249e749f45b5e460c01b6154b5565b7fb431a69783a2491a0c400ff16dab32cd442abf8fe5af63a526a7248d730192f881604051612a4591906172fe565b60405180910390a1612b58565b612a6667374dfd98b823c8cf60c01b6154b5565b612a7a6720270532058f02e560c01b6154b5565b6000151582151503612b4257612a9a679e04f1a5c5bda7df60c01b6154b5565b612aae67d618060faf473a2a60c01b6154b5565b612ac26759aacab69e3a1cf860c01b6154b5565b612ade60046000838152602001908152602001600020336159ac565b612af2671f8604b2e035df8c60c01b6154b5565b612b06674341521415b393ff60c01b6154b5565b7fb431a69783a2491a0c400ff16dab32cd442abf8fe5af63a526a7248d730192f881604051612b3591906172fe565b60405180910390a1612b57565b612b56673abda3db58ee88d660c01b6154b5565b5b5b612b6c67d0a65ecdfb35759e60c01b6154b5565b612b8067fecb9a5516d562ad60c01b6154b5565b612be6605060ff16600360007fd646ae07eb0d0f77457502a65e7407930dff4cd4fd99abc6aac87a753f4c8a42815260200190815260200160002060000160009054906101000a900463ffffffff16612bd9919061800c565b63ffffffff1660646141bf565b6004600083815260200190815260200160002060020160009054906101000a900460ff1660ff1610612d3c57612c266711522e4c80b8acf560c01b6154b5565b612c3a675a87c8131b0f347660c01b6154b5565b612c4e67b52e37c57f13f03660c01b6154b5565b612c6960046000838152602001908152602001600020615b64565b612c7d67c6bc374fa7feff0160c01b6154b5565b612c916786ac1e62d24a349860c01b6154b5565b7f562618dbcf74b61ae5b0f229fe40ba6d5b6ae6b4248f8c89a870dda7c77135f681604051612cc091906172fe565b60405180910390a1612cdc679e5c2cdd766b16de60c01b6154b5565b60006007600088888888604051602001612cf99493929190618757565b60405160208183030381529060405280519060200120815260200190815260200160002060020160006101000a81548160ff021916908315150217905550612d51565b612d506753aaaf9320fe18fd60c01b6154b5565b5b505050505050565b606080606080612d73677338a703ca5a2a9660c01b6154b5565b612d87673b1e688b7d79d00d60c01b6154b5565b612d9b676bea465bb441461060c01b6154b5565b600060065467ffffffffffffffff811115612db957612db8617b14565b5b604051908082528060200260200182016040528015612dec57816020015b6060815260200190600190039081612dd75790505b509050612e0367e8c1fa74bacd7fbb60c01b6154b5565b612e17671f5319feb6477e3560c01b6154b5565b600060065467ffffffffffffffff811115612e3557612e34617b14565b5b604051908082528060200260200182016040528015612e635781602001602082028036833780820191505090505b509050612e7a67f438d58dfb1be18260c01b6154b5565b612e8e678ef10dcaeac9036f60c01b6154b5565b600060065467ffffffffffffffff811115612eac57612eab617b14565b5b604051908082528060200260200182016040528015612eda5781602001602082028036833780820191505090505b509050612ef16735f2056c8483d80460c01b6154b5565b612f0567c187d7d65cf65af260c01b6154b5565b600060065467ffffffffffffffff811115612f2357612f22617b14565b5b604051908082528060200260200182016040528015612f515781602001602082028036833780820191505090505b509050612f6867ade7a62c071e519d60c01b6154b5565b612f7c675439b2c4cd16482360c01b6154b5565b60005b6006548110156131fc57612f9d672f6377f918fc3e7460c01b6154b5565b60046000600560008481526020019081526020016000205481526020019081526020016000206005018054612fd190618078565b80601f0160208091040260200160405190810160405280929190818152602001828054612ffd90618078565b801561304a5780601f1061301f5761010080835404028352916020019161304a565b820191906000526020600020905b81548152906001019060200180831161302d57829003601f168201915b5050505050858281518110613062576130616180a9565b5b60200260200101819052506130816762c646c22c573f3e60c01b6154b5565b600460006005600084815260200190815260200160002054815260200190815260200160002060020160009054906101000a900460ff168482815181106130cb576130ca6180a9565b5b602002602001019060ff16908160ff16815250506130f367220ad4741fc3df5d60c01b6154b5565b6004600060056000848152602001908152602001600020548152602001908152602001600020600101548382815181106131305761312f6180a9565b5b6020026020010181815250506131506799a0b0988af0867760c01b6154b5565b600460006005600084815260200190815260200160002054815260200190815260200160002060030160008b73ffffffffffffffffffffffffffffffffffffffff1673ffffffffffffffffffffffffffffffffffffffff16815260200190815260200160002060009054906101000a900460ff168282815181106131d7576131d66180a9565b5b60200260200101901515908115158152505080806131f49061814e565b915050612f7f565b50613211675d49ac61be8ebd7160c01b6154b5565b61322567ac18a9a1ec69e6b860c01b6154b5565b818385839750975097509750505050509193509193565b600080600084815260200190815260200160002060000160008373ffffffffffffffffffffffffffffffffffffffff1673ffffffffffffffffffffffffffffffffffffffff16815260200190815260200160002060009054906101000a900460ff16905092915050565b60056020528060005260406000206000915090505481565b600f81565b6132d767f194d1ffc0447ea960c01b6154b5565b6132eb6789a333387d41a6b660c01b6154b5565b6132ff675da07d83cb2bab9d60c01b6154b5565b61331367f25ac83becfb3ba860c01b6154b5565b61333d7fd646ae07eb0d0f77457502a65e7407930dff4cd4fd99abc6aac87a753f4c8a423361323c565b61337c576040517f08c379a000000000000000000000000000000000000000000000000000000000815260040161337390617dba565b60405180910390fd5b61339067386935278dae822660c01b6154b5565b6133a467ccb3b5b8af78b2cb60c01b6154b5565b6133b867e0f5824ede3cb57d60c01b6154b5565b6133cc67f4b14bead3785a6660c01b6154b5565b6000841161340f576040517f08c379a000000000000000000000000000000000000000000000000000000000815260040161340690617e26565b60405180910390fd5b6134236743d8ba5b87e2e64860c01b6154b5565b613437675882f3b1b847165d60c01b6154b5565b61344b67ec6dbc09e6a8d3c360c01b6154b5565b61345f6787fec01562de0d7760c01b6154b5565b60008351116134a3576040517f08c379a000000000000000000000000000000000000000000000000000000000815260040161349a906189a2565b60405180910390fd5b6134b767b815fa764d360f8060c01b6154b5565b6134cb676c848ca2d28cc2e760c01b6154b5565b6134df6762a5c10409c68fa660c01b6154b5565b6134f36767be7bcfb8b646a360c01b6154b5565b6000825111613537576040517f08c379a000000000000000000000000000000000000000000000000000000000815260040161352e90618a0e565b60405180910390fd5b61354b67ab4b51ef7195398660c01b6154b5565b61355f6745513953a8aaed3b60c01b6154b5565b61357367a0247630c45fc01060c01b6154b5565b61358767cb56c9dffef6c09b60c01b6154b5565b600081116135ca576040517f08c379a00000000000000000000000000000000000000000000000000000000081526004016135c190618a7a565b60405180910390fd5b6135de670f6c466182e7daf460c01b6154b5565b6135f26796af1b9e171f5d0c60c01b6154b5565b613606676ea5a5cfdd40ca7760c01b6154b5565b61361a6734c805801ad925b460c01b6154b5565b6000600160008681526020019081526020016000206000015414613673576040517f08c379a000000000000000000000000000000000000000000000000000000000815260040161366a90618ae6565b60405180910390fd5b61368767de2808851ea8535860c01b6154b5565b61369b677ab469cc82d327c160c01b6154b5565b6136af6734fccb1c2034803560c01b6154b5565b6136bb84848484615f8d565b50505050565b6000801b81565b60006136de67698bf9a5753ef89160c01b6154b5565b6136f2674a780f79854977d860c01b6154b5565b6137066769ad2177cecd222f60c01b6154b5565b6003600083815260200190815260200160002060000160009054906101000a900463ffffffff1663ffffffff169050919050565b61374e6701dc47e9dc7e2d4960c01b6154b5565b61376267e00c6e3f0d9a678b60c01b6154b5565b61377667211496b55cb50cff60c01b6154b5565b61378a67fa27c246eee8a08b60c01b6154b5565b6137b47fd646ae07eb0d0f77457502a65e7407930dff4cd4fd99abc6aac87a753f4c8a423361323c565b6137f3576040517f08c379a00000000000000000000000000000000000000000000000000000000081526004016137ea90617dba565b60405180910390fd5b61380767ba7a7d4f3ff1ed8260c01b6154b5565b61381b6719a84e662ed6d2e460c01b6154b5565b61382f67553b9ae776c1ac0760c01b6154b5565b6138436776e3a440f346f78b60c01b6154b5565b600060016000878152602001908152602001600020600001540361389c576040517f08c379a000000000000000000000000000000000000000000000000000000000815260040161389390617e92565b60405180910390fd5b6138b0672fe19dd197ae71b760c01b6154b5565b6138c4674dadad20973e5e5d60c01b6154b5565b6138d867dcfd845b2fe814ee60c01b6154b5565b6138ec6787c8ea0feda3ada560c01b6154b5565b60006003811115613900576138ff617511565b5b84600381111561391357613912617511565b5b10158015613945575060038081111561392f5761392e617511565b5b84600381111561394257613941617511565b5b11155b613984576040517f08c379a000000000000000000000000000000000000000000000000000000000815260040161397b906185fb565b60405180910390fd5b61399867124f1dad53c69bc560c01b6154b5565b6139ac676e8d3572b8c8ba0b60c01b6154b5565b6139c067ec4e2bcd0646233360c01b6154b5565b6139d46771868017dd9ea9a260c01b6154b5565b600060028111156139e8576139e7617511565b5b8360028111156139fb576139fa617511565b5b10158015613a2d5750600280811115613a1757613a16617511565b5b836002811115613a2a57613a29617511565b5b11155b613a6c576040517f08c379a0000000000000000000000000000000000000000000000000000000008152600401613a6390618667565b60405180910390fd5b613a8067ab1bd67fcc0dc4e660c01b6154b5565b613a946714693ce83117a4a660c01b6154b5565b613aa8671ee91d41820de70160c01b6154b5565b613abc6765714ee521157c1660c01b6154b5565b6000600f811115613ad057613acf617511565b5b82600f811115613ae357613ae2617511565b5b10158015613b155750600f80811115613aff57613afe617511565b5b82600f811115613b1257613b11617511565b5b11155b613b54576040517f08c379a0000000000000000000000000000000000000000000000000000000008152600401613b4b906186d3565b60405180910390fd5b613b6867647b5b224d6b094960c01b6154b5565b613b7c6765b7e103c94a229d60c01b6154b5565b613b906712792db49bd8000860c01b6154b5565b613ba4673a5a274be22801d260c01b6154b5565b600015156007600087878787604051602001613bc39493929190618757565b60405160208183030381529060405280519060200120815260200190815260200160002060020160009054906101000a900460ff16151514613c3a576040517f08c379a0000000000000000000000000000000000000000000000000000000008152600401613c3190618b52565b60405180910390fd5b613c4e67493634455e2d80e960c01b6154b5565b613c62671175e050037a7c2760c01b6154b5565b613c76675137f0b970b59aa760c01b6154b5565b600085858585604051602001613c8f9493929190618bbe565b604051602081830303815290604052805190602001209050613cbb677ba3d7ad982f17c160c01b6154b5565b613ccf675ff2fe70f0a1650860c01b6154b5565b613d75817fd646ae07eb0d0f77457502a65e7407930dff4cd4fd99abc6aac87a753f4c8a42613cfd896154b8565b613d18896003811115613d1357613d12617511565b5b6154b8565b613d33896002811115613d2e57613d2d617511565b5b6154b8565b613d4e89600f811115613d4957613d48617511565b5b6154b8565b604051602001613d619493929190618c3d565b604051602081830303815290604052615586565b613d896739d9fb6b575ba4e360c01b6154b5565b613d9d67248dca5c34ff865b60c01b6154b5565b818015613e0e5750600015156004600083815260200190815260200160002060030160003373ffffffffffffffffffffffffffffffffffffffff1673ffffffffffffffffffffffffffffffffffffffff16815260200190815260200160002060009054906101000a900460ff161515145b15613ecf57613e276752d84047f7ec1fd860c01b6154b5565b613e3b67ae030a65c15f875560c01b6154b5565b613e4f674dbd682bd4fc310660c01b6154b5565b613e6b600460008381526020019081526020016000203361572a565b613e7f6714f96b5406597f9960c01b6154b5565b613e93670df07991caef353d60c01b6154b5565b7fb431a69783a2491a0c400ff16dab32cd442abf8fe5af63a526a7248d730192f881604051613ec291906172fe565b60405180910390a1613fd5565b613ee367ae62ea1482f5a88360c01b6154b5565b613ef767163e0e75e54e0c8a60c01b6154b5565b6000151582151503613fbf57613f1767a4e6a19cbfe5167960c01b6154b5565b613f2b675c78a7177eb1a8fb60c01b6154b5565b613f3f67bf4499ff51c0c22160c01b6154b5565b613f5b60046000838152602001908152602001600020336159ac565b613f6f67822948be4d3ef9a760c01b6154b5565b613f836796129956313adf1b60c01b6154b5565b7fb431a69783a2491a0c400ff16dab32cd442abf8fe5af63a526a7248d730192f881604051613fb291906172fe565b60405180910390a1613fd4565b613fd367a37df02138054e5260c01b6154b5565b5b5b613fe967b057154329c49bf860c01b6154b5565b613ffd67e3a8e90515cce0b760c01b6154b5565b614063603360ff16600360007fd646ae07eb0d0f77457502a65e7407930dff4cd4fd99abc6aac87a753f4c8a42815260200190815260200160002060000160009054906101000a900463ffffffff16614056919061800c565b63ffffffff1660646141bf565b6004600083815260200190815260200160002060020160009054906101000a900460ff1660ff161061417e576140a367b5a228e10270e22560c01b6154b5565b6140b7673ddb288b7f8fde5860c01b6154b5565b6140cb6728ffed5c4bbb136d60c01b6154b5565b6140e660046000838152602001908152602001600020615b64565b6140fa671a14e86b1536e0c460c01b6154b5565b61410e678190894182f1322760c01b6154b5565b7f562618dbcf74b61ae5b0f229fe40ba6d5b6ae6b4248f8c89a870dda7c77135f68160405161413d91906172fe565b60405180910390a1614159675e914cc764a08bdc60c01b6154b5565b61416d6759cb1221e0215d5e60c01b6154b5565b61417986868686616224565b614193565b614192676d76b91fe9de0f8c60c01b6154b5565b5b505050505050565b7fd646ae07eb0d0f77457502a65e7407930dff4cd4fd99abc6aac87a753f4c8a4281565b60006141d567f61426e1a1f663da60c01b6164b1565b6141e967c372d0ed468d9dea60c01b6164b1565b6141fd670709952a306f11ce60c01b6164b1565b6000828461420b9190618ce6565b0361425f57614224674fb2442b97e9378c60c01b6164b1565b61423867d8aced1f47c17a9460c01b6164b1565b61424c678666469e36a7479960c01b6164b1565b81836142589190618d17565b90506142b6565b6142736710c2ea96563e926160c01b6164b1565b61428767f66b81fd4ac3f5c560c01b6164b1565b61429b67b044a5f496fe479d60c01b6164b1565b600182846142a99190618d17565b6142b391906180d8565b90505b92915050565b6142d0678f5912fc196c66fb60c01b6154b5565b6142e467d451ad32aab430b860c01b6154b5565b6142f8672f872260ec70aa8060c01b6154b5565b61430c67e28d98831e470a0e60c01b6154b5565b6143367fd646ae07eb0d0f77457502a65e7407930dff4cd4fd99abc6aac87a753f4c8a423361323c565b614375576040517f08c379a000000000000000000000000000000000000000000000000000000000815260040161436c90617dba565b60405180910390fd5b6143896770e61a765dfb20aa60c01b6154b5565b61439d6768c3bd0af40a1b5d60c01b6154b5565b6143b1672bc4242ebebe428960c01b6154b5565b6143c567e87324c8c42b714760c01b6154b5565b60008411614408576040517f08c379a00000000000000000000000000000000000000000000000000000000081526004016143ff90617e26565b60405180910390fd5b61441c672c4d7d6a241e4b8960c01b6154b5565b61443067f2f486595854747960c01b6154b5565b614444678e01888c80102d3760c01b6154b5565b61445867bc51f865c49130a860c01b6154b5565b60006001600086815260200190815260200160002060000154036144b1576040517f08c379a00000000000000000000000000000000000000000000000000000000081526004016144a890617e92565b60405180910390fd5b6144c567f8b6ac0350413cde60c01b6154b5565b6144d9674f5571dc82a8340f60c01b6154b5565b6144ed67df20ef43cd86120a60c01b6154b5565b6144f9848484846164b4565b50505050565b605081565b6145186785550dfb5a2fa17e60c01b6154b5565b61452c67987f0dd0903d99a060c01b6154b5565b6145406765417f529339629360c01b6154b5565b600060036000858152602001908152602001600020905061456b671a036548b9454efa60c01b6154b5565b61457f678a81a5a89e7249f260c01b6154b5565b6145936704fadf5af7278b0460c01b6154b5565b8060000160049054906101000a900463ffffffff1663ffffffff168160000160009054906101000a900463ffffffff1663ffffffff161181600201546040516020016145df91906182b5565b6040516020818303038152906040526040516020016145fe9190618d6e565b6040516020818303038152906040529061464e576040517f08c379a00000000000000000000000000000000000000000000000000000000081526004016146459190617210565b60405180910390fd5b5061466367a15a5378dc28021c60c01b6154b5565b6146776721fc27606240057c60c01b6154b5565b61468b67e67f2367de48a39660c01b6154b5565b61469f673bba1b125be8f21a60c01b6154b5565b6146a9848461323c565b81600201546040516020016146be91906182b5565b6040516020818303038152906040526040516020016146dd9190618dc9565b6040516020818303038152906040529061472d576040517f08c379a00000000000000000000000000000000000000000000000000000000081526004016147249190617210565b60405180910390fd5b5061474267eb5bb2ac8e80d29b60c01b6154b5565b6147566755ea1935824a5e1860c01b6154b5565b61476a672a12cac354a8e82360c01b6154b5565b61477e6767ec4da59fbc86a160c01b6154b5565b61478c81600101543361323c565b81600201546040516020016147a191906182b5565b6040516020818303038152906040526040516020016147c0919061839d565b60405160208183030381529060405290614810576040517f08c379a00000000000000000000000000000000000000000000000000000000081526004016148079190617210565b60405180910390fd5b50614825676efdddf06ded552e60c01b6154b5565b614839678f6d07b51abb6a2460c01b6154b5565b61484d67a14fb71ba5e7613f60c01b6154b5565b60008385604051602001614862929190618e3b565b60405160208183030381529060405280519060200120905061488e67df7dd5880412d4b960c01b6154b5565b6148a2675ff1c5fac858eec960c01b6154b5565b6148fd81836001015484600201546040516020016148c091906182b5565b6040516020818303038152906040526148d8886110d3565b6040516020016148e9929190618e98565b604051602081830303815290604052615586565b61491167fe26844b548a837860c01b6154b5565b6149256768a51f3c021201cb60c01b6154b5565b8280156149965750600015156004600083815260200190815260200160002060030160003373ffffffffffffffffffffffffffffffffffffffff1673ffffffffffffffffffffffffffffffffffffffff16815260200190815260200160002060009054906101000a900460ff161515145b15614a57576149af67a21e7ebe78774f9060c01b6154b5565b6149c367cd288a479316cb8e60c01b6154b5565b6149d767e62655d9c0da73f460c01b6154b5565b6149f3600460008381526020019081526020016000203361572a565b614a07675d17b8d48239367360c01b6154b5565b614a1b67a680bcc96564015d60c01b6154b5565b7fb431a69783a2491a0c400ff16dab32cd442abf8fe5af63a526a7248d730192f881604051614a4a91906172fe565b60405180910390a1614b5d565b614a6b674108a0766fb3770f60c01b6154b5565b614a7f6737c85746c2f8f06560c01b6154b5565b6000151583151503614b4757614a9f672011fab2eac0049160c01b6154b5565b614ab36744a1b5a674d397ba60c01b6154b5565b614ac767356380150091118d60c01b6154b5565b614ae360046000838152602001908152602001600020336159ac565b614af767d1da6e531bb5433e60c01b6154b5565b614b0b672ee69ee77814874360c01b6154b5565b7fb431a69783a2491a0c400ff16dab32cd442abf8fe5af63a526a7248d730192f881604051614b3a91906172fe565b60405180910390a1614b5c565b614b5b671b9e414ab197e55f60c01b6154b5565b5b5b614b716714f85a465318971d60c01b6154b5565b614b8567e79b395de5e6d68460c01b6154b5565b81600101548514158015614c185750614bee82600001600d9054906101000a900460ff1660ff16600360008560010154815260200190815260200160002060000160009054906101000a900463ffffffff16614be1919061800c565b63ffffffff1660646141bf565b6004600083815260200190815260200160002060020160009054906101000a900460ff1660ff1610155b8015614c345750614c33675ea5fd91e72c501360c01b616929565b5b80614cf55750816001015485148015614cd85750614cae82600001600d9054906101000a900460ff1660ff166001600360008660010154815260200190815260200160002060000160009054906101000a900463ffffffff16614c979190618eda565b614ca1919061800c565b63ffffffff1660646141bf565b6004600083815260200190815260200160002060020160009054906101000a900460ff1660ff1610155b8015614cf45750614cf36740b5effbe6fbc4ba60c01b616929565b5b5b1561509557614d0e67d72dd4e9f32df2a660c01b6154b5565b614d22670ed0a2a914fd84f760c01b6154b5565b614d366787de25c771ec258260c01b6154b5565b60005b600654811015614f6557614d57679a8cdfcabcb0dacb60c01b6154b5565b614d6b67772e58326b3683ce60c01b6154b5565b60011515600460006005600085815260200190815260200160002054815260200190815260200160002060030160008773ffffffffffffffffffffffffffffffffffffffff1673ffffffffffffffffffffffffffffffffffffffff16815260200190815260200160002060009054906101000a900460ff161515148015614e1a575085600460006005600085815260200190815260200160002054815260200190815260200160002060010154145b15614f3d57614e3367f33d304923bb8f1760c01b6154b5565b614e476730dbd22aa968d27a60c01b6154b5565b6001600460006005600085815260200190815260200160002054815260200190815260200160002060020160008282829054906101000a900460ff16614e8d9190618f12565b92506101000a81548160ff021916908360ff160217905550614eb9671045bc06e9ec4a8360c01b6154b5565b6000600460006005600085815260200190815260200160002054815260200190815260200160002060030160008773ffffffffffffffffffffffffffffffffffffffff1673ffffffffffffffffffffffffffffffffffffffff16815260200190815260200160002060006101000a81548160ff021916908315150217905550614f52565b614f5167bf20874ded53a20860c01b6154b5565b5b8080614f5d9061814e565b915050614d39565b50614f7a67e36f7f130cb3f21360c01b6154b5565b614f8e6715bd5e551d188d8360c01b6154b5565b614fa960046000838152602001908152602001600020615b64565b614fbd67580bbbb9ccbb13be60c01b6154b5565b614fd16766006dd0f09419f560c01b6154b5565b7f562618dbcf74b61ae5b0f229fe40ba6d5b6ae6b4248f8c89a870dda7c77135f68160405161500091906172fe565b60405180910390a161501c6720ceeb0471d394b660c01b6154b5565b61503067213863767febee4a60c01b6154b5565b61503a8585616934565b61504e672d86523e849fc68d60c01b6154b5565b60018260000160008282829054906101000a900463ffffffff166150729190618eda565b92506101000a81548163ffffffff021916908363ffffffff1602179055506150aa565b6150a967689f9d36814699ed60c01b6154b5565b5b5050505050565b6150ba826115f4565b6150c381615e96565b6150cd8383616934565b505050565b60008060008060006150ee67b763b8910a23efee60c01b6154b5565b61510267acd6a8c8f4d574b660c01b6154b5565b615116677697096d64270cdb60c01b6154b5565b61512a673318f6946f78197860c01b6154b5565b600115156007600088815260200190815260200160002060020160009054906101000a900460ff16151514615194576040517f08c379a000000000000000000000000000000000000000000000000000000000815260040161518b906187f1565b60405180910390fd5b6151a867d4c4533d7e9a60a660c01b6154b5565b6151bc6732954512786739f560c01b6154b5565b6151d06724bcd6ffdfbd0d4d60c01b6154b5565b6007600087815260200190815260200160002060000160009054906101000a900460ff16600381111561520657615205617511565b5b6007600088815260200190815260200160002060000160019054906101000a900460ff16600281111561523c5761523b617511565b5b6007600089815260200190815260200160002060000160029054906101000a900460ff16600f81111561527257615271617511565b5b600760008a815260200190815260200160002060010154600760008b8152602001908152602001600020600301549450945094509450945091939590929450565b600281815481106152c357600080fd5b906000526020600020016000915090505481565b7f4bbeb6fd3e5222e55f2f8b0c35bc228e0a06a25d0da772fdb02c3b92fa004f8881565b606061531167ab49e147b91272b360c01b6154b5565b615325679ab8a363c1db47f760c01b6154b5565b61533967c80f0b231c338b2d60c01b6154b5565b61534d675397bbbeef836ad860c01b6154b5565b60006001600084815260200190815260200160002060000154036153a6576040517f08c379a000000000000000000000000000000000000000000000000000000000815260040161539d90617e92565b60405180910390fd5b6153ba679b6d6670acbbe93360c01b6154b5565b6153ce678dba3cfcdd7ab4ab60c01b6154b5565b6153e2672e1f532eb4156eb560c01b6154b5565b6008600083815260200190815260200160002080548060200260200160405190810160405280929190818152602001828054801561543f57602002820191906000526020600020905b81548152602001906001019080831161542b575b50505050509050919050565b60007f01ffc9a7000000000000000000000000000000000000000000000000000000007bffffffffffffffffffffffffffffffffffffffffffffffffffffffff1916827bffffffffffffffffffffffffffffffffffffffffffffffffffffffff1916149050919050565b50565b6060600060016154c784616a15565b01905060008167ffffffffffffffff8111156154e6576154e5617b14565b5b6040519080825280601f01601f1916602001820160405280156155185781602001600182028036833780820191505090505b509050600082602001820190505b60011561557b578080600190039150507f3031323334353637383961626364656600000000000000000000000000000000600a86061a8153600a858161556f5761556e618cb7565b5b04945060008503615526575b819350505050919050565b61559a67c1566280ac59697360c01b6154b5565b6155ae6788e9d3b14a74677d60c01b6154b5565b6155c267e409a8b73318189d60c01b6154b5565b600015156004600085815260200190815260200160002060000160009054906101000a900460ff16151503615710576156056752d9d67f7d2e047f60c01b6154b5565b61561967546ad04b2b9f136560c01b6154b5565b60016004600085815260200190815260200160002060000160006101000a81548160ff02191690831515021790555061565c675a8b242276bd5f8460c01b6154b5565b826005600060065481526020019081526020016000208190555061568a67bce0c7533c9a630d60c01b6154b5565b60016006600082825461569d91906180d8565b925050819055506156b867da93c48fa161e79d60c01b6154b5565b8160046000858152602001908152602001600020600101819055506156e76796048d7fd2d928c860c01b6154b5565b8060046000858152602001908152602001600020600501908161570a91906190f3565b50615725565b615724675f1c668ee669ab0b60c01b6154b5565b5b505050565b61573e67d42e23a03bbb9f5160c01b616b68565b615752676b0a876d7f65e67460c01b616b68565b615766670e2d5a60266f4e3860c01b616b68565b61577a67dff015bc3eff07b760c01b616b68565b600015158260030160008373ffffffffffffffffffffffffffffffffffffffff1673ffffffffffffffffffffffffffffffffffffffff16815260200190815260200160002060009054906101000a900460ff1615151461580f576040517f08c379a000000000000000000000000000000000000000000000000000000000815260040161580690619211565b60405180910390fd5b61582367544f24841f015c0960c01b616b68565b615837676b3348069692e1c060c01b616b68565b808260040160008460020160019054906101000a900460ff1660ff16815260200190815260200160002060006101000a81548173ffffffffffffffffffffffffffffffffffffffff021916908373ffffffffffffffffffffffffffffffffffffffff1602179055506158b3674889a33ed357c30260c01b616b68565b81600201600181819054906101000a900460ff16809291906158d490619231565b91906101000a81548160ff021916908360ff1602179055505061590167e079fd1d12ba580e60c01b616b68565b60018260030160008373ffffffffffffffffffffffffffffffffffffffff1673ffffffffffffffffffffffffffffffffffffffff16815260200190815260200160002060006101000a81548160ff02191690831515021790555061596f6750e90d39fcf392ab60c01b616b68565b60018260020160008282829054906101000a900460ff16615990919061925a565b92506101000a81548160ff021916908360ff1602179055505050565b6159c067b769e03249df5ae860c01b616b68565b6159d467cf315d4e11c7a8b760c01b616b68565b6159e867bbf6fbbdf813121460c01b616b68565b6159fc679c7b692f5fb6374460c01b616b68565b600115158260030160008373ffffffffffffffffffffffffffffffffffffffff1673ffffffffffffffffffffffffffffffffffffffff16815260200190815260200160002060009054906101000a900460ff16151514615a91576040517f08c379a0000000000000000000000000000000000000000000000000000000008152600401615a8890619301565b60405180910390fd5b615aa5679da0c426b492f83b60c01b616b68565b615ab967ee38cd30253f1dce60c01b616b68565b60008260030160008373ffffffffffffffffffffffffffffffffffffffff1673ffffffffffffffffffffffffffffffffffffffff16815260200190815260200160002060006101000a81548160ff021916908315150217905550615b2767b931ede1f25e88c860c01b616b68565b60018260020160008282829054906101000a900460ff16615b489190618f12565b92506101000a81548160ff021916908360ff1602179055505050565b615b7867b4a12e0d69cc995660c01b616b68565b615b8c670d060496c1fecab260c01b616b68565b60008160020160006101000a81548160ff021916908360ff160217905550615bbe67341d57e17a9468b560c01b616b68565b615bd267c0182900b86f084d60c01b616b68565b60005b8160020160019054906101000a900460ff1660ff168160ff161015615cad57615c0867a10ab145ed780ba260c01b616b68565b60008260030160008460040160008560ff16815260200190815260200160002060009054906101000a900473ffffffffffffffffffffffffffffffffffffffff1673ffffffffffffffffffffffffffffffffffffffff1673ffffffffffffffffffffffffffffffffffffffff16815260200190815260200160002060006101000a81548160ff0219169083151502179055508080615ca590619231565b915050615bd5565b5050565b615cc5671611662cb9dae94d60c01b615f8a565b615cd967216f7a8f2efab2a760c01b615f8a565b60016000828152602001908152602001600020600080820160009055600182016000615d059190616e61565b600282016000615d159190616e61565b60038201600090555050615d3367e097f569b4e65fdf60c01b615f8a565b615d47670bb661c72d0c4ac460c01b615f8a565b60005b600280549050811015615e3057615d6b67aabb91e763d4155660c01b615f8a565b615d7f67d9483c4c9091c0f360c01b615f8a565b8160028281548110615d9457615d936180a9565b5b906000526020600020015403615e0957615db8673abd118e698f57c460c01b615f8a565b615dcc67945b6dfd81ed0b9960c01b615f8a565b600060028281548110615de257615de16180a9565b5b9060005260206000200181905550615e0467174bf75761bddef660c01b615f8a565b615e30565b615e1d67d4d55f133ba9aebb60c01b615f8a565b8080615e289061814e565b915050615d4a565b50615e456740fe773e1cb7aee860c01b615f8a565b615e5967db3f8feb92715f8960c01b615f8a565b7f34de6b871245ed0a89b82912e8e5ee6d9c3104b3e5bb1d67a71ad7e68239e41c81604051615e889190617cde565b60405180910390a150565b50565b615ea781615ea2616b6b565b616b73565b50565b615eb4828261323c565b615f8657600160008084815260200190815260200160002060000160008373ffffffffffffffffffffffffffffffffffffffff1673ffffffffffffffffffffffffffffffffffffffff16815260200190815260200160002060006101000a81548160ff021916908315150217905550615f2b616b6b565b73ffffffffffffffffffffffffffffffffffffffff168173ffffffffffffffffffffffffffffffffffffffff16837f2f8788117e7eff1d82e926ec794901d17c78024a50270940304540a733656f0d60405160405180910390a45b5050565b50565b615fa167cd60cec0f477d92060c01b615f8a565b615fb567f8e6bbaf3f8bd14c60c01b615f8a565b615fc9677a88334868b6f1e860c01b615f8a565b615fdd67b9acb39d80c9d30e60c01b615f8a565b6000600160008681526020019081526020016000206000015414616036576040517f08c379a000000000000000000000000000000000000000000000000000000000815260040161602d9061936d565b60405180910390fd5b61604a6762d886a6d3b6192060c01b615f8a565b61605e671dfa633361721c0260c01b615f8a565b616072676156cb8237b39fc960c01b615f8a565b61608667b36b3d5d4fdfa06c60c01b615f8a565b600084036160c9576040517f08c379a00000000000000000000000000000000000000000000000000000000081526004016160c0906193d9565b60405180910390fd5b6160dd678ae8108d8e9ccb8560c01b615f8a565b6160f1677d6ec732296dc2e360c01b615f8a565b6040518060800160405280858152602001848152602001838152602001828152506001600086815260200190815260200160002060008201518160000155602082015181600101908161614491906190f3565b50604082015181600201908161615a91906190f3565b506060820151816003015590505061617c6793a5f15b8fdd785360c01b615f8a565b61619067a5bd79ee33adf50f60c01b615f8a565b60028490806001815401808255809150506001900390600052602060002001600090919091909150556161cd6748b153eaeaedf43160c01b615f8a565b6161e167b57cd13fa9ba094760c01b615f8a565b7fb6767d1c89515962142b00b5577569c92a74381d9441a528911c66e0c3cea1f88484848460405161621694939291906170fb565b60405180910390a150505050565b61623867f9332553eceb56d860c01b6154b5565b61624c677d4cea3f8d4622d560c01b6154b5565b6040518060c0016040528084600381111561626a57616269617511565b5b815260200183600281111561628257616281617511565b5b815260200182600f81111561629a57616299617511565b5b81526020014281526020016001151581526020018581525060076000868686866040516020016162cd9493929190618757565b60405160208183030381529060405280519060200120815260200190815260200160002060008201518160000160006101000a81548160ff0219169083600381111561631c5761631b617511565b5b021790555060208201518160000160016101000a81548160ff0219169083600281111561634c5761634b617511565b5b021790555060408201518160000160026101000a81548160ff0219169083600f81111561637c5761637b617511565b5b02179055506060820151816001015560808201518160020160006101000a81548160ff02191690831515021790555060a082015181600301559050506163cc67eb262170ab108a0360c01b6154b5565b6163e067978f6ecc8f60681960c01b6154b5565b600860008581526020019081526020016000208484848460405160200161640a9493929190618757565b60405160208183030381529060405280519060200120908060018154018082558091505060019003906000526020600020016000909190919091505561645a67d61646692ed40d1060c01b6154b5565b61646e67281f41604962ef6360c01b6154b5565b7fb55811dd01470a227956304b027c610c7cdf9dd622dcc47791380261d56dc6ed848484846040516164a394939291906193f9565b60405180910390a150505050565b50565b6164c8674fa302755311227760c01b615f8a565b6164dc67b2e0009661c2df8c60c01b615f8a565b6164f0674ba1c2b0a31bf16a60c01b615f8a565b616504672175c4db49308e0560c01b615f8a565b600060016000868152602001908152602001600020600001540361655d576040517f08c379a00000000000000000000000000000000000000000000000000000000081526004016165549061948a565b60405180910390fd5b61657167f2040cc31830c96860c01b615f8a565b61658567219acd0535b5e94f60c01b615f8a565b616599677cdd76207fc5bcab60c01b615f8a565b600160008581526020019081526020016000206001016040516020016165bf919061952d565b60405160208183030381529060405280519060200120836040516020016165e69190619544565b6040516020818303038152906040528051906020012014158015616654575060405160200161661490619581565b604051602081830303815290604052805190602001208360405160200161663b9190619544565b6040516020818303038152906040528051906020012014155b156166aa5761666d67449ffde15d725c8460c01b615f8a565b61668167cb790d03a7518f8360c01b615f8a565b826001600086815260200190815260200160002060010190816166a491906190f3565b506166bf565b6166be67b555f135a018a11560c01b615f8a565b5b6166d3674ae94c950c3986de60c01b615f8a565b6166e767f53eec60b023ab8f60c01b615f8a565b6001600085815260200190815260200160002060020160405160200161670d919061952d565b60405160208183030381529060405280519060200120826040516020016167349190619544565b60405160208183030381529060405280519060200120141580156167a2575060405160200161676290619581565b60405160208183030381529060405280519060200120826040516020016167899190619544565b6040516020818303038152906040528051906020012014155b156167f8576167bb67b92caeff1e2c4e7160c01b615f8a565b6167cf67a48a759f9639db6460c01b615f8a565b816001600086815260200190815260200160002060020190816167f291906190f3565b5061680d565b61680c67aed08070e6bcf4c660c01b615f8a565b5b616821674f519b1e053efb5460c01b615f8a565b61683567aec0a71526ccaba060c01b615f8a565b6001600085815260200190815260200160002060030154811415801561685c575060008114155b156168a9576168756737b3e1505cacbb5c60c01b615f8a565b616889670caebcbad414c98960c01b615f8a565b8060016000868152602001908152602001600020600301819055506168be565b6168bd67e5575fcbd78b3a8c60c01b615f8a565b5b6168d267f92c5cce75da192d60c01b615f8a565b6168e6672197159ad936e06660c01b615f8a565b7f03e10a3f40e9af2a5e61cb5a3de55fd67286470c35b3cf345b04a83cf3f490778484848460405161691b94939291906170fb565b60405180910390a150505050565b600060019050919050565b61693e828261323c565b15616a1157600080600084815260200190815260200160002060000160008373ffffffffffffffffffffffffffffffffffffffff1673ffffffffffffffffffffffffffffffffffffffff16815260200190815260200160002060006101000a81548160ff0219169083151502179055506169b6616b6b565b73ffffffffffffffffffffffffffffffffffffffff168173ffffffffffffffffffffffffffffffffffffffff16837ff6391f5c32d9c69d2a47ea670b442974b53935d1edc7fd64eb21e047a839171b60405160405180910390a45b5050565b600080600090507a184f03e93ff9f4daa797ed6e38ed64bf6a1f0100000000000000008310616a73577a184f03e93ff9f4daa797ed6e38ed64bf6a1f0100000000000000008381616a6957616a68618cb7565b5b0492506040810190505b6d04ee2d6d415b85acef81000000008310616ab0576d04ee2d6d415b85acef81000000008381616aa657616aa5618cb7565b5b0492506020810190505b662386f26fc100008310616adf57662386f26fc100008381616ad557616ad4618cb7565b5b0492506010810190505b6305f5e1008310616b08576305f5e1008381616afe57616afd618cb7565b5b0492506008810190505b6127108310616b2d576127108381616b2357616b22618cb7565b5b0492506004810190505b60648310616b505760648381616b4657616b45618cb7565b5b0492506002810190505b600a8310616b5f576001810190505b80915050919050565b50565b600033905090565b616b7d828261323c565b616bf457616b8a81616bf8565b616b988360001c6020616c25565b604051602001616ba992919061962e565b6040516020818303038152906040526040517f08c379a0000000000000000000000000000000000000000000000000000000008152600401616beb9190617210565b60405180910390fd5b5050565b6060616c1e8273ffffffffffffffffffffffffffffffffffffffff16601460ff16616c25565b9050919050565b606060006002836002616c38919061810c565b616c4291906180d8565b67ffffffffffffffff811115616c5b57616c5a617b14565b5b6040519080825280601f01601f191660200182016040528015616c8d5781602001600182028036833780820191505090505b5090507f300000000000000000000000000000000000000000000000000000000000000081600081518110616cc557616cc46180a9565b5b60200101907effffffffffffffffffffffffffffffffffffffffffffffffffffffffffffff1916908160001a9053507f780000000000000000000000000000000000000000000000000000000000000081600181518110616d2957616d286180a9565b5b60200101907effffffffffffffffffffffffffffffffffffffffffffffffffffffffffffff1916908160001a90535060006001846002616d69919061810c565b616d7391906180d8565b90505b6001811115616e13577f3031323334353637383961626364656600000000000000000000000000000000600f861660108110616db557616db46180a9565b5b1a60f81b828281518110616dcc57616dcb6180a9565b5b60200101907effffffffffffffffffffffffffffffffffffffffffffffffffffffffffffff1916908160001a905350600485901c945080616e0c90619668565b9050616d76565b5060008414616e57576040517f08c379a0000000000000000000000000000000000000000000000000000000008152600401616e4e906196dd565b60405180910390fd5b8091505092915050565b508054616e6d90618078565b6000825580601f10616e7f5750616e9e565b601f016020900490600052602060002090810190616e9d9190616ea1565b5b50565b5b80821115616eba576000816000905550600101616ea2565b5090565b6000604051905090565b600080fd5b600080fd5b60007fffffffff0000000000000000000000000000000000000000000000000000000082169050919050565b616f0781616ed2565b8114616f1257600080fd5b50565b600081359050616f2481616efe565b92915050565b600060208284031215616f4057616f3f616ec8565b5b6000616f4e84828501616f15565b91505092915050565b60008115159050919050565b616f6c81616f57565b82525050565b6000602082019050616f876000830184616f63565b92915050565b6000819050919050565b616fa081616f8d565b8114616fab57600080fd5b50565b600081359050616fbd81616f97565b92915050565b616fcc81616f57565b8114616fd757600080fd5b50565b600081359050616fe981616fc3565b92915050565b6000806040838503121561700657617005616ec8565b5b600061701485828601616fae565b925050602061702585828601616fda565b9150509250929050565b60006020828403121561704557617044616ec8565b5b600061705384828501616fae565b91505092915050565b61706581616f8d565b82525050565b600081519050919050565b600082825260208201905092915050565b60005b838110156170a557808201518184015260208101905061708a565b60008484015250505050565b6000601f19601f8301169050919050565b60006170cd8261706b565b6170d78185617076565b93506170e7818560208601617087565b6170f0816170b1565b840191505092915050565b6000608082019050617110600083018761705c565b818103602083015261712281866170c2565b9050818103604083015261713681856170c2565b9050617145606083018461705c565b95945050505050565b600060ff82169050919050565b6171648161714e565b82525050565b600060208201905061717f600083018461715b565b92915050565b600073ffffffffffffffffffffffffffffffffffffffff82169050919050565b60006171b082617185565b9050919050565b6171c0816171a5565b81146171cb57600080fd5b50565b6000813590506171dd816171b7565b92915050565b6000602082840312156171f9576171f8616ec8565b5b6000617207848285016171ce565b91505092915050565b6000602082019050818103600083015261722a81846170c2565b905092915050565b6000819050919050565b61724581617232565b811461725057600080fd5b50565b6000813590506172628161723c565b92915050565b60006020828403121561727e5761727d616ec8565b5b600061728c84828501617253565b91505092915050565b61729e81617232565b82525050565b600060a0820190506172b96000830188616f63565b6172c66020830187617295565b6172d3604083018661715b565b6172e0606083018561715b565b81810360808301526172f281846170c2565b90509695505050505050565b60006020820190506173136000830184617295565b92915050565b600080604083850312156173305761732f616ec8565b5b600061733e85828601617253565b925050602061734f858286016171ce565b9150509250929050565b600081519050919050565b600082825260208201905092915050565b6000819050602082019050919050565b61738e81616f8d565b82525050565b60006173a08383617385565b60208301905092915050565b6000602082019050919050565b60006173c482617359565b6173ce8185617364565b93506173d983617375565b8060005b8381101561740a5781516173f18882617394565b97506173fc836173ac565b9250506001810190506173dd565b5085935050505092915050565b6000602082019050818103600083015261743181846173b9565b905092915050565b600080604083850312156174505761744f616ec8565b5b600061745e85828601616fae565b925050602061746f85828601616fae565b9150509250929050565b6000606082019050818103600083015261749381866170c2565b905081810360208301526174a781856170c2565b90506174b6604083018461705c565b949350505050565b6000806000606084860312156174d7576174d6616ec8565b5b60006174e586828701617253565b93505060206174f6868287016171ce565b925050604061750786828701616fda565b9150509250925092565b7f4e487b7100000000000000000000000000000000000000000000000000000000600052602160045260246000fd5b6004811061755157617550617511565b5b50565b600081905061756282617540565b919050565b600061757282617554565b9050919050565b61758281617567565b82525050565b6003811061759957617598617511565b5b50565b60008190506175aa82617588565b919050565b60006175ba8261759c565b9050919050565b6175ca816175af565b82525050565b601081106175e1576175e0617511565b5b50565b60008190506175f2826175d0565b919050565b6000617602826175e4565b9050919050565b617612816175f7565b82525050565b600060c08201905061762d6000830189617579565b61763a60208301886175c1565b6176476040830187617609565b617654606083018661705c565b6176616080830185616f63565b61766e60a083018461705c565b979650505050505050565b6004811061768657600080fd5b50565b60008135905061769881617679565b92915050565b600381106176ab57600080fd5b50565b6000813590506176bd8161769e565b92915050565b601081106176d057600080fd5b50565b6000813590506176e2816176c3565b92915050565b600080600080600060a0868803121561770457617703616ec8565b5b600061771288828901616fae565b955050602061772388828901617689565b9450506040617734888289016176ae565b9350506060617745888289016176d3565b925050608061775688828901616fda565b9150509295509295909350565b600081519050919050565b600082825260208201905092915050565b6000819050602082019050919050565b61779881617232565b82525050565b60006177aa838361778f565b60208301905092915050565b6000602082019050919050565b60006177ce82617763565b6177d8818561776e565b93506177e38361777f565b8060005b838110156178145781516177fb888261779e565b9750617806836177b6565b9250506001810190506177e7565b5085935050505092915050565b600081519050919050565b600082825260208201905092915050565b6000819050602082019050919050565b6178568161714e565b82525050565b6000617868838361784d565b60208301905092915050565b6000602082019050919050565b600061788c82617821565b617896818561782c565b93506178a18361783d565b8060005b838110156178d25781516178b9888261785c565b97506178c483617874565b9250506001810190506178a5565b5085935050505092915050565b600081519050919050565b600082825260208201905092915050565b6000819050602082019050919050565b600082825260208201905092915050565b60006179278261706b565b617931818561790b565b9350617941818560208601617087565b61794a816170b1565b840191505092915050565b6000617961838361791c565b905092915050565b6000602082019050919050565b6000617981826178df565b61798b81856178ea565b93508360208202850161799d856178fb565b8060005b858110156179d957848403895281516179ba8582617955565b94506179c583617969565b925060208a019950506001810190506179a1565b50829750879550505050505092915050565b600081519050919050565b600082825260208201905092915050565b6000819050602082019050919050565b617a2081616f57565b82525050565b6000617a328383617a17565b60208301905092915050565b6000602082019050919050565b6000617a56826179eb565b617a6081856179f6565b9350617a6b83617a07565b8060005b83811015617a9c578151617a838882617a26565b9750617a8e83617a3e565b925050600181019050617a6f565b5085935050505092915050565b60006080820190508181036000830152617ac381876177c3565b90508181036020830152617ad78186617881565b90508181036040830152617aeb8185617976565b90508181036060830152617aff8184617a4b565b905095945050505050565b600080fd5b600080fd5b7f4e487b7100000000000000000000000000000000000000000000000000000000600052604160045260246000fd5b617b4c826170b1565b810181811067ffffffffffffffff82111715617b6b57617b6a617b14565b5b80604052505050565b6000617b7e616ebe565b9050617b8a8282617b43565b919050565b600067ffffffffffffffff821115617baa57617ba9617b14565b5b617bb3826170b1565b9050602081019050919050565b82818337600083830152505050565b6000617be2617bdd84617b8f565b617b74565b905082815260208101848484011115617bfe57617bfd617b0f565b5b617c09848285617bc0565b509392505050565b600082601f830112617c2657617c25617b0a565b5b8135617c36848260208601617bcf565b91505092915050565b60008060008060808587031215617c5957617c58616ec8565b5b6000617c6787828801616fae565b945050602085013567ffffffffffffffff811115617c8857617c87616ecd565b5b617c9487828801617c11565b935050604085013567ffffffffffffffff811115617cb557617cb4616ecd565b5b617cc187828801617c11565b9250506060617cd287828801616fae565b91505092959194509250565b6000602082019050617cf3600083018461705c565b92915050565b600060a082019050617d0e600083018861715b565b617d1b602083018761715b565b617d28604083018661715b565b617d35606083018561705c565b617d42608083018461705c565b9695505050505050565b60006020820190508181036000830152617d6681846177c3565b905092915050565b7f43616c6c6572206973206e6f7420612063657274696669657200000000000000600082015250565b6000617da4601983617076565b9150617daf82617d6e565b602082019050919050565b60006020820190508181036000830152617dd381617d97565b9050919050565b7f4964206d7573742062652067726561746572207468616e203000000000000000600082015250565b6000617e10601983617076565b9150617e1b82617dda565b602082019050919050565b60006020820190508181036000830152617e3f81617e03565b9050919050565b7f546869732073747564656e7420646f65736e2774206578697374000000000000600082015250565b6000617e7c601a83617076565b9150617e8782617e46565b602082019050919050565b60006020820190508181036000830152617eab81617e6f565b9050919050565b6000819050919050565b617ecd617ec882616f8d565b617eb2565b82525050565b600081905092915050565b7f44454c4554452053545544454e54000000000000000000000000000000000000600082015250565b6000617f14600e83617ed3565b9150617f1f82617ede565b600e82019050919050565b6000617f368284617ebc565b602082019150617f4582617f07565b915081905092915050565b7f44656c6574652073747564656e74200000000000000000000000000000000000815250565b6000617f818261706b565b617f8b8185617ed3565b9350617f9b818560208601617087565b80840191505092915050565b6000617fb282617f50565b600f82019150617fc28284617f76565b915081905092915050565b600063ffffffff82169050919050565b7f4e487b7100000000000000000000000000000000000000000000000000000000600052601160045260246000fd5b600061801782617fcd565b915061802283617fcd565b925082820261803081617fcd565b915080821461804257618041617fdd565b5b5092915050565b7f4e487b7100000000000000000000000000000000000000000000000000000000600052602260045260246000fd5b6000600282049050600182168061809057607f821691505b6020821081036180a3576180a2618049565b5b50919050565b7f4e487b7100000000000000000000000000000000000000000000000000000000600052603260045260246000fd5b60006180e382616f8d565b91506180ee83616f8d565b925082820190508082111561810657618105617fdd565b5b92915050565b600061811782616f8d565b915061812283616f8d565b925082820261813081616f8d565b9150828204841483151761814757618146617fdd565b5b5092915050565b600061815982616f8d565b91507fffffffffffffffffffffffffffffffffffffffffffffffffffffffffffffffff820361818b5761818a617fdd565b5b600182019050919050565b7f596f752063616e27742072656e6f756e636520746f20796f757220726f6c652e60008201527f20506c6561736520636f6e746163742061646d696e7300000000000000000000602082015250565b60006181f2603683617076565b91506181fd82618196565b604082019050919050565b60006020820190508181036000830152618221816181e5565b9050919050565b7f53747564656e7420646f65736e27742065786973740000000000000000000000600082015250565b600061825e601583617076565b915061826982618228565b602082019050919050565b6000602082019050818103600083015261828d81618251565b9050919050565b6000819050919050565b6182af6182aa82617232565b618294565b82525050565b60006182c1828461829e565b60208201915081905092915050565b7f4d61782000000000000000000000000000000000000000000000000000000000815250565b7f2072656163686564000000000000000000000000000000000000000000000000815250565b6000618327826182d0565b6004820191506183378284617f76565b9150618342826182f6565b60088201915081905092915050565b7f43616c6c6572206973206e6f7420612000000000000000000000000000000000815250565b7f2061646d696e0000000000000000000000000000000000000000000000000000815250565b60006183a882618351565b6010820191506183b88284617f76565b91506183c382618377565b60068201915081905092915050565b7f54686973206164647265737320697320616c7265616479206120000000000000815250565b6000618403826183d2565b601a820191506184138284617f76565b915081905092915050565b60008160601b9050919050565b60006184368261841e565b9050919050565b60006184488261842b565b9050919050565b61846061845b826171a5565b61843d565b82525050565b7f4752414e54000000000000000000000000000000000000000000000000000000600082015250565b600061849c600583617ed3565b91506184a782618466565b600582019050919050565b60006184be828561844f565b6014820191506184cd8261848f565b91506184d9828461829e565b6020820191508190509392505050565b7f4772616e74200000000000000000000000000000000000000000000000000000815250565b7f2000000000000000000000000000000000000000000000000000000000000000815250565b6000618540826184e9565b6006820191506185508285617f76565b915061855b8261850f565b60018201915061856b8284617f76565b91508190509392505050565b600061858282617fcd565b915061858d83617fcd565b9250828201905063ffffffff8111156185a9576185a8617fdd565b5b92915050565b7f417070726563696174696f6e206973206e6f742076616c696400000000000000600082015250565b60006185e5601983617076565b91506185f0826185af565b602082019050919050565b60006020820190508181036000830152618614816185d8565b9050919050565b7f446567726565206973206e6f742076616c696400000000000000000000000000600082015250565b6000618651601383617076565b915061865c8261861b565b602082019050919050565b6000602082019050818103600083015261868081618644565b9050919050565b7f50726f6772616d206973206e6f742076616c6964000000000000000000000000600082015250565b60006186bd601483617076565b91506186c882618687565b602082019050919050565b600060208201905081810360008301526186ec816186b0565b9050919050565b60008160f81b9050919050565b600061870b826186f3565b9050919050565b61872361871e82617567565b618700565b82525050565b61873a618735826175af565b618700565b82525050565b61875161874c826175f7565b618700565b82525050565b60006187638287617ebc565b6020820191506187738286618712565b6001820191506187838285618729565b6001820191506187938284618740565b60018201915081905095945050505050565b7f5468697320636572746966696361746520646f65736e27742065786973740000600082015250565b60006187db601e83617076565b91506187e6826187a5565b602082019050919050565b6000602082019050818103600083015261880a816187ce565b9050919050565b7f44454c4554450000000000000000000000000000000000000000000000000000600082015250565b6000618847600683617ed3565b915061885282618811565b600682019050919050565b60006188698287617ebc565b6020820191506188798286618712565b6001820191506188898285618729565b6001820191506188998284618740565b6001820191506188a88261883a565b915081905095945050505050565b7f44656c6574652000000000000000000000000000000000000000000000000000815250565b60006188e7826188b6565b6007820191506188f78287617f76565b91506189028261850f565b6001820191506189128286617f76565b915061891d8261850f565b60018201915061892d8285617f76565b91506189388261850f565b6001820191506189488284617f76565b915081905095945050505050565b7f46697273746e616d652063616e6e6f7420626520656d70747900000000000000600082015250565b600061898c601983617076565b915061899782618956565b602082019050919050565b600060208201905081810360008301526189bb8161897f565b9050919050565b7f4c6173746e616d652063616e6e6f7420626520656d7074790000000000000000600082015250565b60006189f8601883617076565b9150618a03826189c2565b602082019050919050565b60006020820190508181036000830152618a27816189eb565b9050919050565b7f426972746864617465206d7573742062652067726561746572207468616e2030600082015250565b6000618a64602083617076565b9150618a6f82618a2e565b602082019050919050565b60006020820190508181036000830152618a9381618a57565b9050919050565b7f546869732073747564656e7420616c7265616479206578697374730000000000600082015250565b6000618ad0601b83617076565b9150618adb82618a9a565b602082019050919050565b60006020820190508181036000830152618aff81618ac3565b9050919050565b7f5468697320636572746966696361746520616c72656164792065786973747300600082015250565b6000618b3c601f83617076565b9150618b4782618b06565b602082019050919050565b60006020820190508181036000830152618b6b81618b2f565b9050919050565b7f4345525449465900000000000000000000000000000000000000000000000000600082015250565b6000618ba8600783617ed3565b9150618bb382618b72565b600782019050919050565b6000618bca8287617ebc565b602082019150618bda8286618712565b600182019150618bea8285618729565b600182019150618bfa8284618740565b600182019150618c0982618b9b565b915081905095945050505050565b7f4365727469667920000000000000000000000000000000000000000000000000815250565b6000618c4882618c17565b600882019150618c588287617f76565b9150618c638261850f565b600182019150618c738286617f76565b9150618c7e8261850f565b600182019150618c8e8285617f76565b9150618c998261850f565b600182019150618ca98284617f76565b915081905095945050505050565b7f4e487b7100000000000000000000000000000000000000000000000000000000600052601260045260246000fd5b6000618cf182616f8d565b9150618cfc83616f8d565b925082618d0c57618d0b618cb7565b5b828206905092915050565b6000618d2282616f8d565b9150618d2d83616f8d565b925082618d3d57618d3c618cb7565b5b828204905092915050565b7f4d696e2000000000000000000000000000000000000000000000000000000000815250565b6000618d7982618d48565b600482019150618d898284617f76565b9150618d94826182f6565b60088201915081905092915050565b7f546869732061646472657373206973206e6f7420612000000000000000000000815250565b6000618dd482618da3565b601682019150618de48284617f76565b915081905092915050565b7f5245564f4b450000000000000000000000000000000000000000000000000000600082015250565b6000618e25600683617ed3565b9150618e3082618def565b600682019050919050565b6000618e47828561844f565b601482019150618e5682618e18565b9150618e62828461829e565b6020820191508190509392505050565b7f5265766f6b652000000000000000000000000000000000000000000000000000815250565b6000618ea382618e72565b600782019150618eb38285617f76565b9150618ebe8261850f565b600182019150618ece8284617f76565b91508190509392505050565b6000618ee582617fcd565b9150618ef083617fcd565b9250828203905063ffffffff811115618f0c57618f0b617fdd565b5b92915050565b6000618f1d8261714e565b9150618f288361714e565b9250828203905060ff811115618f4157618f40617fdd565b5b92915050565b60008190508160005260206000209050919050565b60006020601f8301049050919050565b600082821b905092915050565b600060088302618fa97fffffffffffffffffffffffffffffffffffffffffffffffffffffffffffffffff82618f6c565b618fb38683618f6c565b95508019841693508086168417925050509392505050565b6000819050919050565b6000618ff0618feb618fe684616f8d565b618fcb565b616f8d565b9050919050565b6000819050919050565b61900a83618fd5565b61901e61901682618ff7565b848454618f79565b825550505050565b600090565b619033619026565b61903e818484619001565b505050565b5b818110156190625761905760008261902b565b600181019050619044565b5050565b601f8211156190a75761907881618f47565b61908184618f5c565b81016020851015619090578190505b6190a461909c85618f5c565b830182619043565b50505b505050565b600082821c905092915050565b60006190ca600019846008026190ac565b1980831691505092915050565b60006190e383836190b9565b9150826002028217905092915050565b6190fc8261706b565b67ffffffffffffffff81111561911557619114617b14565b5b61911f8254618078565b61912a828285619066565b600060209050601f83116001811461915d576000841561914b578287015190505b61915585826190d7565b8655506191bd565b601f19841661916b86618f47565b60005b828110156191935784890151825560018201915060208501945060208101905061916e565b868310156191b057848901516191ac601f8916826190b9565b8355505b6001600288020188555050505b505050505050565b7f596f7520616c7265616479207369676e65642074686973206d756c7469736967600082015250565b60006191fb602083617076565b9150619206826191c5565b602082019050919050565b6000602082019050818103600083015261922a816191ee565b9050919050565b600061923c8261714e565b915060ff820361924f5761924e617fdd565b5b600182019050919050565b60006192658261714e565b91506192708361714e565b9250828201905060ff81111561928957619288617fdd565b5b92915050565b7f596f752068617665206e6f7465207369676e65642074686973206d756c74697360008201527f6967207965740000000000000000000000000000000000000000000000000000602082015250565b60006192eb602683617076565b91506192f68261928f565b604082019050919050565b6000602082019050818103600083015261931a816192de565b9050919050565b7f53747564656e7420616c72656164792065786973747300000000000000000000600082015250565b6000619357601683617076565b915061936282619321565b602082019050919050565b600060208201905081810360008301526193868161934a565b9050919050565b7f49642063616e2774206265203000000000000000000000000000000000000000600082015250565b60006193c3600d83617076565b91506193ce8261938d565b602082019050919050565b600060208201905081810360008301526193f2816193b6565b9050919050565b600060808201905061940e600083018761705c565b61941b6020830186617579565b61942860408301856175c1565b6194356060830184617609565b95945050505050565b7f53747564656e7420646f6573206e6f7420657869737400000000000000000000600082015250565b6000619474601683617076565b915061947f8261943e565b602082019050919050565b600060208201905081810360008301526194a381619467565b9050919050565b600081546194b781618078565b6194c18186617ed3565b945060018216600081146194dc57600181146194f157619524565b60ff1983168652811515820286019350619524565b6194fa85618f47565b60005b8381101561951c578154818901526001820191506020810190506194fd565b838801955050505b50505092915050565b600061953982846194aa565b915081905092915050565b60006195508284617f76565b915081905092915050565b50565b600061956b600083617ed3565b91506195768261955b565b600082019050919050565b600061958c8261955e565b9150819050919050565b7f416363657373436f6e74726f6c3a206163636f756e7420000000000000000000600082015250565b60006195cc601783617ed3565b91506195d782619596565b601782019050919050565b7f206973206d697373696e6720726f6c6520000000000000000000000000000000600082015250565b6000619618601183617ed3565b9150619623826195e2565b601182019050919050565b6000619639826195bf565b91506196458285617f76565b91506196508261960b565b915061965c8284617f76565b91508190509392505050565b600061967382616f8d565b91506000820361968657619685617fdd565b5b600182039050919050565b7f537472696e67733a20686578206c656e67746820696e73756666696369656e74600082015250565b60006196c7602083617076565b91506196d282619691565b602082019050919050565b600060208201905081810360008301526196f6816196ba565b905091905056fea2646970667358221220ca81eff37251755464c03ed6fa2000a60612e0184e94ad1b99d6f3b773b7799964736f6c63430008130033","opcodes":"PUSH1 0x80 PUSH1 0x40 MSTORE CALLVALUE DUP1 ISZERO PUSH3 0x11 JUMPI PUSH1 0x0 DUP1 REVERT JUMPDEST POP PUSH1 0x40 MLOAD PUSH3 0xA491 CODESIZE SUB DUP1 PUSH3 0xA491 DUP4 CODECOPY DUP2 DUP2 ADD PUSH1 0x40 MSTORE DUP2 ADD SWAP1 PUSH3 0x37 SWAP2 SWAP1 PUSH3 0x99C JUMP JUMPDEST PUSH3 0x53 PUSH8 0x29779E5C28A44E93 PUSH1 0xC0 SHL PUSH3 0x7B6 PUSH1 0x20 SHL PUSH1 0x20 SHR JUMP JUMPDEST PUSH3 0x6F PUSH8 0xF412BF9358166FD4 PUSH1 0xC0 SHL PUSH3 0x7B6 PUSH1 0x20 SHL PUSH1 0x20 SHR JUMP JUMPDEST PUSH3 0x8B PUSH8 0x313D4C2F5B61A9DC PUSH1 0xC0 SHL PUSH3 0x7B6 PUSH1 0x20 SHL PUSH1 0x20 SHR JUMP JUMPDEST PUSH3 0xA7 PUSH8 0xB704FB86BF9B0AE5 PUSH1 0xC0 SHL PUSH3 0x7B6 PUSH1 0x20 SHL PUSH1 0x20 SHR JUMP JUMPDEST PUSH1 0x0 PUSH20 0xFFFFFFFFFFFFFFFFFFFFFFFFFFFFFFFFFFFFFFFF AND DUP3 PUSH20 0xFFFFFFFFFFFFFFFFFFFFFFFFFFFFFFFFFFFFFFFF AND SUB PUSH3 0x119 JUMPI PUSH1 0x40 MLOAD PUSH32 0x8C379A000000000000000000000000000000000000000000000000000000000 DUP2 MSTORE PUSH1 0x4 ADD PUSH3 0x110 SWAP1 PUSH3 0xA6A JUMP JUMPDEST PUSH1 0x40 MLOAD DUP1 SWAP2 SUB SWAP1 REVERT JUMPDEST PUSH3 0x135 PUSH8 0x44DF0A3AD3CA1C74 PUSH1 0xC0 SHL PUSH3 0x7B6 PUSH1 0x20 SHL PUSH1 0x20 SHR JUMP JUMPDEST PUSH3 0x151 PUSH8 0x5753B4FFA8A3FBD6 PUSH1 0xC0 SHL PUSH3 0x7B6 PUSH1 0x20 SHL PUSH1 0x20 SHR JUMP JUMPDEST PUSH3 0x16D PUSH8 0x30E331AA91C4F9BC PUSH1 0xC0 SHL PUSH3 0x7B6 PUSH1 0x20 SHL PUSH1 0x20 SHR JUMP JUMPDEST PUSH3 0x189 PUSH8 0x4EB2A36FB681E6CF PUSH1 0xC0 SHL PUSH3 0x7B6 PUSH1 0x20 SHL PUSH1 0x20 SHR JUMP JUMPDEST PUSH1 0x0 PUSH20 0xFFFFFFFFFFFFFFFFFFFFFFFFFFFFFFFFFFFFFFFF AND DUP2 PUSH20 0xFFFFFFFFFFFFFFFFFFFFFFFFFFFFFFFFFFFFFFFF AND SUB PUSH3 0x1FB JUMPI PUSH1 0x40 MLOAD PUSH32 0x8C379A000000000000000000000000000000000000000000000000000000000 DUP2 MSTORE PUSH1 0x4 ADD PUSH3 0x1F2 SWAP1 PUSH3 0xB02 JUMP JUMPDEST PUSH1 0x40 MLOAD DUP1 SWAP2 SUB SWAP1 REVERT JUMPDEST PUSH3 0x217 PUSH8 0xF2E70CD0C63D2B6D PUSH1 0xC0 SHL PUSH3 0x7B6 PUSH1 0x20 SHL PUSH1 0x20 SHR JUMP JUMPDEST PUSH3 0x233 PUSH8 0xF20ECF405B91AF12 PUSH1 0xC0 SHL PUSH3 0x7B6 PUSH1 0x20 SHL PUSH1 0x20 SHR JUMP JUMPDEST PUSH3 0x24F PUSH8 0xC54FDE1E8F0CCF54 PUSH1 0xC0 SHL PUSH3 0x7B6 PUSH1 0x20 SHL PUSH1 0x20 SHR JUMP JUMPDEST PUSH3 0x26B PUSH8 0x842D536C92F2195B PUSH1 0xC0 SHL PUSH3 0x7B6 PUSH1 0x20 SHL PUSH1 0x20 SHR JUMP JUMPDEST DUP1 PUSH20 0xFFFFFFFFFFFFFFFFFFFFFFFFFFFFFFFFFFFFFFFF AND DUP3 PUSH20 0xFFFFFFFFFFFFFFFFFFFFFFFFFFFFFFFFFFFFFFFF AND SUB PUSH3 0x2DC JUMPI PUSH1 0x40 MLOAD PUSH32 0x8C379A000000000000000000000000000000000000000000000000000000000 DUP2 MSTORE PUSH1 0x4 ADD PUSH3 0x2D3 SWAP1 PUSH3 0xB9A JUMP JUMPDEST PUSH1 0x40 MLOAD DUP1 SWAP2 SUB SWAP1 REVERT JUMPDEST PUSH3 0x2F8 PUSH8 0x9F63132DE9698680 PUSH1 0xC0 SHL PUSH3 0x7B6 PUSH1 0x20 SHL PUSH1 0x20 SHR JUMP JUMPDEST PUSH3 0x314 PUSH8 0x35CCCDDCC7026597 PUSH1 0xC0 SHL PUSH3 0x7B6 PUSH1 0x20 SHL PUSH1 0x20 SHR JUMP JUMPDEST PUSH3 0x330 PUSH8 0x9E95CEE7FE6E9265 PUSH1 0xC0 SHL PUSH3 0x7B6 PUSH1 0x20 SHL PUSH1 0x20 SHR JUMP JUMPDEST PUSH3 0x362 PUSH32 0x4BBEB6FD3E5222E55F2F8B0C35BC228E0A06A25D0DA772FDB02C3B92FA004F88 DUP4 PUSH3 0x7B9 PUSH1 0x20 SHL PUSH1 0x20 SHR JUMP JUMPDEST PUSH3 0x37E PUSH8 0xC0C333F011D1FA4E PUSH1 0xC0 SHL PUSH3 0x7B6 PUSH1 0x20 SHL PUSH1 0x20 SHR JUMP JUMPDEST PUSH3 0x39A PUSH8 0xC161197CF5C060E PUSH1 0xC0 SHL PUSH3 0x7B6 PUSH1 0x20 SHL PUSH1 0x20 SHR JUMP JUMPDEST PUSH3 0x3CC PUSH32 0x4BBEB6FD3E5222E55F2F8B0C35BC228E0A06A25D0DA772FDB02C3B92FA004F88 DUP3 PUSH3 0x7CF PUSH1 0x20 SHL PUSH1 0x20 SHR JUMP JUMPDEST PUSH3 0x3E8 PUSH8 0x8AE199C6BAD67882 PUSH1 0xC0 SHL PUSH3 0x7B6 PUSH1 0x20 SHL PUSH1 0x20 SHR JUMP JUMPDEST PUSH1 0x40 MLOAD DUP1 PUSH1 0xE0 ADD PUSH1 0x40 MSTORE DUP1 PUSH1 0x2 PUSH4 0xFFFFFFFF AND DUP2 MSTORE PUSH1 0x20 ADD PUSH1 0x2 PUSH1 0xFF AND PUSH4 0xFFFFFFFF AND DUP2 MSTORE PUSH1 0x20 ADD PUSH1 0xF PUSH1 0xFF AND PUSH4 0xFFFFFFFF AND DUP2 MSTORE PUSH1 0x20 ADD PUSH1 0x50 PUSH1 0xFF AND DUP2 MSTORE PUSH1 0x20 ADD PUSH1 0x50 PUSH1 0xFF AND DUP2 MSTORE PUSH1 0x20 ADD PUSH32 0x4BBEB6FD3E5222E55F2F8B0C35BC228E0A06A25D0DA772FDB02C3B92FA004F88 DUP2 MSTORE PUSH1 0x20 ADD PUSH1 0x40 MLOAD PUSH1 0x20 ADD PUSH3 0x46B SWAP1 PUSH3 0xC17 JUMP JUMPDEST PUSH1 0x40 MLOAD PUSH1 0x20 DUP2 DUP4 SUB SUB DUP2 MSTORE SWAP1 PUSH1 0x40 MSTORE PUSH3 0x485 SWAP1 PUSH3 0xC77 JUMP JUMPDEST DUP2 MSTORE POP PUSH1 0x3 PUSH1 0x0 PUSH32 0x4BBEB6FD3E5222E55F2F8B0C35BC228E0A06A25D0DA772FDB02C3B92FA004F88 DUP2 MSTORE PUSH1 0x20 ADD SWAP1 DUP2 MSTORE PUSH1 0x20 ADD PUSH1 0x0 KECCAK256 PUSH1 0x0 DUP3 ADD MLOAD DUP2 PUSH1 0x0 ADD PUSH1 0x0 PUSH2 0x100 EXP DUP2 SLOAD DUP2 PUSH4 0xFFFFFFFF MUL NOT AND SWAP1 DUP4 PUSH4 0xFFFFFFFF AND MUL OR SWAP1 SSTORE POP PUSH1 0x20 DUP3 ADD MLOAD DUP2 PUSH1 0x0 ADD PUSH1 0x4 PUSH2 0x100 EXP DUP2 SLOAD DUP2 PUSH4 0xFFFFFFFF MUL NOT AND SWAP1 DUP4 PUSH4 0xFFFFFFFF AND MUL OR SWAP1 SSTORE POP PUSH1 0x40 DUP3 ADD MLOAD DUP2 PUSH1 0x0 ADD PUSH1 0x8 PUSH2 0x100 EXP DUP2 SLOAD DUP2 PUSH4 0xFFFFFFFF MUL NOT AND SWAP1 DUP4 PUSH4 0xFFFFFFFF AND MUL OR SWAP1 SSTORE POP PUSH1 0x60 DUP3 ADD MLOAD DUP2 PUSH1 0x0 ADD PUSH1 0xC PUSH2 0x100 EXP DUP2 SLOAD DUP2 PUSH1 0xFF MUL NOT AND SWAP1 DUP4 PUSH1 0xFF AND MUL OR SWAP1 SSTORE POP PUSH1 0x80 DUP3 ADD MLOAD DUP2 PUSH1 0x0 ADD PUSH1 0xD PUSH2 0x100 EXP DUP2 SLOAD DUP2 PUSH1 0xFF MUL NOT AND SWAP1 DUP4 PUSH1 0xFF AND MUL OR SWAP1 SSTORE POP PUSH1 0xA0 DUP3 ADD MLOAD DUP2 PUSH1 0x1 ADD SSTORE PUSH1 0xC0 DUP3 ADD MLOAD DUP2 PUSH1 0x2 ADD SSTORE SWAP1 POP POP PUSH3 0x5A5 PUSH8 0x25E8248393BB070B PUSH1 0xC0 SHL PUSH3 0x7B6 PUSH1 0x20 SHL PUSH1 0x20 SHR JUMP JUMPDEST PUSH3 0x5C1 PUSH8 0x79DBE9F023BDB8C2 PUSH1 0xC0 SHL PUSH3 0x7B6 PUSH1 0x20 SHL PUSH1 0x20 SHR JUMP JUMPDEST PUSH3 0x5F4 PUSH32 0xD646AE07EB0D0F77457502A65E7407930DFF4CD4FD99ABC6AAC87A753F4C8A42 PUSH1 0x0 PUSH3 0x7B9 PUSH1 0x20 SHL PUSH1 0x20 SHR JUMP JUMPDEST PUSH3 0x610 PUSH8 0xA32025A628D05E92 PUSH1 0xC0 SHL PUSH3 0x7B6 PUSH1 0x20 SHL PUSH1 0x20 SHR JUMP JUMPDEST PUSH1 0x40 MLOAD DUP1 PUSH1 0xE0 ADD PUSH1 0x40 MSTORE DUP1 PUSH1 0x0 PUSH4 0xFFFFFFFF AND DUP2 MSTORE PUSH1 0x20 ADD PUSH1 0x0 PUSH4 0xFFFFFFFF AND DUP2 MSTORE PUSH1 0x20 ADD PUSH1 0xF PUSH1 0xFF AND PUSH4 0xFFFFFFFF AND DUP2 MSTORE PUSH1 0x20 ADD PUSH1 0x50 PUSH1 0xFF AND DUP2 MSTORE PUSH1 0x20 ADD PUSH1 0x50 PUSH1 0xFF AND DUP2 MSTORE PUSH1 0x20 ADD PUSH32 0x4BBEB6FD3E5222E55F2F8B0C35BC228E0A06A25D0DA772FDB02C3B92FA004F88 DUP2 MSTORE PUSH1 0x20 ADD PUSH1 0x40 MLOAD PUSH1 0x20 ADD PUSH3 0x690 SWAP1 PUSH3 0xD37 JUMP JUMPDEST PUSH1 0x40 MLOAD PUSH1 0x20 DUP2 DUP4 SUB SUB DUP2 MSTORE SWAP1 PUSH1 0x40 MSTORE PUSH3 0x6AA SWAP1 PUSH3 0xC77 JUMP JUMPDEST DUP2 MSTORE POP PUSH1 0x3 PUSH1 0x0 PUSH32 0xD646AE07EB0D0F77457502A65E7407930DFF4CD4FD99ABC6AAC87A753F4C8A42 DUP2 MSTORE PUSH1 0x20 ADD SWAP1 DUP2 MSTORE PUSH1 0x20 ADD PUSH1 0x0 KECCAK256 PUSH1 0x0 DUP3 ADD MLOAD DUP2 PUSH1 0x0 ADD PUSH1 0x0 PUSH2 0x100 EXP DUP2 SLOAD DUP2 PUSH4 0xFFFFFFFF MUL NOT AND SWAP1 DUP4 PUSH4 0xFFFFFFFF AND MUL OR SWAP1 SSTORE POP PUSH1 0x20 DUP3 ADD MLOAD DUP2 PUSH1 0x0 ADD PUSH1 0x4 PUSH2 0x100 EXP DUP2 SLOAD DUP2 PUSH4 0xFFFFFFFF MUL NOT AND SWAP1 DUP4 PUSH4 0xFFFFFFFF AND MUL OR SWAP1 SSTORE POP PUSH1 0x40 DUP3 ADD MLOAD DUP2 PUSH1 0x0 ADD PUSH1 0x8 PUSH2 0x100 EXP DUP2 SLOAD DUP2 PUSH4 0xFFFFFFFF MUL NOT AND SWAP1 DUP4 PUSH4 0xFFFFFFFF AND MUL OR SWAP1 SSTORE POP PUSH1 0x60 DUP3 ADD MLOAD DUP2 PUSH1 0x0 ADD PUSH1 0xC PUSH2 0x100 EXP DUP2 SLOAD DUP2 PUSH1 0xFF MUL NOT AND SWAP1 DUP4 PUSH1 0xFF AND MUL OR SWAP1 SSTORE POP PUSH1 0x80 DUP3 ADD MLOAD DUP2 PUSH1 0x0 ADD PUSH1 0xD PUSH2 0x100 EXP DUP2 SLOAD DUP2 PUSH1 0xFF MUL NOT AND SWAP1 DUP4 PUSH1 0xFF AND MUL OR SWAP1 SSTORE POP PUSH1 0xA0 DUP3 ADD MLOAD DUP2 PUSH1 0x1 ADD SSTORE PUSH1 0xC0 DUP3 ADD MLOAD DUP2 PUSH1 0x2 ADD SSTORE SWAP1 POP POP POP POP PUSH3 0xD4E JUMP JUMPDEST POP JUMP JUMPDEST PUSH3 0x7CB DUP3 DUP3 PUSH3 0x7CF PUSH1 0x20 SHL PUSH1 0x20 SHR JUMP JUMPDEST POP POP JUMP JUMPDEST PUSH3 0x7E1 DUP3 DUP3 PUSH3 0x8C0 PUSH1 0x20 SHL PUSH1 0x20 SHR JUMP JUMPDEST PUSH3 0x8BC JUMPI PUSH1 0x1 PUSH1 0x0 DUP1 DUP5 DUP2 MSTORE PUSH1 0x20 ADD SWAP1 DUP2 MSTORE PUSH1 0x20 ADD PUSH1 0x0 KECCAK256 PUSH1 0x0 ADD PUSH1 0x0 DUP4 PUSH20 0xFFFFFFFFFFFFFFFFFFFFFFFFFFFFFFFFFFFFFFFF AND PUSH20 0xFFFFFFFFFFFFFFFFFFFFFFFFFFFFFFFFFFFFFFFF AND DUP2 MSTORE PUSH1 0x20 ADD SWAP1 DUP2 MSTORE PUSH1 0x20 ADD PUSH1 0x0 KECCAK256 PUSH1 0x0 PUSH2 0x100 EXP DUP2 SLOAD DUP2 PUSH1 0xFF MUL NOT AND SWAP1 DUP4 ISZERO ISZERO MUL OR SWAP1 SSTORE POP PUSH3 0x861 PUSH3 0x92A PUSH1 0x20 SHL PUSH1 0x20 SHR JUMP JUMPDEST PUSH20 0xFFFFFFFFFFFFFFFFFFFFFFFFFFFFFFFFFFFFFFFF AND DUP2 PUSH20 0xFFFFFFFFFFFFFFFFFFFFFFFFFFFFFFFFFFFFFFFF AND DUP4 PUSH32 0x2F8788117E7EFF1D82E926EC794901D17C78024A50270940304540A733656F0D PUSH1 0x40 MLOAD PUSH1 0x40 MLOAD DUP1 SWAP2 SUB SWAP1 LOG4 JUMPDEST POP POP JUMP JUMPDEST PUSH1 0x0 DUP1 PUSH1 0x0 DUP5 DUP2 MSTORE PUSH1 0x20 ADD SWAP1 DUP2 MSTORE PUSH1 0x20 ADD PUSH1 0x0 KECCAK256 PUSH1 0x0 ADD PUSH1 0x0 DUP4 PUSH20 0xFFFFFFFFFFFFFFFFFFFFFFFFFFFFFFFFFFFFFFFF AND PUSH20 0xFFFFFFFFFFFFFFFFFFFFFFFFFFFFFFFFFFFFFFFF AND DUP2 MSTORE PUSH1 0x20 ADD SWAP1 DUP2 MSTORE PUSH1 0x20 ADD PUSH1 0x0 KECCAK256 PUSH1 0x0 SWAP1 SLOAD SWAP1 PUSH2 0x100 EXP SWAP1 DIV PUSH1 0xFF AND SWAP1 POP SWAP3 SWAP2 POP POP JUMP JUMPDEST PUSH1 0x0 CALLER SWAP1 POP SWAP1 JUMP JUMPDEST PUSH1 0x0 DUP1 REVERT JUMPDEST PUSH1 0x0 PUSH20 0xFFFFFFFFFFFFFFFFFFFFFFFFFFFFFFFFFFFFFFFF DUP3 AND SWAP1 POP SWAP2 SWAP1 POP JUMP JUMPDEST PUSH1 0x0 PUSH3 0x964 DUP3 PUSH3 0x937 JUMP JUMPDEST SWAP1 POP SWAP2 SWAP1 POP JUMP JUMPDEST PUSH3 0x976 DUP2 PUSH3 0x957 JUMP JUMPDEST DUP2 EQ PUSH3 0x982 JUMPI PUSH1 0x0 DUP1 REVERT JUMPDEST POP JUMP JUMPDEST PUSH1 0x0 DUP2 MLOAD SWAP1 POP PUSH3 0x996 DUP2 PUSH3 0x96B JUMP JUMPDEST SWAP3 SWAP2 POP POP JUMP JUMPDEST PUSH1 0x0 DUP1 PUSH1 0x40 DUP4 DUP6 SUB SLT ISZERO PUSH3 0x9B6 JUMPI PUSH3 0x9B5 PUSH3 0x932 JUMP JUMPDEST JUMPDEST PUSH1 0x0 PUSH3 0x9C6 DUP6 DUP3 DUP7 ADD PUSH3 0x985 JUMP JUMPDEST SWAP3 POP POP PUSH1 0x20 PUSH3 0x9D9 DUP6 DUP3 DUP7 ADD PUSH3 0x985 JUMP JUMPDEST SWAP2 POP POP SWAP3 POP SWAP3 SWAP1 POP JUMP JUMPDEST PUSH1 0x0 DUP3 DUP3 MSTORE PUSH1 0x20 DUP3 ADD SWAP1 POP SWAP3 SWAP2 POP POP JUMP JUMPDEST PUSH32 0x4365727469666965722061646D696E3120616464726573732063616E6E6F7420 PUSH1 0x0 DUP3 ADD MSTORE PUSH32 0x6265203000000000000000000000000000000000000000000000000000000000 PUSH1 0x20 DUP3 ADD MSTORE POP JUMP JUMPDEST PUSH1 0x0 PUSH3 0xA52 PUSH1 0x24 DUP4 PUSH3 0x9E3 JUMP JUMPDEST SWAP2 POP PUSH3 0xA5F DUP3 PUSH3 0x9F4 JUMP JUMPDEST PUSH1 0x40 DUP3 ADD SWAP1 POP SWAP2 SWAP1 POP JUMP JUMPDEST PUSH1 0x0 PUSH1 0x20 DUP3 ADD SWAP1 POP DUP2 DUP2 SUB PUSH1 0x0 DUP4 ADD MSTORE PUSH3 0xA85 DUP2 PUSH3 0xA43 JUMP JUMPDEST SWAP1 POP SWAP2 SWAP1 POP JUMP JUMPDEST PUSH32 0x4365727469666965722061646D696E3220616464726573732063616E6E6F7420 PUSH1 0x0 DUP3 ADD MSTORE PUSH32 0x6265203000000000000000000000000000000000000000000000000000000000 PUSH1 0x20 DUP3 ADD MSTORE POP JUMP JUMPDEST PUSH1 0x0 PUSH3 0xAEA PUSH1 0x24 DUP4 PUSH3 0x9E3 JUMP JUMPDEST SWAP2 POP PUSH3 0xAF7 DUP3 PUSH3 0xA8C JUMP JUMPDEST PUSH1 0x40 DUP3 ADD SWAP1 POP SWAP2 SWAP1 POP JUMP JUMPDEST PUSH1 0x0 PUSH1 0x20 DUP3 ADD SWAP1 POP DUP2 DUP2 SUB PUSH1 0x0 DUP4 ADD MSTORE PUSH3 0xB1D DUP2 PUSH3 0xADB JUMP JUMPDEST SWAP1 POP SWAP2 SWAP1 POP JUMP JUMPDEST PUSH32 0x436572746966696572206164647265737365732063616E6E6F74206265207468 PUSH1 0x0 DUP3 ADD MSTORE PUSH32 0x652073616D650000000000000000000000000000000000000000000000000000 PUSH1 0x20 DUP3 ADD MSTORE POP JUMP JUMPDEST PUSH1 0x0 PUSH3 0xB82 PUSH1 0x26 DUP4 PUSH3 0x9E3 JUMP JUMPDEST SWAP2 POP PUSH3 0xB8F DUP3 PUSH3 0xB24 JUMP JUMPDEST PUSH1 0x40 DUP3 ADD SWAP1 POP SWAP2 SWAP1 POP JUMP JUMPDEST PUSH1 0x0 PUSH1 0x20 DUP3 ADD SWAP1 POP DUP2 DUP2 SUB PUSH1 0x0 DUP4 ADD MSTORE PUSH3 0xBB5 DUP2 PUSH3 0xB73 JUMP JUMPDEST SWAP1 POP SWAP2 SWAP1 POP JUMP JUMPDEST PUSH1 0x0 DUP2 SWAP1 POP SWAP3 SWAP2 POP POP JUMP JUMPDEST PUSH32 0x4345525449464945525F41444D494E0000000000000000000000000000000000 PUSH1 0x0 DUP3 ADD MSTORE POP JUMP JUMPDEST PUSH1 0x0 PUSH3 0xBFF PUSH1 0xF DUP4 PUSH3 0xBBC JUMP JUMPDEST SWAP2 POP PUSH3 0xC0C DUP3 PUSH3 0xBC7 JUMP JUMPDEST PUSH1 0xF DUP3 ADD SWAP1 POP SWAP2 SWAP1 POP JUMP JUMPDEST PUSH1 0x0 PUSH3 0xC24 DUP3 PUSH3 0xBF0 JUMP JUMPDEST SWAP2 POP DUP2 SWAP1 POP SWAP2 SWAP1 POP JUMP JUMPDEST PUSH1 0x0 DUP2 MLOAD SWAP1 POP SWAP2 SWAP1 POP JUMP JUMPDEST PUSH1 0x0 DUP2 SWAP1 POP PUSH1 0x20 DUP3 ADD SWAP1 POP SWAP2 SWAP1 POP JUMP JUMPDEST PUSH1 0x0 DUP2 SWAP1 POP SWAP2 SWAP1 POP JUMP JUMPDEST PUSH1 0x0 PUSH3 0xC61 DUP3 MLOAD PUSH3 0xC49 JUMP JUMPDEST DUP1 SWAP2 POP POP SWAP2 SWAP1 POP JUMP JUMPDEST PUSH1 0x0 DUP3 DUP3 SHL SWAP1 POP SWAP3 SWAP2 POP POP JUMP JUMPDEST PUSH1 0x0 PUSH3 0xC84 DUP3 PUSH3 0xC2E JUMP JUMPDEST DUP3 PUSH3 0xC90 DUP5 PUSH3 0xC39 JUMP JUMPDEST SWAP1 POP PUSH3 0xC9D DUP2 PUSH3 0xC53 JUMP JUMPDEST SWAP3 POP PUSH1 0x20 DUP3 LT ISZERO PUSH3 0xCE0 JUMPI PUSH3 0xCDB PUSH32 0xFFFFFFFFFFFFFFFFFFFFFFFFFFFFFFFFFFFFFFFFFFFFFFFFFFFFFFFFFFFFFFFF DUP4 PUSH1 0x20 SUB PUSH1 0x8 MUL PUSH3 0xC6A JUMP JUMPDEST DUP4 AND SWAP3 POP JUMPDEST POP POP SWAP2 SWAP1 POP JUMP JUMPDEST PUSH32 0x4345525449464945520000000000000000000000000000000000000000000000 PUSH1 0x0 DUP3 ADD MSTORE POP JUMP JUMPDEST PUSH1 0x0 PUSH3 0xD1F PUSH1 0x9 DUP4 PUSH3 0xBBC JUMP JUMPDEST SWAP2 POP PUSH3 0xD2C DUP3 PUSH3 0xCE7 JUMP JUMPDEST PUSH1 0x9 DUP3 ADD SWAP1 POP SWAP2 SWAP1 POP JUMP JUMPDEST PUSH1 0x0 PUSH3 0xD44 DUP3 PUSH3 0xD10 JUMP JUMPDEST SWAP2 POP DUP2 SWAP1 POP SWAP2 SWAP1 POP JUMP JUMPDEST PUSH2 0x9733 DUP1 PUSH3 0xD5E PUSH1 0x0 CODECOPY PUSH1 0x0 RETURN INVALID PUSH1 0x80 PUSH1 0x40 MSTORE CALLVALUE DUP1 ISZERO PUSH2 0x10 JUMPI PUSH1 0x0 DUP1 REVERT JUMPDEST POP PUSH1 0x4 CALLDATASIZE LT PUSH2 0x248 JUMPI PUSH1 0x0 CALLDATALOAD PUSH1 0xE0 SHR DUP1 PUSH4 0x7CD29FB7 GT PUSH2 0x13B JUMPI DUP1 PUSH4 0xB86BC74F GT PUSH2 0xB8 JUMPI DUP1 PUSH4 0xD547741F GT PUSH2 0x7C JUMPI DUP1 PUSH4 0xD547741F EQ PUSH2 0x750 JUMPI DUP1 PUSH4 0xD911F553 EQ PUSH2 0x76C JUMPI DUP1 PUSH4 0xDF3A12DD EQ PUSH2 0x7A0 JUMPI DUP1 PUSH4 0xE05F2FB4 EQ PUSH2 0x7D0 JUMPI DUP1 PUSH4 0xE5A357F5 EQ PUSH2 0x7EE JUMPI PUSH2 0x248 JUMP JUMPDEST DUP1 PUSH4 0xB86BC74F EQ PUSH2 0x6AC JUMPI DUP1 PUSH4 0xBF802091 EQ PUSH2 0x6CA JUMPI DUP1 PUSH4 0xC9DBCFDA EQ PUSH2 0x6FA JUMPI DUP1 PUSH4 0xD0FB68C7 EQ PUSH2 0x716 JUMPI DUP1 PUSH4 0xD3243AD8 EQ PUSH2 0x734 JUMPI PUSH2 0x248 JUMP JUMPDEST DUP1 PUSH4 0x9E339909 GT PUSH2 0xFF JUMPI DUP1 PUSH4 0x9E339909 EQ PUSH2 0x608 JUMPI DUP1 PUSH4 0xA1CEBF52 EQ PUSH2 0x626 JUMPI DUP1 PUSH4 0xA217FDDF EQ PUSH2 0x642 JUMPI DUP1 PUSH4 0xA3EABD3D EQ PUSH2 0x660 JUMPI DUP1 PUSH4 0xACE81910 EQ PUSH2 0x690 JUMPI PUSH2 0x248 JUMP JUMPDEST DUP1 PUSH4 0x7CD29FB7 EQ PUSH2 0x53B JUMPI DUP1 PUSH4 0x8856A0E9 EQ PUSH2 0x559 JUMPI DUP1 PUSH4 0x8E82D0E7 EQ PUSH2 0x575 JUMPI DUP1 PUSH4 0x91D14854 EQ PUSH2 0x5A8 JUMPI DUP1 PUSH4 0x9DD09A73 EQ PUSH2 0x5D8 JUMPI PUSH2 0x248 JUMP JUMPDEST DUP1 PUSH4 0x33B72E49 GT PUSH2 0x1C9 JUMPI DUP1 PUSH4 0x5907EBEA GT PUSH2 0x18D JUMPI DUP1 PUSH4 0x5907EBEA EQ PUSH2 0x47C JUMPI DUP1 PUSH4 0x642F9163 EQ PUSH2 0x49A JUMPI DUP1 PUSH4 0x6BC6421B EQ PUSH2 0x4CC JUMPI DUP1 PUSH4 0x719129BE EQ PUSH2 0x4EA JUMPI DUP1 PUSH4 0x742F0688 EQ PUSH2 0x506 JUMPI PUSH2 0x248 JUMP JUMPDEST DUP1 PUSH4 0x33B72E49 EQ PUSH2 0x3D6 JUMPI DUP1 PUSH4 0x36568ABE EQ PUSH2 0x3F4 JUMPI DUP1 PUSH4 0x461C71B2 EQ PUSH2 0x410 JUMPI DUP1 PUSH4 0x4CCE913B EQ PUSH2 0x42E JUMPI DUP1 PUSH4 0x4DA11A20 EQ PUSH2 0x45E JUMPI PUSH2 0x248 JUMP JUMPDEST DUP1 PUSH4 0x1A968069 GT PUSH2 0x210 JUMPI DUP1 PUSH4 0x1A968069 EQ PUSH2 0x31A JUMPI DUP1 PUSH4 0x1A9CFE28 EQ PUSH2 0x34E JUMPI DUP1 PUSH4 0x248A9CA3 EQ PUSH2 0x36C JUMPI DUP1 PUSH4 0x2CD94E4F EQ PUSH2 0x39C JUMPI DUP1 PUSH4 0x2F2FF15D EQ PUSH2 0x3BA JUMPI PUSH2 0x248 JUMP JUMPDEST DUP1 PUSH4 0x1FFC9A7 EQ PUSH2 0x24D JUMPI DUP1 PUSH4 0x5F84D45 EQ PUSH2 0x27D JUMPI DUP1 PUSH4 0x6EAD22E EQ PUSH2 0x299 JUMPI DUP1 PUSH4 0xF68794A EQ PUSH2 0x2CC JUMPI DUP1 PUSH4 0x12AC167C EQ PUSH2 0x2EA JUMPI JUMPDEST PUSH1 0x0 DUP1 REVERT JUMPDEST PUSH2 0x267 PUSH1 0x4 DUP1 CALLDATASIZE SUB DUP2 ADD SWAP1 PUSH2 0x262 SWAP2 SWAP1 PUSH2 0x6F2A JUMP JUMPDEST PUSH2 0x81E JUMP JUMPDEST PUSH1 0x40 MLOAD PUSH2 0x274 SWAP2 SWAP1 PUSH2 0x6F72 JUMP JUMPDEST PUSH1 0x40 MLOAD DUP1 SWAP2 SUB SWAP1 RETURN JUMPDEST PUSH2 0x297 PUSH1 0x4 DUP1 CALLDATASIZE SUB DUP2 ADD SWAP1 PUSH2 0x292 SWAP2 SWAP1 PUSH2 0x6FEF JUMP JUMPDEST PUSH2 0x898 JUMP JUMPDEST STOP JUMPDEST PUSH2 0x2B3 PUSH1 0x4 DUP1 CALLDATASIZE SUB DUP2 ADD SWAP1 PUSH2 0x2AE SWAP2 SWAP1 PUSH2 0x702F JUMP JUMPDEST PUSH2 0xF8E JUMP JUMPDEST PUSH1 0x40 MLOAD PUSH2 0x2C3 SWAP5 SWAP4 SWAP3 SWAP2 SWAP1 PUSH2 0x70FB JUMP JUMPDEST PUSH1 0x40 MLOAD DUP1 SWAP2 SUB SWAP1 RETURN JUMPDEST PUSH2 0x2D4 PUSH2 0x10CE JUMP JUMPDEST PUSH1 0x40 MLOAD PUSH2 0x2E1 SWAP2 SWAP1 PUSH2 0x716A JUMP JUMPDEST PUSH1 0x40 MLOAD DUP1 SWAP2 SUB SWAP1 RETURN JUMPDEST PUSH2 0x304 PUSH1 0x4 DUP1 CALLDATASIZE SUB DUP2 ADD SWAP1 PUSH2 0x2FF SWAP2 SWAP1 PUSH2 0x71E3 JUMP JUMPDEST PUSH2 0x10D3 JUMP JUMPDEST PUSH1 0x40 MLOAD PUSH2 0x311 SWAP2 SWAP1 PUSH2 0x7210 JUMP JUMPDEST PUSH1 0x40 MLOAD DUP1 SWAP2 SUB SWAP1 RETURN JUMPDEST PUSH2 0x334 PUSH1 0x4 DUP1 CALLDATASIZE SUB DUP2 ADD SWAP1 PUSH2 0x32F SWAP2 SWAP1 PUSH2 0x7268 JUMP JUMPDEST PUSH2 0x150A JUMP JUMPDEST PUSH1 0x40 MLOAD PUSH2 0x345 SWAP6 SWAP5 SWAP4 SWAP3 SWAP2 SWAP1 PUSH2 0x72A4 JUMP JUMPDEST PUSH1 0x40 MLOAD DUP1 SWAP2 SUB SWAP1 RETURN JUMPDEST PUSH2 0x356 PUSH2 0x15EF JUMP JUMPDEST PUSH1 0x40 MLOAD PUSH2 0x363 SWAP2 SWAP1 PUSH2 0x716A JUMP JUMPDEST PUSH1 0x40 MLOAD DUP1 SWAP2 SUB SWAP1 RETURN JUMPDEST PUSH2 0x386 PUSH1 0x4 DUP1 CALLDATASIZE SUB DUP2 ADD SWAP1 PUSH2 0x381 SWAP2 SWAP1 PUSH2 0x7268 JUMP JUMPDEST PUSH2 0x15F4 JUMP JUMPDEST PUSH1 0x40 MLOAD PUSH2 0x393 SWAP2 SWAP1 PUSH2 0x72FE JUMP JUMPDEST PUSH1 0x40 MLOAD DUP1 SWAP2 SUB SWAP1 RETURN JUMPDEST PUSH2 0x3A4 PUSH2 0x1613 JUMP JUMPDEST PUSH1 0x40 MLOAD PUSH2 0x3B1 SWAP2 SWAP1 PUSH2 0x716A JUMP JUMPDEST PUSH1 0x40 MLOAD DUP1 SWAP2 SUB SWAP1 RETURN JUMPDEST PUSH2 0x3D4 PUSH1 0x4 DUP1 CALLDATASIZE SUB DUP2 ADD SWAP1 PUSH2 0x3CF SWAP2 SWAP1 PUSH2 0x7319 JUMP JUMPDEST PUSH2 0x1618 JUMP JUMPDEST STOP JUMPDEST PUSH2 0x3DE PUSH2 0x1639 JUMP JUMPDEST PUSH1 0x40 MLOAD PUSH2 0x3EB SWAP2 SWAP1 PUSH2 0x716A JUMP JUMPDEST PUSH1 0x40 MLOAD DUP1 SWAP2 SUB SWAP1 RETURN JUMPDEST PUSH2 0x40E PUSH1 0x4 DUP1 CALLDATASIZE SUB DUP2 ADD SWAP1 PUSH2 0x409 SWAP2 SWAP1 PUSH2 0x7319 JUMP JUMPDEST PUSH2 0x163E JUMP JUMPDEST STOP JUMPDEST PUSH2 0x418 PUSH2 0x16B5 JUMP JUMPDEST PUSH1 0x40 MLOAD PUSH2 0x425 SWAP2 SWAP1 PUSH2 0x7417 JUMP JUMPDEST PUSH1 0x40 MLOAD DUP1 SWAP2 SUB SWAP1 RETURN JUMPDEST PUSH2 0x448 PUSH1 0x4 DUP1 CALLDATASIZE SUB DUP2 ADD SWAP1 PUSH2 0x443 SWAP2 SWAP1 PUSH2 0x7439 JUMP JUMPDEST PUSH2 0x1749 JUMP JUMPDEST PUSH1 0x40 MLOAD PUSH2 0x455 SWAP2 SWAP1 PUSH2 0x72FE JUMP JUMPDEST PUSH1 0x40 MLOAD DUP1 SWAP2 SUB SWAP1 RETURN JUMPDEST PUSH2 0x466 PUSH2 0x177A JUMP JUMPDEST PUSH1 0x40 MLOAD PUSH2 0x473 SWAP2 SWAP1 PUSH2 0x716A JUMP JUMPDEST PUSH1 0x40 MLOAD DUP1 SWAP2 SUB SWAP1 RETURN JUMPDEST PUSH2 0x484 PUSH2 0x177F JUMP JUMPDEST PUSH1 0x40 MLOAD PUSH2 0x491 SWAP2 SWAP1 PUSH2 0x716A JUMP JUMPDEST PUSH1 0x40 MLOAD DUP1 SWAP2 SUB SWAP1 RETURN JUMPDEST PUSH2 0x4B4 PUSH1 0x4 DUP1 CALLDATASIZE SUB DUP2 ADD SWAP1 PUSH2 0x4AF SWAP2 SWAP1 PUSH2 0x702F JUMP JUMPDEST PUSH2 0x1784 JUMP JUMPDEST PUSH1 0x40 MLOAD PUSH2 0x4C3 SWAP4 SWAP3 SWAP2 SWAP1 PUSH2 0x7479 JUMP JUMPDEST PUSH1 0x40 MLOAD DUP1 SWAP2 SUB SWAP1 RETURN JUMPDEST PUSH2 0x4D4 PUSH2 0x19D6 JUMP JUMPDEST PUSH1 0x40 MLOAD PUSH2 0x4E1 SWAP2 SWAP1 PUSH2 0x716A JUMP JUMPDEST PUSH1 0x40 MLOAD DUP1 SWAP2 SUB SWAP1 RETURN JUMPDEST PUSH2 0x504 PUSH1 0x4 DUP1 CALLDATASIZE SUB DUP2 ADD SWAP1 PUSH2 0x4FF SWAP2 SWAP1 PUSH2 0x74BE JUMP JUMPDEST PUSH2 0x19DB JUMP JUMPDEST STOP JUMPDEST PUSH2 0x520 PUSH1 0x4 DUP1 CALLDATASIZE SUB DUP2 ADD SWAP1 PUSH2 0x51B SWAP2 SWAP1 PUSH2 0x7268 JUMP JUMPDEST PUSH2 0x2248 JUMP JUMPDEST PUSH1 0x40 MLOAD PUSH2 0x532 SWAP7 SWAP6 SWAP5 SWAP4 SWAP3 SWAP2 SWAP1 PUSH2 0x7618 JUMP JUMPDEST PUSH1 0x40 MLOAD DUP1 SWAP2 SUB SWAP1 RETURN JUMPDEST PUSH2 0x543 PUSH2 0x22B8 JUMP JUMPDEST PUSH1 0x40 MLOAD PUSH2 0x550 SWAP2 SWAP1 PUSH2 0x716A JUMP JUMPDEST PUSH1 0x40 MLOAD DUP1 SWAP2 SUB SWAP1 RETURN JUMPDEST PUSH2 0x573 PUSH1 0x4 DUP1 CALLDATASIZE SUB DUP2 ADD SWAP1 PUSH2 0x56E SWAP2 SWAP1 PUSH2 0x76E8 JUMP JUMPDEST PUSH2 0x22BD JUMP JUMPDEST STOP JUMPDEST PUSH2 0x58F PUSH1 0x4 DUP1 CALLDATASIZE SUB DUP2 ADD SWAP1 PUSH2 0x58A SWAP2 SWAP1 PUSH2 0x71E3 JUMP JUMPDEST PUSH2 0x2D59 JUMP JUMPDEST PUSH1 0x40 MLOAD PUSH2 0x59F SWAP5 SWAP4 SWAP3 SWAP2 SWAP1 PUSH2 0x7AA9 JUMP JUMPDEST PUSH1 0x40 MLOAD DUP1 SWAP2 SUB SWAP1 RETURN JUMPDEST PUSH2 0x5C2 PUSH1 0x4 DUP1 CALLDATASIZE SUB DUP2 ADD SWAP1 PUSH2 0x5BD SWAP2 SWAP1 PUSH2 0x7319 JUMP JUMPDEST PUSH2 0x323C JUMP JUMPDEST PUSH1 0x40 MLOAD PUSH2 0x5CF SWAP2 SWAP1 PUSH2 0x6F72 JUMP JUMPDEST PUSH1 0x40 MLOAD DUP1 SWAP2 SUB SWAP1 RETURN JUMPDEST PUSH2 0x5F2 PUSH1 0x4 DUP1 CALLDATASIZE SUB DUP2 ADD SWAP1 PUSH2 0x5ED SWAP2 SWAP1 PUSH2 0x702F JUMP JUMPDEST PUSH2 0x32A6 JUMP JUMPDEST PUSH1 0x40 MLOAD PUSH2 0x5FF SWAP2 SWAP1 PUSH2 0x72FE JUMP JUMPDEST PUSH1 0x40 MLOAD DUP1 SWAP2 SUB SWAP1 RETURN JUMPDEST PUSH2 0x610 PUSH2 0x32BE JUMP JUMPDEST PUSH1 0x40 MLOAD PUSH2 0x61D SWAP2 SWAP1 PUSH2 0x716A JUMP JUMPDEST PUSH1 0x40 MLOAD DUP1 SWAP2 SUB SWAP1 RETURN JUMPDEST PUSH2 0x640 PUSH1 0x4 DUP1 CALLDATASIZE SUB DUP2 ADD SWAP1 PUSH2 0x63B SWAP2 SWAP1 PUSH2 0x7C3F JUMP JUMPDEST PUSH2 0x32C3 JUMP JUMPDEST STOP JUMPDEST PUSH2 0x64A PUSH2 0x36C1 JUMP JUMPDEST PUSH1 0x40 MLOAD PUSH2 0x657 SWAP2 SWAP1 PUSH2 0x72FE JUMP JUMPDEST PUSH1 0x40 MLOAD DUP1 SWAP2 SUB SWAP1 RETURN JUMPDEST PUSH2 0x67A PUSH1 0x4 DUP1 CALLDATASIZE SUB DUP2 ADD SWAP1 PUSH2 0x675 SWAP2 SWAP1 PUSH2 0x7268 JUMP JUMPDEST PUSH2 0x36C8 JUMP JUMPDEST PUSH1 0x40 MLOAD PUSH2 0x687 SWAP2 SWAP1 PUSH2 0x7CDE JUMP JUMPDEST PUSH1 0x40 MLOAD DUP1 SWAP2 SUB SWAP1 RETURN JUMPDEST PUSH2 0x6AA PUSH1 0x4 DUP1 CALLDATASIZE SUB DUP2 ADD SWAP1 PUSH2 0x6A5 SWAP2 SWAP1 PUSH2 0x76E8 JUMP JUMPDEST PUSH2 0x373A JUMP JUMPDEST STOP JUMPDEST PUSH2 0x6B4 PUSH2 0x419B JUMP JUMPDEST PUSH1 0x40 MLOAD PUSH2 0x6C1 SWAP2 SWAP1 PUSH2 0x72FE JUMP JUMPDEST PUSH1 0x40 MLOAD DUP1 SWAP2 SUB SWAP1 RETURN JUMPDEST PUSH2 0x6E4 PUSH1 0x4 DUP1 CALLDATASIZE SUB DUP2 ADD SWAP1 PUSH2 0x6DF SWAP2 SWAP1 PUSH2 0x7439 JUMP JUMPDEST PUSH2 0x41BF JUMP JUMPDEST PUSH1 0x40 MLOAD PUSH2 0x6F1 SWAP2 SWAP1 PUSH2 0x7CDE JUMP JUMPDEST PUSH1 0x40 MLOAD DUP1 SWAP2 SUB SWAP1 RETURN JUMPDEST PUSH2 0x714 PUSH1 0x4 DUP1 CALLDATASIZE SUB DUP2 ADD SWAP1 PUSH2 0x70F SWAP2 SWAP1 PUSH2 0x7C3F JUMP JUMPDEST PUSH2 0x42BC JUMP JUMPDEST STOP JUMPDEST PUSH2 0x71E PUSH2 0x44FF JUMP JUMPDEST PUSH1 0x40 MLOAD PUSH2 0x72B SWAP2 SWAP1 PUSH2 0x716A JUMP JUMPDEST PUSH1 0x40 MLOAD DUP1 SWAP2 SUB SWAP1 RETURN JUMPDEST PUSH2 0x74E PUSH1 0x4 DUP1 CALLDATASIZE SUB DUP2 ADD SWAP1 PUSH2 0x749 SWAP2 SWAP1 PUSH2 0x74BE JUMP JUMPDEST PUSH2 0x4504 JUMP JUMPDEST STOP JUMPDEST PUSH2 0x76A PUSH1 0x4 DUP1 CALLDATASIZE SUB DUP2 ADD SWAP1 PUSH2 0x765 SWAP2 SWAP1 PUSH2 0x7319 JUMP JUMPDEST PUSH2 0x50B1 JUMP JUMPDEST STOP JUMPDEST PUSH2 0x786 PUSH1 0x4 DUP1 CALLDATASIZE SUB DUP2 ADD SWAP1 PUSH2 0x781 SWAP2 SWAP1 PUSH2 0x7268 JUMP JUMPDEST PUSH2 0x50D2 JUMP JUMPDEST PUSH1 0x40 MLOAD PUSH2 0x797 SWAP6 SWAP5 SWAP4 SWAP3 SWAP2 SWAP1 PUSH2 0x7CF9 JUMP JUMPDEST PUSH1 0x40 MLOAD DUP1 SWAP2 SUB SWAP1 RETURN JUMPDEST PUSH2 0x7BA PUSH1 0x4 DUP1 CALLDATASIZE SUB DUP2 ADD SWAP1 PUSH2 0x7B5 SWAP2 SWAP1 PUSH2 0x702F JUMP JUMPDEST PUSH2 0x52B3 JUMP JUMPDEST PUSH1 0x40 MLOAD PUSH2 0x7C7 SWAP2 SWAP1 PUSH2 0x7CDE JUMP JUMPDEST PUSH1 0x40 MLOAD DUP1 SWAP2 SUB SWAP1 RETURN JUMPDEST PUSH2 0x7D8 PUSH2 0x52D7 JUMP JUMPDEST PUSH1 0x40 MLOAD PUSH2 0x7E5 SWAP2 SWAP1 PUSH2 0x72FE JUMP JUMPDEST PUSH1 0x40 MLOAD DUP1 SWAP2 SUB SWAP1 RETURN JUMPDEST PUSH2 0x808 PUSH1 0x4 DUP1 CALLDATASIZE SUB DUP2 ADD SWAP1 PUSH2 0x803 SWAP2 SWAP1 PUSH2 0x702F JUMP JUMPDEST PUSH2 0x52FB JUMP JUMPDEST PUSH1 0x40 MLOAD PUSH2 0x815 SWAP2 SWAP1 PUSH2 0x7D4C JUMP JUMPDEST PUSH1 0x40 MLOAD DUP1 SWAP2 SUB SWAP1 RETURN JUMPDEST PUSH1 0x0 PUSH32 0x7965DB0B00000000000000000000000000000000000000000000000000000000 PUSH28 0xFFFFFFFFFFFFFFFFFFFFFFFFFFFFFFFFFFFFFFFFFFFFFFFFFFFFFFFF NOT AND DUP3 PUSH28 0xFFFFFFFFFFFFFFFFFFFFFFFFFFFFFFFFFFFFFFFFFFFFFFFFFFFFFFFF NOT AND EQ DUP1 PUSH2 0x891 JUMPI POP PUSH2 0x890 DUP3 PUSH2 0x544B JUMP JUMPDEST JUMPDEST SWAP1 POP SWAP2 SWAP1 POP JUMP JUMPDEST PUSH2 0x8AC PUSH8 0xFC92D0035D00688E PUSH1 0xC0 SHL PUSH2 0x54B5 JUMP JUMPDEST PUSH2 0x8C0 PUSH8 0xE5A91BFC65F0C4B1 PUSH1 0xC0 SHL PUSH2 0x54B5 JUMP JUMPDEST PUSH2 0x8D4 PUSH8 0x4900A3687504079C PUSH1 0xC0 SHL PUSH2 0x54B5 JUMP JUMPDEST PUSH2 0x8E8 PUSH8 0x4FCE23AE6BB9DC7F PUSH1 0xC0 SHL PUSH2 0x54B5 JUMP JUMPDEST PUSH2 0x912 PUSH32 0xD646AE07EB0D0F77457502A65E7407930DFF4CD4FD99ABC6AAC87A753F4C8A42 CALLER PUSH2 0x323C JUMP JUMPDEST PUSH2 0x951 JUMPI PUSH1 0x40 MLOAD PUSH32 0x8C379A000000000000000000000000000000000000000000000000000000000 DUP2 MSTORE PUSH1 0x4 ADD PUSH2 0x948 SWAP1 PUSH2 0x7DBA JUMP JUMPDEST PUSH1 0x40 MLOAD DUP1 SWAP2 SUB SWAP1 REVERT JUMPDEST PUSH2 0x965 PUSH8 0xA37F82E1AE7B555D PUSH1 0xC0 SHL PUSH2 0x54B5 JUMP JUMPDEST PUSH2 0x979 PUSH8 0xDB9F0C54E2940744 PUSH1 0xC0 SHL PUSH2 0x54B5 JUMP JUMPDEST PUSH2 0x98D PUSH8 0xE392881A64B85DD9 PUSH1 0xC0 SHL PUSH2 0x54B5 JUMP JUMPDEST PUSH2 0x9A1 PUSH8 0x3B69B5F7DA0FC985 PUSH1 0xC0 SHL PUSH2 0x54B5 JUMP JUMPDEST PUSH1 0x0 DUP3 GT PUSH2 0x9E4 JUMPI PUSH1 0x40 MLOAD PUSH32 0x8C379A000000000000000000000000000000000000000000000000000000000 DUP2 MSTORE PUSH1 0x4 ADD PUSH2 0x9DB SWAP1 PUSH2 0x7E26 JUMP JUMPDEST PUSH1 0x40 MLOAD DUP1 SWAP2 SUB SWAP1 REVERT JUMPDEST PUSH2 0x9F8 PUSH8 0x39878FDC39193A5C PUSH1 0xC0 SHL PUSH2 0x54B5 JUMP JUMPDEST PUSH2 0xA0C PUSH8 0xEFD429D53DEA2462 PUSH1 0xC0 SHL PUSH2 0x54B5 JUMP JUMPDEST PUSH2 0xA20 PUSH8 0xEF5C68BAD402A4E0 PUSH1 0xC0 SHL PUSH2 0x54B5 JUMP JUMPDEST PUSH2 0xA34 PUSH8 0xB55B9F6D9D1026AF PUSH1 0xC0 SHL PUSH2 0x54B5 JUMP JUMPDEST PUSH1 0x0 PUSH1 0x1 PUSH1 0x0 DUP5 DUP2 MSTORE PUSH1 0x20 ADD SWAP1 DUP2 MSTORE PUSH1 0x20 ADD PUSH1 0x0 KECCAK256 PUSH1 0x0 ADD SLOAD SUB PUSH2 0xA8D JUMPI PUSH1 0x40 MLOAD PUSH32 0x8C379A000000000000000000000000000000000000000000000000000000000 DUP2 MSTORE PUSH1 0x4 ADD PUSH2 0xA84 SWAP1 PUSH2 0x7E92 JUMP JUMPDEST PUSH1 0x40 MLOAD DUP1 SWAP2 SUB SWAP1 REVERT JUMPDEST PUSH2 0xAA1 PUSH8 0xC7765049F91A4EF7 PUSH1 0xC0 SHL PUSH2 0x54B5 JUMP JUMPDEST PUSH2 0xAB5 PUSH8 0xA6D489319A22F360 PUSH1 0xC0 SHL PUSH2 0x54B5 JUMP JUMPDEST PUSH2 0xAC9 PUSH8 0xA5644B271BDEBD05 PUSH1 0xC0 SHL PUSH2 0x54B5 JUMP JUMPDEST PUSH1 0x0 DUP3 PUSH1 0x40 MLOAD PUSH1 0x20 ADD PUSH2 0xADC SWAP2 SWAP1 PUSH2 0x7F2A JUMP JUMPDEST PUSH1 0x40 MLOAD PUSH1 0x20 DUP2 DUP4 SUB SUB DUP2 MSTORE SWAP1 PUSH1 0x40 MSTORE DUP1 MLOAD SWAP1 PUSH1 0x20 ADD KECCAK256 SWAP1 POP PUSH2 0xB08 PUSH8 0x73766D50C37AE174 PUSH1 0xC0 SHL PUSH2 0x54B5 JUMP JUMPDEST PUSH2 0xB1C PUSH8 0x8B979D26B761488E PUSH1 0xC0 SHL PUSH2 0x54B5 JUMP JUMPDEST PUSH2 0xB6E DUP2 PUSH32 0xD646AE07EB0D0F77457502A65E7407930DFF4CD4FD99ABC6AAC87A753F4C8A42 PUSH2 0xB4A DUP7 PUSH2 0x54B8 JUMP JUMPDEST PUSH1 0x40 MLOAD PUSH1 0x20 ADD PUSH2 0xB5A SWAP2 SWAP1 PUSH2 0x7FA7 JUMP JUMPDEST PUSH1 0x40 MLOAD PUSH1 0x20 DUP2 DUP4 SUB SUB DUP2 MSTORE SWAP1 PUSH1 0x40 MSTORE PUSH2 0x5586 JUMP JUMPDEST PUSH2 0xB82 PUSH8 0x4773B74CA2DFD977 PUSH1 0xC0 SHL PUSH2 0x54B5 JUMP JUMPDEST PUSH2 0xB96 PUSH8 0x3A3C8E3B93C77FD7 PUSH1 0xC0 SHL PUSH2 0x54B5 JUMP JUMPDEST DUP2 DUP1 ISZERO PUSH2 0xC07 JUMPI POP PUSH1 0x0 ISZERO ISZERO PUSH1 0x4 PUSH1 0x0 DUP4 DUP2 MSTORE PUSH1 0x20 ADD SWAP1 DUP2 MSTORE PUSH1 0x20 ADD PUSH1 0x0 KECCAK256 PUSH1 0x3 ADD PUSH1 0x0 CALLER PUSH20 0xFFFFFFFFFFFFFFFFFFFFFFFFFFFFFFFFFFFFFFFF AND PUSH20 0xFFFFFFFFFFFFFFFFFFFFFFFFFFFFFFFFFFFFFFFF AND DUP2 MSTORE PUSH1 0x20 ADD SWAP1 DUP2 MSTORE PUSH1 0x20 ADD PUSH1 0x0 KECCAK256 PUSH1 0x0 SWAP1 SLOAD SWAP1 PUSH2 0x100 EXP SWAP1 DIV PUSH1 0xFF AND ISZERO ISZERO EQ JUMPDEST ISZERO PUSH2 0xCC8 JUMPI PUSH2 0xC20 PUSH8 0xDE5B5A61926C36C9 PUSH1 0xC0 SHL PUSH2 0x54B5 JUMP JUMPDEST PUSH2 0xC34 PUSH8 0xFBA3334237611515 PUSH1 0xC0 SHL PUSH2 0x54B5 JUMP JUMPDEST PUSH2 0xC48 PUSH8 0xA458FC201C41F2EB PUSH1 0xC0 SHL PUSH2 0x54B5 JUMP JUMPDEST PUSH2 0xC64 PUSH1 0x4 PUSH1 0x0 DUP4 DUP2 MSTORE PUSH1 0x20 ADD SWAP1 DUP2 MSTORE PUSH1 0x20 ADD PUSH1 0x0 KECCAK256 CALLER PUSH2 0x572A JUMP JUMPDEST PUSH2 0xC78 PUSH8 0x32E4132DAD121900 PUSH1 0xC0 SHL PUSH2 0x54B5 JUMP JUMPDEST PUSH2 0xC8C PUSH8 0x5903462AB1321CAC PUSH1 0xC0 SHL PUSH2 0x54B5 JUMP JUMPDEST PUSH32 0xB431A69783A2491A0C400FF16DAB32CD442ABF8FE5AF63A526A7248D730192F8 DUP2 PUSH1 0x40 MLOAD PUSH2 0xCBB SWAP2 SWAP1 PUSH2 0x72FE JUMP JUMPDEST PUSH1 0x40 MLOAD DUP1 SWAP2 SUB SWAP1 LOG1 PUSH2 0xDCE JUMP JUMPDEST PUSH2 0xCDC PUSH8 0x95A317EC06F83C10 PUSH1 0xC0 SHL PUSH2 0x54B5 JUMP JUMPDEST PUSH2 0xCF0 PUSH8 0xB1D4635B098CE77A PUSH1 0xC0 SHL PUSH2 0x54B5 JUMP JUMPDEST PUSH1 0x0 ISZERO ISZERO DUP3 ISZERO ISZERO SUB PUSH2 0xDB8 JUMPI PUSH2 0xD10 PUSH8 0xA0B843672511AB55 PUSH1 0xC0 SHL PUSH2 0x54B5 JUMP JUMPDEST PUSH2 0xD24 PUSH8 0x7C7927E4B5BD48F4 PUSH1 0xC0 SHL PUSH2 0x54B5 JUMP JUMPDEST PUSH2 0xD38 PUSH8 0xA4EBBAF8FAAC82D2 PUSH1 0xC0 SHL PUSH2 0x54B5 JUMP JUMPDEST PUSH2 0xD54 PUSH1 0x4 PUSH1 0x0 DUP4 DUP2 MSTORE PUSH1 0x20 ADD SWAP1 DUP2 MSTORE PUSH1 0x20 ADD PUSH1 0x0 KECCAK256 CALLER PUSH2 0x59AC JUMP JUMPDEST PUSH2 0xD68 PUSH8 0x97B47E77A9A7B3FC PUSH1 0xC0 SHL PUSH2 0x54B5 JUMP JUMPDEST PUSH2 0xD7C PUSH8 0x758438FA606727D9 PUSH1 0xC0 SHL PUSH2 0x54B5 JUMP JUMPDEST PUSH32 0xB431A69783A2491A0C400FF16DAB32CD442ABF8FE5AF63A526A7248D730192F8 DUP2 PUSH1 0x40 MLOAD PUSH2 0xDAB SWAP2 SWAP1 PUSH2 0x72FE JUMP JUMPDEST PUSH1 0x40 MLOAD DUP1 SWAP2 SUB SWAP1 LOG1 PUSH2 0xDCD JUMP JUMPDEST PUSH2 0xDCC PUSH8 0x589E0C39053CAD26 PUSH1 0xC0 SHL PUSH2 0x54B5 JUMP JUMPDEST JUMPDEST JUMPDEST PUSH2 0xDE2 PUSH8 0x59DE4F2A505F6C6D PUSH1 0xC0 SHL PUSH2 0x54B5 JUMP JUMPDEST PUSH2 0xDF6 PUSH8 0x6D4A2D08A14EA231 PUSH1 0xC0 SHL PUSH2 0x54B5 JUMP JUMPDEST PUSH2 0xE5C PUSH1 0x50 PUSH1 0xFF AND PUSH1 0x3 PUSH1 0x0 PUSH32 0xD646AE07EB0D0F77457502A65E7407930DFF4CD4FD99ABC6AAC87A753F4C8A42 DUP2 MSTORE PUSH1 0x20 ADD SWAP1 DUP2 MSTORE PUSH1 0x20 ADD PUSH1 0x0 KECCAK256 PUSH1 0x0 ADD PUSH1 0x0 SWAP1 SLOAD SWAP1 PUSH2 0x100 EXP SWAP1 DIV PUSH4 0xFFFFFFFF AND PUSH2 0xE4F SWAP2 SWAP1 PUSH2 0x800C JUMP JUMPDEST PUSH4 0xFFFFFFFF AND PUSH1 0x64 PUSH2 0x41BF JUMP JUMPDEST PUSH1 0x4 PUSH1 0x0 DUP4 DUP2 MSTORE PUSH1 0x20 ADD SWAP1 DUP2 MSTORE PUSH1 0x20 ADD PUSH1 0x0 KECCAK256 PUSH1 0x2 ADD PUSH1 0x0 SWAP1 SLOAD SWAP1 PUSH2 0x100 EXP SWAP1 DIV PUSH1 0xFF AND PUSH1 0xFF AND LT PUSH2 0xF74 JUMPI PUSH2 0xE9C PUSH8 0xC3B37424D9C469D0 PUSH1 0xC0 SHL PUSH2 0x54B5 JUMP JUMPDEST PUSH2 0xEB0 PUSH8 0x740CE2464856C2B3 PUSH1 0xC0 SHL PUSH2 0x54B5 JUMP JUMPDEST PUSH2 0xEC4 PUSH8 0x6AE93F6BF114C2F7 PUSH1 0xC0 SHL PUSH2 0x54B5 JUMP JUMPDEST PUSH2 0xEDF PUSH1 0x4 PUSH1 0x0 DUP4 DUP2 MSTORE PUSH1 0x20 ADD SWAP1 DUP2 MSTORE PUSH1 0x20 ADD PUSH1 0x0 KECCAK256 PUSH2 0x5B64 JUMP JUMPDEST PUSH2 0xEF3 PUSH8 0x7A7ED0C4E5844014 PUSH1 0xC0 SHL PUSH2 0x54B5 JUMP JUMPDEST PUSH2 0xF07 PUSH8 0x45D4F9869D13660B PUSH1 0xC0 SHL PUSH2 0x54B5 JUMP JUMPDEST PUSH32 0x562618DBCF74B61AE5B0F229FE40BA6D5B6AE6B4248F8C89A870DDA7C77135F6 DUP2 PUSH1 0x40 MLOAD PUSH2 0xF36 SWAP2 SWAP1 PUSH2 0x72FE JUMP JUMPDEST PUSH1 0x40 MLOAD DUP1 SWAP2 SUB SWAP1 LOG1 PUSH2 0xF52 PUSH8 0x1CBDD7ADD0B2DD5C PUSH1 0xC0 SHL PUSH2 0x54B5 JUMP JUMPDEST PUSH2 0xF66 PUSH8 0xF2A3B9BA0BC2281E PUSH1 0xC0 SHL PUSH2 0x54B5 JUMP JUMPDEST PUSH2 0xF6F DUP4 PUSH2 0x5CB1 JUMP JUMPDEST PUSH2 0xF89 JUMP JUMPDEST PUSH2 0xF88 PUSH8 0x9859BE0913BC1E17 PUSH1 0xC0 SHL PUSH2 0x54B5 JUMP JUMPDEST JUMPDEST POP POP POP JUMP JUMPDEST PUSH1 0x1 PUSH1 0x20 MSTORE DUP1 PUSH1 0x0 MSTORE PUSH1 0x40 PUSH1 0x0 KECCAK256 PUSH1 0x0 SWAP2 POP SWAP1 POP DUP1 PUSH1 0x0 ADD SLOAD SWAP1 DUP1 PUSH1 0x1 ADD DUP1 SLOAD PUSH2 0xFB7 SWAP1 PUSH2 0x8078 JUMP JUMPDEST DUP1 PUSH1 0x1F ADD PUSH1 0x20 DUP1 SWAP2 DIV MUL PUSH1 0x20 ADD PUSH1 0x40 MLOAD SWAP1 DUP2 ADD PUSH1 0x40 MSTORE DUP1 SWAP3 SWAP2 SWAP1 DUP2 DUP2 MSTORE PUSH1 0x20 ADD DUP3 DUP1 SLOAD PUSH2 0xFE3 SWAP1 PUSH2 0x8078 JUMP JUMPDEST DUP1 ISZERO PUSH2 0x1030 JUMPI DUP1 PUSH1 0x1F LT PUSH2 0x1005 JUMPI PUSH2 0x100 DUP1 DUP4 SLOAD DIV MUL DUP4 MSTORE SWAP2 PUSH1 0x20 ADD SWAP2 PUSH2 0x1030 JUMP JUMPDEST DUP3 ADD SWAP2 SWAP1 PUSH1 0x0 MSTORE PUSH1 0x20 PUSH1 0x0 KECCAK256 SWAP1 JUMPDEST DUP2 SLOAD DUP2 MSTORE SWAP1 PUSH1 0x1 ADD SWAP1 PUSH1 0x20 ADD DUP1 DUP4 GT PUSH2 0x1013 JUMPI DUP3 SWAP1 SUB PUSH1 0x1F AND DUP3 ADD SWAP2 JUMPDEST POP POP POP POP POP SWAP1 DUP1 PUSH1 0x2 ADD DUP1 SLOAD PUSH2 0x1045 SWAP1 PUSH2 0x8078 JUMP JUMPDEST DUP1 PUSH1 0x1F ADD PUSH1 0x20 DUP1 SWAP2 DIV MUL PUSH1 0x20 ADD PUSH1 0x40 MLOAD SWAP1 DUP2 ADD PUSH1 0x40 MSTORE DUP1 SWAP3 SWAP2 SWAP1 DUP2 DUP2 MSTORE PUSH1 0x20 ADD DUP3 DUP1 SLOAD PUSH2 0x1071 SWAP1 PUSH2 0x8078 JUMP JUMPDEST DUP1 ISZERO PUSH2 0x10BE JUMPI DUP1 PUSH1 0x1F LT PUSH2 0x1093 JUMPI PUSH2 0x100 DUP1 DUP4 SLOAD DIV MUL DUP4 MSTORE SWAP2 PUSH1 0x20 ADD SWAP2 PUSH2 0x10BE JUMP JUMPDEST DUP3 ADD SWAP2 SWAP1 PUSH1 0x0 MSTORE PUSH1 0x20 PUSH1 0x0 KECCAK256 SWAP1 JUMPDEST DUP2 SLOAD DUP2 MSTORE SWAP1 PUSH1 0x1 ADD SWAP1 PUSH1 0x20 ADD DUP1 DUP4 GT PUSH2 0x10A1 JUMPI DUP3 SWAP1 SUB PUSH1 0x1F AND DUP3 ADD SWAP2 JUMPDEST POP POP POP POP POP SWAP1 DUP1 PUSH1 0x3 ADD SLOAD SWAP1 POP DUP5 JUMP JUMPDEST PUSH1 0x50 DUP2 JUMP JUMPDEST PUSH1 0x60 PUSH2 0x10E9 PUSH8 0xC6C2A97E3FCE25A4 PUSH1 0xC0 SHL PUSH2 0x5E93 JUMP JUMPDEST PUSH2 0x10FD PUSH8 0x8B9003F646295271 PUSH1 0xC0 SHL PUSH2 0x5E93 JUMP JUMPDEST PUSH2 0x1111 PUSH8 0x9A3115C808DB2957 PUSH1 0xC0 SHL PUSH2 0x5E93 JUMP JUMPDEST PUSH1 0x0 DUP3 PUSH20 0xFFFFFFFFFFFFFFFFFFFFFFFFFFFFFFFFFFFFFFFF AND PUSH1 0x0 SHL SWAP1 POP PUSH2 0x1143 PUSH8 0xDE4B0ED40E055664 PUSH1 0xC0 SHL PUSH2 0x5E93 JUMP JUMPDEST PUSH2 0x1157 PUSH8 0x10D85F562CDA14C4 PUSH1 0xC0 SHL PUSH2 0x5E93 JUMP JUMPDEST PUSH1 0x0 PUSH1 0x40 MLOAD DUP1 PUSH1 0x40 ADD PUSH1 0x40 MSTORE DUP1 PUSH1 0x10 DUP2 MSTORE PUSH1 0x20 ADD PUSH32 0x3031323334353637383961626364656600000000000000000000000000000000 DUP2 MSTORE POP SWAP1 POP PUSH2 0x11A5 PUSH8 0x340AFE87CD14D3FB PUSH1 0xC0 SHL PUSH2 0x5E93 JUMP JUMPDEST PUSH2 0x11B9 PUSH8 0xFDCF0D66DA28A436 PUSH1 0xC0 SHL PUSH2 0x5E93 JUMP JUMPDEST PUSH1 0x0 PUSH1 0x2A PUSH8 0xFFFFFFFFFFFFFFFF DUP2 GT ISZERO PUSH2 0x11D6 JUMPI PUSH2 0x11D5 PUSH2 0x7B14 JUMP JUMPDEST JUMPDEST PUSH1 0x40 MLOAD SWAP1 DUP1 DUP3 MSTORE DUP1 PUSH1 0x1F ADD PUSH1 0x1F NOT AND PUSH1 0x20 ADD DUP3 ADD PUSH1 0x40 MSTORE DUP1 ISZERO PUSH2 0x1208 JUMPI DUP2 PUSH1 0x20 ADD PUSH1 0x1 DUP3 MUL DUP1 CALLDATASIZE DUP4 CALLDATACOPY DUP1 DUP3 ADD SWAP2 POP POP SWAP1 POP JUMPDEST POP SWAP1 POP PUSH2 0x121F PUSH8 0xFAB9F092363F74B0 PUSH1 0xC0 SHL PUSH2 0x5E93 JUMP JUMPDEST PUSH32 0x3000000000000000000000000000000000000000000000000000000000000000 DUP2 PUSH1 0x0 DUP2 MLOAD DUP2 LT PUSH2 0x1254 JUMPI PUSH2 0x1253 PUSH2 0x80A9 JUMP JUMPDEST JUMPDEST PUSH1 0x20 ADD ADD SWAP1 PUSH31 0xFFFFFFFFFFFFFFFFFFFFFFFFFFFFFFFFFFFFFFFFFFFFFFFFFFFFFFFFFFFFFF NOT AND SWAP1 DUP2 PUSH1 0x0 BYTE SWAP1 MSTORE8 POP PUSH2 0x1297 PUSH8 0xED9FCEC2DD0E5562 PUSH1 0xC0 SHL PUSH2 0x5E93 JUMP JUMPDEST PUSH32 0x7800000000000000000000000000000000000000000000000000000000000000 DUP2 PUSH1 0x1 DUP2 MLOAD DUP2 LT PUSH2 0x12CC JUMPI PUSH2 0x12CB PUSH2 0x80A9 JUMP JUMPDEST JUMPDEST PUSH1 0x20 ADD ADD SWAP1 PUSH31 0xFFFFFFFFFFFFFFFFFFFFFFFFFFFFFFFFFFFFFFFFFFFFFFFFFFFFFFFFFFFFFF NOT AND SWAP1 DUP2 PUSH1 0x0 BYTE SWAP1 MSTORE8 POP PUSH2 0x130F PUSH8 0xDA9C01A3A26884FC PUSH1 0xC0 SHL PUSH2 0x5E93 JUMP JUMPDEST PUSH2 0x1323 PUSH8 0xCEE081367D156C8B PUSH1 0xC0 SHL PUSH2 0x5E93 JUMP JUMPDEST PUSH1 0x0 JUMPDEST PUSH1 0x14 DUP2 LT ISZERO PUSH2 0x14D6 JUMPI PUSH2 0x1343 PUSH8 0x25A4132E77404C0B PUSH1 0xC0 SHL PUSH2 0x5E93 JUMP JUMPDEST DUP3 PUSH1 0x4 DUP6 PUSH1 0xC DUP5 PUSH2 0x1354 SWAP2 SWAP1 PUSH2 0x80D8 JUMP JUMPDEST PUSH1 0x20 DUP2 LT PUSH2 0x1365 JUMPI PUSH2 0x1364 PUSH2 0x80A9 JUMP JUMPDEST JUMPDEST BYTE PUSH1 0xF8 SHL PUSH31 0xFFFFFFFFFFFFFFFFFFFFFFFFFFFFFFFFFFFFFFFFFFFFFFFFFFFFFFFFFFFFFF NOT AND SWAP1 SHR PUSH1 0xF8 SHR PUSH1 0xFF AND DUP2 MLOAD DUP2 LT PUSH2 0x13A4 JUMPI PUSH2 0x13A3 PUSH2 0x80A9 JUMP JUMPDEST JUMPDEST PUSH1 0x20 ADD ADD MLOAD PUSH1 0xF8 SHR PUSH1 0xF8 SHL DUP3 PUSH1 0x2 DUP4 PUSH2 0x13BD SWAP2 SWAP1 PUSH2 0x810C JUMP JUMPDEST PUSH1 0x2 PUSH2 0x13C9 SWAP2 SWAP1 PUSH2 0x80D8 JUMP JUMPDEST DUP2 MLOAD DUP2 LT PUSH2 0x13DA JUMPI PUSH2 0x13D9 PUSH2 0x80A9 JUMP JUMPDEST JUMPDEST PUSH1 0x20 ADD ADD SWAP1 PUSH31 0xFFFFFFFFFFFFFFFFFFFFFFFFFFFFFFFFFFFFFFFFFFFFFFFFFFFFFFFFFFFFFF NOT AND SWAP1 DUP2 PUSH1 0x0 BYTE SWAP1 MSTORE8 POP PUSH2 0x141D PUSH8 0x70A8741B582A3340 PUSH1 0xC0 SHL PUSH2 0x5E93 JUMP JUMPDEST DUP3 PUSH1 0xF PUSH1 0xF8 SHL DUP6 PUSH1 0xC DUP5 PUSH2 0x1431 SWAP2 SWAP1 PUSH2 0x80D8 JUMP JUMPDEST PUSH1 0x20 DUP2 LT PUSH2 0x1442 JUMPI PUSH2 0x1441 PUSH2 0x80A9 JUMP JUMPDEST JUMPDEST BYTE PUSH1 0xF8 SHL AND PUSH1 0xF8 SHR PUSH1 0xFF AND DUP2 MLOAD DUP2 LT PUSH2 0x145E JUMPI PUSH2 0x145D PUSH2 0x80A9 JUMP JUMPDEST JUMPDEST PUSH1 0x20 ADD ADD MLOAD PUSH1 0xF8 SHR PUSH1 0xF8 SHL DUP3 PUSH1 0x2 DUP4 PUSH2 0x1477 SWAP2 SWAP1 PUSH2 0x810C JUMP JUMPDEST PUSH1 0x3 PUSH2 0x1483 SWAP2 SWAP1 PUSH2 0x80D8 JUMP JUMPDEST DUP2 MLOAD DUP2 LT PUSH2 0x1494 JUMPI PUSH2 0x1493 PUSH2 0x80A9 JUMP JUMPDEST JUMPDEST PUSH1 0x20 ADD ADD SWAP1 PUSH31 0xFFFFFFFFFFFFFFFFFFFFFFFFFFFFFFFFFFFFFFFFFFFFFFFFFFFFFFFFFFFFFF NOT AND SWAP1 DUP2 PUSH1 0x0 BYTE SWAP1 MSTORE8 POP DUP1 DUP1 PUSH2 0x14CE SWAP1 PUSH2 0x814E JUMP JUMPDEST SWAP2 POP POP PUSH2 0x1326 JUMP JUMPDEST POP PUSH2 0x14EB PUSH8 0xE337D3BB0E02809D PUSH1 0xC0 SHL PUSH2 0x5E93 JUMP JUMPDEST PUSH2 0x14FF PUSH8 0x9F8EFC402A44A4F9 PUSH1 0xC0 SHL PUSH2 0x5E93 JUMP JUMPDEST DUP1 SWAP4 POP POP POP POP SWAP2 SWAP1 POP JUMP JUMPDEST PUSH1 0x4 PUSH1 0x20 MSTORE DUP1 PUSH1 0x0 MSTORE PUSH1 0x40 PUSH1 0x0 KECCAK256 PUSH1 0x0 SWAP2 POP SWAP1 POP DUP1 PUSH1 0x0 ADD PUSH1 0x0 SWAP1 SLOAD SWAP1 PUSH2 0x100 EXP SWAP1 DIV PUSH1 0xFF AND SWAP1 DUP1 PUSH1 0x1 ADD SLOAD SWAP1 DUP1 PUSH1 0x2 ADD PUSH1 0x0 SWAP1 SLOAD SWAP1 PUSH2 0x100 EXP SWAP1 DIV PUSH1 0xFF AND SWAP1 DUP1 PUSH1 0x2 ADD PUSH1 0x1 SWAP1 SLOAD SWAP1 PUSH2 0x100 EXP SWAP1 DIV PUSH1 0xFF AND SWAP1 DUP1 PUSH1 0x5 ADD DUP1 SLOAD PUSH2 0x156C SWAP1 PUSH2 0x8078 JUMP JUMPDEST DUP1 PUSH1 0x1F ADD PUSH1 0x20 DUP1 SWAP2 DIV MUL PUSH1 0x20 ADD PUSH1 0x40 MLOAD SWAP1 DUP2 ADD PUSH1 0x40 MSTORE DUP1 SWAP3 SWAP2 SWAP1 DUP2 DUP2 MSTORE PUSH1 0x20 ADD DUP3 DUP1 SLOAD PUSH2 0x1598 SWAP1 PUSH2 0x8078 JUMP JUMPDEST DUP1 ISZERO PUSH2 0x15E5 JUMPI DUP1 PUSH1 0x1F LT PUSH2 0x15BA JUMPI PUSH2 0x100 DUP1 DUP4 SLOAD DIV MUL DUP4 MSTORE SWAP2 PUSH1 0x20 ADD SWAP2 PUSH2 0x15E5 JUMP JUMPDEST DUP3 ADD SWAP2 SWAP1 PUSH1 0x0 MSTORE PUSH1 0x20 PUSH1 0x0 KECCAK256 SWAP1 JUMPDEST DUP2 SLOAD DUP2 MSTORE SWAP1 PUSH1 0x1 ADD SWAP1 PUSH1 0x20 ADD DUP1 DUP4 GT PUSH2 0x15C8 JUMPI DUP3 SWAP1 SUB PUSH1 0x1F AND DUP3 ADD SWAP2 JUMPDEST POP POP POP POP POP SWAP1 POP DUP6 JUMP JUMPDEST PUSH1 0x50 DUP2 JUMP JUMPDEST PUSH1 0x0 DUP1 PUSH1 0x0 DUP4 DUP2 MSTORE PUSH1 0x20 ADD SWAP1 DUP2 MSTORE PUSH1 0x20 ADD PUSH1 0x0 KECCAK256 PUSH1 0x1 ADD SLOAD SWAP1 POP SWAP2 SWAP1 POP JUMP JUMPDEST PUSH1 0x50 DUP2 JUMP JUMPDEST PUSH2 0x1621 DUP3 PUSH2 0x15F4 JUMP JUMPDEST PUSH2 0x162A DUP2 PUSH2 0x5E96 JUMP JUMPDEST PUSH2 0x1634 DUP4 DUP4 PUSH2 0x5EAA JUMP JUMPDEST POP POP POP JUMP JUMPDEST PUSH1 0x2 DUP2 JUMP JUMPDEST PUSH2 0x1652 PUSH8 0x515D414290EF63A7 PUSH1 0xC0 SHL PUSH2 0x54B5 JUMP JUMPDEST PUSH2 0x1666 PUSH8 0x408D4005470649CF PUSH1 0xC0 SHL PUSH2 0x54B5 JUMP JUMPDEST PUSH2 0x167A PUSH8 0x9C54A3CC10A34A3D PUSH1 0xC0 SHL PUSH2 0x54B5 JUMP JUMPDEST PUSH1 0x40 MLOAD PUSH32 0x8C379A000000000000000000000000000000000000000000000000000000000 DUP2 MSTORE PUSH1 0x4 ADD PUSH2 0x16AC SWAP1 PUSH2 0x8208 JUMP JUMPDEST PUSH1 0x40 MLOAD DUP1 SWAP2 SUB SWAP1 REVERT JUMPDEST PUSH1 0x60 PUSH2 0x16CB PUSH8 0xEFA82B5968256CC0 PUSH1 0xC0 SHL PUSH2 0x5F8A JUMP JUMPDEST PUSH2 0x16DF PUSH8 0x803A291D8AE6799F PUSH1 0xC0 SHL PUSH2 0x5F8A JUMP JUMPDEST PUSH2 0x16F3 PUSH8 0xF3DF4483E82D4C8D PUSH1 0xC0 SHL PUSH2 0x5F8A JUMP JUMPDEST PUSH1 0x2 DUP1 SLOAD DUP1 PUSH1 0x20 MUL PUSH1 0x20 ADD PUSH1 0x40 MLOAD SWAP1 DUP2 ADD PUSH1 0x40 MSTORE DUP1 SWAP3 SWAP2 SWAP1 DUP2 DUP2 MSTORE PUSH1 0x20 ADD DUP3 DUP1 SLOAD DUP1 ISZERO PUSH2 0x173F JUMPI PUSH1 0x20 MUL DUP3 ADD SWAP2 SWAP1 PUSH1 0x0 MSTORE PUSH1 0x20 PUSH1 0x0 KECCAK256 SWAP1 JUMPDEST DUP2 SLOAD DUP2 MSTORE PUSH1 0x20 ADD SWAP1 PUSH1 0x1 ADD SWAP1 DUP1 DUP4 GT PUSH2 0x172B JUMPI JUMPDEST POP POP POP POP POP SWAP1 POP SWAP1 JUMP JUMPDEST PUSH1 0x8 PUSH1 0x20 MSTORE DUP2 PUSH1 0x0 MSTORE PUSH1 0x40 PUSH1 0x0 KECCAK256 DUP2 DUP2 SLOAD DUP2 LT PUSH2 0x1765 JUMPI PUSH1 0x0 DUP1 REVERT JUMPDEST SWAP1 PUSH1 0x0 MSTORE PUSH1 0x20 PUSH1 0x0 KECCAK256 ADD PUSH1 0x0 SWAP2 POP SWAP2 POP POP SLOAD DUP2 JUMP JUMPDEST PUSH1 0x50 DUP2 JUMP JUMPDEST PUSH1 0xF DUP2 JUMP JUMPDEST PUSH1 0x60 DUP1 PUSH1 0x0 PUSH2 0x179D PUSH8 0x7CDB6EF5CBED1E3D PUSH1 0xC0 SHL PUSH2 0x5F8A JUMP JUMPDEST PUSH2 0x17B1 PUSH8 0x7F0CCEAAC7CFA9CE PUSH1 0xC0 SHL PUSH2 0x5F8A JUMP JUMPDEST PUSH2 0x17C5 PUSH8 0xD24E390819133229 PUSH1 0xC0 SHL PUSH2 0x5F8A JUMP JUMPDEST PUSH2 0x17D9 PUSH8 0x7BE0137893F7D8BE PUSH1 0xC0 SHL PUSH2 0x5F8A JUMP JUMPDEST PUSH1 0x0 PUSH1 0x1 PUSH1 0x0 DUP7 DUP2 MSTORE PUSH1 0x20 ADD SWAP1 DUP2 MSTORE PUSH1 0x20 ADD PUSH1 0x0 KECCAK256 PUSH1 0x0 ADD SLOAD SUB PUSH2 0x1832 JUMPI PUSH1 0x40 MLOAD PUSH32 0x8C379A000000000000000000000000000000000000000000000000000000000 DUP2 MSTORE PUSH1 0x4 ADD PUSH2 0x1829 SWAP1 PUSH2 0x8274 JUMP JUMPDEST PUSH1 0x40 MLOAD DUP1 SWAP2 SUB SWAP1 REVERT JUMPDEST PUSH2 0x1846 PUSH8 0x5CD447A5B617B780 PUSH1 0xC0 SHL PUSH2 0x5F8A JUMP JUMPDEST PUSH2 0x185A PUSH8 0xC2BA5CE93628C4D3 PUSH1 0xC0 SHL PUSH2 0x5F8A JUMP JUMPDEST PUSH2 0x186E PUSH8 0x85DF455A24FA248 PUSH1 0xC0 SHL PUSH2 0x5F8A JUMP JUMPDEST PUSH1 0x1 PUSH1 0x0 DUP6 DUP2 MSTORE PUSH1 0x20 ADD SWAP1 DUP2 MSTORE PUSH1 0x20 ADD PUSH1 0x0 KECCAK256 PUSH1 0x1 ADD PUSH1 0x1 PUSH1 0x0 DUP7 DUP2 MSTORE PUSH1 0x20 ADD SWAP1 DUP2 MSTORE PUSH1 0x20 ADD PUSH1 0x0 KECCAK256 PUSH1 0x2 ADD PUSH1 0x1 PUSH1 0x0 DUP8 DUP2 MSTORE PUSH1 0x20 ADD SWAP1 DUP2 MSTORE PUSH1 0x20 ADD PUSH1 0x0 KECCAK256 PUSH1 0x3 ADD SLOAD DUP3 DUP1 SLOAD PUSH2 0x18BD SWAP1 PUSH2 0x8078 JUMP JUMPDEST DUP1 PUSH1 0x1F ADD PUSH1 0x20 DUP1 SWAP2 DIV MUL PUSH1 0x20 ADD PUSH1 0x40 MLOAD SWAP1 DUP2 ADD PUSH1 0x40 MSTORE DUP1 SWAP3 SWAP2 SWAP1 DUP2 DUP2 MSTORE PUSH1 0x20 ADD DUP3 DUP1 SLOAD PUSH2 0x18E9 SWAP1 PUSH2 0x8078 JUMP JUMPDEST DUP1 ISZERO PUSH2 0x1936 JUMPI DUP1 PUSH1 0x1F LT PUSH2 0x190B JUMPI PUSH2 0x100 DUP1 DUP4 SLOAD DIV MUL DUP4 MSTORE SWAP2 PUSH1 0x20 ADD SWAP2 PUSH2 0x1936 JUMP JUMPDEST DUP3 ADD SWAP2 SWAP1 PUSH1 0x0 MSTORE PUSH1 0x20 PUSH1 0x0 KECCAK256 SWAP1 JUMPDEST DUP2 SLOAD DUP2 MSTORE SWAP1 PUSH1 0x1 ADD SWAP1 PUSH1 0x20 ADD DUP1 DUP4 GT PUSH2 0x1919 JUMPI DUP3 SWAP1 SUB PUSH1 0x1F AND DUP3 ADD SWAP2 JUMPDEST POP POP POP POP POP SWAP3 POP DUP2 DUP1 SLOAD PUSH2 0x1949 SWAP1 PUSH2 0x8078 JUMP JUMPDEST DUP1 PUSH1 0x1F ADD PUSH1 0x20 DUP1 SWAP2 DIV MUL PUSH1 0x20 ADD PUSH1 0x40 MLOAD SWAP1 DUP2 ADD PUSH1 0x40 MSTORE DUP1 SWAP3 SWAP2 SWAP1 DUP2 DUP2 MSTORE PUSH1 0x20 ADD DUP3 DUP1 SLOAD PUSH2 0x1975 SWAP1 PUSH2 0x8078 JUMP JUMPDEST DUP1 ISZERO PUSH2 0x19C2 JUMPI DUP1 PUSH1 0x1F LT PUSH2 0x1997 JUMPI PUSH2 0x100 DUP1 DUP4 SLOAD DIV MUL DUP4 MSTORE SWAP2 PUSH1 0x20 ADD SWAP2 PUSH2 0x19C2 JUMP JUMPDEST DUP3 ADD SWAP2 SWAP1 PUSH1 0x0 MSTORE PUSH1 0x20 PUSH1 0x0 KECCAK256 SWAP1 JUMPDEST DUP2 SLOAD DUP2 MSTORE SWAP1 PUSH1 0x1 ADD SWAP1 PUSH1 0x20 ADD DUP1 DUP4 GT PUSH2 0x19A5 JUMPI DUP3 SWAP1 SUB PUSH1 0x1F AND DUP3 ADD SWAP2 JUMPDEST POP POP POP POP POP SWAP2 POP SWAP3 POP SWAP3 POP SWAP3 POP SWAP2 SWAP4 SWAP1 SWAP3 POP JUMP JUMPDEST PUSH1 0x33 DUP2 JUMP JUMPDEST PUSH2 0x19EF PUSH8 0x928B579F6F77D60A PUSH1 0xC0 SHL PUSH2 0x54B5 JUMP JUMPDEST PUSH2 0x1A03 PUSH8 0x1EAFB37A2FEA50C3 PUSH1 0xC0 SHL PUSH2 0x54B5 JUMP JUMPDEST PUSH2 0x1A17 PUSH8 0x1C760441A51F00FE PUSH1 0xC0 SHL PUSH2 0x54B5 JUMP JUMPDEST PUSH1 0x0 PUSH1 0x3 PUSH1 0x0 DUP6 DUP2 MSTORE PUSH1 0x20 ADD SWAP1 DUP2 MSTORE PUSH1 0x20 ADD PUSH1 0x0 KECCAK256 SWAP1 POP PUSH2 0x1A42 PUSH8 0x19381EA2A143A26 PUSH1 0xC0 SHL PUSH2 0x54B5 JUMP JUMPDEST PUSH2 0x1A56 PUSH8 0xBF6825F8B726169F PUSH1 0xC0 SHL PUSH2 0x54B5 JUMP JUMPDEST PUSH2 0x1A6A PUSH8 0x4346DA88AC06A843 PUSH1 0xC0 SHL PUSH2 0x54B5 JUMP JUMPDEST DUP1 PUSH1 0x0 ADD PUSH1 0x0 SWAP1 SLOAD SWAP1 PUSH2 0x100 EXP SWAP1 DIV PUSH4 0xFFFFFFFF AND PUSH4 0xFFFFFFFF AND DUP2 PUSH1 0x0 ADD PUSH1 0x8 SWAP1 SLOAD SWAP1 PUSH2 0x100 EXP SWAP1 DIV PUSH4 0xFFFFFFFF AND PUSH4 0xFFFFFFFF AND GT DUP2 PUSH1 0x2 ADD SLOAD PUSH1 0x40 MLOAD PUSH1 0x20 ADD PUSH2 0x1AB6 SWAP2 SWAP1 PUSH2 0x82B5 JUMP JUMPDEST PUSH1 0x40 MLOAD PUSH1 0x20 DUP2 DUP4 SUB SUB DUP2 MSTORE SWAP1 PUSH1 0x40 MSTORE PUSH1 0x40 MLOAD PUSH1 0x20 ADD PUSH2 0x1AD5 SWAP2 SWAP1 PUSH2 0x831C JUMP JUMPDEST PUSH1 0x40 MLOAD PUSH1 0x20 DUP2 DUP4 SUB SUB DUP2 MSTORE SWAP1 PUSH1 0x40 MSTORE SWAP1 PUSH2 0x1B25 JUMPI PUSH1 0x40 MLOAD PUSH32 0x8C379A000000000000000000000000000000000000000000000000000000000 DUP2 MSTORE PUSH1 0x4 ADD PUSH2 0x1B1C SWAP2 SWAP1 PUSH2 0x7210 JUMP JUMPDEST PUSH1 0x40 MLOAD DUP1 SWAP2 SUB SWAP1 REVERT JUMPDEST POP PUSH2 0x1B3A PUSH8 0x39ABA34486ADF0DA PUSH1 0xC0 SHL PUSH2 0x54B5 JUMP JUMPDEST PUSH2 0x1B4E PUSH8 0xA6059053A04F964 PUSH1 0xC0 SHL PUSH2 0x54B5 JUMP JUMPDEST PUSH2 0x1B62 PUSH8 0xAE953CAA734AB3B0 PUSH1 0xC0 SHL PUSH2 0x54B5 JUMP JUMPDEST PUSH2 0x1B76 PUSH8 0xF5900FC41A1B03E0 PUSH1 0xC0 SHL PUSH2 0x54B5 JUMP JUMPDEST PUSH2 0x1B84 DUP2 PUSH1 0x1 ADD SLOAD CALLER PUSH2 0x323C JUMP JUMPDEST DUP2 PUSH1 0x2 ADD SLOAD PUSH1 0x40 MLOAD PUSH1 0x20 ADD PUSH2 0x1B99 SWAP2 SWAP1 PUSH2 0x82B5 JUMP JUMPDEST PUSH1 0x40 MLOAD PUSH1 0x20 DUP2 DUP4 SUB SUB DUP2 MSTORE SWAP1 PUSH1 0x40 MSTORE PUSH1 0x40 MLOAD PUSH1 0x20 ADD PUSH2 0x1BB8 SWAP2 SWAP1 PUSH2 0x839D JUMP JUMPDEST PUSH1 0x40 MLOAD PUSH1 0x20 DUP2 DUP4 SUB SUB DUP2 MSTORE SWAP1 PUSH1 0x40 MSTORE SWAP1 PUSH2 0x1C08 JUMPI PUSH1 0x40 MLOAD PUSH32 0x8C379A000000000000000000000000000000000000000000000000000000000 DUP2 MSTORE PUSH1 0x4 ADD PUSH2 0x1BFF SWAP2 SWAP1 PUSH2 0x7210 JUMP JUMPDEST PUSH1 0x40 MLOAD DUP1 SWAP2 SUB SWAP1 REVERT JUMPDEST POP PUSH2 0x1C1D PUSH8 0x8F048BA93C318BDF PUSH1 0xC0 SHL PUSH2 0x54B5 JUMP JUMPDEST PUSH2 0x1C31 PUSH8 0xEABBA9F8CD63B620 PUSH1 0xC0 SHL PUSH2 0x54B5 JUMP JUMPDEST PUSH2 0x1C45 PUSH8 0xA6B100261D7CA0A1 PUSH1 0xC0 SHL PUSH2 0x54B5 JUMP JUMPDEST PUSH2 0x1C59 PUSH8 0x7C8571A546CD703B PUSH1 0xC0 SHL PUSH2 0x54B5 JUMP JUMPDEST PUSH1 0x0 ISZERO ISZERO PUSH2 0x1C67 DUP6 DUP6 PUSH2 0x323C JUMP JUMPDEST ISZERO ISZERO EQ DUP2 PUSH1 0x2 ADD SLOAD PUSH1 0x40 MLOAD PUSH1 0x20 ADD PUSH2 0x1C7F SWAP2 SWAP1 PUSH2 0x82B5 JUMP JUMPDEST PUSH1 0x40 MLOAD PUSH1 0x20 DUP2 DUP4 SUB SUB DUP2 MSTORE SWAP1 PUSH1 0x40 MSTORE PUSH1 0x40 MLOAD PUSH1 0x20 ADD PUSH2 0x1C9E SWAP2 SWAP1 PUSH2 0x83F8 JUMP JUMPDEST PUSH1 0x40 MLOAD PUSH1 0x20 DUP2 DUP4 SUB SUB DUP2 MSTORE SWAP1 PUSH1 0x40 MSTORE SWAP1 PUSH2 0x1CEE JUMPI PUSH1 0x40 MLOAD PUSH32 0x8C379A000000000000000000000000000000000000000000000000000000000 DUP2 MSTORE PUSH1 0x4 ADD PUSH2 0x1CE5 SWAP2 SWAP1 PUSH2 0x7210 JUMP JUMPDEST PUSH1 0x40 MLOAD DUP1 SWAP2 SUB SWAP1 REVERT JUMPDEST POP PUSH2 0x1D03 PUSH8 0x6174D0F42C37649A PUSH1 0xC0 SHL PUSH2 0x54B5 JUMP JUMPDEST PUSH2 0x1D17 PUSH8 0x2212CDA1DCB9EA12 PUSH1 0xC0 SHL PUSH2 0x54B5 JUMP JUMPDEST PUSH2 0x1D2B PUSH8 0xA83A11A74EB277AE PUSH1 0xC0 SHL PUSH2 0x54B5 JUMP JUMPDEST PUSH1 0x0 DUP4 DUP6 PUSH1 0x40 MLOAD PUSH1 0x20 ADD PUSH2 0x1D40 SWAP3 SWAP2 SWAP1 PUSH2 0x84B2 JUMP JUMPDEST PUSH1 0x40 MLOAD PUSH1 0x20 DUP2 DUP4 SUB SUB DUP2 MSTORE SWAP1 PUSH1 0x40 MSTORE DUP1 MLOAD SWAP1 PUSH1 0x20 ADD KECCAK256 SWAP1 POP PUSH2 0x1D6C PUSH8 0x6DDD2FA1476C452 PUSH1 0xC0 SHL PUSH2 0x54B5 JUMP JUMPDEST PUSH2 0x1D80 PUSH8 0x476C17A0B8385F17 PUSH1 0xC0 SHL PUSH2 0x54B5 JUMP JUMPDEST PUSH2 0x1DDB DUP2 DUP4 PUSH1 0x1 ADD SLOAD DUP5 PUSH1 0x2 ADD SLOAD PUSH1 0x40 MLOAD PUSH1 0x20 ADD PUSH2 0x1D9E SWAP2 SWAP1 PUSH2 0x82B5 JUMP JUMPDEST PUSH1 0x40 MLOAD PUSH1 0x20 DUP2 DUP4 SUB SUB DUP2 MSTORE SWAP1 PUSH1 0x40 MSTORE PUSH2 0x1DB6 DUP9 PUSH2 0x10D3 JUMP JUMPDEST PUSH1 0x40 MLOAD PUSH1 0x20 ADD PUSH2 0x1DC7 SWAP3 SWAP2 SWAP1 PUSH2 0x8535 JUMP JUMPDEST PUSH1 0x40 MLOAD PUSH1 0x20 DUP2 DUP4 SUB SUB DUP2 MSTORE SWAP1 PUSH1 0x40 MSTORE PUSH2 0x5586 JUMP JUMPDEST PUSH2 0x1DEF PUSH8 0x1C07E5A9226BE916 PUSH1 0xC0 SHL PUSH2 0x54B5 JUMP JUMPDEST PUSH2 0x1E03 PUSH8 0x7862D5C1055513B PUSH1 0xC0 SHL PUSH2 0x54B5 JUMP JUMPDEST DUP3 DUP1 ISZERO PUSH2 0x1E74 JUMPI POP PUSH1 0x0 ISZERO ISZERO PUSH1 0x4 PUSH1 0x0 DUP4 DUP2 MSTORE PUSH1 0x20 ADD SWAP1 DUP2 MSTORE PUSH1 0x20 ADD PUSH1 0x0 KECCAK256 PUSH1 0x3 ADD PUSH1 0x0 CALLER PUSH20 0xFFFFFFFFFFFFFFFFFFFFFFFFFFFFFFFFFFFFFFFF AND PUSH20 0xFFFFFFFFFFFFFFFFFFFFFFFFFFFFFFFFFFFFFFFF AND DUP2 MSTORE PUSH1 0x20 ADD SWAP1 DUP2 MSTORE PUSH1 0x20 ADD PUSH1 0x0 KECCAK256 PUSH1 0x0 SWAP1 SLOAD SWAP1 PUSH2 0x100 EXP SWAP1 DIV PUSH1 0xFF AND ISZERO ISZERO EQ JUMPDEST ISZERO PUSH2 0x1F35 JUMPI PUSH2 0x1E8D PUSH8 0x92F115933DDBA31C PUSH1 0xC0 SHL PUSH2 0x54B5 JUMP JUMPDEST PUSH2 0x1EA1 PUSH8 0xF700B95D536177F3 PUSH1 0xC0 SHL PUSH2 0x54B5 JUMP JUMPDEST PUSH2 0x1EB5 PUSH8 0x82A82F6F1BD2C116 PUSH1 0xC0 SHL PUSH2 0x54B5 JUMP JUMPDEST PUSH2 0x1ED1 PUSH1 0x4 PUSH1 0x0 DUP4 DUP2 MSTORE PUSH1 0x20 ADD SWAP1 DUP2 MSTORE PUSH1 0x20 ADD PUSH1 0x0 KECCAK256 CALLER PUSH2 0x572A JUMP JUMPDEST PUSH2 0x1EE5 PUSH8 0x2E2EEF9C059DC207 PUSH1 0xC0 SHL PUSH2 0x54B5 JUMP JUMPDEST PUSH2 0x1EF9 PUSH8 0x2071DF197B17F30B PUSH1 0xC0 SHL PUSH2 0x54B5 JUMP JUMPDEST PUSH32 0xB431A69783A2491A0C400FF16DAB32CD442ABF8FE5AF63A526A7248D730192F8 DUP2 PUSH1 0x40 MLOAD PUSH2 0x1F28 SWAP2 SWAP1 PUSH2 0x72FE JUMP JUMPDEST PUSH1 0x40 MLOAD DUP1 SWAP2 SUB SWAP1 LOG1 PUSH2 0x203B JUMP JUMPDEST PUSH2 0x1F49 PUSH8 0x7B5A83C26FEAC28 PUSH1 0xC0 SHL PUSH2 0x54B5 JUMP JUMPDEST PUSH2 0x1F5D PUSH8 0xD285A5263EC8E0F5 PUSH1 0xC0 SHL PUSH2 0x54B5 JUMP JUMPDEST PUSH1 0x0 ISZERO ISZERO DUP4 ISZERO ISZERO SUB PUSH2 0x2025 JUMPI PUSH2 0x1F7D PUSH8 0x5E4CBCC73C151F3 PUSH1 0xC0 SHL PUSH2 0x54B5 JUMP JUMPDEST PUSH2 0x1F91 PUSH8 0x60F35A0621673347 PUSH1 0xC0 SHL PUSH2 0x54B5 JUMP JUMPDEST PUSH2 0x1FA5 PUSH8 0x6596486D69562B77 PUSH1 0xC0 SHL PUSH2 0x54B5 JUMP JUMPDEST PUSH2 0x1FC1 PUSH1 0x4 PUSH1 0x0 DUP4 DUP2 MSTORE PUSH1 0x20 ADD SWAP1 DUP2 MSTORE PUSH1 0x20 ADD PUSH1 0x0 KECCAK256 CALLER PUSH2 0x59AC JUMP JUMPDEST PUSH2 0x1FD5 PUSH8 0xACEFC79E49D8D98E PUSH1 0xC0 SHL PUSH2 0x54B5 JUMP JUMPDEST PUSH2 0x1FE9 PUSH8 0xF1DD76D34C817F8 PUSH1 0xC0 SHL PUSH2 0x54B5 JUMP JUMPDEST PUSH32 0xB431A69783A2491A0C400FF16DAB32CD442ABF8FE5AF63A526A7248D730192F8 DUP2 PUSH1 0x40 MLOAD PUSH2 0x2018 SWAP2 SWAP1 PUSH2 0x72FE JUMP JUMPDEST PUSH1 0x40 MLOAD DUP1 SWAP2 SUB SWAP1 LOG1 PUSH2 0x203A JUMP JUMPDEST PUSH2 0x2039 PUSH8 0x6751378D318E7C40 PUSH1 0xC0 SHL PUSH2 0x54B5 JUMP JUMPDEST JUMPDEST JUMPDEST PUSH2 0x204F PUSH8 0x4F87EFA02C74E0F2 PUSH1 0xC0 SHL PUSH2 0x54B5 JUMP JUMPDEST PUSH2 0x2063 PUSH8 0xDF9346BF5F7FF815 PUSH1 0xC0 SHL PUSH2 0x54B5 JUMP JUMPDEST PUSH2 0x20BD DUP3 PUSH1 0x0 ADD PUSH1 0xC SWAP1 SLOAD SWAP1 PUSH2 0x100 EXP SWAP1 DIV PUSH1 0xFF AND PUSH1 0xFF AND PUSH1 0x3 PUSH1 0x0 DUP6 PUSH1 0x1 ADD SLOAD DUP2 MSTORE PUSH1 0x20 ADD SWAP1 DUP2 MSTORE PUSH1 0x20 ADD PUSH1 0x0 KECCAK256 PUSH1 0x0 ADD PUSH1 0x0 SWAP1 SLOAD SWAP1 PUSH2 0x100 EXP SWAP1 DIV PUSH4 0xFFFFFFFF AND PUSH2 0x20B0 SWAP2 SWAP1 PUSH2 0x800C JUMP JUMPDEST PUSH4 0xFFFFFFFF AND PUSH1 0x64 PUSH2 0x41BF JUMP JUMPDEST PUSH1 0x4 PUSH1 0x0 DUP4 DUP2 MSTORE PUSH1 0x20 ADD SWAP1 DUP2 MSTORE PUSH1 0x20 ADD PUSH1 0x0 KECCAK256 PUSH1 0x2 ADD PUSH1 0x0 SWAP1 SLOAD SWAP1 PUSH2 0x100 EXP SWAP1 DIV PUSH1 0xFF AND PUSH1 0xFF AND LT PUSH2 0x222C JUMPI PUSH2 0x20FD PUSH8 0x35DC9D0C045E8DEA PUSH1 0xC0 SHL PUSH2 0x54B5 JUMP JUMPDEST PUSH2 0x2111 PUSH8 0xB7DBF79DDBA2CAB7 PUSH1 0xC0 SHL PUSH2 0x54B5 JUMP JUMPDEST PUSH2 0x2125 PUSH8 0x825657E0D56BE418 PUSH1 0xC0 SHL PUSH2 0x54B5 JUMP JUMPDEST PUSH2 0x2140 PUSH1 0x4 PUSH1 0x0 DUP4 DUP2 MSTORE PUSH1 0x20 ADD SWAP1 DUP2 MSTORE PUSH1 0x20 ADD PUSH1 0x0 KECCAK256 PUSH2 0x5B64 JUMP JUMPDEST PUSH2 0x2154 PUSH8 0xDAD7EBA3D5EA0FC5 PUSH1 0xC0 SHL PUSH2 0x54B5 JUMP JUMPDEST PUSH2 0x2168 PUSH8 0x3D21F2ECDA879AC7 PUSH1 0xC0 SHL PUSH2 0x54B5 JUMP JUMPDEST PUSH32 0x562618DBCF74B61AE5B0F229FE40BA6D5B6AE6B4248F8C89A870DDA7C77135F6 DUP2 PUSH1 0x40 MLOAD PUSH2 0x2197 SWAP2 SWAP1 PUSH2 0x72FE JUMP JUMPDEST PUSH1 0x40 MLOAD DUP1 SWAP2 SUB SWAP1 LOG1 PUSH2 0x21B3 PUSH8 0xFEBE2105280DEA46 PUSH1 0xC0 SHL PUSH2 0x54B5 JUMP JUMPDEST PUSH2 0x21C7 PUSH8 0x198F1E6710F19363 PUSH1 0xC0 SHL PUSH2 0x54B5 JUMP JUMPDEST PUSH2 0x21D1 DUP6 DUP6 PUSH2 0x5EAA JUMP JUMPDEST PUSH2 0x21E5 PUSH8 0x8FDDFCC5363932F PUSH1 0xC0 SHL PUSH2 0x54B5 JUMP JUMPDEST PUSH1 0x1 DUP3 PUSH1 0x0 ADD PUSH1 0x0 DUP3 DUP3 DUP3 SWAP1 SLOAD SWAP1 PUSH2 0x100 EXP SWAP1 DIV PUSH4 0xFFFFFFFF AND PUSH2 0x2209 SWAP2 SWAP1 PUSH2 0x8577 JUMP JUMPDEST SWAP3 POP PUSH2 0x100 EXP DUP2 SLOAD DUP2 PUSH4 0xFFFFFFFF MUL NOT AND SWAP1 DUP4 PUSH4 0xFFFFFFFF AND MUL OR SWAP1 SSTORE POP PUSH2 0x2241 JUMP JUMPDEST PUSH2 0x2240 PUSH8 0xEE4A48E3DB8A3245 PUSH1 0xC0 SHL PUSH2 0x54B5 JUMP JUMPDEST JUMPDEST POP POP POP POP POP JUMP JUMPDEST PUSH1 0x7 PUSH1 0x20 MSTORE DUP1 PUSH1 0x0 MSTORE PUSH1 0x40 PUSH1 0x0 KECCAK256 PUSH1 0x0 SWAP2 POP SWAP1 POP DUP1 PUSH1 0x0 ADD PUSH1 0x0 SWAP1 SLOAD SWAP1 PUSH2 0x100 EXP SWAP1 DIV PUSH1 0xFF AND SWAP1 DUP1 PUSH1 0x0 ADD PUSH1 0x1 SWAP1 SLOAD SWAP1 PUSH2 0x100 EXP SWAP1 DIV PUSH1 0xFF AND SWAP1 DUP1 PUSH1 0x0 ADD PUSH1 0x2 SWAP1 SLOAD SWAP1 PUSH2 0x100 EXP SWAP1 DIV PUSH1 0xFF AND SWAP1 DUP1 PUSH1 0x1 ADD SLOAD SWAP1 DUP1 PUSH1 0x2 ADD PUSH1 0x0 SWAP1 SLOAD SWAP1 PUSH2 0x100 EXP SWAP1 DIV PUSH1 0xFF AND SWAP1 DUP1 PUSH1 0x3 ADD SLOAD SWAP1 POP DUP7 JUMP JUMPDEST PUSH1 0x50 DUP2 JUMP JUMPDEST PUSH2 0x22D1 PUSH8 0xBDF8A12455256E97 PUSH1 0xC0 SHL PUSH2 0x54B5 JUMP JUMPDEST PUSH2 0x22E5 PUSH8 0xED9C0B858915E646 PUSH1 0xC0 SHL PUSH2 0x54B5 JUMP JUMPDEST PUSH2 0x22F9 PUSH8 0x649BD458A2007257 PUSH1 0xC0 SHL PUSH2 0x54B5 JUMP JUMPDEST PUSH2 0x230D PUSH8 0xB6B16EA080CCDB2 PUSH1 0xC0 SHL PUSH2 0x54B5 JUMP JUMPDEST PUSH2 0x2337 PUSH32 0xD646AE07EB0D0F77457502A65E7407930DFF4CD4FD99ABC6AAC87A753F4C8A42 CALLER PUSH2 0x323C JUMP JUMPDEST PUSH2 0x2376 JUMPI PUSH1 0x40 MLOAD PUSH32 0x8C379A000000000000000000000000000000000000000000000000000000000 DUP2 MSTORE PUSH1 0x4 ADD PUSH2 0x236D SWAP1 PUSH2 0x7DBA JUMP JUMPDEST PUSH1 0x40 MLOAD DUP1 SWAP2 SUB SWAP1 REVERT JUMPDEST PUSH2 0x238A PUSH8 0x689B85AE64F251BF PUSH1 0xC0 SHL PUSH2 0x54B5 JUMP JUMPDEST PUSH2 0x239E PUSH8 0x35E2A6E6763DE1BE PUSH1 0xC0 SHL PUSH2 0x54B5 JUMP JUMPDEST PUSH2 0x23B2 PUSH8 0x9E04AE92E1584C0 PUSH1 0xC0 SHL PUSH2 0x54B5 JUMP JUMPDEST PUSH2 0x23C6 PUSH8 0x2117BB302F321A49 PUSH1 0xC0 SHL PUSH2 0x54B5 JUMP JUMPDEST PUSH1 0x0 PUSH1 0x1 PUSH1 0x0 DUP8 DUP2 MSTORE PUSH1 0x20 ADD SWAP1 DUP2 MSTORE PUSH1 0x20 ADD PUSH1 0x0 KECCAK256 PUSH1 0x0 ADD SLOAD SUB PUSH2 0x241F JUMPI PUSH1 0x40 MLOAD PUSH32 0x8C379A000000000000000000000000000000000000000000000000000000000 DUP2 MSTORE PUSH1 0x4 ADD PUSH2 0x2416 SWAP1 PUSH2 0x7E92 JUMP JUMPDEST PUSH1 0x40 MLOAD DUP1 SWAP2 SUB SWAP1 REVERT JUMPDEST PUSH2 0x2433 PUSH8 0x918F30A7FAD84412 PUSH1 0xC0 SHL PUSH2 0x54B5 JUMP JUMPDEST PUSH2 0x2447 PUSH8 0x9D26A0BCAE16F155 PUSH1 0xC0 SHL PUSH2 0x54B5 JUMP JUMPDEST PUSH2 0x245B PUSH8 0x62560A22786C9D89 PUSH1 0xC0 SHL PUSH2 0x54B5 JUMP JUMPDEST PUSH2 0x246F PUSH8 0x6AD05DD6AD0C5E8E PUSH1 0xC0 SHL PUSH2 0x54B5 JUMP JUMPDEST PUSH1 0x0 PUSH1 0x3 DUP2 GT ISZERO PUSH2 0x2483 JUMPI PUSH2 0x2482 PUSH2 0x7511 JUMP JUMPDEST JUMPDEST DUP5 PUSH1 0x3 DUP2 GT ISZERO PUSH2 0x2496 JUMPI PUSH2 0x2495 PUSH2 0x7511 JUMP JUMPDEST JUMPDEST LT ISZERO DUP1 ISZERO PUSH2 0x24C8 JUMPI POP PUSH1 0x3 DUP1 DUP2 GT ISZERO PUSH2 0x24B2 JUMPI PUSH2 0x24B1 PUSH2 0x7511 JUMP JUMPDEST JUMPDEST DUP5 PUSH1 0x3 DUP2 GT ISZERO PUSH2 0x24C5 JUMPI PUSH2 0x24C4 PUSH2 0x7511 JUMP JUMPDEST JUMPDEST GT ISZERO JUMPDEST PUSH2 0x2507 JUMPI PUSH1 0x40 MLOAD PUSH32 0x8C379A000000000000000000000000000000000000000000000000000000000 DUP2 MSTORE PUSH1 0x4 ADD PUSH2 0x24FE SWAP1 PUSH2 0x85FB JUMP JUMPDEST PUSH1 0x40 MLOAD DUP1 SWAP2 SUB SWAP1 REVERT JUMPDEST PUSH2 0x251B PUSH8 0xB018FB771A8F126A PUSH1 0xC0 SHL PUSH2 0x54B5 JUMP JUMPDEST PUSH2 0x252F PUSH8 0x3838E17E05CAD86E PUSH1 0xC0 SHL PUSH2 0x54B5 JUMP JUMPDEST PUSH2 0x2543 PUSH8 0x3B992EF7312A36A2 PUSH1 0xC0 SHL PUSH2 0x54B5 JUMP JUMPDEST PUSH2 0x2557 PUSH8 0xD1937D9A9D9EDE4B PUSH1 0xC0 SHL PUSH2 0x54B5 JUMP JUMPDEST PUSH1 0x0 PUSH1 0x2 DUP2 GT ISZERO PUSH2 0x256B JUMPI PUSH2 0x256A PUSH2 0x7511 JUMP JUMPDEST JUMPDEST DUP4 PUSH1 0x2 DUP2 GT ISZERO PUSH2 0x257E JUMPI PUSH2 0x257D PUSH2 0x7511 JUMP JUMPDEST JUMPDEST LT ISZERO DUP1 ISZERO PUSH2 0x25B0 JUMPI POP PUSH1 0x2 DUP1 DUP2 GT ISZERO PUSH2 0x259A JUMPI PUSH2 0x2599 PUSH2 0x7511 JUMP JUMPDEST JUMPDEST DUP4 PUSH1 0x2 DUP2 GT ISZERO PUSH2 0x25AD JUMPI PUSH2 0x25AC PUSH2 0x7511 JUMP JUMPDEST JUMPDEST GT ISZERO JUMPDEST PUSH2 0x25EF JUMPI PUSH1 0x40 MLOAD PUSH32 0x8C379A000000000000000000000000000000000000000000000000000000000 DUP2 MSTORE PUSH1 0x4 ADD PUSH2 0x25E6 SWAP1 PUSH2 0x8667 JUMP JUMPDEST PUSH1 0x40 MLOAD DUP1 SWAP2 SUB SWAP1 REVERT JUMPDEST PUSH2 0x2603 PUSH8 0xEBA93D2F1C3A3725 PUSH1 0xC0 SHL PUSH2 0x54B5 JUMP JUMPDEST PUSH2 0x2617 PUSH8 0xE583D3490FB5C11A PUSH1 0xC0 SHL PUSH2 0x54B5 JUMP JUMPDEST PUSH2 0x262B PUSH8 0x3C216AEF0914C7D PUSH1 0xC0 SHL PUSH2 0x54B5 JUMP JUMPDEST PUSH2 0x263F PUSH8 0xE929230DACD39FC4 PUSH1 0xC0 SHL PUSH2 0x54B5 JUMP JUMPDEST PUSH1 0x0 PUSH1 0xF DUP2 GT ISZERO PUSH2 0x2653 JUMPI PUSH2 0x2652 PUSH2 0x7511 JUMP JUMPDEST JUMPDEST DUP3 PUSH1 0xF DUP2 GT ISZERO PUSH2 0x2666 JUMPI PUSH2 0x2665 PUSH2 0x7511 JUMP JUMPDEST JUMPDEST LT ISZERO DUP1 ISZERO PUSH2 0x2698 JUMPI POP PUSH1 0xF DUP1 DUP2 GT ISZERO PUSH2 0x2682 JUMPI PUSH2 0x2681 PUSH2 0x7511 JUMP JUMPDEST JUMPDEST DUP3 PUSH1 0xF DUP2 GT ISZERO PUSH2 0x2695 JUMPI PUSH2 0x2694 PUSH2 0x7511 JUMP JUMPDEST JUMPDEST GT ISZERO JUMPDEST PUSH2 0x26D7 JUMPI PUSH1 0x40 MLOAD PUSH32 0x8C379A000000000000000000000000000000000000000000000000000000000 DUP2 MSTORE PUSH1 0x4 ADD PUSH2 0x26CE SWAP1 PUSH2 0x86D3 JUMP JUMPDEST PUSH1 0x40 MLOAD DUP1 SWAP2 SUB SWAP1 REVERT JUMPDEST PUSH2 0x26EB PUSH8 0xF0423AD893494D1F PUSH1 0xC0 SHL PUSH2 0x54B5 JUMP JUMPDEST PUSH2 0x26FF PUSH8 0xE4635F8420CBA4D PUSH1 0xC0 SHL PUSH2 0x54B5 JUMP JUMPDEST PUSH2 0x2713 PUSH8 0xA8F356AE64E80FB2 PUSH1 0xC0 SHL PUSH2 0x54B5 JUMP JUMPDEST PUSH2 0x2727 PUSH8 0x87081979864AFEAE PUSH1 0xC0 SHL PUSH2 0x54B5 JUMP JUMPDEST PUSH1 0x1 ISZERO ISZERO PUSH1 0x7 PUSH1 0x0 DUP8 DUP8 DUP8 DUP8 PUSH1 0x40 MLOAD PUSH1 0x20 ADD PUSH2 0x2746 SWAP5 SWAP4 SWAP3 SWAP2 SWAP1 PUSH2 0x8757 JUMP JUMPDEST PUSH1 0x40 MLOAD PUSH1 0x20 DUP2 DUP4 SUB SUB DUP2 MSTORE SWAP1 PUSH1 0x40 MSTORE DUP1 MLOAD SWAP1 PUSH1 0x20 ADD KECCAK256 DUP2 MSTORE PUSH1 0x20 ADD SWAP1 DUP2 MSTORE PUSH1 0x20 ADD PUSH1 0x0 KECCAK256 PUSH1 0x2 ADD PUSH1 0x0 SWAP1 SLOAD SWAP1 PUSH2 0x100 EXP SWAP1 DIV PUSH1 0xFF AND ISZERO ISZERO EQ PUSH2 0x27BD JUMPI PUSH1 0x40 MLOAD PUSH32 0x8C379A000000000000000000000000000000000000000000000000000000000 DUP2 MSTORE PUSH1 0x4 ADD PUSH2 0x27B4 SWAP1 PUSH2 0x87F1 JUMP JUMPDEST PUSH1 0x40 MLOAD DUP1 SWAP2 SUB SWAP1 REVERT JUMPDEST PUSH2 0x27D1 PUSH8 0x7547DDE3E6DE66C1 PUSH1 0xC0 SHL PUSH2 0x54B5 JUMP JUMPDEST PUSH2 0x27E5 PUSH8 0x76A3D74FA8FA5457 PUSH1 0xC0 SHL PUSH2 0x54B5 JUMP JUMPDEST PUSH2 0x27F9 PUSH8 0x4ED9EA8C9338F000 PUSH1 0xC0 SHL PUSH2 0x54B5 JUMP JUMPDEST PUSH1 0x0 DUP6 DUP6 DUP6 DUP6 PUSH1 0x40 MLOAD PUSH1 0x20 ADD PUSH2 0x2812 SWAP5 SWAP4 SWAP3 SWAP2 SWAP1 PUSH2 0x885D JUMP JUMPDEST PUSH1 0x40 MLOAD PUSH1 0x20 DUP2 DUP4 SUB SUB DUP2 MSTORE SWAP1 PUSH1 0x40 MSTORE DUP1 MLOAD SWAP1 PUSH1 0x20 ADD KECCAK256 SWAP1 POP PUSH2 0x283E PUSH8 0x9BAA3422236FC69F PUSH1 0xC0 SHL PUSH2 0x54B5 JUMP JUMPDEST PUSH2 0x2852 PUSH8 0xC5044043363BB237 PUSH1 0xC0 SHL PUSH2 0x54B5 JUMP JUMPDEST PUSH2 0x28F8 DUP2 PUSH32 0xD646AE07EB0D0F77457502A65E7407930DFF4CD4FD99ABC6AAC87A753F4C8A42 PUSH2 0x2880 DUP10 PUSH2 0x54B8 JUMP JUMPDEST PUSH2 0x289B DUP10 PUSH1 0x3 DUP2 GT ISZERO PUSH2 0x2896 JUMPI PUSH2 0x2895 PUSH2 0x7511 JUMP JUMPDEST JUMPDEST PUSH2 0x54B8 JUMP JUMPDEST PUSH2 0x28B6 DUP10 PUSH1 0x2 DUP2 GT ISZERO PUSH2 0x28B1 JUMPI PUSH2 0x28B0 PUSH2 0x7511 JUMP JUMPDEST JUMPDEST PUSH2 0x54B8 JUMP JUMPDEST PUSH2 0x28D1 DUP10 PUSH1 0xF DUP2 GT ISZERO PUSH2 0x28CC JUMPI PUSH2 0x28CB PUSH2 0x7511 JUMP JUMPDEST JUMPDEST PUSH2 0x54B8 JUMP JUMPDEST PUSH1 0x40 MLOAD PUSH1 0x20 ADD PUSH2 0x28E4 SWAP5 SWAP4 SWAP3 SWAP2 SWAP1 PUSH2 0x88DC JUMP JUMPDEST PUSH1 0x40 MLOAD PUSH1 0x20 DUP2 DUP4 SUB SUB DUP2 MSTORE SWAP1 PUSH1 0x40 MSTORE PUSH2 0x5586 JUMP JUMPDEST PUSH2 0x290C PUSH8 0xBFC6B0F370D70249 PUSH1 0xC0 SHL PUSH2 0x54B5 JUMP JUMPDEST PUSH2 0x2920 PUSH8 0x9CCB8433F30B7F61 PUSH1 0xC0 SHL PUSH2 0x54B5 JUMP JUMPDEST DUP2 DUP1 ISZERO PUSH2 0x2991 JUMPI POP PUSH1 0x0 ISZERO ISZERO PUSH1 0x4 PUSH1 0x0 DUP4 DUP2 MSTORE PUSH1 0x20 ADD SWAP1 DUP2 MSTORE PUSH1 0x20 ADD PUSH1 0x0 KECCAK256 PUSH1 0x3 ADD PUSH1 0x0 CALLER PUSH20 0xFFFFFFFFFFFFFFFFFFFFFFFFFFFFFFFFFFFFFFFF AND PUSH20 0xFFFFFFFFFFFFFFFFFFFFFFFFFFFFFFFFFFFFFFFF AND DUP2 MSTORE PUSH1 0x20 ADD SWAP1 DUP2 MSTORE PUSH1 0x20 ADD PUSH1 0x0 KECCAK256 PUSH1 0x0 SWAP1 SLOAD SWAP1 PUSH2 0x100 EXP SWAP1 DIV PUSH1 0xFF AND ISZERO ISZERO EQ JUMPDEST ISZERO PUSH2 0x2A52 JUMPI PUSH2 0x29AA PUSH8 0x842A97201189B8B PUSH1 0xC0 SHL PUSH2 0x54B5 JUMP JUMPDEST PUSH2 0x29BE PUSH8 0xCA8D401C43F5F9D7 PUSH1 0xC0 SHL PUSH2 0x54B5 JUMP JUMPDEST PUSH2 0x29D2 PUSH8 0xE22DCAA2865F1211 PUSH1 0xC0 SHL PUSH2 0x54B5 JUMP JUMPDEST PUSH2 0x29EE PUSH1 0x4 PUSH1 0x0 DUP4 DUP2 MSTORE PUSH1 0x20 ADD SWAP1 DUP2 MSTORE PUSH1 0x20 ADD PUSH1 0x0 KECCAK256 CALLER PUSH2 0x572A JUMP JUMPDEST PUSH2 0x2A02 PUSH8 0x4ABA95960958E732 PUSH1 0xC0 SHL PUSH2 0x54B5 JUMP JUMPDEST PUSH2 0x2A16 PUSH8 0x30249E749F45B5E4 PUSH1 0xC0 SHL PUSH2 0x54B5 JUMP JUMPDEST PUSH32 0xB431A69783A2491A0C400FF16DAB32CD442ABF8FE5AF63A526A7248D730192F8 DUP2 PUSH1 0x40 MLOAD PUSH2 0x2A45 SWAP2 SWAP1 PUSH2 0x72FE JUMP JUMPDEST PUSH1 0x40 MLOAD DUP1 SWAP2 SUB SWAP1 LOG1 PUSH2 0x2B58 JUMP JUMPDEST PUSH2 0x2A66 PUSH8 0x374DFD98B823C8CF PUSH1 0xC0 SHL PUSH2 0x54B5 JUMP JUMPDEST PUSH2 0x2A7A PUSH8 0x20270532058F02E5 PUSH1 0xC0 SHL PUSH2 0x54B5 JUMP JUMPDEST PUSH1 0x0 ISZERO ISZERO DUP3 ISZERO ISZERO SUB PUSH2 0x2B42 JUMPI PUSH2 0x2A9A PUSH8 0x9E04F1A5C5BDA7DF PUSH1 0xC0 SHL PUSH2 0x54B5 JUMP JUMPDEST PUSH2 0x2AAE PUSH8 0xD618060FAF473A2A PUSH1 0xC0 SHL PUSH2 0x54B5 JUMP JUMPDEST PUSH2 0x2AC2 PUSH8 0x59AACAB69E3A1CF8 PUSH1 0xC0 SHL PUSH2 0x54B5 JUMP JUMPDEST PUSH2 0x2ADE PUSH1 0x4 PUSH1 0x0 DUP4 DUP2 MSTORE PUSH1 0x20 ADD SWAP1 DUP2 MSTORE PUSH1 0x20 ADD PUSH1 0x0 KECCAK256 CALLER PUSH2 0x59AC JUMP JUMPDEST PUSH2 0x2AF2 PUSH8 0x1F8604B2E035DF8C PUSH1 0xC0 SHL PUSH2 0x54B5 JUMP JUMPDEST PUSH2 0x2B06 PUSH8 0x4341521415B393FF PUSH1 0xC0 SHL PUSH2 0x54B5 JUMP JUMPDEST PUSH32 0xB431A69783A2491A0C400FF16DAB32CD442ABF8FE5AF63A526A7248D730192F8 DUP2 PUSH1 0x40 MLOAD PUSH2 0x2B35 SWAP2 SWAP1 PUSH2 0x72FE JUMP JUMPDEST PUSH1 0x40 MLOAD DUP1 SWAP2 SUB SWAP1 LOG1 PUSH2 0x2B57 JUMP JUMPDEST PUSH2 0x2B56 PUSH8 0x3ABDA3DB58EE88D6 PUSH1 0xC0 SHL PUSH2 0x54B5 JUMP JUMPDEST JUMPDEST JUMPDEST PUSH2 0x2B6C PUSH8 0xD0A65ECDFB35759E PUSH1 0xC0 SHL PUSH2 0x54B5 JUMP JUMPDEST PUSH2 0x2B80 PUSH8 0xFECB9A5516D562AD PUSH1 0xC0 SHL PUSH2 0x54B5 JUMP JUMPDEST PUSH2 0x2BE6 PUSH1 0x50 PUSH1 0xFF AND PUSH1 0x3 PUSH1 0x0 PUSH32 0xD646AE07EB0D0F77457502A65E7407930DFF4CD4FD99ABC6AAC87A753F4C8A42 DUP2 MSTORE PUSH1 0x20 ADD SWAP1 DUP2 MSTORE PUSH1 0x20 ADD PUSH1 0x0 KECCAK256 PUSH1 0x0 ADD PUSH1 0x0 SWAP1 SLOAD SWAP1 PUSH2 0x100 EXP SWAP1 DIV PUSH4 0xFFFFFFFF AND PUSH2 0x2BD9 SWAP2 SWAP1 PUSH2 0x800C JUMP JUMPDEST PUSH4 0xFFFFFFFF AND PUSH1 0x64 PUSH2 0x41BF JUMP JUMPDEST PUSH1 0x4 PUSH1 0x0 DUP4 DUP2 MSTORE PUSH1 0x20 ADD SWAP1 DUP2 MSTORE PUSH1 0x20 ADD PUSH1 0x0 KECCAK256 PUSH1 0x2 ADD PUSH1 0x0 SWAP1 SLOAD SWAP1 PUSH2 0x100 EXP SWAP1 DIV PUSH1 0xFF AND PUSH1 0xFF AND LT PUSH2 0x2D3C JUMPI PUSH2 0x2C26 PUSH8 0x11522E4C80B8ACF5 PUSH1 0xC0 SHL PUSH2 0x54B5 JUMP JUMPDEST PUSH2 0x2C3A PUSH8 0x5A87C8131B0F3476 PUSH1 0xC0 SHL PUSH2 0x54B5 JUMP JUMPDEST PUSH2 0x2C4E PUSH8 0xB52E37C57F13F036 PUSH1 0xC0 SHL PUSH2 0x54B5 JUMP JUMPDEST PUSH2 0x2C69 PUSH1 0x4 PUSH1 0x0 DUP4 DUP2 MSTORE PUSH1 0x20 ADD SWAP1 DUP2 MSTORE PUSH1 0x20 ADD PUSH1 0x0 KECCAK256 PUSH2 0x5B64 JUMP JUMPDEST PUSH2 0x2C7D PUSH8 0xC6BC374FA7FEFF01 PUSH1 0xC0 SHL PUSH2 0x54B5 JUMP JUMPDEST PUSH2 0x2C91 PUSH8 0x86AC1E62D24A3498 PUSH1 0xC0 SHL PUSH2 0x54B5 JUMP JUMPDEST PUSH32 0x562618DBCF74B61AE5B0F229FE40BA6D5B6AE6B4248F8C89A870DDA7C77135F6 DUP2 PUSH1 0x40 MLOAD PUSH2 0x2CC0 SWAP2 SWAP1 PUSH2 0x72FE JUMP JUMPDEST PUSH1 0x40 MLOAD DUP1 SWAP2 SUB SWAP1 LOG1 PUSH2 0x2CDC PUSH8 0x9E5C2CDD766B16DE PUSH1 0xC0 SHL PUSH2 0x54B5 JUMP JUMPDEST PUSH1 0x0 PUSH1 0x7 PUSH1 0x0 DUP9 DUP9 DUP9 DUP9 PUSH1 0x40 MLOAD PUSH1 0x20 ADD PUSH2 0x2CF9 SWAP5 SWAP4 SWAP3 SWAP2 SWAP1 PUSH2 0x8757 JUMP JUMPDEST PUSH1 0x40 MLOAD PUSH1 0x20 DUP2 DUP4 SUB SUB DUP2 MSTORE SWAP1 PUSH1 0x40 MSTORE DUP1 MLOAD SWAP1 PUSH1 0x20 ADD KECCAK256 DUP2 MSTORE PUSH1 0x20 ADD SWAP1 DUP2 MSTORE PUSH1 0x20 ADD PUSH1 0x0 KECCAK256 PUSH1 0x2 ADD PUSH1 0x0 PUSH2 0x100 EXP DUP2 SLOAD DUP2 PUSH1 0xFF MUL NOT AND SWAP1 DUP4 ISZERO ISZERO MUL OR SWAP1 SSTORE POP PUSH2 0x2D51 JUMP JUMPDEST PUSH2 0x2D50 PUSH8 0x53AAAF9320FE18FD PUSH1 0xC0 SHL PUSH2 0x54B5 JUMP JUMPDEST JUMPDEST POP POP POP POP POP POP JUMP JUMPDEST PUSH1 0x60 DUP1 PUSH1 0x60 DUP1 PUSH2 0x2D73 PUSH8 0x7338A703CA5A2A96 PUSH1 0xC0 SHL PUSH2 0x54B5 JUMP JUMPDEST PUSH2 0x2D87 PUSH8 0x3B1E688B7D79D00D PUSH1 0xC0 SHL PUSH2 0x54B5 JUMP JUMPDEST PUSH2 0x2D9B PUSH8 0x6BEA465BB4414610 PUSH1 0xC0 SHL PUSH2 0x54B5 JUMP JUMPDEST PUSH1 0x0 PUSH1 0x6 SLOAD PUSH8 0xFFFFFFFFFFFFFFFF DUP2 GT ISZERO PUSH2 0x2DB9 JUMPI PUSH2 0x2DB8 PUSH2 0x7B14 JUMP JUMPDEST JUMPDEST PUSH1 0x40 MLOAD SWAP1 DUP1 DUP3 MSTORE DUP1 PUSH1 0x20 MUL PUSH1 0x20 ADD DUP3 ADD PUSH1 0x40 MSTORE DUP1 ISZERO PUSH2 0x2DEC JUMPI DUP2 PUSH1 0x20 ADD JUMPDEST PUSH1 0x60 DUP2 MSTORE PUSH1 0x20 ADD SWAP1 PUSH1 0x1 SWAP1 SUB SWAP1 DUP2 PUSH2 0x2DD7 JUMPI SWAP1 POP JUMPDEST POP SWAP1 POP PUSH2 0x2E03 PUSH8 0xE8C1FA74BACD7FBB PUSH1 0xC0 SHL PUSH2 0x54B5 JUMP JUMPDEST PUSH2 0x2E17 PUSH8 0x1F5319FEB6477E35 PUSH1 0xC0 SHL PUSH2 0x54B5 JUMP JUMPDEST PUSH1 0x0 PUSH1 0x6 SLOAD PUSH8 0xFFFFFFFFFFFFFFFF DUP2 GT ISZERO PUSH2 0x2E35 JUMPI PUSH2 0x2E34 PUSH2 0x7B14 JUMP JUMPDEST JUMPDEST PUSH1 0x40 MLOAD SWAP1 DUP1 DUP3 MSTORE DUP1 PUSH1 0x20 MUL PUSH1 0x20 ADD DUP3 ADD PUSH1 0x40 MSTORE DUP1 ISZERO PUSH2 0x2E63 JUMPI DUP2 PUSH1 0x20 ADD PUSH1 0x20 DUP3 MUL DUP1 CALLDATASIZE DUP4 CALLDATACOPY DUP1 DUP3 ADD SWAP2 POP POP SWAP1 POP JUMPDEST POP SWAP1 POP PUSH2 0x2E7A PUSH8 0xF438D58DFB1BE182 PUSH1 0xC0 SHL PUSH2 0x54B5 JUMP JUMPDEST PUSH2 0x2E8E PUSH8 0x8EF10DCAEAC9036F PUSH1 0xC0 SHL PUSH2 0x54B5 JUMP JUMPDEST PUSH1 0x0 PUSH1 0x6 SLOAD PUSH8 0xFFFFFFFFFFFFFFFF DUP2 GT ISZERO PUSH2 0x2EAC JUMPI PUSH2 0x2EAB PUSH2 0x7B14 JUMP JUMPDEST JUMPDEST PUSH1 0x40 MLOAD SWAP1 DUP1 DUP3 MSTORE DUP1 PUSH1 0x20 MUL PUSH1 0x20 ADD DUP3 ADD PUSH1 0x40 MSTORE DUP1 ISZERO PUSH2 0x2EDA JUMPI DUP2 PUSH1 0x20 ADD PUSH1 0x20 DUP3 MUL DUP1 CALLDATASIZE DUP4 CALLDATACOPY DUP1 DUP3 ADD SWAP2 POP POP SWAP1 POP JUMPDEST POP SWAP1 POP PUSH2 0x2EF1 PUSH8 0x35F2056C8483D804 PUSH1 0xC0 SHL PUSH2 0x54B5 JUMP JUMPDEST PUSH2 0x2F05 PUSH8 0xC187D7D65CF65AF2 PUSH1 0xC0 SHL PUSH2 0x54B5 JUMP JUMPDEST PUSH1 0x0 PUSH1 0x6 SLOAD PUSH8 0xFFFFFFFFFFFFFFFF DUP2 GT ISZERO PUSH2 0x2F23 JUMPI PUSH2 0x2F22 PUSH2 0x7B14 JUMP JUMPDEST JUMPDEST PUSH1 0x40 MLOAD SWAP1 DUP1 DUP3 MSTORE DUP1 PUSH1 0x20 MUL PUSH1 0x20 ADD DUP3 ADD PUSH1 0x40 MSTORE DUP1 ISZERO PUSH2 0x2F51 JUMPI DUP2 PUSH1 0x20 ADD PUSH1 0x20 DUP3 MUL DUP1 CALLDATASIZE DUP4 CALLDATACOPY DUP1 DUP3 ADD SWAP2 POP POP SWAP1 POP JUMPDEST POP SWAP1 POP PUSH2 0x2F68 PUSH8 0xADE7A62C071E519D PUSH1 0xC0 SHL PUSH2 0x54B5 JUMP JUMPDEST PUSH2 0x2F7C PUSH8 0x5439B2C4CD164823 PUSH1 0xC0 SHL PUSH2 0x54B5 JUMP JUMPDEST PUSH1 0x0 JUMPDEST PUSH1 0x6 SLOAD DUP2 LT ISZERO PUSH2 0x31FC JUMPI PUSH2 0x2F9D PUSH8 0x2F6377F918FC3E74 PUSH1 0xC0 SHL PUSH2 0x54B5 JUMP JUMPDEST PUSH1 0x4 PUSH1 0x0 PUSH1 0x5 PUSH1 0x0 DUP5 DUP2 MSTORE PUSH1 0x20 ADD SWAP1 DUP2 MSTORE PUSH1 0x20 ADD PUSH1 0x0 KECCAK256 SLOAD DUP2 MSTORE PUSH1 0x20 ADD SWAP1 DUP2 MSTORE PUSH1 0x20 ADD PUSH1 0x0 KECCAK256 PUSH1 0x5 ADD DUP1 SLOAD PUSH2 0x2FD1 SWAP1 PUSH2 0x8078 JUMP JUMPDEST DUP1 PUSH1 0x1F ADD PUSH1 0x20 DUP1 SWAP2 DIV MUL PUSH1 0x20 ADD PUSH1 0x40 MLOAD SWAP1 DUP2 ADD PUSH1 0x40 MSTORE DUP1 SWAP3 SWAP2 SWAP1 DUP2 DUP2 MSTORE PUSH1 0x20 ADD DUP3 DUP1 SLOAD PUSH2 0x2FFD SWAP1 PUSH2 0x8078 JUMP JUMPDEST DUP1 ISZERO PUSH2 0x304A JUMPI DUP1 PUSH1 0x1F LT PUSH2 0x301F JUMPI PUSH2 0x100 DUP1 DUP4 SLOAD DIV MUL DUP4 MSTORE SWAP2 PUSH1 0x20 ADD SWAP2 PUSH2 0x304A JUMP JUMPDEST DUP3 ADD SWAP2 SWAP1 PUSH1 0x0 MSTORE PUSH1 0x20 PUSH1 0x0 KECCAK256 SWAP1 JUMPDEST DUP2 SLOAD DUP2 MSTORE SWAP1 PUSH1 0x1 ADD SWAP1 PUSH1 0x20 ADD DUP1 DUP4 GT PUSH2 0x302D JUMPI DUP3 SWAP1 SUB PUSH1 0x1F AND DUP3 ADD SWAP2 JUMPDEST POP POP POP POP POP DUP6 DUP3 DUP2 MLOAD DUP2 LT PUSH2 0x3062 JUMPI PUSH2 0x3061 PUSH2 0x80A9 JUMP JUMPDEST JUMPDEST PUSH1 0x20 MUL PUSH1 0x20 ADD ADD DUP2 SWAP1 MSTORE POP PUSH2 0x3081 PUSH8 0x62C646C22C573F3E PUSH1 0xC0 SHL PUSH2 0x54B5 JUMP JUMPDEST PUSH1 0x4 PUSH1 0x0 PUSH1 0x5 PUSH1 0x0 DUP5 DUP2 MSTORE PUSH1 0x20 ADD SWAP1 DUP2 MSTORE PUSH1 0x20 ADD PUSH1 0x0 KECCAK256 SLOAD DUP2 MSTORE PUSH1 0x20 ADD SWAP1 DUP2 MSTORE PUSH1 0x20 ADD PUSH1 0x0 KECCAK256 PUSH1 0x2 ADD PUSH1 0x0 SWAP1 SLOAD SWAP1 PUSH2 0x100 EXP SWAP1 DIV PUSH1 0xFF AND DUP5 DUP3 DUP2 MLOAD DUP2 LT PUSH2 0x30CB JUMPI PUSH2 0x30CA PUSH2 0x80A9 JUMP JUMPDEST JUMPDEST PUSH1 0x20 MUL PUSH1 0x20 ADD ADD SWAP1 PUSH1 0xFF AND SWAP1 DUP2 PUSH1 0xFF AND DUP2 MSTORE POP POP PUSH2 0x30F3 PUSH8 0x220AD4741FC3DF5D PUSH1 0xC0 SHL PUSH2 0x54B5 JUMP JUMPDEST PUSH1 0x4 PUSH1 0x0 PUSH1 0x5 PUSH1 0x0 DUP5 DUP2 MSTORE PUSH1 0x20 ADD SWAP1 DUP2 MSTORE PUSH1 0x20 ADD PUSH1 0x0 KECCAK256 SLOAD DUP2 MSTORE PUSH1 0x20 ADD SWAP1 DUP2 MSTORE PUSH1 0x20 ADD PUSH1 0x0 KECCAK256 PUSH1 0x1 ADD SLOAD DUP4 DUP3 DUP2 MLOAD DUP2 LT PUSH2 0x3130 JUMPI PUSH2 0x312F PUSH2 0x80A9 JUMP JUMPDEST JUMPDEST PUSH1 0x20 MUL PUSH1 0x20 ADD ADD DUP2 DUP2 MSTORE POP POP PUSH2 0x3150 PUSH8 0x99A0B0988AF08677 PUSH1 0xC0 SHL PUSH2 0x54B5 JUMP JUMPDEST PUSH1 0x4 PUSH1 0x0 PUSH1 0x5 PUSH1 0x0 DUP5 DUP2 MSTORE PUSH1 0x20 ADD SWAP1 DUP2 MSTORE PUSH1 0x20 ADD PUSH1 0x0 KECCAK256 SLOAD DUP2 MSTORE PUSH1 0x20 ADD SWAP1 DUP2 MSTORE PUSH1 0x20 ADD PUSH1 0x0 KECCAK256 PUSH1 0x3 ADD PUSH1 0x0 DUP12 PUSH20 0xFFFFFFFFFFFFFFFFFFFFFFFFFFFFFFFFFFFFFFFF AND PUSH20 0xFFFFFFFFFFFFFFFFFFFFFFFFFFFFFFFFFFFFFFFF AND DUP2 MSTORE PUSH1 0x20 ADD SWAP1 DUP2 MSTORE PUSH1 0x20 ADD PUSH1 0x0 KECCAK256 PUSH1 0x0 SWAP1 SLOAD SWAP1 PUSH2 0x100 EXP SWAP1 DIV PUSH1 0xFF AND DUP3 DUP3 DUP2 MLOAD DUP2 LT PUSH2 0x31D7 JUMPI PUSH2 0x31D6 PUSH2 0x80A9 JUMP JUMPDEST JUMPDEST PUSH1 0x20 MUL PUSH1 0x20 ADD ADD SWAP1 ISZERO ISZERO SWAP1 DUP2 ISZERO ISZERO DUP2 MSTORE POP POP DUP1 DUP1 PUSH2 0x31F4 SWAP1 PUSH2 0x814E JUMP JUMPDEST SWAP2 POP POP PUSH2 0x2F7F JUMP JUMPDEST POP PUSH2 0x3211 PUSH8 0x5D49AC61BE8EBD71 PUSH1 0xC0 SHL PUSH2 0x54B5 JUMP JUMPDEST PUSH2 0x3225 PUSH8 0xAC18A9A1EC69E6B8 PUSH1 0xC0 SHL PUSH2 0x54B5 JUMP JUMPDEST DUP2 DUP4 DUP6 DUP4 SWAP8 POP SWAP8 POP SWAP8 POP SWAP8 POP POP POP POP POP SWAP2 SWAP4 POP SWAP2 SWAP4 JUMP JUMPDEST PUSH1 0x0 DUP1 PUSH1 0x0 DUP5 DUP2 MSTORE PUSH1 0x20 ADD SWAP1 DUP2 MSTORE PUSH1 0x20 ADD PUSH1 0x0 KECCAK256 PUSH1 0x0 ADD PUSH1 0x0 DUP4 PUSH20 0xFFFFFFFFFFFFFFFFFFFFFFFFFFFFFFFFFFFFFFFF AND PUSH20 0xFFFFFFFFFFFFFFFFFFFFFFFFFFFFFFFFFFFFFFFF AND DUP2 MSTORE PUSH1 0x20 ADD SWAP1 DUP2 MSTORE PUSH1 0x20 ADD PUSH1 0x0 KECCAK256 PUSH1 0x0 SWAP1 SLOAD SWAP1 PUSH2 0x100 EXP SWAP1 DIV PUSH1 0xFF AND SWAP1 POP SWAP3 SWAP2 POP POP JUMP JUMPDEST PUSH1 0x5 PUSH1 0x20 MSTORE DUP1 PUSH1 0x0 MSTORE PUSH1 0x40 PUSH1 0x0 KECCAK256 PUSH1 0x0 SWAP2 POP SWAP1 POP SLOAD DUP2 JUMP JUMPDEST PUSH1 0xF DUP2 JUMP JUMPDEST PUSH2 0x32D7 PUSH8 0xF194D1FFC0447EA9 PUSH1 0xC0 SHL PUSH2 0x54B5 JUMP JUMPDEST PUSH2 0x32EB PUSH8 0x89A333387D41A6B6 PUSH1 0xC0 SHL PUSH2 0x54B5 JUMP JUMPDEST PUSH2 0x32FF PUSH8 0x5DA07D83CB2BAB9D PUSH1 0xC0 SHL PUSH2 0x54B5 JUMP JUMPDEST PUSH2 0x3313 PUSH8 0xF25AC83BECFB3BA8 PUSH1 0xC0 SHL PUSH2 0x54B5 JUMP JUMPDEST PUSH2 0x333D PUSH32 0xD646AE07EB0D0F77457502A65E7407930DFF4CD4FD99ABC6AAC87A753F4C8A42 CALLER PUSH2 0x323C JUMP JUMPDEST PUSH2 0x337C JUMPI PUSH1 0x40 MLOAD PUSH32 0x8C379A000000000000000000000000000000000000000000000000000000000 DUP2 MSTORE PUSH1 0x4 ADD PUSH2 0x3373 SWAP1 PUSH2 0x7DBA JUMP JUMPDEST PUSH1 0x40 MLOAD DUP1 SWAP2 SUB SWAP1 REVERT JUMPDEST PUSH2 0x3390 PUSH8 0x386935278DAE8226 PUSH1 0xC0 SHL PUSH2 0x54B5 JUMP JUMPDEST PUSH2 0x33A4 PUSH8 0xCCB3B5B8AF78B2CB PUSH1 0xC0 SHL PUSH2 0x54B5 JUMP JUMPDEST PUSH2 0x33B8 PUSH8 0xE0F5824EDE3CB57D PUSH1 0xC0 SHL PUSH2 0x54B5 JUMP JUMPDEST PUSH2 0x33CC PUSH8 0xF4B14BEAD3785A66 PUSH1 0xC0 SHL PUSH2 0x54B5 JUMP JUMPDEST PUSH1 0x0 DUP5 GT PUSH2 0x340F JUMPI PUSH1 0x40 MLOAD PUSH32 0x8C379A000000000000000000000000000000000000000000000000000000000 DUP2 MSTORE PUSH1 0x4 ADD PUSH2 0x3406 SWAP1 PUSH2 0x7E26 JUMP JUMPDEST PUSH1 0x40 MLOAD DUP1 SWAP2 SUB SWAP1 REVERT JUMPDEST PUSH2 0x3423 PUSH8 0x43D8BA5B87E2E648 PUSH1 0xC0 SHL PUSH2 0x54B5 JUMP JUMPDEST PUSH2 0x3437 PUSH8 0x5882F3B1B847165D PUSH1 0xC0 SHL PUSH2 0x54B5 JUMP JUMPDEST PUSH2 0x344B PUSH8 0xEC6DBC09E6A8D3C3 PUSH1 0xC0 SHL PUSH2 0x54B5 JUMP JUMPDEST PUSH2 0x345F PUSH8 0x87FEC01562DE0D77 PUSH1 0xC0 SHL PUSH2 0x54B5 JUMP JUMPDEST PUSH1 0x0 DUP4 MLOAD GT PUSH2 0x34A3 JUMPI PUSH1 0x40 MLOAD PUSH32 0x8C379A000000000000000000000000000000000000000000000000000000000 DUP2 MSTORE PUSH1 0x4 ADD PUSH2 0x349A SWAP1 PUSH2 0x89A2 JUMP JUMPDEST PUSH1 0x40 MLOAD DUP1 SWAP2 SUB SWAP1 REVERT JUMPDEST PUSH2 0x34B7 PUSH8 0xB815FA764D360F80 PUSH1 0xC0 SHL PUSH2 0x54B5 JUMP JUMPDEST PUSH2 0x34CB PUSH8 0x6C848CA2D28CC2E7 PUSH1 0xC0 SHL PUSH2 0x54B5 JUMP JUMPDEST PUSH2 0x34DF PUSH8 0x62A5C10409C68FA6 PUSH1 0xC0 SHL PUSH2 0x54B5 JUMP JUMPDEST PUSH2 0x34F3 PUSH8 0x67BE7BCFB8B646A3 PUSH1 0xC0 SHL PUSH2 0x54B5 JUMP JUMPDEST PUSH1 0x0 DUP3 MLOAD GT PUSH2 0x3537 JUMPI PUSH1 0x40 MLOAD PUSH32 0x8C379A000000000000000000000000000000000000000000000000000000000 DUP2 MSTORE PUSH1 0x4 ADD PUSH2 0x352E SWAP1 PUSH2 0x8A0E JUMP JUMPDEST PUSH1 0x40 MLOAD DUP1 SWAP2 SUB SWAP1 REVERT JUMPDEST PUSH2 0x354B PUSH8 0xAB4B51EF71953986 PUSH1 0xC0 SHL PUSH2 0x54B5 JUMP JUMPDEST PUSH2 0x355F PUSH8 0x45513953A8AAED3B PUSH1 0xC0 SHL PUSH2 0x54B5 JUMP JUMPDEST PUSH2 0x3573 PUSH8 0xA0247630C45FC010 PUSH1 0xC0 SHL PUSH2 0x54B5 JUMP JUMPDEST PUSH2 0x3587 PUSH8 0xCB56C9DFFEF6C09B PUSH1 0xC0 SHL PUSH2 0x54B5 JUMP JUMPDEST PUSH1 0x0 DUP2 GT PUSH2 0x35CA JUMPI PUSH1 0x40 MLOAD PUSH32 0x8C379A000000000000000000000000000000000000000000000000000000000 DUP2 MSTORE PUSH1 0x4 ADD PUSH2 0x35C1 SWAP1 PUSH2 0x8A7A JUMP JUMPDEST PUSH1 0x40 MLOAD DUP1 SWAP2 SUB SWAP1 REVERT JUMPDEST PUSH2 0x35DE PUSH8 0xF6C466182E7DAF4 PUSH1 0xC0 SHL PUSH2 0x54B5 JUMP JUMPDEST PUSH2 0x35F2 PUSH8 0x96AF1B9E171F5D0C PUSH1 0xC0 SHL PUSH2 0x54B5 JUMP JUMPDEST PUSH2 0x3606 PUSH8 0x6EA5A5CFDD40CA77 PUSH1 0xC0 SHL PUSH2 0x54B5 JUMP JUMPDEST PUSH2 0x361A PUSH8 0x34C805801AD925B4 PUSH1 0xC0 SHL PUSH2 0x54B5 JUMP JUMPDEST PUSH1 0x0 PUSH1 0x1 PUSH1 0x0 DUP7 DUP2 MSTORE PUSH1 0x20 ADD SWAP1 DUP2 MSTORE PUSH1 0x20 ADD PUSH1 0x0 KECCAK256 PUSH1 0x0 ADD SLOAD EQ PUSH2 0x3673 JUMPI PUSH1 0x40 MLOAD PUSH32 0x8C379A000000000000000000000000000000000000000000000000000000000 DUP2 MSTORE PUSH1 0x4 ADD PUSH2 0x366A SWAP1 PUSH2 0x8AE6 JUMP JUMPDEST PUSH1 0x40 MLOAD DUP1 SWAP2 SUB SWAP1 REVERT JUMPDEST PUSH2 0x3687 PUSH8 0xDE2808851EA85358 PUSH1 0xC0 SHL PUSH2 0x54B5 JUMP JUMPDEST PUSH2 0x369B PUSH8 0x7AB469CC82D327C1 PUSH1 0xC0 SHL PUSH2 0x54B5 JUMP JUMPDEST PUSH2 0x36AF PUSH8 0x34FCCB1C20348035 PUSH1 0xC0 SHL PUSH2 0x54B5 JUMP JUMPDEST PUSH2 0x36BB DUP5 DUP5 DUP5 DUP5 PUSH2 0x5F8D JUMP JUMPDEST POP POP POP POP JUMP JUMPDEST PUSH1 0x0 DUP1 SHL DUP2 JUMP JUMPDEST PUSH1 0x0 PUSH2 0x36DE PUSH8 0x698BF9A5753EF891 PUSH1 0xC0 SHL PUSH2 0x54B5 JUMP JUMPDEST PUSH2 0x36F2 PUSH8 0x4A780F79854977D8 PUSH1 0xC0 SHL PUSH2 0x54B5 JUMP JUMPDEST PUSH2 0x3706 PUSH8 0x69AD2177CECD222F PUSH1 0xC0 SHL PUSH2 0x54B5 JUMP JUMPDEST PUSH1 0x3 PUSH1 0x0 DUP4 DUP2 MSTORE PUSH1 0x20 ADD SWAP1 DUP2 MSTORE PUSH1 0x20 ADD PUSH1 0x0 KECCAK256 PUSH1 0x0 ADD PUSH1 0x0 SWAP1 SLOAD SWAP1 PUSH2 0x100 EXP SWAP1 DIV PUSH4 0xFFFFFFFF AND PUSH4 0xFFFFFFFF AND SWAP1 POP SWAP2 SWAP1 POP JUMP JUMPDEST PUSH2 0x374E PUSH8 0x1DC47E9DC7E2D49 PUSH1 0xC0 SHL PUSH2 0x54B5 JUMP JUMPDEST PUSH2 0x3762 PUSH8 0xE00C6E3F0D9A678B PUSH1 0xC0 SHL PUSH2 0x54B5 JUMP JUMPDEST PUSH2 0x3776 PUSH8 0x211496B55CB50CFF PUSH1 0xC0 SHL PUSH2 0x54B5 JUMP JUMPDEST PUSH2 0x378A PUSH8 0xFA27C246EEE8A08B PUSH1 0xC0 SHL PUSH2 0x54B5 JUMP JUMPDEST PUSH2 0x37B4 PUSH32 0xD646AE07EB0D0F77457502A65E7407930DFF4CD4FD99ABC6AAC87A753F4C8A42 CALLER PUSH2 0x323C JUMP JUMPDEST PUSH2 0x37F3 JUMPI PUSH1 0x40 MLOAD PUSH32 0x8C379A000000000000000000000000000000000000000000000000000000000 DUP2 MSTORE PUSH1 0x4 ADD PUSH2 0x37EA SWAP1 PUSH2 0x7DBA JUMP JUMPDEST PUSH1 0x40 MLOAD DUP1 SWAP2 SUB SWAP1 REVERT JUMPDEST PUSH2 0x3807 PUSH8 0xBA7A7D4F3FF1ED82 PUSH1 0xC0 SHL PUSH2 0x54B5 JUMP JUMPDEST PUSH2 0x381B PUSH8 0x19A84E662ED6D2E4 PUSH1 0xC0 SHL PUSH2 0x54B5 JUMP JUMPDEST PUSH2 0x382F PUSH8 0x553B9AE776C1AC07 PUSH1 0xC0 SHL PUSH2 0x54B5 JUMP JUMPDEST PUSH2 0x3843 PUSH8 0x76E3A440F346F78B PUSH1 0xC0 SHL PUSH2 0x54B5 JUMP JUMPDEST PUSH1 0x0 PUSH1 0x1 PUSH1 0x0 DUP8 DUP2 MSTORE PUSH1 0x20 ADD SWAP1 DUP2 MSTORE PUSH1 0x20 ADD PUSH1 0x0 KECCAK256 PUSH1 0x0 ADD SLOAD SUB PUSH2 0x389C JUMPI PUSH1 0x40 MLOAD PUSH32 0x8C379A000000000000000000000000000000000000000000000000000000000 DUP2 MSTORE PUSH1 0x4 ADD PUSH2 0x3893 SWAP1 PUSH2 0x7E92 JUMP JUMPDEST PUSH1 0x40 MLOAD DUP1 SWAP2 SUB SWAP1 REVERT JUMPDEST PUSH2 0x38B0 PUSH8 0x2FE19DD197AE71B7 PUSH1 0xC0 SHL PUSH2 0x54B5 JUMP JUMPDEST PUSH2 0x38C4 PUSH8 0x4DADAD20973E5E5D PUSH1 0xC0 SHL PUSH2 0x54B5 JUMP JUMPDEST PUSH2 0x38D8 PUSH8 0xDCFD845B2FE814EE PUSH1 0xC0 SHL PUSH2 0x54B5 JUMP JUMPDEST PUSH2 0x38EC PUSH8 0x87C8EA0FEDA3ADA5 PUSH1 0xC0 SHL PUSH2 0x54B5 JUMP JUMPDEST PUSH1 0x0 PUSH1 0x3 DUP2 GT ISZERO PUSH2 0x3900 JUMPI PUSH2 0x38FF PUSH2 0x7511 JUMP JUMPDEST JUMPDEST DUP5 PUSH1 0x3 DUP2 GT ISZERO PUSH2 0x3913 JUMPI PUSH2 0x3912 PUSH2 0x7511 JUMP JUMPDEST JUMPDEST LT ISZERO DUP1 ISZERO PUSH2 0x3945 JUMPI POP PUSH1 0x3 DUP1 DUP2 GT ISZERO PUSH2 0x392F JUMPI PUSH2 0x392E PUSH2 0x7511 JUMP JUMPDEST JUMPDEST DUP5 PUSH1 0x3 DUP2 GT ISZERO PUSH2 0x3942 JUMPI PUSH2 0x3941 PUSH2 0x7511 JUMP JUMPDEST JUMPDEST GT ISZERO JUMPDEST PUSH2 0x3984 JUMPI PUSH1 0x40 MLOAD PUSH32 0x8C379A000000000000000000000000000000000000000000000000000000000 DUP2 MSTORE PUSH1 0x4 ADD PUSH2 0x397B SWAP1 PUSH2 0x85FB JUMP JUMPDEST PUSH1 0x40 MLOAD DUP1 SWAP2 SUB SWAP1 REVERT JUMPDEST PUSH2 0x3998 PUSH8 0x124F1DAD53C69BC5 PUSH1 0xC0 SHL PUSH2 0x54B5 JUMP JUMPDEST PUSH2 0x39AC PUSH8 0x6E8D3572B8C8BA0B PUSH1 0xC0 SHL PUSH2 0x54B5 JUMP JUMPDEST PUSH2 0x39C0 PUSH8 0xEC4E2BCD06462333 PUSH1 0xC0 SHL PUSH2 0x54B5 JUMP JUMPDEST PUSH2 0x39D4 PUSH8 0x71868017DD9EA9A2 PUSH1 0xC0 SHL PUSH2 0x54B5 JUMP JUMPDEST PUSH1 0x0 PUSH1 0x2 DUP2 GT ISZERO PUSH2 0x39E8 JUMPI PUSH2 0x39E7 PUSH2 0x7511 JUMP JUMPDEST JUMPDEST DUP4 PUSH1 0x2 DUP2 GT ISZERO PUSH2 0x39FB JUMPI PUSH2 0x39FA PUSH2 0x7511 JUMP JUMPDEST JUMPDEST LT ISZERO DUP1 ISZERO PUSH2 0x3A2D JUMPI POP PUSH1 0x2 DUP1 DUP2 GT ISZERO PUSH2 0x3A17 JUMPI PUSH2 0x3A16 PUSH2 0x7511 JUMP JUMPDEST JUMPDEST DUP4 PUSH1 0x2 DUP2 GT ISZERO PUSH2 0x3A2A JUMPI PUSH2 0x3A29 PUSH2 0x7511 JUMP JUMPDEST JUMPDEST GT ISZERO JUMPDEST PUSH2 0x3A6C JUMPI PUSH1 0x40 MLOAD PUSH32 0x8C379A000000000000000000000000000000000000000000000000000000000 DUP2 MSTORE PUSH1 0x4 ADD PUSH2 0x3A63 SWAP1 PUSH2 0x8667 JUMP JUMPDEST PUSH1 0x40 MLOAD DUP1 SWAP2 SUB SWAP1 REVERT JUMPDEST PUSH2 0x3A80 PUSH8 0xAB1BD67FCC0DC4E6 PUSH1 0xC0 SHL PUSH2 0x54B5 JUMP JUMPDEST PUSH2 0x3A94 PUSH8 0x14693CE83117A4A6 PUSH1 0xC0 SHL PUSH2 0x54B5 JUMP JUMPDEST PUSH2 0x3AA8 PUSH8 0x1EE91D41820DE701 PUSH1 0xC0 SHL PUSH2 0x54B5 JUMP JUMPDEST PUSH2 0x3ABC PUSH8 0x65714EE521157C16 PUSH1 0xC0 SHL PUSH2 0x54B5 JUMP JUMPDEST PUSH1 0x0 PUSH1 0xF DUP2 GT ISZERO PUSH2 0x3AD0 JUMPI PUSH2 0x3ACF PUSH2 0x7511 JUMP JUMPDEST JUMPDEST DUP3 PUSH1 0xF DUP2 GT ISZERO PUSH2 0x3AE3 JUMPI PUSH2 0x3AE2 PUSH2 0x7511 JUMP JUMPDEST JUMPDEST LT ISZERO DUP1 ISZERO PUSH2 0x3B15 JUMPI POP PUSH1 0xF DUP1 DUP2 GT ISZERO PUSH2 0x3AFF JUMPI PUSH2 0x3AFE PUSH2 0x7511 JUMP JUMPDEST JUMPDEST DUP3 PUSH1 0xF DUP2 GT ISZERO PUSH2 0x3B12 JUMPI PUSH2 0x3B11 PUSH2 0x7511 JUMP JUMPDEST JUMPDEST GT ISZERO JUMPDEST PUSH2 0x3B54 JUMPI PUSH1 0x40 MLOAD PUSH32 0x8C379A000000000000000000000000000000000000000000000000000000000 DUP2 MSTORE PUSH1 0x4 ADD PUSH2 0x3B4B SWAP1 PUSH2 0x86D3 JUMP JUMPDEST PUSH1 0x40 MLOAD DUP1 SWAP2 SUB SWAP1 REVERT JUMPDEST PUSH2 0x3B68 PUSH8 0x647B5B224D6B0949 PUSH1 0xC0 SHL PUSH2 0x54B5 JUMP JUMPDEST PUSH2 0x3B7C PUSH8 0x65B7E103C94A229D PUSH1 0xC0 SHL PUSH2 0x54B5 JUMP JUMPDEST PUSH2 0x3B90 PUSH8 0x12792DB49BD80008 PUSH1 0xC0 SHL PUSH2 0x54B5 JUMP JUMPDEST PUSH2 0x3BA4 PUSH8 0x3A5A274BE22801D2 PUSH1 0xC0 SHL PUSH2 0x54B5 JUMP JUMPDEST PUSH1 0x0 ISZERO ISZERO PUSH1 0x7 PUSH1 0x0 DUP8 DUP8 DUP8 DUP8 PUSH1 0x40 MLOAD PUSH1 0x20 ADD PUSH2 0x3BC3 SWAP5 SWAP4 SWAP3 SWAP2 SWAP1 PUSH2 0x8757 JUMP JUMPDEST PUSH1 0x40 MLOAD PUSH1 0x20 DUP2 DUP4 SUB SUB DUP2 MSTORE SWAP1 PUSH1 0x40 MSTORE DUP1 MLOAD SWAP1 PUSH1 0x20 ADD KECCAK256 DUP2 MSTORE PUSH1 0x20 ADD SWAP1 DUP2 MSTORE PUSH1 0x20 ADD PUSH1 0x0 KECCAK256 PUSH1 0x2 ADD PUSH1 0x0 SWAP1 SLOAD SWAP1 PUSH2 0x100 EXP SWAP1 DIV PUSH1 0xFF AND ISZERO ISZERO EQ PUSH2 0x3C3A JUMPI PUSH1 0x40 MLOAD PUSH32 0x8C379A000000000000000000000000000000000000000000000000000000000 DUP2 MSTORE PUSH1 0x4 ADD PUSH2 0x3C31 SWAP1 PUSH2 0x8B52 JUMP JUMPDEST PUSH1 0x40 MLOAD DUP1 SWAP2 SUB SWAP1 REVERT JUMPDEST PUSH2 0x3C4E PUSH8 0x493634455E2D80E9 PUSH1 0xC0 SHL PUSH2 0x54B5 JUMP JUMPDEST PUSH2 0x3C62 PUSH8 0x1175E050037A7C27 PUSH1 0xC0 SHL PUSH2 0x54B5 JUMP JUMPDEST PUSH2 0x3C76 PUSH8 0x5137F0B970B59AA7 PUSH1 0xC0 SHL PUSH2 0x54B5 JUMP JUMPDEST PUSH1 0x0 DUP6 DUP6 DUP6 DUP6 PUSH1 0x40 MLOAD PUSH1 0x20 ADD PUSH2 0x3C8F SWAP5 SWAP4 SWAP3 SWAP2 SWAP1 PUSH2 0x8BBE JUMP JUMPDEST PUSH1 0x40 MLOAD PUSH1 0x20 DUP2 DUP4 SUB SUB DUP2 MSTORE SWAP1 PUSH1 0x40 MSTORE DUP1 MLOAD SWAP1 PUSH1 0x20 ADD KECCAK256 SWAP1 POP PUSH2 0x3CBB PUSH8 0x7BA3D7AD982F17C1 PUSH1 0xC0 SHL PUSH2 0x54B5 JUMP JUMPDEST PUSH2 0x3CCF PUSH8 0x5FF2FE70F0A16508 PUSH1 0xC0 SHL PUSH2 0x54B5 JUMP JUMPDEST PUSH2 0x3D75 DUP2 PUSH32 0xD646AE07EB0D0F77457502A65E7407930DFF4CD4FD99ABC6AAC87A753F4C8A42 PUSH2 0x3CFD DUP10 PUSH2 0x54B8 JUMP JUMPDEST PUSH2 0x3D18 DUP10 PUSH1 0x3 DUP2 GT ISZERO PUSH2 0x3D13 JUMPI PUSH2 0x3D12 PUSH2 0x7511 JUMP JUMPDEST JUMPDEST PUSH2 0x54B8 JUMP JUMPDEST PUSH2 0x3D33 DUP10 PUSH1 0x2 DUP2 GT ISZERO PUSH2 0x3D2E JUMPI PUSH2 0x3D2D PUSH2 0x7511 JUMP JUMPDEST JUMPDEST PUSH2 0x54B8 JUMP JUMPDEST PUSH2 0x3D4E DUP10 PUSH1 0xF DUP2 GT ISZERO PUSH2 0x3D49 JUMPI PUSH2 0x3D48 PUSH2 0x7511 JUMP JUMPDEST JUMPDEST PUSH2 0x54B8 JUMP JUMPDEST PUSH1 0x40 MLOAD PUSH1 0x20 ADD PUSH2 0x3D61 SWAP5 SWAP4 SWAP3 SWAP2 SWAP1 PUSH2 0x8C3D JUMP JUMPDEST PUSH1 0x40 MLOAD PUSH1 0x20 DUP2 DUP4 SUB SUB DUP2 MSTORE SWAP1 PUSH1 0x40 MSTORE PUSH2 0x5586 JUMP JUMPDEST PUSH2 0x3D89 PUSH8 0x39D9FB6B575BA4E3 PUSH1 0xC0 SHL PUSH2 0x54B5 JUMP JUMPDEST PUSH2 0x3D9D PUSH8 0x248DCA5C34FF865B PUSH1 0xC0 SHL PUSH2 0x54B5 JUMP JUMPDEST DUP2 DUP1 ISZERO PUSH2 0x3E0E JUMPI POP PUSH1 0x0 ISZERO ISZERO PUSH1 0x4 PUSH1 0x0 DUP4 DUP2 MSTORE PUSH1 0x20 ADD SWAP1 DUP2 MSTORE PUSH1 0x20 ADD PUSH1 0x0 KECCAK256 PUSH1 0x3 ADD PUSH1 0x0 CALLER PUSH20 0xFFFFFFFFFFFFFFFFFFFFFFFFFFFFFFFFFFFFFFFF AND PUSH20 0xFFFFFFFFFFFFFFFFFFFFFFFFFFFFFFFFFFFFFFFF AND DUP2 MSTORE PUSH1 0x20 ADD SWAP1 DUP2 MSTORE PUSH1 0x20 ADD PUSH1 0x0 KECCAK256 PUSH1 0x0 SWAP1 SLOAD SWAP1 PUSH2 0x100 EXP SWAP1 DIV PUSH1 0xFF AND ISZERO ISZERO EQ JUMPDEST ISZERO PUSH2 0x3ECF JUMPI PUSH2 0x3E27 PUSH8 0x52D84047F7EC1FD8 PUSH1 0xC0 SHL PUSH2 0x54B5 JUMP JUMPDEST PUSH2 0x3E3B PUSH8 0xAE030A65C15F8755 PUSH1 0xC0 SHL PUSH2 0x54B5 JUMP JUMPDEST PUSH2 0x3E4F PUSH8 0x4DBD682BD4FC3106 PUSH1 0xC0 SHL PUSH2 0x54B5 JUMP JUMPDEST PUSH2 0x3E6B PUSH1 0x4 PUSH1 0x0 DUP4 DUP2 MSTORE PUSH1 0x20 ADD SWAP1 DUP2 MSTORE PUSH1 0x20 ADD PUSH1 0x0 KECCAK256 CALLER PUSH2 0x572A JUMP JUMPDEST PUSH2 0x3E7F PUSH8 0x14F96B5406597F99 PUSH1 0xC0 SHL PUSH2 0x54B5 JUMP JUMPDEST PUSH2 0x3E93 PUSH8 0xDF07991CAEF353D PUSH1 0xC0 SHL PUSH2 0x54B5 JUMP JUMPDEST PUSH32 0xB431A69783A2491A0C400FF16DAB32CD442ABF8FE5AF63A526A7248D730192F8 DUP2 PUSH1 0x40 MLOAD PUSH2 0x3EC2 SWAP2 SWAP1 PUSH2 0x72FE JUMP JUMPDEST PUSH1 0x40 MLOAD DUP1 SWAP2 SUB SWAP1 LOG1 PUSH2 0x3FD5 JUMP JUMPDEST PUSH2 0x3EE3 PUSH8 0xAE62EA1482F5A883 PUSH1 0xC0 SHL PUSH2 0x54B5 JUMP JUMPDEST PUSH2 0x3EF7 PUSH8 0x163E0E75E54E0C8A PUSH1 0xC0 SHL PUSH2 0x54B5 JUMP JUMPDEST PUSH1 0x0 ISZERO ISZERO DUP3 ISZERO ISZERO SUB PUSH2 0x3FBF JUMPI PUSH2 0x3F17 PUSH8 0xA4E6A19CBFE51679 PUSH1 0xC0 SHL PUSH2 0x54B5 JUMP JUMPDEST PUSH2 0x3F2B PUSH8 0x5C78A7177EB1A8FB PUSH1 0xC0 SHL PUSH2 0x54B5 JUMP JUMPDEST PUSH2 0x3F3F PUSH8 0xBF4499FF51C0C221 PUSH1 0xC0 SHL PUSH2 0x54B5 JUMP JUMPDEST PUSH2 0x3F5B PUSH1 0x4 PUSH1 0x0 DUP4 DUP2 MSTORE PUSH1 0x20 ADD SWAP1 DUP2 MSTORE PUSH1 0x20 ADD PUSH1 0x0 KECCAK256 CALLER PUSH2 0x59AC JUMP JUMPDEST PUSH2 0x3F6F PUSH8 0x822948BE4D3EF9A7 PUSH1 0xC0 SHL PUSH2 0x54B5 JUMP JUMPDEST PUSH2 0x3F83 PUSH8 0x96129956313ADF1B PUSH1 0xC0 SHL PUSH2 0x54B5 JUMP JUMPDEST PUSH32 0xB431A69783A2491A0C400FF16DAB32CD442ABF8FE5AF63A526A7248D730192F8 DUP2 PUSH1 0x40 MLOAD PUSH2 0x3FB2 SWAP2 SWAP1 PUSH2 0x72FE JUMP JUMPDEST PUSH1 0x40 MLOAD DUP1 SWAP2 SUB SWAP1 LOG1 PUSH2 0x3FD4 JUMP JUMPDEST PUSH2 0x3FD3 PUSH8 0xA37DF02138054E52 PUSH1 0xC0 SHL PUSH2 0x54B5 JUMP JUMPDEST JUMPDEST JUMPDEST PUSH2 0x3FE9 PUSH8 0xB057154329C49BF8 PUSH1 0xC0 SHL PUSH2 0x54B5 JUMP JUMPDEST PUSH2 0x3FFD PUSH8 0xE3A8E90515CCE0B7 PUSH1 0xC0 SHL PUSH2 0x54B5 JUMP JUMPDEST PUSH2 0x4063 PUSH1 0x33 PUSH1 0xFF AND PUSH1 0x3 PUSH1 0x0 PUSH32 0xD646AE07EB0D0F77457502A65E7407930DFF4CD4FD99ABC6AAC87A753F4C8A42 DUP2 MSTORE PUSH1 0x20 ADD SWAP1 DUP2 MSTORE PUSH1 0x20 ADD PUSH1 0x0 KECCAK256 PUSH1 0x0 ADD PUSH1 0x0 SWAP1 SLOAD SWAP1 PUSH2 0x100 EXP SWAP1 DIV PUSH4 0xFFFFFFFF AND PUSH2 0x4056 SWAP2 SWAP1 PUSH2 0x800C JUMP JUMPDEST PUSH4 0xFFFFFFFF AND PUSH1 0x64 PUSH2 0x41BF JUMP JUMPDEST PUSH1 0x4 PUSH1 0x0 DUP4 DUP2 MSTORE PUSH1 0x20 ADD SWAP1 DUP2 MSTORE PUSH1 0x20 ADD PUSH1 0x0 KECCAK256 PUSH1 0x2 ADD PUSH1 0x0 SWAP1 SLOAD SWAP1 PUSH2 0x100 EXP SWAP1 DIV PUSH1 0xFF AND PUSH1 0xFF AND LT PUSH2 0x417E JUMPI PUSH2 0x40A3 PUSH8 0xB5A228E10270E225 PUSH1 0xC0 SHL PUSH2 0x54B5 JUMP JUMPDEST PUSH2 0x40B7 PUSH8 0x3DDB288B7F8FDE58 PUSH1 0xC0 SHL PUSH2 0x54B5 JUMP JUMPDEST PUSH2 0x40CB PUSH8 0x28FFED5C4BBB136D PUSH1 0xC0 SHL PUSH2 0x54B5 JUMP JUMPDEST PUSH2 0x40E6 PUSH1 0x4 PUSH1 0x0 DUP4 DUP2 MSTORE PUSH1 0x20 ADD SWAP1 DUP2 MSTORE PUSH1 0x20 ADD PUSH1 0x0 KECCAK256 PUSH2 0x5B64 JUMP JUMPDEST PUSH2 0x40FA PUSH8 0x1A14E86B1536E0C4 PUSH1 0xC0 SHL PUSH2 0x54B5 JUMP JUMPDEST PUSH2 0x410E PUSH8 0x8190894182F13227 PUSH1 0xC0 SHL PUSH2 0x54B5 JUMP JUMPDEST PUSH32 0x562618DBCF74B61AE5B0F229FE40BA6D5B6AE6B4248F8C89A870DDA7C77135F6 DUP2 PUSH1 0x40 MLOAD PUSH2 0x413D SWAP2 SWAP1 PUSH2 0x72FE JUMP JUMPDEST PUSH1 0x40 MLOAD DUP1 SWAP2 SUB SWAP1 LOG1 PUSH2 0x4159 PUSH8 0x5E914CC764A08BDC PUSH1 0xC0 SHL PUSH2 0x54B5 JUMP JUMPDEST PUSH2 0x416D PUSH8 0x59CB1221E0215D5E PUSH1 0xC0 SHL PUSH2 0x54B5 JUMP JUMPDEST PUSH2 0x4179 DUP7 DUP7 DUP7 DUP7 PUSH2 0x6224 JUMP JUMPDEST PUSH2 0x4193 JUMP JUMPDEST PUSH2 0x4192 PUSH8 0x6D76B91FE9DE0F8C PUSH1 0xC0 SHL PUSH2 0x54B5 JUMP JUMPDEST JUMPDEST POP POP POP POP POP POP JUMP JUMPDEST PUSH32 0xD646AE07EB0D0F77457502A65E7407930DFF4CD4FD99ABC6AAC87A753F4C8A42 DUP2 JUMP JUMPDEST PUSH1 0x0 PUSH2 0x41D5 PUSH8 0xF61426E1A1F663DA PUSH1 0xC0 SHL PUSH2 0x64B1 JUMP JUMPDEST PUSH2 0x41E9 PUSH8 0xC372D0ED468D9DEA PUSH1 0xC0 SHL PUSH2 0x64B1 JUMP JUMPDEST PUSH2 0x41FD PUSH8 0x709952A306F11CE PUSH1 0xC0 SHL PUSH2 0x64B1 JUMP JUMPDEST PUSH1 0x0 DUP3 DUP5 PUSH2 0x420B SWAP2 SWAP1 PUSH2 0x8CE6 JUMP JUMPDEST SUB PUSH2 0x425F JUMPI PUSH2 0x4224 PUSH8 0x4FB2442B97E9378C PUSH1 0xC0 SHL PUSH2 0x64B1 JUMP JUMPDEST PUSH2 0x4238 PUSH8 0xD8ACED1F47C17A94 PUSH1 0xC0 SHL PUSH2 0x64B1 JUMP JUMPDEST PUSH2 0x424C PUSH8 0x8666469E36A74799 PUSH1 0xC0 SHL PUSH2 0x64B1 JUMP JUMPDEST DUP2 DUP4 PUSH2 0x4258 SWAP2 SWAP1 PUSH2 0x8D17 JUMP JUMPDEST SWAP1 POP PUSH2 0x42B6 JUMP JUMPDEST PUSH2 0x4273 PUSH8 0x10C2EA96563E9261 PUSH1 0xC0 SHL PUSH2 0x64B1 JUMP JUMPDEST PUSH2 0x4287 PUSH8 0xF66B81FD4AC3F5C5 PUSH1 0xC0 SHL PUSH2 0x64B1 JUMP JUMPDEST PUSH2 0x429B PUSH8 0xB044A5F496FE479D PUSH1 0xC0 SHL PUSH2 0x64B1 JUMP JUMPDEST PUSH1 0x1 DUP3 DUP5 PUSH2 0x42A9 SWAP2 SWAP1 PUSH2 0x8D17 JUMP JUMPDEST PUSH2 0x42B3 SWAP2 SWAP1 PUSH2 0x80D8 JUMP JUMPDEST SWAP1 POP JUMPDEST SWAP3 SWAP2 POP POP JUMP JUMPDEST PUSH2 0x42D0 PUSH8 0x8F5912FC196C66FB PUSH1 0xC0 SHL PUSH2 0x54B5 JUMP JUMPDEST PUSH2 0x42E4 PUSH8 0xD451AD32AAB430B8 PUSH1 0xC0 SHL PUSH2 0x54B5 JUMP JUMPDEST PUSH2 0x42F8 PUSH8 0x2F872260EC70AA80 PUSH1 0xC0 SHL PUSH2 0x54B5 JUMP JUMPDEST PUSH2 0x430C PUSH8 0xE28D98831E470A0E PUSH1 0xC0 SHL PUSH2 0x54B5 JUMP JUMPDEST PUSH2 0x4336 PUSH32 0xD646AE07EB0D0F77457502A65E7407930DFF4CD4FD99ABC6AAC87A753F4C8A42 CALLER PUSH2 0x323C JUMP JUMPDEST PUSH2 0x4375 JUMPI PUSH1 0x40 MLOAD PUSH32 0x8C379A000000000000000000000000000000000000000000000000000000000 DUP2 MSTORE PUSH1 0x4 ADD PUSH2 0x436C SWAP1 PUSH2 0x7DBA JUMP JUMPDEST PUSH1 0x40 MLOAD DUP1 SWAP2 SUB SWAP1 REVERT JUMPDEST PUSH2 0x4389 PUSH8 0x70E61A765DFB20AA PUSH1 0xC0 SHL PUSH2 0x54B5 JUMP JUMPDEST PUSH2 0x439D PUSH8 0x68C3BD0AF40A1B5D PUSH1 0xC0 SHL PUSH2 0x54B5 JUMP JUMPDEST PUSH2 0x43B1 PUSH8 0x2BC4242EBEBE4289 PUSH1 0xC0 SHL PUSH2 0x54B5 JUMP JUMPDEST PUSH2 0x43C5 PUSH8 0xE87324C8C42B7147 PUSH1 0xC0 SHL PUSH2 0x54B5 JUMP JUMPDEST PUSH1 0x0 DUP5 GT PUSH2 0x4408 JUMPI PUSH1 0x40 MLOAD PUSH32 0x8C379A000000000000000000000000000000000000000000000000000000000 DUP2 MSTORE PUSH1 0x4 ADD PUSH2 0x43FF SWAP1 PUSH2 0x7E26 JUMP JUMPDEST PUSH1 0x40 MLOAD DUP1 SWAP2 SUB SWAP1 REVERT JUMPDEST PUSH2 0x441C PUSH8 0x2C4D7D6A241E4B89 PUSH1 0xC0 SHL PUSH2 0x54B5 JUMP JUMPDEST PUSH2 0x4430 PUSH8 0xF2F4865958547479 PUSH1 0xC0 SHL PUSH2 0x54B5 JUMP JUMPDEST PUSH2 0x4444 PUSH8 0x8E01888C80102D37 PUSH1 0xC0 SHL PUSH2 0x54B5 JUMP JUMPDEST PUSH2 0x4458 PUSH8 0xBC51F865C49130A8 PUSH1 0xC0 SHL PUSH2 0x54B5 JUMP JUMPDEST PUSH1 0x0 PUSH1 0x1 PUSH1 0x0 DUP7 DUP2 MSTORE PUSH1 0x20 ADD SWAP1 DUP2 MSTORE PUSH1 0x20 ADD PUSH1 0x0 KECCAK256 PUSH1 0x0 ADD SLOAD SUB PUSH2 0x44B1 JUMPI PUSH1 0x40 MLOAD PUSH32 0x8C379A000000000000000000000000000000000000000000000000000000000 DUP2 MSTORE PUSH1 0x4 ADD PUSH2 0x44A8 SWAP1 PUSH2 0x7E92 JUMP JUMPDEST PUSH1 0x40 MLOAD DUP1 SWAP2 SUB SWAP1 REVERT JUMPDEST PUSH2 0x44C5 PUSH8 0xF8B6AC0350413CDE PUSH1 0xC0 SHL PUSH2 0x54B5 JUMP JUMPDEST PUSH2 0x44D9 PUSH8 0x4F5571DC82A8340F PUSH1 0xC0 SHL PUSH2 0x54B5 JUMP JUMPDEST PUSH2 0x44ED PUSH8 0xDF20EF43CD86120A PUSH1 0xC0 SHL PUSH2 0x54B5 JUMP JUMPDEST PUSH2 0x44F9 DUP5 DUP5 DUP5 DUP5 PUSH2 0x64B4 JUMP JUMPDEST POP POP POP POP JUMP JUMPDEST PUSH1 0x50 DUP2 JUMP JUMPDEST PUSH2 0x4518 PUSH8 0x85550DFB5A2FA17E PUSH1 0xC0 SHL PUSH2 0x54B5 JUMP JUMPDEST PUSH2 0x452C PUSH8 0x987F0DD0903D99A0 PUSH1 0xC0 SHL PUSH2 0x54B5 JUMP JUMPDEST PUSH2 0x4540 PUSH8 0x65417F5293396293 PUSH1 0xC0 SHL PUSH2 0x54B5 JUMP JUMPDEST PUSH1 0x0 PUSH1 0x3 PUSH1 0x0 DUP6 DUP2 MSTORE PUSH1 0x20 ADD SWAP1 DUP2 MSTORE PUSH1 0x20 ADD PUSH1 0x0 KECCAK256 SWAP1 POP PUSH2 0x456B PUSH8 0x1A036548B9454EFA PUSH1 0xC0 SHL PUSH2 0x54B5 JUMP JUMPDEST PUSH2 0x457F PUSH8 0x8A81A5A89E7249F2 PUSH1 0xC0 SHL PUSH2 0x54B5 JUMP JUMPDEST PUSH2 0x4593 PUSH8 0x4FADF5AF7278B04 PUSH1 0xC0 SHL PUSH2 0x54B5 JUMP JUMPDEST DUP1 PUSH1 0x0 ADD PUSH1 0x4 SWAP1 SLOAD SWAP1 PUSH2 0x100 EXP SWAP1 DIV PUSH4 0xFFFFFFFF AND PUSH4 0xFFFFFFFF AND DUP2 PUSH1 0x0 ADD PUSH1 0x0 SWAP1 SLOAD SWAP1 PUSH2 0x100 EXP SWAP1 DIV PUSH4 0xFFFFFFFF AND PUSH4 0xFFFFFFFF AND GT DUP2 PUSH1 0x2 ADD SLOAD PUSH1 0x40 MLOAD PUSH1 0x20 ADD PUSH2 0x45DF SWAP2 SWAP1 PUSH2 0x82B5 JUMP JUMPDEST PUSH1 0x40 MLOAD PUSH1 0x20 DUP2 DUP4 SUB SUB DUP2 MSTORE SWAP1 PUSH1 0x40 MSTORE PUSH1 0x40 MLOAD PUSH1 0x20 ADD PUSH2 0x45FE SWAP2 SWAP1 PUSH2 0x8D6E JUMP JUMPDEST PUSH1 0x40 MLOAD PUSH1 0x20 DUP2 DUP4 SUB SUB DUP2 MSTORE SWAP1 PUSH1 0x40 MSTORE SWAP1 PUSH2 0x464E JUMPI PUSH1 0x40 MLOAD PUSH32 0x8C379A000000000000000000000000000000000000000000000000000000000 DUP2 MSTORE PUSH1 0x4 ADD PUSH2 0x4645 SWAP2 SWAP1 PUSH2 0x7210 JUMP JUMPDEST PUSH1 0x40 MLOAD DUP1 SWAP2 SUB SWAP1 REVERT JUMPDEST POP PUSH2 0x4663 PUSH8 0xA15A5378DC28021C PUSH1 0xC0 SHL PUSH2 0x54B5 JUMP JUMPDEST PUSH2 0x4677 PUSH8 0x21FC27606240057C PUSH1 0xC0 SHL PUSH2 0x54B5 JUMP JUMPDEST PUSH2 0x468B PUSH8 0xE67F2367DE48A396 PUSH1 0xC0 SHL PUSH2 0x54B5 JUMP JUMPDEST PUSH2 0x469F PUSH8 0x3BBA1B125BE8F21A PUSH1 0xC0 SHL PUSH2 0x54B5 JUMP JUMPDEST PUSH2 0x46A9 DUP5 DUP5 PUSH2 0x323C JUMP JUMPDEST DUP2 PUSH1 0x2 ADD SLOAD PUSH1 0x40 MLOAD PUSH1 0x20 ADD PUSH2 0x46BE SWAP2 SWAP1 PUSH2 0x82B5 JUMP JUMPDEST PUSH1 0x40 MLOAD PUSH1 0x20 DUP2 DUP4 SUB SUB DUP2 MSTORE SWAP1 PUSH1 0x40 MSTORE PUSH1 0x40 MLOAD PUSH1 0x20 ADD PUSH2 0x46DD SWAP2 SWAP1 PUSH2 0x8DC9 JUMP JUMPDEST PUSH1 0x40 MLOAD PUSH1 0x20 DUP2 DUP4 SUB SUB DUP2 MSTORE SWAP1 PUSH1 0x40 MSTORE SWAP1 PUSH2 0x472D JUMPI PUSH1 0x40 MLOAD PUSH32 0x8C379A000000000000000000000000000000000000000000000000000000000 DUP2 MSTORE PUSH1 0x4 ADD PUSH2 0x4724 SWAP2 SWAP1 PUSH2 0x7210 JUMP JUMPDEST PUSH1 0x40 MLOAD DUP1 SWAP2 SUB SWAP1 REVERT JUMPDEST POP PUSH2 0x4742 PUSH8 0xEB5BB2AC8E80D29B PUSH1 0xC0 SHL PUSH2 0x54B5 JUMP JUMPDEST PUSH2 0x4756 PUSH8 0x55EA1935824A5E18 PUSH1 0xC0 SHL PUSH2 0x54B5 JUMP JUMPDEST PUSH2 0x476A PUSH8 0x2A12CAC354A8E823 PUSH1 0xC0 SHL PUSH2 0x54B5 JUMP JUMPDEST PUSH2 0x477E PUSH8 0x67EC4DA59FBC86A1 PUSH1 0xC0 SHL PUSH2 0x54B5 JUMP JUMPDEST PUSH2 0x478C DUP2 PUSH1 0x1 ADD SLOAD CALLER PUSH2 0x323C JUMP JUMPDEST DUP2 PUSH1 0x2 ADD SLOAD PUSH1 0x40 MLOAD PUSH1 0x20 ADD PUSH2 0x47A1 SWAP2 SWAP1 PUSH2 0x82B5 JUMP JUMPDEST PUSH1 0x40 MLOAD PUSH1 0x20 DUP2 DUP4 SUB SUB DUP2 MSTORE SWAP1 PUSH1 0x40 MSTORE PUSH1 0x40 MLOAD PUSH1 0x20 ADD PUSH2 0x47C0 SWAP2 SWAP1 PUSH2 0x839D JUMP JUMPDEST PUSH1 0x40 MLOAD PUSH1 0x20 DUP2 DUP4 SUB SUB DUP2 MSTORE SWAP1 PUSH1 0x40 MSTORE SWAP1 PUSH2 0x4810 JUMPI PUSH1 0x40 MLOAD PUSH32 0x8C379A000000000000000000000000000000000000000000000000000000000 DUP2 MSTORE PUSH1 0x4 ADD PUSH2 0x4807 SWAP2 SWAP1 PUSH2 0x7210 JUMP JUMPDEST PUSH1 0x40 MLOAD DUP1 SWAP2 SUB SWAP1 REVERT JUMPDEST POP PUSH2 0x4825 PUSH8 0x6EFDDDF06DED552E PUSH1 0xC0 SHL PUSH2 0x54B5 JUMP JUMPDEST PUSH2 0x4839 PUSH8 0x8F6D07B51ABB6A24 PUSH1 0xC0 SHL PUSH2 0x54B5 JUMP JUMPDEST PUSH2 0x484D PUSH8 0xA14FB71BA5E7613F PUSH1 0xC0 SHL PUSH2 0x54B5 JUMP JUMPDEST PUSH1 0x0 DUP4 DUP6 PUSH1 0x40 MLOAD PUSH1 0x20 ADD PUSH2 0x4862 SWAP3 SWAP2 SWAP1 PUSH2 0x8E3B JUMP JUMPDEST PUSH1 0x40 MLOAD PUSH1 0x20 DUP2 DUP4 SUB SUB DUP2 MSTORE SWAP1 PUSH1 0x40 MSTORE DUP1 MLOAD SWAP1 PUSH1 0x20 ADD KECCAK256 SWAP1 POP PUSH2 0x488E PUSH8 0xDF7DD5880412D4B9 PUSH1 0xC0 SHL PUSH2 0x54B5 JUMP JUMPDEST PUSH2 0x48A2 PUSH8 0x5FF1C5FAC858EEC9 PUSH1 0xC0 SHL PUSH2 0x54B5 JUMP JUMPDEST PUSH2 0x48FD DUP2 DUP4 PUSH1 0x1 ADD SLOAD DUP5 PUSH1 0x2 ADD SLOAD PUSH1 0x40 MLOAD PUSH1 0x20 ADD PUSH2 0x48C0 SWAP2 SWAP1 PUSH2 0x82B5 JUMP JUMPDEST PUSH1 0x40 MLOAD PUSH1 0x20 DUP2 DUP4 SUB SUB DUP2 MSTORE SWAP1 PUSH1 0x40 MSTORE PUSH2 0x48D8 DUP9 PUSH2 0x10D3 JUMP JUMPDEST PUSH1 0x40 MLOAD PUSH1 0x20 ADD PUSH2 0x48E9 SWAP3 SWAP2 SWAP1 PUSH2 0x8E98 JUMP JUMPDEST PUSH1 0x40 MLOAD PUSH1 0x20 DUP2 DUP4 SUB SUB DUP2 MSTORE SWAP1 PUSH1 0x40 MSTORE PUSH2 0x5586 JUMP JUMPDEST PUSH2 0x4911 PUSH8 0xFE26844B548A8378 PUSH1 0xC0 SHL PUSH2 0x54B5 JUMP JUMPDEST PUSH2 0x4925 PUSH8 0x68A51F3C021201CB PUSH1 0xC0 SHL PUSH2 0x54B5 JUMP JUMPDEST DUP3 DUP1 ISZERO PUSH2 0x4996 JUMPI POP PUSH1 0x0 ISZERO ISZERO PUSH1 0x4 PUSH1 0x0 DUP4 DUP2 MSTORE PUSH1 0x20 ADD SWAP1 DUP2 MSTORE PUSH1 0x20 ADD PUSH1 0x0 KECCAK256 PUSH1 0x3 ADD PUSH1 0x0 CALLER PUSH20 0xFFFFFFFFFFFFFFFFFFFFFFFFFFFFFFFFFFFFFFFF AND PUSH20 0xFFFFFFFFFFFFFFFFFFFFFFFFFFFFFFFFFFFFFFFF AND DUP2 MSTORE PUSH1 0x20 ADD SWAP1 DUP2 MSTORE PUSH1 0x20 ADD PUSH1 0x0 KECCAK256 PUSH1 0x0 SWAP1 SLOAD SWAP1 PUSH2 0x100 EXP SWAP1 DIV PUSH1 0xFF AND ISZERO ISZERO EQ JUMPDEST ISZERO PUSH2 0x4A57 JUMPI PUSH2 0x49AF PUSH8 0xA21E7EBE78774F90 PUSH1 0xC0 SHL PUSH2 0x54B5 JUMP JUMPDEST PUSH2 0x49C3 PUSH8 0xCD288A479316CB8E PUSH1 0xC0 SHL PUSH2 0x54B5 JUMP JUMPDEST PUSH2 0x49D7 PUSH8 0xE62655D9C0DA73F4 PUSH1 0xC0 SHL PUSH2 0x54B5 JUMP JUMPDEST PUSH2 0x49F3 PUSH1 0x4 PUSH1 0x0 DUP4 DUP2 MSTORE PUSH1 0x20 ADD SWAP1 DUP2 MSTORE PUSH1 0x20 ADD PUSH1 0x0 KECCAK256 CALLER PUSH2 0x572A JUMP JUMPDEST PUSH2 0x4A07 PUSH8 0x5D17B8D482393673 PUSH1 0xC0 SHL PUSH2 0x54B5 JUMP JUMPDEST PUSH2 0x4A1B PUSH8 0xA680BCC96564015D PUSH1 0xC0 SHL PUSH2 0x54B5 JUMP JUMPDEST PUSH32 0xB431A69783A2491A0C400FF16DAB32CD442ABF8FE5AF63A526A7248D730192F8 DUP2 PUSH1 0x40 MLOAD PUSH2 0x4A4A SWAP2 SWAP1 PUSH2 0x72FE JUMP JUMPDEST PUSH1 0x40 MLOAD DUP1 SWAP2 SUB SWAP1 LOG1 PUSH2 0x4B5D JUMP JUMPDEST PUSH2 0x4A6B PUSH8 0x4108A0766FB3770F PUSH1 0xC0 SHL PUSH2 0x54B5 JUMP JUMPDEST PUSH2 0x4A7F PUSH8 0x37C85746C2F8F065 PUSH1 0xC0 SHL PUSH2 0x54B5 JUMP JUMPDEST PUSH1 0x0 ISZERO ISZERO DUP4 ISZERO ISZERO SUB PUSH2 0x4B47 JUMPI PUSH2 0x4A9F PUSH8 0x2011FAB2EAC00491 PUSH1 0xC0 SHL PUSH2 0x54B5 JUMP JUMPDEST PUSH2 0x4AB3 PUSH8 0x44A1B5A674D397BA PUSH1 0xC0 SHL PUSH2 0x54B5 JUMP JUMPDEST PUSH2 0x4AC7 PUSH8 0x356380150091118D PUSH1 0xC0 SHL PUSH2 0x54B5 JUMP JUMPDEST PUSH2 0x4AE3 PUSH1 0x4 PUSH1 0x0 DUP4 DUP2 MSTORE PUSH1 0x20 ADD SWAP1 DUP2 MSTORE PUSH1 0x20 ADD PUSH1 0x0 KECCAK256 CALLER PUSH2 0x59AC JUMP JUMPDEST PUSH2 0x4AF7 PUSH8 0xD1DA6E531BB5433E PUSH1 0xC0 SHL PUSH2 0x54B5 JUMP JUMPDEST PUSH2 0x4B0B PUSH8 0x2EE69EE778148743 PUSH1 0xC0 SHL PUSH2 0x54B5 JUMP JUMPDEST PUSH32 0xB431A69783A2491A0C400FF16DAB32CD442ABF8FE5AF63A526A7248D730192F8 DUP2 PUSH1 0x40 MLOAD PUSH2 0x4B3A SWAP2 SWAP1 PUSH2 0x72FE JUMP JUMPDEST PUSH1 0x40 MLOAD DUP1 SWAP2 SUB SWAP1 LOG1 PUSH2 0x4B5C JUMP JUMPDEST PUSH2 0x4B5B PUSH8 0x1B9E414AB197E55F PUSH1 0xC0 SHL PUSH2 0x54B5 JUMP JUMPDEST JUMPDEST JUMPDEST PUSH2 0x4B71 PUSH8 0x14F85A465318971D PUSH1 0xC0 SHL PUSH2 0x54B5 JUMP JUMPDEST PUSH2 0x4B85 PUSH8 0xE79B395DE5E6D684 PUSH1 0xC0 SHL PUSH2 0x54B5 JUMP JUMPDEST DUP2 PUSH1 0x1 ADD SLOAD DUP6 EQ ISZERO DUP1 ISZERO PUSH2 0x4C18 JUMPI POP PUSH2 0x4BEE DUP3 PUSH1 0x0 ADD PUSH1 0xD SWAP1 SLOAD SWAP1 PUSH2 0x100 EXP SWAP1 DIV PUSH1 0xFF AND PUSH1 0xFF AND PUSH1 0x3 PUSH1 0x0 DUP6 PUSH1 0x1 ADD SLOAD DUP2 MSTORE PUSH1 0x20 ADD SWAP1 DUP2 MSTORE PUSH1 0x20 ADD PUSH1 0x0 KECCAK256 PUSH1 0x0 ADD PUSH1 0x0 SWAP1 SLOAD SWAP1 PUSH2 0x100 EXP SWAP1 DIV PUSH4 0xFFFFFFFF AND PUSH2 0x4BE1 SWAP2 SWAP1 PUSH2 0x800C JUMP JUMPDEST PUSH4 0xFFFFFFFF AND PUSH1 0x64 PUSH2 0x41BF JUMP JUMPDEST PUSH1 0x4 PUSH1 0x0 DUP4 DUP2 MSTORE PUSH1 0x20 ADD SWAP1 DUP2 MSTORE PUSH1 0x20 ADD PUSH1 0x0 KECCAK256 PUSH1 0x2 ADD PUSH1 0x0 SWAP1 SLOAD SWAP1 PUSH2 0x100 EXP SWAP1 DIV PUSH1 0xFF AND PUSH1 0xFF AND LT ISZERO JUMPDEST DUP1 ISZERO PUSH2 0x4C34 JUMPI POP PUSH2 0x4C33 PUSH8 0x5EA5FD91E72C5013 PUSH1 0xC0 SHL PUSH2 0x6929 JUMP JUMPDEST JUMPDEST DUP1 PUSH2 0x4CF5 JUMPI POP DUP2 PUSH1 0x1 ADD SLOAD DUP6 EQ DUP1 ISZERO PUSH2 0x4CD8 JUMPI POP PUSH2 0x4CAE DUP3 PUSH1 0x0 ADD PUSH1 0xD SWAP1 SLOAD SWAP1 PUSH2 0x100 EXP SWAP1 DIV PUSH1 0xFF AND PUSH1 0xFF AND PUSH1 0x1 PUSH1 0x3 PUSH1 0x0 DUP7 PUSH1 0x1 ADD SLOAD DUP2 MSTORE PUSH1 0x20 ADD SWAP1 DUP2 MSTORE PUSH1 0x20 ADD PUSH1 0x0 KECCAK256 PUSH1 0x0 ADD PUSH1 0x0 SWAP1 SLOAD SWAP1 PUSH2 0x100 EXP SWAP1 DIV PUSH4 0xFFFFFFFF AND PUSH2 0x4C97 SWAP2 SWAP1 PUSH2 0x8EDA JUMP JUMPDEST PUSH2 0x4CA1 SWAP2 SWAP1 PUSH2 0x800C JUMP JUMPDEST PUSH4 0xFFFFFFFF AND PUSH1 0x64 PUSH2 0x41BF JUMP JUMPDEST PUSH1 0x4 PUSH1 0x0 DUP4 DUP2 MSTORE PUSH1 0x20 ADD SWAP1 DUP2 MSTORE PUSH1 0x20 ADD PUSH1 0x0 KECCAK256 PUSH1 0x2 ADD PUSH1 0x0 SWAP1 SLOAD SWAP1 PUSH2 0x100 EXP SWAP1 DIV PUSH1 0xFF AND PUSH1 0xFF AND LT ISZERO JUMPDEST DUP1 ISZERO PUSH2 0x4CF4 JUMPI POP PUSH2 0x4CF3 PUSH8 0x40B5EFFBE6FBC4BA PUSH1 0xC0 SHL PUSH2 0x6929 JUMP JUMPDEST JUMPDEST JUMPDEST ISZERO PUSH2 0x5095 JUMPI PUSH2 0x4D0E PUSH8 0xD72DD4E9F32DF2A6 PUSH1 0xC0 SHL PUSH2 0x54B5 JUMP JUMPDEST PUSH2 0x4D22 PUSH8 0xED0A2A914FD84F7 PUSH1 0xC0 SHL PUSH2 0x54B5 JUMP JUMPDEST PUSH2 0x4D36 PUSH8 0x87DE25C771EC2582 PUSH1 0xC0 SHL PUSH2 0x54B5 JUMP JUMPDEST PUSH1 0x0 JUMPDEST PUSH1 0x6 SLOAD DUP2 LT ISZERO PUSH2 0x4F65 JUMPI PUSH2 0x4D57 PUSH8 0x9A8CDFCABCB0DACB PUSH1 0xC0 SHL PUSH2 0x54B5 JUMP JUMPDEST PUSH2 0x4D6B PUSH8 0x772E58326B3683CE PUSH1 0xC0 SHL PUSH2 0x54B5 JUMP JUMPDEST PUSH1 0x1 ISZERO ISZERO PUSH1 0x4 PUSH1 0x0 PUSH1 0x5 PUSH1 0x0 DUP6 DUP2 MSTORE PUSH1 0x20 ADD SWAP1 DUP2 MSTORE PUSH1 0x20 ADD PUSH1 0x0 KECCAK256 SLOAD DUP2 MSTORE PUSH1 0x20 ADD SWAP1 DUP2 MSTORE PUSH1 0x20 ADD PUSH1 0x0 KECCAK256 PUSH1 0x3 ADD PUSH1 0x0 DUP8 PUSH20 0xFFFFFFFFFFFFFFFFFFFFFFFFFFFFFFFFFFFFFFFF AND PUSH20 0xFFFFFFFFFFFFFFFFFFFFFFFFFFFFFFFFFFFFFFFF AND DUP2 MSTORE PUSH1 0x20 ADD SWAP1 DUP2 MSTORE PUSH1 0x20 ADD PUSH1 0x0 KECCAK256 PUSH1 0x0 SWAP1 SLOAD SWAP1 PUSH2 0x100 EXP SWAP1 DIV PUSH1 0xFF AND ISZERO ISZERO EQ DUP1 ISZERO PUSH2 0x4E1A JUMPI POP DUP6 PUSH1 0x4 PUSH1 0x0 PUSH1 0x5 PUSH1 0x0 DUP6 DUP2 MSTORE PUSH1 0x20 ADD SWAP1 DUP2 MSTORE PUSH1 0x20 ADD PUSH1 0x0 KECCAK256 SLOAD DUP2 MSTORE PUSH1 0x20 ADD SWAP1 DUP2 MSTORE PUSH1 0x20 ADD PUSH1 0x0 KECCAK256 PUSH1 0x1 ADD SLOAD EQ JUMPDEST ISZERO PUSH2 0x4F3D JUMPI PUSH2 0x4E33 PUSH8 0xF33D304923BB8F17 PUSH1 0xC0 SHL PUSH2 0x54B5 JUMP JUMPDEST PUSH2 0x4E47 PUSH8 0x30DBD22AA968D27A PUSH1 0xC0 SHL PUSH2 0x54B5 JUMP JUMPDEST PUSH1 0x1 PUSH1 0x4 PUSH1 0x0 PUSH1 0x5 PUSH1 0x0 DUP6 DUP2 MSTORE PUSH1 0x20 ADD SWAP1 DUP2 MSTORE PUSH1 0x20 ADD PUSH1 0x0 KECCAK256 SLOAD DUP2 MSTORE PUSH1 0x20 ADD SWAP1 DUP2 MSTORE PUSH1 0x20 ADD PUSH1 0x0 KECCAK256 PUSH1 0x2 ADD PUSH1 0x0 DUP3 DUP3 DUP3 SWAP1 SLOAD SWAP1 PUSH2 0x100 EXP SWAP1 DIV PUSH1 0xFF AND PUSH2 0x4E8D SWAP2 SWAP1 PUSH2 0x8F12 JUMP JUMPDEST SWAP3 POP PUSH2 0x100 EXP DUP2 SLOAD DUP2 PUSH1 0xFF MUL NOT AND SWAP1 DUP4 PUSH1 0xFF AND MUL OR SWAP1 SSTORE POP PUSH2 0x4EB9 PUSH8 0x1045BC06E9EC4A83 PUSH1 0xC0 SHL PUSH2 0x54B5 JUMP JUMPDEST PUSH1 0x0 PUSH1 0x4 PUSH1 0x0 PUSH1 0x5 PUSH1 0x0 DUP6 DUP2 MSTORE PUSH1 0x20 ADD SWAP1 DUP2 MSTORE PUSH1 0x20 ADD PUSH1 0x0 KECCAK256 SLOAD DUP2 MSTORE PUSH1 0x20 ADD SWAP1 DUP2 MSTORE PUSH1 0x20 ADD PUSH1 0x0 KECCAK256 PUSH1 0x3 ADD PUSH1 0x0 DUP8 PUSH20 0xFFFFFFFFFFFFFFFFFFFFFFFFFFFFFFFFFFFFFFFF AND PUSH20 0xFFFFFFFFFFFFFFFFFFFFFFFFFFFFFFFFFFFFFFFF AND DUP2 MSTORE PUSH1 0x20 ADD SWAP1 DUP2 MSTORE PUSH1 0x20 ADD PUSH1 0x0 KECCAK256 PUSH1 0x0 PUSH2 0x100 EXP DUP2 SLOAD DUP2 PUSH1 0xFF MUL NOT AND SWAP1 DUP4 ISZERO ISZERO MUL OR SWAP1 SSTORE POP PUSH2 0x4F52 JUMP JUMPDEST PUSH2 0x4F51 PUSH8 0xBF20874DED53A208 PUSH1 0xC0 SHL PUSH2 0x54B5 JUMP JUMPDEST JUMPDEST DUP1 DUP1 PUSH2 0x4F5D SWAP1 PUSH2 0x814E JUMP JUMPDEST SWAP2 POP POP PUSH2 0x4D39 JUMP JUMPDEST POP PUSH2 0x4F7A PUSH8 0xE36F7F130CB3F213 PUSH1 0xC0 SHL PUSH2 0x54B5 JUMP JUMPDEST PUSH2 0x4F8E PUSH8 0x15BD5E551D188D83 PUSH1 0xC0 SHL PUSH2 0x54B5 JUMP JUMPDEST PUSH2 0x4FA9 PUSH1 0x4 PUSH1 0x0 DUP4 DUP2 MSTORE PUSH1 0x20 ADD SWAP1 DUP2 MSTORE PUSH1 0x20 ADD PUSH1 0x0 KECCAK256 PUSH2 0x5B64 JUMP JUMPDEST PUSH2 0x4FBD PUSH8 0x580BBBB9CCBB13BE PUSH1 0xC0 SHL PUSH2 0x54B5 JUMP JUMPDEST PUSH2 0x4FD1 PUSH8 0x66006DD0F09419F5 PUSH1 0xC0 SHL PUSH2 0x54B5 JUMP JUMPDEST PUSH32 0x562618DBCF74B61AE5B0F229FE40BA6D5B6AE6B4248F8C89A870DDA7C77135F6 DUP2 PUSH1 0x40 MLOAD PUSH2 0x5000 SWAP2 SWAP1 PUSH2 0x72FE JUMP JUMPDEST PUSH1 0x40 MLOAD DUP1 SWAP2 SUB SWAP1 LOG1 PUSH2 0x501C PUSH8 0x20CEEB0471D394B6 PUSH1 0xC0 SHL PUSH2 0x54B5 JUMP JUMPDEST PUSH2 0x5030 PUSH8 0x213863767FEBEE4A PUSH1 0xC0 SHL PUSH2 0x54B5 JUMP JUMPDEST PUSH2 0x503A DUP6 DUP6 PUSH2 0x6934 JUMP JUMPDEST PUSH2 0x504E PUSH8 0x2D86523E849FC68D PUSH1 0xC0 SHL PUSH2 0x54B5 JUMP JUMPDEST PUSH1 0x1 DUP3 PUSH1 0x0 ADD PUSH1 0x0 DUP3 DUP3 DUP3 SWAP1 SLOAD SWAP1 PUSH2 0x100 EXP SWAP1 DIV PUSH4 0xFFFFFFFF AND PUSH2 0x5072 SWAP2 SWAP1 PUSH2 0x8EDA JUMP JUMPDEST SWAP3 POP PUSH2 0x100 EXP DUP2 SLOAD DUP2 PUSH4 0xFFFFFFFF MUL NOT AND SWAP1 DUP4 PUSH4 0xFFFFFFFF AND MUL OR SWAP1 SSTORE POP PUSH2 0x50AA JUMP JUMPDEST PUSH2 0x50A9 PUSH8 0x689F9D36814699ED PUSH1 0xC0 SHL PUSH2 0x54B5 JUMP JUMPDEST JUMPDEST POP POP POP POP POP JUMP JUMPDEST PUSH2 0x50BA DUP3 PUSH2 0x15F4 JUMP JUMPDEST PUSH2 0x50C3 DUP2 PUSH2 0x5E96 JUMP JUMPDEST PUSH2 0x50CD DUP4 DUP4 PUSH2 0x6934 JUMP JUMPDEST POP POP POP JUMP JUMPDEST PUSH1 0x0 DUP1 PUSH1 0x0 DUP1 PUSH1 0x0 PUSH2 0x50EE PUSH8 0xB763B8910A23EFEE PUSH1 0xC0 SHL PUSH2 0x54B5 JUMP JUMPDEST PUSH2 0x5102 PUSH8 0xACD6A8C8F4D574B6 PUSH1 0xC0 SHL PUSH2 0x54B5 JUMP JUMPDEST PUSH2 0x5116 PUSH8 0x7697096D64270CDB PUSH1 0xC0 SHL PUSH2 0x54B5 JUMP JUMPDEST PUSH2 0x512A PUSH8 0x3318F6946F781978 PUSH1 0xC0 SHL PUSH2 0x54B5 JUMP JUMPDEST PUSH1 0x1 ISZERO ISZERO PUSH1 0x7 PUSH1 0x0 DUP9 DUP2 MSTORE PUSH1 0x20 ADD SWAP1 DUP2 MSTORE PUSH1 0x20 ADD PUSH1 0x0 KECCAK256 PUSH1 0x2 ADD PUSH1 0x0 SWAP1 SLOAD SWAP1 PUSH2 0x100 EXP SWAP1 DIV PUSH1 0xFF AND ISZERO ISZERO EQ PUSH2 0x5194 JUMPI PUSH1 0x40 MLOAD PUSH32 0x8C379A000000000000000000000000000000000000000000000000000000000 DUP2 MSTORE PUSH1 0x4 ADD PUSH2 0x518B SWAP1 PUSH2 0x87F1 JUMP JUMPDEST PUSH1 0x40 MLOAD DUP1 SWAP2 SUB SWAP1 REVERT JUMPDEST PUSH2 0x51A8 PUSH8 0xD4C4533D7E9A60A6 PUSH1 0xC0 SHL PUSH2 0x54B5 JUMP JUMPDEST PUSH2 0x51BC PUSH8 0x32954512786739F5 PUSH1 0xC0 SHL PUSH2 0x54B5 JUMP JUMPDEST PUSH2 0x51D0 PUSH8 0x24BCD6FFDFBD0D4D PUSH1 0xC0 SHL PUSH2 0x54B5 JUMP JUMPDEST PUSH1 0x7 PUSH1 0x0 DUP8 DUP2 MSTORE PUSH1 0x20 ADD SWAP1 DUP2 MSTORE PUSH1 0x20 ADD PUSH1 0x0 KECCAK256 PUSH1 0x0 ADD PUSH1 0x0 SWAP1 SLOAD SWAP1 PUSH2 0x100 EXP SWAP1 DIV PUSH1 0xFF AND PUSH1 0x3 DUP2 GT ISZERO PUSH2 0x5206 JUMPI PUSH2 0x5205 PUSH2 0x7511 JUMP JUMPDEST JUMPDEST PUSH1 0x7 PUSH1 0x0 DUP9 DUP2 MSTORE PUSH1 0x20 ADD SWAP1 DUP2 MSTORE PUSH1 0x20 ADD PUSH1 0x0 KECCAK256 PUSH1 0x0 ADD PUSH1 0x1 SWAP1 SLOAD SWAP1 PUSH2 0x100 EXP SWAP1 DIV PUSH1 0xFF AND PUSH1 0x2 DUP2 GT ISZERO PUSH2 0x523C JUMPI PUSH2 0x523B PUSH2 0x7511 JUMP JUMPDEST JUMPDEST PUSH1 0x7 PUSH1 0x0 DUP10 DUP2 MSTORE PUSH1 0x20 ADD SWAP1 DUP2 MSTORE PUSH1 0x20 ADD PUSH1 0x0 KECCAK256 PUSH1 0x0 ADD PUSH1 0x2 SWAP1 SLOAD SWAP1 PUSH2 0x100 EXP SWAP1 DIV PUSH1 0xFF AND PUSH1 0xF DUP2 GT ISZERO PUSH2 0x5272 JUMPI PUSH2 0x5271 PUSH2 0x7511 JUMP JUMPDEST JUMPDEST PUSH1 0x7 PUSH1 0x0 DUP11 DUP2 MSTORE PUSH1 0x20 ADD SWAP1 DUP2 MSTORE PUSH1 0x20 ADD PUSH1 0x0 KECCAK256 PUSH1 0x1 ADD SLOAD PUSH1 0x7 PUSH1 0x0 DUP12 DUP2 MSTORE PUSH1 0x20 ADD SWAP1 DUP2 MSTORE PUSH1 0x20 ADD PUSH1 0x0 KECCAK256 PUSH1 0x3 ADD SLOAD SWAP5 POP SWAP5 POP SWAP5 POP SWAP5 POP SWAP5 POP SWAP2 SWAP4 SWAP6 SWAP1 SWAP3 SWAP5 POP JUMP JUMPDEST PUSH1 0x2 DUP2 DUP2 SLOAD DUP2 LT PUSH2 0x52C3 JUMPI PUSH1 0x0 DUP1 REVERT JUMPDEST SWAP1 PUSH1 0x0 MSTORE PUSH1 0x20 PUSH1 0x0 KECCAK256 ADD PUSH1 0x0 SWAP2 POP SWAP1 POP SLOAD DUP2 JUMP JUMPDEST PUSH32 0x4BBEB6FD3E5222E55F2F8B0C35BC228E0A06A25D0DA772FDB02C3B92FA004F88 DUP2 JUMP JUMPDEST PUSH1 0x60 PUSH2 0x5311 PUSH8 0xAB49E147B91272B3 PUSH1 0xC0 SHL PUSH2 0x54B5 JUMP JUMPDEST PUSH2 0x5325 PUSH8 0x9AB8A363C1DB47F7 PUSH1 0xC0 SHL PUSH2 0x54B5 JUMP JUMPDEST PUSH2 0x5339 PUSH8 0xC80F0B231C338B2D PUSH1 0xC0 SHL PUSH2 0x54B5 JUMP JUMPDEST PUSH2 0x534D PUSH8 0x5397BBBEEF836AD8 PUSH1 0xC0 SHL PUSH2 0x54B5 JUMP JUMPDEST PUSH1 0x0 PUSH1 0x1 PUSH1 0x0 DUP5 DUP2 MSTORE PUSH1 0x20 ADD SWAP1 DUP2 MSTORE PUSH1 0x20 ADD PUSH1 0x0 KECCAK256 PUSH1 0x0 ADD SLOAD SUB PUSH2 0x53A6 JUMPI PUSH1 0x40 MLOAD PUSH32 0x8C379A000000000000000000000000000000000000000000000000000000000 DUP2 MSTORE PUSH1 0x4 ADD PUSH2 0x539D SWAP1 PUSH2 0x7E92 JUMP JUMPDEST PUSH1 0x40 MLOAD DUP1 SWAP2 SUB SWAP1 REVERT JUMPDEST PUSH2 0x53BA PUSH8 0x9B6D6670ACBBE933 PUSH1 0xC0 SHL PUSH2 0x54B5 JUMP JUMPDEST PUSH2 0x53CE PUSH8 0x8DBA3CFCDD7AB4AB PUSH1 0xC0 SHL PUSH2 0x54B5 JUMP JUMPDEST PUSH2 0x53E2 PUSH8 0x2E1F532EB4156EB5 PUSH1 0xC0 SHL PUSH2 0x54B5 JUMP JUMPDEST PUSH1 0x8 PUSH1 0x0 DUP4 DUP2 MSTORE PUSH1 0x20 ADD SWAP1 DUP2 MSTORE PUSH1 0x20 ADD PUSH1 0x0 KECCAK256 DUP1 SLOAD DUP1 PUSH1 0x20 MUL PUSH1 0x20 ADD PUSH1 0x40 MLOAD SWAP1 DUP2 ADD PUSH1 0x40 MSTORE DUP1 SWAP3 SWAP2 SWAP1 DUP2 DUP2 MSTORE PUSH1 0x20 ADD DUP3 DUP1 SLOAD DUP1 ISZERO PUSH2 0x543F JUMPI PUSH1 0x20 MUL DUP3 ADD SWAP2 SWAP1 PUSH1 0x0 MSTORE PUSH1 0x20 PUSH1 0x0 KECCAK256 SWAP1 JUMPDEST DUP2 SLOAD DUP2 MSTORE PUSH1 0x20 ADD SWAP1 PUSH1 0x1 ADD SWAP1 DUP1 DUP4 GT PUSH2 0x542B JUMPI JUMPDEST POP POP POP POP POP SWAP1 POP SWAP2 SWAP1 POP JUMP JUMPDEST PUSH1 0x0 PUSH32 0x1FFC9A700000000000000000000000000000000000000000000000000000000 PUSH28 0xFFFFFFFFFFFFFFFFFFFFFFFFFFFFFFFFFFFFFFFFFFFFFFFFFFFFFFFF NOT AND DUP3 PUSH28 0xFFFFFFFFFFFFFFFFFFFFFFFFFFFFFFFFFFFFFFFFFFFFFFFFFFFFFFFF NOT AND EQ SWAP1 POP SWAP2 SWAP1 POP JUMP JUMPDEST POP JUMP JUMPDEST PUSH1 0x60 PUSH1 0x0 PUSH1 0x1 PUSH2 0x54C7 DUP5 PUSH2 0x6A15 JUMP JUMPDEST ADD SWAP1 POP PUSH1 0x0 DUP2 PUSH8 0xFFFFFFFFFFFFFFFF DUP2 GT ISZERO PUSH2 0x54E6 JUMPI PUSH2 0x54E5 PUSH2 0x7B14 JUMP JUMPDEST JUMPDEST PUSH1 0x40 MLOAD SWAP1 DUP1 DUP3 MSTORE DUP1 PUSH1 0x1F ADD PUSH1 0x1F NOT AND PUSH1 0x20 ADD DUP3 ADD PUSH1 0x40 MSTORE DUP1 ISZERO PUSH2 0x5518 JUMPI DUP2 PUSH1 0x20 ADD PUSH1 0x1 DUP3 MUL DUP1 CALLDATASIZE DUP4 CALLDATACOPY DUP1 DUP3 ADD SWAP2 POP POP SWAP1 POP JUMPDEST POP SWAP1 POP PUSH1 0x0 DUP3 PUSH1 0x20 ADD DUP3 ADD SWAP1 POP JUMPDEST PUSH1 0x1 ISZERO PUSH2 0x557B JUMPI DUP1 DUP1 PUSH1 0x1 SWAP1 SUB SWAP2 POP POP PUSH32 0x3031323334353637383961626364656600000000000000000000000000000000 PUSH1 0xA DUP7 MOD BYTE DUP2 MSTORE8 PUSH1 0xA DUP6 DUP2 PUSH2 0x556F JUMPI PUSH2 0x556E PUSH2 0x8CB7 JUMP JUMPDEST JUMPDEST DIV SWAP5 POP PUSH1 0x0 DUP6 SUB PUSH2 0x5526 JUMPI JUMPDEST DUP2 SWAP4 POP POP POP POP SWAP2 SWAP1 POP JUMP JUMPDEST PUSH2 0x559A PUSH8 0xC1566280AC596973 PUSH1 0xC0 SHL PUSH2 0x54B5 JUMP JUMPDEST PUSH2 0x55AE PUSH8 0x88E9D3B14A74677D PUSH1 0xC0 SHL PUSH2 0x54B5 JUMP JUMPDEST PUSH2 0x55C2 PUSH8 0xE409A8B73318189D PUSH1 0xC0 SHL PUSH2 0x54B5 JUMP JUMPDEST PUSH1 0x0 ISZERO ISZERO PUSH1 0x4 PUSH1 0x0 DUP6 DUP2 MSTORE PUSH1 0x20 ADD SWAP1 DUP2 MSTORE PUSH1 0x20 ADD PUSH1 0x0 KECCAK256 PUSH1 0x0 ADD PUSH1 0x0 SWAP1 SLOAD SWAP1 PUSH2 0x100 EXP SWAP1 DIV PUSH1 0xFF AND ISZERO ISZERO SUB PUSH2 0x5710 JUMPI PUSH2 0x5605 PUSH8 0x52D9D67F7D2E047F PUSH1 0xC0 SHL PUSH2 0x54B5 JUMP JUMPDEST PUSH2 0x5619 PUSH8 0x546AD04B2B9F1365 PUSH1 0xC0 SHL PUSH2 0x54B5 JUMP JUMPDEST PUSH1 0x1 PUSH1 0x4 PUSH1 0x0 DUP6 DUP2 MSTORE PUSH1 0x20 ADD SWAP1 DUP2 MSTORE PUSH1 0x20 ADD PUSH1 0x0 KECCAK256 PUSH1 0x0 ADD PUSH1 0x0 PUSH2 0x100 EXP DUP2 SLOAD DUP2 PUSH1 0xFF MUL NOT AND SWAP1 DUP4 ISZERO ISZERO MUL OR SWAP1 SSTORE POP PUSH2 0x565C PUSH8 0x5A8B242276BD5F84 PUSH1 0xC0 SHL PUSH2 0x54B5 JUMP JUMPDEST DUP3 PUSH1 0x5 PUSH1 0x0 PUSH1 0x6 SLOAD DUP2 MSTORE PUSH1 0x20 ADD SWAP1 DUP2 MSTORE PUSH1 0x20 ADD PUSH1 0x0 KECCAK256 DUP2 SWAP1 SSTORE POP PUSH2 0x568A PUSH8 0xBCE0C7533C9A630D PUSH1 0xC0 SHL PUSH2 0x54B5 JUMP JUMPDEST PUSH1 0x1 PUSH1 0x6 PUSH1 0x0 DUP3 DUP3 SLOAD PUSH2 0x569D SWAP2 SWAP1 PUSH2 0x80D8 JUMP JUMPDEST SWAP3 POP POP DUP2 SWAP1 SSTORE POP PUSH2 0x56B8 PUSH8 0xDA93C48FA161E79D PUSH1 0xC0 SHL PUSH2 0x54B5 JUMP JUMPDEST DUP2 PUSH1 0x4 PUSH1 0x0 DUP6 DUP2 MSTORE PUSH1 0x20 ADD SWAP1 DUP2 MSTORE PUSH1 0x20 ADD PUSH1 0x0 KECCAK256 PUSH1 0x1 ADD DUP2 SWAP1 SSTORE POP PUSH2 0x56E7 PUSH8 0x96048D7FD2D928C8 PUSH1 0xC0 SHL PUSH2 0x54B5 JUMP JUMPDEST DUP1 PUSH1 0x4 PUSH1 0x0 DUP6 DUP2 MSTORE PUSH1 0x20 ADD SWAP1 DUP2 MSTORE PUSH1 0x20 ADD PUSH1 0x0 KECCAK256 PUSH1 0x5 ADD SWAP1 DUP2 PUSH2 0x570A SWAP2 SWAP1 PUSH2 0x90F3 JUMP JUMPDEST POP PUSH2 0x5725 JUMP JUMPDEST PUSH2 0x5724 PUSH8 0x5F1C668EE669AB0B PUSH1 0xC0 SHL PUSH2 0x54B5 JUMP JUMPDEST JUMPDEST POP POP POP JUMP JUMPDEST PUSH2 0x573E PUSH8 0xD42E23A03BBB9F51 PUSH1 0xC0 SHL PUSH2 0x6B68 JUMP JUMPDEST PUSH2 0x5752 PUSH8 0x6B0A876D7F65E674 PUSH1 0xC0 SHL PUSH2 0x6B68 JUMP JUMPDEST PUSH2 0x5766 PUSH8 0xE2D5A60266F4E38 PUSH1 0xC0 SHL PUSH2 0x6B68 JUMP JUMPDEST PUSH2 0x577A PUSH8 0xDFF015BC3EFF07B7 PUSH1 0xC0 SHL PUSH2 0x6B68 JUMP JUMPDEST PUSH1 0x0 ISZERO ISZERO DUP3 PUSH1 0x3 ADD PUSH1 0x0 DUP4 PUSH20 0xFFFFFFFFFFFFFFFFFFFFFFFFFFFFFFFFFFFFFFFF AND PUSH20 0xFFFFFFFFFFFFFFFFFFFFFFFFFFFFFFFFFFFFFFFF AND DUP2 MSTORE PUSH1 0x20 ADD SWAP1 DUP2 MSTORE PUSH1 0x20 ADD PUSH1 0x0 KECCAK256 PUSH1 0x0 SWAP1 SLOAD SWAP1 PUSH2 0x100 EXP SWAP1 DIV PUSH1 0xFF AND ISZERO ISZERO EQ PUSH2 0x580F JUMPI PUSH1 0x40 MLOAD PUSH32 0x8C379A000000000000000000000000000000000000000000000000000000000 DUP2 MSTORE PUSH1 0x4 ADD PUSH2 0x5806 SWAP1 PUSH2 0x9211 JUMP JUMPDEST PUSH1 0x40 MLOAD DUP1 SWAP2 SUB SWAP1 REVERT JUMPDEST PUSH2 0x5823 PUSH8 0x544F24841F015C09 PUSH1 0xC0 SHL PUSH2 0x6B68 JUMP JUMPDEST PUSH2 0x5837 PUSH8 0x6B3348069692E1C0 PUSH1 0xC0 SHL PUSH2 0x6B68 JUMP JUMPDEST DUP1 DUP3 PUSH1 0x4 ADD PUSH1 0x0 DUP5 PUSH1 0x2 ADD PUSH1 0x1 SWAP1 SLOAD SWAP1 PUSH2 0x100 EXP SWAP1 DIV PUSH1 0xFF AND PUSH1 0xFF AND DUP2 MSTORE PUSH1 0x20 ADD SWAP1 DUP2 MSTORE PUSH1 0x20 ADD PUSH1 0x0 KECCAK256 PUSH1 0x0 PUSH2 0x100 EXP DUP2 SLOAD DUP2 PUSH20 0xFFFFFFFFFFFFFFFFFFFFFFFFFFFFFFFFFFFFFFFF MUL NOT AND SWAP1 DUP4 PUSH20 0xFFFFFFFFFFFFFFFFFFFFFFFFFFFFFFFFFFFFFFFF AND MUL OR SWAP1 SSTORE POP PUSH2 0x58B3 PUSH8 0x4889A33ED357C302 PUSH1 0xC0 SHL PUSH2 0x6B68 JUMP JUMPDEST DUP2 PUSH1 0x2 ADD PUSH1 0x1 DUP2 DUP2 SWAP1 SLOAD SWAP1 PUSH2 0x100 EXP SWAP1 DIV PUSH1 0xFF AND DUP1 SWAP3 SWAP2 SWAP1 PUSH2 0x58D4 SWAP1 PUSH2 0x9231 JUMP JUMPDEST SWAP2 SWAP1 PUSH2 0x100 EXP DUP2 SLOAD DUP2 PUSH1 0xFF MUL NOT AND SWAP1 DUP4 PUSH1 0xFF AND MUL OR SWAP1 SSTORE POP POP PUSH2 0x5901 PUSH8 0xE079FD1D12BA580E PUSH1 0xC0 SHL PUSH2 0x6B68 JUMP JUMPDEST PUSH1 0x1 DUP3 PUSH1 0x3 ADD PUSH1 0x0 DUP4 PUSH20 0xFFFFFFFFFFFFFFFFFFFFFFFFFFFFFFFFFFFFFFFF AND PUSH20 0xFFFFFFFFFFFFFFFFFFFFFFFFFFFFFFFFFFFFFFFF AND DUP2 MSTORE PUSH1 0x20 ADD SWAP1 DUP2 MSTORE PUSH1 0x20 ADD PUSH1 0x0 KECCAK256 PUSH1 0x0 PUSH2 0x100 EXP DUP2 SLOAD DUP2 PUSH1 0xFF MUL NOT AND SWAP1 DUP4 ISZERO ISZERO MUL OR SWAP1 SSTORE POP PUSH2 0x596F PUSH8 0x50E90D39FCF392AB PUSH1 0xC0 SHL PUSH2 0x6B68 JUMP JUMPDEST PUSH1 0x1 DUP3 PUSH1 0x2 ADD PUSH1 0x0 DUP3 DUP3 DUP3 SWAP1 SLOAD SWAP1 PUSH2 0x100 EXP SWAP1 DIV PUSH1 0xFF AND PUSH2 0x5990 SWAP2 SWAP1 PUSH2 0x925A JUMP JUMPDEST SWAP3 POP PUSH2 0x100 EXP DUP2 SLOAD DUP2 PUSH1 0xFF MUL NOT AND SWAP1 DUP4 PUSH1 0xFF AND MUL OR SWAP1 SSTORE POP POP POP JUMP JUMPDEST PUSH2 0x59C0 PUSH8 0xB769E03249DF5AE8 PUSH1 0xC0 SHL PUSH2 0x6B68 JUMP JUMPDEST PUSH2 0x59D4 PUSH8 0xCF315D4E11C7A8B7 PUSH1 0xC0 SHL PUSH2 0x6B68 JUMP JUMPDEST PUSH2 0x59E8 PUSH8 0xBBF6FBBDF8131214 PUSH1 0xC0 SHL PUSH2 0x6B68 JUMP JUMPDEST PUSH2 0x59FC PUSH8 0x9C7B692F5FB63744 PUSH1 0xC0 SHL PUSH2 0x6B68 JUMP JUMPDEST PUSH1 0x1 ISZERO ISZERO DUP3 PUSH1 0x3 ADD PUSH1 0x0 DUP4 PUSH20 0xFFFFFFFFFFFFFFFFFFFFFFFFFFFFFFFFFFFFFFFF AND PUSH20 0xFFFFFFFFFFFFFFFFFFFFFFFFFFFFFFFFFFFFFFFF AND DUP2 MSTORE PUSH1 0x20 ADD SWAP1 DUP2 MSTORE PUSH1 0x20 ADD PUSH1 0x0 KECCAK256 PUSH1 0x0 SWAP1 SLOAD SWAP1 PUSH2 0x100 EXP SWAP1 DIV PUSH1 0xFF AND ISZERO ISZERO EQ PUSH2 0x5A91 JUMPI PUSH1 0x40 MLOAD PUSH32 0x8C379A000000000000000000000000000000000000000000000000000000000 DUP2 MSTORE PUSH1 0x4 ADD PUSH2 0x5A88 SWAP1 PUSH2 0x9301 JUMP JUMPDEST PUSH1 0x40 MLOAD DUP1 SWAP2 SUB SWAP1 REVERT JUMPDEST PUSH2 0x5AA5 PUSH8 0x9DA0C426B492F83B PUSH1 0xC0 SHL PUSH2 0x6B68 JUMP JUMPDEST PUSH2 0x5AB9 PUSH8 0xEE38CD30253F1DCE PUSH1 0xC0 SHL PUSH2 0x6B68 JUMP JUMPDEST PUSH1 0x0 DUP3 PUSH1 0x3 ADD PUSH1 0x0 DUP4 PUSH20 0xFFFFFFFFFFFFFFFFFFFFFFFFFFFFFFFFFFFFFFFF AND PUSH20 0xFFFFFFFFFFFFFFFFFFFFFFFFFFFFFFFFFFFFFFFF AND DUP2 MSTORE PUSH1 0x20 ADD SWAP1 DUP2 MSTORE PUSH1 0x20 ADD PUSH1 0x0 KECCAK256 PUSH1 0x0 PUSH2 0x100 EXP DUP2 SLOAD DUP2 PUSH1 0xFF MUL NOT AND SWAP1 DUP4 ISZERO ISZERO MUL OR SWAP1 SSTORE POP PUSH2 0x5B27 PUSH8 0xB931EDE1F25E88C8 PUSH1 0xC0 SHL PUSH2 0x6B68 JUMP JUMPDEST PUSH1 0x1 DUP3 PUSH1 0x2 ADD PUSH1 0x0 DUP3 DUP3 DUP3 SWAP1 SLOAD SWAP1 PUSH2 0x100 EXP SWAP1 DIV PUSH1 0xFF AND PUSH2 0x5B48 SWAP2 SWAP1 PUSH2 0x8F12 JUMP JUMPDEST SWAP3 POP PUSH2 0x100 EXP DUP2 SLOAD DUP2 PUSH1 0xFF MUL NOT AND SWAP1 DUP4 PUSH1 0xFF AND MUL OR SWAP1 SSTORE POP POP POP JUMP JUMPDEST PUSH2 0x5B78 PUSH8 0xB4A12E0D69CC9956 PUSH1 0xC0 SHL PUSH2 0x6B68 JUMP JUMPDEST PUSH2 0x5B8C PUSH8 0xD060496C1FECAB2 PUSH1 0xC0 SHL PUSH2 0x6B68 JUMP JUMPDEST PUSH1 0x0 DUP2 PUSH1 0x2 ADD PUSH1 0x0 PUSH2 0x100 EXP DUP2 SLOAD DUP2 PUSH1 0xFF MUL NOT AND SWAP1 DUP4 PUSH1 0xFF AND MUL OR SWAP1 SSTORE POP PUSH2 0x5BBE PUSH8 0x341D57E17A9468B5 PUSH1 0xC0 SHL PUSH2 0x6B68 JUMP JUMPDEST PUSH2 0x5BD2 PUSH8 0xC0182900B86F084D PUSH1 0xC0 SHL PUSH2 0x6B68 JUMP JUMPDEST PUSH1 0x0 JUMPDEST DUP2 PUSH1 0x2 ADD PUSH1 0x1 SWAP1 SLOAD SWAP1 PUSH2 0x100 EXP SWAP1 DIV PUSH1 0xFF AND PUSH1 0xFF AND DUP2 PUSH1 0xFF AND LT ISZERO PUSH2 0x5CAD JUMPI PUSH2 0x5C08 PUSH8 0xA10AB145ED780BA2 PUSH1 0xC0 SHL PUSH2 0x6B68 JUMP JUMPDEST PUSH1 0x0 DUP3 PUSH1 0x3 ADD PUSH1 0x0 DUP5 PUSH1 0x4 ADD PUSH1 0x0 DUP6 PUSH1 0xFF AND DUP2 MSTORE PUSH1 0x20 ADD SWAP1 DUP2 MSTORE PUSH1 0x20 ADD PUSH1 0x0 KECCAK256 PUSH1 0x0 SWAP1 SLOAD SWAP1 PUSH2 0x100 EXP SWAP1 DIV PUSH20 0xFFFFFFFFFFFFFFFFFFFFFFFFFFFFFFFFFFFFFFFF AND PUSH20 0xFFFFFFFFFFFFFFFFFFFFFFFFFFFFFFFFFFFFFFFF AND PUSH20 0xFFFFFFFFFFFFFFFFFFFFFFFFFFFFFFFFFFFFFFFF AND DUP2 MSTORE PUSH1 0x20 ADD SWAP1 DUP2 MSTORE PUSH1 0x20 ADD PUSH1 0x0 KECCAK256 PUSH1 0x0 PUSH2 0x100 EXP DUP2 SLOAD DUP2 PUSH1 0xFF MUL NOT AND SWAP1 DUP4 ISZERO ISZERO MUL OR SWAP1 SSTORE POP DUP1 DUP1 PUSH2 0x5CA5 SWAP1 PUSH2 0x9231 JUMP JUMPDEST SWAP2 POP POP PUSH2 0x5BD5 JUMP JUMPDEST POP POP JUMP JUMPDEST PUSH2 0x5CC5 PUSH8 0x1611662CB9DAE94D PUSH1 0xC0 SHL PUSH2 0x5F8A JUMP JUMPDEST PUSH2 0x5CD9 PUSH8 0x216F7A8F2EFAB2A7 PUSH1 0xC0 SHL PUSH2 0x5F8A JUMP JUMPDEST PUSH1 0x1 PUSH1 0x0 DUP3 DUP2 MSTORE PUSH1 0x20 ADD SWAP1 DUP2 MSTORE PUSH1 0x20 ADD PUSH1 0x0 KECCAK256 PUSH1 0x0 DUP1 DUP3 ADD PUSH1 0x0 SWAP1 SSTORE PUSH1 0x1 DUP3 ADD PUSH1 0x0 PUSH2 0x5D05 SWAP2 SWAP1 PUSH2 0x6E61 JUMP JUMPDEST PUSH1 0x2 DUP3 ADD PUSH1 0x0 PUSH2 0x5D15 SWAP2 SWAP1 PUSH2 0x6E61 JUMP JUMPDEST PUSH1 0x3 DUP3 ADD PUSH1 0x0 SWAP1 SSTORE POP POP PUSH2 0x5D33 PUSH8 0xE097F569B4E65FDF PUSH1 0xC0 SHL PUSH2 0x5F8A JUMP JUMPDEST PUSH2 0x5D47 PUSH8 0xBB661C72D0C4AC4 PUSH1 0xC0 SHL PUSH2 0x5F8A JUMP JUMPDEST PUSH1 0x0 JUMPDEST PUSH1 0x2 DUP1 SLOAD SWAP1 POP DUP2 LT ISZERO PUSH2 0x5E30 JUMPI PUSH2 0x5D6B PUSH8 0xAABB91E763D41556 PUSH1 0xC0 SHL PUSH2 0x5F8A JUMP JUMPDEST PUSH2 0x5D7F PUSH8 0xD9483C4C9091C0F3 PUSH1 0xC0 SHL PUSH2 0x5F8A JUMP JUMPDEST DUP2 PUSH1 0x2 DUP3 DUP2 SLOAD DUP2 LT PUSH2 0x5D94 JUMPI PUSH2 0x5D93 PUSH2 0x80A9 JUMP JUMPDEST JUMPDEST SWAP1 PUSH1 0x0 MSTORE PUSH1 0x20 PUSH1 0x0 KECCAK256 ADD SLOAD SUB PUSH2 0x5E09 JUMPI PUSH2 0x5DB8 PUSH8 0x3ABD118E698F57C4 PUSH1 0xC0 SHL PUSH2 0x5F8A JUMP JUMPDEST PUSH2 0x5DCC PUSH8 0x945B6DFD81ED0B99 PUSH1 0xC0 SHL PUSH2 0x5F8A JUMP JUMPDEST PUSH1 0x0 PUSH1 0x2 DUP3 DUP2 SLOAD DUP2 LT PUSH2 0x5DE2 JUMPI PUSH2 0x5DE1 PUSH2 0x80A9 JUMP JUMPDEST JUMPDEST SWAP1 PUSH1 0x0 MSTORE PUSH1 0x20 PUSH1 0x0 KECCAK256 ADD DUP2 SWAP1 SSTORE POP PUSH2 0x5E04 PUSH8 0x174BF75761BDDEF6 PUSH1 0xC0 SHL PUSH2 0x5F8A JUMP JUMPDEST PUSH2 0x5E30 JUMP JUMPDEST PUSH2 0x5E1D PUSH8 0xD4D55F133BA9AEBB PUSH1 0xC0 SHL PUSH2 0x5F8A JUMP JUMPDEST DUP1 DUP1 PUSH2 0x5E28 SWAP1 PUSH2 0x814E JUMP JUMPDEST SWAP2 POP POP PUSH2 0x5D4A JUMP JUMPDEST POP PUSH2 0x5E45 PUSH8 0x40FE773E1CB7AEE8 PUSH1 0xC0 SHL PUSH2 0x5F8A JUMP JUMPDEST PUSH2 0x5E59 PUSH8 0xDB3F8FEB92715F89 PUSH1 0xC0 SHL PUSH2 0x5F8A JUMP JUMPDEST PUSH32 0x34DE6B871245ED0A89B82912E8E5EE6D9C3104B3E5BB1D67A71AD7E68239E41C DUP2 PUSH1 0x40 MLOAD PUSH2 0x5E88 SWAP2 SWAP1 PUSH2 0x7CDE JUMP JUMPDEST PUSH1 0x40 MLOAD DUP1 SWAP2 SUB SWAP1 LOG1 POP JUMP JUMPDEST POP JUMP JUMPDEST PUSH2 0x5EA7 DUP2 PUSH2 0x5EA2 PUSH2 0x6B6B JUMP JUMPDEST PUSH2 0x6B73 JUMP JUMPDEST POP JUMP JUMPDEST PUSH2 0x5EB4 DUP3 DUP3 PUSH2 0x323C JUMP JUMPDEST PUSH2 0x5F86 JUMPI PUSH1 0x1 PUSH1 0x0 DUP1 DUP5 DUP2 MSTORE PUSH1 0x20 ADD SWAP1 DUP2 MSTORE PUSH1 0x20 ADD PUSH1 0x0 KECCAK256 PUSH1 0x0 ADD PUSH1 0x0 DUP4 PUSH20 0xFFFFFFFFFFFFFFFFFFFFFFFFFFFFFFFFFFFFFFFF AND PUSH20 0xFFFFFFFFFFFFFFFFFFFFFFFFFFFFFFFFFFFFFFFF AND DUP2 MSTORE PUSH1 0x20 ADD SWAP1 DUP2 MSTORE PUSH1 0x20 ADD PUSH1 0x0 KECCAK256 PUSH1 0x0 PUSH2 0x100 EXP DUP2 SLOAD DUP2 PUSH1 0xFF MUL NOT AND SWAP1 DUP4 ISZERO ISZERO MUL OR SWAP1 SSTORE POP PUSH2 0x5F2B PUSH2 0x6B6B JUMP JUMPDEST PUSH20 0xFFFFFFFFFFFFFFFFFFFFFFFFFFFFFFFFFFFFFFFF AND DUP2 PUSH20 0xFFFFFFFFFFFFFFFFFFFFFFFFFFFFFFFFFFFFFFFF AND DUP4 PUSH32 0x2F8788117E7EFF1D82E926EC794901D17C78024A50270940304540A733656F0D PUSH1 0x40 MLOAD PUSH1 0x40 MLOAD DUP1 SWAP2 SUB SWAP1 LOG4 JUMPDEST POP POP JUMP JUMPDEST POP JUMP JUMPDEST PUSH2 0x5FA1 PUSH8 0xCD60CEC0F477D920 PUSH1 0xC0 SHL PUSH2 0x5F8A JUMP JUMPDEST PUSH2 0x5FB5 PUSH8 0xF8E6BBAF3F8BD14C PUSH1 0xC0 SHL PUSH2 0x5F8A JUMP JUMPDEST PUSH2 0x5FC9 PUSH8 0x7A88334868B6F1E8 PUSH1 0xC0 SHL PUSH2 0x5F8A JUMP JUMPDEST PUSH2 0x5FDD PUSH8 0xB9ACB39D80C9D30E PUSH1 0xC0 SHL PUSH2 0x5F8A JUMP JUMPDEST PUSH1 0x0 PUSH1 0x1 PUSH1 0x0 DUP7 DUP2 MSTORE PUSH1 0x20 ADD SWAP1 DUP2 MSTORE PUSH1 0x20 ADD PUSH1 0x0 KECCAK256 PUSH1 0x0 ADD SLOAD EQ PUSH2 0x6036 JUMPI PUSH1 0x40 MLOAD PUSH32 0x8C379A000000000000000000000000000000000000000000000000000000000 DUP2 MSTORE PUSH1 0x4 ADD PUSH2 0x602D SWAP1 PUSH2 0x936D JUMP JUMPDEST PUSH1 0x40 MLOAD DUP1 SWAP2 SUB SWAP1 REVERT JUMPDEST PUSH2 0x604A PUSH8 0x62D886A6D3B61920 PUSH1 0xC0 SHL PUSH2 0x5F8A JUMP JUMPDEST PUSH2 0x605E PUSH8 0x1DFA633361721C02 PUSH1 0xC0 SHL PUSH2 0x5F8A JUMP JUMPDEST PUSH2 0x6072 PUSH8 0x6156CB8237B39FC9 PUSH1 0xC0 SHL PUSH2 0x5F8A JUMP JUMPDEST PUSH2 0x6086 PUSH8 0xB36B3D5D4FDFA06C PUSH1 0xC0 SHL PUSH2 0x5F8A JUMP JUMPDEST PUSH1 0x0 DUP5 SUB PUSH2 0x60C9 JUMPI PUSH1 0x40 MLOAD PUSH32 0x8C379A000000000000000000000000000000000000000000000000000000000 DUP2 MSTORE PUSH1 0x4 ADD PUSH2 0x60C0 SWAP1 PUSH2 0x93D9 JUMP JUMPDEST PUSH1 0x40 MLOAD DUP1 SWAP2 SUB SWAP1 REVERT JUMPDEST PUSH2 0x60DD PUSH8 0x8AE8108D8E9CCB85 PUSH1 0xC0 SHL PUSH2 0x5F8A JUMP JUMPDEST PUSH2 0x60F1 PUSH8 0x7D6EC732296DC2E3 PUSH1 0xC0 SHL PUSH2 0x5F8A JUMP JUMPDEST PUSH1 0x40 MLOAD DUP1 PUSH1 0x80 ADD PUSH1 0x40 MSTORE DUP1 DUP6 DUP2 MSTORE PUSH1 0x20 ADD DUP5 DUP2 MSTORE PUSH1 0x20 ADD DUP4 DUP2 MSTORE PUSH1 0x20 ADD DUP3 DUP2 MSTORE POP PUSH1 0x1 PUSH1 0x0 DUP7 DUP2 MSTORE PUSH1 0x20 ADD SWAP1 DUP2 MSTORE PUSH1 0x20 ADD PUSH1 0x0 KECCAK256 PUSH1 0x0 DUP3 ADD MLOAD DUP2 PUSH1 0x0 ADD SSTORE PUSH1 0x20 DUP3 ADD MLOAD DUP2 PUSH1 0x1 ADD SWAP1 DUP2 PUSH2 0x6144 SWAP2 SWAP1 PUSH2 0x90F3 JUMP JUMPDEST POP PUSH1 0x40 DUP3 ADD MLOAD DUP2 PUSH1 0x2 ADD SWAP1 DUP2 PUSH2 0x615A SWAP2 SWAP1 PUSH2 0x90F3 JUMP JUMPDEST POP PUSH1 0x60 DUP3 ADD MLOAD DUP2 PUSH1 0x3 ADD SSTORE SWAP1 POP POP PUSH2 0x617C PUSH8 0x93A5F15B8FDD7853 PUSH1 0xC0 SHL PUSH2 0x5F8A JUMP JUMPDEST PUSH2 0x6190 PUSH8 0xA5BD79EE33ADF50F PUSH1 0xC0 SHL PUSH2 0x5F8A JUMP JUMPDEST PUSH1 0x2 DUP5 SWAP1 DUP1 PUSH1 0x1 DUP2 SLOAD ADD DUP1 DUP3 SSTORE DUP1 SWAP2 POP POP PUSH1 0x1 SWAP1 SUB SWAP1 PUSH1 0x0 MSTORE PUSH1 0x20 PUSH1 0x0 KECCAK256 ADD PUSH1 0x0 SWAP1 SWAP2 SWAP1 SWAP2 SWAP1 SWAP2 POP SSTORE PUSH2 0x61CD PUSH8 0x48B153EAEAEDF431 PUSH1 0xC0 SHL PUSH2 0x5F8A JUMP JUMPDEST PUSH2 0x61E1 PUSH8 0xB57CD13FA9BA0947 PUSH1 0xC0 SHL PUSH2 0x5F8A JUMP JUMPDEST PUSH32 0xB6767D1C89515962142B00B5577569C92A74381D9441A528911C66E0C3CEA1F8 DUP5 DUP5 DUP5 DUP5 PUSH1 0x40 MLOAD PUSH2 0x6216 SWAP5 SWAP4 SWAP3 SWAP2 SWAP1 PUSH2 0x70FB JUMP JUMPDEST PUSH1 0x40 MLOAD DUP1 SWAP2 SUB SWAP1 LOG1 POP POP POP POP JUMP JUMPDEST PUSH2 0x6238 PUSH8 0xF9332553ECEB56D8 PUSH1 0xC0 SHL PUSH2 0x54B5 JUMP JUMPDEST PUSH2 0x624C PUSH8 0x7D4CEA3F8D4622D5 PUSH1 0xC0 SHL PUSH2 0x54B5 JUMP JUMPDEST PUSH1 0x40 MLOAD DUP1 PUSH1 0xC0 ADD PUSH1 0x40 MSTORE DUP1 DUP5 PUSH1 0x3 DUP2 GT ISZERO PUSH2 0x626A JUMPI PUSH2 0x6269 PUSH2 0x7511 JUMP JUMPDEST JUMPDEST DUP2 MSTORE PUSH1 0x20 ADD DUP4 PUSH1 0x2 DUP2 GT ISZERO PUSH2 0x6282 JUMPI PUSH2 0x6281 PUSH2 0x7511 JUMP JUMPDEST JUMPDEST DUP2 MSTORE PUSH1 0x20 ADD DUP3 PUSH1 0xF DUP2 GT ISZERO PUSH2 0x629A JUMPI PUSH2 0x6299 PUSH2 0x7511 JUMP JUMPDEST JUMPDEST DUP2 MSTORE PUSH1 0x20 ADD TIMESTAMP DUP2 MSTORE PUSH1 0x20 ADD PUSH1 0x1 ISZERO ISZERO DUP2 MSTORE PUSH1 0x20 ADD DUP6 DUP2 MSTORE POP PUSH1 0x7 PUSH1 0x0 DUP7 DUP7 DUP7 DUP7 PUSH1 0x40 MLOAD PUSH1 0x20 ADD PUSH2 0x62CD SWAP5 SWAP4 SWAP3 SWAP2 SWAP1 PUSH2 0x8757 JUMP JUMPDEST PUSH1 0x40 MLOAD PUSH1 0x20 DUP2 DUP4 SUB SUB DUP2 MSTORE SWAP1 PUSH1 0x40 MSTORE DUP1 MLOAD SWAP1 PUSH1 0x20 ADD KECCAK256 DUP2 MSTORE PUSH1 0x20 ADD SWAP1 DUP2 MSTORE PUSH1 0x20 ADD PUSH1 0x0 KECCAK256 PUSH1 0x0 DUP3 ADD MLOAD DUP2 PUSH1 0x0 ADD PUSH1 0x0 PUSH2 0x100 EXP DUP2 SLOAD DUP2 PUSH1 0xFF MUL NOT AND SWAP1 DUP4 PUSH1 0x3 DUP2 GT ISZERO PUSH2 0x631C JUMPI PUSH2 0x631B PUSH2 0x7511 JUMP JUMPDEST JUMPDEST MUL OR SWAP1 SSTORE POP PUSH1 0x20 DUP3 ADD MLOAD DUP2 PUSH1 0x0 ADD PUSH1 0x1 PUSH2 0x100 EXP DUP2 SLOAD DUP2 PUSH1 0xFF MUL NOT AND SWAP1 DUP4 PUSH1 0x2 DUP2 GT ISZERO PUSH2 0x634C JUMPI PUSH2 0x634B PUSH2 0x7511 JUMP JUMPDEST JUMPDEST MUL OR SWAP1 SSTORE POP PUSH1 0x40 DUP3 ADD MLOAD DUP2 PUSH1 0x0 ADD PUSH1 0x2 PUSH2 0x100 EXP DUP2 SLOAD DUP2 PUSH1 0xFF MUL NOT AND SWAP1 DUP4 PUSH1 0xF DUP2 GT ISZERO PUSH2 0x637C JUMPI PUSH2 0x637B PUSH2 0x7511 JUMP JUMPDEST JUMPDEST MUL OR SWAP1 SSTORE POP PUSH1 0x60 DUP3 ADD MLOAD DUP2 PUSH1 0x1 ADD SSTORE PUSH1 0x80 DUP3 ADD MLOAD DUP2 PUSH1 0x2 ADD PUSH1 0x0 PUSH2 0x100 EXP DUP2 SLOAD DUP2 PUSH1 0xFF MUL NOT AND SWAP1 DUP4 ISZERO ISZERO MUL OR SWAP1 SSTORE POP PUSH1 0xA0 DUP3 ADD MLOAD DUP2 PUSH1 0x3 ADD SSTORE SWAP1 POP POP PUSH2 0x63CC PUSH8 0xEB262170AB108A03 PUSH1 0xC0 SHL PUSH2 0x54B5 JUMP JUMPDEST PUSH2 0x63E0 PUSH8 0x978F6ECC8F606819 PUSH1 0xC0 SHL PUSH2 0x54B5 JUMP JUMPDEST PUSH1 0x8 PUSH1 0x0 DUP6 DUP2 MSTORE PUSH1 0x20 ADD SWAP1 DUP2 MSTORE PUSH1 0x20 ADD PUSH1 0x0 KECCAK256 DUP5 DUP5 DUP5 DUP5 PUSH1 0x40 MLOAD PUSH1 0x20 ADD PUSH2 0x640A SWAP5 SWAP4 SWAP3 SWAP2 SWAP1 PUSH2 0x8757 JUMP JUMPDEST PUSH1 0x40 MLOAD PUSH1 0x20 DUP2 DUP4 SUB SUB DUP2 MSTORE SWAP1 PUSH1 0x40 MSTORE DUP1 MLOAD SWAP1 PUSH1 0x20 ADD KECCAK256 SWAP1 DUP1 PUSH1 0x1 DUP2 SLOAD ADD DUP1 DUP3 SSTORE DUP1 SWAP2 POP POP PUSH1 0x1 SWAP1 SUB SWAP1 PUSH1 0x0 MSTORE PUSH1 0x20 PUSH1 0x0 KECCAK256 ADD PUSH1 0x0 SWAP1 SWAP2 SWAP1 SWAP2 SWAP1 SWAP2 POP SSTORE PUSH2 0x645A PUSH8 0xD61646692ED40D10 PUSH1 0xC0 SHL PUSH2 0x54B5 JUMP JUMPDEST PUSH2 0x646E PUSH8 0x281F41604962EF63 PUSH1 0xC0 SHL PUSH2 0x54B5 JUMP JUMPDEST PUSH32 0xB55811DD01470A227956304B027C610C7CDF9DD622DCC47791380261D56DC6ED DUP5 DUP5 DUP5 DUP5 PUSH1 0x40 MLOAD PUSH2 0x64A3 SWAP5 SWAP4 SWAP3 SWAP2 SWAP1 PUSH2 0x93F9 JUMP JUMPDEST PUSH1 0x40 MLOAD DUP1 SWAP2 SUB SWAP1 LOG1 POP POP POP POP JUMP JUMPDEST POP JUMP JUMPDEST PUSH2 0x64C8 PUSH8 0x4FA3027553112277 PUSH1 0xC0 SHL PUSH2 0x5F8A JUMP JUMPDEST PUSH2 0x64DC PUSH8 0xB2E0009661C2DF8C PUSH1 0xC0 SHL PUSH2 0x5F8A JUMP JUMPDEST PUSH2 0x64F0 PUSH8 0x4BA1C2B0A31BF16A PUSH1 0xC0 SHL PUSH2 0x5F8A JUMP JUMPDEST PUSH2 0x6504 PUSH8 0x2175C4DB49308E05 PUSH1 0xC0 SHL PUSH2 0x5F8A JUMP JUMPDEST PUSH1 0x0 PUSH1 0x1 PUSH1 0x0 DUP7 DUP2 MSTORE PUSH1 0x20 ADD SWAP1 DUP2 MSTORE PUSH1 0x20 ADD PUSH1 0x0 KECCAK256 PUSH1 0x0 ADD SLOAD SUB PUSH2 0x655D JUMPI PUSH1 0x40 MLOAD PUSH32 0x8C379A000000000000000000000000000000000000000000000000000000000 DUP2 MSTORE PUSH1 0x4 ADD PUSH2 0x6554 SWAP1 PUSH2 0x948A JUMP JUMPDEST PUSH1 0x40 MLOAD DUP1 SWAP2 SUB SWAP1 REVERT JUMPDEST PUSH2 0x6571 PUSH8 0xF2040CC31830C968 PUSH1 0xC0 SHL PUSH2 0x5F8A JUMP JUMPDEST PUSH2 0x6585 PUSH8 0x219ACD0535B5E94F PUSH1 0xC0 SHL PUSH2 0x5F8A JUMP JUMPDEST PUSH2 0x6599 PUSH8 0x7CDD76207FC5BCAB PUSH1 0xC0 SHL PUSH2 0x5F8A JUMP JUMPDEST PUSH1 0x1 PUSH1 0x0 DUP6 DUP2 MSTORE PUSH1 0x20 ADD SWAP1 DUP2 MSTORE PUSH1 0x20 ADD PUSH1 0x0 KECCAK256 PUSH1 0x1 ADD PUSH1 0x40 MLOAD PUSH1 0x20 ADD PUSH2 0x65BF SWAP2 SWAP1 PUSH2 0x952D JUMP JUMPDEST PUSH1 0x40 MLOAD PUSH1 0x20 DUP2 DUP4 SUB SUB DUP2 MSTORE SWAP1 PUSH1 0x40 MSTORE DUP1 MLOAD SWAP1 PUSH1 0x20 ADD KECCAK256 DUP4 PUSH1 0x40 MLOAD PUSH1 0x20 ADD PUSH2 0x65E6 SWAP2 SWAP1 PUSH2 0x9544 JUMP JUMPDEST PUSH1 0x40 MLOAD PUSH1 0x20 DUP2 DUP4 SUB SUB DUP2 MSTORE SWAP1 PUSH1 0x40 MSTORE DUP1 MLOAD SWAP1 PUSH1 0x20 ADD KECCAK256 EQ ISZERO DUP1 ISZERO PUSH2 0x6654 JUMPI POP PUSH1 0x40 MLOAD PUSH1 0x20 ADD PUSH2 0x6614 SWAP1 PUSH2 0x9581 JUMP JUMPDEST PUSH1 0x40 MLOAD PUSH1 0x20 DUP2 DUP4 SUB SUB DUP2 MSTORE SWAP1 PUSH1 0x40 MSTORE DUP1 MLOAD SWAP1 PUSH1 0x20 ADD KECCAK256 DUP4 PUSH1 0x40 MLOAD PUSH1 0x20 ADD PUSH2 0x663B SWAP2 SWAP1 PUSH2 0x9544 JUMP JUMPDEST PUSH1 0x40 MLOAD PUSH1 0x20 DUP2 DUP4 SUB SUB DUP2 MSTORE SWAP1 PUSH1 0x40 MSTORE DUP1 MLOAD SWAP1 PUSH1 0x20 ADD KECCAK256 EQ ISZERO JUMPDEST ISZERO PUSH2 0x66AA JUMPI PUSH2 0x666D PUSH8 0x449FFDE15D725C84 PUSH1 0xC0 SHL PUSH2 0x5F8A JUMP JUMPDEST PUSH2 0x6681 PUSH8 0xCB790D03A7518F83 PUSH1 0xC0 SHL PUSH2 0x5F8A JUMP JUMPDEST DUP3 PUSH1 0x1 PUSH1 0x0 DUP7 DUP2 MSTORE PUSH1 0x20 ADD SWAP1 DUP2 MSTORE PUSH1 0x20 ADD PUSH1 0x0 KECCAK256 PUSH1 0x1 ADD SWAP1 DUP2 PUSH2 0x66A4 SWAP2 SWAP1 PUSH2 0x90F3 JUMP JUMPDEST POP PUSH2 0x66BF JUMP JUMPDEST PUSH2 0x66BE PUSH8 0xB555F135A018A115 PUSH1 0xC0 SHL PUSH2 0x5F8A JUMP JUMPDEST JUMPDEST PUSH2 0x66D3 PUSH8 0x4AE94C950C3986DE PUSH1 0xC0 SHL PUSH2 0x5F8A JUMP JUMPDEST PUSH2 0x66E7 PUSH8 0xF53EEC60B023AB8F PUSH1 0xC0 SHL PUSH2 0x5F8A JUMP JUMPDEST PUSH1 0x1 PUSH1 0x0 DUP6 DUP2 MSTORE PUSH1 0x20 ADD SWAP1 DUP2 MSTORE PUSH1 0x20 ADD PUSH1 0x0 KECCAK256 PUSH1 0x2 ADD PUSH1 0x40 MLOAD PUSH1 0x20 ADD PUSH2 0x670D SWAP2 SWAP1 PUSH2 0x952D JUMP JUMPDEST PUSH1 0x40 MLOAD PUSH1 0x20 DUP2 DUP4 SUB SUB DUP2 MSTORE SWAP1 PUSH1 0x40 MSTORE DUP1 MLOAD SWAP1 PUSH1 0x20 ADD KECCAK256 DUP3 PUSH1 0x40 MLOAD PUSH1 0x20 ADD PUSH2 0x6734 SWAP2 SWAP1 PUSH2 0x9544 JUMP JUMPDEST PUSH1 0x40 MLOAD PUSH1 0x20 DUP2 DUP4 SUB SUB DUP2 MSTORE SWAP1 PUSH1 0x40 MSTORE DUP1 MLOAD SWAP1 PUSH1 0x20 ADD KECCAK256 EQ ISZERO DUP1 ISZERO PUSH2 0x67A2 JUMPI POP PUSH1 0x40 MLOAD PUSH1 0x20 ADD PUSH2 0x6762 SWAP1 PUSH2 0x9581 JUMP JUMPDEST PUSH1 0x40 MLOAD PUSH1 0x20 DUP2 DUP4 SUB SUB DUP2 MSTORE SWAP1 PUSH1 0x40 MSTORE DUP1 MLOAD SWAP1 PUSH1 0x20 ADD KECCAK256 DUP3 PUSH1 0x40 MLOAD PUSH1 0x20 ADD PUSH2 0x6789 SWAP2 SWAP1 PUSH2 0x9544 JUMP JUMPDEST PUSH1 0x40 MLOAD PUSH1 0x20 DUP2 DUP4 SUB SUB DUP2 MSTORE SWAP1 PUSH1 0x40 MSTORE DUP1 MLOAD SWAP1 PUSH1 0x20 ADD KECCAK256 EQ ISZERO JUMPDEST ISZERO PUSH2 0x67F8 JUMPI PUSH2 0x67BB PUSH8 0xB92CAEFF1E2C4E71 PUSH1 0xC0 SHL PUSH2 0x5F8A JUMP JUMPDEST PUSH2 0x67CF PUSH8 0xA48A759F9639DB64 PUSH1 0xC0 SHL PUSH2 0x5F8A JUMP JUMPDEST DUP2 PUSH1 0x1 PUSH1 0x0 DUP7 DUP2 MSTORE PUSH1 0x20 ADD SWAP1 DUP2 MSTORE PUSH1 0x20 ADD PUSH1 0x0 KECCAK256 PUSH1 0x2 ADD SWAP1 DUP2 PUSH2 0x67F2 SWAP2 SWAP1 PUSH2 0x90F3 JUMP JUMPDEST POP PUSH2 0x680D JUMP JUMPDEST PUSH2 0x680C PUSH8 0xAED08070E6BCF4C6 PUSH1 0xC0 SHL PUSH2 0x5F8A JUMP JUMPDEST JUMPDEST PUSH2 0x6821 PUSH8 0x4F519B1E053EFB54 PUSH1 0xC0 SHL PUSH2 0x5F8A JUMP JUMPDEST PUSH2 0x6835 PUSH8 0xAEC0A71526CCABA0 PUSH1 0xC0 SHL PUSH2 0x5F8A JUMP JUMPDEST PUSH1 0x1 PUSH1 0x0 DUP6 DUP2 MSTORE PUSH1 0x20 ADD SWAP1 DUP2 MSTORE PUSH1 0x20 ADD PUSH1 0x0 KECCAK256 PUSH1 0x3 ADD SLOAD DUP2 EQ ISZERO DUP1 ISZERO PUSH2 0x685C JUMPI POP PUSH1 0x0 DUP2 EQ ISZERO JUMPDEST ISZERO PUSH2 0x68A9 JUMPI PUSH2 0x6875 PUSH8 0x37B3E1505CACBB5C PUSH1 0xC0 SHL PUSH2 0x5F8A JUMP JUMPDEST PUSH2 0x6889 PUSH8 0xCAEBCBAD414C989 PUSH1 0xC0 SHL PUSH2 0x5F8A JUMP JUMPDEST DUP1 PUSH1 0x1 PUSH1 0x0 DUP7 DUP2 MSTORE PUSH1 0x20 ADD SWAP1 DUP2 MSTORE PUSH1 0x20 ADD PUSH1 0x0 KECCAK256 PUSH1 0x3 ADD DUP2 SWAP1 SSTORE POP PUSH2 0x68BE JUMP JUMPDEST PUSH2 0x68BD PUSH8 0xE5575FCBD78B3A8C PUSH1 0xC0 SHL PUSH2 0x5F8A JUMP JUMPDEST JUMPDEST PUSH2 0x68D2 PUSH8 0xF92C5CCE75DA192D PUSH1 0xC0 SHL PUSH2 0x5F8A JUMP JUMPDEST PUSH2 0x68E6 PUSH8 0x2197159AD936E066 PUSH1 0xC0 SHL PUSH2 0x5F8A JUMP JUMPDEST PUSH32 0x3E10A3F40E9AF2A5E61CB5A3DE55FD67286470C35B3CF345B04A83CF3F49077 DUP5 DUP5 DUP5 DUP5 PUSH1 0x40 MLOAD PUSH2 0x691B SWAP5 SWAP4 SWAP3 SWAP2 SWAP1 PUSH2 0x70FB JUMP JUMPDEST PUSH1 0x40 MLOAD DUP1 SWAP2 SUB SWAP1 LOG1 POP POP POP POP JUMP JUMPDEST PUSH1 0x0 PUSH1 0x1 SWAP1 POP SWAP2 SWAP1 POP JUMP JUMPDEST PUSH2 0x693E DUP3 DUP3 PUSH2 0x323C JUMP JUMPDEST ISZERO PUSH2 0x6A11 JUMPI PUSH1 0x0 DUP1 PUSH1 0x0 DUP5 DUP2 MSTORE PUSH1 0x20 ADD SWAP1 DUP2 MSTORE PUSH1 0x20 ADD PUSH1 0x0 KECCAK256 PUSH1 0x0 ADD PUSH1 0x0 DUP4 PUSH20 0xFFFFFFFFFFFFFFFFFFFFFFFFFFFFFFFFFFFFFFFF AND PUSH20 0xFFFFFFFFFFFFFFFFFFFFFFFFFFFFFFFFFFFFFFFF AND DUP2 MSTORE PUSH1 0x20 ADD SWAP1 DUP2 MSTORE PUSH1 0x20 ADD PUSH1 0x0 KECCAK256 PUSH1 0x0 PUSH2 0x100 EXP DUP2 SLOAD DUP2 PUSH1 0xFF MUL NOT AND SWAP1 DUP4 ISZERO ISZERO MUL OR SWAP1 SSTORE POP PUSH2 0x69B6 PUSH2 0x6B6B JUMP JUMPDEST PUSH20 0xFFFFFFFFFFFFFFFFFFFFFFFFFFFFFFFFFFFFFFFF AND DUP2 PUSH20 0xFFFFFFFFFFFFFFFFFFFFFFFFFFFFFFFFFFFFFFFF AND DUP4 PUSH32 0xF6391F5C32D9C69D2A47EA670B442974B53935D1EDC7FD64EB21E047A839171B PUSH1 0x40 MLOAD PUSH1 0x40 MLOAD DUP1 SWAP2 SUB SWAP1 LOG4 JUMPDEST POP POP JUMP JUMPDEST PUSH1 0x0 DUP1 PUSH1 0x0 SWAP1 POP PUSH27 0x184F03E93FF9F4DAA797ED6E38ED64BF6A1F010000000000000000 DUP4 LT PUSH2 0x6A73 JUMPI PUSH27 0x184F03E93FF9F4DAA797ED6E38ED64BF6A1F010000000000000000 DUP4 DUP2 PUSH2 0x6A69 JUMPI PUSH2 0x6A68 PUSH2 0x8CB7 JUMP JUMPDEST JUMPDEST DIV SWAP3 POP PUSH1 0x40 DUP2 ADD SWAP1 POP JUMPDEST PUSH14 0x4EE2D6D415B85ACEF8100000000 DUP4 LT PUSH2 0x6AB0 JUMPI PUSH14 0x4EE2D6D415B85ACEF8100000000 DUP4 DUP2 PUSH2 0x6AA6 JUMPI PUSH2 0x6AA5 PUSH2 0x8CB7 JUMP JUMPDEST JUMPDEST DIV SWAP3 POP PUSH1 0x20 DUP2 ADD SWAP1 POP JUMPDEST PUSH7 0x2386F26FC10000 DUP4 LT PUSH2 0x6ADF JUMPI PUSH7 0x2386F26FC10000 DUP4 DUP2 PUSH2 0x6AD5 JUMPI PUSH2 0x6AD4 PUSH2 0x8CB7 JUMP JUMPDEST JUMPDEST DIV SWAP3 POP PUSH1 0x10 DUP2 ADD SWAP1 POP JUMPDEST PUSH4 0x5F5E100 DUP4 LT PUSH2 0x6B08 JUMPI PUSH4 0x5F5E100 DUP4 DUP2 PUSH2 0x6AFE JUMPI PUSH2 0x6AFD PUSH2 0x8CB7 JUMP JUMPDEST JUMPDEST DIV SWAP3 POP PUSH1 0x8 DUP2 ADD SWAP1 POP JUMPDEST PUSH2 0x2710 DUP4 LT PUSH2 0x6B2D JUMPI PUSH2 0x2710 DUP4 DUP2 PUSH2 0x6B23 JUMPI PUSH2 0x6B22 PUSH2 0x8CB7 JUMP JUMPDEST JUMPDEST DIV SWAP3 POP PUSH1 0x4 DUP2 ADD SWAP1 POP JUMPDEST PUSH1 0x64 DUP4 LT PUSH2 0x6B50 JUMPI PUSH1 0x64 DUP4 DUP2 PUSH2 0x6B46 JUMPI PUSH2 0x6B45 PUSH2 0x8CB7 JUMP JUMPDEST JUMPDEST DIV SWAP3 POP PUSH1 0x2 DUP2 ADD SWAP1 POP JUMPDEST PUSH1 0xA DUP4 LT PUSH2 0x6B5F JUMPI PUSH1 0x1 DUP2 ADD SWAP1 POP JUMPDEST DUP1 SWAP2 POP POP SWAP2 SWAP1 POP JUMP JUMPDEST POP JUMP JUMPDEST PUSH1 0x0 CALLER SWAP1 POP SWAP1 JUMP JUMPDEST PUSH2 0x6B7D DUP3 DUP3 PUSH2 0x323C JUMP JUMPDEST PUSH2 0x6BF4 JUMPI PUSH2 0x6B8A DUP2 PUSH2 0x6BF8 JUMP JUMPDEST PUSH2 0x6B98 DUP4 PUSH1 0x0 SHR PUSH1 0x20 PUSH2 0x6C25 JUMP JUMPDEST PUSH1 0x40 MLOAD PUSH1 0x20 ADD PUSH2 0x6BA9 SWAP3 SWAP2 SWAP1 PUSH2 0x962E JUMP JUMPDEST PUSH1 0x40 MLOAD PUSH1 0x20 DUP2 DUP4 SUB SUB DUP2 MSTORE SWAP1 PUSH1 0x40 MSTORE PUSH1 0x40 MLOAD PUSH32 0x8C379A000000000000000000000000000000000000000000000000000000000 DUP2 MSTORE PUSH1 0x4 ADD PUSH2 0x6BEB SWAP2 SWAP1 PUSH2 0x7210 JUMP JUMPDEST PUSH1 0x40 MLOAD DUP1 SWAP2 SUB SWAP1 REVERT JUMPDEST POP POP JUMP JUMPDEST PUSH1 0x60 PUSH2 0x6C1E DUP3 PUSH20 0xFFFFFFFFFFFFFFFFFFFFFFFFFFFFFFFFFFFFFFFF AND PUSH1 0x14 PUSH1 0xFF AND PUSH2 0x6C25 JUMP JUMPDEST SWAP1 POP SWAP2 SWAP1 POP JUMP JUMPDEST PUSH1 0x60 PUSH1 0x0 PUSH1 0x2 DUP4 PUSH1 0x2 PUSH2 0x6C38 SWAP2 SWAP1 PUSH2 0x810C JUMP JUMPDEST PUSH2 0x6C42 SWAP2 SWAP1 PUSH2 0x80D8 JUMP JUMPDEST PUSH8 0xFFFFFFFFFFFFFFFF DUP2 GT ISZERO PUSH2 0x6C5B JUMPI PUSH2 0x6C5A PUSH2 0x7B14 JUMP JUMPDEST JUMPDEST PUSH1 0x40 MLOAD SWAP1 DUP1 DUP3 MSTORE DUP1 PUSH1 0x1F ADD PUSH1 0x1F NOT AND PUSH1 0x20 ADD DUP3 ADD PUSH1 0x40 MSTORE DUP1 ISZERO PUSH2 0x6C8D JUMPI DUP2 PUSH1 0x20 ADD PUSH1 0x1 DUP3 MUL DUP1 CALLDATASIZE DUP4 CALLDATACOPY DUP1 DUP3 ADD SWAP2 POP POP SWAP1 POP JUMPDEST POP SWAP1 POP PUSH32 0x3000000000000000000000000000000000000000000000000000000000000000 DUP2 PUSH1 0x0 DUP2 MLOAD DUP2 LT PUSH2 0x6CC5 JUMPI PUSH2 0x6CC4 PUSH2 0x80A9 JUMP JUMPDEST JUMPDEST PUSH1 0x20 ADD ADD SWAP1 PUSH31 0xFFFFFFFFFFFFFFFFFFFFFFFFFFFFFFFFFFFFFFFFFFFFFFFFFFFFFFFFFFFFFF NOT AND SWAP1 DUP2 PUSH1 0x0 BYTE SWAP1 MSTORE8 POP PUSH32 0x7800000000000000000000000000000000000000000000000000000000000000 DUP2 PUSH1 0x1 DUP2 MLOAD DUP2 LT PUSH2 0x6D29 JUMPI PUSH2 0x6D28 PUSH2 0x80A9 JUMP JUMPDEST JUMPDEST PUSH1 0x20 ADD ADD SWAP1 PUSH31 0xFFFFFFFFFFFFFFFFFFFFFFFFFFFFFFFFFFFFFFFFFFFFFFFFFFFFFFFFFFFFFF NOT AND SWAP1 DUP2 PUSH1 0x0 BYTE SWAP1 MSTORE8 POP PUSH1 0x0 PUSH1 0x1 DUP5 PUSH1 0x2 PUSH2 0x6D69 SWAP2 SWAP1 PUSH2 0x810C JUMP JUMPDEST PUSH2 0x6D73 SWAP2 SWAP1 PUSH2 0x80D8 JUMP JUMPDEST SWAP1 POP JUMPDEST PUSH1 0x1 DUP2 GT ISZERO PUSH2 0x6E13 JUMPI PUSH32 0x3031323334353637383961626364656600000000000000000000000000000000 PUSH1 0xF DUP7 AND PUSH1 0x10 DUP2 LT PUSH2 0x6DB5 JUMPI PUSH2 0x6DB4 PUSH2 0x80A9 JUMP JUMPDEST JUMPDEST BYTE PUSH1 0xF8 SHL DUP3 DUP3 DUP2 MLOAD DUP2 LT PUSH2 0x6DCC JUMPI PUSH2 0x6DCB PUSH2 0x80A9 JUMP JUMPDEST JUMPDEST PUSH1 0x20 ADD ADD SWAP1 PUSH31 0xFFFFFFFFFFFFFFFFFFFFFFFFFFFFFFFFFFFFFFFFFFFFFFFFFFFFFFFFFFFFFF NOT AND SWAP1 DUP2 PUSH1 0x0 BYTE SWAP1 MSTORE8 POP PUSH1 0x4 DUP6 SWAP1 SHR SWAP5 POP DUP1 PUSH2 0x6E0C SWAP1 PUSH2 0x9668 JUMP JUMPDEST SWAP1 POP PUSH2 0x6D76 JUMP JUMPDEST POP PUSH1 0x0 DUP5 EQ PUSH2 0x6E57 JUMPI PUSH1 0x40 MLOAD PUSH32 0x8C379A000000000000000000000000000000000000000000000000000000000 DUP2 MSTORE PUSH1 0x4 ADD PUSH2 0x6E4E SWAP1 PUSH2 0x96DD JUMP JUMPDEST PUSH1 0x40 MLOAD DUP1 SWAP2 SUB SWAP1 REVERT JUMPDEST DUP1 SWAP2 POP POP SWAP3 SWAP2 POP POP JUMP JUMPDEST POP DUP1 SLOAD PUSH2 0x6E6D SWAP1 PUSH2 0x8078 JUMP JUMPDEST PUSH1 0x0 DUP3 SSTORE DUP1 PUSH1 0x1F LT PUSH2 0x6E7F JUMPI POP PUSH2 0x6E9E JUMP JUMPDEST PUSH1 0x1F ADD PUSH1 0x20 SWAP1 DIV SWAP1 PUSH1 0x0 MSTORE PUSH1 0x20 PUSH1 0x0 KECCAK256 SWAP1 DUP2 ADD SWAP1 PUSH2 0x6E9D SWAP2 SWAP1 PUSH2 0x6EA1 JUMP JUMPDEST JUMPDEST POP JUMP JUMPDEST JUMPDEST DUP1 DUP3 GT ISZERO PUSH2 0x6EBA JUMPI PUSH1 0x0 DUP2 PUSH1 0x0 SWAP1 SSTORE POP PUSH1 0x1 ADD PUSH2 0x6EA2 JUMP JUMPDEST POP SWAP1 JUMP JUMPDEST PUSH1 0x0 PUSH1 0x40 MLOAD SWAP1 POP SWAP1 JUMP JUMPDEST PUSH1 0x0 DUP1 REVERT JUMPDEST PUSH1 0x0 DUP1 REVERT JUMPDEST PUSH1 0x0 PUSH32 0xFFFFFFFF00000000000000000000000000000000000000000000000000000000 DUP3 AND SWAP1 POP SWAP2 SWAP1 POP JUMP JUMPDEST PUSH2 0x6F07 DUP2 PUSH2 0x6ED2 JUMP JUMPDEST DUP2 EQ PUSH2 0x6F12 JUMPI PUSH1 0x0 DUP1 REVERT JUMPDEST POP JUMP JUMPDEST PUSH1 0x0 DUP2 CALLDATALOAD SWAP1 POP PUSH2 0x6F24 DUP2 PUSH2 0x6EFE JUMP JUMPDEST SWAP3 SWAP2 POP POP JUMP JUMPDEST PUSH1 0x0 PUSH1 0x20 DUP3 DUP5 SUB SLT ISZERO PUSH2 0x6F40 JUMPI PUSH2 0x6F3F PUSH2 0x6EC8 JUMP JUMPDEST JUMPDEST PUSH1 0x0 PUSH2 0x6F4E DUP5 DUP3 DUP6 ADD PUSH2 0x6F15 JUMP JUMPDEST SWAP2 POP POP SWAP3 SWAP2 POP POP JUMP JUMPDEST PUSH1 0x0 DUP2 ISZERO ISZERO SWAP1 POP SWAP2 SWAP1 POP JUMP JUMPDEST PUSH2 0x6F6C DUP2 PUSH2 0x6F57 JUMP JUMPDEST DUP3 MSTORE POP POP JUMP JUMPDEST PUSH1 0x0 PUSH1 0x20 DUP3 ADD SWAP1 POP PUSH2 0x6F87 PUSH1 0x0 DUP4 ADD DUP5 PUSH2 0x6F63 JUMP JUMPDEST SWAP3 SWAP2 POP POP JUMP JUMPDEST PUSH1 0x0 DUP2 SWAP1 POP SWAP2 SWAP1 POP JUMP JUMPDEST PUSH2 0x6FA0 DUP2 PUSH2 0x6F8D JUMP JUMPDEST DUP2 EQ PUSH2 0x6FAB JUMPI PUSH1 0x0 DUP1 REVERT JUMPDEST POP JUMP JUMPDEST PUSH1 0x0 DUP2 CALLDATALOAD SWAP1 POP PUSH2 0x6FBD DUP2 PUSH2 0x6F97 JUMP JUMPDEST SWAP3 SWAP2 POP POP JUMP JUMPDEST PUSH2 0x6FCC DUP2 PUSH2 0x6F57 JUMP JUMPDEST DUP2 EQ PUSH2 0x6FD7 JUMPI PUSH1 0x0 DUP1 REVERT JUMPDEST POP JUMP JUMPDEST PUSH1 0x0 DUP2 CALLDATALOAD SWAP1 POP PUSH2 0x6FE9 DUP2 PUSH2 0x6FC3 JUMP JUMPDEST SWAP3 SWAP2 POP POP JUMP JUMPDEST PUSH1 0x0 DUP1 PUSH1 0x40 DUP4 DUP6 SUB SLT ISZERO PUSH2 0x7006 JUMPI PUSH2 0x7005 PUSH2 0x6EC8 JUMP JUMPDEST JUMPDEST PUSH1 0x0 PUSH2 0x7014 DUP6 DUP3 DUP7 ADD PUSH2 0x6FAE JUMP JUMPDEST SWAP3 POP POP PUSH1 0x20 PUSH2 0x7025 DUP6 DUP3 DUP7 ADD PUSH2 0x6FDA JUMP JUMPDEST SWAP2 POP POP SWAP3 POP SWAP3 SWAP1 POP JUMP JUMPDEST PUSH1 0x0 PUSH1 0x20 DUP3 DUP5 SUB SLT ISZERO PUSH2 0x7045 JUMPI PUSH2 0x7044 PUSH2 0x6EC8 JUMP JUMPDEST JUMPDEST PUSH1 0x0 PUSH2 0x7053 DUP5 DUP3 DUP6 ADD PUSH2 0x6FAE JUMP JUMPDEST SWAP2 POP POP SWAP3 SWAP2 POP POP JUMP JUMPDEST PUSH2 0x7065 DUP2 PUSH2 0x6F8D JUMP JUMPDEST DUP3 MSTORE POP POP JUMP JUMPDEST PUSH1 0x0 DUP2 MLOAD SWAP1 POP SWAP2 SWAP1 POP JUMP JUMPDEST PUSH1 0x0 DUP3 DUP3 MSTORE PUSH1 0x20 DUP3 ADD SWAP1 POP SWAP3 SWAP2 POP POP JUMP JUMPDEST PUSH1 0x0 JUMPDEST DUP4 DUP2 LT ISZERO PUSH2 0x70A5 JUMPI DUP1 DUP3 ADD MLOAD DUP2 DUP5 ADD MSTORE PUSH1 0x20 DUP2 ADD SWAP1 POP PUSH2 0x708A JUMP JUMPDEST PUSH1 0x0 DUP5 DUP5 ADD MSTORE POP POP POP POP JUMP JUMPDEST PUSH1 0x0 PUSH1 0x1F NOT PUSH1 0x1F DUP4 ADD AND SWAP1 POP SWAP2 SWAP1 POP JUMP JUMPDEST PUSH1 0x0 PUSH2 0x70CD DUP3 PUSH2 0x706B JUMP JUMPDEST PUSH2 0x70D7 DUP2 DUP6 PUSH2 0x7076 JUMP JUMPDEST SWAP4 POP PUSH2 0x70E7 DUP2 DUP6 PUSH1 0x20 DUP7 ADD PUSH2 0x7087 JUMP JUMPDEST PUSH2 0x70F0 DUP2 PUSH2 0x70B1 JUMP JUMPDEST DUP5 ADD SWAP2 POP POP SWAP3 SWAP2 POP POP JUMP JUMPDEST PUSH1 0x0 PUSH1 0x80 DUP3 ADD SWAP1 POP PUSH2 0x7110 PUSH1 0x0 DUP4 ADD DUP8 PUSH2 0x705C JUMP JUMPDEST DUP2 DUP2 SUB PUSH1 0x20 DUP4 ADD MSTORE PUSH2 0x7122 DUP2 DUP7 PUSH2 0x70C2 JUMP JUMPDEST SWAP1 POP DUP2 DUP2 SUB PUSH1 0x40 DUP4 ADD MSTORE PUSH2 0x7136 DUP2 DUP6 PUSH2 0x70C2 JUMP JUMPDEST SWAP1 POP PUSH2 0x7145 PUSH1 0x60 DUP4 ADD DUP5 PUSH2 0x705C JUMP JUMPDEST SWAP6 SWAP5 POP POP POP POP POP JUMP JUMPDEST PUSH1 0x0 PUSH1 0xFF DUP3 AND SWAP1 POP SWAP2 SWAP1 POP JUMP JUMPDEST PUSH2 0x7164 DUP2 PUSH2 0x714E JUMP JUMPDEST DUP3 MSTORE POP POP JUMP JUMPDEST PUSH1 0x0 PUSH1 0x20 DUP3 ADD SWAP1 POP PUSH2 0x717F PUSH1 0x0 DUP4 ADD DUP5 PUSH2 0x715B JUMP JUMPDEST SWAP3 SWAP2 POP POP JUMP JUMPDEST PUSH1 0x0 PUSH20 0xFFFFFFFFFFFFFFFFFFFFFFFFFFFFFFFFFFFFFFFF DUP3 AND SWAP1 POP SWAP2 SWAP1 POP JUMP JUMPDEST PUSH1 0x0 PUSH2 0x71B0 DUP3 PUSH2 0x7185 JUMP JUMPDEST SWAP1 POP SWAP2 SWAP1 POP JUMP JUMPDEST PUSH2 0x71C0 DUP2 PUSH2 0x71A5 JUMP JUMPDEST DUP2 EQ PUSH2 0x71CB JUMPI PUSH1 0x0 DUP1 REVERT JUMPDEST POP JUMP JUMPDEST PUSH1 0x0 DUP2 CALLDATALOAD SWAP1 POP PUSH2 0x71DD DUP2 PUSH2 0x71B7 JUMP JUMPDEST SWAP3 SWAP2 POP POP JUMP JUMPDEST PUSH1 0x0 PUSH1 0x20 DUP3 DUP5 SUB SLT ISZERO PUSH2 0x71F9 JUMPI PUSH2 0x71F8 PUSH2 0x6EC8 JUMP JUMPDEST JUMPDEST PUSH1 0x0 PUSH2 0x7207 DUP5 DUP3 DUP6 ADD PUSH2 0x71CE JUMP JUMPDEST SWAP2 POP POP SWAP3 SWAP2 POP POP JUMP JUMPDEST PUSH1 0x0 PUSH1 0x20 DUP3 ADD SWAP1 POP DUP2 DUP2 SUB PUSH1 0x0 DUP4 ADD MSTORE PUSH2 0x722A DUP2 DUP5 PUSH2 0x70C2 JUMP JUMPDEST SWAP1 POP SWAP3 SWAP2 POP POP JUMP JUMPDEST PUSH1 0x0 DUP2 SWAP1 POP SWAP2 SWAP1 POP JUMP JUMPDEST PUSH2 0x7245 DUP2 PUSH2 0x7232 JUMP JUMPDEST DUP2 EQ PUSH2 0x7250 JUMPI PUSH1 0x0 DUP1 REVERT JUMPDEST POP JUMP JUMPDEST PUSH1 0x0 DUP2 CALLDATALOAD SWAP1 POP PUSH2 0x7262 DUP2 PUSH2 0x723C JUMP JUMPDEST SWAP3 SWAP2 POP POP JUMP JUMPDEST PUSH1 0x0 PUSH1 0x20 DUP3 DUP5 SUB SLT ISZERO PUSH2 0x727E JUMPI PUSH2 0x727D PUSH2 0x6EC8 JUMP JUMPDEST JUMPDEST PUSH1 0x0 PUSH2 0x728C DUP5 DUP3 DUP6 ADD PUSH2 0x7253 JUMP JUMPDEST SWAP2 POP POP SWAP3 SWAP2 POP POP JUMP JUMPDEST PUSH2 0x729E DUP2 PUSH2 0x7232 JUMP JUMPDEST DUP3 MSTORE POP POP JUMP JUMPDEST PUSH1 0x0 PUSH1 0xA0 DUP3 ADD SWAP1 POP PUSH2 0x72B9 PUSH1 0x0 DUP4 ADD DUP9 PUSH2 0x6F63 JUMP JUMPDEST PUSH2 0x72C6 PUSH1 0x20 DUP4 ADD DUP8 PUSH2 0x7295 JUMP JUMPDEST PUSH2 0x72D3 PUSH1 0x40 DUP4 ADD DUP7 PUSH2 0x715B JUMP JUMPDEST PUSH2 0x72E0 PUSH1 0x60 DUP4 ADD DUP6 PUSH2 0x715B JUMP JUMPDEST DUP2 DUP2 SUB PUSH1 0x80 DUP4 ADD MSTORE PUSH2 0x72F2 DUP2 DUP5 PUSH2 0x70C2 JUMP JUMPDEST SWAP1 POP SWAP7 SWAP6 POP POP POP POP POP POP JUMP JUMPDEST PUSH1 0x0 PUSH1 0x20 DUP3 ADD SWAP1 POP PUSH2 0x7313 PUSH1 0x0 DUP4 ADD DUP5 PUSH2 0x7295 JUMP JUMPDEST SWAP3 SWAP2 POP POP JUMP JUMPDEST PUSH1 0x0 DUP1 PUSH1 0x40 DUP4 DUP6 SUB SLT ISZERO PUSH2 0x7330 JUMPI PUSH2 0x732F PUSH2 0x6EC8 JUMP JUMPDEST JUMPDEST PUSH1 0x0 PUSH2 0x733E DUP6 DUP3 DUP7 ADD PUSH2 0x7253 JUMP JUMPDEST SWAP3 POP POP PUSH1 0x20 PUSH2 0x734F DUP6 DUP3 DUP7 ADD PUSH2 0x71CE JUMP JUMPDEST SWAP2 POP POP SWAP3 POP SWAP3 SWAP1 POP JUMP JUMPDEST PUSH1 0x0 DUP2 MLOAD SWAP1 POP SWAP2 SWAP1 POP JUMP JUMPDEST PUSH1 0x0 DUP3 DUP3 MSTORE PUSH1 0x20 DUP3 ADD SWAP1 POP SWAP3 SWAP2 POP POP JUMP JUMPDEST PUSH1 0x0 DUP2 SWAP1 POP PUSH1 0x20 DUP3 ADD SWAP1 POP SWAP2 SWAP1 POP JUMP JUMPDEST PUSH2 0x738E DUP2 PUSH2 0x6F8D JUMP JUMPDEST DUP3 MSTORE POP POP JUMP JUMPDEST PUSH1 0x0 PUSH2 0x73A0 DUP4 DUP4 PUSH2 0x7385 JUMP JUMPDEST PUSH1 0x20 DUP4 ADD SWAP1 POP SWAP3 SWAP2 POP POP JUMP JUMPDEST PUSH1 0x0 PUSH1 0x20 DUP3 ADD SWAP1 POP SWAP2 SWAP1 POP JUMP JUMPDEST PUSH1 0x0 PUSH2 0x73C4 DUP3 PUSH2 0x7359 JUMP JUMPDEST PUSH2 0x73CE DUP2 DUP6 PUSH2 0x7364 JUMP JUMPDEST SWAP4 POP PUSH2 0x73D9 DUP4 PUSH2 0x7375 JUMP JUMPDEST DUP1 PUSH1 0x0 JUMPDEST DUP4 DUP2 LT ISZERO PUSH2 0x740A JUMPI DUP2 MLOAD PUSH2 0x73F1 DUP9 DUP3 PUSH2 0x7394 JUMP JUMPDEST SWAP8 POP PUSH2 0x73FC DUP4 PUSH2 0x73AC JUMP JUMPDEST SWAP3 POP POP PUSH1 0x1 DUP2 ADD SWAP1 POP PUSH2 0x73DD JUMP JUMPDEST POP DUP6 SWAP4 POP POP POP POP SWAP3 SWAP2 POP POP JUMP JUMPDEST PUSH1 0x0 PUSH1 0x20 DUP3 ADD SWAP1 POP DUP2 DUP2 SUB PUSH1 0x0 DUP4 ADD MSTORE PUSH2 0x7431 DUP2 DUP5 PUSH2 0x73B9 JUMP JUMPDEST SWAP1 POP SWAP3 SWAP2 POP POP JUMP JUMPDEST PUSH1 0x0 DUP1 PUSH1 0x40 DUP4 DUP6 SUB SLT ISZERO PUSH2 0x7450 JUMPI PUSH2 0x744F PUSH2 0x6EC8 JUMP JUMPDEST JUMPDEST PUSH1 0x0 PUSH2 0x745E DUP6 DUP3 DUP7 ADD PUSH2 0x6FAE JUMP JUMPDEST SWAP3 POP POP PUSH1 0x20 PUSH2 0x746F DUP6 DUP3 DUP7 ADD PUSH2 0x6FAE JUMP JUMPDEST SWAP2 POP POP SWAP3 POP SWAP3 SWAP1 POP JUMP JUMPDEST PUSH1 0x0 PUSH1 0x60 DUP3 ADD SWAP1 POP DUP2 DUP2 SUB PUSH1 0x0 DUP4 ADD MSTORE PUSH2 0x7493 DUP2 DUP7 PUSH2 0x70C2 JUMP JUMPDEST SWAP1 POP DUP2 DUP2 SUB PUSH1 0x20 DUP4 ADD MSTORE PUSH2 0x74A7 DUP2 DUP6 PUSH2 0x70C2 JUMP JUMPDEST SWAP1 POP PUSH2 0x74B6 PUSH1 0x40 DUP4 ADD DUP5 PUSH2 0x705C JUMP JUMPDEST SWAP5 SWAP4 POP POP POP POP JUMP JUMPDEST PUSH1 0x0 DUP1 PUSH1 0x0 PUSH1 0x60 DUP5 DUP7 SUB SLT ISZERO PUSH2 0x74D7 JUMPI PUSH2 0x74D6 PUSH2 0x6EC8 JUMP JUMPDEST JUMPDEST PUSH1 0x0 PUSH2 0x74E5 DUP7 DUP3 DUP8 ADD PUSH2 0x7253 JUMP JUMPDEST SWAP4 POP POP PUSH1 0x20 PUSH2 0x74F6 DUP7 DUP3 DUP8 ADD PUSH2 0x71CE JUMP JUMPDEST SWAP3 POP POP PUSH1 0x40 PUSH2 0x7507 DUP7 DUP3 DUP8 ADD PUSH2 0x6FDA JUMP JUMPDEST SWAP2 POP POP SWAP3 POP SWAP3 POP SWAP3 JUMP JUMPDEST PUSH32 0x4E487B7100000000000000000000000000000000000000000000000000000000 PUSH1 0x0 MSTORE PUSH1 0x21 PUSH1 0x4 MSTORE PUSH1 0x24 PUSH1 0x0 REVERT JUMPDEST PUSH1 0x4 DUP2 LT PUSH2 0x7551 JUMPI PUSH2 0x7550 PUSH2 0x7511 JUMP JUMPDEST JUMPDEST POP JUMP JUMPDEST PUSH1 0x0 DUP2 SWAP1 POP PUSH2 0x7562 DUP3 PUSH2 0x7540 JUMP JUMPDEST SWAP2 SWAP1 POP JUMP JUMPDEST PUSH1 0x0 PUSH2 0x7572 DUP3 PUSH2 0x7554 JUMP JUMPDEST SWAP1 POP SWAP2 SWAP1 POP JUMP JUMPDEST PUSH2 0x7582 DUP2 PUSH2 0x7567 JUMP JUMPDEST DUP3 MSTORE POP POP JUMP JUMPDEST PUSH1 0x3 DUP2 LT PUSH2 0x7599 JUMPI PUSH2 0x7598 PUSH2 0x7511 JUMP JUMPDEST JUMPDEST POP JUMP JUMPDEST PUSH1 0x0 DUP2 SWAP1 POP PUSH2 0x75AA DUP3 PUSH2 0x7588 JUMP JUMPDEST SWAP2 SWAP1 POP JUMP JUMPDEST PUSH1 0x0 PUSH2 0x75BA DUP3 PUSH2 0x759C JUMP JUMPDEST SWAP1 POP SWAP2 SWAP1 POP JUMP JUMPDEST PUSH2 0x75CA DUP2 PUSH2 0x75AF JUMP JUMPDEST DUP3 MSTORE POP POP JUMP JUMPDEST PUSH1 0x10 DUP2 LT PUSH2 0x75E1 JUMPI PUSH2 0x75E0 PUSH2 0x7511 JUMP JUMPDEST JUMPDEST POP JUMP JUMPDEST PUSH1 0x0 DUP2 SWAP1 POP PUSH2 0x75F2 DUP3 PUSH2 0x75D0 JUMP JUMPDEST SWAP2 SWAP1 POP JUMP JUMPDEST PUSH1 0x0 PUSH2 0x7602 DUP3 PUSH2 0x75E4 JUMP JUMPDEST SWAP1 POP SWAP2 SWAP1 POP JUMP JUMPDEST PUSH2 0x7612 DUP2 PUSH2 0x75F7 JUMP JUMPDEST DUP3 MSTORE POP POP JUMP JUMPDEST PUSH1 0x0 PUSH1 0xC0 DUP3 ADD SWAP1 POP PUSH2 0x762D PUSH1 0x0 DUP4 ADD DUP10 PUSH2 0x7579 JUMP JUMPDEST PUSH2 0x763A PUSH1 0x20 DUP4 ADD DUP9 PUSH2 0x75C1 JUMP JUMPDEST PUSH2 0x7647 PUSH1 0x40 DUP4 ADD DUP8 PUSH2 0x7609 JUMP JUMPDEST PUSH2 0x7654 PUSH1 0x60 DUP4 ADD DUP7 PUSH2 0x705C JUMP JUMPDEST PUSH2 0x7661 PUSH1 0x80 DUP4 ADD DUP6 PUSH2 0x6F63 JUMP JUMPDEST PUSH2 0x766E PUSH1 0xA0 DUP4 ADD DUP5 PUSH2 0x705C JUMP JUMPDEST SWAP8 SWAP7 POP POP POP POP POP POP POP JUMP JUMPDEST PUSH1 0x4 DUP2 LT PUSH2 0x7686 JUMPI PUSH1 0x0 DUP1 REVERT JUMPDEST POP JUMP JUMPDEST PUSH1 0x0 DUP2 CALLDATALOAD SWAP1 POP PUSH2 0x7698 DUP2 PUSH2 0x7679 JUMP JUMPDEST SWAP3 SWAP2 POP POP JUMP JUMPDEST PUSH1 0x3 DUP2 LT PUSH2 0x76AB JUMPI PUSH1 0x0 DUP1 REVERT JUMPDEST POP JUMP JUMPDEST PUSH1 0x0 DUP2 CALLDATALOAD SWAP1 POP PUSH2 0x76BD DUP2 PUSH2 0x769E JUMP JUMPDEST SWAP3 SWAP2 POP POP JUMP JUMPDEST PUSH1 0x10 DUP2 LT PUSH2 0x76D0 JUMPI PUSH1 0x0 DUP1 REVERT JUMPDEST POP JUMP JUMPDEST PUSH1 0x0 DUP2 CALLDATALOAD SWAP1 POP PUSH2 0x76E2 DUP2 PUSH2 0x76C3 JUMP JUMPDEST SWAP3 SWAP2 POP POP JUMP JUMPDEST PUSH1 0x0 DUP1 PUSH1 0x0 DUP1 PUSH1 0x0 PUSH1 0xA0 DUP7 DUP9 SUB SLT ISZERO PUSH2 0x7704 JUMPI PUSH2 0x7703 PUSH2 0x6EC8 JUMP JUMPDEST JUMPDEST PUSH1 0x0 PUSH2 0x7712 DUP9 DUP3 DUP10 ADD PUSH2 0x6FAE JUMP JUMPDEST SWAP6 POP POP PUSH1 0x20 PUSH2 0x7723 DUP9 DUP3 DUP10 ADD PUSH2 0x7689 JUMP JUMPDEST SWAP5 POP POP PUSH1 0x40 PUSH2 0x7734 DUP9 DUP3 DUP10 ADD PUSH2 0x76AE JUMP JUMPDEST SWAP4 POP POP PUSH1 0x60 PUSH2 0x7745 DUP9 DUP3 DUP10 ADD PUSH2 0x76D3 JUMP JUMPDEST SWAP3 POP POP PUSH1 0x80 PUSH2 0x7756 DUP9 DUP3 DUP10 ADD PUSH2 0x6FDA JUMP JUMPDEST SWAP2 POP POP SWAP3 SWAP6 POP SWAP3 SWAP6 SWAP1 SWAP4 POP JUMP JUMPDEST PUSH1 0x0 DUP2 MLOAD SWAP1 POP SWAP2 SWAP1 POP JUMP JUMPDEST PUSH1 0x0 DUP3 DUP3 MSTORE PUSH1 0x20 DUP3 ADD SWAP1 POP SWAP3 SWAP2 POP POP JUMP JUMPDEST PUSH1 0x0 DUP2 SWAP1 POP PUSH1 0x20 DUP3 ADD SWAP1 POP SWAP2 SWAP1 POP JUMP JUMPDEST PUSH2 0x7798 DUP2 PUSH2 0x7232 JUMP JUMPDEST DUP3 MSTORE POP POP JUMP JUMPDEST PUSH1 0x0 PUSH2 0x77AA DUP4 DUP4 PUSH2 0x778F JUMP JUMPDEST PUSH1 0x20 DUP4 ADD SWAP1 POP SWAP3 SWAP2 POP POP JUMP JUMPDEST PUSH1 0x0 PUSH1 0x20 DUP3 ADD SWAP1 POP SWAP2 SWAP1 POP JUMP JUMPDEST PUSH1 0x0 PUSH2 0x77CE DUP3 PUSH2 0x7763 JUMP JUMPDEST PUSH2 0x77D8 DUP2 DUP6 PUSH2 0x776E JUMP JUMPDEST SWAP4 POP PUSH2 0x77E3 DUP4 PUSH2 0x777F JUMP JUMPDEST DUP1 PUSH1 0x0 JUMPDEST DUP4 DUP2 LT ISZERO PUSH2 0x7814 JUMPI DUP2 MLOAD PUSH2 0x77FB DUP9 DUP3 PUSH2 0x779E JUMP JUMPDEST SWAP8 POP PUSH2 0x7806 DUP4 PUSH2 0x77B6 JUMP JUMPDEST SWAP3 POP POP PUSH1 0x1 DUP2 ADD SWAP1 POP PUSH2 0x77E7 JUMP JUMPDEST POP DUP6 SWAP4 POP POP POP POP SWAP3 SWAP2 POP POP JUMP JUMPDEST PUSH1 0x0 DUP2 MLOAD SWAP1 POP SWAP2 SWAP1 POP JUMP JUMPDEST PUSH1 0x0 DUP3 DUP3 MSTORE PUSH1 0x20 DUP3 ADD SWAP1 POP SWAP3 SWAP2 POP POP JUMP JUMPDEST PUSH1 0x0 DUP2 SWAP1 POP PUSH1 0x20 DUP3 ADD SWAP1 POP SWAP2 SWAP1 POP JUMP JUMPDEST PUSH2 0x7856 DUP2 PUSH2 0x714E JUMP JUMPDEST DUP3 MSTORE POP POP JUMP JUMPDEST PUSH1 0x0 PUSH2 0x7868 DUP4 DUP4 PUSH2 0x784D JUMP JUMPDEST PUSH1 0x20 DUP4 ADD SWAP1 POP SWAP3 SWAP2 POP POP JUMP JUMPDEST PUSH1 0x0 PUSH1 0x20 DUP3 ADD SWAP1 POP SWAP2 SWAP1 POP JUMP JUMPDEST PUSH1 0x0 PUSH2 0x788C DUP3 PUSH2 0x7821 JUMP JUMPDEST PUSH2 0x7896 DUP2 DUP6 PUSH2 0x782C JUMP JUMPDEST SWAP4 POP PUSH2 0x78A1 DUP4 PUSH2 0x783D JUMP JUMPDEST DUP1 PUSH1 0x0 JUMPDEST DUP4 DUP2 LT ISZERO PUSH2 0x78D2 JUMPI DUP2 MLOAD PUSH2 0x78B9 DUP9 DUP3 PUSH2 0x785C JUMP JUMPDEST SWAP8 POP PUSH2 0x78C4 DUP4 PUSH2 0x7874 JUMP JUMPDEST SWAP3 POP POP PUSH1 0x1 DUP2 ADD SWAP1 POP PUSH2 0x78A5 JUMP JUMPDEST POP DUP6 SWAP4 POP POP POP POP SWAP3 SWAP2 POP POP JUMP JUMPDEST PUSH1 0x0 DUP2 MLOAD SWAP1 POP SWAP2 SWAP1 POP JUMP JUMPDEST PUSH1 0x0 DUP3 DUP3 MSTORE PUSH1 0x20 DUP3 ADD SWAP1 POP SWAP3 SWAP2 POP POP JUMP JUMPDEST PUSH1 0x0 DUP2 SWAP1 POP PUSH1 0x20 DUP3 ADD SWAP1 POP SWAP2 SWAP1 POP JUMP JUMPDEST PUSH1 0x0 DUP3 DUP3 MSTORE PUSH1 0x20 DUP3 ADD SWAP1 POP SWAP3 SWAP2 POP POP JUMP JUMPDEST PUSH1 0x0 PUSH2 0x7927 DUP3 PUSH2 0x706B JUMP JUMPDEST PUSH2 0x7931 DUP2 DUP6 PUSH2 0x790B JUMP JUMPDEST SWAP4 POP PUSH2 0x7941 DUP2 DUP6 PUSH1 0x20 DUP7 ADD PUSH2 0x7087 JUMP JUMPDEST PUSH2 0x794A DUP2 PUSH2 0x70B1 JUMP JUMPDEST DUP5 ADD SWAP2 POP POP SWAP3 SWAP2 POP POP JUMP JUMPDEST PUSH1 0x0 PUSH2 0x7961 DUP4 DUP4 PUSH2 0x791C JUMP JUMPDEST SWAP1 POP SWAP3 SWAP2 POP POP JUMP JUMPDEST PUSH1 0x0 PUSH1 0x20 DUP3 ADD SWAP1 POP SWAP2 SWAP1 POP JUMP JUMPDEST PUSH1 0x0 PUSH2 0x7981 DUP3 PUSH2 0x78DF JUMP JUMPDEST PUSH2 0x798B DUP2 DUP6 PUSH2 0x78EA JUMP JUMPDEST SWAP4 POP DUP4 PUSH1 0x20 DUP3 MUL DUP6 ADD PUSH2 0x799D DUP6 PUSH2 0x78FB JUMP JUMPDEST DUP1 PUSH1 0x0 JUMPDEST DUP6 DUP2 LT ISZERO PUSH2 0x79D9 JUMPI DUP5 DUP5 SUB DUP10 MSTORE DUP2 MLOAD PUSH2 0x79BA DUP6 DUP3 PUSH2 0x7955 JUMP JUMPDEST SWAP5 POP PUSH2 0x79C5 DUP4 PUSH2 0x7969 JUMP JUMPDEST SWAP3 POP PUSH1 0x20 DUP11 ADD SWAP10 POP POP PUSH1 0x1 DUP2 ADD SWAP1 POP PUSH2 0x79A1 JUMP JUMPDEST POP DUP3 SWAP8 POP DUP8 SWAP6 POP POP POP POP POP POP SWAP3 SWAP2 POP POP JUMP JUMPDEST PUSH1 0x0 DUP2 MLOAD SWAP1 POP SWAP2 SWAP1 POP JUMP JUMPDEST PUSH1 0x0 DUP3 DUP3 MSTORE PUSH1 0x20 DUP3 ADD SWAP1 POP SWAP3 SWAP2 POP POP JUMP JUMPDEST PUSH1 0x0 DUP2 SWAP1 POP PUSH1 0x20 DUP3 ADD SWAP1 POP SWAP2 SWAP1 POP JUMP JUMPDEST PUSH2 0x7A20 DUP2 PUSH2 0x6F57 JUMP JUMPDEST DUP3 MSTORE POP POP JUMP JUMPDEST PUSH1 0x0 PUSH2 0x7A32 DUP4 DUP4 PUSH2 0x7A17 JUMP JUMPDEST PUSH1 0x20 DUP4 ADD SWAP1 POP SWAP3 SWAP2 POP POP JUMP JUMPDEST PUSH1 0x0 PUSH1 0x20 DUP3 ADD SWAP1 POP SWAP2 SWAP1 POP JUMP JUMPDEST PUSH1 0x0 PUSH2 0x7A56 DUP3 PUSH2 0x79EB JUMP JUMPDEST PUSH2 0x7A60 DUP2 DUP6 PUSH2 0x79F6 JUMP JUMPDEST SWAP4 POP PUSH2 0x7A6B DUP4 PUSH2 0x7A07 JUMP JUMPDEST DUP1 PUSH1 0x0 JUMPDEST DUP4 DUP2 LT ISZERO PUSH2 0x7A9C JUMPI DUP2 MLOAD PUSH2 0x7A83 DUP9 DUP3 PUSH2 0x7A26 JUMP JUMPDEST SWAP8 POP PUSH2 0x7A8E DUP4 PUSH2 0x7A3E JUMP JUMPDEST SWAP3 POP POP PUSH1 0x1 DUP2 ADD SWAP1 POP PUSH2 0x7A6F JUMP JUMPDEST POP DUP6 SWAP4 POP POP POP POP SWAP3 SWAP2 POP POP JUMP JUMPDEST PUSH1 0x0 PUSH1 0x80 DUP3 ADD SWAP1 POP DUP2 DUP2 SUB PUSH1 0x0 DUP4 ADD MSTORE PUSH2 0x7AC3 DUP2 DUP8 PUSH2 0x77C3 JUMP JUMPDEST SWAP1 POP DUP2 DUP2 SUB PUSH1 0x20 DUP4 ADD MSTORE PUSH2 0x7AD7 DUP2 DUP7 PUSH2 0x7881 JUMP JUMPDEST SWAP1 POP DUP2 DUP2 SUB PUSH1 0x40 DUP4 ADD MSTORE PUSH2 0x7AEB DUP2 DUP6 PUSH2 0x7976 JUMP JUMPDEST SWAP1 POP DUP2 DUP2 SUB PUSH1 0x60 DUP4 ADD MSTORE PUSH2 0x7AFF DUP2 DUP5 PUSH2 0x7A4B JUMP JUMPDEST SWAP1 POP SWAP6 SWAP5 POP POP POP POP POP JUMP JUMPDEST PUSH1 0x0 DUP1 REVERT JUMPDEST PUSH1 0x0 DUP1 REVERT JUMPDEST PUSH32 0x4E487B7100000000000000000000000000000000000000000000000000000000 PUSH1 0x0 MSTORE PUSH1 0x41 PUSH1 0x4 MSTORE PUSH1 0x24 PUSH1 0x0 REVERT JUMPDEST PUSH2 0x7B4C DUP3 PUSH2 0x70B1 JUMP JUMPDEST DUP2 ADD DUP2 DUP2 LT PUSH8 0xFFFFFFFFFFFFFFFF DUP3 GT OR ISZERO PUSH2 0x7B6B JUMPI PUSH2 0x7B6A PUSH2 0x7B14 JUMP JUMPDEST JUMPDEST DUP1 PUSH1 0x40 MSTORE POP POP POP JUMP JUMPDEST PUSH1 0x0 PUSH2 0x7B7E PUSH2 0x6EBE JUMP JUMPDEST SWAP1 POP PUSH2 0x7B8A DUP3 DUP3 PUSH2 0x7B43 JUMP JUMPDEST SWAP2 SWAP1 POP JUMP JUMPDEST PUSH1 0x0 PUSH8 0xFFFFFFFFFFFFFFFF DUP3 GT ISZERO PUSH2 0x7BAA JUMPI PUSH2 0x7BA9 PUSH2 0x7B14 JUMP JUMPDEST JUMPDEST PUSH2 0x7BB3 DUP3 PUSH2 0x70B1 JUMP JUMPDEST SWAP1 POP PUSH1 0x20 DUP2 ADD SWAP1 POP SWAP2 SWAP1 POP JUMP JUMPDEST DUP3 DUP2 DUP4 CALLDATACOPY PUSH1 0x0 DUP4 DUP4 ADD MSTORE POP POP POP JUMP JUMPDEST PUSH1 0x0 PUSH2 0x7BE2 PUSH2 0x7BDD DUP5 PUSH2 0x7B8F JUMP JUMPDEST PUSH2 0x7B74 JUMP JUMPDEST SWAP1 POP DUP3 DUP2 MSTORE PUSH1 0x20 DUP2 ADD DUP5 DUP5 DUP5 ADD GT ISZERO PUSH2 0x7BFE JUMPI PUSH2 0x7BFD PUSH2 0x7B0F JUMP JUMPDEST JUMPDEST PUSH2 0x7C09 DUP5 DUP3 DUP6 PUSH2 0x7BC0 JUMP JUMPDEST POP SWAP4 SWAP3 POP POP POP JUMP JUMPDEST PUSH1 0x0 DUP3 PUSH1 0x1F DUP4 ADD SLT PUSH2 0x7C26 JUMPI PUSH2 0x7C25 PUSH2 0x7B0A JUMP JUMPDEST JUMPDEST DUP2 CALLDATALOAD PUSH2 0x7C36 DUP5 DUP3 PUSH1 0x20 DUP7 ADD PUSH2 0x7BCF JUMP JUMPDEST SWAP2 POP POP SWAP3 SWAP2 POP POP JUMP JUMPDEST PUSH1 0x0 DUP1 PUSH1 0x0 DUP1 PUSH1 0x80 DUP6 DUP8 SUB SLT ISZERO PUSH2 0x7C59 JUMPI PUSH2 0x7C58 PUSH2 0x6EC8 JUMP JUMPDEST JUMPDEST PUSH1 0x0 PUSH2 0x7C67 DUP8 DUP3 DUP9 ADD PUSH2 0x6FAE JUMP JUMPDEST SWAP5 POP POP PUSH1 0x20 DUP6 ADD CALLDATALOAD PUSH8 0xFFFFFFFFFFFFFFFF DUP2 GT ISZERO PUSH2 0x7C88 JUMPI PUSH2 0x7C87 PUSH2 0x6ECD JUMP JUMPDEST JUMPDEST PUSH2 0x7C94 DUP8 DUP3 DUP9 ADD PUSH2 0x7C11 JUMP JUMPDEST SWAP4 POP POP PUSH1 0x40 DUP6 ADD CALLDATALOAD PUSH8 0xFFFFFFFFFFFFFFFF DUP2 GT ISZERO PUSH2 0x7CB5 JUMPI PUSH2 0x7CB4 PUSH2 0x6ECD JUMP JUMPDEST JUMPDEST PUSH2 0x7CC1 DUP8 DUP3 DUP9 ADD PUSH2 0x7C11 JUMP JUMPDEST SWAP3 POP POP PUSH1 0x60 PUSH2 0x7CD2 DUP8 DUP3 DUP9 ADD PUSH2 0x6FAE JUMP JUMPDEST SWAP2 POP POP SWAP3 SWAP6 SWAP2 SWAP5 POP SWAP3 POP JUMP JUMPDEST PUSH1 0x0 PUSH1 0x20 DUP3 ADD SWAP1 POP PUSH2 0x7CF3 PUSH1 0x0 DUP4 ADD DUP5 PUSH2 0x705C JUMP JUMPDEST SWAP3 SWAP2 POP POP JUMP JUMPDEST PUSH1 0x0 PUSH1 0xA0 DUP3 ADD SWAP1 POP PUSH2 0x7D0E PUSH1 0x0 DUP4 ADD DUP9 PUSH2 0x715B JUMP JUMPDEST PUSH2 0x7D1B PUSH1 0x20 DUP4 ADD DUP8 PUSH2 0x715B JUMP JUMPDEST PUSH2 0x7D28 PUSH1 0x40 DUP4 ADD DUP7 PUSH2 0x715B JUMP JUMPDEST PUSH2 0x7D35 PUSH1 0x60 DUP4 ADD DUP6 PUSH2 0x705C JUMP JUMPDEST PUSH2 0x7D42 PUSH1 0x80 DUP4 ADD DUP5 PUSH2 0x705C JUMP JUMPDEST SWAP7 SWAP6 POP POP POP POP POP POP JUMP JUMPDEST PUSH1 0x0 PUSH1 0x20 DUP3 ADD SWAP1 POP DUP2 DUP2 SUB PUSH1 0x0 DUP4 ADD MSTORE PUSH2 0x7D66 DUP2 DUP5 PUSH2 0x77C3 JUMP JUMPDEST SWAP1 POP SWAP3 SWAP2 POP POP JUMP JUMPDEST PUSH32 0x43616C6C6572206973206E6F7420612063657274696669657200000000000000 PUSH1 0x0 DUP3 ADD MSTORE POP JUMP JUMPDEST PUSH1 0x0 PUSH2 0x7DA4 PUSH1 0x19 DUP4 PUSH2 0x7076 JUMP JUMPDEST SWAP2 POP PUSH2 0x7DAF DUP3 PUSH2 0x7D6E JUMP JUMPDEST PUSH1 0x20 DUP3 ADD SWAP1 POP SWAP2 SWAP1 POP JUMP JUMPDEST PUSH1 0x0 PUSH1 0x20 DUP3 ADD SWAP1 POP DUP2 DUP2 SUB PUSH1 0x0 DUP4 ADD MSTORE PUSH2 0x7DD3 DUP2 PUSH2 0x7D97 JUMP JUMPDEST SWAP1 POP SWAP2 SWAP1 POP JUMP JUMPDEST PUSH32 0x4964206D7573742062652067726561746572207468616E203000000000000000 PUSH1 0x0 DUP3 ADD MSTORE POP JUMP JUMPDEST PUSH1 0x0 PUSH2 0x7E10 PUSH1 0x19 DUP4 PUSH2 0x7076 JUMP JUMPDEST SWAP2 POP PUSH2 0x7E1B DUP3 PUSH2 0x7DDA JUMP JUMPDEST PUSH1 0x20 DUP3 ADD SWAP1 POP SWAP2 SWAP1 POP JUMP JUMPDEST PUSH1 0x0 PUSH1 0x20 DUP3 ADD SWAP1 POP DUP2 DUP2 SUB PUSH1 0x0 DUP4 ADD MSTORE PUSH2 0x7E3F DUP2 PUSH2 0x7E03 JUMP JUMPDEST SWAP1 POP SWAP2 SWAP1 POP JUMP JUMPDEST PUSH32 0x546869732073747564656E7420646F65736E2774206578697374000000000000 PUSH1 0x0 DUP3 ADD MSTORE POP JUMP JUMPDEST PUSH1 0x0 PUSH2 0x7E7C PUSH1 0x1A DUP4 PUSH2 0x7076 JUMP JUMPDEST SWAP2 POP PUSH2 0x7E87 DUP3 PUSH2 0x7E46 JUMP JUMPDEST PUSH1 0x20 DUP3 ADD SWAP1 POP SWAP2 SWAP1 POP JUMP JUMPDEST PUSH1 0x0 PUSH1 0x20 DUP3 ADD SWAP1 POP DUP2 DUP2 SUB PUSH1 0x0 DUP4 ADD MSTORE PUSH2 0x7EAB DUP2 PUSH2 0x7E6F JUMP JUMPDEST SWAP1 POP SWAP2 SWAP1 POP JUMP JUMPDEST PUSH1 0x0 DUP2 SWAP1 POP SWAP2 SWAP1 POP JUMP JUMPDEST PUSH2 0x7ECD PUSH2 0x7EC8 DUP3 PUSH2 0x6F8D JUMP JUMPDEST PUSH2 0x7EB2 JUMP JUMPDEST DUP3 MSTORE POP POP JUMP JUMPDEST PUSH1 0x0 DUP2 SWAP1 POP SWAP3 SWAP2 POP POP JUMP JUMPDEST PUSH32 0x44454C4554452053545544454E54000000000000000000000000000000000000 PUSH1 0x0 DUP3 ADD MSTORE POP JUMP JUMPDEST PUSH1 0x0 PUSH2 0x7F14 PUSH1 0xE DUP4 PUSH2 0x7ED3 JUMP JUMPDEST SWAP2 POP PUSH2 0x7F1F DUP3 PUSH2 0x7EDE JUMP JUMPDEST PUSH1 0xE DUP3 ADD SWAP1 POP SWAP2 SWAP1 POP JUMP JUMPDEST PUSH1 0x0 PUSH2 0x7F36 DUP3 DUP5 PUSH2 0x7EBC JUMP JUMPDEST PUSH1 0x20 DUP3 ADD SWAP2 POP PUSH2 0x7F45 DUP3 PUSH2 0x7F07 JUMP JUMPDEST SWAP2 POP DUP2 SWAP1 POP SWAP3 SWAP2 POP POP JUMP JUMPDEST PUSH32 0x44656C6574652073747564656E74200000000000000000000000000000000000 DUP2 MSTORE POP JUMP JUMPDEST PUSH1 0x0 PUSH2 0x7F81 DUP3 PUSH2 0x706B JUMP JUMPDEST PUSH2 0x7F8B DUP2 DUP6 PUSH2 0x7ED3 JUMP JUMPDEST SWAP4 POP PUSH2 0x7F9B DUP2 DUP6 PUSH1 0x20 DUP7 ADD PUSH2 0x7087 JUMP JUMPDEST DUP1 DUP5 ADD SWAP2 POP POP SWAP3 SWAP2 POP POP JUMP JUMPDEST PUSH1 0x0 PUSH2 0x7FB2 DUP3 PUSH2 0x7F50 JUMP JUMPDEST PUSH1 0xF DUP3 ADD SWAP2 POP PUSH2 0x7FC2 DUP3 DUP5 PUSH2 0x7F76 JUMP JUMPDEST SWAP2 POP DUP2 SWAP1 POP SWAP3 SWAP2 POP POP JUMP JUMPDEST PUSH1 0x0 PUSH4 0xFFFFFFFF DUP3 AND SWAP1 POP SWAP2 SWAP1 POP JUMP JUMPDEST PUSH32 0x4E487B7100000000000000000000000000000000000000000000000000000000 PUSH1 0x0 MSTORE PUSH1 0x11 PUSH1 0x4 MSTORE PUSH1 0x24 PUSH1 0x0 REVERT JUMPDEST PUSH1 0x0 PUSH2 0x8017 DUP3 PUSH2 0x7FCD JUMP JUMPDEST SWAP2 POP PUSH2 0x8022 DUP4 PUSH2 0x7FCD JUMP JUMPDEST SWAP3 POP DUP3 DUP3 MUL PUSH2 0x8030 DUP2 PUSH2 0x7FCD JUMP JUMPDEST SWAP2 POP DUP1 DUP3 EQ PUSH2 0x8042 JUMPI PUSH2 0x8041 PUSH2 0x7FDD JUMP JUMPDEST JUMPDEST POP SWAP3 SWAP2 POP POP JUMP JUMPDEST PUSH32 0x4E487B7100000000000000000000000000000000000000000000000000000000 PUSH1 0x0 MSTORE PUSH1 0x22 PUSH1 0x4 MSTORE PUSH1 0x24 PUSH1 0x0 REVERT JUMPDEST PUSH1 0x0 PUSH1 0x2 DUP3 DIV SWAP1 POP PUSH1 0x1 DUP3 AND DUP1 PUSH2 0x8090 JUMPI PUSH1 0x7F DUP3 AND SWAP2 POP JUMPDEST PUSH1 0x20 DUP3 LT DUP2 SUB PUSH2 0x80A3 JUMPI PUSH2 0x80A2 PUSH2 0x8049 JUMP JUMPDEST JUMPDEST POP SWAP2 SWAP1 POP JUMP JUMPDEST PUSH32 0x4E487B7100000000000000000000000000000000000000000000000000000000 PUSH1 0x0 MSTORE PUSH1 0x32 PUSH1 0x4 MSTORE PUSH1 0x24 PUSH1 0x0 REVERT JUMPDEST PUSH1 0x0 PUSH2 0x80E3 DUP3 PUSH2 0x6F8D JUMP JUMPDEST SWAP2 POP PUSH2 0x80EE DUP4 PUSH2 0x6F8D JUMP JUMPDEST SWAP3 POP DUP3 DUP3 ADD SWAP1 POP DUP1 DUP3 GT ISZERO PUSH2 0x8106 JUMPI PUSH2 0x8105 PUSH2 0x7FDD JUMP JUMPDEST JUMPDEST SWAP3 SWAP2 POP POP JUMP JUMPDEST PUSH1 0x0 PUSH2 0x8117 DUP3 PUSH2 0x6F8D JUMP JUMPDEST SWAP2 POP PUSH2 0x8122 DUP4 PUSH2 0x6F8D JUMP JUMPDEST SWAP3 POP DUP3 DUP3 MUL PUSH2 0x8130 DUP2 PUSH2 0x6F8D JUMP JUMPDEST SWAP2 POP DUP3 DUP3 DIV DUP5 EQ DUP4 ISZERO OR PUSH2 0x8147 JUMPI PUSH2 0x8146 PUSH2 0x7FDD JUMP JUMPDEST JUMPDEST POP SWAP3 SWAP2 POP POP JUMP JUMPDEST PUSH1 0x0 PUSH2 0x8159 DUP3 PUSH2 0x6F8D JUMP JUMPDEST SWAP2 POP PUSH32 0xFFFFFFFFFFFFFFFFFFFFFFFFFFFFFFFFFFFFFFFFFFFFFFFFFFFFFFFFFFFFFFFF DUP3 SUB PUSH2 0x818B JUMPI PUSH2 0x818A PUSH2 0x7FDD JUMP JUMPDEST JUMPDEST PUSH1 0x1 DUP3 ADD SWAP1 POP SWAP2 SWAP1 POP JUMP JUMPDEST PUSH32 0x596F752063616E27742072656E6F756E636520746F20796F757220726F6C652E PUSH1 0x0 DUP3 ADD MSTORE PUSH32 0x20506C6561736520636F6E746163742061646D696E7300000000000000000000 PUSH1 0x20 DUP3 ADD MSTORE POP JUMP JUMPDEST PUSH1 0x0 PUSH2 0x81F2 PUSH1 0x36 DUP4 PUSH2 0x7076 JUMP JUMPDEST SWAP2 POP PUSH2 0x81FD DUP3 PUSH2 0x8196 JUMP JUMPDEST PUSH1 0x40 DUP3 ADD SWAP1 POP SWAP2 SWAP1 POP JUMP JUMPDEST PUSH1 0x0 PUSH1 0x20 DUP3 ADD SWAP1 POP DUP2 DUP2 SUB PUSH1 0x0 DUP4 ADD MSTORE PUSH2 0x8221 DUP2 PUSH2 0x81E5 JUMP JUMPDEST SWAP1 POP SWAP2 SWAP1 POP JUMP JUMPDEST PUSH32 0x53747564656E7420646F65736E27742065786973740000000000000000000000 PUSH1 0x0 DUP3 ADD MSTORE POP JUMP JUMPDEST PUSH1 0x0 PUSH2 0x825E PUSH1 0x15 DUP4 PUSH2 0x7076 JUMP JUMPDEST SWAP2 POP PUSH2 0x8269 DUP3 PUSH2 0x8228 JUMP JUMPDEST PUSH1 0x20 DUP3 ADD SWAP1 POP SWAP2 SWAP1 POP JUMP JUMPDEST PUSH1 0x0 PUSH1 0x20 DUP3 ADD SWAP1 POP DUP2 DUP2 SUB PUSH1 0x0 DUP4 ADD MSTORE PUSH2 0x828D DUP2 PUSH2 0x8251 JUMP JUMPDEST SWAP1 POP SWAP2 SWAP1 POP JUMP JUMPDEST PUSH1 0x0 DUP2 SWAP1 POP SWAP2 SWAP1 POP JUMP JUMPDEST PUSH2 0x82AF PUSH2 0x82AA DUP3 PUSH2 0x7232 JUMP JUMPDEST PUSH2 0x8294 JUMP JUMPDEST DUP3 MSTORE POP POP JUMP JUMPDEST PUSH1 0x0 PUSH2 0x82C1 DUP3 DUP5 PUSH2 0x829E JUMP JUMPDEST PUSH1 0x20 DUP3 ADD SWAP2 POP DUP2 SWAP1 POP SWAP3 SWAP2 POP POP JUMP JUMPDEST PUSH32 0x4D61782000000000000000000000000000000000000000000000000000000000 DUP2 MSTORE POP JUMP JUMPDEST PUSH32 0x2072656163686564000000000000000000000000000000000000000000000000 DUP2 MSTORE POP JUMP JUMPDEST PUSH1 0x0 PUSH2 0x8327 DUP3 PUSH2 0x82D0 JUMP JUMPDEST PUSH1 0x4 DUP3 ADD SWAP2 POP PUSH2 0x8337 DUP3 DUP5 PUSH2 0x7F76 JUMP JUMPDEST SWAP2 POP PUSH2 0x8342 DUP3 PUSH2 0x82F6 JUMP JUMPDEST PUSH1 0x8 DUP3 ADD SWAP2 POP DUP2 SWAP1 POP SWAP3 SWAP2 POP POP JUMP JUMPDEST PUSH32 0x43616C6C6572206973206E6F7420612000000000000000000000000000000000 DUP2 MSTORE POP JUMP JUMPDEST PUSH32 0x2061646D696E0000000000000000000000000000000000000000000000000000 DUP2 MSTORE POP JUMP JUMPDEST PUSH1 0x0 PUSH2 0x83A8 DUP3 PUSH2 0x8351 JUMP JUMPDEST PUSH1 0x10 DUP3 ADD SWAP2 POP PUSH2 0x83B8 DUP3 DUP5 PUSH2 0x7F76 JUMP JUMPDEST SWAP2 POP PUSH2 0x83C3 DUP3 PUSH2 0x8377 JUMP JUMPDEST PUSH1 0x6 DUP3 ADD SWAP2 POP DUP2 SWAP1 POP SWAP3 SWAP2 POP POP JUMP JUMPDEST PUSH32 0x54686973206164647265737320697320616C7265616479206120000000000000 DUP2 MSTORE POP JUMP JUMPDEST PUSH1 0x0 PUSH2 0x8403 DUP3 PUSH2 0x83D2 JUMP JUMPDEST PUSH1 0x1A DUP3 ADD SWAP2 POP PUSH2 0x8413 DUP3 DUP5 PUSH2 0x7F76 JUMP JUMPDEST SWAP2 POP DUP2 SWAP1 POP SWAP3 SWAP2 POP POP JUMP JUMPDEST PUSH1 0x0 DUP2 PUSH1 0x60 SHL SWAP1 POP SWAP2 SWAP1 POP JUMP JUMPDEST PUSH1 0x0 PUSH2 0x8436 DUP3 PUSH2 0x841E JUMP JUMPDEST SWAP1 POP SWAP2 SWAP1 POP JUMP JUMPDEST PUSH1 0x0 PUSH2 0x8448 DUP3 PUSH2 0x842B JUMP JUMPDEST SWAP1 POP SWAP2 SWAP1 POP JUMP JUMPDEST PUSH2 0x8460 PUSH2 0x845B DUP3 PUSH2 0x71A5 JUMP JUMPDEST PUSH2 0x843D JUMP JUMPDEST DUP3 MSTORE POP POP JUMP JUMPDEST PUSH32 0x4752414E54000000000000000000000000000000000000000000000000000000 PUSH1 0x0 DUP3 ADD MSTORE POP JUMP JUMPDEST PUSH1 0x0 PUSH2 0x849C PUSH1 0x5 DUP4 PUSH2 0x7ED3 JUMP JUMPDEST SWAP2 POP PUSH2 0x84A7 DUP3 PUSH2 0x8466 JUMP JUMPDEST PUSH1 0x5 DUP3 ADD SWAP1 POP SWAP2 SWAP1 POP JUMP JUMPDEST PUSH1 0x0 PUSH2 0x84BE DUP3 DUP6 PUSH2 0x844F JUMP JUMPDEST PUSH1 0x14 DUP3 ADD SWAP2 POP PUSH2 0x84CD DUP3 PUSH2 0x848F JUMP JUMPDEST SWAP2 POP PUSH2 0x84D9 DUP3 DUP5 PUSH2 0x829E JUMP JUMPDEST PUSH1 0x20 DUP3 ADD SWAP2 POP DUP2 SWAP1 POP SWAP4 SWAP3 POP POP POP JUMP JUMPDEST PUSH32 0x4772616E74200000000000000000000000000000000000000000000000000000 DUP2 MSTORE POP JUMP JUMPDEST PUSH32 0x2000000000000000000000000000000000000000000000000000000000000000 DUP2 MSTORE POP JUMP JUMPDEST PUSH1 0x0 PUSH2 0x8540 DUP3 PUSH2 0x84E9 JUMP JUMPDEST PUSH1 0x6 DUP3 ADD SWAP2 POP PUSH2 0x8550 DUP3 DUP6 PUSH2 0x7F76 JUMP JUMPDEST SWAP2 POP PUSH2 0x855B DUP3 PUSH2 0x850F JUMP JUMPDEST PUSH1 0x1 DUP3 ADD SWAP2 POP PUSH2 0x856B DUP3 DUP5 PUSH2 0x7F76 JUMP JUMPDEST SWAP2 POP DUP2 SWAP1 POP SWAP4 SWAP3 POP POP POP JUMP JUMPDEST PUSH1 0x0 PUSH2 0x8582 DUP3 PUSH2 0x7FCD JUMP JUMPDEST SWAP2 POP PUSH2 0x858D DUP4 PUSH2 0x7FCD JUMP JUMPDEST SWAP3 POP DUP3 DUP3 ADD SWAP1 POP PUSH4 0xFFFFFFFF DUP2 GT ISZERO PUSH2 0x85A9 JUMPI PUSH2 0x85A8 PUSH2 0x7FDD JUMP JUMPDEST JUMPDEST SWAP3 SWAP2 POP POP JUMP JUMPDEST PUSH32 0x417070726563696174696F6E206973206E6F742076616C696400000000000000 PUSH1 0x0 DUP3 ADD MSTORE POP JUMP JUMPDEST PUSH1 0x0 PUSH2 0x85E5 PUSH1 0x19 DUP4 PUSH2 0x7076 JUMP JUMPDEST SWAP2 POP PUSH2 0x85F0 DUP3 PUSH2 0x85AF JUMP JUMPDEST PUSH1 0x20 DUP3 ADD SWAP1 POP SWAP2 SWAP1 POP JUMP JUMPDEST PUSH1 0x0 PUSH1 0x20 DUP3 ADD SWAP1 POP DUP2 DUP2 SUB PUSH1 0x0 DUP4 ADD MSTORE PUSH2 0x8614 DUP2 PUSH2 0x85D8 JUMP JUMPDEST SWAP1 POP SWAP2 SWAP1 POP JUMP JUMPDEST PUSH32 0x446567726565206973206E6F742076616C696400000000000000000000000000 PUSH1 0x0 DUP3 ADD MSTORE POP JUMP JUMPDEST PUSH1 0x0 PUSH2 0x8651 PUSH1 0x13 DUP4 PUSH2 0x7076 JUMP JUMPDEST SWAP2 POP PUSH2 0x865C DUP3 PUSH2 0x861B JUMP JUMPDEST PUSH1 0x20 DUP3 ADD SWAP1 POP SWAP2 SWAP1 POP JUMP JUMPDEST PUSH1 0x0 PUSH1 0x20 DUP3 ADD SWAP1 POP DUP2 DUP2 SUB PUSH1 0x0 DUP4 ADD MSTORE PUSH2 0x8680 DUP2 PUSH2 0x8644 JUMP JUMPDEST SWAP1 POP SWAP2 SWAP1 POP JUMP JUMPDEST PUSH32 0x50726F6772616D206973206E6F742076616C6964000000000000000000000000 PUSH1 0x0 DUP3 ADD MSTORE POP JUMP JUMPDEST PUSH1 0x0 PUSH2 0x86BD PUSH1 0x14 DUP4 PUSH2 0x7076 JUMP JUMPDEST SWAP2 POP PUSH2 0x86C8 DUP3 PUSH2 0x8687 JUMP JUMPDEST PUSH1 0x20 DUP3 ADD SWAP1 POP SWAP2 SWAP1 POP JUMP JUMPDEST PUSH1 0x0 PUSH1 0x20 DUP3 ADD SWAP1 POP DUP2 DUP2 SUB PUSH1 0x0 DUP4 ADD MSTORE PUSH2 0x86EC DUP2 PUSH2 0x86B0 JUMP JUMPDEST SWAP1 POP SWAP2 SWAP1 POP JUMP JUMPDEST PUSH1 0x0 DUP2 PUSH1 0xF8 SHL SWAP1 POP SWAP2 SWAP1 POP JUMP JUMPDEST PUSH1 0x0 PUSH2 0x870B DUP3 PUSH2 0x86F3 JUMP JUMPDEST SWAP1 POP SWAP2 SWAP1 POP JUMP JUMPDEST PUSH2 0x8723 PUSH2 0x871E DUP3 PUSH2 0x7567 JUMP JUMPDEST PUSH2 0x8700 JUMP JUMPDEST DUP3 MSTORE POP POP JUMP JUMPDEST PUSH2 0x873A PUSH2 0x8735 DUP3 PUSH2 0x75AF JUMP JUMPDEST PUSH2 0x8700 JUMP JUMPDEST DUP3 MSTORE POP POP JUMP JUMPDEST PUSH2 0x8751 PUSH2 0x874C DUP3 PUSH2 0x75F7 JUMP JUMPDEST PUSH2 0x8700 JUMP JUMPDEST DUP3 MSTORE POP POP JUMP JUMPDEST PUSH1 0x0 PUSH2 0x8763 DUP3 DUP8 PUSH2 0x7EBC JUMP JUMPDEST PUSH1 0x20 DUP3 ADD SWAP2 POP PUSH2 0x8773 DUP3 DUP7 PUSH2 0x8712 JUMP JUMPDEST PUSH1 0x1 DUP3 ADD SWAP2 POP PUSH2 0x8783 DUP3 DUP6 PUSH2 0x8729 JUMP JUMPDEST PUSH1 0x1 DUP3 ADD SWAP2 POP PUSH2 0x8793 DUP3 DUP5 PUSH2 0x8740 JUMP JUMPDEST PUSH1 0x1 DUP3 ADD SWAP2 POP DUP2 SWAP1 POP SWAP6 SWAP5 POP POP POP POP POP JUMP JUMPDEST PUSH32 0x5468697320636572746966696361746520646F65736E27742065786973740000 PUSH1 0x0 DUP3 ADD MSTORE POP JUMP JUMPDEST PUSH1 0x0 PUSH2 0x87DB PUSH1 0x1E DUP4 PUSH2 0x7076 JUMP JUMPDEST SWAP2 POP PUSH2 0x87E6 DUP3 PUSH2 0x87A5 JUMP JUMPDEST PUSH1 0x20 DUP3 ADD SWAP1 POP SWAP2 SWAP1 POP JUMP JUMPDEST PUSH1 0x0 PUSH1 0x20 DUP3 ADD SWAP1 POP DUP2 DUP2 SUB PUSH1 0x0 DUP4 ADD MSTORE PUSH2 0x880A DUP2 PUSH2 0x87CE JUMP JUMPDEST SWAP1 POP SWAP2 SWAP1 POP JUMP JUMPDEST PUSH32 0x44454C4554450000000000000000000000000000000000000000000000000000 PUSH1 0x0 DUP3 ADD MSTORE POP JUMP JUMPDEST PUSH1 0x0 PUSH2 0x8847 PUSH1 0x6 DUP4 PUSH2 0x7ED3 JUMP JUMPDEST SWAP2 POP PUSH2 0x8852 DUP3 PUSH2 0x8811 JUMP JUMPDEST PUSH1 0x6 DUP3 ADD SWAP1 POP SWAP2 SWAP1 POP JUMP JUMPDEST PUSH1 0x0 PUSH2 0x8869 DUP3 DUP8 PUSH2 0x7EBC JUMP JUMPDEST PUSH1 0x20 DUP3 ADD SWAP2 POP PUSH2 0x8879 DUP3 DUP7 PUSH2 0x8712 JUMP JUMPDEST PUSH1 0x1 DUP3 ADD SWAP2 POP PUSH2 0x8889 DUP3 DUP6 PUSH2 0x8729 JUMP JUMPDEST PUSH1 0x1 DUP3 ADD SWAP2 POP PUSH2 0x8899 DUP3 DUP5 PUSH2 0x8740 JUMP JUMPDEST PUSH1 0x1 DUP3 ADD SWAP2 POP PUSH2 0x88A8 DUP3 PUSH2 0x883A JUMP JUMPDEST SWAP2 POP DUP2 SWAP1 POP SWAP6 SWAP5 POP POP POP POP POP JUMP JUMPDEST PUSH32 0x44656C6574652000000000000000000000000000000000000000000000000000 DUP2 MSTORE POP JUMP JUMPDEST PUSH1 0x0 PUSH2 0x88E7 DUP3 PUSH2 0x88B6 JUMP JUMPDEST PUSH1 0x7 DUP3 ADD SWAP2 POP PUSH2 0x88F7 DUP3 DUP8 PUSH2 0x7F76 JUMP JUMPDEST SWAP2 POP PUSH2 0x8902 DUP3 PUSH2 0x850F JUMP JUMPDEST PUSH1 0x1 DUP3 ADD SWAP2 POP PUSH2 0x8912 DUP3 DUP7 PUSH2 0x7F76 JUMP JUMPDEST SWAP2 POP PUSH2 0x891D DUP3 PUSH2 0x850F JUMP JUMPDEST PUSH1 0x1 DUP3 ADD SWAP2 POP PUSH2 0x892D DUP3 DUP6 PUSH2 0x7F76 JUMP JUMPDEST SWAP2 POP PUSH2 0x8938 DUP3 PUSH2 0x850F JUMP JUMPDEST PUSH1 0x1 DUP3 ADD SWAP2 POP PUSH2 0x8948 DUP3 DUP5 PUSH2 0x7F76 JUMP JUMPDEST SWAP2 POP DUP2 SWAP1 POP SWAP6 SWAP5 POP POP POP POP POP JUMP JUMPDEST PUSH32 0x46697273746E616D652063616E6E6F7420626520656D70747900000000000000 PUSH1 0x0 DUP3 ADD MSTORE POP JUMP JUMPDEST PUSH1 0x0 PUSH2 0x898C PUSH1 0x19 DUP4 PUSH2 0x7076 JUMP JUMPDEST SWAP2 POP PUSH2 0x8997 DUP3 PUSH2 0x8956 JUMP JUMPDEST PUSH1 0x20 DUP3 ADD SWAP1 POP SWAP2 SWAP1 POP JUMP JUMPDEST PUSH1 0x0 PUSH1 0x20 DUP3 ADD SWAP1 POP DUP2 DUP2 SUB PUSH1 0x0 DUP4 ADD MSTORE PUSH2 0x89BB DUP2 PUSH2 0x897F JUMP JUMPDEST SWAP1 POP SWAP2 SWAP1 POP JUMP JUMPDEST PUSH32 0x4C6173746E616D652063616E6E6F7420626520656D7074790000000000000000 PUSH1 0x0 DUP3 ADD MSTORE POP JUMP JUMPDEST PUSH1 0x0 PUSH2 0x89F8 PUSH1 0x18 DUP4 PUSH2 0x7076 JUMP JUMPDEST SWAP2 POP PUSH2 0x8A03 DUP3 PUSH2 0x89C2 JUMP JUMPDEST PUSH1 0x20 DUP3 ADD SWAP1 POP SWAP2 SWAP1 POP JUMP JUMPDEST PUSH1 0x0 PUSH1 0x20 DUP3 ADD SWAP1 POP DUP2 DUP2 SUB PUSH1 0x0 DUP4 ADD MSTORE PUSH2 0x8A27 DUP2 PUSH2 0x89EB JUMP JUMPDEST SWAP1 POP SWAP2 SWAP1 POP JUMP JUMPDEST PUSH32 0x426972746864617465206D7573742062652067726561746572207468616E2030 PUSH1 0x0 DUP3 ADD MSTORE POP JUMP JUMPDEST PUSH1 0x0 PUSH2 0x8A64 PUSH1 0x20 DUP4 PUSH2 0x7076 JUMP JUMPDEST SWAP2 POP PUSH2 0x8A6F DUP3 PUSH2 0x8A2E JUMP JUMPDEST PUSH1 0x20 DUP3 ADD SWAP1 POP SWAP2 SWAP1 POP JUMP JUMPDEST PUSH1 0x0 PUSH1 0x20 DUP3 ADD SWAP1 POP DUP2 DUP2 SUB PUSH1 0x0 DUP4 ADD MSTORE PUSH2 0x8A93 DUP2 PUSH2 0x8A57 JUMP JUMPDEST SWAP1 POP SWAP2 SWAP1 POP JUMP JUMPDEST PUSH32 0x546869732073747564656E7420616C7265616479206578697374730000000000 PUSH1 0x0 DUP3 ADD MSTORE POP JUMP JUMPDEST PUSH1 0x0 PUSH2 0x8AD0 PUSH1 0x1B DUP4 PUSH2 0x7076 JUMP JUMPDEST SWAP2 POP PUSH2 0x8ADB DUP3 PUSH2 0x8A9A JUMP JUMPDEST PUSH1 0x20 DUP3 ADD SWAP1 POP SWAP2 SWAP1 POP JUMP JUMPDEST PUSH1 0x0 PUSH1 0x20 DUP3 ADD SWAP1 POP DUP2 DUP2 SUB PUSH1 0x0 DUP4 ADD MSTORE PUSH2 0x8AFF DUP2 PUSH2 0x8AC3 JUMP JUMPDEST SWAP1 POP SWAP2 SWAP1 POP JUMP JUMPDEST PUSH32 0x5468697320636572746966696361746520616C72656164792065786973747300 PUSH1 0x0 DUP3 ADD MSTORE POP JUMP JUMPDEST PUSH1 0x0 PUSH2 0x8B3C PUSH1 0x1F DUP4 PUSH2 0x7076 JUMP JUMPDEST SWAP2 POP PUSH2 0x8B47 DUP3 PUSH2 0x8B06 JUMP JUMPDEST PUSH1 0x20 DUP3 ADD SWAP1 POP SWAP2 SWAP1 POP JUMP JUMPDEST PUSH1 0x0 PUSH1 0x20 DUP3 ADD SWAP1 POP DUP2 DUP2 SUB PUSH1 0x0 DUP4 ADD MSTORE PUSH2 0x8B6B DUP2 PUSH2 0x8B2F JUMP JUMPDEST SWAP1 POP SWAP2 SWAP1 POP JUMP JUMPDEST PUSH32 0x4345525449465900000000000000000000000000000000000000000000000000 PUSH1 0x0 DUP3 ADD MSTORE POP JUMP JUMPDEST PUSH1 0x0 PUSH2 0x8BA8 PUSH1 0x7 DUP4 PUSH2 0x7ED3 JUMP JUMPDEST SWAP2 POP PUSH2 0x8BB3 DUP3 PUSH2 0x8B72 JUMP JUMPDEST PUSH1 0x7 DUP3 ADD SWAP1 POP SWAP2 SWAP1 POP JUMP JUMPDEST PUSH1 0x0 PUSH2 0x8BCA DUP3 DUP8 PUSH2 0x7EBC JUMP JUMPDEST PUSH1 0x20 DUP3 ADD SWAP2 POP PUSH2 0x8BDA DUP3 DUP7 PUSH2 0x8712 JUMP JUMPDEST PUSH1 0x1 DUP3 ADD SWAP2 POP PUSH2 0x8BEA DUP3 DUP6 PUSH2 0x8729 JUMP JUMPDEST PUSH1 0x1 DUP3 ADD SWAP2 POP PUSH2 0x8BFA DUP3 DUP5 PUSH2 0x8740 JUMP JUMPDEST PUSH1 0x1 DUP3 ADD SWAP2 POP PUSH2 0x8C09 DUP3 PUSH2 0x8B9B JUMP JUMPDEST SWAP2 POP DUP2 SWAP1 POP SWAP6 SWAP5 POP POP POP POP POP JUMP JUMPDEST PUSH32 0x4365727469667920000000000000000000000000000000000000000000000000 DUP2 MSTORE POP JUMP JUMPDEST PUSH1 0x0 PUSH2 0x8C48 DUP3 PUSH2 0x8C17 JUMP JUMPDEST PUSH1 0x8 DUP3 ADD SWAP2 POP PUSH2 0x8C58 DUP3 DUP8 PUSH2 0x7F76 JUMP JUMPDEST SWAP2 POP PUSH2 0x8C63 DUP3 PUSH2 0x850F JUMP JUMPDEST PUSH1 0x1 DUP3 ADD SWAP2 POP PUSH2 0x8C73 DUP3 DUP7 PUSH2 0x7F76 JUMP JUMPDEST SWAP2 POP PUSH2 0x8C7E DUP3 PUSH2 0x850F JUMP JUMPDEST PUSH1 0x1 DUP3 ADD SWAP2 POP PUSH2 0x8C8E DUP3 DUP6 PUSH2 0x7F76 JUMP JUMPDEST SWAP2 POP PUSH2 0x8C99 DUP3 PUSH2 0x850F JUMP JUMPDEST PUSH1 0x1 DUP3 ADD SWAP2 POP PUSH2 0x8CA9 DUP3 DUP5 PUSH2 0x7F76 JUMP JUMPDEST SWAP2 POP DUP2 SWAP1 POP SWAP6 SWAP5 POP POP POP POP POP JUMP JUMPDEST PUSH32 0x4E487B7100000000000000000000000000000000000000000000000000000000 PUSH1 0x0 MSTORE PUSH1 0x12 PUSH1 0x4 MSTORE PUSH1 0x24 PUSH1 0x0 REVERT JUMPDEST PUSH1 0x0 PUSH2 0x8CF1 DUP3 PUSH2 0x6F8D JUMP JUMPDEST SWAP2 POP PUSH2 0x8CFC DUP4 PUSH2 0x6F8D JUMP JUMPDEST SWAP3 POP DUP3 PUSH2 0x8D0C JUMPI PUSH2 0x8D0B PUSH2 0x8CB7 JUMP JUMPDEST JUMPDEST DUP3 DUP3 MOD SWAP1 POP SWAP3 SWAP2 POP POP JUMP JUMPDEST PUSH1 0x0 PUSH2 0x8D22 DUP3 PUSH2 0x6F8D JUMP JUMPDEST SWAP2 POP PUSH2 0x8D2D DUP4 PUSH2 0x6F8D JUMP JUMPDEST SWAP3 POP DUP3 PUSH2 0x8D3D JUMPI PUSH2 0x8D3C PUSH2 0x8CB7 JUMP JUMPDEST JUMPDEST DUP3 DUP3 DIV SWAP1 POP SWAP3 SWAP2 POP POP JUMP JUMPDEST PUSH32 0x4D696E2000000000000000000000000000000000000000000000000000000000 DUP2 MSTORE POP JUMP JUMPDEST PUSH1 0x0 PUSH2 0x8D79 DUP3 PUSH2 0x8D48 JUMP JUMPDEST PUSH1 0x4 DUP3 ADD SWAP2 POP PUSH2 0x8D89 DUP3 DUP5 PUSH2 0x7F76 JUMP JUMPDEST SWAP2 POP PUSH2 0x8D94 DUP3 PUSH2 0x82F6 JUMP JUMPDEST PUSH1 0x8 DUP3 ADD SWAP2 POP DUP2 SWAP1 POP SWAP3 SWAP2 POP POP JUMP JUMPDEST PUSH32 0x546869732061646472657373206973206E6F7420612000000000000000000000 DUP2 MSTORE POP JUMP JUMPDEST PUSH1 0x0 PUSH2 0x8DD4 DUP3 PUSH2 0x8DA3 JUMP JUMPDEST PUSH1 0x16 DUP3 ADD SWAP2 POP PUSH2 0x8DE4 DUP3 DUP5 PUSH2 0x7F76 JUMP JUMPDEST SWAP2 POP DUP2 SWAP1 POP SWAP3 SWAP2 POP POP JUMP JUMPDEST PUSH32 0x5245564F4B450000000000000000000000000000000000000000000000000000 PUSH1 0x0 DUP3 ADD MSTORE POP JUMP JUMPDEST PUSH1 0x0 PUSH2 0x8E25 PUSH1 0x6 DUP4 PUSH2 0x7ED3 JUMP JUMPDEST SWAP2 POP PUSH2 0x8E30 DUP3 PUSH2 0x8DEF JUMP JUMPDEST PUSH1 0x6 DUP3 ADD SWAP1 POP SWAP2 SWAP1 POP JUMP JUMPDEST PUSH1 0x0 PUSH2 0x8E47 DUP3 DUP6 PUSH2 0x844F JUMP JUMPDEST PUSH1 0x14 DUP3 ADD SWAP2 POP PUSH2 0x8E56 DUP3 PUSH2 0x8E18 JUMP JUMPDEST SWAP2 POP PUSH2 0x8E62 DUP3 DUP5 PUSH2 0x829E JUMP JUMPDEST PUSH1 0x20 DUP3 ADD SWAP2 POP DUP2 SWAP1 POP SWAP4 SWAP3 POP POP POP JUMP JUMPDEST PUSH32 0x5265766F6B652000000000000000000000000000000000000000000000000000 DUP2 MSTORE POP JUMP JUMPDEST PUSH1 0x0 PUSH2 0x8EA3 DUP3 PUSH2 0x8E72 JUMP JUMPDEST PUSH1 0x7 DUP3 ADD SWAP2 POP PUSH2 0x8EB3 DUP3 DUP6 PUSH2 0x7F76 JUMP JUMPDEST SWAP2 POP PUSH2 0x8EBE DUP3 PUSH2 0x850F JUMP JUMPDEST PUSH1 0x1 DUP3 ADD SWAP2 POP PUSH2 0x8ECE DUP3 DUP5 PUSH2 0x7F76 JUMP JUMPDEST SWAP2 POP DUP2 SWAP1 POP SWAP4 SWAP3 POP POP POP JUMP JUMPDEST PUSH1 0x0 PUSH2 0x8EE5 DUP3 PUSH2 0x7FCD JUMP JUMPDEST SWAP2 POP PUSH2 0x8EF0 DUP4 PUSH2 0x7FCD JUMP JUMPDEST SWAP3 POP DUP3 DUP3 SUB SWAP1 POP PUSH4 0xFFFFFFFF DUP2 GT ISZERO PUSH2 0x8F0C JUMPI PUSH2 0x8F0B PUSH2 0x7FDD JUMP JUMPDEST JUMPDEST SWAP3 SWAP2 POP POP JUMP JUMPDEST PUSH1 0x0 PUSH2 0x8F1D DUP3 PUSH2 0x714E JUMP JUMPDEST SWAP2 POP PUSH2 0x8F28 DUP4 PUSH2 0x714E JUMP JUMPDEST SWAP3 POP DUP3 DUP3 SUB SWAP1 POP PUSH1 0xFF DUP2 GT ISZERO PUSH2 0x8F41 JUMPI PUSH2 0x8F40 PUSH2 0x7FDD JUMP JUMPDEST JUMPDEST SWAP3 SWAP2 POP POP JUMP JUMPDEST PUSH1 0x0 DUP2 SWAP1 POP DUP2 PUSH1 0x0 MSTORE PUSH1 0x20 PUSH1 0x0 KECCAK256 SWAP1 POP SWAP2 SWAP1 POP JUMP JUMPDEST PUSH1 0x0 PUSH1 0x20 PUSH1 0x1F DUP4 ADD DIV SWAP1 POP SWAP2 SWAP1 POP JUMP JUMPDEST PUSH1 0x0 DUP3 DUP3 SHL SWAP1 POP SWAP3 SWAP2 POP POP JUMP JUMPDEST PUSH1 0x0 PUSH1 0x8 DUP4 MUL PUSH2 0x8FA9 PUSH32 0xFFFFFFFFFFFFFFFFFFFFFFFFFFFFFFFFFFFFFFFFFFFFFFFFFFFFFFFFFFFFFFFF DUP3 PUSH2 0x8F6C JUMP JUMPDEST PUSH2 0x8FB3 DUP7 DUP4 PUSH2 0x8F6C JUMP JUMPDEST SWAP6 POP DUP1 NOT DUP5 AND SWAP4 POP DUP1 DUP7 AND DUP5 OR SWAP3 POP POP POP SWAP4 SWAP3 POP POP POP JUMP JUMPDEST PUSH1 0x0 DUP2 SWAP1 POP SWAP2 SWAP1 POP JUMP JUMPDEST PUSH1 0x0 PUSH2 0x8FF0 PUSH2 0x8FEB PUSH2 0x8FE6 DUP5 PUSH2 0x6F8D JUMP JUMPDEST PUSH2 0x8FCB JUMP JUMPDEST PUSH2 0x6F8D JUMP JUMPDEST SWAP1 POP SWAP2 SWAP1 POP JUMP JUMPDEST PUSH1 0x0 DUP2 SWAP1 POP SWAP2 SWAP1 POP JUMP JUMPDEST PUSH2 0x900A DUP4 PUSH2 0x8FD5 JUMP JUMPDEST PUSH2 0x901E PUSH2 0x9016 DUP3 PUSH2 0x8FF7 JUMP JUMPDEST DUP5 DUP5 SLOAD PUSH2 0x8F79 JUMP JUMPDEST DUP3 SSTORE POP POP POP POP JUMP JUMPDEST PUSH1 0x0 SWAP1 JUMP JUMPDEST PUSH2 0x9033 PUSH2 0x9026 JUMP JUMPDEST PUSH2 0x903E DUP2 DUP5 DUP5 PUSH2 0x9001 JUMP JUMPDEST POP POP POP JUMP JUMPDEST JUMPDEST DUP2 DUP2 LT ISZERO PUSH2 0x9062 JUMPI PUSH2 0x9057 PUSH1 0x0 DUP3 PUSH2 0x902B JUMP JUMPDEST PUSH1 0x1 DUP2 ADD SWAP1 POP PUSH2 0x9044 JUMP JUMPDEST POP POP JUMP JUMPDEST PUSH1 0x1F DUP3 GT ISZERO PUSH2 0x90A7 JUMPI PUSH2 0x9078 DUP2 PUSH2 0x8F47 JUMP JUMPDEST PUSH2 0x9081 DUP5 PUSH2 0x8F5C JUMP JUMPDEST DUP2 ADD PUSH1 0x20 DUP6 LT ISZERO PUSH2 0x9090 JUMPI DUP2 SWAP1 POP JUMPDEST PUSH2 0x90A4 PUSH2 0x909C DUP6 PUSH2 0x8F5C JUMP JUMPDEST DUP4 ADD DUP3 PUSH2 0x9043 JUMP JUMPDEST POP POP JUMPDEST POP POP POP JUMP JUMPDEST PUSH1 0x0 DUP3 DUP3 SHR SWAP1 POP SWAP3 SWAP2 POP POP JUMP JUMPDEST PUSH1 0x0 PUSH2 0x90CA PUSH1 0x0 NOT DUP5 PUSH1 0x8 MUL PUSH2 0x90AC JUMP JUMPDEST NOT DUP1 DUP4 AND SWAP2 POP POP SWAP3 SWAP2 POP POP JUMP JUMPDEST PUSH1 0x0 PUSH2 0x90E3 DUP4 DUP4 PUSH2 0x90B9 JUMP JUMPDEST SWAP2 POP DUP3 PUSH1 0x2 MUL DUP3 OR SWAP1 POP SWAP3 SWAP2 POP POP JUMP JUMPDEST PUSH2 0x90FC DUP3 PUSH2 0x706B JUMP JUMPDEST PUSH8 0xFFFFFFFFFFFFFFFF DUP2 GT ISZERO PUSH2 0x9115 JUMPI PUSH2 0x9114 PUSH2 0x7B14 JUMP JUMPDEST JUMPDEST PUSH2 0x911F DUP3 SLOAD PUSH2 0x8078 JUMP JUMPDEST PUSH2 0x912A DUP3 DUP3 DUP6 PUSH2 0x9066 JUMP JUMPDEST PUSH1 0x0 PUSH1 0x20 SWAP1 POP PUSH1 0x1F DUP4 GT PUSH1 0x1 DUP2 EQ PUSH2 0x915D JUMPI PUSH1 0x0 DUP5 ISZERO PUSH2 0x914B JUMPI DUP3 DUP8 ADD MLOAD SWAP1 POP JUMPDEST PUSH2 0x9155 DUP6 DUP3 PUSH2 0x90D7 JUMP JUMPDEST DUP7 SSTORE POP PUSH2 0x91BD JUMP JUMPDEST PUSH1 0x1F NOT DUP5 AND PUSH2 0x916B DUP7 PUSH2 0x8F47 JUMP JUMPDEST PUSH1 0x0 JUMPDEST DUP3 DUP2 LT ISZERO PUSH2 0x9193 JUMPI DUP5 DUP10 ADD MLOAD DUP3 SSTORE PUSH1 0x1 DUP3 ADD SWAP2 POP PUSH1 0x20 DUP6 ADD SWAP5 POP PUSH1 0x20 DUP2 ADD SWAP1 POP PUSH2 0x916E JUMP JUMPDEST DUP7 DUP4 LT ISZERO PUSH2 0x91B0 JUMPI DUP5 DUP10 ADD MLOAD PUSH2 0x91AC PUSH1 0x1F DUP10 AND DUP3 PUSH2 0x90B9 JUMP JUMPDEST DUP4 SSTORE POP JUMPDEST PUSH1 0x1 PUSH1 0x2 DUP9 MUL ADD DUP9 SSTORE POP POP POP JUMPDEST POP POP POP POP POP POP JUMP JUMPDEST PUSH32 0x596F7520616C7265616479207369676E65642074686973206D756C7469736967 PUSH1 0x0 DUP3 ADD MSTORE POP JUMP JUMPDEST PUSH1 0x0 PUSH2 0x91FB PUSH1 0x20 DUP4 PUSH2 0x7076 JUMP JUMPDEST SWAP2 POP PUSH2 0x9206 DUP3 PUSH2 0x91C5 JUMP JUMPDEST PUSH1 0x20 DUP3 ADD SWAP1 POP SWAP2 SWAP1 POP JUMP JUMPDEST PUSH1 0x0 PUSH1 0x20 DUP3 ADD SWAP1 POP DUP2 DUP2 SUB PUSH1 0x0 DUP4 ADD MSTORE PUSH2 0x922A DUP2 PUSH2 0x91EE JUMP JUMPDEST SWAP1 POP SWAP2 SWAP1 POP JUMP JUMPDEST PUSH1 0x0 PUSH2 0x923C DUP3 PUSH2 0x714E JUMP JUMPDEST SWAP2 POP PUSH1 0xFF DUP3 SUB PUSH2 0x924F JUMPI PUSH2 0x924E PUSH2 0x7FDD JUMP JUMPDEST JUMPDEST PUSH1 0x1 DUP3 ADD SWAP1 POP SWAP2 SWAP1 POP JUMP JUMPDEST PUSH1 0x0 PUSH2 0x9265 DUP3 PUSH2 0x714E JUMP JUMPDEST SWAP2 POP PUSH2 0x9270 DUP4 PUSH2 0x714E JUMP JUMPDEST SWAP3 POP DUP3 DUP3 ADD SWAP1 POP PUSH1 0xFF DUP2 GT ISZERO PUSH2 0x9289 JUMPI PUSH2 0x9288 PUSH2 0x7FDD JUMP JUMPDEST JUMPDEST SWAP3 SWAP2 POP POP JUMP JUMPDEST PUSH32 0x596F752068617665206E6F7465207369676E65642074686973206D756C746973 PUSH1 0x0 DUP3 ADD MSTORE PUSH32 0x6967207965740000000000000000000000000000000000000000000000000000 PUSH1 0x20 DUP3 ADD MSTORE POP JUMP JUMPDEST PUSH1 0x0 PUSH2 0x92EB PUSH1 0x26 DUP4 PUSH2 0x7076 JUMP JUMPDEST SWAP2 POP PUSH2 0x92F6 DUP3 PUSH2 0x928F JUMP JUMPDEST PUSH1 0x40 DUP3 ADD SWAP1 POP SWAP2 SWAP1 POP JUMP JUMPDEST PUSH1 0x0 PUSH1 0x20 DUP3 ADD SWAP1 POP DUP2 DUP2 SUB PUSH1 0x0 DUP4 ADD MSTORE PUSH2 0x931A DUP2 PUSH2 0x92DE JUMP JUMPDEST SWAP1 POP SWAP2 SWAP1 POP JUMP JUMPDEST PUSH32 0x53747564656E7420616C72656164792065786973747300000000000000000000 PUSH1 0x0 DUP3 ADD MSTORE POP JUMP JUMPDEST PUSH1 0x0 PUSH2 0x9357 PUSH1 0x16 DUP4 PUSH2 0x7076 JUMP JUMPDEST SWAP2 POP PUSH2 0x9362 DUP3 PUSH2 0x9321 JUMP JUMPDEST PUSH1 0x20 DUP3 ADD SWAP1 POP SWAP2 SWAP1 POP JUMP JUMPDEST PUSH1 0x0 PUSH1 0x20 DUP3 ADD SWAP1 POP DUP2 DUP2 SUB PUSH1 0x0 DUP4 ADD MSTORE PUSH2 0x9386 DUP2 PUSH2 0x934A JUMP JUMPDEST SWAP1 POP SWAP2 SWAP1 POP JUMP JUMPDEST PUSH32 0x49642063616E2774206265203000000000000000000000000000000000000000 PUSH1 0x0 DUP3 ADD MSTORE POP JUMP JUMPDEST PUSH1 0x0 PUSH2 0x93C3 PUSH1 0xD DUP4 PUSH2 0x7076 JUMP JUMPDEST SWAP2 POP PUSH2 0x93CE DUP3 PUSH2 0x938D JUMP JUMPDEST PUSH1 0x20 DUP3 ADD SWAP1 POP SWAP2 SWAP1 POP JUMP JUMPDEST PUSH1 0x0 PUSH1 0x20 DUP3 ADD SWAP1 POP DUP2 DUP2 SUB PUSH1 0x0 DUP4 ADD MSTORE PUSH2 0x93F2 DUP2 PUSH2 0x93B6 JUMP JUMPDEST SWAP1 POP SWAP2 SWAP1 POP JUMP JUMPDEST PUSH1 0x0 PUSH1 0x80 DUP3 ADD SWAP1 POP PUSH2 0x940E PUSH1 0x0 DUP4 ADD DUP8 PUSH2 0x705C JUMP JUMPDEST PUSH2 0x941B PUSH1 0x20 DUP4 ADD DUP7 PUSH2 0x7579 JUMP JUMPDEST PUSH2 0x9428 PUSH1 0x40 DUP4 ADD DUP6 PUSH2 0x75C1 JUMP JUMPDEST PUSH2 0x9435 PUSH1 0x60 DUP4 ADD DUP5 PUSH2 0x7609 JUMP JUMPDEST SWAP6 SWAP5 POP POP POP POP POP JUMP JUMPDEST PUSH32 0x53747564656E7420646F6573206E6F7420657869737400000000000000000000 PUSH1 0x0 DUP3 ADD MSTORE POP JUMP JUMPDEST PUSH1 0x0 PUSH2 0x9474 PUSH1 0x16 DUP4 PUSH2 0x7076 JUMP JUMPDEST SWAP2 POP PUSH2 0x947F DUP3 PUSH2 0x943E JUMP JUMPDEST PUSH1 0x20 DUP3 ADD SWAP1 POP SWAP2 SWAP1 POP JUMP JUMPDEST PUSH1 0x0 PUSH1 0x20 DUP3 ADD SWAP1 POP DUP2 DUP2 SUB PUSH1 0x0 DUP4 ADD MSTORE PUSH2 0x94A3 DUP2 PUSH2 0x9467 JUMP JUMPDEST SWAP1 POP SWAP2 SWAP1 POP JUMP JUMPDEST PUSH1 0x0 DUP2 SLOAD PUSH2 0x94B7 DUP2 PUSH2 0x8078 JUMP JUMPDEST PUSH2 0x94C1 DUP2 DUP7 PUSH2 0x7ED3 JUMP JUMPDEST SWAP5 POP PUSH1 0x1 DUP3 AND PUSH1 0x0 DUP2 EQ PUSH2 0x94DC JUMPI PUSH1 0x1 DUP2 EQ PUSH2 0x94F1 JUMPI PUSH2 0x9524 JUMP JUMPDEST PUSH1 0xFF NOT DUP4 AND DUP7 MSTORE DUP2 ISZERO ISZERO DUP3 MUL DUP7 ADD SWAP4 POP PUSH2 0x9524 JUMP JUMPDEST PUSH2 0x94FA DUP6 PUSH2 0x8F47 JUMP JUMPDEST PUSH1 0x0 JUMPDEST DUP4 DUP2 LT ISZERO PUSH2 0x951C JUMPI DUP2 SLOAD DUP2 DUP10 ADD MSTORE PUSH1 0x1 DUP3 ADD SWAP2 POP PUSH1 0x20 DUP2 ADD SWAP1 POP PUSH2 0x94FD JUMP JUMPDEST DUP4 DUP9 ADD SWAP6 POP POP POP JUMPDEST POP POP POP SWAP3 SWAP2 POP POP JUMP JUMPDEST PUSH1 0x0 PUSH2 0x9539 DUP3 DUP5 PUSH2 0x94AA JUMP JUMPDEST SWAP2 POP DUP2 SWAP1 POP SWAP3 SWAP2 POP POP JUMP JUMPDEST PUSH1 0x0 PUSH2 0x9550 DUP3 DUP5 PUSH2 0x7F76 JUMP JUMPDEST SWAP2 POP DUP2 SWAP1 POP SWAP3 SWAP2 POP POP JUMP JUMPDEST POP JUMP JUMPDEST PUSH1 0x0 PUSH2 0x956B PUSH1 0x0 DUP4 PUSH2 0x7ED3 JUMP JUMPDEST SWAP2 POP PUSH2 0x9576 DUP3 PUSH2 0x955B JUMP JUMPDEST PUSH1 0x0 DUP3 ADD SWAP1 POP SWAP2 SWAP1 POP JUMP JUMPDEST PUSH1 0x0 PUSH2 0x958C DUP3 PUSH2 0x955E JUMP JUMPDEST SWAP2 POP DUP2 SWAP1 POP SWAP2 SWAP1 POP JUMP JUMPDEST PUSH32 0x416363657373436F6E74726F6C3A206163636F756E7420000000000000000000 PUSH1 0x0 DUP3 ADD MSTORE POP JUMP JUMPDEST PUSH1 0x0 PUSH2 0x95CC PUSH1 0x17 DUP4 PUSH2 0x7ED3 JUMP JUMPDEST SWAP2 POP PUSH2 0x95D7 DUP3 PUSH2 0x9596 JUMP JUMPDEST PUSH1 0x17 DUP3 ADD SWAP1 POP SWAP2 SWAP1 POP JUMP JUMPDEST PUSH32 0x206973206D697373696E6720726F6C6520000000000000000000000000000000 PUSH1 0x0 DUP3 ADD MSTORE POP JUMP JUMPDEST PUSH1 0x0 PUSH2 0x9618 PUSH1 0x11 DUP4 PUSH2 0x7ED3 JUMP JUMPDEST SWAP2 POP PUSH2 0x9623 DUP3 PUSH2 0x95E2 JUMP JUMPDEST PUSH1 0x11 DUP3 ADD SWAP1 POP SWAP2 SWAP1 POP JUMP JUMPDEST PUSH1 0x0 PUSH2 0x9639 DUP3 PUSH2 0x95BF JUMP JUMPDEST SWAP2 POP PUSH2 0x9645 DUP3 DUP6 PUSH2 0x7F76 JUMP JUMPDEST SWAP2 POP PUSH2 0x9650 DUP3 PUSH2 0x960B JUMP JUMPDEST SWAP2 POP PUSH2 0x965C DUP3 DUP5 PUSH2 0x7F76 JUMP JUMPDEST SWAP2 POP DUP2 SWAP1 POP SWAP4 SWAP3 POP POP POP JUMP JUMPDEST PUSH1 0x0 PUSH2 0x9673 DUP3 PUSH2 0x6F8D JUMP JUMPDEST SWAP2 POP PUSH1 0x0 DUP3 SUB PUSH2 0x9686 JUMPI PUSH2 0x9685 PUSH2 0x7FDD JUMP JUMPDEST JUMPDEST PUSH1 0x1 DUP3 SUB SWAP1 POP SWAP2 SWAP1 POP JUMP JUMPDEST PUSH32 0x537472696E67733A20686578206C656E67746820696E73756666696369656E74 PUSH1 0x0 DUP3 ADD MSTORE POP JUMP JUMPDEST PUSH1 0x0 PUSH2 0x96C7 PUSH1 0x20 DUP4 PUSH2 0x7076 JUMP JUMPDEST SWAP2 POP PUSH2 0x96D2 DUP3 PUSH2 0x9691 JUMP JUMPDEST PUSH1 0x20 DUP3 ADD SWAP1 POP SWAP2 SWAP1 POP JUMP JUMPDEST PUSH1 0x0 PUSH1 0x20 DUP3 ADD SWAP1 POP DUP2 DUP2 SUB PUSH1 0x0 DUP4 ADD MSTORE PUSH2 0x96F6 DUP2 PUSH2 0x96BA JUMP JUMPDEST SWAP1 POP SWAP2 SWAP1 POP JUMP INVALID LOG2 PUSH5 0x6970667358 0x22 SLT KECCAK256 0xCA DUP2 0xEF RETURN PUSH19 0x51755464C03ED6FA2000A60612E0184E94AD1B SWAP10 0xD6 RETURN 0xB7 PUSH20 0xB7799964736F6C63430008130033000000000000 "},"methodIdentifiers":{"CERTIFIER()":"b86bc74f","CERTIFIER_ADMIN()":"e05f2fb4","DEFAULT_ADMIN_ROLE()":"a217fddf","MAX_CERTIFIERS()":"5907ebea","MAX_CERTIFIERS_ADMIN()":"9e339909","MIN_CERTIFIERS_ADMIN()":"33b72e49","PERCENT_TO_CERTIFY()":"6bc6421b","PERCENT_TO_DELETE_STUDENT()":"d0fb68c7","PERCENT_TO_EDIT_CERTIFICATE()":"2cd94e4f","PERCENT_TO_GRANT_CERTIFIER()":"4da11a20","PERCENT_TO_GRANT_CERTIFIER_ADMIN()":"0f68794a","PERCENT_TO_REVOKE_CERTIFIER()":"1a9cfe28","PERCENT_TO_REVOKE_CERTIFIER_ADMIN()":"7cd29fb7","addToStr(address)":"12ac167c","ceilUDiv(uint256,uint256)":"bf802091","certificates(bytes32)":"742f0688","certificatesByStudent(uint256,uint256)":"4cce913b","certify(uint256,uint8,uint8,uint8,bool)":"ace81910","createStudent(uint256,string,string,uint256)":"a1cebf52","deleteCertificate(uint256,uint8,uint8,uint8,bool)":"8856a0e9","editStudentById(uint256,string,string,uint256)":"c9dbcfda","getAllMultiSig(address)":"8e82d0e7","getCertificatesByStudent(uint256)":"e5a357f5","getCertificationById(bytes32)":"d911f553","getRoleAdmin(bytes32)":"248a9ca3","getRoleMembersNb(bytes32)":"a3eabd3d","getStudent(uint256)":"642f9163","getStudentsIds()":"461c71b2","grantAnyRole(bytes32,address,bool)":"719129be","grantRole(bytes32,address)":"2f2ff15d","hasRole(bytes32,address)":"91d14854","multiSig(bytes32)":"1a968069","multiSigId(uint256)":"9dd09a73","removeStudentById(uint256,bool)":"05f84d45","renounceRole(bytes32,address)":"36568abe","revokeAnyRole(bytes32,address,bool)":"d3243ad8","revokeRole(bytes32,address)":"d547741f","students(uint256)":"06ead22e","studentsIds(uint256)":"df3a12dd","supportsInterface(bytes4)":"01ffc9a7"}}}}}