{"contracts/Certifications.sol":{"Certifications":{"abi":[{"inputs":[{"internalType":"address","name":"certifier_admin1","type":"address"},{"internalType":"address","name":"certifier_admin2","type":"address"}],"stateMutability":"nonpayable","type":"constructor"},{"anonymous":false,"inputs":[{"indexed":true,"internalType":"bytes32","name":"role","type":"bytes32"},{"indexed":true,"internalType":"bytes32","name":"previousAdminRole","type":"bytes32"},{"indexed":true,"internalType":"bytes32","name":"newAdminRole","type":"bytes32"}],"name":"RoleAdminChanged","type":"event"},{"anonymous":false,"inputs":[{"indexed":true,"internalType":"bytes32","name":"role","type":"bytes32"},{"indexed":true,"internalType":"address","name":"account","type":"address"},{"indexed":true,"internalType":"address","name":"sender","type":"address"}],"name":"RoleGranted","type":"event"},{"anonymous":false,"inputs":[{"indexed":true,"internalType":"bytes32","name":"role","type":"bytes32"},{"indexed":true,"internalType":"address","name":"account","type":"address"},{"indexed":true,"internalType":"address","name":"sender","type":"address"}],"name":"RoleRevoked","type":"event"},{"anonymous":false,"inputs":[{"indexed":false,"internalType":"uint256","name":"id","type":"uint256"},{"indexed":false,"internalType":"string","name":"firstname","type":"string"},{"indexed":false,"internalType":"string","name":"lastname","type":"string"},{"indexed":false,"internalType":"uint256","name":"birthdate","type":"uint256"}],"name":"StudentAdded","type":"event"},{"anonymous":false,"inputs":[{"indexed":false,"internalType":"uint256","name":"id","type":"uint256"}],"name":"StudentDeleted","type":"event"},{"anonymous":false,"inputs":[{"indexed":false,"internalType":"uint256","name":"id","type":"uint256"},{"indexed":false,"internalType":"string","name":"firstname","type":"string"},{"indexed":false,"internalType":"string","name":"lastname","type":"string"},{"indexed":false,"internalType":"uint256","name":"birthdate","type":"uint256"}],"name":"StudentEdited","type":"event"},{"anonymous":false,"inputs":[{"indexed":false,"internalType":"uint256","name":"studentId","type":"uint256"},{"indexed":false,"internalType":"enum Certifications.appreciation","name":"appreciation","type":"uint8"},{"indexed":false,"internalType":"enum Certifications.degree","name":"degree","type":"uint8"},{"indexed":false,"internalType":"enum Certifications.program","name":"program","type":"uint8"}],"name":"certificationEmited","type":"event"},{"anonymous":false,"inputs":[{"indexed":false,"internalType":"bytes32","name":"multiSigName","type":"bytes32"}],"name":"multiSigCleared","type":"event"},{"anonymous":false,"inputs":[{"indexed":false,"internalType":"bytes32","name":"multiSigName","type":"bytes32"}],"name":"multiSigSigned","type":"event"},{"inputs":[],"name":"CERTIFIER","outputs":[{"internalType":"bytes32","name":"","type":"bytes32"}],"stateMutability":"view","type":"function"},{"inputs":[],"name":"CERTIFIER_ADMIN","outputs":[{"internalType":"bytes32","name":"","type":"bytes32"}],"stateMutability":"view","type":"function"},{"inputs":[],"name":"DEFAULT_ADMIN_ROLE","outputs":[{"internalType":"bytes32","name":"","type":"bytes32"}],"stateMutability":"view","type":"function"},{"inputs":[],"name":"MAX_CERTIFIERS","outputs":[{"internalType":"uint8","name":"","type":"uint8"}],"stateMutability":"view","type":"function"},{"inputs":[],"name":"MAX_CERTIFIERS_ADMIN","outputs":[{"internalType":"uint8","name":"","type":"uint8"}],"stateMutability":"view","type":"function"},{"inputs":[],"name":"MIN_CERTIFIERS_ADMIN","outputs":[{"internalType":"uint8","name":"","type":"uint8"}],"stateMutability":"view","type":"function"},{"inputs":[],"name":"PERCENT_TO_CERTIFY","outputs":[{"internalType":"uint8","name":"","type":"uint8"}],"stateMutability":"view","type":"function"},{"inputs":[],"name":"PERCENT_TO_DELETE_STUDENT","outputs":[{"internalType":"uint8","name":"","type":"uint8"}],"stateMutability":"view","type":"function"},{"inputs":[],"name":"PERCENT_TO_EDIT_CERTIFICATE","outputs":[{"internalType":"uint8","name":"","type":"uint8"}],"stateMutability":"view","type":"function"},{"inputs":[],"name":"PERCENT_TO_GRANT_CERTIFIER","outputs":[{"internalType":"uint8","name":"","type":"uint8"}],"stateMutability":"view","type":"function"},{"inputs":[],"name":"PERCENT_TO_GRANT_CERTIFIER_ADMIN","outputs":[{"internalType":"uint8","name":"","type":"uint8"}],"stateMutability":"view","type":"function"},{"inputs":[],"name":"PERCENT_TO_REVOKE_CERTIFIER","outputs":[{"internalType":"uint8","name":"","type":"uint8"}],"stateMutability":"view","type":"function"},{"inputs":[],"name":"PERCENT_TO_REVOKE_CERTIFIER_ADMIN","outputs":[{"internalType":"uint8","name":"","type":"uint8"}],"stateMutability":"view","type":"function"},{"inputs":[{"internalType":"uint256","name":"a","type":"uint256"},{"internalType":"uint256","name":"b","type":"uint256"}],"name":"ceilUDiv","outputs":[{"internalType":"uint256","name":"","type":"uint256"}],"stateMutability":"pure","type":"function"},{"inputs":[{"internalType":"bytes32","name":"","type":"bytes32"}],"name":"certificates","outputs":[{"internalType":"enum Certifications.appreciation","name":"appreciation","type":"uint8"},{"internalType":"enum Certifications.degree","name":"degree","type":"uint8"},{"internalType":"enum Certifications.program","name":"program","type":"uint8"},{"internalType":"uint256","name":"creation_date","type":"uint256"},{"internalType":"bool","name":"validity","type":"bool"},{"internalType":"uint256","name":"stud_id","type":"uint256"}],"stateMutability":"view","type":"function"},{"inputs":[{"internalType":"uint256","name":"","type":"uint256"},{"internalType":"uint256","name":"","type":"uint256"}],"name":"certificatesByStudent","outputs":[{"internalType":"bytes32","name":"","type":"bytes32"}],"stateMutability":"view","type":"function"},{"inputs":[{"internalType":"uint256","name":"studentId","type":"uint256"},{"internalType":"enum Certifications.appreciation","name":"app","type":"uint8"},{"internalType":"enum Certifications.degree","name":"deg","type":"uint8"},{"internalType":"enum Certifications.program","name":"prog","type":"uint8"},{"internalType":"bool","name":"approve","type":"bool"}],"name":"certify","outputs":[],"stateMutability":"nonpayable","type":"function"},{"inputs":[{"internalType":"uint256","name":"_id","type":"uint256"},{"internalType":"string","name":"_firstname","type":"string"},{"internalType":"string","name":"_lastname","type":"string"},{"internalType":"uint256","name":"_birthdate","type":"uint256"}],"name":"createStudent","outputs":[],"stateMutability":"nonpayable","type":"function"},{"inputs":[{"internalType":"uint256","name":"studentId","type":"uint256"},{"internalType":"enum Certifications.appreciation","name":"app","type":"uint8"},{"internalType":"enum Certifications.degree","name":"deg","type":"uint8"},{"internalType":"enum Certifications.program","name":"prog","type":"uint8"},{"internalType":"bool","name":"approve","type":"bool"}],"name":"deleteCertificate","outputs":[],"stateMutability":"nonpayable","type":"function"},{"inputs":[{"internalType":"uint256","name":"_id","type":"uint256"},{"internalType":"string","name":"_firstname","type":"string"},{"internalType":"string","name":"_lastname","type":"string"},{"internalType":"uint256","name":"_birthdate","type":"uint256"}],"name":"editStudentById","outputs":[],"stateMutability":"nonpayable","type":"function"},{"inputs":[{"internalType":"uint256","name":"_id","type":"uint256"}],"name":"getCertificatesByStudent","outputs":[{"internalType":"bytes32[]","name":"","type":"bytes32[]"}],"stateMutability":"view","type":"function"},{"inputs":[{"internalType":"bytes32","name":"role","type":"bytes32"}],"name":"getRoleAdmin","outputs":[{"internalType":"bytes32","name":"","type":"bytes32"}],"stateMutability":"view","type":"function"},{"inputs":[{"internalType":"uint256","name":"_id","type":"uint256"}],"name":"getStudent","outputs":[{"components":[{"internalType":"uint256","name":"id","type":"uint256"},{"internalType":"string","name":"firstname","type":"string"},{"internalType":"string","name":"lastname","type":"string"},{"internalType":"uint256","name":"birthdate","type":"uint256"}],"internalType":"struct Students.Student","name":"","type":"tuple"}],"stateMutability":"view","type":"function"},{"inputs":[{"internalType":"bytes32","name":"roleHash","type":"bytes32"},{"internalType":"address","name":"target","type":"address"},{"internalType":"bool","name":"approve","type":"bool"}],"name":"grantAnyRole","outputs":[],"stateMutability":"nonpayable","type":"function"},{"inputs":[{"internalType":"bytes32","name":"role","type":"bytes32"},{"internalType":"address","name":"account","type":"address"}],"name":"grantRole","outputs":[],"stateMutability":"nonpayable","type":"function"},{"inputs":[{"internalType":"bytes32","name":"role","type":"bytes32"},{"internalType":"address","name":"account","type":"address"}],"name":"hasRole","outputs":[{"internalType":"bool","name":"","type":"bool"}],"stateMutability":"view","type":"function"},{"inputs":[{"internalType":"bytes32","name":"","type":"bytes32"}],"name":"multiSig","outputs":[{"internalType":"bool","name":"created","type":"bool"},{"internalType":"bytes32","name":"role","type":"bytes32"},{"internalType":"uint8","name":"count","type":"uint8"},{"internalType":"uint8","name":"id","type":"uint8"},{"internalType":"string","name":"info","type":"string"}],"stateMutability":"view","type":"function"},{"inputs":[{"internalType":"uint256","name":"","type":"uint256"}],"name":"multiSigId","outputs":[{"internalType":"bytes32","name":"","type":"bytes32"}],"stateMutability":"view","type":"function"},{"inputs":[{"internalType":"uint256","name":"_id","type":"uint256"},{"internalType":"bool","name":"_approve","type":"bool"}],"name":"removeStudentById","outputs":[],"stateMutability":"nonpayable","type":"function"},{"inputs":[{"internalType":"bytes32","name":"","type":"bytes32"},{"internalType":"address","name":"","type":"address"}],"name":"renounceRole","outputs":[],"stateMutability":"nonpayable","type":"function"},{"inputs":[{"internalType":"bytes32","name":"roleHash","type":"bytes32"},{"internalType":"address","name":"target","type":"address"},{"internalType":"bool","name":"approve","type":"bool"}],"name":"revokeAnyRole","outputs":[],"stateMutability":"nonpayable","type":"function"},{"inputs":[{"internalType":"bytes32","name":"role","type":"bytes32"},{"internalType":"address","name":"account","type":"address"}],"name":"revokeRole","outputs":[],"stateMutability":"nonpayable","type":"function"},{"inputs":[{"internalType":"uint256","name":"","type":"uint256"}],"name":"students","outputs":[{"internalType":"uint256","name":"id","type":"uint256"},{"internalType":"string","name":"firstname","type":"string"},{"internalType":"string","name":"lastname","type":"string"},{"internalType":"uint256","name":"birthdate","type":"uint256"}],"stateMutability":"view","type":"function"},{"inputs":[{"internalType":"uint256","name":"","type":"uint256"}],"name":"studentsIds","outputs":[{"internalType":"uint256","name":"","type":"uint256"}],"stateMutability":"view","type":"function"},{"inputs":[{"internalType":"bytes4","name":"interfaceId","type":"bytes4"}],"name":"supportsInterface","outputs":[{"internalType":"bool","name":"","type":"bool"}],"stateMutability":"view","type":"function"}],"evm":{"bytecode":{"linkReferences":{},"object":"60806040523480156200001157600080fd5b5060405162004302380380620043028339810160408190526200003491620005de565b6001600160a01b0382166200009c5760405162461bcd60e51b8152602060048201526024808201527f4365727469666965722061646d696e3120616464726573732063616e6e6f74206044820152630626520360e41b60648201526084015b60405180910390fd5b6001600160a01b038116620001005760405162461bcd60e51b8152602060048201526024808201527f4365727469666965722061646d696e3220616464726573732063616e6e6f74206044820152630626520360e41b606482015260840162000093565b806001600160a01b0316826001600160a01b031603620001725760405162461bcd60e51b815260206004820152602660248201527f436572746966696572206164647265737365732063616e6e6f74206265207468604482015265652073616d6560d01b606482015260840162000093565b6200018d600080516020620042c28339815191528362000511565b620001a8600080516020620042c28339815191528262000521565b6040805160e0810182526002808252602080830191909152600f828401526050606083018190526080830152600080516020620042c283398151915260a08301529151909160c08301916200021391016e21a2a92a24a324a2a92fa0a226a4a760891b8152600f0190565b6040516020818303038152906040526200022d9062000616565b9052600080516020620042c283398151915260009081526003602090815282517f996892c26f58715b0987b59a23f94e8ef0c02cd4cae9fdbc7a2316b6cd446de080549285015160408601516060870151608088015160ff908116600160681b0260ff60681b19919092166c010000000000000000000000000260ff60601b1963ffffffff94851668010000000000000000021664ffffffffff60401b19958516640100000000026001600160401b03199099169490971693909317969096179290921693909317929092179290921617905560a08201517f996892c26f58715b0987b59a23f94e8ef0c02cd4cae9fdbc7a2316b6cd446de15560c0909101517f996892c26f58715b0987b59a23f94e8ef0c02cd4cae9fdbc7a2316b6cd446de2556200036b90600080516020620042e28339815191529062000511565b6040805160e0810182526000808252602080830191909152600f828401526050606083018190526080830152600080516020620042c283398151915260a08301529151909160c0830191620003d091016821a2a92a24a324a2a960b91b815260090190565b604051602081830303815290604052620003ea9062000616565b9052600080516020620042e28339815191526000526003602090815281517f04ed60087a82bd97d8afa881e356d9b31a57e1f4fa6c3493c1181428b0c3356280549284015160408501516060860151608087015160ff908116600160681b0260ff60681b19919092166c010000000000000000000000000260ff60601b1963ffffffff94851668010000000000000000021664ffffffffff60401b19958516640100000000026001600160401b03199099169490971693909317969096179290921693909317929092179290921617905560a08101517f04ed60087a82bd97d8afa881e356d9b31a57e1f4fa6c3493c1181428b0c335635560c001517f04ed60087a82bd97d8afa881e356d9b31a57e1f4fa6c3493c1181428b0c3356455506200063e9050565b6200051d828262000521565b5050565b6000828152602081815260408083206001600160a01b038516845290915290205460ff166200051d576000828152602081815260408083206001600160a01b03851684529091529020805460ff191660011790556200057d3390565b6001600160a01b0316816001600160a01b0316837f2f8788117e7eff1d82e926ec794901d17c78024a50270940304540a733656f0d60405160405180910390a45050565b80516001600160a01b0381168114620005d957600080fd5b919050565b60008060408385031215620005f257600080fd5b620005fd83620005c1565b91506200060d60208401620005c1565b90509250929050565b8051602080830151919081101562000638576000198160200360031b1b821691505b50919050565b613c74806200064e6000396000f3fe608060405234801561001057600080fd5b50600436106102115760003560e01c8063742f068811610125578063b86bc74f116100ad578063d3243ad81161007c578063d3243ad814610476578063d547741f14610489578063df3a12dd1461049c578063e05f2fb4146104af578063e5a357f5146104d657600080fd5b8063b86bc74f1461043b578063bf80209114610450578063c9dbcfda14610463578063d0fb68c71461027657600080fd5b80639dd09a73116100f45780639dd09a73146103ed5780639e33990914610326578063a1cebf521461040d578063a217fddf14610420578063ace819101461042857600080fd5b8063742f0688146103695780637cd29fb7146102765780638856a0e9146103c757806391d14854146103da57600080fd5b80632f2ff15d116101a85780634da11a20116101775780634da11a20146102765780635907ebea14610326578063642f91631461032e5780636bc6421b1461034e578063719129be1461035657600080fd5b80632f2ff15d146102e557806333b72e49146102f857806336568abe146103005780634cce913b1461031357600080fd5b80631a968069116101e45780631a968069146102905780631a9cfe2814610276578063248a9ca3146102b45780632cd94e4f1461027657600080fd5b806301ffc9a71461021657806305f84d451461023e57806306ead22e146102535780630f68794a14610276575b600080fd5b610229610224366004612e60565b6104f6565b60405190151581526020015b60405180910390f35b61025161024c366004612e9f565b61052d565b005b610266610261366004612ecb565b6107bf565b6040516102359493929190612f34565b61027e605081565b60405160ff9091168152602001610235565b6102a361029e366004612ecb565b6108f7565b604051610235959493929190612f71565b6102d76102c2366004612ecb565b60009081526020819052604090206001015490565b604051908152602001610235565b6102516102f3366004612fc6565b6109b9565b61027e600281565b61025161030e366004612fc6565b6109de565b6102d7610321366004612fe9565b610a45565b61027e600f81565b61034161033c366004612ecb565b610a76565b604051610235919061300b565b61027e603381565b610251610364366004613065565b610c4c565b6103b5610377366004612ecb565b600760205260009081526040902080546001820154600283015460039093015460ff8084169461010085048216946201000090048216939291169086565b604051610235969594939291906130eb565b6102516103d5366004613130565b610fdf565b6102296103e8366004612fc6565b6114c7565b6102d76103fb366004612ecb565b60056020526000908152604090205481565b61025161041b366004613243565b6114f0565b6102d7600081565b610251610436366004613130565b6116a4565b6102d7600080516020613c1f83398151915281565b6102d761045e366004612fe9565b611b37565b610251610471366004613243565b611b70565b610251610484366004613065565b611bfd565b610251610497366004612fc6565b6120f2565b6102d76104aa366004612ecb565b612117565b6102d77f4bbeb6fd3e5222e55f2f8b0c35bc228e0a06a25d0da772fdb02c3b92fa004f8881565b6104e96104e4366004612ecb565b612138565b60405161023591906132b8565b60006001600160e01b03198216637965db0b60e01b148061052757506301ffc9a760e01b6001600160e01b03198316145b92915050565b610545600080516020613c1f833981519152336114c7565b61056a5760405162461bcd60e51b8152600401610561906132fc565b60405180910390fd5b6000821161058a5760405162461bcd60e51b815260040161056190613333565b60008281526001602052604081205490036105b75760405162461bcd60e51b81526004016105619061336a565b6000826040516020016105e39181526d1111531155114814d5155111539560921b6020820152602e0190565b60405160208183030381529060405280519060200120905061065281600080516020613c1f8339815191528560405160200161062191815260200190565b60408051601f198184030181529082905261063e916020016133a1565b6040516020818303038152906040526121c7565b81801561067c5750600081815260046020908152604080832033845260030190915290205460ff16155b156106bf5760008181526004602052604090206106999033612248565b604051818152600080516020613bdf8339815191529060200160405180910390a1610703565b8115156000036107035760008181526004602052604090206106e19033612375565b604051818152600080516020613bdf8339815191529060200160405180910390a15b600080516020613c1f83398151915260005260036020527f04ed60087a82bd97d8afa881e356d9b31a57e1f4fa6c3493c1181428b0c335625461075f906107529060509063ffffffff166133ee565b63ffffffff166064611b37565b60008281526004602052604090206002015460ff16106107ba5760008181526004602052604090206107909061242d565b604051818152600080516020613bff8339815191529060200160405180910390a16107ba8361249e565b505050565b6001602081905260009182526040909120805491810180546107e090613416565b80601f016020809104026020016040519081016040528092919081815260200182805461080c90613416565b80156108595780601f1061082e57610100808354040283529160200191610859565b820191906000526020600020905b81548152906001019060200180831161083c57829003601f168201915b50505050509080600201805461086e90613416565b80601f016020809104026020016040519081016040528092919081815260200182805461089a90613416565b80156108e75780601f106108bc576101008083540402835291602001916108e7565b820191906000526020600020905b8154815290600101906020018083116108ca57829003601f168201915b5050505050908060030154905084565b600460205260009081526040902080546001820154600283015460058401805460ff948516959394838116946101009094041692919061093690613416565b80601f016020809104026020016040519081016040528092919081815260200182805461096290613416565b80156109af5780601f10610984576101008083540402835291602001916109af565b820191906000526020600020905b81548152906001019060200180831161099257829003601f168201915b5050505050905085565b6000828152602081905260409020600101546109d481612577565b6107ba8383612584565b60405162461bcd60e51b815260206004820152603660248201527f596f752063616e27742072656e6f756e636520746f20796f757220726f6c652e60448201527520506c6561736520636f6e746163742061646d696e7360501b6064820152608401610561565b60086020528160005260406000208181548110610a6157600080fd5b90600052602060002001600091509150505481565b610aa16040518060800160405280600081526020016060815260200160608152602001600081525090565b6000828152600160205260408120549003610af65760405162461bcd60e51b815260206004820152601560248201527414dd1d59195b9d08191bd95cdb89dd08195e1a5cdd605a1b6044820152606401610561565b60008281526001602081815260409283902083516080810190945280548452918201805491840191610b2790613416565b80601f0160208091040260200160405190810160405280929190818152602001828054610b5390613416565b8015610ba05780601f10610b7557610100808354040283529160200191610ba0565b820191906000526020600020905b815481529060010190602001808311610b8357829003601f168201915b50505050508152602001600282018054610bb990613416565b80601f0160208091040260200160405190810160405280929190818152602001828054610be590613416565b8015610c325780601f10610c0757610100808354040283529160200191610c32565b820191906000526020600020905b815481529060010190602001808311610c1557829003601f168201915b505050505081526020016003820154815250509050919050565b60008381526003602090815260409182902080546002820154845193840152909263ffffffff808316680100000000000000009093041691909111910160408051601f1981840301815290829052610ca691602001613450565b60405160208183030381529060405290610cd35760405162461bcd60e51b8152600401610561919061348e565b50610ce28160010154336114c7565b8160020154604051602001610cf991815260200190565b60408051601f1981840301815290829052610d16916020016134a1565b60405160208183030381529060405290610d435760405162461bcd60e51b8152600401610561919061348e565b50610d4e84846114c7565b60028201546040805160208101929092529115910160408051601f1981840301815290829052610d80916020016134e9565b60405160208183030381529060405290610dad5760405162461bcd60e51b8152600401610561919061348e565b506040516001600160601b0319606085901b1660208201526411d490539560da1b603482015260398101859052600090605901604051602081830303815290604052805190602001209050610e5c8183600101548460020154604051602001610e1891815260200190565b60408051808303601f1901815282825260608a901b6001600160601b0319166020840152815160148185030181526034840190925261063e9290919060540161352e565b828015610e865750600081815260046020908152604080832033845260030190915290205460ff16155b15610ec9576000818152600460205260409020610ea39033612248565b604051818152600080516020613bdf8339815191529060200160405180910390a1610f0d565b821515600003610f0d576000818152600460205260409020610eeb9033612375565b604051818152600080516020613bdf8339815191529060200160405180910390a15b81546001830154600090815260036020526040902054610f429161075291600160601b90910460ff169063ffffffff166133ee565b60008281526004602052604090206002015460ff1610610fd8576000818152600460205260409020610f739061242d565b604051818152600080516020613bff8339815191529060200160405180910390a1610f9e8585612584565b81546001908390600090610fb990849063ffffffff1661357c565b92506101000a81548163ffffffff021916908363ffffffff1602179055505b5050505050565b610ff7600080516020613c1f833981519152336114c7565b6110135760405162461bcd60e51b8152600401610561906132fc565b60008581526001602052604081205490036110405760405162461bcd60e51b81526004016105619061336a565b6000846003811115611054576110546130a1565b1015801561107457506003846003811115611071576110716130a1565b11155b6110bc5760405162461bcd60e51b8152602060048201526019602482015278105c1c1c9958da585d1a5bdb881a5cc81b9bdd081d985b1a59603a1b6044820152606401610561565b60008360028111156110d0576110d06130a1565b101580156110f0575060028360028111156110ed576110ed6130a1565b11155b6111325760405162461bcd60e51b8152602060048201526013602482015272111959dc9959481a5cc81b9bdd081d985b1a59606a1b6044820152606401610561565b600082600f811115611146576111466130a1565b101580156111665750600f82600f811115611163576111636130a1565b11155b6111a95760405162461bcd60e51b8152602060048201526014602482015273141c9bd9dc985b481a5cc81b9bdd081d985b1a5960621b6044820152606401610561565b60076000868686866040516020016111c494939291906135d7565b60408051601f198184030181529181528151602092830120835290820192909252016000206002015460ff1615156001146112415760405162461bcd60e51b815260206004820152601e60248201527f5468697320636572746966696361746520646f65736e277420657869737400006044820152606401610561565b60008585858560405160200161125a949392919061360c565b60405160208183030381529060405280519060200120905061131881600080516020613c1f8339815191528860405160200161129891815260200190565b604051602081830303815290604052886040516020016112b89190613650565b604051602081830303815290604052886040516020016112d89190613662565b604051602081830303815290604052886040516020016112f8919061366c565b60408051601f198184030181529082905261063e94939291602001613676565b8180156113425750600081815260046020908152604080832033845260030190915290205460ff16155b1561138557600081815260046020526040902061135f9033612248565b604051818152600080516020613bdf8339815191529060200160405180910390a16113c9565b8115156000036113c95760008181526004602052604090206113a79033612375565b604051818152600080516020613bdf8339815191529060200160405180910390a15b600080516020613c1f83398151915260005260036020527f04ed60087a82bd97d8afa881e356d9b31a57e1f4fa6c3493c1181428b0c3356254611418906107529060509063ffffffff166133ee565b60008281526004602052604090206002015460ff16106114bf5760008181526004602052604090206114499061242d565b604051818152600080516020613bff8339815191529060200160405180910390a16000600760008888888860405160200161148794939291906135d7565b60408051808303601f19018152918152815160209283012083529082019290925201600020600201805460ff19169115159190911790555b505050505050565b6000918252602082815260408084206001600160a01b0393909316845291905290205460ff1690565b611508600080516020613c1f833981519152336114c7565b6115245760405162461bcd60e51b8152600401610561906132fc565b600084116115445760405162461bcd60e51b815260040161056190613333565b60008351116115955760405162461bcd60e51b815260206004820152601960248201527f46697273746e616d652063616e6e6f7420626520656d707479000000000000006044820152606401610561565b60008251116115e65760405162461bcd60e51b815260206004820152601860248201527f4c6173746e616d652063616e6e6f7420626520656d70747900000000000000006044820152606401610561565b600081116116365760405162461bcd60e51b815260206004820181905260248201527f426972746864617465206d7573742062652067726561746572207468616e20306044820152606401610561565b600084815260016020526040902054156116925760405162461bcd60e51b815260206004820152601b60248201527f546869732073747564656e7420616c72656164792065786973747300000000006044820152606401610561565b61169e84848484612608565b50505050565b6116bc600080516020613c1f833981519152336114c7565b6116d85760405162461bcd60e51b8152600401610561906132fc565b60008581526001602052604081205490036117055760405162461bcd60e51b81526004016105619061336a565b6000846003811115611719576117196130a1565b1015801561173957506003846003811115611736576117366130a1565b11155b6117815760405162461bcd60e51b8152602060048201526019602482015278105c1c1c9958da585d1a5bdb881a5cc81b9bdd081d985b1a59603a1b6044820152606401610561565b6000836002811115611795576117956130a1565b101580156117b5575060028360028111156117b2576117b26130a1565b11155b6117f75760405162461bcd60e51b8152602060048201526013602482015272111959dc9959481a5cc81b9bdd081d985b1a59606a1b6044820152606401610561565b600082600f81111561180b5761180b6130a1565b1015801561182b5750600f82600f811115611828576118286130a1565b11155b61186e5760405162461bcd60e51b8152602060048201526014602482015273141c9bd9dc985b481a5cc81b9bdd081d985b1a5960621b6044820152606401610561565b600760008686868660405160200161188994939291906135d7565b60408051601f198184030181529181528151602092830120835290820192909252016000206002015460ff16156119025760405162461bcd60e51b815260206004820152601f60248201527f5468697320636572746966696361746520616c726561647920657869737473006044820152606401610561565b60008585858560405160200161191b9493929190613701565b6040516020818303038152906040528051906020012090506119d981600080516020613c1f8339815191528860405160200161195991815260200190565b604051602081830303815290604052886040516020016119799190613650565b604051602081830303815290604052886040516020016119999190613662565b604051602081830303815290604052886040516020016119b9919061366c565b60408051601f198184030181529082905261063e94939291602001613746565b818015611a035750600081815260046020908152604080832033845260030190915290205460ff16155b15611a46576000818152600460205260409020611a209033612248565b604051818152600080516020613bdf8339815191529060200160405180910390a1611a8a565b811515600003611a8a576000818152600460205260409020611a689033612375565b604051818152600080516020613bdf8339815191529060200160405180910390a15b600080516020613c1f83398151915260005260036020527f04ed60087a82bd97d8afa881e356d9b31a57e1f4fa6c3493c1181428b0c3356254611ad9906107529060339063ffffffff166133ee565b60008281526004602052604090206002015460ff16106114bf576000818152600460205260409020611b0a9061242d565b604051818152600080516020613bff8339815191529060200160405180910390a16114bf86868686612781565b6000611b4382846137e8565b600003611b5b57611b5482846137fc565b9050610527565b611b6582846137fc565b611b54906001613810565b611b88600080516020613c1f833981519152336114c7565b611ba45760405162461bcd60e51b8152600401610561906132fc565b60008411611bc45760405162461bcd60e51b815260040161056190613333565b6000848152600160205260408120549003611bf15760405162461bcd60e51b81526004016105619061336a565b61169e8484848461294f565b60008381526003602090815260409182902080546002820154845193840152909263ffffffff64010000000083048116921691909111910160408051601f1981840301815290829052611c5291602001613823565b60405160208183030381529060405290611c7f5760405162461bcd60e51b8152600401610561919061348e565b50611c8a84846114c7565b8160020154604051602001611ca191815260200190565b60408051601f1981840301815290829052611cbe91602001613842565b60405160208183030381529060405290611ceb5760405162461bcd60e51b8152600401610561919061348e565b50611cfa8160010154336114c7565b8160020154604051602001611d1191815260200190565b60408051601f1981840301815290829052611d2e916020016134a1565b60405160208183030381529060405290611d5b5760405162461bcd60e51b8152600401610561919061348e565b506040516001600160601b0319606085901b166020820152655245564f4b4560d01b6034820152603a8101859052600090605a01604051602081830303815290604052805190602001209050611e0b8183600101548460020154604051602001611dc791815260200190565b60408051808303601f1901815282825260608a901b6001600160601b0319166020840152815160148185030181526034840190925261063e92909190605401613880565b828015611e355750600081815260046020908152604080832033845260030190915290205460ff16155b15611e78576000818152600460205260409020611e529033612248565b604051818152600080516020613bdf8339815191529060200160405180910390a1611ebc565b821515600003611ebc576000818152600460205260409020611e9a9033612375565b604051818152600080516020613bdf8339815191529060200160405180910390a15b81600101548514158015611f18575081546001830154600090815260036020526040902054611f009161075291600160681b90910460ff169063ffffffff166133ee565b60008281526004602052604090206002015460ff1610155b80611f835750816001015485148015611f8357508154600180840154600090815260036020526040902054611f6b92600160681b900460ff1691611f619163ffffffff166138cf565b61075291906133ee565b60008281526004602052604090206002015460ff1610155b15610fd85760005b600654811015612094576000818152600560209081526040808320548352600482528083206001600160a01b038916845260030190915290205460ff1615156001148015611ff657506000818152600560209081526040808320548352600490915290206001015486145b156120825760008181526005602090815260408083205483526004909152812060020180546001929061202d90849060ff166138ec565b825460ff9182166101009390930a9283029190920219909116179055506000818152600560209081526040808320548352600482528083206001600160a01b03891684526003019091529020805460ff191690555b8061208c81613905565b915050611f8b565b5060008181526004602052604090206120ac9061242d565b604051818152600080516020613bff8339815191529060200160405180910390a16120d78585612b9f565b81546001908390600090610fb990849063ffffffff166138cf565b60008281526020819052604090206001015461210d81612577565b6107ba8383612b9f565b6002818154811061212757600080fd5b600091825260209091200154905081565b600081815260016020526040812054606091036121675760405162461bcd60e51b81526004016105619061336a565b600082815260086020908152604091829020805483518184028101840190945280845290918301828280156121bb57602002820191906000526020600020905b8154815260200190600101908083116121a7575b50505050509050919050565b60008381526004602052604081205460ff16151590036107ba576000838152600460209081526040808320805460ff1916600190811790915560068054855260059093529083208690558154909290612221908490613810565b909155505060008381526004602052604090206001810183905560050161169e8282613964565b6001600160a01b038116600090815260038301602052604090205460ff16156122b35760405162461bcd60e51b815260206004820181905260248201527f596f7520616c7265616479207369676e65642074686973206d756c74697369676044820152606401610561565b6002820180546101009081900460ff9081166000908152600486016020526040902080546001600160a01b0319166001600160a01b0386161790558254919091041690600161230183613a24565b82546101009290920a60ff8181021990931691831602179091556001600160a01b03831660009081526003850160205260408120805460ff191660019081179091556002860180549194509261235991859116613a43565b92506101000a81548160ff021916908360ff1602179055505050565b6001600160a01b038116600090815260038301602052604090205460ff1615156001146123f35760405162461bcd60e51b815260206004820152602660248201527f596f752068617665206e6f7465207369676e65642074686973206d756c7469736044820152651a59c81e595d60d21b6064820152608401610561565b6001600160a01b03811660009081526003830160205260408120805460ff191690556002830180546001929061235990849060ff166138ec565b60028101805460ff1916905560005b600282015460ff6101009091048116908216101561249a5760ff811660009081526004830160209081526040808320546001600160a01b03168352600385019091529020805460ff191690558061249281613a24565b91505061243c565b5050565b6000818152600160208190526040822082815591906124bf90830182612e12565b6124cd600283016000612e12565b6003820160009055505060005b6002548110156125405781600282815481106124f8576124f8613a5c565b90600052602060002001540361252e5760006002828154811061251d5761251d613a5c565b600091825260209091200155612540565b8061253881613905565b9150506124da565b506040518181527f34de6b871245ed0a89b82912e8e5ee6d9c3104b3e5bb1d67a71ad7e68239e41c9060200160405180910390a150565b6125818133612c04565b50565b61258e82826114c7565b61249a576000828152602081815260408083206001600160a01b03851684529091529020805460ff191660011790556125c43390565b6001600160a01b0316816001600160a01b0316837f2f8788117e7eff1d82e926ec794901d17c78024a50270940304540a733656f0d60405160405180910390a45050565b6000848152600160205260409020541561265d5760405162461bcd60e51b815260206004820152601660248201527553747564656e7420616c72656164792065786973747360501b6044820152606401610561565b8360000361269d5760405162461bcd60e51b815260206004820152600d60248201526c049642063616e2774206265203609c1b6044820152606401610561565b60408051608081018252858152602080820186815282840186905260608301859052600088815260019283905293909320825181559251919291908201906126e59082613964565b50604082015160028201906126fa9082613964565b5060609190910151600390910155600280546001810182556000919091527f405787fa12a823e0f2b7631cc41b3ba8828b3321ca811111fa75cd3aa3bb5ace018490556040517fb6767d1c89515962142b00b5577569c92a74381d9441a528911c66e0c3cea1f890612773908690869086908690612f34565b60405180910390a150505050565b6040518060c0016040528084600381111561279e5761279e6130a1565b81526020018360028111156127b5576127b56130a1565b815260200182600f8111156127cc576127cc6130a1565b81526020014281526020016001151581526020018581525060076000868686866040516020016127ff94939291906135d7565b60408051601f1981840301815291815281516020928301208352908201929092520160002081518154829060ff19166001836003811115612842576128426130a1565b021790555060208201518154829061ff00191661010083600281111561286a5761286a6130a1565b021790555060408201518154829062ff000019166201000083600f811115612894576128946130a1565b021790555060608201516001820155608082015160028201805460ff191691151591909117905560a09091015160039091015560008481526008602090815260409182902091516128ed918791879187918791016135d7565b60408051601f19818403018152908290528051602091820120835460018101855560009485529190932001919091557fb55811dd01470a227956304b027c610c7cdf9dd622dcc47791380261d56dc6ed90612773908690869086908690613a72565b60008481526001602052604081205490036129a55760405162461bcd60e51b815260206004820152601660248201527514dd1d59195b9d08191bd95cc81b9bdd08195e1a5cdd60521b6044820152606401610561565b600160008581526020019081526020016000206001016040516020016129cb9190613aa9565b60405160208183030381529060405280519060200120836040516020016129f29190613b1f565b6040516020818303038152906040528051906020012014158015612a4a57506040805160008152602081018083528151902091612a3191869101613b1f565b6040516020818303038152906040528051906020012014155b15612a6d57600084815260016020819052604090912001612a6b8482613964565b505b6000848152600160209081526040918290209151612a8f926002019101613aa9565b6040516020818303038152906040528051906020012082604051602001612ab69190613b1f565b6040516020818303038152906040528051906020012014158015612b0e57506040805160008152602081018083528151902091612af591859101613b1f565b6040516020818303038152906040528051906020012014155b15612b30576000848152600160205260409020600201612b2e8382613964565b505b6000848152600160205260409020600301548114801590612b5057508015155b15612b6a5760008481526001602052604090206003018190555b7f03e10a3f40e9af2a5e61cb5a3de55fd67286470c35b3cf345b04a83cf3f49077848484846040516127739493929190612f34565b612ba982826114c7565b1561249a576000828152602081815260408083206001600160a01b0385168085529252808320805460ff1916905551339285917ff6391f5c32d9c69d2a47ea670b442974b53935d1edc7fd64eb21e047a839171b9190a45050565b612c0e82826114c7565b61249a57612c1b81612c5d565b612c26836020612c6f565b604051602001612c37929190613b3b565b60408051601f198184030181529082905262461bcd60e51b82526105619160040161348e565b60606105276001600160a01b03831660145b60606000612c7e836002613bb0565b612c89906002613810565b67ffffffffffffffff811115612ca157612ca16131a0565b6040519080825280601f01601f191660200182016040528015612ccb576020820181803683370190505b509050600360fc1b81600081518110612ce657612ce6613a5c565b60200101906001600160f81b031916908160001a905350600f60fb1b81600181518110612d1557612d15613a5c565b60200101906001600160f81b031916908160001a9053506000612d39846002613bb0565b612d44906001613810565b90505b6001811115612dbc576f181899199a1a9b1b9c1cb0b131b232b360811b85600f1660108110612d7857612d78613a5c565b1a60f81b828281518110612d8e57612d8e613a5c565b60200101906001600160f81b031916908160001a90535060049490941c93612db581613bc7565b9050612d47565b508315612e0b5760405162461bcd60e51b815260206004820181905260248201527f537472696e67733a20686578206c656e67746820696e73756666696369656e746044820152606401610561565b9392505050565b508054612e1e90613416565b6000825580601f10612e2e575050565b601f01602090049060005260206000209081019061258191905b80821115612e5c5760008155600101612e48565b5090565b600060208284031215612e7257600080fd5b81356001600160e01b031981168114612e0b57600080fd5b80358015158114612e9a57600080fd5b919050565b60008060408385031215612eb257600080fd5b82359150612ec260208401612e8a565b90509250929050565b600060208284031215612edd57600080fd5b5035919050565b60005b83811015612eff578181015183820152602001612ee7565b50506000910152565b60008151808452612f20816020860160208601612ee4565b601f01601f19169290920160200192915050565b848152608060208201526000612f4d6080830186612f08565b8281036040840152612f5f8186612f08565b91505082606083015295945050505050565b851515815284602082015260ff8416604082015260ff8316606082015260a060808201526000612fa460a0830184612f08565b979650505050505050565b80356001600160a01b0381168114612e9a57600080fd5b60008060408385031215612fd957600080fd5b82359150612ec260208401612faf565b60008060408385031215612ffc57600080fd5b50508035926020909101359150565b6020815281516020820152600060208301516080604084015261303160a0840182612f08565b90506040840151601f1984830301606085015261304e8282612f08565b915050606084015160808401528091505092915050565b60008060006060848603121561307a57600080fd5b8335925061308a60208501612faf565b915061309860408501612e8a565b90509250925092565b634e487b7160e01b600052602160045260246000fd5b600481106130c7576130c76130a1565b9052565b600381106130c7576130c76130a1565b601081106130c7576130c76130a1565b60c081016130f982896130b7565b61310660208301886130cb565b61311360408301876130db565b6060820194909452911515608083015260a0909101529392505050565b600080600080600060a0868803121561314857600080fd5b8535945060208601356004811061315e57600080fd5b935060408601356003811061317257600080fd5b925060608601356010811061318657600080fd5b915061319460808701612e8a565b90509295509295909350565b634e487b7160e01b600052604160045260246000fd5b600082601f8301126131c757600080fd5b813567ffffffffffffffff808211156131e2576131e26131a0565b604051601f8301601f19908116603f0116810190828211818310171561320a5761320a6131a0565b8160405283815286602085880101111561322357600080fd5b836020870160208301376000602085830101528094505050505092915050565b6000806000806080858703121561325957600080fd5b84359350602085013567ffffffffffffffff8082111561327857600080fd5b613284888389016131b6565b9450604087013591508082111561329a57600080fd5b506132a7878288016131b6565b949793965093946060013593505050565b6020808252825182820181905260009190848201906040850190845b818110156132f0578351835292840192918401916001016132d4565b50909695505050505050565b60208082526019908201527f43616c6c6572206973206e6f7420612063657274696669657200000000000000604082015260600190565b60208082526019908201527f4964206d7573742062652067726561746572207468616e203000000000000000604082015260600190565b6020808252601a908201527f546869732073747564656e7420646f65736e2774206578697374000000000000604082015260600190565b6e02232b632ba329039ba3ab232b73a1608d1b8152600082516133cb81600f850160208701612ee4565b91909101600f0192915050565b634e487b7160e01b600052601160045260246000fd5b63ffffffff81811683821602808216919082811461340e5761340e6133d8565b505092915050565b600181811c9082168061342a57607f821691505b60208210810361344a57634e487b7160e01b600052602260045260246000fd5b50919050565b63026b0bc160e51b81526000825161346f816004850160208701612ee4565b67081c995858da195960c21b6004939091019283015250600c01919050565b602081526000612e0b6020830184612f08565b6f021b0b63632b91034b9903737ba1030960851b8152600082516134cc816010850160208701612ee4565b651030b236b4b760d11b6010939091019283015250601601919050565b7f54686973206164647265737320697320616c726561647920612000000000000081526000825161352181601a850160208701612ee4565b91909101601a0192915050565b65023b930b73a160d51b81526000835161354f816006850160208801612ee4565b600160fd1b6006918401918201528351613570816007840160208801612ee4565b01600701949350505050565b63ffffffff818116838216019080821115613599576135996133d8565b5092915050565b600481106135b0576135b06130a1565b60f81b9052565b600381106135b0576135b06130a1565b601081106135b0576135b06130a1565b8481526135e760208201856135a0565b6135f460218201846135b7565b61360160228201836135c7565b602301949350505050565b84815261361c60208201856135a0565b61362960218201846135b7565b61363660228201836135c7565b6544454c45544560d01b6023820152602901949350505050565b61365a81836135a0565b600101919050565b61365a81836135b7565b61365a81836135c7565b6602232b632ba32960cd1b815260008551613698816007850160208a01612ee4565b8083019050600160fd1b80600783015286516136bb816008850160208b01612ee4565b6008920191820181905285516136d8816009850160208a01612ee4565b600992019182015283516136f381600a840160208801612ee4565b01600a019695505050505050565b84815261371160208201856135a0565b61371e60218201846135b7565b61372b60228201836135c7565b664345525449465960c81b6023820152602a01949350505050565b67021b2b93a34b33c960c51b815260008551613769816008850160208a01612ee4565b8083019050600160fd1b806008830152865161378c816009850160208b01612ee4565b6009920191820181905285516137a981600a850160208a01612ee4565b600a92019182015283516137c481600b840160208801612ee4565b01600b019695505050505050565b634e487b7160e01b600052601260045260246000fd5b6000826137f7576137f76137d2565b500690565b60008261380b5761380b6137d2565b500490565b80820180821115610527576105276133d8565b63026b4b7160e51b81526000825161346f816004850160208701612ee4565b7502a3434b99030b2323932b9b99034b9903737ba1030960551b815260008251613873816016850160208701612ee4565b9190910160160192915050565b6602932bb37b5b2960cd1b8152600083516138a2816007850160208801612ee4565b600160fd1b60079184019182015283516138c3816008840160208801612ee4565b01600801949350505050565b63ffffffff828116828216039080821115613599576135996133d8565b60ff8281168282160390811115610527576105276133d8565b600060018201613917576139176133d8565b5060010190565b601f8211156107ba57600081815260208120601f850160051c810160208610156139455750805b601f850160051c820191505b818110156114bf57828155600101613951565b815167ffffffffffffffff81111561397e5761397e6131a0565b6139928161398c8454613416565b8461391e565b602080601f8311600181146139c757600084156139af5750858301515b600019600386901b1c1916600185901b1785556114bf565b600085815260208120601f198616915b828110156139f6578886015182559484019460019091019084016139d7565b5085821015613a145787850151600019600388901b60f8161c191681555b5050505050600190811b01905550565b600060ff821660ff8103613a3a57613a3a6133d8565b60010192915050565b60ff8181168382160190811115610527576105276133d8565b634e487b7160e01b600052603260045260246000fd5b84815260808101613a8660208301866130b7565b613a9360408301856130cb565b613aa060608301846130db565b95945050505050565b6000808354613ab781613416565b60018281168015613acf5760018114613ae457613b13565b60ff1984168752821515830287019450613b13565b8760005260208060002060005b85811015613b0a5781548a820152908401908201613af1565b50505082870194505b50929695505050505050565b60008251613b31818460208701612ee4565b9190910192915050565b7f416363657373436f6e74726f6c3a206163636f756e7420000000000000000000815260008351613b73816017850160208801612ee4565b7001034b99036b4b9b9b4b733903937b6329607d1b6017918401918201528351613ba4816028840160208801612ee4565b01602801949350505050565b8082028115828204841417610527576105276133d8565b600081613bd657613bd66133d8565b50600019019056feb431a69783a2491a0c400ff16dab32cd442abf8fe5af63a526a7248d730192f8562618dbcf74b61ae5b0f229fe40ba6d5b6ae6b4248f8c89a870dda7c77135f6d646ae07eb0d0f77457502a65e7407930dff4cd4fd99abc6aac87a753f4c8a42a26469706673582212202c194a53fba68796369b3d382481ee86257adbe77e3fc816c05ff157bfb5d46564736f6c634300081300334bbeb6fd3e5222e55f2f8b0c35bc228e0a06a25d0da772fdb02c3b92fa004f88d646ae07eb0d0f77457502a65e7407930dff4cd4fd99abc6aac87a753f4c8a42","opcodes":"PUSH1 0x80 PUSH1 0x40 MSTORE CALLVALUE DUP1 ISZERO PUSH3 0x11 JUMPI PUSH1 0x0 DUP1 REVERT JUMPDEST POP PUSH1 0x40 MLOAD PUSH3 0x4302 CODESIZE SUB DUP1 PUSH3 0x4302 DUP4 CODECOPY DUP2 ADD PUSH1 0x40 DUP2 SWAP1 MSTORE PUSH3 0x34 SWAP2 PUSH3 0x5DE JUMP JUMPDEST PUSH1 0x1 PUSH1 0x1 PUSH1 0xA0 SHL SUB DUP3 AND PUSH3 0x9C JUMPI PUSH1 0x40 MLOAD PUSH3 0x461BCD PUSH1 0xE5 SHL DUP2 MSTORE PUSH1 0x20 PUSH1 0x4 DUP3 ADD MSTORE PUSH1 0x24 DUP1 DUP3 ADD MSTORE PUSH32 0x4365727469666965722061646D696E3120616464726573732063616E6E6F7420 PUSH1 0x44 DUP3 ADD MSTORE PUSH4 0x6265203 PUSH1 0xE4 SHL PUSH1 0x64 DUP3 ADD MSTORE PUSH1 0x84 ADD JUMPDEST PUSH1 0x40 MLOAD DUP1 SWAP2 SUB SWAP1 REVERT JUMPDEST PUSH1 0x1 PUSH1 0x1 PUSH1 0xA0 SHL SUB DUP2 AND PUSH3 0x100 JUMPI PUSH1 0x40 MLOAD PUSH3 0x461BCD PUSH1 0xE5 SHL DUP2 MSTORE PUSH1 0x20 PUSH1 0x4 DUP3 ADD MSTORE PUSH1 0x24 DUP1 DUP3 ADD MSTORE PUSH32 0x4365727469666965722061646D696E3220616464726573732063616E6E6F7420 PUSH1 0x44 DUP3 ADD MSTORE PUSH4 0x6265203 PUSH1 0xE4 SHL PUSH1 0x64 DUP3 ADD MSTORE PUSH1 0x84 ADD PUSH3 0x93 JUMP JUMPDEST DUP1 PUSH1 0x1 PUSH1 0x1 PUSH1 0xA0 SHL SUB AND DUP3 PUSH1 0x1 PUSH1 0x1 PUSH1 0xA0 SHL SUB AND SUB PUSH3 0x172 JUMPI PUSH1 0x40 MLOAD PUSH3 0x461BCD PUSH1 0xE5 SHL DUP2 MSTORE PUSH1 0x20 PUSH1 0x4 DUP3 ADD MSTORE PUSH1 0x26 PUSH1 0x24 DUP3 ADD MSTORE PUSH32 0x436572746966696572206164647265737365732063616E6E6F74206265207468 PUSH1 0x44 DUP3 ADD MSTORE PUSH6 0x652073616D65 PUSH1 0xD0 SHL PUSH1 0x64 DUP3 ADD MSTORE PUSH1 0x84 ADD PUSH3 0x93 JUMP JUMPDEST PUSH3 0x18D PUSH1 0x0 DUP1 MLOAD PUSH1 0x20 PUSH3 0x42C2 DUP4 CODECOPY DUP2 MLOAD SWAP2 MSTORE DUP4 PUSH3 0x511 JUMP JUMPDEST PUSH3 0x1A8 PUSH1 0x0 DUP1 MLOAD PUSH1 0x20 PUSH3 0x42C2 DUP4 CODECOPY DUP2 MLOAD SWAP2 MSTORE DUP3 PUSH3 0x521 JUMP JUMPDEST PUSH1 0x40 DUP1 MLOAD PUSH1 0xE0 DUP2 ADD DUP3 MSTORE PUSH1 0x2 DUP1 DUP3 MSTORE PUSH1 0x20 DUP1 DUP4 ADD SWAP2 SWAP1 SWAP2 MSTORE PUSH1 0xF DUP3 DUP5 ADD MSTORE PUSH1 0x50 PUSH1 0x60 DUP4 ADD DUP2 SWAP1 MSTORE PUSH1 0x80 DUP4 ADD MSTORE PUSH1 0x0 DUP1 MLOAD PUSH1 0x20 PUSH3 0x42C2 DUP4 CODECOPY DUP2 MLOAD SWAP2 MSTORE PUSH1 0xA0 DUP4 ADD MSTORE SWAP2 MLOAD SWAP1 SWAP2 PUSH1 0xC0 DUP4 ADD SWAP2 PUSH3 0x213 SWAP2 ADD PUSH15 0x21A2A92A24A324A2A92FA0A226A4A7 PUSH1 0x89 SHL DUP2 MSTORE PUSH1 0xF ADD SWAP1 JUMP JUMPDEST PUSH1 0x40 MLOAD PUSH1 0x20 DUP2 DUP4 SUB SUB DUP2 MSTORE SWAP1 PUSH1 0x40 MSTORE PUSH3 0x22D SWAP1 PUSH3 0x616 JUMP JUMPDEST SWAP1 MSTORE PUSH1 0x0 DUP1 MLOAD PUSH1 0x20 PUSH3 0x42C2 DUP4 CODECOPY DUP2 MLOAD SWAP2 MSTORE PUSH1 0x0 SWAP1 DUP2 MSTORE PUSH1 0x3 PUSH1 0x20 SWAP1 DUP2 MSTORE DUP3 MLOAD PUSH32 0x996892C26F58715B0987B59A23F94E8EF0C02CD4CAE9FDBC7A2316B6CD446DE0 DUP1 SLOAD SWAP3 DUP6 ADD MLOAD PUSH1 0x40 DUP7 ADD MLOAD PUSH1 0x60 DUP8 ADD MLOAD PUSH1 0x80 DUP9 ADD MLOAD PUSH1 0xFF SWAP1 DUP2 AND PUSH1 0x1 PUSH1 0x68 SHL MUL PUSH1 0xFF PUSH1 0x68 SHL NOT SWAP2 SWAP1 SWAP3 AND PUSH13 0x1000000000000000000000000 MUL PUSH1 0xFF PUSH1 0x60 SHL NOT PUSH4 0xFFFFFFFF SWAP5 DUP6 AND PUSH9 0x10000000000000000 MUL AND PUSH5 0xFFFFFFFFFF PUSH1 0x40 SHL NOT SWAP6 DUP6 AND PUSH5 0x100000000 MUL PUSH1 0x1 PUSH1 0x1 PUSH1 0x40 SHL SUB NOT SWAP1 SWAP10 AND SWAP5 SWAP1 SWAP8 AND SWAP4 SWAP1 SWAP4 OR SWAP7 SWAP1 SWAP7 OR SWAP3 SWAP1 SWAP3 AND SWAP4 SWAP1 SWAP4 OR SWAP3 SWAP1 SWAP3 OR SWAP3 SWAP1 SWAP3 AND OR SWAP1 SSTORE PUSH1 0xA0 DUP3 ADD MLOAD PUSH32 0x996892C26F58715B0987B59A23F94E8EF0C02CD4CAE9FDBC7A2316B6CD446DE1 SSTORE PUSH1 0xC0 SWAP1 SWAP2 ADD MLOAD PUSH32 0x996892C26F58715B0987B59A23F94E8EF0C02CD4CAE9FDBC7A2316B6CD446DE2 SSTORE PUSH3 0x36B SWAP1 PUSH1 0x0 DUP1 MLOAD PUSH1 0x20 PUSH3 0x42E2 DUP4 CODECOPY DUP2 MLOAD SWAP2 MSTORE SWAP1 PUSH3 0x511 JUMP JUMPDEST PUSH1 0x40 DUP1 MLOAD PUSH1 0xE0 DUP2 ADD DUP3 MSTORE PUSH1 0x0 DUP1 DUP3 MSTORE PUSH1 0x20 DUP1 DUP4 ADD SWAP2 SWAP1 SWAP2 MSTORE PUSH1 0xF DUP3 DUP5 ADD MSTORE PUSH1 0x50 PUSH1 0x60 DUP4 ADD DUP2 SWAP1 MSTORE PUSH1 0x80 DUP4 ADD MSTORE PUSH1 0x0 DUP1 MLOAD PUSH1 0x20 PUSH3 0x42C2 DUP4 CODECOPY DUP2 MLOAD SWAP2 MSTORE PUSH1 0xA0 DUP4 ADD MSTORE SWAP2 MLOAD SWAP1 SWAP2 PUSH1 0xC0 DUP4 ADD SWAP2 PUSH3 0x3D0 SWAP2 ADD PUSH9 0x21A2A92A24A324A2A9 PUSH1 0xB9 SHL DUP2 MSTORE PUSH1 0x9 ADD SWAP1 JUMP JUMPDEST PUSH1 0x40 MLOAD PUSH1 0x20 DUP2 DUP4 SUB SUB DUP2 MSTORE SWAP1 PUSH1 0x40 MSTORE PUSH3 0x3EA SWAP1 PUSH3 0x616 JUMP JUMPDEST SWAP1 MSTORE PUSH1 0x0 DUP1 MLOAD PUSH1 0x20 PUSH3 0x42E2 DUP4 CODECOPY DUP2 MLOAD SWAP2 MSTORE PUSH1 0x0 MSTORE PUSH1 0x3 PUSH1 0x20 SWAP1 DUP2 MSTORE DUP2 MLOAD PUSH32 0x4ED60087A82BD97D8AFA881E356D9B31A57E1F4FA6C3493C1181428B0C33562 DUP1 SLOAD SWAP3 DUP5 ADD MLOAD PUSH1 0x40 DUP6 ADD MLOAD PUSH1 0x60 DUP7 ADD MLOAD PUSH1 0x80 DUP8 ADD MLOAD PUSH1 0xFF SWAP1 DUP2 AND PUSH1 0x1 PUSH1 0x68 SHL MUL PUSH1 0xFF PUSH1 0x68 SHL NOT SWAP2 SWAP1 SWAP3 AND PUSH13 0x1000000000000000000000000 MUL PUSH1 0xFF PUSH1 0x60 SHL NOT PUSH4 0xFFFFFFFF SWAP5 DUP6 AND PUSH9 0x10000000000000000 MUL AND PUSH5 0xFFFFFFFFFF PUSH1 0x40 SHL NOT SWAP6 DUP6 AND PUSH5 0x100000000 MUL PUSH1 0x1 PUSH1 0x1 PUSH1 0x40 SHL SUB NOT SWAP1 SWAP10 AND SWAP5 SWAP1 SWAP8 AND SWAP4 SWAP1 SWAP4 OR SWAP7 SWAP1 SWAP7 OR SWAP3 SWAP1 SWAP3 AND SWAP4 SWAP1 SWAP4 OR SWAP3 SWAP1 SWAP3 OR SWAP3 SWAP1 SWAP3 AND OR SWAP1 SSTORE PUSH1 0xA0 DUP2 ADD MLOAD PUSH32 0x4ED60087A82BD97D8AFA881E356D9B31A57E1F4FA6C3493C1181428B0C33563 SSTORE PUSH1 0xC0 ADD MLOAD PUSH32 0x4ED60087A82BD97D8AFA881E356D9B31A57E1F4FA6C3493C1181428B0C33564 SSTORE POP PUSH3 0x63E SWAP1 POP JUMP JUMPDEST PUSH3 0x51D DUP3 DUP3 PUSH3 0x521 JUMP JUMPDEST POP POP JUMP JUMPDEST PUSH1 0x0 DUP3 DUP2 MSTORE PUSH1 0x20 DUP2 DUP2 MSTORE PUSH1 0x40 DUP1 DUP4 KECCAK256 PUSH1 0x1 PUSH1 0x1 PUSH1 0xA0 SHL SUB DUP6 AND DUP5 MSTORE SWAP1 SWAP2 MSTORE SWAP1 KECCAK256 SLOAD PUSH1 0xFF AND PUSH3 0x51D JUMPI PUSH1 0x0 DUP3 DUP2 MSTORE PUSH1 0x20 DUP2 DUP2 MSTORE PUSH1 0x40 DUP1 DUP4 KECCAK256 PUSH1 0x1 PUSH1 0x1 PUSH1 0xA0 SHL SUB DUP6 AND DUP5 MSTORE SWAP1 SWAP2 MSTORE SWAP1 KECCAK256 DUP1 SLOAD PUSH1 0xFF NOT AND PUSH1 0x1 OR SWAP1 SSTORE PUSH3 0x57D CALLER SWAP1 JUMP JUMPDEST PUSH1 0x1 PUSH1 0x1 PUSH1 0xA0 SHL SUB AND DUP2 PUSH1 0x1 PUSH1 0x1 PUSH1 0xA0 SHL SUB AND DUP4 PUSH32 0x2F8788117E7EFF1D82E926EC794901D17C78024A50270940304540A733656F0D PUSH1 0x40 MLOAD PUSH1 0x40 MLOAD DUP1 SWAP2 SUB SWAP1 LOG4 POP POP JUMP JUMPDEST DUP1 MLOAD PUSH1 0x1 PUSH1 0x1 PUSH1 0xA0 SHL SUB DUP2 AND DUP2 EQ PUSH3 0x5D9 JUMPI PUSH1 0x0 DUP1 REVERT JUMPDEST SWAP2 SWAP1 POP JUMP JUMPDEST PUSH1 0x0 DUP1 PUSH1 0x40 DUP4 DUP6 SUB SLT ISZERO PUSH3 0x5F2 JUMPI PUSH1 0x0 DUP1 REVERT JUMPDEST PUSH3 0x5FD DUP4 PUSH3 0x5C1 JUMP JUMPDEST SWAP2 POP PUSH3 0x60D PUSH1 0x20 DUP5 ADD PUSH3 0x5C1 JUMP JUMPDEST SWAP1 POP SWAP3 POP SWAP3 SWAP1 POP JUMP JUMPDEST DUP1 MLOAD PUSH1 0x20 DUP1 DUP4 ADD MLOAD SWAP2 SWAP1 DUP2 LT ISZERO PUSH3 0x638 JUMPI PUSH1 0x0 NOT DUP2 PUSH1 0x20 SUB PUSH1 0x3 SHL SHL DUP3 AND SWAP2 POP JUMPDEST POP SWAP2 SWAP1 POP JUMP JUMPDEST PUSH2 0x3C74 DUP1 PUSH3 0x64E PUSH1 0x0 CODECOPY PUSH1 0x0 RETURN INVALID PUSH1 0x80 PUSH1 0x40 MSTORE CALLVALUE DUP1 ISZERO PUSH2 0x10 JUMPI PUSH1 0x0 DUP1 REVERT JUMPDEST POP PUSH1 0x4 CALLDATASIZE LT PUSH2 0x211 JUMPI PUSH1 0x0 CALLDATALOAD PUSH1 0xE0 SHR DUP1 PUSH4 0x742F0688 GT PUSH2 0x125 JUMPI DUP1 PUSH4 0xB86BC74F GT PUSH2 0xAD JUMPI DUP1 PUSH4 0xD3243AD8 GT PUSH2 0x7C JUMPI DUP1 PUSH4 0xD3243AD8 EQ PUSH2 0x476 JUMPI DUP1 PUSH4 0xD547741F EQ PUSH2 0x489 JUMPI DUP1 PUSH4 0xDF3A12DD EQ PUSH2 0x49C JUMPI DUP1 PUSH4 0xE05F2FB4 EQ PUSH2 0x4AF JUMPI DUP1 PUSH4 0xE5A357F5 EQ PUSH2 0x4D6 JUMPI PUSH1 0x0 DUP1 REVERT JUMPDEST DUP1 PUSH4 0xB86BC74F EQ PUSH2 0x43B JUMPI DUP1 PUSH4 0xBF802091 EQ PUSH2 0x450 JUMPI DUP1 PUSH4 0xC9DBCFDA EQ PUSH2 0x463 JUMPI DUP1 PUSH4 0xD0FB68C7 EQ PUSH2 0x276 JUMPI PUSH1 0x0 DUP1 REVERT JUMPDEST DUP1 PUSH4 0x9DD09A73 GT PUSH2 0xF4 JUMPI DUP1 PUSH4 0x9DD09A73 EQ PUSH2 0x3ED JUMPI DUP1 PUSH4 0x9E339909 EQ PUSH2 0x326 JUMPI DUP1 PUSH4 0xA1CEBF52 EQ PUSH2 0x40D JUMPI DUP1 PUSH4 0xA217FDDF EQ PUSH2 0x420 JUMPI DUP1 PUSH4 0xACE81910 EQ PUSH2 0x428 JUMPI PUSH1 0x0 DUP1 REVERT JUMPDEST DUP1 PUSH4 0x742F0688 EQ PUSH2 0x369 JUMPI DUP1 PUSH4 0x7CD29FB7 EQ PUSH2 0x276 JUMPI DUP1 PUSH4 0x8856A0E9 EQ PUSH2 0x3C7 JUMPI DUP1 PUSH4 0x91D14854 EQ PUSH2 0x3DA JUMPI PUSH1 0x0 DUP1 REVERT JUMPDEST DUP1 PUSH4 0x2F2FF15D GT PUSH2 0x1A8 JUMPI DUP1 PUSH4 0x4DA11A20 GT PUSH2 0x177 JUMPI DUP1 PUSH4 0x4DA11A20 EQ PUSH2 0x276 JUMPI DUP1 PUSH4 0x5907EBEA EQ PUSH2 0x326 JUMPI DUP1 PUSH4 0x642F9163 EQ PUSH2 0x32E JUMPI DUP1 PUSH4 0x6BC6421B EQ PUSH2 0x34E JUMPI DUP1 PUSH4 0x719129BE EQ PUSH2 0x356 JUMPI PUSH1 0x0 DUP1 REVERT JUMPDEST DUP1 PUSH4 0x2F2FF15D EQ PUSH2 0x2E5 JUMPI DUP1 PUSH4 0x33B72E49 EQ PUSH2 0x2F8 JUMPI DUP1 PUSH4 0x36568ABE EQ PUSH2 0x300 JUMPI DUP1 PUSH4 0x4CCE913B EQ PUSH2 0x313 JUMPI PUSH1 0x0 DUP1 REVERT JUMPDEST DUP1 PUSH4 0x1A968069 GT PUSH2 0x1E4 JUMPI DUP1 PUSH4 0x1A968069 EQ PUSH2 0x290 JUMPI DUP1 PUSH4 0x1A9CFE28 EQ PUSH2 0x276 JUMPI DUP1 PUSH4 0x248A9CA3 EQ PUSH2 0x2B4 JUMPI DUP1 PUSH4 0x2CD94E4F EQ PUSH2 0x276 JUMPI PUSH1 0x0 DUP1 REVERT JUMPDEST DUP1 PUSH4 0x1FFC9A7 EQ PUSH2 0x216 JUMPI DUP1 PUSH4 0x5F84D45 EQ PUSH2 0x23E JUMPI DUP1 PUSH4 0x6EAD22E EQ PUSH2 0x253 JUMPI DUP1 PUSH4 0xF68794A EQ PUSH2 0x276 JUMPI JUMPDEST PUSH1 0x0 DUP1 REVERT JUMPDEST PUSH2 0x229 PUSH2 0x224 CALLDATASIZE PUSH1 0x4 PUSH2 0x2E60 JUMP JUMPDEST PUSH2 0x4F6 JUMP JUMPDEST PUSH1 0x40 MLOAD SWAP1 ISZERO ISZERO DUP2 MSTORE PUSH1 0x20 ADD JUMPDEST PUSH1 0x40 MLOAD DUP1 SWAP2 SUB SWAP1 RETURN JUMPDEST PUSH2 0x251 PUSH2 0x24C CALLDATASIZE PUSH1 0x4 PUSH2 0x2E9F JUMP JUMPDEST PUSH2 0x52D JUMP JUMPDEST STOP JUMPDEST PUSH2 0x266 PUSH2 0x261 CALLDATASIZE PUSH1 0x4 PUSH2 0x2ECB JUMP JUMPDEST PUSH2 0x7BF JUMP JUMPDEST PUSH1 0x40 MLOAD PUSH2 0x235 SWAP5 SWAP4 SWAP3 SWAP2 SWAP1 PUSH2 0x2F34 JUMP JUMPDEST PUSH2 0x27E PUSH1 0x50 DUP2 JUMP JUMPDEST PUSH1 0x40 MLOAD PUSH1 0xFF SWAP1 SWAP2 AND DUP2 MSTORE PUSH1 0x20 ADD PUSH2 0x235 JUMP JUMPDEST PUSH2 0x2A3 PUSH2 0x29E CALLDATASIZE PUSH1 0x4 PUSH2 0x2ECB JUMP JUMPDEST PUSH2 0x8F7 JUMP JUMPDEST PUSH1 0x40 MLOAD PUSH2 0x235 SWAP6 SWAP5 SWAP4 SWAP3 SWAP2 SWAP1 PUSH2 0x2F71 JUMP JUMPDEST PUSH2 0x2D7 PUSH2 0x2C2 CALLDATASIZE PUSH1 0x4 PUSH2 0x2ECB JUMP JUMPDEST PUSH1 0x0 SWAP1 DUP2 MSTORE PUSH1 0x20 DUP2 SWAP1 MSTORE PUSH1 0x40 SWAP1 KECCAK256 PUSH1 0x1 ADD SLOAD SWAP1 JUMP JUMPDEST PUSH1 0x40 MLOAD SWAP1 DUP2 MSTORE PUSH1 0x20 ADD PUSH2 0x235 JUMP JUMPDEST PUSH2 0x251 PUSH2 0x2F3 CALLDATASIZE PUSH1 0x4 PUSH2 0x2FC6 JUMP JUMPDEST PUSH2 0x9B9 JUMP JUMPDEST PUSH2 0x27E PUSH1 0x2 DUP2 JUMP JUMPDEST PUSH2 0x251 PUSH2 0x30E CALLDATASIZE PUSH1 0x4 PUSH2 0x2FC6 JUMP JUMPDEST PUSH2 0x9DE JUMP JUMPDEST PUSH2 0x2D7 PUSH2 0x321 CALLDATASIZE PUSH1 0x4 PUSH2 0x2FE9 JUMP JUMPDEST PUSH2 0xA45 JUMP JUMPDEST PUSH2 0x27E PUSH1 0xF DUP2 JUMP JUMPDEST PUSH2 0x341 PUSH2 0x33C CALLDATASIZE PUSH1 0x4 PUSH2 0x2ECB JUMP JUMPDEST PUSH2 0xA76 JUMP JUMPDEST PUSH1 0x40 MLOAD PUSH2 0x235 SWAP2 SWAP1 PUSH2 0x300B JUMP JUMPDEST PUSH2 0x27E PUSH1 0x33 DUP2 JUMP JUMPDEST PUSH2 0x251 PUSH2 0x364 CALLDATASIZE PUSH1 0x4 PUSH2 0x3065 JUMP JUMPDEST PUSH2 0xC4C JUMP JUMPDEST PUSH2 0x3B5 PUSH2 0x377 CALLDATASIZE PUSH1 0x4 PUSH2 0x2ECB JUMP JUMPDEST PUSH1 0x7 PUSH1 0x20 MSTORE PUSH1 0x0 SWAP1 DUP2 MSTORE PUSH1 0x40 SWAP1 KECCAK256 DUP1 SLOAD PUSH1 0x1 DUP3 ADD SLOAD PUSH1 0x2 DUP4 ADD SLOAD PUSH1 0x3 SWAP1 SWAP4 ADD SLOAD PUSH1 0xFF DUP1 DUP5 AND SWAP5 PUSH2 0x100 DUP6 DIV DUP3 AND SWAP5 PUSH3 0x10000 SWAP1 DIV DUP3 AND SWAP4 SWAP3 SWAP2 AND SWAP1 DUP7 JUMP JUMPDEST PUSH1 0x40 MLOAD PUSH2 0x235 SWAP7 SWAP6 SWAP5 SWAP4 SWAP3 SWAP2 SWAP1 PUSH2 0x30EB JUMP JUMPDEST PUSH2 0x251 PUSH2 0x3D5 CALLDATASIZE PUSH1 0x4 PUSH2 0x3130 JUMP JUMPDEST PUSH2 0xFDF JUMP JUMPDEST PUSH2 0x229 PUSH2 0x3E8 CALLDATASIZE PUSH1 0x4 PUSH2 0x2FC6 JUMP JUMPDEST PUSH2 0x14C7 JUMP JUMPDEST PUSH2 0x2D7 PUSH2 0x3FB CALLDATASIZE PUSH1 0x4 PUSH2 0x2ECB JUMP JUMPDEST PUSH1 0x5 PUSH1 0x20 MSTORE PUSH1 0x0 SWAP1 DUP2 MSTORE PUSH1 0x40 SWAP1 KECCAK256 SLOAD DUP2 JUMP JUMPDEST PUSH2 0x251 PUSH2 0x41B CALLDATASIZE PUSH1 0x4 PUSH2 0x3243 JUMP JUMPDEST PUSH2 0x14F0 JUMP JUMPDEST PUSH2 0x2D7 PUSH1 0x0 DUP2 JUMP JUMPDEST PUSH2 0x251 PUSH2 0x436 CALLDATASIZE PUSH1 0x4 PUSH2 0x3130 JUMP JUMPDEST PUSH2 0x16A4 JUMP JUMPDEST PUSH2 0x2D7 PUSH1 0x0 DUP1 MLOAD PUSH1 0x20 PUSH2 0x3C1F DUP4 CODECOPY DUP2 MLOAD SWAP2 MSTORE DUP2 JUMP JUMPDEST PUSH2 0x2D7 PUSH2 0x45E CALLDATASIZE PUSH1 0x4 PUSH2 0x2FE9 JUMP JUMPDEST PUSH2 0x1B37 JUMP JUMPDEST PUSH2 0x251 PUSH2 0x471 CALLDATASIZE PUSH1 0x4 PUSH2 0x3243 JUMP JUMPDEST PUSH2 0x1B70 JUMP JUMPDEST PUSH2 0x251 PUSH2 0x484 CALLDATASIZE PUSH1 0x4 PUSH2 0x3065 JUMP JUMPDEST PUSH2 0x1BFD JUMP JUMPDEST PUSH2 0x251 PUSH2 0x497 CALLDATASIZE PUSH1 0x4 PUSH2 0x2FC6 JUMP JUMPDEST PUSH2 0x20F2 JUMP JUMPDEST PUSH2 0x2D7 PUSH2 0x4AA CALLDATASIZE PUSH1 0x4 PUSH2 0x2ECB JUMP JUMPDEST PUSH2 0x2117 JUMP JUMPDEST PUSH2 0x2D7 PUSH32 0x4BBEB6FD3E5222E55F2F8B0C35BC228E0A06A25D0DA772FDB02C3B92FA004F88 DUP2 JUMP JUMPDEST PUSH2 0x4E9 PUSH2 0x4E4 CALLDATASIZE PUSH1 0x4 PUSH2 0x2ECB JUMP JUMPDEST PUSH2 0x2138 JUMP JUMPDEST PUSH1 0x40 MLOAD PUSH2 0x235 SWAP2 SWAP1 PUSH2 0x32B8 JUMP JUMPDEST PUSH1 0x0 PUSH1 0x1 PUSH1 0x1 PUSH1 0xE0 SHL SUB NOT DUP3 AND PUSH4 0x7965DB0B PUSH1 0xE0 SHL EQ DUP1 PUSH2 0x527 JUMPI POP PUSH4 0x1FFC9A7 PUSH1 0xE0 SHL PUSH1 0x1 PUSH1 0x1 PUSH1 0xE0 SHL SUB NOT DUP4 AND EQ JUMPDEST SWAP3 SWAP2 POP POP JUMP JUMPDEST PUSH2 0x545 PUSH1 0x0 DUP1 MLOAD PUSH1 0x20 PUSH2 0x3C1F DUP4 CODECOPY DUP2 MLOAD SWAP2 MSTORE CALLER PUSH2 0x14C7 JUMP JUMPDEST PUSH2 0x56A JUMPI PUSH1 0x40 MLOAD PUSH3 0x461BCD PUSH1 0xE5 SHL DUP2 MSTORE PUSH1 0x4 ADD PUSH2 0x561 SWAP1 PUSH2 0x32FC JUMP JUMPDEST PUSH1 0x40 MLOAD DUP1 SWAP2 SUB SWAP1 REVERT JUMPDEST PUSH1 0x0 DUP3 GT PUSH2 0x58A JUMPI PUSH1 0x40 MLOAD PUSH3 0x461BCD PUSH1 0xE5 SHL DUP2 MSTORE PUSH1 0x4 ADD PUSH2 0x561 SWAP1 PUSH2 0x3333 JUMP JUMPDEST PUSH1 0x0 DUP3 DUP2 MSTORE PUSH1 0x1 PUSH1 0x20 MSTORE PUSH1 0x40 DUP2 KECCAK256 SLOAD SWAP1 SUB PUSH2 0x5B7 JUMPI PUSH1 0x40 MLOAD PUSH3 0x461BCD PUSH1 0xE5 SHL DUP2 MSTORE PUSH1 0x4 ADD PUSH2 0x561 SWAP1 PUSH2 0x336A JUMP JUMPDEST PUSH1 0x0 DUP3 PUSH1 0x40 MLOAD PUSH1 0x20 ADD PUSH2 0x5E3 SWAP2 DUP2 MSTORE PUSH14 0x1111531155114814D51551115395 PUSH1 0x92 SHL PUSH1 0x20 DUP3 ADD MSTORE PUSH1 0x2E ADD SWAP1 JUMP JUMPDEST PUSH1 0x40 MLOAD PUSH1 0x20 DUP2 DUP4 SUB SUB DUP2 MSTORE SWAP1 PUSH1 0x40 MSTORE DUP1 MLOAD SWAP1 PUSH1 0x20 ADD KECCAK256 SWAP1 POP PUSH2 0x652 DUP2 PUSH1 0x0 DUP1 MLOAD PUSH1 0x20 PUSH2 0x3C1F DUP4 CODECOPY DUP2 MLOAD SWAP2 MSTORE DUP6 PUSH1 0x40 MLOAD PUSH1 0x20 ADD PUSH2 0x621 SWAP2 DUP2 MSTORE PUSH1 0x20 ADD SWAP1 JUMP JUMPDEST PUSH1 0x40 DUP1 MLOAD PUSH1 0x1F NOT DUP2 DUP5 SUB ADD DUP2 MSTORE SWAP1 DUP3 SWAP1 MSTORE PUSH2 0x63E SWAP2 PUSH1 0x20 ADD PUSH2 0x33A1 JUMP JUMPDEST PUSH1 0x40 MLOAD PUSH1 0x20 DUP2 DUP4 SUB SUB DUP2 MSTORE SWAP1 PUSH1 0x40 MSTORE PUSH2 0x21C7 JUMP JUMPDEST DUP2 DUP1 ISZERO PUSH2 0x67C JUMPI POP PUSH1 0x0 DUP2 DUP2 MSTORE PUSH1 0x4 PUSH1 0x20 SWAP1 DUP2 MSTORE PUSH1 0x40 DUP1 DUP4 KECCAK256 CALLER DUP5 MSTORE PUSH1 0x3 ADD SWAP1 SWAP2 MSTORE SWAP1 KECCAK256 SLOAD PUSH1 0xFF AND ISZERO JUMPDEST ISZERO PUSH2 0x6BF JUMPI PUSH1 0x0 DUP2 DUP2 MSTORE PUSH1 0x4 PUSH1 0x20 MSTORE PUSH1 0x40 SWAP1 KECCAK256 PUSH2 0x699 SWAP1 CALLER PUSH2 0x2248 JUMP JUMPDEST PUSH1 0x40 MLOAD DUP2 DUP2 MSTORE PUSH1 0x0 DUP1 MLOAD PUSH1 0x20 PUSH2 0x3BDF DUP4 CODECOPY DUP2 MLOAD SWAP2 MSTORE SWAP1 PUSH1 0x20 ADD PUSH1 0x40 MLOAD DUP1 SWAP2 SUB SWAP1 LOG1 PUSH2 0x703 JUMP JUMPDEST DUP2 ISZERO ISZERO PUSH1 0x0 SUB PUSH2 0x703 JUMPI PUSH1 0x0 DUP2 DUP2 MSTORE PUSH1 0x4 PUSH1 0x20 MSTORE PUSH1 0x40 SWAP1 KECCAK256 PUSH2 0x6E1 SWAP1 CALLER PUSH2 0x2375 JUMP JUMPDEST PUSH1 0x40 MLOAD DUP2 DUP2 MSTORE PUSH1 0x0 DUP1 MLOAD PUSH1 0x20 PUSH2 0x3BDF DUP4 CODECOPY DUP2 MLOAD SWAP2 MSTORE SWAP1 PUSH1 0x20 ADD PUSH1 0x40 MLOAD DUP1 SWAP2 SUB SWAP1 LOG1 JUMPDEST PUSH1 0x0 DUP1 MLOAD PUSH1 0x20 PUSH2 0x3C1F DUP4 CODECOPY DUP2 MLOAD SWAP2 MSTORE PUSH1 0x0 MSTORE PUSH1 0x3 PUSH1 0x20 MSTORE PUSH32 0x4ED60087A82BD97D8AFA881E356D9B31A57E1F4FA6C3493C1181428B0C33562 SLOAD PUSH2 0x75F SWAP1 PUSH2 0x752 SWAP1 PUSH1 0x50 SWAP1 PUSH4 0xFFFFFFFF AND PUSH2 0x33EE JUMP JUMPDEST PUSH4 0xFFFFFFFF AND PUSH1 0x64 PUSH2 0x1B37 JUMP JUMPDEST PUSH1 0x0 DUP3 DUP2 MSTORE PUSH1 0x4 PUSH1 0x20 MSTORE PUSH1 0x40 SWAP1 KECCAK256 PUSH1 0x2 ADD SLOAD PUSH1 0xFF AND LT PUSH2 0x7BA JUMPI PUSH1 0x0 DUP2 DUP2 MSTORE PUSH1 0x4 PUSH1 0x20 MSTORE PUSH1 0x40 SWAP1 KECCAK256 PUSH2 0x790 SWAP1 PUSH2 0x242D JUMP JUMPDEST PUSH1 0x40 MLOAD DUP2 DUP2 MSTORE PUSH1 0x0 DUP1 MLOAD PUSH1 0x20 PUSH2 0x3BFF DUP4 CODECOPY DUP2 MLOAD SWAP2 MSTORE SWAP1 PUSH1 0x20 ADD PUSH1 0x40 MLOAD DUP1 SWAP2 SUB SWAP1 LOG1 PUSH2 0x7BA DUP4 PUSH2 0x249E JUMP JUMPDEST POP POP POP JUMP JUMPDEST PUSH1 0x1 PUSH1 0x20 DUP2 SWAP1 MSTORE PUSH1 0x0 SWAP2 DUP3 MSTORE PUSH1 0x40 SWAP1 SWAP2 KECCAK256 DUP1 SLOAD SWAP2 DUP2 ADD DUP1 SLOAD PUSH2 0x7E0 SWAP1 PUSH2 0x3416 JUMP JUMPDEST DUP1 PUSH1 0x1F ADD PUSH1 0x20 DUP1 SWAP2 DIV MUL PUSH1 0x20 ADD PUSH1 0x40 MLOAD SWAP1 DUP2 ADD PUSH1 0x40 MSTORE DUP1 SWAP3 SWAP2 SWAP1 DUP2 DUP2 MSTORE PUSH1 0x20 ADD DUP3 DUP1 SLOAD PUSH2 0x80C SWAP1 PUSH2 0x3416 JUMP JUMPDEST DUP1 ISZERO PUSH2 0x859 JUMPI DUP1 PUSH1 0x1F LT PUSH2 0x82E JUMPI PUSH2 0x100 DUP1 DUP4 SLOAD DIV MUL DUP4 MSTORE SWAP2 PUSH1 0x20 ADD SWAP2 PUSH2 0x859 JUMP JUMPDEST DUP3 ADD SWAP2 SWAP1 PUSH1 0x0 MSTORE PUSH1 0x20 PUSH1 0x0 KECCAK256 SWAP1 JUMPDEST DUP2 SLOAD DUP2 MSTORE SWAP1 PUSH1 0x1 ADD SWAP1 PUSH1 0x20 ADD DUP1 DUP4 GT PUSH2 0x83C JUMPI DUP3 SWAP1 SUB PUSH1 0x1F AND DUP3 ADD SWAP2 JUMPDEST POP POP POP POP POP SWAP1 DUP1 PUSH1 0x2 ADD DUP1 SLOAD PUSH2 0x86E SWAP1 PUSH2 0x3416 JUMP JUMPDEST DUP1 PUSH1 0x1F ADD PUSH1 0x20 DUP1 SWAP2 DIV MUL PUSH1 0x20 ADD PUSH1 0x40 MLOAD SWAP1 DUP2 ADD PUSH1 0x40 MSTORE DUP1 SWAP3 SWAP2 SWAP1 DUP2 DUP2 MSTORE PUSH1 0x20 ADD DUP3 DUP1 SLOAD PUSH2 0x89A SWAP1 PUSH2 0x3416 JUMP JUMPDEST DUP1 ISZERO PUSH2 0x8E7 JUMPI DUP1 PUSH1 0x1F LT PUSH2 0x8BC JUMPI PUSH2 0x100 DUP1 DUP4 SLOAD DIV MUL DUP4 MSTORE SWAP2 PUSH1 0x20 ADD SWAP2 PUSH2 0x8E7 JUMP JUMPDEST DUP3 ADD SWAP2 SWAP1 PUSH1 0x0 MSTORE PUSH1 0x20 PUSH1 0x0 KECCAK256 SWAP1 JUMPDEST DUP2 SLOAD DUP2 MSTORE SWAP1 PUSH1 0x1 ADD SWAP1 PUSH1 0x20 ADD DUP1 DUP4 GT PUSH2 0x8CA JUMPI DUP3 SWAP1 SUB PUSH1 0x1F AND DUP3 ADD SWAP2 JUMPDEST POP POP POP POP POP SWAP1 DUP1 PUSH1 0x3 ADD SLOAD SWAP1 POP DUP5 JUMP JUMPDEST PUSH1 0x4 PUSH1 0x20 MSTORE PUSH1 0x0 SWAP1 DUP2 MSTORE PUSH1 0x40 SWAP1 KECCAK256 DUP1 SLOAD PUSH1 0x1 DUP3 ADD SLOAD PUSH1 0x2 DUP4 ADD SLOAD PUSH1 0x5 DUP5 ADD DUP1 SLOAD PUSH1 0xFF SWAP5 DUP6 AND SWAP6 SWAP4 SWAP5 DUP4 DUP2 AND SWAP5 PUSH2 0x100 SWAP1 SWAP5 DIV AND SWAP3 SWAP2 SWAP1 PUSH2 0x936 SWAP1 PUSH2 0x3416 JUMP JUMPDEST DUP1 PUSH1 0x1F ADD PUSH1 0x20 DUP1 SWAP2 DIV MUL PUSH1 0x20 ADD PUSH1 0x40 MLOAD SWAP1 DUP2 ADD PUSH1 0x40 MSTORE DUP1 SWAP3 SWAP2 SWAP1 DUP2 DUP2 MSTORE PUSH1 0x20 ADD DUP3 DUP1 SLOAD PUSH2 0x962 SWAP1 PUSH2 0x3416 JUMP JUMPDEST DUP1 ISZERO PUSH2 0x9AF JUMPI DUP1 PUSH1 0x1F LT PUSH2 0x984 JUMPI PUSH2 0x100 DUP1 DUP4 SLOAD DIV MUL DUP4 MSTORE SWAP2 PUSH1 0x20 ADD SWAP2 PUSH2 0x9AF JUMP JUMPDEST DUP3 ADD SWAP2 SWAP1 PUSH1 0x0 MSTORE PUSH1 0x20 PUSH1 0x0 KECCAK256 SWAP1 JUMPDEST DUP2 SLOAD DUP2 MSTORE SWAP1 PUSH1 0x1 ADD SWAP1 PUSH1 0x20 ADD DUP1 DUP4 GT PUSH2 0x992 JUMPI DUP3 SWAP1 SUB PUSH1 0x1F AND DUP3 ADD SWAP2 JUMPDEST POP POP POP POP POP SWAP1 POP DUP6 JUMP JUMPDEST PUSH1 0x0 DUP3 DUP2 MSTORE PUSH1 0x20 DUP2 SWAP1 MSTORE PUSH1 0x40 SWAP1 KECCAK256 PUSH1 0x1 ADD SLOAD PUSH2 0x9D4 DUP2 PUSH2 0x2577 JUMP JUMPDEST PUSH2 0x7BA DUP4 DUP4 PUSH2 0x2584 JUMP JUMPDEST PUSH1 0x40 MLOAD PUSH3 0x461BCD PUSH1 0xE5 SHL DUP2 MSTORE PUSH1 0x20 PUSH1 0x4 DUP3 ADD MSTORE PUSH1 0x36 PUSH1 0x24 DUP3 ADD MSTORE PUSH32 0x596F752063616E27742072656E6F756E636520746F20796F757220726F6C652E PUSH1 0x44 DUP3 ADD MSTORE PUSH22 0x20506C6561736520636F6E746163742061646D696E73 PUSH1 0x50 SHL PUSH1 0x64 DUP3 ADD MSTORE PUSH1 0x84 ADD PUSH2 0x561 JUMP JUMPDEST PUSH1 0x8 PUSH1 0x20 MSTORE DUP2 PUSH1 0x0 MSTORE PUSH1 0x40 PUSH1 0x0 KECCAK256 DUP2 DUP2 SLOAD DUP2 LT PUSH2 0xA61 JUMPI PUSH1 0x0 DUP1 REVERT JUMPDEST SWAP1 PUSH1 0x0 MSTORE PUSH1 0x20 PUSH1 0x0 KECCAK256 ADD PUSH1 0x0 SWAP2 POP SWAP2 POP POP SLOAD DUP2 JUMP JUMPDEST PUSH2 0xAA1 PUSH1 0x40 MLOAD DUP1 PUSH1 0x80 ADD PUSH1 0x40 MSTORE DUP1 PUSH1 0x0 DUP2 MSTORE PUSH1 0x20 ADD PUSH1 0x60 DUP2 MSTORE PUSH1 0x20 ADD PUSH1 0x60 DUP2 MSTORE PUSH1 0x20 ADD PUSH1 0x0 DUP2 MSTORE POP SWAP1 JUMP JUMPDEST PUSH1 0x0 DUP3 DUP2 MSTORE PUSH1 0x1 PUSH1 0x20 MSTORE PUSH1 0x40 DUP2 KECCAK256 SLOAD SWAP1 SUB PUSH2 0xAF6 JUMPI PUSH1 0x40 MLOAD PUSH3 0x461BCD PUSH1 0xE5 SHL DUP2 MSTORE PUSH1 0x20 PUSH1 0x4 DUP3 ADD MSTORE PUSH1 0x15 PUSH1 0x24 DUP3 ADD MSTORE PUSH21 0x14DD1D59195B9D08191BD95CDB89DD08195E1A5CDD PUSH1 0x5A SHL PUSH1 0x44 DUP3 ADD MSTORE PUSH1 0x64 ADD PUSH2 0x561 JUMP JUMPDEST PUSH1 0x0 DUP3 DUP2 MSTORE PUSH1 0x1 PUSH1 0x20 DUP2 DUP2 MSTORE PUSH1 0x40 SWAP3 DUP4 SWAP1 KECCAK256 DUP4 MLOAD PUSH1 0x80 DUP2 ADD SWAP1 SWAP5 MSTORE DUP1 SLOAD DUP5 MSTORE SWAP2 DUP3 ADD DUP1 SLOAD SWAP2 DUP5 ADD SWAP2 PUSH2 0xB27 SWAP1 PUSH2 0x3416 JUMP JUMPDEST DUP1 PUSH1 0x1F ADD PUSH1 0x20 DUP1 SWAP2 DIV MUL PUSH1 0x20 ADD PUSH1 0x40 MLOAD SWAP1 DUP2 ADD PUSH1 0x40 MSTORE DUP1 SWAP3 SWAP2 SWAP1 DUP2 DUP2 MSTORE PUSH1 0x20 ADD DUP3 DUP1 SLOAD PUSH2 0xB53 SWAP1 PUSH2 0x3416 JUMP JUMPDEST DUP1 ISZERO PUSH2 0xBA0 JUMPI DUP1 PUSH1 0x1F LT PUSH2 0xB75 JUMPI PUSH2 0x100 DUP1 DUP4 SLOAD DIV MUL DUP4 MSTORE SWAP2 PUSH1 0x20 ADD SWAP2 PUSH2 0xBA0 JUMP JUMPDEST DUP3 ADD SWAP2 SWAP1 PUSH1 0x0 MSTORE PUSH1 0x20 PUSH1 0x0 KECCAK256 SWAP1 JUMPDEST DUP2 SLOAD DUP2 MSTORE SWAP1 PUSH1 0x1 ADD SWAP1 PUSH1 0x20 ADD DUP1 DUP4 GT PUSH2 0xB83 JUMPI DUP3 SWAP1 SUB PUSH1 0x1F AND DUP3 ADD SWAP2 JUMPDEST POP POP POP POP POP DUP2 MSTORE PUSH1 0x20 ADD PUSH1 0x2 DUP3 ADD DUP1 SLOAD PUSH2 0xBB9 SWAP1 PUSH2 0x3416 JUMP JUMPDEST DUP1 PUSH1 0x1F ADD PUSH1 0x20 DUP1 SWAP2 DIV MUL PUSH1 0x20 ADD PUSH1 0x40 MLOAD SWAP1 DUP2 ADD PUSH1 0x40 MSTORE DUP1 SWAP3 SWAP2 SWAP1 DUP2 DUP2 MSTORE PUSH1 0x20 ADD DUP3 DUP1 SLOAD PUSH2 0xBE5 SWAP1 PUSH2 0x3416 JUMP JUMPDEST DUP1 ISZERO PUSH2 0xC32 JUMPI DUP1 PUSH1 0x1F LT PUSH2 0xC07 JUMPI PUSH2 0x100 DUP1 DUP4 SLOAD DIV MUL DUP4 MSTORE SWAP2 PUSH1 0x20 ADD SWAP2 PUSH2 0xC32 JUMP JUMPDEST DUP3 ADD SWAP2 SWAP1 PUSH1 0x0 MSTORE PUSH1 0x20 PUSH1 0x0 KECCAK256 SWAP1 JUMPDEST DUP2 SLOAD DUP2 MSTORE SWAP1 PUSH1 0x1 ADD SWAP1 PUSH1 0x20 ADD DUP1 DUP4 GT PUSH2 0xC15 JUMPI DUP3 SWAP1 SUB PUSH1 0x1F AND DUP3 ADD SWAP2 JUMPDEST POP POP POP POP POP DUP2 MSTORE PUSH1 0x20 ADD PUSH1 0x3 DUP3 ADD SLOAD DUP2 MSTORE POP POP SWAP1 POP SWAP2 SWAP1 POP JUMP JUMPDEST PUSH1 0x0 DUP4 DUP2 MSTORE PUSH1 0x3 PUSH1 0x20 SWAP1 DUP2 MSTORE PUSH1 0x40 SWAP2 DUP3 SWAP1 KECCAK256 DUP1 SLOAD PUSH1 0x2 DUP3 ADD SLOAD DUP5 MLOAD SWAP4 DUP5 ADD MSTORE SWAP1 SWAP3 PUSH4 0xFFFFFFFF DUP1 DUP4 AND PUSH9 0x10000000000000000 SWAP1 SWAP4 DIV AND SWAP2 SWAP1 SWAP2 GT SWAP2 ADD PUSH1 0x40 DUP1 MLOAD PUSH1 0x1F NOT DUP2 DUP5 SUB ADD DUP2 MSTORE SWAP1 DUP3 SWAP1 MSTORE PUSH2 0xCA6 SWAP2 PUSH1 0x20 ADD PUSH2 0x3450 JUMP JUMPDEST PUSH1 0x40 MLOAD PUSH1 0x20 DUP2 DUP4 SUB SUB DUP2 MSTORE SWAP1 PUSH1 0x40 MSTORE SWAP1 PUSH2 0xCD3 JUMPI PUSH1 0x40 MLOAD PUSH3 0x461BCD PUSH1 0xE5 SHL DUP2 MSTORE PUSH1 0x4 ADD PUSH2 0x561 SWAP2 SWAP1 PUSH2 0x348E JUMP JUMPDEST POP PUSH2 0xCE2 DUP2 PUSH1 0x1 ADD SLOAD CALLER PUSH2 0x14C7 JUMP JUMPDEST DUP2 PUSH1 0x2 ADD SLOAD PUSH1 0x40 MLOAD PUSH1 0x20 ADD PUSH2 0xCF9 SWAP2 DUP2 MSTORE PUSH1 0x20 ADD SWAP1 JUMP JUMPDEST PUSH1 0x40 DUP1 MLOAD PUSH1 0x1F NOT DUP2 DUP5 SUB ADD DUP2 MSTORE SWAP1 DUP3 SWAP1 MSTORE PUSH2 0xD16 SWAP2 PUSH1 0x20 ADD PUSH2 0x34A1 JUMP JUMPDEST PUSH1 0x40 MLOAD PUSH1 0x20 DUP2 DUP4 SUB SUB DUP2 MSTORE SWAP1 PUSH1 0x40 MSTORE SWAP1 PUSH2 0xD43 JUMPI PUSH1 0x40 MLOAD PUSH3 0x461BCD PUSH1 0xE5 SHL DUP2 MSTORE PUSH1 0x4 ADD PUSH2 0x561 SWAP2 SWAP1 PUSH2 0x348E JUMP JUMPDEST POP PUSH2 0xD4E DUP5 DUP5 PUSH2 0x14C7 JUMP JUMPDEST PUSH1 0x2 DUP3 ADD SLOAD PUSH1 0x40 DUP1 MLOAD PUSH1 0x20 DUP2 ADD SWAP3 SWAP1 SWAP3 MSTORE SWAP2 ISZERO SWAP2 ADD PUSH1 0x40 DUP1 MLOAD PUSH1 0x1F NOT DUP2 DUP5 SUB ADD DUP2 MSTORE SWAP1 DUP3 SWAP1 MSTORE PUSH2 0xD80 SWAP2 PUSH1 0x20 ADD PUSH2 0x34E9 JUMP JUMPDEST PUSH1 0x40 MLOAD PUSH1 0x20 DUP2 DUP4 SUB SUB DUP2 MSTORE SWAP1 PUSH1 0x40 MSTORE SWAP1 PUSH2 0xDAD JUMPI PUSH1 0x40 MLOAD PUSH3 0x461BCD PUSH1 0xE5 SHL DUP2 MSTORE PUSH1 0x4 ADD PUSH2 0x561 SWAP2 SWAP1 PUSH2 0x348E JUMP JUMPDEST POP PUSH1 0x40 MLOAD PUSH1 0x1 PUSH1 0x1 PUSH1 0x60 SHL SUB NOT PUSH1 0x60 DUP6 SWAP1 SHL AND PUSH1 0x20 DUP3 ADD MSTORE PUSH5 0x11D4905395 PUSH1 0xDA SHL PUSH1 0x34 DUP3 ADD MSTORE PUSH1 0x39 DUP2 ADD DUP6 SWAP1 MSTORE PUSH1 0x0 SWAP1 PUSH1 0x59 ADD PUSH1 0x40 MLOAD PUSH1 0x20 DUP2 DUP4 SUB SUB DUP2 MSTORE SWAP1 PUSH1 0x40 MSTORE DUP1 MLOAD SWAP1 PUSH1 0x20 ADD KECCAK256 SWAP1 POP PUSH2 0xE5C DUP2 DUP4 PUSH1 0x1 ADD SLOAD DUP5 PUSH1 0x2 ADD SLOAD PUSH1 0x40 MLOAD PUSH1 0x20 ADD PUSH2 0xE18 SWAP2 DUP2 MSTORE PUSH1 0x20 ADD SWAP1 JUMP JUMPDEST PUSH1 0x40 DUP1 MLOAD DUP1 DUP4 SUB PUSH1 0x1F NOT ADD DUP2 MSTORE DUP3 DUP3 MSTORE PUSH1 0x60 DUP11 SWAP1 SHL PUSH1 0x1 PUSH1 0x1 PUSH1 0x60 SHL SUB NOT AND PUSH1 0x20 DUP5 ADD MSTORE DUP2 MLOAD PUSH1 0x14 DUP2 DUP6 SUB ADD DUP2 MSTORE PUSH1 0x34 DUP5 ADD SWAP1 SWAP3 MSTORE PUSH2 0x63E SWAP3 SWAP1 SWAP2 SWAP1 PUSH1 0x54 ADD PUSH2 0x352E JUMP JUMPDEST DUP3 DUP1 ISZERO PUSH2 0xE86 JUMPI POP PUSH1 0x0 DUP2 DUP2 MSTORE PUSH1 0x4 PUSH1 0x20 SWAP1 DUP2 MSTORE PUSH1 0x40 DUP1 DUP4 KECCAK256 CALLER DUP5 MSTORE PUSH1 0x3 ADD SWAP1 SWAP2 MSTORE SWAP1 KECCAK256 SLOAD PUSH1 0xFF AND ISZERO JUMPDEST ISZERO PUSH2 0xEC9 JUMPI PUSH1 0x0 DUP2 DUP2 MSTORE PUSH1 0x4 PUSH1 0x20 MSTORE PUSH1 0x40 SWAP1 KECCAK256 PUSH2 0xEA3 SWAP1 CALLER PUSH2 0x2248 JUMP JUMPDEST PUSH1 0x40 MLOAD DUP2 DUP2 MSTORE PUSH1 0x0 DUP1 MLOAD PUSH1 0x20 PUSH2 0x3BDF DUP4 CODECOPY DUP2 MLOAD SWAP2 MSTORE SWAP1 PUSH1 0x20 ADD PUSH1 0x40 MLOAD DUP1 SWAP2 SUB SWAP1 LOG1 PUSH2 0xF0D JUMP JUMPDEST DUP3 ISZERO ISZERO PUSH1 0x0 SUB PUSH2 0xF0D JUMPI PUSH1 0x0 DUP2 DUP2 MSTORE PUSH1 0x4 PUSH1 0x20 MSTORE PUSH1 0x40 SWAP1 KECCAK256 PUSH2 0xEEB SWAP1 CALLER PUSH2 0x2375 JUMP JUMPDEST PUSH1 0x40 MLOAD DUP2 DUP2 MSTORE PUSH1 0x0 DUP1 MLOAD PUSH1 0x20 PUSH2 0x3BDF DUP4 CODECOPY DUP2 MLOAD SWAP2 MSTORE SWAP1 PUSH1 0x20 ADD PUSH1 0x40 MLOAD DUP1 SWAP2 SUB SWAP1 LOG1 JUMPDEST DUP2 SLOAD PUSH1 0x1 DUP4 ADD SLOAD PUSH1 0x0 SWAP1 DUP2 MSTORE PUSH1 0x3 PUSH1 0x20 MSTORE PUSH1 0x40 SWAP1 KECCAK256 SLOAD PUSH2 0xF42 SWAP2 PUSH2 0x752 SWAP2 PUSH1 0x1 PUSH1 0x60 SHL SWAP1 SWAP2 DIV PUSH1 0xFF AND SWAP1 PUSH4 0xFFFFFFFF AND PUSH2 0x33EE JUMP JUMPDEST PUSH1 0x0 DUP3 DUP2 MSTORE PUSH1 0x4 PUSH1 0x20 MSTORE PUSH1 0x40 SWAP1 KECCAK256 PUSH1 0x2 ADD SLOAD PUSH1 0xFF AND LT PUSH2 0xFD8 JUMPI PUSH1 0x0 DUP2 DUP2 MSTORE PUSH1 0x4 PUSH1 0x20 MSTORE PUSH1 0x40 SWAP1 KECCAK256 PUSH2 0xF73 SWAP1 PUSH2 0x242D JUMP JUMPDEST PUSH1 0x40 MLOAD DUP2 DUP2 MSTORE PUSH1 0x0 DUP1 MLOAD PUSH1 0x20 PUSH2 0x3BFF DUP4 CODECOPY DUP2 MLOAD SWAP2 MSTORE SWAP1 PUSH1 0x20 ADD PUSH1 0x40 MLOAD DUP1 SWAP2 SUB SWAP1 LOG1 PUSH2 0xF9E DUP6 DUP6 PUSH2 0x2584 JUMP JUMPDEST DUP2 SLOAD PUSH1 0x1 SWAP1 DUP4 SWAP1 PUSH1 0x0 SWAP1 PUSH2 0xFB9 SWAP1 DUP5 SWAP1 PUSH4 0xFFFFFFFF AND PUSH2 0x357C JUMP JUMPDEST SWAP3 POP PUSH2 0x100 EXP DUP2 SLOAD DUP2 PUSH4 0xFFFFFFFF MUL NOT AND SWAP1 DUP4 PUSH4 0xFFFFFFFF AND MUL OR SWAP1 SSTORE POP JUMPDEST POP POP POP POP POP JUMP JUMPDEST PUSH2 0xFF7 PUSH1 0x0 DUP1 MLOAD PUSH1 0x20 PUSH2 0x3C1F DUP4 CODECOPY DUP2 MLOAD SWAP2 MSTORE CALLER PUSH2 0x14C7 JUMP JUMPDEST PUSH2 0x1013 JUMPI PUSH1 0x40 MLOAD PUSH3 0x461BCD PUSH1 0xE5 SHL DUP2 MSTORE PUSH1 0x4 ADD PUSH2 0x561 SWAP1 PUSH2 0x32FC JUMP JUMPDEST PUSH1 0x0 DUP6 DUP2 MSTORE PUSH1 0x1 PUSH1 0x20 MSTORE PUSH1 0x40 DUP2 KECCAK256 SLOAD SWAP1 SUB PUSH2 0x1040 JUMPI PUSH1 0x40 MLOAD PUSH3 0x461BCD PUSH1 0xE5 SHL DUP2 MSTORE PUSH1 0x4 ADD PUSH2 0x561 SWAP1 PUSH2 0x336A JUMP JUMPDEST PUSH1 0x0 DUP5 PUSH1 0x3 DUP2 GT ISZERO PUSH2 0x1054 JUMPI PUSH2 0x1054 PUSH2 0x30A1 JUMP JUMPDEST LT ISZERO DUP1 ISZERO PUSH2 0x1074 JUMPI POP PUSH1 0x3 DUP5 PUSH1 0x3 DUP2 GT ISZERO PUSH2 0x1071 JUMPI PUSH2 0x1071 PUSH2 0x30A1 JUMP JUMPDEST GT ISZERO JUMPDEST PUSH2 0x10BC JUMPI PUSH1 0x40 MLOAD PUSH3 0x461BCD PUSH1 0xE5 SHL DUP2 MSTORE PUSH1 0x20 PUSH1 0x4 DUP3 ADD MSTORE PUSH1 0x19 PUSH1 0x24 DUP3 ADD MSTORE PUSH25 0x105C1C1C9958DA585D1A5BDB881A5CC81B9BDD081D985B1A59 PUSH1 0x3A SHL PUSH1 0x44 DUP3 ADD MSTORE PUSH1 0x64 ADD PUSH2 0x561 JUMP JUMPDEST PUSH1 0x0 DUP4 PUSH1 0x2 DUP2 GT ISZERO PUSH2 0x10D0 JUMPI PUSH2 0x10D0 PUSH2 0x30A1 JUMP JUMPDEST LT ISZERO DUP1 ISZERO PUSH2 0x10F0 JUMPI POP PUSH1 0x2 DUP4 PUSH1 0x2 DUP2 GT ISZERO PUSH2 0x10ED JUMPI PUSH2 0x10ED PUSH2 0x30A1 JUMP JUMPDEST GT ISZERO JUMPDEST PUSH2 0x1132 JUMPI PUSH1 0x40 MLOAD PUSH3 0x461BCD PUSH1 0xE5 SHL DUP2 MSTORE PUSH1 0x20 PUSH1 0x4 DUP3 ADD MSTORE PUSH1 0x13 PUSH1 0x24 DUP3 ADD MSTORE PUSH19 0x111959DC9959481A5CC81B9BDD081D985B1A59 PUSH1 0x6A SHL PUSH1 0x44 DUP3 ADD MSTORE PUSH1 0x64 ADD PUSH2 0x561 JUMP JUMPDEST PUSH1 0x0 DUP3 PUSH1 0xF DUP2 GT ISZERO PUSH2 0x1146 JUMPI PUSH2 0x1146 PUSH2 0x30A1 JUMP JUMPDEST LT ISZERO DUP1 ISZERO PUSH2 0x1166 JUMPI POP PUSH1 0xF DUP3 PUSH1 0xF DUP2 GT ISZERO PUSH2 0x1163 JUMPI PUSH2 0x1163 PUSH2 0x30A1 JUMP JUMPDEST GT ISZERO JUMPDEST PUSH2 0x11A9 JUMPI PUSH1 0x40 MLOAD PUSH3 0x461BCD PUSH1 0xE5 SHL DUP2 MSTORE PUSH1 0x20 PUSH1 0x4 DUP3 ADD MSTORE PUSH1 0x14 PUSH1 0x24 DUP3 ADD MSTORE PUSH20 0x141C9BD9DC985B481A5CC81B9BDD081D985B1A59 PUSH1 0x62 SHL PUSH1 0x44 DUP3 ADD MSTORE PUSH1 0x64 ADD PUSH2 0x561 JUMP JUMPDEST PUSH1 0x7 PUSH1 0x0 DUP7 DUP7 DUP7 DUP7 PUSH1 0x40 MLOAD PUSH1 0x20 ADD PUSH2 0x11C4 SWAP5 SWAP4 SWAP3 SWAP2 SWAP1 PUSH2 0x35D7 JUMP JUMPDEST PUSH1 0x40 DUP1 MLOAD PUSH1 0x1F NOT DUP2 DUP5 SUB ADD DUP2 MSTORE SWAP2 DUP2 MSTORE DUP2 MLOAD PUSH1 0x20 SWAP3 DUP4 ADD KECCAK256 DUP4 MSTORE SWAP1 DUP3 ADD SWAP3 SWAP1 SWAP3 MSTORE ADD PUSH1 0x0 KECCAK256 PUSH1 0x2 ADD SLOAD PUSH1 0xFF AND ISZERO ISZERO PUSH1 0x1 EQ PUSH2 0x1241 JUMPI PUSH1 0x40 MLOAD PUSH3 0x461BCD PUSH1 0xE5 SHL DUP2 MSTORE PUSH1 0x20 PUSH1 0x4 DUP3 ADD MSTORE PUSH1 0x1E PUSH1 0x24 DUP3 ADD MSTORE PUSH32 0x5468697320636572746966696361746520646F65736E27742065786973740000 PUSH1 0x44 DUP3 ADD MSTORE PUSH1 0x64 ADD PUSH2 0x561 JUMP JUMPDEST PUSH1 0x0 DUP6 DUP6 DUP6 DUP6 PUSH1 0x40 MLOAD PUSH1 0x20 ADD PUSH2 0x125A SWAP5 SWAP4 SWAP3 SWAP2 SWAP1 PUSH2 0x360C JUMP JUMPDEST PUSH1 0x40 MLOAD PUSH1 0x20 DUP2 DUP4 SUB SUB DUP2 MSTORE SWAP1 PUSH1 0x40 MSTORE DUP1 MLOAD SWAP1 PUSH1 0x20 ADD KECCAK256 SWAP1 POP PUSH2 0x1318 DUP2 PUSH1 0x0 DUP1 MLOAD PUSH1 0x20 PUSH2 0x3C1F DUP4 CODECOPY DUP2 MLOAD SWAP2 MSTORE DUP9 PUSH1 0x40 MLOAD PUSH1 0x20 ADD PUSH2 0x1298 SWAP2 DUP2 MSTORE PUSH1 0x20 ADD SWAP1 JUMP JUMPDEST PUSH1 0x40 MLOAD PUSH1 0x20 DUP2 DUP4 SUB SUB DUP2 MSTORE SWAP1 PUSH1 0x40 MSTORE DUP9 PUSH1 0x40 MLOAD PUSH1 0x20 ADD PUSH2 0x12B8 SWAP2 SWAP1 PUSH2 0x3650 JUMP JUMPDEST PUSH1 0x40 MLOAD PUSH1 0x20 DUP2 DUP4 SUB SUB DUP2 MSTORE SWAP1 PUSH1 0x40 MSTORE DUP9 PUSH1 0x40 MLOAD PUSH1 0x20 ADD PUSH2 0x12D8 SWAP2 SWAP1 PUSH2 0x3662 JUMP JUMPDEST PUSH1 0x40 MLOAD PUSH1 0x20 DUP2 DUP4 SUB SUB DUP2 MSTORE SWAP1 PUSH1 0x40 MSTORE DUP9 PUSH1 0x40 MLOAD PUSH1 0x20 ADD PUSH2 0x12F8 SWAP2 SWAP1 PUSH2 0x366C JUMP JUMPDEST PUSH1 0x40 DUP1 MLOAD PUSH1 0x1F NOT DUP2 DUP5 SUB ADD DUP2 MSTORE SWAP1 DUP3 SWAP1 MSTORE PUSH2 0x63E SWAP5 SWAP4 SWAP3 SWAP2 PUSH1 0x20 ADD PUSH2 0x3676 JUMP JUMPDEST DUP2 DUP1 ISZERO PUSH2 0x1342 JUMPI POP PUSH1 0x0 DUP2 DUP2 MSTORE PUSH1 0x4 PUSH1 0x20 SWAP1 DUP2 MSTORE PUSH1 0x40 DUP1 DUP4 KECCAK256 CALLER DUP5 MSTORE PUSH1 0x3 ADD SWAP1 SWAP2 MSTORE SWAP1 KECCAK256 SLOAD PUSH1 0xFF AND ISZERO JUMPDEST ISZERO PUSH2 0x1385 JUMPI PUSH1 0x0 DUP2 DUP2 MSTORE PUSH1 0x4 PUSH1 0x20 MSTORE PUSH1 0x40 SWAP1 KECCAK256 PUSH2 0x135F SWAP1 CALLER PUSH2 0x2248 JUMP JUMPDEST PUSH1 0x40 MLOAD DUP2 DUP2 MSTORE PUSH1 0x0 DUP1 MLOAD PUSH1 0x20 PUSH2 0x3BDF DUP4 CODECOPY DUP2 MLOAD SWAP2 MSTORE SWAP1 PUSH1 0x20 ADD PUSH1 0x40 MLOAD DUP1 SWAP2 SUB SWAP1 LOG1 PUSH2 0x13C9 JUMP JUMPDEST DUP2 ISZERO ISZERO PUSH1 0x0 SUB PUSH2 0x13C9 JUMPI PUSH1 0x0 DUP2 DUP2 MSTORE PUSH1 0x4 PUSH1 0x20 MSTORE PUSH1 0x40 SWAP1 KECCAK256 PUSH2 0x13A7 SWAP1 CALLER PUSH2 0x2375 JUMP JUMPDEST PUSH1 0x40 MLOAD DUP2 DUP2 MSTORE PUSH1 0x0 DUP1 MLOAD PUSH1 0x20 PUSH2 0x3BDF DUP4 CODECOPY DUP2 MLOAD SWAP2 MSTORE SWAP1 PUSH1 0x20 ADD PUSH1 0x40 MLOAD DUP1 SWAP2 SUB SWAP1 LOG1 JUMPDEST PUSH1 0x0 DUP1 MLOAD PUSH1 0x20 PUSH2 0x3C1F DUP4 CODECOPY DUP2 MLOAD SWAP2 MSTORE PUSH1 0x0 MSTORE PUSH1 0x3 PUSH1 0x20 MSTORE PUSH32 0x4ED60087A82BD97D8AFA881E356D9B31A57E1F4FA6C3493C1181428B0C33562 SLOAD PUSH2 0x1418 SWAP1 PUSH2 0x752 SWAP1 PUSH1 0x50 SWAP1 PUSH4 0xFFFFFFFF AND PUSH2 0x33EE JUMP JUMPDEST PUSH1 0x0 DUP3 DUP2 MSTORE PUSH1 0x4 PUSH1 0x20 MSTORE PUSH1 0x40 SWAP1 KECCAK256 PUSH1 0x2 ADD SLOAD PUSH1 0xFF AND LT PUSH2 0x14BF JUMPI PUSH1 0x0 DUP2 DUP2 MSTORE PUSH1 0x4 PUSH1 0x20 MSTORE PUSH1 0x40 SWAP1 KECCAK256 PUSH2 0x1449 SWAP1 PUSH2 0x242D JUMP JUMPDEST PUSH1 0x40 MLOAD DUP2 DUP2 MSTORE PUSH1 0x0 DUP1 MLOAD PUSH1 0x20 PUSH2 0x3BFF DUP4 CODECOPY DUP2 MLOAD SWAP2 MSTORE SWAP1 PUSH1 0x20 ADD PUSH1 0x40 MLOAD DUP1 SWAP2 SUB SWAP1 LOG1 PUSH1 0x0 PUSH1 0x7 PUSH1 0x0 DUP9 DUP9 DUP9 DUP9 PUSH1 0x40 MLOAD PUSH1 0x20 ADD PUSH2 0x1487 SWAP5 SWAP4 SWAP3 SWAP2 SWAP1 PUSH2 0x35D7 JUMP JUMPDEST PUSH1 0x40 DUP1 MLOAD DUP1 DUP4 SUB PUSH1 0x1F NOT ADD DUP2 MSTORE SWAP2 DUP2 MSTORE DUP2 MLOAD PUSH1 0x20 SWAP3 DUP4 ADD KECCAK256 DUP4 MSTORE SWAP1 DUP3 ADD SWAP3 SWAP1 SWAP3 MSTORE ADD PUSH1 0x0 KECCAK256 PUSH1 0x2 ADD DUP1 SLOAD PUSH1 0xFF NOT AND SWAP2 ISZERO ISZERO SWAP2 SWAP1 SWAP2 OR SWAP1 SSTORE JUMPDEST POP POP POP POP POP POP JUMP JUMPDEST PUSH1 0x0 SWAP2 DUP3 MSTORE PUSH1 0x20 DUP3 DUP2 MSTORE PUSH1 0x40 DUP1 DUP5 KECCAK256 PUSH1 0x1 PUSH1 0x1 PUSH1 0xA0 SHL SUB SWAP4 SWAP1 SWAP4 AND DUP5 MSTORE SWAP2 SWAP1 MSTORE SWAP1 KECCAK256 SLOAD PUSH1 0xFF AND SWAP1 JUMP JUMPDEST PUSH2 0x1508 PUSH1 0x0 DUP1 MLOAD PUSH1 0x20 PUSH2 0x3C1F DUP4 CODECOPY DUP2 MLOAD SWAP2 MSTORE CALLER PUSH2 0x14C7 JUMP JUMPDEST PUSH2 0x1524 JUMPI PUSH1 0x40 MLOAD PUSH3 0x461BCD PUSH1 0xE5 SHL DUP2 MSTORE PUSH1 0x4 ADD PUSH2 0x561 SWAP1 PUSH2 0x32FC JUMP JUMPDEST PUSH1 0x0 DUP5 GT PUSH2 0x1544 JUMPI PUSH1 0x40 MLOAD PUSH3 0x461BCD PUSH1 0xE5 SHL DUP2 MSTORE PUSH1 0x4 ADD PUSH2 0x561 SWAP1 PUSH2 0x3333 JUMP JUMPDEST PUSH1 0x0 DUP4 MLOAD GT PUSH2 0x1595 JUMPI PUSH1 0x40 MLOAD PUSH3 0x461BCD PUSH1 0xE5 SHL DUP2 MSTORE PUSH1 0x20 PUSH1 0x4 DUP3 ADD MSTORE PUSH1 0x19 PUSH1 0x24 DUP3 ADD MSTORE PUSH32 0x46697273746E616D652063616E6E6F7420626520656D70747900000000000000 PUSH1 0x44 DUP3 ADD MSTORE PUSH1 0x64 ADD PUSH2 0x561 JUMP JUMPDEST PUSH1 0x0 DUP3 MLOAD GT PUSH2 0x15E6 JUMPI PUSH1 0x40 MLOAD PUSH3 0x461BCD PUSH1 0xE5 SHL DUP2 MSTORE PUSH1 0x20 PUSH1 0x4 DUP3 ADD MSTORE PUSH1 0x18 PUSH1 0x24 DUP3 ADD MSTORE PUSH32 0x4C6173746E616D652063616E6E6F7420626520656D7074790000000000000000 PUSH1 0x44 DUP3 ADD MSTORE PUSH1 0x64 ADD PUSH2 0x561 JUMP JUMPDEST PUSH1 0x0 DUP2 GT PUSH2 0x1636 JUMPI PUSH1 0x40 MLOAD PUSH3 0x461BCD PUSH1 0xE5 SHL DUP2 MSTORE PUSH1 0x20 PUSH1 0x4 DUP3 ADD DUP2 SWAP1 MSTORE PUSH1 0x24 DUP3 ADD MSTORE PUSH32 0x426972746864617465206D7573742062652067726561746572207468616E2030 PUSH1 0x44 DUP3 ADD MSTORE PUSH1 0x64 ADD PUSH2 0x561 JUMP JUMPDEST PUSH1 0x0 DUP5 DUP2 MSTORE PUSH1 0x1 PUSH1 0x20 MSTORE PUSH1 0x40 SWAP1 KECCAK256 SLOAD ISZERO PUSH2 0x1692 JUMPI PUSH1 0x40 MLOAD PUSH3 0x461BCD PUSH1 0xE5 SHL DUP2 MSTORE PUSH1 0x20 PUSH1 0x4 DUP3 ADD MSTORE PUSH1 0x1B PUSH1 0x24 DUP3 ADD MSTORE PUSH32 0x546869732073747564656E7420616C7265616479206578697374730000000000 PUSH1 0x44 DUP3 ADD MSTORE PUSH1 0x64 ADD PUSH2 0x561 JUMP JUMPDEST PUSH2 0x169E DUP5 DUP5 DUP5 DUP5 PUSH2 0x2608 JUMP JUMPDEST POP POP POP POP JUMP JUMPDEST PUSH2 0x16BC PUSH1 0x0 DUP1 MLOAD PUSH1 0x20 PUSH2 0x3C1F DUP4 CODECOPY DUP2 MLOAD SWAP2 MSTORE CALLER PUSH2 0x14C7 JUMP JUMPDEST PUSH2 0x16D8 JUMPI PUSH1 0x40 MLOAD PUSH3 0x461BCD PUSH1 0xE5 SHL DUP2 MSTORE PUSH1 0x4 ADD PUSH2 0x561 SWAP1 PUSH2 0x32FC JUMP JUMPDEST PUSH1 0x0 DUP6 DUP2 MSTORE PUSH1 0x1 PUSH1 0x20 MSTORE PUSH1 0x40 DUP2 KECCAK256 SLOAD SWAP1 SUB PUSH2 0x1705 JUMPI PUSH1 0x40 MLOAD PUSH3 0x461BCD PUSH1 0xE5 SHL DUP2 MSTORE PUSH1 0x4 ADD PUSH2 0x561 SWAP1 PUSH2 0x336A JUMP JUMPDEST PUSH1 0x0 DUP5 PUSH1 0x3 DUP2 GT ISZERO PUSH2 0x1719 JUMPI PUSH2 0x1719 PUSH2 0x30A1 JUMP JUMPDEST LT ISZERO DUP1 ISZERO PUSH2 0x1739 JUMPI POP PUSH1 0x3 DUP5 PUSH1 0x3 DUP2 GT ISZERO PUSH2 0x1736 JUMPI PUSH2 0x1736 PUSH2 0x30A1 JUMP JUMPDEST GT ISZERO JUMPDEST PUSH2 0x1781 JUMPI PUSH1 0x40 MLOAD PUSH3 0x461BCD PUSH1 0xE5 SHL DUP2 MSTORE PUSH1 0x20 PUSH1 0x4 DUP3 ADD MSTORE PUSH1 0x19 PUSH1 0x24 DUP3 ADD MSTORE PUSH25 0x105C1C1C9958DA585D1A5BDB881A5CC81B9BDD081D985B1A59 PUSH1 0x3A SHL PUSH1 0x44 DUP3 ADD MSTORE PUSH1 0x64 ADD PUSH2 0x561 JUMP JUMPDEST PUSH1 0x0 DUP4 PUSH1 0x2 DUP2 GT ISZERO PUSH2 0x1795 JUMPI PUSH2 0x1795 PUSH2 0x30A1 JUMP JUMPDEST LT ISZERO DUP1 ISZERO PUSH2 0x17B5 JUMPI POP PUSH1 0x2 DUP4 PUSH1 0x2 DUP2 GT ISZERO PUSH2 0x17B2 JUMPI PUSH2 0x17B2 PUSH2 0x30A1 JUMP JUMPDEST GT ISZERO JUMPDEST PUSH2 0x17F7 JUMPI PUSH1 0x40 MLOAD PUSH3 0x461BCD PUSH1 0xE5 SHL DUP2 MSTORE PUSH1 0x20 PUSH1 0x4 DUP3 ADD MSTORE PUSH1 0x13 PUSH1 0x24 DUP3 ADD MSTORE PUSH19 0x111959DC9959481A5CC81B9BDD081D985B1A59 PUSH1 0x6A SHL PUSH1 0x44 DUP3 ADD MSTORE PUSH1 0x64 ADD PUSH2 0x561 JUMP JUMPDEST PUSH1 0x0 DUP3 PUSH1 0xF DUP2 GT ISZERO PUSH2 0x180B JUMPI PUSH2 0x180B PUSH2 0x30A1 JUMP JUMPDEST LT ISZERO DUP1 ISZERO PUSH2 0x182B JUMPI POP PUSH1 0xF DUP3 PUSH1 0xF DUP2 GT ISZERO PUSH2 0x1828 JUMPI PUSH2 0x1828 PUSH2 0x30A1 JUMP JUMPDEST GT ISZERO JUMPDEST PUSH2 0x186E JUMPI PUSH1 0x40 MLOAD PUSH3 0x461BCD PUSH1 0xE5 SHL DUP2 MSTORE PUSH1 0x20 PUSH1 0x4 DUP3 ADD MSTORE PUSH1 0x14 PUSH1 0x24 DUP3 ADD MSTORE PUSH20 0x141C9BD9DC985B481A5CC81B9BDD081D985B1A59 PUSH1 0x62 SHL PUSH1 0x44 DUP3 ADD MSTORE PUSH1 0x64 ADD PUSH2 0x561 JUMP JUMPDEST PUSH1 0x7 PUSH1 0x0 DUP7 DUP7 DUP7 DUP7 PUSH1 0x40 MLOAD PUSH1 0x20 ADD PUSH2 0x1889 SWAP5 SWAP4 SWAP3 SWAP2 SWAP1 PUSH2 0x35D7 JUMP JUMPDEST PUSH1 0x40 DUP1 MLOAD PUSH1 0x1F NOT DUP2 DUP5 SUB ADD DUP2 MSTORE SWAP2 DUP2 MSTORE DUP2 MLOAD PUSH1 0x20 SWAP3 DUP4 ADD KECCAK256 DUP4 MSTORE SWAP1 DUP3 ADD SWAP3 SWAP1 SWAP3 MSTORE ADD PUSH1 0x0 KECCAK256 PUSH1 0x2 ADD SLOAD PUSH1 0xFF AND ISZERO PUSH2 0x1902 JUMPI PUSH1 0x40 MLOAD PUSH3 0x461BCD PUSH1 0xE5 SHL DUP2 MSTORE PUSH1 0x20 PUSH1 0x4 DUP3 ADD MSTORE PUSH1 0x1F PUSH1 0x24 DUP3 ADD MSTORE PUSH32 0x5468697320636572746966696361746520616C72656164792065786973747300 PUSH1 0x44 DUP3 ADD MSTORE PUSH1 0x64 ADD PUSH2 0x561 JUMP JUMPDEST PUSH1 0x0 DUP6 DUP6 DUP6 DUP6 PUSH1 0x40 MLOAD PUSH1 0x20 ADD PUSH2 0x191B SWAP5 SWAP4 SWAP3 SWAP2 SWAP1 PUSH2 0x3701 JUMP JUMPDEST PUSH1 0x40 MLOAD PUSH1 0x20 DUP2 DUP4 SUB SUB DUP2 MSTORE SWAP1 PUSH1 0x40 MSTORE DUP1 MLOAD SWAP1 PUSH1 0x20 ADD KECCAK256 SWAP1 POP PUSH2 0x19D9 DUP2 PUSH1 0x0 DUP1 MLOAD PUSH1 0x20 PUSH2 0x3C1F DUP4 CODECOPY DUP2 MLOAD SWAP2 MSTORE DUP9 PUSH1 0x40 MLOAD PUSH1 0x20 ADD PUSH2 0x1959 SWAP2 DUP2 MSTORE PUSH1 0x20 ADD SWAP1 JUMP JUMPDEST PUSH1 0x40 MLOAD PUSH1 0x20 DUP2 DUP4 SUB SUB DUP2 MSTORE SWAP1 PUSH1 0x40 MSTORE DUP9 PUSH1 0x40 MLOAD PUSH1 0x20 ADD PUSH2 0x1979 SWAP2 SWAP1 PUSH2 0x3650 JUMP JUMPDEST PUSH1 0x40 MLOAD PUSH1 0x20 DUP2 DUP4 SUB SUB DUP2 MSTORE SWAP1 PUSH1 0x40 MSTORE DUP9 PUSH1 0x40 MLOAD PUSH1 0x20 ADD PUSH2 0x1999 SWAP2 SWAP1 PUSH2 0x3662 JUMP JUMPDEST PUSH1 0x40 MLOAD PUSH1 0x20 DUP2 DUP4 SUB SUB DUP2 MSTORE SWAP1 PUSH1 0x40 MSTORE DUP9 PUSH1 0x40 MLOAD PUSH1 0x20 ADD PUSH2 0x19B9 SWAP2 SWAP1 PUSH2 0x366C JUMP JUMPDEST PUSH1 0x40 DUP1 MLOAD PUSH1 0x1F NOT DUP2 DUP5 SUB ADD DUP2 MSTORE SWAP1 DUP3 SWAP1 MSTORE PUSH2 0x63E SWAP5 SWAP4 SWAP3 SWAP2 PUSH1 0x20 ADD PUSH2 0x3746 JUMP JUMPDEST DUP2 DUP1 ISZERO PUSH2 0x1A03 JUMPI POP PUSH1 0x0 DUP2 DUP2 MSTORE PUSH1 0x4 PUSH1 0x20 SWAP1 DUP2 MSTORE PUSH1 0x40 DUP1 DUP4 KECCAK256 CALLER DUP5 MSTORE PUSH1 0x3 ADD SWAP1 SWAP2 MSTORE SWAP1 KECCAK256 SLOAD PUSH1 0xFF AND ISZERO JUMPDEST ISZERO PUSH2 0x1A46 JUMPI PUSH1 0x0 DUP2 DUP2 MSTORE PUSH1 0x4 PUSH1 0x20 MSTORE PUSH1 0x40 SWAP1 KECCAK256 PUSH2 0x1A20 SWAP1 CALLER PUSH2 0x2248 JUMP JUMPDEST PUSH1 0x40 MLOAD DUP2 DUP2 MSTORE PUSH1 0x0 DUP1 MLOAD PUSH1 0x20 PUSH2 0x3BDF DUP4 CODECOPY DUP2 MLOAD SWAP2 MSTORE SWAP1 PUSH1 0x20 ADD PUSH1 0x40 MLOAD DUP1 SWAP2 SUB SWAP1 LOG1 PUSH2 0x1A8A JUMP JUMPDEST DUP2 ISZERO ISZERO PUSH1 0x0 SUB PUSH2 0x1A8A JUMPI PUSH1 0x0 DUP2 DUP2 MSTORE PUSH1 0x4 PUSH1 0x20 MSTORE PUSH1 0x40 SWAP1 KECCAK256 PUSH2 0x1A68 SWAP1 CALLER PUSH2 0x2375 JUMP JUMPDEST PUSH1 0x40 MLOAD DUP2 DUP2 MSTORE PUSH1 0x0 DUP1 MLOAD PUSH1 0x20 PUSH2 0x3BDF DUP4 CODECOPY DUP2 MLOAD SWAP2 MSTORE SWAP1 PUSH1 0x20 ADD PUSH1 0x40 MLOAD DUP1 SWAP2 SUB SWAP1 LOG1 JUMPDEST PUSH1 0x0 DUP1 MLOAD PUSH1 0x20 PUSH2 0x3C1F DUP4 CODECOPY DUP2 MLOAD SWAP2 MSTORE PUSH1 0x0 MSTORE PUSH1 0x3 PUSH1 0x20 MSTORE PUSH32 0x4ED60087A82BD97D8AFA881E356D9B31A57E1F4FA6C3493C1181428B0C33562 SLOAD PUSH2 0x1AD9 SWAP1 PUSH2 0x752 SWAP1 PUSH1 0x33 SWAP1 PUSH4 0xFFFFFFFF AND PUSH2 0x33EE JUMP JUMPDEST PUSH1 0x0 DUP3 DUP2 MSTORE PUSH1 0x4 PUSH1 0x20 MSTORE PUSH1 0x40 SWAP1 KECCAK256 PUSH1 0x2 ADD SLOAD PUSH1 0xFF AND LT PUSH2 0x14BF JUMPI PUSH1 0x0 DUP2 DUP2 MSTORE PUSH1 0x4 PUSH1 0x20 MSTORE PUSH1 0x40 SWAP1 KECCAK256 PUSH2 0x1B0A SWAP1 PUSH2 0x242D JUMP JUMPDEST PUSH1 0x40 MLOAD DUP2 DUP2 MSTORE PUSH1 0x0 DUP1 MLOAD PUSH1 0x20 PUSH2 0x3BFF DUP4 CODECOPY DUP2 MLOAD SWAP2 MSTORE SWAP1 PUSH1 0x20 ADD PUSH1 0x40 MLOAD DUP1 SWAP2 SUB SWAP1 LOG1 PUSH2 0x14BF DUP7 DUP7 DUP7 DUP7 PUSH2 0x2781 JUMP JUMPDEST PUSH1 0x0 PUSH2 0x1B43 DUP3 DUP5 PUSH2 0x37E8 JUMP JUMPDEST PUSH1 0x0 SUB PUSH2 0x1B5B JUMPI PUSH2 0x1B54 DUP3 DUP5 PUSH2 0x37FC JUMP JUMPDEST SWAP1 POP PUSH2 0x527 JUMP JUMPDEST PUSH2 0x1B65 DUP3 DUP5 PUSH2 0x37FC JUMP JUMPDEST PUSH2 0x1B54 SWAP1 PUSH1 0x1 PUSH2 0x3810 JUMP JUMPDEST PUSH2 0x1B88 PUSH1 0x0 DUP1 MLOAD PUSH1 0x20 PUSH2 0x3C1F DUP4 CODECOPY DUP2 MLOAD SWAP2 MSTORE CALLER PUSH2 0x14C7 JUMP JUMPDEST PUSH2 0x1BA4 JUMPI PUSH1 0x40 MLOAD PUSH3 0x461BCD PUSH1 0xE5 SHL DUP2 MSTORE PUSH1 0x4 ADD PUSH2 0x561 SWAP1 PUSH2 0x32FC JUMP JUMPDEST PUSH1 0x0 DUP5 GT PUSH2 0x1BC4 JUMPI PUSH1 0x40 MLOAD PUSH3 0x461BCD PUSH1 0xE5 SHL DUP2 MSTORE PUSH1 0x4 ADD PUSH2 0x561 SWAP1 PUSH2 0x3333 JUMP JUMPDEST PUSH1 0x0 DUP5 DUP2 MSTORE PUSH1 0x1 PUSH1 0x20 MSTORE PUSH1 0x40 DUP2 KECCAK256 SLOAD SWAP1 SUB PUSH2 0x1BF1 JUMPI PUSH1 0x40 MLOAD PUSH3 0x461BCD PUSH1 0xE5 SHL DUP2 MSTORE PUSH1 0x4 ADD PUSH2 0x561 SWAP1 PUSH2 0x336A JUMP JUMPDEST PUSH2 0x169E DUP5 DUP5 DUP5 DUP5 PUSH2 0x294F JUMP JUMPDEST PUSH1 0x0 DUP4 DUP2 MSTORE PUSH1 0x3 PUSH1 0x20 SWAP1 DUP2 MSTORE PUSH1 0x40 SWAP2 DUP3 SWAP1 KECCAK256 DUP1 SLOAD PUSH1 0x2 DUP3 ADD SLOAD DUP5 MLOAD SWAP4 DUP5 ADD MSTORE SWAP1 SWAP3 PUSH4 0xFFFFFFFF PUSH5 0x100000000 DUP4 DIV DUP2 AND SWAP3 AND SWAP2 SWAP1 SWAP2 GT SWAP2 ADD PUSH1 0x40 DUP1 MLOAD PUSH1 0x1F NOT DUP2 DUP5 SUB ADD DUP2 MSTORE SWAP1 DUP3 SWAP1 MSTORE PUSH2 0x1C52 SWAP2 PUSH1 0x20 ADD PUSH2 0x3823 JUMP JUMPDEST PUSH1 0x40 MLOAD PUSH1 0x20 DUP2 DUP4 SUB SUB DUP2 MSTORE SWAP1 PUSH1 0x40 MSTORE SWAP1 PUSH2 0x1C7F JUMPI PUSH1 0x40 MLOAD PUSH3 0x461BCD PUSH1 0xE5 SHL DUP2 MSTORE PUSH1 0x4 ADD PUSH2 0x561 SWAP2 SWAP1 PUSH2 0x348E JUMP JUMPDEST POP PUSH2 0x1C8A DUP5 DUP5 PUSH2 0x14C7 JUMP JUMPDEST DUP2 PUSH1 0x2 ADD SLOAD PUSH1 0x40 MLOAD PUSH1 0x20 ADD PUSH2 0x1CA1 SWAP2 DUP2 MSTORE PUSH1 0x20 ADD SWAP1 JUMP JUMPDEST PUSH1 0x40 DUP1 MLOAD PUSH1 0x1F NOT DUP2 DUP5 SUB ADD DUP2 MSTORE SWAP1 DUP3 SWAP1 MSTORE PUSH2 0x1CBE SWAP2 PUSH1 0x20 ADD PUSH2 0x3842 JUMP JUMPDEST PUSH1 0x40 MLOAD PUSH1 0x20 DUP2 DUP4 SUB SUB DUP2 MSTORE SWAP1 PUSH1 0x40 MSTORE SWAP1 PUSH2 0x1CEB JUMPI PUSH1 0x40 MLOAD PUSH3 0x461BCD PUSH1 0xE5 SHL DUP2 MSTORE PUSH1 0x4 ADD PUSH2 0x561 SWAP2 SWAP1 PUSH2 0x348E JUMP JUMPDEST POP PUSH2 0x1CFA DUP2 PUSH1 0x1 ADD SLOAD CALLER PUSH2 0x14C7 JUMP JUMPDEST DUP2 PUSH1 0x2 ADD SLOAD PUSH1 0x40 MLOAD PUSH1 0x20 ADD PUSH2 0x1D11 SWAP2 DUP2 MSTORE PUSH1 0x20 ADD SWAP1 JUMP JUMPDEST PUSH1 0x40 DUP1 MLOAD PUSH1 0x1F NOT DUP2 DUP5 SUB ADD DUP2 MSTORE SWAP1 DUP3 SWAP1 MSTORE PUSH2 0x1D2E SWAP2 PUSH1 0x20 ADD PUSH2 0x34A1 JUMP JUMPDEST PUSH1 0x40 MLOAD PUSH1 0x20 DUP2 DUP4 SUB SUB DUP2 MSTORE SWAP1 PUSH1 0x40 MSTORE SWAP1 PUSH2 0x1D5B JUMPI PUSH1 0x40 MLOAD PUSH3 0x461BCD PUSH1 0xE5 SHL DUP2 MSTORE PUSH1 0x4 ADD PUSH2 0x561 SWAP2 SWAP1 PUSH2 0x348E JUMP JUMPDEST POP PUSH1 0x40 MLOAD PUSH1 0x1 PUSH1 0x1 PUSH1 0x60 SHL SUB NOT PUSH1 0x60 DUP6 SWAP1 SHL AND PUSH1 0x20 DUP3 ADD MSTORE PUSH6 0x5245564F4B45 PUSH1 0xD0 SHL PUSH1 0x34 DUP3 ADD MSTORE PUSH1 0x3A DUP2 ADD DUP6 SWAP1 MSTORE PUSH1 0x0 SWAP1 PUSH1 0x5A ADD PUSH1 0x40 MLOAD PUSH1 0x20 DUP2 DUP4 SUB SUB DUP2 MSTORE SWAP1 PUSH1 0x40 MSTORE DUP1 MLOAD SWAP1 PUSH1 0x20 ADD KECCAK256 SWAP1 POP PUSH2 0x1E0B DUP2 DUP4 PUSH1 0x1 ADD SLOAD DUP5 PUSH1 0x2 ADD SLOAD PUSH1 0x40 MLOAD PUSH1 0x20 ADD PUSH2 0x1DC7 SWAP2 DUP2 MSTORE PUSH1 0x20 ADD SWAP1 JUMP JUMPDEST PUSH1 0x40 DUP1 MLOAD DUP1 DUP4 SUB PUSH1 0x1F NOT ADD DUP2 MSTORE DUP3 DUP3 MSTORE PUSH1 0x60 DUP11 SWAP1 SHL PUSH1 0x1 PUSH1 0x1 PUSH1 0x60 SHL SUB NOT AND PUSH1 0x20 DUP5 ADD MSTORE DUP2 MLOAD PUSH1 0x14 DUP2 DUP6 SUB ADD DUP2 MSTORE PUSH1 0x34 DUP5 ADD SWAP1 SWAP3 MSTORE PUSH2 0x63E SWAP3 SWAP1 SWAP2 SWAP1 PUSH1 0x54 ADD PUSH2 0x3880 JUMP JUMPDEST DUP3 DUP1 ISZERO PUSH2 0x1E35 JUMPI POP PUSH1 0x0 DUP2 DUP2 MSTORE PUSH1 0x4 PUSH1 0x20 SWAP1 DUP2 MSTORE PUSH1 0x40 DUP1 DUP4 KECCAK256 CALLER DUP5 MSTORE PUSH1 0x3 ADD SWAP1 SWAP2 MSTORE SWAP1 KECCAK256 SLOAD PUSH1 0xFF AND ISZERO JUMPDEST ISZERO PUSH2 0x1E78 JUMPI PUSH1 0x0 DUP2 DUP2 MSTORE PUSH1 0x4 PUSH1 0x20 MSTORE PUSH1 0x40 SWAP1 KECCAK256 PUSH2 0x1E52 SWAP1 CALLER PUSH2 0x2248 JUMP JUMPDEST PUSH1 0x40 MLOAD DUP2 DUP2 MSTORE PUSH1 0x0 DUP1 MLOAD PUSH1 0x20 PUSH2 0x3BDF DUP4 CODECOPY DUP2 MLOAD SWAP2 MSTORE SWAP1 PUSH1 0x20 ADD PUSH1 0x40 MLOAD DUP1 SWAP2 SUB SWAP1 LOG1 PUSH2 0x1EBC JUMP JUMPDEST DUP3 ISZERO ISZERO PUSH1 0x0 SUB PUSH2 0x1EBC JUMPI PUSH1 0x0 DUP2 DUP2 MSTORE PUSH1 0x4 PUSH1 0x20 MSTORE PUSH1 0x40 SWAP1 KECCAK256 PUSH2 0x1E9A SWAP1 CALLER PUSH2 0x2375 JUMP JUMPDEST PUSH1 0x40 MLOAD DUP2 DUP2 MSTORE PUSH1 0x0 DUP1 MLOAD PUSH1 0x20 PUSH2 0x3BDF DUP4 CODECOPY DUP2 MLOAD SWAP2 MSTORE SWAP1 PUSH1 0x20 ADD PUSH1 0x40 MLOAD DUP1 SWAP2 SUB SWAP1 LOG1 JUMPDEST DUP2 PUSH1 0x1 ADD SLOAD DUP6 EQ ISZERO DUP1 ISZERO PUSH2 0x1F18 JUMPI POP DUP2 SLOAD PUSH1 0x1 DUP4 ADD SLOAD PUSH1 0x0 SWAP1 DUP2 MSTORE PUSH1 0x3 PUSH1 0x20 MSTORE PUSH1 0x40 SWAP1 KECCAK256 SLOAD PUSH2 0x1F00 SWAP2 PUSH2 0x752 SWAP2 PUSH1 0x1 PUSH1 0x68 SHL SWAP1 SWAP2 DIV PUSH1 0xFF AND SWAP1 PUSH4 0xFFFFFFFF AND PUSH2 0x33EE JUMP JUMPDEST PUSH1 0x0 DUP3 DUP2 MSTORE PUSH1 0x4 PUSH1 0x20 MSTORE PUSH1 0x40 SWAP1 KECCAK256 PUSH1 0x2 ADD SLOAD PUSH1 0xFF AND LT ISZERO JUMPDEST DUP1 PUSH2 0x1F83 JUMPI POP DUP2 PUSH1 0x1 ADD SLOAD DUP6 EQ DUP1 ISZERO PUSH2 0x1F83 JUMPI POP DUP2 SLOAD PUSH1 0x1 DUP1 DUP5 ADD SLOAD PUSH1 0x0 SWAP1 DUP2 MSTORE PUSH1 0x3 PUSH1 0x20 MSTORE PUSH1 0x40 SWAP1 KECCAK256 SLOAD PUSH2 0x1F6B SWAP3 PUSH1 0x1 PUSH1 0x68 SHL SWAP1 DIV PUSH1 0xFF AND SWAP2 PUSH2 0x1F61 SWAP2 PUSH4 0xFFFFFFFF AND PUSH2 0x38CF JUMP JUMPDEST PUSH2 0x752 SWAP2 SWAP1 PUSH2 0x33EE JUMP JUMPDEST PUSH1 0x0 DUP3 DUP2 MSTORE PUSH1 0x4 PUSH1 0x20 MSTORE PUSH1 0x40 SWAP1 KECCAK256 PUSH1 0x2 ADD SLOAD PUSH1 0xFF AND LT ISZERO JUMPDEST ISZERO PUSH2 0xFD8 JUMPI PUSH1 0x0 JUMPDEST PUSH1 0x6 SLOAD DUP2 LT ISZERO PUSH2 0x2094 JUMPI PUSH1 0x0 DUP2 DUP2 MSTORE PUSH1 0x5 PUSH1 0x20 SWAP1 DUP2 MSTORE PUSH1 0x40 DUP1 DUP4 KECCAK256 SLOAD DUP4 MSTORE PUSH1 0x4 DUP3 MSTORE DUP1 DUP4 KECCAK256 PUSH1 0x1 PUSH1 0x1 PUSH1 0xA0 SHL SUB DUP10 AND DUP5 MSTORE PUSH1 0x3 ADD SWAP1 SWAP2 MSTORE SWAP1 KECCAK256 SLOAD PUSH1 0xFF AND ISZERO ISZERO PUSH1 0x1 EQ DUP1 ISZERO PUSH2 0x1FF6 JUMPI POP PUSH1 0x0 DUP2 DUP2 MSTORE PUSH1 0x5 PUSH1 0x20 SWAP1 DUP2 MSTORE PUSH1 0x40 DUP1 DUP4 KECCAK256 SLOAD DUP4 MSTORE PUSH1 0x4 SWAP1 SWAP2 MSTORE SWAP1 KECCAK256 PUSH1 0x1 ADD SLOAD DUP7 EQ JUMPDEST ISZERO PUSH2 0x2082 JUMPI PUSH1 0x0 DUP2 DUP2 MSTORE PUSH1 0x5 PUSH1 0x20 SWAP1 DUP2 MSTORE PUSH1 0x40 DUP1 DUP4 KECCAK256 SLOAD DUP4 MSTORE PUSH1 0x4 SWAP1 SWAP2 MSTORE DUP2 KECCAK256 PUSH1 0x2 ADD DUP1 SLOAD PUSH1 0x1 SWAP3 SWAP1 PUSH2 0x202D SWAP1 DUP5 SWAP1 PUSH1 0xFF AND PUSH2 0x38EC JUMP JUMPDEST DUP3 SLOAD PUSH1 0xFF SWAP2 DUP3 AND PUSH2 0x100 SWAP4 SWAP1 SWAP4 EXP SWAP3 DUP4 MUL SWAP2 SWAP1 SWAP3 MUL NOT SWAP1 SWAP2 AND OR SWAP1 SSTORE POP PUSH1 0x0 DUP2 DUP2 MSTORE PUSH1 0x5 PUSH1 0x20 SWAP1 DUP2 MSTORE PUSH1 0x40 DUP1 DUP4 KECCAK256 SLOAD DUP4 MSTORE PUSH1 0x4 DUP3 MSTORE DUP1 DUP4 KECCAK256 PUSH1 0x1 PUSH1 0x1 PUSH1 0xA0 SHL SUB DUP10 AND DUP5 MSTORE PUSH1 0x3 ADD SWAP1 SWAP2 MSTORE SWAP1 KECCAK256 DUP1 SLOAD PUSH1 0xFF NOT AND SWAP1 SSTORE JUMPDEST DUP1 PUSH2 0x208C DUP2 PUSH2 0x3905 JUMP JUMPDEST SWAP2 POP POP PUSH2 0x1F8B JUMP JUMPDEST POP PUSH1 0x0 DUP2 DUP2 MSTORE PUSH1 0x4 PUSH1 0x20 MSTORE PUSH1 0x40 SWAP1 KECCAK256 PUSH2 0x20AC SWAP1 PUSH2 0x242D JUMP JUMPDEST PUSH1 0x40 MLOAD DUP2 DUP2 MSTORE PUSH1 0x0 DUP1 MLOAD PUSH1 0x20 PUSH2 0x3BFF DUP4 CODECOPY DUP2 MLOAD SWAP2 MSTORE SWAP1 PUSH1 0x20 ADD PUSH1 0x40 MLOAD DUP1 SWAP2 SUB SWAP1 LOG1 PUSH2 0x20D7 DUP6 DUP6 PUSH2 0x2B9F JUMP JUMPDEST DUP2 SLOAD PUSH1 0x1 SWAP1 DUP4 SWAP1 PUSH1 0x0 SWAP1 PUSH2 0xFB9 SWAP1 DUP5 SWAP1 PUSH4 0xFFFFFFFF AND PUSH2 0x38CF JUMP JUMPDEST PUSH1 0x0 DUP3 DUP2 MSTORE PUSH1 0x20 DUP2 SWAP1 MSTORE PUSH1 0x40 SWAP1 KECCAK256 PUSH1 0x1 ADD SLOAD PUSH2 0x210D DUP2 PUSH2 0x2577 JUMP JUMPDEST PUSH2 0x7BA DUP4 DUP4 PUSH2 0x2B9F JUMP JUMPDEST PUSH1 0x2 DUP2 DUP2 SLOAD DUP2 LT PUSH2 0x2127 JUMPI PUSH1 0x0 DUP1 REVERT JUMPDEST PUSH1 0x0 SWAP2 DUP3 MSTORE PUSH1 0x20 SWAP1 SWAP2 KECCAK256 ADD SLOAD SWAP1 POP DUP2 JUMP JUMPDEST PUSH1 0x0 DUP2 DUP2 MSTORE PUSH1 0x1 PUSH1 0x20 MSTORE PUSH1 0x40 DUP2 KECCAK256 SLOAD PUSH1 0x60 SWAP2 SUB PUSH2 0x2167 JUMPI PUSH1 0x40 MLOAD PUSH3 0x461BCD PUSH1 0xE5 SHL DUP2 MSTORE PUSH1 0x4 ADD PUSH2 0x561 SWAP1 PUSH2 0x336A JUMP JUMPDEST PUSH1 0x0 DUP3 DUP2 MSTORE PUSH1 0x8 PUSH1 0x20 SWAP1 DUP2 MSTORE PUSH1 0x40 SWAP2 DUP3 SWAP1 KECCAK256 DUP1 SLOAD DUP4 MLOAD DUP2 DUP5 MUL DUP2 ADD DUP5 ADD SWAP1 SWAP5 MSTORE DUP1 DUP5 MSTORE SWAP1 SWAP2 DUP4 ADD DUP3 DUP3 DUP1 ISZERO PUSH2 0x21BB JUMPI PUSH1 0x20 MUL DUP3 ADD SWAP2 SWAP1 PUSH1 0x0 MSTORE PUSH1 0x20 PUSH1 0x0 KECCAK256 SWAP1 JUMPDEST DUP2 SLOAD DUP2 MSTORE PUSH1 0x20 ADD SWAP1 PUSH1 0x1 ADD SWAP1 DUP1 DUP4 GT PUSH2 0x21A7 JUMPI JUMPDEST POP POP POP POP POP SWAP1 POP SWAP2 SWAP1 POP JUMP JUMPDEST PUSH1 0x0 DUP4 DUP2 MSTORE PUSH1 0x4 PUSH1 0x20 MSTORE PUSH1 0x40 DUP2 KECCAK256 SLOAD PUSH1 0xFF AND ISZERO ISZERO SWAP1 SUB PUSH2 0x7BA JUMPI PUSH1 0x0 DUP4 DUP2 MSTORE PUSH1 0x4 PUSH1 0x20 SWAP1 DUP2 MSTORE PUSH1 0x40 DUP1 DUP4 KECCAK256 DUP1 SLOAD PUSH1 0xFF NOT AND PUSH1 0x1 SWAP1 DUP2 OR SWAP1 SWAP2 SSTORE PUSH1 0x6 DUP1 SLOAD DUP6 MSTORE PUSH1 0x5 SWAP1 SWAP4 MSTORE SWAP1 DUP4 KECCAK256 DUP7 SWAP1 SSTORE DUP2 SLOAD SWAP1 SWAP3 SWAP1 PUSH2 0x2221 SWAP1 DUP5 SWAP1 PUSH2 0x3810 JUMP JUMPDEST SWAP1 SWAP2 SSTORE POP POP PUSH1 0x0 DUP4 DUP2 MSTORE PUSH1 0x4 PUSH1 0x20 MSTORE PUSH1 0x40 SWAP1 KECCAK256 PUSH1 0x1 DUP2 ADD DUP4 SWAP1 SSTORE PUSH1 0x5 ADD PUSH2 0x169E DUP3 DUP3 PUSH2 0x3964 JUMP JUMPDEST PUSH1 0x1 PUSH1 0x1 PUSH1 0xA0 SHL SUB DUP2 AND PUSH1 0x0 SWAP1 DUP2 MSTORE PUSH1 0x3 DUP4 ADD PUSH1 0x20 MSTORE PUSH1 0x40 SWAP1 KECCAK256 SLOAD PUSH1 0xFF AND ISZERO PUSH2 0x22B3 JUMPI PUSH1 0x40 MLOAD PUSH3 0x461BCD PUSH1 0xE5 SHL DUP2 MSTORE PUSH1 0x20 PUSH1 0x4 DUP3 ADD DUP2 SWAP1 MSTORE PUSH1 0x24 DUP3 ADD MSTORE PUSH32 0x596F7520616C7265616479207369676E65642074686973206D756C7469736967 PUSH1 0x44 DUP3 ADD MSTORE PUSH1 0x64 ADD PUSH2 0x561 JUMP JUMPDEST PUSH1 0x2 DUP3 ADD DUP1 SLOAD PUSH2 0x100 SWAP1 DUP2 SWAP1 DIV PUSH1 0xFF SWAP1 DUP2 AND PUSH1 0x0 SWAP1 DUP2 MSTORE PUSH1 0x4 DUP7 ADD PUSH1 0x20 MSTORE PUSH1 0x40 SWAP1 KECCAK256 DUP1 SLOAD PUSH1 0x1 PUSH1 0x1 PUSH1 0xA0 SHL SUB NOT AND PUSH1 0x1 PUSH1 0x1 PUSH1 0xA0 SHL SUB DUP7 AND OR SWAP1 SSTORE DUP3 SLOAD SWAP2 SWAP1 SWAP2 DIV AND SWAP1 PUSH1 0x1 PUSH2 0x2301 DUP4 PUSH2 0x3A24 JUMP JUMPDEST DUP3 SLOAD PUSH2 0x100 SWAP3 SWAP1 SWAP3 EXP PUSH1 0xFF DUP2 DUP2 MUL NOT SWAP1 SWAP4 AND SWAP2 DUP4 AND MUL OR SWAP1 SWAP2 SSTORE PUSH1 0x1 PUSH1 0x1 PUSH1 0xA0 SHL SUB DUP4 AND PUSH1 0x0 SWAP1 DUP2 MSTORE PUSH1 0x3 DUP6 ADD PUSH1 0x20 MSTORE PUSH1 0x40 DUP2 KECCAK256 DUP1 SLOAD PUSH1 0xFF NOT AND PUSH1 0x1 SWAP1 DUP2 OR SWAP1 SWAP2 SSTORE PUSH1 0x2 DUP7 ADD DUP1 SLOAD SWAP2 SWAP5 POP SWAP3 PUSH2 0x2359 SWAP2 DUP6 SWAP2 AND PUSH2 0x3A43 JUMP JUMPDEST SWAP3 POP PUSH2 0x100 EXP DUP2 SLOAD DUP2 PUSH1 0xFF MUL NOT AND SWAP1 DUP4 PUSH1 0xFF AND MUL OR SWAP1 SSTORE POP POP POP JUMP JUMPDEST PUSH1 0x1 PUSH1 0x1 PUSH1 0xA0 SHL SUB DUP2 AND PUSH1 0x0 SWAP1 DUP2 MSTORE PUSH1 0x3 DUP4 ADD PUSH1 0x20 MSTORE PUSH1 0x40 SWAP1 KECCAK256 SLOAD PUSH1 0xFF AND ISZERO ISZERO PUSH1 0x1 EQ PUSH2 0x23F3 JUMPI PUSH1 0x40 MLOAD PUSH3 0x461BCD PUSH1 0xE5 SHL DUP2 MSTORE PUSH1 0x20 PUSH1 0x4 DUP3 ADD MSTORE PUSH1 0x26 PUSH1 0x24 DUP3 ADD MSTORE PUSH32 0x596F752068617665206E6F7465207369676E65642074686973206D756C746973 PUSH1 0x44 DUP3 ADD MSTORE PUSH6 0x1A59C81E595D PUSH1 0xD2 SHL PUSH1 0x64 DUP3 ADD MSTORE PUSH1 0x84 ADD PUSH2 0x561 JUMP JUMPDEST PUSH1 0x1 PUSH1 0x1 PUSH1 0xA0 SHL SUB DUP2 AND PUSH1 0x0 SWAP1 DUP2 MSTORE PUSH1 0x3 DUP4 ADD PUSH1 0x20 MSTORE PUSH1 0x40 DUP2 KECCAK256 DUP1 SLOAD PUSH1 0xFF NOT AND SWAP1 SSTORE PUSH1 0x2 DUP4 ADD DUP1 SLOAD PUSH1 0x1 SWAP3 SWAP1 PUSH2 0x2359 SWAP1 DUP5 SWAP1 PUSH1 0xFF AND PUSH2 0x38EC JUMP JUMPDEST PUSH1 0x2 DUP2 ADD DUP1 SLOAD PUSH1 0xFF NOT AND SWAP1 SSTORE PUSH1 0x0 JUMPDEST PUSH1 0x2 DUP3 ADD SLOAD PUSH1 0xFF PUSH2 0x100 SWAP1 SWAP2 DIV DUP2 AND SWAP1 DUP3 AND LT ISZERO PUSH2 0x249A JUMPI PUSH1 0xFF DUP2 AND PUSH1 0x0 SWAP1 DUP2 MSTORE PUSH1 0x4 DUP4 ADD PUSH1 0x20 SWAP1 DUP2 MSTORE PUSH1 0x40 DUP1 DUP4 KECCAK256 SLOAD PUSH1 0x1 PUSH1 0x1 PUSH1 0xA0 SHL SUB AND DUP4 MSTORE PUSH1 0x3 DUP6 ADD SWAP1 SWAP2 MSTORE SWAP1 KECCAK256 DUP1 SLOAD PUSH1 0xFF NOT AND SWAP1 SSTORE DUP1 PUSH2 0x2492 DUP2 PUSH2 0x3A24 JUMP JUMPDEST SWAP2 POP POP PUSH2 0x243C JUMP JUMPDEST POP POP JUMP JUMPDEST PUSH1 0x0 DUP2 DUP2 MSTORE PUSH1 0x1 PUSH1 0x20 DUP2 SWAP1 MSTORE PUSH1 0x40 DUP3 KECCAK256 DUP3 DUP2 SSTORE SWAP2 SWAP1 PUSH2 0x24BF SWAP1 DUP4 ADD DUP3 PUSH2 0x2E12 JUMP JUMPDEST PUSH2 0x24CD PUSH1 0x2 DUP4 ADD PUSH1 0x0 PUSH2 0x2E12 JUMP JUMPDEST PUSH1 0x3 DUP3 ADD PUSH1 0x0 SWAP1 SSTORE POP POP PUSH1 0x0 JUMPDEST PUSH1 0x2 SLOAD DUP2 LT ISZERO PUSH2 0x2540 JUMPI DUP2 PUSH1 0x2 DUP3 DUP2 SLOAD DUP2 LT PUSH2 0x24F8 JUMPI PUSH2 0x24F8 PUSH2 0x3A5C JUMP JUMPDEST SWAP1 PUSH1 0x0 MSTORE PUSH1 0x20 PUSH1 0x0 KECCAK256 ADD SLOAD SUB PUSH2 0x252E JUMPI PUSH1 0x0 PUSH1 0x2 DUP3 DUP2 SLOAD DUP2 LT PUSH2 0x251D JUMPI PUSH2 0x251D PUSH2 0x3A5C JUMP JUMPDEST PUSH1 0x0 SWAP2 DUP3 MSTORE PUSH1 0x20 SWAP1 SWAP2 KECCAK256 ADD SSTORE PUSH2 0x2540 JUMP JUMPDEST DUP1 PUSH2 0x2538 DUP2 PUSH2 0x3905 JUMP JUMPDEST SWAP2 POP POP PUSH2 0x24DA JUMP JUMPDEST POP PUSH1 0x40 MLOAD DUP2 DUP2 MSTORE PUSH32 0x34DE6B871245ED0A89B82912E8E5EE6D9C3104B3E5BB1D67A71AD7E68239E41C SWAP1 PUSH1 0x20 ADD PUSH1 0x40 MLOAD DUP1 SWAP2 SUB SWAP1 LOG1 POP JUMP JUMPDEST PUSH2 0x2581 DUP2 CALLER PUSH2 0x2C04 JUMP JUMPDEST POP JUMP JUMPDEST PUSH2 0x258E DUP3 DUP3 PUSH2 0x14C7 JUMP JUMPDEST PUSH2 0x249A JUMPI PUSH1 0x0 DUP3 DUP2 MSTORE PUSH1 0x20 DUP2 DUP2 MSTORE PUSH1 0x40 DUP1 DUP4 KECCAK256 PUSH1 0x1 PUSH1 0x1 PUSH1 0xA0 SHL SUB DUP6 AND DUP5 MSTORE SWAP1 SWAP2 MSTORE SWAP1 KECCAK256 DUP1 SLOAD PUSH1 0xFF NOT AND PUSH1 0x1 OR SWAP1 SSTORE PUSH2 0x25C4 CALLER SWAP1 JUMP JUMPDEST PUSH1 0x1 PUSH1 0x1 PUSH1 0xA0 SHL SUB AND DUP2 PUSH1 0x1 PUSH1 0x1 PUSH1 0xA0 SHL SUB AND DUP4 PUSH32 0x2F8788117E7EFF1D82E926EC794901D17C78024A50270940304540A733656F0D PUSH1 0x40 MLOAD PUSH1 0x40 MLOAD DUP1 SWAP2 SUB SWAP1 LOG4 POP POP JUMP JUMPDEST PUSH1 0x0 DUP5 DUP2 MSTORE PUSH1 0x1 PUSH1 0x20 MSTORE PUSH1 0x40 SWAP1 KECCAK256 SLOAD ISZERO PUSH2 0x265D JUMPI PUSH1 0x40 MLOAD PUSH3 0x461BCD PUSH1 0xE5 SHL DUP2 MSTORE PUSH1 0x20 PUSH1 0x4 DUP3 ADD MSTORE PUSH1 0x16 PUSH1 0x24 DUP3 ADD MSTORE PUSH22 0x53747564656E7420616C726561647920657869737473 PUSH1 0x50 SHL PUSH1 0x44 DUP3 ADD MSTORE PUSH1 0x64 ADD PUSH2 0x561 JUMP JUMPDEST DUP4 PUSH1 0x0 SUB PUSH2 0x269D JUMPI PUSH1 0x40 MLOAD PUSH3 0x461BCD PUSH1 0xE5 SHL DUP2 MSTORE PUSH1 0x20 PUSH1 0x4 DUP3 ADD MSTORE PUSH1 0xD PUSH1 0x24 DUP3 ADD MSTORE PUSH13 0x49642063616E2774206265203 PUSH1 0x9C SHL PUSH1 0x44 DUP3 ADD MSTORE PUSH1 0x64 ADD PUSH2 0x561 JUMP JUMPDEST PUSH1 0x40 DUP1 MLOAD PUSH1 0x80 DUP2 ADD DUP3 MSTORE DUP6 DUP2 MSTORE PUSH1 0x20 DUP1 DUP3 ADD DUP7 DUP2 MSTORE DUP3 DUP5 ADD DUP7 SWAP1 MSTORE PUSH1 0x60 DUP4 ADD DUP6 SWAP1 MSTORE PUSH1 0x0 DUP9 DUP2 MSTORE PUSH1 0x1 SWAP3 DUP4 SWAP1 MSTORE SWAP4 SWAP1 SWAP4 KECCAK256 DUP3 MLOAD DUP2 SSTORE SWAP3 MLOAD SWAP2 SWAP3 SWAP2 SWAP1 DUP3 ADD SWAP1 PUSH2 0x26E5 SWAP1 DUP3 PUSH2 0x3964 JUMP JUMPDEST POP PUSH1 0x40 DUP3 ADD MLOAD PUSH1 0x2 DUP3 ADD SWAP1 PUSH2 0x26FA SWAP1 DUP3 PUSH2 0x3964 JUMP JUMPDEST POP PUSH1 0x60 SWAP2 SWAP1 SWAP2 ADD MLOAD PUSH1 0x3 SWAP1 SWAP2 ADD SSTORE PUSH1 0x2 DUP1 SLOAD PUSH1 0x1 DUP2 ADD DUP3 SSTORE PUSH1 0x0 SWAP2 SWAP1 SWAP2 MSTORE PUSH32 0x405787FA12A823E0F2B7631CC41B3BA8828B3321CA811111FA75CD3AA3BB5ACE ADD DUP5 SWAP1 SSTORE PUSH1 0x40 MLOAD PUSH32 0xB6767D1C89515962142B00B5577569C92A74381D9441A528911C66E0C3CEA1F8 SWAP1 PUSH2 0x2773 SWAP1 DUP7 SWAP1 DUP7 SWAP1 DUP7 SWAP1 DUP7 SWAP1 PUSH2 0x2F34 JUMP JUMPDEST PUSH1 0x40 MLOAD DUP1 SWAP2 SUB SWAP1 LOG1 POP POP POP POP JUMP JUMPDEST PUSH1 0x40 MLOAD DUP1 PUSH1 0xC0 ADD PUSH1 0x40 MSTORE DUP1 DUP5 PUSH1 0x3 DUP2 GT ISZERO PUSH2 0x279E JUMPI PUSH2 0x279E PUSH2 0x30A1 JUMP JUMPDEST DUP2 MSTORE PUSH1 0x20 ADD DUP4 PUSH1 0x2 DUP2 GT ISZERO PUSH2 0x27B5 JUMPI PUSH2 0x27B5 PUSH2 0x30A1 JUMP JUMPDEST DUP2 MSTORE PUSH1 0x20 ADD DUP3 PUSH1 0xF DUP2 GT ISZERO PUSH2 0x27CC JUMPI PUSH2 0x27CC PUSH2 0x30A1 JUMP JUMPDEST DUP2 MSTORE PUSH1 0x20 ADD TIMESTAMP DUP2 MSTORE PUSH1 0x20 ADD PUSH1 0x1 ISZERO ISZERO DUP2 MSTORE PUSH1 0x20 ADD DUP6 DUP2 MSTORE POP PUSH1 0x7 PUSH1 0x0 DUP7 DUP7 DUP7 DUP7 PUSH1 0x40 MLOAD PUSH1 0x20 ADD PUSH2 0x27FF SWAP5 SWAP4 SWAP3 SWAP2 SWAP1 PUSH2 0x35D7 JUMP JUMPDEST PUSH1 0x40 DUP1 MLOAD PUSH1 0x1F NOT DUP2 DUP5 SUB ADD DUP2 MSTORE SWAP2 DUP2 MSTORE DUP2 MLOAD PUSH1 0x20 SWAP3 DUP4 ADD KECCAK256 DUP4 MSTORE SWAP1 DUP3 ADD SWAP3 SWAP1 SWAP3 MSTORE ADD PUSH1 0x0 KECCAK256 DUP2 MLOAD DUP2 SLOAD DUP3 SWAP1 PUSH1 0xFF NOT AND PUSH1 0x1 DUP4 PUSH1 0x3 DUP2 GT ISZERO PUSH2 0x2842 JUMPI PUSH2 0x2842 PUSH2 0x30A1 JUMP JUMPDEST MUL OR SWAP1 SSTORE POP PUSH1 0x20 DUP3 ADD MLOAD DUP2 SLOAD DUP3 SWAP1 PUSH2 0xFF00 NOT AND PUSH2 0x100 DUP4 PUSH1 0x2 DUP2 GT ISZERO PUSH2 0x286A JUMPI PUSH2 0x286A PUSH2 0x30A1 JUMP JUMPDEST MUL OR SWAP1 SSTORE POP PUSH1 0x40 DUP3 ADD MLOAD DUP2 SLOAD DUP3 SWAP1 PUSH3 0xFF0000 NOT AND PUSH3 0x10000 DUP4 PUSH1 0xF DUP2 GT ISZERO PUSH2 0x2894 JUMPI PUSH2 0x2894 PUSH2 0x30A1 JUMP JUMPDEST MUL OR SWAP1 SSTORE POP PUSH1 0x60 DUP3 ADD MLOAD PUSH1 0x1 DUP3 ADD SSTORE PUSH1 0x80 DUP3 ADD MLOAD PUSH1 0x2 DUP3 ADD DUP1 SLOAD PUSH1 0xFF NOT AND SWAP2 ISZERO ISZERO SWAP2 SWAP1 SWAP2 OR SWAP1 SSTORE PUSH1 0xA0 SWAP1 SWAP2 ADD MLOAD PUSH1 0x3 SWAP1 SWAP2 ADD SSTORE PUSH1 0x0 DUP5 DUP2 MSTORE PUSH1 0x8 PUSH1 0x20 SWAP1 DUP2 MSTORE PUSH1 0x40 SWAP2 DUP3 SWAP1 KECCAK256 SWAP2 MLOAD PUSH2 0x28ED SWAP2 DUP8 SWAP2 DUP8 SWAP2 DUP8 SWAP2 DUP8 SWAP2 ADD PUSH2 0x35D7 JUMP JUMPDEST PUSH1 0x40 DUP1 MLOAD PUSH1 0x1F NOT DUP2 DUP5 SUB ADD DUP2 MSTORE SWAP1 DUP3 SWAP1 MSTORE DUP1 MLOAD PUSH1 0x20 SWAP2 DUP3 ADD KECCAK256 DUP4 SLOAD PUSH1 0x1 DUP2 ADD DUP6 SSTORE PUSH1 0x0 SWAP5 DUP6 MSTORE SWAP2 SWAP1 SWAP4 KECCAK256 ADD SWAP2 SWAP1 SWAP2 SSTORE PUSH32 0xB55811DD01470A227956304B027C610C7CDF9DD622DCC47791380261D56DC6ED SWAP1 PUSH2 0x2773 SWAP1 DUP7 SWAP1 DUP7 SWAP1 DUP7 SWAP1 DUP7 SWAP1 PUSH2 0x3A72 JUMP JUMPDEST PUSH1 0x0 DUP5 DUP2 MSTORE PUSH1 0x1 PUSH1 0x20 MSTORE PUSH1 0x40 DUP2 KECCAK256 SLOAD SWAP1 SUB PUSH2 0x29A5 JUMPI PUSH1 0x40 MLOAD PUSH3 0x461BCD PUSH1 0xE5 SHL DUP2 MSTORE PUSH1 0x20 PUSH1 0x4 DUP3 ADD MSTORE PUSH1 0x16 PUSH1 0x24 DUP3 ADD MSTORE PUSH22 0x14DD1D59195B9D08191BD95CC81B9BDD08195E1A5CDD PUSH1 0x52 SHL PUSH1 0x44 DUP3 ADD MSTORE PUSH1 0x64 ADD PUSH2 0x561 JUMP JUMPDEST PUSH1 0x1 PUSH1 0x0 DUP6 DUP2 MSTORE PUSH1 0x20 ADD SWAP1 DUP2 MSTORE PUSH1 0x20 ADD PUSH1 0x0 KECCAK256 PUSH1 0x1 ADD PUSH1 0x40 MLOAD PUSH1 0x20 ADD PUSH2 0x29CB SWAP2 SWAP1 PUSH2 0x3AA9 JUMP JUMPDEST PUSH1 0x40 MLOAD PUSH1 0x20 DUP2 DUP4 SUB SUB DUP2 MSTORE SWAP1 PUSH1 0x40 MSTORE DUP1 MLOAD SWAP1 PUSH1 0x20 ADD KECCAK256 DUP4 PUSH1 0x40 MLOAD PUSH1 0x20 ADD PUSH2 0x29F2 SWAP2 SWAP1 PUSH2 0x3B1F JUMP JUMPDEST PUSH1 0x40 MLOAD PUSH1 0x20 DUP2 DUP4 SUB SUB DUP2 MSTORE SWAP1 PUSH1 0x40 MSTORE DUP1 MLOAD SWAP1 PUSH1 0x20 ADD KECCAK256 EQ ISZERO DUP1 ISZERO PUSH2 0x2A4A JUMPI POP PUSH1 0x40 DUP1 MLOAD PUSH1 0x0 DUP2 MSTORE PUSH1 0x20 DUP2 ADD DUP1 DUP4 MSTORE DUP2 MLOAD SWAP1 KECCAK256 SWAP2 PUSH2 0x2A31 SWAP2 DUP7 SWAP2 ADD PUSH2 0x3B1F JUMP JUMPDEST PUSH1 0x40 MLOAD PUSH1 0x20 DUP2 DUP4 SUB SUB DUP2 MSTORE SWAP1 PUSH1 0x40 MSTORE DUP1 MLOAD SWAP1 PUSH1 0x20 ADD KECCAK256 EQ ISZERO JUMPDEST ISZERO PUSH2 0x2A6D JUMPI PUSH1 0x0 DUP5 DUP2 MSTORE PUSH1 0x1 PUSH1 0x20 DUP2 SWAP1 MSTORE PUSH1 0x40 SWAP1 SWAP2 KECCAK256 ADD PUSH2 0x2A6B DUP5 DUP3 PUSH2 0x3964 JUMP JUMPDEST POP JUMPDEST PUSH1 0x0 DUP5 DUP2 MSTORE PUSH1 0x1 PUSH1 0x20 SWAP1 DUP2 MSTORE PUSH1 0x40 SWAP2 DUP3 SWAP1 KECCAK256 SWAP2 MLOAD PUSH2 0x2A8F SWAP3 PUSH1 0x2 ADD SWAP2 ADD PUSH2 0x3AA9 JUMP JUMPDEST PUSH1 0x40 MLOAD PUSH1 0x20 DUP2 DUP4 SUB SUB DUP2 MSTORE SWAP1 PUSH1 0x40 MSTORE DUP1 MLOAD SWAP1 PUSH1 0x20 ADD KECCAK256 DUP3 PUSH1 0x40 MLOAD PUSH1 0x20 ADD PUSH2 0x2AB6 SWAP2 SWAP1 PUSH2 0x3B1F JUMP JUMPDEST PUSH1 0x40 MLOAD PUSH1 0x20 DUP2 DUP4 SUB SUB DUP2 MSTORE SWAP1 PUSH1 0x40 MSTORE DUP1 MLOAD SWAP1 PUSH1 0x20 ADD KECCAK256 EQ ISZERO DUP1 ISZERO PUSH2 0x2B0E JUMPI POP PUSH1 0x40 DUP1 MLOAD PUSH1 0x0 DUP2 MSTORE PUSH1 0x20 DUP2 ADD DUP1 DUP4 MSTORE DUP2 MLOAD SWAP1 KECCAK256 SWAP2 PUSH2 0x2AF5 SWAP2 DUP6 SWAP2 ADD PUSH2 0x3B1F JUMP JUMPDEST PUSH1 0x40 MLOAD PUSH1 0x20 DUP2 DUP4 SUB SUB DUP2 MSTORE SWAP1 PUSH1 0x40 MSTORE DUP1 MLOAD SWAP1 PUSH1 0x20 ADD KECCAK256 EQ ISZERO JUMPDEST ISZERO PUSH2 0x2B30 JUMPI PUSH1 0x0 DUP5 DUP2 MSTORE PUSH1 0x1 PUSH1 0x20 MSTORE PUSH1 0x40 SWAP1 KECCAK256 PUSH1 0x2 ADD PUSH2 0x2B2E DUP4 DUP3 PUSH2 0x3964 JUMP JUMPDEST POP JUMPDEST PUSH1 0x0 DUP5 DUP2 MSTORE PUSH1 0x1 PUSH1 0x20 MSTORE PUSH1 0x40 SWAP1 KECCAK256 PUSH1 0x3 ADD SLOAD DUP2 EQ DUP1 ISZERO SWAP1 PUSH2 0x2B50 JUMPI POP DUP1 ISZERO ISZERO JUMPDEST ISZERO PUSH2 0x2B6A JUMPI PUSH1 0x0 DUP5 DUP2 MSTORE PUSH1 0x1 PUSH1 0x20 MSTORE PUSH1 0x40 SWAP1 KECCAK256 PUSH1 0x3 ADD DUP2 SWAP1 SSTORE JUMPDEST PUSH32 0x3E10A3F40E9AF2A5E61CB5A3DE55FD67286470C35B3CF345B04A83CF3F49077 DUP5 DUP5 DUP5 DUP5 PUSH1 0x40 MLOAD PUSH2 0x2773 SWAP5 SWAP4 SWAP3 SWAP2 SWAP1 PUSH2 0x2F34 JUMP JUMPDEST PUSH2 0x2BA9 DUP3 DUP3 PUSH2 0x14C7 JUMP JUMPDEST ISZERO PUSH2 0x249A JUMPI PUSH1 0x0 DUP3 DUP2 MSTORE PUSH1 0x20 DUP2 DUP2 MSTORE PUSH1 0x40 DUP1 DUP4 KECCAK256 PUSH1 0x1 PUSH1 0x1 PUSH1 0xA0 SHL SUB DUP6 AND DUP1 DUP6 MSTORE SWAP3 MSTORE DUP1 DUP4 KECCAK256 DUP1 SLOAD PUSH1 0xFF NOT AND SWAP1 SSTORE MLOAD CALLER SWAP3 DUP6 SWAP2 PUSH32 0xF6391F5C32D9C69D2A47EA670B442974B53935D1EDC7FD64EB21E047A839171B SWAP2 SWAP1 LOG4 POP POP JUMP JUMPDEST PUSH2 0x2C0E DUP3 DUP3 PUSH2 0x14C7 JUMP JUMPDEST PUSH2 0x249A JUMPI PUSH2 0x2C1B DUP2 PUSH2 0x2C5D JUMP JUMPDEST PUSH2 0x2C26 DUP4 PUSH1 0x20 PUSH2 0x2C6F JUMP JUMPDEST PUSH1 0x40 MLOAD PUSH1 0x20 ADD PUSH2 0x2C37 SWAP3 SWAP2 SWAP1 PUSH2 0x3B3B JUMP JUMPDEST PUSH1 0x40 DUP1 MLOAD PUSH1 0x1F NOT DUP2 DUP5 SUB ADD DUP2 MSTORE SWAP1 DUP3 SWAP1 MSTORE PUSH3 0x461BCD PUSH1 0xE5 SHL DUP3 MSTORE PUSH2 0x561 SWAP2 PUSH1 0x4 ADD PUSH2 0x348E JUMP JUMPDEST PUSH1 0x60 PUSH2 0x527 PUSH1 0x1 PUSH1 0x1 PUSH1 0xA0 SHL SUB DUP4 AND PUSH1 0x14 JUMPDEST PUSH1 0x60 PUSH1 0x0 PUSH2 0x2C7E DUP4 PUSH1 0x2 PUSH2 0x3BB0 JUMP JUMPDEST PUSH2 0x2C89 SWAP1 PUSH1 0x2 PUSH2 0x3810 JUMP JUMPDEST PUSH8 0xFFFFFFFFFFFFFFFF DUP2 GT ISZERO PUSH2 0x2CA1 JUMPI PUSH2 0x2CA1 PUSH2 0x31A0 JUMP JUMPDEST PUSH1 0x40 MLOAD SWAP1 DUP1 DUP3 MSTORE DUP1 PUSH1 0x1F ADD PUSH1 0x1F NOT AND PUSH1 0x20 ADD DUP3 ADD PUSH1 0x40 MSTORE DUP1 ISZERO PUSH2 0x2CCB JUMPI PUSH1 0x20 DUP3 ADD DUP2 DUP1 CALLDATASIZE DUP4 CALLDATACOPY ADD SWAP1 POP JUMPDEST POP SWAP1 POP PUSH1 0x3 PUSH1 0xFC SHL DUP2 PUSH1 0x0 DUP2 MLOAD DUP2 LT PUSH2 0x2CE6 JUMPI PUSH2 0x2CE6 PUSH2 0x3A5C JUMP JUMPDEST PUSH1 0x20 ADD ADD SWAP1 PUSH1 0x1 PUSH1 0x1 PUSH1 0xF8 SHL SUB NOT AND SWAP1 DUP2 PUSH1 0x0 BYTE SWAP1 MSTORE8 POP PUSH1 0xF PUSH1 0xFB SHL DUP2 PUSH1 0x1 DUP2 MLOAD DUP2 LT PUSH2 0x2D15 JUMPI PUSH2 0x2D15 PUSH2 0x3A5C JUMP JUMPDEST PUSH1 0x20 ADD ADD SWAP1 PUSH1 0x1 PUSH1 0x1 PUSH1 0xF8 SHL SUB NOT AND SWAP1 DUP2 PUSH1 0x0 BYTE SWAP1 MSTORE8 POP PUSH1 0x0 PUSH2 0x2D39 DUP5 PUSH1 0x2 PUSH2 0x3BB0 JUMP JUMPDEST PUSH2 0x2D44 SWAP1 PUSH1 0x1 PUSH2 0x3810 JUMP JUMPDEST SWAP1 POP JUMPDEST PUSH1 0x1 DUP2 GT ISZERO PUSH2 0x2DBC JUMPI PUSH16 0x181899199A1A9B1B9C1CB0B131B232B3 PUSH1 0x81 SHL DUP6 PUSH1 0xF AND PUSH1 0x10 DUP2 LT PUSH2 0x2D78 JUMPI PUSH2 0x2D78 PUSH2 0x3A5C JUMP JUMPDEST BYTE PUSH1 0xF8 SHL DUP3 DUP3 DUP2 MLOAD DUP2 LT PUSH2 0x2D8E JUMPI PUSH2 0x2D8E PUSH2 0x3A5C JUMP JUMPDEST PUSH1 0x20 ADD ADD SWAP1 PUSH1 0x1 PUSH1 0x1 PUSH1 0xF8 SHL SUB NOT AND SWAP1 DUP2 PUSH1 0x0 BYTE SWAP1 MSTORE8 POP PUSH1 0x4 SWAP5 SWAP1 SWAP5 SHR SWAP4 PUSH2 0x2DB5 DUP2 PUSH2 0x3BC7 JUMP JUMPDEST SWAP1 POP PUSH2 0x2D47 JUMP JUMPDEST POP DUP4 ISZERO PUSH2 0x2E0B JUMPI PUSH1 0x40 MLOAD PUSH3 0x461BCD PUSH1 0xE5 SHL DUP2 MSTORE PUSH1 0x20 PUSH1 0x4 DUP3 ADD DUP2 SWAP1 MSTORE PUSH1 0x24 DUP3 ADD MSTORE PUSH32 0x537472696E67733A20686578206C656E67746820696E73756666696369656E74 PUSH1 0x44 DUP3 ADD MSTORE PUSH1 0x64 ADD PUSH2 0x561 JUMP JUMPDEST SWAP4 SWAP3 POP POP POP JUMP JUMPDEST POP DUP1 SLOAD PUSH2 0x2E1E SWAP1 PUSH2 0x3416 JUMP JUMPDEST PUSH1 0x0 DUP3 SSTORE DUP1 PUSH1 0x1F LT PUSH2 0x2E2E JUMPI POP POP JUMP JUMPDEST PUSH1 0x1F ADD PUSH1 0x20 SWAP1 DIV SWAP1 PUSH1 0x0 MSTORE PUSH1 0x20 PUSH1 0x0 KECCAK256 SWAP1 DUP2 ADD SWAP1 PUSH2 0x2581 SWAP2 SWAP1 JUMPDEST DUP1 DUP3 GT ISZERO PUSH2 0x2E5C JUMPI PUSH1 0x0 DUP2 SSTORE PUSH1 0x1 ADD PUSH2 0x2E48 JUMP JUMPDEST POP SWAP1 JUMP JUMPDEST PUSH1 0x0 PUSH1 0x20 DUP3 DUP5 SUB SLT ISZERO PUSH2 0x2E72 JUMPI PUSH1 0x0 DUP1 REVERT JUMPDEST DUP2 CALLDATALOAD PUSH1 0x1 PUSH1 0x1 PUSH1 0xE0 SHL SUB NOT DUP2 AND DUP2 EQ PUSH2 0x2E0B JUMPI PUSH1 0x0 DUP1 REVERT JUMPDEST DUP1 CALLDATALOAD DUP1 ISZERO ISZERO DUP2 EQ PUSH2 0x2E9A JUMPI PUSH1 0x0 DUP1 REVERT JUMPDEST SWAP2 SWAP1 POP JUMP JUMPDEST PUSH1 0x0 DUP1 PUSH1 0x40 DUP4 DUP6 SUB SLT ISZERO PUSH2 0x2EB2 JUMPI PUSH1 0x0 DUP1 REVERT JUMPDEST DUP3 CALLDATALOAD SWAP2 POP PUSH2 0x2EC2 PUSH1 0x20 DUP5 ADD PUSH2 0x2E8A JUMP JUMPDEST SWAP1 POP SWAP3 POP SWAP3 SWAP1 POP JUMP JUMPDEST PUSH1 0x0 PUSH1 0x20 DUP3 DUP5 SUB SLT ISZERO PUSH2 0x2EDD JUMPI PUSH1 0x0 DUP1 REVERT JUMPDEST POP CALLDATALOAD SWAP2 SWAP1 POP JUMP JUMPDEST PUSH1 0x0 JUMPDEST DUP4 DUP2 LT ISZERO PUSH2 0x2EFF JUMPI DUP2 DUP2 ADD MLOAD DUP4 DUP3 ADD MSTORE PUSH1 0x20 ADD PUSH2 0x2EE7 JUMP JUMPDEST POP POP PUSH1 0x0 SWAP2 ADD MSTORE JUMP JUMPDEST PUSH1 0x0 DUP2 MLOAD DUP1 DUP5 MSTORE PUSH2 0x2F20 DUP2 PUSH1 0x20 DUP7 ADD PUSH1 0x20 DUP7 ADD PUSH2 0x2EE4 JUMP JUMPDEST PUSH1 0x1F ADD PUSH1 0x1F NOT AND SWAP3 SWAP1 SWAP3 ADD PUSH1 0x20 ADD SWAP3 SWAP2 POP POP JUMP JUMPDEST DUP5 DUP2 MSTORE PUSH1 0x80 PUSH1 0x20 DUP3 ADD MSTORE PUSH1 0x0 PUSH2 0x2F4D PUSH1 0x80 DUP4 ADD DUP7 PUSH2 0x2F08 JUMP JUMPDEST DUP3 DUP2 SUB PUSH1 0x40 DUP5 ADD MSTORE PUSH2 0x2F5F DUP2 DUP7 PUSH2 0x2F08 JUMP JUMPDEST SWAP2 POP POP DUP3 PUSH1 0x60 DUP4 ADD MSTORE SWAP6 SWAP5 POP POP POP POP POP JUMP JUMPDEST DUP6 ISZERO ISZERO DUP2 MSTORE DUP5 PUSH1 0x20 DUP3 ADD MSTORE PUSH1 0xFF DUP5 AND PUSH1 0x40 DUP3 ADD MSTORE PUSH1 0xFF DUP4 AND PUSH1 0x60 DUP3 ADD MSTORE PUSH1 0xA0 PUSH1 0x80 DUP3 ADD MSTORE PUSH1 0x0 PUSH2 0x2FA4 PUSH1 0xA0 DUP4 ADD DUP5 PUSH2 0x2F08 JUMP JUMPDEST SWAP8 SWAP7 POP POP POP POP POP POP POP JUMP JUMPDEST DUP1 CALLDATALOAD PUSH1 0x1 PUSH1 0x1 PUSH1 0xA0 SHL SUB DUP2 AND DUP2 EQ PUSH2 0x2E9A JUMPI PUSH1 0x0 DUP1 REVERT JUMPDEST PUSH1 0x0 DUP1 PUSH1 0x40 DUP4 DUP6 SUB SLT ISZERO PUSH2 0x2FD9 JUMPI PUSH1 0x0 DUP1 REVERT JUMPDEST DUP3 CALLDATALOAD SWAP2 POP PUSH2 0x2EC2 PUSH1 0x20 DUP5 ADD PUSH2 0x2FAF JUMP JUMPDEST PUSH1 0x0 DUP1 PUSH1 0x40 DUP4 DUP6 SUB SLT ISZERO PUSH2 0x2FFC JUMPI PUSH1 0x0 DUP1 REVERT JUMPDEST POP POP DUP1 CALLDATALOAD SWAP3 PUSH1 0x20 SWAP1 SWAP2 ADD CALLDATALOAD SWAP2 POP JUMP JUMPDEST PUSH1 0x20 DUP2 MSTORE DUP2 MLOAD PUSH1 0x20 DUP3 ADD MSTORE PUSH1 0x0 PUSH1 0x20 DUP4 ADD MLOAD PUSH1 0x80 PUSH1 0x40 DUP5 ADD MSTORE PUSH2 0x3031 PUSH1 0xA0 DUP5 ADD DUP3 PUSH2 0x2F08 JUMP JUMPDEST SWAP1 POP PUSH1 0x40 DUP5 ADD MLOAD PUSH1 0x1F NOT DUP5 DUP4 SUB ADD PUSH1 0x60 DUP6 ADD MSTORE PUSH2 0x304E DUP3 DUP3 PUSH2 0x2F08 JUMP JUMPDEST SWAP2 POP POP PUSH1 0x60 DUP5 ADD MLOAD PUSH1 0x80 DUP5 ADD MSTORE DUP1 SWAP2 POP POP SWAP3 SWAP2 POP POP JUMP JUMPDEST PUSH1 0x0 DUP1 PUSH1 0x0 PUSH1 0x60 DUP5 DUP7 SUB SLT ISZERO PUSH2 0x307A JUMPI PUSH1 0x0 DUP1 REVERT JUMPDEST DUP4 CALLDATALOAD SWAP3 POP PUSH2 0x308A PUSH1 0x20 DUP6 ADD PUSH2 0x2FAF JUMP JUMPDEST SWAP2 POP PUSH2 0x3098 PUSH1 0x40 DUP6 ADD PUSH2 0x2E8A JUMP JUMPDEST SWAP1 POP SWAP3 POP SWAP3 POP SWAP3 JUMP JUMPDEST PUSH4 0x4E487B71 PUSH1 0xE0 SHL PUSH1 0x0 MSTORE PUSH1 0x21 PUSH1 0x4 MSTORE PUSH1 0x24 PUSH1 0x0 REVERT JUMPDEST PUSH1 0x4 DUP2 LT PUSH2 0x30C7 JUMPI PUSH2 0x30C7 PUSH2 0x30A1 JUMP JUMPDEST SWAP1 MSTORE JUMP JUMPDEST PUSH1 0x3 DUP2 LT PUSH2 0x30C7 JUMPI PUSH2 0x30C7 PUSH2 0x30A1 JUMP JUMPDEST PUSH1 0x10 DUP2 LT PUSH2 0x30C7 JUMPI PUSH2 0x30C7 PUSH2 0x30A1 JUMP JUMPDEST PUSH1 0xC0 DUP2 ADD PUSH2 0x30F9 DUP3 DUP10 PUSH2 0x30B7 JUMP JUMPDEST PUSH2 0x3106 PUSH1 0x20 DUP4 ADD DUP9 PUSH2 0x30CB JUMP JUMPDEST PUSH2 0x3113 PUSH1 0x40 DUP4 ADD DUP8 PUSH2 0x30DB JUMP JUMPDEST PUSH1 0x60 DUP3 ADD SWAP5 SWAP1 SWAP5 MSTORE SWAP2 ISZERO ISZERO PUSH1 0x80 DUP4 ADD MSTORE PUSH1 0xA0 SWAP1 SWAP2 ADD MSTORE SWAP4 SWAP3 POP POP POP JUMP JUMPDEST PUSH1 0x0 DUP1 PUSH1 0x0 DUP1 PUSH1 0x0 PUSH1 0xA0 DUP7 DUP9 SUB SLT ISZERO PUSH2 0x3148 JUMPI PUSH1 0x0 DUP1 REVERT JUMPDEST DUP6 CALLDATALOAD SWAP5 POP PUSH1 0x20 DUP7 ADD CALLDATALOAD PUSH1 0x4 DUP2 LT PUSH2 0x315E JUMPI PUSH1 0x0 DUP1 REVERT JUMPDEST SWAP4 POP PUSH1 0x40 DUP7 ADD CALLDATALOAD PUSH1 0x3 DUP2 LT PUSH2 0x3172 JUMPI PUSH1 0x0 DUP1 REVERT JUMPDEST SWAP3 POP PUSH1 0x60 DUP7 ADD CALLDATALOAD PUSH1 0x10 DUP2 LT PUSH2 0x3186 JUMPI PUSH1 0x0 DUP1 REVERT JUMPDEST SWAP2 POP PUSH2 0x3194 PUSH1 0x80 DUP8 ADD PUSH2 0x2E8A JUMP JUMPDEST SWAP1 POP SWAP3 SWAP6 POP SWAP3 SWAP6 SWAP1 SWAP4 POP JUMP JUMPDEST PUSH4 0x4E487B71 PUSH1 0xE0 SHL PUSH1 0x0 MSTORE PUSH1 0x41 PUSH1 0x4 MSTORE PUSH1 0x24 PUSH1 0x0 REVERT JUMPDEST PUSH1 0x0 DUP3 PUSH1 0x1F DUP4 ADD SLT PUSH2 0x31C7 JUMPI PUSH1 0x0 DUP1 REVERT JUMPDEST DUP2 CALLDATALOAD PUSH8 0xFFFFFFFFFFFFFFFF DUP1 DUP3 GT ISZERO PUSH2 0x31E2 JUMPI PUSH2 0x31E2 PUSH2 0x31A0 JUMP JUMPDEST PUSH1 0x40 MLOAD PUSH1 0x1F DUP4 ADD PUSH1 0x1F NOT SWAP1 DUP2 AND PUSH1 0x3F ADD AND DUP2 ADD SWAP1 DUP3 DUP3 GT DUP2 DUP4 LT OR ISZERO PUSH2 0x320A JUMPI PUSH2 0x320A PUSH2 0x31A0 JUMP JUMPDEST DUP2 PUSH1 0x40 MSTORE DUP4 DUP2 MSTORE DUP7 PUSH1 0x20 DUP6 DUP9 ADD ADD GT ISZERO PUSH2 0x3223 JUMPI PUSH1 0x0 DUP1 REVERT JUMPDEST DUP4 PUSH1 0x20 DUP8 ADD PUSH1 0x20 DUP4 ADD CALLDATACOPY PUSH1 0x0 PUSH1 0x20 DUP6 DUP4 ADD ADD MSTORE DUP1 SWAP5 POP POP POP POP POP SWAP3 SWAP2 POP POP JUMP JUMPDEST PUSH1 0x0 DUP1 PUSH1 0x0 DUP1 PUSH1 0x80 DUP6 DUP8 SUB SLT ISZERO PUSH2 0x3259 JUMPI PUSH1 0x0 DUP1 REVERT JUMPDEST DUP5 CALLDATALOAD SWAP4 POP PUSH1 0x20 DUP6 ADD CALLDATALOAD PUSH8 0xFFFFFFFFFFFFFFFF DUP1 DUP3 GT ISZERO PUSH2 0x3278 JUMPI PUSH1 0x0 DUP1 REVERT JUMPDEST PUSH2 0x3284 DUP9 DUP4 DUP10 ADD PUSH2 0x31B6 JUMP JUMPDEST SWAP5 POP PUSH1 0x40 DUP8 ADD CALLDATALOAD SWAP2 POP DUP1 DUP3 GT ISZERO PUSH2 0x329A JUMPI PUSH1 0x0 DUP1 REVERT JUMPDEST POP PUSH2 0x32A7 DUP8 DUP3 DUP9 ADD PUSH2 0x31B6 JUMP JUMPDEST SWAP5 SWAP8 SWAP4 SWAP7 POP SWAP4 SWAP5 PUSH1 0x60 ADD CALLDATALOAD SWAP4 POP POP POP JUMP JUMPDEST PUSH1 0x20 DUP1 DUP3 MSTORE DUP3 MLOAD DUP3 DUP3 ADD DUP2 SWAP1 MSTORE PUSH1 0x0 SWAP2 SWAP1 DUP5 DUP3 ADD SWAP1 PUSH1 0x40 DUP6 ADD SWAP1 DUP5 JUMPDEST DUP2 DUP2 LT ISZERO PUSH2 0x32F0 JUMPI DUP4 MLOAD DUP4 MSTORE SWAP3 DUP5 ADD SWAP3 SWAP2 DUP5 ADD SWAP2 PUSH1 0x1 ADD PUSH2 0x32D4 JUMP JUMPDEST POP SWAP1 SWAP7 SWAP6 POP POP POP POP POP POP JUMP JUMPDEST PUSH1 0x20 DUP1 DUP3 MSTORE PUSH1 0x19 SWAP1 DUP3 ADD MSTORE PUSH32 0x43616C6C6572206973206E6F7420612063657274696669657200000000000000 PUSH1 0x40 DUP3 ADD MSTORE PUSH1 0x60 ADD SWAP1 JUMP JUMPDEST PUSH1 0x20 DUP1 DUP3 MSTORE PUSH1 0x19 SWAP1 DUP3 ADD MSTORE PUSH32 0x4964206D7573742062652067726561746572207468616E203000000000000000 PUSH1 0x40 DUP3 ADD MSTORE PUSH1 0x60 ADD SWAP1 JUMP JUMPDEST PUSH1 0x20 DUP1 DUP3 MSTORE PUSH1 0x1A SWAP1 DUP3 ADD MSTORE PUSH32 0x546869732073747564656E7420646F65736E2774206578697374000000000000 PUSH1 0x40 DUP3 ADD MSTORE PUSH1 0x60 ADD SWAP1 JUMP JUMPDEST PUSH15 0x2232B632BA329039BA3AB232B73A1 PUSH1 0x8D SHL DUP2 MSTORE PUSH1 0x0 DUP3 MLOAD PUSH2 0x33CB DUP2 PUSH1 0xF DUP6 ADD PUSH1 0x20 DUP8 ADD PUSH2 0x2EE4 JUMP JUMPDEST SWAP2 SWAP1 SWAP2 ADD PUSH1 0xF ADD SWAP3 SWAP2 POP POP JUMP JUMPDEST PUSH4 0x4E487B71 PUSH1 0xE0 SHL PUSH1 0x0 MSTORE PUSH1 0x11 PUSH1 0x4 MSTORE PUSH1 0x24 PUSH1 0x0 REVERT JUMPDEST PUSH4 0xFFFFFFFF DUP2 DUP2 AND DUP4 DUP3 AND MUL DUP1 DUP3 AND SWAP2 SWAP1 DUP3 DUP2 EQ PUSH2 0x340E JUMPI PUSH2 0x340E PUSH2 0x33D8 JUMP JUMPDEST POP POP SWAP3 SWAP2 POP POP JUMP JUMPDEST PUSH1 0x1 DUP2 DUP2 SHR SWAP1 DUP3 AND DUP1 PUSH2 0x342A JUMPI PUSH1 0x7F DUP3 AND SWAP2 POP JUMPDEST PUSH1 0x20 DUP3 LT DUP2 SUB PUSH2 0x344A JUMPI PUSH4 0x4E487B71 PUSH1 0xE0 SHL PUSH1 0x0 MSTORE PUSH1 0x22 PUSH1 0x4 MSTORE PUSH1 0x24 PUSH1 0x0 REVERT JUMPDEST POP SWAP2 SWAP1 POP JUMP JUMPDEST PUSH4 0x26B0BC1 PUSH1 0xE5 SHL DUP2 MSTORE PUSH1 0x0 DUP3 MLOAD PUSH2 0x346F DUP2 PUSH1 0x4 DUP6 ADD PUSH1 0x20 DUP8 ADD PUSH2 0x2EE4 JUMP JUMPDEST PUSH8 0x81C995858DA1959 PUSH1 0xC2 SHL PUSH1 0x4 SWAP4 SWAP1 SWAP2 ADD SWAP3 DUP4 ADD MSTORE POP PUSH1 0xC ADD SWAP2 SWAP1 POP JUMP JUMPDEST PUSH1 0x20 DUP2 MSTORE PUSH1 0x0 PUSH2 0x2E0B PUSH1 0x20 DUP4 ADD DUP5 PUSH2 0x2F08 JUMP JUMPDEST PUSH16 0x21B0B63632B91034B9903737BA10309 PUSH1 0x85 SHL DUP2 MSTORE PUSH1 0x0 DUP3 MLOAD PUSH2 0x34CC DUP2 PUSH1 0x10 DUP6 ADD PUSH1 0x20 DUP8 ADD PUSH2 0x2EE4 JUMP JUMPDEST PUSH6 0x1030B236B4B7 PUSH1 0xD1 SHL PUSH1 0x10 SWAP4 SWAP1 SWAP2 ADD SWAP3 DUP4 ADD MSTORE POP PUSH1 0x16 ADD SWAP2 SWAP1 POP JUMP JUMPDEST PUSH32 0x54686973206164647265737320697320616C7265616479206120000000000000 DUP2 MSTORE PUSH1 0x0 DUP3 MLOAD PUSH2 0x3521 DUP2 PUSH1 0x1A DUP6 ADD PUSH1 0x20 DUP8 ADD PUSH2 0x2EE4 JUMP JUMPDEST SWAP2 SWAP1 SWAP2 ADD PUSH1 0x1A ADD SWAP3 SWAP2 POP POP JUMP JUMPDEST PUSH6 0x23B930B73A1 PUSH1 0xD5 SHL DUP2 MSTORE PUSH1 0x0 DUP4 MLOAD PUSH2 0x354F DUP2 PUSH1 0x6 DUP6 ADD PUSH1 0x20 DUP9 ADD PUSH2 0x2EE4 JUMP JUMPDEST PUSH1 0x1 PUSH1 0xFD SHL PUSH1 0x6 SWAP2 DUP5 ADD SWAP2 DUP3 ADD MSTORE DUP4 MLOAD PUSH2 0x3570 DUP2 PUSH1 0x7 DUP5 ADD PUSH1 0x20 DUP9 ADD PUSH2 0x2EE4 JUMP JUMPDEST ADD PUSH1 0x7 ADD SWAP5 SWAP4 POP POP POP POP JUMP JUMPDEST PUSH4 0xFFFFFFFF DUP2 DUP2 AND DUP4 DUP3 AND ADD SWAP1 DUP1 DUP3 GT ISZERO PUSH2 0x3599 JUMPI PUSH2 0x3599 PUSH2 0x33D8 JUMP JUMPDEST POP SWAP3 SWAP2 POP POP JUMP JUMPDEST PUSH1 0x4 DUP2 LT PUSH2 0x35B0 JUMPI PUSH2 0x35B0 PUSH2 0x30A1 JUMP JUMPDEST PUSH1 0xF8 SHL SWAP1 MSTORE JUMP JUMPDEST PUSH1 0x3 DUP2 LT PUSH2 0x35B0 JUMPI PUSH2 0x35B0 PUSH2 0x30A1 JUMP JUMPDEST PUSH1 0x10 DUP2 LT PUSH2 0x35B0 JUMPI PUSH2 0x35B0 PUSH2 0x30A1 JUMP JUMPDEST DUP5 DUP2 MSTORE PUSH2 0x35E7 PUSH1 0x20 DUP3 ADD DUP6 PUSH2 0x35A0 JUMP JUMPDEST PUSH2 0x35F4 PUSH1 0x21 DUP3 ADD DUP5 PUSH2 0x35B7 JUMP JUMPDEST PUSH2 0x3601 PUSH1 0x22 DUP3 ADD DUP4 PUSH2 0x35C7 JUMP JUMPDEST PUSH1 0x23 ADD SWAP5 SWAP4 POP POP POP POP JUMP JUMPDEST DUP5 DUP2 MSTORE PUSH2 0x361C PUSH1 0x20 DUP3 ADD DUP6 PUSH2 0x35A0 JUMP JUMPDEST PUSH2 0x3629 PUSH1 0x21 DUP3 ADD DUP5 PUSH2 0x35B7 JUMP JUMPDEST PUSH2 0x3636 PUSH1 0x22 DUP3 ADD DUP4 PUSH2 0x35C7 JUMP JUMPDEST PUSH6 0x44454C455445 PUSH1 0xD0 SHL PUSH1 0x23 DUP3 ADD MSTORE PUSH1 0x29 ADD SWAP5 SWAP4 POP POP POP POP JUMP JUMPDEST PUSH2 0x365A DUP2 DUP4 PUSH2 0x35A0 JUMP JUMPDEST PUSH1 0x1 ADD SWAP2 SWAP1 POP JUMP JUMPDEST PUSH2 0x365A DUP2 DUP4 PUSH2 0x35B7 JUMP JUMPDEST PUSH2 0x365A DUP2 DUP4 PUSH2 0x35C7 JUMP JUMPDEST PUSH7 0x2232B632BA329 PUSH1 0xCD SHL DUP2 MSTORE PUSH1 0x0 DUP6 MLOAD PUSH2 0x3698 DUP2 PUSH1 0x7 DUP6 ADD PUSH1 0x20 DUP11 ADD PUSH2 0x2EE4 JUMP JUMPDEST DUP1 DUP4 ADD SWAP1 POP PUSH1 0x1 PUSH1 0xFD SHL DUP1 PUSH1 0x7 DUP4 ADD MSTORE DUP7 MLOAD PUSH2 0x36BB DUP2 PUSH1 0x8 DUP6 ADD PUSH1 0x20 DUP12 ADD PUSH2 0x2EE4 JUMP JUMPDEST PUSH1 0x8 SWAP3 ADD SWAP2 DUP3 ADD DUP2 SWAP1 MSTORE DUP6 MLOAD PUSH2 0x36D8 DUP2 PUSH1 0x9 DUP6 ADD PUSH1 0x20 DUP11 ADD PUSH2 0x2EE4 JUMP JUMPDEST PUSH1 0x9 SWAP3 ADD SWAP2 DUP3 ADD MSTORE DUP4 MLOAD PUSH2 0x36F3 DUP2 PUSH1 0xA DUP5 ADD PUSH1 0x20 DUP9 ADD PUSH2 0x2EE4 JUMP JUMPDEST ADD PUSH1 0xA ADD SWAP7 SWAP6 POP POP POP POP POP POP JUMP JUMPDEST DUP5 DUP2 MSTORE PUSH2 0x3711 PUSH1 0x20 DUP3 ADD DUP6 PUSH2 0x35A0 JUMP JUMPDEST PUSH2 0x371E PUSH1 0x21 DUP3 ADD DUP5 PUSH2 0x35B7 JUMP JUMPDEST PUSH2 0x372B PUSH1 0x22 DUP3 ADD DUP4 PUSH2 0x35C7 JUMP JUMPDEST PUSH7 0x43455254494659 PUSH1 0xC8 SHL PUSH1 0x23 DUP3 ADD MSTORE PUSH1 0x2A ADD SWAP5 SWAP4 POP POP POP POP JUMP JUMPDEST PUSH8 0x21B2B93A34B33C9 PUSH1 0xC5 SHL DUP2 MSTORE PUSH1 0x0 DUP6 MLOAD PUSH2 0x3769 DUP2 PUSH1 0x8 DUP6 ADD PUSH1 0x20 DUP11 ADD PUSH2 0x2EE4 JUMP JUMPDEST DUP1 DUP4 ADD SWAP1 POP PUSH1 0x1 PUSH1 0xFD SHL DUP1 PUSH1 0x8 DUP4 ADD MSTORE DUP7 MLOAD PUSH2 0x378C DUP2 PUSH1 0x9 DUP6 ADD PUSH1 0x20 DUP12 ADD PUSH2 0x2EE4 JUMP JUMPDEST PUSH1 0x9 SWAP3 ADD SWAP2 DUP3 ADD DUP2 SWAP1 MSTORE DUP6 MLOAD PUSH2 0x37A9 DUP2 PUSH1 0xA DUP6 ADD PUSH1 0x20 DUP11 ADD PUSH2 0x2EE4 JUMP JUMPDEST PUSH1 0xA SWAP3 ADD SWAP2 DUP3 ADD MSTORE DUP4 MLOAD PUSH2 0x37C4 DUP2 PUSH1 0xB DUP5 ADD PUSH1 0x20 DUP9 ADD PUSH2 0x2EE4 JUMP JUMPDEST ADD PUSH1 0xB ADD SWAP7 SWAP6 POP POP POP POP POP POP JUMP JUMPDEST PUSH4 0x4E487B71 PUSH1 0xE0 SHL PUSH1 0x0 MSTORE PUSH1 0x12 PUSH1 0x4 MSTORE PUSH1 0x24 PUSH1 0x0 REVERT JUMPDEST PUSH1 0x0 DUP3 PUSH2 0x37F7 JUMPI PUSH2 0x37F7 PUSH2 0x37D2 JUMP JUMPDEST POP MOD SWAP1 JUMP JUMPDEST PUSH1 0x0 DUP3 PUSH2 0x380B JUMPI PUSH2 0x380B PUSH2 0x37D2 JUMP JUMPDEST POP DIV SWAP1 JUMP JUMPDEST DUP1 DUP3 ADD DUP1 DUP3 GT ISZERO PUSH2 0x527 JUMPI PUSH2 0x527 PUSH2 0x33D8 JUMP JUMPDEST PUSH4 0x26B4B71 PUSH1 0xE5 SHL DUP2 MSTORE PUSH1 0x0 DUP3 MLOAD PUSH2 0x346F DUP2 PUSH1 0x4 DUP6 ADD PUSH1 0x20 DUP8 ADD PUSH2 0x2EE4 JUMP JUMPDEST PUSH22 0x2A3434B99030B2323932B9B99034B9903737BA10309 PUSH1 0x55 SHL DUP2 MSTORE PUSH1 0x0 DUP3 MLOAD PUSH2 0x3873 DUP2 PUSH1 0x16 DUP6 ADD PUSH1 0x20 DUP8 ADD PUSH2 0x2EE4 JUMP JUMPDEST SWAP2 SWAP1 SWAP2 ADD PUSH1 0x16 ADD SWAP3 SWAP2 POP POP JUMP JUMPDEST PUSH7 0x2932BB37B5B29 PUSH1 0xCD SHL DUP2 MSTORE PUSH1 0x0 DUP4 MLOAD PUSH2 0x38A2 DUP2 PUSH1 0x7 DUP6 ADD PUSH1 0x20 DUP9 ADD PUSH2 0x2EE4 JUMP JUMPDEST PUSH1 0x1 PUSH1 0xFD SHL PUSH1 0x7 SWAP2 DUP5 ADD SWAP2 DUP3 ADD MSTORE DUP4 MLOAD PUSH2 0x38C3 DUP2 PUSH1 0x8 DUP5 ADD PUSH1 0x20 DUP9 ADD PUSH2 0x2EE4 JUMP JUMPDEST ADD PUSH1 0x8 ADD SWAP5 SWAP4 POP POP POP POP JUMP JUMPDEST PUSH4 0xFFFFFFFF DUP3 DUP2 AND DUP3 DUP3 AND SUB SWAP1 DUP1 DUP3 GT ISZERO PUSH2 0x3599 JUMPI PUSH2 0x3599 PUSH2 0x33D8 JUMP JUMPDEST PUSH1 0xFF DUP3 DUP2 AND DUP3 DUP3 AND SUB SWAP1 DUP2 GT ISZERO PUSH2 0x527 JUMPI PUSH2 0x527 PUSH2 0x33D8 JUMP JUMPDEST PUSH1 0x0 PUSH1 0x1 DUP3 ADD PUSH2 0x3917 JUMPI PUSH2 0x3917 PUSH2 0x33D8 JUMP JUMPDEST POP PUSH1 0x1 ADD SWAP1 JUMP JUMPDEST PUSH1 0x1F DUP3 GT ISZERO PUSH2 0x7BA JUMPI PUSH1 0x0 DUP2 DUP2 MSTORE PUSH1 0x20 DUP2 KECCAK256 PUSH1 0x1F DUP6 ADD PUSH1 0x5 SHR DUP2 ADD PUSH1 0x20 DUP7 LT ISZERO PUSH2 0x3945 JUMPI POP DUP1 JUMPDEST PUSH1 0x1F DUP6 ADD PUSH1 0x5 SHR DUP3 ADD SWAP2 POP JUMPDEST DUP2 DUP2 LT ISZERO PUSH2 0x14BF JUMPI DUP3 DUP2 SSTORE PUSH1 0x1 ADD PUSH2 0x3951 JUMP JUMPDEST DUP2 MLOAD PUSH8 0xFFFFFFFFFFFFFFFF DUP2 GT ISZERO PUSH2 0x397E JUMPI PUSH2 0x397E PUSH2 0x31A0 JUMP JUMPDEST PUSH2 0x3992 DUP2 PUSH2 0x398C DUP5 SLOAD PUSH2 0x3416 JUMP JUMPDEST DUP5 PUSH2 0x391E JUMP JUMPDEST PUSH1 0x20 DUP1 PUSH1 0x1F DUP4 GT PUSH1 0x1 DUP2 EQ PUSH2 0x39C7 JUMPI PUSH1 0x0 DUP5 ISZERO PUSH2 0x39AF JUMPI POP DUP6 DUP4 ADD MLOAD JUMPDEST PUSH1 0x0 NOT PUSH1 0x3 DUP7 SWAP1 SHL SHR NOT AND PUSH1 0x1 DUP6 SWAP1 SHL OR DUP6 SSTORE PUSH2 0x14BF JUMP JUMPDEST PUSH1 0x0 DUP6 DUP2 MSTORE PUSH1 0x20 DUP2 KECCAK256 PUSH1 0x1F NOT DUP7 AND SWAP2 JUMPDEST DUP3 DUP2 LT ISZERO PUSH2 0x39F6 JUMPI DUP9 DUP7 ADD MLOAD DUP3 SSTORE SWAP5 DUP5 ADD SWAP5 PUSH1 0x1 SWAP1 SWAP2 ADD SWAP1 DUP5 ADD PUSH2 0x39D7 JUMP JUMPDEST POP DUP6 DUP3 LT ISZERO PUSH2 0x3A14 JUMPI DUP8 DUP6 ADD MLOAD PUSH1 0x0 NOT PUSH1 0x3 DUP9 SWAP1 SHL PUSH1 0xF8 AND SHR NOT AND DUP2 SSTORE JUMPDEST POP POP POP POP POP PUSH1 0x1 SWAP1 DUP2 SHL ADD SWAP1 SSTORE POP JUMP JUMPDEST PUSH1 0x0 PUSH1 0xFF DUP3 AND PUSH1 0xFF DUP2 SUB PUSH2 0x3A3A JUMPI PUSH2 0x3A3A PUSH2 0x33D8 JUMP JUMPDEST PUSH1 0x1 ADD SWAP3 SWAP2 POP POP JUMP JUMPDEST PUSH1 0xFF DUP2 DUP2 AND DUP4 DUP3 AND ADD SWAP1 DUP2 GT ISZERO PUSH2 0x527 JUMPI PUSH2 0x527 PUSH2 0x33D8 JUMP JUMPDEST PUSH4 0x4E487B71 PUSH1 0xE0 SHL PUSH1 0x0 MSTORE PUSH1 0x32 PUSH1 0x4 MSTORE PUSH1 0x24 PUSH1 0x0 REVERT JUMPDEST DUP5 DUP2 MSTORE PUSH1 0x80 DUP2 ADD PUSH2 0x3A86 PUSH1 0x20 DUP4 ADD DUP7 PUSH2 0x30B7 JUMP JUMPDEST PUSH2 0x3A93 PUSH1 0x40 DUP4 ADD DUP6 PUSH2 0x30CB JUMP JUMPDEST PUSH2 0x3AA0 PUSH1 0x60 DUP4 ADD DUP5 PUSH2 0x30DB JUMP JUMPDEST SWAP6 SWAP5 POP POP POP POP POP JUMP JUMPDEST PUSH1 0x0 DUP1 DUP4 SLOAD PUSH2 0x3AB7 DUP2 PUSH2 0x3416 JUMP JUMPDEST PUSH1 0x1 DUP3 DUP2 AND DUP1 ISZERO PUSH2 0x3ACF JUMPI PUSH1 0x1 DUP2 EQ PUSH2 0x3AE4 JUMPI PUSH2 0x3B13 JUMP JUMPDEST PUSH1 0xFF NOT DUP5 AND DUP8 MSTORE DUP3 ISZERO ISZERO DUP4 MUL DUP8 ADD SWAP5 POP PUSH2 0x3B13 JUMP JUMPDEST DUP8 PUSH1 0x0 MSTORE PUSH1 0x20 DUP1 PUSH1 0x0 KECCAK256 PUSH1 0x0 JUMPDEST DUP6 DUP2 LT ISZERO PUSH2 0x3B0A JUMPI DUP2 SLOAD DUP11 DUP3 ADD MSTORE SWAP1 DUP5 ADD SWAP1 DUP3 ADD PUSH2 0x3AF1 JUMP JUMPDEST POP POP POP DUP3 DUP8 ADD SWAP5 POP JUMPDEST POP SWAP3 SWAP7 SWAP6 POP POP POP POP POP POP JUMP JUMPDEST PUSH1 0x0 DUP3 MLOAD PUSH2 0x3B31 DUP2 DUP5 PUSH1 0x20 DUP8 ADD PUSH2 0x2EE4 JUMP JUMPDEST SWAP2 SWAP1 SWAP2 ADD SWAP3 SWAP2 POP POP JUMP JUMPDEST PUSH32 0x416363657373436F6E74726F6C3A206163636F756E7420000000000000000000 DUP2 MSTORE PUSH1 0x0 DUP4 MLOAD PUSH2 0x3B73 DUP2 PUSH1 0x17 DUP6 ADD PUSH1 0x20 DUP9 ADD PUSH2 0x2EE4 JUMP JUMPDEST PUSH17 0x1034B99036B4B9B9B4B733903937B6329 PUSH1 0x7D SHL PUSH1 0x17 SWAP2 DUP5 ADD SWAP2 DUP3 ADD MSTORE DUP4 MLOAD PUSH2 0x3BA4 DUP2 PUSH1 0x28 DUP5 ADD PUSH1 0x20 DUP9 ADD PUSH2 0x2EE4 JUMP JUMPDEST ADD PUSH1 0x28 ADD SWAP5 SWAP4 POP POP POP POP JUMP JUMPDEST DUP1 DUP3 MUL DUP2 ISZERO DUP3 DUP3 DIV DUP5 EQ OR PUSH2 0x527 JUMPI PUSH2 0x527 PUSH2 0x33D8 JUMP JUMPDEST PUSH1 0x0 DUP2 PUSH2 0x3BD6 JUMPI PUSH2 0x3BD6 PUSH2 0x33D8 JUMP JUMPDEST POP PUSH1 0x0 NOT ADD SWAP1 JUMP INVALID 0xB4 BALANCE 0xA6 SWAP8 DUP4 LOG2 0x49 BYTE 0xC BLOCKHASH 0xF CALL PUSH14 0xAB32CD442ABF8FE5AF63A526A724 DUP14 PUSH20 0x192F8562618DBCF74B61AE5B0F229FE40BA6D5B PUSH11 0xE6B4248F8C89A870DDA7C7 PUSH18 0x35F6D646AE07EB0D0F77457502A65E740793 0xD SELFDESTRUCT 0x4C 0xD4 REVERT SWAP10 0xAB 0xC6 0xAA 0xC8 PUSH27 0x753F4C8A42A26469706673582212202C194A53FBA68796369B3D38 0x24 DUP2 0xEE DUP7 0x25 PUSH27 0xDBE77E3FC816C05FF157BFB5D46564736F6C634300081300334BBE 0xB6 REVERT RETURNDATACOPY MSTORE 0x22 0xE5 0x5F 0x2F DUP12 0xC CALLDATALOAD 0xBC 0x22 DUP15 EXP MOD LOG2 0x5D 0xD 0xA7 PUSH19 0xFDB02C3B92FA004F88D646AE07EB0D0F774575 MUL 0xA6 0x5E PUSH21 0x7930DFF4CD4FD99ABC6AAC87A753F4C8A42000000 "},"methodIdentifiers":{"CERTIFIER()":"b86bc74f","CERTIFIER_ADMIN()":"e05f2fb4","DEFAULT_ADMIN_ROLE()":"a217fddf","MAX_CERTIFIERS()":"5907ebea","MAX_CERTIFIERS_ADMIN()":"9e339909","MIN_CERTIFIERS_ADMIN()":"33b72e49","PERCENT_TO_CERTIFY()":"6bc6421b","PERCENT_TO_DELETE_STUDENT()":"d0fb68c7","PERCENT_TO_EDIT_CERTIFICATE()":"2cd94e4f","PERCENT_TO_GRANT_CERTIFIER()":"4da11a20","PERCENT_TO_GRANT_CERTIFIER_ADMIN()":"0f68794a","PERCENT_TO_REVOKE_CERTIFIER()":"1a9cfe28","PERCENT_TO_REVOKE_CERTIFIER_ADMIN()":"7cd29fb7","ceilUDiv(uint256,uint256)":"bf802091","certificates(bytes32)":"742f0688","certificatesByStudent(uint256,uint256)":"4cce913b","certify(uint256,uint8,uint8,uint8,bool)":"ace81910","createStudent(uint256,string,string,uint256)":"a1cebf52","deleteCertificate(uint256,uint8,uint8,uint8,bool)":"8856a0e9","editStudentById(uint256,string,string,uint256)":"c9dbcfda","getCertificatesByStudent(uint256)":"e5a357f5","getRoleAdmin(bytes32)":"248a9ca3","getStudent(uint256)":"642f9163","grantAnyRole(bytes32,address,bool)":"719129be","grantRole(bytes32,address)":"2f2ff15d","hasRole(bytes32,address)":"91d14854","multiSig(bytes32)":"1a968069","multiSigId(uint256)":"9dd09a73","removeStudentById(uint256,bool)":"05f84d45","renounceRole(bytes32,address)":"36568abe","revokeAnyRole(bytes32,address,bool)":"d3243ad8","revokeRole(bytes32,address)":"d547741f","students(uint256)":"06ead22e","studentsIds(uint256)":"df3a12dd","supportsInterface(bytes4)":"01ffc9a7"}}}}}