{"contracts/Students.sol":{"Students":{"abi":[{"anonymous":false,"inputs":[{"indexed":false,"internalType":"uint256","name":"id","type":"uint256"},{"indexed":false,"internalType":"string","name":"firstname","type":"string"},{"indexed":false,"internalType":"string","name":"lastname","type":"string"},{"indexed":false,"internalType":"uint256","name":"birthdate","type":"uint256"}],"name":"StudentAdded","type":"event"},{"anonymous":false,"inputs":[{"indexed":false,"internalType":"uint256","name":"id","type":"uint256"}],"name":"StudentDeleted","type":"event"},{"anonymous":false,"inputs":[{"indexed":false,"internalType":"uint256","name":"id","type":"uint256"},{"indexed":false,"internalType":"string","name":"firstname","type":"string"},{"indexed":false,"internalType":"string","name":"lastname","type":"string"},{"indexed":false,"internalType":"uint256","name":"birthdate","type":"uint256"}],"name":"StudentEdited","type":"event"},{"inputs":[{"internalType":"uint256","name":"_id","type":"uint256"}],"name":"getStudent","outputs":[{"internalType":"string","name":"","type":"string"},{"internalType":"string","name":"","type":"string"},{"internalType":"uint256","name":"","type":"uint256"}],"stateMutability":"view","type":"function"},{"inputs":[{"internalType":"uint256","name":"","type":"uint256"}],"name":"students","outputs":[{"internalType":"uint256","name":"id","type":"uint256"},{"internalType":"string","name":"firstname","type":"string"},{"internalType":"string","name":"lastname","type":"string"},{"internalType":"uint256","name":"birthdate","type":"uint256"}],"stateMutability":"view","type":"function"},{"inputs":[{"internalType":"uint256","name":"","type":"uint256"}],"name":"studentsIds","outputs":[{"internalType":"uint256","name":"","type":"uint256"}],"stateMutability":"view","type":"function"}],"evm":{"bytecode":{"linkReferences":{},"object":"608060405234801561001057600080fd5b506104f3806100206000396000f3fe608060405234801561001057600080fd5b50600436106100415760003560e01c806306ead22e14610046578063642f916314610072578063df3a12dd14610094575b600080fd5b6100596100543660046103b1565b6100b5565b6040516100699493929190610410565b60405180910390f35b6100856100803660046103b1565b6101ee565b6040516100699392919061044d565b6100a76100a23660046103b1565b610390565b604051908152602001610069565b600060208190529081526040902080546001820180549192916100d790610483565b80601f016020809104026020016040519081016040528092919081815260200182805461010390610483565b80156101505780601f1061012557610100808354040283529160200191610150565b820191906000526020600020905b81548152906001019060200180831161013357829003601f168201915b50505050509080600201805461016590610483565b80601f016020809104026020016040519081016040528092919081815260200182805461019190610483565b80156101de5780601f106101b3576101008083540402835291602001916101de565b820191906000526020600020905b8154815290600101906020018083116101c157829003601f168201915b5050505050908060030154905084565b6000818152602081905260408120546060918291810361024c5760405162461bcd60e51b815260206004820152601560248201527414dd1d59195b9d08191bd95cdb89dd08195e1a5cdd605a1b604482015260640160405180910390fd5b6000848152602081905260409020600381015460018201805490926002019190839061027790610483565b80601f01602080910402602001604051908101604052809291908181526020018280546102a390610483565b80156102f05780601f106102c5576101008083540402835291602001916102f0565b820191906000526020600020905b8154815290600101906020018083116102d357829003601f168201915b5050505050925081805461030390610483565b80601f016020809104026020016040519081016040528092919081815260200182805461032f90610483565b801561037c5780601f106103515761010080835404028352916020019161037c565b820191906000526020600020905b81548152906001019060200180831161035f57829003601f168201915b505050505091509250925092509193909250565b600181815481106103a057600080fd5b600091825260209091200154905081565b6000602082840312156103c357600080fd5b5035919050565b6000815180845260005b818110156103f0576020818501810151868301820152016103d4565b506000602082860101526020601f19601f83011685010191505092915050565b84815260806020820152600061042960808301866103ca565b828103604084015261043b81866103ca565b91505082606083015295945050505050565b60608152600061046060608301866103ca565b828103602084015261047281866103ca565b915050826040830152949350505050565b600181811c9082168061049757607f821691505b6020821081036104b757634e487b7160e01b600052602260045260246000fd5b5091905056fea26469706673582212207c82580838824c858befa1473c9649f1dcf04f19adcdd2b09a8ea9191db4a45764736f6c63430008130033","opcodes":"PUSH1 0x80 PUSH1 0x40 MSTORE CALLVALUE DUP1 ISZERO PUSH2 0x10 JUMPI PUSH1 0x0 DUP1 REVERT JUMPDEST POP PUSH2 0x4F3 DUP1 PUSH2 0x20 PUSH1 0x0 CODECOPY PUSH1 0x0 RETURN INVALID PUSH1 0x80 PUSH1 0x40 MSTORE CALLVALUE DUP1 ISZERO PUSH2 0x10 JUMPI PUSH1 0x0 DUP1 REVERT JUMPDEST POP PUSH1 0x4 CALLDATASIZE LT PUSH2 0x41 JUMPI PUSH1 0x0 CALLDATALOAD PUSH1 0xE0 SHR DUP1 PUSH4 0x6EAD22E EQ PUSH2 0x46 JUMPI DUP1 PUSH4 0x642F9163 EQ PUSH2 0x72 JUMPI DUP1 PUSH4 0xDF3A12DD EQ PUSH2 0x94 JUMPI JUMPDEST PUSH1 0x0 DUP1 REVERT JUMPDEST PUSH2 0x59 PUSH2 0x54 CALLDATASIZE PUSH1 0x4 PUSH2 0x3B1 JUMP JUMPDEST PUSH2 0xB5 JUMP JUMPDEST PUSH1 0x40 MLOAD PUSH2 0x69 SWAP5 SWAP4 SWAP3 SWAP2 SWAP1 PUSH2 0x410 JUMP JUMPDEST PUSH1 0x40 MLOAD DUP1 SWAP2 SUB SWAP1 RETURN JUMPDEST PUSH2 0x85 PUSH2 0x80 CALLDATASIZE PUSH1 0x4 PUSH2 0x3B1 JUMP JUMPDEST PUSH2 0x1EE JUMP JUMPDEST PUSH1 0x40 MLOAD PUSH2 0x69 SWAP4 SWAP3 SWAP2 SWAP1 PUSH2 0x44D JUMP JUMPDEST PUSH2 0xA7 PUSH2 0xA2 CALLDATASIZE PUSH1 0x4 PUSH2 0x3B1 JUMP JUMPDEST PUSH2 0x390 JUMP JUMPDEST PUSH1 0x40 MLOAD SWAP1 DUP2 MSTORE PUSH1 0x20 ADD PUSH2 0x69 JUMP JUMPDEST PUSH1 0x0 PUSH1 0x20 DUP2 SWAP1 MSTORE SWAP1 DUP2 MSTORE PUSH1 0x40 SWAP1 KECCAK256 DUP1 SLOAD PUSH1 0x1 DUP3 ADD DUP1 SLOAD SWAP2 SWAP3 SWAP2 PUSH2 0xD7 SWAP1 PUSH2 0x483 JUMP JUMPDEST DUP1 PUSH1 0x1F ADD PUSH1 0x20 DUP1 SWAP2 DIV MUL PUSH1 0x20 ADD PUSH1 0x40 MLOAD SWAP1 DUP2 ADD PUSH1 0x40 MSTORE DUP1 SWAP3 SWAP2 SWAP1 DUP2 DUP2 MSTORE PUSH1 0x20 ADD DUP3 DUP1 SLOAD PUSH2 0x103 SWAP1 PUSH2 0x483 JUMP JUMPDEST DUP1 ISZERO PUSH2 0x150 JUMPI DUP1 PUSH1 0x1F LT PUSH2 0x125 JUMPI PUSH2 0x100 DUP1 DUP4 SLOAD DIV MUL DUP4 MSTORE SWAP2 PUSH1 0x20 ADD SWAP2 PUSH2 0x150 JUMP JUMPDEST DUP3 ADD SWAP2 SWAP1 PUSH1 0x0 MSTORE PUSH1 0x20 PUSH1 0x0 KECCAK256 SWAP1 JUMPDEST DUP2 SLOAD DUP2 MSTORE SWAP1 PUSH1 0x1 ADD SWAP1 PUSH1 0x20 ADD DUP1 DUP4 GT PUSH2 0x133 JUMPI DUP3 SWAP1 SUB PUSH1 0x1F AND DUP3 ADD SWAP2 JUMPDEST POP POP POP POP POP SWAP1 DUP1 PUSH1 0x2 ADD DUP1 SLOAD PUSH2 0x165 SWAP1 PUSH2 0x483 JUMP JUMPDEST DUP1 PUSH1 0x1F ADD PUSH1 0x20 DUP1 SWAP2 DIV MUL PUSH1 0x20 ADD PUSH1 0x40 MLOAD SWAP1 DUP2 ADD PUSH1 0x40 MSTORE DUP1 SWAP3 SWAP2 SWAP1 DUP2 DUP2 MSTORE PUSH1 0x20 ADD DUP3 DUP1 SLOAD PUSH2 0x191 SWAP1 PUSH2 0x483 JUMP JUMPDEST DUP1 ISZERO PUSH2 0x1DE JUMPI DUP1 PUSH1 0x1F LT PUSH2 0x1B3 JUMPI PUSH2 0x100 DUP1 DUP4 SLOAD DIV MUL DUP4 MSTORE SWAP2 PUSH1 0x20 ADD SWAP2 PUSH2 0x1DE JUMP JUMPDEST DUP3 ADD SWAP2 SWAP1 PUSH1 0x0 MSTORE PUSH1 0x20 PUSH1 0x0 KECCAK256 SWAP1 JUMPDEST DUP2 SLOAD DUP2 MSTORE SWAP1 PUSH1 0x1 ADD SWAP1 PUSH1 0x20 ADD DUP1 DUP4 GT PUSH2 0x1C1 JUMPI DUP3 SWAP1 SUB PUSH1 0x1F AND DUP3 ADD SWAP2 JUMPDEST POP POP POP POP POP SWAP1 DUP1 PUSH1 0x3 ADD SLOAD SWAP1 POP DUP5 JUMP JUMPDEST PUSH1 0x0 DUP2 DUP2 MSTORE PUSH1 0x20 DUP2 SWAP1 MSTORE PUSH1 0x40 DUP2 KECCAK256 SLOAD PUSH1 0x60 SWAP2 DUP3 SWAP2 DUP2 SUB PUSH2 0x24C JUMPI PUSH1 0x40 MLOAD PUSH3 0x461BCD PUSH1 0xE5 SHL DUP2 MSTORE PUSH1 0x20 PUSH1 0x4 DUP3 ADD MSTORE PUSH1 0x15 PUSH1 0x24 DUP3 ADD MSTORE PUSH21 0x14DD1D59195B9D08191BD95CDB89DD08195E1A5CDD PUSH1 0x5A SHL PUSH1 0x44 DUP3 ADD MSTORE PUSH1 0x64 ADD PUSH1 0x40 MLOAD DUP1 SWAP2 SUB SWAP1 REVERT JUMPDEST PUSH1 0x0 DUP5 DUP2 MSTORE PUSH1 0x20 DUP2 SWAP1 MSTORE PUSH1 0x40 SWAP1 KECCAK256 PUSH1 0x3 DUP2 ADD SLOAD PUSH1 0x1 DUP3 ADD DUP1 SLOAD SWAP1 SWAP3 PUSH1 0x2 ADD SWAP2 SWAP1 DUP4 SWAP1 PUSH2 0x277 SWAP1 PUSH2 0x483 JUMP JUMPDEST DUP1 PUSH1 0x1F ADD PUSH1 0x20 DUP1 SWAP2 DIV MUL PUSH1 0x20 ADD PUSH1 0x40 MLOAD SWAP1 DUP2 ADD PUSH1 0x40 MSTORE DUP1 SWAP3 SWAP2 SWAP1 DUP2 DUP2 MSTORE PUSH1 0x20 ADD DUP3 DUP1 SLOAD PUSH2 0x2A3 SWAP1 PUSH2 0x483 JUMP JUMPDEST DUP1 ISZERO PUSH2 0x2F0 JUMPI DUP1 PUSH1 0x1F LT PUSH2 0x2C5 JUMPI PUSH2 0x100 DUP1 DUP4 SLOAD DIV MUL DUP4 MSTORE SWAP2 PUSH1 0x20 ADD SWAP2 PUSH2 0x2F0 JUMP JUMPDEST DUP3 ADD SWAP2 SWAP1 PUSH1 0x0 MSTORE PUSH1 0x20 PUSH1 0x0 KECCAK256 SWAP1 JUMPDEST DUP2 SLOAD DUP2 MSTORE SWAP1 PUSH1 0x1 ADD SWAP1 PUSH1 0x20 ADD DUP1 DUP4 GT PUSH2 0x2D3 JUMPI DUP3 SWAP1 SUB PUSH1 0x1F AND DUP3 ADD SWAP2 JUMPDEST POP POP POP POP POP SWAP3 POP DUP2 DUP1 SLOAD PUSH2 0x303 SWAP1 PUSH2 0x483 JUMP JUMPDEST DUP1 PUSH1 0x1F ADD PUSH1 0x20 DUP1 SWAP2 DIV MUL PUSH1 0x20 ADD PUSH1 0x40 MLOAD SWAP1 DUP2 ADD PUSH1 0x40 MSTORE DUP1 SWAP3 SWAP2 SWAP1 DUP2 DUP2 MSTORE PUSH1 0x20 ADD DUP3 DUP1 SLOAD PUSH2 0x32F SWAP1 PUSH2 0x483 JUMP JUMPDEST DUP1 ISZERO PUSH2 0x37C JUMPI DUP1 PUSH1 0x1F LT PUSH2 0x351 JUMPI PUSH2 0x100 DUP1 DUP4 SLOAD DIV MUL DUP4 MSTORE SWAP2 PUSH1 0x20 ADD SWAP2 PUSH2 0x37C JUMP JUMPDEST DUP3 ADD SWAP2 SWAP1 PUSH1 0x0 MSTORE PUSH1 0x20 PUSH1 0x0 KECCAK256 SWAP1 JUMPDEST DUP2 SLOAD DUP2 MSTORE SWAP1 PUSH1 0x1 ADD SWAP1 PUSH1 0x20 ADD DUP1 DUP4 GT PUSH2 0x35F JUMPI DUP3 SWAP1 SUB PUSH1 0x1F AND DUP3 ADD SWAP2 JUMPDEST POP POP POP POP POP SWAP2 POP SWAP3 POP SWAP3 POP SWAP3 POP SWAP2 SWAP4 SWAP1 SWAP3 POP JUMP JUMPDEST PUSH1 0x1 DUP2 DUP2 SLOAD DUP2 LT PUSH2 0x3A0 JUMPI PUSH1 0x0 DUP1 REVERT JUMPDEST PUSH1 0x0 SWAP2 DUP3 MSTORE PUSH1 0x20 SWAP1 SWAP2 KECCAK256 ADD SLOAD SWAP1 POP DUP2 JUMP JUMPDEST PUSH1 0x0 PUSH1 0x20 DUP3 DUP5 SUB SLT ISZERO PUSH2 0x3C3 JUMPI PUSH1 0x0 DUP1 REVERT JUMPDEST POP CALLDATALOAD SWAP2 SWAP1 POP JUMP JUMPDEST PUSH1 0x0 DUP2 MLOAD DUP1 DUP5 MSTORE PUSH1 0x0 JUMPDEST DUP2 DUP2 LT ISZERO PUSH2 0x3F0 JUMPI PUSH1 0x20 DUP2 DUP6 ADD DUP2 ADD MLOAD DUP7 DUP4 ADD DUP3 ADD MSTORE ADD PUSH2 0x3D4 JUMP JUMPDEST POP PUSH1 0x0 PUSH1 0x20 DUP3 DUP7 ADD ADD MSTORE PUSH1 0x20 PUSH1 0x1F NOT PUSH1 0x1F DUP4 ADD AND DUP6 ADD ADD SWAP2 POP POP SWAP3 SWAP2 POP POP JUMP JUMPDEST DUP5 DUP2 MSTORE PUSH1 0x80 PUSH1 0x20 DUP3 ADD MSTORE PUSH1 0x0 PUSH2 0x429 PUSH1 0x80 DUP4 ADD DUP7 PUSH2 0x3CA JUMP JUMPDEST DUP3 DUP2 SUB PUSH1 0x40 DUP5 ADD MSTORE PUSH2 0x43B DUP2 DUP7 PUSH2 0x3CA JUMP JUMPDEST SWAP2 POP POP DUP3 PUSH1 0x60 DUP4 ADD MSTORE SWAP6 SWAP5 POP POP POP POP POP JUMP JUMPDEST PUSH1 0x60 DUP2 MSTORE PUSH1 0x0 PUSH2 0x460 PUSH1 0x60 DUP4 ADD DUP7 PUSH2 0x3CA JUMP JUMPDEST DUP3 DUP2 SUB PUSH1 0x20 DUP5 ADD MSTORE PUSH2 0x472 DUP2 DUP7 PUSH2 0x3CA JUMP JUMPDEST SWAP2 POP POP DUP3 PUSH1 0x40 DUP4 ADD MSTORE SWAP5 SWAP4 POP POP POP POP JUMP JUMPDEST PUSH1 0x1 DUP2 DUP2 SHR SWAP1 DUP3 AND DUP1 PUSH2 0x497 JUMPI PUSH1 0x7F DUP3 AND SWAP2 POP JUMPDEST PUSH1 0x20 DUP3 LT DUP2 SUB PUSH2 0x4B7 JUMPI PUSH4 0x4E487B71 PUSH1 0xE0 SHL PUSH1 0x0 MSTORE PUSH1 0x22 PUSH1 0x4 MSTORE PUSH1 0x24 PUSH1 0x0 REVERT JUMPDEST POP SWAP2 SWAP1 POP JUMP INVALID LOG2 PUSH5 0x6970667358 0x22 SLT KECCAK256 PUSH29 0x82580838824C858BEFA1473C9649F1DCF04F19ADCDD2B09A8EA9191DB4 LOG4 JUMPI PUSH5 0x736F6C6343 STOP ADDMOD SGT STOP CALLER "},"methodIdentifiers":{"getStudent(uint256)":"642f9163","students(uint256)":"06ead22e","studentsIds(uint256)":"df3a12dd"}}}}}