{"contracts/Certifications.sol":{"Certifications":{"abi":[{"inputs":[{"internalType":"address","name":"certifier_admin1","type":"address"},{"internalType":"address","name":"certifier_admin2","type":"address"}],"stateMutability":"nonpayable","type":"constructor"},{"anonymous":false,"inputs":[{"indexed":true,"internalType":"bytes32","name":"role","type":"bytes32"},{"indexed":true,"internalType":"bytes32","name":"previousAdminRole","type":"bytes32"},{"indexed":true,"internalType":"bytes32","name":"newAdminRole","type":"bytes32"}],"name":"RoleAdminChanged","type":"event"},{"anonymous":false,"inputs":[{"indexed":true,"internalType":"bytes32","name":"role","type":"bytes32"},{"indexed":true,"internalType":"address","name":"account","type":"address"},{"indexed":true,"internalType":"address","name":"sender","type":"address"}],"name":"RoleGranted","type":"event"},{"anonymous":false,"inputs":[{"indexed":true,"internalType":"bytes32","name":"role","type":"bytes32"},{"indexed":true,"internalType":"address","name":"account","type":"address"},{"indexed":true,"internalType":"address","name":"sender","type":"address"}],"name":"RoleRevoked","type":"event"},{"anonymous":false,"inputs":[{"indexed":false,"internalType":"uint256","name":"id","type":"uint256"},{"indexed":false,"internalType":"string","name":"firstname","type":"string"},{"indexed":false,"internalType":"string","name":"lastname","type":"string"},{"indexed":false,"internalType":"uint256","name":"birthdate","type":"uint256"}],"name":"StudentAdded","type":"event"},{"anonymous":false,"inputs":[{"indexed":false,"internalType":"uint256","name":"id","type":"uint256"}],"name":"StudentDeleted","type":"event"},{"anonymous":false,"inputs":[{"indexed":false,"internalType":"uint256","name":"id","type":"uint256"},{"indexed":false,"internalType":"string","name":"firstname","type":"string"},{"indexed":false,"internalType":"string","name":"lastname","type":"string"},{"indexed":false,"internalType":"uint256","name":"birthdate","type":"uint256"}],"name":"StudentEdited","type":"event"},{"anonymous":false,"inputs":[{"indexed":false,"internalType":"uint256","name":"studentId","type":"uint256"},{"indexed":false,"internalType":"enum Certifications.appreciation","name":"appreciation","type":"uint8"},{"indexed":false,"internalType":"enum Certifications.degree","name":"degree","type":"uint8"},{"indexed":false,"internalType":"enum Certifications.program","name":"program","type":"uint8"}],"name":"certificationEmited","type":"event"},{"anonymous":false,"inputs":[{"indexed":false,"internalType":"bytes32","name":"multiSigName","type":"bytes32"}],"name":"multiSigCleared","type":"event"},{"anonymous":false,"inputs":[{"indexed":false,"internalType":"bytes32","name":"multiSigName","type":"bytes32"}],"name":"multiSigSigned","type":"event"},{"inputs":[],"name":"CERTIFIER","outputs":[{"internalType":"bytes32","name":"","type":"bytes32"}],"stateMutability":"view","type":"function"},{"inputs":[],"name":"CERTIFIER_ADMIN","outputs":[{"internalType":"bytes32","name":"","type":"bytes32"}],"stateMutability":"view","type":"function"},{"inputs":[],"name":"DEFAULT_ADMIN_ROLE","outputs":[{"internalType":"bytes32","name":"","type":"bytes32"}],"stateMutability":"view","type":"function"},{"inputs":[],"name":"MAX_CERTIFIERS","outputs":[{"internalType":"uint8","name":"","type":"uint8"}],"stateMutability":"view","type":"function"},{"inputs":[],"name":"MAX_CERTIFIERS_ADMIN","outputs":[{"internalType":"uint8","name":"","type":"uint8"}],"stateMutability":"view","type":"function"},{"inputs":[],"name":"MIN_CERTIFIERS_ADMIN","outputs":[{"internalType":"uint8","name":"","type":"uint8"}],"stateMutability":"view","type":"function"},{"inputs":[],"name":"PERCENT_TO_CERTIFY","outputs":[{"internalType":"uint8","name":"","type":"uint8"}],"stateMutability":"view","type":"function"},{"inputs":[],"name":"PERCENT_TO_DELETE_STUDENT","outputs":[{"internalType":"uint8","name":"","type":"uint8"}],"stateMutability":"view","type":"function"},{"inputs":[],"name":"PERCENT_TO_EDIT_CERTIFICATE","outputs":[{"internalType":"uint8","name":"","type":"uint8"}],"stateMutability":"view","type":"function"},{"inputs":[],"name":"PERCENT_TO_GRANT_CERTIFIER","outputs":[{"internalType":"uint8","name":"","type":"uint8"}],"stateMutability":"view","type":"function"},{"inputs":[],"name":"PERCENT_TO_GRANT_CERTIFIER_ADMIN","outputs":[{"internalType":"uint8","name":"","type":"uint8"}],"stateMutability":"view","type":"function"},{"inputs":[],"name":"PERCENT_TO_REVOKE_CERTIFIER","outputs":[{"internalType":"uint8","name":"","type":"uint8"}],"stateMutability":"view","type":"function"},{"inputs":[],"name":"PERCENT_TO_REVOKE_CERTIFIER_ADMIN","outputs":[{"internalType":"uint8","name":"","type":"uint8"}],"stateMutability":"view","type":"function"},{"inputs":[{"internalType":"address","name":"_address","type":"address"}],"name":"addToStr","outputs":[{"internalType":"string","name":"","type":"string"}],"stateMutability":"pure","type":"function"},{"inputs":[{"internalType":"uint256","name":"a","type":"uint256"},{"internalType":"uint256","name":"b","type":"uint256"}],"name":"ceilUDiv","outputs":[{"internalType":"uint256","name":"","type":"uint256"}],"stateMutability":"pure","type":"function"},{"inputs":[{"internalType":"bytes32","name":"","type":"bytes32"}],"name":"certificates","outputs":[{"internalType":"enum Certifications.appreciation","name":"appreciation","type":"uint8"},{"internalType":"enum Certifications.degree","name":"degree","type":"uint8"},{"internalType":"enum Certifications.program","name":"program","type":"uint8"},{"internalType":"uint256","name":"creation_date","type":"uint256"},{"internalType":"bool","name":"validity","type":"bool"},{"internalType":"uint256","name":"stud_id","type":"uint256"}],"stateMutability":"view","type":"function"},{"inputs":[{"internalType":"uint256","name":"","type":"uint256"},{"internalType":"uint256","name":"","type":"uint256"}],"name":"certificatesByStudent","outputs":[{"internalType":"bytes32","name":"","type":"bytes32"}],"stateMutability":"view","type":"function"},{"inputs":[{"internalType":"uint256","name":"studentId","type":"uint256"},{"internalType":"enum Certifications.appreciation","name":"app","type":"uint8"},{"internalType":"enum Certifications.degree","name":"deg","type":"uint8"},{"internalType":"enum Certifications.program","name":"prog","type":"uint8"},{"internalType":"bool","name":"approve","type":"bool"}],"name":"certify","outputs":[],"stateMutability":"nonpayable","type":"function"},{"inputs":[{"internalType":"uint256","name":"_id","type":"uint256"},{"internalType":"string","name":"_firstname","type":"string"},{"internalType":"string","name":"_lastname","type":"string"},{"internalType":"uint256","name":"_birthdate","type":"uint256"}],"name":"createStudent","outputs":[],"stateMutability":"nonpayable","type":"function"},{"inputs":[{"internalType":"uint256","name":"studentId","type":"uint256"},{"internalType":"enum Certifications.appreciation","name":"app","type":"uint8"},{"internalType":"enum Certifications.degree","name":"deg","type":"uint8"},{"internalType":"enum Certifications.program","name":"prog","type":"uint8"},{"internalType":"bool","name":"approve","type":"bool"}],"name":"deleteCertificate","outputs":[],"stateMutability":"nonpayable","type":"function"},{"inputs":[{"internalType":"uint256","name":"_id","type":"uint256"},{"internalType":"string","name":"_firstname","type":"string"},{"internalType":"string","name":"_lastname","type":"string"},{"internalType":"uint256","name":"_birthdate","type":"uint256"}],"name":"editStudentById","outputs":[],"stateMutability":"nonpayable","type":"function"},{"inputs":[{"internalType":"address","name":"signer","type":"address"}],"name":"getAllMultiSig","outputs":[{"internalType":"bytes32[]","name":"","type":"bytes32[]"},{"internalType":"uint8[]","name":"","type":"uint8[]"},{"internalType":"string[]","name":"","type":"string[]"},{"internalType":"bool[]","name":"","type":"bool[]"}],"stateMutability":"view","type":"function"},{"inputs":[{"internalType":"uint256","name":"_id","type":"uint256"}],"name":"getCertificatesByStudent","outputs":[{"internalType":"bytes32[]","name":"","type":"bytes32[]"}],"stateMutability":"view","type":"function"},{"inputs":[{"internalType":"bytes32","name":"_id","type":"bytes32"}],"name":"getCertificationById","outputs":[{"internalType":"uint8","name":"","type":"uint8"},{"internalType":"uint8","name":"","type":"uint8"},{"internalType":"uint8","name":"","type":"uint8"},{"internalType":"uint256","name":"","type":"uint256"},{"internalType":"uint256","name":"","type":"uint256"}],"stateMutability":"view","type":"function"},{"inputs":[{"internalType":"bytes32","name":"role","type":"bytes32"}],"name":"getRoleAdmin","outputs":[{"internalType":"bytes32","name":"","type":"bytes32"}],"stateMutability":"view","type":"function"},{"inputs":[{"internalType":"bytes32","name":"_role","type":"bytes32"}],"name":"getRoleMembersNb","outputs":[{"internalType":"uint256","name":"","type":"uint256"}],"stateMutability":"view","type":"function"},{"inputs":[{"internalType":"uint256","name":"_id","type":"uint256"}],"name":"getStudent","outputs":[{"internalType":"string","name":"","type":"string"},{"internalType":"string","name":"","type":"string"},{"internalType":"uint256","name":"","type":"uint256"}],"stateMutability":"view","type":"function"},{"inputs":[{"internalType":"bytes32","name":"roleHash","type":"bytes32"},{"internalType":"address","name":"target","type":"address"},{"internalType":"bool","name":"approve","type":"bool"}],"name":"grantAnyRole","outputs":[],"stateMutability":"nonpayable","type":"function"},{"inputs":[{"internalType":"bytes32","name":"role","type":"bytes32"},{"internalType":"address","name":"account","type":"address"}],"name":"grantRole","outputs":[],"stateMutability":"nonpayable","type":"function"},{"inputs":[{"internalType":"bytes32","name":"role","type":"bytes32"},{"internalType":"address","name":"account","type":"address"}],"name":"hasRole","outputs":[{"internalType":"bool","name":"","type":"bool"}],"stateMutability":"view","type":"function"},{"inputs":[{"internalType":"bytes32","name":"","type":"bytes32"}],"name":"multiSig","outputs":[{"internalType":"bool","name":"created","type":"bool"},{"internalType":"bytes32","name":"role","type":"bytes32"},{"internalType":"uint8","name":"count","type":"uint8"},{"internalType":"uint8","name":"id","type":"uint8"},{"internalType":"string","name":"info","type":"string"}],"stateMutability":"view","type":"function"},{"inputs":[{"internalType":"uint256","name":"","type":"uint256"}],"name":"multiSigId","outputs":[{"internalType":"bytes32","name":"","type":"bytes32"}],"stateMutability":"view","type":"function"},{"inputs":[{"internalType":"uint256","name":"_id","type":"uint256"},{"internalType":"bool","name":"_approve","type":"bool"}],"name":"removeStudentById","outputs":[],"stateMutability":"nonpayable","type":"function"},{"inputs":[{"internalType":"bytes32","name":"","type":"bytes32"},{"internalType":"address","name":"","type":"address"}],"name":"renounceRole","outputs":[],"stateMutability":"nonpayable","type":"function"},{"inputs":[{"internalType":"bytes32","name":"roleHash","type":"bytes32"},{"internalType":"address","name":"target","type":"address"},{"internalType":"bool","name":"approve","type":"bool"}],"name":"revokeAnyRole","outputs":[],"stateMutability":"nonpayable","type":"function"},{"inputs":[{"internalType":"bytes32","name":"role","type":"bytes32"},{"internalType":"address","name":"account","type":"address"}],"name":"revokeRole","outputs":[],"stateMutability":"nonpayable","type":"function"},{"inputs":[{"internalType":"uint256","name":"","type":"uint256"}],"name":"students","outputs":[{"internalType":"uint256","name":"id","type":"uint256"},{"internalType":"string","name":"firstname","type":"string"},{"internalType":"string","name":"lastname","type":"string"},{"internalType":"uint256","name":"birthdate","type":"uint256"}],"stateMutability":"view","type":"function"},{"inputs":[{"internalType":"uint256","name":"","type":"uint256"}],"name":"studentsIds","outputs":[{"internalType":"uint256","name":"","type":"uint256"}],"stateMutability":"view","type":"function"},{"inputs":[{"internalType":"bytes4","name":"interfaceId","type":"bytes4"}],"name":"supportsInterface","outputs":[{"internalType":"bool","name":"","type":"bool"}],"stateMutability":"view","type":"function"}],"evm":{"bytecode":{"linkReferences":{},"object":"60806040523480156200001157600080fd5b5060405162004b3238038062004b328339810160408190526200003491620005de565b6001600160a01b0382166200009c5760405162461bcd60e51b8152602060048201526024808201527f4365727469666965722061646d696e3120616464726573732063616e6e6f74206044820152630626520360e41b60648201526084015b60405180910390fd5b6001600160a01b038116620001005760405162461bcd60e51b8152602060048201526024808201527f4365727469666965722061646d696e3220616464726573732063616e6e6f74206044820152630626520360e41b606482015260840162000093565b806001600160a01b0316826001600160a01b031603620001725760405162461bcd60e51b815260206004820152602660248201527f436572746966696572206164647265737365732063616e6e6f74206265207468604482015265652073616d6560d01b606482015260840162000093565b6200018d60008051602062004af28339815191528362000511565b620001a860008051602062004af28339815191528262000521565b6040805160e0810182526002808252602080830191909152600f82840152605060608301819052608083015260008051602062004af283398151915260a08301529151909160c08301916200021391016e21a2a92a24a324a2a92fa0a226a4a760891b8152600f0190565b6040516020818303038152906040526200022d9062000616565b905260008051602062004af283398151915260009081526003602090815282517f996892c26f58715b0987b59a23f94e8ef0c02cd4cae9fdbc7a2316b6cd446de080549285015160408601516060870151608088015160ff908116600160681b0260ff60681b19919092166c010000000000000000000000000260ff60601b1963ffffffff94851668010000000000000000021664ffffffffff60401b19958516640100000000026001600160401b03199099169490971693909317969096179290921693909317929092179290921617905560a08201517f996892c26f58715b0987b59a23f94e8ef0c02cd4cae9fdbc7a2316b6cd446de15560c0909101517f996892c26f58715b0987b59a23f94e8ef0c02cd4cae9fdbc7a2316b6cd446de2556200036b9060008051602062004b128339815191529062000511565b6040805160e0810182526000808252602080830191909152600f82840152605060608301819052608083015260008051602062004af283398151915260a08301529151909160c0830191620003d091016821a2a92a24a324a2a960b91b815260090190565b604051602081830303815290604052620003ea9062000616565b905260008051602062004b128339815191526000526003602090815281517f04ed60087a82bd97d8afa881e356d9b31a57e1f4fa6c3493c1181428b0c3356280549284015160408501516060860151608087015160ff908116600160681b0260ff60681b19919092166c010000000000000000000000000260ff60601b1963ffffffff94851668010000000000000000021664ffffffffff60401b19958516640100000000026001600160401b03199099169490971693909317969096179290921693909317929092179290921617905560a08101517f04ed60087a82bd97d8afa881e356d9b31a57e1f4fa6c3493c1181428b0c335635560c001517f04ed60087a82bd97d8afa881e356d9b31a57e1f4fa6c3493c1181428b0c3356455506200063e9050565b6200051d828262000521565b5050565b6000828152602081815260408083206001600160a01b038516845290915290205460ff166200051d576000828152602081815260408083206001600160a01b03851684529091529020805460ff191660011790556200057d3390565b6001600160a01b0316816001600160a01b0316837f2f8788117e7eff1d82e926ec794901d17c78024a50270940304540a733656f0d60405160405180910390a45050565b80516001600160a01b0381168114620005d957600080fd5b919050565b60008060408385031215620005f257600080fd5b620005fd83620005c1565b91506200060d60208401620005c1565b90509250929050565b8051602080830151919081101562000638576000198160200360031b1b821691505b50919050565b6144a4806200064e6000396000f3fe608060405234801561001057600080fd5b506004361061023d5760003560e01c80637cd29fb71161013b578063b86bc74f116100b8578063d547741f1161007c578063d547741f14610520578063d911f55314610533578063df3a12dd14610579578063e05f2fb41461058c578063e5a357f5146105b357600080fd5b8063b86bc74f146104d2578063bf802091146104e7578063c9dbcfda146104fa578063d0fb68c7146102a2578063d3243ad81461050d57600080fd5b80639e339909116100ff5780639e33990914610372578063a1cebf521461047e578063a217fddf14610491578063a3eabd3d14610499578063ace81910146104bf57600080fd5b80637cd29fb7146102a25780638856a0e9146104155780638e82d0e71461042857806391d148541461044b5780639dd09a731461045e57600080fd5b80632f2ff15d116101c95780635907ebea1161018d5780635907ebea14610372578063642f91631461037a5780636bc6421b1461039c578063719129be146103a4578063742f0688146103b757600080fd5b80632f2ff15d1461033157806333b72e491461034457806336568abe1461034c5780634cce913b1461035f5780634da11a20146102a257600080fd5b806312ac167c1161021057806312ac167c146102bc5780631a968069146102dc5780631a9cfe28146102a2578063248a9ca3146103005780632cd94e4f146102a257600080fd5b806301ffc9a71461024257806305f84d451461026a57806306ead22e1461027f5780630f68794a146102a2575b600080fd5b6102556102503660046135c2565b6105d3565b60405190151581526020015b60405180910390f35b61027d610278366004613601565b61060a565b005b61029261028d36600461362d565b610885565b6040516102619493929190613696565b6102aa605081565b60405160ff9091168152602001610261565b6102cf6102ca3660046136ea565b6109bd565b6040516102619190613705565b6102ef6102ea36600461362d565b610ba8565b604051610261959493929190613718565b61032361030e36600461362d565b60009081526020819052604090206001015490565b604051908152602001610261565b61027d61033f366004613756565b610c6a565b6102aa600281565b61027d61035a366004613756565b610c8f565b61032361036d366004613779565b610cf6565b6102aa600f81565b61038d61038836600461362d565b610d27565b6040516102619392919061379b565b6102aa603381565b61027d6103b23660046137d1565b610ec9565b6104036103c536600461362d565b600760205260009081526040902080546001820154600283015460039093015460ff8084169461010085048216946201000090048216939291169086565b60405161026196959493929190613857565b61027d61042336600461389c565b611246565b61043b6104363660046136ea565b6116fb565b6040516102619493929190613979565b610255610459366004613756565b611a00565b61032361046c36600461362d565b60056020526000908152604090205481565b61027d61048c366004613add565b611a29565b610323600081565b6103236104a736600461362d565b60009081526003602052604090205463ffffffff1690565b61027d6104cd36600461389c565b611bdd565b61032360008051602061444f83398151915281565b6103236104f5366004613779565b612038565b61027d610508366004613add565b612071565b61027d61051b3660046137d1565b6120fe565b61027d61052e366004613756565b6125dd565b61054661054136600461362d565b612602565b6040805160ff9687168152948616602086015292909416918301919091526060820152608081019190915260a001610261565b61032361058736600461362d565b61270e565b6103237f4bbeb6fd3e5222e55f2f8b0c35bc228e0a06a25d0da772fdb02c3b92fa004f8881565b6105c66105c136600461362d565b61272f565b6040516102619190613b52565b60006001600160e01b03198216637965db0b60e01b148061060457506301ffc9a760e01b6001600160e01b03198316145b92915050565b61062260008051602061444f83398151915233611a00565b6106475760405162461bcd60e51b815260040161063e90613b65565b60405180910390fd5b600082116106675760405162461bcd60e51b815260040161063e90613b9c565b60008281526001602052604081205490036106945760405162461bcd60e51b815260040161063e90613bd3565b6000826040516020016106c09181526d1111531155114814d5155111539560921b6020820152602e0190565b6040516020818303038152906040528051906020012090506107188160008051602061444f8339815191526106f4866127be565b6040516020016107049190613c0a565b604051602081830303815290604052612851565b8180156107425750600081815260046020908152604080832033845260030190915290205460ff16155b1561078557600081815260046020526040902061075f90336128d2565b60405181815260008051602061440f8339815191529060200160405180910390a16107c9565b8115156000036107c95760008181526004602052604090206107a790336129ff565b60405181815260008051602061440f8339815191529060200160405180910390a15b60008051602061444f83398151915260005260036020527f04ed60087a82bd97d8afa881e356d9b31a57e1f4fa6c3493c1181428b0c3356254610825906108189060509063ffffffff16613c57565b63ffffffff166064612038565b60008281526004602052604090206002015460ff161061088057600081815260046020526040902061085690612ab7565b60405181815260008051602061442f8339815191529060200160405180910390a161088083612b28565b505050565b6001602081905260009182526040909120805491810180546108a690613c7f565b80601f01602080910402602001604051908101604052809291908181526020018280546108d290613c7f565b801561091f5780601f106108f45761010080835404028352916020019161091f565b820191906000526020600020905b81548152906001019060200180831161090257829003601f168201915b50505050509080600201805461093490613c7f565b80601f016020809104026020016040519081016040528092919081815260200182805461096090613c7f565b80156109ad5780601f10610982576101008083540402835291602001916109ad565b820191906000526020600020905b81548152906001019060200180831161099057829003601f168201915b5050505050908060030154905084565b604080518082018252601081526f181899199a1a9b1b9c1cb0b131b232b360811b60208201528151602a80825260608281019094526001600160a01b0385169291600091602082018180368337019050509050600360fc1b81600081518110610a2857610a28613cb9565b60200101906001600160f81b031916908160001a905350600f60fb1b81600181518110610a5757610a57613cb9565b60200101906001600160f81b031916908160001a90535060005b6014811015610b9f5782600485610a8984600c613ccf565b60208110610a9957610a99613cb9565b1a60f81b6001600160f81b031916901c60f81c60ff1681518110610abf57610abf613cb9565b01602001516001600160f81b03191682610ada836002613ce2565b610ae5906002613ccf565b81518110610af557610af5613cb9565b60200101906001600160f81b031916908160001a9053508284610b1983600c613ccf565b60208110610b2957610b29613cb9565b825191901a600f16908110610b4057610b40613cb9565b01602001516001600160f81b03191682610b5b836002613ce2565b610b66906003613ccf565b81518110610b7657610b76613cb9565b60200101906001600160f81b031916908160001a90535080610b9781613cf9565b915050610a71565b50949350505050565b600460205260009081526040902080546001820154600283015460058401805460ff9485169593948381169461010090940416929190610be790613c7f565b80601f0160208091040260200160405190810160405280929190818152602001828054610c1390613c7f565b8015610c605780601f10610c3557610100808354040283529160200191610c60565b820191906000526020600020905b815481529060010190602001808311610c4357829003601f168201915b5050505050905085565b600082815260208190526040902060010154610c8581612c01565b6108808383612c0e565b60405162461bcd60e51b815260206004820152603660248201527f596f752063616e27742072656e6f756e636520746f20796f757220726f6c652e60448201527520506c6561736520636f6e746163742061646d696e7360501b606482015260840161063e565b60086020528160005260406000208181548110610d1257600080fd5b90600052602060002001600091509150505481565b60008181526001602052604081205460609182918103610d815760405162461bcd60e51b815260206004820152601560248201527414dd1d59195b9d08191bd95cdb89dd08195e1a5cdd605a1b604482015260640161063e565b6000848152600160208190526040909120600381015491810180549092600290920191908390610db090613c7f565b80601f0160208091040260200160405190810160405280929190818152602001828054610ddc90613c7f565b8015610e295780601f10610dfe57610100808354040283529160200191610e29565b820191906000526020600020905b815481529060010190602001808311610e0c57829003601f168201915b50505050509250818054610e3c90613c7f565b80601f0160208091040260200160405190810160405280929190818152602001828054610e6890613c7f565b8015610eb55780601f10610e8a57610100808354040283529160200191610eb5565b820191906000526020600020905b815481529060010190602001808311610e9857829003601f168201915b505050505091509250925092509193909250565b60008381526003602090815260409182902080546002820154845193840152909263ffffffff808316680100000000000000009093041691909111910160408051601f1981840301815290829052610f2391602001613d12565b60405160208183030381529060405290610f505760405162461bcd60e51b815260040161063e9190613705565b50610f5f816001015433611a00565b8160020154604051602001610f7691815260200190565b60408051601f1981840301815290829052610f9391602001613d50565b60405160208183030381529060405290610fc05760405162461bcd60e51b815260040161063e9190613705565b50610fcb8484611a00565b60028201546040805160208101929092529115910160408051601f1981840301815290829052610ffd91602001613d98565b6040516020818303038152906040529061102a5760405162461bcd60e51b815260040161063e9190613705565b506040516bffffffffffffffffffffffff19606085901b1660208201526411d490539560da1b6034820152603981018590526000906059016040516020818303038152906040528051906020012090506110c3818360010154846002015460405160200161109a91815260200190565b6040516020818303038152906040526110b2886109bd565b604051602001610704929190613ddd565b8280156110ed5750600081815260046020908152604080832033845260030190915290205460ff16155b1561113057600081815260046020526040902061110a90336128d2565b60405181815260008051602061440f8339815191529060200160405180910390a1611174565b82151560000361117457600081815260046020526040902061115290336129ff565b60405181815260008051602061440f8339815191529060200160405180910390a15b815460018301546000908152600360205260409020546111a99161081891600160601b90910460ff169063ffffffff16613c57565b60008281526004602052604090206002015460ff161061123f5760008181526004602052604090206111da90612ab7565b60405181815260008051602061442f8339815191529060200160405180910390a16112058585612c0e565b8154600190839060009061122090849063ffffffff16613e2b565b92506101000a81548163ffffffff021916908363ffffffff1602179055505b5050505050565b61125e60008051602061444f83398151915233611a00565b61127a5760405162461bcd60e51b815260040161063e90613b65565b60008581526001602052604081205490036112a75760405162461bcd60e51b815260040161063e90613bd3565b60008460038111156112bb576112bb61380d565b101580156112db575060038460038111156112d8576112d861380d565b11155b6113235760405162461bcd60e51b8152602060048201526019602482015278105c1c1c9958da585d1a5bdb881a5cc81b9bdd081d985b1a59603a1b604482015260640161063e565b60008360028111156113375761133761380d565b10158015611357575060028360028111156113545761135461380d565b11155b6113995760405162461bcd60e51b8152602060048201526013602482015272111959dc9959481a5cc81b9bdd081d985b1a59606a1b604482015260640161063e565b600082600f8111156113ad576113ad61380d565b101580156113cd5750600f82600f8111156113ca576113ca61380d565b11155b6114105760405162461bcd60e51b8152602060048201526014602482015273141c9bd9dc985b481a5cc81b9bdd081d985b1a5960621b604482015260640161063e565b600760008686868660405160200161142b9493929190613e86565b60408051601f198184030181529181528151602092830120835290820192909252016000206002015460ff1615156001146114a85760405162461bcd60e51b815260206004820152601e60248201527f5468697320636572746966696361746520646f65736e27742065786973740000604482015260640161063e565b6000858585856040516020016114c19493929190613ebb565b60405160208183030381529060405280519060200120905061154c8160008051602061444f8339815191526114f5896127be565b61150f89600381111561150a5761150a61380d565b6127be565b61152489600281111561150a5761150a61380d565b61153989600f81111561150a5761150a61380d565b6040516020016107049493929190613eff565b8180156115765750600081815260046020908152604080832033845260030190915290205460ff16155b156115b957600081815260046020526040902061159390336128d2565b60405181815260008051602061440f8339815191529060200160405180910390a16115fd565b8115156000036115fd5760008181526004602052604090206115db90336129ff565b60405181815260008051602061440f8339815191529060200160405180910390a15b60008051602061444f83398151915260005260036020527f04ed60087a82bd97d8afa881e356d9b31a57e1f4fa6c3493c1181428b0c335625461164c906108189060509063ffffffff16613c57565b60008281526004602052604090206002015460ff16106116f357600081815260046020526040902061167d90612ab7565b60405181815260008051602061442f8339815191529060200160405180910390a1600060076000888888886040516020016116bb9493929190613e86565b60408051808303601f19018152918152815160209283012083529082019290925201600020600201805460ff19169115159190911790555b505050505050565b606080606080600060065467ffffffffffffffff81111561171e5761171e613a3a565b60405190808252806020026020018201604052801561175157816020015b606081526020019060019003908161173c5790505b509050600060065467ffffffffffffffff81111561177157611771613a3a565b60405190808252806020026020018201604052801561179a578160200160208202803683370190505b509050600060065467ffffffffffffffff8111156117ba576117ba613a3a565b6040519080825280602002602001820160405280156117e3578160200160208202803683370190505b509050600060065467ffffffffffffffff81111561180357611803613a3a565b60405190808252806020026020018201604052801561182c578160200160208202803683370190505b50905060005b6006548110156119ef576000818152600560208181526040808420548452600490915290912001805461186490613c7f565b80601f016020809104026020016040519081016040528092919081815260200182805461189090613c7f565b80156118dd5780601f106118b2576101008083540402835291602001916118dd565b820191906000526020600020905b8154815290600101906020018083116118c057829003601f168201915b50505050508582815181106118f4576118f4613cb9565b602090810291909101810191909152600082815260058252604080822054825260049092522060020154845160ff9091169085908390811061193857611938613cb9565b60ff909216602092830291909101820152600082815260058252604080822054825260049092522060010154835184908390811061197857611978613cb9565b6020908102919091018101919091526000828152600582526040808220548252600483528082206001600160a01b038e1683526003019092522054825160ff909116908390839081106119cd576119cd613cb9565b91151560209283029190910190910152806119e781613cf9565b915050611832565b509098919750919550909350915050565b6000918252602082815260408084206001600160a01b0393909316845291905290205460ff1690565b611a4160008051602061444f83398151915233611a00565b611a5d5760405162461bcd60e51b815260040161063e90613b65565b60008411611a7d5760405162461bcd60e51b815260040161063e90613b9c565b6000835111611ace5760405162461bcd60e51b815260206004820152601960248201527f46697273746e616d652063616e6e6f7420626520656d70747900000000000000604482015260640161063e565b6000825111611b1f5760405162461bcd60e51b815260206004820152601860248201527f4c6173746e616d652063616e6e6f7420626520656d7074790000000000000000604482015260640161063e565b60008111611b6f5760405162461bcd60e51b815260206004820181905260248201527f426972746864617465206d7573742062652067726561746572207468616e2030604482015260640161063e565b60008481526001602052604090205415611bcb5760405162461bcd60e51b815260206004820152601b60248201527f546869732073747564656e7420616c7265616479206578697374730000000000604482015260640161063e565b611bd784848484612c92565b50505050565b611bf560008051602061444f83398151915233611a00565b611c115760405162461bcd60e51b815260040161063e90613b65565b6000858152600160205260408120549003611c3e5760405162461bcd60e51b815260040161063e90613bd3565b6000846003811115611c5257611c5261380d565b10158015611c7257506003846003811115611c6f57611c6f61380d565b11155b611cba5760405162461bcd60e51b8152602060048201526019602482015278105c1c1c9958da585d1a5bdb881a5cc81b9bdd081d985b1a59603a1b604482015260640161063e565b6000836002811115611cce57611cce61380d565b10158015611cee57506002836002811115611ceb57611ceb61380d565b11155b611d305760405162461bcd60e51b8152602060048201526013602482015272111959dc9959481a5cc81b9bdd081d985b1a59606a1b604482015260640161063e565b600082600f811115611d4457611d4461380d565b10158015611d645750600f82600f811115611d6157611d6161380d565b11155b611da75760405162461bcd60e51b8152602060048201526014602482015273141c9bd9dc985b481a5cc81b9bdd081d985b1a5960621b604482015260640161063e565b6007600086868686604051602001611dc29493929190613e86565b60408051601f198184030181529181528151602092830120835290820192909252016000206002015460ff1615611e3b5760405162461bcd60e51b815260206004820152601f60248201527f5468697320636572746966696361746520616c72656164792065786973747300604482015260640161063e565b600085858585604051602001611e549493929190613f8a565b604051602081830303815290604052805190602001209050611eda8160008051602061444f833981519152611e88896127be565b611e9d89600381111561150a5761150a61380d565b611eb289600281111561150a5761150a61380d565b611ec789600f81111561150a5761150a61380d565b6040516020016107049493929190613fcf565b818015611f045750600081815260046020908152604080832033845260030190915290205460ff16155b15611f47576000818152600460205260409020611f2190336128d2565b60405181815260008051602061440f8339815191529060200160405180910390a1611f8b565b811515600003611f8b576000818152600460205260409020611f6990336129ff565b60405181815260008051602061440f8339815191529060200160405180910390a15b60008051602061444f83398151915260005260036020527f04ed60087a82bd97d8afa881e356d9b31a57e1f4fa6c3493c1181428b0c3356254611fda906108189060339063ffffffff16613c57565b60008281526004602052604090206002015460ff16106116f357600081815260046020526040902061200b90612ab7565b60405181815260008051602061442f8339815191529060200160405180910390a16116f386868686612e0b565b60006120448284614071565b60000361205c576120558284614085565b9050610604565b6120668284614085565b612055906001613ccf565b61208960008051602061444f83398151915233611a00565b6120a55760405162461bcd60e51b815260040161063e90613b65565b600084116120c55760405162461bcd60e51b815260040161063e90613b9c565b60008481526001602052604081205490036120f25760405162461bcd60e51b815260040161063e90613bd3565b611bd784848484612fd9565b60008381526003602090815260409182902080546002820154845193840152909263ffffffff64010000000083048116921691909111910160408051601f198184030181529082905261215391602001614099565b604051602081830303815290604052906121805760405162461bcd60e51b815260040161063e9190613705565b5061218b8484611a00565b81600201546040516020016121a291815260200190565b60408051601f19818403018152908290526121bf916020016140b8565b604051602081830303815290604052906121ec5760405162461bcd60e51b815260040161063e9190613705565b506121fb816001015433611a00565b816002015460405160200161221291815260200190565b60408051601f198184030181529082905261222f91602001613d50565b6040516020818303038152906040529061225c5760405162461bcd60e51b815260040161063e9190613705565b506040516bffffffffffffffffffffffff19606085901b166020820152655245564f4b4560d01b6034820152603a8101859052600090605a016040516020818303038152906040528051906020012090506122f681836001015484600201546040516020016122cd91815260200190565b6040516020818303038152906040526122e5886109bd565b6040516020016107049291906140f6565b8280156123205750600081815260046020908152604080832033845260030190915290205460ff16155b1561236357600081815260046020526040902061233d90336128d2565b60405181815260008051602061440f8339815191529060200160405180910390a16123a7565b8215156000036123a757600081815260046020526040902061238590336129ff565b60405181815260008051602061440f8339815191529060200160405180910390a15b816001015485141580156124035750815460018301546000908152600360205260409020546123eb9161081891600160681b90910460ff169063ffffffff16613c57565b60008281526004602052604090206002015460ff1610155b8061246e575081600101548514801561246e5750815460018084015460009081526003602052604090205461245692600160681b900460ff169161244c9163ffffffff16614145565b6108189190613c57565b60008281526004602052604090206002015460ff1610155b1561123f5760005b60065481101561257f576000818152600560209081526040808320548352600482528083206001600160a01b038916845260030190915290205460ff16151560011480156124e157506000818152600560209081526040808320548352600490915290206001015486145b1561256d5760008181526005602090815260408083205483526004909152812060020180546001929061251890849060ff16614162565b825460ff9182166101009390930a9283029190920219909116179055506000818152600560209081526040808320548352600482528083206001600160a01b03891684526003019091529020805460ff191690555b8061257781613cf9565b915050612476565b50600081815260046020526040902061259790612ab7565b60405181815260008051602061442f8339815191529060200160405180910390a16125c28585613229565b8154600190839060009061122090849063ffffffff16614145565b6000828152602081905260409020600101546125f881612c01565b6108808383613229565b600081815260076020526040812060020154819081908190819060ff1615156001146126705760405162461bcd60e51b815260206004820152601e60248201527f5468697320636572746966696361746520646f65736e27742065786973740000604482015260640161063e565b60008681526007602052604090205460ff1660038111156126935761269361380d565b600087815260076020526040902054610100900460ff1660028111156126bb576126bb61380d565b60008881526007602052604090205462010000900460ff16600f8111156126e4576126e461380d565b60009889526007602052604090982060018101546003909101549299919897509550909350915050565b6002818154811061271e57600080fd5b600091825260209091200154905081565b6000818152600160205260408120546060910361275e5760405162461bcd60e51b815260040161063e90613bd3565b600082815260086020908152604091829020805483518184028101840190945280845290918301828280156127b257602002820191906000526020600020905b81548152602001906001019080831161279e575b50505050509050919050565b606060006127cb8361328e565b600101905060008167ffffffffffffffff8111156127eb576127eb613a3a565b6040519080825280601f01601f191660200182016040528015612815576020820181803683370190505b5090508181016020015b600019016f181899199a1a9b1b9c1cb0b131b232b360811b600a86061a8153600a850494508461281f57509392505050565b60008381526004602052604081205460ff1615159003610880576000838152600460209081526040808320805460ff19166001908117909155600680548552600590935290832086905581549092906128ab908490613ccf565b9091555050600083815260046020526040902060018101839055600501611bd782826141c1565b6001600160a01b038116600090815260038301602052604090205460ff161561293d5760405162461bcd60e51b815260206004820181905260248201527f596f7520616c7265616479207369676e65642074686973206d756c7469736967604482015260640161063e565b6002820180546101009081900460ff9081166000908152600486016020526040902080546001600160a01b0319166001600160a01b0386161790558254919091041690600161298b83614281565b82546101009290920a60ff8181021990931691831602179091556001600160a01b03831660009081526003850160205260408120805460ff19166001908117909155600286018054919450926129e3918591166142a0565b92506101000a81548160ff021916908360ff1602179055505050565b6001600160a01b038116600090815260038301602052604090205460ff161515600114612a7d5760405162461bcd60e51b815260206004820152602660248201527f596f752068617665206e6f7465207369676e65642074686973206d756c7469736044820152651a59c81e595d60d21b606482015260840161063e565b6001600160a01b03811660009081526003830160205260408120805460ff19169055600283018054600192906129e390849060ff16614162565b60028101805460ff1916905560005b600282015460ff61010090910481169082161015612b245760ff811660009081526004830160209081526040808320546001600160a01b03168352600385019091529020805460ff1916905580612b1c81614281565b915050612ac6565b5050565b600081815260016020819052604082208281559190612b4990830182613574565b612b57600283016000613574565b6003820160009055505060005b600254811015612bca578160028281548110612b8257612b82613cb9565b906000526020600020015403612bb857600060028281548110612ba757612ba7613cb9565b600091825260209091200155612bca565b80612bc281613cf9565b915050612b64565b506040518181527f34de6b871245ed0a89b82912e8e5ee6d9c3104b3e5bb1d67a71ad7e68239e41c9060200160405180910390a150565b612c0b8133613366565b50565b612c188282611a00565b612b24576000828152602081815260408083206001600160a01b03851684529091529020805460ff19166001179055612c4e3390565b6001600160a01b0316816001600160a01b0316837f2f8788117e7eff1d82e926ec794901d17c78024a50270940304540a733656f0d60405160405180910390a45050565b60008481526001602052604090205415612ce75760405162461bcd60e51b815260206004820152601660248201527553747564656e7420616c72656164792065786973747360501b604482015260640161063e565b83600003612d275760405162461bcd60e51b815260206004820152600d60248201526c049642063616e2774206265203609c1b604482015260640161063e565b6040805160808101825285815260208082018681528284018690526060830185905260008881526001928390529390932082518155925191929190820190612d6f90826141c1565b5060408201516002820190612d8490826141c1565b5060609190910151600390910155600280546001810182556000919091527f405787fa12a823e0f2b7631cc41b3ba8828b3321ca811111fa75cd3aa3bb5ace018490556040517fb6767d1c89515962142b00b5577569c92a74381d9441a528911c66e0c3cea1f890612dfd908690869086908690613696565b60405180910390a150505050565b6040518060c00160405280846003811115612e2857612e2861380d565b8152602001836002811115612e3f57612e3f61380d565b815260200182600f811115612e5657612e5661380d565b8152602001428152602001600115158152602001858152506007600086868686604051602001612e899493929190613e86565b60408051601f1981840301815291815281516020928301208352908201929092520160002081518154829060ff19166001836003811115612ecc57612ecc61380d565b021790555060208201518154829061ff001916610100836002811115612ef457612ef461380d565b021790555060408201518154829062ff000019166201000083600f811115612f1e57612f1e61380d565b021790555060608201516001820155608082015160028201805460ff191691151591909117905560a0909101516003909101556000848152600860209081526040918290209151612f7791879187918791879101613e86565b60408051601f19818403018152908290528051602091820120835460018101855560009485529190932001919091557fb55811dd01470a227956304b027c610c7cdf9dd622dcc47791380261d56dc6ed90612dfd9086908690869086906142b9565b600084815260016020526040812054900361302f5760405162461bcd60e51b815260206004820152601660248201527514dd1d59195b9d08191bd95cc81b9bdd08195e1a5cdd60521b604482015260640161063e565b6001600085815260200190815260200160002060010160405160200161305591906142f0565b604051602081830303815290604052805190602001208360405160200161307c9190614366565b60405160208183030381529060405280519060200120141580156130d4575060408051600081526020810180835281519020916130bb91869101614366565b6040516020818303038152906040528051906020012014155b156130f7576000848152600160208190526040909120016130f584826141c1565b505b60008481526001602090815260409182902091516131199260020191016142f0565b60405160208183030381529060405280519060200120826040516020016131409190614366565b60405160208183030381529060405280519060200120141580156131985750604080516000815260208101808352815190209161317f91859101614366565b6040516020818303038152906040528051906020012014155b156131ba5760008481526001602052604090206002016131b883826141c1565b505b60008481526001602052604090206003015481148015906131da57508015155b156131f45760008481526001602052604090206003018190555b7f03e10a3f40e9af2a5e61cb5a3de55fd67286470c35b3cf345b04a83cf3f4907784848484604051612dfd9493929190613696565b6132338282611a00565b15612b24576000828152602081815260408083206001600160a01b0385168085529252808320805460ff1916905551339285917ff6391f5c32d9c69d2a47ea670b442974b53935d1edc7fd64eb21e047a839171b9190a45050565b60008072184f03e93ff9f4daa797ed6e38ed64bf6a1f0160401b83106132cd5772184f03e93ff9f4daa797ed6e38ed64bf6a1f0160401b830492506040015b6d04ee2d6d415b85acef810000000083106132f9576d04ee2d6d415b85acef8100000000830492506020015b662386f26fc10000831061331757662386f26fc10000830492506010015b6305f5e100831061332f576305f5e100830492506008015b612710831061334357612710830492506004015b60648310613355576064830492506002015b600a83106106045760010192915050565b6133708282611a00565b612b245761337d816133bf565b6133888360206133d1565b604051602001613399929190614382565b60408051601f198184030181529082905262461bcd60e51b825261063e91600401613705565b60606106046001600160a01b03831660145b606060006133e0836002613ce2565b6133eb906002613ccf565b67ffffffffffffffff81111561340357613403613a3a565b6040519080825280601f01601f19166020018201604052801561342d576020820181803683370190505b509050600360fc1b8160008151811061344857613448613cb9565b60200101906001600160f81b031916908160001a905350600f60fb1b8160018151811061347757613477613cb9565b60200101906001600160f81b031916908160001a905350600061349b846002613ce2565b6134a6906001613ccf565b90505b600181111561351e576f181899199a1a9b1b9c1cb0b131b232b360811b85600f16601081106134da576134da613cb9565b1a60f81b8282815181106134f0576134f0613cb9565b60200101906001600160f81b031916908160001a90535060049490941c93613517816143f7565b90506134a9565b50831561356d5760405162461bcd60e51b815260206004820181905260248201527f537472696e67733a20686578206c656e67746820696e73756666696369656e74604482015260640161063e565b9392505050565b50805461358090613c7f565b6000825580601f10613590575050565b601f016020900490600052602060002090810190612c0b91905b808211156135be57600081556001016135aa565b5090565b6000602082840312156135d457600080fd5b81356001600160e01b03198116811461356d57600080fd5b803580151581146135fc57600080fd5b919050565b6000806040838503121561361457600080fd5b82359150613624602084016135ec565b90509250929050565b60006020828403121561363f57600080fd5b5035919050565b60005b83811015613661578181015183820152602001613649565b50506000910152565b60008151808452613682816020860160208601613646565b601f01601f19169290920160200192915050565b8481526080602082015260006136af608083018661366a565b82810360408401526136c1818661366a565b91505082606083015295945050505050565b80356001600160a01b03811681146135fc57600080fd5b6000602082840312156136fc57600080fd5b61356d826136d3565b60208152600061356d602083018461366a565b851515815284602082015260ff8416604082015260ff8316606082015260a06080820152600061374b60a083018461366a565b979650505050505050565b6000806040838503121561376957600080fd5b82359150613624602084016136d3565b6000806040838503121561378c57600080fd5b50508035926020909101359150565b6060815260006137ae606083018661366a565b82810360208401526137c0818661366a565b915050826040830152949350505050565b6000806000606084860312156137e657600080fd5b833592506137f6602085016136d3565b9150613804604085016135ec565b90509250925092565b634e487b7160e01b600052602160045260246000fd5b600481106138335761383361380d565b9052565b600381106138335761383361380d565b601081106138335761383361380d565b60c081016138658289613823565b6138726020830188613837565b61387f6040830187613847565b6060820194909452911515608083015260a0909101529392505050565b600080600080600060a086880312156138b457600080fd5b853594506020860135600481106138ca57600080fd5b93506040860135600381106138de57600080fd5b92506060860135601081106138f257600080fd5b9150613900608087016135ec565b90509295509295909350565b600081518084526020808501945080840160005b8381101561393c57815187529582019590820190600101613920565b509495945050505050565b600081518084526020808501945080840160005b8381101561393c57815115158752958201959082019060010161395b565b60808152600061398c608083018761390c565b82810360208481019190915286518083528782019282019060005b818110156139c657845160ff16835293830193918301916001016139a7565b5050848103604086015286518082528282019350600581901b8201830183890160005b83811015613a1757601f19858403018752613a0583835161366a565b968601969250908501906001016139e9565b50508681036060880152613a2b8189613947565b9b9a5050505050505050505050565b634e487b7160e01b600052604160045260246000fd5b600082601f830112613a6157600080fd5b813567ffffffffffffffff80821115613a7c57613a7c613a3a565b604051601f8301601f19908116603f01168101908282118183101715613aa457613aa4613a3a565b81604052838152866020858801011115613abd57600080fd5b836020870160208301376000602085830101528094505050505092915050565b60008060008060808587031215613af357600080fd5b84359350602085013567ffffffffffffffff80821115613b1257600080fd5b613b1e88838901613a50565b94506040870135915080821115613b3457600080fd5b50613b4187828801613a50565b949793965093946060013593505050565b60208152600061356d602083018461390c565b60208082526019908201527f43616c6c6572206973206e6f7420612063657274696669657200000000000000604082015260600190565b60208082526019908201527f4964206d7573742062652067726561746572207468616e203000000000000000604082015260600190565b6020808252601a908201527f546869732073747564656e7420646f65736e2774206578697374000000000000604082015260600190565b6e02232b632ba329039ba3ab232b73a1608d1b815260008251613c3481600f850160208701613646565b91909101600f0192915050565b634e487b7160e01b600052601160045260246000fd5b63ffffffff818116838216028082169190828114613c7757613c77613c41565b505092915050565b600181811c90821680613c9357607f821691505b602082108103613cb357634e487b7160e01b600052602260045260246000fd5b50919050565b634e487b7160e01b600052603260045260246000fd5b8082018082111561060457610604613c41565b808202811582820484141761060457610604613c41565b600060018201613d0b57613d0b613c41565b5060010190565b63026b0bc160e51b815260008251613d31816004850160208701613646565b67081c995858da195960c21b6004939091019283015250600c01919050565b6f021b0b63632b91034b9903737ba1030960851b815260008251613d7b816010850160208701613646565b651030b236b4b760d11b6010939091019283015250601601919050565b7f54686973206164647265737320697320616c7265616479206120000000000000815260008251613dd081601a850160208701613646565b91909101601a0192915050565b65023b930b73a160d51b815260008351613dfe816006850160208801613646565b600160fd1b6006918401918201528351613e1f816007840160208801613646565b01600701949350505050565b63ffffffff818116838216019080821115613e4857613e48613c41565b5092915050565b60048110613e5f57613e5f61380d565b60f81b9052565b60038110613e5f57613e5f61380d565b60108110613e5f57613e5f61380d565b848152613e966020820185613e4f565b613ea36021820184613e66565b613eb06022820183613e76565b602301949350505050565b848152613ecb6020820185613e4f565b613ed86021820184613e66565b613ee56022820183613e76565b6544454c45544560d01b6023820152602901949350505050565b6602232b632ba32960cd1b815260008551613f21816007850160208a01613646565b8083019050600160fd1b8060078301528651613f44816008850160208b01613646565b600892019182018190528551613f61816009850160208a01613646565b60099201918201528351613f7c81600a840160208801613646565b01600a019695505050505050565b848152613f9a6020820185613e4f565b613fa76021820184613e66565b613fb46022820183613e76565b664345525449465960c81b6023820152602a01949350505050565b67021b2b93a34b33c960c51b815260008551613ff2816008850160208a01613646565b8083019050600160fd1b8060088301528651614015816009850160208b01613646565b60099201918201819052855161403281600a850160208a01613646565b600a920191820152835161404d81600b840160208801613646565b01600b019695505050505050565b634e487b7160e01b600052601260045260246000fd5b6000826140805761408061405b565b500690565b6000826140945761409461405b565b500490565b63026b4b7160e51b815260008251613d31816004850160208701613646565b7502a3434b99030b2323932b9b99034b9903737ba1030960551b8152600082516140e9816016850160208701613646565b9190910160160192915050565b6602932bb37b5b2960cd1b815260008351614118816007850160208801613646565b600160fd1b6007918401918201528351614139816008840160208801613646565b01600801949350505050565b63ffffffff828116828216039080821115613e4857613e48613c41565b60ff828116828216039081111561060457610604613c41565b601f82111561088057600081815260208120601f850160051c810160208610156141a25750805b601f850160051c820191505b818110156116f3578281556001016141ae565b815167ffffffffffffffff8111156141db576141db613a3a565b6141ef816141e98454613c7f565b8461417b565b602080601f831160018114614224576000841561420c5750858301515b600019600386901b1c1916600185901b1785556116f3565b600085815260208120601f198616915b8281101561425357888601518255948401946001909101908401614234565b50858210156142715787850151600019600388901b60f8161c191681555b5050505050600190811b01905550565b600060ff821660ff810361429757614297613c41565b60010192915050565b60ff818116838216019081111561060457610604613c41565b848152608081016142cd6020830186613823565b6142da6040830185613837565b6142e76060830184613847565b95945050505050565b60008083546142fe81613c7f565b60018281168015614316576001811461432b5761435a565b60ff198416875282151583028701945061435a565b8760005260208060002060005b858110156143515781548a820152908401908201614338565b50505082870194505b50929695505050505050565b60008251614378818460208701613646565b9190910192915050565b7f416363657373436f6e74726f6c3a206163636f756e74200000000000000000008152600083516143ba816017850160208801613646565b7001034b99036b4b9b9b4b733903937b6329607d1b60179184019182015283516143eb816028840160208801613646565b01602801949350505050565b60008161440657614406613c41565b50600019019056feb431a69783a2491a0c400ff16dab32cd442abf8fe5af63a526a7248d730192f8562618dbcf74b61ae5b0f229fe40ba6d5b6ae6b4248f8c89a870dda7c77135f6d646ae07eb0d0f77457502a65e7407930dff4cd4fd99abc6aac87a753f4c8a42a26469706673582212204941b3607ef577eefddc95faadfbcd5eabd511fbe3c98365cc75bfaeaabe9a5b64736f6c634300081300334bbeb6fd3e5222e55f2f8b0c35bc228e0a06a25d0da772fdb02c3b92fa004f88d646ae07eb0d0f77457502a65e7407930dff4cd4fd99abc6aac87a753f4c8a42","opcodes":"PUSH1 0x80 PUSH1 0x40 MSTORE CALLVALUE DUP1 ISZERO PUSH3 0x11 JUMPI PUSH1 0x0 DUP1 REVERT JUMPDEST POP PUSH1 0x40 MLOAD PUSH3 0x4B32 CODESIZE SUB DUP1 PUSH3 0x4B32 DUP4 CODECOPY DUP2 ADD PUSH1 0x40 DUP2 SWAP1 MSTORE PUSH3 0x34 SWAP2 PUSH3 0x5DE JUMP JUMPDEST PUSH1 0x1 PUSH1 0x1 PUSH1 0xA0 SHL SUB DUP3 AND PUSH3 0x9C JUMPI PUSH1 0x40 MLOAD PUSH3 0x461BCD PUSH1 0xE5 SHL DUP2 MSTORE PUSH1 0x20 PUSH1 0x4 DUP3 ADD MSTORE PUSH1 0x24 DUP1 DUP3 ADD MSTORE PUSH32 0x4365727469666965722061646D696E3120616464726573732063616E6E6F7420 PUSH1 0x44 DUP3 ADD MSTORE PUSH4 0x6265203 PUSH1 0xE4 SHL PUSH1 0x64 DUP3 ADD MSTORE PUSH1 0x84 ADD JUMPDEST PUSH1 0x40 MLOAD DUP1 SWAP2 SUB SWAP1 REVERT JUMPDEST PUSH1 0x1 PUSH1 0x1 PUSH1 0xA0 SHL SUB DUP2 AND PUSH3 0x100 JUMPI PUSH1 0x40 MLOAD PUSH3 0x461BCD PUSH1 0xE5 SHL DUP2 MSTORE PUSH1 0x20 PUSH1 0x4 DUP3 ADD MSTORE PUSH1 0x24 DUP1 DUP3 ADD MSTORE PUSH32 0x4365727469666965722061646D696E3220616464726573732063616E6E6F7420 PUSH1 0x44 DUP3 ADD MSTORE PUSH4 0x6265203 PUSH1 0xE4 SHL PUSH1 0x64 DUP3 ADD MSTORE PUSH1 0x84 ADD PUSH3 0x93 JUMP JUMPDEST DUP1 PUSH1 0x1 PUSH1 0x1 PUSH1 0xA0 SHL SUB AND DUP3 PUSH1 0x1 PUSH1 0x1 PUSH1 0xA0 SHL SUB AND SUB PUSH3 0x172 JUMPI PUSH1 0x40 MLOAD PUSH3 0x461BCD PUSH1 0xE5 SHL DUP2 MSTORE PUSH1 0x20 PUSH1 0x4 DUP3 ADD MSTORE PUSH1 0x26 PUSH1 0x24 DUP3 ADD MSTORE PUSH32 0x436572746966696572206164647265737365732063616E6E6F74206265207468 PUSH1 0x44 DUP3 ADD MSTORE PUSH6 0x652073616D65 PUSH1 0xD0 SHL PUSH1 0x64 DUP3 ADD MSTORE PUSH1 0x84 ADD PUSH3 0x93 JUMP JUMPDEST PUSH3 0x18D PUSH1 0x0 DUP1 MLOAD PUSH1 0x20 PUSH3 0x4AF2 DUP4 CODECOPY DUP2 MLOAD SWAP2 MSTORE DUP4 PUSH3 0x511 JUMP JUMPDEST PUSH3 0x1A8 PUSH1 0x0 DUP1 MLOAD PUSH1 0x20 PUSH3 0x4AF2 DUP4 CODECOPY DUP2 MLOAD SWAP2 MSTORE DUP3 PUSH3 0x521 JUMP JUMPDEST PUSH1 0x40 DUP1 MLOAD PUSH1 0xE0 DUP2 ADD DUP3 MSTORE PUSH1 0x2 DUP1 DUP3 MSTORE PUSH1 0x20 DUP1 DUP4 ADD SWAP2 SWAP1 SWAP2 MSTORE PUSH1 0xF DUP3 DUP5 ADD MSTORE PUSH1 0x50 PUSH1 0x60 DUP4 ADD DUP2 SWAP1 MSTORE PUSH1 0x80 DUP4 ADD MSTORE PUSH1 0x0 DUP1 MLOAD PUSH1 0x20 PUSH3 0x4AF2 DUP4 CODECOPY DUP2 MLOAD SWAP2 MSTORE PUSH1 0xA0 DUP4 ADD MSTORE SWAP2 MLOAD SWAP1 SWAP2 PUSH1 0xC0 DUP4 ADD SWAP2 PUSH3 0x213 SWAP2 ADD PUSH15 0x21A2A92A24A324A2A92FA0A226A4A7 PUSH1 0x89 SHL DUP2 MSTORE PUSH1 0xF ADD SWAP1 JUMP JUMPDEST PUSH1 0x40 MLOAD PUSH1 0x20 DUP2 DUP4 SUB SUB DUP2 MSTORE SWAP1 PUSH1 0x40 MSTORE PUSH3 0x22D SWAP1 PUSH3 0x616 JUMP JUMPDEST SWAP1 MSTORE PUSH1 0x0 DUP1 MLOAD PUSH1 0x20 PUSH3 0x4AF2 DUP4 CODECOPY DUP2 MLOAD SWAP2 MSTORE PUSH1 0x0 SWAP1 DUP2 MSTORE PUSH1 0x3 PUSH1 0x20 SWAP1 DUP2 MSTORE DUP3 MLOAD PUSH32 0x996892C26F58715B0987B59A23F94E8EF0C02CD4CAE9FDBC7A2316B6CD446DE0 DUP1 SLOAD SWAP3 DUP6 ADD MLOAD PUSH1 0x40 DUP7 ADD MLOAD PUSH1 0x60 DUP8 ADD MLOAD PUSH1 0x80 DUP9 ADD MLOAD PUSH1 0xFF SWAP1 DUP2 AND PUSH1 0x1 PUSH1 0x68 SHL MUL PUSH1 0xFF PUSH1 0x68 SHL NOT SWAP2 SWAP1 SWAP3 AND PUSH13 0x1000000000000000000000000 MUL PUSH1 0xFF PUSH1 0x60 SHL NOT PUSH4 0xFFFFFFFF SWAP5 DUP6 AND PUSH9 0x10000000000000000 MUL AND PUSH5 0xFFFFFFFFFF PUSH1 0x40 SHL NOT SWAP6 DUP6 AND PUSH5 0x100000000 MUL PUSH1 0x1 PUSH1 0x1 PUSH1 0x40 SHL SUB NOT SWAP1 SWAP10 AND SWAP5 SWAP1 SWAP8 AND SWAP4 SWAP1 SWAP4 OR SWAP7 SWAP1 SWAP7 OR SWAP3 SWAP1 SWAP3 AND SWAP4 SWAP1 SWAP4 OR SWAP3 SWAP1 SWAP3 OR SWAP3 SWAP1 SWAP3 AND OR SWAP1 SSTORE PUSH1 0xA0 DUP3 ADD MLOAD PUSH32 0x996892C26F58715B0987B59A23F94E8EF0C02CD4CAE9FDBC7A2316B6CD446DE1 SSTORE PUSH1 0xC0 SWAP1 SWAP2 ADD MLOAD PUSH32 0x996892C26F58715B0987B59A23F94E8EF0C02CD4CAE9FDBC7A2316B6CD446DE2 SSTORE PUSH3 0x36B SWAP1 PUSH1 0x0 DUP1 MLOAD PUSH1 0x20 PUSH3 0x4B12 DUP4 CODECOPY DUP2 MLOAD SWAP2 MSTORE SWAP1 PUSH3 0x511 JUMP JUMPDEST PUSH1 0x40 DUP1 MLOAD PUSH1 0xE0 DUP2 ADD DUP3 MSTORE PUSH1 0x0 DUP1 DUP3 MSTORE PUSH1 0x20 DUP1 DUP4 ADD SWAP2 SWAP1 SWAP2 MSTORE PUSH1 0xF DUP3 DUP5 ADD MSTORE PUSH1 0x50 PUSH1 0x60 DUP4 ADD DUP2 SWAP1 MSTORE PUSH1 0x80 DUP4 ADD MSTORE PUSH1 0x0 DUP1 MLOAD PUSH1 0x20 PUSH3 0x4AF2 DUP4 CODECOPY DUP2 MLOAD SWAP2 MSTORE PUSH1 0xA0 DUP4 ADD MSTORE SWAP2 MLOAD SWAP1 SWAP2 PUSH1 0xC0 DUP4 ADD SWAP2 PUSH3 0x3D0 SWAP2 ADD PUSH9 0x21A2A92A24A324A2A9 PUSH1 0xB9 SHL DUP2 MSTORE PUSH1 0x9 ADD SWAP1 JUMP JUMPDEST PUSH1 0x40 MLOAD PUSH1 0x20 DUP2 DUP4 SUB SUB DUP2 MSTORE SWAP1 PUSH1 0x40 MSTORE PUSH3 0x3EA SWAP1 PUSH3 0x616 JUMP JUMPDEST SWAP1 MSTORE PUSH1 0x0 DUP1 MLOAD PUSH1 0x20 PUSH3 0x4B12 DUP4 CODECOPY DUP2 MLOAD SWAP2 MSTORE PUSH1 0x0 MSTORE PUSH1 0x3 PUSH1 0x20 SWAP1 DUP2 MSTORE DUP2 MLOAD PUSH32 0x4ED60087A82BD97D8AFA881E356D9B31A57E1F4FA6C3493C1181428B0C33562 DUP1 SLOAD SWAP3 DUP5 ADD MLOAD PUSH1 0x40 DUP6 ADD MLOAD PUSH1 0x60 DUP7 ADD MLOAD PUSH1 0x80 DUP8 ADD MLOAD PUSH1 0xFF SWAP1 DUP2 AND PUSH1 0x1 PUSH1 0x68 SHL MUL PUSH1 0xFF PUSH1 0x68 SHL NOT SWAP2 SWAP1 SWAP3 AND PUSH13 0x1000000000000000000000000 MUL PUSH1 0xFF PUSH1 0x60 SHL NOT PUSH4 0xFFFFFFFF SWAP5 DUP6 AND PUSH9 0x10000000000000000 MUL AND PUSH5 0xFFFFFFFFFF PUSH1 0x40 SHL NOT SWAP6 DUP6 AND PUSH5 0x100000000 MUL PUSH1 0x1 PUSH1 0x1 PUSH1 0x40 SHL SUB NOT SWAP1 SWAP10 AND SWAP5 SWAP1 SWAP8 AND SWAP4 SWAP1 SWAP4 OR SWAP7 SWAP1 SWAP7 OR SWAP3 SWAP1 SWAP3 AND SWAP4 SWAP1 SWAP4 OR SWAP3 SWAP1 SWAP3 OR SWAP3 SWAP1 SWAP3 AND OR SWAP1 SSTORE PUSH1 0xA0 DUP2 ADD MLOAD PUSH32 0x4ED60087A82BD97D8AFA881E356D9B31A57E1F4FA6C3493C1181428B0C33563 SSTORE PUSH1 0xC0 ADD MLOAD PUSH32 0x4ED60087A82BD97D8AFA881E356D9B31A57E1F4FA6C3493C1181428B0C33564 SSTORE POP PUSH3 0x63E SWAP1 POP JUMP JUMPDEST PUSH3 0x51D DUP3 DUP3 PUSH3 0x521 JUMP JUMPDEST POP POP JUMP JUMPDEST PUSH1 0x0 DUP3 DUP2 MSTORE PUSH1 0x20 DUP2 DUP2 MSTORE PUSH1 0x40 DUP1 DUP4 KECCAK256 PUSH1 0x1 PUSH1 0x1 PUSH1 0xA0 SHL SUB DUP6 AND DUP5 MSTORE SWAP1 SWAP2 MSTORE SWAP1 KECCAK256 SLOAD PUSH1 0xFF AND PUSH3 0x51D JUMPI PUSH1 0x0 DUP3 DUP2 MSTORE PUSH1 0x20 DUP2 DUP2 MSTORE PUSH1 0x40 DUP1 DUP4 KECCAK256 PUSH1 0x1 PUSH1 0x1 PUSH1 0xA0 SHL SUB DUP6 AND DUP5 MSTORE SWAP1 SWAP2 MSTORE SWAP1 KECCAK256 DUP1 SLOAD PUSH1 0xFF NOT AND PUSH1 0x1 OR SWAP1 SSTORE PUSH3 0x57D CALLER SWAP1 JUMP JUMPDEST PUSH1 0x1 PUSH1 0x1 PUSH1 0xA0 SHL SUB AND DUP2 PUSH1 0x1 PUSH1 0x1 PUSH1 0xA0 SHL SUB AND DUP4 PUSH32 0x2F8788117E7EFF1D82E926EC794901D17C78024A50270940304540A733656F0D PUSH1 0x40 MLOAD PUSH1 0x40 MLOAD DUP1 SWAP2 SUB SWAP1 LOG4 POP POP JUMP JUMPDEST DUP1 MLOAD PUSH1 0x1 PUSH1 0x1 PUSH1 0xA0 SHL SUB DUP2 AND DUP2 EQ PUSH3 0x5D9 JUMPI PUSH1 0x0 DUP1 REVERT JUMPDEST SWAP2 SWAP1 POP JUMP JUMPDEST PUSH1 0x0 DUP1 PUSH1 0x40 DUP4 DUP6 SUB SLT ISZERO PUSH3 0x5F2 JUMPI PUSH1 0x0 DUP1 REVERT JUMPDEST PUSH3 0x5FD DUP4 PUSH3 0x5C1 JUMP JUMPDEST SWAP2 POP PUSH3 0x60D PUSH1 0x20 DUP5 ADD PUSH3 0x5C1 JUMP JUMPDEST SWAP1 POP SWAP3 POP SWAP3 SWAP1 POP JUMP JUMPDEST DUP1 MLOAD PUSH1 0x20 DUP1 DUP4 ADD MLOAD SWAP2 SWAP1 DUP2 LT ISZERO PUSH3 0x638 JUMPI PUSH1 0x0 NOT DUP2 PUSH1 0x20 SUB PUSH1 0x3 SHL SHL DUP3 AND SWAP2 POP JUMPDEST POP SWAP2 SWAP1 POP JUMP JUMPDEST PUSH2 0x44A4 DUP1 PUSH3 0x64E PUSH1 0x0 CODECOPY PUSH1 0x0 RETURN INVALID PUSH1 0x80 PUSH1 0x40 MSTORE CALLVALUE DUP1 ISZERO PUSH2 0x10 JUMPI PUSH1 0x0 DUP1 REVERT JUMPDEST POP PUSH1 0x4 CALLDATASIZE LT PUSH2 0x23D JUMPI PUSH1 0x0 CALLDATALOAD PUSH1 0xE0 SHR DUP1 PUSH4 0x7CD29FB7 GT PUSH2 0x13B JUMPI DUP1 PUSH4 0xB86BC74F GT PUSH2 0xB8 JUMPI DUP1 PUSH4 0xD547741F GT PUSH2 0x7C JUMPI DUP1 PUSH4 0xD547741F EQ PUSH2 0x520 JUMPI DUP1 PUSH4 0xD911F553 EQ PUSH2 0x533 JUMPI DUP1 PUSH4 0xDF3A12DD EQ PUSH2 0x579 JUMPI DUP1 PUSH4 0xE05F2FB4 EQ PUSH2 0x58C JUMPI DUP1 PUSH4 0xE5A357F5 EQ PUSH2 0x5B3 JUMPI PUSH1 0x0 DUP1 REVERT JUMPDEST DUP1 PUSH4 0xB86BC74F EQ PUSH2 0x4D2 JUMPI DUP1 PUSH4 0xBF802091 EQ PUSH2 0x4E7 JUMPI DUP1 PUSH4 0xC9DBCFDA EQ PUSH2 0x4FA JUMPI DUP1 PUSH4 0xD0FB68C7 EQ PUSH2 0x2A2 JUMPI DUP1 PUSH4 0xD3243AD8 EQ PUSH2 0x50D JUMPI PUSH1 0x0 DUP1 REVERT JUMPDEST DUP1 PUSH4 0x9E339909 GT PUSH2 0xFF JUMPI DUP1 PUSH4 0x9E339909 EQ PUSH2 0x372 JUMPI DUP1 PUSH4 0xA1CEBF52 EQ PUSH2 0x47E JUMPI DUP1 PUSH4 0xA217FDDF EQ PUSH2 0x491 JUMPI DUP1 PUSH4 0xA3EABD3D EQ PUSH2 0x499 JUMPI DUP1 PUSH4 0xACE81910 EQ PUSH2 0x4BF JUMPI PUSH1 0x0 DUP1 REVERT JUMPDEST DUP1 PUSH4 0x7CD29FB7 EQ PUSH2 0x2A2 JUMPI DUP1 PUSH4 0x8856A0E9 EQ PUSH2 0x415 JUMPI DUP1 PUSH4 0x8E82D0E7 EQ PUSH2 0x428 JUMPI DUP1 PUSH4 0x91D14854 EQ PUSH2 0x44B JUMPI DUP1 PUSH4 0x9DD09A73 EQ PUSH2 0x45E JUMPI PUSH1 0x0 DUP1 REVERT JUMPDEST DUP1 PUSH4 0x2F2FF15D GT PUSH2 0x1C9 JUMPI DUP1 PUSH4 0x5907EBEA GT PUSH2 0x18D JUMPI DUP1 PUSH4 0x5907EBEA EQ PUSH2 0x372 JUMPI DUP1 PUSH4 0x642F9163 EQ PUSH2 0x37A JUMPI DUP1 PUSH4 0x6BC6421B EQ PUSH2 0x39C JUMPI DUP1 PUSH4 0x719129BE EQ PUSH2 0x3A4 JUMPI DUP1 PUSH4 0x742F0688 EQ PUSH2 0x3B7 JUMPI PUSH1 0x0 DUP1 REVERT JUMPDEST DUP1 PUSH4 0x2F2FF15D EQ PUSH2 0x331 JUMPI DUP1 PUSH4 0x33B72E49 EQ PUSH2 0x344 JUMPI DUP1 PUSH4 0x36568ABE EQ PUSH2 0x34C JUMPI DUP1 PUSH4 0x4CCE913B EQ PUSH2 0x35F JUMPI DUP1 PUSH4 0x4DA11A20 EQ PUSH2 0x2A2 JUMPI PUSH1 0x0 DUP1 REVERT JUMPDEST DUP1 PUSH4 0x12AC167C GT PUSH2 0x210 JUMPI DUP1 PUSH4 0x12AC167C EQ PUSH2 0x2BC JUMPI DUP1 PUSH4 0x1A968069 EQ PUSH2 0x2DC JUMPI DUP1 PUSH4 0x1A9CFE28 EQ PUSH2 0x2A2 JUMPI DUP1 PUSH4 0x248A9CA3 EQ PUSH2 0x300 JUMPI DUP1 PUSH4 0x2CD94E4F EQ PUSH2 0x2A2 JUMPI PUSH1 0x0 DUP1 REVERT JUMPDEST DUP1 PUSH4 0x1FFC9A7 EQ PUSH2 0x242 JUMPI DUP1 PUSH4 0x5F84D45 EQ PUSH2 0x26A JUMPI DUP1 PUSH4 0x6EAD22E EQ PUSH2 0x27F JUMPI DUP1 PUSH4 0xF68794A EQ PUSH2 0x2A2 JUMPI JUMPDEST PUSH1 0x0 DUP1 REVERT JUMPDEST PUSH2 0x255 PUSH2 0x250 CALLDATASIZE PUSH1 0x4 PUSH2 0x35C2 JUMP JUMPDEST PUSH2 0x5D3 JUMP JUMPDEST PUSH1 0x40 MLOAD SWAP1 ISZERO ISZERO DUP2 MSTORE PUSH1 0x20 ADD JUMPDEST PUSH1 0x40 MLOAD DUP1 SWAP2 SUB SWAP1 RETURN JUMPDEST PUSH2 0x27D PUSH2 0x278 CALLDATASIZE PUSH1 0x4 PUSH2 0x3601 JUMP JUMPDEST PUSH2 0x60A JUMP JUMPDEST STOP JUMPDEST PUSH2 0x292 PUSH2 0x28D CALLDATASIZE PUSH1 0x4 PUSH2 0x362D JUMP JUMPDEST PUSH2 0x885 JUMP JUMPDEST PUSH1 0x40 MLOAD PUSH2 0x261 SWAP5 SWAP4 SWAP3 SWAP2 SWAP1 PUSH2 0x3696 JUMP JUMPDEST PUSH2 0x2AA PUSH1 0x50 DUP2 JUMP JUMPDEST PUSH1 0x40 MLOAD PUSH1 0xFF SWAP1 SWAP2 AND DUP2 MSTORE PUSH1 0x20 ADD PUSH2 0x261 JUMP JUMPDEST PUSH2 0x2CF PUSH2 0x2CA CALLDATASIZE PUSH1 0x4 PUSH2 0x36EA JUMP JUMPDEST PUSH2 0x9BD JUMP JUMPDEST PUSH1 0x40 MLOAD PUSH2 0x261 SWAP2 SWAP1 PUSH2 0x3705 JUMP JUMPDEST PUSH2 0x2EF PUSH2 0x2EA CALLDATASIZE PUSH1 0x4 PUSH2 0x362D JUMP JUMPDEST PUSH2 0xBA8 JUMP JUMPDEST PUSH1 0x40 MLOAD PUSH2 0x261 SWAP6 SWAP5 SWAP4 SWAP3 SWAP2 SWAP1 PUSH2 0x3718 JUMP JUMPDEST PUSH2 0x323 PUSH2 0x30E CALLDATASIZE PUSH1 0x4 PUSH2 0x362D JUMP JUMPDEST PUSH1 0x0 SWAP1 DUP2 MSTORE PUSH1 0x20 DUP2 SWAP1 MSTORE PUSH1 0x40 SWAP1 KECCAK256 PUSH1 0x1 ADD SLOAD SWAP1 JUMP JUMPDEST PUSH1 0x40 MLOAD SWAP1 DUP2 MSTORE PUSH1 0x20 ADD PUSH2 0x261 JUMP JUMPDEST PUSH2 0x27D PUSH2 0x33F CALLDATASIZE PUSH1 0x4 PUSH2 0x3756 JUMP JUMPDEST PUSH2 0xC6A JUMP JUMPDEST PUSH2 0x2AA PUSH1 0x2 DUP2 JUMP JUMPDEST PUSH2 0x27D PUSH2 0x35A CALLDATASIZE PUSH1 0x4 PUSH2 0x3756 JUMP JUMPDEST PUSH2 0xC8F JUMP JUMPDEST PUSH2 0x323 PUSH2 0x36D CALLDATASIZE PUSH1 0x4 PUSH2 0x3779 JUMP JUMPDEST PUSH2 0xCF6 JUMP JUMPDEST PUSH2 0x2AA PUSH1 0xF DUP2 JUMP JUMPDEST PUSH2 0x38D PUSH2 0x388 CALLDATASIZE PUSH1 0x4 PUSH2 0x362D JUMP JUMPDEST PUSH2 0xD27 JUMP JUMPDEST PUSH1 0x40 MLOAD PUSH2 0x261 SWAP4 SWAP3 SWAP2 SWAP1 PUSH2 0x379B JUMP JUMPDEST PUSH2 0x2AA PUSH1 0x33 DUP2 JUMP JUMPDEST PUSH2 0x27D PUSH2 0x3B2 CALLDATASIZE PUSH1 0x4 PUSH2 0x37D1 JUMP JUMPDEST PUSH2 0xEC9 JUMP JUMPDEST PUSH2 0x403 PUSH2 0x3C5 CALLDATASIZE PUSH1 0x4 PUSH2 0x362D JUMP JUMPDEST PUSH1 0x7 PUSH1 0x20 MSTORE PUSH1 0x0 SWAP1 DUP2 MSTORE PUSH1 0x40 SWAP1 KECCAK256 DUP1 SLOAD PUSH1 0x1 DUP3 ADD SLOAD PUSH1 0x2 DUP4 ADD SLOAD PUSH1 0x3 SWAP1 SWAP4 ADD SLOAD PUSH1 0xFF DUP1 DUP5 AND SWAP5 PUSH2 0x100 DUP6 DIV DUP3 AND SWAP5 PUSH3 0x10000 SWAP1 DIV DUP3 AND SWAP4 SWAP3 SWAP2 AND SWAP1 DUP7 JUMP JUMPDEST PUSH1 0x40 MLOAD PUSH2 0x261 SWAP7 SWAP6 SWAP5 SWAP4 SWAP3 SWAP2 SWAP1 PUSH2 0x3857 JUMP JUMPDEST PUSH2 0x27D PUSH2 0x423 CALLDATASIZE PUSH1 0x4 PUSH2 0x389C JUMP JUMPDEST PUSH2 0x1246 JUMP JUMPDEST PUSH2 0x43B PUSH2 0x436 CALLDATASIZE PUSH1 0x4 PUSH2 0x36EA JUMP JUMPDEST PUSH2 0x16FB JUMP JUMPDEST PUSH1 0x40 MLOAD PUSH2 0x261 SWAP5 SWAP4 SWAP3 SWAP2 SWAP1 PUSH2 0x3979 JUMP JUMPDEST PUSH2 0x255 PUSH2 0x459 CALLDATASIZE PUSH1 0x4 PUSH2 0x3756 JUMP JUMPDEST PUSH2 0x1A00 JUMP JUMPDEST PUSH2 0x323 PUSH2 0x46C CALLDATASIZE PUSH1 0x4 PUSH2 0x362D JUMP JUMPDEST PUSH1 0x5 PUSH1 0x20 MSTORE PUSH1 0x0 SWAP1 DUP2 MSTORE PUSH1 0x40 SWAP1 KECCAK256 SLOAD DUP2 JUMP JUMPDEST PUSH2 0x27D PUSH2 0x48C CALLDATASIZE PUSH1 0x4 PUSH2 0x3ADD JUMP JUMPDEST PUSH2 0x1A29 JUMP JUMPDEST PUSH2 0x323 PUSH1 0x0 DUP2 JUMP JUMPDEST PUSH2 0x323 PUSH2 0x4A7 CALLDATASIZE PUSH1 0x4 PUSH2 0x362D JUMP JUMPDEST PUSH1 0x0 SWAP1 DUP2 MSTORE PUSH1 0x3 PUSH1 0x20 MSTORE PUSH1 0x40 SWAP1 KECCAK256 SLOAD PUSH4 0xFFFFFFFF AND SWAP1 JUMP JUMPDEST PUSH2 0x27D PUSH2 0x4CD CALLDATASIZE PUSH1 0x4 PUSH2 0x389C JUMP JUMPDEST PUSH2 0x1BDD JUMP JUMPDEST PUSH2 0x323 PUSH1 0x0 DUP1 MLOAD PUSH1 0x20 PUSH2 0x444F DUP4 CODECOPY DUP2 MLOAD SWAP2 MSTORE DUP2 JUMP JUMPDEST PUSH2 0x323 PUSH2 0x4F5 CALLDATASIZE PUSH1 0x4 PUSH2 0x3779 JUMP JUMPDEST PUSH2 0x2038 JUMP JUMPDEST PUSH2 0x27D PUSH2 0x508 CALLDATASIZE PUSH1 0x4 PUSH2 0x3ADD JUMP JUMPDEST PUSH2 0x2071 JUMP JUMPDEST PUSH2 0x27D PUSH2 0x51B CALLDATASIZE PUSH1 0x4 PUSH2 0x37D1 JUMP JUMPDEST PUSH2 0x20FE JUMP JUMPDEST PUSH2 0x27D PUSH2 0x52E CALLDATASIZE PUSH1 0x4 PUSH2 0x3756 JUMP JUMPDEST PUSH2 0x25DD JUMP JUMPDEST PUSH2 0x546 PUSH2 0x541 CALLDATASIZE PUSH1 0x4 PUSH2 0x362D JUMP JUMPDEST PUSH2 0x2602 JUMP JUMPDEST PUSH1 0x40 DUP1 MLOAD PUSH1 0xFF SWAP7 DUP8 AND DUP2 MSTORE SWAP5 DUP7 AND PUSH1 0x20 DUP7 ADD MSTORE SWAP3 SWAP1 SWAP5 AND SWAP2 DUP4 ADD SWAP2 SWAP1 SWAP2 MSTORE PUSH1 0x60 DUP3 ADD MSTORE PUSH1 0x80 DUP2 ADD SWAP2 SWAP1 SWAP2 MSTORE PUSH1 0xA0 ADD PUSH2 0x261 JUMP JUMPDEST PUSH2 0x323 PUSH2 0x587 CALLDATASIZE PUSH1 0x4 PUSH2 0x362D JUMP JUMPDEST PUSH2 0x270E JUMP JUMPDEST PUSH2 0x323 PUSH32 0x4BBEB6FD3E5222E55F2F8B0C35BC228E0A06A25D0DA772FDB02C3B92FA004F88 DUP2 JUMP JUMPDEST PUSH2 0x5C6 PUSH2 0x5C1 CALLDATASIZE PUSH1 0x4 PUSH2 0x362D JUMP JUMPDEST PUSH2 0x272F JUMP JUMPDEST PUSH1 0x40 MLOAD PUSH2 0x261 SWAP2 SWAP1 PUSH2 0x3B52 JUMP JUMPDEST PUSH1 0x0 PUSH1 0x1 PUSH1 0x1 PUSH1 0xE0 SHL SUB NOT DUP3 AND PUSH4 0x7965DB0B PUSH1 0xE0 SHL EQ DUP1 PUSH2 0x604 JUMPI POP PUSH4 0x1FFC9A7 PUSH1 0xE0 SHL PUSH1 0x1 PUSH1 0x1 PUSH1 0xE0 SHL SUB NOT DUP4 AND EQ JUMPDEST SWAP3 SWAP2 POP POP JUMP JUMPDEST PUSH2 0x622 PUSH1 0x0 DUP1 MLOAD PUSH1 0x20 PUSH2 0x444F DUP4 CODECOPY DUP2 MLOAD SWAP2 MSTORE CALLER PUSH2 0x1A00 JUMP JUMPDEST PUSH2 0x647 JUMPI PUSH1 0x40 MLOAD PUSH3 0x461BCD PUSH1 0xE5 SHL DUP2 MSTORE PUSH1 0x4 ADD PUSH2 0x63E SWAP1 PUSH2 0x3B65 JUMP JUMPDEST PUSH1 0x40 MLOAD DUP1 SWAP2 SUB SWAP1 REVERT JUMPDEST PUSH1 0x0 DUP3 GT PUSH2 0x667 JUMPI PUSH1 0x40 MLOAD PUSH3 0x461BCD PUSH1 0xE5 SHL DUP2 MSTORE PUSH1 0x4 ADD PUSH2 0x63E SWAP1 PUSH2 0x3B9C JUMP JUMPDEST PUSH1 0x0 DUP3 DUP2 MSTORE PUSH1 0x1 PUSH1 0x20 MSTORE PUSH1 0x40 DUP2 KECCAK256 SLOAD SWAP1 SUB PUSH2 0x694 JUMPI PUSH1 0x40 MLOAD PUSH3 0x461BCD PUSH1 0xE5 SHL DUP2 MSTORE PUSH1 0x4 ADD PUSH2 0x63E SWAP1 PUSH2 0x3BD3 JUMP JUMPDEST PUSH1 0x0 DUP3 PUSH1 0x40 MLOAD PUSH1 0x20 ADD PUSH2 0x6C0 SWAP2 DUP2 MSTORE PUSH14 0x1111531155114814D51551115395 PUSH1 0x92 SHL PUSH1 0x20 DUP3 ADD MSTORE PUSH1 0x2E ADD SWAP1 JUMP JUMPDEST PUSH1 0x40 MLOAD PUSH1 0x20 DUP2 DUP4 SUB SUB DUP2 MSTORE SWAP1 PUSH1 0x40 MSTORE DUP1 MLOAD SWAP1 PUSH1 0x20 ADD KECCAK256 SWAP1 POP PUSH2 0x718 DUP2 PUSH1 0x0 DUP1 MLOAD PUSH1 0x20 PUSH2 0x444F DUP4 CODECOPY DUP2 MLOAD SWAP2 MSTORE PUSH2 0x6F4 DUP7 PUSH2 0x27BE JUMP JUMPDEST PUSH1 0x40 MLOAD PUSH1 0x20 ADD PUSH2 0x704 SWAP2 SWAP1 PUSH2 0x3C0A JUMP JUMPDEST PUSH1 0x40 MLOAD PUSH1 0x20 DUP2 DUP4 SUB SUB DUP2 MSTORE SWAP1 PUSH1 0x40 MSTORE PUSH2 0x2851 JUMP JUMPDEST DUP2 DUP1 ISZERO PUSH2 0x742 JUMPI POP PUSH1 0x0 DUP2 DUP2 MSTORE PUSH1 0x4 PUSH1 0x20 SWAP1 DUP2 MSTORE PUSH1 0x40 DUP1 DUP4 KECCAK256 CALLER DUP5 MSTORE PUSH1 0x3 ADD SWAP1 SWAP2 MSTORE SWAP1 KECCAK256 SLOAD PUSH1 0xFF AND ISZERO JUMPDEST ISZERO PUSH2 0x785 JUMPI PUSH1 0x0 DUP2 DUP2 MSTORE PUSH1 0x4 PUSH1 0x20 MSTORE PUSH1 0x40 SWAP1 KECCAK256 PUSH2 0x75F SWAP1 CALLER PUSH2 0x28D2 JUMP JUMPDEST PUSH1 0x40 MLOAD DUP2 DUP2 MSTORE PUSH1 0x0 DUP1 MLOAD PUSH1 0x20 PUSH2 0x440F DUP4 CODECOPY DUP2 MLOAD SWAP2 MSTORE SWAP1 PUSH1 0x20 ADD PUSH1 0x40 MLOAD DUP1 SWAP2 SUB SWAP1 LOG1 PUSH2 0x7C9 JUMP JUMPDEST DUP2 ISZERO ISZERO PUSH1 0x0 SUB PUSH2 0x7C9 JUMPI PUSH1 0x0 DUP2 DUP2 MSTORE PUSH1 0x4 PUSH1 0x20 MSTORE PUSH1 0x40 SWAP1 KECCAK256 PUSH2 0x7A7 SWAP1 CALLER PUSH2 0x29FF JUMP JUMPDEST PUSH1 0x40 MLOAD DUP2 DUP2 MSTORE PUSH1 0x0 DUP1 MLOAD PUSH1 0x20 PUSH2 0x440F DUP4 CODECOPY DUP2 MLOAD SWAP2 MSTORE SWAP1 PUSH1 0x20 ADD PUSH1 0x40 MLOAD DUP1 SWAP2 SUB SWAP1 LOG1 JUMPDEST PUSH1 0x0 DUP1 MLOAD PUSH1 0x20 PUSH2 0x444F DUP4 CODECOPY DUP2 MLOAD SWAP2 MSTORE PUSH1 0x0 MSTORE PUSH1 0x3 PUSH1 0x20 MSTORE PUSH32 0x4ED60087A82BD97D8AFA881E356D9B31A57E1F4FA6C3493C1181428B0C33562 SLOAD PUSH2 0x825 SWAP1 PUSH2 0x818 SWAP1 PUSH1 0x50 SWAP1 PUSH4 0xFFFFFFFF AND PUSH2 0x3C57 JUMP JUMPDEST PUSH4 0xFFFFFFFF AND PUSH1 0x64 PUSH2 0x2038 JUMP JUMPDEST PUSH1 0x0 DUP3 DUP2 MSTORE PUSH1 0x4 PUSH1 0x20 MSTORE PUSH1 0x40 SWAP1 KECCAK256 PUSH1 0x2 ADD SLOAD PUSH1 0xFF AND LT PUSH2 0x880 JUMPI PUSH1 0x0 DUP2 DUP2 MSTORE PUSH1 0x4 PUSH1 0x20 MSTORE PUSH1 0x40 SWAP1 KECCAK256 PUSH2 0x856 SWAP1 PUSH2 0x2AB7 JUMP JUMPDEST PUSH1 0x40 MLOAD DUP2 DUP2 MSTORE PUSH1 0x0 DUP1 MLOAD PUSH1 0x20 PUSH2 0x442F DUP4 CODECOPY DUP2 MLOAD SWAP2 MSTORE SWAP1 PUSH1 0x20 ADD PUSH1 0x40 MLOAD DUP1 SWAP2 SUB SWAP1 LOG1 PUSH2 0x880 DUP4 PUSH2 0x2B28 JUMP JUMPDEST POP POP POP JUMP JUMPDEST PUSH1 0x1 PUSH1 0x20 DUP2 SWAP1 MSTORE PUSH1 0x0 SWAP2 DUP3 MSTORE PUSH1 0x40 SWAP1 SWAP2 KECCAK256 DUP1 SLOAD SWAP2 DUP2 ADD DUP1 SLOAD PUSH2 0x8A6 SWAP1 PUSH2 0x3C7F JUMP JUMPDEST DUP1 PUSH1 0x1F ADD PUSH1 0x20 DUP1 SWAP2 DIV MUL PUSH1 0x20 ADD PUSH1 0x40 MLOAD SWAP1 DUP2 ADD PUSH1 0x40 MSTORE DUP1 SWAP3 SWAP2 SWAP1 DUP2 DUP2 MSTORE PUSH1 0x20 ADD DUP3 DUP1 SLOAD PUSH2 0x8D2 SWAP1 PUSH2 0x3C7F JUMP JUMPDEST DUP1 ISZERO PUSH2 0x91F JUMPI DUP1 PUSH1 0x1F LT PUSH2 0x8F4 JUMPI PUSH2 0x100 DUP1 DUP4 SLOAD DIV MUL DUP4 MSTORE SWAP2 PUSH1 0x20 ADD SWAP2 PUSH2 0x91F JUMP JUMPDEST DUP3 ADD SWAP2 SWAP1 PUSH1 0x0 MSTORE PUSH1 0x20 PUSH1 0x0 KECCAK256 SWAP1 JUMPDEST DUP2 SLOAD DUP2 MSTORE SWAP1 PUSH1 0x1 ADD SWAP1 PUSH1 0x20 ADD DUP1 DUP4 GT PUSH2 0x902 JUMPI DUP3 SWAP1 SUB PUSH1 0x1F AND DUP3 ADD SWAP2 JUMPDEST POP POP POP POP POP SWAP1 DUP1 PUSH1 0x2 ADD DUP1 SLOAD PUSH2 0x934 SWAP1 PUSH2 0x3C7F JUMP JUMPDEST DUP1 PUSH1 0x1F ADD PUSH1 0x20 DUP1 SWAP2 DIV MUL PUSH1 0x20 ADD PUSH1 0x40 MLOAD SWAP1 DUP2 ADD PUSH1 0x40 MSTORE DUP1 SWAP3 SWAP2 SWAP1 DUP2 DUP2 MSTORE PUSH1 0x20 ADD DUP3 DUP1 SLOAD PUSH2 0x960 SWAP1 PUSH2 0x3C7F JUMP JUMPDEST DUP1 ISZERO PUSH2 0x9AD JUMPI DUP1 PUSH1 0x1F LT PUSH2 0x982 JUMPI PUSH2 0x100 DUP1 DUP4 SLOAD DIV MUL DUP4 MSTORE SWAP2 PUSH1 0x20 ADD SWAP2 PUSH2 0x9AD JUMP JUMPDEST DUP3 ADD SWAP2 SWAP1 PUSH1 0x0 MSTORE PUSH1 0x20 PUSH1 0x0 KECCAK256 SWAP1 JUMPDEST DUP2 SLOAD DUP2 MSTORE SWAP1 PUSH1 0x1 ADD SWAP1 PUSH1 0x20 ADD DUP1 DUP4 GT PUSH2 0x990 JUMPI DUP3 SWAP1 SUB PUSH1 0x1F AND DUP3 ADD SWAP2 JUMPDEST POP POP POP POP POP SWAP1 DUP1 PUSH1 0x3 ADD SLOAD SWAP1 POP DUP5 JUMP JUMPDEST PUSH1 0x40 DUP1 MLOAD DUP1 DUP3 ADD DUP3 MSTORE PUSH1 0x10 DUP2 MSTORE PUSH16 0x181899199A1A9B1B9C1CB0B131B232B3 PUSH1 0x81 SHL PUSH1 0x20 DUP3 ADD MSTORE DUP2 MLOAD PUSH1 0x2A DUP1 DUP3 MSTORE PUSH1 0x60 DUP3 DUP2 ADD SWAP1 SWAP5 MSTORE PUSH1 0x1 PUSH1 0x1 PUSH1 0xA0 SHL SUB DUP6 AND SWAP3 SWAP2 PUSH1 0x0 SWAP2 PUSH1 0x20 DUP3 ADD DUP2 DUP1 CALLDATASIZE DUP4 CALLDATACOPY ADD SWAP1 POP POP SWAP1 POP PUSH1 0x3 PUSH1 0xFC SHL DUP2 PUSH1 0x0 DUP2 MLOAD DUP2 LT PUSH2 0xA28 JUMPI PUSH2 0xA28 PUSH2 0x3CB9 JUMP JUMPDEST PUSH1 0x20 ADD ADD SWAP1 PUSH1 0x1 PUSH1 0x1 PUSH1 0xF8 SHL SUB NOT AND SWAP1 DUP2 PUSH1 0x0 BYTE SWAP1 MSTORE8 POP PUSH1 0xF PUSH1 0xFB SHL DUP2 PUSH1 0x1 DUP2 MLOAD DUP2 LT PUSH2 0xA57 JUMPI PUSH2 0xA57 PUSH2 0x3CB9 JUMP JUMPDEST PUSH1 0x20 ADD ADD SWAP1 PUSH1 0x1 PUSH1 0x1 PUSH1 0xF8 SHL SUB NOT AND SWAP1 DUP2 PUSH1 0x0 BYTE SWAP1 MSTORE8 POP PUSH1 0x0 JUMPDEST PUSH1 0x14 DUP2 LT ISZERO PUSH2 0xB9F JUMPI DUP3 PUSH1 0x4 DUP6 PUSH2 0xA89 DUP5 PUSH1 0xC PUSH2 0x3CCF JUMP JUMPDEST PUSH1 0x20 DUP2 LT PUSH2 0xA99 JUMPI PUSH2 0xA99 PUSH2 0x3CB9 JUMP JUMPDEST BYTE PUSH1 0xF8 SHL PUSH1 0x1 PUSH1 0x1 PUSH1 0xF8 SHL SUB NOT AND SWAP1 SHR PUSH1 0xF8 SHR PUSH1 0xFF AND DUP2 MLOAD DUP2 LT PUSH2 0xABF JUMPI PUSH2 0xABF PUSH2 0x3CB9 JUMP JUMPDEST ADD PUSH1 0x20 ADD MLOAD PUSH1 0x1 PUSH1 0x1 PUSH1 0xF8 SHL SUB NOT AND DUP3 PUSH2 0xADA DUP4 PUSH1 0x2 PUSH2 0x3CE2 JUMP JUMPDEST PUSH2 0xAE5 SWAP1 PUSH1 0x2 PUSH2 0x3CCF JUMP JUMPDEST DUP2 MLOAD DUP2 LT PUSH2 0xAF5 JUMPI PUSH2 0xAF5 PUSH2 0x3CB9 JUMP JUMPDEST PUSH1 0x20 ADD ADD SWAP1 PUSH1 0x1 PUSH1 0x1 PUSH1 0xF8 SHL SUB NOT AND SWAP1 DUP2 PUSH1 0x0 BYTE SWAP1 MSTORE8 POP DUP3 DUP5 PUSH2 0xB19 DUP4 PUSH1 0xC PUSH2 0x3CCF JUMP JUMPDEST PUSH1 0x20 DUP2 LT PUSH2 0xB29 JUMPI PUSH2 0xB29 PUSH2 0x3CB9 JUMP JUMPDEST DUP3 MLOAD SWAP2 SWAP1 BYTE PUSH1 0xF AND SWAP1 DUP2 LT PUSH2 0xB40 JUMPI PUSH2 0xB40 PUSH2 0x3CB9 JUMP JUMPDEST ADD PUSH1 0x20 ADD MLOAD PUSH1 0x1 PUSH1 0x1 PUSH1 0xF8 SHL SUB NOT AND DUP3 PUSH2 0xB5B DUP4 PUSH1 0x2 PUSH2 0x3CE2 JUMP JUMPDEST PUSH2 0xB66 SWAP1 PUSH1 0x3 PUSH2 0x3CCF JUMP JUMPDEST DUP2 MLOAD DUP2 LT PUSH2 0xB76 JUMPI PUSH2 0xB76 PUSH2 0x3CB9 JUMP JUMPDEST PUSH1 0x20 ADD ADD SWAP1 PUSH1 0x1 PUSH1 0x1 PUSH1 0xF8 SHL SUB NOT AND SWAP1 DUP2 PUSH1 0x0 BYTE SWAP1 MSTORE8 POP DUP1 PUSH2 0xB97 DUP2 PUSH2 0x3CF9 JUMP JUMPDEST SWAP2 POP POP PUSH2 0xA71 JUMP JUMPDEST POP SWAP5 SWAP4 POP POP POP POP JUMP JUMPDEST PUSH1 0x4 PUSH1 0x20 MSTORE PUSH1 0x0 SWAP1 DUP2 MSTORE PUSH1 0x40 SWAP1 KECCAK256 DUP1 SLOAD PUSH1 0x1 DUP3 ADD SLOAD PUSH1 0x2 DUP4 ADD SLOAD PUSH1 0x5 DUP5 ADD DUP1 SLOAD PUSH1 0xFF SWAP5 DUP6 AND SWAP6 SWAP4 SWAP5 DUP4 DUP2 AND SWAP5 PUSH2 0x100 SWAP1 SWAP5 DIV AND SWAP3 SWAP2 SWAP1 PUSH2 0xBE7 SWAP1 PUSH2 0x3C7F JUMP JUMPDEST DUP1 PUSH1 0x1F ADD PUSH1 0x20 DUP1 SWAP2 DIV MUL PUSH1 0x20 ADD PUSH1 0x40 MLOAD SWAP1 DUP2 ADD PUSH1 0x40 MSTORE DUP1 SWAP3 SWAP2 SWAP1 DUP2 DUP2 MSTORE PUSH1 0x20 ADD DUP3 DUP1 SLOAD PUSH2 0xC13 SWAP1 PUSH2 0x3C7F JUMP JUMPDEST DUP1 ISZERO PUSH2 0xC60 JUMPI DUP1 PUSH1 0x1F LT PUSH2 0xC35 JUMPI PUSH2 0x100 DUP1 DUP4 SLOAD DIV MUL DUP4 MSTORE SWAP2 PUSH1 0x20 ADD SWAP2 PUSH2 0xC60 JUMP JUMPDEST DUP3 ADD SWAP2 SWAP1 PUSH1 0x0 MSTORE PUSH1 0x20 PUSH1 0x0 KECCAK256 SWAP1 JUMPDEST DUP2 SLOAD DUP2 MSTORE SWAP1 PUSH1 0x1 ADD SWAP1 PUSH1 0x20 ADD DUP1 DUP4 GT PUSH2 0xC43 JUMPI DUP3 SWAP1 SUB PUSH1 0x1F AND DUP3 ADD SWAP2 JUMPDEST POP POP POP POP POP SWAP1 POP DUP6 JUMP JUMPDEST PUSH1 0x0 DUP3 DUP2 MSTORE PUSH1 0x20 DUP2 SWAP1 MSTORE PUSH1 0x40 SWAP1 KECCAK256 PUSH1 0x1 ADD SLOAD PUSH2 0xC85 DUP2 PUSH2 0x2C01 JUMP JUMPDEST PUSH2 0x880 DUP4 DUP4 PUSH2 0x2C0E JUMP JUMPDEST PUSH1 0x40 MLOAD PUSH3 0x461BCD PUSH1 0xE5 SHL DUP2 MSTORE PUSH1 0x20 PUSH1 0x4 DUP3 ADD MSTORE PUSH1 0x36 PUSH1 0x24 DUP3 ADD MSTORE PUSH32 0x596F752063616E27742072656E6F756E636520746F20796F757220726F6C652E PUSH1 0x44 DUP3 ADD MSTORE PUSH22 0x20506C6561736520636F6E746163742061646D696E73 PUSH1 0x50 SHL PUSH1 0x64 DUP3 ADD MSTORE PUSH1 0x84 ADD PUSH2 0x63E JUMP JUMPDEST PUSH1 0x8 PUSH1 0x20 MSTORE DUP2 PUSH1 0x0 MSTORE PUSH1 0x40 PUSH1 0x0 KECCAK256 DUP2 DUP2 SLOAD DUP2 LT PUSH2 0xD12 JUMPI PUSH1 0x0 DUP1 REVERT JUMPDEST SWAP1 PUSH1 0x0 MSTORE PUSH1 0x20 PUSH1 0x0 KECCAK256 ADD PUSH1 0x0 SWAP2 POP SWAP2 POP POP SLOAD DUP2 JUMP JUMPDEST PUSH1 0x0 DUP2 DUP2 MSTORE PUSH1 0x1 PUSH1 0x20 MSTORE PUSH1 0x40 DUP2 KECCAK256 SLOAD PUSH1 0x60 SWAP2 DUP3 SWAP2 DUP2 SUB PUSH2 0xD81 JUMPI PUSH1 0x40 MLOAD PUSH3 0x461BCD PUSH1 0xE5 SHL DUP2 MSTORE PUSH1 0x20 PUSH1 0x4 DUP3 ADD MSTORE PUSH1 0x15 PUSH1 0x24 DUP3 ADD MSTORE PUSH21 0x14DD1D59195B9D08191BD95CDB89DD08195E1A5CDD PUSH1 0x5A SHL PUSH1 0x44 DUP3 ADD MSTORE PUSH1 0x64 ADD PUSH2 0x63E JUMP JUMPDEST PUSH1 0x0 DUP5 DUP2 MSTORE PUSH1 0x1 PUSH1 0x20 DUP2 SWAP1 MSTORE PUSH1 0x40 SWAP1 SWAP2 KECCAK256 PUSH1 0x3 DUP2 ADD SLOAD SWAP2 DUP2 ADD DUP1 SLOAD SWAP1 SWAP3 PUSH1 0x2 SWAP1 SWAP3 ADD SWAP2 SWAP1 DUP4 SWAP1 PUSH2 0xDB0 SWAP1 PUSH2 0x3C7F JUMP JUMPDEST DUP1 PUSH1 0x1F ADD PUSH1 0x20 DUP1 SWAP2 DIV MUL PUSH1 0x20 ADD PUSH1 0x40 MLOAD SWAP1 DUP2 ADD PUSH1 0x40 MSTORE DUP1 SWAP3 SWAP2 SWAP1 DUP2 DUP2 MSTORE PUSH1 0x20 ADD DUP3 DUP1 SLOAD PUSH2 0xDDC SWAP1 PUSH2 0x3C7F JUMP JUMPDEST DUP1 ISZERO PUSH2 0xE29 JUMPI DUP1 PUSH1 0x1F LT PUSH2 0xDFE JUMPI PUSH2 0x100 DUP1 DUP4 SLOAD DIV MUL DUP4 MSTORE SWAP2 PUSH1 0x20 ADD SWAP2 PUSH2 0xE29 JUMP JUMPDEST DUP3 ADD SWAP2 SWAP1 PUSH1 0x0 MSTORE PUSH1 0x20 PUSH1 0x0 KECCAK256 SWAP1 JUMPDEST DUP2 SLOAD DUP2 MSTORE SWAP1 PUSH1 0x1 ADD SWAP1 PUSH1 0x20 ADD DUP1 DUP4 GT PUSH2 0xE0C JUMPI DUP3 SWAP1 SUB PUSH1 0x1F AND DUP3 ADD SWAP2 JUMPDEST POP POP POP POP POP SWAP3 POP DUP2 DUP1 SLOAD PUSH2 0xE3C SWAP1 PUSH2 0x3C7F JUMP JUMPDEST DUP1 PUSH1 0x1F ADD PUSH1 0x20 DUP1 SWAP2 DIV MUL PUSH1 0x20 ADD PUSH1 0x40 MLOAD SWAP1 DUP2 ADD PUSH1 0x40 MSTORE DUP1 SWAP3 SWAP2 SWAP1 DUP2 DUP2 MSTORE PUSH1 0x20 ADD DUP3 DUP1 SLOAD PUSH2 0xE68 SWAP1 PUSH2 0x3C7F JUMP JUMPDEST DUP1 ISZERO PUSH2 0xEB5 JUMPI DUP1 PUSH1 0x1F LT PUSH2 0xE8A JUMPI PUSH2 0x100 DUP1 DUP4 SLOAD DIV MUL DUP4 MSTORE SWAP2 PUSH1 0x20 ADD SWAP2 PUSH2 0xEB5 JUMP JUMPDEST DUP3 ADD SWAP2 SWAP1 PUSH1 0x0 MSTORE PUSH1 0x20 PUSH1 0x0 KECCAK256 SWAP1 JUMPDEST DUP2 SLOAD DUP2 MSTORE SWAP1 PUSH1 0x1 ADD SWAP1 PUSH1 0x20 ADD DUP1 DUP4 GT PUSH2 0xE98 JUMPI DUP3 SWAP1 SUB PUSH1 0x1F AND DUP3 ADD SWAP2 JUMPDEST POP POP POP POP POP SWAP2 POP SWAP3 POP SWAP3 POP SWAP3 POP SWAP2 SWAP4 SWAP1 SWAP3 POP JUMP JUMPDEST PUSH1 0x0 DUP4 DUP2 MSTORE PUSH1 0x3 PUSH1 0x20 SWAP1 DUP2 MSTORE PUSH1 0x40 SWAP2 DUP3 SWAP1 KECCAK256 DUP1 SLOAD PUSH1 0x2 DUP3 ADD SLOAD DUP5 MLOAD SWAP4 DUP5 ADD MSTORE SWAP1 SWAP3 PUSH4 0xFFFFFFFF DUP1 DUP4 AND PUSH9 0x10000000000000000 SWAP1 SWAP4 DIV AND SWAP2 SWAP1 SWAP2 GT SWAP2 ADD PUSH1 0x40 DUP1 MLOAD PUSH1 0x1F NOT DUP2 DUP5 SUB ADD DUP2 MSTORE SWAP1 DUP3 SWAP1 MSTORE PUSH2 0xF23 SWAP2 PUSH1 0x20 ADD PUSH2 0x3D12 JUMP JUMPDEST PUSH1 0x40 MLOAD PUSH1 0x20 DUP2 DUP4 SUB SUB DUP2 MSTORE SWAP1 PUSH1 0x40 MSTORE SWAP1 PUSH2 0xF50 JUMPI PUSH1 0x40 MLOAD PUSH3 0x461BCD PUSH1 0xE5 SHL DUP2 MSTORE PUSH1 0x4 ADD PUSH2 0x63E SWAP2 SWAP1 PUSH2 0x3705 JUMP JUMPDEST POP PUSH2 0xF5F DUP2 PUSH1 0x1 ADD SLOAD CALLER PUSH2 0x1A00 JUMP JUMPDEST DUP2 PUSH1 0x2 ADD SLOAD PUSH1 0x40 MLOAD PUSH1 0x20 ADD PUSH2 0xF76 SWAP2 DUP2 MSTORE PUSH1 0x20 ADD SWAP1 JUMP JUMPDEST PUSH1 0x40 DUP1 MLOAD PUSH1 0x1F NOT DUP2 DUP5 SUB ADD DUP2 MSTORE SWAP1 DUP3 SWAP1 MSTORE PUSH2 0xF93 SWAP2 PUSH1 0x20 ADD PUSH2 0x3D50 JUMP JUMPDEST PUSH1 0x40 MLOAD PUSH1 0x20 DUP2 DUP4 SUB SUB DUP2 MSTORE SWAP1 PUSH1 0x40 MSTORE SWAP1 PUSH2 0xFC0 JUMPI PUSH1 0x40 MLOAD PUSH3 0x461BCD PUSH1 0xE5 SHL DUP2 MSTORE PUSH1 0x4 ADD PUSH2 0x63E SWAP2 SWAP1 PUSH2 0x3705 JUMP JUMPDEST POP PUSH2 0xFCB DUP5 DUP5 PUSH2 0x1A00 JUMP JUMPDEST PUSH1 0x2 DUP3 ADD SLOAD PUSH1 0x40 DUP1 MLOAD PUSH1 0x20 DUP2 ADD SWAP3 SWAP1 SWAP3 MSTORE SWAP2 ISZERO SWAP2 ADD PUSH1 0x40 DUP1 MLOAD PUSH1 0x1F NOT DUP2 DUP5 SUB ADD DUP2 MSTORE SWAP1 DUP3 SWAP1 MSTORE PUSH2 0xFFD SWAP2 PUSH1 0x20 ADD PUSH2 0x3D98 JUMP JUMPDEST PUSH1 0x40 MLOAD PUSH1 0x20 DUP2 DUP4 SUB SUB DUP2 MSTORE SWAP1 PUSH1 0x40 MSTORE SWAP1 PUSH2 0x102A JUMPI PUSH1 0x40 MLOAD PUSH3 0x461BCD PUSH1 0xE5 SHL DUP2 MSTORE PUSH1 0x4 ADD PUSH2 0x63E SWAP2 SWAP1 PUSH2 0x3705 JUMP JUMPDEST POP PUSH1 0x40 MLOAD PUSH12 0xFFFFFFFFFFFFFFFFFFFFFFFF NOT PUSH1 0x60 DUP6 SWAP1 SHL AND PUSH1 0x20 DUP3 ADD MSTORE PUSH5 0x11D4905395 PUSH1 0xDA SHL PUSH1 0x34 DUP3 ADD MSTORE PUSH1 0x39 DUP2 ADD DUP6 SWAP1 MSTORE PUSH1 0x0 SWAP1 PUSH1 0x59 ADD PUSH1 0x40 MLOAD PUSH1 0x20 DUP2 DUP4 SUB SUB DUP2 MSTORE SWAP1 PUSH1 0x40 MSTORE DUP1 MLOAD SWAP1 PUSH1 0x20 ADD KECCAK256 SWAP1 POP PUSH2 0x10C3 DUP2 DUP4 PUSH1 0x1 ADD SLOAD DUP5 PUSH1 0x2 ADD SLOAD PUSH1 0x40 MLOAD PUSH1 0x20 ADD PUSH2 0x109A SWAP2 DUP2 MSTORE PUSH1 0x20 ADD SWAP1 JUMP JUMPDEST PUSH1 0x40 MLOAD PUSH1 0x20 DUP2 DUP4 SUB SUB DUP2 MSTORE SWAP1 PUSH1 0x40 MSTORE PUSH2 0x10B2 DUP9 PUSH2 0x9BD JUMP JUMPDEST PUSH1 0x40 MLOAD PUSH1 0x20 ADD PUSH2 0x704 SWAP3 SWAP2 SWAP1 PUSH2 0x3DDD JUMP JUMPDEST DUP3 DUP1 ISZERO PUSH2 0x10ED JUMPI POP PUSH1 0x0 DUP2 DUP2 MSTORE PUSH1 0x4 PUSH1 0x20 SWAP1 DUP2 MSTORE PUSH1 0x40 DUP1 DUP4 KECCAK256 CALLER DUP5 MSTORE PUSH1 0x3 ADD SWAP1 SWAP2 MSTORE SWAP1 KECCAK256 SLOAD PUSH1 0xFF AND ISZERO JUMPDEST ISZERO PUSH2 0x1130 JUMPI PUSH1 0x0 DUP2 DUP2 MSTORE PUSH1 0x4 PUSH1 0x20 MSTORE PUSH1 0x40 SWAP1 KECCAK256 PUSH2 0x110A SWAP1 CALLER PUSH2 0x28D2 JUMP JUMPDEST PUSH1 0x40 MLOAD DUP2 DUP2 MSTORE PUSH1 0x0 DUP1 MLOAD PUSH1 0x20 PUSH2 0x440F DUP4 CODECOPY DUP2 MLOAD SWAP2 MSTORE SWAP1 PUSH1 0x20 ADD PUSH1 0x40 MLOAD DUP1 SWAP2 SUB SWAP1 LOG1 PUSH2 0x1174 JUMP JUMPDEST DUP3 ISZERO ISZERO PUSH1 0x0 SUB PUSH2 0x1174 JUMPI PUSH1 0x0 DUP2 DUP2 MSTORE PUSH1 0x4 PUSH1 0x20 MSTORE PUSH1 0x40 SWAP1 KECCAK256 PUSH2 0x1152 SWAP1 CALLER PUSH2 0x29FF JUMP JUMPDEST PUSH1 0x40 MLOAD DUP2 DUP2 MSTORE PUSH1 0x0 DUP1 MLOAD PUSH1 0x20 PUSH2 0x440F DUP4 CODECOPY DUP2 MLOAD SWAP2 MSTORE SWAP1 PUSH1 0x20 ADD PUSH1 0x40 MLOAD DUP1 SWAP2 SUB SWAP1 LOG1 JUMPDEST DUP2 SLOAD PUSH1 0x1 DUP4 ADD SLOAD PUSH1 0x0 SWAP1 DUP2 MSTORE PUSH1 0x3 PUSH1 0x20 MSTORE PUSH1 0x40 SWAP1 KECCAK256 SLOAD PUSH2 0x11A9 SWAP2 PUSH2 0x818 SWAP2 PUSH1 0x1 PUSH1 0x60 SHL SWAP1 SWAP2 DIV PUSH1 0xFF AND SWAP1 PUSH4 0xFFFFFFFF AND PUSH2 0x3C57 JUMP JUMPDEST PUSH1 0x0 DUP3 DUP2 MSTORE PUSH1 0x4 PUSH1 0x20 MSTORE PUSH1 0x40 SWAP1 KECCAK256 PUSH1 0x2 ADD SLOAD PUSH1 0xFF AND LT PUSH2 0x123F JUMPI PUSH1 0x0 DUP2 DUP2 MSTORE PUSH1 0x4 PUSH1 0x20 MSTORE PUSH1 0x40 SWAP1 KECCAK256 PUSH2 0x11DA SWAP1 PUSH2 0x2AB7 JUMP JUMPDEST PUSH1 0x40 MLOAD DUP2 DUP2 MSTORE PUSH1 0x0 DUP1 MLOAD PUSH1 0x20 PUSH2 0x442F DUP4 CODECOPY DUP2 MLOAD SWAP2 MSTORE SWAP1 PUSH1 0x20 ADD PUSH1 0x40 MLOAD DUP1 SWAP2 SUB SWAP1 LOG1 PUSH2 0x1205 DUP6 DUP6 PUSH2 0x2C0E JUMP JUMPDEST DUP2 SLOAD PUSH1 0x1 SWAP1 DUP4 SWAP1 PUSH1 0x0 SWAP1 PUSH2 0x1220 SWAP1 DUP5 SWAP1 PUSH4 0xFFFFFFFF AND PUSH2 0x3E2B JUMP JUMPDEST SWAP3 POP PUSH2 0x100 EXP DUP2 SLOAD DUP2 PUSH4 0xFFFFFFFF MUL NOT AND SWAP1 DUP4 PUSH4 0xFFFFFFFF AND MUL OR SWAP1 SSTORE POP JUMPDEST POP POP POP POP POP JUMP JUMPDEST PUSH2 0x125E PUSH1 0x0 DUP1 MLOAD PUSH1 0x20 PUSH2 0x444F DUP4 CODECOPY DUP2 MLOAD SWAP2 MSTORE CALLER PUSH2 0x1A00 JUMP JUMPDEST PUSH2 0x127A JUMPI PUSH1 0x40 MLOAD PUSH3 0x461BCD PUSH1 0xE5 SHL DUP2 MSTORE PUSH1 0x4 ADD PUSH2 0x63E SWAP1 PUSH2 0x3B65 JUMP JUMPDEST PUSH1 0x0 DUP6 DUP2 MSTORE PUSH1 0x1 PUSH1 0x20 MSTORE PUSH1 0x40 DUP2 KECCAK256 SLOAD SWAP1 SUB PUSH2 0x12A7 JUMPI PUSH1 0x40 MLOAD PUSH3 0x461BCD PUSH1 0xE5 SHL DUP2 MSTORE PUSH1 0x4 ADD PUSH2 0x63E SWAP1 PUSH2 0x3BD3 JUMP JUMPDEST PUSH1 0x0 DUP5 PUSH1 0x3 DUP2 GT ISZERO PUSH2 0x12BB JUMPI PUSH2 0x12BB PUSH2 0x380D JUMP JUMPDEST LT ISZERO DUP1 ISZERO PUSH2 0x12DB JUMPI POP PUSH1 0x3 DUP5 PUSH1 0x3 DUP2 GT ISZERO PUSH2 0x12D8 JUMPI PUSH2 0x12D8 PUSH2 0x380D JUMP JUMPDEST GT ISZERO JUMPDEST PUSH2 0x1323 JUMPI PUSH1 0x40 MLOAD PUSH3 0x461BCD PUSH1 0xE5 SHL DUP2 MSTORE PUSH1 0x20 PUSH1 0x4 DUP3 ADD MSTORE PUSH1 0x19 PUSH1 0x24 DUP3 ADD MSTORE PUSH25 0x105C1C1C9958DA585D1A5BDB881A5CC81B9BDD081D985B1A59 PUSH1 0x3A SHL PUSH1 0x44 DUP3 ADD MSTORE PUSH1 0x64 ADD PUSH2 0x63E JUMP JUMPDEST PUSH1 0x0 DUP4 PUSH1 0x2 DUP2 GT ISZERO PUSH2 0x1337 JUMPI PUSH2 0x1337 PUSH2 0x380D JUMP JUMPDEST LT ISZERO DUP1 ISZERO PUSH2 0x1357 JUMPI POP PUSH1 0x2 DUP4 PUSH1 0x2 DUP2 GT ISZERO PUSH2 0x1354 JUMPI PUSH2 0x1354 PUSH2 0x380D JUMP JUMPDEST GT ISZERO JUMPDEST PUSH2 0x1399 JUMPI PUSH1 0x40 MLOAD PUSH3 0x461BCD PUSH1 0xE5 SHL DUP2 MSTORE PUSH1 0x20 PUSH1 0x4 DUP3 ADD MSTORE PUSH1 0x13 PUSH1 0x24 DUP3 ADD MSTORE PUSH19 0x111959DC9959481A5CC81B9BDD081D985B1A59 PUSH1 0x6A SHL PUSH1 0x44 DUP3 ADD MSTORE PUSH1 0x64 ADD PUSH2 0x63E JUMP JUMPDEST PUSH1 0x0 DUP3 PUSH1 0xF DUP2 GT ISZERO PUSH2 0x13AD JUMPI PUSH2 0x13AD PUSH2 0x380D JUMP JUMPDEST LT ISZERO DUP1 ISZERO PUSH2 0x13CD JUMPI POP PUSH1 0xF DUP3 PUSH1 0xF DUP2 GT ISZERO PUSH2 0x13CA JUMPI PUSH2 0x13CA PUSH2 0x380D JUMP JUMPDEST GT ISZERO JUMPDEST PUSH2 0x1410 JUMPI PUSH1 0x40 MLOAD PUSH3 0x461BCD PUSH1 0xE5 SHL DUP2 MSTORE PUSH1 0x20 PUSH1 0x4 DUP3 ADD MSTORE PUSH1 0x14 PUSH1 0x24 DUP3 ADD MSTORE PUSH20 0x141C9BD9DC985B481A5CC81B9BDD081D985B1A59 PUSH1 0x62 SHL PUSH1 0x44 DUP3 ADD MSTORE PUSH1 0x64 ADD PUSH2 0x63E JUMP JUMPDEST PUSH1 0x7 PUSH1 0x0 DUP7 DUP7 DUP7 DUP7 PUSH1 0x40 MLOAD PUSH1 0x20 ADD PUSH2 0x142B SWAP5 SWAP4 SWAP3 SWAP2 SWAP1 PUSH2 0x3E86 JUMP JUMPDEST PUSH1 0x40 DUP1 MLOAD PUSH1 0x1F NOT DUP2 DUP5 SUB ADD DUP2 MSTORE SWAP2 DUP2 MSTORE DUP2 MLOAD PUSH1 0x20 SWAP3 DUP4 ADD KECCAK256 DUP4 MSTORE SWAP1 DUP3 ADD SWAP3 SWAP1 SWAP3 MSTORE ADD PUSH1 0x0 KECCAK256 PUSH1 0x2 ADD SLOAD PUSH1 0xFF AND ISZERO ISZERO PUSH1 0x1 EQ PUSH2 0x14A8 JUMPI PUSH1 0x40 MLOAD PUSH3 0x461BCD PUSH1 0xE5 SHL DUP2 MSTORE PUSH1 0x20 PUSH1 0x4 DUP3 ADD MSTORE PUSH1 0x1E PUSH1 0x24 DUP3 ADD MSTORE PUSH32 0x5468697320636572746966696361746520646F65736E27742065786973740000 PUSH1 0x44 DUP3 ADD MSTORE PUSH1 0x64 ADD PUSH2 0x63E JUMP JUMPDEST PUSH1 0x0 DUP6 DUP6 DUP6 DUP6 PUSH1 0x40 MLOAD PUSH1 0x20 ADD PUSH2 0x14C1 SWAP5 SWAP4 SWAP3 SWAP2 SWAP1 PUSH2 0x3EBB JUMP JUMPDEST PUSH1 0x40 MLOAD PUSH1 0x20 DUP2 DUP4 SUB SUB DUP2 MSTORE SWAP1 PUSH1 0x40 MSTORE DUP1 MLOAD SWAP1 PUSH1 0x20 ADD KECCAK256 SWAP1 POP PUSH2 0x154C DUP2 PUSH1 0x0 DUP1 MLOAD PUSH1 0x20 PUSH2 0x444F DUP4 CODECOPY DUP2 MLOAD SWAP2 MSTORE PUSH2 0x14F5 DUP10 PUSH2 0x27BE JUMP JUMPDEST PUSH2 0x150F DUP10 PUSH1 0x3 DUP2 GT ISZERO PUSH2 0x150A JUMPI PUSH2 0x150A PUSH2 0x380D JUMP JUMPDEST PUSH2 0x27BE JUMP JUMPDEST PUSH2 0x1524 DUP10 PUSH1 0x2 DUP2 GT ISZERO PUSH2 0x150A JUMPI PUSH2 0x150A PUSH2 0x380D JUMP JUMPDEST PUSH2 0x1539 DUP10 PUSH1 0xF DUP2 GT ISZERO PUSH2 0x150A JUMPI PUSH2 0x150A PUSH2 0x380D JUMP JUMPDEST PUSH1 0x40 MLOAD PUSH1 0x20 ADD PUSH2 0x704 SWAP5 SWAP4 SWAP3 SWAP2 SWAP1 PUSH2 0x3EFF JUMP JUMPDEST DUP2 DUP1 ISZERO PUSH2 0x1576 JUMPI POP PUSH1 0x0 DUP2 DUP2 MSTORE PUSH1 0x4 PUSH1 0x20 SWAP1 DUP2 MSTORE PUSH1 0x40 DUP1 DUP4 KECCAK256 CALLER DUP5 MSTORE PUSH1 0x3 ADD SWAP1 SWAP2 MSTORE SWAP1 KECCAK256 SLOAD PUSH1 0xFF AND ISZERO JUMPDEST ISZERO PUSH2 0x15B9 JUMPI PUSH1 0x0 DUP2 DUP2 MSTORE PUSH1 0x4 PUSH1 0x20 MSTORE PUSH1 0x40 SWAP1 KECCAK256 PUSH2 0x1593 SWAP1 CALLER PUSH2 0x28D2 JUMP JUMPDEST PUSH1 0x40 MLOAD DUP2 DUP2 MSTORE PUSH1 0x0 DUP1 MLOAD PUSH1 0x20 PUSH2 0x440F DUP4 CODECOPY DUP2 MLOAD SWAP2 MSTORE SWAP1 PUSH1 0x20 ADD PUSH1 0x40 MLOAD DUP1 SWAP2 SUB SWAP1 LOG1 PUSH2 0x15FD JUMP JUMPDEST DUP2 ISZERO ISZERO PUSH1 0x0 SUB PUSH2 0x15FD JUMPI PUSH1 0x0 DUP2 DUP2 MSTORE PUSH1 0x4 PUSH1 0x20 MSTORE PUSH1 0x40 SWAP1 KECCAK256 PUSH2 0x15DB SWAP1 CALLER PUSH2 0x29FF JUMP JUMPDEST PUSH1 0x40 MLOAD DUP2 DUP2 MSTORE PUSH1 0x0 DUP1 MLOAD PUSH1 0x20 PUSH2 0x440F DUP4 CODECOPY DUP2 MLOAD SWAP2 MSTORE SWAP1 PUSH1 0x20 ADD PUSH1 0x40 MLOAD DUP1 SWAP2 SUB SWAP1 LOG1 JUMPDEST PUSH1 0x0 DUP1 MLOAD PUSH1 0x20 PUSH2 0x444F DUP4 CODECOPY DUP2 MLOAD SWAP2 MSTORE PUSH1 0x0 MSTORE PUSH1 0x3 PUSH1 0x20 MSTORE PUSH32 0x4ED60087A82BD97D8AFA881E356D9B31A57E1F4FA6C3493C1181428B0C33562 SLOAD PUSH2 0x164C SWAP1 PUSH2 0x818 SWAP1 PUSH1 0x50 SWAP1 PUSH4 0xFFFFFFFF AND PUSH2 0x3C57 JUMP JUMPDEST PUSH1 0x0 DUP3 DUP2 MSTORE PUSH1 0x4 PUSH1 0x20 MSTORE PUSH1 0x40 SWAP1 KECCAK256 PUSH1 0x2 ADD SLOAD PUSH1 0xFF AND LT PUSH2 0x16F3 JUMPI PUSH1 0x0 DUP2 DUP2 MSTORE PUSH1 0x4 PUSH1 0x20 MSTORE PUSH1 0x40 SWAP1 KECCAK256 PUSH2 0x167D SWAP1 PUSH2 0x2AB7 JUMP JUMPDEST PUSH1 0x40 MLOAD DUP2 DUP2 MSTORE PUSH1 0x0 DUP1 MLOAD PUSH1 0x20 PUSH2 0x442F DUP4 CODECOPY DUP2 MLOAD SWAP2 MSTORE SWAP1 PUSH1 0x20 ADD PUSH1 0x40 MLOAD DUP1 SWAP2 SUB SWAP1 LOG1 PUSH1 0x0 PUSH1 0x7 PUSH1 0x0 DUP9 DUP9 DUP9 DUP9 PUSH1 0x40 MLOAD PUSH1 0x20 ADD PUSH2 0x16BB SWAP5 SWAP4 SWAP3 SWAP2 SWAP1 PUSH2 0x3E86 JUMP JUMPDEST PUSH1 0x40 DUP1 MLOAD DUP1 DUP4 SUB PUSH1 0x1F NOT ADD DUP2 MSTORE SWAP2 DUP2 MSTORE DUP2 MLOAD PUSH1 0x20 SWAP3 DUP4 ADD KECCAK256 DUP4 MSTORE SWAP1 DUP3 ADD SWAP3 SWAP1 SWAP3 MSTORE ADD PUSH1 0x0 KECCAK256 PUSH1 0x2 ADD DUP1 SLOAD PUSH1 0xFF NOT AND SWAP2 ISZERO ISZERO SWAP2 SWAP1 SWAP2 OR SWAP1 SSTORE JUMPDEST POP POP POP POP POP POP JUMP JUMPDEST PUSH1 0x60 DUP1 PUSH1 0x60 DUP1 PUSH1 0x0 PUSH1 0x6 SLOAD PUSH8 0xFFFFFFFFFFFFFFFF DUP2 GT ISZERO PUSH2 0x171E JUMPI PUSH2 0x171E PUSH2 0x3A3A JUMP JUMPDEST PUSH1 0x40 MLOAD SWAP1 DUP1 DUP3 MSTORE DUP1 PUSH1 0x20 MUL PUSH1 0x20 ADD DUP3 ADD PUSH1 0x40 MSTORE DUP1 ISZERO PUSH2 0x1751 JUMPI DUP2 PUSH1 0x20 ADD JUMPDEST PUSH1 0x60 DUP2 MSTORE PUSH1 0x20 ADD SWAP1 PUSH1 0x1 SWAP1 SUB SWAP1 DUP2 PUSH2 0x173C JUMPI SWAP1 POP JUMPDEST POP SWAP1 POP PUSH1 0x0 PUSH1 0x6 SLOAD PUSH8 0xFFFFFFFFFFFFFFFF DUP2 GT ISZERO PUSH2 0x1771 JUMPI PUSH2 0x1771 PUSH2 0x3A3A JUMP JUMPDEST PUSH1 0x40 MLOAD SWAP1 DUP1 DUP3 MSTORE DUP1 PUSH1 0x20 MUL PUSH1 0x20 ADD DUP3 ADD PUSH1 0x40 MSTORE DUP1 ISZERO PUSH2 0x179A JUMPI DUP2 PUSH1 0x20 ADD PUSH1 0x20 DUP3 MUL DUP1 CALLDATASIZE DUP4 CALLDATACOPY ADD SWAP1 POP JUMPDEST POP SWAP1 POP PUSH1 0x0 PUSH1 0x6 SLOAD PUSH8 0xFFFFFFFFFFFFFFFF DUP2 GT ISZERO PUSH2 0x17BA JUMPI PUSH2 0x17BA PUSH2 0x3A3A JUMP JUMPDEST PUSH1 0x40 MLOAD SWAP1 DUP1 DUP3 MSTORE DUP1 PUSH1 0x20 MUL PUSH1 0x20 ADD DUP3 ADD PUSH1 0x40 MSTORE DUP1 ISZERO PUSH2 0x17E3 JUMPI DUP2 PUSH1 0x20 ADD PUSH1 0x20 DUP3 MUL DUP1 CALLDATASIZE DUP4 CALLDATACOPY ADD SWAP1 POP JUMPDEST POP SWAP1 POP PUSH1 0x0 PUSH1 0x6 SLOAD PUSH8 0xFFFFFFFFFFFFFFFF DUP2 GT ISZERO PUSH2 0x1803 JUMPI PUSH2 0x1803 PUSH2 0x3A3A JUMP JUMPDEST PUSH1 0x40 MLOAD SWAP1 DUP1 DUP3 MSTORE DUP1 PUSH1 0x20 MUL PUSH1 0x20 ADD DUP3 ADD PUSH1 0x40 MSTORE DUP1 ISZERO PUSH2 0x182C JUMPI DUP2 PUSH1 0x20 ADD PUSH1 0x20 DUP3 MUL DUP1 CALLDATASIZE DUP4 CALLDATACOPY ADD SWAP1 POP JUMPDEST POP SWAP1 POP PUSH1 0x0 JUMPDEST PUSH1 0x6 SLOAD DUP2 LT ISZERO PUSH2 0x19EF JUMPI PUSH1 0x0 DUP2 DUP2 MSTORE PUSH1 0x5 PUSH1 0x20 DUP2 DUP2 MSTORE PUSH1 0x40 DUP1 DUP5 KECCAK256 SLOAD DUP5 MSTORE PUSH1 0x4 SWAP1 SWAP2 MSTORE SWAP1 SWAP2 KECCAK256 ADD DUP1 SLOAD PUSH2 0x1864 SWAP1 PUSH2 0x3C7F JUMP JUMPDEST DUP1 PUSH1 0x1F ADD PUSH1 0x20 DUP1 SWAP2 DIV MUL PUSH1 0x20 ADD PUSH1 0x40 MLOAD SWAP1 DUP2 ADD PUSH1 0x40 MSTORE DUP1 SWAP3 SWAP2 SWAP1 DUP2 DUP2 MSTORE PUSH1 0x20 ADD DUP3 DUP1 SLOAD PUSH2 0x1890 SWAP1 PUSH2 0x3C7F JUMP JUMPDEST DUP1 ISZERO PUSH2 0x18DD JUMPI DUP1 PUSH1 0x1F LT PUSH2 0x18B2 JUMPI PUSH2 0x100 DUP1 DUP4 SLOAD DIV MUL DUP4 MSTORE SWAP2 PUSH1 0x20 ADD SWAP2 PUSH2 0x18DD JUMP JUMPDEST DUP3 ADD SWAP2 SWAP1 PUSH1 0x0 MSTORE PUSH1 0x20 PUSH1 0x0 KECCAK256 SWAP1 JUMPDEST DUP2 SLOAD DUP2 MSTORE SWAP1 PUSH1 0x1 ADD SWAP1 PUSH1 0x20 ADD DUP1 DUP4 GT PUSH2 0x18C0 JUMPI DUP3 SWAP1 SUB PUSH1 0x1F AND DUP3 ADD SWAP2 JUMPDEST POP POP POP POP POP DUP6 DUP3 DUP2 MLOAD DUP2 LT PUSH2 0x18F4 JUMPI PUSH2 0x18F4 PUSH2 0x3CB9 JUMP JUMPDEST PUSH1 0x20 SWAP1 DUP2 MUL SWAP2 SWAP1 SWAP2 ADD DUP2 ADD SWAP2 SWAP1 SWAP2 MSTORE PUSH1 0x0 DUP3 DUP2 MSTORE PUSH1 0x5 DUP3 MSTORE PUSH1 0x40 DUP1 DUP3 KECCAK256 SLOAD DUP3 MSTORE PUSH1 0x4 SWAP1 SWAP3 MSTORE KECCAK256 PUSH1 0x2 ADD SLOAD DUP5 MLOAD PUSH1 0xFF SWAP1 SWAP2 AND SWAP1 DUP6 SWAP1 DUP4 SWAP1 DUP2 LT PUSH2 0x1938 JUMPI PUSH2 0x1938 PUSH2 0x3CB9 JUMP JUMPDEST PUSH1 0xFF SWAP1 SWAP3 AND PUSH1 0x20 SWAP3 DUP4 MUL SWAP2 SWAP1 SWAP2 ADD DUP3 ADD MSTORE PUSH1 0x0 DUP3 DUP2 MSTORE PUSH1 0x5 DUP3 MSTORE PUSH1 0x40 DUP1 DUP3 KECCAK256 SLOAD DUP3 MSTORE PUSH1 0x4 SWAP1 SWAP3 MSTORE KECCAK256 PUSH1 0x1 ADD SLOAD DUP4 MLOAD DUP5 SWAP1 DUP4 SWAP1 DUP2 LT PUSH2 0x1978 JUMPI PUSH2 0x1978 PUSH2 0x3CB9 JUMP JUMPDEST PUSH1 0x20 SWAP1 DUP2 MUL SWAP2 SWAP1 SWAP2 ADD DUP2 ADD SWAP2 SWAP1 SWAP2 MSTORE PUSH1 0x0 DUP3 DUP2 MSTORE PUSH1 0x5 DUP3 MSTORE PUSH1 0x40 DUP1 DUP3 KECCAK256 SLOAD DUP3 MSTORE PUSH1 0x4 DUP4 MSTORE DUP1 DUP3 KECCAK256 PUSH1 0x1 PUSH1 0x1 PUSH1 0xA0 SHL SUB DUP15 AND DUP4 MSTORE PUSH1 0x3 ADD SWAP1 SWAP3 MSTORE KECCAK256 SLOAD DUP3 MLOAD PUSH1 0xFF SWAP1 SWAP2 AND SWAP1 DUP4 SWAP1 DUP4 SWAP1 DUP2 LT PUSH2 0x19CD JUMPI PUSH2 0x19CD PUSH2 0x3CB9 JUMP JUMPDEST SWAP2 ISZERO ISZERO PUSH1 0x20 SWAP3 DUP4 MUL SWAP2 SWAP1 SWAP2 ADD SWAP1 SWAP2 ADD MSTORE DUP1 PUSH2 0x19E7 DUP2 PUSH2 0x3CF9 JUMP JUMPDEST SWAP2 POP POP PUSH2 0x1832 JUMP JUMPDEST POP SWAP1 SWAP9 SWAP2 SWAP8 POP SWAP2 SWAP6 POP SWAP1 SWAP4 POP SWAP2 POP POP JUMP JUMPDEST PUSH1 0x0 SWAP2 DUP3 MSTORE PUSH1 0x20 DUP3 DUP2 MSTORE PUSH1 0x40 DUP1 DUP5 KECCAK256 PUSH1 0x1 PUSH1 0x1 PUSH1 0xA0 SHL SUB SWAP4 SWAP1 SWAP4 AND DUP5 MSTORE SWAP2 SWAP1 MSTORE SWAP1 KECCAK256 SLOAD PUSH1 0xFF AND SWAP1 JUMP JUMPDEST PUSH2 0x1A41 PUSH1 0x0 DUP1 MLOAD PUSH1 0x20 PUSH2 0x444F DUP4 CODECOPY DUP2 MLOAD SWAP2 MSTORE CALLER PUSH2 0x1A00 JUMP JUMPDEST PUSH2 0x1A5D JUMPI PUSH1 0x40 MLOAD PUSH3 0x461BCD PUSH1 0xE5 SHL DUP2 MSTORE PUSH1 0x4 ADD PUSH2 0x63E SWAP1 PUSH2 0x3B65 JUMP JUMPDEST PUSH1 0x0 DUP5 GT PUSH2 0x1A7D JUMPI PUSH1 0x40 MLOAD PUSH3 0x461BCD PUSH1 0xE5 SHL DUP2 MSTORE PUSH1 0x4 ADD PUSH2 0x63E SWAP1 PUSH2 0x3B9C JUMP JUMPDEST PUSH1 0x0 DUP4 MLOAD GT PUSH2 0x1ACE JUMPI PUSH1 0x40 MLOAD PUSH3 0x461BCD PUSH1 0xE5 SHL DUP2 MSTORE PUSH1 0x20 PUSH1 0x4 DUP3 ADD MSTORE PUSH1 0x19 PUSH1 0x24 DUP3 ADD MSTORE PUSH32 0x46697273746E616D652063616E6E6F7420626520656D70747900000000000000 PUSH1 0x44 DUP3 ADD MSTORE PUSH1 0x64 ADD PUSH2 0x63E JUMP JUMPDEST PUSH1 0x0 DUP3 MLOAD GT PUSH2 0x1B1F JUMPI PUSH1 0x40 MLOAD PUSH3 0x461BCD PUSH1 0xE5 SHL DUP2 MSTORE PUSH1 0x20 PUSH1 0x4 DUP3 ADD MSTORE PUSH1 0x18 PUSH1 0x24 DUP3 ADD MSTORE PUSH32 0x4C6173746E616D652063616E6E6F7420626520656D7074790000000000000000 PUSH1 0x44 DUP3 ADD MSTORE PUSH1 0x64 ADD PUSH2 0x63E JUMP JUMPDEST PUSH1 0x0 DUP2 GT PUSH2 0x1B6F JUMPI PUSH1 0x40 MLOAD PUSH3 0x461BCD PUSH1 0xE5 SHL DUP2 MSTORE PUSH1 0x20 PUSH1 0x4 DUP3 ADD DUP2 SWAP1 MSTORE PUSH1 0x24 DUP3 ADD MSTORE PUSH32 0x426972746864617465206D7573742062652067726561746572207468616E2030 PUSH1 0x44 DUP3 ADD MSTORE PUSH1 0x64 ADD PUSH2 0x63E JUMP JUMPDEST PUSH1 0x0 DUP5 DUP2 MSTORE PUSH1 0x1 PUSH1 0x20 MSTORE PUSH1 0x40 SWAP1 KECCAK256 SLOAD ISZERO PUSH2 0x1BCB JUMPI PUSH1 0x40 MLOAD PUSH3 0x461BCD PUSH1 0xE5 SHL DUP2 MSTORE PUSH1 0x20 PUSH1 0x4 DUP3 ADD MSTORE PUSH1 0x1B PUSH1 0x24 DUP3 ADD MSTORE PUSH32 0x546869732073747564656E7420616C7265616479206578697374730000000000 PUSH1 0x44 DUP3 ADD MSTORE PUSH1 0x64 ADD PUSH2 0x63E JUMP JUMPDEST PUSH2 0x1BD7 DUP5 DUP5 DUP5 DUP5 PUSH2 0x2C92 JUMP JUMPDEST POP POP POP POP JUMP JUMPDEST PUSH2 0x1BF5 PUSH1 0x0 DUP1 MLOAD PUSH1 0x20 PUSH2 0x444F DUP4 CODECOPY DUP2 MLOAD SWAP2 MSTORE CALLER PUSH2 0x1A00 JUMP JUMPDEST PUSH2 0x1C11 JUMPI PUSH1 0x40 MLOAD PUSH3 0x461BCD PUSH1 0xE5 SHL DUP2 MSTORE PUSH1 0x4 ADD PUSH2 0x63E SWAP1 PUSH2 0x3B65 JUMP JUMPDEST PUSH1 0x0 DUP6 DUP2 MSTORE PUSH1 0x1 PUSH1 0x20 MSTORE PUSH1 0x40 DUP2 KECCAK256 SLOAD SWAP1 SUB PUSH2 0x1C3E JUMPI PUSH1 0x40 MLOAD PUSH3 0x461BCD PUSH1 0xE5 SHL DUP2 MSTORE PUSH1 0x4 ADD PUSH2 0x63E SWAP1 PUSH2 0x3BD3 JUMP JUMPDEST PUSH1 0x0 DUP5 PUSH1 0x3 DUP2 GT ISZERO PUSH2 0x1C52 JUMPI PUSH2 0x1C52 PUSH2 0x380D JUMP JUMPDEST LT ISZERO DUP1 ISZERO PUSH2 0x1C72 JUMPI POP PUSH1 0x3 DUP5 PUSH1 0x3 DUP2 GT ISZERO PUSH2 0x1C6F JUMPI PUSH2 0x1C6F PUSH2 0x380D JUMP JUMPDEST GT ISZERO JUMPDEST PUSH2 0x1CBA JUMPI PUSH1 0x40 MLOAD PUSH3 0x461BCD PUSH1 0xE5 SHL DUP2 MSTORE PUSH1 0x20 PUSH1 0x4 DUP3 ADD MSTORE PUSH1 0x19 PUSH1 0x24 DUP3 ADD MSTORE PUSH25 0x105C1C1C9958DA585D1A5BDB881A5CC81B9BDD081D985B1A59 PUSH1 0x3A SHL PUSH1 0x44 DUP3 ADD MSTORE PUSH1 0x64 ADD PUSH2 0x63E JUMP JUMPDEST PUSH1 0x0 DUP4 PUSH1 0x2 DUP2 GT ISZERO PUSH2 0x1CCE JUMPI PUSH2 0x1CCE PUSH2 0x380D JUMP JUMPDEST LT ISZERO DUP1 ISZERO PUSH2 0x1CEE JUMPI POP PUSH1 0x2 DUP4 PUSH1 0x2 DUP2 GT ISZERO PUSH2 0x1CEB JUMPI PUSH2 0x1CEB PUSH2 0x380D JUMP JUMPDEST GT ISZERO JUMPDEST PUSH2 0x1D30 JUMPI PUSH1 0x40 MLOAD PUSH3 0x461BCD PUSH1 0xE5 SHL DUP2 MSTORE PUSH1 0x20 PUSH1 0x4 DUP3 ADD MSTORE PUSH1 0x13 PUSH1 0x24 DUP3 ADD MSTORE PUSH19 0x111959DC9959481A5CC81B9BDD081D985B1A59 PUSH1 0x6A SHL PUSH1 0x44 DUP3 ADD MSTORE PUSH1 0x64 ADD PUSH2 0x63E JUMP JUMPDEST PUSH1 0x0 DUP3 PUSH1 0xF DUP2 GT ISZERO PUSH2 0x1D44 JUMPI PUSH2 0x1D44 PUSH2 0x380D JUMP JUMPDEST LT ISZERO DUP1 ISZERO PUSH2 0x1D64 JUMPI POP PUSH1 0xF DUP3 PUSH1 0xF DUP2 GT ISZERO PUSH2 0x1D61 JUMPI PUSH2 0x1D61 PUSH2 0x380D JUMP JUMPDEST GT ISZERO JUMPDEST PUSH2 0x1DA7 JUMPI PUSH1 0x40 MLOAD PUSH3 0x461BCD PUSH1 0xE5 SHL DUP2 MSTORE PUSH1 0x20 PUSH1 0x4 DUP3 ADD MSTORE PUSH1 0x14 PUSH1 0x24 DUP3 ADD MSTORE PUSH20 0x141C9BD9DC985B481A5CC81B9BDD081D985B1A59 PUSH1 0x62 SHL PUSH1 0x44 DUP3 ADD MSTORE PUSH1 0x64 ADD PUSH2 0x63E JUMP JUMPDEST PUSH1 0x7 PUSH1 0x0 DUP7 DUP7 DUP7 DUP7 PUSH1 0x40 MLOAD PUSH1 0x20 ADD PUSH2 0x1DC2 SWAP5 SWAP4 SWAP3 SWAP2 SWAP1 PUSH2 0x3E86 JUMP JUMPDEST PUSH1 0x40 DUP1 MLOAD PUSH1 0x1F NOT DUP2 DUP5 SUB ADD DUP2 MSTORE SWAP2 DUP2 MSTORE DUP2 MLOAD PUSH1 0x20 SWAP3 DUP4 ADD KECCAK256 DUP4 MSTORE SWAP1 DUP3 ADD SWAP3 SWAP1 SWAP3 MSTORE ADD PUSH1 0x0 KECCAK256 PUSH1 0x2 ADD SLOAD PUSH1 0xFF AND ISZERO PUSH2 0x1E3B JUMPI PUSH1 0x40 MLOAD PUSH3 0x461BCD PUSH1 0xE5 SHL DUP2 MSTORE PUSH1 0x20 PUSH1 0x4 DUP3 ADD MSTORE PUSH1 0x1F PUSH1 0x24 DUP3 ADD MSTORE PUSH32 0x5468697320636572746966696361746520616C72656164792065786973747300 PUSH1 0x44 DUP3 ADD MSTORE PUSH1 0x64 ADD PUSH2 0x63E JUMP JUMPDEST PUSH1 0x0 DUP6 DUP6 DUP6 DUP6 PUSH1 0x40 MLOAD PUSH1 0x20 ADD PUSH2 0x1E54 SWAP5 SWAP4 SWAP3 SWAP2 SWAP1 PUSH2 0x3F8A JUMP JUMPDEST PUSH1 0x40 MLOAD PUSH1 0x20 DUP2 DUP4 SUB SUB DUP2 MSTORE SWAP1 PUSH1 0x40 MSTORE DUP1 MLOAD SWAP1 PUSH1 0x20 ADD KECCAK256 SWAP1 POP PUSH2 0x1EDA DUP2 PUSH1 0x0 DUP1 MLOAD PUSH1 0x20 PUSH2 0x444F DUP4 CODECOPY DUP2 MLOAD SWAP2 MSTORE PUSH2 0x1E88 DUP10 PUSH2 0x27BE JUMP JUMPDEST PUSH2 0x1E9D DUP10 PUSH1 0x3 DUP2 GT ISZERO PUSH2 0x150A JUMPI PUSH2 0x150A PUSH2 0x380D JUMP JUMPDEST PUSH2 0x1EB2 DUP10 PUSH1 0x2 DUP2 GT ISZERO PUSH2 0x150A JUMPI PUSH2 0x150A PUSH2 0x380D JUMP JUMPDEST PUSH2 0x1EC7 DUP10 PUSH1 0xF DUP2 GT ISZERO PUSH2 0x150A JUMPI PUSH2 0x150A PUSH2 0x380D JUMP JUMPDEST PUSH1 0x40 MLOAD PUSH1 0x20 ADD PUSH2 0x704 SWAP5 SWAP4 SWAP3 SWAP2 SWAP1 PUSH2 0x3FCF JUMP JUMPDEST DUP2 DUP1 ISZERO PUSH2 0x1F04 JUMPI POP PUSH1 0x0 DUP2 DUP2 MSTORE PUSH1 0x4 PUSH1 0x20 SWAP1 DUP2 MSTORE PUSH1 0x40 DUP1 DUP4 KECCAK256 CALLER DUP5 MSTORE PUSH1 0x3 ADD SWAP1 SWAP2 MSTORE SWAP1 KECCAK256 SLOAD PUSH1 0xFF AND ISZERO JUMPDEST ISZERO PUSH2 0x1F47 JUMPI PUSH1 0x0 DUP2 DUP2 MSTORE PUSH1 0x4 PUSH1 0x20 MSTORE PUSH1 0x40 SWAP1 KECCAK256 PUSH2 0x1F21 SWAP1 CALLER PUSH2 0x28D2 JUMP JUMPDEST PUSH1 0x40 MLOAD DUP2 DUP2 MSTORE PUSH1 0x0 DUP1 MLOAD PUSH1 0x20 PUSH2 0x440F DUP4 CODECOPY DUP2 MLOAD SWAP2 MSTORE SWAP1 PUSH1 0x20 ADD PUSH1 0x40 MLOAD DUP1 SWAP2 SUB SWAP1 LOG1 PUSH2 0x1F8B JUMP JUMPDEST DUP2 ISZERO ISZERO PUSH1 0x0 SUB PUSH2 0x1F8B JUMPI PUSH1 0x0 DUP2 DUP2 MSTORE PUSH1 0x4 PUSH1 0x20 MSTORE PUSH1 0x40 SWAP1 KECCAK256 PUSH2 0x1F69 SWAP1 CALLER PUSH2 0x29FF JUMP JUMPDEST PUSH1 0x40 MLOAD DUP2 DUP2 MSTORE PUSH1 0x0 DUP1 MLOAD PUSH1 0x20 PUSH2 0x440F DUP4 CODECOPY DUP2 MLOAD SWAP2 MSTORE SWAP1 PUSH1 0x20 ADD PUSH1 0x40 MLOAD DUP1 SWAP2 SUB SWAP1 LOG1 JUMPDEST PUSH1 0x0 DUP1 MLOAD PUSH1 0x20 PUSH2 0x444F DUP4 CODECOPY DUP2 MLOAD SWAP2 MSTORE PUSH1 0x0 MSTORE PUSH1 0x3 PUSH1 0x20 MSTORE PUSH32 0x4ED60087A82BD97D8AFA881E356D9B31A57E1F4FA6C3493C1181428B0C33562 SLOAD PUSH2 0x1FDA SWAP1 PUSH2 0x818 SWAP1 PUSH1 0x33 SWAP1 PUSH4 0xFFFFFFFF AND PUSH2 0x3C57 JUMP JUMPDEST PUSH1 0x0 DUP3 DUP2 MSTORE PUSH1 0x4 PUSH1 0x20 MSTORE PUSH1 0x40 SWAP1 KECCAK256 PUSH1 0x2 ADD SLOAD PUSH1 0xFF AND LT PUSH2 0x16F3 JUMPI PUSH1 0x0 DUP2 DUP2 MSTORE PUSH1 0x4 PUSH1 0x20 MSTORE PUSH1 0x40 SWAP1 KECCAK256 PUSH2 0x200B SWAP1 PUSH2 0x2AB7 JUMP JUMPDEST PUSH1 0x40 MLOAD DUP2 DUP2 MSTORE PUSH1 0x0 DUP1 MLOAD PUSH1 0x20 PUSH2 0x442F DUP4 CODECOPY DUP2 MLOAD SWAP2 MSTORE SWAP1 PUSH1 0x20 ADD PUSH1 0x40 MLOAD DUP1 SWAP2 SUB SWAP1 LOG1 PUSH2 0x16F3 DUP7 DUP7 DUP7 DUP7 PUSH2 0x2E0B JUMP JUMPDEST PUSH1 0x0 PUSH2 0x2044 DUP3 DUP5 PUSH2 0x4071 JUMP JUMPDEST PUSH1 0x0 SUB PUSH2 0x205C JUMPI PUSH2 0x2055 DUP3 DUP5 PUSH2 0x4085 JUMP JUMPDEST SWAP1 POP PUSH2 0x604 JUMP JUMPDEST PUSH2 0x2066 DUP3 DUP5 PUSH2 0x4085 JUMP JUMPDEST PUSH2 0x2055 SWAP1 PUSH1 0x1 PUSH2 0x3CCF JUMP JUMPDEST PUSH2 0x2089 PUSH1 0x0 DUP1 MLOAD PUSH1 0x20 PUSH2 0x444F DUP4 CODECOPY DUP2 MLOAD SWAP2 MSTORE CALLER PUSH2 0x1A00 JUMP JUMPDEST PUSH2 0x20A5 JUMPI PUSH1 0x40 MLOAD PUSH3 0x461BCD PUSH1 0xE5 SHL DUP2 MSTORE PUSH1 0x4 ADD PUSH2 0x63E SWAP1 PUSH2 0x3B65 JUMP JUMPDEST PUSH1 0x0 DUP5 GT PUSH2 0x20C5 JUMPI PUSH1 0x40 MLOAD PUSH3 0x461BCD PUSH1 0xE5 SHL DUP2 MSTORE PUSH1 0x4 ADD PUSH2 0x63E SWAP1 PUSH2 0x3B9C JUMP JUMPDEST PUSH1 0x0 DUP5 DUP2 MSTORE PUSH1 0x1 PUSH1 0x20 MSTORE PUSH1 0x40 DUP2 KECCAK256 SLOAD SWAP1 SUB PUSH2 0x20F2 JUMPI PUSH1 0x40 MLOAD PUSH3 0x461BCD PUSH1 0xE5 SHL DUP2 MSTORE PUSH1 0x4 ADD PUSH2 0x63E SWAP1 PUSH2 0x3BD3 JUMP JUMPDEST PUSH2 0x1BD7 DUP5 DUP5 DUP5 DUP5 PUSH2 0x2FD9 JUMP JUMPDEST PUSH1 0x0 DUP4 DUP2 MSTORE PUSH1 0x3 PUSH1 0x20 SWAP1 DUP2 MSTORE PUSH1 0x40 SWAP2 DUP3 SWAP1 KECCAK256 DUP1 SLOAD PUSH1 0x2 DUP3 ADD SLOAD DUP5 MLOAD SWAP4 DUP5 ADD MSTORE SWAP1 SWAP3 PUSH4 0xFFFFFFFF PUSH5 0x100000000 DUP4 DIV DUP2 AND SWAP3 AND SWAP2 SWAP1 SWAP2 GT SWAP2 ADD PUSH1 0x40 DUP1 MLOAD PUSH1 0x1F NOT DUP2 DUP5 SUB ADD DUP2 MSTORE SWAP1 DUP3 SWAP1 MSTORE PUSH2 0x2153 SWAP2 PUSH1 0x20 ADD PUSH2 0x4099 JUMP JUMPDEST PUSH1 0x40 MLOAD PUSH1 0x20 DUP2 DUP4 SUB SUB DUP2 MSTORE SWAP1 PUSH1 0x40 MSTORE SWAP1 PUSH2 0x2180 JUMPI PUSH1 0x40 MLOAD PUSH3 0x461BCD PUSH1 0xE5 SHL DUP2 MSTORE PUSH1 0x4 ADD PUSH2 0x63E SWAP2 SWAP1 PUSH2 0x3705 JUMP JUMPDEST POP PUSH2 0x218B DUP5 DUP5 PUSH2 0x1A00 JUMP JUMPDEST DUP2 PUSH1 0x2 ADD SLOAD PUSH1 0x40 MLOAD PUSH1 0x20 ADD PUSH2 0x21A2 SWAP2 DUP2 MSTORE PUSH1 0x20 ADD SWAP1 JUMP JUMPDEST PUSH1 0x40 DUP1 MLOAD PUSH1 0x1F NOT DUP2 DUP5 SUB ADD DUP2 MSTORE SWAP1 DUP3 SWAP1 MSTORE PUSH2 0x21BF SWAP2 PUSH1 0x20 ADD PUSH2 0x40B8 JUMP JUMPDEST PUSH1 0x40 MLOAD PUSH1 0x20 DUP2 DUP4 SUB SUB DUP2 MSTORE SWAP1 PUSH1 0x40 MSTORE SWAP1 PUSH2 0x21EC JUMPI PUSH1 0x40 MLOAD PUSH3 0x461BCD PUSH1 0xE5 SHL DUP2 MSTORE PUSH1 0x4 ADD PUSH2 0x63E SWAP2 SWAP1 PUSH2 0x3705 JUMP JUMPDEST POP PUSH2 0x21FB DUP2 PUSH1 0x1 ADD SLOAD CALLER PUSH2 0x1A00 JUMP JUMPDEST DUP2 PUSH1 0x2 ADD SLOAD PUSH1 0x40 MLOAD PUSH1 0x20 ADD PUSH2 0x2212 SWAP2 DUP2 MSTORE PUSH1 0x20 ADD SWAP1 JUMP JUMPDEST PUSH1 0x40 DUP1 MLOAD PUSH1 0x1F NOT DUP2 DUP5 SUB ADD DUP2 MSTORE SWAP1 DUP3 SWAP1 MSTORE PUSH2 0x222F SWAP2 PUSH1 0x20 ADD PUSH2 0x3D50 JUMP JUMPDEST PUSH1 0x40 MLOAD PUSH1 0x20 DUP2 DUP4 SUB SUB DUP2 MSTORE SWAP1 PUSH1 0x40 MSTORE SWAP1 PUSH2 0x225C JUMPI PUSH1 0x40 MLOAD PUSH3 0x461BCD PUSH1 0xE5 SHL DUP2 MSTORE PUSH1 0x4 ADD PUSH2 0x63E SWAP2 SWAP1 PUSH2 0x3705 JUMP JUMPDEST POP PUSH1 0x40 MLOAD PUSH12 0xFFFFFFFFFFFFFFFFFFFFFFFF NOT PUSH1 0x60 DUP6 SWAP1 SHL AND PUSH1 0x20 DUP3 ADD MSTORE PUSH6 0x5245564F4B45 PUSH1 0xD0 SHL PUSH1 0x34 DUP3 ADD MSTORE PUSH1 0x3A DUP2 ADD DUP6 SWAP1 MSTORE PUSH1 0x0 SWAP1 PUSH1 0x5A ADD PUSH1 0x40 MLOAD PUSH1 0x20 DUP2 DUP4 SUB SUB DUP2 MSTORE SWAP1 PUSH1 0x40 MSTORE DUP1 MLOAD SWAP1 PUSH1 0x20 ADD KECCAK256 SWAP1 POP PUSH2 0x22F6 DUP2 DUP4 PUSH1 0x1 ADD SLOAD DUP5 PUSH1 0x2 ADD SLOAD PUSH1 0x40 MLOAD PUSH1 0x20 ADD PUSH2 0x22CD SWAP2 DUP2 MSTORE PUSH1 0x20 ADD SWAP1 JUMP JUMPDEST PUSH1 0x40 MLOAD PUSH1 0x20 DUP2 DUP4 SUB SUB DUP2 MSTORE SWAP1 PUSH1 0x40 MSTORE PUSH2 0x22E5 DUP9 PUSH2 0x9BD JUMP JUMPDEST PUSH1 0x40 MLOAD PUSH1 0x20 ADD PUSH2 0x704 SWAP3 SWAP2 SWAP1 PUSH2 0x40F6 JUMP JUMPDEST DUP3 DUP1 ISZERO PUSH2 0x2320 JUMPI POP PUSH1 0x0 DUP2 DUP2 MSTORE PUSH1 0x4 PUSH1 0x20 SWAP1 DUP2 MSTORE PUSH1 0x40 DUP1 DUP4 KECCAK256 CALLER DUP5 MSTORE PUSH1 0x3 ADD SWAP1 SWAP2 MSTORE SWAP1 KECCAK256 SLOAD PUSH1 0xFF AND ISZERO JUMPDEST ISZERO PUSH2 0x2363 JUMPI PUSH1 0x0 DUP2 DUP2 MSTORE PUSH1 0x4 PUSH1 0x20 MSTORE PUSH1 0x40 SWAP1 KECCAK256 PUSH2 0x233D SWAP1 CALLER PUSH2 0x28D2 JUMP JUMPDEST PUSH1 0x40 MLOAD DUP2 DUP2 MSTORE PUSH1 0x0 DUP1 MLOAD PUSH1 0x20 PUSH2 0x440F DUP4 CODECOPY DUP2 MLOAD SWAP2 MSTORE SWAP1 PUSH1 0x20 ADD PUSH1 0x40 MLOAD DUP1 SWAP2 SUB SWAP1 LOG1 PUSH2 0x23A7 JUMP JUMPDEST DUP3 ISZERO ISZERO PUSH1 0x0 SUB PUSH2 0x23A7 JUMPI PUSH1 0x0 DUP2 DUP2 MSTORE PUSH1 0x4 PUSH1 0x20 MSTORE PUSH1 0x40 SWAP1 KECCAK256 PUSH2 0x2385 SWAP1 CALLER PUSH2 0x29FF JUMP JUMPDEST PUSH1 0x40 MLOAD DUP2 DUP2 MSTORE PUSH1 0x0 DUP1 MLOAD PUSH1 0x20 PUSH2 0x440F DUP4 CODECOPY DUP2 MLOAD SWAP2 MSTORE SWAP1 PUSH1 0x20 ADD PUSH1 0x40 MLOAD DUP1 SWAP2 SUB SWAP1 LOG1 JUMPDEST DUP2 PUSH1 0x1 ADD SLOAD DUP6 EQ ISZERO DUP1 ISZERO PUSH2 0x2403 JUMPI POP DUP2 SLOAD PUSH1 0x1 DUP4 ADD SLOAD PUSH1 0x0 SWAP1 DUP2 MSTORE PUSH1 0x3 PUSH1 0x20 MSTORE PUSH1 0x40 SWAP1 KECCAK256 SLOAD PUSH2 0x23EB SWAP2 PUSH2 0x818 SWAP2 PUSH1 0x1 PUSH1 0x68 SHL SWAP1 SWAP2 DIV PUSH1 0xFF AND SWAP1 PUSH4 0xFFFFFFFF AND PUSH2 0x3C57 JUMP JUMPDEST PUSH1 0x0 DUP3 DUP2 MSTORE PUSH1 0x4 PUSH1 0x20 MSTORE PUSH1 0x40 SWAP1 KECCAK256 PUSH1 0x2 ADD SLOAD PUSH1 0xFF AND LT ISZERO JUMPDEST DUP1 PUSH2 0x246E JUMPI POP DUP2 PUSH1 0x1 ADD SLOAD DUP6 EQ DUP1 ISZERO PUSH2 0x246E JUMPI POP DUP2 SLOAD PUSH1 0x1 DUP1 DUP5 ADD SLOAD PUSH1 0x0 SWAP1 DUP2 MSTORE PUSH1 0x3 PUSH1 0x20 MSTORE PUSH1 0x40 SWAP1 KECCAK256 SLOAD PUSH2 0x2456 SWAP3 PUSH1 0x1 PUSH1 0x68 SHL SWAP1 DIV PUSH1 0xFF AND SWAP2 PUSH2 0x244C SWAP2 PUSH4 0xFFFFFFFF AND PUSH2 0x4145 JUMP JUMPDEST PUSH2 0x818 SWAP2 SWAP1 PUSH2 0x3C57 JUMP JUMPDEST PUSH1 0x0 DUP3 DUP2 MSTORE PUSH1 0x4 PUSH1 0x20 MSTORE PUSH1 0x40 SWAP1 KECCAK256 PUSH1 0x2 ADD SLOAD PUSH1 0xFF AND LT ISZERO JUMPDEST ISZERO PUSH2 0x123F JUMPI PUSH1 0x0 JUMPDEST PUSH1 0x6 SLOAD DUP2 LT ISZERO PUSH2 0x257F JUMPI PUSH1 0x0 DUP2 DUP2 MSTORE PUSH1 0x5 PUSH1 0x20 SWAP1 DUP2 MSTORE PUSH1 0x40 DUP1 DUP4 KECCAK256 SLOAD DUP4 MSTORE PUSH1 0x4 DUP3 MSTORE DUP1 DUP4 KECCAK256 PUSH1 0x1 PUSH1 0x1 PUSH1 0xA0 SHL SUB DUP10 AND DUP5 MSTORE PUSH1 0x3 ADD SWAP1 SWAP2 MSTORE SWAP1 KECCAK256 SLOAD PUSH1 0xFF AND ISZERO ISZERO PUSH1 0x1 EQ DUP1 ISZERO PUSH2 0x24E1 JUMPI POP PUSH1 0x0 DUP2 DUP2 MSTORE PUSH1 0x5 PUSH1 0x20 SWAP1 DUP2 MSTORE PUSH1 0x40 DUP1 DUP4 KECCAK256 SLOAD DUP4 MSTORE PUSH1 0x4 SWAP1 SWAP2 MSTORE SWAP1 KECCAK256 PUSH1 0x1 ADD SLOAD DUP7 EQ JUMPDEST ISZERO PUSH2 0x256D JUMPI PUSH1 0x0 DUP2 DUP2 MSTORE PUSH1 0x5 PUSH1 0x20 SWAP1 DUP2 MSTORE PUSH1 0x40 DUP1 DUP4 KECCAK256 SLOAD DUP4 MSTORE PUSH1 0x4 SWAP1 SWAP2 MSTORE DUP2 KECCAK256 PUSH1 0x2 ADD DUP1 SLOAD PUSH1 0x1 SWAP3 SWAP1 PUSH2 0x2518 SWAP1 DUP5 SWAP1 PUSH1 0xFF AND PUSH2 0x4162 JUMP JUMPDEST DUP3 SLOAD PUSH1 0xFF SWAP2 DUP3 AND PUSH2 0x100 SWAP4 SWAP1 SWAP4 EXP SWAP3 DUP4 MUL SWAP2 SWAP1 SWAP3 MUL NOT SWAP1 SWAP2 AND OR SWAP1 SSTORE POP PUSH1 0x0 DUP2 DUP2 MSTORE PUSH1 0x5 PUSH1 0x20 SWAP1 DUP2 MSTORE PUSH1 0x40 DUP1 DUP4 KECCAK256 SLOAD DUP4 MSTORE PUSH1 0x4 DUP3 MSTORE DUP1 DUP4 KECCAK256 PUSH1 0x1 PUSH1 0x1 PUSH1 0xA0 SHL SUB DUP10 AND DUP5 MSTORE PUSH1 0x3 ADD SWAP1 SWAP2 MSTORE SWAP1 KECCAK256 DUP1 SLOAD PUSH1 0xFF NOT AND SWAP1 SSTORE JUMPDEST DUP1 PUSH2 0x2577 DUP2 PUSH2 0x3CF9 JUMP JUMPDEST SWAP2 POP POP PUSH2 0x2476 JUMP JUMPDEST POP PUSH1 0x0 DUP2 DUP2 MSTORE PUSH1 0x4 PUSH1 0x20 MSTORE PUSH1 0x40 SWAP1 KECCAK256 PUSH2 0x2597 SWAP1 PUSH2 0x2AB7 JUMP JUMPDEST PUSH1 0x40 MLOAD DUP2 DUP2 MSTORE PUSH1 0x0 DUP1 MLOAD PUSH1 0x20 PUSH2 0x442F DUP4 CODECOPY DUP2 MLOAD SWAP2 MSTORE SWAP1 PUSH1 0x20 ADD PUSH1 0x40 MLOAD DUP1 SWAP2 SUB SWAP1 LOG1 PUSH2 0x25C2 DUP6 DUP6 PUSH2 0x3229 JUMP JUMPDEST DUP2 SLOAD PUSH1 0x1 SWAP1 DUP4 SWAP1 PUSH1 0x0 SWAP1 PUSH2 0x1220 SWAP1 DUP5 SWAP1 PUSH4 0xFFFFFFFF AND PUSH2 0x4145 JUMP JUMPDEST PUSH1 0x0 DUP3 DUP2 MSTORE PUSH1 0x20 DUP2 SWAP1 MSTORE PUSH1 0x40 SWAP1 KECCAK256 PUSH1 0x1 ADD SLOAD PUSH2 0x25F8 DUP2 PUSH2 0x2C01 JUMP JUMPDEST PUSH2 0x880 DUP4 DUP4 PUSH2 0x3229 JUMP JUMPDEST PUSH1 0x0 DUP2 DUP2 MSTORE PUSH1 0x7 PUSH1 0x20 MSTORE PUSH1 0x40 DUP2 KECCAK256 PUSH1 0x2 ADD SLOAD DUP2 SWAP1 DUP2 SWAP1 DUP2 SWAP1 DUP2 SWAP1 PUSH1 0xFF AND ISZERO ISZERO PUSH1 0x1 EQ PUSH2 0x2670 JUMPI PUSH1 0x40 MLOAD PUSH3 0x461BCD PUSH1 0xE5 SHL DUP2 MSTORE PUSH1 0x20 PUSH1 0x4 DUP3 ADD MSTORE PUSH1 0x1E PUSH1 0x24 DUP3 ADD MSTORE PUSH32 0x5468697320636572746966696361746520646F65736E27742065786973740000 PUSH1 0x44 DUP3 ADD MSTORE PUSH1 0x64 ADD PUSH2 0x63E JUMP JUMPDEST PUSH1 0x0 DUP7 DUP2 MSTORE PUSH1 0x7 PUSH1 0x20 MSTORE PUSH1 0x40 SWAP1 KECCAK256 SLOAD PUSH1 0xFF AND PUSH1 0x3 DUP2 GT ISZERO PUSH2 0x2693 JUMPI PUSH2 0x2693 PUSH2 0x380D JUMP JUMPDEST PUSH1 0x0 DUP8 DUP2 MSTORE PUSH1 0x7 PUSH1 0x20 MSTORE PUSH1 0x40 SWAP1 KECCAK256 SLOAD PUSH2 0x100 SWAP1 DIV PUSH1 0xFF AND PUSH1 0x2 DUP2 GT ISZERO PUSH2 0x26BB JUMPI PUSH2 0x26BB PUSH2 0x380D JUMP JUMPDEST PUSH1 0x0 DUP9 DUP2 MSTORE PUSH1 0x7 PUSH1 0x20 MSTORE PUSH1 0x40 SWAP1 KECCAK256 SLOAD PUSH3 0x10000 SWAP1 DIV PUSH1 0xFF AND PUSH1 0xF DUP2 GT ISZERO PUSH2 0x26E4 JUMPI PUSH2 0x26E4 PUSH2 0x380D JUMP JUMPDEST PUSH1 0x0 SWAP9 DUP10 MSTORE PUSH1 0x7 PUSH1 0x20 MSTORE PUSH1 0x40 SWAP1 SWAP9 KECCAK256 PUSH1 0x1 DUP2 ADD SLOAD PUSH1 0x3 SWAP1 SWAP2 ADD SLOAD SWAP3 SWAP10 SWAP2 SWAP9 SWAP8 POP SWAP6 POP SWAP1 SWAP4 POP SWAP2 POP POP JUMP JUMPDEST PUSH1 0x2 DUP2 DUP2 SLOAD DUP2 LT PUSH2 0x271E JUMPI PUSH1 0x0 DUP1 REVERT JUMPDEST PUSH1 0x0 SWAP2 DUP3 MSTORE PUSH1 0x20 SWAP1 SWAP2 KECCAK256 ADD SLOAD SWAP1 POP DUP2 JUMP JUMPDEST PUSH1 0x0 DUP2 DUP2 MSTORE PUSH1 0x1 PUSH1 0x20 MSTORE PUSH1 0x40 DUP2 KECCAK256 SLOAD PUSH1 0x60 SWAP2 SUB PUSH2 0x275E JUMPI PUSH1 0x40 MLOAD PUSH3 0x461BCD PUSH1 0xE5 SHL DUP2 MSTORE PUSH1 0x4 ADD PUSH2 0x63E SWAP1 PUSH2 0x3BD3 JUMP JUMPDEST PUSH1 0x0 DUP3 DUP2 MSTORE PUSH1 0x8 PUSH1 0x20 SWAP1 DUP2 MSTORE PUSH1 0x40 SWAP2 DUP3 SWAP1 KECCAK256 DUP1 SLOAD DUP4 MLOAD DUP2 DUP5 MUL DUP2 ADD DUP5 ADD SWAP1 SWAP5 MSTORE DUP1 DUP5 MSTORE SWAP1 SWAP2 DUP4 ADD DUP3 DUP3 DUP1 ISZERO PUSH2 0x27B2 JUMPI PUSH1 0x20 MUL DUP3 ADD SWAP2 SWAP1 PUSH1 0x0 MSTORE PUSH1 0x20 PUSH1 0x0 KECCAK256 SWAP1 JUMPDEST DUP2 SLOAD DUP2 MSTORE PUSH1 0x20 ADD SWAP1 PUSH1 0x1 ADD SWAP1 DUP1 DUP4 GT PUSH2 0x279E JUMPI JUMPDEST POP POP POP POP POP SWAP1 POP SWAP2 SWAP1 POP JUMP JUMPDEST PUSH1 0x60 PUSH1 0x0 PUSH2 0x27CB DUP4 PUSH2 0x328E JUMP JUMPDEST PUSH1 0x1 ADD SWAP1 POP PUSH1 0x0 DUP2 PUSH8 0xFFFFFFFFFFFFFFFF DUP2 GT ISZERO PUSH2 0x27EB JUMPI PUSH2 0x27EB PUSH2 0x3A3A JUMP JUMPDEST PUSH1 0x40 MLOAD SWAP1 DUP1 DUP3 MSTORE DUP1 PUSH1 0x1F ADD PUSH1 0x1F NOT AND PUSH1 0x20 ADD DUP3 ADD PUSH1 0x40 MSTORE DUP1 ISZERO PUSH2 0x2815 JUMPI PUSH1 0x20 DUP3 ADD DUP2 DUP1 CALLDATASIZE DUP4 CALLDATACOPY ADD SWAP1 POP JUMPDEST POP SWAP1 POP DUP2 DUP2 ADD PUSH1 0x20 ADD JUMPDEST PUSH1 0x0 NOT ADD PUSH16 0x181899199A1A9B1B9C1CB0B131B232B3 PUSH1 0x81 SHL PUSH1 0xA DUP7 MOD BYTE DUP2 MSTORE8 PUSH1 0xA DUP6 DIV SWAP5 POP DUP5 PUSH2 0x281F JUMPI POP SWAP4 SWAP3 POP POP POP JUMP JUMPDEST PUSH1 0x0 DUP4 DUP2 MSTORE PUSH1 0x4 PUSH1 0x20 MSTORE PUSH1 0x40 DUP2 KECCAK256 SLOAD PUSH1 0xFF AND ISZERO ISZERO SWAP1 SUB PUSH2 0x880 JUMPI PUSH1 0x0 DUP4 DUP2 MSTORE PUSH1 0x4 PUSH1 0x20 SWAP1 DUP2 MSTORE PUSH1 0x40 DUP1 DUP4 KECCAK256 DUP1 SLOAD PUSH1 0xFF NOT AND PUSH1 0x1 SWAP1 DUP2 OR SWAP1 SWAP2 SSTORE PUSH1 0x6 DUP1 SLOAD DUP6 MSTORE PUSH1 0x5 SWAP1 SWAP4 MSTORE SWAP1 DUP4 KECCAK256 DUP7 SWAP1 SSTORE DUP2 SLOAD SWAP1 SWAP3 SWAP1 PUSH2 0x28AB SWAP1 DUP5 SWAP1 PUSH2 0x3CCF JUMP JUMPDEST SWAP1 SWAP2 SSTORE POP POP PUSH1 0x0 DUP4 DUP2 MSTORE PUSH1 0x4 PUSH1 0x20 MSTORE PUSH1 0x40 SWAP1 KECCAK256 PUSH1 0x1 DUP2 ADD DUP4 SWAP1 SSTORE PUSH1 0x5 ADD PUSH2 0x1BD7 DUP3 DUP3 PUSH2 0x41C1 JUMP JUMPDEST PUSH1 0x1 PUSH1 0x1 PUSH1 0xA0 SHL SUB DUP2 AND PUSH1 0x0 SWAP1 DUP2 MSTORE PUSH1 0x3 DUP4 ADD PUSH1 0x20 MSTORE PUSH1 0x40 SWAP1 KECCAK256 SLOAD PUSH1 0xFF AND ISZERO PUSH2 0x293D JUMPI PUSH1 0x40 MLOAD PUSH3 0x461BCD PUSH1 0xE5 SHL DUP2 MSTORE PUSH1 0x20 PUSH1 0x4 DUP3 ADD DUP2 SWAP1 MSTORE PUSH1 0x24 DUP3 ADD MSTORE PUSH32 0x596F7520616C7265616479207369676E65642074686973206D756C7469736967 PUSH1 0x44 DUP3 ADD MSTORE PUSH1 0x64 ADD PUSH2 0x63E JUMP JUMPDEST PUSH1 0x2 DUP3 ADD DUP1 SLOAD PUSH2 0x100 SWAP1 DUP2 SWAP1 DIV PUSH1 0xFF SWAP1 DUP2 AND PUSH1 0x0 SWAP1 DUP2 MSTORE PUSH1 0x4 DUP7 ADD PUSH1 0x20 MSTORE PUSH1 0x40 SWAP1 KECCAK256 DUP1 SLOAD PUSH1 0x1 PUSH1 0x1 PUSH1 0xA0 SHL SUB NOT AND PUSH1 0x1 PUSH1 0x1 PUSH1 0xA0 SHL SUB DUP7 AND OR SWAP1 SSTORE DUP3 SLOAD SWAP2 SWAP1 SWAP2 DIV AND SWAP1 PUSH1 0x1 PUSH2 0x298B DUP4 PUSH2 0x4281 JUMP JUMPDEST DUP3 SLOAD PUSH2 0x100 SWAP3 SWAP1 SWAP3 EXP PUSH1 0xFF DUP2 DUP2 MUL NOT SWAP1 SWAP4 AND SWAP2 DUP4 AND MUL OR SWAP1 SWAP2 SSTORE PUSH1 0x1 PUSH1 0x1 PUSH1 0xA0 SHL SUB DUP4 AND PUSH1 0x0 SWAP1 DUP2 MSTORE PUSH1 0x3 DUP6 ADD PUSH1 0x20 MSTORE PUSH1 0x40 DUP2 KECCAK256 DUP1 SLOAD PUSH1 0xFF NOT AND PUSH1 0x1 SWAP1 DUP2 OR SWAP1 SWAP2 SSTORE PUSH1 0x2 DUP7 ADD DUP1 SLOAD SWAP2 SWAP5 POP SWAP3 PUSH2 0x29E3 SWAP2 DUP6 SWAP2 AND PUSH2 0x42A0 JUMP JUMPDEST SWAP3 POP PUSH2 0x100 EXP DUP2 SLOAD DUP2 PUSH1 0xFF MUL NOT AND SWAP1 DUP4 PUSH1 0xFF AND MUL OR SWAP1 SSTORE POP POP POP JUMP JUMPDEST PUSH1 0x1 PUSH1 0x1 PUSH1 0xA0 SHL SUB DUP2 AND PUSH1 0x0 SWAP1 DUP2 MSTORE PUSH1 0x3 DUP4 ADD PUSH1 0x20 MSTORE PUSH1 0x40 SWAP1 KECCAK256 SLOAD PUSH1 0xFF AND ISZERO ISZERO PUSH1 0x1 EQ PUSH2 0x2A7D JUMPI PUSH1 0x40 MLOAD PUSH3 0x461BCD PUSH1 0xE5 SHL DUP2 MSTORE PUSH1 0x20 PUSH1 0x4 DUP3 ADD MSTORE PUSH1 0x26 PUSH1 0x24 DUP3 ADD MSTORE PUSH32 0x596F752068617665206E6F7465207369676E65642074686973206D756C746973 PUSH1 0x44 DUP3 ADD MSTORE PUSH6 0x1A59C81E595D PUSH1 0xD2 SHL PUSH1 0x64 DUP3 ADD MSTORE PUSH1 0x84 ADD PUSH2 0x63E JUMP JUMPDEST PUSH1 0x1 PUSH1 0x1 PUSH1 0xA0 SHL SUB DUP2 AND PUSH1 0x0 SWAP1 DUP2 MSTORE PUSH1 0x3 DUP4 ADD PUSH1 0x20 MSTORE PUSH1 0x40 DUP2 KECCAK256 DUP1 SLOAD PUSH1 0xFF NOT AND SWAP1 SSTORE PUSH1 0x2 DUP4 ADD DUP1 SLOAD PUSH1 0x1 SWAP3 SWAP1 PUSH2 0x29E3 SWAP1 DUP5 SWAP1 PUSH1 0xFF AND PUSH2 0x4162 JUMP JUMPDEST PUSH1 0x2 DUP2 ADD DUP1 SLOAD PUSH1 0xFF NOT AND SWAP1 SSTORE PUSH1 0x0 JUMPDEST PUSH1 0x2 DUP3 ADD SLOAD PUSH1 0xFF PUSH2 0x100 SWAP1 SWAP2 DIV DUP2 AND SWAP1 DUP3 AND LT ISZERO PUSH2 0x2B24 JUMPI PUSH1 0xFF DUP2 AND PUSH1 0x0 SWAP1 DUP2 MSTORE PUSH1 0x4 DUP4 ADD PUSH1 0x20 SWAP1 DUP2 MSTORE PUSH1 0x40 DUP1 DUP4 KECCAK256 SLOAD PUSH1 0x1 PUSH1 0x1 PUSH1 0xA0 SHL SUB AND DUP4 MSTORE PUSH1 0x3 DUP6 ADD SWAP1 SWAP2 MSTORE SWAP1 KECCAK256 DUP1 SLOAD PUSH1 0xFF NOT AND SWAP1 SSTORE DUP1 PUSH2 0x2B1C DUP2 PUSH2 0x4281 JUMP JUMPDEST SWAP2 POP POP PUSH2 0x2AC6 JUMP JUMPDEST POP POP JUMP JUMPDEST PUSH1 0x0 DUP2 DUP2 MSTORE PUSH1 0x1 PUSH1 0x20 DUP2 SWAP1 MSTORE PUSH1 0x40 DUP3 KECCAK256 DUP3 DUP2 SSTORE SWAP2 SWAP1 PUSH2 0x2B49 SWAP1 DUP4 ADD DUP3 PUSH2 0x3574 JUMP JUMPDEST PUSH2 0x2B57 PUSH1 0x2 DUP4 ADD PUSH1 0x0 PUSH2 0x3574 JUMP JUMPDEST PUSH1 0x3 DUP3 ADD PUSH1 0x0 SWAP1 SSTORE POP POP PUSH1 0x0 JUMPDEST PUSH1 0x2 SLOAD DUP2 LT ISZERO PUSH2 0x2BCA JUMPI DUP2 PUSH1 0x2 DUP3 DUP2 SLOAD DUP2 LT PUSH2 0x2B82 JUMPI PUSH2 0x2B82 PUSH2 0x3CB9 JUMP JUMPDEST SWAP1 PUSH1 0x0 MSTORE PUSH1 0x20 PUSH1 0x0 KECCAK256 ADD SLOAD SUB PUSH2 0x2BB8 JUMPI PUSH1 0x0 PUSH1 0x2 DUP3 DUP2 SLOAD DUP2 LT PUSH2 0x2BA7 JUMPI PUSH2 0x2BA7 PUSH2 0x3CB9 JUMP JUMPDEST PUSH1 0x0 SWAP2 DUP3 MSTORE PUSH1 0x20 SWAP1 SWAP2 KECCAK256 ADD SSTORE PUSH2 0x2BCA JUMP JUMPDEST DUP1 PUSH2 0x2BC2 DUP2 PUSH2 0x3CF9 JUMP JUMPDEST SWAP2 POP POP PUSH2 0x2B64 JUMP JUMPDEST POP PUSH1 0x40 MLOAD DUP2 DUP2 MSTORE PUSH32 0x34DE6B871245ED0A89B82912E8E5EE6D9C3104B3E5BB1D67A71AD7E68239E41C SWAP1 PUSH1 0x20 ADD PUSH1 0x40 MLOAD DUP1 SWAP2 SUB SWAP1 LOG1 POP JUMP JUMPDEST PUSH2 0x2C0B DUP2 CALLER PUSH2 0x3366 JUMP JUMPDEST POP JUMP JUMPDEST PUSH2 0x2C18 DUP3 DUP3 PUSH2 0x1A00 JUMP JUMPDEST PUSH2 0x2B24 JUMPI PUSH1 0x0 DUP3 DUP2 MSTORE PUSH1 0x20 DUP2 DUP2 MSTORE PUSH1 0x40 DUP1 DUP4 KECCAK256 PUSH1 0x1 PUSH1 0x1 PUSH1 0xA0 SHL SUB DUP6 AND DUP5 MSTORE SWAP1 SWAP2 MSTORE SWAP1 KECCAK256 DUP1 SLOAD PUSH1 0xFF NOT AND PUSH1 0x1 OR SWAP1 SSTORE PUSH2 0x2C4E CALLER SWAP1 JUMP JUMPDEST PUSH1 0x1 PUSH1 0x1 PUSH1 0xA0 SHL SUB AND DUP2 PUSH1 0x1 PUSH1 0x1 PUSH1 0xA0 SHL SUB AND DUP4 PUSH32 0x2F8788117E7EFF1D82E926EC794901D17C78024A50270940304540A733656F0D PUSH1 0x40 MLOAD PUSH1 0x40 MLOAD DUP1 SWAP2 SUB SWAP1 LOG4 POP POP JUMP JUMPDEST PUSH1 0x0 DUP5 DUP2 MSTORE PUSH1 0x1 PUSH1 0x20 MSTORE PUSH1 0x40 SWAP1 KECCAK256 SLOAD ISZERO PUSH2 0x2CE7 JUMPI PUSH1 0x40 MLOAD PUSH3 0x461BCD PUSH1 0xE5 SHL DUP2 MSTORE PUSH1 0x20 PUSH1 0x4 DUP3 ADD MSTORE PUSH1 0x16 PUSH1 0x24 DUP3 ADD MSTORE PUSH22 0x53747564656E7420616C726561647920657869737473 PUSH1 0x50 SHL PUSH1 0x44 DUP3 ADD MSTORE PUSH1 0x64 ADD PUSH2 0x63E JUMP JUMPDEST DUP4 PUSH1 0x0 SUB PUSH2 0x2D27 JUMPI PUSH1 0x40 MLOAD PUSH3 0x461BCD PUSH1 0xE5 SHL DUP2 MSTORE PUSH1 0x20 PUSH1 0x4 DUP3 ADD MSTORE PUSH1 0xD PUSH1 0x24 DUP3 ADD MSTORE PUSH13 0x49642063616E2774206265203 PUSH1 0x9C SHL PUSH1 0x44 DUP3 ADD MSTORE PUSH1 0x64 ADD PUSH2 0x63E JUMP JUMPDEST PUSH1 0x40 DUP1 MLOAD PUSH1 0x80 DUP2 ADD DUP3 MSTORE DUP6 DUP2 MSTORE PUSH1 0x20 DUP1 DUP3 ADD DUP7 DUP2 MSTORE DUP3 DUP5 ADD DUP7 SWAP1 MSTORE PUSH1 0x60 DUP4 ADD DUP6 SWAP1 MSTORE PUSH1 0x0 DUP9 DUP2 MSTORE PUSH1 0x1 SWAP3 DUP4 SWAP1 MSTORE SWAP4 SWAP1 SWAP4 KECCAK256 DUP3 MLOAD DUP2 SSTORE SWAP3 MLOAD SWAP2 SWAP3 SWAP2 SWAP1 DUP3 ADD SWAP1 PUSH2 0x2D6F SWAP1 DUP3 PUSH2 0x41C1 JUMP JUMPDEST POP PUSH1 0x40 DUP3 ADD MLOAD PUSH1 0x2 DUP3 ADD SWAP1 PUSH2 0x2D84 SWAP1 DUP3 PUSH2 0x41C1 JUMP JUMPDEST POP PUSH1 0x60 SWAP2 SWAP1 SWAP2 ADD MLOAD PUSH1 0x3 SWAP1 SWAP2 ADD SSTORE PUSH1 0x2 DUP1 SLOAD PUSH1 0x1 DUP2 ADD DUP3 SSTORE PUSH1 0x0 SWAP2 SWAP1 SWAP2 MSTORE PUSH32 0x405787FA12A823E0F2B7631CC41B3BA8828B3321CA811111FA75CD3AA3BB5ACE ADD DUP5 SWAP1 SSTORE PUSH1 0x40 MLOAD PUSH32 0xB6767D1C89515962142B00B5577569C92A74381D9441A528911C66E0C3CEA1F8 SWAP1 PUSH2 0x2DFD SWAP1 DUP7 SWAP1 DUP7 SWAP1 DUP7 SWAP1 DUP7 SWAP1 PUSH2 0x3696 JUMP JUMPDEST PUSH1 0x40 MLOAD DUP1 SWAP2 SUB SWAP1 LOG1 POP POP POP POP JUMP JUMPDEST PUSH1 0x40 MLOAD DUP1 PUSH1 0xC0 ADD PUSH1 0x40 MSTORE DUP1 DUP5 PUSH1 0x3 DUP2 GT ISZERO PUSH2 0x2E28 JUMPI PUSH2 0x2E28 PUSH2 0x380D JUMP JUMPDEST DUP2 MSTORE PUSH1 0x20 ADD DUP4 PUSH1 0x2 DUP2 GT ISZERO PUSH2 0x2E3F JUMPI PUSH2 0x2E3F PUSH2 0x380D JUMP JUMPDEST DUP2 MSTORE PUSH1 0x20 ADD DUP3 PUSH1 0xF DUP2 GT ISZERO PUSH2 0x2E56 JUMPI PUSH2 0x2E56 PUSH2 0x380D JUMP JUMPDEST DUP2 MSTORE PUSH1 0x20 ADD TIMESTAMP DUP2 MSTORE PUSH1 0x20 ADD PUSH1 0x1 ISZERO ISZERO DUP2 MSTORE PUSH1 0x20 ADD DUP6 DUP2 MSTORE POP PUSH1 0x7 PUSH1 0x0 DUP7 DUP7 DUP7 DUP7 PUSH1 0x40 MLOAD PUSH1 0x20 ADD PUSH2 0x2E89 SWAP5 SWAP4 SWAP3 SWAP2 SWAP1 PUSH2 0x3E86 JUMP JUMPDEST PUSH1 0x40 DUP1 MLOAD PUSH1 0x1F NOT DUP2 DUP5 SUB ADD DUP2 MSTORE SWAP2 DUP2 MSTORE DUP2 MLOAD PUSH1 0x20 SWAP3 DUP4 ADD KECCAK256 DUP4 MSTORE SWAP1 DUP3 ADD SWAP3 SWAP1 SWAP3 MSTORE ADD PUSH1 0x0 KECCAK256 DUP2 MLOAD DUP2 SLOAD DUP3 SWAP1 PUSH1 0xFF NOT AND PUSH1 0x1 DUP4 PUSH1 0x3 DUP2 GT ISZERO PUSH2 0x2ECC JUMPI PUSH2 0x2ECC PUSH2 0x380D JUMP JUMPDEST MUL OR SWAP1 SSTORE POP PUSH1 0x20 DUP3 ADD MLOAD DUP2 SLOAD DUP3 SWAP1 PUSH2 0xFF00 NOT AND PUSH2 0x100 DUP4 PUSH1 0x2 DUP2 GT ISZERO PUSH2 0x2EF4 JUMPI PUSH2 0x2EF4 PUSH2 0x380D JUMP JUMPDEST MUL OR SWAP1 SSTORE POP PUSH1 0x40 DUP3 ADD MLOAD DUP2 SLOAD DUP3 SWAP1 PUSH3 0xFF0000 NOT AND PUSH3 0x10000 DUP4 PUSH1 0xF DUP2 GT ISZERO PUSH2 0x2F1E JUMPI PUSH2 0x2F1E PUSH2 0x380D JUMP JUMPDEST MUL OR SWAP1 SSTORE POP PUSH1 0x60 DUP3 ADD MLOAD PUSH1 0x1 DUP3 ADD SSTORE PUSH1 0x80 DUP3 ADD MLOAD PUSH1 0x2 DUP3 ADD DUP1 SLOAD PUSH1 0xFF NOT AND SWAP2 ISZERO ISZERO SWAP2 SWAP1 SWAP2 OR SWAP1 SSTORE PUSH1 0xA0 SWAP1 SWAP2 ADD MLOAD PUSH1 0x3 SWAP1 SWAP2 ADD SSTORE PUSH1 0x0 DUP5 DUP2 MSTORE PUSH1 0x8 PUSH1 0x20 SWAP1 DUP2 MSTORE PUSH1 0x40 SWAP2 DUP3 SWAP1 KECCAK256 SWAP2 MLOAD PUSH2 0x2F77 SWAP2 DUP8 SWAP2 DUP8 SWAP2 DUP8 SWAP2 DUP8 SWAP2 ADD PUSH2 0x3E86 JUMP JUMPDEST PUSH1 0x40 DUP1 MLOAD PUSH1 0x1F NOT DUP2 DUP5 SUB ADD DUP2 MSTORE SWAP1 DUP3 SWAP1 MSTORE DUP1 MLOAD PUSH1 0x20 SWAP2 DUP3 ADD KECCAK256 DUP4 SLOAD PUSH1 0x1 DUP2 ADD DUP6 SSTORE PUSH1 0x0 SWAP5 DUP6 MSTORE SWAP2 SWAP1 SWAP4 KECCAK256 ADD SWAP2 SWAP1 SWAP2 SSTORE PUSH32 0xB55811DD01470A227956304B027C610C7CDF9DD622DCC47791380261D56DC6ED SWAP1 PUSH2 0x2DFD SWAP1 DUP7 SWAP1 DUP7 SWAP1 DUP7 SWAP1 DUP7 SWAP1 PUSH2 0x42B9 JUMP JUMPDEST PUSH1 0x0 DUP5 DUP2 MSTORE PUSH1 0x1 PUSH1 0x20 MSTORE PUSH1 0x40 DUP2 KECCAK256 SLOAD SWAP1 SUB PUSH2 0x302F JUMPI PUSH1 0x40 MLOAD PUSH3 0x461BCD PUSH1 0xE5 SHL DUP2 MSTORE PUSH1 0x20 PUSH1 0x4 DUP3 ADD MSTORE PUSH1 0x16 PUSH1 0x24 DUP3 ADD MSTORE PUSH22 0x14DD1D59195B9D08191BD95CC81B9BDD08195E1A5CDD PUSH1 0x52 SHL PUSH1 0x44 DUP3 ADD MSTORE PUSH1 0x64 ADD PUSH2 0x63E JUMP JUMPDEST PUSH1 0x1 PUSH1 0x0 DUP6 DUP2 MSTORE PUSH1 0x20 ADD SWAP1 DUP2 MSTORE PUSH1 0x20 ADD PUSH1 0x0 KECCAK256 PUSH1 0x1 ADD PUSH1 0x40 MLOAD PUSH1 0x20 ADD PUSH2 0x3055 SWAP2 SWAP1 PUSH2 0x42F0 JUMP JUMPDEST PUSH1 0x40 MLOAD PUSH1 0x20 DUP2 DUP4 SUB SUB DUP2 MSTORE SWAP1 PUSH1 0x40 MSTORE DUP1 MLOAD SWAP1 PUSH1 0x20 ADD KECCAK256 DUP4 PUSH1 0x40 MLOAD PUSH1 0x20 ADD PUSH2 0x307C SWAP2 SWAP1 PUSH2 0x4366 JUMP JUMPDEST PUSH1 0x40 MLOAD PUSH1 0x20 DUP2 DUP4 SUB SUB DUP2 MSTORE SWAP1 PUSH1 0x40 MSTORE DUP1 MLOAD SWAP1 PUSH1 0x20 ADD KECCAK256 EQ ISZERO DUP1 ISZERO PUSH2 0x30D4 JUMPI POP PUSH1 0x40 DUP1 MLOAD PUSH1 0x0 DUP2 MSTORE PUSH1 0x20 DUP2 ADD DUP1 DUP4 MSTORE DUP2 MLOAD SWAP1 KECCAK256 SWAP2 PUSH2 0x30BB SWAP2 DUP7 SWAP2 ADD PUSH2 0x4366 JUMP JUMPDEST PUSH1 0x40 MLOAD PUSH1 0x20 DUP2 DUP4 SUB SUB DUP2 MSTORE SWAP1 PUSH1 0x40 MSTORE DUP1 MLOAD SWAP1 PUSH1 0x20 ADD KECCAK256 EQ ISZERO JUMPDEST ISZERO PUSH2 0x30F7 JUMPI PUSH1 0x0 DUP5 DUP2 MSTORE PUSH1 0x1 PUSH1 0x20 DUP2 SWAP1 MSTORE PUSH1 0x40 SWAP1 SWAP2 KECCAK256 ADD PUSH2 0x30F5 DUP5 DUP3 PUSH2 0x41C1 JUMP JUMPDEST POP JUMPDEST PUSH1 0x0 DUP5 DUP2 MSTORE PUSH1 0x1 PUSH1 0x20 SWAP1 DUP2 MSTORE PUSH1 0x40 SWAP2 DUP3 SWAP1 KECCAK256 SWAP2 MLOAD PUSH2 0x3119 SWAP3 PUSH1 0x2 ADD SWAP2 ADD PUSH2 0x42F0 JUMP JUMPDEST PUSH1 0x40 MLOAD PUSH1 0x20 DUP2 DUP4 SUB SUB DUP2 MSTORE SWAP1 PUSH1 0x40 MSTORE DUP1 MLOAD SWAP1 PUSH1 0x20 ADD KECCAK256 DUP3 PUSH1 0x40 MLOAD PUSH1 0x20 ADD PUSH2 0x3140 SWAP2 SWAP1 PUSH2 0x4366 JUMP JUMPDEST PUSH1 0x40 MLOAD PUSH1 0x20 DUP2 DUP4 SUB SUB DUP2 MSTORE SWAP1 PUSH1 0x40 MSTORE DUP1 MLOAD SWAP1 PUSH1 0x20 ADD KECCAK256 EQ ISZERO DUP1 ISZERO PUSH2 0x3198 JUMPI POP PUSH1 0x40 DUP1 MLOAD PUSH1 0x0 DUP2 MSTORE PUSH1 0x20 DUP2 ADD DUP1 DUP4 MSTORE DUP2 MLOAD SWAP1 KECCAK256 SWAP2 PUSH2 0x317F SWAP2 DUP6 SWAP2 ADD PUSH2 0x4366 JUMP JUMPDEST PUSH1 0x40 MLOAD PUSH1 0x20 DUP2 DUP4 SUB SUB DUP2 MSTORE SWAP1 PUSH1 0x40 MSTORE DUP1 MLOAD SWAP1 PUSH1 0x20 ADD KECCAK256 EQ ISZERO JUMPDEST ISZERO PUSH2 0x31BA JUMPI PUSH1 0x0 DUP5 DUP2 MSTORE PUSH1 0x1 PUSH1 0x20 MSTORE PUSH1 0x40 SWAP1 KECCAK256 PUSH1 0x2 ADD PUSH2 0x31B8 DUP4 DUP3 PUSH2 0x41C1 JUMP JUMPDEST POP JUMPDEST PUSH1 0x0 DUP5 DUP2 MSTORE PUSH1 0x1 PUSH1 0x20 MSTORE PUSH1 0x40 SWAP1 KECCAK256 PUSH1 0x3 ADD SLOAD DUP2 EQ DUP1 ISZERO SWAP1 PUSH2 0x31DA JUMPI POP DUP1 ISZERO ISZERO JUMPDEST ISZERO PUSH2 0x31F4 JUMPI PUSH1 0x0 DUP5 DUP2 MSTORE PUSH1 0x1 PUSH1 0x20 MSTORE PUSH1 0x40 SWAP1 KECCAK256 PUSH1 0x3 ADD DUP2 SWAP1 SSTORE JUMPDEST PUSH32 0x3E10A3F40E9AF2A5E61CB5A3DE55FD67286470C35B3CF345B04A83CF3F49077 DUP5 DUP5 DUP5 DUP5 PUSH1 0x40 MLOAD PUSH2 0x2DFD SWAP5 SWAP4 SWAP3 SWAP2 SWAP1 PUSH2 0x3696 JUMP JUMPDEST PUSH2 0x3233 DUP3 DUP3 PUSH2 0x1A00 JUMP JUMPDEST ISZERO PUSH2 0x2B24 JUMPI PUSH1 0x0 DUP3 DUP2 MSTORE PUSH1 0x20 DUP2 DUP2 MSTORE PUSH1 0x40 DUP1 DUP4 KECCAK256 PUSH1 0x1 PUSH1 0x1 PUSH1 0xA0 SHL SUB DUP6 AND DUP1 DUP6 MSTORE SWAP3 MSTORE DUP1 DUP4 KECCAK256 DUP1 SLOAD PUSH1 0xFF NOT AND SWAP1 SSTORE MLOAD CALLER SWAP3 DUP6 SWAP2 PUSH32 0xF6391F5C32D9C69D2A47EA670B442974B53935D1EDC7FD64EB21E047A839171B SWAP2 SWAP1 LOG4 POP POP JUMP JUMPDEST PUSH1 0x0 DUP1 PUSH19 0x184F03E93FF9F4DAA797ED6E38ED64BF6A1F01 PUSH1 0x40 SHL DUP4 LT PUSH2 0x32CD JUMPI PUSH19 0x184F03E93FF9F4DAA797ED6E38ED64BF6A1F01 PUSH1 0x40 SHL DUP4 DIV SWAP3 POP PUSH1 0x40 ADD JUMPDEST PUSH14 0x4EE2D6D415B85ACEF8100000000 DUP4 LT PUSH2 0x32F9 JUMPI PUSH14 0x4EE2D6D415B85ACEF8100000000 DUP4 DIV SWAP3 POP PUSH1 0x20 ADD JUMPDEST PUSH7 0x2386F26FC10000 DUP4 LT PUSH2 0x3317 JUMPI PUSH7 0x2386F26FC10000 DUP4 DIV SWAP3 POP PUSH1 0x10 ADD JUMPDEST PUSH4 0x5F5E100 DUP4 LT PUSH2 0x332F JUMPI PUSH4 0x5F5E100 DUP4 DIV SWAP3 POP PUSH1 0x8 ADD JUMPDEST PUSH2 0x2710 DUP4 LT PUSH2 0x3343 JUMPI PUSH2 0x2710 DUP4 DIV SWAP3 POP PUSH1 0x4 ADD JUMPDEST PUSH1 0x64 DUP4 LT PUSH2 0x3355 JUMPI PUSH1 0x64 DUP4 DIV SWAP3 POP PUSH1 0x2 ADD JUMPDEST PUSH1 0xA DUP4 LT PUSH2 0x604 JUMPI PUSH1 0x1 ADD SWAP3 SWAP2 POP POP JUMP JUMPDEST PUSH2 0x3370 DUP3 DUP3 PUSH2 0x1A00 JUMP JUMPDEST PUSH2 0x2B24 JUMPI PUSH2 0x337D DUP2 PUSH2 0x33BF JUMP JUMPDEST PUSH2 0x3388 DUP4 PUSH1 0x20 PUSH2 0x33D1 JUMP JUMPDEST PUSH1 0x40 MLOAD PUSH1 0x20 ADD PUSH2 0x3399 SWAP3 SWAP2 SWAP1 PUSH2 0x4382 JUMP JUMPDEST PUSH1 0x40 DUP1 MLOAD PUSH1 0x1F NOT DUP2 DUP5 SUB ADD DUP2 MSTORE SWAP1 DUP3 SWAP1 MSTORE PUSH3 0x461BCD PUSH1 0xE5 SHL DUP3 MSTORE PUSH2 0x63E SWAP2 PUSH1 0x4 ADD PUSH2 0x3705 JUMP JUMPDEST PUSH1 0x60 PUSH2 0x604 PUSH1 0x1 PUSH1 0x1 PUSH1 0xA0 SHL SUB DUP4 AND PUSH1 0x14 JUMPDEST PUSH1 0x60 PUSH1 0x0 PUSH2 0x33E0 DUP4 PUSH1 0x2 PUSH2 0x3CE2 JUMP JUMPDEST PUSH2 0x33EB SWAP1 PUSH1 0x2 PUSH2 0x3CCF JUMP JUMPDEST PUSH8 0xFFFFFFFFFFFFFFFF DUP2 GT ISZERO PUSH2 0x3403 JUMPI PUSH2 0x3403 PUSH2 0x3A3A JUMP JUMPDEST PUSH1 0x40 MLOAD SWAP1 DUP1 DUP3 MSTORE DUP1 PUSH1 0x1F ADD PUSH1 0x1F NOT AND PUSH1 0x20 ADD DUP3 ADD PUSH1 0x40 MSTORE DUP1 ISZERO PUSH2 0x342D JUMPI PUSH1 0x20 DUP3 ADD DUP2 DUP1 CALLDATASIZE DUP4 CALLDATACOPY ADD SWAP1 POP JUMPDEST POP SWAP1 POP PUSH1 0x3 PUSH1 0xFC SHL DUP2 PUSH1 0x0 DUP2 MLOAD DUP2 LT PUSH2 0x3448 JUMPI PUSH2 0x3448 PUSH2 0x3CB9 JUMP JUMPDEST PUSH1 0x20 ADD ADD SWAP1 PUSH1 0x1 PUSH1 0x1 PUSH1 0xF8 SHL SUB NOT AND SWAP1 DUP2 PUSH1 0x0 BYTE SWAP1 MSTORE8 POP PUSH1 0xF PUSH1 0xFB SHL DUP2 PUSH1 0x1 DUP2 MLOAD DUP2 LT PUSH2 0x3477 JUMPI PUSH2 0x3477 PUSH2 0x3CB9 JUMP JUMPDEST PUSH1 0x20 ADD ADD SWAP1 PUSH1 0x1 PUSH1 0x1 PUSH1 0xF8 SHL SUB NOT AND SWAP1 DUP2 PUSH1 0x0 BYTE SWAP1 MSTORE8 POP PUSH1 0x0 PUSH2 0x349B DUP5 PUSH1 0x2 PUSH2 0x3CE2 JUMP JUMPDEST PUSH2 0x34A6 SWAP1 PUSH1 0x1 PUSH2 0x3CCF JUMP JUMPDEST SWAP1 POP JUMPDEST PUSH1 0x1 DUP2 GT ISZERO PUSH2 0x351E JUMPI PUSH16 0x181899199A1A9B1B9C1CB0B131B232B3 PUSH1 0x81 SHL DUP6 PUSH1 0xF AND PUSH1 0x10 DUP2 LT PUSH2 0x34DA JUMPI PUSH2 0x34DA PUSH2 0x3CB9 JUMP JUMPDEST BYTE PUSH1 0xF8 SHL DUP3 DUP3 DUP2 MLOAD DUP2 LT PUSH2 0x34F0 JUMPI PUSH2 0x34F0 PUSH2 0x3CB9 JUMP JUMPDEST PUSH1 0x20 ADD ADD SWAP1 PUSH1 0x1 PUSH1 0x1 PUSH1 0xF8 SHL SUB NOT AND SWAP1 DUP2 PUSH1 0x0 BYTE SWAP1 MSTORE8 POP PUSH1 0x4 SWAP5 SWAP1 SWAP5 SHR SWAP4 PUSH2 0x3517 DUP2 PUSH2 0x43F7 JUMP JUMPDEST SWAP1 POP PUSH2 0x34A9 JUMP JUMPDEST POP DUP4 ISZERO PUSH2 0x356D JUMPI PUSH1 0x40 MLOAD PUSH3 0x461BCD PUSH1 0xE5 SHL DUP2 MSTORE PUSH1 0x20 PUSH1 0x4 DUP3 ADD DUP2 SWAP1 MSTORE PUSH1 0x24 DUP3 ADD MSTORE PUSH32 0x537472696E67733A20686578206C656E67746820696E73756666696369656E74 PUSH1 0x44 DUP3 ADD MSTORE PUSH1 0x64 ADD PUSH2 0x63E JUMP JUMPDEST SWAP4 SWAP3 POP POP POP JUMP JUMPDEST POP DUP1 SLOAD PUSH2 0x3580 SWAP1 PUSH2 0x3C7F JUMP JUMPDEST PUSH1 0x0 DUP3 SSTORE DUP1 PUSH1 0x1F LT PUSH2 0x3590 JUMPI POP POP JUMP JUMPDEST PUSH1 0x1F ADD PUSH1 0x20 SWAP1 DIV SWAP1 PUSH1 0x0 MSTORE PUSH1 0x20 PUSH1 0x0 KECCAK256 SWAP1 DUP2 ADD SWAP1 PUSH2 0x2C0B SWAP2 SWAP1 JUMPDEST DUP1 DUP3 GT ISZERO PUSH2 0x35BE JUMPI PUSH1 0x0 DUP2 SSTORE PUSH1 0x1 ADD PUSH2 0x35AA JUMP JUMPDEST POP SWAP1 JUMP JUMPDEST PUSH1 0x0 PUSH1 0x20 DUP3 DUP5 SUB SLT ISZERO PUSH2 0x35D4 JUMPI PUSH1 0x0 DUP1 REVERT JUMPDEST DUP2 CALLDATALOAD PUSH1 0x1 PUSH1 0x1 PUSH1 0xE0 SHL SUB NOT DUP2 AND DUP2 EQ PUSH2 0x356D JUMPI PUSH1 0x0 DUP1 REVERT JUMPDEST DUP1 CALLDATALOAD DUP1 ISZERO ISZERO DUP2 EQ PUSH2 0x35FC JUMPI PUSH1 0x0 DUP1 REVERT JUMPDEST SWAP2 SWAP1 POP JUMP JUMPDEST PUSH1 0x0 DUP1 PUSH1 0x40 DUP4 DUP6 SUB SLT ISZERO PUSH2 0x3614 JUMPI PUSH1 0x0 DUP1 REVERT JUMPDEST DUP3 CALLDATALOAD SWAP2 POP PUSH2 0x3624 PUSH1 0x20 DUP5 ADD PUSH2 0x35EC JUMP JUMPDEST SWAP1 POP SWAP3 POP SWAP3 SWAP1 POP JUMP JUMPDEST PUSH1 0x0 PUSH1 0x20 DUP3 DUP5 SUB SLT ISZERO PUSH2 0x363F JUMPI PUSH1 0x0 DUP1 REVERT JUMPDEST POP CALLDATALOAD SWAP2 SWAP1 POP JUMP JUMPDEST PUSH1 0x0 JUMPDEST DUP4 DUP2 LT ISZERO PUSH2 0x3661 JUMPI DUP2 DUP2 ADD MLOAD DUP4 DUP3 ADD MSTORE PUSH1 0x20 ADD PUSH2 0x3649 JUMP JUMPDEST POP POP PUSH1 0x0 SWAP2 ADD MSTORE JUMP JUMPDEST PUSH1 0x0 DUP2 MLOAD DUP1 DUP5 MSTORE PUSH2 0x3682 DUP2 PUSH1 0x20 DUP7 ADD PUSH1 0x20 DUP7 ADD PUSH2 0x3646 JUMP JUMPDEST PUSH1 0x1F ADD PUSH1 0x1F NOT AND SWAP3 SWAP1 SWAP3 ADD PUSH1 0x20 ADD SWAP3 SWAP2 POP POP JUMP JUMPDEST DUP5 DUP2 MSTORE PUSH1 0x80 PUSH1 0x20 DUP3 ADD MSTORE PUSH1 0x0 PUSH2 0x36AF PUSH1 0x80 DUP4 ADD DUP7 PUSH2 0x366A JUMP JUMPDEST DUP3 DUP2 SUB PUSH1 0x40 DUP5 ADD MSTORE PUSH2 0x36C1 DUP2 DUP7 PUSH2 0x366A JUMP JUMPDEST SWAP2 POP POP DUP3 PUSH1 0x60 DUP4 ADD MSTORE SWAP6 SWAP5 POP POP POP POP POP JUMP JUMPDEST DUP1 CALLDATALOAD PUSH1 0x1 PUSH1 0x1 PUSH1 0xA0 SHL SUB DUP2 AND DUP2 EQ PUSH2 0x35FC JUMPI PUSH1 0x0 DUP1 REVERT JUMPDEST PUSH1 0x0 PUSH1 0x20 DUP3 DUP5 SUB SLT ISZERO PUSH2 0x36FC JUMPI PUSH1 0x0 DUP1 REVERT JUMPDEST PUSH2 0x356D DUP3 PUSH2 0x36D3 JUMP JUMPDEST PUSH1 0x20 DUP2 MSTORE PUSH1 0x0 PUSH2 0x356D PUSH1 0x20 DUP4 ADD DUP5 PUSH2 0x366A JUMP JUMPDEST DUP6 ISZERO ISZERO DUP2 MSTORE DUP5 PUSH1 0x20 DUP3 ADD MSTORE PUSH1 0xFF DUP5 AND PUSH1 0x40 DUP3 ADD MSTORE PUSH1 0xFF DUP4 AND PUSH1 0x60 DUP3 ADD MSTORE PUSH1 0xA0 PUSH1 0x80 DUP3 ADD MSTORE PUSH1 0x0 PUSH2 0x374B PUSH1 0xA0 DUP4 ADD DUP5 PUSH2 0x366A JUMP JUMPDEST SWAP8 SWAP7 POP POP POP POP POP POP POP JUMP JUMPDEST PUSH1 0x0 DUP1 PUSH1 0x40 DUP4 DUP6 SUB SLT ISZERO PUSH2 0x3769 JUMPI PUSH1 0x0 DUP1 REVERT JUMPDEST DUP3 CALLDATALOAD SWAP2 POP PUSH2 0x3624 PUSH1 0x20 DUP5 ADD PUSH2 0x36D3 JUMP JUMPDEST PUSH1 0x0 DUP1 PUSH1 0x40 DUP4 DUP6 SUB SLT ISZERO PUSH2 0x378C JUMPI PUSH1 0x0 DUP1 REVERT JUMPDEST POP POP DUP1 CALLDATALOAD SWAP3 PUSH1 0x20 SWAP1 SWAP2 ADD CALLDATALOAD SWAP2 POP JUMP JUMPDEST PUSH1 0x60 DUP2 MSTORE PUSH1 0x0 PUSH2 0x37AE PUSH1 0x60 DUP4 ADD DUP7 PUSH2 0x366A JUMP JUMPDEST DUP3 DUP2 SUB PUSH1 0x20 DUP5 ADD MSTORE PUSH2 0x37C0 DUP2 DUP7 PUSH2 0x366A JUMP JUMPDEST SWAP2 POP POP DUP3 PUSH1 0x40 DUP4 ADD MSTORE SWAP5 SWAP4 POP POP POP POP JUMP JUMPDEST PUSH1 0x0 DUP1 PUSH1 0x0 PUSH1 0x60 DUP5 DUP7 SUB SLT ISZERO PUSH2 0x37E6 JUMPI PUSH1 0x0 DUP1 REVERT JUMPDEST DUP4 CALLDATALOAD SWAP3 POP PUSH2 0x37F6 PUSH1 0x20 DUP6 ADD PUSH2 0x36D3 JUMP JUMPDEST SWAP2 POP PUSH2 0x3804 PUSH1 0x40 DUP6 ADD PUSH2 0x35EC JUMP JUMPDEST SWAP1 POP SWAP3 POP SWAP3 POP SWAP3 JUMP JUMPDEST PUSH4 0x4E487B71 PUSH1 0xE0 SHL PUSH1 0x0 MSTORE PUSH1 0x21 PUSH1 0x4 MSTORE PUSH1 0x24 PUSH1 0x0 REVERT JUMPDEST PUSH1 0x4 DUP2 LT PUSH2 0x3833 JUMPI PUSH2 0x3833 PUSH2 0x380D JUMP JUMPDEST SWAP1 MSTORE JUMP JUMPDEST PUSH1 0x3 DUP2 LT PUSH2 0x3833 JUMPI PUSH2 0x3833 PUSH2 0x380D JUMP JUMPDEST PUSH1 0x10 DUP2 LT PUSH2 0x3833 JUMPI PUSH2 0x3833 PUSH2 0x380D JUMP JUMPDEST PUSH1 0xC0 DUP2 ADD PUSH2 0x3865 DUP3 DUP10 PUSH2 0x3823 JUMP JUMPDEST PUSH2 0x3872 PUSH1 0x20 DUP4 ADD DUP9 PUSH2 0x3837 JUMP JUMPDEST PUSH2 0x387F PUSH1 0x40 DUP4 ADD DUP8 PUSH2 0x3847 JUMP JUMPDEST PUSH1 0x60 DUP3 ADD SWAP5 SWAP1 SWAP5 MSTORE SWAP2 ISZERO ISZERO PUSH1 0x80 DUP4 ADD MSTORE PUSH1 0xA0 SWAP1 SWAP2 ADD MSTORE SWAP4 SWAP3 POP POP POP JUMP JUMPDEST PUSH1 0x0 DUP1 PUSH1 0x0 DUP1 PUSH1 0x0 PUSH1 0xA0 DUP7 DUP9 SUB SLT ISZERO PUSH2 0x38B4 JUMPI PUSH1 0x0 DUP1 REVERT JUMPDEST DUP6 CALLDATALOAD SWAP5 POP PUSH1 0x20 DUP7 ADD CALLDATALOAD PUSH1 0x4 DUP2 LT PUSH2 0x38CA JUMPI PUSH1 0x0 DUP1 REVERT JUMPDEST SWAP4 POP PUSH1 0x40 DUP7 ADD CALLDATALOAD PUSH1 0x3 DUP2 LT PUSH2 0x38DE JUMPI PUSH1 0x0 DUP1 REVERT JUMPDEST SWAP3 POP PUSH1 0x60 DUP7 ADD CALLDATALOAD PUSH1 0x10 DUP2 LT PUSH2 0x38F2 JUMPI PUSH1 0x0 DUP1 REVERT JUMPDEST SWAP2 POP PUSH2 0x3900 PUSH1 0x80 DUP8 ADD PUSH2 0x35EC JUMP JUMPDEST SWAP1 POP SWAP3 SWAP6 POP SWAP3 SWAP6 SWAP1 SWAP4 POP JUMP JUMPDEST PUSH1 0x0 DUP2 MLOAD DUP1 DUP5 MSTORE PUSH1 0x20 DUP1 DUP6 ADD SWAP5 POP DUP1 DUP5 ADD PUSH1 0x0 JUMPDEST DUP4 DUP2 LT ISZERO PUSH2 0x393C JUMPI DUP2 MLOAD DUP8 MSTORE SWAP6 DUP3 ADD SWAP6 SWAP1 DUP3 ADD SWAP1 PUSH1 0x1 ADD PUSH2 0x3920 JUMP JUMPDEST POP SWAP5 SWAP6 SWAP5 POP POP POP POP POP JUMP JUMPDEST PUSH1 0x0 DUP2 MLOAD DUP1 DUP5 MSTORE PUSH1 0x20 DUP1 DUP6 ADD SWAP5 POP DUP1 DUP5 ADD PUSH1 0x0 JUMPDEST DUP4 DUP2 LT ISZERO PUSH2 0x393C JUMPI DUP2 MLOAD ISZERO ISZERO DUP8 MSTORE SWAP6 DUP3 ADD SWAP6 SWAP1 DUP3 ADD SWAP1 PUSH1 0x1 ADD PUSH2 0x395B JUMP JUMPDEST PUSH1 0x80 DUP2 MSTORE PUSH1 0x0 PUSH2 0x398C PUSH1 0x80 DUP4 ADD DUP8 PUSH2 0x390C JUMP JUMPDEST DUP3 DUP2 SUB PUSH1 0x20 DUP5 DUP2 ADD SWAP2 SWAP1 SWAP2 MSTORE DUP7 MLOAD DUP1 DUP4 MSTORE DUP8 DUP3 ADD SWAP3 DUP3 ADD SWAP1 PUSH1 0x0 JUMPDEST DUP2 DUP2 LT ISZERO PUSH2 0x39C6 JUMPI DUP5 MLOAD PUSH1 0xFF AND DUP4 MSTORE SWAP4 DUP4 ADD SWAP4 SWAP2 DUP4 ADD SWAP2 PUSH1 0x1 ADD PUSH2 0x39A7 JUMP JUMPDEST POP POP DUP5 DUP2 SUB PUSH1 0x40 DUP7 ADD MSTORE DUP7 MLOAD DUP1 DUP3 MSTORE DUP3 DUP3 ADD SWAP4 POP PUSH1 0x5 DUP2 SWAP1 SHL DUP3 ADD DUP4 ADD DUP4 DUP10 ADD PUSH1 0x0 JUMPDEST DUP4 DUP2 LT ISZERO PUSH2 0x3A17 JUMPI PUSH1 0x1F NOT DUP6 DUP5 SUB ADD DUP8 MSTORE PUSH2 0x3A05 DUP4 DUP4 MLOAD PUSH2 0x366A JUMP JUMPDEST SWAP7 DUP7 ADD SWAP7 SWAP3 POP SWAP1 DUP6 ADD SWAP1 PUSH1 0x1 ADD PUSH2 0x39E9 JUMP JUMPDEST POP POP DUP7 DUP2 SUB PUSH1 0x60 DUP9 ADD MSTORE PUSH2 0x3A2B DUP2 DUP10 PUSH2 0x3947 JUMP JUMPDEST SWAP12 SWAP11 POP POP POP POP POP POP POP POP POP POP POP JUMP JUMPDEST PUSH4 0x4E487B71 PUSH1 0xE0 SHL PUSH1 0x0 MSTORE PUSH1 0x41 PUSH1 0x4 MSTORE PUSH1 0x24 PUSH1 0x0 REVERT JUMPDEST PUSH1 0x0 DUP3 PUSH1 0x1F DUP4 ADD SLT PUSH2 0x3A61 JUMPI PUSH1 0x0 DUP1 REVERT JUMPDEST DUP2 CALLDATALOAD PUSH8 0xFFFFFFFFFFFFFFFF DUP1 DUP3 GT ISZERO PUSH2 0x3A7C JUMPI PUSH2 0x3A7C PUSH2 0x3A3A JUMP JUMPDEST PUSH1 0x40 MLOAD PUSH1 0x1F DUP4 ADD PUSH1 0x1F NOT SWAP1 DUP2 AND PUSH1 0x3F ADD AND DUP2 ADD SWAP1 DUP3 DUP3 GT DUP2 DUP4 LT OR ISZERO PUSH2 0x3AA4 JUMPI PUSH2 0x3AA4 PUSH2 0x3A3A JUMP JUMPDEST DUP2 PUSH1 0x40 MSTORE DUP4 DUP2 MSTORE DUP7 PUSH1 0x20 DUP6 DUP9 ADD ADD GT ISZERO PUSH2 0x3ABD JUMPI PUSH1 0x0 DUP1 REVERT JUMPDEST DUP4 PUSH1 0x20 DUP8 ADD PUSH1 0x20 DUP4 ADD CALLDATACOPY PUSH1 0x0 PUSH1 0x20 DUP6 DUP4 ADD ADD MSTORE DUP1 SWAP5 POP POP POP POP POP SWAP3 SWAP2 POP POP JUMP JUMPDEST PUSH1 0x0 DUP1 PUSH1 0x0 DUP1 PUSH1 0x80 DUP6 DUP8 SUB SLT ISZERO PUSH2 0x3AF3 JUMPI PUSH1 0x0 DUP1 REVERT JUMPDEST DUP5 CALLDATALOAD SWAP4 POP PUSH1 0x20 DUP6 ADD CALLDATALOAD PUSH8 0xFFFFFFFFFFFFFFFF DUP1 DUP3 GT ISZERO PUSH2 0x3B12 JUMPI PUSH1 0x0 DUP1 REVERT JUMPDEST PUSH2 0x3B1E DUP9 DUP4 DUP10 ADD PUSH2 0x3A50 JUMP JUMPDEST SWAP5 POP PUSH1 0x40 DUP8 ADD CALLDATALOAD SWAP2 POP DUP1 DUP3 GT ISZERO PUSH2 0x3B34 JUMPI PUSH1 0x0 DUP1 REVERT JUMPDEST POP PUSH2 0x3B41 DUP8 DUP3 DUP9 ADD PUSH2 0x3A50 JUMP JUMPDEST SWAP5 SWAP8 SWAP4 SWAP7 POP SWAP4 SWAP5 PUSH1 0x60 ADD CALLDATALOAD SWAP4 POP POP POP JUMP JUMPDEST PUSH1 0x20 DUP2 MSTORE PUSH1 0x0 PUSH2 0x356D PUSH1 0x20 DUP4 ADD DUP5 PUSH2 0x390C JUMP JUMPDEST PUSH1 0x20 DUP1 DUP3 MSTORE PUSH1 0x19 SWAP1 DUP3 ADD MSTORE PUSH32 0x43616C6C6572206973206E6F7420612063657274696669657200000000000000 PUSH1 0x40 DUP3 ADD MSTORE PUSH1 0x60 ADD SWAP1 JUMP JUMPDEST PUSH1 0x20 DUP1 DUP3 MSTORE PUSH1 0x19 SWAP1 DUP3 ADD MSTORE PUSH32 0x4964206D7573742062652067726561746572207468616E203000000000000000 PUSH1 0x40 DUP3 ADD MSTORE PUSH1 0x60 ADD SWAP1 JUMP JUMPDEST PUSH1 0x20 DUP1 DUP3 MSTORE PUSH1 0x1A SWAP1 DUP3 ADD MSTORE PUSH32 0x546869732073747564656E7420646F65736E2774206578697374000000000000 PUSH1 0x40 DUP3 ADD MSTORE PUSH1 0x60 ADD SWAP1 JUMP JUMPDEST PUSH15 0x2232B632BA329039BA3AB232B73A1 PUSH1 0x8D SHL DUP2 MSTORE PUSH1 0x0 DUP3 MLOAD PUSH2 0x3C34 DUP2 PUSH1 0xF DUP6 ADD PUSH1 0x20 DUP8 ADD PUSH2 0x3646 JUMP JUMPDEST SWAP2 SWAP1 SWAP2 ADD PUSH1 0xF ADD SWAP3 SWAP2 POP POP JUMP JUMPDEST PUSH4 0x4E487B71 PUSH1 0xE0 SHL PUSH1 0x0 MSTORE PUSH1 0x11 PUSH1 0x4 MSTORE PUSH1 0x24 PUSH1 0x0 REVERT JUMPDEST PUSH4 0xFFFFFFFF DUP2 DUP2 AND DUP4 DUP3 AND MUL DUP1 DUP3 AND SWAP2 SWAP1 DUP3 DUP2 EQ PUSH2 0x3C77 JUMPI PUSH2 0x3C77 PUSH2 0x3C41 JUMP JUMPDEST POP POP SWAP3 SWAP2 POP POP JUMP JUMPDEST PUSH1 0x1 DUP2 DUP2 SHR SWAP1 DUP3 AND DUP1 PUSH2 0x3C93 JUMPI PUSH1 0x7F DUP3 AND SWAP2 POP JUMPDEST PUSH1 0x20 DUP3 LT DUP2 SUB PUSH2 0x3CB3 JUMPI PUSH4 0x4E487B71 PUSH1 0xE0 SHL PUSH1 0x0 MSTORE PUSH1 0x22 PUSH1 0x4 MSTORE PUSH1 0x24 PUSH1 0x0 REVERT JUMPDEST POP SWAP2 SWAP1 POP JUMP JUMPDEST PUSH4 0x4E487B71 PUSH1 0xE0 SHL PUSH1 0x0 MSTORE PUSH1 0x32 PUSH1 0x4 MSTORE PUSH1 0x24 PUSH1 0x0 REVERT JUMPDEST DUP1 DUP3 ADD DUP1 DUP3 GT ISZERO PUSH2 0x604 JUMPI PUSH2 0x604 PUSH2 0x3C41 JUMP JUMPDEST DUP1 DUP3 MUL DUP2 ISZERO DUP3 DUP3 DIV DUP5 EQ OR PUSH2 0x604 JUMPI PUSH2 0x604 PUSH2 0x3C41 JUMP JUMPDEST PUSH1 0x0 PUSH1 0x1 DUP3 ADD PUSH2 0x3D0B JUMPI PUSH2 0x3D0B PUSH2 0x3C41 JUMP JUMPDEST POP PUSH1 0x1 ADD SWAP1 JUMP JUMPDEST PUSH4 0x26B0BC1 PUSH1 0xE5 SHL DUP2 MSTORE PUSH1 0x0 DUP3 MLOAD PUSH2 0x3D31 DUP2 PUSH1 0x4 DUP6 ADD PUSH1 0x20 DUP8 ADD PUSH2 0x3646 JUMP JUMPDEST PUSH8 0x81C995858DA1959 PUSH1 0xC2 SHL PUSH1 0x4 SWAP4 SWAP1 SWAP2 ADD SWAP3 DUP4 ADD MSTORE POP PUSH1 0xC ADD SWAP2 SWAP1 POP JUMP JUMPDEST PUSH16 0x21B0B63632B91034B9903737BA10309 PUSH1 0x85 SHL DUP2 MSTORE PUSH1 0x0 DUP3 MLOAD PUSH2 0x3D7B DUP2 PUSH1 0x10 DUP6 ADD PUSH1 0x20 DUP8 ADD PUSH2 0x3646 JUMP JUMPDEST PUSH6 0x1030B236B4B7 PUSH1 0xD1 SHL PUSH1 0x10 SWAP4 SWAP1 SWAP2 ADD SWAP3 DUP4 ADD MSTORE POP PUSH1 0x16 ADD SWAP2 SWAP1 POP JUMP JUMPDEST PUSH32 0x54686973206164647265737320697320616C7265616479206120000000000000 DUP2 MSTORE PUSH1 0x0 DUP3 MLOAD PUSH2 0x3DD0 DUP2 PUSH1 0x1A DUP6 ADD PUSH1 0x20 DUP8 ADD PUSH2 0x3646 JUMP JUMPDEST SWAP2 SWAP1 SWAP2 ADD PUSH1 0x1A ADD SWAP3 SWAP2 POP POP JUMP JUMPDEST PUSH6 0x23B930B73A1 PUSH1 0xD5 SHL DUP2 MSTORE PUSH1 0x0 DUP4 MLOAD PUSH2 0x3DFE DUP2 PUSH1 0x6 DUP6 ADD PUSH1 0x20 DUP9 ADD PUSH2 0x3646 JUMP JUMPDEST PUSH1 0x1 PUSH1 0xFD SHL PUSH1 0x6 SWAP2 DUP5 ADD SWAP2 DUP3 ADD MSTORE DUP4 MLOAD PUSH2 0x3E1F DUP2 PUSH1 0x7 DUP5 ADD PUSH1 0x20 DUP9 ADD PUSH2 0x3646 JUMP JUMPDEST ADD PUSH1 0x7 ADD SWAP5 SWAP4 POP POP POP POP JUMP JUMPDEST PUSH4 0xFFFFFFFF DUP2 DUP2 AND DUP4 DUP3 AND ADD SWAP1 DUP1 DUP3 GT ISZERO PUSH2 0x3E48 JUMPI PUSH2 0x3E48 PUSH2 0x3C41 JUMP JUMPDEST POP SWAP3 SWAP2 POP POP JUMP JUMPDEST PUSH1 0x4 DUP2 LT PUSH2 0x3E5F JUMPI PUSH2 0x3E5F PUSH2 0x380D JUMP JUMPDEST PUSH1 0xF8 SHL SWAP1 MSTORE JUMP JUMPDEST PUSH1 0x3 DUP2 LT PUSH2 0x3E5F JUMPI PUSH2 0x3E5F PUSH2 0x380D JUMP JUMPDEST PUSH1 0x10 DUP2 LT PUSH2 0x3E5F JUMPI PUSH2 0x3E5F PUSH2 0x380D JUMP JUMPDEST DUP5 DUP2 MSTORE PUSH2 0x3E96 PUSH1 0x20 DUP3 ADD DUP6 PUSH2 0x3E4F JUMP JUMPDEST PUSH2 0x3EA3 PUSH1 0x21 DUP3 ADD DUP5 PUSH2 0x3E66 JUMP JUMPDEST PUSH2 0x3EB0 PUSH1 0x22 DUP3 ADD DUP4 PUSH2 0x3E76 JUMP JUMPDEST PUSH1 0x23 ADD SWAP5 SWAP4 POP POP POP POP JUMP JUMPDEST DUP5 DUP2 MSTORE PUSH2 0x3ECB PUSH1 0x20 DUP3 ADD DUP6 PUSH2 0x3E4F JUMP JUMPDEST PUSH2 0x3ED8 PUSH1 0x21 DUP3 ADD DUP5 PUSH2 0x3E66 JUMP JUMPDEST PUSH2 0x3EE5 PUSH1 0x22 DUP3 ADD DUP4 PUSH2 0x3E76 JUMP JUMPDEST PUSH6 0x44454C455445 PUSH1 0xD0 SHL PUSH1 0x23 DUP3 ADD MSTORE PUSH1 0x29 ADD SWAP5 SWAP4 POP POP POP POP JUMP JUMPDEST PUSH7 0x2232B632BA329 PUSH1 0xCD SHL DUP2 MSTORE PUSH1 0x0 DUP6 MLOAD PUSH2 0x3F21 DUP2 PUSH1 0x7 DUP6 ADD PUSH1 0x20 DUP11 ADD PUSH2 0x3646 JUMP JUMPDEST DUP1 DUP4 ADD SWAP1 POP PUSH1 0x1 PUSH1 0xFD SHL DUP1 PUSH1 0x7 DUP4 ADD MSTORE DUP7 MLOAD PUSH2 0x3F44 DUP2 PUSH1 0x8 DUP6 ADD PUSH1 0x20 DUP12 ADD PUSH2 0x3646 JUMP JUMPDEST PUSH1 0x8 SWAP3 ADD SWAP2 DUP3 ADD DUP2 SWAP1 MSTORE DUP6 MLOAD PUSH2 0x3F61 DUP2 PUSH1 0x9 DUP6 ADD PUSH1 0x20 DUP11 ADD PUSH2 0x3646 JUMP JUMPDEST PUSH1 0x9 SWAP3 ADD SWAP2 DUP3 ADD MSTORE DUP4 MLOAD PUSH2 0x3F7C DUP2 PUSH1 0xA DUP5 ADD PUSH1 0x20 DUP9 ADD PUSH2 0x3646 JUMP JUMPDEST ADD PUSH1 0xA ADD SWAP7 SWAP6 POP POP POP POP POP POP JUMP JUMPDEST DUP5 DUP2 MSTORE PUSH2 0x3F9A PUSH1 0x20 DUP3 ADD DUP6 PUSH2 0x3E4F JUMP JUMPDEST PUSH2 0x3FA7 PUSH1 0x21 DUP3 ADD DUP5 PUSH2 0x3E66 JUMP JUMPDEST PUSH2 0x3FB4 PUSH1 0x22 DUP3 ADD DUP4 PUSH2 0x3E76 JUMP JUMPDEST PUSH7 0x43455254494659 PUSH1 0xC8 SHL PUSH1 0x23 DUP3 ADD MSTORE PUSH1 0x2A ADD SWAP5 SWAP4 POP POP POP POP JUMP JUMPDEST PUSH8 0x21B2B93A34B33C9 PUSH1 0xC5 SHL DUP2 MSTORE PUSH1 0x0 DUP6 MLOAD PUSH2 0x3FF2 DUP2 PUSH1 0x8 DUP6 ADD PUSH1 0x20 DUP11 ADD PUSH2 0x3646 JUMP JUMPDEST DUP1 DUP4 ADD SWAP1 POP PUSH1 0x1 PUSH1 0xFD SHL DUP1 PUSH1 0x8 DUP4 ADD MSTORE DUP7 MLOAD PUSH2 0x4015 DUP2 PUSH1 0x9 DUP6 ADD PUSH1 0x20 DUP12 ADD PUSH2 0x3646 JUMP JUMPDEST PUSH1 0x9 SWAP3 ADD SWAP2 DUP3 ADD DUP2 SWAP1 MSTORE DUP6 MLOAD PUSH2 0x4032 DUP2 PUSH1 0xA DUP6 ADD PUSH1 0x20 DUP11 ADD PUSH2 0x3646 JUMP JUMPDEST PUSH1 0xA SWAP3 ADD SWAP2 DUP3 ADD MSTORE DUP4 MLOAD PUSH2 0x404D DUP2 PUSH1 0xB DUP5 ADD PUSH1 0x20 DUP9 ADD PUSH2 0x3646 JUMP JUMPDEST ADD PUSH1 0xB ADD SWAP7 SWAP6 POP POP POP POP POP POP JUMP JUMPDEST PUSH4 0x4E487B71 PUSH1 0xE0 SHL PUSH1 0x0 MSTORE PUSH1 0x12 PUSH1 0x4 MSTORE PUSH1 0x24 PUSH1 0x0 REVERT JUMPDEST PUSH1 0x0 DUP3 PUSH2 0x4080 JUMPI PUSH2 0x4080 PUSH2 0x405B JUMP JUMPDEST POP MOD SWAP1 JUMP JUMPDEST PUSH1 0x0 DUP3 PUSH2 0x4094 JUMPI PUSH2 0x4094 PUSH2 0x405B JUMP JUMPDEST POP DIV SWAP1 JUMP JUMPDEST PUSH4 0x26B4B71 PUSH1 0xE5 SHL DUP2 MSTORE PUSH1 0x0 DUP3 MLOAD PUSH2 0x3D31 DUP2 PUSH1 0x4 DUP6 ADD PUSH1 0x20 DUP8 ADD PUSH2 0x3646 JUMP JUMPDEST PUSH22 0x2A3434B99030B2323932B9B99034B9903737BA10309 PUSH1 0x55 SHL DUP2 MSTORE PUSH1 0x0 DUP3 MLOAD PUSH2 0x40E9 DUP2 PUSH1 0x16 DUP6 ADD PUSH1 0x20 DUP8 ADD PUSH2 0x3646 JUMP JUMPDEST SWAP2 SWAP1 SWAP2 ADD PUSH1 0x16 ADD SWAP3 SWAP2 POP POP JUMP JUMPDEST PUSH7 0x2932BB37B5B29 PUSH1 0xCD SHL DUP2 MSTORE PUSH1 0x0 DUP4 MLOAD PUSH2 0x4118 DUP2 PUSH1 0x7 DUP6 ADD PUSH1 0x20 DUP9 ADD PUSH2 0x3646 JUMP JUMPDEST PUSH1 0x1 PUSH1 0xFD SHL PUSH1 0x7 SWAP2 DUP5 ADD SWAP2 DUP3 ADD MSTORE DUP4 MLOAD PUSH2 0x4139 DUP2 PUSH1 0x8 DUP5 ADD PUSH1 0x20 DUP9 ADD PUSH2 0x3646 JUMP JUMPDEST ADD PUSH1 0x8 ADD SWAP5 SWAP4 POP POP POP POP JUMP JUMPDEST PUSH4 0xFFFFFFFF DUP3 DUP2 AND DUP3 DUP3 AND SUB SWAP1 DUP1 DUP3 GT ISZERO PUSH2 0x3E48 JUMPI PUSH2 0x3E48 PUSH2 0x3C41 JUMP JUMPDEST PUSH1 0xFF DUP3 DUP2 AND DUP3 DUP3 AND SUB SWAP1 DUP2 GT ISZERO PUSH2 0x604 JUMPI PUSH2 0x604 PUSH2 0x3C41 JUMP JUMPDEST PUSH1 0x1F DUP3 GT ISZERO PUSH2 0x880 JUMPI PUSH1 0x0 DUP2 DUP2 MSTORE PUSH1 0x20 DUP2 KECCAK256 PUSH1 0x1F DUP6 ADD PUSH1 0x5 SHR DUP2 ADD PUSH1 0x20 DUP7 LT ISZERO PUSH2 0x41A2 JUMPI POP DUP1 JUMPDEST PUSH1 0x1F DUP6 ADD PUSH1 0x5 SHR DUP3 ADD SWAP2 POP JUMPDEST DUP2 DUP2 LT ISZERO PUSH2 0x16F3 JUMPI DUP3 DUP2 SSTORE PUSH1 0x1 ADD PUSH2 0x41AE JUMP JUMPDEST DUP2 MLOAD PUSH8 0xFFFFFFFFFFFFFFFF DUP2 GT ISZERO PUSH2 0x41DB JUMPI PUSH2 0x41DB PUSH2 0x3A3A JUMP JUMPDEST PUSH2 0x41EF DUP2 PUSH2 0x41E9 DUP5 SLOAD PUSH2 0x3C7F JUMP JUMPDEST DUP5 PUSH2 0x417B JUMP JUMPDEST PUSH1 0x20 DUP1 PUSH1 0x1F DUP4 GT PUSH1 0x1 DUP2 EQ PUSH2 0x4224 JUMPI PUSH1 0x0 DUP5 ISZERO PUSH2 0x420C JUMPI POP DUP6 DUP4 ADD MLOAD JUMPDEST PUSH1 0x0 NOT PUSH1 0x3 DUP7 SWAP1 SHL SHR NOT AND PUSH1 0x1 DUP6 SWAP1 SHL OR DUP6 SSTORE PUSH2 0x16F3 JUMP JUMPDEST PUSH1 0x0 DUP6 DUP2 MSTORE PUSH1 0x20 DUP2 KECCAK256 PUSH1 0x1F NOT DUP7 AND SWAP2 JUMPDEST DUP3 DUP2 LT ISZERO PUSH2 0x4253 JUMPI DUP9 DUP7 ADD MLOAD DUP3 SSTORE SWAP5 DUP5 ADD SWAP5 PUSH1 0x1 SWAP1 SWAP2 ADD SWAP1 DUP5 ADD PUSH2 0x4234 JUMP JUMPDEST POP DUP6 DUP3 LT ISZERO PUSH2 0x4271 JUMPI DUP8 DUP6 ADD MLOAD PUSH1 0x0 NOT PUSH1 0x3 DUP9 SWAP1 SHL PUSH1 0xF8 AND SHR NOT AND DUP2 SSTORE JUMPDEST POP POP POP POP POP PUSH1 0x1 SWAP1 DUP2 SHL ADD SWAP1 SSTORE POP JUMP JUMPDEST PUSH1 0x0 PUSH1 0xFF DUP3 AND PUSH1 0xFF DUP2 SUB PUSH2 0x4297 JUMPI PUSH2 0x4297 PUSH2 0x3C41 JUMP JUMPDEST PUSH1 0x1 ADD SWAP3 SWAP2 POP POP JUMP JUMPDEST PUSH1 0xFF DUP2 DUP2 AND DUP4 DUP3 AND ADD SWAP1 DUP2 GT ISZERO PUSH2 0x604 JUMPI PUSH2 0x604 PUSH2 0x3C41 JUMP JUMPDEST DUP5 DUP2 MSTORE PUSH1 0x80 DUP2 ADD PUSH2 0x42CD PUSH1 0x20 DUP4 ADD DUP7 PUSH2 0x3823 JUMP JUMPDEST PUSH2 0x42DA PUSH1 0x40 DUP4 ADD DUP6 PUSH2 0x3837 JUMP JUMPDEST PUSH2 0x42E7 PUSH1 0x60 DUP4 ADD DUP5 PUSH2 0x3847 JUMP JUMPDEST SWAP6 SWAP5 POP POP POP POP POP JUMP JUMPDEST PUSH1 0x0 DUP1 DUP4 SLOAD PUSH2 0x42FE DUP2 PUSH2 0x3C7F JUMP JUMPDEST PUSH1 0x1 DUP3 DUP2 AND DUP1 ISZERO PUSH2 0x4316 JUMPI PUSH1 0x1 DUP2 EQ PUSH2 0x432B JUMPI PUSH2 0x435A JUMP JUMPDEST PUSH1 0xFF NOT DUP5 AND DUP8 MSTORE DUP3 ISZERO ISZERO DUP4 MUL DUP8 ADD SWAP5 POP PUSH2 0x435A JUMP JUMPDEST DUP8 PUSH1 0x0 MSTORE PUSH1 0x20 DUP1 PUSH1 0x0 KECCAK256 PUSH1 0x0 JUMPDEST DUP6 DUP2 LT ISZERO PUSH2 0x4351 JUMPI DUP2 SLOAD DUP11 DUP3 ADD MSTORE SWAP1 DUP5 ADD SWAP1 DUP3 ADD PUSH2 0x4338 JUMP JUMPDEST POP POP POP DUP3 DUP8 ADD SWAP5 POP JUMPDEST POP SWAP3 SWAP7 SWAP6 POP POP POP POP POP POP JUMP JUMPDEST PUSH1 0x0 DUP3 MLOAD PUSH2 0x4378 DUP2 DUP5 PUSH1 0x20 DUP8 ADD PUSH2 0x3646 JUMP JUMPDEST SWAP2 SWAP1 SWAP2 ADD SWAP3 SWAP2 POP POP JUMP JUMPDEST PUSH32 0x416363657373436F6E74726F6C3A206163636F756E7420000000000000000000 DUP2 MSTORE PUSH1 0x0 DUP4 MLOAD PUSH2 0x43BA DUP2 PUSH1 0x17 DUP6 ADD PUSH1 0x20 DUP9 ADD PUSH2 0x3646 JUMP JUMPDEST PUSH17 0x1034B99036B4B9B9B4B733903937B6329 PUSH1 0x7D SHL PUSH1 0x17 SWAP2 DUP5 ADD SWAP2 DUP3 ADD MSTORE DUP4 MLOAD PUSH2 0x43EB DUP2 PUSH1 0x28 DUP5 ADD PUSH1 0x20 DUP9 ADD PUSH2 0x3646 JUMP JUMPDEST ADD PUSH1 0x28 ADD SWAP5 SWAP4 POP POP POP POP JUMP JUMPDEST PUSH1 0x0 DUP2 PUSH2 0x4406 JUMPI PUSH2 0x4406 PUSH2 0x3C41 JUMP JUMPDEST POP PUSH1 0x0 NOT ADD SWAP1 JUMP INVALID 0xB4 BALANCE 0xA6 SWAP8 DUP4 LOG2 0x49 BYTE 0xC BLOCKHASH 0xF CALL PUSH14 0xAB32CD442ABF8FE5AF63A526A724 DUP14 PUSH20 0x192F8562618DBCF74B61AE5B0F229FE40BA6D5B PUSH11 0xE6B4248F8C89A870DDA7C7 PUSH18 0x35F6D646AE07EB0D0F77457502A65E740793 0xD SELFDESTRUCT 0x4C 0xD4 REVERT SWAP10 0xAB 0xC6 0xAA 0xC8 PUSH27 0x753F4C8A42A26469706673582212204941B3607EF577EEFDDC95FA 0xAD 0xFB 0xCD 0x5E 0xAB 0xD5 GT 0xFB 0xE3 0xC9 DUP4 PUSH6 0xCC75BFAEAABE SWAP11 JUMPDEST PUSH5 0x736F6C6343 STOP ADDMOD SGT STOP CALLER 0x4B 0xBE 0xB6 REVERT RETURNDATACOPY MSTORE 0x22 0xE5 0x5F 0x2F DUP12 0xC CALLDATALOAD 0xBC 0x22 DUP15 EXP MOD LOG2 0x5D 0xD 0xA7 PUSH19 0xFDB02C3B92FA004F88D646AE07EB0D0F774575 MUL 0xA6 0x5E PUSH21 0x7930DFF4CD4FD99ABC6AAC87A753F4C8A42000000 "},"methodIdentifiers":{"CERTIFIER()":"b86bc74f","CERTIFIER_ADMIN()":"e05f2fb4","DEFAULT_ADMIN_ROLE()":"a217fddf","MAX_CERTIFIERS()":"5907ebea","MAX_CERTIFIERS_ADMIN()":"9e339909","MIN_CERTIFIERS_ADMIN()":"33b72e49","PERCENT_TO_CERTIFY()":"6bc6421b","PERCENT_TO_DELETE_STUDENT()":"d0fb68c7","PERCENT_TO_EDIT_CERTIFICATE()":"2cd94e4f","PERCENT_TO_GRANT_CERTIFIER()":"4da11a20","PERCENT_TO_GRANT_CERTIFIER_ADMIN()":"0f68794a","PERCENT_TO_REVOKE_CERTIFIER()":"1a9cfe28","PERCENT_TO_REVOKE_CERTIFIER_ADMIN()":"7cd29fb7","addToStr(address)":"12ac167c","ceilUDiv(uint256,uint256)":"bf802091","certificates(bytes32)":"742f0688","certificatesByStudent(uint256,uint256)":"4cce913b","certify(uint256,uint8,uint8,uint8,bool)":"ace81910","createStudent(uint256,string,string,uint256)":"a1cebf52","deleteCertificate(uint256,uint8,uint8,uint8,bool)":"8856a0e9","editStudentById(uint256,string,string,uint256)":"c9dbcfda","getAllMultiSig(address)":"8e82d0e7","getCertificatesByStudent(uint256)":"e5a357f5","getCertificationById(bytes32)":"d911f553","getRoleAdmin(bytes32)":"248a9ca3","getRoleMembersNb(bytes32)":"a3eabd3d","getStudent(uint256)":"642f9163","grantAnyRole(bytes32,address,bool)":"719129be","grantRole(bytes32,address)":"2f2ff15d","hasRole(bytes32,address)":"91d14854","multiSig(bytes32)":"1a968069","multiSigId(uint256)":"9dd09a73","removeStudentById(uint256,bool)":"05f84d45","renounceRole(bytes32,address)":"36568abe","revokeAnyRole(bytes32,address,bool)":"d3243ad8","revokeRole(bytes32,address)":"d547741f","students(uint256)":"06ead22e","studentsIds(uint256)":"df3a12dd","supportsInterface(bytes4)":"01ffc9a7"}}}}}