{"contracts/utils/AddressToString.sol":{"AddressToString":{"abi":[{"inputs":[{"internalType":"address","name":"_address","type":"address"}],"name":"addToStr","outputs":[{"internalType":"string","name":"","type":"string"}],"stateMutability":"pure","type":"function"}],"evm":{"bytecode":{"linkReferences":{},"object":"608060405234801561001057600080fd5b5061036d806100206000396000f3fe608060405234801561001057600080fd5b506004361061002b5760003560e01c806312ac167c14610030575b600080fd5b61004361003e366004610244565b610059565b6040516100509190610274565b60405180910390f35b604080518082018252601081526f181899199a1a9b1b9c1cb0b131b232b360811b60208201528151602a80825260608281019094526001600160a01b0385169291600091602082018180368337019050509050600360fc1b816000815181106100c4576100c46102c2565b60200101906001600160f81b031916908160001a905350600f60fb1b816001815181106100f3576100f36102c2565b60200101906001600160f81b031916908160001a90535060005b601481101561023b578260048561012584600c6102ee565b60208110610135576101356102c2565b1a60f81b6001600160f81b031916901c60f81c60ff168151811061015b5761015b6102c2565b01602001516001600160f81b03191682610176836002610307565b6101819060026102ee565b81518110610191576101916102c2565b60200101906001600160f81b031916908160001a90535082846101b583600c6102ee565b602081106101c5576101c56102c2565b825191901a600f169081106101dc576101dc6102c2565b01602001516001600160f81b031916826101f7836002610307565b6102029060036102ee565b81518110610212576102126102c2565b60200101906001600160f81b031916908160001a905350806102338161031e565b91505061010d565b50949350505050565b60006020828403121561025657600080fd5b81356001600160a01b038116811461026d57600080fd5b9392505050565b600060208083528351808285015260005b818110156102a157858101830151858201604001528201610285565b506000604082860101526040601f19601f8301168501019250505092915050565b634e487b7160e01b600052603260045260246000fd5b634e487b7160e01b600052601160045260246000fd5b80820180821115610301576103016102d8565b92915050565b8082028115828204841417610301576103016102d8565b600060018201610330576103306102d8565b506001019056fea26469706673582212209f4f230edd8ab2f497cf05443e0c26e7817a4a9ecdad82276465a287f5fe044364736f6c63430008130033","opcodes":"PUSH1 0x80 PUSH1 0x40 MSTORE CALLVALUE DUP1 ISZERO PUSH2 0x10 JUMPI PUSH1 0x0 DUP1 REVERT JUMPDEST POP PUSH2 0x36D DUP1 PUSH2 0x20 PUSH1 0x0 CODECOPY PUSH1 0x0 RETURN INVALID PUSH1 0x80 PUSH1 0x40 MSTORE CALLVALUE DUP1 ISZERO PUSH2 0x10 JUMPI PUSH1 0x0 DUP1 REVERT JUMPDEST POP PUSH1 0x4 CALLDATASIZE LT PUSH2 0x2B JUMPI PUSH1 0x0 CALLDATALOAD PUSH1 0xE0 SHR DUP1 PUSH4 0x12AC167C EQ PUSH2 0x30 JUMPI JUMPDEST PUSH1 0x0 DUP1 REVERT JUMPDEST PUSH2 0x43 PUSH2 0x3E CALLDATASIZE PUSH1 0x4 PUSH2 0x244 JUMP JUMPDEST PUSH2 0x59 JUMP JUMPDEST PUSH1 0x40 MLOAD PUSH2 0x50 SWAP2 SWAP1 PUSH2 0x274 JUMP JUMPDEST PUSH1 0x40 MLOAD DUP1 SWAP2 SUB SWAP1 RETURN JUMPDEST PUSH1 0x40 DUP1 MLOAD DUP1 DUP3 ADD DUP3 MSTORE PUSH1 0x10 DUP2 MSTORE PUSH16 0x181899199A1A9B1B9C1CB0B131B232B3 PUSH1 0x81 SHL PUSH1 0x20 DUP3 ADD MSTORE DUP2 MLOAD PUSH1 0x2A DUP1 DUP3 MSTORE PUSH1 0x60 DUP3 DUP2 ADD SWAP1 SWAP5 MSTORE PUSH1 0x1 PUSH1 0x1 PUSH1 0xA0 SHL SUB DUP6 AND SWAP3 SWAP2 PUSH1 0x0 SWAP2 PUSH1 0x20 DUP3 ADD DUP2 DUP1 CALLDATASIZE DUP4 CALLDATACOPY ADD SWAP1 POP POP SWAP1 POP PUSH1 0x3 PUSH1 0xFC SHL DUP2 PUSH1 0x0 DUP2 MLOAD DUP2 LT PUSH2 0xC4 JUMPI PUSH2 0xC4 PUSH2 0x2C2 JUMP JUMPDEST PUSH1 0x20 ADD ADD SWAP1 PUSH1 0x1 PUSH1 0x1 PUSH1 0xF8 SHL SUB NOT AND SWAP1 DUP2 PUSH1 0x0 BYTE SWAP1 MSTORE8 POP PUSH1 0xF PUSH1 0xFB SHL DUP2 PUSH1 0x1 DUP2 MLOAD DUP2 LT PUSH2 0xF3 JUMPI PUSH2 0xF3 PUSH2 0x2C2 JUMP JUMPDEST PUSH1 0x20 ADD ADD SWAP1 PUSH1 0x1 PUSH1 0x1 PUSH1 0xF8 SHL SUB NOT AND SWAP1 DUP2 PUSH1 0x0 BYTE SWAP1 MSTORE8 POP PUSH1 0x0 JUMPDEST PUSH1 0x14 DUP2 LT ISZERO PUSH2 0x23B JUMPI DUP3 PUSH1 0x4 DUP6 PUSH2 0x125 DUP5 PUSH1 0xC PUSH2 0x2EE JUMP JUMPDEST PUSH1 0x20 DUP2 LT PUSH2 0x135 JUMPI PUSH2 0x135 PUSH2 0x2C2 JUMP JUMPDEST BYTE PUSH1 0xF8 SHL PUSH1 0x1 PUSH1 0x1 PUSH1 0xF8 SHL SUB NOT AND SWAP1 SHR PUSH1 0xF8 SHR PUSH1 0xFF AND DUP2 MLOAD DUP2 LT PUSH2 0x15B JUMPI PUSH2 0x15B PUSH2 0x2C2 JUMP JUMPDEST ADD PUSH1 0x20 ADD MLOAD PUSH1 0x1 PUSH1 0x1 PUSH1 0xF8 SHL SUB NOT AND DUP3 PUSH2 0x176 DUP4 PUSH1 0x2 PUSH2 0x307 JUMP JUMPDEST PUSH2 0x181 SWAP1 PUSH1 0x2 PUSH2 0x2EE JUMP JUMPDEST DUP2 MLOAD DUP2 LT PUSH2 0x191 JUMPI PUSH2 0x191 PUSH2 0x2C2 JUMP JUMPDEST PUSH1 0x20 ADD ADD SWAP1 PUSH1 0x1 PUSH1 0x1 PUSH1 0xF8 SHL SUB NOT AND SWAP1 DUP2 PUSH1 0x0 BYTE SWAP1 MSTORE8 POP DUP3 DUP5 PUSH2 0x1B5 DUP4 PUSH1 0xC PUSH2 0x2EE JUMP JUMPDEST PUSH1 0x20 DUP2 LT PUSH2 0x1C5 JUMPI PUSH2 0x1C5 PUSH2 0x2C2 JUMP JUMPDEST DUP3 MLOAD SWAP2 SWAP1 BYTE PUSH1 0xF AND SWAP1 DUP2 LT PUSH2 0x1DC JUMPI PUSH2 0x1DC PUSH2 0x2C2 JUMP JUMPDEST ADD PUSH1 0x20 ADD MLOAD PUSH1 0x1 PUSH1 0x1 PUSH1 0xF8 SHL SUB NOT AND DUP3 PUSH2 0x1F7 DUP4 PUSH1 0x2 PUSH2 0x307 JUMP JUMPDEST PUSH2 0x202 SWAP1 PUSH1 0x3 PUSH2 0x2EE JUMP JUMPDEST DUP2 MLOAD DUP2 LT PUSH2 0x212 JUMPI PUSH2 0x212 PUSH2 0x2C2 JUMP JUMPDEST PUSH1 0x20 ADD ADD SWAP1 PUSH1 0x1 PUSH1 0x1 PUSH1 0xF8 SHL SUB NOT AND SWAP1 DUP2 PUSH1 0x0 BYTE SWAP1 MSTORE8 POP DUP1 PUSH2 0x233 DUP2 PUSH2 0x31E JUMP JUMPDEST SWAP2 POP POP PUSH2 0x10D JUMP JUMPDEST POP SWAP5 SWAP4 POP POP POP POP JUMP JUMPDEST PUSH1 0x0 PUSH1 0x20 DUP3 DUP5 SUB SLT ISZERO PUSH2 0x256 JUMPI PUSH1 0x0 DUP1 REVERT JUMPDEST DUP2 CALLDATALOAD PUSH1 0x1 PUSH1 0x1 PUSH1 0xA0 SHL SUB DUP2 AND DUP2 EQ PUSH2 0x26D JUMPI PUSH1 0x0 DUP1 REVERT JUMPDEST SWAP4 SWAP3 POP POP POP JUMP JUMPDEST PUSH1 0x0 PUSH1 0x20 DUP1 DUP4 MSTORE DUP4 MLOAD DUP1 DUP3 DUP6 ADD MSTORE PUSH1 0x0 JUMPDEST DUP2 DUP2 LT ISZERO PUSH2 0x2A1 JUMPI DUP6 DUP2 ADD DUP4 ADD MLOAD DUP6 DUP3 ADD PUSH1 0x40 ADD MSTORE DUP3 ADD PUSH2 0x285 JUMP JUMPDEST POP PUSH1 0x0 PUSH1 0x40 DUP3 DUP7 ADD ADD MSTORE PUSH1 0x40 PUSH1 0x1F NOT PUSH1 0x1F DUP4 ADD AND DUP6 ADD ADD SWAP3 POP POP POP SWAP3 SWAP2 POP POP JUMP JUMPDEST PUSH4 0x4E487B71 PUSH1 0xE0 SHL PUSH1 0x0 MSTORE PUSH1 0x32 PUSH1 0x4 MSTORE PUSH1 0x24 PUSH1 0x0 REVERT JUMPDEST PUSH4 0x4E487B71 PUSH1 0xE0 SHL PUSH1 0x0 MSTORE PUSH1 0x11 PUSH1 0x4 MSTORE PUSH1 0x24 PUSH1 0x0 REVERT JUMPDEST DUP1 DUP3 ADD DUP1 DUP3 GT ISZERO PUSH2 0x301 JUMPI PUSH2 0x301 PUSH2 0x2D8 JUMP JUMPDEST SWAP3 SWAP2 POP POP JUMP JUMPDEST DUP1 DUP3 MUL DUP2 ISZERO DUP3 DUP3 DIV DUP5 EQ OR PUSH2 0x301 JUMPI PUSH2 0x301 PUSH2 0x2D8 JUMP JUMPDEST PUSH1 0x0 PUSH1 0x1 DUP3 ADD PUSH2 0x330 JUMPI PUSH2 0x330 PUSH2 0x2D8 JUMP JUMPDEST POP PUSH1 0x1 ADD SWAP1 JUMP INVALID LOG2 PUSH5 0x6970667358 0x22 SLT KECCAK256 SWAP16 0x4F 0x23 0xE 0xDD DUP11 0xB2 DELEGATECALL SWAP8 0xCF SDIV PREVRANDAO RETURNDATACOPY 0xC 0x26 0xE7 DUP2 PUSH27 0x4A9ECDAD82276465A287F5FE044364736F6C634300081300330000 "},"methodIdentifiers":{"addToStr(address)":"12ac167c"}}}}}