{"contracts/Certifications.sol":{"Certifications":{"abi":[{"inputs":[{"internalType":"address","name":"certifier_admin1","type":"address"},{"internalType":"address","name":"certifier_admin2","type":"address"}],"stateMutability":"nonpayable","type":"constructor"},{"anonymous":false,"inputs":[{"indexed":true,"internalType":"bytes32","name":"role","type":"bytes32"},{"indexed":true,"internalType":"bytes32","name":"previousAdminRole","type":"bytes32"},{"indexed":true,"internalType":"bytes32","name":"newAdminRole","type":"bytes32"}],"name":"RoleAdminChanged","type":"event"},{"anonymous":false,"inputs":[{"indexed":true,"internalType":"bytes32","name":"role","type":"bytes32"},{"indexed":true,"internalType":"address","name":"account","type":"address"},{"indexed":true,"internalType":"address","name":"sender","type":"address"}],"name":"RoleGranted","type":"event"},{"anonymous":false,"inputs":[{"indexed":true,"internalType":"bytes32","name":"role","type":"bytes32"},{"indexed":true,"internalType":"address","name":"account","type":"address"},{"indexed":true,"internalType":"address","name":"sender","type":"address"}],"name":"RoleRevoked","type":"event"},{"anonymous":false,"inputs":[{"indexed":false,"internalType":"uint256","name":"id","type":"uint256"},{"indexed":false,"internalType":"string","name":"firstname","type":"string"},{"indexed":false,"internalType":"string","name":"lastname","type":"string"},{"indexed":false,"internalType":"uint256","name":"birthdate","type":"uint256"}],"name":"StudentAdded","type":"event"},{"anonymous":false,"inputs":[{"indexed":false,"internalType":"uint256","name":"id","type":"uint256"}],"name":"StudentDeleted","type":"event"},{"anonymous":false,"inputs":[{"indexed":false,"internalType":"uint256","name":"id","type":"uint256"},{"indexed":false,"internalType":"string","name":"firstname","type":"string"},{"indexed":false,"internalType":"string","name":"lastname","type":"string"},{"indexed":false,"internalType":"uint256","name":"birthdate","type":"uint256"}],"name":"StudentEdited","type":"event"},{"anonymous":false,"inputs":[{"indexed":false,"internalType":"uint256","name":"studentId","type":"uint256"},{"indexed":false,"internalType":"enum Certifications.appreciation","name":"appreciation","type":"uint8"},{"indexed":false,"internalType":"enum Certifications.degree","name":"degree","type":"uint8"},{"indexed":false,"internalType":"enum Certifications.program","name":"program","type":"uint8"}],"name":"certificationEmited","type":"event"},{"anonymous":false,"inputs":[{"indexed":false,"internalType":"bytes32","name":"multiSigName","type":"bytes32"}],"name":"multiSigCleared","type":"event"},{"anonymous":false,"inputs":[{"indexed":false,"internalType":"bytes32","name":"multiSigName","type":"bytes32"}],"name":"multiSigSigned","type":"event"},{"inputs":[],"name":"CERTIFIER","outputs":[{"internalType":"bytes32","name":"","type":"bytes32"}],"stateMutability":"view","type":"function"},{"inputs":[],"name":"CERTIFIER_ADMIN","outputs":[{"internalType":"bytes32","name":"","type":"bytes32"}],"stateMutability":"view","type":"function"},{"inputs":[],"name":"DEFAULT_ADMIN_ROLE","outputs":[{"internalType":"bytes32","name":"","type":"bytes32"}],"stateMutability":"view","type":"function"},{"inputs":[],"name":"MAX_CERTIFIERS","outputs":[{"internalType":"uint8","name":"","type":"uint8"}],"stateMutability":"view","type":"function"},{"inputs":[],"name":"MAX_CERTIFIERS_ADMIN","outputs":[{"internalType":"uint8","name":"","type":"uint8"}],"stateMutability":"view","type":"function"},{"inputs":[],"name":"MIN_CERTIFIERS_ADMIN","outputs":[{"internalType":"uint8","name":"","type":"uint8"}],"stateMutability":"view","type":"function"},{"inputs":[],"name":"PERCENT_TO_CERTIFY","outputs":[{"internalType":"uint8","name":"","type":"uint8"}],"stateMutability":"view","type":"function"},{"inputs":[],"name":"PERCENT_TO_DELETE_STUDENT","outputs":[{"internalType":"uint8","name":"","type":"uint8"}],"stateMutability":"view","type":"function"},{"inputs":[],"name":"PERCENT_TO_EDIT_CERTIFICATE","outputs":[{"internalType":"uint8","name":"","type":"uint8"}],"stateMutability":"view","type":"function"},{"inputs":[],"name":"PERCENT_TO_GRANT_CERTIFIER","outputs":[{"internalType":"uint8","name":"","type":"uint8"}],"stateMutability":"view","type":"function"},{"inputs":[],"name":"PERCENT_TO_GRANT_CERTIFIER_ADMIN","outputs":[{"internalType":"uint8","name":"","type":"uint8"}],"stateMutability":"view","type":"function"},{"inputs":[],"name":"PERCENT_TO_REVOKE_CERTIFIER","outputs":[{"internalType":"uint8","name":"","type":"uint8"}],"stateMutability":"view","type":"function"},{"inputs":[],"name":"PERCENT_TO_REVOKE_CERTIFIER_ADMIN","outputs":[{"internalType":"uint8","name":"","type":"uint8"}],"stateMutability":"view","type":"function"},{"inputs":[{"internalType":"uint256","name":"a","type":"uint256"},{"internalType":"uint256","name":"b","type":"uint256"}],"name":"ceilUDiv","outputs":[{"internalType":"uint256","name":"","type":"uint256"}],"stateMutability":"pure","type":"function"},{"inputs":[{"internalType":"bytes32","name":"","type":"bytes32"}],"name":"certificates","outputs":[{"internalType":"enum Certifications.appreciation","name":"appreciation","type":"uint8"},{"internalType":"enum Certifications.degree","name":"degree","type":"uint8"},{"internalType":"enum Certifications.program","name":"program","type":"uint8"},{"internalType":"uint256","name":"creation_date","type":"uint256"},{"internalType":"bool","name":"validity","type":"bool"},{"internalType":"uint256","name":"stud_id","type":"uint256"}],"stateMutability":"view","type":"function"},{"inputs":[{"internalType":"uint256","name":"","type":"uint256"},{"internalType":"uint256","name":"","type":"uint256"}],"name":"certificatesByStudent","outputs":[{"internalType":"bytes32","name":"","type":"bytes32"}],"stateMutability":"view","type":"function"},{"inputs":[{"internalType":"uint256","name":"studentId","type":"uint256"},{"internalType":"enum Certifications.appreciation","name":"app","type":"uint8"},{"internalType":"enum Certifications.degree","name":"deg","type":"uint8"},{"internalType":"enum Certifications.program","name":"prog","type":"uint8"},{"internalType":"bool","name":"approve","type":"bool"}],"name":"certify","outputs":[],"stateMutability":"nonpayable","type":"function"},{"inputs":[{"internalType":"uint256","name":"_id","type":"uint256"},{"internalType":"string","name":"_firstname","type":"string"},{"internalType":"string","name":"_lastname","type":"string"},{"internalType":"uint256","name":"_birthdate","type":"uint256"}],"name":"createStudent","outputs":[],"stateMutability":"nonpayable","type":"function"},{"inputs":[{"internalType":"uint256","name":"studentId","type":"uint256"},{"internalType":"enum Certifications.appreciation","name":"app","type":"uint8"},{"internalType":"enum Certifications.degree","name":"deg","type":"uint8"},{"internalType":"enum Certifications.program","name":"prog","type":"uint8"},{"internalType":"bool","name":"approve","type":"bool"}],"name":"deleteCertificate","outputs":[],"stateMutability":"nonpayable","type":"function"},{"inputs":[{"internalType":"uint256","name":"_id","type":"uint256"},{"internalType":"string","name":"_firstname","type":"string"},{"internalType":"string","name":"_lastname","type":"string"},{"internalType":"uint256","name":"_birthdate","type":"uint256"}],"name":"editStudentById","outputs":[],"stateMutability":"nonpayable","type":"function"},{"inputs":[{"internalType":"uint256","name":"_id","type":"uint256"}],"name":"getCertificatesByStudent","outputs":[{"internalType":"bytes32[]","name":"","type":"bytes32[]"}],"stateMutability":"view","type":"function"},{"inputs":[{"internalType":"bytes32","name":"role","type":"bytes32"}],"name":"getRoleAdmin","outputs":[{"internalType":"bytes32","name":"","type":"bytes32"}],"stateMutability":"view","type":"function"},{"inputs":[{"internalType":"uint256","name":"_id","type":"uint256"}],"name":"getStudent","outputs":[{"components":[{"internalType":"uint256","name":"id","type":"uint256"},{"internalType":"string","name":"firstname","type":"string"},{"internalType":"string","name":"lastname","type":"string"},{"internalType":"uint256","name":"birthdate","type":"uint256"}],"internalType":"struct Students.Student","name":"","type":"tuple"}],"stateMutability":"view","type":"function"},{"inputs":[{"internalType":"bytes32","name":"roleHash","type":"bytes32"},{"internalType":"address","name":"target","type":"address"},{"internalType":"bool","name":"approve","type":"bool"}],"name":"grantAnyRole","outputs":[],"stateMutability":"nonpayable","type":"function"},{"inputs":[{"internalType":"bytes32","name":"role","type":"bytes32"},{"internalType":"address","name":"account","type":"address"}],"name":"grantRole","outputs":[],"stateMutability":"nonpayable","type":"function"},{"inputs":[{"internalType":"bytes32","name":"role","type":"bytes32"},{"internalType":"address","name":"account","type":"address"}],"name":"hasRole","outputs":[{"internalType":"bool","name":"","type":"bool"}],"stateMutability":"view","type":"function"},{"inputs":[{"internalType":"bytes32","name":"","type":"bytes32"}],"name":"multiSig","outputs":[{"internalType":"bool","name":"created","type":"bool"},{"internalType":"bytes32","name":"role","type":"bytes32"},{"internalType":"uint8","name":"count","type":"uint8"},{"internalType":"uint8","name":"id","type":"uint8"},{"internalType":"string","name":"info","type":"string"}],"stateMutability":"view","type":"function"},{"inputs":[{"internalType":"uint256","name":"","type":"uint256"}],"name":"multiSigId","outputs":[{"internalType":"bytes32","name":"","type":"bytes32"}],"stateMutability":"view","type":"function"},{"inputs":[{"internalType":"uint256","name":"_id","type":"uint256"},{"internalType":"bool","name":"_approve","type":"bool"}],"name":"removeStudentById","outputs":[],"stateMutability":"nonpayable","type":"function"},{"inputs":[{"internalType":"bytes32","name":"","type":"bytes32"},{"internalType":"address","name":"","type":"address"}],"name":"renounceRole","outputs":[],"stateMutability":"nonpayable","type":"function"},{"inputs":[{"internalType":"bytes32","name":"roleHash","type":"bytes32"},{"internalType":"address","name":"target","type":"address"},{"internalType":"bool","name":"approve","type":"bool"}],"name":"revokeAnyRole","outputs":[],"stateMutability":"nonpayable","type":"function"},{"inputs":[{"internalType":"bytes32","name":"role","type":"bytes32"},{"internalType":"address","name":"account","type":"address"}],"name":"revokeRole","outputs":[],"stateMutability":"nonpayable","type":"function"},{"inputs":[{"internalType":"uint256","name":"","type":"uint256"}],"name":"students","outputs":[{"internalType":"uint256","name":"id","type":"uint256"},{"internalType":"string","name":"firstname","type":"string"},{"internalType":"string","name":"lastname","type":"string"},{"internalType":"uint256","name":"birthdate","type":"uint256"}],"stateMutability":"view","type":"function"},{"inputs":[{"internalType":"uint256","name":"","type":"uint256"}],"name":"studentsIds","outputs":[{"internalType":"uint256","name":"","type":"uint256"}],"stateMutability":"view","type":"function"},{"inputs":[{"internalType":"bytes4","name":"interfaceId","type":"bytes4"}],"name":"supportsInterface","outputs":[{"internalType":"bool","name":"","type":"bool"}],"stateMutability":"view","type":"function"}],"evm":{"bytecode":{"linkReferences":{},"object":"60806040523480156200001157600080fd5b50604051620092dd380380620092dd83398181016040528101906200003791906200099c565b6200005367bce0c7533c9a630d60c01b620007b660201b60201c565b6200006f67da93c48fa161e79d60c01b620007b660201b60201c565b6200008b6796048d7fd2d928c860c01b620007b660201b60201c565b620000a7675f1c668ee669ab0b60c01b620007b660201b60201c565b600073ffffffffffffffffffffffffffffffffffffffff168273ffffffffffffffffffffffffffffffffffffffff160362000119576040517f08c379a0000000000000000000000000000000000000000000000000000000008152600401620001109062000a6a565b60405180910390fd5b6200013567928b579f6f77d60a60c01b620007b660201b60201c565b62000151671eafb37a2fea50c360c01b620007b660201b60201c565b6200016d671c760441a51f00fe60c01b620007b660201b60201c565b6200018967019381ea2a143a2660c01b620007b660201b60201c565b600073ffffffffffffffffffffffffffffffffffffffff168173ffffffffffffffffffffffffffffffffffffffff1603620001fb576040517f08c379a0000000000000000000000000000000000000000000000000000000008152600401620001f29062000b02565b60405180910390fd5b6200021767bf6825f8b726169f60c01b620007b660201b60201c565b62000233674346da88ac06a84360c01b620007b660201b60201c565b6200024f6739aba34486adf0da60c01b620007b660201b60201c565b6200026b670a6059053a04f96460c01b620007b660201b60201c565b8073ffffffffffffffffffffffffffffffffffffffff168273ffffffffffffffffffffffffffffffffffffffff1603620002dc576040517f08c379a0000000000000000000000000000000000000000000000000000000008152600401620002d39062000b9a565b60405180910390fd5b620002f867ae953caa734ab3b060c01b620007b660201b60201c565b6200031467f5900fc41a1b03e060c01b620007b660201b60201c565b62000330678f048ba93c318bdf60c01b620007b660201b60201c565b620003627f4bbeb6fd3e5222e55f2f8b0c35bc228e0a06a25d0da772fdb02c3b92fa004f8883620007b960201b60201c565b6200037e67eabba9f8cd63b62060c01b620007b660201b60201c565b6200039a67a6b100261d7ca0a160c01b620007b660201b60201c565b620003cc7f4bbeb6fd3e5222e55f2f8b0c35bc228e0a06a25d0da772fdb02c3b92fa004f8882620007cf60201b60201c565b620003e8677c8571a546cd703b60c01b620007b660201b60201c565b6040518060e00160405280600263ffffffff168152602001600260ff1663ffffffff168152602001600f60ff1663ffffffff168152602001605060ff168152602001605060ff1681526020017f4bbeb6fd3e5222e55f2f8b0c35bc228e0a06a25d0da772fdb02c3b92fa004f8881526020016040516020016200046b9062000c17565b604051602081830303815290604052620004859062000c77565b815250600360007f4bbeb6fd3e5222e55f2f8b0c35bc228e0a06a25d0da772fdb02c3b92fa004f88815260200190815260200160002060008201518160000160006101000a81548163ffffffff021916908363ffffffff16021790555060208201518160000160046101000a81548163ffffffff021916908363ffffffff16021790555060408201518160000160086101000a81548163ffffffff021916908363ffffffff160217905550606082015181600001600c6101000a81548160ff021916908360ff160217905550608082015181600001600d6101000a81548160ff021916908360ff16021790555060a0820151816001015560c08201518160020155905050620005a5676174d0f42c37649a60c01b620007b660201b60201c565b620005c1672212cda1dcb9ea1260c01b620007b660201b60201c565b620005f47fd646ae07eb0d0f77457502a65e7407930dff4cd4fd99abc6aac87a753f4c8a426000620007b960201b60201c565b6200061067a83a11a74eb277ae60c01b620007b660201b60201c565b6040518060e00160405280600063ffffffff168152602001600063ffffffff168152602001600f60ff1663ffffffff168152602001605060ff168152602001605060ff1681526020017f4bbeb6fd3e5222e55f2f8b0c35bc228e0a06a25d0da772fdb02c3b92fa004f888152602001604051602001620006909062000d37565b604051602081830303815290604052620006aa9062000c77565b815250600360007fd646ae07eb0d0f77457502a65e7407930dff4cd4fd99abc6aac87a753f4c8a42815260200190815260200160002060008201518160000160006101000a81548163ffffffff021916908363ffffffff16021790555060208201518160000160046101000a81548163ffffffff021916908363ffffffff16021790555060408201518160000160086101000a81548163ffffffff021916908363ffffffff160217905550606082015181600001600c6101000a81548160ff021916908360ff160217905550608082015181600001600d6101000a81548160ff021916908360ff16021790555060a0820151816001015560c08201518160020155905050505062000d4e565b50565b620007cb8282620007cf60201b60201c565b5050565b620007e18282620008c060201b60201c565b620008bc57600160008084815260200190815260200160002060000160008373ffffffffffffffffffffffffffffffffffffffff1673ffffffffffffffffffffffffffffffffffffffff16815260200190815260200160002060006101000a81548160ff021916908315150217905550620008616200092a60201b60201c565b73ffffffffffffffffffffffffffffffffffffffff168173ffffffffffffffffffffffffffffffffffffffff16837f2f8788117e7eff1d82e926ec794901d17c78024a50270940304540a733656f0d60405160405180910390a45b5050565b600080600084815260200190815260200160002060000160008373ffffffffffffffffffffffffffffffffffffffff1673ffffffffffffffffffffffffffffffffffffffff16815260200190815260200160002060009054906101000a900460ff16905092915050565b600033905090565b600080fd5b600073ffffffffffffffffffffffffffffffffffffffff82169050919050565b6000620009648262000937565b9050919050565b620009768162000957565b81146200098257600080fd5b50565b60008151905062000996816200096b565b92915050565b60008060408385031215620009b657620009b562000932565b5b6000620009c68582860162000985565b9250506020620009d98582860162000985565b9150509250929050565b600082825260208201905092915050565b7f4365727469666965722061646d696e3120616464726573732063616e6e6f742060008201527f6265203000000000000000000000000000000000000000000000000000000000602082015250565b600062000a52602483620009e3565b915062000a5f82620009f4565b604082019050919050565b6000602082019050818103600083015262000a858162000a43565b9050919050565b7f4365727469666965722061646d696e3220616464726573732063616e6e6f742060008201527f6265203000000000000000000000000000000000000000000000000000000000602082015250565b600062000aea602483620009e3565b915062000af78262000a8c565b604082019050919050565b6000602082019050818103600083015262000b1d8162000adb565b9050919050565b7f436572746966696572206164647265737365732063616e6e6f7420626520746860008201527f652073616d650000000000000000000000000000000000000000000000000000602082015250565b600062000b82602683620009e3565b915062000b8f8262000b24565b604082019050919050565b6000602082019050818103600083015262000bb58162000b73565b9050919050565b600081905092915050565b7f4345525449464945525f41444d494e0000000000000000000000000000000000600082015250565b600062000bff600f8362000bbc565b915062000c0c8262000bc7565b600f82019050919050565b600062000c248262000bf0565b9150819050919050565b600081519050919050565b6000819050602082019050919050565b6000819050919050565b600062000c61825162000c49565b80915050919050565b600082821b905092915050565b600062000c848262000c2e565b8262000c908462000c39565b905062000c9d8162000c53565b9250602082101562000ce05762000cdb7fffffffffffffffffffffffffffffffffffffffffffffffffffffffffffffffff8360200360080262000c6a565b831692505b5050919050565b7f4345525449464945520000000000000000000000000000000000000000000000600082015250565b600062000d1f60098362000bbc565b915062000d2c8262000ce7565b600982019050919050565b600062000d448262000d10565b9150819050919050565b61857f8062000d5e6000396000f3fe608060405234801561001057600080fd5b50600436106102115760003560e01c8063742f068811610125578063b86bc74f116100ad578063d3243ad81161007c578063d3243ad81461064a578063d547741f14610666578063df3a12dd14610682578063e05f2fb4146106b2578063e5a357f5146106d057610211565b8063b86bc74f146105c2578063bf802091146105e0578063c9dbcfda14610610578063d0fb68c71461062c57610211565b80639dd09a73116100f45780639dd09a731461051e5780639e3399091461054e578063a1cebf521461056c578063a217fddf14610588578063ace81910146105a657610211565b8063742f06881461047f5780637cd29fb7146104b45780638856a0e9146104d257806391d14854146104ee57610211565b80632f2ff15d116101a85780634da11a20116101775780634da11a20146103d95780635907ebea146103f7578063642f9163146104155780636bc6421b14610445578063719129be1461046357610211565b80632f2ff15d1461035357806333b72e491461036f57806336568abe1461038d5780634cce913b146103a957610211565b80631a968069116101e45780631a968069146102b35780631a9cfe28146102e7578063248a9ca3146103055780632cd94e4f1461033557610211565b806301ffc9a71461021657806305f84d451461024657806306ead22e146102625780630f68794a14610295575b600080fd5b610230600480360381019061022b9190616098565b610700565b60405161023d91906160e0565b60405180910390f35b610260600480360381019061025b919061615d565b61077a565b005b61027c6004803603810190610277919061619d565b610e87565b60405161028c9493929190616269565b60405180910390f35b61029d610fc7565b6040516102aa91906162d8565b60405180910390f35b6102cd60048036038101906102c89190616329565b610fcc565b6040516102de959493929190616365565b60405180910390f35b6102ef6110b1565b6040516102fc91906162d8565b60405180910390f35b61031f600480360381019061031a9190616329565b6110b6565b60405161032c91906163bf565b60405180910390f35b61033d6110d5565b60405161034a91906162d8565b60405180910390f35b61036d60048036038101906103689190616438565b6110da565b005b6103776110fb565b60405161038491906162d8565b60405180910390f35b6103a760048036038101906103a29190616438565b611100565b005b6103c360048036038101906103be9190616478565b611177565b6040516103d091906163bf565b60405180910390f35b6103e16111a8565b6040516103ee91906162d8565b60405180910390f35b6103ff6111ad565b60405161040c91906162d8565b60405180910390f35b61042f600480360381019061042a919061619d565b6111b2565b60405161043c919061657b565b60405180910390f35b61044d6113fc565b60405161045a91906162d8565b60405180910390f35b61047d6004803603810190610478919061659d565b611401565b005b61049960048036038101906104949190616329565b611c85565b6040516104ab969594939291906166f7565b60405180910390f35b6104bc611cf5565b6040516104c991906162d8565b60405180910390f35b6104ec60048036038101906104e791906167c7565b611cfa565b005b61050860048036038101906105039190616438565b6127bc565b60405161051591906160e0565b60405180910390f35b6105386004803603810190610533919061619d565b612826565b60405161054591906163bf565b60405180910390f35b61055661283e565b60405161056391906162d8565b60405180910390f35b61058660048036038101906105819190616977565b612843565b005b610590612c41565b60405161059d91906163bf565b60405180910390f35b6105c060048036038101906105bb91906167c7565b612c48565b005b6105ca6136cf565b6040516105d791906163bf565b60405180910390f35b6105fa60048036038101906105f59190616478565b6136f3565b6040516106079190616a16565b60405180910390f35b61062a60048036038101906106259190616977565b6137f0565b005b610634613a33565b60405161064191906162d8565b60405180910390f35b610664600480360381019061065f919061659d565b613a38565b005b610680600480360381019061067b9190616438565b6145fc565b005b61069c6004803603810190610697919061619d565b61461d565b6040516106a99190616a16565b60405180910390f35b6106ba614641565b6040516106c791906163bf565b60405180910390f35b6106ea60048036038101906106e5919061619d565b614665565b6040516106f79190616aef565b60405180910390f35b60007f7965db0b000000000000000000000000000000000000000000000000000000007bffffffffffffffffffffffffffffffffffffffffffffffffffffffff1916827bffffffffffffffffffffffffffffffffffffffffffffffffffffffff191614806107735750610772826147b5565b5b9050919050565b61078e677c7927e4b5bd48f460c01b61481f565b6107a267a4ebbaf8faac82d260c01b61481f565b6107b66797b47e77a9a7b3fc60c01b61481f565b6107ca67758438fa606727d960c01b61481f565b6107f47fd646ae07eb0d0f77457502a65e7407930dff4cd4fd99abc6aac87a753f4c8a42336127bc565b610833576040517f08c379a000000000000000000000000000000000000000000000000000000000815260040161082a90616b5d565b60405180910390fd5b61084767589e0c39053cad2660c01b61481f565b61085b6759de4f2a505f6c6d60c01b61481f565b61086f676d4a2d08a14ea23160c01b61481f565b61088367c3b37424d9c469d060c01b61481f565b600082116108c6576040517f08c379a00000000000000000000000000000000000000000000000000000000081526004016108bd90616bc9565b60405180910390fd5b6108da67740ce2464856c2b360c01b61481f565b6108ee676ae93f6bf114c2f760c01b61481f565b610902677a7ed0c4e584401460c01b61481f565b6109166745d4f9869d13660b60c01b61481f565b600060016000848152602001908152602001600020600001540361096f576040517f08c379a000000000000000000000000000000000000000000000000000000000815260040161096690616c35565b60405180910390fd5b610983671cbdd7add0b2dd5c60c01b61481f565b61099767f2a3b9ba0bc2281e60c01b61481f565b6109ab679859be0913bc1e1760c01b61481f565b6000826040516020016109be9190616ccd565b6040516020818303038152906040528051906020012090506109ea678f5912fc196c66fb60c01b61481f565b6109fe67d451ad32aab430b860c01b61481f565b610a67817fd646ae07eb0d0f77457502a65e7407930dff4cd4fd99abc6aac87a753f4c8a4285604051602001610a349190616cf3565b604051602081830303815290604052604051602001610a539190616d65565b604051602081830303815290604052614822565b610a7b672f872260ec70aa8060c01b61481f565b610a8f67e28d98831e470a0e60c01b61481f565b818015610b005750600015156004600083815260200190815260200160002060030160003373ffffffffffffffffffffffffffffffffffffffff1673ffffffffffffffffffffffffffffffffffffffff16815260200190815260200160002060009054906101000a900460ff161515145b15610bc157610b196770e61a765dfb20aa60c01b61481f565b610b2d6768c3bd0af40a1b5d60c01b61481f565b610b41672bc4242ebebe428960c01b61481f565b610b5d60046000838152602001908152602001600020336149c6565b610b7167e87324c8c42b714760c01b61481f565b610b85672c4d7d6a241e4b8960c01b61481f565b7fb431a69783a2491a0c400ff16dab32cd442abf8fe5af63a526a7248d730192f881604051610bb491906163bf565b60405180910390a1610cc7565b610bd567f2f486595854747960c01b61481f565b610be9678e01888c80102d3760c01b61481f565b6000151582151503610cb157610c0967bc51f865c49130a860c01b61481f565b610c1d67f8b6ac0350413cde60c01b61481f565b610c31674f5571dc82a8340f60c01b61481f565b610c4d6004600083815260200190815260200160002033614c48565b610c6167df20ef43cd86120a60c01b61481f565b610c7567f9332553eceb56d860c01b61481f565b7fb431a69783a2491a0c400ff16dab32cd442abf8fe5af63a526a7248d730192f881604051610ca491906163bf565b60405180910390a1610cc6565b610cc5677d4cea3f8d4622d560c01b61481f565b5b5b610cdb67eb262170ab108a0360c01b61481f565b610cef67978f6ecc8f60681960c01b61481f565b610d55605060ff16600360007fd646ae07eb0d0f77457502a65e7407930dff4cd4fd99abc6aac87a753f4c8a42815260200190815260200160002060000160009054906101000a900463ffffffff16610d489190616dca565b63ffffffff1660646136f3565b6004600083815260200190815260200160002060020160009054906101000a900460ff1660ff1610610e6d57610d9567d61646692ed40d1060c01b61481f565b610da967281f41604962ef6360c01b61481f565b610dbd6701dc47e9dc7e2d4960c01b61481f565b610dd860046000838152602001908152602001600020614e00565b610dec67e00c6e3f0d9a678b60c01b61481f565b610e0067211496b55cb50cff60c01b61481f565b7f562618dbcf74b61ae5b0f229fe40ba6d5b6ae6b4248f8c89a870dda7c77135f681604051610e2f91906163bf565b60405180910390a1610e4b67fa27c246eee8a08b60c01b61481f565b610e5f67ba7a7d4f3ff1ed8260c01b61481f565b610e6883614f4d565b610e82565b610e816719a84e662ed6d2e460c01b61481f565b5b505050565b6001602052806000526040600020600091509050806000015490806001018054610eb090616e36565b80601f0160208091040260200160405190810160405280929190818152602001828054610edc90616e36565b8015610f295780601f10610efe57610100808354040283529160200191610f29565b820191906000526020600020905b815481529060010190602001808311610f0c57829003601f168201915b505050505090806002018054610f3e90616e36565b80601f0160208091040260200160405190810160405280929190818152602001828054610f6a90616e36565b8015610fb75780601f10610f8c57610100808354040283529160200191610fb7565b820191906000526020600020905b815481529060010190602001808311610f9a57829003601f168201915b5050505050908060030154905084565b605081565b60046020528060005260406000206000915090508060000160009054906101000a900460ff16908060010154908060020160009054906101000a900460ff16908060020160019054906101000a900460ff169080600501805461102e90616e36565b80601f016020809104026020016040519081016040528092919081815260200182805461105a90616e36565b80156110a75780601f1061107c576101008083540402835291602001916110a7565b820191906000526020600020905b81548152906001019060200180831161108a57829003601f168201915b5050505050905085565b605081565b6000806000838152602001908152602001600020600101549050919050565b605081565b6110e3826110b6565b6110ec8161512f565b6110f68383615143565b505050565b600281565b61111467515d414290ef63a760c01b61481f565b61112867408d4005470649cf60c01b61481f565b61113c679c54a3cc10a34a3d60c01b61481f565b6040517f08c379a000000000000000000000000000000000000000000000000000000000815260040161116e90616ed9565b60405180910390fd5b6008602052816000526040600020818154811061119357600080fd5b90600052602060002001600091509150505481565b605081565b600f81565b6111ba615fa7565b6111ce67cb790d03a7518f8360c01b615223565b6111e267b555f135a018a11560c01b615223565b6111f6674ae94c950c3986de60c01b615223565b61120a67f53eec60b023ab8f60c01b615223565b6000600160008481526020019081526020016000206000015403611263576040517f08c379a000000000000000000000000000000000000000000000000000000000815260040161125a90616f45565b60405180910390fd5b61127767b92caeff1e2c4e7160c01b615223565b61128b67a48a759f9639db6460c01b615223565b61129f67aed08070e6bcf4c660c01b615223565b60016000838152602001908152602001600020604051806080016040529081600082015481526020016001820180546112d790616e36565b80601f016020809104026020016040519081016040528092919081815260200182805461130390616e36565b80156113505780601f1061132557610100808354040283529160200191611350565b820191906000526020600020905b81548152906001019060200180831161133357829003601f168201915b5050505050815260200160028201805461136990616e36565b80601f016020809104026020016040519081016040528092919081815260200182805461139590616e36565b80156113e25780601f106113b7576101008083540402835291602001916113e2565b820191906000526020600020905b8154815290600101906020018083116113c557829003601f168201915b505050505081526020016003820154815250509050919050565b603381565b61141567d285a5263ec8e0f560c01b61481f565b6114296705e4cbcc73c151f360c01b61481f565b61143d6760f35a062167334760c01b61481f565b6000600360008581526020019081526020016000209050611468676596486d69562b7760c01b61481f565b61147c67acefc79e49d8d98e60c01b61481f565b611490670f1dd76d34c817f860c01b61481f565b8060000160009054906101000a900463ffffffff1663ffffffff168160000160089054906101000a900463ffffffff1663ffffffff161181600201546040516020016114dc9190616f86565b6040516020818303038152906040526040516020016114fb9190616fed565b6040516020818303038152906040529061154b576040517f08c379a00000000000000000000000000000000000000000000000000000000081526004016115429190617022565b60405180910390fd5b50611560676751378d318e7c4060c01b61481f565b611574674f87efa02c74e0f260c01b61481f565b61158867df9346bf5f7ff81560c01b61481f565b61159c6735dc9d0c045e8dea60c01b61481f565b6115aa8160010154336127bc565b81600201546040516020016115bf9190616f86565b6040516020818303038152906040526040516020016115de9190617090565b6040516020818303038152906040529061162e576040517f08c379a00000000000000000000000000000000000000000000000000000000081526004016116259190617022565b60405180910390fd5b5061164367b7dbf79ddba2cab760c01b61481f565b61165767825657e0d56be41860c01b61481f565b61166b67dad7eba3d5ea0fc560c01b61481f565b61167f673d21f2ecda879ac760c01b61481f565b6000151561168d85856127bc565b15151481600201546040516020016116a59190616f86565b6040516020818303038152906040526040516020016116c491906170eb565b60405160208183030381529060405290611714576040517f08c379a000000000000000000000000000000000000000000000000000000000815260040161170b9190617022565b60405180910390fd5b5061172967febe2105280dea4660c01b61481f565b61173d67198f1e6710f1936360c01b61481f565b6117516708fddfcc5363932f60c01b61481f565b600083856040516020016117669291906171a5565b60405160208183030381529060405280519060200120905061179267ee4a48e3db8a324560c01b61481f565b6117a66785550dfb5a2fa17e60c01b61481f565b61181881836001015484600201546040516020016117c49190616f86565b604051602081830303815290604052876040516020016117e491906171dc565b604051602081830303815290604052604051602001611804929190617243565b604051602081830303815290604052614822565b61182c67987f0dd0903d99a060c01b61481f565b6118406765417f529339629360c01b61481f565b8280156118b15750600015156004600083815260200190815260200160002060030160003373ffffffffffffffffffffffffffffffffffffffff1673ffffffffffffffffffffffffffffffffffffffff16815260200190815260200160002060009054906101000a900460ff161515145b15611972576118ca671a036548b9454efa60c01b61481f565b6118de678a81a5a89e7249f260c01b61481f565b6118f26704fadf5af7278b0460c01b61481f565b61190e60046000838152602001908152602001600020336149c6565b61192267a15a5378dc28021c60c01b61481f565b6119366721fc27606240057c60c01b61481f565b7fb431a69783a2491a0c400ff16dab32cd442abf8fe5af63a526a7248d730192f88160405161196591906163bf565b60405180910390a1611a78565b61198667e67f2367de48a39660c01b61481f565b61199a673bba1b125be8f21a60c01b61481f565b6000151583151503611a62576119ba67eb5bb2ac8e80d29b60c01b61481f565b6119ce6755ea1935824a5e1860c01b61481f565b6119e2672a12cac354a8e82360c01b61481f565b6119fe6004600083815260200190815260200160002033614c48565b611a126767ec4da59fbc86a160c01b61481f565b611a26676efdddf06ded552e60c01b61481f565b7fb431a69783a2491a0c400ff16dab32cd442abf8fe5af63a526a7248d730192f881604051611a5591906163bf565b60405180910390a1611a77565b611a76678f6d07b51abb6a2460c01b61481f565b5b5b611a8c67a14fb71ba5e7613f60c01b61481f565b611aa067df7dd5880412d4b960c01b61481f565b611afa82600001600c9054906101000a900460ff1660ff16600360008560010154815260200190815260200160002060000160009054906101000a900463ffffffff16611aed9190616dca565b63ffffffff1660646136f3565b6004600083815260200190815260200160002060020160009054906101000a900460ff1660ff1610611c6957611b3a675ff1c5fac858eec960c01b61481f565b611b4e67fe26844b548a837860c01b61481f565b611b626768a51f3c021201cb60c01b61481f565b611b7d60046000838152602001908152602001600020614e00565b611b9167a21e7ebe78774f9060c01b61481f565b611ba567cd288a479316cb8e60c01b61481f565b7f562618dbcf74b61ae5b0f229fe40ba6d5b6ae6b4248f8c89a870dda7c77135f681604051611bd491906163bf565b60405180910390a1611bf067e62655d9c0da73f460c01b61481f565b611c04675d17b8d48239367360c01b61481f565b611c0e8585615143565b611c2267a680bcc96564015d60c01b61481f565b60018260000160008282829054906101000a900463ffffffff16611c469190617285565b92506101000a81548163ffffffff021916908363ffffffff160217905550611c7e565b611c7d674108a0766fb3770f60c01b61481f565b5b5050505050565b60076020528060005260406000206000915090508060000160009054906101000a900460ff16908060000160019054906101000a900460ff16908060000160029054906101000a900460ff16908060010154908060020160009054906101000a900460ff16908060030154905086565b605081565b611d0e679baa3422236fc69f60c01b61481f565b611d2267c5044043363bb23760c01b61481f565b611d3667bfc6b0f370d7024960c01b61481f565b611d4a679ccb8433f30b7f6160c01b61481f565b611d747fd646ae07eb0d0f77457502a65e7407930dff4cd4fd99abc6aac87a753f4c8a42336127bc565b611db3576040517f08c379a0000000000000000000000000000000000000000000000000000000008152600401611daa90616b5d565b60405180910390fd5b611dc7670842a97201189b8b60c01b61481f565b611ddb67ca8d401c43f5f9d760c01b61481f565b611def67e22dcaa2865f121160c01b61481f565b611e03674aba95960958e73260c01b61481f565b6000600160008781526020019081526020016000206000015403611e5c576040517f08c379a0000000000000000000000000000000000000000000000000000000008152600401611e5390616c35565b60405180910390fd5b611e706730249e749f45b5e460c01b61481f565b611e8467374dfd98b823c8cf60c01b61481f565b611e986720270532058f02e560c01b61481f565b611eac679e04f1a5c5bda7df60c01b61481f565b60006003811115611ec057611ebf6165f0565b5b846003811115611ed357611ed26165f0565b5b10158015611f055750600380811115611eef57611eee6165f0565b5b846003811115611f0257611f016165f0565b5b11155b611f44576040517f08c379a0000000000000000000000000000000000000000000000000000000008152600401611f3b90617309565b60405180910390fd5b611f5867d618060faf473a2a60c01b61481f565b611f6c6759aacab69e3a1cf860c01b61481f565b611f80671f8604b2e035df8c60c01b61481f565b611f94674341521415b393ff60c01b61481f565b60006002811115611fa857611fa76165f0565b5b836002811115611fbb57611fba6165f0565b5b10158015611fed5750600280811115611fd757611fd66165f0565b5b836002811115611fea57611fe96165f0565b5b11155b61202c576040517f08c379a000000000000000000000000000000000000000000000000000000000815260040161202390617375565b60405180910390fd5b612040673abda3db58ee88d660c01b61481f565b61205467d0a65ecdfb35759e60c01b61481f565b61206867fecb9a5516d562ad60c01b61481f565b61207c6711522e4c80b8acf560c01b61481f565b6000600f8111156120905761208f6165f0565b5b82600f8111156120a3576120a26165f0565b5b101580156120d55750600f808111156120bf576120be6165f0565b5b82600f8111156120d2576120d16165f0565b5b11155b612114576040517f08c379a000000000000000000000000000000000000000000000000000000000815260040161210b906173e1565b60405180910390fd5b612128675a87c8131b0f347660c01b61481f565b61213c67b52e37c57f13f03660c01b61481f565b61215067c6bc374fa7feff0160c01b61481f565b6121646786ac1e62d24a349860c01b61481f565b6001151560076000878787876040516020016121839493929190617465565b60405160208183030381529060405280519060200120815260200190815260200160002060020160009054906101000a900460ff161515146121fa576040517f08c379a00000000000000000000000000000000000000000000000000000000081526004016121f1906174ff565b60405180910390fd5b61220e679e5c2cdd766b16de60c01b61481f565b6122226753aaaf9320fe18fd60c01b61481f565b61223667ab49e147b91272b360c01b61481f565b60008585858560405160200161224f949392919061756b565b60405160208183030381529060405280519060200120905061227b679ab8a363c1db47f760c01b61481f565b61228f67c80f0b231c338b2d60c01b61481f565b61235b817fd646ae07eb0d0f77457502a65e7407930dff4cd4fd99abc6aac87a753f4c8a42886040516020016122c59190616cf3565b604051602081830303815290604052886040516020016122e591906175c4565b6040516020818303038152906040528860405160200161230591906175df565b6040516020818303038152906040528860405160200161232591906175fa565b604051602081830303815290604052604051602001612347949392919061763b565b604051602081830303815290604052614822565b61236f675397bbbeef836ad860c01b61481f565b612383679b6d6670acbbe93360c01b61481f565b8180156123f45750600015156004600083815260200190815260200160002060030160003373ffffffffffffffffffffffffffffffffffffffff1673ffffffffffffffffffffffffffffffffffffffff16815260200190815260200160002060009054906101000a900460ff161515145b156124b55761240d678dba3cfcdd7ab4ab60c01b61481f565b612421672e1f532eb4156eb560c01b61481f565b61243567b763b8910a23efee60c01b61481f565b61245160046000838152602001908152602001600020336149c6565b61246567acd6a8c8f4d574b660c01b61481f565b612479677697096d64270cdb60c01b61481f565b7fb431a69783a2491a0c400ff16dab32cd442abf8fe5af63a526a7248d730192f8816040516124a891906163bf565b60405180910390a16125bb565b6124c9673318f6946f78197860c01b61481f565b6124dd67d4c4533d7e9a60a660c01b61481f565b60001515821515036125a5576124fd6732954512786739f560c01b61481f565b6125116724bcd6ffdfbd0d4d60c01b61481f565b612525677338a703ca5a2a9660c01b61481f565b6125416004600083815260200190815260200160002033614c48565b612555673b1e688b7d79d00d60c01b61481f565b612569676bea465bb441461060c01b61481f565b7fb431a69783a2491a0c400ff16dab32cd442abf8fe5af63a526a7248d730192f88160405161259891906163bf565b60405180910390a16125ba565b6125b967e8c1fa74bacd7fbb60c01b61481f565b5b5b6125cf671f5319feb6477e3560c01b61481f565b6125e367f438d58dfb1be18260c01b61481f565b612649605060ff16600360007fd646ae07eb0d0f77457502a65e7407930dff4cd4fd99abc6aac87a753f4c8a42815260200190815260200160002060000160009054906101000a900463ffffffff1661263c9190616dca565b63ffffffff1660646136f3565b6004600083815260200190815260200160002060020160009054906101000a900460ff1660ff161061279f57612689678ef10dcaeac9036f60c01b61481f565b61269d6735f2056c8483d80460c01b61481f565b6126b167c187d7d65cf65af260c01b61481f565b6126cc60046000838152602001908152602001600020614e00565b6126e067ade7a62c071e519d60c01b61481f565b6126f4675439b2c4cd16482360c01b61481f565b7f562618dbcf74b61ae5b0f229fe40ba6d5b6ae6b4248f8c89a870dda7c77135f68160405161272391906163bf565b60405180910390a161273f672f6377f918fc3e7460c01b61481f565b6000600760008888888860405160200161275c9493929190617465565b60405160208183030381529060405280519060200120815260200190815260200160002060020160006101000a81548160ff0219169083151502179055506127b4565b6127b36762c646c22c573f3e60c01b61481f565b5b505050505050565b600080600084815260200190815260200160002060000160008373ffffffffffffffffffffffffffffffffffffffff1673ffffffffffffffffffffffffffffffffffffffff16815260200190815260200160002060009054906101000a900460ff16905092915050565b60056020528060005260406000206000915090505481565b600f81565b61285767fc92d0035d00688e60c01b61481f565b61286b67e5a91bfc65f0c4b160c01b61481f565b61287f674900a3687504079c60c01b61481f565b612893674fce23ae6bb9dc7f60c01b61481f565b6128bd7fd646ae07eb0d0f77457502a65e7407930dff4cd4fd99abc6aac87a753f4c8a42336127bc565b6128fc576040517f08c379a00000000000000000000000000000000000000000000000000000000081526004016128f390616b5d565b60405180910390fd5b61291067a37f82e1ae7b555d60c01b61481f565b61292467db9f0c54e294074460c01b61481f565b61293867e392881a64b85dd960c01b61481f565b61294c673b69b5f7da0fc98560c01b61481f565b6000841161298f576040517f08c379a000000000000000000000000000000000000000000000000000000000815260040161298690616bc9565b60405180910390fd5b6129a36739878fdc39193a5c60c01b61481f565b6129b767efd429d53dea246260c01b61481f565b6129cb67ef5c68bad402a4e060c01b61481f565b6129df67b55b9f6d9d1026af60c01b61481f565b6000835111612a23576040517f08c379a0000000000000000000000000000000000000000000000000000000008152600401612a1a90617701565b60405180910390fd5b612a3767c7765049f91a4ef760c01b61481f565b612a4b67a6d489319a22f36060c01b61481f565b612a5f67a5644b271bdebd0560c01b61481f565b612a736773766d50c37ae17460c01b61481f565b6000825111612ab7576040517f08c379a0000000000000000000000000000000000000000000000000000000008152600401612aae9061776d565b60405180910390fd5b612acb678b979d26b761488e60c01b61481f565b612adf674773b74ca2dfd97760c01b61481f565b612af3673a3c8e3b93c77fd760c01b61481f565b612b0767de5b5a61926c36c960c01b61481f565b60008111612b4a576040517f08c379a0000000000000000000000000000000000000000000000000000000008152600401612b41906177d9565b60405180910390fd5b612b5e67fba333423761151560c01b61481f565b612b7267a458fc201c41f2eb60c01b61481f565b612b866732e4132dad12190060c01b61481f565b612b9a675903462ab1321cac60c01b61481f565b6000600160008681526020019081526020016000206000015414612bf3576040517f08c379a0000000000000000000000000000000000000000000000000000000008152600401612bea90617845565b60405180910390fd5b612c076795a317ec06f83c1060c01b61481f565b612c1b67b1d4635b098ce77a60c01b61481f565b612c2f67a0b843672511ab5560c01b61481f565b612c3b84848484615226565b50505050565b6000801b81565b612c5c677ba3d7ad982f17c160c01b61481f565b612c70675ff2fe70f0a1650860c01b61481f565b612c846739d9fb6b575ba4e360c01b61481f565b612c9867248dca5c34ff865b60c01b61481f565b612cc27fd646ae07eb0d0f77457502a65e7407930dff4cd4fd99abc6aac87a753f4c8a42336127bc565b612d01576040517f08c379a0000000000000000000000000000000000000000000000000000000008152600401612cf890616b5d565b60405180910390fd5b612d156752d84047f7ec1fd860c01b61481f565b612d2967ae030a65c15f875560c01b61481f565b612d3d674dbd682bd4fc310660c01b61481f565b612d516714f96b5406597f9960c01b61481f565b6000600160008781526020019081526020016000206000015403612daa576040517f08c379a0000000000000000000000000000000000000000000000000000000008152600401612da190616c35565b60405180910390fd5b612dbe670df07991caef353d60c01b61481f565b612dd267ae62ea1482f5a88360c01b61481f565b612de667163e0e75e54e0c8a60c01b61481f565b612dfa67a4e6a19cbfe5167960c01b61481f565b60006003811115612e0e57612e0d6165f0565b5b846003811115612e2157612e206165f0565b5b10158015612e535750600380811115612e3d57612e3c6165f0565b5b846003811115612e5057612e4f6165f0565b5b11155b612e92576040517f08c379a0000000000000000000000000000000000000000000000000000000008152600401612e8990617309565b60405180910390fd5b612ea6675c78a7177eb1a8fb60c01b61481f565b612eba67bf4499ff51c0c22160c01b61481f565b612ece67822948be4d3ef9a760c01b61481f565b612ee26796129956313adf1b60c01b61481f565b60006002811115612ef657612ef56165f0565b5b836002811115612f0957612f086165f0565b5b10158015612f3b5750600280811115612f2557612f246165f0565b5b836002811115612f3857612f376165f0565b5b11155b612f7a576040517f08c379a0000000000000000000000000000000000000000000000000000000008152600401612f7190617375565b60405180910390fd5b612f8e67a37df02138054e5260c01b61481f565b612fa267b057154329c49bf860c01b61481f565b612fb667e3a8e90515cce0b760c01b61481f565b612fca67b5a228e10270e22560c01b61481f565b6000600f811115612fde57612fdd6165f0565b5b82600f811115612ff157612ff06165f0565b5b101580156130235750600f8081111561300d5761300c6165f0565b5b82600f8111156130205761301f6165f0565b5b11155b613062576040517f08c379a0000000000000000000000000000000000000000000000000000000008152600401613059906173e1565b60405180910390fd5b613076673ddb288b7f8fde5860c01b61481f565b61308a6728ffed5c4bbb136d60c01b61481f565b61309e671a14e86b1536e0c460c01b61481f565b6130b2678190894182f1322760c01b61481f565b6000151560076000878787876040516020016130d19493929190617465565b60405160208183030381529060405280519060200120815260200190815260200160002060020160009054906101000a900460ff16151514613148576040517f08c379a000000000000000000000000000000000000000000000000000000000815260040161313f906178b1565b60405180910390fd5b61315c675e914cc764a08bdc60c01b61481f565b6131706759cb1221e0215d5e60c01b61481f565b613184676d76b91fe9de0f8c60c01b61481f565b60008585858560405160200161319d949392919061791d565b6040516020818303038152906040528051906020012090506131c967bdf8a12455256e9760c01b61481f565b6131dd67ed9c0b858915e64660c01b61481f565b6132a9817fd646ae07eb0d0f77457502a65e7407930dff4cd4fd99abc6aac87a753f4c8a42886040516020016132139190616cf3565b6040516020818303038152906040528860405160200161323391906175c4565b6040516020818303038152906040528860405160200161325391906175df565b6040516020818303038152906040528860405160200161327391906175fa565b604051602081830303815290604052604051602001613295949392919061799c565b604051602081830303815290604052614822565b6132bd67649bd458a200725760c01b61481f565b6132d1670b6b16ea080ccdb260c01b61481f565b8180156133425750600015156004600083815260200190815260200160002060030160003373ffffffffffffffffffffffffffffffffffffffff1673ffffffffffffffffffffffffffffffffffffffff16815260200190815260200160002060009054906101000a900460ff161515145b156134035761335b67689b85ae64f251bf60c01b61481f565b61336f6735e2a6e6763de1be60c01b61481f565b6133836709e04ae92e1584c060c01b61481f565b61339f60046000838152602001908152602001600020336149c6565b6133b3672117bb302f321a4960c01b61481f565b6133c767918f30a7fad8441260c01b61481f565b7fb431a69783a2491a0c400ff16dab32cd442abf8fe5af63a526a7248d730192f8816040516133f691906163bf565b60405180910390a1613509565b613417679d26a0bcae16f15560c01b61481f565b61342b6762560a22786c9d8960c01b61481f565b60001515821515036134f35761344b676ad05dd6ad0c5e8e60c01b61481f565b61345f67b018fb771a8f126a60c01b61481f565b613473673838e17e05cad86e60c01b61481f565b61348f6004600083815260200190815260200160002033614c48565b6134a3673b992ef7312a36a260c01b61481f565b6134b767d1937d9a9d9ede4b60c01b61481f565b7fb431a69783a2491a0c400ff16dab32cd442abf8fe5af63a526a7248d730192f8816040516134e691906163bf565b60405180910390a1613508565b61350767eba93d2f1c3a372560c01b61481f565b5b5b61351d67e583d3490fb5c11a60c01b61481f565b6135316703c216aef0914c7d60c01b61481f565b613597603360ff16600360007fd646ae07eb0d0f77457502a65e7407930dff4cd4fd99abc6aac87a753f4c8a42815260200190815260200160002060000160009054906101000a900463ffffffff1661358a9190616dca565b63ffffffff1660646136f3565b6004600083815260200190815260200160002060020160009054906101000a900460ff1660ff16106136b2576135d767e929230dacd39fc460c01b61481f565b6135eb67f0423ad893494d1f60c01b61481f565b6135ff670e4635f8420cba4d60c01b61481f565b61361a60046000838152602001908152602001600020614e00565b61362e67a8f356ae64e80fb260c01b61481f565b6136426787081979864afeae60c01b61481f565b7f562618dbcf74b61ae5b0f229fe40ba6d5b6ae6b4248f8c89a870dda7c77135f68160405161367191906163bf565b60405180910390a161368d677547dde3e6de66c160c01b61481f565b6136a16776a3d74fa8fa545760c01b61481f565b6136ad868686866154bd565b6136c7565b6136c6674ed9ea8c9338f00060c01b61481f565b5b505050505050565b7fd646ae07eb0d0f77457502a65e7407930dff4cd4fd99abc6aac87a753f4c8a4281565b6000613709676a2ae2a06afe198060c01b61574a565b61371d67e21ac2f9ac7c436060c01b61574a565b61373167b73a8c950c3a10be60c01b61574a565b6000828461373f9190617a45565b0361379357613758672a4e30eba7f2d24560c01b61574a565b61376c67e751e11bf7e00e7560c01b61574a565b61378067c1f8bcae3beada7f60c01b61574a565b818361378c9190617a76565b90506137ea565b6137a767ad8f2ea651454d1d60c01b61574a565b6137bb67b2b9fdbd62eed15560c01b61574a565b6137cf672d541561a735e8b860c01b61574a565b600182846137dd9190617a76565b6137e79190617aa7565b90505b92915050565b61380467553b9ae776c1ac0760c01b61481f565b6138186776e3a440f346f78b60c01b61481f565b61382c672fe19dd197ae71b760c01b61481f565b613840674dadad20973e5e5d60c01b61481f565b61386a7fd646ae07eb0d0f77457502a65e7407930dff4cd4fd99abc6aac87a753f4c8a42336127bc565b6138a9576040517f08c379a00000000000000000000000000000000000000000000000000000000081526004016138a090616b5d565b60405180910390fd5b6138bd67dcfd845b2fe814ee60c01b61481f565b6138d16787c8ea0feda3ada560c01b61481f565b6138e567124f1dad53c69bc560c01b61481f565b6138f9676e8d3572b8c8ba0b60c01b61481f565b6000841161393c576040517f08c379a000000000000000000000000000000000000000000000000000000000815260040161393390616bc9565b60405180910390fd5b61395067ec4e2bcd0646233360c01b61481f565b6139646771868017dd9ea9a260c01b61481f565b61397867ab1bd67fcc0dc4e660c01b61481f565b61398c6714693ce83117a4a660c01b61481f565b60006001600086815260200190815260200160002060000154036139e5576040517f08c379a00000000000000000000000000000000000000000000000000000000081526004016139dc90616c35565b60405180910390fd5b6139f9671ee91d41820de70160c01b61481f565b613a0d6765714ee521157c1660c01b61481f565b613a2167647b5b224d6b094960c01b61481f565b613a2d8484848461574d565b50505050565b605081565b613a4c6737c85746c2f8f06560c01b61481f565b613a60672011fab2eac0049160c01b61481f565b613a746744a1b5a674d397ba60c01b61481f565b6000600360008581526020019081526020016000209050613a9f67356380150091118d60c01b61481f565b613ab367d1da6e531bb5433e60c01b61481f565b613ac7672ee69ee77814874360c01b61481f565b8060000160049054906101000a900463ffffffff1663ffffffff168160000160009054906101000a900463ffffffff1663ffffffff16118160020154604051602001613b139190616f86565b604051602081830303815290604052604051602001613b329190617b01565b60405160208183030381529060405290613b82576040517f08c379a0000000000000000000000000000000000000000000000000000000008152600401613b799190617022565b60405180910390fd5b50613b97671b9e414ab197e55f60c01b61481f565b613bab6714f85a465318971d60c01b61481f565b613bbf67e79b395de5e6d68460c01b61481f565b613bd3675ea5fd91e72c501360c01b61481f565b613bdd84846127bc565b8160020154604051602001613bf29190616f86565b604051602081830303815290604052604051602001613c119190617b5c565b60405160208183030381529060405290613c61576040517f08c379a0000000000000000000000000000000000000000000000000000000008152600401613c589190617022565b60405180910390fd5b50613c766740b5effbe6fbc4ba60c01b61481f565b613c8a67d72dd4e9f32df2a660c01b61481f565b613c9e670ed0a2a914fd84f760c01b61481f565b613cb26787de25c771ec258260c01b61481f565b613cc08160010154336127bc565b8160020154604051602001613cd59190616f86565b604051602081830303815290604052604051602001613cf49190617090565b60405160208183030381529060405290613d44576040517f08c379a0000000000000000000000000000000000000000000000000000000008152600401613d3b9190617022565b60405180910390fd5b50613d59679a8cdfcabcb0dacb60c01b61481f565b613d6d67772e58326b3683ce60c01b61481f565b613d8167f33d304923bb8f1760c01b61481f565b60008385604051602001613d96929190617bce565b604051602081830303815290604052805190602001209050613dc26730dbd22aa968d27a60c01b61481f565b613dd6671045bc06e9ec4a8360c01b61481f565b613e488183600101548460020154604051602001613df49190616f86565b60405160208183030381529060405287604051602001613e1491906171dc565b604051602081830303815290604052604051602001613e34929190617c2b565b604051602081830303815290604052614822565b613e5c67bf20874ded53a20860c01b61481f565b613e7067e36f7f130cb3f21360c01b61481f565b828015613ee15750600015156004600083815260200190815260200160002060030160003373ffffffffffffffffffffffffffffffffffffffff1673ffffffffffffffffffffffffffffffffffffffff16815260200190815260200160002060009054906101000a900460ff161515145b15613fa257613efa6715bd5e551d188d8360c01b61481f565b613f0e67580bbbb9ccbb13be60c01b61481f565b613f226766006dd0f09419f560c01b61481f565b613f3e60046000838152602001908152602001600020336149c6565b613f526720ceeb0471d394b660c01b61481f565b613f6667213863767febee4a60c01b61481f565b7fb431a69783a2491a0c400ff16dab32cd442abf8fe5af63a526a7248d730192f881604051613f9591906163bf565b60405180910390a16140a8565b613fb6672d86523e849fc68d60c01b61481f565b613fca67689f9d36814699ed60c01b61481f565b600015158315150361409257613fea67f194d1ffc0447ea960c01b61481f565b613ffe6789a333387d41a6b660c01b61481f565b614012675da07d83cb2bab9d60c01b61481f565b61402e6004600083815260200190815260200160002033614c48565b61404267f25ac83becfb3ba860c01b61481f565b61405667386935278dae822660c01b61481f565b7fb431a69783a2491a0c400ff16dab32cd442abf8fe5af63a526a7248d730192f88160405161408591906163bf565b60405180910390a16140a7565b6140a667ccb3b5b8af78b2cb60c01b61481f565b5b5b6140bc67e0f5824ede3cb57d60c01b61481f565b6140d067f4b14bead3785a6660c01b61481f565b81600101548514158015614163575061413982600001600d9054906101000a900460ff1660ff16600360008560010154815260200190815260200160002060000160009054906101000a900463ffffffff1661412c9190616dca565b63ffffffff1660646136f3565b6004600083815260200190815260200160002060020160009054906101000a900460ff1660ff1610155b801561417f575061417e6743d8ba5b87e2e64860c01b615bc2565b5b80614240575081600101548514801561422357506141f982600001600d9054906101000a900460ff1660ff166001600360008660010154815260200190815260200160002060000160009054906101000a900463ffffffff166141e29190617c6d565b6141ec9190616dca565b63ffffffff1660646136f3565b6004600083815260200190815260200160002060020160009054906101000a900460ff1660ff1610155b801561423f575061423e675882f3b1b847165d60c01b615bc2565b5b5b156145e05761425967ec6dbc09e6a8d3c360c01b61481f565b61426d6787fec01562de0d7760c01b61481f565b61428167b815fa764d360f8060c01b61481f565b60005b6006548110156144b0576142a2676c848ca2d28cc2e760c01b61481f565b6142b66762a5c10409c68fa660c01b61481f565b60011515600460006005600085815260200190815260200160002054815260200190815260200160002060030160008773ffffffffffffffffffffffffffffffffffffffff1673ffffffffffffffffffffffffffffffffffffffff16815260200190815260200160002060009054906101000a900460ff161515148015614365575085600460006005600085815260200190815260200160002054815260200190815260200160002060010154145b156144885761437e6767be7bcfb8b646a360c01b61481f565b61439267ab4b51ef7195398660c01b61481f565b6001600460006005600085815260200190815260200160002054815260200190815260200160002060020160008282829054906101000a900460ff166143d89190617ca5565b92506101000a81548160ff021916908360ff1602179055506144046745513953a8aaed3b60c01b61481f565b6000600460006005600085815260200190815260200160002054815260200190815260200160002060030160008773ffffffffffffffffffffffffffffffffffffffff1673ffffffffffffffffffffffffffffffffffffffff16815260200190815260200160002060006101000a81548160ff02191690831515021790555061449d565b61449c67a0247630c45fc01060c01b61481f565b5b80806144a890617cda565b915050614284565b506144c567cb56c9dffef6c09b60c01b61481f565b6144d9670f6c466182e7daf460c01b61481f565b6144f460046000838152602001908152602001600020614e00565b6145086796af1b9e171f5d0c60c01b61481f565b61451c676ea5a5cfdd40ca7760c01b61481f565b7f562618dbcf74b61ae5b0f229fe40ba6d5b6ae6b4248f8c89a870dda7c77135f68160405161454b91906163bf565b60405180910390a16145676734c805801ad925b460c01b61481f565b61457b67de2808851ea8535860c01b61481f565b6145858585615bcd565b614599677ab469cc82d327c160c01b61481f565b60018260000160008282829054906101000a900463ffffffff166145bd9190617c6d565b92506101000a81548163ffffffff021916908363ffffffff1602179055506145f5565b6145f46734fccb1c2034803560c01b61481f565b5b5050505050565b614605826110b6565b61460e8161512f565b6146188383615bcd565b505050565b6002818154811061462d57600080fd5b906000526020600020016000915090505481565b7f4bbeb6fd3e5222e55f2f8b0c35bc228e0a06a25d0da772fdb02c3b92fa004f8881565b606061467b67220ad4741fc3df5d60c01b61481f565b61468f6799a0b0988af0867760c01b61481f565b6146a3675d49ac61be8ebd7160c01b61481f565b6146b767ac18a9a1ec69e6b860c01b61481f565b6000600160008481526020019081526020016000206000015403614710576040517f08c379a000000000000000000000000000000000000000000000000000000000815260040161470790616c35565b60405180910390fd5b61472467698bf9a5753ef89160c01b61481f565b614738674a780f79854977d860c01b61481f565b61474c6769ad2177cecd222f60c01b61481f565b600860008381526020019081526020016000208054806020026020016040519081016040528092919081815260200182805480156147a957602002820191906000526020600020905b815481526020019060010190808311614795575b50505050509050919050565b60007f01ffc9a7000000000000000000000000000000000000000000000000000000007bffffffffffffffffffffffffffffffffffffffffffffffffffffffff1916827bffffffffffffffffffffffffffffffffffffffffffffffffffffffff1916149050919050565b50565b6148366706ddd2fa1476c45260c01b61481f565b61484a67476c17a0b8385f1760c01b61481f565b61485e671c07e5a9226be91660c01b61481f565b600015156004600085815260200190815260200160002060000160009054906101000a900460ff161515036149ac576148a16707862d5c1055513b60c01b61481f565b6148b56792f115933ddba31c60c01b61481f565b60016004600085815260200190815260200160002060000160006101000a81548160ff0219169083151502179055506148f867f700b95d536177f360c01b61481f565b82600560006006548152602001908152602001600020819055506149266782a82f6f1bd2c11660c01b61481f565b6001600660008282546149399190617aa7565b92505081905550614954672e2eef9c059dc20760c01b61481f565b816004600085815260200190815260200160002060010181905550614983672071df197b17f30b60c01b61481f565b806004600085815260200190815260200160002060050190816149a69190617ece565b506149c1565b6149c06707b5a83c26feac2860c01b61481f565b5b505050565b6149da675a3c9011d611774460c01b615cae565b6149ee67ee7f0288f9c0fba360c01b615cae565b614a02673e2d95fab5502c9660c01b615cae565b614a166722234fe55e6f93b260c01b615cae565b600015158260030160008373ffffffffffffffffffffffffffffffffffffffff1673ffffffffffffffffffffffffffffffffffffffff16815260200190815260200160002060009054906101000a900460ff16151514614aab576040517f08c379a0000000000000000000000000000000000000000000000000000000008152600401614aa290617fec565b60405180910390fd5b614abf677c18081af493925660c01b615cae565b614ad367e206f5f987142d0660c01b615cae565b808260040160008460020160019054906101000a900460ff1660ff16815260200190815260200160002060006101000a81548173ffffffffffffffffffffffffffffffffffffffff021916908373ffffffffffffffffffffffffffffffffffffffff160217905550614b4f67c0944e3d88bb4a8260c01b615cae565b81600201600181819054906101000a900460ff1680929190614b709061800c565b91906101000a81548160ff021916908360ff16021790555050614b9d67a952d7f984e5cfe860c01b615cae565b60018260030160008373ffffffffffffffffffffffffffffffffffffffff1673ffffffffffffffffffffffffffffffffffffffff16815260200190815260200160002060006101000a81548160ff021916908315150217905550614c0b674d5e6664c3071ac860c01b615cae565b60018260020160008282829054906101000a900460ff16614c2c9190618035565b92506101000a81548160ff021916908360ff1602179055505050565b614c5c6789e241db9bf0943f60c01b615cae565b614c7067604845014888505d60c01b615cae565b614c8467889629c1ed764b5f60c01b615cae565b614c986703e522659fdf1c6460c01b615cae565b600115158260030160008373ffffffffffffffffffffffffffffffffffffffff1673ffffffffffffffffffffffffffffffffffffffff16815260200190815260200160002060009054906101000a900460ff16151514614d2d576040517f08c379a0000000000000000000000000000000000000000000000000000000008152600401614d24906180dc565b60405180910390fd5b614d41670cb913ef7320953a60c01b615cae565b614d55670d0be123f3aad8b560c01b615cae565b60008260030160008373ffffffffffffffffffffffffffffffffffffffff1673ffffffffffffffffffffffffffffffffffffffff16815260200190815260200160002060006101000a81548160ff021916908315150217905550614dc36782fb380a6e59325060c01b615cae565b60018260020160008282829054906101000a900460ff16614de49190617ca5565b92506101000a81548160ff021916908360ff1602179055505050565b614e1467a8840dc1501026d660c01b615cae565b614e2867284402450de6975b60c01b615cae565b60008160020160006101000a81548160ff021916908360ff160217905550614e5a6716cc54606c5522e860c01b615cae565b614e6e67e9ad335776b7ef0d60c01b615cae565b60005b8160020160019054906101000a900460ff1660ff168160ff161015614f4957614ea467f9c0079586222d2660c01b615cae565b60008260030160008460040160008560ff16815260200190815260200160002060009054906101000a900473ffffffffffffffffffffffffffffffffffffffff1673ffffffffffffffffffffffffffffffffffffffff1673ffffffffffffffffffffffffffffffffffffffff16815260200190815260200160002060006101000a81548160ff0219169083151502179055508080614f419061800c565b915050614e71565b5050565b614f61674f519b1e053efb5460c01b615223565b614f7567aec0a71526ccaba060c01b615223565b60016000828152602001908152602001600020600080820160009055600182016000614fa19190615fcf565b600282016000614fb19190615fcf565b60038201600090555050614fcf6737b3e1505cacbb5c60c01b615223565b614fe3670caebcbad414c98960c01b615223565b60005b6002805490508110156150cc5761500767e5575fcbd78b3a8c60c01b615223565b61501b67f92c5cce75da192d60c01b615223565b81600282815481106150305761502f6180fc565b5b9060005260206000200154036150a557615054672197159ad936e06660c01b615223565b6150686710506af5eb8dbd9360c01b615223565b60006002828154811061507e5761507d6180fc565b5b90600052602060002001819055506150a067479521140d75f96060c01b615223565b6150cc565b6150b9674a0abbdd4bfb40f360c01b615223565b80806150c490617cda565b915050614fe6565b506150e167fb7138474997668360c01b615223565b6150f567cabf37fb9b0fe09360c01b615223565b7f34de6b871245ed0a89b82912e8e5ee6d9c3104b3e5bb1d67a71ad7e68239e41c816040516151249190616a16565b60405180910390a150565b6151408161513b615cb1565b615cb9565b50565b61514d82826127bc565b61521f57600160008084815260200190815260200160002060000160008373ffffffffffffffffffffffffffffffffffffffff1673ffffffffffffffffffffffffffffffffffffffff16815260200190815260200160002060006101000a81548160ff0219169083151502179055506151c4615cb1565b73ffffffffffffffffffffffffffffffffffffffff168173ffffffffffffffffffffffffffffffffffffffff16837f2f8788117e7eff1d82e926ec794901d17c78024a50270940304540a733656f0d60405160405180910390a45b5050565b50565b61523a673abd118e698f57c460c01b615223565b61524e67945b6dfd81ed0b9960c01b615223565b61526267174bf75761bddef660c01b615223565b61527667d4d55f133ba9aebb60c01b615223565b60006001600086815260200190815260200160002060000154146152cf576040517f08c379a00000000000000000000000000000000000000000000000000000000081526004016152c690618177565b60405180910390fd5b6152e36740fe773e1cb7aee860c01b615223565b6152f767db3f8feb92715f8960c01b615223565b61530b674fa302755311227760c01b615223565b61531f67b2e0009661c2df8c60c01b615223565b60008403615362576040517f08c379a0000000000000000000000000000000000000000000000000000000008152600401615359906181e3565b60405180910390fd5b615376674ba1c2b0a31bf16a60c01b615223565b61538a672175c4db49308e0560c01b615223565b604051806080016040528085815260200184815260200183815260200182815250600160008681526020019081526020016000206000820151816000015560208201518160010190816153dd9190617ece565b5060408201518160020190816153f39190617ece565b506060820151816003015590505061541567f2040cc31830c96860c01b615223565b61542967219acd0535b5e94f60c01b615223565b6002849080600181540180825580915050600190039060005260206000200160009091909190915055615466677cdd76207fc5bcab60c01b615223565b61547a67449ffde15d725c8460c01b615223565b7fb6767d1c89515962142b00b5577569c92a74381d9441a528911c66e0c3cea1f8848484846040516154af9493929190616269565b60405180910390a150505050565b6154d16765b7e103c94a229d60c01b61481f565b6154e56712792db49bd8000860c01b61481f565b6040518060c00160405280846003811115615503576155026165f0565b5b815260200183600281111561551b5761551a6165f0565b5b815260200182600f811115615533576155326165f0565b5b81526020014281526020016001151581526020018581525060076000868686866040516020016155669493929190617465565b60405160208183030381529060405280519060200120815260200190815260200160002060008201518160000160006101000a81548160ff021916908360038111156155b5576155b46165f0565b5b021790555060208201518160000160016101000a81548160ff021916908360028111156155e5576155e46165f0565b5b021790555060408201518160000160026101000a81548160ff0219169083600f811115615615576156146165f0565b5b02179055506060820151816001015560808201518160020160006101000a81548160ff02191690831515021790555060a08201518160030155905050615665673a5a274be22801d260c01b61481f565b61567967493634455e2d80e960c01b61481f565b60086000858152602001908152602001600020848484846040516020016156a39493929190617465565b6040516020818303038152906040528051906020012090806001815401808255809150506001900390600052602060002001600090919091909150556156f3671175e050037a7c2760c01b61481f565b615707675137f0b970b59aa760c01b61481f565b7fb55811dd01470a227956304b027c610c7cdf9dd622dcc47791380261d56dc6ed8484848460405161573c9493929190618203565b60405180910390a150505050565b50565b615761678f0d48f9169a161c60c01b615223565b615775676f1c6119a0e8189b60c01b615223565b615789671efbc114ca82ba3a60c01b615223565b61579d67b5e10ccf1dfb2cbf60c01b615223565b60006001600086815260200190815260200160002060000154036157f6576040517f08c379a00000000000000000000000000000000000000000000000000000000081526004016157ed90618294565b60405180910390fd5b61580a6724af5e47dd5e209b60c01b615223565b61581e67b5b158cd02c2fb4b60c01b615223565b61583267a1ea6a203d9b892560c01b615223565b600160008581526020019081526020016000206001016040516020016158589190618337565b604051602081830303815290604052805190602001208360405160200161587f919061834e565b60405160208183030381529060405280519060200120141580156158ed57506040516020016158ad9061838b565b60405160208183030381529060405280519060200120836040516020016158d4919061834e565b6040516020818303038152906040528051906020012014155b1561594357615906675ac7e0755718f33860c01b615223565b61591a670404365a798c3bee60c01b615223565b8260016000868152602001908152602001600020600101908161593d9190617ece565b50615958565b615957678f52ef164f30557160c01b615223565b5b61596c6796e591cc4057d14160c01b615223565b6159806708507b1a7ed5d4af60c01b615223565b600160008581526020019081526020016000206002016040516020016159a69190618337565b60405160208183030381529060405280519060200120826040516020016159cd919061834e565b6040516020818303038152906040528051906020012014158015615a3b57506040516020016159fb9061838b565b6040516020818303038152906040528051906020012082604051602001615a22919061834e565b6040516020818303038152906040528051906020012014155b15615a9157615a5467559f3e42497b232560c01b615223565b615a686728097c31405ae1f360c01b615223565b81600160008681526020019081526020016000206002019081615a8b9190617ece565b50615aa6565b615aa5673c7b5fe1417d860b60c01b615223565b5b615aba67c98d308dd86a644b60c01b615223565b615ace678571e9a913979a0160c01b615223565b60016000858152602001908152602001600020600301548114158015615af5575060008114155b15615b4257615b0e67d9f02e438eeb9bdb60c01b615223565b615b22670fc1ccf2c3e5a43d60c01b615223565b806001600086815260200190815260200160002060030181905550615b57565b615b5667120ca5c9cebebfb860c01b615223565b5b615b6b672ca296637aa2ca0460c01b615223565b615b7f676578dfbde5bca09660c01b615223565b7f03e10a3f40e9af2a5e61cb5a3de55fd67286470c35b3cf345b04a83cf3f4907784848484604051615bb49493929190616269565b60405180910390a150505050565b600060019050919050565b615bd782826127bc565b15615caa57600080600084815260200190815260200160002060000160008373ffffffffffffffffffffffffffffffffffffffff1673ffffffffffffffffffffffffffffffffffffffff16815260200190815260200160002060006101000a81548160ff021916908315150217905550615c4f615cb1565b73ffffffffffffffffffffffffffffffffffffffff168173ffffffffffffffffffffffffffffffffffffffff16837ff6391f5c32d9c69d2a47ea670b442974b53935d1edc7fd64eb21e047a839171b60405160405180910390a45b5050565b50565b600033905090565b615cc382826127bc565b615d3a57615cd081615d3e565b615cde8360001c6020615d6b565b604051602001615cef929190618438565b6040516020818303038152906040526040517f08c379a0000000000000000000000000000000000000000000000000000000008152600401615d319190617022565b60405180910390fd5b5050565b6060615d648273ffffffffffffffffffffffffffffffffffffffff16601460ff16615d6b565b9050919050565b606060006002836002615d7e9190618472565b615d889190617aa7565b67ffffffffffffffff811115615da157615da061684c565b5b6040519080825280601f01601f191660200182016040528015615dd35781602001600182028036833780820191505090505b5090507f300000000000000000000000000000000000000000000000000000000000000081600081518110615e0b57615e0a6180fc565b5b60200101907effffffffffffffffffffffffffffffffffffffffffffffffffffffffffffff1916908160001a9053507f780000000000000000000000000000000000000000000000000000000000000081600181518110615e6f57615e6e6180fc565b5b60200101907effffffffffffffffffffffffffffffffffffffffffffffffffffffffffffff1916908160001a90535060006001846002615eaf9190618472565b615eb99190617aa7565b90505b6001811115615f59577f3031323334353637383961626364656600000000000000000000000000000000600f861660108110615efb57615efa6180fc565b5b1a60f81b828281518110615f1257615f116180fc565b5b60200101907effffffffffffffffffffffffffffffffffffffffffffffffffffffffffffff1916908160001a905350600485901c945080615f52906184b4565b9050615ebc565b5060008414615f9d576040517f08c379a0000000000000000000000000000000000000000000000000000000008152600401615f9490618529565b60405180910390fd5b8091505092915050565b6040518060800160405280600081526020016060815260200160608152602001600081525090565b508054615fdb90616e36565b6000825580601f10615fed575061600c565b601f01602090049060005260206000209081019061600b919061600f565b5b50565b5b80821115616028576000816000905550600101616010565b5090565b6000604051905090565b600080fd5b600080fd5b60007fffffffff0000000000000000000000000000000000000000000000000000000082169050919050565b61607581616040565b811461608057600080fd5b50565b6000813590506160928161606c565b92915050565b6000602082840312156160ae576160ad616036565b5b60006160bc84828501616083565b91505092915050565b60008115159050919050565b6160da816160c5565b82525050565b60006020820190506160f560008301846160d1565b92915050565b6000819050919050565b61610e816160fb565b811461611957600080fd5b50565b60008135905061612b81616105565b92915050565b61613a816160c5565b811461614557600080fd5b50565b60008135905061615781616131565b92915050565b6000806040838503121561617457616173616036565b5b60006161828582860161611c565b925050602061619385828601616148565b9150509250929050565b6000602082840312156161b3576161b2616036565b5b60006161c18482850161611c565b91505092915050565b6161d3816160fb565b82525050565b600081519050919050565b600082825260208201905092915050565b60005b838110156162135780820151818401526020810190506161f8565b60008484015250505050565b6000601f19601f8301169050919050565b600061623b826161d9565b61624581856161e4565b93506162558185602086016161f5565b61625e8161621f565b840191505092915050565b600060808201905061627e60008301876161ca565b81810360208301526162908186616230565b905081810360408301526162a48185616230565b90506162b360608301846161ca565b95945050505050565b600060ff82169050919050565b6162d2816162bc565b82525050565b60006020820190506162ed60008301846162c9565b92915050565b6000819050919050565b616306816162f3565b811461631157600080fd5b50565b600081359050616323816162fd565b92915050565b60006020828403121561633f5761633e616036565b5b600061634d84828501616314565b91505092915050565b61635f816162f3565b82525050565b600060a08201905061637a60008301886160d1565b6163876020830187616356565b61639460408301866162c9565b6163a160608301856162c9565b81810360808301526163b38184616230565b90509695505050505050565b60006020820190506163d46000830184616356565b92915050565b600073ffffffffffffffffffffffffffffffffffffffff82169050919050565b6000616405826163da565b9050919050565b616415816163fa565b811461642057600080fd5b50565b6000813590506164328161640c565b92915050565b6000806040838503121561644f5761644e616036565b5b600061645d85828601616314565b925050602061646e85828601616423565b9150509250929050565b6000806040838503121561648f5761648e616036565b5b600061649d8582860161611c565b92505060206164ae8582860161611c565b9150509250929050565b6164c1816160fb565b82525050565b600082825260208201905092915050565b60006164e3826161d9565b6164ed81856164c7565b93506164fd8185602086016161f5565b6165068161621f565b840191505092915050565b600060808301600083015161652960008601826164b8565b506020830151848203602086015261654182826164d8565b9150506040830151848203604086015261655b82826164d8565b915050606083015161657060608601826164b8565b508091505092915050565b600060208201905081810360008301526165958184616511565b905092915050565b6000806000606084860312156165b6576165b5616036565b5b60006165c486828701616314565b93505060206165d586828701616423565b92505060406165e686828701616148565b9150509250925092565b7f4e487b7100000000000000000000000000000000000000000000000000000000600052602160045260246000fd5b600481106166305761662f6165f0565b5b50565b60008190506166418261661f565b919050565b600061665182616633565b9050919050565b61666181616646565b82525050565b60038110616678576166776165f0565b5b50565b600081905061668982616667565b919050565b60006166998261667b565b9050919050565b6166a98161668e565b82525050565b601081106166c0576166bf6165f0565b5b50565b60008190506166d1826166af565b919050565b60006166e1826166c3565b9050919050565b6166f1816166d6565b82525050565b600060c08201905061670c6000830189616658565b61671960208301886166a0565b61672660408301876166e8565b61673360608301866161ca565b61674060808301856160d1565b61674d60a08301846161ca565b979650505050505050565b6004811061676557600080fd5b50565b60008135905061677781616758565b92915050565b6003811061678a57600080fd5b50565b60008135905061679c8161677d565b92915050565b601081106167af57600080fd5b50565b6000813590506167c1816167a2565b92915050565b600080600080600060a086880312156167e3576167e2616036565b5b60006167f18882890161611c565b955050602061680288828901616768565b94505060406168138882890161678d565b9350506060616824888289016167b2565b925050608061683588828901616148565b9150509295509295909350565b600080fd5b600080fd5b7f4e487b7100000000000000000000000000000000000000000000000000000000600052604160045260246000fd5b6168848261621f565b810181811067ffffffffffffffff821117156168a3576168a261684c565b5b80604052505050565b60006168b661602c565b90506168c2828261687b565b919050565b600067ffffffffffffffff8211156168e2576168e161684c565b5b6168eb8261621f565b9050602081019050919050565b82818337600083830152505050565b600061691a616915846168c7565b6168ac565b90508281526020810184848401111561693657616935616847565b5b6169418482856168f8565b509392505050565b600082601f83011261695e5761695d616842565b5b813561696e848260208601616907565b91505092915050565b6000806000806080858703121561699157616990616036565b5b600061699f8782880161611c565b945050602085013567ffffffffffffffff8111156169c0576169bf61603b565b5b6169cc87828801616949565b935050604085013567ffffffffffffffff8111156169ed576169ec61603b565b5b6169f987828801616949565b9250506060616a0a8782880161611c565b91505092959194509250565b6000602082019050616a2b60008301846161ca565b92915050565b600081519050919050565b600082825260208201905092915050565b6000819050602082019050919050565b616a66816162f3565b82525050565b6000616a788383616a5d565b60208301905092915050565b6000602082019050919050565b6000616a9c82616a31565b616aa68185616a3c565b9350616ab183616a4d565b8060005b83811015616ae2578151616ac98882616a6c565b9750616ad483616a84565b925050600181019050616ab5565b5085935050505092915050565b60006020820190508181036000830152616b098184616a91565b905092915050565b7f43616c6c6572206973206e6f7420612063657274696669657200000000000000600082015250565b6000616b476019836161e4565b9150616b5282616b11565b602082019050919050565b60006020820190508181036000830152616b7681616b3a565b9050919050565b7f4964206d7573742062652067726561746572207468616e203000000000000000600082015250565b6000616bb36019836161e4565b9150616bbe82616b7d565b602082019050919050565b60006020820190508181036000830152616be281616ba6565b9050919050565b7f546869732073747564656e7420646f65736e2774206578697374000000000000600082015250565b6000616c1f601a836161e4565b9150616c2a82616be9565b602082019050919050565b60006020820190508181036000830152616c4e81616c12565b9050919050565b6000819050919050565b616c70616c6b826160fb565b616c55565b82525050565b600081905092915050565b7f44454c4554452053545544454e54000000000000000000000000000000000000600082015250565b6000616cb7600e83616c76565b9150616cc282616c81565b600e82019050919050565b6000616cd98284616c5f565b602082019150616ce882616caa565b915081905092915050565b6000616cff8284616c5f565b60208201915081905092915050565b7f44656c6574652073747564656e74200000000000000000000000000000000000815250565b6000616d3f826161d9565b616d498185616c76565b9350616d598185602086016161f5565b80840191505092915050565b6000616d7082616d0e565b600f82019150616d808284616d34565b915081905092915050565b600063ffffffff82169050919050565b7f4e487b7100000000000000000000000000000000000000000000000000000000600052601160045260246000fd5b6000616dd582616d8b565b9150616de083616d8b565b9250828202616dee81616d8b565b9150808214616e0057616dff616d9b565b5b5092915050565b7f4e487b7100000000000000000000000000000000000000000000000000000000600052602260045260246000fd5b60006002820490506001821680616e4e57607f821691505b602082108103616e6157616e60616e07565b5b50919050565b7f596f752063616e27742072656e6f756e636520746f20796f757220726f6c652e60008201527f20506c6561736520636f6e746163742061646d696e7300000000000000000000602082015250565b6000616ec36036836161e4565b9150616ece82616e67565b604082019050919050565b60006020820190508181036000830152616ef281616eb6565b9050919050565b7f53747564656e7420646f65736e27742065786973740000000000000000000000600082015250565b6000616f2f6015836161e4565b9150616f3a82616ef9565b602082019050919050565b60006020820190508181036000830152616f5e81616f22565b9050919050565b6000819050919050565b616f80616f7b826162f3565b616f65565b82525050565b6000616f928284616f6f565b60208201915081905092915050565b7f4d61782000000000000000000000000000000000000000000000000000000000815250565b7f2072656163686564000000000000000000000000000000000000000000000000815250565b6000616ff882616fa1565b6004820191506170088284616d34565b915061701382616fc7565b60088201915081905092915050565b6000602082019050818103600083015261703c8184616230565b905092915050565b7f43616c6c6572206973206e6f7420612000000000000000000000000000000000815250565b7f2061646d696e0000000000000000000000000000000000000000000000000000815250565b600061709b82617044565b6010820191506170ab8284616d34565b91506170b68261706a565b60068201915081905092915050565b7f54686973206164647265737320697320616c7265616479206120000000000000815250565b60006170f6826170c5565b601a820191506171068284616d34565b915081905092915050565b60008160601b9050919050565b600061712982617111565b9050919050565b600061713b8261711e565b9050919050565b61715361714e826163fa565b617130565b82525050565b7f4752414e54000000000000000000000000000000000000000000000000000000600082015250565b600061718f600583616c76565b915061719a82617159565b600582019050919050565b60006171b18285617142565b6014820191506171c082617182565b91506171cc8284616f6f565b6020820191508190509392505050565b60006171e88284617142565b60148201915081905092915050565b7f4772616e74200000000000000000000000000000000000000000000000000000815250565b7f2000000000000000000000000000000000000000000000000000000000000000815250565b600061724e826171f7565b60068201915061725e8285616d34565b91506172698261721d565b6001820191506172798284616d34565b91508190509392505050565b600061729082616d8b565b915061729b83616d8b565b9250828201905063ffffffff8111156172b7576172b6616d9b565b5b92915050565b7f417070726563696174696f6e206973206e6f742076616c696400000000000000600082015250565b60006172f36019836161e4565b91506172fe826172bd565b602082019050919050565b60006020820190508181036000830152617322816172e6565b9050919050565b7f446567726565206973206e6f742076616c696400000000000000000000000000600082015250565b600061735f6013836161e4565b915061736a82617329565b602082019050919050565b6000602082019050818103600083015261738e81617352565b9050919050565b7f50726f6772616d206973206e6f742076616c6964000000000000000000000000600082015250565b60006173cb6014836161e4565b91506173d682617395565b602082019050919050565b600060208201905081810360008301526173fa816173be565b9050919050565b60008160f81b9050919050565b600061741982617401565b9050919050565b61743161742c82616646565b61740e565b82525050565b6174486174438261668e565b61740e565b82525050565b61745f61745a826166d6565b61740e565b82525050565b60006174718287616c5f565b6020820191506174818286617420565b6001820191506174918285617437565b6001820191506174a1828461744e565b60018201915081905095945050505050565b7f5468697320636572746966696361746520646f65736e27742065786973740000600082015250565b60006174e9601e836161e4565b91506174f4826174b3565b602082019050919050565b60006020820190508181036000830152617518816174dc565b9050919050565b7f44454c4554450000000000000000000000000000000000000000000000000000600082015250565b6000617555600683616c76565b91506175608261751f565b600682019050919050565b60006175778287616c5f565b6020820191506175878286617420565b6001820191506175978285617437565b6001820191506175a7828461744e565b6001820191506175b682617548565b915081905095945050505050565b60006175d08284617420565b60018201915081905092915050565b60006175eb8284617437565b60018201915081905092915050565b6000617606828461744e565b60018201915081905092915050565b7f44656c6574652000000000000000000000000000000000000000000000000000815250565b600061764682617615565b6007820191506176568287616d34565b91506176618261721d565b6001820191506176718286616d34565b915061767c8261721d565b60018201915061768c8285616d34565b91506176978261721d565b6001820191506176a78284616d34565b915081905095945050505050565b7f46697273746e616d652063616e6e6f7420626520656d70747900000000000000600082015250565b60006176eb6019836161e4565b91506176f6826176b5565b602082019050919050565b6000602082019050818103600083015261771a816176de565b9050919050565b7f4c6173746e616d652063616e6e6f7420626520656d7074790000000000000000600082015250565b60006177576018836161e4565b915061776282617721565b602082019050919050565b600060208201905081810360008301526177868161774a565b9050919050565b7f426972746864617465206d7573742062652067726561746572207468616e2030600082015250565b60006177c36020836161e4565b91506177ce8261778d565b602082019050919050565b600060208201905081810360008301526177f2816177b6565b9050919050565b7f546869732073747564656e7420616c7265616479206578697374730000000000600082015250565b600061782f601b836161e4565b915061783a826177f9565b602082019050919050565b6000602082019050818103600083015261785e81617822565b9050919050565b7f5468697320636572746966696361746520616c72656164792065786973747300600082015250565b600061789b601f836161e4565b91506178a682617865565b602082019050919050565b600060208201905081810360008301526178ca8161788e565b9050919050565b7f4345525449465900000000000000000000000000000000000000000000000000600082015250565b6000617907600783616c76565b9150617912826178d1565b600782019050919050565b60006179298287616c5f565b6020820191506179398286617420565b6001820191506179498285617437565b600182019150617959828461744e565b600182019150617968826178fa565b915081905095945050505050565b7f4365727469667920000000000000000000000000000000000000000000000000815250565b60006179a782617976565b6008820191506179b78287616d34565b91506179c28261721d565b6001820191506179d28286616d34565b91506179dd8261721d565b6001820191506179ed8285616d34565b91506179f88261721d565b600182019150617a088284616d34565b915081905095945050505050565b7f4e487b7100000000000000000000000000000000000000000000000000000000600052601260045260246000fd5b6000617a50826160fb565b9150617a5b836160fb565b925082617a6b57617a6a617a16565b5b828206905092915050565b6000617a81826160fb565b9150617a8c836160fb565b925082617a9c57617a9b617a16565b5b828204905092915050565b6000617ab2826160fb565b9150617abd836160fb565b9250828201905080821115617ad557617ad4616d9b565b5b92915050565b7f4d696e2000000000000000000000000000000000000000000000000000000000815250565b6000617b0c82617adb565b600482019150617b1c8284616d34565b9150617b2782616fc7565b60088201915081905092915050565b7f546869732061646472657373206973206e6f7420612000000000000000000000815250565b6000617b6782617b36565b601682019150617b778284616d34565b915081905092915050565b7f5245564f4b450000000000000000000000000000000000000000000000000000600082015250565b6000617bb8600683616c76565b9150617bc382617b82565b600682019050919050565b6000617bda8285617142565b601482019150617be982617bab565b9150617bf58284616f6f565b6020820191508190509392505050565b7f5265766f6b652000000000000000000000000000000000000000000000000000815250565b6000617c3682617c05565b600782019150617c468285616d34565b9150617c518261721d565b600182019150617c618284616d34565b91508190509392505050565b6000617c7882616d8b565b9150617c8383616d8b565b9250828203905063ffffffff811115617c9f57617c9e616d9b565b5b92915050565b6000617cb0826162bc565b9150617cbb836162bc565b9250828203905060ff811115617cd457617cd3616d9b565b5b92915050565b6000617ce5826160fb565b91507fffffffffffffffffffffffffffffffffffffffffffffffffffffffffffffffff8203617d1757617d16616d9b565b5b600182019050919050565b60008190508160005260206000209050919050565b60006020601f8301049050919050565b600082821b905092915050565b600060088302617d847fffffffffffffffffffffffffffffffffffffffffffffffffffffffffffffffff82617d47565b617d8e8683617d47565b95508019841693508086168417925050509392505050565b6000819050919050565b6000617dcb617dc6617dc1846160fb565b617da6565b6160fb565b9050919050565b6000819050919050565b617de583617db0565b617df9617df182617dd2565b848454617d54565b825550505050565b600090565b617e0e617e01565b617e19818484617ddc565b505050565b5b81811015617e3d57617e32600082617e06565b600181019050617e1f565b5050565b601f821115617e8257617e5381617d22565b617e5c84617d37565b81016020851015617e6b578190505b617e7f617e7785617d37565b830182617e1e565b50505b505050565b600082821c905092915050565b6000617ea560001984600802617e87565b1980831691505092915050565b6000617ebe8383617e94565b9150826002028217905092915050565b617ed7826161d9565b67ffffffffffffffff811115617ef057617eef61684c565b5b617efa8254616e36565b617f05828285617e41565b600060209050601f831160018114617f385760008415617f26578287015190505b617f308582617eb2565b865550617f98565b601f198416617f4686617d22565b60005b82811015617f6e57848901518255600182019150602085019450602081019050617f49565b86831015617f8b5784890151617f87601f891682617e94565b8355505b6001600288020188555050505b505050505050565b7f596f7520616c7265616479207369676e65642074686973206d756c7469736967600082015250565b6000617fd66020836161e4565b9150617fe182617fa0565b602082019050919050565b6000602082019050818103600083015261800581617fc9565b9050919050565b6000618017826162bc565b915060ff820361802a57618029616d9b565b5b600182019050919050565b6000618040826162bc565b915061804b836162bc565b9250828201905060ff81111561806457618063616d9b565b5b92915050565b7f596f752068617665206e6f7465207369676e65642074686973206d756c74697360008201527f6967207965740000000000000000000000000000000000000000000000000000602082015250565b60006180c66026836161e4565b91506180d18261806a565b604082019050919050565b600060208201905081810360008301526180f5816180b9565b9050919050565b7f4e487b7100000000000000000000000000000000000000000000000000000000600052603260045260246000fd5b7f53747564656e7420616c72656164792065786973747300000000000000000000600082015250565b60006181616016836161e4565b915061816c8261812b565b602082019050919050565b6000602082019050818103600083015261819081618154565b9050919050565b7f49642063616e2774206265203000000000000000000000000000000000000000600082015250565b60006181cd600d836161e4565b91506181d882618197565b602082019050919050565b600060208201905081810360008301526181fc816181c0565b9050919050565b600060808201905061821860008301876161ca565b6182256020830186616658565b61823260408301856166a0565b61823f60608301846166e8565b95945050505050565b7f53747564656e7420646f6573206e6f7420657869737400000000000000000000600082015250565b600061827e6016836161e4565b915061828982618248565b602082019050919050565b600060208201905081810360008301526182ad81618271565b9050919050565b600081546182c181616e36565b6182cb8186616c76565b945060018216600081146182e657600181146182fb5761832e565b60ff198316865281151582028601935061832e565b61830485617d22565b60005b8381101561832657815481890152600182019150602081019050618307565b838801955050505b50505092915050565b600061834382846182b4565b915081905092915050565b600061835a8284616d34565b915081905092915050565b50565b6000618375600083616c76565b915061838082618365565b600082019050919050565b600061839682618368565b9150819050919050565b7f416363657373436f6e74726f6c3a206163636f756e7420000000000000000000600082015250565b60006183d6601783616c76565b91506183e1826183a0565b601782019050919050565b7f206973206d697373696e6720726f6c6520000000000000000000000000000000600082015250565b6000618422601183616c76565b915061842d826183ec565b601182019050919050565b6000618443826183c9565b915061844f8285616d34565b915061845a82618415565b91506184668284616d34565b91508190509392505050565b600061847d826160fb565b9150618488836160fb565b9250828202618496816160fb565b915082820484148315176184ad576184ac616d9b565b5b5092915050565b60006184bf826160fb565b9150600082036184d2576184d1616d9b565b5b600182039050919050565b7f537472696e67733a20686578206c656e67746820696e73756666696369656e74600082015250565b60006185136020836161e4565b915061851e826184dd565b602082019050919050565b6000602082019050818103600083015261854281618506565b905091905056fea2646970667358221220135438759950cbc60a001065cbfafeed7df48106778d6f547e2f8e5270d8410264736f6c63430008130033","opcodes":"PUSH1 0x80 PUSH1 0x40 MSTORE CALLVALUE DUP1 ISZERO PUSH3 0x11 JUMPI PUSH1 0x0 DUP1 REVERT JUMPDEST POP PUSH1 0x40 MLOAD PUSH3 0x92DD CODESIZE SUB DUP1 PUSH3 0x92DD DUP4 CODECOPY DUP2 DUP2 ADD PUSH1 0x40 MSTORE DUP2 ADD SWAP1 PUSH3 0x37 SWAP2 SWAP1 PUSH3 0x99C JUMP JUMPDEST PUSH3 0x53 PUSH8 0xBCE0C7533C9A630D PUSH1 0xC0 SHL PUSH3 0x7B6 PUSH1 0x20 SHL PUSH1 0x20 SHR JUMP JUMPDEST PUSH3 0x6F PUSH8 0xDA93C48FA161E79D PUSH1 0xC0 SHL PUSH3 0x7B6 PUSH1 0x20 SHL PUSH1 0x20 SHR JUMP JUMPDEST PUSH3 0x8B PUSH8 0x96048D7FD2D928C8 PUSH1 0xC0 SHL PUSH3 0x7B6 PUSH1 0x20 SHL PUSH1 0x20 SHR JUMP JUMPDEST PUSH3 0xA7 PUSH8 0x5F1C668EE669AB0B PUSH1 0xC0 SHL PUSH3 0x7B6 PUSH1 0x20 SHL PUSH1 0x20 SHR JUMP JUMPDEST PUSH1 0x0 PUSH20 0xFFFFFFFFFFFFFFFFFFFFFFFFFFFFFFFFFFFFFFFF AND DUP3 PUSH20 0xFFFFFFFFFFFFFFFFFFFFFFFFFFFFFFFFFFFFFFFF AND SUB PUSH3 0x119 JUMPI PUSH1 0x40 MLOAD PUSH32 0x8C379A000000000000000000000000000000000000000000000000000000000 DUP2 MSTORE PUSH1 0x4 ADD PUSH3 0x110 SWAP1 PUSH3 0xA6A JUMP JUMPDEST PUSH1 0x40 MLOAD DUP1 SWAP2 SUB SWAP1 REVERT JUMPDEST PUSH3 0x135 PUSH8 0x928B579F6F77D60A PUSH1 0xC0 SHL PUSH3 0x7B6 PUSH1 0x20 SHL PUSH1 0x20 SHR JUMP JUMPDEST PUSH3 0x151 PUSH8 0x1EAFB37A2FEA50C3 PUSH1 0xC0 SHL PUSH3 0x7B6 PUSH1 0x20 SHL PUSH1 0x20 SHR JUMP JUMPDEST PUSH3 0x16D PUSH8 0x1C760441A51F00FE PUSH1 0xC0 SHL PUSH3 0x7B6 PUSH1 0x20 SHL PUSH1 0x20 SHR JUMP JUMPDEST PUSH3 0x189 PUSH8 0x19381EA2A143A26 PUSH1 0xC0 SHL PUSH3 0x7B6 PUSH1 0x20 SHL PUSH1 0x20 SHR JUMP JUMPDEST PUSH1 0x0 PUSH20 0xFFFFFFFFFFFFFFFFFFFFFFFFFFFFFFFFFFFFFFFF AND DUP2 PUSH20 0xFFFFFFFFFFFFFFFFFFFFFFFFFFFFFFFFFFFFFFFF AND SUB PUSH3 0x1FB JUMPI PUSH1 0x40 MLOAD PUSH32 0x8C379A000000000000000000000000000000000000000000000000000000000 DUP2 MSTORE PUSH1 0x4 ADD PUSH3 0x1F2 SWAP1 PUSH3 0xB02 JUMP JUMPDEST PUSH1 0x40 MLOAD DUP1 SWAP2 SUB SWAP1 REVERT JUMPDEST PUSH3 0x217 PUSH8 0xBF6825F8B726169F PUSH1 0xC0 SHL PUSH3 0x7B6 PUSH1 0x20 SHL PUSH1 0x20 SHR JUMP JUMPDEST PUSH3 0x233 PUSH8 0x4346DA88AC06A843 PUSH1 0xC0 SHL PUSH3 0x7B6 PUSH1 0x20 SHL PUSH1 0x20 SHR JUMP JUMPDEST PUSH3 0x24F PUSH8 0x39ABA34486ADF0DA PUSH1 0xC0 SHL PUSH3 0x7B6 PUSH1 0x20 SHL PUSH1 0x20 SHR JUMP JUMPDEST PUSH3 0x26B PUSH8 0xA6059053A04F964 PUSH1 0xC0 SHL PUSH3 0x7B6 PUSH1 0x20 SHL PUSH1 0x20 SHR JUMP JUMPDEST DUP1 PUSH20 0xFFFFFFFFFFFFFFFFFFFFFFFFFFFFFFFFFFFFFFFF AND DUP3 PUSH20 0xFFFFFFFFFFFFFFFFFFFFFFFFFFFFFFFFFFFFFFFF AND SUB PUSH3 0x2DC JUMPI PUSH1 0x40 MLOAD PUSH32 0x8C379A000000000000000000000000000000000000000000000000000000000 DUP2 MSTORE PUSH1 0x4 ADD PUSH3 0x2D3 SWAP1 PUSH3 0xB9A JUMP JUMPDEST PUSH1 0x40 MLOAD DUP1 SWAP2 SUB SWAP1 REVERT JUMPDEST PUSH3 0x2F8 PUSH8 0xAE953CAA734AB3B0 PUSH1 0xC0 SHL PUSH3 0x7B6 PUSH1 0x20 SHL PUSH1 0x20 SHR JUMP JUMPDEST PUSH3 0x314 PUSH8 0xF5900FC41A1B03E0 PUSH1 0xC0 SHL PUSH3 0x7B6 PUSH1 0x20 SHL PUSH1 0x20 SHR JUMP JUMPDEST PUSH3 0x330 PUSH8 0x8F048BA93C318BDF PUSH1 0xC0 SHL PUSH3 0x7B6 PUSH1 0x20 SHL PUSH1 0x20 SHR JUMP JUMPDEST PUSH3 0x362 PUSH32 0x4BBEB6FD3E5222E55F2F8B0C35BC228E0A06A25D0DA772FDB02C3B92FA004F88 DUP4 PUSH3 0x7B9 PUSH1 0x20 SHL PUSH1 0x20 SHR JUMP JUMPDEST PUSH3 0x37E PUSH8 0xEABBA9F8CD63B620 PUSH1 0xC0 SHL PUSH3 0x7B6 PUSH1 0x20 SHL PUSH1 0x20 SHR JUMP JUMPDEST PUSH3 0x39A PUSH8 0xA6B100261D7CA0A1 PUSH1 0xC0 SHL PUSH3 0x7B6 PUSH1 0x20 SHL PUSH1 0x20 SHR JUMP JUMPDEST PUSH3 0x3CC PUSH32 0x4BBEB6FD3E5222E55F2F8B0C35BC228E0A06A25D0DA772FDB02C3B92FA004F88 DUP3 PUSH3 0x7CF PUSH1 0x20 SHL PUSH1 0x20 SHR JUMP JUMPDEST PUSH3 0x3E8 PUSH8 0x7C8571A546CD703B PUSH1 0xC0 SHL PUSH3 0x7B6 PUSH1 0x20 SHL PUSH1 0x20 SHR JUMP JUMPDEST PUSH1 0x40 MLOAD DUP1 PUSH1 0xE0 ADD PUSH1 0x40 MSTORE DUP1 PUSH1 0x2 PUSH4 0xFFFFFFFF AND DUP2 MSTORE PUSH1 0x20 ADD PUSH1 0x2 PUSH1 0xFF AND PUSH4 0xFFFFFFFF AND DUP2 MSTORE PUSH1 0x20 ADD PUSH1 0xF PUSH1 0xFF AND PUSH4 0xFFFFFFFF AND DUP2 MSTORE PUSH1 0x20 ADD PUSH1 0x50 PUSH1 0xFF AND DUP2 MSTORE PUSH1 0x20 ADD PUSH1 0x50 PUSH1 0xFF AND DUP2 MSTORE PUSH1 0x20 ADD PUSH32 0x4BBEB6FD3E5222E55F2F8B0C35BC228E0A06A25D0DA772FDB02C3B92FA004F88 DUP2 MSTORE PUSH1 0x20 ADD PUSH1 0x40 MLOAD PUSH1 0x20 ADD PUSH3 0x46B SWAP1 PUSH3 0xC17 JUMP JUMPDEST PUSH1 0x40 MLOAD PUSH1 0x20 DUP2 DUP4 SUB SUB DUP2 MSTORE SWAP1 PUSH1 0x40 MSTORE PUSH3 0x485 SWAP1 PUSH3 0xC77 JUMP JUMPDEST DUP2 MSTORE POP PUSH1 0x3 PUSH1 0x0 PUSH32 0x4BBEB6FD3E5222E55F2F8B0C35BC228E0A06A25D0DA772FDB02C3B92FA004F88 DUP2 MSTORE PUSH1 0x20 ADD SWAP1 DUP2 MSTORE PUSH1 0x20 ADD PUSH1 0x0 KECCAK256 PUSH1 0x0 DUP3 ADD MLOAD DUP2 PUSH1 0x0 ADD PUSH1 0x0 PUSH2 0x100 EXP DUP2 SLOAD DUP2 PUSH4 0xFFFFFFFF MUL NOT AND SWAP1 DUP4 PUSH4 0xFFFFFFFF AND MUL OR SWAP1 SSTORE POP PUSH1 0x20 DUP3 ADD MLOAD DUP2 PUSH1 0x0 ADD PUSH1 0x4 PUSH2 0x100 EXP DUP2 SLOAD DUP2 PUSH4 0xFFFFFFFF MUL NOT AND SWAP1 DUP4 PUSH4 0xFFFFFFFF AND MUL OR SWAP1 SSTORE POP PUSH1 0x40 DUP3 ADD MLOAD DUP2 PUSH1 0x0 ADD PUSH1 0x8 PUSH2 0x100 EXP DUP2 SLOAD DUP2 PUSH4 0xFFFFFFFF MUL NOT AND SWAP1 DUP4 PUSH4 0xFFFFFFFF AND MUL OR SWAP1 SSTORE POP PUSH1 0x60 DUP3 ADD MLOAD DUP2 PUSH1 0x0 ADD PUSH1 0xC PUSH2 0x100 EXP DUP2 SLOAD DUP2 PUSH1 0xFF MUL NOT AND SWAP1 DUP4 PUSH1 0xFF AND MUL OR SWAP1 SSTORE POP PUSH1 0x80 DUP3 ADD MLOAD DUP2 PUSH1 0x0 ADD PUSH1 0xD PUSH2 0x100 EXP DUP2 SLOAD DUP2 PUSH1 0xFF MUL NOT AND SWAP1 DUP4 PUSH1 0xFF AND MUL OR SWAP1 SSTORE POP PUSH1 0xA0 DUP3 ADD MLOAD DUP2 PUSH1 0x1 ADD SSTORE PUSH1 0xC0 DUP3 ADD MLOAD DUP2 PUSH1 0x2 ADD SSTORE SWAP1 POP POP PUSH3 0x5A5 PUSH8 0x6174D0F42C37649A PUSH1 0xC0 SHL PUSH3 0x7B6 PUSH1 0x20 SHL PUSH1 0x20 SHR JUMP JUMPDEST PUSH3 0x5C1 PUSH8 0x2212CDA1DCB9EA12 PUSH1 0xC0 SHL PUSH3 0x7B6 PUSH1 0x20 SHL PUSH1 0x20 SHR JUMP JUMPDEST PUSH3 0x5F4 PUSH32 0xD646AE07EB0D0F77457502A65E7407930DFF4CD4FD99ABC6AAC87A753F4C8A42 PUSH1 0x0 PUSH3 0x7B9 PUSH1 0x20 SHL PUSH1 0x20 SHR JUMP JUMPDEST PUSH3 0x610 PUSH8 0xA83A11A74EB277AE PUSH1 0xC0 SHL PUSH3 0x7B6 PUSH1 0x20 SHL PUSH1 0x20 SHR JUMP JUMPDEST PUSH1 0x40 MLOAD DUP1 PUSH1 0xE0 ADD PUSH1 0x40 MSTORE DUP1 PUSH1 0x0 PUSH4 0xFFFFFFFF AND DUP2 MSTORE PUSH1 0x20 ADD PUSH1 0x0 PUSH4 0xFFFFFFFF AND DUP2 MSTORE PUSH1 0x20 ADD PUSH1 0xF PUSH1 0xFF AND PUSH4 0xFFFFFFFF AND DUP2 MSTORE PUSH1 0x20 ADD PUSH1 0x50 PUSH1 0xFF AND DUP2 MSTORE PUSH1 0x20 ADD PUSH1 0x50 PUSH1 0xFF AND DUP2 MSTORE PUSH1 0x20 ADD PUSH32 0x4BBEB6FD3E5222E55F2F8B0C35BC228E0A06A25D0DA772FDB02C3B92FA004F88 DUP2 MSTORE PUSH1 0x20 ADD PUSH1 0x40 MLOAD PUSH1 0x20 ADD PUSH3 0x690 SWAP1 PUSH3 0xD37 JUMP JUMPDEST PUSH1 0x40 MLOAD PUSH1 0x20 DUP2 DUP4 SUB SUB DUP2 MSTORE SWAP1 PUSH1 0x40 MSTORE PUSH3 0x6AA SWAP1 PUSH3 0xC77 JUMP JUMPDEST DUP2 MSTORE POP PUSH1 0x3 PUSH1 0x0 PUSH32 0xD646AE07EB0D0F77457502A65E7407930DFF4CD4FD99ABC6AAC87A753F4C8A42 DUP2 MSTORE PUSH1 0x20 ADD SWAP1 DUP2 MSTORE PUSH1 0x20 ADD PUSH1 0x0 KECCAK256 PUSH1 0x0 DUP3 ADD MLOAD DUP2 PUSH1 0x0 ADD PUSH1 0x0 PUSH2 0x100 EXP DUP2 SLOAD DUP2 PUSH4 0xFFFFFFFF MUL NOT AND SWAP1 DUP4 PUSH4 0xFFFFFFFF AND MUL OR SWAP1 SSTORE POP PUSH1 0x20 DUP3 ADD MLOAD DUP2 PUSH1 0x0 ADD PUSH1 0x4 PUSH2 0x100 EXP DUP2 SLOAD DUP2 PUSH4 0xFFFFFFFF MUL NOT AND SWAP1 DUP4 PUSH4 0xFFFFFFFF AND MUL OR SWAP1 SSTORE POP PUSH1 0x40 DUP3 ADD MLOAD DUP2 PUSH1 0x0 ADD PUSH1 0x8 PUSH2 0x100 EXP DUP2 SLOAD DUP2 PUSH4 0xFFFFFFFF MUL NOT AND SWAP1 DUP4 PUSH4 0xFFFFFFFF AND MUL OR SWAP1 SSTORE POP PUSH1 0x60 DUP3 ADD MLOAD DUP2 PUSH1 0x0 ADD PUSH1 0xC PUSH2 0x100 EXP DUP2 SLOAD DUP2 PUSH1 0xFF MUL NOT AND SWAP1 DUP4 PUSH1 0xFF AND MUL OR SWAP1 SSTORE POP PUSH1 0x80 DUP3 ADD MLOAD DUP2 PUSH1 0x0 ADD PUSH1 0xD PUSH2 0x100 EXP DUP2 SLOAD DUP2 PUSH1 0xFF MUL NOT AND SWAP1 DUP4 PUSH1 0xFF AND MUL OR SWAP1 SSTORE POP PUSH1 0xA0 DUP3 ADD MLOAD DUP2 PUSH1 0x1 ADD SSTORE PUSH1 0xC0 DUP3 ADD MLOAD DUP2 PUSH1 0x2 ADD SSTORE SWAP1 POP POP POP POP PUSH3 0xD4E JUMP JUMPDEST POP JUMP JUMPDEST PUSH3 0x7CB DUP3 DUP3 PUSH3 0x7CF PUSH1 0x20 SHL PUSH1 0x20 SHR JUMP JUMPDEST POP POP JUMP JUMPDEST PUSH3 0x7E1 DUP3 DUP3 PUSH3 0x8C0 PUSH1 0x20 SHL PUSH1 0x20 SHR JUMP JUMPDEST PUSH3 0x8BC JUMPI PUSH1 0x1 PUSH1 0x0 DUP1 DUP5 DUP2 MSTORE PUSH1 0x20 ADD SWAP1 DUP2 MSTORE PUSH1 0x20 ADD PUSH1 0x0 KECCAK256 PUSH1 0x0 ADD PUSH1 0x0 DUP4 PUSH20 0xFFFFFFFFFFFFFFFFFFFFFFFFFFFFFFFFFFFFFFFF AND PUSH20 0xFFFFFFFFFFFFFFFFFFFFFFFFFFFFFFFFFFFFFFFF AND DUP2 MSTORE PUSH1 0x20 ADD SWAP1 DUP2 MSTORE PUSH1 0x20 ADD PUSH1 0x0 KECCAK256 PUSH1 0x0 PUSH2 0x100 EXP DUP2 SLOAD DUP2 PUSH1 0xFF MUL NOT AND SWAP1 DUP4 ISZERO ISZERO MUL OR SWAP1 SSTORE POP PUSH3 0x861 PUSH3 0x92A PUSH1 0x20 SHL PUSH1 0x20 SHR JUMP JUMPDEST PUSH20 0xFFFFFFFFFFFFFFFFFFFFFFFFFFFFFFFFFFFFFFFF AND DUP2 PUSH20 0xFFFFFFFFFFFFFFFFFFFFFFFFFFFFFFFFFFFFFFFF AND DUP4 PUSH32 0x2F8788117E7EFF1D82E926EC794901D17C78024A50270940304540A733656F0D PUSH1 0x40 MLOAD PUSH1 0x40 MLOAD DUP1 SWAP2 SUB SWAP1 LOG4 JUMPDEST POP POP JUMP JUMPDEST PUSH1 0x0 DUP1 PUSH1 0x0 DUP5 DUP2 MSTORE PUSH1 0x20 ADD SWAP1 DUP2 MSTORE PUSH1 0x20 ADD PUSH1 0x0 KECCAK256 PUSH1 0x0 ADD PUSH1 0x0 DUP4 PUSH20 0xFFFFFFFFFFFFFFFFFFFFFFFFFFFFFFFFFFFFFFFF AND PUSH20 0xFFFFFFFFFFFFFFFFFFFFFFFFFFFFFFFFFFFFFFFF AND DUP2 MSTORE PUSH1 0x20 ADD SWAP1 DUP2 MSTORE PUSH1 0x20 ADD PUSH1 0x0 KECCAK256 PUSH1 0x0 SWAP1 SLOAD SWAP1 PUSH2 0x100 EXP SWAP1 DIV PUSH1 0xFF AND SWAP1 POP SWAP3 SWAP2 POP POP JUMP JUMPDEST PUSH1 0x0 CALLER SWAP1 POP SWAP1 JUMP JUMPDEST PUSH1 0x0 DUP1 REVERT JUMPDEST PUSH1 0x0 PUSH20 0xFFFFFFFFFFFFFFFFFFFFFFFFFFFFFFFFFFFFFFFF DUP3 AND SWAP1 POP SWAP2 SWAP1 POP JUMP JUMPDEST PUSH1 0x0 PUSH3 0x964 DUP3 PUSH3 0x937 JUMP JUMPDEST SWAP1 POP SWAP2 SWAP1 POP JUMP JUMPDEST PUSH3 0x976 DUP2 PUSH3 0x957 JUMP JUMPDEST DUP2 EQ PUSH3 0x982 JUMPI PUSH1 0x0 DUP1 REVERT JUMPDEST POP JUMP JUMPDEST PUSH1 0x0 DUP2 MLOAD SWAP1 POP PUSH3 0x996 DUP2 PUSH3 0x96B JUMP JUMPDEST SWAP3 SWAP2 POP POP JUMP JUMPDEST PUSH1 0x0 DUP1 PUSH1 0x40 DUP4 DUP6 SUB SLT ISZERO PUSH3 0x9B6 JUMPI PUSH3 0x9B5 PUSH3 0x932 JUMP JUMPDEST JUMPDEST PUSH1 0x0 PUSH3 0x9C6 DUP6 DUP3 DUP7 ADD PUSH3 0x985 JUMP JUMPDEST SWAP3 POP POP PUSH1 0x20 PUSH3 0x9D9 DUP6 DUP3 DUP7 ADD PUSH3 0x985 JUMP JUMPDEST SWAP2 POP POP SWAP3 POP SWAP3 SWAP1 POP JUMP JUMPDEST PUSH1 0x0 DUP3 DUP3 MSTORE PUSH1 0x20 DUP3 ADD SWAP1 POP SWAP3 SWAP2 POP POP JUMP JUMPDEST PUSH32 0x4365727469666965722061646D696E3120616464726573732063616E6E6F7420 PUSH1 0x0 DUP3 ADD MSTORE PUSH32 0x6265203000000000000000000000000000000000000000000000000000000000 PUSH1 0x20 DUP3 ADD MSTORE POP JUMP JUMPDEST PUSH1 0x0 PUSH3 0xA52 PUSH1 0x24 DUP4 PUSH3 0x9E3 JUMP JUMPDEST SWAP2 POP PUSH3 0xA5F DUP3 PUSH3 0x9F4 JUMP JUMPDEST PUSH1 0x40 DUP3 ADD SWAP1 POP SWAP2 SWAP1 POP JUMP JUMPDEST PUSH1 0x0 PUSH1 0x20 DUP3 ADD SWAP1 POP DUP2 DUP2 SUB PUSH1 0x0 DUP4 ADD MSTORE PUSH3 0xA85 DUP2 PUSH3 0xA43 JUMP JUMPDEST SWAP1 POP SWAP2 SWAP1 POP JUMP JUMPDEST PUSH32 0x4365727469666965722061646D696E3220616464726573732063616E6E6F7420 PUSH1 0x0 DUP3 ADD MSTORE PUSH32 0x6265203000000000000000000000000000000000000000000000000000000000 PUSH1 0x20 DUP3 ADD MSTORE POP JUMP JUMPDEST PUSH1 0x0 PUSH3 0xAEA PUSH1 0x24 DUP4 PUSH3 0x9E3 JUMP JUMPDEST SWAP2 POP PUSH3 0xAF7 DUP3 PUSH3 0xA8C JUMP JUMPDEST PUSH1 0x40 DUP3 ADD SWAP1 POP SWAP2 SWAP1 POP JUMP JUMPDEST PUSH1 0x0 PUSH1 0x20 DUP3 ADD SWAP1 POP DUP2 DUP2 SUB PUSH1 0x0 DUP4 ADD MSTORE PUSH3 0xB1D DUP2 PUSH3 0xADB JUMP JUMPDEST SWAP1 POP SWAP2 SWAP1 POP JUMP JUMPDEST PUSH32 0x436572746966696572206164647265737365732063616E6E6F74206265207468 PUSH1 0x0 DUP3 ADD MSTORE PUSH32 0x652073616D650000000000000000000000000000000000000000000000000000 PUSH1 0x20 DUP3 ADD MSTORE POP JUMP JUMPDEST PUSH1 0x0 PUSH3 0xB82 PUSH1 0x26 DUP4 PUSH3 0x9E3 JUMP JUMPDEST SWAP2 POP PUSH3 0xB8F DUP3 PUSH3 0xB24 JUMP JUMPDEST PUSH1 0x40 DUP3 ADD SWAP1 POP SWAP2 SWAP1 POP JUMP JUMPDEST PUSH1 0x0 PUSH1 0x20 DUP3 ADD SWAP1 POP DUP2 DUP2 SUB PUSH1 0x0 DUP4 ADD MSTORE PUSH3 0xBB5 DUP2 PUSH3 0xB73 JUMP JUMPDEST SWAP1 POP SWAP2 SWAP1 POP JUMP JUMPDEST PUSH1 0x0 DUP2 SWAP1 POP SWAP3 SWAP2 POP POP JUMP JUMPDEST PUSH32 0x4345525449464945525F41444D494E0000000000000000000000000000000000 PUSH1 0x0 DUP3 ADD MSTORE POP JUMP JUMPDEST PUSH1 0x0 PUSH3 0xBFF PUSH1 0xF DUP4 PUSH3 0xBBC JUMP JUMPDEST SWAP2 POP PUSH3 0xC0C DUP3 PUSH3 0xBC7 JUMP JUMPDEST PUSH1 0xF DUP3 ADD SWAP1 POP SWAP2 SWAP1 POP JUMP JUMPDEST PUSH1 0x0 PUSH3 0xC24 DUP3 PUSH3 0xBF0 JUMP JUMPDEST SWAP2 POP DUP2 SWAP1 POP SWAP2 SWAP1 POP JUMP JUMPDEST PUSH1 0x0 DUP2 MLOAD SWAP1 POP SWAP2 SWAP1 POP JUMP JUMPDEST PUSH1 0x0 DUP2 SWAP1 POP PUSH1 0x20 DUP3 ADD SWAP1 POP SWAP2 SWAP1 POP JUMP JUMPDEST PUSH1 0x0 DUP2 SWAP1 POP SWAP2 SWAP1 POP JUMP JUMPDEST PUSH1 0x0 PUSH3 0xC61 DUP3 MLOAD PUSH3 0xC49 JUMP JUMPDEST DUP1 SWAP2 POP POP SWAP2 SWAP1 POP JUMP JUMPDEST PUSH1 0x0 DUP3 DUP3 SHL SWAP1 POP SWAP3 SWAP2 POP POP JUMP JUMPDEST PUSH1 0x0 PUSH3 0xC84 DUP3 PUSH3 0xC2E JUMP JUMPDEST DUP3 PUSH3 0xC90 DUP5 PUSH3 0xC39 JUMP JUMPDEST SWAP1 POP PUSH3 0xC9D DUP2 PUSH3 0xC53 JUMP JUMPDEST SWAP3 POP PUSH1 0x20 DUP3 LT ISZERO PUSH3 0xCE0 JUMPI PUSH3 0xCDB PUSH32 0xFFFFFFFFFFFFFFFFFFFFFFFFFFFFFFFFFFFFFFFFFFFFFFFFFFFFFFFFFFFFFFFF DUP4 PUSH1 0x20 SUB PUSH1 0x8 MUL PUSH3 0xC6A JUMP JUMPDEST DUP4 AND SWAP3 POP JUMPDEST POP POP SWAP2 SWAP1 POP JUMP JUMPDEST PUSH32 0x4345525449464945520000000000000000000000000000000000000000000000 PUSH1 0x0 DUP3 ADD MSTORE POP JUMP JUMPDEST PUSH1 0x0 PUSH3 0xD1F PUSH1 0x9 DUP4 PUSH3 0xBBC JUMP JUMPDEST SWAP2 POP PUSH3 0xD2C DUP3 PUSH3 0xCE7 JUMP JUMPDEST PUSH1 0x9 DUP3 ADD SWAP1 POP SWAP2 SWAP1 POP JUMP JUMPDEST PUSH1 0x0 PUSH3 0xD44 DUP3 PUSH3 0xD10 JUMP JUMPDEST SWAP2 POP DUP2 SWAP1 POP SWAP2 SWAP1 POP JUMP JUMPDEST PUSH2 0x857F DUP1 PUSH3 0xD5E PUSH1 0x0 CODECOPY PUSH1 0x0 RETURN INVALID PUSH1 0x80 PUSH1 0x40 MSTORE CALLVALUE DUP1 ISZERO PUSH2 0x10 JUMPI PUSH1 0x0 DUP1 REVERT JUMPDEST POP PUSH1 0x4 CALLDATASIZE LT PUSH2 0x211 JUMPI PUSH1 0x0 CALLDATALOAD PUSH1 0xE0 SHR DUP1 PUSH4 0x742F0688 GT PUSH2 0x125 JUMPI DUP1 PUSH4 0xB86BC74F GT PUSH2 0xAD JUMPI DUP1 PUSH4 0xD3243AD8 GT PUSH2 0x7C JUMPI DUP1 PUSH4 0xD3243AD8 EQ PUSH2 0x64A JUMPI DUP1 PUSH4 0xD547741F EQ PUSH2 0x666 JUMPI DUP1 PUSH4 0xDF3A12DD EQ PUSH2 0x682 JUMPI DUP1 PUSH4 0xE05F2FB4 EQ PUSH2 0x6B2 JUMPI DUP1 PUSH4 0xE5A357F5 EQ PUSH2 0x6D0 JUMPI PUSH2 0x211 JUMP JUMPDEST DUP1 PUSH4 0xB86BC74F EQ PUSH2 0x5C2 JUMPI DUP1 PUSH4 0xBF802091 EQ PUSH2 0x5E0 JUMPI DUP1 PUSH4 0xC9DBCFDA EQ PUSH2 0x610 JUMPI DUP1 PUSH4 0xD0FB68C7 EQ PUSH2 0x62C JUMPI PUSH2 0x211 JUMP JUMPDEST DUP1 PUSH4 0x9DD09A73 GT PUSH2 0xF4 JUMPI DUP1 PUSH4 0x9DD09A73 EQ PUSH2 0x51E JUMPI DUP1 PUSH4 0x9E339909 EQ PUSH2 0x54E JUMPI DUP1 PUSH4 0xA1CEBF52 EQ PUSH2 0x56C JUMPI DUP1 PUSH4 0xA217FDDF EQ PUSH2 0x588 JUMPI DUP1 PUSH4 0xACE81910 EQ PUSH2 0x5A6 JUMPI PUSH2 0x211 JUMP JUMPDEST DUP1 PUSH4 0x742F0688 EQ PUSH2 0x47F JUMPI DUP1 PUSH4 0x7CD29FB7 EQ PUSH2 0x4B4 JUMPI DUP1 PUSH4 0x8856A0E9 EQ PUSH2 0x4D2 JUMPI DUP1 PUSH4 0x91D14854 EQ PUSH2 0x4EE JUMPI PUSH2 0x211 JUMP JUMPDEST DUP1 PUSH4 0x2F2FF15D GT PUSH2 0x1A8 JUMPI DUP1 PUSH4 0x4DA11A20 GT PUSH2 0x177 JUMPI DUP1 PUSH4 0x4DA11A20 EQ PUSH2 0x3D9 JUMPI DUP1 PUSH4 0x5907EBEA EQ PUSH2 0x3F7 JUMPI DUP1 PUSH4 0x642F9163 EQ PUSH2 0x415 JUMPI DUP1 PUSH4 0x6BC6421B EQ PUSH2 0x445 JUMPI DUP1 PUSH4 0x719129BE EQ PUSH2 0x463 JUMPI PUSH2 0x211 JUMP JUMPDEST DUP1 PUSH4 0x2F2FF15D EQ PUSH2 0x353 JUMPI DUP1 PUSH4 0x33B72E49 EQ PUSH2 0x36F JUMPI DUP1 PUSH4 0x36568ABE EQ PUSH2 0x38D JUMPI DUP1 PUSH4 0x4CCE913B EQ PUSH2 0x3A9 JUMPI PUSH2 0x211 JUMP JUMPDEST DUP1 PUSH4 0x1A968069 GT PUSH2 0x1E4 JUMPI DUP1 PUSH4 0x1A968069 EQ PUSH2 0x2B3 JUMPI DUP1 PUSH4 0x1A9CFE28 EQ PUSH2 0x2E7 JUMPI DUP1 PUSH4 0x248A9CA3 EQ PUSH2 0x305 JUMPI DUP1 PUSH4 0x2CD94E4F EQ PUSH2 0x335 JUMPI PUSH2 0x211 JUMP JUMPDEST DUP1 PUSH4 0x1FFC9A7 EQ PUSH2 0x216 JUMPI DUP1 PUSH4 0x5F84D45 EQ PUSH2 0x246 JUMPI DUP1 PUSH4 0x6EAD22E EQ PUSH2 0x262 JUMPI DUP1 PUSH4 0xF68794A EQ PUSH2 0x295 JUMPI JUMPDEST PUSH1 0x0 DUP1 REVERT JUMPDEST PUSH2 0x230 PUSH1 0x4 DUP1 CALLDATASIZE SUB DUP2 ADD SWAP1 PUSH2 0x22B SWAP2 SWAP1 PUSH2 0x6098 JUMP JUMPDEST PUSH2 0x700 JUMP JUMPDEST PUSH1 0x40 MLOAD PUSH2 0x23D SWAP2 SWAP1 PUSH2 0x60E0 JUMP JUMPDEST PUSH1 0x40 MLOAD DUP1 SWAP2 SUB SWAP1 RETURN JUMPDEST PUSH2 0x260 PUSH1 0x4 DUP1 CALLDATASIZE SUB DUP2 ADD SWAP1 PUSH2 0x25B SWAP2 SWAP1 PUSH2 0x615D JUMP JUMPDEST PUSH2 0x77A JUMP JUMPDEST STOP JUMPDEST PUSH2 0x27C PUSH1 0x4 DUP1 CALLDATASIZE SUB DUP2 ADD SWAP1 PUSH2 0x277 SWAP2 SWAP1 PUSH2 0x619D JUMP JUMPDEST PUSH2 0xE87 JUMP JUMPDEST PUSH1 0x40 MLOAD PUSH2 0x28C SWAP5 SWAP4 SWAP3 SWAP2 SWAP1 PUSH2 0x6269 JUMP JUMPDEST PUSH1 0x40 MLOAD DUP1 SWAP2 SUB SWAP1 RETURN JUMPDEST PUSH2 0x29D PUSH2 0xFC7 JUMP JUMPDEST PUSH1 0x40 MLOAD PUSH2 0x2AA SWAP2 SWAP1 PUSH2 0x62D8 JUMP JUMPDEST PUSH1 0x40 MLOAD DUP1 SWAP2 SUB SWAP1 RETURN JUMPDEST PUSH2 0x2CD PUSH1 0x4 DUP1 CALLDATASIZE SUB DUP2 ADD SWAP1 PUSH2 0x2C8 SWAP2 SWAP1 PUSH2 0x6329 JUMP JUMPDEST PUSH2 0xFCC JUMP JUMPDEST PUSH1 0x40 MLOAD PUSH2 0x2DE SWAP6 SWAP5 SWAP4 SWAP3 SWAP2 SWAP1 PUSH2 0x6365 JUMP JUMPDEST PUSH1 0x40 MLOAD DUP1 SWAP2 SUB SWAP1 RETURN JUMPDEST PUSH2 0x2EF PUSH2 0x10B1 JUMP JUMPDEST PUSH1 0x40 MLOAD PUSH2 0x2FC SWAP2 SWAP1 PUSH2 0x62D8 JUMP JUMPDEST PUSH1 0x40 MLOAD DUP1 SWAP2 SUB SWAP1 RETURN JUMPDEST PUSH2 0x31F PUSH1 0x4 DUP1 CALLDATASIZE SUB DUP2 ADD SWAP1 PUSH2 0x31A SWAP2 SWAP1 PUSH2 0x6329 JUMP JUMPDEST PUSH2 0x10B6 JUMP JUMPDEST PUSH1 0x40 MLOAD PUSH2 0x32C SWAP2 SWAP1 PUSH2 0x63BF JUMP JUMPDEST PUSH1 0x40 MLOAD DUP1 SWAP2 SUB SWAP1 RETURN JUMPDEST PUSH2 0x33D PUSH2 0x10D5 JUMP JUMPDEST PUSH1 0x40 MLOAD PUSH2 0x34A SWAP2 SWAP1 PUSH2 0x62D8 JUMP JUMPDEST PUSH1 0x40 MLOAD DUP1 SWAP2 SUB SWAP1 RETURN JUMPDEST PUSH2 0x36D PUSH1 0x4 DUP1 CALLDATASIZE SUB DUP2 ADD SWAP1 PUSH2 0x368 SWAP2 SWAP1 PUSH2 0x6438 JUMP JUMPDEST PUSH2 0x10DA JUMP JUMPDEST STOP JUMPDEST PUSH2 0x377 PUSH2 0x10FB JUMP JUMPDEST PUSH1 0x40 MLOAD PUSH2 0x384 SWAP2 SWAP1 PUSH2 0x62D8 JUMP JUMPDEST PUSH1 0x40 MLOAD DUP1 SWAP2 SUB SWAP1 RETURN JUMPDEST PUSH2 0x3A7 PUSH1 0x4 DUP1 CALLDATASIZE SUB DUP2 ADD SWAP1 PUSH2 0x3A2 SWAP2 SWAP1 PUSH2 0x6438 JUMP JUMPDEST PUSH2 0x1100 JUMP JUMPDEST STOP JUMPDEST PUSH2 0x3C3 PUSH1 0x4 DUP1 CALLDATASIZE SUB DUP2 ADD SWAP1 PUSH2 0x3BE SWAP2 SWAP1 PUSH2 0x6478 JUMP JUMPDEST PUSH2 0x1177 JUMP JUMPDEST PUSH1 0x40 MLOAD PUSH2 0x3D0 SWAP2 SWAP1 PUSH2 0x63BF JUMP JUMPDEST PUSH1 0x40 MLOAD DUP1 SWAP2 SUB SWAP1 RETURN JUMPDEST PUSH2 0x3E1 PUSH2 0x11A8 JUMP JUMPDEST PUSH1 0x40 MLOAD PUSH2 0x3EE SWAP2 SWAP1 PUSH2 0x62D8 JUMP JUMPDEST PUSH1 0x40 MLOAD DUP1 SWAP2 SUB SWAP1 RETURN JUMPDEST PUSH2 0x3FF PUSH2 0x11AD JUMP JUMPDEST PUSH1 0x40 MLOAD PUSH2 0x40C SWAP2 SWAP1 PUSH2 0x62D8 JUMP JUMPDEST PUSH1 0x40 MLOAD DUP1 SWAP2 SUB SWAP1 RETURN JUMPDEST PUSH2 0x42F PUSH1 0x4 DUP1 CALLDATASIZE SUB DUP2 ADD SWAP1 PUSH2 0x42A SWAP2 SWAP1 PUSH2 0x619D JUMP JUMPDEST PUSH2 0x11B2 JUMP JUMPDEST PUSH1 0x40 MLOAD PUSH2 0x43C SWAP2 SWAP1 PUSH2 0x657B JUMP JUMPDEST PUSH1 0x40 MLOAD DUP1 SWAP2 SUB SWAP1 RETURN JUMPDEST PUSH2 0x44D PUSH2 0x13FC JUMP JUMPDEST PUSH1 0x40 MLOAD PUSH2 0x45A SWAP2 SWAP1 PUSH2 0x62D8 JUMP JUMPDEST PUSH1 0x40 MLOAD DUP1 SWAP2 SUB SWAP1 RETURN JUMPDEST PUSH2 0x47D PUSH1 0x4 DUP1 CALLDATASIZE SUB DUP2 ADD SWAP1 PUSH2 0x478 SWAP2 SWAP1 PUSH2 0x659D JUMP JUMPDEST PUSH2 0x1401 JUMP JUMPDEST STOP JUMPDEST PUSH2 0x499 PUSH1 0x4 DUP1 CALLDATASIZE SUB DUP2 ADD SWAP1 PUSH2 0x494 SWAP2 SWAP1 PUSH2 0x6329 JUMP JUMPDEST PUSH2 0x1C85 JUMP JUMPDEST PUSH1 0x40 MLOAD PUSH2 0x4AB SWAP7 SWAP6 SWAP5 SWAP4 SWAP3 SWAP2 SWAP1 PUSH2 0x66F7 JUMP JUMPDEST PUSH1 0x40 MLOAD DUP1 SWAP2 SUB SWAP1 RETURN JUMPDEST PUSH2 0x4BC PUSH2 0x1CF5 JUMP JUMPDEST PUSH1 0x40 MLOAD PUSH2 0x4C9 SWAP2 SWAP1 PUSH2 0x62D8 JUMP JUMPDEST PUSH1 0x40 MLOAD DUP1 SWAP2 SUB SWAP1 RETURN JUMPDEST PUSH2 0x4EC PUSH1 0x4 DUP1 CALLDATASIZE SUB DUP2 ADD SWAP1 PUSH2 0x4E7 SWAP2 SWAP1 PUSH2 0x67C7 JUMP JUMPDEST PUSH2 0x1CFA JUMP JUMPDEST STOP JUMPDEST PUSH2 0x508 PUSH1 0x4 DUP1 CALLDATASIZE SUB DUP2 ADD SWAP1 PUSH2 0x503 SWAP2 SWAP1 PUSH2 0x6438 JUMP JUMPDEST PUSH2 0x27BC JUMP JUMPDEST PUSH1 0x40 MLOAD PUSH2 0x515 SWAP2 SWAP1 PUSH2 0x60E0 JUMP JUMPDEST PUSH1 0x40 MLOAD DUP1 SWAP2 SUB SWAP1 RETURN JUMPDEST PUSH2 0x538 PUSH1 0x4 DUP1 CALLDATASIZE SUB DUP2 ADD SWAP1 PUSH2 0x533 SWAP2 SWAP1 PUSH2 0x619D JUMP JUMPDEST PUSH2 0x2826 JUMP JUMPDEST PUSH1 0x40 MLOAD PUSH2 0x545 SWAP2 SWAP1 PUSH2 0x63BF JUMP JUMPDEST PUSH1 0x40 MLOAD DUP1 SWAP2 SUB SWAP1 RETURN JUMPDEST PUSH2 0x556 PUSH2 0x283E JUMP JUMPDEST PUSH1 0x40 MLOAD PUSH2 0x563 SWAP2 SWAP1 PUSH2 0x62D8 JUMP JUMPDEST PUSH1 0x40 MLOAD DUP1 SWAP2 SUB SWAP1 RETURN JUMPDEST PUSH2 0x586 PUSH1 0x4 DUP1 CALLDATASIZE SUB DUP2 ADD SWAP1 PUSH2 0x581 SWAP2 SWAP1 PUSH2 0x6977 JUMP JUMPDEST PUSH2 0x2843 JUMP JUMPDEST STOP JUMPDEST PUSH2 0x590 PUSH2 0x2C41 JUMP JUMPDEST PUSH1 0x40 MLOAD PUSH2 0x59D SWAP2 SWAP1 PUSH2 0x63BF JUMP JUMPDEST PUSH1 0x40 MLOAD DUP1 SWAP2 SUB SWAP1 RETURN JUMPDEST PUSH2 0x5C0 PUSH1 0x4 DUP1 CALLDATASIZE SUB DUP2 ADD SWAP1 PUSH2 0x5BB SWAP2 SWAP1 PUSH2 0x67C7 JUMP JUMPDEST PUSH2 0x2C48 JUMP JUMPDEST STOP JUMPDEST PUSH2 0x5CA PUSH2 0x36CF JUMP JUMPDEST PUSH1 0x40 MLOAD PUSH2 0x5D7 SWAP2 SWAP1 PUSH2 0x63BF JUMP JUMPDEST PUSH1 0x40 MLOAD DUP1 SWAP2 SUB SWAP1 RETURN JUMPDEST PUSH2 0x5FA PUSH1 0x4 DUP1 CALLDATASIZE SUB DUP2 ADD SWAP1 PUSH2 0x5F5 SWAP2 SWAP1 PUSH2 0x6478 JUMP JUMPDEST PUSH2 0x36F3 JUMP JUMPDEST PUSH1 0x40 MLOAD PUSH2 0x607 SWAP2 SWAP1 PUSH2 0x6A16 JUMP JUMPDEST PUSH1 0x40 MLOAD DUP1 SWAP2 SUB SWAP1 RETURN JUMPDEST PUSH2 0x62A PUSH1 0x4 DUP1 CALLDATASIZE SUB DUP2 ADD SWAP1 PUSH2 0x625 SWAP2 SWAP1 PUSH2 0x6977 JUMP JUMPDEST PUSH2 0x37F0 JUMP JUMPDEST STOP JUMPDEST PUSH2 0x634 PUSH2 0x3A33 JUMP JUMPDEST PUSH1 0x40 MLOAD PUSH2 0x641 SWAP2 SWAP1 PUSH2 0x62D8 JUMP JUMPDEST PUSH1 0x40 MLOAD DUP1 SWAP2 SUB SWAP1 RETURN JUMPDEST PUSH2 0x664 PUSH1 0x4 DUP1 CALLDATASIZE SUB DUP2 ADD SWAP1 PUSH2 0x65F SWAP2 SWAP1 PUSH2 0x659D JUMP JUMPDEST PUSH2 0x3A38 JUMP JUMPDEST STOP JUMPDEST PUSH2 0x680 PUSH1 0x4 DUP1 CALLDATASIZE SUB DUP2 ADD SWAP1 PUSH2 0x67B SWAP2 SWAP1 PUSH2 0x6438 JUMP JUMPDEST PUSH2 0x45FC JUMP JUMPDEST STOP JUMPDEST PUSH2 0x69C PUSH1 0x4 DUP1 CALLDATASIZE SUB DUP2 ADD SWAP1 PUSH2 0x697 SWAP2 SWAP1 PUSH2 0x619D JUMP JUMPDEST PUSH2 0x461D JUMP JUMPDEST PUSH1 0x40 MLOAD PUSH2 0x6A9 SWAP2 SWAP1 PUSH2 0x6A16 JUMP JUMPDEST PUSH1 0x40 MLOAD DUP1 SWAP2 SUB SWAP1 RETURN JUMPDEST PUSH2 0x6BA PUSH2 0x4641 JUMP JUMPDEST PUSH1 0x40 MLOAD PUSH2 0x6C7 SWAP2 SWAP1 PUSH2 0x63BF JUMP JUMPDEST PUSH1 0x40 MLOAD DUP1 SWAP2 SUB SWAP1 RETURN JUMPDEST PUSH2 0x6EA PUSH1 0x4 DUP1 CALLDATASIZE SUB DUP2 ADD SWAP1 PUSH2 0x6E5 SWAP2 SWAP1 PUSH2 0x619D JUMP JUMPDEST PUSH2 0x4665 JUMP JUMPDEST PUSH1 0x40 MLOAD PUSH2 0x6F7 SWAP2 SWAP1 PUSH2 0x6AEF JUMP JUMPDEST PUSH1 0x40 MLOAD DUP1 SWAP2 SUB SWAP1 RETURN JUMPDEST PUSH1 0x0 PUSH32 0x7965DB0B00000000000000000000000000000000000000000000000000000000 PUSH28 0xFFFFFFFFFFFFFFFFFFFFFFFFFFFFFFFFFFFFFFFFFFFFFFFFFFFFFFFF NOT AND DUP3 PUSH28 0xFFFFFFFFFFFFFFFFFFFFFFFFFFFFFFFFFFFFFFFFFFFFFFFFFFFFFFFF NOT AND EQ DUP1 PUSH2 0x773 JUMPI POP PUSH2 0x772 DUP3 PUSH2 0x47B5 JUMP JUMPDEST JUMPDEST SWAP1 POP SWAP2 SWAP1 POP JUMP JUMPDEST PUSH2 0x78E PUSH8 0x7C7927E4B5BD48F4 PUSH1 0xC0 SHL PUSH2 0x481F JUMP JUMPDEST PUSH2 0x7A2 PUSH8 0xA4EBBAF8FAAC82D2 PUSH1 0xC0 SHL PUSH2 0x481F JUMP JUMPDEST PUSH2 0x7B6 PUSH8 0x97B47E77A9A7B3FC PUSH1 0xC0 SHL PUSH2 0x481F JUMP JUMPDEST PUSH2 0x7CA PUSH8 0x758438FA606727D9 PUSH1 0xC0 SHL PUSH2 0x481F JUMP JUMPDEST PUSH2 0x7F4 PUSH32 0xD646AE07EB0D0F77457502A65E7407930DFF4CD4FD99ABC6AAC87A753F4C8A42 CALLER PUSH2 0x27BC JUMP JUMPDEST PUSH2 0x833 JUMPI PUSH1 0x40 MLOAD PUSH32 0x8C379A000000000000000000000000000000000000000000000000000000000 DUP2 MSTORE PUSH1 0x4 ADD PUSH2 0x82A SWAP1 PUSH2 0x6B5D JUMP JUMPDEST PUSH1 0x40 MLOAD DUP1 SWAP2 SUB SWAP1 REVERT JUMPDEST PUSH2 0x847 PUSH8 0x589E0C39053CAD26 PUSH1 0xC0 SHL PUSH2 0x481F JUMP JUMPDEST PUSH2 0x85B PUSH8 0x59DE4F2A505F6C6D PUSH1 0xC0 SHL PUSH2 0x481F JUMP JUMPDEST PUSH2 0x86F PUSH8 0x6D4A2D08A14EA231 PUSH1 0xC0 SHL PUSH2 0x481F JUMP JUMPDEST PUSH2 0x883 PUSH8 0xC3B37424D9C469D0 PUSH1 0xC0 SHL PUSH2 0x481F JUMP JUMPDEST PUSH1 0x0 DUP3 GT PUSH2 0x8C6 JUMPI PUSH1 0x40 MLOAD PUSH32 0x8C379A000000000000000000000000000000000000000000000000000000000 DUP2 MSTORE PUSH1 0x4 ADD PUSH2 0x8BD SWAP1 PUSH2 0x6BC9 JUMP JUMPDEST PUSH1 0x40 MLOAD DUP1 SWAP2 SUB SWAP1 REVERT JUMPDEST PUSH2 0x8DA PUSH8 0x740CE2464856C2B3 PUSH1 0xC0 SHL PUSH2 0x481F JUMP JUMPDEST PUSH2 0x8EE PUSH8 0x6AE93F6BF114C2F7 PUSH1 0xC0 SHL PUSH2 0x481F JUMP JUMPDEST PUSH2 0x902 PUSH8 0x7A7ED0C4E5844014 PUSH1 0xC0 SHL PUSH2 0x481F JUMP JUMPDEST PUSH2 0x916 PUSH8 0x45D4F9869D13660B PUSH1 0xC0 SHL PUSH2 0x481F JUMP JUMPDEST PUSH1 0x0 PUSH1 0x1 PUSH1 0x0 DUP5 DUP2 MSTORE PUSH1 0x20 ADD SWAP1 DUP2 MSTORE PUSH1 0x20 ADD PUSH1 0x0 KECCAK256 PUSH1 0x0 ADD SLOAD SUB PUSH2 0x96F JUMPI PUSH1 0x40 MLOAD PUSH32 0x8C379A000000000000000000000000000000000000000000000000000000000 DUP2 MSTORE PUSH1 0x4 ADD PUSH2 0x966 SWAP1 PUSH2 0x6C35 JUMP JUMPDEST PUSH1 0x40 MLOAD DUP1 SWAP2 SUB SWAP1 REVERT JUMPDEST PUSH2 0x983 PUSH8 0x1CBDD7ADD0B2DD5C PUSH1 0xC0 SHL PUSH2 0x481F JUMP JUMPDEST PUSH2 0x997 PUSH8 0xF2A3B9BA0BC2281E PUSH1 0xC0 SHL PUSH2 0x481F JUMP JUMPDEST PUSH2 0x9AB PUSH8 0x9859BE0913BC1E17 PUSH1 0xC0 SHL PUSH2 0x481F JUMP JUMPDEST PUSH1 0x0 DUP3 PUSH1 0x40 MLOAD PUSH1 0x20 ADD PUSH2 0x9BE SWAP2 SWAP1 PUSH2 0x6CCD JUMP JUMPDEST PUSH1 0x40 MLOAD PUSH1 0x20 DUP2 DUP4 SUB SUB DUP2 MSTORE SWAP1 PUSH1 0x40 MSTORE DUP1 MLOAD SWAP1 PUSH1 0x20 ADD KECCAK256 SWAP1 POP PUSH2 0x9EA PUSH8 0x8F5912FC196C66FB PUSH1 0xC0 SHL PUSH2 0x481F JUMP JUMPDEST PUSH2 0x9FE PUSH8 0xD451AD32AAB430B8 PUSH1 0xC0 SHL PUSH2 0x481F JUMP JUMPDEST PUSH2 0xA67 DUP2 PUSH32 0xD646AE07EB0D0F77457502A65E7407930DFF4CD4FD99ABC6AAC87A753F4C8A42 DUP6 PUSH1 0x40 MLOAD PUSH1 0x20 ADD PUSH2 0xA34 SWAP2 SWAP1 PUSH2 0x6CF3 JUMP JUMPDEST PUSH1 0x40 MLOAD PUSH1 0x20 DUP2 DUP4 SUB SUB DUP2 MSTORE SWAP1 PUSH1 0x40 MSTORE PUSH1 0x40 MLOAD PUSH1 0x20 ADD PUSH2 0xA53 SWAP2 SWAP1 PUSH2 0x6D65 JUMP JUMPDEST PUSH1 0x40 MLOAD PUSH1 0x20 DUP2 DUP4 SUB SUB DUP2 MSTORE SWAP1 PUSH1 0x40 MSTORE PUSH2 0x4822 JUMP JUMPDEST PUSH2 0xA7B PUSH8 0x2F872260EC70AA80 PUSH1 0xC0 SHL PUSH2 0x481F JUMP JUMPDEST PUSH2 0xA8F PUSH8 0xE28D98831E470A0E PUSH1 0xC0 SHL PUSH2 0x481F JUMP JUMPDEST DUP2 DUP1 ISZERO PUSH2 0xB00 JUMPI POP PUSH1 0x0 ISZERO ISZERO PUSH1 0x4 PUSH1 0x0 DUP4 DUP2 MSTORE PUSH1 0x20 ADD SWAP1 DUP2 MSTORE PUSH1 0x20 ADD PUSH1 0x0 KECCAK256 PUSH1 0x3 ADD PUSH1 0x0 CALLER PUSH20 0xFFFFFFFFFFFFFFFFFFFFFFFFFFFFFFFFFFFFFFFF AND PUSH20 0xFFFFFFFFFFFFFFFFFFFFFFFFFFFFFFFFFFFFFFFF AND DUP2 MSTORE PUSH1 0x20 ADD SWAP1 DUP2 MSTORE PUSH1 0x20 ADD PUSH1 0x0 KECCAK256 PUSH1 0x0 SWAP1 SLOAD SWAP1 PUSH2 0x100 EXP SWAP1 DIV PUSH1 0xFF AND ISZERO ISZERO EQ JUMPDEST ISZERO PUSH2 0xBC1 JUMPI PUSH2 0xB19 PUSH8 0x70E61A765DFB20AA PUSH1 0xC0 SHL PUSH2 0x481F JUMP JUMPDEST PUSH2 0xB2D PUSH8 0x68C3BD0AF40A1B5D PUSH1 0xC0 SHL PUSH2 0x481F JUMP JUMPDEST PUSH2 0xB41 PUSH8 0x2BC4242EBEBE4289 PUSH1 0xC0 SHL PUSH2 0x481F JUMP JUMPDEST PUSH2 0xB5D PUSH1 0x4 PUSH1 0x0 DUP4 DUP2 MSTORE PUSH1 0x20 ADD SWAP1 DUP2 MSTORE PUSH1 0x20 ADD PUSH1 0x0 KECCAK256 CALLER PUSH2 0x49C6 JUMP JUMPDEST PUSH2 0xB71 PUSH8 0xE87324C8C42B7147 PUSH1 0xC0 SHL PUSH2 0x481F JUMP JUMPDEST PUSH2 0xB85 PUSH8 0x2C4D7D6A241E4B89 PUSH1 0xC0 SHL PUSH2 0x481F JUMP JUMPDEST PUSH32 0xB431A69783A2491A0C400FF16DAB32CD442ABF8FE5AF63A526A7248D730192F8 DUP2 PUSH1 0x40 MLOAD PUSH2 0xBB4 SWAP2 SWAP1 PUSH2 0x63BF JUMP JUMPDEST PUSH1 0x40 MLOAD DUP1 SWAP2 SUB SWAP1 LOG1 PUSH2 0xCC7 JUMP JUMPDEST PUSH2 0xBD5 PUSH8 0xF2F4865958547479 PUSH1 0xC0 SHL PUSH2 0x481F JUMP JUMPDEST PUSH2 0xBE9 PUSH8 0x8E01888C80102D37 PUSH1 0xC0 SHL PUSH2 0x481F JUMP JUMPDEST PUSH1 0x0 ISZERO ISZERO DUP3 ISZERO ISZERO SUB PUSH2 0xCB1 JUMPI PUSH2 0xC09 PUSH8 0xBC51F865C49130A8 PUSH1 0xC0 SHL PUSH2 0x481F JUMP JUMPDEST PUSH2 0xC1D PUSH8 0xF8B6AC0350413CDE PUSH1 0xC0 SHL PUSH2 0x481F JUMP JUMPDEST PUSH2 0xC31 PUSH8 0x4F5571DC82A8340F PUSH1 0xC0 SHL PUSH2 0x481F JUMP JUMPDEST PUSH2 0xC4D PUSH1 0x4 PUSH1 0x0 DUP4 DUP2 MSTORE PUSH1 0x20 ADD SWAP1 DUP2 MSTORE PUSH1 0x20 ADD PUSH1 0x0 KECCAK256 CALLER PUSH2 0x4C48 JUMP JUMPDEST PUSH2 0xC61 PUSH8 0xDF20EF43CD86120A PUSH1 0xC0 SHL PUSH2 0x481F JUMP JUMPDEST PUSH2 0xC75 PUSH8 0xF9332553ECEB56D8 PUSH1 0xC0 SHL PUSH2 0x481F JUMP JUMPDEST PUSH32 0xB431A69783A2491A0C400FF16DAB32CD442ABF8FE5AF63A526A7248D730192F8 DUP2 PUSH1 0x40 MLOAD PUSH2 0xCA4 SWAP2 SWAP1 PUSH2 0x63BF JUMP JUMPDEST PUSH1 0x40 MLOAD DUP1 SWAP2 SUB SWAP1 LOG1 PUSH2 0xCC6 JUMP JUMPDEST PUSH2 0xCC5 PUSH8 0x7D4CEA3F8D4622D5 PUSH1 0xC0 SHL PUSH2 0x481F JUMP JUMPDEST JUMPDEST JUMPDEST PUSH2 0xCDB PUSH8 0xEB262170AB108A03 PUSH1 0xC0 SHL PUSH2 0x481F JUMP JUMPDEST PUSH2 0xCEF PUSH8 0x978F6ECC8F606819 PUSH1 0xC0 SHL PUSH2 0x481F JUMP JUMPDEST PUSH2 0xD55 PUSH1 0x50 PUSH1 0xFF AND PUSH1 0x3 PUSH1 0x0 PUSH32 0xD646AE07EB0D0F77457502A65E7407930DFF4CD4FD99ABC6AAC87A753F4C8A42 DUP2 MSTORE PUSH1 0x20 ADD SWAP1 DUP2 MSTORE PUSH1 0x20 ADD PUSH1 0x0 KECCAK256 PUSH1 0x0 ADD PUSH1 0x0 SWAP1 SLOAD SWAP1 PUSH2 0x100 EXP SWAP1 DIV PUSH4 0xFFFFFFFF AND PUSH2 0xD48 SWAP2 SWAP1 PUSH2 0x6DCA JUMP JUMPDEST PUSH4 0xFFFFFFFF AND PUSH1 0x64 PUSH2 0x36F3 JUMP JUMPDEST PUSH1 0x4 PUSH1 0x0 DUP4 DUP2 MSTORE PUSH1 0x20 ADD SWAP1 DUP2 MSTORE PUSH1 0x20 ADD PUSH1 0x0 KECCAK256 PUSH1 0x2 ADD PUSH1 0x0 SWAP1 SLOAD SWAP1 PUSH2 0x100 EXP SWAP1 DIV PUSH1 0xFF AND PUSH1 0xFF AND LT PUSH2 0xE6D JUMPI PUSH2 0xD95 PUSH8 0xD61646692ED40D10 PUSH1 0xC0 SHL PUSH2 0x481F JUMP JUMPDEST PUSH2 0xDA9 PUSH8 0x281F41604962EF63 PUSH1 0xC0 SHL PUSH2 0x481F JUMP JUMPDEST PUSH2 0xDBD PUSH8 0x1DC47E9DC7E2D49 PUSH1 0xC0 SHL PUSH2 0x481F JUMP JUMPDEST PUSH2 0xDD8 PUSH1 0x4 PUSH1 0x0 DUP4 DUP2 MSTORE PUSH1 0x20 ADD SWAP1 DUP2 MSTORE PUSH1 0x20 ADD PUSH1 0x0 KECCAK256 PUSH2 0x4E00 JUMP JUMPDEST PUSH2 0xDEC PUSH8 0xE00C6E3F0D9A678B PUSH1 0xC0 SHL PUSH2 0x481F JUMP JUMPDEST PUSH2 0xE00 PUSH8 0x211496B55CB50CFF PUSH1 0xC0 SHL PUSH2 0x481F JUMP JUMPDEST PUSH32 0x562618DBCF74B61AE5B0F229FE40BA6D5B6AE6B4248F8C89A870DDA7C77135F6 DUP2 PUSH1 0x40 MLOAD PUSH2 0xE2F SWAP2 SWAP1 PUSH2 0x63BF JUMP JUMPDEST PUSH1 0x40 MLOAD DUP1 SWAP2 SUB SWAP1 LOG1 PUSH2 0xE4B PUSH8 0xFA27C246EEE8A08B PUSH1 0xC0 SHL PUSH2 0x481F JUMP JUMPDEST PUSH2 0xE5F PUSH8 0xBA7A7D4F3FF1ED82 PUSH1 0xC0 SHL PUSH2 0x481F JUMP JUMPDEST PUSH2 0xE68 DUP4 PUSH2 0x4F4D JUMP JUMPDEST PUSH2 0xE82 JUMP JUMPDEST PUSH2 0xE81 PUSH8 0x19A84E662ED6D2E4 PUSH1 0xC0 SHL PUSH2 0x481F JUMP JUMPDEST JUMPDEST POP POP POP JUMP JUMPDEST PUSH1 0x1 PUSH1 0x20 MSTORE DUP1 PUSH1 0x0 MSTORE PUSH1 0x40 PUSH1 0x0 KECCAK256 PUSH1 0x0 SWAP2 POP SWAP1 POP DUP1 PUSH1 0x0 ADD SLOAD SWAP1 DUP1 PUSH1 0x1 ADD DUP1 SLOAD PUSH2 0xEB0 SWAP1 PUSH2 0x6E36 JUMP JUMPDEST DUP1 PUSH1 0x1F ADD PUSH1 0x20 DUP1 SWAP2 DIV MUL PUSH1 0x20 ADD PUSH1 0x40 MLOAD SWAP1 DUP2 ADD PUSH1 0x40 MSTORE DUP1 SWAP3 SWAP2 SWAP1 DUP2 DUP2 MSTORE PUSH1 0x20 ADD DUP3 DUP1 SLOAD PUSH2 0xEDC SWAP1 PUSH2 0x6E36 JUMP JUMPDEST DUP1 ISZERO PUSH2 0xF29 JUMPI DUP1 PUSH1 0x1F LT PUSH2 0xEFE JUMPI PUSH2 0x100 DUP1 DUP4 SLOAD DIV MUL DUP4 MSTORE SWAP2 PUSH1 0x20 ADD SWAP2 PUSH2 0xF29 JUMP JUMPDEST DUP3 ADD SWAP2 SWAP1 PUSH1 0x0 MSTORE PUSH1 0x20 PUSH1 0x0 KECCAK256 SWAP1 JUMPDEST DUP2 SLOAD DUP2 MSTORE SWAP1 PUSH1 0x1 ADD SWAP1 PUSH1 0x20 ADD DUP1 DUP4 GT PUSH2 0xF0C JUMPI DUP3 SWAP1 SUB PUSH1 0x1F AND DUP3 ADD SWAP2 JUMPDEST POP POP POP POP POP SWAP1 DUP1 PUSH1 0x2 ADD DUP1 SLOAD PUSH2 0xF3E SWAP1 PUSH2 0x6E36 JUMP JUMPDEST DUP1 PUSH1 0x1F ADD PUSH1 0x20 DUP1 SWAP2 DIV MUL PUSH1 0x20 ADD PUSH1 0x40 MLOAD SWAP1 DUP2 ADD PUSH1 0x40 MSTORE DUP1 SWAP3 SWAP2 SWAP1 DUP2 DUP2 MSTORE PUSH1 0x20 ADD DUP3 DUP1 SLOAD PUSH2 0xF6A SWAP1 PUSH2 0x6E36 JUMP JUMPDEST DUP1 ISZERO PUSH2 0xFB7 JUMPI DUP1 PUSH1 0x1F LT PUSH2 0xF8C JUMPI PUSH2 0x100 DUP1 DUP4 SLOAD DIV MUL DUP4 MSTORE SWAP2 PUSH1 0x20 ADD SWAP2 PUSH2 0xFB7 JUMP JUMPDEST DUP3 ADD SWAP2 SWAP1 PUSH1 0x0 MSTORE PUSH1 0x20 PUSH1 0x0 KECCAK256 SWAP1 JUMPDEST DUP2 SLOAD DUP2 MSTORE SWAP1 PUSH1 0x1 ADD SWAP1 PUSH1 0x20 ADD DUP1 DUP4 GT PUSH2 0xF9A JUMPI DUP3 SWAP1 SUB PUSH1 0x1F AND DUP3 ADD SWAP2 JUMPDEST POP POP POP POP POP SWAP1 DUP1 PUSH1 0x3 ADD SLOAD SWAP1 POP DUP5 JUMP JUMPDEST PUSH1 0x50 DUP2 JUMP JUMPDEST PUSH1 0x4 PUSH1 0x20 MSTORE DUP1 PUSH1 0x0 MSTORE PUSH1 0x40 PUSH1 0x0 KECCAK256 PUSH1 0x0 SWAP2 POP SWAP1 POP DUP1 PUSH1 0x0 ADD PUSH1 0x0 SWAP1 SLOAD SWAP1 PUSH2 0x100 EXP SWAP1 DIV PUSH1 0xFF AND SWAP1 DUP1 PUSH1 0x1 ADD SLOAD SWAP1 DUP1 PUSH1 0x2 ADD PUSH1 0x0 SWAP1 SLOAD SWAP1 PUSH2 0x100 EXP SWAP1 DIV PUSH1 0xFF AND SWAP1 DUP1 PUSH1 0x2 ADD PUSH1 0x1 SWAP1 SLOAD SWAP1 PUSH2 0x100 EXP SWAP1 DIV PUSH1 0xFF AND SWAP1 DUP1 PUSH1 0x5 ADD DUP1 SLOAD PUSH2 0x102E SWAP1 PUSH2 0x6E36 JUMP JUMPDEST DUP1 PUSH1 0x1F ADD PUSH1 0x20 DUP1 SWAP2 DIV MUL PUSH1 0x20 ADD PUSH1 0x40 MLOAD SWAP1 DUP2 ADD PUSH1 0x40 MSTORE DUP1 SWAP3 SWAP2 SWAP1 DUP2 DUP2 MSTORE PUSH1 0x20 ADD DUP3 DUP1 SLOAD PUSH2 0x105A SWAP1 PUSH2 0x6E36 JUMP JUMPDEST DUP1 ISZERO PUSH2 0x10A7 JUMPI DUP1 PUSH1 0x1F LT PUSH2 0x107C JUMPI PUSH2 0x100 DUP1 DUP4 SLOAD DIV MUL DUP4 MSTORE SWAP2 PUSH1 0x20 ADD SWAP2 PUSH2 0x10A7 JUMP JUMPDEST DUP3 ADD SWAP2 SWAP1 PUSH1 0x0 MSTORE PUSH1 0x20 PUSH1 0x0 KECCAK256 SWAP1 JUMPDEST DUP2 SLOAD DUP2 MSTORE SWAP1 PUSH1 0x1 ADD SWAP1 PUSH1 0x20 ADD DUP1 DUP4 GT PUSH2 0x108A JUMPI DUP3 SWAP1 SUB PUSH1 0x1F AND DUP3 ADD SWAP2 JUMPDEST POP POP POP POP POP SWAP1 POP DUP6 JUMP JUMPDEST PUSH1 0x50 DUP2 JUMP JUMPDEST PUSH1 0x0 DUP1 PUSH1 0x0 DUP4 DUP2 MSTORE PUSH1 0x20 ADD SWAP1 DUP2 MSTORE PUSH1 0x20 ADD PUSH1 0x0 KECCAK256 PUSH1 0x1 ADD SLOAD SWAP1 POP SWAP2 SWAP1 POP JUMP JUMPDEST PUSH1 0x50 DUP2 JUMP JUMPDEST PUSH2 0x10E3 DUP3 PUSH2 0x10B6 JUMP JUMPDEST PUSH2 0x10EC DUP2 PUSH2 0x512F JUMP JUMPDEST PUSH2 0x10F6 DUP4 DUP4 PUSH2 0x5143 JUMP JUMPDEST POP POP POP JUMP JUMPDEST PUSH1 0x2 DUP2 JUMP JUMPDEST PUSH2 0x1114 PUSH8 0x515D414290EF63A7 PUSH1 0xC0 SHL PUSH2 0x481F JUMP JUMPDEST PUSH2 0x1128 PUSH8 0x408D4005470649CF PUSH1 0xC0 SHL PUSH2 0x481F JUMP JUMPDEST PUSH2 0x113C PUSH8 0x9C54A3CC10A34A3D PUSH1 0xC0 SHL PUSH2 0x481F JUMP JUMPDEST PUSH1 0x40 MLOAD PUSH32 0x8C379A000000000000000000000000000000000000000000000000000000000 DUP2 MSTORE PUSH1 0x4 ADD PUSH2 0x116E SWAP1 PUSH2 0x6ED9 JUMP JUMPDEST PUSH1 0x40 MLOAD DUP1 SWAP2 SUB SWAP1 REVERT JUMPDEST PUSH1 0x8 PUSH1 0x20 MSTORE DUP2 PUSH1 0x0 MSTORE PUSH1 0x40 PUSH1 0x0 KECCAK256 DUP2 DUP2 SLOAD DUP2 LT PUSH2 0x1193 JUMPI PUSH1 0x0 DUP1 REVERT JUMPDEST SWAP1 PUSH1 0x0 MSTORE PUSH1 0x20 PUSH1 0x0 KECCAK256 ADD PUSH1 0x0 SWAP2 POP SWAP2 POP POP SLOAD DUP2 JUMP JUMPDEST PUSH1 0x50 DUP2 JUMP JUMPDEST PUSH1 0xF DUP2 JUMP JUMPDEST PUSH2 0x11BA PUSH2 0x5FA7 JUMP JUMPDEST PUSH2 0x11CE PUSH8 0xCB790D03A7518F83 PUSH1 0xC0 SHL PUSH2 0x5223 JUMP JUMPDEST PUSH2 0x11E2 PUSH8 0xB555F135A018A115 PUSH1 0xC0 SHL PUSH2 0x5223 JUMP JUMPDEST PUSH2 0x11F6 PUSH8 0x4AE94C950C3986DE PUSH1 0xC0 SHL PUSH2 0x5223 JUMP JUMPDEST PUSH2 0x120A PUSH8 0xF53EEC60B023AB8F PUSH1 0xC0 SHL PUSH2 0x5223 JUMP JUMPDEST PUSH1 0x0 PUSH1 0x1 PUSH1 0x0 DUP5 DUP2 MSTORE PUSH1 0x20 ADD SWAP1 DUP2 MSTORE PUSH1 0x20 ADD PUSH1 0x0 KECCAK256 PUSH1 0x0 ADD SLOAD SUB PUSH2 0x1263 JUMPI PUSH1 0x40 MLOAD PUSH32 0x8C379A000000000000000000000000000000000000000000000000000000000 DUP2 MSTORE PUSH1 0x4 ADD PUSH2 0x125A SWAP1 PUSH2 0x6F45 JUMP JUMPDEST PUSH1 0x40 MLOAD DUP1 SWAP2 SUB SWAP1 REVERT JUMPDEST PUSH2 0x1277 PUSH8 0xB92CAEFF1E2C4E71 PUSH1 0xC0 SHL PUSH2 0x5223 JUMP JUMPDEST PUSH2 0x128B PUSH8 0xA48A759F9639DB64 PUSH1 0xC0 SHL PUSH2 0x5223 JUMP JUMPDEST PUSH2 0x129F PUSH8 0xAED08070E6BCF4C6 PUSH1 0xC0 SHL PUSH2 0x5223 JUMP JUMPDEST PUSH1 0x1 PUSH1 0x0 DUP4 DUP2 MSTORE PUSH1 0x20 ADD SWAP1 DUP2 MSTORE PUSH1 0x20 ADD PUSH1 0x0 KECCAK256 PUSH1 0x40 MLOAD DUP1 PUSH1 0x80 ADD PUSH1 0x40 MSTORE SWAP1 DUP2 PUSH1 0x0 DUP3 ADD SLOAD DUP2 MSTORE PUSH1 0x20 ADD PUSH1 0x1 DUP3 ADD DUP1 SLOAD PUSH2 0x12D7 SWAP1 PUSH2 0x6E36 JUMP JUMPDEST DUP1 PUSH1 0x1F ADD PUSH1 0x20 DUP1 SWAP2 DIV MUL PUSH1 0x20 ADD PUSH1 0x40 MLOAD SWAP1 DUP2 ADD PUSH1 0x40 MSTORE DUP1 SWAP3 SWAP2 SWAP1 DUP2 DUP2 MSTORE PUSH1 0x20 ADD DUP3 DUP1 SLOAD PUSH2 0x1303 SWAP1 PUSH2 0x6E36 JUMP JUMPDEST DUP1 ISZERO PUSH2 0x1350 JUMPI DUP1 PUSH1 0x1F LT PUSH2 0x1325 JUMPI PUSH2 0x100 DUP1 DUP4 SLOAD DIV MUL DUP4 MSTORE SWAP2 PUSH1 0x20 ADD SWAP2 PUSH2 0x1350 JUMP JUMPDEST DUP3 ADD SWAP2 SWAP1 PUSH1 0x0 MSTORE PUSH1 0x20 PUSH1 0x0 KECCAK256 SWAP1 JUMPDEST DUP2 SLOAD DUP2 MSTORE SWAP1 PUSH1 0x1 ADD SWAP1 PUSH1 0x20 ADD DUP1 DUP4 GT PUSH2 0x1333 JUMPI DUP3 SWAP1 SUB PUSH1 0x1F AND DUP3 ADD SWAP2 JUMPDEST POP POP POP POP POP DUP2 MSTORE PUSH1 0x20 ADD PUSH1 0x2 DUP3 ADD DUP1 SLOAD PUSH2 0x1369 SWAP1 PUSH2 0x6E36 JUMP JUMPDEST DUP1 PUSH1 0x1F ADD PUSH1 0x20 DUP1 SWAP2 DIV MUL PUSH1 0x20 ADD PUSH1 0x40 MLOAD SWAP1 DUP2 ADD PUSH1 0x40 MSTORE DUP1 SWAP3 SWAP2 SWAP1 DUP2 DUP2 MSTORE PUSH1 0x20 ADD DUP3 DUP1 SLOAD PUSH2 0x1395 SWAP1 PUSH2 0x6E36 JUMP JUMPDEST DUP1 ISZERO PUSH2 0x13E2 JUMPI DUP1 PUSH1 0x1F LT PUSH2 0x13B7 JUMPI PUSH2 0x100 DUP1 DUP4 SLOAD DIV MUL DUP4 MSTORE SWAP2 PUSH1 0x20 ADD SWAP2 PUSH2 0x13E2 JUMP JUMPDEST DUP3 ADD SWAP2 SWAP1 PUSH1 0x0 MSTORE PUSH1 0x20 PUSH1 0x0 KECCAK256 SWAP1 JUMPDEST DUP2 SLOAD DUP2 MSTORE SWAP1 PUSH1 0x1 ADD SWAP1 PUSH1 0x20 ADD DUP1 DUP4 GT PUSH2 0x13C5 JUMPI DUP3 SWAP1 SUB PUSH1 0x1F AND DUP3 ADD SWAP2 JUMPDEST POP POP POP POP POP DUP2 MSTORE PUSH1 0x20 ADD PUSH1 0x3 DUP3 ADD SLOAD DUP2 MSTORE POP POP SWAP1 POP SWAP2 SWAP1 POP JUMP JUMPDEST PUSH1 0x33 DUP2 JUMP JUMPDEST PUSH2 0x1415 PUSH8 0xD285A5263EC8E0F5 PUSH1 0xC0 SHL PUSH2 0x481F JUMP JUMPDEST PUSH2 0x1429 PUSH8 0x5E4CBCC73C151F3 PUSH1 0xC0 SHL PUSH2 0x481F JUMP JUMPDEST PUSH2 0x143D PUSH8 0x60F35A0621673347 PUSH1 0xC0 SHL PUSH2 0x481F JUMP JUMPDEST PUSH1 0x0 PUSH1 0x3 PUSH1 0x0 DUP6 DUP2 MSTORE PUSH1 0x20 ADD SWAP1 DUP2 MSTORE PUSH1 0x20 ADD PUSH1 0x0 KECCAK256 SWAP1 POP PUSH2 0x1468 PUSH8 0x6596486D69562B77 PUSH1 0xC0 SHL PUSH2 0x481F JUMP JUMPDEST PUSH2 0x147C PUSH8 0xACEFC79E49D8D98E PUSH1 0xC0 SHL PUSH2 0x481F JUMP JUMPDEST PUSH2 0x1490 PUSH8 0xF1DD76D34C817F8 PUSH1 0xC0 SHL PUSH2 0x481F JUMP JUMPDEST DUP1 PUSH1 0x0 ADD PUSH1 0x0 SWAP1 SLOAD SWAP1 PUSH2 0x100 EXP SWAP1 DIV PUSH4 0xFFFFFFFF AND PUSH4 0xFFFFFFFF AND DUP2 PUSH1 0x0 ADD PUSH1 0x8 SWAP1 SLOAD SWAP1 PUSH2 0x100 EXP SWAP1 DIV PUSH4 0xFFFFFFFF AND PUSH4 0xFFFFFFFF AND GT DUP2 PUSH1 0x2 ADD SLOAD PUSH1 0x40 MLOAD PUSH1 0x20 ADD PUSH2 0x14DC SWAP2 SWAP1 PUSH2 0x6F86 JUMP JUMPDEST PUSH1 0x40 MLOAD PUSH1 0x20 DUP2 DUP4 SUB SUB DUP2 MSTORE SWAP1 PUSH1 0x40 MSTORE PUSH1 0x40 MLOAD PUSH1 0x20 ADD PUSH2 0x14FB SWAP2 SWAP1 PUSH2 0x6FED JUMP JUMPDEST PUSH1 0x40 MLOAD PUSH1 0x20 DUP2 DUP4 SUB SUB DUP2 MSTORE SWAP1 PUSH1 0x40 MSTORE SWAP1 PUSH2 0x154B JUMPI PUSH1 0x40 MLOAD PUSH32 0x8C379A000000000000000000000000000000000000000000000000000000000 DUP2 MSTORE PUSH1 0x4 ADD PUSH2 0x1542 SWAP2 SWAP1 PUSH2 0x7022 JUMP JUMPDEST PUSH1 0x40 MLOAD DUP1 SWAP2 SUB SWAP1 REVERT JUMPDEST POP PUSH2 0x1560 PUSH8 0x6751378D318E7C40 PUSH1 0xC0 SHL PUSH2 0x481F JUMP JUMPDEST PUSH2 0x1574 PUSH8 0x4F87EFA02C74E0F2 PUSH1 0xC0 SHL PUSH2 0x481F JUMP JUMPDEST PUSH2 0x1588 PUSH8 0xDF9346BF5F7FF815 PUSH1 0xC0 SHL PUSH2 0x481F JUMP JUMPDEST PUSH2 0x159C PUSH8 0x35DC9D0C045E8DEA PUSH1 0xC0 SHL PUSH2 0x481F JUMP JUMPDEST PUSH2 0x15AA DUP2 PUSH1 0x1 ADD SLOAD CALLER PUSH2 0x27BC JUMP JUMPDEST DUP2 PUSH1 0x2 ADD SLOAD PUSH1 0x40 MLOAD PUSH1 0x20 ADD PUSH2 0x15BF SWAP2 SWAP1 PUSH2 0x6F86 JUMP JUMPDEST PUSH1 0x40 MLOAD PUSH1 0x20 DUP2 DUP4 SUB SUB DUP2 MSTORE SWAP1 PUSH1 0x40 MSTORE PUSH1 0x40 MLOAD PUSH1 0x20 ADD PUSH2 0x15DE SWAP2 SWAP1 PUSH2 0x7090 JUMP JUMPDEST PUSH1 0x40 MLOAD PUSH1 0x20 DUP2 DUP4 SUB SUB DUP2 MSTORE SWAP1 PUSH1 0x40 MSTORE SWAP1 PUSH2 0x162E JUMPI PUSH1 0x40 MLOAD PUSH32 0x8C379A000000000000000000000000000000000000000000000000000000000 DUP2 MSTORE PUSH1 0x4 ADD PUSH2 0x1625 SWAP2 SWAP1 PUSH2 0x7022 JUMP JUMPDEST PUSH1 0x40 MLOAD DUP1 SWAP2 SUB SWAP1 REVERT JUMPDEST POP PUSH2 0x1643 PUSH8 0xB7DBF79DDBA2CAB7 PUSH1 0xC0 SHL PUSH2 0x481F JUMP JUMPDEST PUSH2 0x1657 PUSH8 0x825657E0D56BE418 PUSH1 0xC0 SHL PUSH2 0x481F JUMP JUMPDEST PUSH2 0x166B PUSH8 0xDAD7EBA3D5EA0FC5 PUSH1 0xC0 SHL PUSH2 0x481F JUMP JUMPDEST PUSH2 0x167F PUSH8 0x3D21F2ECDA879AC7 PUSH1 0xC0 SHL PUSH2 0x481F JUMP JUMPDEST PUSH1 0x0 ISZERO ISZERO PUSH2 0x168D DUP6 DUP6 PUSH2 0x27BC JUMP JUMPDEST ISZERO ISZERO EQ DUP2 PUSH1 0x2 ADD SLOAD PUSH1 0x40 MLOAD PUSH1 0x20 ADD PUSH2 0x16A5 SWAP2 SWAP1 PUSH2 0x6F86 JUMP JUMPDEST PUSH1 0x40 MLOAD PUSH1 0x20 DUP2 DUP4 SUB SUB DUP2 MSTORE SWAP1 PUSH1 0x40 MSTORE PUSH1 0x40 MLOAD PUSH1 0x20 ADD PUSH2 0x16C4 SWAP2 SWAP1 PUSH2 0x70EB JUMP JUMPDEST PUSH1 0x40 MLOAD PUSH1 0x20 DUP2 DUP4 SUB SUB DUP2 MSTORE SWAP1 PUSH1 0x40 MSTORE SWAP1 PUSH2 0x1714 JUMPI PUSH1 0x40 MLOAD PUSH32 0x8C379A000000000000000000000000000000000000000000000000000000000 DUP2 MSTORE PUSH1 0x4 ADD PUSH2 0x170B SWAP2 SWAP1 PUSH2 0x7022 JUMP JUMPDEST PUSH1 0x40 MLOAD DUP1 SWAP2 SUB SWAP1 REVERT JUMPDEST POP PUSH2 0x1729 PUSH8 0xFEBE2105280DEA46 PUSH1 0xC0 SHL PUSH2 0x481F JUMP JUMPDEST PUSH2 0x173D PUSH8 0x198F1E6710F19363 PUSH1 0xC0 SHL PUSH2 0x481F JUMP JUMPDEST PUSH2 0x1751 PUSH8 0x8FDDFCC5363932F PUSH1 0xC0 SHL PUSH2 0x481F JUMP JUMPDEST PUSH1 0x0 DUP4 DUP6 PUSH1 0x40 MLOAD PUSH1 0x20 ADD PUSH2 0x1766 SWAP3 SWAP2 SWAP1 PUSH2 0x71A5 JUMP JUMPDEST PUSH1 0x40 MLOAD PUSH1 0x20 DUP2 DUP4 SUB SUB DUP2 MSTORE SWAP1 PUSH1 0x40 MSTORE DUP1 MLOAD SWAP1 PUSH1 0x20 ADD KECCAK256 SWAP1 POP PUSH2 0x1792 PUSH8 0xEE4A48E3DB8A3245 PUSH1 0xC0 SHL PUSH2 0x481F JUMP JUMPDEST PUSH2 0x17A6 PUSH8 0x85550DFB5A2FA17E PUSH1 0xC0 SHL PUSH2 0x481F JUMP JUMPDEST PUSH2 0x1818 DUP2 DUP4 PUSH1 0x1 ADD SLOAD DUP5 PUSH1 0x2 ADD SLOAD PUSH1 0x40 MLOAD PUSH1 0x20 ADD PUSH2 0x17C4 SWAP2 SWAP1 PUSH2 0x6F86 JUMP JUMPDEST PUSH1 0x40 MLOAD PUSH1 0x20 DUP2 DUP4 SUB SUB DUP2 MSTORE SWAP1 PUSH1 0x40 MSTORE DUP8 PUSH1 0x40 MLOAD PUSH1 0x20 ADD PUSH2 0x17E4 SWAP2 SWAP1 PUSH2 0x71DC JUMP JUMPDEST PUSH1 0x40 MLOAD PUSH1 0x20 DUP2 DUP4 SUB SUB DUP2 MSTORE SWAP1 PUSH1 0x40 MSTORE PUSH1 0x40 MLOAD PUSH1 0x20 ADD PUSH2 0x1804 SWAP3 SWAP2 SWAP1 PUSH2 0x7243 JUMP JUMPDEST PUSH1 0x40 MLOAD PUSH1 0x20 DUP2 DUP4 SUB SUB DUP2 MSTORE SWAP1 PUSH1 0x40 MSTORE PUSH2 0x4822 JUMP JUMPDEST PUSH2 0x182C PUSH8 0x987F0DD0903D99A0 PUSH1 0xC0 SHL PUSH2 0x481F JUMP JUMPDEST PUSH2 0x1840 PUSH8 0x65417F5293396293 PUSH1 0xC0 SHL PUSH2 0x481F JUMP JUMPDEST DUP3 DUP1 ISZERO PUSH2 0x18B1 JUMPI POP PUSH1 0x0 ISZERO ISZERO PUSH1 0x4 PUSH1 0x0 DUP4 DUP2 MSTORE PUSH1 0x20 ADD SWAP1 DUP2 MSTORE PUSH1 0x20 ADD PUSH1 0x0 KECCAK256 PUSH1 0x3 ADD PUSH1 0x0 CALLER PUSH20 0xFFFFFFFFFFFFFFFFFFFFFFFFFFFFFFFFFFFFFFFF AND PUSH20 0xFFFFFFFFFFFFFFFFFFFFFFFFFFFFFFFFFFFFFFFF AND DUP2 MSTORE PUSH1 0x20 ADD SWAP1 DUP2 MSTORE PUSH1 0x20 ADD PUSH1 0x0 KECCAK256 PUSH1 0x0 SWAP1 SLOAD SWAP1 PUSH2 0x100 EXP SWAP1 DIV PUSH1 0xFF AND ISZERO ISZERO EQ JUMPDEST ISZERO PUSH2 0x1972 JUMPI PUSH2 0x18CA PUSH8 0x1A036548B9454EFA PUSH1 0xC0 SHL PUSH2 0x481F JUMP JUMPDEST PUSH2 0x18DE PUSH8 0x8A81A5A89E7249F2 PUSH1 0xC0 SHL PUSH2 0x481F JUMP JUMPDEST PUSH2 0x18F2 PUSH8 0x4FADF5AF7278B04 PUSH1 0xC0 SHL PUSH2 0x481F JUMP JUMPDEST PUSH2 0x190E PUSH1 0x4 PUSH1 0x0 DUP4 DUP2 MSTORE PUSH1 0x20 ADD SWAP1 DUP2 MSTORE PUSH1 0x20 ADD PUSH1 0x0 KECCAK256 CALLER PUSH2 0x49C6 JUMP JUMPDEST PUSH2 0x1922 PUSH8 0xA15A5378DC28021C PUSH1 0xC0 SHL PUSH2 0x481F JUMP JUMPDEST PUSH2 0x1936 PUSH8 0x21FC27606240057C PUSH1 0xC0 SHL PUSH2 0x481F JUMP JUMPDEST PUSH32 0xB431A69783A2491A0C400FF16DAB32CD442ABF8FE5AF63A526A7248D730192F8 DUP2 PUSH1 0x40 MLOAD PUSH2 0x1965 SWAP2 SWAP1 PUSH2 0x63BF JUMP JUMPDEST PUSH1 0x40 MLOAD DUP1 SWAP2 SUB SWAP1 LOG1 PUSH2 0x1A78 JUMP JUMPDEST PUSH2 0x1986 PUSH8 0xE67F2367DE48A396 PUSH1 0xC0 SHL PUSH2 0x481F JUMP JUMPDEST PUSH2 0x199A PUSH8 0x3BBA1B125BE8F21A PUSH1 0xC0 SHL PUSH2 0x481F JUMP JUMPDEST PUSH1 0x0 ISZERO ISZERO DUP4 ISZERO ISZERO SUB PUSH2 0x1A62 JUMPI PUSH2 0x19BA PUSH8 0xEB5BB2AC8E80D29B PUSH1 0xC0 SHL PUSH2 0x481F JUMP JUMPDEST PUSH2 0x19CE PUSH8 0x55EA1935824A5E18 PUSH1 0xC0 SHL PUSH2 0x481F JUMP JUMPDEST PUSH2 0x19E2 PUSH8 0x2A12CAC354A8E823 PUSH1 0xC0 SHL PUSH2 0x481F JUMP JUMPDEST PUSH2 0x19FE PUSH1 0x4 PUSH1 0x0 DUP4 DUP2 MSTORE PUSH1 0x20 ADD SWAP1 DUP2 MSTORE PUSH1 0x20 ADD PUSH1 0x0 KECCAK256 CALLER PUSH2 0x4C48 JUMP JUMPDEST PUSH2 0x1A12 PUSH8 0x67EC4DA59FBC86A1 PUSH1 0xC0 SHL PUSH2 0x481F JUMP JUMPDEST PUSH2 0x1A26 PUSH8 0x6EFDDDF06DED552E PUSH1 0xC0 SHL PUSH2 0x481F JUMP JUMPDEST PUSH32 0xB431A69783A2491A0C400FF16DAB32CD442ABF8FE5AF63A526A7248D730192F8 DUP2 PUSH1 0x40 MLOAD PUSH2 0x1A55 SWAP2 SWAP1 PUSH2 0x63BF JUMP JUMPDEST PUSH1 0x40 MLOAD DUP1 SWAP2 SUB SWAP1 LOG1 PUSH2 0x1A77 JUMP JUMPDEST PUSH2 0x1A76 PUSH8 0x8F6D07B51ABB6A24 PUSH1 0xC0 SHL PUSH2 0x481F JUMP JUMPDEST JUMPDEST JUMPDEST PUSH2 0x1A8C PUSH8 0xA14FB71BA5E7613F PUSH1 0xC0 SHL PUSH2 0x481F JUMP JUMPDEST PUSH2 0x1AA0 PUSH8 0xDF7DD5880412D4B9 PUSH1 0xC0 SHL PUSH2 0x481F JUMP JUMPDEST PUSH2 0x1AFA DUP3 PUSH1 0x0 ADD PUSH1 0xC SWAP1 SLOAD SWAP1 PUSH2 0x100 EXP SWAP1 DIV PUSH1 0xFF AND PUSH1 0xFF AND PUSH1 0x3 PUSH1 0x0 DUP6 PUSH1 0x1 ADD SLOAD DUP2 MSTORE PUSH1 0x20 ADD SWAP1 DUP2 MSTORE PUSH1 0x20 ADD PUSH1 0x0 KECCAK256 PUSH1 0x0 ADD PUSH1 0x0 SWAP1 SLOAD SWAP1 PUSH2 0x100 EXP SWAP1 DIV PUSH4 0xFFFFFFFF AND PUSH2 0x1AED SWAP2 SWAP1 PUSH2 0x6DCA JUMP JUMPDEST PUSH4 0xFFFFFFFF AND PUSH1 0x64 PUSH2 0x36F3 JUMP JUMPDEST PUSH1 0x4 PUSH1 0x0 DUP4 DUP2 MSTORE PUSH1 0x20 ADD SWAP1 DUP2 MSTORE PUSH1 0x20 ADD PUSH1 0x0 KECCAK256 PUSH1 0x2 ADD PUSH1 0x0 SWAP1 SLOAD SWAP1 PUSH2 0x100 EXP SWAP1 DIV PUSH1 0xFF AND PUSH1 0xFF AND LT PUSH2 0x1C69 JUMPI PUSH2 0x1B3A PUSH8 0x5FF1C5FAC858EEC9 PUSH1 0xC0 SHL PUSH2 0x481F JUMP JUMPDEST PUSH2 0x1B4E PUSH8 0xFE26844B548A8378 PUSH1 0xC0 SHL PUSH2 0x481F JUMP JUMPDEST PUSH2 0x1B62 PUSH8 0x68A51F3C021201CB PUSH1 0xC0 SHL PUSH2 0x481F JUMP JUMPDEST PUSH2 0x1B7D PUSH1 0x4 PUSH1 0x0 DUP4 DUP2 MSTORE PUSH1 0x20 ADD SWAP1 DUP2 MSTORE PUSH1 0x20 ADD PUSH1 0x0 KECCAK256 PUSH2 0x4E00 JUMP JUMPDEST PUSH2 0x1B91 PUSH8 0xA21E7EBE78774F90 PUSH1 0xC0 SHL PUSH2 0x481F JUMP JUMPDEST PUSH2 0x1BA5 PUSH8 0xCD288A479316CB8E PUSH1 0xC0 SHL PUSH2 0x481F JUMP JUMPDEST PUSH32 0x562618DBCF74B61AE5B0F229FE40BA6D5B6AE6B4248F8C89A870DDA7C77135F6 DUP2 PUSH1 0x40 MLOAD PUSH2 0x1BD4 SWAP2 SWAP1 PUSH2 0x63BF JUMP JUMPDEST PUSH1 0x40 MLOAD DUP1 SWAP2 SUB SWAP1 LOG1 PUSH2 0x1BF0 PUSH8 0xE62655D9C0DA73F4 PUSH1 0xC0 SHL PUSH2 0x481F JUMP JUMPDEST PUSH2 0x1C04 PUSH8 0x5D17B8D482393673 PUSH1 0xC0 SHL PUSH2 0x481F JUMP JUMPDEST PUSH2 0x1C0E DUP6 DUP6 PUSH2 0x5143 JUMP JUMPDEST PUSH2 0x1C22 PUSH8 0xA680BCC96564015D PUSH1 0xC0 SHL PUSH2 0x481F JUMP JUMPDEST PUSH1 0x1 DUP3 PUSH1 0x0 ADD PUSH1 0x0 DUP3 DUP3 DUP3 SWAP1 SLOAD SWAP1 PUSH2 0x100 EXP SWAP1 DIV PUSH4 0xFFFFFFFF AND PUSH2 0x1C46 SWAP2 SWAP1 PUSH2 0x7285 JUMP JUMPDEST SWAP3 POP PUSH2 0x100 EXP DUP2 SLOAD DUP2 PUSH4 0xFFFFFFFF MUL NOT AND SWAP1 DUP4 PUSH4 0xFFFFFFFF AND MUL OR SWAP1 SSTORE POP PUSH2 0x1C7E JUMP JUMPDEST PUSH2 0x1C7D PUSH8 0x4108A0766FB3770F PUSH1 0xC0 SHL PUSH2 0x481F JUMP JUMPDEST JUMPDEST POP POP POP POP POP JUMP JUMPDEST PUSH1 0x7 PUSH1 0x20 MSTORE DUP1 PUSH1 0x0 MSTORE PUSH1 0x40 PUSH1 0x0 KECCAK256 PUSH1 0x0 SWAP2 POP SWAP1 POP DUP1 PUSH1 0x0 ADD PUSH1 0x0 SWAP1 SLOAD SWAP1 PUSH2 0x100 EXP SWAP1 DIV PUSH1 0xFF AND SWAP1 DUP1 PUSH1 0x0 ADD PUSH1 0x1 SWAP1 SLOAD SWAP1 PUSH2 0x100 EXP SWAP1 DIV PUSH1 0xFF AND SWAP1 DUP1 PUSH1 0x0 ADD PUSH1 0x2 SWAP1 SLOAD SWAP1 PUSH2 0x100 EXP SWAP1 DIV PUSH1 0xFF AND SWAP1 DUP1 PUSH1 0x1 ADD SLOAD SWAP1 DUP1 PUSH1 0x2 ADD PUSH1 0x0 SWAP1 SLOAD SWAP1 PUSH2 0x100 EXP SWAP1 DIV PUSH1 0xFF AND SWAP1 DUP1 PUSH1 0x3 ADD SLOAD SWAP1 POP DUP7 JUMP JUMPDEST PUSH1 0x50 DUP2 JUMP JUMPDEST PUSH2 0x1D0E PUSH8 0x9BAA3422236FC69F PUSH1 0xC0 SHL PUSH2 0x481F JUMP JUMPDEST PUSH2 0x1D22 PUSH8 0xC5044043363BB237 PUSH1 0xC0 SHL PUSH2 0x481F JUMP JUMPDEST PUSH2 0x1D36 PUSH8 0xBFC6B0F370D70249 PUSH1 0xC0 SHL PUSH2 0x481F JUMP JUMPDEST PUSH2 0x1D4A PUSH8 0x9CCB8433F30B7F61 PUSH1 0xC0 SHL PUSH2 0x481F JUMP JUMPDEST PUSH2 0x1D74 PUSH32 0xD646AE07EB0D0F77457502A65E7407930DFF4CD4FD99ABC6AAC87A753F4C8A42 CALLER PUSH2 0x27BC JUMP JUMPDEST PUSH2 0x1DB3 JUMPI PUSH1 0x40 MLOAD PUSH32 0x8C379A000000000000000000000000000000000000000000000000000000000 DUP2 MSTORE PUSH1 0x4 ADD PUSH2 0x1DAA SWAP1 PUSH2 0x6B5D JUMP JUMPDEST PUSH1 0x40 MLOAD DUP1 SWAP2 SUB SWAP1 REVERT JUMPDEST PUSH2 0x1DC7 PUSH8 0x842A97201189B8B PUSH1 0xC0 SHL PUSH2 0x481F JUMP JUMPDEST PUSH2 0x1DDB PUSH8 0xCA8D401C43F5F9D7 PUSH1 0xC0 SHL PUSH2 0x481F JUMP JUMPDEST PUSH2 0x1DEF PUSH8 0xE22DCAA2865F1211 PUSH1 0xC0 SHL PUSH2 0x481F JUMP JUMPDEST PUSH2 0x1E03 PUSH8 0x4ABA95960958E732 PUSH1 0xC0 SHL PUSH2 0x481F JUMP JUMPDEST PUSH1 0x0 PUSH1 0x1 PUSH1 0x0 DUP8 DUP2 MSTORE PUSH1 0x20 ADD SWAP1 DUP2 MSTORE PUSH1 0x20 ADD PUSH1 0x0 KECCAK256 PUSH1 0x0 ADD SLOAD SUB PUSH2 0x1E5C JUMPI PUSH1 0x40 MLOAD PUSH32 0x8C379A000000000000000000000000000000000000000000000000000000000 DUP2 MSTORE PUSH1 0x4 ADD PUSH2 0x1E53 SWAP1 PUSH2 0x6C35 JUMP JUMPDEST PUSH1 0x40 MLOAD DUP1 SWAP2 SUB SWAP1 REVERT JUMPDEST PUSH2 0x1E70 PUSH8 0x30249E749F45B5E4 PUSH1 0xC0 SHL PUSH2 0x481F JUMP JUMPDEST PUSH2 0x1E84 PUSH8 0x374DFD98B823C8CF PUSH1 0xC0 SHL PUSH2 0x481F JUMP JUMPDEST PUSH2 0x1E98 PUSH8 0x20270532058F02E5 PUSH1 0xC0 SHL PUSH2 0x481F JUMP JUMPDEST PUSH2 0x1EAC PUSH8 0x9E04F1A5C5BDA7DF PUSH1 0xC0 SHL PUSH2 0x481F JUMP JUMPDEST PUSH1 0x0 PUSH1 0x3 DUP2 GT ISZERO PUSH2 0x1EC0 JUMPI PUSH2 0x1EBF PUSH2 0x65F0 JUMP JUMPDEST JUMPDEST DUP5 PUSH1 0x3 DUP2 GT ISZERO PUSH2 0x1ED3 JUMPI PUSH2 0x1ED2 PUSH2 0x65F0 JUMP JUMPDEST JUMPDEST LT ISZERO DUP1 ISZERO PUSH2 0x1F05 JUMPI POP PUSH1 0x3 DUP1 DUP2 GT ISZERO PUSH2 0x1EEF JUMPI PUSH2 0x1EEE PUSH2 0x65F0 JUMP JUMPDEST JUMPDEST DUP5 PUSH1 0x3 DUP2 GT ISZERO PUSH2 0x1F02 JUMPI PUSH2 0x1F01 PUSH2 0x65F0 JUMP JUMPDEST JUMPDEST GT ISZERO JUMPDEST PUSH2 0x1F44 JUMPI PUSH1 0x40 MLOAD PUSH32 0x8C379A000000000000000000000000000000000000000000000000000000000 DUP2 MSTORE PUSH1 0x4 ADD PUSH2 0x1F3B SWAP1 PUSH2 0x7309 JUMP JUMPDEST PUSH1 0x40 MLOAD DUP1 SWAP2 SUB SWAP1 REVERT JUMPDEST PUSH2 0x1F58 PUSH8 0xD618060FAF473A2A PUSH1 0xC0 SHL PUSH2 0x481F JUMP JUMPDEST PUSH2 0x1F6C PUSH8 0x59AACAB69E3A1CF8 PUSH1 0xC0 SHL PUSH2 0x481F JUMP JUMPDEST PUSH2 0x1F80 PUSH8 0x1F8604B2E035DF8C PUSH1 0xC0 SHL PUSH2 0x481F JUMP JUMPDEST PUSH2 0x1F94 PUSH8 0x4341521415B393FF PUSH1 0xC0 SHL PUSH2 0x481F JUMP JUMPDEST PUSH1 0x0 PUSH1 0x2 DUP2 GT ISZERO PUSH2 0x1FA8 JUMPI PUSH2 0x1FA7 PUSH2 0x65F0 JUMP JUMPDEST JUMPDEST DUP4 PUSH1 0x2 DUP2 GT ISZERO PUSH2 0x1FBB JUMPI PUSH2 0x1FBA PUSH2 0x65F0 JUMP JUMPDEST JUMPDEST LT ISZERO DUP1 ISZERO PUSH2 0x1FED JUMPI POP PUSH1 0x2 DUP1 DUP2 GT ISZERO PUSH2 0x1FD7 JUMPI PUSH2 0x1FD6 PUSH2 0x65F0 JUMP JUMPDEST JUMPDEST DUP4 PUSH1 0x2 DUP2 GT ISZERO PUSH2 0x1FEA JUMPI PUSH2 0x1FE9 PUSH2 0x65F0 JUMP JUMPDEST JUMPDEST GT ISZERO JUMPDEST PUSH2 0x202C JUMPI PUSH1 0x40 MLOAD PUSH32 0x8C379A000000000000000000000000000000000000000000000000000000000 DUP2 MSTORE PUSH1 0x4 ADD PUSH2 0x2023 SWAP1 PUSH2 0x7375 JUMP JUMPDEST PUSH1 0x40 MLOAD DUP1 SWAP2 SUB SWAP1 REVERT JUMPDEST PUSH2 0x2040 PUSH8 0x3ABDA3DB58EE88D6 PUSH1 0xC0 SHL PUSH2 0x481F JUMP JUMPDEST PUSH2 0x2054 PUSH8 0xD0A65ECDFB35759E PUSH1 0xC0 SHL PUSH2 0x481F JUMP JUMPDEST PUSH2 0x2068 PUSH8 0xFECB9A5516D562AD PUSH1 0xC0 SHL PUSH2 0x481F JUMP JUMPDEST PUSH2 0x207C PUSH8 0x11522E4C80B8ACF5 PUSH1 0xC0 SHL PUSH2 0x481F JUMP JUMPDEST PUSH1 0x0 PUSH1 0xF DUP2 GT ISZERO PUSH2 0x2090 JUMPI PUSH2 0x208F PUSH2 0x65F0 JUMP JUMPDEST JUMPDEST DUP3 PUSH1 0xF DUP2 GT ISZERO PUSH2 0x20A3 JUMPI PUSH2 0x20A2 PUSH2 0x65F0 JUMP JUMPDEST JUMPDEST LT ISZERO DUP1 ISZERO PUSH2 0x20D5 JUMPI POP PUSH1 0xF DUP1 DUP2 GT ISZERO PUSH2 0x20BF JUMPI PUSH2 0x20BE PUSH2 0x65F0 JUMP JUMPDEST JUMPDEST DUP3 PUSH1 0xF DUP2 GT ISZERO PUSH2 0x20D2 JUMPI PUSH2 0x20D1 PUSH2 0x65F0 JUMP JUMPDEST JUMPDEST GT ISZERO JUMPDEST PUSH2 0x2114 JUMPI PUSH1 0x40 MLOAD PUSH32 0x8C379A000000000000000000000000000000000000000000000000000000000 DUP2 MSTORE PUSH1 0x4 ADD PUSH2 0x210B SWAP1 PUSH2 0x73E1 JUMP JUMPDEST PUSH1 0x40 MLOAD DUP1 SWAP2 SUB SWAP1 REVERT JUMPDEST PUSH2 0x2128 PUSH8 0x5A87C8131B0F3476 PUSH1 0xC0 SHL PUSH2 0x481F JUMP JUMPDEST PUSH2 0x213C PUSH8 0xB52E37C57F13F036 PUSH1 0xC0 SHL PUSH2 0x481F JUMP JUMPDEST PUSH2 0x2150 PUSH8 0xC6BC374FA7FEFF01 PUSH1 0xC0 SHL PUSH2 0x481F JUMP JUMPDEST PUSH2 0x2164 PUSH8 0x86AC1E62D24A3498 PUSH1 0xC0 SHL PUSH2 0x481F JUMP JUMPDEST PUSH1 0x1 ISZERO ISZERO PUSH1 0x7 PUSH1 0x0 DUP8 DUP8 DUP8 DUP8 PUSH1 0x40 MLOAD PUSH1 0x20 ADD PUSH2 0x2183 SWAP5 SWAP4 SWAP3 SWAP2 SWAP1 PUSH2 0x7465 JUMP JUMPDEST PUSH1 0x40 MLOAD PUSH1 0x20 DUP2 DUP4 SUB SUB DUP2 MSTORE SWAP1 PUSH1 0x40 MSTORE DUP1 MLOAD SWAP1 PUSH1 0x20 ADD KECCAK256 DUP2 MSTORE PUSH1 0x20 ADD SWAP1 DUP2 MSTORE PUSH1 0x20 ADD PUSH1 0x0 KECCAK256 PUSH1 0x2 ADD PUSH1 0x0 SWAP1 SLOAD SWAP1 PUSH2 0x100 EXP SWAP1 DIV PUSH1 0xFF AND ISZERO ISZERO EQ PUSH2 0x21FA JUMPI PUSH1 0x40 MLOAD PUSH32 0x8C379A000000000000000000000000000000000000000000000000000000000 DUP2 MSTORE PUSH1 0x4 ADD PUSH2 0x21F1 SWAP1 PUSH2 0x74FF JUMP JUMPDEST PUSH1 0x40 MLOAD DUP1 SWAP2 SUB SWAP1 REVERT JUMPDEST PUSH2 0x220E PUSH8 0x9E5C2CDD766B16DE PUSH1 0xC0 SHL PUSH2 0x481F JUMP JUMPDEST PUSH2 0x2222 PUSH8 0x53AAAF9320FE18FD PUSH1 0xC0 SHL PUSH2 0x481F JUMP JUMPDEST PUSH2 0x2236 PUSH8 0xAB49E147B91272B3 PUSH1 0xC0 SHL PUSH2 0x481F JUMP JUMPDEST PUSH1 0x0 DUP6 DUP6 DUP6 DUP6 PUSH1 0x40 MLOAD PUSH1 0x20 ADD PUSH2 0x224F SWAP5 SWAP4 SWAP3 SWAP2 SWAP1 PUSH2 0x756B JUMP JUMPDEST PUSH1 0x40 MLOAD PUSH1 0x20 DUP2 DUP4 SUB SUB DUP2 MSTORE SWAP1 PUSH1 0x40 MSTORE DUP1 MLOAD SWAP1 PUSH1 0x20 ADD KECCAK256 SWAP1 POP PUSH2 0x227B PUSH8 0x9AB8A363C1DB47F7 PUSH1 0xC0 SHL PUSH2 0x481F JUMP JUMPDEST PUSH2 0x228F PUSH8 0xC80F0B231C338B2D PUSH1 0xC0 SHL PUSH2 0x481F JUMP JUMPDEST PUSH2 0x235B DUP2 PUSH32 0xD646AE07EB0D0F77457502A65E7407930DFF4CD4FD99ABC6AAC87A753F4C8A42 DUP9 PUSH1 0x40 MLOAD PUSH1 0x20 ADD PUSH2 0x22C5 SWAP2 SWAP1 PUSH2 0x6CF3 JUMP JUMPDEST PUSH1 0x40 MLOAD PUSH1 0x20 DUP2 DUP4 SUB SUB DUP2 MSTORE SWAP1 PUSH1 0x40 MSTORE DUP9 PUSH1 0x40 MLOAD PUSH1 0x20 ADD PUSH2 0x22E5 SWAP2 SWAP1 PUSH2 0x75C4 JUMP JUMPDEST PUSH1 0x40 MLOAD PUSH1 0x20 DUP2 DUP4 SUB SUB DUP2 MSTORE SWAP1 PUSH1 0x40 MSTORE DUP9 PUSH1 0x40 MLOAD PUSH1 0x20 ADD PUSH2 0x2305 SWAP2 SWAP1 PUSH2 0x75DF JUMP JUMPDEST PUSH1 0x40 MLOAD PUSH1 0x20 DUP2 DUP4 SUB SUB DUP2 MSTORE SWAP1 PUSH1 0x40 MSTORE DUP9 PUSH1 0x40 MLOAD PUSH1 0x20 ADD PUSH2 0x2325 SWAP2 SWAP1 PUSH2 0x75FA JUMP JUMPDEST PUSH1 0x40 MLOAD PUSH1 0x20 DUP2 DUP4 SUB SUB DUP2 MSTORE SWAP1 PUSH1 0x40 MSTORE PUSH1 0x40 MLOAD PUSH1 0x20 ADD PUSH2 0x2347 SWAP5 SWAP4 SWAP3 SWAP2 SWAP1 PUSH2 0x763B JUMP JUMPDEST PUSH1 0x40 MLOAD PUSH1 0x20 DUP2 DUP4 SUB SUB DUP2 MSTORE SWAP1 PUSH1 0x40 MSTORE PUSH2 0x4822 JUMP JUMPDEST PUSH2 0x236F PUSH8 0x5397BBBEEF836AD8 PUSH1 0xC0 SHL PUSH2 0x481F JUMP JUMPDEST PUSH2 0x2383 PUSH8 0x9B6D6670ACBBE933 PUSH1 0xC0 SHL PUSH2 0x481F JUMP JUMPDEST DUP2 DUP1 ISZERO PUSH2 0x23F4 JUMPI POP PUSH1 0x0 ISZERO ISZERO PUSH1 0x4 PUSH1 0x0 DUP4 DUP2 MSTORE PUSH1 0x20 ADD SWAP1 DUP2 MSTORE PUSH1 0x20 ADD PUSH1 0x0 KECCAK256 PUSH1 0x3 ADD PUSH1 0x0 CALLER PUSH20 0xFFFFFFFFFFFFFFFFFFFFFFFFFFFFFFFFFFFFFFFF AND PUSH20 0xFFFFFFFFFFFFFFFFFFFFFFFFFFFFFFFFFFFFFFFF AND DUP2 MSTORE PUSH1 0x20 ADD SWAP1 DUP2 MSTORE PUSH1 0x20 ADD PUSH1 0x0 KECCAK256 PUSH1 0x0 SWAP1 SLOAD SWAP1 PUSH2 0x100 EXP SWAP1 DIV PUSH1 0xFF AND ISZERO ISZERO EQ JUMPDEST ISZERO PUSH2 0x24B5 JUMPI PUSH2 0x240D PUSH8 0x8DBA3CFCDD7AB4AB PUSH1 0xC0 SHL PUSH2 0x481F JUMP JUMPDEST PUSH2 0x2421 PUSH8 0x2E1F532EB4156EB5 PUSH1 0xC0 SHL PUSH2 0x481F JUMP JUMPDEST PUSH2 0x2435 PUSH8 0xB763B8910A23EFEE PUSH1 0xC0 SHL PUSH2 0x481F JUMP JUMPDEST PUSH2 0x2451 PUSH1 0x4 PUSH1 0x0 DUP4 DUP2 MSTORE PUSH1 0x20 ADD SWAP1 DUP2 MSTORE PUSH1 0x20 ADD PUSH1 0x0 KECCAK256 CALLER PUSH2 0x49C6 JUMP JUMPDEST PUSH2 0x2465 PUSH8 0xACD6A8C8F4D574B6 PUSH1 0xC0 SHL PUSH2 0x481F JUMP JUMPDEST PUSH2 0x2479 PUSH8 0x7697096D64270CDB PUSH1 0xC0 SHL PUSH2 0x481F JUMP JUMPDEST PUSH32 0xB431A69783A2491A0C400FF16DAB32CD442ABF8FE5AF63A526A7248D730192F8 DUP2 PUSH1 0x40 MLOAD PUSH2 0x24A8 SWAP2 SWAP1 PUSH2 0x63BF JUMP JUMPDEST PUSH1 0x40 MLOAD DUP1 SWAP2 SUB SWAP1 LOG1 PUSH2 0x25BB JUMP JUMPDEST PUSH2 0x24C9 PUSH8 0x3318F6946F781978 PUSH1 0xC0 SHL PUSH2 0x481F JUMP JUMPDEST PUSH2 0x24DD PUSH8 0xD4C4533D7E9A60A6 PUSH1 0xC0 SHL PUSH2 0x481F JUMP JUMPDEST PUSH1 0x0 ISZERO ISZERO DUP3 ISZERO ISZERO SUB PUSH2 0x25A5 JUMPI PUSH2 0x24FD PUSH8 0x32954512786739F5 PUSH1 0xC0 SHL PUSH2 0x481F JUMP JUMPDEST PUSH2 0x2511 PUSH8 0x24BCD6FFDFBD0D4D PUSH1 0xC0 SHL PUSH2 0x481F JUMP JUMPDEST PUSH2 0x2525 PUSH8 0x7338A703CA5A2A96 PUSH1 0xC0 SHL PUSH2 0x481F JUMP JUMPDEST PUSH2 0x2541 PUSH1 0x4 PUSH1 0x0 DUP4 DUP2 MSTORE PUSH1 0x20 ADD SWAP1 DUP2 MSTORE PUSH1 0x20 ADD PUSH1 0x0 KECCAK256 CALLER PUSH2 0x4C48 JUMP JUMPDEST PUSH2 0x2555 PUSH8 0x3B1E688B7D79D00D PUSH1 0xC0 SHL PUSH2 0x481F JUMP JUMPDEST PUSH2 0x2569 PUSH8 0x6BEA465BB4414610 PUSH1 0xC0 SHL PUSH2 0x481F JUMP JUMPDEST PUSH32 0xB431A69783A2491A0C400FF16DAB32CD442ABF8FE5AF63A526A7248D730192F8 DUP2 PUSH1 0x40 MLOAD PUSH2 0x2598 SWAP2 SWAP1 PUSH2 0x63BF JUMP JUMPDEST PUSH1 0x40 MLOAD DUP1 SWAP2 SUB SWAP1 LOG1 PUSH2 0x25BA JUMP JUMPDEST PUSH2 0x25B9 PUSH8 0xE8C1FA74BACD7FBB PUSH1 0xC0 SHL PUSH2 0x481F JUMP JUMPDEST JUMPDEST JUMPDEST PUSH2 0x25CF PUSH8 0x1F5319FEB6477E35 PUSH1 0xC0 SHL PUSH2 0x481F JUMP JUMPDEST PUSH2 0x25E3 PUSH8 0xF438D58DFB1BE182 PUSH1 0xC0 SHL PUSH2 0x481F JUMP JUMPDEST PUSH2 0x2649 PUSH1 0x50 PUSH1 0xFF AND PUSH1 0x3 PUSH1 0x0 PUSH32 0xD646AE07EB0D0F77457502A65E7407930DFF4CD4FD99ABC6AAC87A753F4C8A42 DUP2 MSTORE PUSH1 0x20 ADD SWAP1 DUP2 MSTORE PUSH1 0x20 ADD PUSH1 0x0 KECCAK256 PUSH1 0x0 ADD PUSH1 0x0 SWAP1 SLOAD SWAP1 PUSH2 0x100 EXP SWAP1 DIV PUSH4 0xFFFFFFFF AND PUSH2 0x263C SWAP2 SWAP1 PUSH2 0x6DCA JUMP JUMPDEST PUSH4 0xFFFFFFFF AND PUSH1 0x64 PUSH2 0x36F3 JUMP JUMPDEST PUSH1 0x4 PUSH1 0x0 DUP4 DUP2 MSTORE PUSH1 0x20 ADD SWAP1 DUP2 MSTORE PUSH1 0x20 ADD PUSH1 0x0 KECCAK256 PUSH1 0x2 ADD PUSH1 0x0 SWAP1 SLOAD SWAP1 PUSH2 0x100 EXP SWAP1 DIV PUSH1 0xFF AND PUSH1 0xFF AND LT PUSH2 0x279F JUMPI PUSH2 0x2689 PUSH8 0x8EF10DCAEAC9036F PUSH1 0xC0 SHL PUSH2 0x481F JUMP JUMPDEST PUSH2 0x269D PUSH8 0x35F2056C8483D804 PUSH1 0xC0 SHL PUSH2 0x481F JUMP JUMPDEST PUSH2 0x26B1 PUSH8 0xC187D7D65CF65AF2 PUSH1 0xC0 SHL PUSH2 0x481F JUMP JUMPDEST PUSH2 0x26CC PUSH1 0x4 PUSH1 0x0 DUP4 DUP2 MSTORE PUSH1 0x20 ADD SWAP1 DUP2 MSTORE PUSH1 0x20 ADD PUSH1 0x0 KECCAK256 PUSH2 0x4E00 JUMP JUMPDEST PUSH2 0x26E0 PUSH8 0xADE7A62C071E519D PUSH1 0xC0 SHL PUSH2 0x481F JUMP JUMPDEST PUSH2 0x26F4 PUSH8 0x5439B2C4CD164823 PUSH1 0xC0 SHL PUSH2 0x481F JUMP JUMPDEST PUSH32 0x562618DBCF74B61AE5B0F229FE40BA6D5B6AE6B4248F8C89A870DDA7C77135F6 DUP2 PUSH1 0x40 MLOAD PUSH2 0x2723 SWAP2 SWAP1 PUSH2 0x63BF JUMP JUMPDEST PUSH1 0x40 MLOAD DUP1 SWAP2 SUB SWAP1 LOG1 PUSH2 0x273F PUSH8 0x2F6377F918FC3E74 PUSH1 0xC0 SHL PUSH2 0x481F JUMP JUMPDEST PUSH1 0x0 PUSH1 0x7 PUSH1 0x0 DUP9 DUP9 DUP9 DUP9 PUSH1 0x40 MLOAD PUSH1 0x20 ADD PUSH2 0x275C SWAP5 SWAP4 SWAP3 SWAP2 SWAP1 PUSH2 0x7465 JUMP JUMPDEST PUSH1 0x40 MLOAD PUSH1 0x20 DUP2 DUP4 SUB SUB DUP2 MSTORE SWAP1 PUSH1 0x40 MSTORE DUP1 MLOAD SWAP1 PUSH1 0x20 ADD KECCAK256 DUP2 MSTORE PUSH1 0x20 ADD SWAP1 DUP2 MSTORE PUSH1 0x20 ADD PUSH1 0x0 KECCAK256 PUSH1 0x2 ADD PUSH1 0x0 PUSH2 0x100 EXP DUP2 SLOAD DUP2 PUSH1 0xFF MUL NOT AND SWAP1 DUP4 ISZERO ISZERO MUL OR SWAP1 SSTORE POP PUSH2 0x27B4 JUMP JUMPDEST PUSH2 0x27B3 PUSH8 0x62C646C22C573F3E PUSH1 0xC0 SHL PUSH2 0x481F JUMP JUMPDEST JUMPDEST POP POP POP POP POP POP JUMP JUMPDEST PUSH1 0x0 DUP1 PUSH1 0x0 DUP5 DUP2 MSTORE PUSH1 0x20 ADD SWAP1 DUP2 MSTORE PUSH1 0x20 ADD PUSH1 0x0 KECCAK256 PUSH1 0x0 ADD PUSH1 0x0 DUP4 PUSH20 0xFFFFFFFFFFFFFFFFFFFFFFFFFFFFFFFFFFFFFFFF AND PUSH20 0xFFFFFFFFFFFFFFFFFFFFFFFFFFFFFFFFFFFFFFFF AND DUP2 MSTORE PUSH1 0x20 ADD SWAP1 DUP2 MSTORE PUSH1 0x20 ADD PUSH1 0x0 KECCAK256 PUSH1 0x0 SWAP1 SLOAD SWAP1 PUSH2 0x100 EXP SWAP1 DIV PUSH1 0xFF AND SWAP1 POP SWAP3 SWAP2 POP POP JUMP JUMPDEST PUSH1 0x5 PUSH1 0x20 MSTORE DUP1 PUSH1 0x0 MSTORE PUSH1 0x40 PUSH1 0x0 KECCAK256 PUSH1 0x0 SWAP2 POP SWAP1 POP SLOAD DUP2 JUMP JUMPDEST PUSH1 0xF DUP2 JUMP JUMPDEST PUSH2 0x2857 PUSH8 0xFC92D0035D00688E PUSH1 0xC0 SHL PUSH2 0x481F JUMP JUMPDEST PUSH2 0x286B PUSH8 0xE5A91BFC65F0C4B1 PUSH1 0xC0 SHL PUSH2 0x481F JUMP JUMPDEST PUSH2 0x287F PUSH8 0x4900A3687504079C PUSH1 0xC0 SHL PUSH2 0x481F JUMP JUMPDEST PUSH2 0x2893 PUSH8 0x4FCE23AE6BB9DC7F PUSH1 0xC0 SHL PUSH2 0x481F JUMP JUMPDEST PUSH2 0x28BD PUSH32 0xD646AE07EB0D0F77457502A65E7407930DFF4CD4FD99ABC6AAC87A753F4C8A42 CALLER PUSH2 0x27BC JUMP JUMPDEST PUSH2 0x28FC JUMPI PUSH1 0x40 MLOAD PUSH32 0x8C379A000000000000000000000000000000000000000000000000000000000 DUP2 MSTORE PUSH1 0x4 ADD PUSH2 0x28F3 SWAP1 PUSH2 0x6B5D JUMP JUMPDEST PUSH1 0x40 MLOAD DUP1 SWAP2 SUB SWAP1 REVERT JUMPDEST PUSH2 0x2910 PUSH8 0xA37F82E1AE7B555D PUSH1 0xC0 SHL PUSH2 0x481F JUMP JUMPDEST PUSH2 0x2924 PUSH8 0xDB9F0C54E2940744 PUSH1 0xC0 SHL PUSH2 0x481F JUMP JUMPDEST PUSH2 0x2938 PUSH8 0xE392881A64B85DD9 PUSH1 0xC0 SHL PUSH2 0x481F JUMP JUMPDEST PUSH2 0x294C PUSH8 0x3B69B5F7DA0FC985 PUSH1 0xC0 SHL PUSH2 0x481F JUMP JUMPDEST PUSH1 0x0 DUP5 GT PUSH2 0x298F JUMPI PUSH1 0x40 MLOAD PUSH32 0x8C379A000000000000000000000000000000000000000000000000000000000 DUP2 MSTORE PUSH1 0x4 ADD PUSH2 0x2986 SWAP1 PUSH2 0x6BC9 JUMP JUMPDEST PUSH1 0x40 MLOAD DUP1 SWAP2 SUB SWAP1 REVERT JUMPDEST PUSH2 0x29A3 PUSH8 0x39878FDC39193A5C PUSH1 0xC0 SHL PUSH2 0x481F JUMP JUMPDEST PUSH2 0x29B7 PUSH8 0xEFD429D53DEA2462 PUSH1 0xC0 SHL PUSH2 0x481F JUMP JUMPDEST PUSH2 0x29CB PUSH8 0xEF5C68BAD402A4E0 PUSH1 0xC0 SHL PUSH2 0x481F JUMP JUMPDEST PUSH2 0x29DF PUSH8 0xB55B9F6D9D1026AF PUSH1 0xC0 SHL PUSH2 0x481F JUMP JUMPDEST PUSH1 0x0 DUP4 MLOAD GT PUSH2 0x2A23 JUMPI PUSH1 0x40 MLOAD PUSH32 0x8C379A000000000000000000000000000000000000000000000000000000000 DUP2 MSTORE PUSH1 0x4 ADD PUSH2 0x2A1A SWAP1 PUSH2 0x7701 JUMP JUMPDEST PUSH1 0x40 MLOAD DUP1 SWAP2 SUB SWAP1 REVERT JUMPDEST PUSH2 0x2A37 PUSH8 0xC7765049F91A4EF7 PUSH1 0xC0 SHL PUSH2 0x481F JUMP JUMPDEST PUSH2 0x2A4B PUSH8 0xA6D489319A22F360 PUSH1 0xC0 SHL PUSH2 0x481F JUMP JUMPDEST PUSH2 0x2A5F PUSH8 0xA5644B271BDEBD05 PUSH1 0xC0 SHL PUSH2 0x481F JUMP JUMPDEST PUSH2 0x2A73 PUSH8 0x73766D50C37AE174 PUSH1 0xC0 SHL PUSH2 0x481F JUMP JUMPDEST PUSH1 0x0 DUP3 MLOAD GT PUSH2 0x2AB7 JUMPI PUSH1 0x40 MLOAD PUSH32 0x8C379A000000000000000000000000000000000000000000000000000000000 DUP2 MSTORE PUSH1 0x4 ADD PUSH2 0x2AAE SWAP1 PUSH2 0x776D JUMP JUMPDEST PUSH1 0x40 MLOAD DUP1 SWAP2 SUB SWAP1 REVERT JUMPDEST PUSH2 0x2ACB PUSH8 0x8B979D26B761488E PUSH1 0xC0 SHL PUSH2 0x481F JUMP JUMPDEST PUSH2 0x2ADF PUSH8 0x4773B74CA2DFD977 PUSH1 0xC0 SHL PUSH2 0x481F JUMP JUMPDEST PUSH2 0x2AF3 PUSH8 0x3A3C8E3B93C77FD7 PUSH1 0xC0 SHL PUSH2 0x481F JUMP JUMPDEST PUSH2 0x2B07 PUSH8 0xDE5B5A61926C36C9 PUSH1 0xC0 SHL PUSH2 0x481F JUMP JUMPDEST PUSH1 0x0 DUP2 GT PUSH2 0x2B4A JUMPI PUSH1 0x40 MLOAD PUSH32 0x8C379A000000000000000000000000000000000000000000000000000000000 DUP2 MSTORE PUSH1 0x4 ADD PUSH2 0x2B41 SWAP1 PUSH2 0x77D9 JUMP JUMPDEST PUSH1 0x40 MLOAD DUP1 SWAP2 SUB SWAP1 REVERT JUMPDEST PUSH2 0x2B5E PUSH8 0xFBA3334237611515 PUSH1 0xC0 SHL PUSH2 0x481F JUMP JUMPDEST PUSH2 0x2B72 PUSH8 0xA458FC201C41F2EB PUSH1 0xC0 SHL PUSH2 0x481F JUMP JUMPDEST PUSH2 0x2B86 PUSH8 0x32E4132DAD121900 PUSH1 0xC0 SHL PUSH2 0x481F JUMP JUMPDEST PUSH2 0x2B9A PUSH8 0x5903462AB1321CAC PUSH1 0xC0 SHL PUSH2 0x481F JUMP JUMPDEST PUSH1 0x0 PUSH1 0x1 PUSH1 0x0 DUP7 DUP2 MSTORE PUSH1 0x20 ADD SWAP1 DUP2 MSTORE PUSH1 0x20 ADD PUSH1 0x0 KECCAK256 PUSH1 0x0 ADD SLOAD EQ PUSH2 0x2BF3 JUMPI PUSH1 0x40 MLOAD PUSH32 0x8C379A000000000000000000000000000000000000000000000000000000000 DUP2 MSTORE PUSH1 0x4 ADD PUSH2 0x2BEA SWAP1 PUSH2 0x7845 JUMP JUMPDEST PUSH1 0x40 MLOAD DUP1 SWAP2 SUB SWAP1 REVERT JUMPDEST PUSH2 0x2C07 PUSH8 0x95A317EC06F83C10 PUSH1 0xC0 SHL PUSH2 0x481F JUMP JUMPDEST PUSH2 0x2C1B PUSH8 0xB1D4635B098CE77A PUSH1 0xC0 SHL PUSH2 0x481F JUMP JUMPDEST PUSH2 0x2C2F PUSH8 0xA0B843672511AB55 PUSH1 0xC0 SHL PUSH2 0x481F JUMP JUMPDEST PUSH2 0x2C3B DUP5 DUP5 DUP5 DUP5 PUSH2 0x5226 JUMP JUMPDEST POP POP POP POP JUMP JUMPDEST PUSH1 0x0 DUP1 SHL DUP2 JUMP JUMPDEST PUSH2 0x2C5C PUSH8 0x7BA3D7AD982F17C1 PUSH1 0xC0 SHL PUSH2 0x481F JUMP JUMPDEST PUSH2 0x2C70 PUSH8 0x5FF2FE70F0A16508 PUSH1 0xC0 SHL PUSH2 0x481F JUMP JUMPDEST PUSH2 0x2C84 PUSH8 0x39D9FB6B575BA4E3 PUSH1 0xC0 SHL PUSH2 0x481F JUMP JUMPDEST PUSH2 0x2C98 PUSH8 0x248DCA5C34FF865B PUSH1 0xC0 SHL PUSH2 0x481F JUMP JUMPDEST PUSH2 0x2CC2 PUSH32 0xD646AE07EB0D0F77457502A65E7407930DFF4CD4FD99ABC6AAC87A753F4C8A42 CALLER PUSH2 0x27BC JUMP JUMPDEST PUSH2 0x2D01 JUMPI PUSH1 0x40 MLOAD PUSH32 0x8C379A000000000000000000000000000000000000000000000000000000000 DUP2 MSTORE PUSH1 0x4 ADD PUSH2 0x2CF8 SWAP1 PUSH2 0x6B5D JUMP JUMPDEST PUSH1 0x40 MLOAD DUP1 SWAP2 SUB SWAP1 REVERT JUMPDEST PUSH2 0x2D15 PUSH8 0x52D84047F7EC1FD8 PUSH1 0xC0 SHL PUSH2 0x481F JUMP JUMPDEST PUSH2 0x2D29 PUSH8 0xAE030A65C15F8755 PUSH1 0xC0 SHL PUSH2 0x481F JUMP JUMPDEST PUSH2 0x2D3D PUSH8 0x4DBD682BD4FC3106 PUSH1 0xC0 SHL PUSH2 0x481F JUMP JUMPDEST PUSH2 0x2D51 PUSH8 0x14F96B5406597F99 PUSH1 0xC0 SHL PUSH2 0x481F JUMP JUMPDEST PUSH1 0x0 PUSH1 0x1 PUSH1 0x0 DUP8 DUP2 MSTORE PUSH1 0x20 ADD SWAP1 DUP2 MSTORE PUSH1 0x20 ADD PUSH1 0x0 KECCAK256 PUSH1 0x0 ADD SLOAD SUB PUSH2 0x2DAA JUMPI PUSH1 0x40 MLOAD PUSH32 0x8C379A000000000000000000000000000000000000000000000000000000000 DUP2 MSTORE PUSH1 0x4 ADD PUSH2 0x2DA1 SWAP1 PUSH2 0x6C35 JUMP JUMPDEST PUSH1 0x40 MLOAD DUP1 SWAP2 SUB SWAP1 REVERT JUMPDEST PUSH2 0x2DBE PUSH8 0xDF07991CAEF353D PUSH1 0xC0 SHL PUSH2 0x481F JUMP JUMPDEST PUSH2 0x2DD2 PUSH8 0xAE62EA1482F5A883 PUSH1 0xC0 SHL PUSH2 0x481F JUMP JUMPDEST PUSH2 0x2DE6 PUSH8 0x163E0E75E54E0C8A PUSH1 0xC0 SHL PUSH2 0x481F JUMP JUMPDEST PUSH2 0x2DFA PUSH8 0xA4E6A19CBFE51679 PUSH1 0xC0 SHL PUSH2 0x481F JUMP JUMPDEST PUSH1 0x0 PUSH1 0x3 DUP2 GT ISZERO PUSH2 0x2E0E JUMPI PUSH2 0x2E0D PUSH2 0x65F0 JUMP JUMPDEST JUMPDEST DUP5 PUSH1 0x3 DUP2 GT ISZERO PUSH2 0x2E21 JUMPI PUSH2 0x2E20 PUSH2 0x65F0 JUMP JUMPDEST JUMPDEST LT ISZERO DUP1 ISZERO PUSH2 0x2E53 JUMPI POP PUSH1 0x3 DUP1 DUP2 GT ISZERO PUSH2 0x2E3D JUMPI PUSH2 0x2E3C PUSH2 0x65F0 JUMP JUMPDEST JUMPDEST DUP5 PUSH1 0x3 DUP2 GT ISZERO PUSH2 0x2E50 JUMPI PUSH2 0x2E4F PUSH2 0x65F0 JUMP JUMPDEST JUMPDEST GT ISZERO JUMPDEST PUSH2 0x2E92 JUMPI PUSH1 0x40 MLOAD PUSH32 0x8C379A000000000000000000000000000000000000000000000000000000000 DUP2 MSTORE PUSH1 0x4 ADD PUSH2 0x2E89 SWAP1 PUSH2 0x7309 JUMP JUMPDEST PUSH1 0x40 MLOAD DUP1 SWAP2 SUB SWAP1 REVERT JUMPDEST PUSH2 0x2EA6 PUSH8 0x5C78A7177EB1A8FB PUSH1 0xC0 SHL PUSH2 0x481F JUMP JUMPDEST PUSH2 0x2EBA PUSH8 0xBF4499FF51C0C221 PUSH1 0xC0 SHL PUSH2 0x481F JUMP JUMPDEST PUSH2 0x2ECE PUSH8 0x822948BE4D3EF9A7 PUSH1 0xC0 SHL PUSH2 0x481F JUMP JUMPDEST PUSH2 0x2EE2 PUSH8 0x96129956313ADF1B PUSH1 0xC0 SHL PUSH2 0x481F JUMP JUMPDEST PUSH1 0x0 PUSH1 0x2 DUP2 GT ISZERO PUSH2 0x2EF6 JUMPI PUSH2 0x2EF5 PUSH2 0x65F0 JUMP JUMPDEST JUMPDEST DUP4 PUSH1 0x2 DUP2 GT ISZERO PUSH2 0x2F09 JUMPI PUSH2 0x2F08 PUSH2 0x65F0 JUMP JUMPDEST JUMPDEST LT ISZERO DUP1 ISZERO PUSH2 0x2F3B JUMPI POP PUSH1 0x2 DUP1 DUP2 GT ISZERO PUSH2 0x2F25 JUMPI PUSH2 0x2F24 PUSH2 0x65F0 JUMP JUMPDEST JUMPDEST DUP4 PUSH1 0x2 DUP2 GT ISZERO PUSH2 0x2F38 JUMPI PUSH2 0x2F37 PUSH2 0x65F0 JUMP JUMPDEST JUMPDEST GT ISZERO JUMPDEST PUSH2 0x2F7A JUMPI PUSH1 0x40 MLOAD PUSH32 0x8C379A000000000000000000000000000000000000000000000000000000000 DUP2 MSTORE PUSH1 0x4 ADD PUSH2 0x2F71 SWAP1 PUSH2 0x7375 JUMP JUMPDEST PUSH1 0x40 MLOAD DUP1 SWAP2 SUB SWAP1 REVERT JUMPDEST PUSH2 0x2F8E PUSH8 0xA37DF02138054E52 PUSH1 0xC0 SHL PUSH2 0x481F JUMP JUMPDEST PUSH2 0x2FA2 PUSH8 0xB057154329C49BF8 PUSH1 0xC0 SHL PUSH2 0x481F JUMP JUMPDEST PUSH2 0x2FB6 PUSH8 0xE3A8E90515CCE0B7 PUSH1 0xC0 SHL PUSH2 0x481F JUMP JUMPDEST PUSH2 0x2FCA PUSH8 0xB5A228E10270E225 PUSH1 0xC0 SHL PUSH2 0x481F JUMP JUMPDEST PUSH1 0x0 PUSH1 0xF DUP2 GT ISZERO PUSH2 0x2FDE JUMPI PUSH2 0x2FDD PUSH2 0x65F0 JUMP JUMPDEST JUMPDEST DUP3 PUSH1 0xF DUP2 GT ISZERO PUSH2 0x2FF1 JUMPI PUSH2 0x2FF0 PUSH2 0x65F0 JUMP JUMPDEST JUMPDEST LT ISZERO DUP1 ISZERO PUSH2 0x3023 JUMPI POP PUSH1 0xF DUP1 DUP2 GT ISZERO PUSH2 0x300D JUMPI PUSH2 0x300C PUSH2 0x65F0 JUMP JUMPDEST JUMPDEST DUP3 PUSH1 0xF DUP2 GT ISZERO PUSH2 0x3020 JUMPI PUSH2 0x301F PUSH2 0x65F0 JUMP JUMPDEST JUMPDEST GT ISZERO JUMPDEST PUSH2 0x3062 JUMPI PUSH1 0x40 MLOAD PUSH32 0x8C379A000000000000000000000000000000000000000000000000000000000 DUP2 MSTORE PUSH1 0x4 ADD PUSH2 0x3059 SWAP1 PUSH2 0x73E1 JUMP JUMPDEST PUSH1 0x40 MLOAD DUP1 SWAP2 SUB SWAP1 REVERT JUMPDEST PUSH2 0x3076 PUSH8 0x3DDB288B7F8FDE58 PUSH1 0xC0 SHL PUSH2 0x481F JUMP JUMPDEST PUSH2 0x308A PUSH8 0x28FFED5C4BBB136D PUSH1 0xC0 SHL PUSH2 0x481F JUMP JUMPDEST PUSH2 0x309E PUSH8 0x1A14E86B1536E0C4 PUSH1 0xC0 SHL PUSH2 0x481F JUMP JUMPDEST PUSH2 0x30B2 PUSH8 0x8190894182F13227 PUSH1 0xC0 SHL PUSH2 0x481F JUMP JUMPDEST PUSH1 0x0 ISZERO ISZERO PUSH1 0x7 PUSH1 0x0 DUP8 DUP8 DUP8 DUP8 PUSH1 0x40 MLOAD PUSH1 0x20 ADD PUSH2 0x30D1 SWAP5 SWAP4 SWAP3 SWAP2 SWAP1 PUSH2 0x7465 JUMP JUMPDEST PUSH1 0x40 MLOAD PUSH1 0x20 DUP2 DUP4 SUB SUB DUP2 MSTORE SWAP1 PUSH1 0x40 MSTORE DUP1 MLOAD SWAP1 PUSH1 0x20 ADD KECCAK256 DUP2 MSTORE PUSH1 0x20 ADD SWAP1 DUP2 MSTORE PUSH1 0x20 ADD PUSH1 0x0 KECCAK256 PUSH1 0x2 ADD PUSH1 0x0 SWAP1 SLOAD SWAP1 PUSH2 0x100 EXP SWAP1 DIV PUSH1 0xFF AND ISZERO ISZERO EQ PUSH2 0x3148 JUMPI PUSH1 0x40 MLOAD PUSH32 0x8C379A000000000000000000000000000000000000000000000000000000000 DUP2 MSTORE PUSH1 0x4 ADD PUSH2 0x313F SWAP1 PUSH2 0x78B1 JUMP JUMPDEST PUSH1 0x40 MLOAD DUP1 SWAP2 SUB SWAP1 REVERT JUMPDEST PUSH2 0x315C PUSH8 0x5E914CC764A08BDC PUSH1 0xC0 SHL PUSH2 0x481F JUMP JUMPDEST PUSH2 0x3170 PUSH8 0x59CB1221E0215D5E PUSH1 0xC0 SHL PUSH2 0x481F JUMP JUMPDEST PUSH2 0x3184 PUSH8 0x6D76B91FE9DE0F8C PUSH1 0xC0 SHL PUSH2 0x481F JUMP JUMPDEST PUSH1 0x0 DUP6 DUP6 DUP6 DUP6 PUSH1 0x40 MLOAD PUSH1 0x20 ADD PUSH2 0x319D SWAP5 SWAP4 SWAP3 SWAP2 SWAP1 PUSH2 0x791D JUMP JUMPDEST PUSH1 0x40 MLOAD PUSH1 0x20 DUP2 DUP4 SUB SUB DUP2 MSTORE SWAP1 PUSH1 0x40 MSTORE DUP1 MLOAD SWAP1 PUSH1 0x20 ADD KECCAK256 SWAP1 POP PUSH2 0x31C9 PUSH8 0xBDF8A12455256E97 PUSH1 0xC0 SHL PUSH2 0x481F JUMP JUMPDEST PUSH2 0x31DD PUSH8 0xED9C0B858915E646 PUSH1 0xC0 SHL PUSH2 0x481F JUMP JUMPDEST PUSH2 0x32A9 DUP2 PUSH32 0xD646AE07EB0D0F77457502A65E7407930DFF4CD4FD99ABC6AAC87A753F4C8A42 DUP9 PUSH1 0x40 MLOAD PUSH1 0x20 ADD PUSH2 0x3213 SWAP2 SWAP1 PUSH2 0x6CF3 JUMP JUMPDEST PUSH1 0x40 MLOAD PUSH1 0x20 DUP2 DUP4 SUB SUB DUP2 MSTORE SWAP1 PUSH1 0x40 MSTORE DUP9 PUSH1 0x40 MLOAD PUSH1 0x20 ADD PUSH2 0x3233 SWAP2 SWAP1 PUSH2 0x75C4 JUMP JUMPDEST PUSH1 0x40 MLOAD PUSH1 0x20 DUP2 DUP4 SUB SUB DUP2 MSTORE SWAP1 PUSH1 0x40 MSTORE DUP9 PUSH1 0x40 MLOAD PUSH1 0x20 ADD PUSH2 0x3253 SWAP2 SWAP1 PUSH2 0x75DF JUMP JUMPDEST PUSH1 0x40 MLOAD PUSH1 0x20 DUP2 DUP4 SUB SUB DUP2 MSTORE SWAP1 PUSH1 0x40 MSTORE DUP9 PUSH1 0x40 MLOAD PUSH1 0x20 ADD PUSH2 0x3273 SWAP2 SWAP1 PUSH2 0x75FA JUMP JUMPDEST PUSH1 0x40 MLOAD PUSH1 0x20 DUP2 DUP4 SUB SUB DUP2 MSTORE SWAP1 PUSH1 0x40 MSTORE PUSH1 0x40 MLOAD PUSH1 0x20 ADD PUSH2 0x3295 SWAP5 SWAP4 SWAP3 SWAP2 SWAP1 PUSH2 0x799C JUMP JUMPDEST PUSH1 0x40 MLOAD PUSH1 0x20 DUP2 DUP4 SUB SUB DUP2 MSTORE SWAP1 PUSH1 0x40 MSTORE PUSH2 0x4822 JUMP JUMPDEST PUSH2 0x32BD PUSH8 0x649BD458A2007257 PUSH1 0xC0 SHL PUSH2 0x481F JUMP JUMPDEST PUSH2 0x32D1 PUSH8 0xB6B16EA080CCDB2 PUSH1 0xC0 SHL PUSH2 0x481F JUMP JUMPDEST DUP2 DUP1 ISZERO PUSH2 0x3342 JUMPI POP PUSH1 0x0 ISZERO ISZERO PUSH1 0x4 PUSH1 0x0 DUP4 DUP2 MSTORE PUSH1 0x20 ADD SWAP1 DUP2 MSTORE PUSH1 0x20 ADD PUSH1 0x0 KECCAK256 PUSH1 0x3 ADD PUSH1 0x0 CALLER PUSH20 0xFFFFFFFFFFFFFFFFFFFFFFFFFFFFFFFFFFFFFFFF AND PUSH20 0xFFFFFFFFFFFFFFFFFFFFFFFFFFFFFFFFFFFFFFFF AND DUP2 MSTORE PUSH1 0x20 ADD SWAP1 DUP2 MSTORE PUSH1 0x20 ADD PUSH1 0x0 KECCAK256 PUSH1 0x0 SWAP1 SLOAD SWAP1 PUSH2 0x100 EXP SWAP1 DIV PUSH1 0xFF AND ISZERO ISZERO EQ JUMPDEST ISZERO PUSH2 0x3403 JUMPI PUSH2 0x335B PUSH8 0x689B85AE64F251BF PUSH1 0xC0 SHL PUSH2 0x481F JUMP JUMPDEST PUSH2 0x336F PUSH8 0x35E2A6E6763DE1BE PUSH1 0xC0 SHL PUSH2 0x481F JUMP JUMPDEST PUSH2 0x3383 PUSH8 0x9E04AE92E1584C0 PUSH1 0xC0 SHL PUSH2 0x481F JUMP JUMPDEST PUSH2 0x339F PUSH1 0x4 PUSH1 0x0 DUP4 DUP2 MSTORE PUSH1 0x20 ADD SWAP1 DUP2 MSTORE PUSH1 0x20 ADD PUSH1 0x0 KECCAK256 CALLER PUSH2 0x49C6 JUMP JUMPDEST PUSH2 0x33B3 PUSH8 0x2117BB302F321A49 PUSH1 0xC0 SHL PUSH2 0x481F JUMP JUMPDEST PUSH2 0x33C7 PUSH8 0x918F30A7FAD84412 PUSH1 0xC0 SHL PUSH2 0x481F JUMP JUMPDEST PUSH32 0xB431A69783A2491A0C400FF16DAB32CD442ABF8FE5AF63A526A7248D730192F8 DUP2 PUSH1 0x40 MLOAD PUSH2 0x33F6 SWAP2 SWAP1 PUSH2 0x63BF JUMP JUMPDEST PUSH1 0x40 MLOAD DUP1 SWAP2 SUB SWAP1 LOG1 PUSH2 0x3509 JUMP JUMPDEST PUSH2 0x3417 PUSH8 0x9D26A0BCAE16F155 PUSH1 0xC0 SHL PUSH2 0x481F JUMP JUMPDEST PUSH2 0x342B PUSH8 0x62560A22786C9D89 PUSH1 0xC0 SHL PUSH2 0x481F JUMP JUMPDEST PUSH1 0x0 ISZERO ISZERO DUP3 ISZERO ISZERO SUB PUSH2 0x34F3 JUMPI PUSH2 0x344B PUSH8 0x6AD05DD6AD0C5E8E PUSH1 0xC0 SHL PUSH2 0x481F JUMP JUMPDEST PUSH2 0x345F PUSH8 0xB018FB771A8F126A PUSH1 0xC0 SHL PUSH2 0x481F JUMP JUMPDEST PUSH2 0x3473 PUSH8 0x3838E17E05CAD86E PUSH1 0xC0 SHL PUSH2 0x481F JUMP JUMPDEST PUSH2 0x348F PUSH1 0x4 PUSH1 0x0 DUP4 DUP2 MSTORE PUSH1 0x20 ADD SWAP1 DUP2 MSTORE PUSH1 0x20 ADD PUSH1 0x0 KECCAK256 CALLER PUSH2 0x4C48 JUMP JUMPDEST PUSH2 0x34A3 PUSH8 0x3B992EF7312A36A2 PUSH1 0xC0 SHL PUSH2 0x481F JUMP JUMPDEST PUSH2 0x34B7 PUSH8 0xD1937D9A9D9EDE4B PUSH1 0xC0 SHL PUSH2 0x481F JUMP JUMPDEST PUSH32 0xB431A69783A2491A0C400FF16DAB32CD442ABF8FE5AF63A526A7248D730192F8 DUP2 PUSH1 0x40 MLOAD PUSH2 0x34E6 SWAP2 SWAP1 PUSH2 0x63BF JUMP JUMPDEST PUSH1 0x40 MLOAD DUP1 SWAP2 SUB SWAP1 LOG1 PUSH2 0x3508 JUMP JUMPDEST PUSH2 0x3507 PUSH8 0xEBA93D2F1C3A3725 PUSH1 0xC0 SHL PUSH2 0x481F JUMP JUMPDEST JUMPDEST JUMPDEST PUSH2 0x351D PUSH8 0xE583D3490FB5C11A PUSH1 0xC0 SHL PUSH2 0x481F JUMP JUMPDEST PUSH2 0x3531 PUSH8 0x3C216AEF0914C7D PUSH1 0xC0 SHL PUSH2 0x481F JUMP JUMPDEST PUSH2 0x3597 PUSH1 0x33 PUSH1 0xFF AND PUSH1 0x3 PUSH1 0x0 PUSH32 0xD646AE07EB0D0F77457502A65E7407930DFF4CD4FD99ABC6AAC87A753F4C8A42 DUP2 MSTORE PUSH1 0x20 ADD SWAP1 DUP2 MSTORE PUSH1 0x20 ADD PUSH1 0x0 KECCAK256 PUSH1 0x0 ADD PUSH1 0x0 SWAP1 SLOAD SWAP1 PUSH2 0x100 EXP SWAP1 DIV PUSH4 0xFFFFFFFF AND PUSH2 0x358A SWAP2 SWAP1 PUSH2 0x6DCA JUMP JUMPDEST PUSH4 0xFFFFFFFF AND PUSH1 0x64 PUSH2 0x36F3 JUMP JUMPDEST PUSH1 0x4 PUSH1 0x0 DUP4 DUP2 MSTORE PUSH1 0x20 ADD SWAP1 DUP2 MSTORE PUSH1 0x20 ADD PUSH1 0x0 KECCAK256 PUSH1 0x2 ADD PUSH1 0x0 SWAP1 SLOAD SWAP1 PUSH2 0x100 EXP SWAP1 DIV PUSH1 0xFF AND PUSH1 0xFF AND LT PUSH2 0x36B2 JUMPI PUSH2 0x35D7 PUSH8 0xE929230DACD39FC4 PUSH1 0xC0 SHL PUSH2 0x481F JUMP JUMPDEST PUSH2 0x35EB PUSH8 0xF0423AD893494D1F PUSH1 0xC0 SHL PUSH2 0x481F JUMP JUMPDEST PUSH2 0x35FF PUSH8 0xE4635F8420CBA4D PUSH1 0xC0 SHL PUSH2 0x481F JUMP JUMPDEST PUSH2 0x361A PUSH1 0x4 PUSH1 0x0 DUP4 DUP2 MSTORE PUSH1 0x20 ADD SWAP1 DUP2 MSTORE PUSH1 0x20 ADD PUSH1 0x0 KECCAK256 PUSH2 0x4E00 JUMP JUMPDEST PUSH2 0x362E PUSH8 0xA8F356AE64E80FB2 PUSH1 0xC0 SHL PUSH2 0x481F JUMP JUMPDEST PUSH2 0x3642 PUSH8 0x87081979864AFEAE PUSH1 0xC0 SHL PUSH2 0x481F JUMP JUMPDEST PUSH32 0x562618DBCF74B61AE5B0F229FE40BA6D5B6AE6B4248F8C89A870DDA7C77135F6 DUP2 PUSH1 0x40 MLOAD PUSH2 0x3671 SWAP2 SWAP1 PUSH2 0x63BF JUMP JUMPDEST PUSH1 0x40 MLOAD DUP1 SWAP2 SUB SWAP1 LOG1 PUSH2 0x368D PUSH8 0x7547DDE3E6DE66C1 PUSH1 0xC0 SHL PUSH2 0x481F JUMP JUMPDEST PUSH2 0x36A1 PUSH8 0x76A3D74FA8FA5457 PUSH1 0xC0 SHL PUSH2 0x481F JUMP JUMPDEST PUSH2 0x36AD DUP7 DUP7 DUP7 DUP7 PUSH2 0x54BD JUMP JUMPDEST PUSH2 0x36C7 JUMP JUMPDEST PUSH2 0x36C6 PUSH8 0x4ED9EA8C9338F000 PUSH1 0xC0 SHL PUSH2 0x481F JUMP JUMPDEST JUMPDEST POP POP POP POP POP POP JUMP JUMPDEST PUSH32 0xD646AE07EB0D0F77457502A65E7407930DFF4CD4FD99ABC6AAC87A753F4C8A42 DUP2 JUMP JUMPDEST PUSH1 0x0 PUSH2 0x3709 PUSH8 0x6A2AE2A06AFE1980 PUSH1 0xC0 SHL PUSH2 0x574A JUMP JUMPDEST PUSH2 0x371D PUSH8 0xE21AC2F9AC7C4360 PUSH1 0xC0 SHL PUSH2 0x574A JUMP JUMPDEST PUSH2 0x3731 PUSH8 0xB73A8C950C3A10BE PUSH1 0xC0 SHL PUSH2 0x574A JUMP JUMPDEST PUSH1 0x0 DUP3 DUP5 PUSH2 0x373F SWAP2 SWAP1 PUSH2 0x7A45 JUMP JUMPDEST SUB PUSH2 0x3793 JUMPI PUSH2 0x3758 PUSH8 0x2A4E30EBA7F2D245 PUSH1 0xC0 SHL PUSH2 0x574A JUMP JUMPDEST PUSH2 0x376C PUSH8 0xE751E11BF7E00E75 PUSH1 0xC0 SHL PUSH2 0x574A JUMP JUMPDEST PUSH2 0x3780 PUSH8 0xC1F8BCAE3BEADA7F PUSH1 0xC0 SHL PUSH2 0x574A JUMP JUMPDEST DUP2 DUP4 PUSH2 0x378C SWAP2 SWAP1 PUSH2 0x7A76 JUMP JUMPDEST SWAP1 POP PUSH2 0x37EA JUMP JUMPDEST PUSH2 0x37A7 PUSH8 0xAD8F2EA651454D1D PUSH1 0xC0 SHL PUSH2 0x574A JUMP JUMPDEST PUSH2 0x37BB PUSH8 0xB2B9FDBD62EED155 PUSH1 0xC0 SHL PUSH2 0x574A JUMP JUMPDEST PUSH2 0x37CF PUSH8 0x2D541561A735E8B8 PUSH1 0xC0 SHL PUSH2 0x574A JUMP JUMPDEST PUSH1 0x1 DUP3 DUP5 PUSH2 0x37DD SWAP2 SWAP1 PUSH2 0x7A76 JUMP JUMPDEST PUSH2 0x37E7 SWAP2 SWAP1 PUSH2 0x7AA7 JUMP JUMPDEST SWAP1 POP JUMPDEST SWAP3 SWAP2 POP POP JUMP JUMPDEST PUSH2 0x3804 PUSH8 0x553B9AE776C1AC07 PUSH1 0xC0 SHL PUSH2 0x481F JUMP JUMPDEST PUSH2 0x3818 PUSH8 0x76E3A440F346F78B PUSH1 0xC0 SHL PUSH2 0x481F JUMP JUMPDEST PUSH2 0x382C PUSH8 0x2FE19DD197AE71B7 PUSH1 0xC0 SHL PUSH2 0x481F JUMP JUMPDEST PUSH2 0x3840 PUSH8 0x4DADAD20973E5E5D PUSH1 0xC0 SHL PUSH2 0x481F JUMP JUMPDEST PUSH2 0x386A PUSH32 0xD646AE07EB0D0F77457502A65E7407930DFF4CD4FD99ABC6AAC87A753F4C8A42 CALLER PUSH2 0x27BC JUMP JUMPDEST PUSH2 0x38A9 JUMPI PUSH1 0x40 MLOAD PUSH32 0x8C379A000000000000000000000000000000000000000000000000000000000 DUP2 MSTORE PUSH1 0x4 ADD PUSH2 0x38A0 SWAP1 PUSH2 0x6B5D JUMP JUMPDEST PUSH1 0x40 MLOAD DUP1 SWAP2 SUB SWAP1 REVERT JUMPDEST PUSH2 0x38BD PUSH8 0xDCFD845B2FE814EE PUSH1 0xC0 SHL PUSH2 0x481F JUMP JUMPDEST PUSH2 0x38D1 PUSH8 0x87C8EA0FEDA3ADA5 PUSH1 0xC0 SHL PUSH2 0x481F JUMP JUMPDEST PUSH2 0x38E5 PUSH8 0x124F1DAD53C69BC5 PUSH1 0xC0 SHL PUSH2 0x481F JUMP JUMPDEST PUSH2 0x38F9 PUSH8 0x6E8D3572B8C8BA0B PUSH1 0xC0 SHL PUSH2 0x481F JUMP JUMPDEST PUSH1 0x0 DUP5 GT PUSH2 0x393C JUMPI PUSH1 0x40 MLOAD PUSH32 0x8C379A000000000000000000000000000000000000000000000000000000000 DUP2 MSTORE PUSH1 0x4 ADD PUSH2 0x3933 SWAP1 PUSH2 0x6BC9 JUMP JUMPDEST PUSH1 0x40 MLOAD DUP1 SWAP2 SUB SWAP1 REVERT JUMPDEST PUSH2 0x3950 PUSH8 0xEC4E2BCD06462333 PUSH1 0xC0 SHL PUSH2 0x481F JUMP JUMPDEST PUSH2 0x3964 PUSH8 0x71868017DD9EA9A2 PUSH1 0xC0 SHL PUSH2 0x481F JUMP JUMPDEST PUSH2 0x3978 PUSH8 0xAB1BD67FCC0DC4E6 PUSH1 0xC0 SHL PUSH2 0x481F JUMP JUMPDEST PUSH2 0x398C PUSH8 0x14693CE83117A4A6 PUSH1 0xC0 SHL PUSH2 0x481F JUMP JUMPDEST PUSH1 0x0 PUSH1 0x1 PUSH1 0x0 DUP7 DUP2 MSTORE PUSH1 0x20 ADD SWAP1 DUP2 MSTORE PUSH1 0x20 ADD PUSH1 0x0 KECCAK256 PUSH1 0x0 ADD SLOAD SUB PUSH2 0x39E5 JUMPI PUSH1 0x40 MLOAD PUSH32 0x8C379A000000000000000000000000000000000000000000000000000000000 DUP2 MSTORE PUSH1 0x4 ADD PUSH2 0x39DC SWAP1 PUSH2 0x6C35 JUMP JUMPDEST PUSH1 0x40 MLOAD DUP1 SWAP2 SUB SWAP1 REVERT JUMPDEST PUSH2 0x39F9 PUSH8 0x1EE91D41820DE701 PUSH1 0xC0 SHL PUSH2 0x481F JUMP JUMPDEST PUSH2 0x3A0D PUSH8 0x65714EE521157C16 PUSH1 0xC0 SHL PUSH2 0x481F JUMP JUMPDEST PUSH2 0x3A21 PUSH8 0x647B5B224D6B0949 PUSH1 0xC0 SHL PUSH2 0x481F JUMP JUMPDEST PUSH2 0x3A2D DUP5 DUP5 DUP5 DUP5 PUSH2 0x574D JUMP JUMPDEST POP POP POP POP JUMP JUMPDEST PUSH1 0x50 DUP2 JUMP JUMPDEST PUSH2 0x3A4C PUSH8 0x37C85746C2F8F065 PUSH1 0xC0 SHL PUSH2 0x481F JUMP JUMPDEST PUSH2 0x3A60 PUSH8 0x2011FAB2EAC00491 PUSH1 0xC0 SHL PUSH2 0x481F JUMP JUMPDEST PUSH2 0x3A74 PUSH8 0x44A1B5A674D397BA PUSH1 0xC0 SHL PUSH2 0x481F JUMP JUMPDEST PUSH1 0x0 PUSH1 0x3 PUSH1 0x0 DUP6 DUP2 MSTORE PUSH1 0x20 ADD SWAP1 DUP2 MSTORE PUSH1 0x20 ADD PUSH1 0x0 KECCAK256 SWAP1 POP PUSH2 0x3A9F PUSH8 0x356380150091118D PUSH1 0xC0 SHL PUSH2 0x481F JUMP JUMPDEST PUSH2 0x3AB3 PUSH8 0xD1DA6E531BB5433E PUSH1 0xC0 SHL PUSH2 0x481F JUMP JUMPDEST PUSH2 0x3AC7 PUSH8 0x2EE69EE778148743 PUSH1 0xC0 SHL PUSH2 0x481F JUMP JUMPDEST DUP1 PUSH1 0x0 ADD PUSH1 0x4 SWAP1 SLOAD SWAP1 PUSH2 0x100 EXP SWAP1 DIV PUSH4 0xFFFFFFFF AND PUSH4 0xFFFFFFFF AND DUP2 PUSH1 0x0 ADD PUSH1 0x0 SWAP1 SLOAD SWAP1 PUSH2 0x100 EXP SWAP1 DIV PUSH4 0xFFFFFFFF AND PUSH4 0xFFFFFFFF AND GT DUP2 PUSH1 0x2 ADD SLOAD PUSH1 0x40 MLOAD PUSH1 0x20 ADD PUSH2 0x3B13 SWAP2 SWAP1 PUSH2 0x6F86 JUMP JUMPDEST PUSH1 0x40 MLOAD PUSH1 0x20 DUP2 DUP4 SUB SUB DUP2 MSTORE SWAP1 PUSH1 0x40 MSTORE PUSH1 0x40 MLOAD PUSH1 0x20 ADD PUSH2 0x3B32 SWAP2 SWAP1 PUSH2 0x7B01 JUMP JUMPDEST PUSH1 0x40 MLOAD PUSH1 0x20 DUP2 DUP4 SUB SUB DUP2 MSTORE SWAP1 PUSH1 0x40 MSTORE SWAP1 PUSH2 0x3B82 JUMPI PUSH1 0x40 MLOAD PUSH32 0x8C379A000000000000000000000000000000000000000000000000000000000 DUP2 MSTORE PUSH1 0x4 ADD PUSH2 0x3B79 SWAP2 SWAP1 PUSH2 0x7022 JUMP JUMPDEST PUSH1 0x40 MLOAD DUP1 SWAP2 SUB SWAP1 REVERT JUMPDEST POP PUSH2 0x3B97 PUSH8 0x1B9E414AB197E55F PUSH1 0xC0 SHL PUSH2 0x481F JUMP JUMPDEST PUSH2 0x3BAB PUSH8 0x14F85A465318971D PUSH1 0xC0 SHL PUSH2 0x481F JUMP JUMPDEST PUSH2 0x3BBF PUSH8 0xE79B395DE5E6D684 PUSH1 0xC0 SHL PUSH2 0x481F JUMP JUMPDEST PUSH2 0x3BD3 PUSH8 0x5EA5FD91E72C5013 PUSH1 0xC0 SHL PUSH2 0x481F JUMP JUMPDEST PUSH2 0x3BDD DUP5 DUP5 PUSH2 0x27BC JUMP JUMPDEST DUP2 PUSH1 0x2 ADD SLOAD PUSH1 0x40 MLOAD PUSH1 0x20 ADD PUSH2 0x3BF2 SWAP2 SWAP1 PUSH2 0x6F86 JUMP JUMPDEST PUSH1 0x40 MLOAD PUSH1 0x20 DUP2 DUP4 SUB SUB DUP2 MSTORE SWAP1 PUSH1 0x40 MSTORE PUSH1 0x40 MLOAD PUSH1 0x20 ADD PUSH2 0x3C11 SWAP2 SWAP1 PUSH2 0x7B5C JUMP JUMPDEST PUSH1 0x40 MLOAD PUSH1 0x20 DUP2 DUP4 SUB SUB DUP2 MSTORE SWAP1 PUSH1 0x40 MSTORE SWAP1 PUSH2 0x3C61 JUMPI PUSH1 0x40 MLOAD PUSH32 0x8C379A000000000000000000000000000000000000000000000000000000000 DUP2 MSTORE PUSH1 0x4 ADD PUSH2 0x3C58 SWAP2 SWAP1 PUSH2 0x7022 JUMP JUMPDEST PUSH1 0x40 MLOAD DUP1 SWAP2 SUB SWAP1 REVERT JUMPDEST POP PUSH2 0x3C76 PUSH8 0x40B5EFFBE6FBC4BA PUSH1 0xC0 SHL PUSH2 0x481F JUMP JUMPDEST PUSH2 0x3C8A PUSH8 0xD72DD4E9F32DF2A6 PUSH1 0xC0 SHL PUSH2 0x481F JUMP JUMPDEST PUSH2 0x3C9E PUSH8 0xED0A2A914FD84F7 PUSH1 0xC0 SHL PUSH2 0x481F JUMP JUMPDEST PUSH2 0x3CB2 PUSH8 0x87DE25C771EC2582 PUSH1 0xC0 SHL PUSH2 0x481F JUMP JUMPDEST PUSH2 0x3CC0 DUP2 PUSH1 0x1 ADD SLOAD CALLER PUSH2 0x27BC JUMP JUMPDEST DUP2 PUSH1 0x2 ADD SLOAD PUSH1 0x40 MLOAD PUSH1 0x20 ADD PUSH2 0x3CD5 SWAP2 SWAP1 PUSH2 0x6F86 JUMP JUMPDEST PUSH1 0x40 MLOAD PUSH1 0x20 DUP2 DUP4 SUB SUB DUP2 MSTORE SWAP1 PUSH1 0x40 MSTORE PUSH1 0x40 MLOAD PUSH1 0x20 ADD PUSH2 0x3CF4 SWAP2 SWAP1 PUSH2 0x7090 JUMP JUMPDEST PUSH1 0x40 MLOAD PUSH1 0x20 DUP2 DUP4 SUB SUB DUP2 MSTORE SWAP1 PUSH1 0x40 MSTORE SWAP1 PUSH2 0x3D44 JUMPI PUSH1 0x40 MLOAD PUSH32 0x8C379A000000000000000000000000000000000000000000000000000000000 DUP2 MSTORE PUSH1 0x4 ADD PUSH2 0x3D3B SWAP2 SWAP1 PUSH2 0x7022 JUMP JUMPDEST PUSH1 0x40 MLOAD DUP1 SWAP2 SUB SWAP1 REVERT JUMPDEST POP PUSH2 0x3D59 PUSH8 0x9A8CDFCABCB0DACB PUSH1 0xC0 SHL PUSH2 0x481F JUMP JUMPDEST PUSH2 0x3D6D PUSH8 0x772E58326B3683CE PUSH1 0xC0 SHL PUSH2 0x481F JUMP JUMPDEST PUSH2 0x3D81 PUSH8 0xF33D304923BB8F17 PUSH1 0xC0 SHL PUSH2 0x481F JUMP JUMPDEST PUSH1 0x0 DUP4 DUP6 PUSH1 0x40 MLOAD PUSH1 0x20 ADD PUSH2 0x3D96 SWAP3 SWAP2 SWAP1 PUSH2 0x7BCE JUMP JUMPDEST PUSH1 0x40 MLOAD PUSH1 0x20 DUP2 DUP4 SUB SUB DUP2 MSTORE SWAP1 PUSH1 0x40 MSTORE DUP1 MLOAD SWAP1 PUSH1 0x20 ADD KECCAK256 SWAP1 POP PUSH2 0x3DC2 PUSH8 0x30DBD22AA968D27A PUSH1 0xC0 SHL PUSH2 0x481F JUMP JUMPDEST PUSH2 0x3DD6 PUSH8 0x1045BC06E9EC4A83 PUSH1 0xC0 SHL PUSH2 0x481F JUMP JUMPDEST PUSH2 0x3E48 DUP2 DUP4 PUSH1 0x1 ADD SLOAD DUP5 PUSH1 0x2 ADD SLOAD PUSH1 0x40 MLOAD PUSH1 0x20 ADD PUSH2 0x3DF4 SWAP2 SWAP1 PUSH2 0x6F86 JUMP JUMPDEST PUSH1 0x40 MLOAD PUSH1 0x20 DUP2 DUP4 SUB SUB DUP2 MSTORE SWAP1 PUSH1 0x40 MSTORE DUP8 PUSH1 0x40 MLOAD PUSH1 0x20 ADD PUSH2 0x3E14 SWAP2 SWAP1 PUSH2 0x71DC JUMP JUMPDEST PUSH1 0x40 MLOAD PUSH1 0x20 DUP2 DUP4 SUB SUB DUP2 MSTORE SWAP1 PUSH1 0x40 MSTORE PUSH1 0x40 MLOAD PUSH1 0x20 ADD PUSH2 0x3E34 SWAP3 SWAP2 SWAP1 PUSH2 0x7C2B JUMP JUMPDEST PUSH1 0x40 MLOAD PUSH1 0x20 DUP2 DUP4 SUB SUB DUP2 MSTORE SWAP1 PUSH1 0x40 MSTORE PUSH2 0x4822 JUMP JUMPDEST PUSH2 0x3E5C PUSH8 0xBF20874DED53A208 PUSH1 0xC0 SHL PUSH2 0x481F JUMP JUMPDEST PUSH2 0x3E70 PUSH8 0xE36F7F130CB3F213 PUSH1 0xC0 SHL PUSH2 0x481F JUMP JUMPDEST DUP3 DUP1 ISZERO PUSH2 0x3EE1 JUMPI POP PUSH1 0x0 ISZERO ISZERO PUSH1 0x4 PUSH1 0x0 DUP4 DUP2 MSTORE PUSH1 0x20 ADD SWAP1 DUP2 MSTORE PUSH1 0x20 ADD PUSH1 0x0 KECCAK256 PUSH1 0x3 ADD PUSH1 0x0 CALLER PUSH20 0xFFFFFFFFFFFFFFFFFFFFFFFFFFFFFFFFFFFFFFFF AND PUSH20 0xFFFFFFFFFFFFFFFFFFFFFFFFFFFFFFFFFFFFFFFF AND DUP2 MSTORE PUSH1 0x20 ADD SWAP1 DUP2 MSTORE PUSH1 0x20 ADD PUSH1 0x0 KECCAK256 PUSH1 0x0 SWAP1 SLOAD SWAP1 PUSH2 0x100 EXP SWAP1 DIV PUSH1 0xFF AND ISZERO ISZERO EQ JUMPDEST ISZERO PUSH2 0x3FA2 JUMPI PUSH2 0x3EFA PUSH8 0x15BD5E551D188D83 PUSH1 0xC0 SHL PUSH2 0x481F JUMP JUMPDEST PUSH2 0x3F0E PUSH8 0x580BBBB9CCBB13BE PUSH1 0xC0 SHL PUSH2 0x481F JUMP JUMPDEST PUSH2 0x3F22 PUSH8 0x66006DD0F09419F5 PUSH1 0xC0 SHL PUSH2 0x481F JUMP JUMPDEST PUSH2 0x3F3E PUSH1 0x4 PUSH1 0x0 DUP4 DUP2 MSTORE PUSH1 0x20 ADD SWAP1 DUP2 MSTORE PUSH1 0x20 ADD PUSH1 0x0 KECCAK256 CALLER PUSH2 0x49C6 JUMP JUMPDEST PUSH2 0x3F52 PUSH8 0x20CEEB0471D394B6 PUSH1 0xC0 SHL PUSH2 0x481F JUMP JUMPDEST PUSH2 0x3F66 PUSH8 0x213863767FEBEE4A PUSH1 0xC0 SHL PUSH2 0x481F JUMP JUMPDEST PUSH32 0xB431A69783A2491A0C400FF16DAB32CD442ABF8FE5AF63A526A7248D730192F8 DUP2 PUSH1 0x40 MLOAD PUSH2 0x3F95 SWAP2 SWAP1 PUSH2 0x63BF JUMP JUMPDEST PUSH1 0x40 MLOAD DUP1 SWAP2 SUB SWAP1 LOG1 PUSH2 0x40A8 JUMP JUMPDEST PUSH2 0x3FB6 PUSH8 0x2D86523E849FC68D PUSH1 0xC0 SHL PUSH2 0x481F JUMP JUMPDEST PUSH2 0x3FCA PUSH8 0x689F9D36814699ED PUSH1 0xC0 SHL PUSH2 0x481F JUMP JUMPDEST PUSH1 0x0 ISZERO ISZERO DUP4 ISZERO ISZERO SUB PUSH2 0x4092 JUMPI PUSH2 0x3FEA PUSH8 0xF194D1FFC0447EA9 PUSH1 0xC0 SHL PUSH2 0x481F JUMP JUMPDEST PUSH2 0x3FFE PUSH8 0x89A333387D41A6B6 PUSH1 0xC0 SHL PUSH2 0x481F JUMP JUMPDEST PUSH2 0x4012 PUSH8 0x5DA07D83CB2BAB9D PUSH1 0xC0 SHL PUSH2 0x481F JUMP JUMPDEST PUSH2 0x402E PUSH1 0x4 PUSH1 0x0 DUP4 DUP2 MSTORE PUSH1 0x20 ADD SWAP1 DUP2 MSTORE PUSH1 0x20 ADD PUSH1 0x0 KECCAK256 CALLER PUSH2 0x4C48 JUMP JUMPDEST PUSH2 0x4042 PUSH8 0xF25AC83BECFB3BA8 PUSH1 0xC0 SHL PUSH2 0x481F JUMP JUMPDEST PUSH2 0x4056 PUSH8 0x386935278DAE8226 PUSH1 0xC0 SHL PUSH2 0x481F JUMP JUMPDEST PUSH32 0xB431A69783A2491A0C400FF16DAB32CD442ABF8FE5AF63A526A7248D730192F8 DUP2 PUSH1 0x40 MLOAD PUSH2 0x4085 SWAP2 SWAP1 PUSH2 0x63BF JUMP JUMPDEST PUSH1 0x40 MLOAD DUP1 SWAP2 SUB SWAP1 LOG1 PUSH2 0x40A7 JUMP JUMPDEST PUSH2 0x40A6 PUSH8 0xCCB3B5B8AF78B2CB PUSH1 0xC0 SHL PUSH2 0x481F JUMP JUMPDEST JUMPDEST JUMPDEST PUSH2 0x40BC PUSH8 0xE0F5824EDE3CB57D PUSH1 0xC0 SHL PUSH2 0x481F JUMP JUMPDEST PUSH2 0x40D0 PUSH8 0xF4B14BEAD3785A66 PUSH1 0xC0 SHL PUSH2 0x481F JUMP JUMPDEST DUP2 PUSH1 0x1 ADD SLOAD DUP6 EQ ISZERO DUP1 ISZERO PUSH2 0x4163 JUMPI POP PUSH2 0x4139 DUP3 PUSH1 0x0 ADD PUSH1 0xD SWAP1 SLOAD SWAP1 PUSH2 0x100 EXP SWAP1 DIV PUSH1 0xFF AND PUSH1 0xFF AND PUSH1 0x3 PUSH1 0x0 DUP6 PUSH1 0x1 ADD SLOAD DUP2 MSTORE PUSH1 0x20 ADD SWAP1 DUP2 MSTORE PUSH1 0x20 ADD PUSH1 0x0 KECCAK256 PUSH1 0x0 ADD PUSH1 0x0 SWAP1 SLOAD SWAP1 PUSH2 0x100 EXP SWAP1 DIV PUSH4 0xFFFFFFFF AND PUSH2 0x412C SWAP2 SWAP1 PUSH2 0x6DCA JUMP JUMPDEST PUSH4 0xFFFFFFFF AND PUSH1 0x64 PUSH2 0x36F3 JUMP JUMPDEST PUSH1 0x4 PUSH1 0x0 DUP4 DUP2 MSTORE PUSH1 0x20 ADD SWAP1 DUP2 MSTORE PUSH1 0x20 ADD PUSH1 0x0 KECCAK256 PUSH1 0x2 ADD PUSH1 0x0 SWAP1 SLOAD SWAP1 PUSH2 0x100 EXP SWAP1 DIV PUSH1 0xFF AND PUSH1 0xFF AND LT ISZERO JUMPDEST DUP1 ISZERO PUSH2 0x417F JUMPI POP PUSH2 0x417E PUSH8 0x43D8BA5B87E2E648 PUSH1 0xC0 SHL PUSH2 0x5BC2 JUMP JUMPDEST JUMPDEST DUP1 PUSH2 0x4240 JUMPI POP DUP2 PUSH1 0x1 ADD SLOAD DUP6 EQ DUP1 ISZERO PUSH2 0x4223 JUMPI POP PUSH2 0x41F9 DUP3 PUSH1 0x0 ADD PUSH1 0xD SWAP1 SLOAD SWAP1 PUSH2 0x100 EXP SWAP1 DIV PUSH1 0xFF AND PUSH1 0xFF AND PUSH1 0x1 PUSH1 0x3 PUSH1 0x0 DUP7 PUSH1 0x1 ADD SLOAD DUP2 MSTORE PUSH1 0x20 ADD SWAP1 DUP2 MSTORE PUSH1 0x20 ADD PUSH1 0x0 KECCAK256 PUSH1 0x0 ADD PUSH1 0x0 SWAP1 SLOAD SWAP1 PUSH2 0x100 EXP SWAP1 DIV PUSH4 0xFFFFFFFF AND PUSH2 0x41E2 SWAP2 SWAP1 PUSH2 0x7C6D JUMP JUMPDEST PUSH2 0x41EC SWAP2 SWAP1 PUSH2 0x6DCA JUMP JUMPDEST PUSH4 0xFFFFFFFF AND PUSH1 0x64 PUSH2 0x36F3 JUMP JUMPDEST PUSH1 0x4 PUSH1 0x0 DUP4 DUP2 MSTORE PUSH1 0x20 ADD SWAP1 DUP2 MSTORE PUSH1 0x20 ADD PUSH1 0x0 KECCAK256 PUSH1 0x2 ADD PUSH1 0x0 SWAP1 SLOAD SWAP1 PUSH2 0x100 EXP SWAP1 DIV PUSH1 0xFF AND PUSH1 0xFF AND LT ISZERO JUMPDEST DUP1 ISZERO PUSH2 0x423F JUMPI POP PUSH2 0x423E PUSH8 0x5882F3B1B847165D PUSH1 0xC0 SHL PUSH2 0x5BC2 JUMP JUMPDEST JUMPDEST JUMPDEST ISZERO PUSH2 0x45E0 JUMPI PUSH2 0x4259 PUSH8 0xEC6DBC09E6A8D3C3 PUSH1 0xC0 SHL PUSH2 0x481F JUMP JUMPDEST PUSH2 0x426D PUSH8 0x87FEC01562DE0D77 PUSH1 0xC0 SHL PUSH2 0x481F JUMP JUMPDEST PUSH2 0x4281 PUSH8 0xB815FA764D360F80 PUSH1 0xC0 SHL PUSH2 0x481F JUMP JUMPDEST PUSH1 0x0 JUMPDEST PUSH1 0x6 SLOAD DUP2 LT ISZERO PUSH2 0x44B0 JUMPI PUSH2 0x42A2 PUSH8 0x6C848CA2D28CC2E7 PUSH1 0xC0 SHL PUSH2 0x481F JUMP JUMPDEST PUSH2 0x42B6 PUSH8 0x62A5C10409C68FA6 PUSH1 0xC0 SHL PUSH2 0x481F JUMP JUMPDEST PUSH1 0x1 ISZERO ISZERO PUSH1 0x4 PUSH1 0x0 PUSH1 0x5 PUSH1 0x0 DUP6 DUP2 MSTORE PUSH1 0x20 ADD SWAP1 DUP2 MSTORE PUSH1 0x20 ADD PUSH1 0x0 KECCAK256 SLOAD DUP2 MSTORE PUSH1 0x20 ADD SWAP1 DUP2 MSTORE PUSH1 0x20 ADD PUSH1 0x0 KECCAK256 PUSH1 0x3 ADD PUSH1 0x0 DUP8 PUSH20 0xFFFFFFFFFFFFFFFFFFFFFFFFFFFFFFFFFFFFFFFF AND PUSH20 0xFFFFFFFFFFFFFFFFFFFFFFFFFFFFFFFFFFFFFFFF AND DUP2 MSTORE PUSH1 0x20 ADD SWAP1 DUP2 MSTORE PUSH1 0x20 ADD PUSH1 0x0 KECCAK256 PUSH1 0x0 SWAP1 SLOAD SWAP1 PUSH2 0x100 EXP SWAP1 DIV PUSH1 0xFF AND ISZERO ISZERO EQ DUP1 ISZERO PUSH2 0x4365 JUMPI POP DUP6 PUSH1 0x4 PUSH1 0x0 PUSH1 0x5 PUSH1 0x0 DUP6 DUP2 MSTORE PUSH1 0x20 ADD SWAP1 DUP2 MSTORE PUSH1 0x20 ADD PUSH1 0x0 KECCAK256 SLOAD DUP2 MSTORE PUSH1 0x20 ADD SWAP1 DUP2 MSTORE PUSH1 0x20 ADD PUSH1 0x0 KECCAK256 PUSH1 0x1 ADD SLOAD EQ JUMPDEST ISZERO PUSH2 0x4488 JUMPI PUSH2 0x437E PUSH8 0x67BE7BCFB8B646A3 PUSH1 0xC0 SHL PUSH2 0x481F JUMP JUMPDEST PUSH2 0x4392 PUSH8 0xAB4B51EF71953986 PUSH1 0xC0 SHL PUSH2 0x481F JUMP JUMPDEST PUSH1 0x1 PUSH1 0x4 PUSH1 0x0 PUSH1 0x5 PUSH1 0x0 DUP6 DUP2 MSTORE PUSH1 0x20 ADD SWAP1 DUP2 MSTORE PUSH1 0x20 ADD PUSH1 0x0 KECCAK256 SLOAD DUP2 MSTORE PUSH1 0x20 ADD SWAP1 DUP2 MSTORE PUSH1 0x20 ADD PUSH1 0x0 KECCAK256 PUSH1 0x2 ADD PUSH1 0x0 DUP3 DUP3 DUP3 SWAP1 SLOAD SWAP1 PUSH2 0x100 EXP SWAP1 DIV PUSH1 0xFF AND PUSH2 0x43D8 SWAP2 SWAP1 PUSH2 0x7CA5 JUMP JUMPDEST SWAP3 POP PUSH2 0x100 EXP DUP2 SLOAD DUP2 PUSH1 0xFF MUL NOT AND SWAP1 DUP4 PUSH1 0xFF AND MUL OR SWAP1 SSTORE POP PUSH2 0x4404 PUSH8 0x45513953A8AAED3B PUSH1 0xC0 SHL PUSH2 0x481F JUMP JUMPDEST PUSH1 0x0 PUSH1 0x4 PUSH1 0x0 PUSH1 0x5 PUSH1 0x0 DUP6 DUP2 MSTORE PUSH1 0x20 ADD SWAP1 DUP2 MSTORE PUSH1 0x20 ADD PUSH1 0x0 KECCAK256 SLOAD DUP2 MSTORE PUSH1 0x20 ADD SWAP1 DUP2 MSTORE PUSH1 0x20 ADD PUSH1 0x0 KECCAK256 PUSH1 0x3 ADD PUSH1 0x0 DUP8 PUSH20 0xFFFFFFFFFFFFFFFFFFFFFFFFFFFFFFFFFFFFFFFF AND PUSH20 0xFFFFFFFFFFFFFFFFFFFFFFFFFFFFFFFFFFFFFFFF AND DUP2 MSTORE PUSH1 0x20 ADD SWAP1 DUP2 MSTORE PUSH1 0x20 ADD PUSH1 0x0 KECCAK256 PUSH1 0x0 PUSH2 0x100 EXP DUP2 SLOAD DUP2 PUSH1 0xFF MUL NOT AND SWAP1 DUP4 ISZERO ISZERO MUL OR SWAP1 SSTORE POP PUSH2 0x449D JUMP JUMPDEST PUSH2 0x449C PUSH8 0xA0247630C45FC010 PUSH1 0xC0 SHL PUSH2 0x481F JUMP JUMPDEST JUMPDEST DUP1 DUP1 PUSH2 0x44A8 SWAP1 PUSH2 0x7CDA JUMP JUMPDEST SWAP2 POP POP PUSH2 0x4284 JUMP JUMPDEST POP PUSH2 0x44C5 PUSH8 0xCB56C9DFFEF6C09B PUSH1 0xC0 SHL PUSH2 0x481F JUMP JUMPDEST PUSH2 0x44D9 PUSH8 0xF6C466182E7DAF4 PUSH1 0xC0 SHL PUSH2 0x481F JUMP JUMPDEST PUSH2 0x44F4 PUSH1 0x4 PUSH1 0x0 DUP4 DUP2 MSTORE PUSH1 0x20 ADD SWAP1 DUP2 MSTORE PUSH1 0x20 ADD PUSH1 0x0 KECCAK256 PUSH2 0x4E00 JUMP JUMPDEST PUSH2 0x4508 PUSH8 0x96AF1B9E171F5D0C PUSH1 0xC0 SHL PUSH2 0x481F JUMP JUMPDEST PUSH2 0x451C PUSH8 0x6EA5A5CFDD40CA77 PUSH1 0xC0 SHL PUSH2 0x481F JUMP JUMPDEST PUSH32 0x562618DBCF74B61AE5B0F229FE40BA6D5B6AE6B4248F8C89A870DDA7C77135F6 DUP2 PUSH1 0x40 MLOAD PUSH2 0x454B SWAP2 SWAP1 PUSH2 0x63BF JUMP JUMPDEST PUSH1 0x40 MLOAD DUP1 SWAP2 SUB SWAP1 LOG1 PUSH2 0x4567 PUSH8 0x34C805801AD925B4 PUSH1 0xC0 SHL PUSH2 0x481F JUMP JUMPDEST PUSH2 0x457B PUSH8 0xDE2808851EA85358 PUSH1 0xC0 SHL PUSH2 0x481F JUMP JUMPDEST PUSH2 0x4585 DUP6 DUP6 PUSH2 0x5BCD JUMP JUMPDEST PUSH2 0x4599 PUSH8 0x7AB469CC82D327C1 PUSH1 0xC0 SHL PUSH2 0x481F JUMP JUMPDEST PUSH1 0x1 DUP3 PUSH1 0x0 ADD PUSH1 0x0 DUP3 DUP3 DUP3 SWAP1 SLOAD SWAP1 PUSH2 0x100 EXP SWAP1 DIV PUSH4 0xFFFFFFFF AND PUSH2 0x45BD SWAP2 SWAP1 PUSH2 0x7C6D JUMP JUMPDEST SWAP3 POP PUSH2 0x100 EXP DUP2 SLOAD DUP2 PUSH4 0xFFFFFFFF MUL NOT AND SWAP1 DUP4 PUSH4 0xFFFFFFFF AND MUL OR SWAP1 SSTORE POP PUSH2 0x45F5 JUMP JUMPDEST PUSH2 0x45F4 PUSH8 0x34FCCB1C20348035 PUSH1 0xC0 SHL PUSH2 0x481F JUMP JUMPDEST JUMPDEST POP POP POP POP POP JUMP JUMPDEST PUSH2 0x4605 DUP3 PUSH2 0x10B6 JUMP JUMPDEST PUSH2 0x460E DUP2 PUSH2 0x512F JUMP JUMPDEST PUSH2 0x4618 DUP4 DUP4 PUSH2 0x5BCD JUMP JUMPDEST POP POP POP JUMP JUMPDEST PUSH1 0x2 DUP2 DUP2 SLOAD DUP2 LT PUSH2 0x462D JUMPI PUSH1 0x0 DUP1 REVERT JUMPDEST SWAP1 PUSH1 0x0 MSTORE PUSH1 0x20 PUSH1 0x0 KECCAK256 ADD PUSH1 0x0 SWAP2 POP SWAP1 POP SLOAD DUP2 JUMP JUMPDEST PUSH32 0x4BBEB6FD3E5222E55F2F8B0C35BC228E0A06A25D0DA772FDB02C3B92FA004F88 DUP2 JUMP JUMPDEST PUSH1 0x60 PUSH2 0x467B PUSH8 0x220AD4741FC3DF5D PUSH1 0xC0 SHL PUSH2 0x481F JUMP JUMPDEST PUSH2 0x468F PUSH8 0x99A0B0988AF08677 PUSH1 0xC0 SHL PUSH2 0x481F JUMP JUMPDEST PUSH2 0x46A3 PUSH8 0x5D49AC61BE8EBD71 PUSH1 0xC0 SHL PUSH2 0x481F JUMP JUMPDEST PUSH2 0x46B7 PUSH8 0xAC18A9A1EC69E6B8 PUSH1 0xC0 SHL PUSH2 0x481F JUMP JUMPDEST PUSH1 0x0 PUSH1 0x1 PUSH1 0x0 DUP5 DUP2 MSTORE PUSH1 0x20 ADD SWAP1 DUP2 MSTORE PUSH1 0x20 ADD PUSH1 0x0 KECCAK256 PUSH1 0x0 ADD SLOAD SUB PUSH2 0x4710 JUMPI PUSH1 0x40 MLOAD PUSH32 0x8C379A000000000000000000000000000000000000000000000000000000000 DUP2 MSTORE PUSH1 0x4 ADD PUSH2 0x4707 SWAP1 PUSH2 0x6C35 JUMP JUMPDEST PUSH1 0x40 MLOAD DUP1 SWAP2 SUB SWAP1 REVERT JUMPDEST PUSH2 0x4724 PUSH8 0x698BF9A5753EF891 PUSH1 0xC0 SHL PUSH2 0x481F JUMP JUMPDEST PUSH2 0x4738 PUSH8 0x4A780F79854977D8 PUSH1 0xC0 SHL PUSH2 0x481F JUMP JUMPDEST PUSH2 0x474C PUSH8 0x69AD2177CECD222F PUSH1 0xC0 SHL PUSH2 0x481F JUMP JUMPDEST PUSH1 0x8 PUSH1 0x0 DUP4 DUP2 MSTORE PUSH1 0x20 ADD SWAP1 DUP2 MSTORE PUSH1 0x20 ADD PUSH1 0x0 KECCAK256 DUP1 SLOAD DUP1 PUSH1 0x20 MUL PUSH1 0x20 ADD PUSH1 0x40 MLOAD SWAP1 DUP2 ADD PUSH1 0x40 MSTORE DUP1 SWAP3 SWAP2 SWAP1 DUP2 DUP2 MSTORE PUSH1 0x20 ADD DUP3 DUP1 SLOAD DUP1 ISZERO PUSH2 0x47A9 JUMPI PUSH1 0x20 MUL DUP3 ADD SWAP2 SWAP1 PUSH1 0x0 MSTORE PUSH1 0x20 PUSH1 0x0 KECCAK256 SWAP1 JUMPDEST DUP2 SLOAD DUP2 MSTORE PUSH1 0x20 ADD SWAP1 PUSH1 0x1 ADD SWAP1 DUP1 DUP4 GT PUSH2 0x4795 JUMPI JUMPDEST POP POP POP POP POP SWAP1 POP SWAP2 SWAP1 POP JUMP JUMPDEST PUSH1 0x0 PUSH32 0x1FFC9A700000000000000000000000000000000000000000000000000000000 PUSH28 0xFFFFFFFFFFFFFFFFFFFFFFFFFFFFFFFFFFFFFFFFFFFFFFFFFFFFFFFF NOT AND DUP3 PUSH28 0xFFFFFFFFFFFFFFFFFFFFFFFFFFFFFFFFFFFFFFFFFFFFFFFFFFFFFFFF NOT AND EQ SWAP1 POP SWAP2 SWAP1 POP JUMP JUMPDEST POP JUMP JUMPDEST PUSH2 0x4836 PUSH8 0x6DDD2FA1476C452 PUSH1 0xC0 SHL PUSH2 0x481F JUMP JUMPDEST PUSH2 0x484A PUSH8 0x476C17A0B8385F17 PUSH1 0xC0 SHL PUSH2 0x481F JUMP JUMPDEST PUSH2 0x485E PUSH8 0x1C07E5A9226BE916 PUSH1 0xC0 SHL PUSH2 0x481F JUMP JUMPDEST PUSH1 0x0 ISZERO ISZERO PUSH1 0x4 PUSH1 0x0 DUP6 DUP2 MSTORE PUSH1 0x20 ADD SWAP1 DUP2 MSTORE PUSH1 0x20 ADD PUSH1 0x0 KECCAK256 PUSH1 0x0 ADD PUSH1 0x0 SWAP1 SLOAD SWAP1 PUSH2 0x100 EXP SWAP1 DIV PUSH1 0xFF AND ISZERO ISZERO SUB PUSH2 0x49AC JUMPI PUSH2 0x48A1 PUSH8 0x7862D5C1055513B PUSH1 0xC0 SHL PUSH2 0x481F JUMP JUMPDEST PUSH2 0x48B5 PUSH8 0x92F115933DDBA31C PUSH1 0xC0 SHL PUSH2 0x481F JUMP JUMPDEST PUSH1 0x1 PUSH1 0x4 PUSH1 0x0 DUP6 DUP2 MSTORE PUSH1 0x20 ADD SWAP1 DUP2 MSTORE PUSH1 0x20 ADD PUSH1 0x0 KECCAK256 PUSH1 0x0 ADD PUSH1 0x0 PUSH2 0x100 EXP DUP2 SLOAD DUP2 PUSH1 0xFF MUL NOT AND SWAP1 DUP4 ISZERO ISZERO MUL OR SWAP1 SSTORE POP PUSH2 0x48F8 PUSH8 0xF700B95D536177F3 PUSH1 0xC0 SHL PUSH2 0x481F JUMP JUMPDEST DUP3 PUSH1 0x5 PUSH1 0x0 PUSH1 0x6 SLOAD DUP2 MSTORE PUSH1 0x20 ADD SWAP1 DUP2 MSTORE PUSH1 0x20 ADD PUSH1 0x0 KECCAK256 DUP2 SWAP1 SSTORE POP PUSH2 0x4926 PUSH8 0x82A82F6F1BD2C116 PUSH1 0xC0 SHL PUSH2 0x481F JUMP JUMPDEST PUSH1 0x1 PUSH1 0x6 PUSH1 0x0 DUP3 DUP3 SLOAD PUSH2 0x4939 SWAP2 SWAP1 PUSH2 0x7AA7 JUMP JUMPDEST SWAP3 POP POP DUP2 SWAP1 SSTORE POP PUSH2 0x4954 PUSH8 0x2E2EEF9C059DC207 PUSH1 0xC0 SHL PUSH2 0x481F JUMP JUMPDEST DUP2 PUSH1 0x4 PUSH1 0x0 DUP6 DUP2 MSTORE PUSH1 0x20 ADD SWAP1 DUP2 MSTORE PUSH1 0x20 ADD PUSH1 0x0 KECCAK256 PUSH1 0x1 ADD DUP2 SWAP1 SSTORE POP PUSH2 0x4983 PUSH8 0x2071DF197B17F30B PUSH1 0xC0 SHL PUSH2 0x481F JUMP JUMPDEST DUP1 PUSH1 0x4 PUSH1 0x0 DUP6 DUP2 MSTORE PUSH1 0x20 ADD SWAP1 DUP2 MSTORE PUSH1 0x20 ADD PUSH1 0x0 KECCAK256 PUSH1 0x5 ADD SWAP1 DUP2 PUSH2 0x49A6 SWAP2 SWAP1 PUSH2 0x7ECE JUMP JUMPDEST POP PUSH2 0x49C1 JUMP JUMPDEST PUSH2 0x49C0 PUSH8 0x7B5A83C26FEAC28 PUSH1 0xC0 SHL PUSH2 0x481F JUMP JUMPDEST JUMPDEST POP POP POP JUMP JUMPDEST PUSH2 0x49DA PUSH8 0x5A3C9011D6117744 PUSH1 0xC0 SHL PUSH2 0x5CAE JUMP JUMPDEST PUSH2 0x49EE PUSH8 0xEE7F0288F9C0FBA3 PUSH1 0xC0 SHL PUSH2 0x5CAE JUMP JUMPDEST PUSH2 0x4A02 PUSH8 0x3E2D95FAB5502C96 PUSH1 0xC0 SHL PUSH2 0x5CAE JUMP JUMPDEST PUSH2 0x4A16 PUSH8 0x22234FE55E6F93B2 PUSH1 0xC0 SHL PUSH2 0x5CAE JUMP JUMPDEST PUSH1 0x0 ISZERO ISZERO DUP3 PUSH1 0x3 ADD PUSH1 0x0 DUP4 PUSH20 0xFFFFFFFFFFFFFFFFFFFFFFFFFFFFFFFFFFFFFFFF AND PUSH20 0xFFFFFFFFFFFFFFFFFFFFFFFFFFFFFFFFFFFFFFFF AND DUP2 MSTORE PUSH1 0x20 ADD SWAP1 DUP2 MSTORE PUSH1 0x20 ADD PUSH1 0x0 KECCAK256 PUSH1 0x0 SWAP1 SLOAD SWAP1 PUSH2 0x100 EXP SWAP1 DIV PUSH1 0xFF AND ISZERO ISZERO EQ PUSH2 0x4AAB JUMPI PUSH1 0x40 MLOAD PUSH32 0x8C379A000000000000000000000000000000000000000000000000000000000 DUP2 MSTORE PUSH1 0x4 ADD PUSH2 0x4AA2 SWAP1 PUSH2 0x7FEC JUMP JUMPDEST PUSH1 0x40 MLOAD DUP1 SWAP2 SUB SWAP1 REVERT JUMPDEST PUSH2 0x4ABF PUSH8 0x7C18081AF4939256 PUSH1 0xC0 SHL PUSH2 0x5CAE JUMP JUMPDEST PUSH2 0x4AD3 PUSH8 0xE206F5F987142D06 PUSH1 0xC0 SHL PUSH2 0x5CAE JUMP JUMPDEST DUP1 DUP3 PUSH1 0x4 ADD PUSH1 0x0 DUP5 PUSH1 0x2 ADD PUSH1 0x1 SWAP1 SLOAD SWAP1 PUSH2 0x100 EXP SWAP1 DIV PUSH1 0xFF AND PUSH1 0xFF AND DUP2 MSTORE PUSH1 0x20 ADD SWAP1 DUP2 MSTORE PUSH1 0x20 ADD PUSH1 0x0 KECCAK256 PUSH1 0x0 PUSH2 0x100 EXP DUP2 SLOAD DUP2 PUSH20 0xFFFFFFFFFFFFFFFFFFFFFFFFFFFFFFFFFFFFFFFF MUL NOT AND SWAP1 DUP4 PUSH20 0xFFFFFFFFFFFFFFFFFFFFFFFFFFFFFFFFFFFFFFFF AND MUL OR SWAP1 SSTORE POP PUSH2 0x4B4F PUSH8 0xC0944E3D88BB4A82 PUSH1 0xC0 SHL PUSH2 0x5CAE JUMP JUMPDEST DUP2 PUSH1 0x2 ADD PUSH1 0x1 DUP2 DUP2 SWAP1 SLOAD SWAP1 PUSH2 0x100 EXP SWAP1 DIV PUSH1 0xFF AND DUP1 SWAP3 SWAP2 SWAP1 PUSH2 0x4B70 SWAP1 PUSH2 0x800C JUMP JUMPDEST SWAP2 SWAP1 PUSH2 0x100 EXP DUP2 SLOAD DUP2 PUSH1 0xFF MUL NOT AND SWAP1 DUP4 PUSH1 0xFF AND MUL OR SWAP1 SSTORE POP POP PUSH2 0x4B9D PUSH8 0xA952D7F984E5CFE8 PUSH1 0xC0 SHL PUSH2 0x5CAE JUMP JUMPDEST PUSH1 0x1 DUP3 PUSH1 0x3 ADD PUSH1 0x0 DUP4 PUSH20 0xFFFFFFFFFFFFFFFFFFFFFFFFFFFFFFFFFFFFFFFF AND PUSH20 0xFFFFFFFFFFFFFFFFFFFFFFFFFFFFFFFFFFFFFFFF AND DUP2 MSTORE PUSH1 0x20 ADD SWAP1 DUP2 MSTORE PUSH1 0x20 ADD PUSH1 0x0 KECCAK256 PUSH1 0x0 PUSH2 0x100 EXP DUP2 SLOAD DUP2 PUSH1 0xFF MUL NOT AND SWAP1 DUP4 ISZERO ISZERO MUL OR SWAP1 SSTORE POP PUSH2 0x4C0B PUSH8 0x4D5E6664C3071AC8 PUSH1 0xC0 SHL PUSH2 0x5CAE JUMP JUMPDEST PUSH1 0x1 DUP3 PUSH1 0x2 ADD PUSH1 0x0 DUP3 DUP3 DUP3 SWAP1 SLOAD SWAP1 PUSH2 0x100 EXP SWAP1 DIV PUSH1 0xFF AND PUSH2 0x4C2C SWAP2 SWAP1 PUSH2 0x8035 JUMP JUMPDEST SWAP3 POP PUSH2 0x100 EXP DUP2 SLOAD DUP2 PUSH1 0xFF MUL NOT AND SWAP1 DUP4 PUSH1 0xFF AND MUL OR SWAP1 SSTORE POP POP POP JUMP JUMPDEST PUSH2 0x4C5C PUSH8 0x89E241DB9BF0943F PUSH1 0xC0 SHL PUSH2 0x5CAE JUMP JUMPDEST PUSH2 0x4C70 PUSH8 0x604845014888505D PUSH1 0xC0 SHL PUSH2 0x5CAE JUMP JUMPDEST PUSH2 0x4C84 PUSH8 0x889629C1ED764B5F PUSH1 0xC0 SHL PUSH2 0x5CAE JUMP JUMPDEST PUSH2 0x4C98 PUSH8 0x3E522659FDF1C64 PUSH1 0xC0 SHL PUSH2 0x5CAE JUMP JUMPDEST PUSH1 0x1 ISZERO ISZERO DUP3 PUSH1 0x3 ADD PUSH1 0x0 DUP4 PUSH20 0xFFFFFFFFFFFFFFFFFFFFFFFFFFFFFFFFFFFFFFFF AND PUSH20 0xFFFFFFFFFFFFFFFFFFFFFFFFFFFFFFFFFFFFFFFF AND DUP2 MSTORE PUSH1 0x20 ADD SWAP1 DUP2 MSTORE PUSH1 0x20 ADD PUSH1 0x0 KECCAK256 PUSH1 0x0 SWAP1 SLOAD SWAP1 PUSH2 0x100 EXP SWAP1 DIV PUSH1 0xFF AND ISZERO ISZERO EQ PUSH2 0x4D2D JUMPI PUSH1 0x40 MLOAD PUSH32 0x8C379A000000000000000000000000000000000000000000000000000000000 DUP2 MSTORE PUSH1 0x4 ADD PUSH2 0x4D24 SWAP1 PUSH2 0x80DC JUMP JUMPDEST PUSH1 0x40 MLOAD DUP1 SWAP2 SUB SWAP1 REVERT JUMPDEST PUSH2 0x4D41 PUSH8 0xCB913EF7320953A PUSH1 0xC0 SHL PUSH2 0x5CAE JUMP JUMPDEST PUSH2 0x4D55 PUSH8 0xD0BE123F3AAD8B5 PUSH1 0xC0 SHL PUSH2 0x5CAE JUMP JUMPDEST PUSH1 0x0 DUP3 PUSH1 0x3 ADD PUSH1 0x0 DUP4 PUSH20 0xFFFFFFFFFFFFFFFFFFFFFFFFFFFFFFFFFFFFFFFF AND PUSH20 0xFFFFFFFFFFFFFFFFFFFFFFFFFFFFFFFFFFFFFFFF AND DUP2 MSTORE PUSH1 0x20 ADD SWAP1 DUP2 MSTORE PUSH1 0x20 ADD PUSH1 0x0 KECCAK256 PUSH1 0x0 PUSH2 0x100 EXP DUP2 SLOAD DUP2 PUSH1 0xFF MUL NOT AND SWAP1 DUP4 ISZERO ISZERO MUL OR SWAP1 SSTORE POP PUSH2 0x4DC3 PUSH8 0x82FB380A6E593250 PUSH1 0xC0 SHL PUSH2 0x5CAE JUMP JUMPDEST PUSH1 0x1 DUP3 PUSH1 0x2 ADD PUSH1 0x0 DUP3 DUP3 DUP3 SWAP1 SLOAD SWAP1 PUSH2 0x100 EXP SWAP1 DIV PUSH1 0xFF AND PUSH2 0x4DE4 SWAP2 SWAP1 PUSH2 0x7CA5 JUMP JUMPDEST SWAP3 POP PUSH2 0x100 EXP DUP2 SLOAD DUP2 PUSH1 0xFF MUL NOT AND SWAP1 DUP4 PUSH1 0xFF AND MUL OR SWAP1 SSTORE POP POP POP JUMP JUMPDEST PUSH2 0x4E14 PUSH8 0xA8840DC1501026D6 PUSH1 0xC0 SHL PUSH2 0x5CAE JUMP JUMPDEST PUSH2 0x4E28 PUSH8 0x284402450DE6975B PUSH1 0xC0 SHL PUSH2 0x5CAE JUMP JUMPDEST PUSH1 0x0 DUP2 PUSH1 0x2 ADD PUSH1 0x0 PUSH2 0x100 EXP DUP2 SLOAD DUP2 PUSH1 0xFF MUL NOT AND SWAP1 DUP4 PUSH1 0xFF AND MUL OR SWAP1 SSTORE POP PUSH2 0x4E5A PUSH8 0x16CC54606C5522E8 PUSH1 0xC0 SHL PUSH2 0x5CAE JUMP JUMPDEST PUSH2 0x4E6E PUSH8 0xE9AD335776B7EF0D PUSH1 0xC0 SHL PUSH2 0x5CAE JUMP JUMPDEST PUSH1 0x0 JUMPDEST DUP2 PUSH1 0x2 ADD PUSH1 0x1 SWAP1 SLOAD SWAP1 PUSH2 0x100 EXP SWAP1 DIV PUSH1 0xFF AND PUSH1 0xFF AND DUP2 PUSH1 0xFF AND LT ISZERO PUSH2 0x4F49 JUMPI PUSH2 0x4EA4 PUSH8 0xF9C0079586222D26 PUSH1 0xC0 SHL PUSH2 0x5CAE JUMP JUMPDEST PUSH1 0x0 DUP3 PUSH1 0x3 ADD PUSH1 0x0 DUP5 PUSH1 0x4 ADD PUSH1 0x0 DUP6 PUSH1 0xFF AND DUP2 MSTORE PUSH1 0x20 ADD SWAP1 DUP2 MSTORE PUSH1 0x20 ADD PUSH1 0x0 KECCAK256 PUSH1 0x0 SWAP1 SLOAD SWAP1 PUSH2 0x100 EXP SWAP1 DIV PUSH20 0xFFFFFFFFFFFFFFFFFFFFFFFFFFFFFFFFFFFFFFFF AND PUSH20 0xFFFFFFFFFFFFFFFFFFFFFFFFFFFFFFFFFFFFFFFF AND PUSH20 0xFFFFFFFFFFFFFFFFFFFFFFFFFFFFFFFFFFFFFFFF AND DUP2 MSTORE PUSH1 0x20 ADD SWAP1 DUP2 MSTORE PUSH1 0x20 ADD PUSH1 0x0 KECCAK256 PUSH1 0x0 PUSH2 0x100 EXP DUP2 SLOAD DUP2 PUSH1 0xFF MUL NOT AND SWAP1 DUP4 ISZERO ISZERO MUL OR SWAP1 SSTORE POP DUP1 DUP1 PUSH2 0x4F41 SWAP1 PUSH2 0x800C JUMP JUMPDEST SWAP2 POP POP PUSH2 0x4E71 JUMP JUMPDEST POP POP JUMP JUMPDEST PUSH2 0x4F61 PUSH8 0x4F519B1E053EFB54 PUSH1 0xC0 SHL PUSH2 0x5223 JUMP JUMPDEST PUSH2 0x4F75 PUSH8 0xAEC0A71526CCABA0 PUSH1 0xC0 SHL PUSH2 0x5223 JUMP JUMPDEST PUSH1 0x1 PUSH1 0x0 DUP3 DUP2 MSTORE PUSH1 0x20 ADD SWAP1 DUP2 MSTORE PUSH1 0x20 ADD PUSH1 0x0 KECCAK256 PUSH1 0x0 DUP1 DUP3 ADD PUSH1 0x0 SWAP1 SSTORE PUSH1 0x1 DUP3 ADD PUSH1 0x0 PUSH2 0x4FA1 SWAP2 SWAP1 PUSH2 0x5FCF JUMP JUMPDEST PUSH1 0x2 DUP3 ADD PUSH1 0x0 PUSH2 0x4FB1 SWAP2 SWAP1 PUSH2 0x5FCF JUMP JUMPDEST PUSH1 0x3 DUP3 ADD PUSH1 0x0 SWAP1 SSTORE POP POP PUSH2 0x4FCF PUSH8 0x37B3E1505CACBB5C PUSH1 0xC0 SHL PUSH2 0x5223 JUMP JUMPDEST PUSH2 0x4FE3 PUSH8 0xCAEBCBAD414C989 PUSH1 0xC0 SHL PUSH2 0x5223 JUMP JUMPDEST PUSH1 0x0 JUMPDEST PUSH1 0x2 DUP1 SLOAD SWAP1 POP DUP2 LT ISZERO PUSH2 0x50CC JUMPI PUSH2 0x5007 PUSH8 0xE5575FCBD78B3A8C PUSH1 0xC0 SHL PUSH2 0x5223 JUMP JUMPDEST PUSH2 0x501B PUSH8 0xF92C5CCE75DA192D PUSH1 0xC0 SHL PUSH2 0x5223 JUMP JUMPDEST DUP2 PUSH1 0x2 DUP3 DUP2 SLOAD DUP2 LT PUSH2 0x5030 JUMPI PUSH2 0x502F PUSH2 0x80FC JUMP JUMPDEST JUMPDEST SWAP1 PUSH1 0x0 MSTORE PUSH1 0x20 PUSH1 0x0 KECCAK256 ADD SLOAD SUB PUSH2 0x50A5 JUMPI PUSH2 0x5054 PUSH8 0x2197159AD936E066 PUSH1 0xC0 SHL PUSH2 0x5223 JUMP JUMPDEST PUSH2 0x5068 PUSH8 0x10506AF5EB8DBD93 PUSH1 0xC0 SHL PUSH2 0x5223 JUMP JUMPDEST PUSH1 0x0 PUSH1 0x2 DUP3 DUP2 SLOAD DUP2 LT PUSH2 0x507E JUMPI PUSH2 0x507D PUSH2 0x80FC JUMP JUMPDEST JUMPDEST SWAP1 PUSH1 0x0 MSTORE PUSH1 0x20 PUSH1 0x0 KECCAK256 ADD DUP2 SWAP1 SSTORE POP PUSH2 0x50A0 PUSH8 0x479521140D75F960 PUSH1 0xC0 SHL PUSH2 0x5223 JUMP JUMPDEST PUSH2 0x50CC JUMP JUMPDEST PUSH2 0x50B9 PUSH8 0x4A0ABBDD4BFB40F3 PUSH1 0xC0 SHL PUSH2 0x5223 JUMP JUMPDEST DUP1 DUP1 PUSH2 0x50C4 SWAP1 PUSH2 0x7CDA JUMP JUMPDEST SWAP2 POP POP PUSH2 0x4FE6 JUMP JUMPDEST POP PUSH2 0x50E1 PUSH8 0xFB71384749976683 PUSH1 0xC0 SHL PUSH2 0x5223 JUMP JUMPDEST PUSH2 0x50F5 PUSH8 0xCABF37FB9B0FE093 PUSH1 0xC0 SHL PUSH2 0x5223 JUMP JUMPDEST PUSH32 0x34DE6B871245ED0A89B82912E8E5EE6D9C3104B3E5BB1D67A71AD7E68239E41C DUP2 PUSH1 0x40 MLOAD PUSH2 0x5124 SWAP2 SWAP1 PUSH2 0x6A16 JUMP JUMPDEST PUSH1 0x40 MLOAD DUP1 SWAP2 SUB SWAP1 LOG1 POP JUMP JUMPDEST PUSH2 0x5140 DUP2 PUSH2 0x513B PUSH2 0x5CB1 JUMP JUMPDEST PUSH2 0x5CB9 JUMP JUMPDEST POP JUMP JUMPDEST PUSH2 0x514D DUP3 DUP3 PUSH2 0x27BC JUMP JUMPDEST PUSH2 0x521F JUMPI PUSH1 0x1 PUSH1 0x0 DUP1 DUP5 DUP2 MSTORE PUSH1 0x20 ADD SWAP1 DUP2 MSTORE PUSH1 0x20 ADD PUSH1 0x0 KECCAK256 PUSH1 0x0 ADD PUSH1 0x0 DUP4 PUSH20 0xFFFFFFFFFFFFFFFFFFFFFFFFFFFFFFFFFFFFFFFF AND PUSH20 0xFFFFFFFFFFFFFFFFFFFFFFFFFFFFFFFFFFFFFFFF AND DUP2 MSTORE PUSH1 0x20 ADD SWAP1 DUP2 MSTORE PUSH1 0x20 ADD PUSH1 0x0 KECCAK256 PUSH1 0x0 PUSH2 0x100 EXP DUP2 SLOAD DUP2 PUSH1 0xFF MUL NOT AND SWAP1 DUP4 ISZERO ISZERO MUL OR SWAP1 SSTORE POP PUSH2 0x51C4 PUSH2 0x5CB1 JUMP JUMPDEST PUSH20 0xFFFFFFFFFFFFFFFFFFFFFFFFFFFFFFFFFFFFFFFF AND DUP2 PUSH20 0xFFFFFFFFFFFFFFFFFFFFFFFFFFFFFFFFFFFFFFFF AND DUP4 PUSH32 0x2F8788117E7EFF1D82E926EC794901D17C78024A50270940304540A733656F0D PUSH1 0x40 MLOAD PUSH1 0x40 MLOAD DUP1 SWAP2 SUB SWAP1 LOG4 JUMPDEST POP POP JUMP JUMPDEST POP JUMP JUMPDEST PUSH2 0x523A PUSH8 0x3ABD118E698F57C4 PUSH1 0xC0 SHL PUSH2 0x5223 JUMP JUMPDEST PUSH2 0x524E PUSH8 0x945B6DFD81ED0B99 PUSH1 0xC0 SHL PUSH2 0x5223 JUMP JUMPDEST PUSH2 0x5262 PUSH8 0x174BF75761BDDEF6 PUSH1 0xC0 SHL PUSH2 0x5223 JUMP JUMPDEST PUSH2 0x5276 PUSH8 0xD4D55F133BA9AEBB PUSH1 0xC0 SHL PUSH2 0x5223 JUMP JUMPDEST PUSH1 0x0 PUSH1 0x1 PUSH1 0x0 DUP7 DUP2 MSTORE PUSH1 0x20 ADD SWAP1 DUP2 MSTORE PUSH1 0x20 ADD PUSH1 0x0 KECCAK256 PUSH1 0x0 ADD SLOAD EQ PUSH2 0x52CF JUMPI PUSH1 0x40 MLOAD PUSH32 0x8C379A000000000000000000000000000000000000000000000000000000000 DUP2 MSTORE PUSH1 0x4 ADD PUSH2 0x52C6 SWAP1 PUSH2 0x8177 JUMP JUMPDEST PUSH1 0x40 MLOAD DUP1 SWAP2 SUB SWAP1 REVERT JUMPDEST PUSH2 0x52E3 PUSH8 0x40FE773E1CB7AEE8 PUSH1 0xC0 SHL PUSH2 0x5223 JUMP JUMPDEST PUSH2 0x52F7 PUSH8 0xDB3F8FEB92715F89 PUSH1 0xC0 SHL PUSH2 0x5223 JUMP JUMPDEST PUSH2 0x530B PUSH8 0x4FA3027553112277 PUSH1 0xC0 SHL PUSH2 0x5223 JUMP JUMPDEST PUSH2 0x531F PUSH8 0xB2E0009661C2DF8C PUSH1 0xC0 SHL PUSH2 0x5223 JUMP JUMPDEST PUSH1 0x0 DUP5 SUB PUSH2 0x5362 JUMPI PUSH1 0x40 MLOAD PUSH32 0x8C379A000000000000000000000000000000000000000000000000000000000 DUP2 MSTORE PUSH1 0x4 ADD PUSH2 0x5359 SWAP1 PUSH2 0x81E3 JUMP JUMPDEST PUSH1 0x40 MLOAD DUP1 SWAP2 SUB SWAP1 REVERT JUMPDEST PUSH2 0x5376 PUSH8 0x4BA1C2B0A31BF16A PUSH1 0xC0 SHL PUSH2 0x5223 JUMP JUMPDEST PUSH2 0x538A PUSH8 0x2175C4DB49308E05 PUSH1 0xC0 SHL PUSH2 0x5223 JUMP JUMPDEST PUSH1 0x40 MLOAD DUP1 PUSH1 0x80 ADD PUSH1 0x40 MSTORE DUP1 DUP6 DUP2 MSTORE PUSH1 0x20 ADD DUP5 DUP2 MSTORE PUSH1 0x20 ADD DUP4 DUP2 MSTORE PUSH1 0x20 ADD DUP3 DUP2 MSTORE POP PUSH1 0x1 PUSH1 0x0 DUP7 DUP2 MSTORE PUSH1 0x20 ADD SWAP1 DUP2 MSTORE PUSH1 0x20 ADD PUSH1 0x0 KECCAK256 PUSH1 0x0 DUP3 ADD MLOAD DUP2 PUSH1 0x0 ADD SSTORE PUSH1 0x20 DUP3 ADD MLOAD DUP2 PUSH1 0x1 ADD SWAP1 DUP2 PUSH2 0x53DD SWAP2 SWAP1 PUSH2 0x7ECE JUMP JUMPDEST POP PUSH1 0x40 DUP3 ADD MLOAD DUP2 PUSH1 0x2 ADD SWAP1 DUP2 PUSH2 0x53F3 SWAP2 SWAP1 PUSH2 0x7ECE JUMP JUMPDEST POP PUSH1 0x60 DUP3 ADD MLOAD DUP2 PUSH1 0x3 ADD SSTORE SWAP1 POP POP PUSH2 0x5415 PUSH8 0xF2040CC31830C968 PUSH1 0xC0 SHL PUSH2 0x5223 JUMP JUMPDEST PUSH2 0x5429 PUSH8 0x219ACD0535B5E94F PUSH1 0xC0 SHL PUSH2 0x5223 JUMP JUMPDEST PUSH1 0x2 DUP5 SWAP1 DUP1 PUSH1 0x1 DUP2 SLOAD ADD DUP1 DUP3 SSTORE DUP1 SWAP2 POP POP PUSH1 0x1 SWAP1 SUB SWAP1 PUSH1 0x0 MSTORE PUSH1 0x20 PUSH1 0x0 KECCAK256 ADD PUSH1 0x0 SWAP1 SWAP2 SWAP1 SWAP2 SWAP1 SWAP2 POP SSTORE PUSH2 0x5466 PUSH8 0x7CDD76207FC5BCAB PUSH1 0xC0 SHL PUSH2 0x5223 JUMP JUMPDEST PUSH2 0x547A PUSH8 0x449FFDE15D725C84 PUSH1 0xC0 SHL PUSH2 0x5223 JUMP JUMPDEST PUSH32 0xB6767D1C89515962142B00B5577569C92A74381D9441A528911C66E0C3CEA1F8 DUP5 DUP5 DUP5 DUP5 PUSH1 0x40 MLOAD PUSH2 0x54AF SWAP5 SWAP4 SWAP3 SWAP2 SWAP1 PUSH2 0x6269 JUMP JUMPDEST PUSH1 0x40 MLOAD DUP1 SWAP2 SUB SWAP1 LOG1 POP POP POP POP JUMP JUMPDEST PUSH2 0x54D1 PUSH8 0x65B7E103C94A229D PUSH1 0xC0 SHL PUSH2 0x481F JUMP JUMPDEST PUSH2 0x54E5 PUSH8 0x12792DB49BD80008 PUSH1 0xC0 SHL PUSH2 0x481F JUMP JUMPDEST PUSH1 0x40 MLOAD DUP1 PUSH1 0xC0 ADD PUSH1 0x40 MSTORE DUP1 DUP5 PUSH1 0x3 DUP2 GT ISZERO PUSH2 0x5503 JUMPI PUSH2 0x5502 PUSH2 0x65F0 JUMP JUMPDEST JUMPDEST DUP2 MSTORE PUSH1 0x20 ADD DUP4 PUSH1 0x2 DUP2 GT ISZERO PUSH2 0x551B JUMPI PUSH2 0x551A PUSH2 0x65F0 JUMP JUMPDEST JUMPDEST DUP2 MSTORE PUSH1 0x20 ADD DUP3 PUSH1 0xF DUP2 GT ISZERO PUSH2 0x5533 JUMPI PUSH2 0x5532 PUSH2 0x65F0 JUMP JUMPDEST JUMPDEST DUP2 MSTORE PUSH1 0x20 ADD TIMESTAMP DUP2 MSTORE PUSH1 0x20 ADD PUSH1 0x1 ISZERO ISZERO DUP2 MSTORE PUSH1 0x20 ADD DUP6 DUP2 MSTORE POP PUSH1 0x7 PUSH1 0x0 DUP7 DUP7 DUP7 DUP7 PUSH1 0x40 MLOAD PUSH1 0x20 ADD PUSH2 0x5566 SWAP5 SWAP4 SWAP3 SWAP2 SWAP1 PUSH2 0x7465 JUMP JUMPDEST PUSH1 0x40 MLOAD PUSH1 0x20 DUP2 DUP4 SUB SUB DUP2 MSTORE SWAP1 PUSH1 0x40 MSTORE DUP1 MLOAD SWAP1 PUSH1 0x20 ADD KECCAK256 DUP2 MSTORE PUSH1 0x20 ADD SWAP1 DUP2 MSTORE PUSH1 0x20 ADD PUSH1 0x0 KECCAK256 PUSH1 0x0 DUP3 ADD MLOAD DUP2 PUSH1 0x0 ADD PUSH1 0x0 PUSH2 0x100 EXP DUP2 SLOAD DUP2 PUSH1 0xFF MUL NOT AND SWAP1 DUP4 PUSH1 0x3 DUP2 GT ISZERO PUSH2 0x55B5 JUMPI PUSH2 0x55B4 PUSH2 0x65F0 JUMP JUMPDEST JUMPDEST MUL OR SWAP1 SSTORE POP PUSH1 0x20 DUP3 ADD MLOAD DUP2 PUSH1 0x0 ADD PUSH1 0x1 PUSH2 0x100 EXP DUP2 SLOAD DUP2 PUSH1 0xFF MUL NOT AND SWAP1 DUP4 PUSH1 0x2 DUP2 GT ISZERO PUSH2 0x55E5 JUMPI PUSH2 0x55E4 PUSH2 0x65F0 JUMP JUMPDEST JUMPDEST MUL OR SWAP1 SSTORE POP PUSH1 0x40 DUP3 ADD MLOAD DUP2 PUSH1 0x0 ADD PUSH1 0x2 PUSH2 0x100 EXP DUP2 SLOAD DUP2 PUSH1 0xFF MUL NOT AND SWAP1 DUP4 PUSH1 0xF DUP2 GT ISZERO PUSH2 0x5615 JUMPI PUSH2 0x5614 PUSH2 0x65F0 JUMP JUMPDEST JUMPDEST MUL OR SWAP1 SSTORE POP PUSH1 0x60 DUP3 ADD MLOAD DUP2 PUSH1 0x1 ADD SSTORE PUSH1 0x80 DUP3 ADD MLOAD DUP2 PUSH1 0x2 ADD PUSH1 0x0 PUSH2 0x100 EXP DUP2 SLOAD DUP2 PUSH1 0xFF MUL NOT AND SWAP1 DUP4 ISZERO ISZERO MUL OR SWAP1 SSTORE POP PUSH1 0xA0 DUP3 ADD MLOAD DUP2 PUSH1 0x3 ADD SSTORE SWAP1 POP POP PUSH2 0x5665 PUSH8 0x3A5A274BE22801D2 PUSH1 0xC0 SHL PUSH2 0x481F JUMP JUMPDEST PUSH2 0x5679 PUSH8 0x493634455E2D80E9 PUSH1 0xC0 SHL PUSH2 0x481F JUMP JUMPDEST PUSH1 0x8 PUSH1 0x0 DUP6 DUP2 MSTORE PUSH1 0x20 ADD SWAP1 DUP2 MSTORE PUSH1 0x20 ADD PUSH1 0x0 KECCAK256 DUP5 DUP5 DUP5 DUP5 PUSH1 0x40 MLOAD PUSH1 0x20 ADD PUSH2 0x56A3 SWAP5 SWAP4 SWAP3 SWAP2 SWAP1 PUSH2 0x7465 JUMP JUMPDEST PUSH1 0x40 MLOAD PUSH1 0x20 DUP2 DUP4 SUB SUB DUP2 MSTORE SWAP1 PUSH1 0x40 MSTORE DUP1 MLOAD SWAP1 PUSH1 0x20 ADD KECCAK256 SWAP1 DUP1 PUSH1 0x1 DUP2 SLOAD ADD DUP1 DUP3 SSTORE DUP1 SWAP2 POP POP PUSH1 0x1 SWAP1 SUB SWAP1 PUSH1 0x0 MSTORE PUSH1 0x20 PUSH1 0x0 KECCAK256 ADD PUSH1 0x0 SWAP1 SWAP2 SWAP1 SWAP2 SWAP1 SWAP2 POP SSTORE PUSH2 0x56F3 PUSH8 0x1175E050037A7C27 PUSH1 0xC0 SHL PUSH2 0x481F JUMP JUMPDEST PUSH2 0x5707 PUSH8 0x5137F0B970B59AA7 PUSH1 0xC0 SHL PUSH2 0x481F JUMP JUMPDEST PUSH32 0xB55811DD01470A227956304B027C610C7CDF9DD622DCC47791380261D56DC6ED DUP5 DUP5 DUP5 DUP5 PUSH1 0x40 MLOAD PUSH2 0x573C SWAP5 SWAP4 SWAP3 SWAP2 SWAP1 PUSH2 0x8203 JUMP JUMPDEST PUSH1 0x40 MLOAD DUP1 SWAP2 SUB SWAP1 LOG1 POP POP POP POP JUMP JUMPDEST POP JUMP JUMPDEST PUSH2 0x5761 PUSH8 0x8F0D48F9169A161C PUSH1 0xC0 SHL PUSH2 0x5223 JUMP JUMPDEST PUSH2 0x5775 PUSH8 0x6F1C6119A0E8189B PUSH1 0xC0 SHL PUSH2 0x5223 JUMP JUMPDEST PUSH2 0x5789 PUSH8 0x1EFBC114CA82BA3A PUSH1 0xC0 SHL PUSH2 0x5223 JUMP JUMPDEST PUSH2 0x579D PUSH8 0xB5E10CCF1DFB2CBF PUSH1 0xC0 SHL PUSH2 0x5223 JUMP JUMPDEST PUSH1 0x0 PUSH1 0x1 PUSH1 0x0 DUP7 DUP2 MSTORE PUSH1 0x20 ADD SWAP1 DUP2 MSTORE PUSH1 0x20 ADD PUSH1 0x0 KECCAK256 PUSH1 0x0 ADD SLOAD SUB PUSH2 0x57F6 JUMPI PUSH1 0x40 MLOAD PUSH32 0x8C379A000000000000000000000000000000000000000000000000000000000 DUP2 MSTORE PUSH1 0x4 ADD PUSH2 0x57ED SWAP1 PUSH2 0x8294 JUMP JUMPDEST PUSH1 0x40 MLOAD DUP1 SWAP2 SUB SWAP1 REVERT JUMPDEST PUSH2 0x580A PUSH8 0x24AF5E47DD5E209B PUSH1 0xC0 SHL PUSH2 0x5223 JUMP JUMPDEST PUSH2 0x581E PUSH8 0xB5B158CD02C2FB4B PUSH1 0xC0 SHL PUSH2 0x5223 JUMP JUMPDEST PUSH2 0x5832 PUSH8 0xA1EA6A203D9B8925 PUSH1 0xC0 SHL PUSH2 0x5223 JUMP JUMPDEST PUSH1 0x1 PUSH1 0x0 DUP6 DUP2 MSTORE PUSH1 0x20 ADD SWAP1 DUP2 MSTORE PUSH1 0x20 ADD PUSH1 0x0 KECCAK256 PUSH1 0x1 ADD PUSH1 0x40 MLOAD PUSH1 0x20 ADD PUSH2 0x5858 SWAP2 SWAP1 PUSH2 0x8337 JUMP JUMPDEST PUSH1 0x40 MLOAD PUSH1 0x20 DUP2 DUP4 SUB SUB DUP2 MSTORE SWAP1 PUSH1 0x40 MSTORE DUP1 MLOAD SWAP1 PUSH1 0x20 ADD KECCAK256 DUP4 PUSH1 0x40 MLOAD PUSH1 0x20 ADD PUSH2 0x587F SWAP2 SWAP1 PUSH2 0x834E JUMP JUMPDEST PUSH1 0x40 MLOAD PUSH1 0x20 DUP2 DUP4 SUB SUB DUP2 MSTORE SWAP1 PUSH1 0x40 MSTORE DUP1 MLOAD SWAP1 PUSH1 0x20 ADD KECCAK256 EQ ISZERO DUP1 ISZERO PUSH2 0x58ED JUMPI POP PUSH1 0x40 MLOAD PUSH1 0x20 ADD PUSH2 0x58AD SWAP1 PUSH2 0x838B JUMP JUMPDEST PUSH1 0x40 MLOAD PUSH1 0x20 DUP2 DUP4 SUB SUB DUP2 MSTORE SWAP1 PUSH1 0x40 MSTORE DUP1 MLOAD SWAP1 PUSH1 0x20 ADD KECCAK256 DUP4 PUSH1 0x40 MLOAD PUSH1 0x20 ADD PUSH2 0x58D4 SWAP2 SWAP1 PUSH2 0x834E JUMP JUMPDEST PUSH1 0x40 MLOAD PUSH1 0x20 DUP2 DUP4 SUB SUB DUP2 MSTORE SWAP1 PUSH1 0x40 MSTORE DUP1 MLOAD SWAP1 PUSH1 0x20 ADD KECCAK256 EQ ISZERO JUMPDEST ISZERO PUSH2 0x5943 JUMPI PUSH2 0x5906 PUSH8 0x5AC7E0755718F338 PUSH1 0xC0 SHL PUSH2 0x5223 JUMP JUMPDEST PUSH2 0x591A PUSH8 0x404365A798C3BEE PUSH1 0xC0 SHL PUSH2 0x5223 JUMP JUMPDEST DUP3 PUSH1 0x1 PUSH1 0x0 DUP7 DUP2 MSTORE PUSH1 0x20 ADD SWAP1 DUP2 MSTORE PUSH1 0x20 ADD PUSH1 0x0 KECCAK256 PUSH1 0x1 ADD SWAP1 DUP2 PUSH2 0x593D SWAP2 SWAP1 PUSH2 0x7ECE JUMP JUMPDEST POP PUSH2 0x5958 JUMP JUMPDEST PUSH2 0x5957 PUSH8 0x8F52EF164F305571 PUSH1 0xC0 SHL PUSH2 0x5223 JUMP JUMPDEST JUMPDEST PUSH2 0x596C PUSH8 0x96E591CC4057D141 PUSH1 0xC0 SHL PUSH2 0x5223 JUMP JUMPDEST PUSH2 0x5980 PUSH8 0x8507B1A7ED5D4AF PUSH1 0xC0 SHL PUSH2 0x5223 JUMP JUMPDEST PUSH1 0x1 PUSH1 0x0 DUP6 DUP2 MSTORE PUSH1 0x20 ADD SWAP1 DUP2 MSTORE PUSH1 0x20 ADD PUSH1 0x0 KECCAK256 PUSH1 0x2 ADD PUSH1 0x40 MLOAD PUSH1 0x20 ADD PUSH2 0x59A6 SWAP2 SWAP1 PUSH2 0x8337 JUMP JUMPDEST PUSH1 0x40 MLOAD PUSH1 0x20 DUP2 DUP4 SUB SUB DUP2 MSTORE SWAP1 PUSH1 0x40 MSTORE DUP1 MLOAD SWAP1 PUSH1 0x20 ADD KECCAK256 DUP3 PUSH1 0x40 MLOAD PUSH1 0x20 ADD PUSH2 0x59CD SWAP2 SWAP1 PUSH2 0x834E JUMP JUMPDEST PUSH1 0x40 MLOAD PUSH1 0x20 DUP2 DUP4 SUB SUB DUP2 MSTORE SWAP1 PUSH1 0x40 MSTORE DUP1 MLOAD SWAP1 PUSH1 0x20 ADD KECCAK256 EQ ISZERO DUP1 ISZERO PUSH2 0x5A3B JUMPI POP PUSH1 0x40 MLOAD PUSH1 0x20 ADD PUSH2 0x59FB SWAP1 PUSH2 0x838B JUMP JUMPDEST PUSH1 0x40 MLOAD PUSH1 0x20 DUP2 DUP4 SUB SUB DUP2 MSTORE SWAP1 PUSH1 0x40 MSTORE DUP1 MLOAD SWAP1 PUSH1 0x20 ADD KECCAK256 DUP3 PUSH1 0x40 MLOAD PUSH1 0x20 ADD PUSH2 0x5A22 SWAP2 SWAP1 PUSH2 0x834E JUMP JUMPDEST PUSH1 0x40 MLOAD PUSH1 0x20 DUP2 DUP4 SUB SUB DUP2 MSTORE SWAP1 PUSH1 0x40 MSTORE DUP1 MLOAD SWAP1 PUSH1 0x20 ADD KECCAK256 EQ ISZERO JUMPDEST ISZERO PUSH2 0x5A91 JUMPI PUSH2 0x5A54 PUSH8 0x559F3E42497B2325 PUSH1 0xC0 SHL PUSH2 0x5223 JUMP JUMPDEST PUSH2 0x5A68 PUSH8 0x28097C31405AE1F3 PUSH1 0xC0 SHL PUSH2 0x5223 JUMP JUMPDEST DUP2 PUSH1 0x1 PUSH1 0x0 DUP7 DUP2 MSTORE PUSH1 0x20 ADD SWAP1 DUP2 MSTORE PUSH1 0x20 ADD PUSH1 0x0 KECCAK256 PUSH1 0x2 ADD SWAP1 DUP2 PUSH2 0x5A8B SWAP2 SWAP1 PUSH2 0x7ECE JUMP JUMPDEST POP PUSH2 0x5AA6 JUMP JUMPDEST PUSH2 0x5AA5 PUSH8 0x3C7B5FE1417D860B PUSH1 0xC0 SHL PUSH2 0x5223 JUMP JUMPDEST JUMPDEST PUSH2 0x5ABA PUSH8 0xC98D308DD86A644B PUSH1 0xC0 SHL PUSH2 0x5223 JUMP JUMPDEST PUSH2 0x5ACE PUSH8 0x8571E9A913979A01 PUSH1 0xC0 SHL PUSH2 0x5223 JUMP JUMPDEST PUSH1 0x1 PUSH1 0x0 DUP6 DUP2 MSTORE PUSH1 0x20 ADD SWAP1 DUP2 MSTORE PUSH1 0x20 ADD PUSH1 0x0 KECCAK256 PUSH1 0x3 ADD SLOAD DUP2 EQ ISZERO DUP1 ISZERO PUSH2 0x5AF5 JUMPI POP PUSH1 0x0 DUP2 EQ ISZERO JUMPDEST ISZERO PUSH2 0x5B42 JUMPI PUSH2 0x5B0E PUSH8 0xD9F02E438EEB9BDB PUSH1 0xC0 SHL PUSH2 0x5223 JUMP JUMPDEST PUSH2 0x5B22 PUSH8 0xFC1CCF2C3E5A43D PUSH1 0xC0 SHL PUSH2 0x5223 JUMP JUMPDEST DUP1 PUSH1 0x1 PUSH1 0x0 DUP7 DUP2 MSTORE PUSH1 0x20 ADD SWAP1 DUP2 MSTORE PUSH1 0x20 ADD PUSH1 0x0 KECCAK256 PUSH1 0x3 ADD DUP2 SWAP1 SSTORE POP PUSH2 0x5B57 JUMP JUMPDEST PUSH2 0x5B56 PUSH8 0x120CA5C9CEBEBFB8 PUSH1 0xC0 SHL PUSH2 0x5223 JUMP JUMPDEST JUMPDEST PUSH2 0x5B6B PUSH8 0x2CA296637AA2CA04 PUSH1 0xC0 SHL PUSH2 0x5223 JUMP JUMPDEST PUSH2 0x5B7F PUSH8 0x6578DFBDE5BCA096 PUSH1 0xC0 SHL PUSH2 0x5223 JUMP JUMPDEST PUSH32 0x3E10A3F40E9AF2A5E61CB5A3DE55FD67286470C35B3CF345B04A83CF3F49077 DUP5 DUP5 DUP5 DUP5 PUSH1 0x40 MLOAD PUSH2 0x5BB4 SWAP5 SWAP4 SWAP3 SWAP2 SWAP1 PUSH2 0x6269 JUMP JUMPDEST PUSH1 0x40 MLOAD DUP1 SWAP2 SUB SWAP1 LOG1 POP POP POP POP JUMP JUMPDEST PUSH1 0x0 PUSH1 0x1 SWAP1 POP SWAP2 SWAP1 POP JUMP JUMPDEST PUSH2 0x5BD7 DUP3 DUP3 PUSH2 0x27BC JUMP JUMPDEST ISZERO PUSH2 0x5CAA JUMPI PUSH1 0x0 DUP1 PUSH1 0x0 DUP5 DUP2 MSTORE PUSH1 0x20 ADD SWAP1 DUP2 MSTORE PUSH1 0x20 ADD PUSH1 0x0 KECCAK256 PUSH1 0x0 ADD PUSH1 0x0 DUP4 PUSH20 0xFFFFFFFFFFFFFFFFFFFFFFFFFFFFFFFFFFFFFFFF AND PUSH20 0xFFFFFFFFFFFFFFFFFFFFFFFFFFFFFFFFFFFFFFFF AND DUP2 MSTORE PUSH1 0x20 ADD SWAP1 DUP2 MSTORE PUSH1 0x20 ADD PUSH1 0x0 KECCAK256 PUSH1 0x0 PUSH2 0x100 EXP DUP2 SLOAD DUP2 PUSH1 0xFF MUL NOT AND SWAP1 DUP4 ISZERO ISZERO MUL OR SWAP1 SSTORE POP PUSH2 0x5C4F PUSH2 0x5CB1 JUMP JUMPDEST PUSH20 0xFFFFFFFFFFFFFFFFFFFFFFFFFFFFFFFFFFFFFFFF AND DUP2 PUSH20 0xFFFFFFFFFFFFFFFFFFFFFFFFFFFFFFFFFFFFFFFF AND DUP4 PUSH32 0xF6391F5C32D9C69D2A47EA670B442974B53935D1EDC7FD64EB21E047A839171B PUSH1 0x40 MLOAD PUSH1 0x40 MLOAD DUP1 SWAP2 SUB SWAP1 LOG4 JUMPDEST POP POP JUMP JUMPDEST POP JUMP JUMPDEST PUSH1 0x0 CALLER SWAP1 POP SWAP1 JUMP JUMPDEST PUSH2 0x5CC3 DUP3 DUP3 PUSH2 0x27BC JUMP JUMPDEST PUSH2 0x5D3A JUMPI PUSH2 0x5CD0 DUP2 PUSH2 0x5D3E JUMP JUMPDEST PUSH2 0x5CDE DUP4 PUSH1 0x0 SHR PUSH1 0x20 PUSH2 0x5D6B JUMP JUMPDEST PUSH1 0x40 MLOAD PUSH1 0x20 ADD PUSH2 0x5CEF SWAP3 SWAP2 SWAP1 PUSH2 0x8438 JUMP JUMPDEST PUSH1 0x40 MLOAD PUSH1 0x20 DUP2 DUP4 SUB SUB DUP2 MSTORE SWAP1 PUSH1 0x40 MSTORE PUSH1 0x40 MLOAD PUSH32 0x8C379A000000000000000000000000000000000000000000000000000000000 DUP2 MSTORE PUSH1 0x4 ADD PUSH2 0x5D31 SWAP2 SWAP1 PUSH2 0x7022 JUMP JUMPDEST PUSH1 0x40 MLOAD DUP1 SWAP2 SUB SWAP1 REVERT JUMPDEST POP POP JUMP JUMPDEST PUSH1 0x60 PUSH2 0x5D64 DUP3 PUSH20 0xFFFFFFFFFFFFFFFFFFFFFFFFFFFFFFFFFFFFFFFF AND PUSH1 0x14 PUSH1 0xFF AND PUSH2 0x5D6B JUMP JUMPDEST SWAP1 POP SWAP2 SWAP1 POP JUMP JUMPDEST PUSH1 0x60 PUSH1 0x0 PUSH1 0x2 DUP4 PUSH1 0x2 PUSH2 0x5D7E SWAP2 SWAP1 PUSH2 0x8472 JUMP JUMPDEST PUSH2 0x5D88 SWAP2 SWAP1 PUSH2 0x7AA7 JUMP JUMPDEST PUSH8 0xFFFFFFFFFFFFFFFF DUP2 GT ISZERO PUSH2 0x5DA1 JUMPI PUSH2 0x5DA0 PUSH2 0x684C JUMP JUMPDEST JUMPDEST PUSH1 0x40 MLOAD SWAP1 DUP1 DUP3 MSTORE DUP1 PUSH1 0x1F ADD PUSH1 0x1F NOT AND PUSH1 0x20 ADD DUP3 ADD PUSH1 0x40 MSTORE DUP1 ISZERO PUSH2 0x5DD3 JUMPI DUP2 PUSH1 0x20 ADD PUSH1 0x1 DUP3 MUL DUP1 CALLDATASIZE DUP4 CALLDATACOPY DUP1 DUP3 ADD SWAP2 POP POP SWAP1 POP JUMPDEST POP SWAP1 POP PUSH32 0x3000000000000000000000000000000000000000000000000000000000000000 DUP2 PUSH1 0x0 DUP2 MLOAD DUP2 LT PUSH2 0x5E0B JUMPI PUSH2 0x5E0A PUSH2 0x80FC JUMP JUMPDEST JUMPDEST PUSH1 0x20 ADD ADD SWAP1 PUSH31 0xFFFFFFFFFFFFFFFFFFFFFFFFFFFFFFFFFFFFFFFFFFFFFFFFFFFFFFFFFFFFFF NOT AND SWAP1 DUP2 PUSH1 0x0 BYTE SWAP1 MSTORE8 POP PUSH32 0x7800000000000000000000000000000000000000000000000000000000000000 DUP2 PUSH1 0x1 DUP2 MLOAD DUP2 LT PUSH2 0x5E6F JUMPI PUSH2 0x5E6E PUSH2 0x80FC JUMP JUMPDEST JUMPDEST PUSH1 0x20 ADD ADD SWAP1 PUSH31 0xFFFFFFFFFFFFFFFFFFFFFFFFFFFFFFFFFFFFFFFFFFFFFFFFFFFFFFFFFFFFFF NOT AND SWAP1 DUP2 PUSH1 0x0 BYTE SWAP1 MSTORE8 POP PUSH1 0x0 PUSH1 0x1 DUP5 PUSH1 0x2 PUSH2 0x5EAF SWAP2 SWAP1 PUSH2 0x8472 JUMP JUMPDEST PUSH2 0x5EB9 SWAP2 SWAP1 PUSH2 0x7AA7 JUMP JUMPDEST SWAP1 POP JUMPDEST PUSH1 0x1 DUP2 GT ISZERO PUSH2 0x5F59 JUMPI PUSH32 0x3031323334353637383961626364656600000000000000000000000000000000 PUSH1 0xF DUP7 AND PUSH1 0x10 DUP2 LT PUSH2 0x5EFB JUMPI PUSH2 0x5EFA PUSH2 0x80FC JUMP JUMPDEST JUMPDEST BYTE PUSH1 0xF8 SHL DUP3 DUP3 DUP2 MLOAD DUP2 LT PUSH2 0x5F12 JUMPI PUSH2 0x5F11 PUSH2 0x80FC JUMP JUMPDEST JUMPDEST PUSH1 0x20 ADD ADD SWAP1 PUSH31 0xFFFFFFFFFFFFFFFFFFFFFFFFFFFFFFFFFFFFFFFFFFFFFFFFFFFFFFFFFFFFFF NOT AND SWAP1 DUP2 PUSH1 0x0 BYTE SWAP1 MSTORE8 POP PUSH1 0x4 DUP6 SWAP1 SHR SWAP5 POP DUP1 PUSH2 0x5F52 SWAP1 PUSH2 0x84B4 JUMP JUMPDEST SWAP1 POP PUSH2 0x5EBC JUMP JUMPDEST POP PUSH1 0x0 DUP5 EQ PUSH2 0x5F9D JUMPI PUSH1 0x40 MLOAD PUSH32 0x8C379A000000000000000000000000000000000000000000000000000000000 DUP2 MSTORE PUSH1 0x4 ADD PUSH2 0x5F94 SWAP1 PUSH2 0x8529 JUMP JUMPDEST PUSH1 0x40 MLOAD DUP1 SWAP2 SUB SWAP1 REVERT JUMPDEST DUP1 SWAP2 POP POP SWAP3 SWAP2 POP POP JUMP JUMPDEST PUSH1 0x40 MLOAD DUP1 PUSH1 0x80 ADD PUSH1 0x40 MSTORE DUP1 PUSH1 0x0 DUP2 MSTORE PUSH1 0x20 ADD PUSH1 0x60 DUP2 MSTORE PUSH1 0x20 ADD PUSH1 0x60 DUP2 MSTORE PUSH1 0x20 ADD PUSH1 0x0 DUP2 MSTORE POP SWAP1 JUMP JUMPDEST POP DUP1 SLOAD PUSH2 0x5FDB SWAP1 PUSH2 0x6E36 JUMP JUMPDEST PUSH1 0x0 DUP3 SSTORE DUP1 PUSH1 0x1F LT PUSH2 0x5FED JUMPI POP PUSH2 0x600C JUMP JUMPDEST PUSH1 0x1F ADD PUSH1 0x20 SWAP1 DIV SWAP1 PUSH1 0x0 MSTORE PUSH1 0x20 PUSH1 0x0 KECCAK256 SWAP1 DUP2 ADD SWAP1 PUSH2 0x600B SWAP2 SWAP1 PUSH2 0x600F JUMP JUMPDEST JUMPDEST POP JUMP JUMPDEST JUMPDEST DUP1 DUP3 GT ISZERO PUSH2 0x6028 JUMPI PUSH1 0x0 DUP2 PUSH1 0x0 SWAP1 SSTORE POP PUSH1 0x1 ADD PUSH2 0x6010 JUMP JUMPDEST POP SWAP1 JUMP JUMPDEST PUSH1 0x0 PUSH1 0x40 MLOAD SWAP1 POP SWAP1 JUMP JUMPDEST PUSH1 0x0 DUP1 REVERT JUMPDEST PUSH1 0x0 DUP1 REVERT JUMPDEST PUSH1 0x0 PUSH32 0xFFFFFFFF00000000000000000000000000000000000000000000000000000000 DUP3 AND SWAP1 POP SWAP2 SWAP1 POP JUMP JUMPDEST PUSH2 0x6075 DUP2 PUSH2 0x6040 JUMP JUMPDEST DUP2 EQ PUSH2 0x6080 JUMPI PUSH1 0x0 DUP1 REVERT JUMPDEST POP JUMP JUMPDEST PUSH1 0x0 DUP2 CALLDATALOAD SWAP1 POP PUSH2 0x6092 DUP2 PUSH2 0x606C JUMP JUMPDEST SWAP3 SWAP2 POP POP JUMP JUMPDEST PUSH1 0x0 PUSH1 0x20 DUP3 DUP5 SUB SLT ISZERO PUSH2 0x60AE JUMPI PUSH2 0x60AD PUSH2 0x6036 JUMP JUMPDEST JUMPDEST PUSH1 0x0 PUSH2 0x60BC DUP5 DUP3 DUP6 ADD PUSH2 0x6083 JUMP JUMPDEST SWAP2 POP POP SWAP3 SWAP2 POP POP JUMP JUMPDEST PUSH1 0x0 DUP2 ISZERO ISZERO SWAP1 POP SWAP2 SWAP1 POP JUMP JUMPDEST PUSH2 0x60DA DUP2 PUSH2 0x60C5 JUMP JUMPDEST DUP3 MSTORE POP POP JUMP JUMPDEST PUSH1 0x0 PUSH1 0x20 DUP3 ADD SWAP1 POP PUSH2 0x60F5 PUSH1 0x0 DUP4 ADD DUP5 PUSH2 0x60D1 JUMP JUMPDEST SWAP3 SWAP2 POP POP JUMP JUMPDEST PUSH1 0x0 DUP2 SWAP1 POP SWAP2 SWAP1 POP JUMP JUMPDEST PUSH2 0x610E DUP2 PUSH2 0x60FB JUMP JUMPDEST DUP2 EQ PUSH2 0x6119 JUMPI PUSH1 0x0 DUP1 REVERT JUMPDEST POP JUMP JUMPDEST PUSH1 0x0 DUP2 CALLDATALOAD SWAP1 POP PUSH2 0x612B DUP2 PUSH2 0x6105 JUMP JUMPDEST SWAP3 SWAP2 POP POP JUMP JUMPDEST PUSH2 0x613A DUP2 PUSH2 0x60C5 JUMP JUMPDEST DUP2 EQ PUSH2 0x6145 JUMPI PUSH1 0x0 DUP1 REVERT JUMPDEST POP JUMP JUMPDEST PUSH1 0x0 DUP2 CALLDATALOAD SWAP1 POP PUSH2 0x6157 DUP2 PUSH2 0x6131 JUMP JUMPDEST SWAP3 SWAP2 POP POP JUMP JUMPDEST PUSH1 0x0 DUP1 PUSH1 0x40 DUP4 DUP6 SUB SLT ISZERO PUSH2 0x6174 JUMPI PUSH2 0x6173 PUSH2 0x6036 JUMP JUMPDEST JUMPDEST PUSH1 0x0 PUSH2 0x6182 DUP6 DUP3 DUP7 ADD PUSH2 0x611C JUMP JUMPDEST SWAP3 POP POP PUSH1 0x20 PUSH2 0x6193 DUP6 DUP3 DUP7 ADD PUSH2 0x6148 JUMP JUMPDEST SWAP2 POP POP SWAP3 POP SWAP3 SWAP1 POP JUMP JUMPDEST PUSH1 0x0 PUSH1 0x20 DUP3 DUP5 SUB SLT ISZERO PUSH2 0x61B3 JUMPI PUSH2 0x61B2 PUSH2 0x6036 JUMP JUMPDEST JUMPDEST PUSH1 0x0 PUSH2 0x61C1 DUP5 DUP3 DUP6 ADD PUSH2 0x611C JUMP JUMPDEST SWAP2 POP POP SWAP3 SWAP2 POP POP JUMP JUMPDEST PUSH2 0x61D3 DUP2 PUSH2 0x60FB JUMP JUMPDEST DUP3 MSTORE POP POP JUMP JUMPDEST PUSH1 0x0 DUP2 MLOAD SWAP1 POP SWAP2 SWAP1 POP JUMP JUMPDEST PUSH1 0x0 DUP3 DUP3 MSTORE PUSH1 0x20 DUP3 ADD SWAP1 POP SWAP3 SWAP2 POP POP JUMP JUMPDEST PUSH1 0x0 JUMPDEST DUP4 DUP2 LT ISZERO PUSH2 0x6213 JUMPI DUP1 DUP3 ADD MLOAD DUP2 DUP5 ADD MSTORE PUSH1 0x20 DUP2 ADD SWAP1 POP PUSH2 0x61F8 JUMP JUMPDEST PUSH1 0x0 DUP5 DUP5 ADD MSTORE POP POP POP POP JUMP JUMPDEST PUSH1 0x0 PUSH1 0x1F NOT PUSH1 0x1F DUP4 ADD AND SWAP1 POP SWAP2 SWAP1 POP JUMP JUMPDEST PUSH1 0x0 PUSH2 0x623B DUP3 PUSH2 0x61D9 JUMP JUMPDEST PUSH2 0x6245 DUP2 DUP6 PUSH2 0x61E4 JUMP JUMPDEST SWAP4 POP PUSH2 0x6255 DUP2 DUP6 PUSH1 0x20 DUP7 ADD PUSH2 0x61F5 JUMP JUMPDEST PUSH2 0x625E DUP2 PUSH2 0x621F JUMP JUMPDEST DUP5 ADD SWAP2 POP POP SWAP3 SWAP2 POP POP JUMP JUMPDEST PUSH1 0x0 PUSH1 0x80 DUP3 ADD SWAP1 POP PUSH2 0x627E PUSH1 0x0 DUP4 ADD DUP8 PUSH2 0x61CA JUMP JUMPDEST DUP2 DUP2 SUB PUSH1 0x20 DUP4 ADD MSTORE PUSH2 0x6290 DUP2 DUP7 PUSH2 0x6230 JUMP JUMPDEST SWAP1 POP DUP2 DUP2 SUB PUSH1 0x40 DUP4 ADD MSTORE PUSH2 0x62A4 DUP2 DUP6 PUSH2 0x6230 JUMP JUMPDEST SWAP1 POP PUSH2 0x62B3 PUSH1 0x60 DUP4 ADD DUP5 PUSH2 0x61CA JUMP JUMPDEST SWAP6 SWAP5 POP POP POP POP POP JUMP JUMPDEST PUSH1 0x0 PUSH1 0xFF DUP3 AND SWAP1 POP SWAP2 SWAP1 POP JUMP JUMPDEST PUSH2 0x62D2 DUP2 PUSH2 0x62BC JUMP JUMPDEST DUP3 MSTORE POP POP JUMP JUMPDEST PUSH1 0x0 PUSH1 0x20 DUP3 ADD SWAP1 POP PUSH2 0x62ED PUSH1 0x0 DUP4 ADD DUP5 PUSH2 0x62C9 JUMP JUMPDEST SWAP3 SWAP2 POP POP JUMP JUMPDEST PUSH1 0x0 DUP2 SWAP1 POP SWAP2 SWAP1 POP JUMP JUMPDEST PUSH2 0x6306 DUP2 PUSH2 0x62F3 JUMP JUMPDEST DUP2 EQ PUSH2 0x6311 JUMPI PUSH1 0x0 DUP1 REVERT JUMPDEST POP JUMP JUMPDEST PUSH1 0x0 DUP2 CALLDATALOAD SWAP1 POP PUSH2 0x6323 DUP2 PUSH2 0x62FD JUMP JUMPDEST SWAP3 SWAP2 POP POP JUMP JUMPDEST PUSH1 0x0 PUSH1 0x20 DUP3 DUP5 SUB SLT ISZERO PUSH2 0x633F JUMPI PUSH2 0x633E PUSH2 0x6036 JUMP JUMPDEST JUMPDEST PUSH1 0x0 PUSH2 0x634D DUP5 DUP3 DUP6 ADD PUSH2 0x6314 JUMP JUMPDEST SWAP2 POP POP SWAP3 SWAP2 POP POP JUMP JUMPDEST PUSH2 0x635F DUP2 PUSH2 0x62F3 JUMP JUMPDEST DUP3 MSTORE POP POP JUMP JUMPDEST PUSH1 0x0 PUSH1 0xA0 DUP3 ADD SWAP1 POP PUSH2 0x637A PUSH1 0x0 DUP4 ADD DUP9 PUSH2 0x60D1 JUMP JUMPDEST PUSH2 0x6387 PUSH1 0x20 DUP4 ADD DUP8 PUSH2 0x6356 JUMP JUMPDEST PUSH2 0x6394 PUSH1 0x40 DUP4 ADD DUP7 PUSH2 0x62C9 JUMP JUMPDEST PUSH2 0x63A1 PUSH1 0x60 DUP4 ADD DUP6 PUSH2 0x62C9 JUMP JUMPDEST DUP2 DUP2 SUB PUSH1 0x80 DUP4 ADD MSTORE PUSH2 0x63B3 DUP2 DUP5 PUSH2 0x6230 JUMP JUMPDEST SWAP1 POP SWAP7 SWAP6 POP POP POP POP POP POP JUMP JUMPDEST PUSH1 0x0 PUSH1 0x20 DUP3 ADD SWAP1 POP PUSH2 0x63D4 PUSH1 0x0 DUP4 ADD DUP5 PUSH2 0x6356 JUMP JUMPDEST SWAP3 SWAP2 POP POP JUMP JUMPDEST PUSH1 0x0 PUSH20 0xFFFFFFFFFFFFFFFFFFFFFFFFFFFFFFFFFFFFFFFF DUP3 AND SWAP1 POP SWAP2 SWAP1 POP JUMP JUMPDEST PUSH1 0x0 PUSH2 0x6405 DUP3 PUSH2 0x63DA JUMP JUMPDEST SWAP1 POP SWAP2 SWAP1 POP JUMP JUMPDEST PUSH2 0x6415 DUP2 PUSH2 0x63FA JUMP JUMPDEST DUP2 EQ PUSH2 0x6420 JUMPI PUSH1 0x0 DUP1 REVERT JUMPDEST POP JUMP JUMPDEST PUSH1 0x0 DUP2 CALLDATALOAD SWAP1 POP PUSH2 0x6432 DUP2 PUSH2 0x640C JUMP JUMPDEST SWAP3 SWAP2 POP POP JUMP JUMPDEST PUSH1 0x0 DUP1 PUSH1 0x40 DUP4 DUP6 SUB SLT ISZERO PUSH2 0x644F JUMPI PUSH2 0x644E PUSH2 0x6036 JUMP JUMPDEST JUMPDEST PUSH1 0x0 PUSH2 0x645D DUP6 DUP3 DUP7 ADD PUSH2 0x6314 JUMP JUMPDEST SWAP3 POP POP PUSH1 0x20 PUSH2 0x646E DUP6 DUP3 DUP7 ADD PUSH2 0x6423 JUMP JUMPDEST SWAP2 POP POP SWAP3 POP SWAP3 SWAP1 POP JUMP JUMPDEST PUSH1 0x0 DUP1 PUSH1 0x40 DUP4 DUP6 SUB SLT ISZERO PUSH2 0x648F JUMPI PUSH2 0x648E PUSH2 0x6036 JUMP JUMPDEST JUMPDEST PUSH1 0x0 PUSH2 0x649D DUP6 DUP3 DUP7 ADD PUSH2 0x611C JUMP JUMPDEST SWAP3 POP POP PUSH1 0x20 PUSH2 0x64AE DUP6 DUP3 DUP7 ADD PUSH2 0x611C JUMP JUMPDEST SWAP2 POP POP SWAP3 POP SWAP3 SWAP1 POP JUMP JUMPDEST PUSH2 0x64C1 DUP2 PUSH2 0x60FB JUMP JUMPDEST DUP3 MSTORE POP POP JUMP JUMPDEST PUSH1 0x0 DUP3 DUP3 MSTORE PUSH1 0x20 DUP3 ADD SWAP1 POP SWAP3 SWAP2 POP POP JUMP JUMPDEST PUSH1 0x0 PUSH2 0x64E3 DUP3 PUSH2 0x61D9 JUMP JUMPDEST PUSH2 0x64ED DUP2 DUP6 PUSH2 0x64C7 JUMP JUMPDEST SWAP4 POP PUSH2 0x64FD DUP2 DUP6 PUSH1 0x20 DUP7 ADD PUSH2 0x61F5 JUMP JUMPDEST PUSH2 0x6506 DUP2 PUSH2 0x621F JUMP JUMPDEST DUP5 ADD SWAP2 POP POP SWAP3 SWAP2 POP POP JUMP JUMPDEST PUSH1 0x0 PUSH1 0x80 DUP4 ADD PUSH1 0x0 DUP4 ADD MLOAD PUSH2 0x6529 PUSH1 0x0 DUP7 ADD DUP3 PUSH2 0x64B8 JUMP JUMPDEST POP PUSH1 0x20 DUP4 ADD MLOAD DUP5 DUP3 SUB PUSH1 0x20 DUP7 ADD MSTORE PUSH2 0x6541 DUP3 DUP3 PUSH2 0x64D8 JUMP JUMPDEST SWAP2 POP POP PUSH1 0x40 DUP4 ADD MLOAD DUP5 DUP3 SUB PUSH1 0x40 DUP7 ADD MSTORE PUSH2 0x655B DUP3 DUP3 PUSH2 0x64D8 JUMP JUMPDEST SWAP2 POP POP PUSH1 0x60 DUP4 ADD MLOAD PUSH2 0x6570 PUSH1 0x60 DUP7 ADD DUP3 PUSH2 0x64B8 JUMP JUMPDEST POP DUP1 SWAP2 POP POP SWAP3 SWAP2 POP POP JUMP JUMPDEST PUSH1 0x0 PUSH1 0x20 DUP3 ADD SWAP1 POP DUP2 DUP2 SUB PUSH1 0x0 DUP4 ADD MSTORE PUSH2 0x6595 DUP2 DUP5 PUSH2 0x6511 JUMP JUMPDEST SWAP1 POP SWAP3 SWAP2 POP POP JUMP JUMPDEST PUSH1 0x0 DUP1 PUSH1 0x0 PUSH1 0x60 DUP5 DUP7 SUB SLT ISZERO PUSH2 0x65B6 JUMPI PUSH2 0x65B5 PUSH2 0x6036 JUMP JUMPDEST JUMPDEST PUSH1 0x0 PUSH2 0x65C4 DUP7 DUP3 DUP8 ADD PUSH2 0x6314 JUMP JUMPDEST SWAP4 POP POP PUSH1 0x20 PUSH2 0x65D5 DUP7 DUP3 DUP8 ADD PUSH2 0x6423 JUMP JUMPDEST SWAP3 POP POP PUSH1 0x40 PUSH2 0x65E6 DUP7 DUP3 DUP8 ADD PUSH2 0x6148 JUMP JUMPDEST SWAP2 POP POP SWAP3 POP SWAP3 POP SWAP3 JUMP JUMPDEST PUSH32 0x4E487B7100000000000000000000000000000000000000000000000000000000 PUSH1 0x0 MSTORE PUSH1 0x21 PUSH1 0x4 MSTORE PUSH1 0x24 PUSH1 0x0 REVERT JUMPDEST PUSH1 0x4 DUP2 LT PUSH2 0x6630 JUMPI PUSH2 0x662F PUSH2 0x65F0 JUMP JUMPDEST JUMPDEST POP JUMP JUMPDEST PUSH1 0x0 DUP2 SWAP1 POP PUSH2 0x6641 DUP3 PUSH2 0x661F JUMP JUMPDEST SWAP2 SWAP1 POP JUMP JUMPDEST PUSH1 0x0 PUSH2 0x6651 DUP3 PUSH2 0x6633 JUMP JUMPDEST SWAP1 POP SWAP2 SWAP1 POP JUMP JUMPDEST PUSH2 0x6661 DUP2 PUSH2 0x6646 JUMP JUMPDEST DUP3 MSTORE POP POP JUMP JUMPDEST PUSH1 0x3 DUP2 LT PUSH2 0x6678 JUMPI PUSH2 0x6677 PUSH2 0x65F0 JUMP JUMPDEST JUMPDEST POP JUMP JUMPDEST PUSH1 0x0 DUP2 SWAP1 POP PUSH2 0x6689 DUP3 PUSH2 0x6667 JUMP JUMPDEST SWAP2 SWAP1 POP JUMP JUMPDEST PUSH1 0x0 PUSH2 0x6699 DUP3 PUSH2 0x667B JUMP JUMPDEST SWAP1 POP SWAP2 SWAP1 POP JUMP JUMPDEST PUSH2 0x66A9 DUP2 PUSH2 0x668E JUMP JUMPDEST DUP3 MSTORE POP POP JUMP JUMPDEST PUSH1 0x10 DUP2 LT PUSH2 0x66C0 JUMPI PUSH2 0x66BF PUSH2 0x65F0 JUMP JUMPDEST JUMPDEST POP JUMP JUMPDEST PUSH1 0x0 DUP2 SWAP1 POP PUSH2 0x66D1 DUP3 PUSH2 0x66AF JUMP JUMPDEST SWAP2 SWAP1 POP JUMP JUMPDEST PUSH1 0x0 PUSH2 0x66E1 DUP3 PUSH2 0x66C3 JUMP JUMPDEST SWAP1 POP SWAP2 SWAP1 POP JUMP JUMPDEST PUSH2 0x66F1 DUP2 PUSH2 0x66D6 JUMP JUMPDEST DUP3 MSTORE POP POP JUMP JUMPDEST PUSH1 0x0 PUSH1 0xC0 DUP3 ADD SWAP1 POP PUSH2 0x670C PUSH1 0x0 DUP4 ADD DUP10 PUSH2 0x6658 JUMP JUMPDEST PUSH2 0x6719 PUSH1 0x20 DUP4 ADD DUP9 PUSH2 0x66A0 JUMP JUMPDEST PUSH2 0x6726 PUSH1 0x40 DUP4 ADD DUP8 PUSH2 0x66E8 JUMP JUMPDEST PUSH2 0x6733 PUSH1 0x60 DUP4 ADD DUP7 PUSH2 0x61CA JUMP JUMPDEST PUSH2 0x6740 PUSH1 0x80 DUP4 ADD DUP6 PUSH2 0x60D1 JUMP JUMPDEST PUSH2 0x674D PUSH1 0xA0 DUP4 ADD DUP5 PUSH2 0x61CA JUMP JUMPDEST SWAP8 SWAP7 POP POP POP POP POP POP POP JUMP JUMPDEST PUSH1 0x4 DUP2 LT PUSH2 0x6765 JUMPI PUSH1 0x0 DUP1 REVERT JUMPDEST POP JUMP JUMPDEST PUSH1 0x0 DUP2 CALLDATALOAD SWAP1 POP PUSH2 0x6777 DUP2 PUSH2 0x6758 JUMP JUMPDEST SWAP3 SWAP2 POP POP JUMP JUMPDEST PUSH1 0x3 DUP2 LT PUSH2 0x678A JUMPI PUSH1 0x0 DUP1 REVERT JUMPDEST POP JUMP JUMPDEST PUSH1 0x0 DUP2 CALLDATALOAD SWAP1 POP PUSH2 0x679C DUP2 PUSH2 0x677D JUMP JUMPDEST SWAP3 SWAP2 POP POP JUMP JUMPDEST PUSH1 0x10 DUP2 LT PUSH2 0x67AF JUMPI PUSH1 0x0 DUP1 REVERT JUMPDEST POP JUMP JUMPDEST PUSH1 0x0 DUP2 CALLDATALOAD SWAP1 POP PUSH2 0x67C1 DUP2 PUSH2 0x67A2 JUMP JUMPDEST SWAP3 SWAP2 POP POP JUMP JUMPDEST PUSH1 0x0 DUP1 PUSH1 0x0 DUP1 PUSH1 0x0 PUSH1 0xA0 DUP7 DUP9 SUB SLT ISZERO PUSH2 0x67E3 JUMPI PUSH2 0x67E2 PUSH2 0x6036 JUMP JUMPDEST JUMPDEST PUSH1 0x0 PUSH2 0x67F1 DUP9 DUP3 DUP10 ADD PUSH2 0x611C JUMP JUMPDEST SWAP6 POP POP PUSH1 0x20 PUSH2 0x6802 DUP9 DUP3 DUP10 ADD PUSH2 0x6768 JUMP JUMPDEST SWAP5 POP POP PUSH1 0x40 PUSH2 0x6813 DUP9 DUP3 DUP10 ADD PUSH2 0x678D JUMP JUMPDEST SWAP4 POP POP PUSH1 0x60 PUSH2 0x6824 DUP9 DUP3 DUP10 ADD PUSH2 0x67B2 JUMP JUMPDEST SWAP3 POP POP PUSH1 0x80 PUSH2 0x6835 DUP9 DUP3 DUP10 ADD PUSH2 0x6148 JUMP JUMPDEST SWAP2 POP POP SWAP3 SWAP6 POP SWAP3 SWAP6 SWAP1 SWAP4 POP JUMP JUMPDEST PUSH1 0x0 DUP1 REVERT JUMPDEST PUSH1 0x0 DUP1 REVERT JUMPDEST PUSH32 0x4E487B7100000000000000000000000000000000000000000000000000000000 PUSH1 0x0 MSTORE PUSH1 0x41 PUSH1 0x4 MSTORE PUSH1 0x24 PUSH1 0x0 REVERT JUMPDEST PUSH2 0x6884 DUP3 PUSH2 0x621F JUMP JUMPDEST DUP2 ADD DUP2 DUP2 LT PUSH8 0xFFFFFFFFFFFFFFFF DUP3 GT OR ISZERO PUSH2 0x68A3 JUMPI PUSH2 0x68A2 PUSH2 0x684C JUMP JUMPDEST JUMPDEST DUP1 PUSH1 0x40 MSTORE POP POP POP JUMP JUMPDEST PUSH1 0x0 PUSH2 0x68B6 PUSH2 0x602C JUMP JUMPDEST SWAP1 POP PUSH2 0x68C2 DUP3 DUP3 PUSH2 0x687B JUMP JUMPDEST SWAP2 SWAP1 POP JUMP JUMPDEST PUSH1 0x0 PUSH8 0xFFFFFFFFFFFFFFFF DUP3 GT ISZERO PUSH2 0x68E2 JUMPI PUSH2 0x68E1 PUSH2 0x684C JUMP JUMPDEST JUMPDEST PUSH2 0x68EB DUP3 PUSH2 0x621F JUMP JUMPDEST SWAP1 POP PUSH1 0x20 DUP2 ADD SWAP1 POP SWAP2 SWAP1 POP JUMP JUMPDEST DUP3 DUP2 DUP4 CALLDATACOPY PUSH1 0x0 DUP4 DUP4 ADD MSTORE POP POP POP JUMP JUMPDEST PUSH1 0x0 PUSH2 0x691A PUSH2 0x6915 DUP5 PUSH2 0x68C7 JUMP JUMPDEST PUSH2 0x68AC JUMP JUMPDEST SWAP1 POP DUP3 DUP2 MSTORE PUSH1 0x20 DUP2 ADD DUP5 DUP5 DUP5 ADD GT ISZERO PUSH2 0x6936 JUMPI PUSH2 0x6935 PUSH2 0x6847 JUMP JUMPDEST JUMPDEST PUSH2 0x6941 DUP5 DUP3 DUP6 PUSH2 0x68F8 JUMP JUMPDEST POP SWAP4 SWAP3 POP POP POP JUMP JUMPDEST PUSH1 0x0 DUP3 PUSH1 0x1F DUP4 ADD SLT PUSH2 0x695E JUMPI PUSH2 0x695D PUSH2 0x6842 JUMP JUMPDEST JUMPDEST DUP2 CALLDATALOAD PUSH2 0x696E DUP5 DUP3 PUSH1 0x20 DUP7 ADD PUSH2 0x6907 JUMP JUMPDEST SWAP2 POP POP SWAP3 SWAP2 POP POP JUMP JUMPDEST PUSH1 0x0 DUP1 PUSH1 0x0 DUP1 PUSH1 0x80 DUP6 DUP8 SUB SLT ISZERO PUSH2 0x6991 JUMPI PUSH2 0x6990 PUSH2 0x6036 JUMP JUMPDEST JUMPDEST PUSH1 0x0 PUSH2 0x699F DUP8 DUP3 DUP9 ADD PUSH2 0x611C JUMP JUMPDEST SWAP5 POP POP PUSH1 0x20 DUP6 ADD CALLDATALOAD PUSH8 0xFFFFFFFFFFFFFFFF DUP2 GT ISZERO PUSH2 0x69C0 JUMPI PUSH2 0x69BF PUSH2 0x603B JUMP JUMPDEST JUMPDEST PUSH2 0x69CC DUP8 DUP3 DUP9 ADD PUSH2 0x6949 JUMP JUMPDEST SWAP4 POP POP PUSH1 0x40 DUP6 ADD CALLDATALOAD PUSH8 0xFFFFFFFFFFFFFFFF DUP2 GT ISZERO PUSH2 0x69ED JUMPI PUSH2 0x69EC PUSH2 0x603B JUMP JUMPDEST JUMPDEST PUSH2 0x69F9 DUP8 DUP3 DUP9 ADD PUSH2 0x6949 JUMP JUMPDEST SWAP3 POP POP PUSH1 0x60 PUSH2 0x6A0A DUP8 DUP3 DUP9 ADD PUSH2 0x611C JUMP JUMPDEST SWAP2 POP POP SWAP3 SWAP6 SWAP2 SWAP5 POP SWAP3 POP JUMP JUMPDEST PUSH1 0x0 PUSH1 0x20 DUP3 ADD SWAP1 POP PUSH2 0x6A2B PUSH1 0x0 DUP4 ADD DUP5 PUSH2 0x61CA JUMP JUMPDEST SWAP3 SWAP2 POP POP JUMP JUMPDEST PUSH1 0x0 DUP2 MLOAD SWAP1 POP SWAP2 SWAP1 POP JUMP JUMPDEST PUSH1 0x0 DUP3 DUP3 MSTORE PUSH1 0x20 DUP3 ADD SWAP1 POP SWAP3 SWAP2 POP POP JUMP JUMPDEST PUSH1 0x0 DUP2 SWAP1 POP PUSH1 0x20 DUP3 ADD SWAP1 POP SWAP2 SWAP1 POP JUMP JUMPDEST PUSH2 0x6A66 DUP2 PUSH2 0x62F3 JUMP JUMPDEST DUP3 MSTORE POP POP JUMP JUMPDEST PUSH1 0x0 PUSH2 0x6A78 DUP4 DUP4 PUSH2 0x6A5D JUMP JUMPDEST PUSH1 0x20 DUP4 ADD SWAP1 POP SWAP3 SWAP2 POP POP JUMP JUMPDEST PUSH1 0x0 PUSH1 0x20 DUP3 ADD SWAP1 POP SWAP2 SWAP1 POP JUMP JUMPDEST PUSH1 0x0 PUSH2 0x6A9C DUP3 PUSH2 0x6A31 JUMP JUMPDEST PUSH2 0x6AA6 DUP2 DUP6 PUSH2 0x6A3C JUMP JUMPDEST SWAP4 POP PUSH2 0x6AB1 DUP4 PUSH2 0x6A4D JUMP JUMPDEST DUP1 PUSH1 0x0 JUMPDEST DUP4 DUP2 LT ISZERO PUSH2 0x6AE2 JUMPI DUP2 MLOAD PUSH2 0x6AC9 DUP9 DUP3 PUSH2 0x6A6C JUMP JUMPDEST SWAP8 POP PUSH2 0x6AD4 DUP4 PUSH2 0x6A84 JUMP JUMPDEST SWAP3 POP POP PUSH1 0x1 DUP2 ADD SWAP1 POP PUSH2 0x6AB5 JUMP JUMPDEST POP DUP6 SWAP4 POP POP POP POP SWAP3 SWAP2 POP POP JUMP JUMPDEST PUSH1 0x0 PUSH1 0x20 DUP3 ADD SWAP1 POP DUP2 DUP2 SUB PUSH1 0x0 DUP4 ADD MSTORE PUSH2 0x6B09 DUP2 DUP5 PUSH2 0x6A91 JUMP JUMPDEST SWAP1 POP SWAP3 SWAP2 POP POP JUMP JUMPDEST PUSH32 0x43616C6C6572206973206E6F7420612063657274696669657200000000000000 PUSH1 0x0 DUP3 ADD MSTORE POP JUMP JUMPDEST PUSH1 0x0 PUSH2 0x6B47 PUSH1 0x19 DUP4 PUSH2 0x61E4 JUMP JUMPDEST SWAP2 POP PUSH2 0x6B52 DUP3 PUSH2 0x6B11 JUMP JUMPDEST PUSH1 0x20 DUP3 ADD SWAP1 POP SWAP2 SWAP1 POP JUMP JUMPDEST PUSH1 0x0 PUSH1 0x20 DUP3 ADD SWAP1 POP DUP2 DUP2 SUB PUSH1 0x0 DUP4 ADD MSTORE PUSH2 0x6B76 DUP2 PUSH2 0x6B3A JUMP JUMPDEST SWAP1 POP SWAP2 SWAP1 POP JUMP JUMPDEST PUSH32 0x4964206D7573742062652067726561746572207468616E203000000000000000 PUSH1 0x0 DUP3 ADD MSTORE POP JUMP JUMPDEST PUSH1 0x0 PUSH2 0x6BB3 PUSH1 0x19 DUP4 PUSH2 0x61E4 JUMP JUMPDEST SWAP2 POP PUSH2 0x6BBE DUP3 PUSH2 0x6B7D JUMP JUMPDEST PUSH1 0x20 DUP3 ADD SWAP1 POP SWAP2 SWAP1 POP JUMP JUMPDEST PUSH1 0x0 PUSH1 0x20 DUP3 ADD SWAP1 POP DUP2 DUP2 SUB PUSH1 0x0 DUP4 ADD MSTORE PUSH2 0x6BE2 DUP2 PUSH2 0x6BA6 JUMP JUMPDEST SWAP1 POP SWAP2 SWAP1 POP JUMP JUMPDEST PUSH32 0x546869732073747564656E7420646F65736E2774206578697374000000000000 PUSH1 0x0 DUP3 ADD MSTORE POP JUMP JUMPDEST PUSH1 0x0 PUSH2 0x6C1F PUSH1 0x1A DUP4 PUSH2 0x61E4 JUMP JUMPDEST SWAP2 POP PUSH2 0x6C2A DUP3 PUSH2 0x6BE9 JUMP JUMPDEST PUSH1 0x20 DUP3 ADD SWAP1 POP SWAP2 SWAP1 POP JUMP JUMPDEST PUSH1 0x0 PUSH1 0x20 DUP3 ADD SWAP1 POP DUP2 DUP2 SUB PUSH1 0x0 DUP4 ADD MSTORE PUSH2 0x6C4E DUP2 PUSH2 0x6C12 JUMP JUMPDEST SWAP1 POP SWAP2 SWAP1 POP JUMP JUMPDEST PUSH1 0x0 DUP2 SWAP1 POP SWAP2 SWAP1 POP JUMP JUMPDEST PUSH2 0x6C70 PUSH2 0x6C6B DUP3 PUSH2 0x60FB JUMP JUMPDEST PUSH2 0x6C55 JUMP JUMPDEST DUP3 MSTORE POP POP JUMP JUMPDEST PUSH1 0x0 DUP2 SWAP1 POP SWAP3 SWAP2 POP POP JUMP JUMPDEST PUSH32 0x44454C4554452053545544454E54000000000000000000000000000000000000 PUSH1 0x0 DUP3 ADD MSTORE POP JUMP JUMPDEST PUSH1 0x0 PUSH2 0x6CB7 PUSH1 0xE DUP4 PUSH2 0x6C76 JUMP JUMPDEST SWAP2 POP PUSH2 0x6CC2 DUP3 PUSH2 0x6C81 JUMP JUMPDEST PUSH1 0xE DUP3 ADD SWAP1 POP SWAP2 SWAP1 POP JUMP JUMPDEST PUSH1 0x0 PUSH2 0x6CD9 DUP3 DUP5 PUSH2 0x6C5F JUMP JUMPDEST PUSH1 0x20 DUP3 ADD SWAP2 POP PUSH2 0x6CE8 DUP3 PUSH2 0x6CAA JUMP JUMPDEST SWAP2 POP DUP2 SWAP1 POP SWAP3 SWAP2 POP POP JUMP JUMPDEST PUSH1 0x0 PUSH2 0x6CFF DUP3 DUP5 PUSH2 0x6C5F JUMP JUMPDEST PUSH1 0x20 DUP3 ADD SWAP2 POP DUP2 SWAP1 POP SWAP3 SWAP2 POP POP JUMP JUMPDEST PUSH32 0x44656C6574652073747564656E74200000000000000000000000000000000000 DUP2 MSTORE POP JUMP JUMPDEST PUSH1 0x0 PUSH2 0x6D3F DUP3 PUSH2 0x61D9 JUMP JUMPDEST PUSH2 0x6D49 DUP2 DUP6 PUSH2 0x6C76 JUMP JUMPDEST SWAP4 POP PUSH2 0x6D59 DUP2 DUP6 PUSH1 0x20 DUP7 ADD PUSH2 0x61F5 JUMP JUMPDEST DUP1 DUP5 ADD SWAP2 POP POP SWAP3 SWAP2 POP POP JUMP JUMPDEST PUSH1 0x0 PUSH2 0x6D70 DUP3 PUSH2 0x6D0E JUMP JUMPDEST PUSH1 0xF DUP3 ADD SWAP2 POP PUSH2 0x6D80 DUP3 DUP5 PUSH2 0x6D34 JUMP JUMPDEST SWAP2 POP DUP2 SWAP1 POP SWAP3 SWAP2 POP POP JUMP JUMPDEST PUSH1 0x0 PUSH4 0xFFFFFFFF DUP3 AND SWAP1 POP SWAP2 SWAP1 POP JUMP JUMPDEST PUSH32 0x4E487B7100000000000000000000000000000000000000000000000000000000 PUSH1 0x0 MSTORE PUSH1 0x11 PUSH1 0x4 MSTORE PUSH1 0x24 PUSH1 0x0 REVERT JUMPDEST PUSH1 0x0 PUSH2 0x6DD5 DUP3 PUSH2 0x6D8B JUMP JUMPDEST SWAP2 POP PUSH2 0x6DE0 DUP4 PUSH2 0x6D8B JUMP JUMPDEST SWAP3 POP DUP3 DUP3 MUL PUSH2 0x6DEE DUP2 PUSH2 0x6D8B JUMP JUMPDEST SWAP2 POP DUP1 DUP3 EQ PUSH2 0x6E00 JUMPI PUSH2 0x6DFF PUSH2 0x6D9B JUMP JUMPDEST JUMPDEST POP SWAP3 SWAP2 POP POP JUMP JUMPDEST PUSH32 0x4E487B7100000000000000000000000000000000000000000000000000000000 PUSH1 0x0 MSTORE PUSH1 0x22 PUSH1 0x4 MSTORE PUSH1 0x24 PUSH1 0x0 REVERT JUMPDEST PUSH1 0x0 PUSH1 0x2 DUP3 DIV SWAP1 POP PUSH1 0x1 DUP3 AND DUP1 PUSH2 0x6E4E JUMPI PUSH1 0x7F DUP3 AND SWAP2 POP JUMPDEST PUSH1 0x20 DUP3 LT DUP2 SUB PUSH2 0x6E61 JUMPI PUSH2 0x6E60 PUSH2 0x6E07 JUMP JUMPDEST JUMPDEST POP SWAP2 SWAP1 POP JUMP JUMPDEST PUSH32 0x596F752063616E27742072656E6F756E636520746F20796F757220726F6C652E PUSH1 0x0 DUP3 ADD MSTORE PUSH32 0x20506C6561736520636F6E746163742061646D696E7300000000000000000000 PUSH1 0x20 DUP3 ADD MSTORE POP JUMP JUMPDEST PUSH1 0x0 PUSH2 0x6EC3 PUSH1 0x36 DUP4 PUSH2 0x61E4 JUMP JUMPDEST SWAP2 POP PUSH2 0x6ECE DUP3 PUSH2 0x6E67 JUMP JUMPDEST PUSH1 0x40 DUP3 ADD SWAP1 POP SWAP2 SWAP1 POP JUMP JUMPDEST PUSH1 0x0 PUSH1 0x20 DUP3 ADD SWAP1 POP DUP2 DUP2 SUB PUSH1 0x0 DUP4 ADD MSTORE PUSH2 0x6EF2 DUP2 PUSH2 0x6EB6 JUMP JUMPDEST SWAP1 POP SWAP2 SWAP1 POP JUMP JUMPDEST PUSH32 0x53747564656E7420646F65736E27742065786973740000000000000000000000 PUSH1 0x0 DUP3 ADD MSTORE POP JUMP JUMPDEST PUSH1 0x0 PUSH2 0x6F2F PUSH1 0x15 DUP4 PUSH2 0x61E4 JUMP JUMPDEST SWAP2 POP PUSH2 0x6F3A DUP3 PUSH2 0x6EF9 JUMP JUMPDEST PUSH1 0x20 DUP3 ADD SWAP1 POP SWAP2 SWAP1 POP JUMP JUMPDEST PUSH1 0x0 PUSH1 0x20 DUP3 ADD SWAP1 POP DUP2 DUP2 SUB PUSH1 0x0 DUP4 ADD MSTORE PUSH2 0x6F5E DUP2 PUSH2 0x6F22 JUMP JUMPDEST SWAP1 POP SWAP2 SWAP1 POP JUMP JUMPDEST PUSH1 0x0 DUP2 SWAP1 POP SWAP2 SWAP1 POP JUMP JUMPDEST PUSH2 0x6F80 PUSH2 0x6F7B DUP3 PUSH2 0x62F3 JUMP JUMPDEST PUSH2 0x6F65 JUMP JUMPDEST DUP3 MSTORE POP POP JUMP JUMPDEST PUSH1 0x0 PUSH2 0x6F92 DUP3 DUP5 PUSH2 0x6F6F JUMP JUMPDEST PUSH1 0x20 DUP3 ADD SWAP2 POP DUP2 SWAP1 POP SWAP3 SWAP2 POP POP JUMP JUMPDEST PUSH32 0x4D61782000000000000000000000000000000000000000000000000000000000 DUP2 MSTORE POP JUMP JUMPDEST PUSH32 0x2072656163686564000000000000000000000000000000000000000000000000 DUP2 MSTORE POP JUMP JUMPDEST PUSH1 0x0 PUSH2 0x6FF8 DUP3 PUSH2 0x6FA1 JUMP JUMPDEST PUSH1 0x4 DUP3 ADD SWAP2 POP PUSH2 0x7008 DUP3 DUP5 PUSH2 0x6D34 JUMP JUMPDEST SWAP2 POP PUSH2 0x7013 DUP3 PUSH2 0x6FC7 JUMP JUMPDEST PUSH1 0x8 DUP3 ADD SWAP2 POP DUP2 SWAP1 POP SWAP3 SWAP2 POP POP JUMP JUMPDEST PUSH1 0x0 PUSH1 0x20 DUP3 ADD SWAP1 POP DUP2 DUP2 SUB PUSH1 0x0 DUP4 ADD MSTORE PUSH2 0x703C DUP2 DUP5 PUSH2 0x6230 JUMP JUMPDEST SWAP1 POP SWAP3 SWAP2 POP POP JUMP JUMPDEST PUSH32 0x43616C6C6572206973206E6F7420612000000000000000000000000000000000 DUP2 MSTORE POP JUMP JUMPDEST PUSH32 0x2061646D696E0000000000000000000000000000000000000000000000000000 DUP2 MSTORE POP JUMP JUMPDEST PUSH1 0x0 PUSH2 0x709B DUP3 PUSH2 0x7044 JUMP JUMPDEST PUSH1 0x10 DUP3 ADD SWAP2 POP PUSH2 0x70AB DUP3 DUP5 PUSH2 0x6D34 JUMP JUMPDEST SWAP2 POP PUSH2 0x70B6 DUP3 PUSH2 0x706A JUMP JUMPDEST PUSH1 0x6 DUP3 ADD SWAP2 POP DUP2 SWAP1 POP SWAP3 SWAP2 POP POP JUMP JUMPDEST PUSH32 0x54686973206164647265737320697320616C7265616479206120000000000000 DUP2 MSTORE POP JUMP JUMPDEST PUSH1 0x0 PUSH2 0x70F6 DUP3 PUSH2 0x70C5 JUMP JUMPDEST PUSH1 0x1A DUP3 ADD SWAP2 POP PUSH2 0x7106 DUP3 DUP5 PUSH2 0x6D34 JUMP JUMPDEST SWAP2 POP DUP2 SWAP1 POP SWAP3 SWAP2 POP POP JUMP JUMPDEST PUSH1 0x0 DUP2 PUSH1 0x60 SHL SWAP1 POP SWAP2 SWAP1 POP JUMP JUMPDEST PUSH1 0x0 PUSH2 0x7129 DUP3 PUSH2 0x7111 JUMP JUMPDEST SWAP1 POP SWAP2 SWAP1 POP JUMP JUMPDEST PUSH1 0x0 PUSH2 0x713B DUP3 PUSH2 0x711E JUMP JUMPDEST SWAP1 POP SWAP2 SWAP1 POP JUMP JUMPDEST PUSH2 0x7153 PUSH2 0x714E DUP3 PUSH2 0x63FA JUMP JUMPDEST PUSH2 0x7130 JUMP JUMPDEST DUP3 MSTORE POP POP JUMP JUMPDEST PUSH32 0x4752414E54000000000000000000000000000000000000000000000000000000 PUSH1 0x0 DUP3 ADD MSTORE POP JUMP JUMPDEST PUSH1 0x0 PUSH2 0x718F PUSH1 0x5 DUP4 PUSH2 0x6C76 JUMP JUMPDEST SWAP2 POP PUSH2 0x719A DUP3 PUSH2 0x7159 JUMP JUMPDEST PUSH1 0x5 DUP3 ADD SWAP1 POP SWAP2 SWAP1 POP JUMP JUMPDEST PUSH1 0x0 PUSH2 0x71B1 DUP3 DUP6 PUSH2 0x7142 JUMP JUMPDEST PUSH1 0x14 DUP3 ADD SWAP2 POP PUSH2 0x71C0 DUP3 PUSH2 0x7182 JUMP JUMPDEST SWAP2 POP PUSH2 0x71CC DUP3 DUP5 PUSH2 0x6F6F JUMP JUMPDEST PUSH1 0x20 DUP3 ADD SWAP2 POP DUP2 SWAP1 POP SWAP4 SWAP3 POP POP POP JUMP JUMPDEST PUSH1 0x0 PUSH2 0x71E8 DUP3 DUP5 PUSH2 0x7142 JUMP JUMPDEST PUSH1 0x14 DUP3 ADD SWAP2 POP DUP2 SWAP1 POP SWAP3 SWAP2 POP POP JUMP JUMPDEST PUSH32 0x4772616E74200000000000000000000000000000000000000000000000000000 DUP2 MSTORE POP JUMP JUMPDEST PUSH32 0x2000000000000000000000000000000000000000000000000000000000000000 DUP2 MSTORE POP JUMP JUMPDEST PUSH1 0x0 PUSH2 0x724E DUP3 PUSH2 0x71F7 JUMP JUMPDEST PUSH1 0x6 DUP3 ADD SWAP2 POP PUSH2 0x725E DUP3 DUP6 PUSH2 0x6D34 JUMP JUMPDEST SWAP2 POP PUSH2 0x7269 DUP3 PUSH2 0x721D JUMP JUMPDEST PUSH1 0x1 DUP3 ADD SWAP2 POP PUSH2 0x7279 DUP3 DUP5 PUSH2 0x6D34 JUMP JUMPDEST SWAP2 POP DUP2 SWAP1 POP SWAP4 SWAP3 POP POP POP JUMP JUMPDEST PUSH1 0x0 PUSH2 0x7290 DUP3 PUSH2 0x6D8B JUMP JUMPDEST SWAP2 POP PUSH2 0x729B DUP4 PUSH2 0x6D8B JUMP JUMPDEST SWAP3 POP DUP3 DUP3 ADD SWAP1 POP PUSH4 0xFFFFFFFF DUP2 GT ISZERO PUSH2 0x72B7 JUMPI PUSH2 0x72B6 PUSH2 0x6D9B JUMP JUMPDEST JUMPDEST SWAP3 SWAP2 POP POP JUMP JUMPDEST PUSH32 0x417070726563696174696F6E206973206E6F742076616C696400000000000000 PUSH1 0x0 DUP3 ADD MSTORE POP JUMP JUMPDEST PUSH1 0x0 PUSH2 0x72F3 PUSH1 0x19 DUP4 PUSH2 0x61E4 JUMP JUMPDEST SWAP2 POP PUSH2 0x72FE DUP3 PUSH2 0x72BD JUMP JUMPDEST PUSH1 0x20 DUP3 ADD SWAP1 POP SWAP2 SWAP1 POP JUMP JUMPDEST PUSH1 0x0 PUSH1 0x20 DUP3 ADD SWAP1 POP DUP2 DUP2 SUB PUSH1 0x0 DUP4 ADD MSTORE PUSH2 0x7322 DUP2 PUSH2 0x72E6 JUMP JUMPDEST SWAP1 POP SWAP2 SWAP1 POP JUMP JUMPDEST PUSH32 0x446567726565206973206E6F742076616C696400000000000000000000000000 PUSH1 0x0 DUP3 ADD MSTORE POP JUMP JUMPDEST PUSH1 0x0 PUSH2 0x735F PUSH1 0x13 DUP4 PUSH2 0x61E4 JUMP JUMPDEST SWAP2 POP PUSH2 0x736A DUP3 PUSH2 0x7329 JUMP JUMPDEST PUSH1 0x20 DUP3 ADD SWAP1 POP SWAP2 SWAP1 POP JUMP JUMPDEST PUSH1 0x0 PUSH1 0x20 DUP3 ADD SWAP1 POP DUP2 DUP2 SUB PUSH1 0x0 DUP4 ADD MSTORE PUSH2 0x738E DUP2 PUSH2 0x7352 JUMP JUMPDEST SWAP1 POP SWAP2 SWAP1 POP JUMP JUMPDEST PUSH32 0x50726F6772616D206973206E6F742076616C6964000000000000000000000000 PUSH1 0x0 DUP3 ADD MSTORE POP JUMP JUMPDEST PUSH1 0x0 PUSH2 0x73CB PUSH1 0x14 DUP4 PUSH2 0x61E4 JUMP JUMPDEST SWAP2 POP PUSH2 0x73D6 DUP3 PUSH2 0x7395 JUMP JUMPDEST PUSH1 0x20 DUP3 ADD SWAP1 POP SWAP2 SWAP1 POP JUMP JUMPDEST PUSH1 0x0 PUSH1 0x20 DUP3 ADD SWAP1 POP DUP2 DUP2 SUB PUSH1 0x0 DUP4 ADD MSTORE PUSH2 0x73FA DUP2 PUSH2 0x73BE JUMP JUMPDEST SWAP1 POP SWAP2 SWAP1 POP JUMP JUMPDEST PUSH1 0x0 DUP2 PUSH1 0xF8 SHL SWAP1 POP SWAP2 SWAP1 POP JUMP JUMPDEST PUSH1 0x0 PUSH2 0x7419 DUP3 PUSH2 0x7401 JUMP JUMPDEST SWAP1 POP SWAP2 SWAP1 POP JUMP JUMPDEST PUSH2 0x7431 PUSH2 0x742C DUP3 PUSH2 0x6646 JUMP JUMPDEST PUSH2 0x740E JUMP JUMPDEST DUP3 MSTORE POP POP JUMP JUMPDEST PUSH2 0x7448 PUSH2 0x7443 DUP3 PUSH2 0x668E JUMP JUMPDEST PUSH2 0x740E JUMP JUMPDEST DUP3 MSTORE POP POP JUMP JUMPDEST PUSH2 0x745F PUSH2 0x745A DUP3 PUSH2 0x66D6 JUMP JUMPDEST PUSH2 0x740E JUMP JUMPDEST DUP3 MSTORE POP POP JUMP JUMPDEST PUSH1 0x0 PUSH2 0x7471 DUP3 DUP8 PUSH2 0x6C5F JUMP JUMPDEST PUSH1 0x20 DUP3 ADD SWAP2 POP PUSH2 0x7481 DUP3 DUP7 PUSH2 0x7420 JUMP JUMPDEST PUSH1 0x1 DUP3 ADD SWAP2 POP PUSH2 0x7491 DUP3 DUP6 PUSH2 0x7437 JUMP JUMPDEST PUSH1 0x1 DUP3 ADD SWAP2 POP PUSH2 0x74A1 DUP3 DUP5 PUSH2 0x744E JUMP JUMPDEST PUSH1 0x1 DUP3 ADD SWAP2 POP DUP2 SWAP1 POP SWAP6 SWAP5 POP POP POP POP POP JUMP JUMPDEST PUSH32 0x5468697320636572746966696361746520646F65736E27742065786973740000 PUSH1 0x0 DUP3 ADD MSTORE POP JUMP JUMPDEST PUSH1 0x0 PUSH2 0x74E9 PUSH1 0x1E DUP4 PUSH2 0x61E4 JUMP JUMPDEST SWAP2 POP PUSH2 0x74F4 DUP3 PUSH2 0x74B3 JUMP JUMPDEST PUSH1 0x20 DUP3 ADD SWAP1 POP SWAP2 SWAP1 POP JUMP JUMPDEST PUSH1 0x0 PUSH1 0x20 DUP3 ADD SWAP1 POP DUP2 DUP2 SUB PUSH1 0x0 DUP4 ADD MSTORE PUSH2 0x7518 DUP2 PUSH2 0x74DC JUMP JUMPDEST SWAP1 POP SWAP2 SWAP1 POP JUMP JUMPDEST PUSH32 0x44454C4554450000000000000000000000000000000000000000000000000000 PUSH1 0x0 DUP3 ADD MSTORE POP JUMP JUMPDEST PUSH1 0x0 PUSH2 0x7555 PUSH1 0x6 DUP4 PUSH2 0x6C76 JUMP JUMPDEST SWAP2 POP PUSH2 0x7560 DUP3 PUSH2 0x751F JUMP JUMPDEST PUSH1 0x6 DUP3 ADD SWAP1 POP SWAP2 SWAP1 POP JUMP JUMPDEST PUSH1 0x0 PUSH2 0x7577 DUP3 DUP8 PUSH2 0x6C5F JUMP JUMPDEST PUSH1 0x20 DUP3 ADD SWAP2 POP PUSH2 0x7587 DUP3 DUP7 PUSH2 0x7420 JUMP JUMPDEST PUSH1 0x1 DUP3 ADD SWAP2 POP PUSH2 0x7597 DUP3 DUP6 PUSH2 0x7437 JUMP JUMPDEST PUSH1 0x1 DUP3 ADD SWAP2 POP PUSH2 0x75A7 DUP3 DUP5 PUSH2 0x744E JUMP JUMPDEST PUSH1 0x1 DUP3 ADD SWAP2 POP PUSH2 0x75B6 DUP3 PUSH2 0x7548 JUMP JUMPDEST SWAP2 POP DUP2 SWAP1 POP SWAP6 SWAP5 POP POP POP POP POP JUMP JUMPDEST PUSH1 0x0 PUSH2 0x75D0 DUP3 DUP5 PUSH2 0x7420 JUMP JUMPDEST PUSH1 0x1 DUP3 ADD SWAP2 POP DUP2 SWAP1 POP SWAP3 SWAP2 POP POP JUMP JUMPDEST PUSH1 0x0 PUSH2 0x75EB DUP3 DUP5 PUSH2 0x7437 JUMP JUMPDEST PUSH1 0x1 DUP3 ADD SWAP2 POP DUP2 SWAP1 POP SWAP3 SWAP2 POP POP JUMP JUMPDEST PUSH1 0x0 PUSH2 0x7606 DUP3 DUP5 PUSH2 0x744E JUMP JUMPDEST PUSH1 0x1 DUP3 ADD SWAP2 POP DUP2 SWAP1 POP SWAP3 SWAP2 POP POP JUMP JUMPDEST PUSH32 0x44656C6574652000000000000000000000000000000000000000000000000000 DUP2 MSTORE POP JUMP JUMPDEST PUSH1 0x0 PUSH2 0x7646 DUP3 PUSH2 0x7615 JUMP JUMPDEST PUSH1 0x7 DUP3 ADD SWAP2 POP PUSH2 0x7656 DUP3 DUP8 PUSH2 0x6D34 JUMP JUMPDEST SWAP2 POP PUSH2 0x7661 DUP3 PUSH2 0x721D JUMP JUMPDEST PUSH1 0x1 DUP3 ADD SWAP2 POP PUSH2 0x7671 DUP3 DUP7 PUSH2 0x6D34 JUMP JUMPDEST SWAP2 POP PUSH2 0x767C DUP3 PUSH2 0x721D JUMP JUMPDEST PUSH1 0x1 DUP3 ADD SWAP2 POP PUSH2 0x768C DUP3 DUP6 PUSH2 0x6D34 JUMP JUMPDEST SWAP2 POP PUSH2 0x7697 DUP3 PUSH2 0x721D JUMP JUMPDEST PUSH1 0x1 DUP3 ADD SWAP2 POP PUSH2 0x76A7 DUP3 DUP5 PUSH2 0x6D34 JUMP JUMPDEST SWAP2 POP DUP2 SWAP1 POP SWAP6 SWAP5 POP POP POP POP POP JUMP JUMPDEST PUSH32 0x46697273746E616D652063616E6E6F7420626520656D70747900000000000000 PUSH1 0x0 DUP3 ADD MSTORE POP JUMP JUMPDEST PUSH1 0x0 PUSH2 0x76EB PUSH1 0x19 DUP4 PUSH2 0x61E4 JUMP JUMPDEST SWAP2 POP PUSH2 0x76F6 DUP3 PUSH2 0x76B5 JUMP JUMPDEST PUSH1 0x20 DUP3 ADD SWAP1 POP SWAP2 SWAP1 POP JUMP JUMPDEST PUSH1 0x0 PUSH1 0x20 DUP3 ADD SWAP1 POP DUP2 DUP2 SUB PUSH1 0x0 DUP4 ADD MSTORE PUSH2 0x771A DUP2 PUSH2 0x76DE JUMP JUMPDEST SWAP1 POP SWAP2 SWAP1 POP JUMP JUMPDEST PUSH32 0x4C6173746E616D652063616E6E6F7420626520656D7074790000000000000000 PUSH1 0x0 DUP3 ADD MSTORE POP JUMP JUMPDEST PUSH1 0x0 PUSH2 0x7757 PUSH1 0x18 DUP4 PUSH2 0x61E4 JUMP JUMPDEST SWAP2 POP PUSH2 0x7762 DUP3 PUSH2 0x7721 JUMP JUMPDEST PUSH1 0x20 DUP3 ADD SWAP1 POP SWAP2 SWAP1 POP JUMP JUMPDEST PUSH1 0x0 PUSH1 0x20 DUP3 ADD SWAP1 POP DUP2 DUP2 SUB PUSH1 0x0 DUP4 ADD MSTORE PUSH2 0x7786 DUP2 PUSH2 0x774A JUMP JUMPDEST SWAP1 POP SWAP2 SWAP1 POP JUMP JUMPDEST PUSH32 0x426972746864617465206D7573742062652067726561746572207468616E2030 PUSH1 0x0 DUP3 ADD MSTORE POP JUMP JUMPDEST PUSH1 0x0 PUSH2 0x77C3 PUSH1 0x20 DUP4 PUSH2 0x61E4 JUMP JUMPDEST SWAP2 POP PUSH2 0x77CE DUP3 PUSH2 0x778D JUMP JUMPDEST PUSH1 0x20 DUP3 ADD SWAP1 POP SWAP2 SWAP1 POP JUMP JUMPDEST PUSH1 0x0 PUSH1 0x20 DUP3 ADD SWAP1 POP DUP2 DUP2 SUB PUSH1 0x0 DUP4 ADD MSTORE PUSH2 0x77F2 DUP2 PUSH2 0x77B6 JUMP JUMPDEST SWAP1 POP SWAP2 SWAP1 POP JUMP JUMPDEST PUSH32 0x546869732073747564656E7420616C7265616479206578697374730000000000 PUSH1 0x0 DUP3 ADD MSTORE POP JUMP JUMPDEST PUSH1 0x0 PUSH2 0x782F PUSH1 0x1B DUP4 PUSH2 0x61E4 JUMP JUMPDEST SWAP2 POP PUSH2 0x783A DUP3 PUSH2 0x77F9 JUMP JUMPDEST PUSH1 0x20 DUP3 ADD SWAP1 POP SWAP2 SWAP1 POP JUMP JUMPDEST PUSH1 0x0 PUSH1 0x20 DUP3 ADD SWAP1 POP DUP2 DUP2 SUB PUSH1 0x0 DUP4 ADD MSTORE PUSH2 0x785E DUP2 PUSH2 0x7822 JUMP JUMPDEST SWAP1 POP SWAP2 SWAP1 POP JUMP JUMPDEST PUSH32 0x5468697320636572746966696361746520616C72656164792065786973747300 PUSH1 0x0 DUP3 ADD MSTORE POP JUMP JUMPDEST PUSH1 0x0 PUSH2 0x789B PUSH1 0x1F DUP4 PUSH2 0x61E4 JUMP JUMPDEST SWAP2 POP PUSH2 0x78A6 DUP3 PUSH2 0x7865 JUMP JUMPDEST PUSH1 0x20 DUP3 ADD SWAP1 POP SWAP2 SWAP1 POP JUMP JUMPDEST PUSH1 0x0 PUSH1 0x20 DUP3 ADD SWAP1 POP DUP2 DUP2 SUB PUSH1 0x0 DUP4 ADD MSTORE PUSH2 0x78CA DUP2 PUSH2 0x788E JUMP JUMPDEST SWAP1 POP SWAP2 SWAP1 POP JUMP JUMPDEST PUSH32 0x4345525449465900000000000000000000000000000000000000000000000000 PUSH1 0x0 DUP3 ADD MSTORE POP JUMP JUMPDEST PUSH1 0x0 PUSH2 0x7907 PUSH1 0x7 DUP4 PUSH2 0x6C76 JUMP JUMPDEST SWAP2 POP PUSH2 0x7912 DUP3 PUSH2 0x78D1 JUMP JUMPDEST PUSH1 0x7 DUP3 ADD SWAP1 POP SWAP2 SWAP1 POP JUMP JUMPDEST PUSH1 0x0 PUSH2 0x7929 DUP3 DUP8 PUSH2 0x6C5F JUMP JUMPDEST PUSH1 0x20 DUP3 ADD SWAP2 POP PUSH2 0x7939 DUP3 DUP7 PUSH2 0x7420 JUMP JUMPDEST PUSH1 0x1 DUP3 ADD SWAP2 POP PUSH2 0x7949 DUP3 DUP6 PUSH2 0x7437 JUMP JUMPDEST PUSH1 0x1 DUP3 ADD SWAP2 POP PUSH2 0x7959 DUP3 DUP5 PUSH2 0x744E JUMP JUMPDEST PUSH1 0x1 DUP3 ADD SWAP2 POP PUSH2 0x7968 DUP3 PUSH2 0x78FA JUMP JUMPDEST SWAP2 POP DUP2 SWAP1 POP SWAP6 SWAP5 POP POP POP POP POP JUMP JUMPDEST PUSH32 0x4365727469667920000000000000000000000000000000000000000000000000 DUP2 MSTORE POP JUMP JUMPDEST PUSH1 0x0 PUSH2 0x79A7 DUP3 PUSH2 0x7976 JUMP JUMPDEST PUSH1 0x8 DUP3 ADD SWAP2 POP PUSH2 0x79B7 DUP3 DUP8 PUSH2 0x6D34 JUMP JUMPDEST SWAP2 POP PUSH2 0x79C2 DUP3 PUSH2 0x721D JUMP JUMPDEST PUSH1 0x1 DUP3 ADD SWAP2 POP PUSH2 0x79D2 DUP3 DUP7 PUSH2 0x6D34 JUMP JUMPDEST SWAP2 POP PUSH2 0x79DD DUP3 PUSH2 0x721D JUMP JUMPDEST PUSH1 0x1 DUP3 ADD SWAP2 POP PUSH2 0x79ED DUP3 DUP6 PUSH2 0x6D34 JUMP JUMPDEST SWAP2 POP PUSH2 0x79F8 DUP3 PUSH2 0x721D JUMP JUMPDEST PUSH1 0x1 DUP3 ADD SWAP2 POP PUSH2 0x7A08 DUP3 DUP5 PUSH2 0x6D34 JUMP JUMPDEST SWAP2 POP DUP2 SWAP1 POP SWAP6 SWAP5 POP POP POP POP POP JUMP JUMPDEST PUSH32 0x4E487B7100000000000000000000000000000000000000000000000000000000 PUSH1 0x0 MSTORE PUSH1 0x12 PUSH1 0x4 MSTORE PUSH1 0x24 PUSH1 0x0 REVERT JUMPDEST PUSH1 0x0 PUSH2 0x7A50 DUP3 PUSH2 0x60FB JUMP JUMPDEST SWAP2 POP PUSH2 0x7A5B DUP4 PUSH2 0x60FB JUMP JUMPDEST SWAP3 POP DUP3 PUSH2 0x7A6B JUMPI PUSH2 0x7A6A PUSH2 0x7A16 JUMP JUMPDEST JUMPDEST DUP3 DUP3 MOD SWAP1 POP SWAP3 SWAP2 POP POP JUMP JUMPDEST PUSH1 0x0 PUSH2 0x7A81 DUP3 PUSH2 0x60FB JUMP JUMPDEST SWAP2 POP PUSH2 0x7A8C DUP4 PUSH2 0x60FB JUMP JUMPDEST SWAP3 POP DUP3 PUSH2 0x7A9C JUMPI PUSH2 0x7A9B PUSH2 0x7A16 JUMP JUMPDEST JUMPDEST DUP3 DUP3 DIV SWAP1 POP SWAP3 SWAP2 POP POP JUMP JUMPDEST PUSH1 0x0 PUSH2 0x7AB2 DUP3 PUSH2 0x60FB JUMP JUMPDEST SWAP2 POP PUSH2 0x7ABD DUP4 PUSH2 0x60FB JUMP JUMPDEST SWAP3 POP DUP3 DUP3 ADD SWAP1 POP DUP1 DUP3 GT ISZERO PUSH2 0x7AD5 JUMPI PUSH2 0x7AD4 PUSH2 0x6D9B JUMP JUMPDEST JUMPDEST SWAP3 SWAP2 POP POP JUMP JUMPDEST PUSH32 0x4D696E2000000000000000000000000000000000000000000000000000000000 DUP2 MSTORE POP JUMP JUMPDEST PUSH1 0x0 PUSH2 0x7B0C DUP3 PUSH2 0x7ADB JUMP JUMPDEST PUSH1 0x4 DUP3 ADD SWAP2 POP PUSH2 0x7B1C DUP3 DUP5 PUSH2 0x6D34 JUMP JUMPDEST SWAP2 POP PUSH2 0x7B27 DUP3 PUSH2 0x6FC7 JUMP JUMPDEST PUSH1 0x8 DUP3 ADD SWAP2 POP DUP2 SWAP1 POP SWAP3 SWAP2 POP POP JUMP JUMPDEST PUSH32 0x546869732061646472657373206973206E6F7420612000000000000000000000 DUP2 MSTORE POP JUMP JUMPDEST PUSH1 0x0 PUSH2 0x7B67 DUP3 PUSH2 0x7B36 JUMP JUMPDEST PUSH1 0x16 DUP3 ADD SWAP2 POP PUSH2 0x7B77 DUP3 DUP5 PUSH2 0x6D34 JUMP JUMPDEST SWAP2 POP DUP2 SWAP1 POP SWAP3 SWAP2 POP POP JUMP JUMPDEST PUSH32 0x5245564F4B450000000000000000000000000000000000000000000000000000 PUSH1 0x0 DUP3 ADD MSTORE POP JUMP JUMPDEST PUSH1 0x0 PUSH2 0x7BB8 PUSH1 0x6 DUP4 PUSH2 0x6C76 JUMP JUMPDEST SWAP2 POP PUSH2 0x7BC3 DUP3 PUSH2 0x7B82 JUMP JUMPDEST PUSH1 0x6 DUP3 ADD SWAP1 POP SWAP2 SWAP1 POP JUMP JUMPDEST PUSH1 0x0 PUSH2 0x7BDA DUP3 DUP6 PUSH2 0x7142 JUMP JUMPDEST PUSH1 0x14 DUP3 ADD SWAP2 POP PUSH2 0x7BE9 DUP3 PUSH2 0x7BAB JUMP JUMPDEST SWAP2 POP PUSH2 0x7BF5 DUP3 DUP5 PUSH2 0x6F6F JUMP JUMPDEST PUSH1 0x20 DUP3 ADD SWAP2 POP DUP2 SWAP1 POP SWAP4 SWAP3 POP POP POP JUMP JUMPDEST PUSH32 0x5265766F6B652000000000000000000000000000000000000000000000000000 DUP2 MSTORE POP JUMP JUMPDEST PUSH1 0x0 PUSH2 0x7C36 DUP3 PUSH2 0x7C05 JUMP JUMPDEST PUSH1 0x7 DUP3 ADD SWAP2 POP PUSH2 0x7C46 DUP3 DUP6 PUSH2 0x6D34 JUMP JUMPDEST SWAP2 POP PUSH2 0x7C51 DUP3 PUSH2 0x721D JUMP JUMPDEST PUSH1 0x1 DUP3 ADD SWAP2 POP PUSH2 0x7C61 DUP3 DUP5 PUSH2 0x6D34 JUMP JUMPDEST SWAP2 POP DUP2 SWAP1 POP SWAP4 SWAP3 POP POP POP JUMP JUMPDEST PUSH1 0x0 PUSH2 0x7C78 DUP3 PUSH2 0x6D8B JUMP JUMPDEST SWAP2 POP PUSH2 0x7C83 DUP4 PUSH2 0x6D8B JUMP JUMPDEST SWAP3 POP DUP3 DUP3 SUB SWAP1 POP PUSH4 0xFFFFFFFF DUP2 GT ISZERO PUSH2 0x7C9F JUMPI PUSH2 0x7C9E PUSH2 0x6D9B JUMP JUMPDEST JUMPDEST SWAP3 SWAP2 POP POP JUMP JUMPDEST PUSH1 0x0 PUSH2 0x7CB0 DUP3 PUSH2 0x62BC JUMP JUMPDEST SWAP2 POP PUSH2 0x7CBB DUP4 PUSH2 0x62BC JUMP JUMPDEST SWAP3 POP DUP3 DUP3 SUB SWAP1 POP PUSH1 0xFF DUP2 GT ISZERO PUSH2 0x7CD4 JUMPI PUSH2 0x7CD3 PUSH2 0x6D9B JUMP JUMPDEST JUMPDEST SWAP3 SWAP2 POP POP JUMP JUMPDEST PUSH1 0x0 PUSH2 0x7CE5 DUP3 PUSH2 0x60FB JUMP JUMPDEST SWAP2 POP PUSH32 0xFFFFFFFFFFFFFFFFFFFFFFFFFFFFFFFFFFFFFFFFFFFFFFFFFFFFFFFFFFFFFFFF DUP3 SUB PUSH2 0x7D17 JUMPI PUSH2 0x7D16 PUSH2 0x6D9B JUMP JUMPDEST JUMPDEST PUSH1 0x1 DUP3 ADD SWAP1 POP SWAP2 SWAP1 POP JUMP JUMPDEST PUSH1 0x0 DUP2 SWAP1 POP DUP2 PUSH1 0x0 MSTORE PUSH1 0x20 PUSH1 0x0 KECCAK256 SWAP1 POP SWAP2 SWAP1 POP JUMP JUMPDEST PUSH1 0x0 PUSH1 0x20 PUSH1 0x1F DUP4 ADD DIV SWAP1 POP SWAP2 SWAP1 POP JUMP JUMPDEST PUSH1 0x0 DUP3 DUP3 SHL SWAP1 POP SWAP3 SWAP2 POP POP JUMP JUMPDEST PUSH1 0x0 PUSH1 0x8 DUP4 MUL PUSH2 0x7D84 PUSH32 0xFFFFFFFFFFFFFFFFFFFFFFFFFFFFFFFFFFFFFFFFFFFFFFFFFFFFFFFFFFFFFFFF DUP3 PUSH2 0x7D47 JUMP JUMPDEST PUSH2 0x7D8E DUP7 DUP4 PUSH2 0x7D47 JUMP JUMPDEST SWAP6 POP DUP1 NOT DUP5 AND SWAP4 POP DUP1 DUP7 AND DUP5 OR SWAP3 POP POP POP SWAP4 SWAP3 POP POP POP JUMP JUMPDEST PUSH1 0x0 DUP2 SWAP1 POP SWAP2 SWAP1 POP JUMP JUMPDEST PUSH1 0x0 PUSH2 0x7DCB PUSH2 0x7DC6 PUSH2 0x7DC1 DUP5 PUSH2 0x60FB JUMP JUMPDEST PUSH2 0x7DA6 JUMP JUMPDEST PUSH2 0x60FB JUMP JUMPDEST SWAP1 POP SWAP2 SWAP1 POP JUMP JUMPDEST PUSH1 0x0 DUP2 SWAP1 POP SWAP2 SWAP1 POP JUMP JUMPDEST PUSH2 0x7DE5 DUP4 PUSH2 0x7DB0 JUMP JUMPDEST PUSH2 0x7DF9 PUSH2 0x7DF1 DUP3 PUSH2 0x7DD2 JUMP JUMPDEST DUP5 DUP5 SLOAD PUSH2 0x7D54 JUMP JUMPDEST DUP3 SSTORE POP POP POP POP JUMP JUMPDEST PUSH1 0x0 SWAP1 JUMP JUMPDEST PUSH2 0x7E0E PUSH2 0x7E01 JUMP JUMPDEST PUSH2 0x7E19 DUP2 DUP5 DUP5 PUSH2 0x7DDC JUMP JUMPDEST POP POP POP JUMP JUMPDEST JUMPDEST DUP2 DUP2 LT ISZERO PUSH2 0x7E3D JUMPI PUSH2 0x7E32 PUSH1 0x0 DUP3 PUSH2 0x7E06 JUMP JUMPDEST PUSH1 0x1 DUP2 ADD SWAP1 POP PUSH2 0x7E1F JUMP JUMPDEST POP POP JUMP JUMPDEST PUSH1 0x1F DUP3 GT ISZERO PUSH2 0x7E82 JUMPI PUSH2 0x7E53 DUP2 PUSH2 0x7D22 JUMP JUMPDEST PUSH2 0x7E5C DUP5 PUSH2 0x7D37 JUMP JUMPDEST DUP2 ADD PUSH1 0x20 DUP6 LT ISZERO PUSH2 0x7E6B JUMPI DUP2 SWAP1 POP JUMPDEST PUSH2 0x7E7F PUSH2 0x7E77 DUP6 PUSH2 0x7D37 JUMP JUMPDEST DUP4 ADD DUP3 PUSH2 0x7E1E JUMP JUMPDEST POP POP JUMPDEST POP POP POP JUMP JUMPDEST PUSH1 0x0 DUP3 DUP3 SHR SWAP1 POP SWAP3 SWAP2 POP POP JUMP JUMPDEST PUSH1 0x0 PUSH2 0x7EA5 PUSH1 0x0 NOT DUP5 PUSH1 0x8 MUL PUSH2 0x7E87 JUMP JUMPDEST NOT DUP1 DUP4 AND SWAP2 POP POP SWAP3 SWAP2 POP POP JUMP JUMPDEST PUSH1 0x0 PUSH2 0x7EBE DUP4 DUP4 PUSH2 0x7E94 JUMP JUMPDEST SWAP2 POP DUP3 PUSH1 0x2 MUL DUP3 OR SWAP1 POP SWAP3 SWAP2 POP POP JUMP JUMPDEST PUSH2 0x7ED7 DUP3 PUSH2 0x61D9 JUMP JUMPDEST PUSH8 0xFFFFFFFFFFFFFFFF DUP2 GT ISZERO PUSH2 0x7EF0 JUMPI PUSH2 0x7EEF PUSH2 0x684C JUMP JUMPDEST JUMPDEST PUSH2 0x7EFA DUP3 SLOAD PUSH2 0x6E36 JUMP JUMPDEST PUSH2 0x7F05 DUP3 DUP3 DUP6 PUSH2 0x7E41 JUMP JUMPDEST PUSH1 0x0 PUSH1 0x20 SWAP1 POP PUSH1 0x1F DUP4 GT PUSH1 0x1 DUP2 EQ PUSH2 0x7F38 JUMPI PUSH1 0x0 DUP5 ISZERO PUSH2 0x7F26 JUMPI DUP3 DUP8 ADD MLOAD SWAP1 POP JUMPDEST PUSH2 0x7F30 DUP6 DUP3 PUSH2 0x7EB2 JUMP JUMPDEST DUP7 SSTORE POP PUSH2 0x7F98 JUMP JUMPDEST PUSH1 0x1F NOT DUP5 AND PUSH2 0x7F46 DUP7 PUSH2 0x7D22 JUMP JUMPDEST PUSH1 0x0 JUMPDEST DUP3 DUP2 LT ISZERO PUSH2 0x7F6E JUMPI DUP5 DUP10 ADD MLOAD DUP3 SSTORE PUSH1 0x1 DUP3 ADD SWAP2 POP PUSH1 0x20 DUP6 ADD SWAP5 POP PUSH1 0x20 DUP2 ADD SWAP1 POP PUSH2 0x7F49 JUMP JUMPDEST DUP7 DUP4 LT ISZERO PUSH2 0x7F8B JUMPI DUP5 DUP10 ADD MLOAD PUSH2 0x7F87 PUSH1 0x1F DUP10 AND DUP3 PUSH2 0x7E94 JUMP JUMPDEST DUP4 SSTORE POP JUMPDEST PUSH1 0x1 PUSH1 0x2 DUP9 MUL ADD DUP9 SSTORE POP POP POP JUMPDEST POP POP POP POP POP POP JUMP JUMPDEST PUSH32 0x596F7520616C7265616479207369676E65642074686973206D756C7469736967 PUSH1 0x0 DUP3 ADD MSTORE POP JUMP JUMPDEST PUSH1 0x0 PUSH2 0x7FD6 PUSH1 0x20 DUP4 PUSH2 0x61E4 JUMP JUMPDEST SWAP2 POP PUSH2 0x7FE1 DUP3 PUSH2 0x7FA0 JUMP JUMPDEST PUSH1 0x20 DUP3 ADD SWAP1 POP SWAP2 SWAP1 POP JUMP JUMPDEST PUSH1 0x0 PUSH1 0x20 DUP3 ADD SWAP1 POP DUP2 DUP2 SUB PUSH1 0x0 DUP4 ADD MSTORE PUSH2 0x8005 DUP2 PUSH2 0x7FC9 JUMP JUMPDEST SWAP1 POP SWAP2 SWAP1 POP JUMP JUMPDEST PUSH1 0x0 PUSH2 0x8017 DUP3 PUSH2 0x62BC JUMP JUMPDEST SWAP2 POP PUSH1 0xFF DUP3 SUB PUSH2 0x802A JUMPI PUSH2 0x8029 PUSH2 0x6D9B JUMP JUMPDEST JUMPDEST PUSH1 0x1 DUP3 ADD SWAP1 POP SWAP2 SWAP1 POP JUMP JUMPDEST PUSH1 0x0 PUSH2 0x8040 DUP3 PUSH2 0x62BC JUMP JUMPDEST SWAP2 POP PUSH2 0x804B DUP4 PUSH2 0x62BC JUMP JUMPDEST SWAP3 POP DUP3 DUP3 ADD SWAP1 POP PUSH1 0xFF DUP2 GT ISZERO PUSH2 0x8064 JUMPI PUSH2 0x8063 PUSH2 0x6D9B JUMP JUMPDEST JUMPDEST SWAP3 SWAP2 POP POP JUMP JUMPDEST PUSH32 0x596F752068617665206E6F7465207369676E65642074686973206D756C746973 PUSH1 0x0 DUP3 ADD MSTORE PUSH32 0x6967207965740000000000000000000000000000000000000000000000000000 PUSH1 0x20 DUP3 ADD MSTORE POP JUMP JUMPDEST PUSH1 0x0 PUSH2 0x80C6 PUSH1 0x26 DUP4 PUSH2 0x61E4 JUMP JUMPDEST SWAP2 POP PUSH2 0x80D1 DUP3 PUSH2 0x806A JUMP JUMPDEST PUSH1 0x40 DUP3 ADD SWAP1 POP SWAP2 SWAP1 POP JUMP JUMPDEST PUSH1 0x0 PUSH1 0x20 DUP3 ADD SWAP1 POP DUP2 DUP2 SUB PUSH1 0x0 DUP4 ADD MSTORE PUSH2 0x80F5 DUP2 PUSH2 0x80B9 JUMP JUMPDEST SWAP1 POP SWAP2 SWAP1 POP JUMP JUMPDEST PUSH32 0x4E487B7100000000000000000000000000000000000000000000000000000000 PUSH1 0x0 MSTORE PUSH1 0x32 PUSH1 0x4 MSTORE PUSH1 0x24 PUSH1 0x0 REVERT JUMPDEST PUSH32 0x53747564656E7420616C72656164792065786973747300000000000000000000 PUSH1 0x0 DUP3 ADD MSTORE POP JUMP JUMPDEST PUSH1 0x0 PUSH2 0x8161 PUSH1 0x16 DUP4 PUSH2 0x61E4 JUMP JUMPDEST SWAP2 POP PUSH2 0x816C DUP3 PUSH2 0x812B JUMP JUMPDEST PUSH1 0x20 DUP3 ADD SWAP1 POP SWAP2 SWAP1 POP JUMP JUMPDEST PUSH1 0x0 PUSH1 0x20 DUP3 ADD SWAP1 POP DUP2 DUP2 SUB PUSH1 0x0 DUP4 ADD MSTORE PUSH2 0x8190 DUP2 PUSH2 0x8154 JUMP JUMPDEST SWAP1 POP SWAP2 SWAP1 POP JUMP JUMPDEST PUSH32 0x49642063616E2774206265203000000000000000000000000000000000000000 PUSH1 0x0 DUP3 ADD MSTORE POP JUMP JUMPDEST PUSH1 0x0 PUSH2 0x81CD PUSH1 0xD DUP4 PUSH2 0x61E4 JUMP JUMPDEST SWAP2 POP PUSH2 0x81D8 DUP3 PUSH2 0x8197 JUMP JUMPDEST PUSH1 0x20 DUP3 ADD SWAP1 POP SWAP2 SWAP1 POP JUMP JUMPDEST PUSH1 0x0 PUSH1 0x20 DUP3 ADD SWAP1 POP DUP2 DUP2 SUB PUSH1 0x0 DUP4 ADD MSTORE PUSH2 0x81FC DUP2 PUSH2 0x81C0 JUMP JUMPDEST SWAP1 POP SWAP2 SWAP1 POP JUMP JUMPDEST PUSH1 0x0 PUSH1 0x80 DUP3 ADD SWAP1 POP PUSH2 0x8218 PUSH1 0x0 DUP4 ADD DUP8 PUSH2 0x61CA JUMP JUMPDEST PUSH2 0x8225 PUSH1 0x20 DUP4 ADD DUP7 PUSH2 0x6658 JUMP JUMPDEST PUSH2 0x8232 PUSH1 0x40 DUP4 ADD DUP6 PUSH2 0x66A0 JUMP JUMPDEST PUSH2 0x823F PUSH1 0x60 DUP4 ADD DUP5 PUSH2 0x66E8 JUMP JUMPDEST SWAP6 SWAP5 POP POP POP POP POP JUMP JUMPDEST PUSH32 0x53747564656E7420646F6573206E6F7420657869737400000000000000000000 PUSH1 0x0 DUP3 ADD MSTORE POP JUMP JUMPDEST PUSH1 0x0 PUSH2 0x827E PUSH1 0x16 DUP4 PUSH2 0x61E4 JUMP JUMPDEST SWAP2 POP PUSH2 0x8289 DUP3 PUSH2 0x8248 JUMP JUMPDEST PUSH1 0x20 DUP3 ADD SWAP1 POP SWAP2 SWAP1 POP JUMP JUMPDEST PUSH1 0x0 PUSH1 0x20 DUP3 ADD SWAP1 POP DUP2 DUP2 SUB PUSH1 0x0 DUP4 ADD MSTORE PUSH2 0x82AD DUP2 PUSH2 0x8271 JUMP JUMPDEST SWAP1 POP SWAP2 SWAP1 POP JUMP JUMPDEST PUSH1 0x0 DUP2 SLOAD PUSH2 0x82C1 DUP2 PUSH2 0x6E36 JUMP JUMPDEST PUSH2 0x82CB DUP2 DUP7 PUSH2 0x6C76 JUMP JUMPDEST SWAP5 POP PUSH1 0x1 DUP3 AND PUSH1 0x0 DUP2 EQ PUSH2 0x82E6 JUMPI PUSH1 0x1 DUP2 EQ PUSH2 0x82FB JUMPI PUSH2 0x832E JUMP JUMPDEST PUSH1 0xFF NOT DUP4 AND DUP7 MSTORE DUP2 ISZERO ISZERO DUP3 MUL DUP7 ADD SWAP4 POP PUSH2 0x832E JUMP JUMPDEST PUSH2 0x8304 DUP6 PUSH2 0x7D22 JUMP JUMPDEST PUSH1 0x0 JUMPDEST DUP4 DUP2 LT ISZERO PUSH2 0x8326 JUMPI DUP2 SLOAD DUP2 DUP10 ADD MSTORE PUSH1 0x1 DUP3 ADD SWAP2 POP PUSH1 0x20 DUP2 ADD SWAP1 POP PUSH2 0x8307 JUMP JUMPDEST DUP4 DUP9 ADD SWAP6 POP POP POP JUMPDEST POP POP POP SWAP3 SWAP2 POP POP JUMP JUMPDEST PUSH1 0x0 PUSH2 0x8343 DUP3 DUP5 PUSH2 0x82B4 JUMP JUMPDEST SWAP2 POP DUP2 SWAP1 POP SWAP3 SWAP2 POP POP JUMP JUMPDEST PUSH1 0x0 PUSH2 0x835A DUP3 DUP5 PUSH2 0x6D34 JUMP JUMPDEST SWAP2 POP DUP2 SWAP1 POP SWAP3 SWAP2 POP POP JUMP JUMPDEST POP JUMP JUMPDEST PUSH1 0x0 PUSH2 0x8375 PUSH1 0x0 DUP4 PUSH2 0x6C76 JUMP JUMPDEST SWAP2 POP PUSH2 0x8380 DUP3 PUSH2 0x8365 JUMP JUMPDEST PUSH1 0x0 DUP3 ADD SWAP1 POP SWAP2 SWAP1 POP JUMP JUMPDEST PUSH1 0x0 PUSH2 0x8396 DUP3 PUSH2 0x8368 JUMP JUMPDEST SWAP2 POP DUP2 SWAP1 POP SWAP2 SWAP1 POP JUMP JUMPDEST PUSH32 0x416363657373436F6E74726F6C3A206163636F756E7420000000000000000000 PUSH1 0x0 DUP3 ADD MSTORE POP JUMP JUMPDEST PUSH1 0x0 PUSH2 0x83D6 PUSH1 0x17 DUP4 PUSH2 0x6C76 JUMP JUMPDEST SWAP2 POP PUSH2 0x83E1 DUP3 PUSH2 0x83A0 JUMP JUMPDEST PUSH1 0x17 DUP3 ADD SWAP1 POP SWAP2 SWAP1 POP JUMP JUMPDEST PUSH32 0x206973206D697373696E6720726F6C6520000000000000000000000000000000 PUSH1 0x0 DUP3 ADD MSTORE POP JUMP JUMPDEST PUSH1 0x0 PUSH2 0x8422 PUSH1 0x11 DUP4 PUSH2 0x6C76 JUMP JUMPDEST SWAP2 POP PUSH2 0x842D DUP3 PUSH2 0x83EC JUMP JUMPDEST PUSH1 0x11 DUP3 ADD SWAP1 POP SWAP2 SWAP1 POP JUMP JUMPDEST PUSH1 0x0 PUSH2 0x8443 DUP3 PUSH2 0x83C9 JUMP JUMPDEST SWAP2 POP PUSH2 0x844F DUP3 DUP6 PUSH2 0x6D34 JUMP JUMPDEST SWAP2 POP PUSH2 0x845A DUP3 PUSH2 0x8415 JUMP JUMPDEST SWAP2 POP PUSH2 0x8466 DUP3 DUP5 PUSH2 0x6D34 JUMP JUMPDEST SWAP2 POP DUP2 SWAP1 POP SWAP4 SWAP3 POP POP POP JUMP JUMPDEST PUSH1 0x0 PUSH2 0x847D DUP3 PUSH2 0x60FB JUMP JUMPDEST SWAP2 POP PUSH2 0x8488 DUP4 PUSH2 0x60FB JUMP JUMPDEST SWAP3 POP DUP3 DUP3 MUL PUSH2 0x8496 DUP2 PUSH2 0x60FB JUMP JUMPDEST SWAP2 POP DUP3 DUP3 DIV DUP5 EQ DUP4 ISZERO OR PUSH2 0x84AD JUMPI PUSH2 0x84AC PUSH2 0x6D9B JUMP JUMPDEST JUMPDEST POP SWAP3 SWAP2 POP POP JUMP JUMPDEST PUSH1 0x0 PUSH2 0x84BF DUP3 PUSH2 0x60FB JUMP JUMPDEST SWAP2 POP PUSH1 0x0 DUP3 SUB PUSH2 0x84D2 JUMPI PUSH2 0x84D1 PUSH2 0x6D9B JUMP JUMPDEST JUMPDEST PUSH1 0x1 DUP3 SUB SWAP1 POP SWAP2 SWAP1 POP JUMP JUMPDEST PUSH32 0x537472696E67733A20686578206C656E67746820696E73756666696369656E74 PUSH1 0x0 DUP3 ADD MSTORE POP JUMP JUMPDEST PUSH1 0x0 PUSH2 0x8513 PUSH1 0x20 DUP4 PUSH2 0x61E4 JUMP JUMPDEST SWAP2 POP PUSH2 0x851E DUP3 PUSH2 0x84DD JUMP JUMPDEST PUSH1 0x20 DUP3 ADD SWAP1 POP SWAP2 SWAP1 POP JUMP JUMPDEST PUSH1 0x0 PUSH1 0x20 DUP3 ADD SWAP1 POP DUP2 DUP2 SUB PUSH1 0x0 DUP4 ADD MSTORE PUSH2 0x8542 DUP2 PUSH2 0x8506 JUMP JUMPDEST SWAP1 POP SWAP2 SWAP1 POP JUMP INVALID LOG2 PUSH5 0x6970667358 0x22 SLT KECCAK256 SGT SLOAD CODESIZE PUSH22 0x9950CBC60A001065CBFAFEED7DF48106778D6F547E2F DUP15 MSTORE PUSH17 0xD8410264736F6C63430008130033000000 "},"methodIdentifiers":{"CERTIFIER()":"b86bc74f","CERTIFIER_ADMIN()":"e05f2fb4","DEFAULT_ADMIN_ROLE()":"a217fddf","MAX_CERTIFIERS()":"5907ebea","MAX_CERTIFIERS_ADMIN()":"9e339909","MIN_CERTIFIERS_ADMIN()":"33b72e49","PERCENT_TO_CERTIFY()":"6bc6421b","PERCENT_TO_DELETE_STUDENT()":"d0fb68c7","PERCENT_TO_EDIT_CERTIFICATE()":"2cd94e4f","PERCENT_TO_GRANT_CERTIFIER()":"4da11a20","PERCENT_TO_GRANT_CERTIFIER_ADMIN()":"0f68794a","PERCENT_TO_REVOKE_CERTIFIER()":"1a9cfe28","PERCENT_TO_REVOKE_CERTIFIER_ADMIN()":"7cd29fb7","ceilUDiv(uint256,uint256)":"bf802091","certificates(bytes32)":"742f0688","certificatesByStudent(uint256,uint256)":"4cce913b","certify(uint256,uint8,uint8,uint8,bool)":"ace81910","createStudent(uint256,string,string,uint256)":"a1cebf52","deleteCertificate(uint256,uint8,uint8,uint8,bool)":"8856a0e9","editStudentById(uint256,string,string,uint256)":"c9dbcfda","getCertificatesByStudent(uint256)":"e5a357f5","getRoleAdmin(bytes32)":"248a9ca3","getStudent(uint256)":"642f9163","grantAnyRole(bytes32,address,bool)":"719129be","grantRole(bytes32,address)":"2f2ff15d","hasRole(bytes32,address)":"91d14854","multiSig(bytes32)":"1a968069","multiSigId(uint256)":"9dd09a73","removeStudentById(uint256,bool)":"05f84d45","renounceRole(bytes32,address)":"36568abe","revokeAnyRole(bytes32,address,bool)":"d3243ad8","revokeRole(bytes32,address)":"d547741f","students(uint256)":"06ead22e","studentsIds(uint256)":"df3a12dd","supportsInterface(bytes4)":"01ffc9a7"}}}}}