{"contracts/Certifications.sol":{"Certifications":{"abi":[{"inputs":[{"internalType":"address","name":"certifier_admin1","type":"address"},{"internalType":"address","name":"certifier_admin2","type":"address"}],"stateMutability":"nonpayable","type":"constructor"},{"anonymous":false,"inputs":[{"indexed":true,"internalType":"bytes32","name":"role","type":"bytes32"},{"indexed":true,"internalType":"bytes32","name":"previousAdminRole","type":"bytes32"},{"indexed":true,"internalType":"bytes32","name":"newAdminRole","type":"bytes32"}],"name":"RoleAdminChanged","type":"event"},{"anonymous":false,"inputs":[{"indexed":true,"internalType":"bytes32","name":"role","type":"bytes32"},{"indexed":true,"internalType":"address","name":"account","type":"address"},{"indexed":true,"internalType":"address","name":"sender","type":"address"}],"name":"RoleGranted","type":"event"},{"anonymous":false,"inputs":[{"indexed":true,"internalType":"bytes32","name":"role","type":"bytes32"},{"indexed":true,"internalType":"address","name":"account","type":"address"},{"indexed":true,"internalType":"address","name":"sender","type":"address"}],"name":"RoleRevoked","type":"event"},{"anonymous":false,"inputs":[{"indexed":false,"internalType":"uint256","name":"id","type":"uint256"},{"indexed":false,"internalType":"string","name":"firstname","type":"string"},{"indexed":false,"internalType":"string","name":"lastname","type":"string"},{"indexed":false,"internalType":"uint256","name":"birthdate","type":"uint256"}],"name":"StudentAdded","type":"event"},{"anonymous":false,"inputs":[{"indexed":false,"internalType":"uint256","name":"id","type":"uint256"}],"name":"StudentDeleted","type":"event"},{"anonymous":false,"inputs":[{"indexed":false,"internalType":"uint256","name":"id","type":"uint256"},{"indexed":false,"internalType":"string","name":"firstname","type":"string"},{"indexed":false,"internalType":"string","name":"lastname","type":"string"},{"indexed":false,"internalType":"uint256","name":"birthdate","type":"uint256"}],"name":"StudentEdited","type":"event"},{"anonymous":false,"inputs":[{"indexed":false,"internalType":"uint256","name":"studentId","type":"uint256"},{"indexed":false,"internalType":"enum Certifications.appreciation","name":"appreciation","type":"uint8"},{"indexed":false,"internalType":"enum Certifications.degree","name":"degree","type":"uint8"},{"indexed":false,"internalType":"enum Certifications.program","name":"program","type":"uint8"}],"name":"certificationEmited","type":"event"},{"anonymous":false,"inputs":[{"indexed":false,"internalType":"bytes32","name":"multiSigName","type":"bytes32"}],"name":"multiSigCleared","type":"event"},{"anonymous":false,"inputs":[{"indexed":false,"internalType":"bytes32","name":"multiSigName","type":"bytes32"}],"name":"multiSigSigned","type":"event"},{"inputs":[],"name":"CERTIFIER","outputs":[{"internalType":"bytes32","name":"","type":"bytes32"}],"stateMutability":"view","type":"function"},{"inputs":[],"name":"CERTIFIER_ADMIN","outputs":[{"internalType":"bytes32","name":"","type":"bytes32"}],"stateMutability":"view","type":"function"},{"inputs":[],"name":"DEFAULT_ADMIN_ROLE","outputs":[{"internalType":"bytes32","name":"","type":"bytes32"}],"stateMutability":"view","type":"function"},{"inputs":[],"name":"MAX_CERTIFIERS","outputs":[{"internalType":"uint8","name":"","type":"uint8"}],"stateMutability":"view","type":"function"},{"inputs":[],"name":"MAX_CERTIFIERS_ADMIN","outputs":[{"internalType":"uint8","name":"","type":"uint8"}],"stateMutability":"view","type":"function"},{"inputs":[],"name":"MIN_CERTIFIERS_ADMIN","outputs":[{"internalType":"uint8","name":"","type":"uint8"}],"stateMutability":"view","type":"function"},{"inputs":[],"name":"PERCENT_TO_CERTIFY","outputs":[{"internalType":"uint8","name":"","type":"uint8"}],"stateMutability":"view","type":"function"},{"inputs":[],"name":"PERCENT_TO_DELETE_STUDENT","outputs":[{"internalType":"uint8","name":"","type":"uint8"}],"stateMutability":"view","type":"function"},{"inputs":[],"name":"PERCENT_TO_EDIT_CERTIFICATE","outputs":[{"internalType":"uint8","name":"","type":"uint8"}],"stateMutability":"view","type":"function"},{"inputs":[],"name":"PERCENT_TO_GRANT_CERTIFIER","outputs":[{"internalType":"uint8","name":"","type":"uint8"}],"stateMutability":"view","type":"function"},{"inputs":[],"name":"PERCENT_TO_GRANT_CERTIFIER_ADMIN","outputs":[{"internalType":"uint8","name":"","type":"uint8"}],"stateMutability":"view","type":"function"},{"inputs":[],"name":"PERCENT_TO_REVOKE_CERTIFIER","outputs":[{"internalType":"uint8","name":"","type":"uint8"}],"stateMutability":"view","type":"function"},{"inputs":[],"name":"PERCENT_TO_REVOKE_CERTIFIER_ADMIN","outputs":[{"internalType":"uint8","name":"","type":"uint8"}],"stateMutability":"view","type":"function"},{"inputs":[{"internalType":"uint256","name":"a","type":"uint256"},{"internalType":"uint256","name":"b","type":"uint256"}],"name":"ceilUDiv","outputs":[{"internalType":"uint256","name":"","type":"uint256"}],"stateMutability":"pure","type":"function"},{"inputs":[{"internalType":"bytes32","name":"","type":"bytes32"}],"name":"certificates","outputs":[{"internalType":"enum Certifications.appreciation","name":"appreciation","type":"uint8"},{"internalType":"enum Certifications.degree","name":"degree","type":"uint8"},{"internalType":"enum Certifications.program","name":"program","type":"uint8"},{"internalType":"uint256","name":"creation_date","type":"uint256"},{"internalType":"bool","name":"validity","type":"bool"},{"internalType":"uint256","name":"stud_id","type":"uint256"}],"stateMutability":"view","type":"function"},{"inputs":[{"internalType":"uint256","name":"studentId","type":"uint256"},{"internalType":"enum Certifications.appreciation","name":"app","type":"uint8"},{"internalType":"enum Certifications.degree","name":"deg","type":"uint8"},{"internalType":"enum Certifications.program","name":"prog","type":"uint8"},{"internalType":"bool","name":"approve","type":"bool"}],"name":"certify","outputs":[],"stateMutability":"nonpayable","type":"function"},{"inputs":[{"internalType":"uint256","name":"_id","type":"uint256"},{"internalType":"string","name":"_firstname","type":"string"},{"internalType":"string","name":"_lastname","type":"string"},{"internalType":"uint256","name":"_birthdate","type":"uint256"}],"name":"createStudent","outputs":[],"stateMutability":"nonpayable","type":"function"},{"inputs":[{"internalType":"uint256","name":"studentId","type":"uint256"},{"internalType":"enum Certifications.appreciation","name":"app","type":"uint8"},{"internalType":"enum Certifications.degree","name":"deg","type":"uint8"},{"internalType":"enum Certifications.program","name":"prog","type":"uint8"},{"internalType":"bool","name":"approve","type":"bool"}],"name":"deleteCertificate","outputs":[],"stateMutability":"nonpayable","type":"function"},{"inputs":[{"internalType":"uint256","name":"_id","type":"uint256"},{"internalType":"string","name":"_firstname","type":"string"},{"internalType":"string","name":"_lastname","type":"string"},{"internalType":"uint256","name":"_birthdate","type":"uint256"}],"name":"editStudentById","outputs":[],"stateMutability":"nonpayable","type":"function"},{"inputs":[{"internalType":"bytes32","name":"role","type":"bytes32"}],"name":"getRoleAdmin","outputs":[{"internalType":"bytes32","name":"","type":"bytes32"}],"stateMutability":"view","type":"function"},{"inputs":[{"internalType":"uint256","name":"_id","type":"uint256"}],"name":"getStudent","outputs":[{"components":[{"internalType":"uint256","name":"id","type":"uint256"},{"internalType":"string","name":"firstname","type":"string"},{"internalType":"string","name":"lastname","type":"string"},{"internalType":"uint256","name":"birthdate","type":"uint256"}],"internalType":"struct Students.Student","name":"","type":"tuple"}],"stateMutability":"view","type":"function"},{"inputs":[{"internalType":"bytes32","name":"roleHash","type":"bytes32"},{"internalType":"address","name":"target","type":"address"},{"internalType":"bool","name":"approve","type":"bool"}],"name":"grantAnyRole","outputs":[],"stateMutability":"nonpayable","type":"function"},{"inputs":[{"internalType":"bytes32","name":"role","type":"bytes32"},{"internalType":"address","name":"account","type":"address"}],"name":"grantRole","outputs":[],"stateMutability":"nonpayable","type":"function"},{"inputs":[{"internalType":"bytes32","name":"role","type":"bytes32"},{"internalType":"address","name":"account","type":"address"}],"name":"hasRole","outputs":[{"internalType":"bool","name":"","type":"bool"}],"stateMutability":"view","type":"function"},{"inputs":[{"internalType":"bytes32","name":"","type":"bytes32"}],"name":"multiSig","outputs":[{"internalType":"bool","name":"created","type":"bool"},{"internalType":"bytes32","name":"role","type":"bytes32"},{"internalType":"uint8","name":"count","type":"uint8"},{"internalType":"uint8","name":"id","type":"uint8"},{"internalType":"string","name":"info","type":"string"}],"stateMutability":"view","type":"function"},{"inputs":[{"internalType":"uint256","name":"","type":"uint256"}],"name":"multiSigId","outputs":[{"internalType":"bytes32","name":"","type":"bytes32"}],"stateMutability":"view","type":"function"},{"inputs":[{"internalType":"uint256","name":"_id","type":"uint256"},{"internalType":"bool","name":"_approve","type":"bool"}],"name":"removeStudentById","outputs":[],"stateMutability":"nonpayable","type":"function"},{"inputs":[{"internalType":"bytes32","name":"","type":"bytes32"},{"internalType":"address","name":"","type":"address"}],"name":"renounceRole","outputs":[],"stateMutability":"nonpayable","type":"function"},{"inputs":[{"internalType":"bytes32","name":"roleHash","type":"bytes32"},{"internalType":"address","name":"target","type":"address"},{"internalType":"bool","name":"approve","type":"bool"}],"name":"revokeAnyRole","outputs":[],"stateMutability":"nonpayable","type":"function"},{"inputs":[{"internalType":"bytes32","name":"role","type":"bytes32"},{"internalType":"address","name":"account","type":"address"}],"name":"revokeRole","outputs":[],"stateMutability":"nonpayable","type":"function"},{"inputs":[{"internalType":"uint256","name":"","type":"uint256"}],"name":"students","outputs":[{"internalType":"uint256","name":"id","type":"uint256"},{"internalType":"string","name":"firstname","type":"string"},{"internalType":"string","name":"lastname","type":"string"},{"internalType":"uint256","name":"birthdate","type":"uint256"}],"stateMutability":"view","type":"function"},{"inputs":[{"internalType":"bytes4","name":"interfaceId","type":"bytes4"}],"name":"supportsInterface","outputs":[{"internalType":"bool","name":"","type":"bool"}],"stateMutability":"view","type":"function"}],"evm":{"bytecode":{"linkReferences":{},"object":"60806040523480156200001157600080fd5b5060405162008ba238038062008ba283398181016040528101906200003791906200099c565b62000053674346da88ac06a84360c01b620007b660201b60201c565b6200006f6739aba34486adf0da60c01b620007b660201b60201c565b6200008b670a6059053a04f96460c01b620007b660201b60201c565b620000a767ae953caa734ab3b060c01b620007b660201b60201c565b600073ffffffffffffffffffffffffffffffffffffffff168273ffffffffffffffffffffffffffffffffffffffff160362000119576040517f08c379a0000000000000000000000000000000000000000000000000000000008152600401620001109062000a6a565b60405180910390fd5b6200013567f5900fc41a1b03e060c01b620007b660201b60201c565b62000151678f048ba93c318bdf60c01b620007b660201b60201c565b6200016d67eabba9f8cd63b62060c01b620007b660201b60201c565b6200018967a6b100261d7ca0a160c01b620007b660201b60201c565b600073ffffffffffffffffffffffffffffffffffffffff168173ffffffffffffffffffffffffffffffffffffffff1603620001fb576040517f08c379a0000000000000000000000000000000000000000000000000000000008152600401620001f29062000b02565b60405180910390fd5b62000217677c8571a546cd703b60c01b620007b660201b60201c565b62000233676174d0f42c37649a60c01b620007b660201b60201c565b6200024f672212cda1dcb9ea1260c01b620007b660201b60201c565b6200026b67a83a11a74eb277ae60c01b620007b660201b60201c565b8073ffffffffffffffffffffffffffffffffffffffff168273ffffffffffffffffffffffffffffffffffffffff1603620002dc576040517f08c379a0000000000000000000000000000000000000000000000000000000008152600401620002d39062000b9a565b60405180910390fd5b620002f86706ddd2fa1476c45260c01b620007b660201b60201c565b6200031467476c17a0b8385f1760c01b620007b660201b60201c565b62000330671c07e5a9226be91660c01b620007b660201b60201c565b620003627f4bbeb6fd3e5222e55f2f8b0c35bc228e0a06a25d0da772fdb02c3b92fa004f8883620007b960201b60201c565b6200037e6707862d5c1055513b60c01b620007b660201b60201c565b6200039a6792f115933ddba31c60c01b620007b660201b60201c565b620003cc7f4bbeb6fd3e5222e55f2f8b0c35bc228e0a06a25d0da772fdb02c3b92fa004f8882620007cf60201b60201c565b620003e867f700b95d536177f360c01b620007b660201b60201c565b6040518060e00160405280600263ffffffff168152602001600260ff1663ffffffff168152602001600f60ff1663ffffffff168152602001605060ff168152602001605060ff1681526020017f4bbeb6fd3e5222e55f2f8b0c35bc228e0a06a25d0da772fdb02c3b92fa004f8881526020016040516020016200046b9062000c17565b604051602081830303815290604052620004859062000c77565b815250600260007f4bbeb6fd3e5222e55f2f8b0c35bc228e0a06a25d0da772fdb02c3b92fa004f88815260200190815260200160002060008201518160000160006101000a81548163ffffffff021916908363ffffffff16021790555060208201518160000160046101000a81548163ffffffff021916908363ffffffff16021790555060408201518160000160086101000a81548163ffffffff021916908363ffffffff160217905550606082015181600001600c6101000a81548160ff021916908360ff160217905550608082015181600001600d6101000a81548160ff021916908360ff16021790555060a0820151816001015560c08201518160020155905050620005a56782a82f6f1bd2c11660c01b620007b660201b60201c565b620005c1672e2eef9c059dc20760c01b620007b660201b60201c565b620005f47fd646ae07eb0d0f77457502a65e7407930dff4cd4fd99abc6aac87a753f4c8a426000620007b960201b60201c565b62000610672071df197b17f30b60c01b620007b660201b60201c565b6040518060e00160405280600063ffffffff168152602001600063ffffffff168152602001600f60ff1663ffffffff168152602001605060ff168152602001605060ff1681526020017f4bbeb6fd3e5222e55f2f8b0c35bc228e0a06a25d0da772fdb02c3b92fa004f888152602001604051602001620006909062000d37565b604051602081830303815290604052620006aa9062000c77565b815250600260007fd646ae07eb0d0f77457502a65e7407930dff4cd4fd99abc6aac87a753f4c8a42815260200190815260200160002060008201518160000160006101000a81548163ffffffff021916908363ffffffff16021790555060208201518160000160046101000a81548163ffffffff021916908363ffffffff16021790555060408201518160000160086101000a81548163ffffffff021916908363ffffffff160217905550606082015181600001600c6101000a81548160ff021916908360ff160217905550608082015181600001600d6101000a81548160ff021916908360ff16021790555060a0820151816001015560c08201518160020155905050505062000d4e565b50565b620007cb8282620007cf60201b60201c565b5050565b620007e18282620008c060201b60201c565b620008bc57600160008084815260200190815260200160002060000160008373ffffffffffffffffffffffffffffffffffffffff1673ffffffffffffffffffffffffffffffffffffffff16815260200190815260200160002060006101000a81548160ff021916908315150217905550620008616200092a60201b60201c565b73ffffffffffffffffffffffffffffffffffffffff168173ffffffffffffffffffffffffffffffffffffffff16837f2f8788117e7eff1d82e926ec794901d17c78024a50270940304540a733656f0d60405160405180910390a45b5050565b600080600084815260200190815260200160002060000160008373ffffffffffffffffffffffffffffffffffffffff1673ffffffffffffffffffffffffffffffffffffffff16815260200190815260200160002060009054906101000a900460ff16905092915050565b600033905090565b600080fd5b600073ffffffffffffffffffffffffffffffffffffffff82169050919050565b6000620009648262000937565b9050919050565b620009768162000957565b81146200098257600080fd5b50565b60008151905062000996816200096b565b92915050565b60008060408385031215620009b657620009b562000932565b5b6000620009c68582860162000985565b9250506020620009d98582860162000985565b9150509250929050565b600082825260208201905092915050565b7f4365727469666965722061646d696e3120616464726573732063616e6e6f742060008201527f6265203000000000000000000000000000000000000000000000000000000000602082015250565b600062000a52602483620009e3565b915062000a5f82620009f4565b604082019050919050565b6000602082019050818103600083015262000a858162000a43565b9050919050565b7f4365727469666965722061646d696e3220616464726573732063616e6e6f742060008201527f6265203000000000000000000000000000000000000000000000000000000000602082015250565b600062000aea602483620009e3565b915062000af78262000a8c565b604082019050919050565b6000602082019050818103600083015262000b1d8162000adb565b9050919050565b7f436572746966696572206164647265737365732063616e6e6f7420626520746860008201527f652073616d650000000000000000000000000000000000000000000000000000602082015250565b600062000b82602683620009e3565b915062000b8f8262000b24565b604082019050919050565b6000602082019050818103600083015262000bb58162000b73565b9050919050565b600081905092915050565b7f4345525449464945525f41444d494e0000000000000000000000000000000000600082015250565b600062000bff600f8362000bbc565b915062000c0c8262000bc7565b600f82019050919050565b600062000c248262000bf0565b9150819050919050565b600081519050919050565b6000819050602082019050919050565b6000819050919050565b600062000c61825162000c49565b80915050919050565b600082821b905092915050565b600062000c848262000c2e565b8262000c908462000c39565b905062000c9d8162000c53565b9250602082101562000ce05762000cdb7fffffffffffffffffffffffffffffffffffffffffffffffffffffffffffffffff8360200360080262000c6a565b831692505b5050919050565b7f4345525449464945520000000000000000000000000000000000000000000000600082015250565b600062000d1f60098362000bbc565b915062000d2c8262000ce7565b600982019050919050565b600062000d448262000d10565b9150819050919050565b617e448062000d5e6000396000f3fe608060405234801561001057600080fd5b50600436106101f05760003560e01c8063742f06881161010f578063ace81910116100a2578063d0fb68c711610071578063d0fb68c7146105db578063d3243ad8146105f9578063d547741f14610615578063e05f2fb414610631576101f0565b8063ace8191014610555578063b86bc74f14610571578063bf8020911461058f578063c9dbcfda146105bf576101f0565b80639dd09a73116100de5780639dd09a73146104cd5780639e339909146104fd578063a1cebf521461051b578063a217fddf14610537576101f0565b8063742f06881461042e5780637cd29fb7146104635780638856a0e91461048157806391d148541461049d576101f0565b80632f2ff15d116101875780635907ebea116101565780635907ebea146103a6578063642f9163146103c45780636bc6421b146103f4578063719129be14610412576101f0565b80632f2ff15d1461033257806333b72e491461034e57806336568abe1461036c5780634da11a2014610388576101f0565b80631a968069116101c35780631a968069146102925780631a9cfe28146102c6578063248a9ca3146102e45780632cd94e4f14610314576101f0565b806301ffc9a7146101f557806305f84d451461022557806306ead22e146102415780630f68794a14610274575b600080fd5b61020f600480360381019061020a9190615b15565b61064f565b60405161021c9190615b5d565b60405180910390f35b61023f600480360381019061023a9190615bda565b6106c9565b005b61025b60048036038101906102569190615c1a565b610dd6565b60405161026b9493929190615ce6565b60405180910390f35b61027c610f16565b6040516102899190615d55565b60405180910390f35b6102ac60048036038101906102a79190615da6565b610f1b565b6040516102bd959493929190615de2565b60405180910390f35b6102ce611000565b6040516102db9190615d55565b60405180910390f35b6102fe60048036038101906102f99190615da6565b611005565b60405161030b9190615e3c565b60405180910390f35b61031c611024565b6040516103299190615d55565b60405180910390f35b61034c60048036038101906103479190615eb5565b611029565b005b61035661104a565b6040516103639190615d55565b60405180910390f35b61038660048036038101906103819190615eb5565b61104f565b005b6103906110c6565b60405161039d9190615d55565b60405180910390f35b6103ae6110cb565b6040516103bb9190615d55565b60405180910390f35b6103de60048036038101906103d99190615c1a565b6110d0565b6040516103eb9190615fb8565b60405180910390f35b6103fc61131a565b6040516104099190615d55565b60405180910390f35b61042c60048036038101906104279190615fda565b61131f565b005b61044860048036038101906104439190615da6565b611ba3565b60405161045a96959493929190616134565b60405180910390f35b61046b611c13565b6040516104789190615d55565b60405180910390f35b61049b60048036038101906104969190616204565b611c18565b005b6104b760048036038101906104b29190615eb5565b6126da565b6040516104c49190615b5d565b60405180910390f35b6104e760048036038101906104e29190615c1a565b612744565b6040516104f49190615e3c565b60405180910390f35b61050561275c565b6040516105129190615d55565b60405180910390f35b610535600480360381019061053091906163b4565b612761565b005b61053f612b5f565b60405161054c9190615e3c565b60405180910390f35b61056f600480360381019061056a9190616204565b612b66565b005b6105796135ed565b6040516105869190615e3c565b60405180910390f35b6105a960048036038101906105a49190616453565b613611565b6040516105b69190616493565b60405180910390f35b6105d960048036038101906105d491906163b4565b61370e565b005b6105e3613951565b6040516105f09190615d55565b60405180910390f35b610613600480360381019061060e9190615fda565b613956565b005b61062f600480360381019061062a9190615eb5565b61451a565b005b61063961453b565b6040516106469190615e3c565b60405180910390f35b60007f7965db0b000000000000000000000000000000000000000000000000000000007bffffffffffffffffffffffffffffffffffffffffffffffffffffffff1916827bffffffffffffffffffffffffffffffffffffffffffffffffffffffff191614806106c257506106c18261455f565b5b9050919050565b6106dd676ae93f6bf114c2f760c01b6145c9565b6106f1677a7ed0c4e584401460c01b6145c9565b6107056745d4f9869d13660b60c01b6145c9565b610719671cbdd7add0b2dd5c60c01b6145c9565b6107437fd646ae07eb0d0f77457502a65e7407930dff4cd4fd99abc6aac87a753f4c8a42336126da565b610782576040517f08c379a0000000000000000000000000000000000000000000000000000000008152600401610779906164fa565b60405180910390fd5b61079667f2a3b9ba0bc2281e60c01b6145c9565b6107aa679859be0913bc1e1760c01b6145c9565b6107be678f5912fc196c66fb60c01b6145c9565b6107d267d451ad32aab430b860c01b6145c9565b60008211610815576040517f08c379a000000000000000000000000000000000000000000000000000000000815260040161080c90616566565b60405180910390fd5b610829672f872260ec70aa8060c01b6145c9565b61083d67e28d98831e470a0e60c01b6145c9565b6108516770e61a765dfb20aa60c01b6145c9565b6108656768c3bd0af40a1b5d60c01b6145c9565b60006001600084815260200190815260200160002060000154036108be576040517f08c379a00000000000000000000000000000000000000000000000000000000081526004016108b5906165d2565b60405180910390fd5b6108d2672bc4242ebebe428960c01b6145c9565b6108e667e87324c8c42b714760c01b6145c9565b6108fa672c4d7d6a241e4b8960c01b6145c9565b60008260405160200161090d919061666a565b60405160208183030381529060405280519060200120905061093967f2f486595854747960c01b6145c9565b61094d678e01888c80102d3760c01b6145c9565b6109b6817fd646ae07eb0d0f77457502a65e7407930dff4cd4fd99abc6aac87a753f4c8a42856040516020016109839190616690565b6040516020818303038152906040526040516020016109a29190616702565b6040516020818303038152906040526145cc565b6109ca67bc51f865c49130a860c01b6145c9565b6109de67f8b6ac0350413cde60c01b6145c9565b818015610a4f5750600015156003600083815260200190815260200160002060030160003373ffffffffffffffffffffffffffffffffffffffff1673ffffffffffffffffffffffffffffffffffffffff16815260200190815260200160002060009054906101000a900460ff161515145b15610b1057610a68674f5571dc82a8340f60c01b6145c9565b610a7c67df20ef43cd86120a60c01b6145c9565b610a9067f9332553eceb56d860c01b6145c9565b610aac6003600083815260200190815260200160002033614770565b610ac0677d4cea3f8d4622d560c01b6145c9565b610ad467eb262170ab108a0360c01b6145c9565b7fb431a69783a2491a0c400ff16dab32cd442abf8fe5af63a526a7248d730192f881604051610b039190615e3c565b60405180910390a1610c16565b610b2467978f6ecc8f60681960c01b6145c9565b610b3867d61646692ed40d1060c01b6145c9565b6000151582151503610c0057610b5867281f41604962ef6360c01b6145c9565b610b6c6701dc47e9dc7e2d4960c01b6145c9565b610b8067e00c6e3f0d9a678b60c01b6145c9565b610b9c60036000838152602001908152602001600020336149f2565b610bb067211496b55cb50cff60c01b6145c9565b610bc467fa27c246eee8a08b60c01b6145c9565b7fb431a69783a2491a0c400ff16dab32cd442abf8fe5af63a526a7248d730192f881604051610bf39190615e3c565b60405180910390a1610c15565b610c1467ba7a7d4f3ff1ed8260c01b6145c9565b5b5b610c2a6719a84e662ed6d2e460c01b6145c9565b610c3e67553b9ae776c1ac0760c01b6145c9565b610ca4605060ff16600260007fd646ae07eb0d0f77457502a65e7407930dff4cd4fd99abc6aac87a753f4c8a42815260200190815260200160002060000160009054906101000a900463ffffffff16610c979190616767565b63ffffffff166064613611565b6003600083815260200190815260200160002060020160009054906101000a900460ff1660ff1610610dbc57610ce46776e3a440f346f78b60c01b6145c9565b610cf8672fe19dd197ae71b760c01b6145c9565b610d0c674dadad20973e5e5d60c01b6145c9565b610d2760036000838152602001908152602001600020614baa565b610d3b67dcfd845b2fe814ee60c01b6145c9565b610d4f6787c8ea0feda3ada560c01b6145c9565b7f562618dbcf74b61ae5b0f229fe40ba6d5b6ae6b4248f8c89a870dda7c77135f681604051610d7e9190615e3c565b60405180910390a1610d9a67124f1dad53c69bc560c01b6145c9565b610dae676e8d3572b8c8ba0b60c01b6145c9565b610db783614cf7565b610dd1565b610dd067ec4e2bcd0646233360c01b6145c9565b5b505050565b6001602052806000526040600020600091509050806000015490806001018054610dff906167d3565b80601f0160208091040260200160405190810160405280929190818152602001828054610e2b906167d3565b8015610e785780601f10610e4d57610100808354040283529160200191610e78565b820191906000526020600020905b815481529060010190602001808311610e5b57829003601f168201915b505050505090806002018054610e8d906167d3565b80601f0160208091040260200160405190810160405280929190818152602001828054610eb9906167d3565b8015610f065780601f10610edb57610100808354040283529160200191610f06565b820191906000526020600020905b815481529060010190602001808311610ee957829003601f168201915b5050505050908060030154905084565b605081565b60036020528060005260406000206000915090508060000160009054906101000a900460ff16908060010154908060020160009054906101000a900460ff16908060020160019054906101000a900460ff1690806005018054610f7d906167d3565b80601f0160208091040260200160405190810160405280929190818152602001828054610fa9906167d3565b8015610ff65780601f10610fcb57610100808354040283529160200191610ff6565b820191906000526020600020905b815481529060010190602001808311610fd957829003601f168201915b5050505050905085565b605081565b6000806000838152602001908152602001600020600101549050919050565b605081565b61103282611005565b61103b81614dc7565b6110458383614ddb565b505050565b600281565b61106367515d414290ef63a760c01b6145c9565b61107767408d4005470649cf60c01b6145c9565b61108b679c54a3cc10a34a3d60c01b6145c9565b6040517f08c379a00000000000000000000000000000000000000000000000000000000081526004016110bd90616876565b60405180910390fd5b605081565b600f81565b6110d8615a24565b6110ec67fb7138474997668360c01b614ebb565b61110067cabf37fb9b0fe09360c01b614ebb565b611114678f0d48f9169a161c60c01b614ebb565b611128676f1c6119a0e8189b60c01b614ebb565b6000600160008481526020019081526020016000206000015403611181576040517f08c379a0000000000000000000000000000000000000000000000000000000008152600401611178906168e2565b60405180910390fd5b611195671efbc114ca82ba3a60c01b614ebb565b6111a967b5e10ccf1dfb2cbf60c01b614ebb565b6111bd6724af5e47dd5e209b60c01b614ebb565b60016000838152602001908152602001600020604051806080016040529081600082015481526020016001820180546111f5906167d3565b80601f0160208091040260200160405190810160405280929190818152602001828054611221906167d3565b801561126e5780601f106112435761010080835404028352916020019161126e565b820191906000526020600020905b81548152906001019060200180831161125157829003601f168201915b50505050508152602001600282018054611287906167d3565b80601f01602080910402602001604051908101604052809291908181526020018280546112b3906167d3565b80156113005780601f106112d557610100808354040283529160200191611300565b820191906000526020600020905b8154815290600101906020018083116112e357829003601f168201915b505050505081526020016003820154815250509050919050565b603381565b6113336735dc9d0c045e8dea60c01b6145c9565b61134767b7dbf79ddba2cab760c01b6145c9565b61135b67825657e0d56be41860c01b6145c9565b600060026000858152602001908152602001600020905061138667dad7eba3d5ea0fc560c01b6145c9565b61139a673d21f2ecda879ac760c01b6145c9565b6113ae67febe2105280dea4660c01b6145c9565b8060000160009054906101000a900463ffffffff1663ffffffff168160000160089054906101000a900463ffffffff1663ffffffff161181600201546040516020016113fa9190616923565b604051602081830303815290604052604051602001611419919061698a565b60405160208183030381529060405290611469576040517f08c379a000000000000000000000000000000000000000000000000000000000815260040161146091906169bf565b60405180910390fd5b5061147e67198f1e6710f1936360c01b6145c9565b6114926708fddfcc5363932f60c01b6145c9565b6114a667ee4a48e3db8a324560c01b6145c9565b6114ba6785550dfb5a2fa17e60c01b6145c9565b6114c88160010154336126da565b81600201546040516020016114dd9190616923565b6040516020818303038152906040526040516020016114fc9190616a2d565b6040516020818303038152906040529061154c576040517f08c379a000000000000000000000000000000000000000000000000000000000815260040161154391906169bf565b60405180910390fd5b5061156167987f0dd0903d99a060c01b6145c9565b6115756765417f529339629360c01b6145c9565b611589671a036548b9454efa60c01b6145c9565b61159d678a81a5a89e7249f260c01b6145c9565b600015156115ab85856126da565b15151481600201546040516020016115c39190616923565b6040516020818303038152906040526040516020016115e29190616a88565b60405160208183030381529060405290611632576040517f08c379a000000000000000000000000000000000000000000000000000000000815260040161162991906169bf565b60405180910390fd5b506116476704fadf5af7278b0460c01b6145c9565b61165b67a15a5378dc28021c60c01b6145c9565b61166f6721fc27606240057c60c01b6145c9565b60008385604051602001611684929190616b42565b6040516020818303038152906040528051906020012090506116b067e67f2367de48a39660c01b6145c9565b6116c4673bba1b125be8f21a60c01b6145c9565b61173681836001015484600201546040516020016116e29190616923565b604051602081830303815290604052876040516020016117029190616b79565b604051602081830303815290604052604051602001611722929190616be0565b6040516020818303038152906040526145cc565b61174a67eb5bb2ac8e80d29b60c01b6145c9565b61175e6755ea1935824a5e1860c01b6145c9565b8280156117cf5750600015156003600083815260200190815260200160002060030160003373ffffffffffffffffffffffffffffffffffffffff1673ffffffffffffffffffffffffffffffffffffffff16815260200190815260200160002060009054906101000a900460ff161515145b15611890576117e8672a12cac354a8e82360c01b6145c9565b6117fc6767ec4da59fbc86a160c01b6145c9565b611810676efdddf06ded552e60c01b6145c9565b61182c6003600083815260200190815260200160002033614770565b611840678f6d07b51abb6a2460c01b6145c9565b61185467a14fb71ba5e7613f60c01b6145c9565b7fb431a69783a2491a0c400ff16dab32cd442abf8fe5af63a526a7248d730192f8816040516118839190615e3c565b60405180910390a1611996565b6118a467df7dd5880412d4b960c01b6145c9565b6118b8675ff1c5fac858eec960c01b6145c9565b6000151583151503611980576118d867fe26844b548a837860c01b6145c9565b6118ec6768a51f3c021201cb60c01b6145c9565b61190067a21e7ebe78774f9060c01b6145c9565b61191c60036000838152602001908152602001600020336149f2565b61193067cd288a479316cb8e60c01b6145c9565b61194467e62655d9c0da73f460c01b6145c9565b7fb431a69783a2491a0c400ff16dab32cd442abf8fe5af63a526a7248d730192f8816040516119739190615e3c565b60405180910390a1611995565b611994675d17b8d48239367360c01b6145c9565b5b5b6119aa67a680bcc96564015d60c01b6145c9565b6119be674108a0766fb3770f60c01b6145c9565b611a1882600001600c9054906101000a900460ff1660ff16600260008560010154815260200190815260200160002060000160009054906101000a900463ffffffff16611a0b9190616767565b63ffffffff166064613611565b6003600083815260200190815260200160002060020160009054906101000a900460ff1660ff1610611b8757611a586737c85746c2f8f06560c01b6145c9565b611a6c672011fab2eac0049160c01b6145c9565b611a806744a1b5a674d397ba60c01b6145c9565b611a9b60036000838152602001908152602001600020614baa565b611aaf67356380150091118d60c01b6145c9565b611ac367d1da6e531bb5433e60c01b6145c9565b7f562618dbcf74b61ae5b0f229fe40ba6d5b6ae6b4248f8c89a870dda7c77135f681604051611af29190615e3c565b60405180910390a1611b0e672ee69ee77814874360c01b6145c9565b611b22671b9e414ab197e55f60c01b6145c9565b611b2c8585614ddb565b611b406714f85a465318971d60c01b6145c9565b60018260000160008282829054906101000a900463ffffffff16611b649190616c22565b92506101000a81548163ffffffff021916908363ffffffff160217905550611b9c565b611b9b67e79b395de5e6d68460c01b6145c9565b5b5050505050565b60066020528060005260406000206000915090508060000160009054906101000a900460ff16908060000160019054906101000a900460ff16908060000160029054906101000a900460ff16908060010154908060020160009054906101000a900460ff16908060030154905086565b605081565b611c2c674aba95960958e73260c01b6145c9565b611c406730249e749f45b5e460c01b6145c9565b611c5467374dfd98b823c8cf60c01b6145c9565b611c686720270532058f02e560c01b6145c9565b611c927fd646ae07eb0d0f77457502a65e7407930dff4cd4fd99abc6aac87a753f4c8a42336126da565b611cd1576040517f08c379a0000000000000000000000000000000000000000000000000000000008152600401611cc8906164fa565b60405180910390fd5b611ce5679e04f1a5c5bda7df60c01b6145c9565b611cf967d618060faf473a2a60c01b6145c9565b611d0d6759aacab69e3a1cf860c01b6145c9565b611d21671f8604b2e035df8c60c01b6145c9565b6000600160008781526020019081526020016000206000015403611d7a576040517f08c379a0000000000000000000000000000000000000000000000000000000008152600401611d71906165d2565b60405180910390fd5b611d8e674341521415b393ff60c01b6145c9565b611da2673abda3db58ee88d660c01b6145c9565b611db667d0a65ecdfb35759e60c01b6145c9565b611dca67fecb9a5516d562ad60c01b6145c9565b60006003811115611dde57611ddd61602d565b5b846003811115611df157611df061602d565b5b10158015611e235750600380811115611e0d57611e0c61602d565b5b846003811115611e2057611e1f61602d565b5b11155b611e62576040517f08c379a0000000000000000000000000000000000000000000000000000000008152600401611e5990616ca6565b60405180910390fd5b611e766711522e4c80b8acf560c01b6145c9565b611e8a675a87c8131b0f347660c01b6145c9565b611e9e67b52e37c57f13f03660c01b6145c9565b611eb267c6bc374fa7feff0160c01b6145c9565b60006002811115611ec657611ec561602d565b5b836002811115611ed957611ed861602d565b5b10158015611f0b5750600280811115611ef557611ef461602d565b5b836002811115611f0857611f0761602d565b5b11155b611f4a576040517f08c379a0000000000000000000000000000000000000000000000000000000008152600401611f4190616d12565b60405180910390fd5b611f5e6786ac1e62d24a349860c01b6145c9565b611f72679e5c2cdd766b16de60c01b6145c9565b611f866753aaaf9320fe18fd60c01b6145c9565b611f9a67ab49e147b91272b360c01b6145c9565b6000600f811115611fae57611fad61602d565b5b82600f811115611fc157611fc061602d565b5b10158015611ff35750600f80811115611fdd57611fdc61602d565b5b82600f811115611ff057611fef61602d565b5b11155b612032576040517f08c379a000000000000000000000000000000000000000000000000000000000815260040161202990616d7e565b60405180910390fd5b612046679ab8a363c1db47f760c01b6145c9565b61205a67c80f0b231c338b2d60c01b6145c9565b61206e675397bbbeef836ad860c01b6145c9565b612082679b6d6670acbbe93360c01b6145c9565b6001151560066000878787876040516020016120a19493929190616e02565b60405160208183030381529060405280519060200120815260200190815260200160002060020160009054906101000a900460ff16151514612118576040517f08c379a000000000000000000000000000000000000000000000000000000000815260040161210f90616e9c565b60405180910390fd5b61212c678dba3cfcdd7ab4ab60c01b6145c9565b612140672e1f532eb4156eb560c01b6145c9565b61215467b763b8910a23efee60c01b6145c9565b60008585858560405160200161216d9493929190616f08565b60405160208183030381529060405280519060200120905061219967acd6a8c8f4d574b660c01b6145c9565b6121ad677697096d64270cdb60c01b6145c9565b612279817fd646ae07eb0d0f77457502a65e7407930dff4cd4fd99abc6aac87a753f4c8a42886040516020016121e39190616690565b604051602081830303815290604052886040516020016122039190616f61565b604051602081830303815290604052886040516020016122239190616f7c565b604051602081830303815290604052886040516020016122439190616f97565b6040516020818303038152906040526040516020016122659493929190616fd8565b6040516020818303038152906040526145cc565b61228d673318f6946f78197860c01b6145c9565b6122a167d4c4533d7e9a60a660c01b6145c9565b8180156123125750600015156003600083815260200190815260200160002060030160003373ffffffffffffffffffffffffffffffffffffffff1673ffffffffffffffffffffffffffffffffffffffff16815260200190815260200160002060009054906101000a900460ff161515145b156123d35761232b6732954512786739f560c01b6145c9565b61233f6724bcd6ffdfbd0d4d60c01b6145c9565b612353677338a703ca5a2a9660c01b6145c9565b61236f6003600083815260200190815260200160002033614770565b612383673b1e688b7d79d00d60c01b6145c9565b612397676bea465bb441461060c01b6145c9565b7fb431a69783a2491a0c400ff16dab32cd442abf8fe5af63a526a7248d730192f8816040516123c69190615e3c565b60405180910390a16124d9565b6123e767e8c1fa74bacd7fbb60c01b6145c9565b6123fb671f5319feb6477e3560c01b6145c9565b60001515821515036124c35761241b67f438d58dfb1be18260c01b6145c9565b61242f678ef10dcaeac9036f60c01b6145c9565b6124436735f2056c8483d80460c01b6145c9565b61245f60036000838152602001908152602001600020336149f2565b61247367c187d7d65cf65af260c01b6145c9565b61248767ade7a62c071e519d60c01b6145c9565b7fb431a69783a2491a0c400ff16dab32cd442abf8fe5af63a526a7248d730192f8816040516124b69190615e3c565b60405180910390a16124d8565b6124d7675439b2c4cd16482360c01b6145c9565b5b5b6124ed672f6377f918fc3e7460c01b6145c9565b6125016762c646c22c573f3e60c01b6145c9565b612567605060ff16600260007fd646ae07eb0d0f77457502a65e7407930dff4cd4fd99abc6aac87a753f4c8a42815260200190815260200160002060000160009054906101000a900463ffffffff1661255a9190616767565b63ffffffff166064613611565b6003600083815260200190815260200160002060020160009054906101000a900460ff1660ff16106126bd576125a767220ad4741fc3df5d60c01b6145c9565b6125bb6799a0b0988af0867760c01b6145c9565b6125cf675d49ac61be8ebd7160c01b6145c9565b6125ea60036000838152602001908152602001600020614baa565b6125fe67ac18a9a1ec69e6b860c01b6145c9565b61261267698bf9a5753ef89160c01b6145c9565b7f562618dbcf74b61ae5b0f229fe40ba6d5b6ae6b4248f8c89a870dda7c77135f6816040516126419190615e3c565b60405180910390a161265d674a780f79854977d860c01b6145c9565b6000600660008888888860405160200161267a9493929190616e02565b60405160208183030381529060405280519060200120815260200190815260200160002060020160006101000a81548160ff0219169083151502179055506126d2565b6126d16769ad2177cecd222f60c01b6145c9565b5b505050505050565b600080600084815260200190815260200160002060000160008373ffffffffffffffffffffffffffffffffffffffff1673ffffffffffffffffffffffffffffffffffffffff16815260200190815260200160002060009054906101000a900460ff16905092915050565b60046020528060005260406000206000915090505481565b600f81565b61277567efd429d53dea246260c01b6145c9565b61278967ef5c68bad402a4e060c01b6145c9565b61279d67b55b9f6d9d1026af60c01b6145c9565b6127b167c7765049f91a4ef760c01b6145c9565b6127db7fd646ae07eb0d0f77457502a65e7407930dff4cd4fd99abc6aac87a753f4c8a42336126da565b61281a576040517f08c379a0000000000000000000000000000000000000000000000000000000008152600401612811906164fa565b60405180910390fd5b61282e67a6d489319a22f36060c01b6145c9565b61284267a5644b271bdebd0560c01b6145c9565b6128566773766d50c37ae17460c01b6145c9565b61286a678b979d26b761488e60c01b6145c9565b600084116128ad576040517f08c379a00000000000000000000000000000000000000000000000000000000081526004016128a490616566565b60405180910390fd5b6128c1674773b74ca2dfd97760c01b6145c9565b6128d5673a3c8e3b93c77fd760c01b6145c9565b6128e967de5b5a61926c36c960c01b6145c9565b6128fd67fba333423761151560c01b6145c9565b6000835111612941576040517f08c379a00000000000000000000000000000000000000000000000000000000081526004016129389061709e565b60405180910390fd5b61295567a458fc201c41f2eb60c01b6145c9565b6129696732e4132dad12190060c01b6145c9565b61297d675903462ab1321cac60c01b6145c9565b6129916795a317ec06f83c1060c01b6145c9565b60008251116129d5576040517f08c379a00000000000000000000000000000000000000000000000000000000081526004016129cc9061710a565b60405180910390fd5b6129e967b1d4635b098ce77a60c01b6145c9565b6129fd67a0b843672511ab5560c01b6145c9565b612a11677c7927e4b5bd48f460c01b6145c9565b612a2567a4ebbaf8faac82d260c01b6145c9565b60008111612a68576040517f08c379a0000000000000000000000000000000000000000000000000000000008152600401612a5f90617176565b60405180910390fd5b612a7c6797b47e77a9a7b3fc60c01b6145c9565b612a9067758438fa606727d960c01b6145c9565b612aa467589e0c39053cad2660c01b6145c9565b612ab86759de4f2a505f6c6d60c01b6145c9565b6000600160008681526020019081526020016000206000015414612b11576040517f08c379a0000000000000000000000000000000000000000000000000000000008152600401612b08906171e2565b60405180910390fd5b612b25676d4a2d08a14ea23160c01b6145c9565b612b3967c3b37424d9c469d060c01b6145c9565b612b4d67740ce2464856c2b360c01b6145c9565b612b5984848484614ebe565b50505050565b6000801b81565b612b7a6714f96b5406597f9960c01b6145c9565b612b8e670df07991caef353d60c01b6145c9565b612ba267ae62ea1482f5a88360c01b6145c9565b612bb667163e0e75e54e0c8a60c01b6145c9565b612be07fd646ae07eb0d0f77457502a65e7407930dff4cd4fd99abc6aac87a753f4c8a42336126da565b612c1f576040517f08c379a0000000000000000000000000000000000000000000000000000000008152600401612c16906164fa565b60405180910390fd5b612c3367a4e6a19cbfe5167960c01b6145c9565b612c47675c78a7177eb1a8fb60c01b6145c9565b612c5b67bf4499ff51c0c22160c01b6145c9565b612c6f67822948be4d3ef9a760c01b6145c9565b6000600160008781526020019081526020016000206000015403612cc8576040517f08c379a0000000000000000000000000000000000000000000000000000000008152600401612cbf906165d2565b60405180910390fd5b612cdc6796129956313adf1b60c01b6145c9565b612cf067a37df02138054e5260c01b6145c9565b612d0467b057154329c49bf860c01b6145c9565b612d1867e3a8e90515cce0b760c01b6145c9565b60006003811115612d2c57612d2b61602d565b5b846003811115612d3f57612d3e61602d565b5b10158015612d715750600380811115612d5b57612d5a61602d565b5b846003811115612d6e57612d6d61602d565b5b11155b612db0576040517f08c379a0000000000000000000000000000000000000000000000000000000008152600401612da790616ca6565b60405180910390fd5b612dc467b5a228e10270e22560c01b6145c9565b612dd8673ddb288b7f8fde5860c01b6145c9565b612dec6728ffed5c4bbb136d60c01b6145c9565b612e00671a14e86b1536e0c460c01b6145c9565b60006002811115612e1457612e1361602d565b5b836002811115612e2757612e2661602d565b5b10158015612e595750600280811115612e4357612e4261602d565b5b836002811115612e5657612e5561602d565b5b11155b612e98576040517f08c379a0000000000000000000000000000000000000000000000000000000008152600401612e8f90616d12565b60405180910390fd5b612eac678190894182f1322760c01b6145c9565b612ec0675e914cc764a08bdc60c01b6145c9565b612ed46759cb1221e0215d5e60c01b6145c9565b612ee8676d76b91fe9de0f8c60c01b6145c9565b6000600f811115612efc57612efb61602d565b5b82600f811115612f0f57612f0e61602d565b5b10158015612f415750600f80811115612f2b57612f2a61602d565b5b82600f811115612f3e57612f3d61602d565b5b11155b612f80576040517f08c379a0000000000000000000000000000000000000000000000000000000008152600401612f7790616d7e565b60405180910390fd5b612f9467bdf8a12455256e9760c01b6145c9565b612fa867ed9c0b858915e64660c01b6145c9565b612fbc67649bd458a200725760c01b6145c9565b612fd0670b6b16ea080ccdb260c01b6145c9565b600015156006600087878787604051602001612fef9493929190616e02565b60405160208183030381529060405280519060200120815260200190815260200160002060020160009054906101000a900460ff16151514613066576040517f08c379a000000000000000000000000000000000000000000000000000000000815260040161305d9061724e565b60405180910390fd5b61307a67689b85ae64f251bf60c01b6145c9565b61308e6735e2a6e6763de1be60c01b6145c9565b6130a26709e04ae92e1584c060c01b6145c9565b6000858585856040516020016130bb94939291906172ba565b6040516020818303038152906040528051906020012090506130e7672117bb302f321a4960c01b6145c9565b6130fb67918f30a7fad8441260c01b6145c9565b6131c7817fd646ae07eb0d0f77457502a65e7407930dff4cd4fd99abc6aac87a753f4c8a42886040516020016131319190616690565b604051602081830303815290604052886040516020016131519190616f61565b604051602081830303815290604052886040516020016131719190616f7c565b604051602081830303815290604052886040516020016131919190616f97565b6040516020818303038152906040526040516020016131b39493929190617339565b6040516020818303038152906040526145cc565b6131db679d26a0bcae16f15560c01b6145c9565b6131ef6762560a22786c9d8960c01b6145c9565b8180156132605750600015156003600083815260200190815260200160002060030160003373ffffffffffffffffffffffffffffffffffffffff1673ffffffffffffffffffffffffffffffffffffffff16815260200190815260200160002060009054906101000a900460ff161515145b1561332157613279676ad05dd6ad0c5e8e60c01b6145c9565b61328d67b018fb771a8f126a60c01b6145c9565b6132a1673838e17e05cad86e60c01b6145c9565b6132bd6003600083815260200190815260200160002033614770565b6132d1673b992ef7312a36a260c01b6145c9565b6132e567d1937d9a9d9ede4b60c01b6145c9565b7fb431a69783a2491a0c400ff16dab32cd442abf8fe5af63a526a7248d730192f8816040516133149190615e3c565b60405180910390a1613427565b61333567eba93d2f1c3a372560c01b6145c9565b61334967e583d3490fb5c11a60c01b6145c9565b6000151582151503613411576133696703c216aef0914c7d60c01b6145c9565b61337d67e929230dacd39fc460c01b6145c9565b61339167f0423ad893494d1f60c01b6145c9565b6133ad60036000838152602001908152602001600020336149f2565b6133c1670e4635f8420cba4d60c01b6145c9565b6133d567a8f356ae64e80fb260c01b6145c9565b7fb431a69783a2491a0c400ff16dab32cd442abf8fe5af63a526a7248d730192f8816040516134049190615e3c565b60405180910390a1613426565b6134256787081979864afeae60c01b6145c9565b5b5b61343b677547dde3e6de66c160c01b6145c9565b61344f6776a3d74fa8fa545760c01b6145c9565b6134b5603360ff16600260007fd646ae07eb0d0f77457502a65e7407930dff4cd4fd99abc6aac87a753f4c8a42815260200190815260200160002060000160009054906101000a900463ffffffff166134a89190616767565b63ffffffff166064613611565b6003600083815260200190815260200160002060020160009054906101000a900460ff1660ff16106135d0576134f5674ed9ea8c9338f00060c01b6145c9565b613509679baa3422236fc69f60c01b6145c9565b61351d67c5044043363bb23760c01b6145c9565b61353860036000838152602001908152602001600020614baa565b61354c67bfc6b0f370d7024960c01b6145c9565b613560679ccb8433f30b7f6160c01b6145c9565b7f562618dbcf74b61ae5b0f229fe40ba6d5b6ae6b4248f8c89a870dda7c77135f68160405161358f9190615e3c565b60405180910390a16135ab670842a97201189b8b60c01b6145c9565b6135bf67ca8d401c43f5f9d760c01b6145c9565b6135cb86868686614fc8565b6135e5565b6135e467e22dcaa2865f121160c01b6145c9565b5b505050505050565b7fd646ae07eb0d0f77457502a65e7407930dff4cd4fd99abc6aac87a753f4c8a4281565b600061362767171d99280850d93c60c01b6151c7565b61363b671f1ce49847f98dcc60c01b6151c7565b61364f67ee187a4831fc40a060c01b6151c7565b6000828461365d91906173e2565b036136b15761367667b04b052c3829f66960c01b6151c7565b61368a674689b2288e41404460c01b6151c7565b61369e677b89166db061c85d60c01b6151c7565b81836136aa9190617413565b9050613708565b6136c567ac3b39e2188a30ca60c01b6151c7565b6136d96749ab266d1fee3fed60c01b6151c7565b6136ed673b294661b66e36a560c01b6151c7565b600182846136fb9190617413565b6137059190617444565b90505b92915050565b6137226771868017dd9ea9a260c01b6145c9565b61373667ab1bd67fcc0dc4e660c01b6145c9565b61374a6714693ce83117a4a660c01b6145c9565b61375e671ee91d41820de70160c01b6145c9565b6137887fd646ae07eb0d0f77457502a65e7407930dff4cd4fd99abc6aac87a753f4c8a42336126da565b6137c7576040517f08c379a00000000000000000000000000000000000000000000000000000000081526004016137be906164fa565b60405180910390fd5b6137db6765714ee521157c1660c01b6145c9565b6137ef67647b5b224d6b094960c01b6145c9565b6138036765b7e103c94a229d60c01b6145c9565b6138176712792db49bd8000860c01b6145c9565b6000841161385a576040517f08c379a000000000000000000000000000000000000000000000000000000000815260040161385190616566565b60405180910390fd5b61386e673a5a274be22801d260c01b6145c9565b61388267493634455e2d80e960c01b6145c9565b613896671175e050037a7c2760c01b6145c9565b6138aa675137f0b970b59aa760c01b6145c9565b6000600160008681526020019081526020016000206000015403613903576040517f08c379a00000000000000000000000000000000000000000000000000000000081526004016138fa906165d2565b60405180910390fd5b613917677ba3d7ad982f17c160c01b6145c9565b61392b675ff2fe70f0a1650860c01b6145c9565b61393f6739d9fb6b575ba4e360c01b6145c9565b61394b848484846151ca565b50505050565b605081565b61396a675ea5fd91e72c501360c01b6145c9565b61397e6740b5effbe6fbc4ba60c01b6145c9565b61399267d72dd4e9f32df2a660c01b6145c9565b60006002600085815260200190815260200160002090506139bd670ed0a2a914fd84f760c01b6145c9565b6139d16787de25c771ec258260c01b6145c9565b6139e5679a8cdfcabcb0dacb60c01b6145c9565b8060000160049054906101000a900463ffffffff1663ffffffff168160000160009054906101000a900463ffffffff1663ffffffff16118160020154604051602001613a319190616923565b604051602081830303815290604052604051602001613a50919061749e565b60405160208183030381529060405290613aa0576040517f08c379a0000000000000000000000000000000000000000000000000000000008152600401613a9791906169bf565b60405180910390fd5b50613ab567772e58326b3683ce60c01b6145c9565b613ac967f33d304923bb8f1760c01b6145c9565b613add6730dbd22aa968d27a60c01b6145c9565b613af1671045bc06e9ec4a8360c01b6145c9565b613afb84846126da565b8160020154604051602001613b109190616923565b604051602081830303815290604052604051602001613b2f91906174f9565b60405160208183030381529060405290613b7f576040517f08c379a0000000000000000000000000000000000000000000000000000000008152600401613b7691906169bf565b60405180910390fd5b50613b9467bf20874ded53a20860c01b6145c9565b613ba867e36f7f130cb3f21360c01b6145c9565b613bbc6715bd5e551d188d8360c01b6145c9565b613bd067580bbbb9ccbb13be60c01b6145c9565b613bde8160010154336126da565b8160020154604051602001613bf39190616923565b604051602081830303815290604052604051602001613c129190616a2d565b60405160208183030381529060405290613c62576040517f08c379a0000000000000000000000000000000000000000000000000000000008152600401613c5991906169bf565b60405180910390fd5b50613c776766006dd0f09419f560c01b6145c9565b613c8b6720ceeb0471d394b660c01b6145c9565b613c9f67213863767febee4a60c01b6145c9565b60008385604051602001613cb492919061756b565b604051602081830303815290604052805190602001209050613ce0672d86523e849fc68d60c01b6145c9565b613cf467689f9d36814699ed60c01b6145c9565b613d668183600101548460020154604051602001613d129190616923565b60405160208183030381529060405287604051602001613d329190616b79565b604051602081830303815290604052604051602001613d529291906175c8565b6040516020818303038152906040526145cc565b613d7a67f194d1ffc0447ea960c01b6145c9565b613d8e6789a333387d41a6b660c01b6145c9565b828015613dff5750600015156003600083815260200190815260200160002060030160003373ffffffffffffffffffffffffffffffffffffffff1673ffffffffffffffffffffffffffffffffffffffff16815260200190815260200160002060009054906101000a900460ff161515145b15613ec057613e18675da07d83cb2bab9d60c01b6145c9565b613e2c67f25ac83becfb3ba860c01b6145c9565b613e4067386935278dae822660c01b6145c9565b613e5c6003600083815260200190815260200160002033614770565b613e7067ccb3b5b8af78b2cb60c01b6145c9565b613e8467e0f5824ede3cb57d60c01b6145c9565b7fb431a69783a2491a0c400ff16dab32cd442abf8fe5af63a526a7248d730192f881604051613eb39190615e3c565b60405180910390a1613fc6565b613ed467f4b14bead3785a6660c01b6145c9565b613ee86743d8ba5b87e2e64860c01b6145c9565b6000151583151503613fb057613f08675882f3b1b847165d60c01b6145c9565b613f1c67ec6dbc09e6a8d3c360c01b6145c9565b613f306787fec01562de0d7760c01b6145c9565b613f4c60036000838152602001908152602001600020336149f2565b613f6067b815fa764d360f8060c01b6145c9565b613f74676c848ca2d28cc2e760c01b6145c9565b7fb431a69783a2491a0c400ff16dab32cd442abf8fe5af63a526a7248d730192f881604051613fa39190615e3c565b60405180910390a1613fc5565b613fc46762a5c10409c68fa660c01b6145c9565b5b5b613fda6767be7bcfb8b646a360c01b6145c9565b613fee67ab4b51ef7195398660c01b6145c9565b81600101548514158015614081575061405782600001600d9054906101000a900460ff1660ff16600260008560010154815260200190815260200160002060000160009054906101000a900463ffffffff1661404a9190616767565b63ffffffff166064613611565b6003600083815260200190815260200160002060020160009054906101000a900460ff1660ff1610155b801561409d575061409c6745513953a8aaed3b60c01b61563f565b5b8061415e5750816001015485148015614141575061411782600001600d9054906101000a900460ff1660ff166001600260008660010154815260200190815260200160002060000160009054906101000a900463ffffffff16614100919061760a565b61410a9190616767565b63ffffffff166064613611565b6003600083815260200190815260200160002060020160009054906101000a900460ff1660ff1610155b801561415d575061415c67a0247630c45fc01060c01b61563f565b5b5b156144fe5761417767cb56c9dffef6c09b60c01b6145c9565b61418b670f6c466182e7daf460c01b6145c9565b61419f6796af1b9e171f5d0c60c01b6145c9565b60005b6005548110156143ce576141c0676ea5a5cfdd40ca7760c01b6145c9565b6141d46734c805801ad925b460c01b6145c9565b60011515600360006004600085815260200190815260200160002054815260200190815260200160002060030160008773ffffffffffffffffffffffffffffffffffffffff1673ffffffffffffffffffffffffffffffffffffffff16815260200190815260200160002060009054906101000a900460ff161515148015614283575085600360006004600085815260200190815260200160002054815260200190815260200160002060010154145b156143a65761429c67de2808851ea8535860c01b6145c9565b6142b0677ab469cc82d327c160c01b6145c9565b6001600360006004600085815260200190815260200160002054815260200190815260200160002060020160008282829054906101000a900460ff166142f69190617642565b92506101000a81548160ff021916908360ff1602179055506143226734fccb1c2034803560c01b6145c9565b6000600360006004600085815260200190815260200160002054815260200190815260200160002060030160008773ffffffffffffffffffffffffffffffffffffffff1673ffffffffffffffffffffffffffffffffffffffff16815260200190815260200160002060006101000a81548160ff0219169083151502179055506143bb565b6143ba67fc92d0035d00688e60c01b6145c9565b5b80806143c690617677565b9150506141a2565b506143e367e5a91bfc65f0c4b160c01b6145c9565b6143f7674900a3687504079c60c01b6145c9565b61441260036000838152602001908152602001600020614baa565b614426674fce23ae6bb9dc7f60c01b6145c9565b61443a67a37f82e1ae7b555d60c01b6145c9565b7f562618dbcf74b61ae5b0f229fe40ba6d5b6ae6b4248f8c89a870dda7c77135f6816040516144699190615e3c565b60405180910390a161448567db9f0c54e294074460c01b6145c9565b61449967e392881a64b85dd960c01b6145c9565b6144a3858561564a565b6144b7673b69b5f7da0fc98560c01b6145c9565b60018260000160008282829054906101000a900463ffffffff166144db919061760a565b92506101000a81548163ffffffff021916908363ffffffff160217905550614513565b6145126739878fdc39193a5c60c01b6145c9565b5b5050505050565b61452382611005565b61452c81614dc7565b614536838361564a565b505050565b7f4bbeb6fd3e5222e55f2f8b0c35bc228e0a06a25d0da772fdb02c3b92fa004f8881565b60007f01ffc9a7000000000000000000000000000000000000000000000000000000007bffffffffffffffffffffffffffffffffffffffffffffffffffffffff1916827bffffffffffffffffffffffffffffffffffffffffffffffffffffffff1916149050919050565b50565b6145e06707b5a83c26feac2860c01b6145c9565b6145f467d285a5263ec8e0f560c01b6145c9565b6146086705e4cbcc73c151f360c01b6145c9565b600015156003600085815260200190815260200160002060000160009054906101000a900460ff161515036147565761464b6760f35a062167334760c01b6145c9565b61465f676596486d69562b7760c01b6145c9565b60016003600085815260200190815260200160002060000160006101000a81548160ff0219169083151502179055506146a267acefc79e49d8d98e60c01b6145c9565b82600460006005548152602001908152602001600020819055506146d0670f1dd76d34c817f860c01b6145c9565b6001600560008282546146e39190617444565b925050819055506146fe676751378d318e7c4060c01b6145c9565b81600360008581526020019081526020016000206001018190555061472d674f87efa02c74e0f260c01b6145c9565b80600360008581526020019081526020016000206005019081614750919061786b565b5061476b565b61476a67df9346bf5f7ff81560c01b6145c9565b5b505050565b61478467797c64b14075c8f960c01b61572b565b61479867ac145f749c9e99c160c01b61572b565b6147ac67b695eb22eefba2bf60c01b61572b565b6147c067fcb479ff5aeb66b560c01b61572b565b600015158260030160008373ffffffffffffffffffffffffffffffffffffffff1673ffffffffffffffffffffffffffffffffffffffff16815260200190815260200160002060009054906101000a900460ff16151514614855576040517f08c379a000000000000000000000000000000000000000000000000000000000815260040161484c90617989565b60405180910390fd5b614869675bc11c9de63db59560c01b61572b565b61487d676be8a1c3691fad8b60c01b61572b565b808260040160008460020160019054906101000a900460ff1660ff16815260200190815260200160002060006101000a81548173ffffffffffffffffffffffffffffffffffffffff021916908373ffffffffffffffffffffffffffffffffffffffff1602179055506148f9671a4585e7f05081b360c01b61572b565b81600201600181819054906101000a900460ff168092919061491a906179a9565b91906101000a81548160ff021916908360ff1602179055505061494767b25fdccc717fd03460c01b61572b565b60018260030160008373ffffffffffffffffffffffffffffffffffffffff1673ffffffffffffffffffffffffffffffffffffffff16815260200190815260200160002060006101000a81548160ff0219169083151502179055506149b5671462dd328c4718ac60c01b61572b565b60018260020160008282829054906101000a900460ff166149d691906179d2565b92506101000a81548160ff021916908360ff1602179055505050565b614a06675d04d83d8dde623260c01b61572b565b614a1a67d3245e2d553e4f4d60c01b61572b565b614a2e670779cd5c9944b98260c01b61572b565b614a4267c1b2f784a22f15e160c01b61572b565b600115158260030160008373ffffffffffffffffffffffffffffffffffffffff1673ffffffffffffffffffffffffffffffffffffffff16815260200190815260200160002060009054906101000a900460ff16151514614ad7576040517f08c379a0000000000000000000000000000000000000000000000000000000008152600401614ace90617a79565b60405180910390fd5b614aeb67b9bc76488916507360c01b61572b565b614aff67405798a3de3077e160c01b61572b565b60008260030160008373ffffffffffffffffffffffffffffffffffffffff1673ffffffffffffffffffffffffffffffffffffffff16815260200190815260200160002060006101000a81548160ff021916908315150217905550614b6d67362f4144a4dbb29660c01b61572b565b60018260020160008282829054906101000a900460ff16614b8e9190617642565b92506101000a81548160ff021916908360ff1602179055505050565b614bbe67644df46897ff8c4560c01b61572b565b614bd26730a71e31c726828d60c01b61572b565b60008160020160006101000a81548160ff021916908360ff160217905550614c046710846983d352cded60c01b61572b565b614c1867f73822457046625560c01b61572b565b60005b8160020160019054906101000a900460ff1660ff168160ff161015614cf357614c4e677e83ee00cb15687860c01b61572b565b60008260030160008460040160008560ff16815260200190815260200160002060009054906101000a900473ffffffffffffffffffffffffffffffffffffffff1673ffffffffffffffffffffffffffffffffffffffff1673ffffffffffffffffffffffffffffffffffffffff16815260200190815260200160002060006101000a81548160ff0219169083151502179055508080614ceb906179a9565b915050614c1b565b5050565b614d0b67b5b158cd02c2fb4b60c01b614ebb565b614d1f67a1ea6a203d9b892560c01b614ebb565b60016000828152602001908152602001600020600080820160009055600182016000614d4b9190615a4c565b600282016000614d5b9190615a4c565b60038201600090555050614d79675ac7e0755718f33860c01b614ebb565b614d8d670404365a798c3bee60c01b614ebb565b7f34de6b871245ed0a89b82912e8e5ee6d9c3104b3e5bb1d67a71ad7e68239e41c81604051614dbc9190616493565b60405180910390a150565b614dd881614dd361572e565b615736565b50565b614de582826126da565b614eb757600160008084815260200190815260200160002060000160008373ffffffffffffffffffffffffffffffffffffffff1673ffffffffffffffffffffffffffffffffffffffff16815260200190815260200160002060006101000a81548160ff021916908315150217905550614e5c61572e565b73ffffffffffffffffffffffffffffffffffffffff168173ffffffffffffffffffffffffffffffffffffffff16837f2f8788117e7eff1d82e926ec794901d17c78024a50270940304540a733656f0d60405160405180910390a45b5050565b50565b614ed2672197159ad936e06660c01b614ebb565b614ee66710506af5eb8dbd9360c01b614ebb565b60405180608001604052808581526020018481526020018381526020018281525060016000868152602001908152602001600020600082015181600001556020820151816001019081614f39919061786b565b506040820151816002019081614f4f919061786b565b5060608201518160030155905050614f7167479521140d75f96060c01b614ebb565b614f85674a0abbdd4bfb40f360c01b614ebb565b7fb6767d1c89515962142b00b5577569c92a74381d9441a528911c66e0c3cea1f884848484604051614fba9493929190615ce6565b60405180910390a150505050565b614fdc67248dca5c34ff865b60c01b6145c9565b614ff06752d84047f7ec1fd860c01b6145c9565b6040518060c0016040528084600381111561500e5761500d61602d565b5b81526020018360028111156150265761502561602d565b5b815260200182600f81111561503e5761503d61602d565b5b81526020014281526020016001151581526020018581525060066000868686866040516020016150719493929190616e02565b60405160208183030381529060405280519060200120815260200190815260200160002060008201518160000160006101000a81548160ff021916908360038111156150c0576150bf61602d565b5b021790555060208201518160000160016101000a81548160ff021916908360028111156150f0576150ef61602d565b5b021790555060408201518160000160026101000a81548160ff0219169083600f8111156151205761511f61602d565b5b02179055506060820151816001015560808201518160020160006101000a81548160ff02191690831515021790555060a0820151816003015590505061517067ae030a65c15f875560c01b6145c9565b615184674dbd682bd4fc310660c01b6145c9565b7fb55811dd01470a227956304b027c610c7cdf9dd622dcc47791380261d56dc6ed848484846040516151b99493929190617a99565b60405180910390a150505050565b50565b6151de678f52ef164f30557160c01b614ebb565b6151f26796e591cc4057d14160c01b614ebb565b6152066708507b1a7ed5d4af60c01b614ebb565b61521a67559f3e42497b232560c01b614ebb565b6000600160008681526020019081526020016000206000015403615273576040517f08c379a000000000000000000000000000000000000000000000000000000000815260040161526a90617b2a565b60405180910390fd5b6152876728097c31405ae1f360c01b614ebb565b61529b673c7b5fe1417d860b60c01b614ebb565b6152af67c98d308dd86a644b60c01b614ebb565b600160008581526020019081526020016000206001016040516020016152d59190617bcd565b60405160208183030381529060405280519060200120836040516020016152fc9190617be4565b604051602081830303815290604052805190602001201415801561536a575060405160200161532a90617c21565b60405160208183030381529060405280519060200120836040516020016153519190617be4565b6040516020818303038152906040528051906020012014155b156153c057615383678571e9a913979a0160c01b614ebb565b61539767d9f02e438eeb9bdb60c01b614ebb565b826001600086815260200190815260200160002060010190816153ba919061786b565b506153d5565b6153d4670fc1ccf2c3e5a43d60c01b614ebb565b5b6153e967120ca5c9cebebfb860c01b614ebb565b6153fd672ca296637aa2ca0460c01b614ebb565b600160008581526020019081526020016000206002016040516020016154239190617bcd565b604051602081830303815290604052805190602001208260405160200161544a9190617be4565b60405160208183030381529060405280519060200120141580156154b8575060405160200161547890617c21565b604051602081830303815290604052805190602001208260405160200161549f9190617be4565b6040516020818303038152906040528051906020012014155b1561550e576154d1676578dfbde5bca09660c01b614ebb565b6154e5678d1d7f67bc5e936560c01b614ebb565b81600160008681526020019081526020016000206002019081615508919061786b565b50615523565b615522672d3ef2662851587c60c01b614ebb565b5b6155376767fb5d25c227c3ec60c01b614ebb565b61554b6743e5feeb1299172560c01b614ebb565b60016000858152602001908152602001600020600301548114158015615572575060008114155b156155bf5761558b67d26d79b8805f390660c01b614ebb565b61559f67ee045ade4a472cb760c01b614ebb565b8060016000868152602001908152602001600020600301819055506155d4565b6155d367fcc4096a20e6949f60c01b614ebb565b5b6155e8677a3bf015895a932e60c01b614ebb565b6155fc6725d22f3bc4f6e9bb60c01b614ebb565b7f03e10a3f40e9af2a5e61cb5a3de55fd67286470c35b3cf345b04a83cf3f49077848484846040516156319493929190615ce6565b60405180910390a150505050565b600060019050919050565b61565482826126da565b1561572757600080600084815260200190815260200160002060000160008373ffffffffffffffffffffffffffffffffffffffff1673ffffffffffffffffffffffffffffffffffffffff16815260200190815260200160002060006101000a81548160ff0219169083151502179055506156cc61572e565b73ffffffffffffffffffffffffffffffffffffffff168173ffffffffffffffffffffffffffffffffffffffff16837ff6391f5c32d9c69d2a47ea670b442974b53935d1edc7fd64eb21e047a839171b60405160405180910390a45b5050565b50565b600033905090565b61574082826126da565b6157b75761574d816157bb565b61575b8360001c60206157e8565b60405160200161576c929190617cce565b6040516020818303038152906040526040517f08c379a00000000000000000000000000000000000000000000000000000000081526004016157ae91906169bf565b60405180910390fd5b5050565b60606157e18273ffffffffffffffffffffffffffffffffffffffff16601460ff166157e8565b9050919050565b6060600060028360026157fb9190617d08565b6158059190617444565b67ffffffffffffffff81111561581e5761581d616289565b5b6040519080825280601f01601f1916602001820160405280156158505781602001600182028036833780820191505090505b5090507f30000000000000000000000000000000000000000000000000000000000000008160008151811061588857615887617d4a565b5b60200101907effffffffffffffffffffffffffffffffffffffffffffffffffffffffffffff1916908160001a9053507f7800000000000000000000000000000000000000000000000000000000000000816001815181106158ec576158eb617d4a565b5b60200101907effffffffffffffffffffffffffffffffffffffffffffffffffffffffffffff1916908160001a9053506000600184600261592c9190617d08565b6159369190617444565b90505b60018111156159d6577f3031323334353637383961626364656600000000000000000000000000000000600f86166010811061597857615977617d4a565b5b1a60f81b82828151811061598f5761598e617d4a565b5b60200101907effffffffffffffffffffffffffffffffffffffffffffffffffffffffffffff1916908160001a905350600485901c9450806159cf90617d79565b9050615939565b5060008414615a1a576040517f08c379a0000000000000000000000000000000000000000000000000000000008152600401615a1190617dee565b60405180910390fd5b8091505092915050565b6040518060800160405280600081526020016060815260200160608152602001600081525090565b508054615a58906167d3565b6000825580601f10615a6a5750615a89565b601f016020900490600052602060002090810190615a889190615a8c565b5b50565b5b80821115615aa5576000816000905550600101615a8d565b5090565b6000604051905090565b600080fd5b600080fd5b60007fffffffff0000000000000000000000000000000000000000000000000000000082169050919050565b615af281615abd565b8114615afd57600080fd5b50565b600081359050615b0f81615ae9565b92915050565b600060208284031215615b2b57615b2a615ab3565b5b6000615b3984828501615b00565b91505092915050565b60008115159050919050565b615b5781615b42565b82525050565b6000602082019050615b726000830184615b4e565b92915050565b6000819050919050565b615b8b81615b78565b8114615b9657600080fd5b50565b600081359050615ba881615b82565b92915050565b615bb781615b42565b8114615bc257600080fd5b50565b600081359050615bd481615bae565b92915050565b60008060408385031215615bf157615bf0615ab3565b5b6000615bff85828601615b99565b9250506020615c1085828601615bc5565b9150509250929050565b600060208284031215615c3057615c2f615ab3565b5b6000615c3e84828501615b99565b91505092915050565b615c5081615b78565b82525050565b600081519050919050565b600082825260208201905092915050565b60005b83811015615c90578082015181840152602081019050615c75565b60008484015250505050565b6000601f19601f8301169050919050565b6000615cb882615c56565b615cc28185615c61565b9350615cd2818560208601615c72565b615cdb81615c9c565b840191505092915050565b6000608082019050615cfb6000830187615c47565b8181036020830152615d0d8186615cad565b90508181036040830152615d218185615cad565b9050615d306060830184615c47565b95945050505050565b600060ff82169050919050565b615d4f81615d39565b82525050565b6000602082019050615d6a6000830184615d46565b92915050565b6000819050919050565b615d8381615d70565b8114615d8e57600080fd5b50565b600081359050615da081615d7a565b92915050565b600060208284031215615dbc57615dbb615ab3565b5b6000615dca84828501615d91565b91505092915050565b615ddc81615d70565b82525050565b600060a082019050615df76000830188615b4e565b615e046020830187615dd3565b615e116040830186615d46565b615e1e6060830185615d46565b8181036080830152615e308184615cad565b90509695505050505050565b6000602082019050615e516000830184615dd3565b92915050565b600073ffffffffffffffffffffffffffffffffffffffff82169050919050565b6000615e8282615e57565b9050919050565b615e9281615e77565b8114615e9d57600080fd5b50565b600081359050615eaf81615e89565b92915050565b60008060408385031215615ecc57615ecb615ab3565b5b6000615eda85828601615d91565b9250506020615eeb85828601615ea0565b9150509250929050565b615efe81615b78565b82525050565b600082825260208201905092915050565b6000615f2082615c56565b615f2a8185615f04565b9350615f3a818560208601615c72565b615f4381615c9c565b840191505092915050565b6000608083016000830151615f666000860182615ef5565b5060208301518482036020860152615f7e8282615f15565b91505060408301518482036040860152615f988282615f15565b9150506060830151615fad6060860182615ef5565b508091505092915050565b60006020820190508181036000830152615fd28184615f4e565b905092915050565b600080600060608486031215615ff357615ff2615ab3565b5b600061600186828701615d91565b935050602061601286828701615ea0565b925050604061602386828701615bc5565b9150509250925092565b7f4e487b7100000000000000000000000000000000000000000000000000000000600052602160045260246000fd5b6004811061606d5761606c61602d565b5b50565b600081905061607e8261605c565b919050565b600061608e82616070565b9050919050565b61609e81616083565b82525050565b600381106160b5576160b461602d565b5b50565b60008190506160c6826160a4565b919050565b60006160d6826160b8565b9050919050565b6160e6816160cb565b82525050565b601081106160fd576160fc61602d565b5b50565b600081905061610e826160ec565b919050565b600061611e82616100565b9050919050565b61612e81616113565b82525050565b600060c0820190506161496000830189616095565b61615660208301886160dd565b6161636040830187616125565b6161706060830186615c47565b61617d6080830185615b4e565b61618a60a0830184615c47565b979650505050505050565b600481106161a257600080fd5b50565b6000813590506161b481616195565b92915050565b600381106161c757600080fd5b50565b6000813590506161d9816161ba565b92915050565b601081106161ec57600080fd5b50565b6000813590506161fe816161df565b92915050565b600080600080600060a086880312156162205761621f615ab3565b5b600061622e88828901615b99565b955050602061623f888289016161a5565b9450506040616250888289016161ca565b9350506060616261888289016161ef565b925050608061627288828901615bc5565b9150509295509295909350565b600080fd5b600080fd5b7f4e487b7100000000000000000000000000000000000000000000000000000000600052604160045260246000fd5b6162c182615c9c565b810181811067ffffffffffffffff821117156162e0576162df616289565b5b80604052505050565b60006162f3615aa9565b90506162ff82826162b8565b919050565b600067ffffffffffffffff82111561631f5761631e616289565b5b61632882615c9c565b9050602081019050919050565b82818337600083830152505050565b600061635761635284616304565b6162e9565b90508281526020810184848401111561637357616372616284565b5b61637e848285616335565b509392505050565b600082601f83011261639b5761639a61627f565b5b81356163ab848260208601616344565b91505092915050565b600080600080608085870312156163ce576163cd615ab3565b5b60006163dc87828801615b99565b945050602085013567ffffffffffffffff8111156163fd576163fc615ab8565b5b61640987828801616386565b935050604085013567ffffffffffffffff81111561642a57616429615ab8565b5b61643687828801616386565b925050606061644787828801615b99565b91505092959194509250565b6000806040838503121561646a57616469615ab3565b5b600061647885828601615b99565b925050602061648985828601615b99565b9150509250929050565b60006020820190506164a86000830184615c47565b92915050565b7f43616c6c6572206973206e6f7420612063657274696669657200000000000000600082015250565b60006164e4601983615c61565b91506164ef826164ae565b602082019050919050565b60006020820190508181036000830152616513816164d7565b9050919050565b7f4964206d7573742062652067726561746572207468616e203000000000000000600082015250565b6000616550601983615c61565b915061655b8261651a565b602082019050919050565b6000602082019050818103600083015261657f81616543565b9050919050565b7f546869732073747564656e7420646f65736e2774206578697374000000000000600082015250565b60006165bc601a83615c61565b91506165c782616586565b602082019050919050565b600060208201905081810360008301526165eb816165af565b9050919050565b6000819050919050565b61660d61660882615b78565b6165f2565b82525050565b600081905092915050565b7f44454c4554452053545544454e54000000000000000000000000000000000000600082015250565b6000616654600e83616613565b915061665f8261661e565b600e82019050919050565b600061667682846165fc565b60208201915061668582616647565b915081905092915050565b600061669c82846165fc565b60208201915081905092915050565b7f44656c6574652073747564656e74200000000000000000000000000000000000815250565b60006166dc82615c56565b6166e68185616613565b93506166f6818560208601615c72565b80840191505092915050565b600061670d826166ab565b600f8201915061671d82846166d1565b915081905092915050565b600063ffffffff82169050919050565b7f4e487b7100000000000000000000000000000000000000000000000000000000600052601160045260246000fd5b600061677282616728565b915061677d83616728565b925082820261678b81616728565b915080821461679d5761679c616738565b5b5092915050565b7f4e487b7100000000000000000000000000000000000000000000000000000000600052602260045260246000fd5b600060028204905060018216806167eb57607f821691505b6020821081036167fe576167fd6167a4565b5b50919050565b7f596f752063616e27742072656e6f756e636520746f20796f757220726f6c652e60008201527f20506c6561736520636f6e746163742061646d696e7300000000000000000000602082015250565b6000616860603683615c61565b915061686b82616804565b604082019050919050565b6000602082019050818103600083015261688f81616853565b9050919050565b7f53747564656e7420646f65736e27742065786973740000000000000000000000600082015250565b60006168cc601583615c61565b91506168d782616896565b602082019050919050565b600060208201905081810360008301526168fb816168bf565b9050919050565b6000819050919050565b61691d61691882615d70565b616902565b82525050565b600061692f828461690c565b60208201915081905092915050565b7f4d61782000000000000000000000000000000000000000000000000000000000815250565b7f2072656163686564000000000000000000000000000000000000000000000000815250565b60006169958261693e565b6004820191506169a582846166d1565b91506169b082616964565b60088201915081905092915050565b600060208201905081810360008301526169d98184615cad565b905092915050565b7f43616c6c6572206973206e6f7420612000000000000000000000000000000000815250565b7f2061646d696e0000000000000000000000000000000000000000000000000000815250565b6000616a38826169e1565b601082019150616a4882846166d1565b9150616a5382616a07565b60068201915081905092915050565b7f54686973206164647265737320697320616c7265616479206120000000000000815250565b6000616a9382616a62565b601a82019150616aa382846166d1565b915081905092915050565b60008160601b9050919050565b6000616ac682616aae565b9050919050565b6000616ad882616abb565b9050919050565b616af0616aeb82615e77565b616acd565b82525050565b7f4752414e54000000000000000000000000000000000000000000000000000000600082015250565b6000616b2c600583616613565b9150616b3782616af6565b600582019050919050565b6000616b4e8285616adf565b601482019150616b5d82616b1f565b9150616b69828461690c565b6020820191508190509392505050565b6000616b858284616adf565b60148201915081905092915050565b7f4772616e74200000000000000000000000000000000000000000000000000000815250565b7f2000000000000000000000000000000000000000000000000000000000000000815250565b6000616beb82616b94565b600682019150616bfb82856166d1565b9150616c0682616bba565b600182019150616c1682846166d1565b91508190509392505050565b6000616c2d82616728565b9150616c3883616728565b9250828201905063ffffffff811115616c5457616c53616738565b5b92915050565b7f417070726563696174696f6e206973206e6f742076616c696400000000000000600082015250565b6000616c90601983615c61565b9150616c9b82616c5a565b602082019050919050565b60006020820190508181036000830152616cbf81616c83565b9050919050565b7f446567726565206973206e6f742076616c696400000000000000000000000000600082015250565b6000616cfc601383615c61565b9150616d0782616cc6565b602082019050919050565b60006020820190508181036000830152616d2b81616cef565b9050919050565b7f50726f6772616d206973206e6f742076616c6964000000000000000000000000600082015250565b6000616d68601483615c61565b9150616d7382616d32565b602082019050919050565b60006020820190508181036000830152616d9781616d5b565b9050919050565b60008160f81b9050919050565b6000616db682616d9e565b9050919050565b616dce616dc982616083565b616dab565b82525050565b616de5616de0826160cb565b616dab565b82525050565b616dfc616df782616113565b616dab565b82525050565b6000616e0e82876165fc565b602082019150616e1e8286616dbd565b600182019150616e2e8285616dd4565b600182019150616e3e8284616deb565b60018201915081905095945050505050565b7f5468697320636572746966696361746520646f65736e27742065786973740000600082015250565b6000616e86601e83615c61565b9150616e9182616e50565b602082019050919050565b60006020820190508181036000830152616eb581616e79565b9050919050565b7f44454c4554450000000000000000000000000000000000000000000000000000600082015250565b6000616ef2600683616613565b9150616efd82616ebc565b600682019050919050565b6000616f1482876165fc565b602082019150616f248286616dbd565b600182019150616f348285616dd4565b600182019150616f448284616deb565b600182019150616f5382616ee5565b915081905095945050505050565b6000616f6d8284616dbd565b60018201915081905092915050565b6000616f888284616dd4565b60018201915081905092915050565b6000616fa38284616deb565b60018201915081905092915050565b7f44656c6574652000000000000000000000000000000000000000000000000000815250565b6000616fe382616fb2565b600782019150616ff382876166d1565b9150616ffe82616bba565b60018201915061700e82866166d1565b915061701982616bba565b60018201915061702982856166d1565b915061703482616bba565b60018201915061704482846166d1565b915081905095945050505050565b7f46697273746e616d652063616e6e6f7420626520656d70747900000000000000600082015250565b6000617088601983615c61565b915061709382617052565b602082019050919050565b600060208201905081810360008301526170b78161707b565b9050919050565b7f4c6173746e616d652063616e6e6f7420626520656d7074790000000000000000600082015250565b60006170f4601883615c61565b91506170ff826170be565b602082019050919050565b60006020820190508181036000830152617123816170e7565b9050919050565b7f426972746864617465206d7573742062652067726561746572207468616e2030600082015250565b6000617160602083615c61565b915061716b8261712a565b602082019050919050565b6000602082019050818103600083015261718f81617153565b9050919050565b7f546869732073747564656e7420616c7265616479206578697374730000000000600082015250565b60006171cc601b83615c61565b91506171d782617196565b602082019050919050565b600060208201905081810360008301526171fb816171bf565b9050919050565b7f5468697320636572746966696361746520616c72656164792065786973747300600082015250565b6000617238601f83615c61565b915061724382617202565b602082019050919050565b600060208201905081810360008301526172678161722b565b9050919050565b7f4345525449465900000000000000000000000000000000000000000000000000600082015250565b60006172a4600783616613565b91506172af8261726e565b600782019050919050565b60006172c682876165fc565b6020820191506172d68286616dbd565b6001820191506172e68285616dd4565b6001820191506172f68284616deb565b60018201915061730582617297565b915081905095945050505050565b7f4365727469667920000000000000000000000000000000000000000000000000815250565b600061734482617313565b60088201915061735482876166d1565b915061735f82616bba565b60018201915061736f82866166d1565b915061737a82616bba565b60018201915061738a82856166d1565b915061739582616bba565b6001820191506173a582846166d1565b915081905095945050505050565b7f4e487b7100000000000000000000000000000000000000000000000000000000600052601260045260246000fd5b60006173ed82615b78565b91506173f883615b78565b925082617408576174076173b3565b5b828206905092915050565b600061741e82615b78565b915061742983615b78565b925082617439576174386173b3565b5b828204905092915050565b600061744f82615b78565b915061745a83615b78565b925082820190508082111561747257617471616738565b5b92915050565b7f4d696e2000000000000000000000000000000000000000000000000000000000815250565b60006174a982617478565b6004820191506174b982846166d1565b91506174c482616964565b60088201915081905092915050565b7f546869732061646472657373206973206e6f7420612000000000000000000000815250565b6000617504826174d3565b60168201915061751482846166d1565b915081905092915050565b7f5245564f4b450000000000000000000000000000000000000000000000000000600082015250565b6000617555600683616613565b91506175608261751f565b600682019050919050565b60006175778285616adf565b60148201915061758682617548565b9150617592828461690c565b6020820191508190509392505050565b7f5265766f6b652000000000000000000000000000000000000000000000000000815250565b60006175d3826175a2565b6007820191506175e382856166d1565b91506175ee82616bba565b6001820191506175fe82846166d1565b91508190509392505050565b600061761582616728565b915061762083616728565b9250828203905063ffffffff81111561763c5761763b616738565b5b92915050565b600061764d82615d39565b915061765883615d39565b9250828203905060ff81111561767157617670616738565b5b92915050565b600061768282615b78565b91507fffffffffffffffffffffffffffffffffffffffffffffffffffffffffffffffff82036176b4576176b3616738565b5b600182019050919050565b60008190508160005260206000209050919050565b60006020601f8301049050919050565b600082821b905092915050565b6000600883026177217fffffffffffffffffffffffffffffffffffffffffffffffffffffffffffffffff826176e4565b61772b86836176e4565b95508019841693508086168417925050509392505050565b6000819050919050565b600061776861776361775e84615b78565b617743565b615b78565b9050919050565b6000819050919050565b6177828361774d565b61779661778e8261776f565b8484546176f1565b825550505050565b600090565b6177ab61779e565b6177b6818484617779565b505050565b5b818110156177da576177cf6000826177a3565b6001810190506177bc565b5050565b601f82111561781f576177f0816176bf565b6177f9846176d4565b81016020851015617808578190505b61781c617814856176d4565b8301826177bb565b50505b505050565b600082821c905092915050565b600061784260001984600802617824565b1980831691505092915050565b600061785b8383617831565b9150826002028217905092915050565b61787482615c56565b67ffffffffffffffff81111561788d5761788c616289565b5b61789782546167d3565b6178a28282856177de565b600060209050601f8311600181146178d557600084156178c3578287015190505b6178cd858261784f565b865550617935565b601f1984166178e3866176bf565b60005b8281101561790b578489015182556001820191506020850194506020810190506178e6565b868310156179285784890151617924601f891682617831565b8355505b6001600288020188555050505b505050505050565b7f596f7520616c7265616479207369676e65642074686973206d756c7469736967600082015250565b6000617973602083615c61565b915061797e8261793d565b602082019050919050565b600060208201905081810360008301526179a281617966565b9050919050565b60006179b482615d39565b915060ff82036179c7576179c6616738565b5b600182019050919050565b60006179dd82615d39565b91506179e883615d39565b9250828201905060ff811115617a0157617a00616738565b5b92915050565b7f596f752068617665206e6f7465207369676e65642074686973206d756c74697360008201527f6967207965740000000000000000000000000000000000000000000000000000602082015250565b6000617a63602683615c61565b9150617a6e82617a07565b604082019050919050565b60006020820190508181036000830152617a9281617a56565b9050919050565b6000608082019050617aae6000830187615c47565b617abb6020830186616095565b617ac860408301856160dd565b617ad56060830184616125565b95945050505050565b7f53747564656e7420646f6573206e6f7420657869737400000000000000000000600082015250565b6000617b14601683615c61565b9150617b1f82617ade565b602082019050919050565b60006020820190508181036000830152617b4381617b07565b9050919050565b60008154617b57816167d3565b617b618186616613565b94506001821660008114617b7c5760018114617b9157617bc4565b60ff1983168652811515820286019350617bc4565b617b9a856176bf565b60005b83811015617bbc57815481890152600182019150602081019050617b9d565b838801955050505b50505092915050565b6000617bd98284617b4a565b915081905092915050565b6000617bf082846166d1565b915081905092915050565b50565b6000617c0b600083616613565b9150617c1682617bfb565b600082019050919050565b6000617c2c82617bfe565b9150819050919050565b7f416363657373436f6e74726f6c3a206163636f756e7420000000000000000000600082015250565b6000617c6c601783616613565b9150617c7782617c36565b601782019050919050565b7f206973206d697373696e6720726f6c6520000000000000000000000000000000600082015250565b6000617cb8601183616613565b9150617cc382617c82565b601182019050919050565b6000617cd982617c5f565b9150617ce582856166d1565b9150617cf082617cab565b9150617cfc82846166d1565b91508190509392505050565b6000617d1382615b78565b9150617d1e83615b78565b9250828202617d2c81615b78565b91508282048414831517617d4357617d42616738565b5b5092915050565b7f4e487b7100000000000000000000000000000000000000000000000000000000600052603260045260246000fd5b6000617d8482615b78565b915060008203617d9757617d96616738565b5b600182039050919050565b7f537472696e67733a20686578206c656e67746820696e73756666696369656e74600082015250565b6000617dd8602083615c61565b9150617de382617da2565b602082019050919050565b60006020820190508181036000830152617e0781617dcb565b905091905056fea2646970667358221220c66d9b849f231a7bc83efa40f4584f4f7488dc262f3b24f8d5d8ce8f3d873f7c64736f6c63430008130033","opcodes":"PUSH1 0x80 PUSH1 0x40 MSTORE CALLVALUE DUP1 ISZERO PUSH3 0x11 JUMPI PUSH1 0x0 DUP1 REVERT JUMPDEST POP PUSH1 0x40 MLOAD PUSH3 0x8BA2 CODESIZE SUB DUP1 PUSH3 0x8BA2 DUP4 CODECOPY DUP2 DUP2 ADD PUSH1 0x40 MSTORE DUP2 ADD SWAP1 PUSH3 0x37 SWAP2 SWAP1 PUSH3 0x99C JUMP JUMPDEST PUSH3 0x53 PUSH8 0x4346DA88AC06A843 PUSH1 0xC0 SHL PUSH3 0x7B6 PUSH1 0x20 SHL PUSH1 0x20 SHR JUMP JUMPDEST PUSH3 0x6F PUSH8 0x39ABA34486ADF0DA PUSH1 0xC0 SHL PUSH3 0x7B6 PUSH1 0x20 SHL PUSH1 0x20 SHR JUMP JUMPDEST PUSH3 0x8B PUSH8 0xA6059053A04F964 PUSH1 0xC0 SHL PUSH3 0x7B6 PUSH1 0x20 SHL PUSH1 0x20 SHR JUMP JUMPDEST PUSH3 0xA7 PUSH8 0xAE953CAA734AB3B0 PUSH1 0xC0 SHL PUSH3 0x7B6 PUSH1 0x20 SHL PUSH1 0x20 SHR JUMP JUMPDEST PUSH1 0x0 PUSH20 0xFFFFFFFFFFFFFFFFFFFFFFFFFFFFFFFFFFFFFFFF AND DUP3 PUSH20 0xFFFFFFFFFFFFFFFFFFFFFFFFFFFFFFFFFFFFFFFF AND SUB PUSH3 0x119 JUMPI PUSH1 0x40 MLOAD PUSH32 0x8C379A000000000000000000000000000000000000000000000000000000000 DUP2 MSTORE PUSH1 0x4 ADD PUSH3 0x110 SWAP1 PUSH3 0xA6A JUMP JUMPDEST PUSH1 0x40 MLOAD DUP1 SWAP2 SUB SWAP1 REVERT JUMPDEST PUSH3 0x135 PUSH8 0xF5900FC41A1B03E0 PUSH1 0xC0 SHL PUSH3 0x7B6 PUSH1 0x20 SHL PUSH1 0x20 SHR JUMP JUMPDEST PUSH3 0x151 PUSH8 0x8F048BA93C318BDF PUSH1 0xC0 SHL PUSH3 0x7B6 PUSH1 0x20 SHL PUSH1 0x20 SHR JUMP JUMPDEST PUSH3 0x16D PUSH8 0xEABBA9F8CD63B620 PUSH1 0xC0 SHL PUSH3 0x7B6 PUSH1 0x20 SHL PUSH1 0x20 SHR JUMP JUMPDEST PUSH3 0x189 PUSH8 0xA6B100261D7CA0A1 PUSH1 0xC0 SHL PUSH3 0x7B6 PUSH1 0x20 SHL PUSH1 0x20 SHR JUMP JUMPDEST PUSH1 0x0 PUSH20 0xFFFFFFFFFFFFFFFFFFFFFFFFFFFFFFFFFFFFFFFF AND DUP2 PUSH20 0xFFFFFFFFFFFFFFFFFFFFFFFFFFFFFFFFFFFFFFFF AND SUB PUSH3 0x1FB JUMPI PUSH1 0x40 MLOAD PUSH32 0x8C379A000000000000000000000000000000000000000000000000000000000 DUP2 MSTORE PUSH1 0x4 ADD PUSH3 0x1F2 SWAP1 PUSH3 0xB02 JUMP JUMPDEST PUSH1 0x40 MLOAD DUP1 SWAP2 SUB SWAP1 REVERT JUMPDEST PUSH3 0x217 PUSH8 0x7C8571A546CD703B PUSH1 0xC0 SHL PUSH3 0x7B6 PUSH1 0x20 SHL PUSH1 0x20 SHR JUMP JUMPDEST PUSH3 0x233 PUSH8 0x6174D0F42C37649A PUSH1 0xC0 SHL PUSH3 0x7B6 PUSH1 0x20 SHL PUSH1 0x20 SHR JUMP JUMPDEST PUSH3 0x24F PUSH8 0x2212CDA1DCB9EA12 PUSH1 0xC0 SHL PUSH3 0x7B6 PUSH1 0x20 SHL PUSH1 0x20 SHR JUMP JUMPDEST PUSH3 0x26B PUSH8 0xA83A11A74EB277AE PUSH1 0xC0 SHL PUSH3 0x7B6 PUSH1 0x20 SHL PUSH1 0x20 SHR JUMP JUMPDEST DUP1 PUSH20 0xFFFFFFFFFFFFFFFFFFFFFFFFFFFFFFFFFFFFFFFF AND DUP3 PUSH20 0xFFFFFFFFFFFFFFFFFFFFFFFFFFFFFFFFFFFFFFFF AND SUB PUSH3 0x2DC JUMPI PUSH1 0x40 MLOAD PUSH32 0x8C379A000000000000000000000000000000000000000000000000000000000 DUP2 MSTORE PUSH1 0x4 ADD PUSH3 0x2D3 SWAP1 PUSH3 0xB9A JUMP JUMPDEST PUSH1 0x40 MLOAD DUP1 SWAP2 SUB SWAP1 REVERT JUMPDEST PUSH3 0x2F8 PUSH8 0x6DDD2FA1476C452 PUSH1 0xC0 SHL PUSH3 0x7B6 PUSH1 0x20 SHL PUSH1 0x20 SHR JUMP JUMPDEST PUSH3 0x314 PUSH8 0x476C17A0B8385F17 PUSH1 0xC0 SHL PUSH3 0x7B6 PUSH1 0x20 SHL PUSH1 0x20 SHR JUMP JUMPDEST PUSH3 0x330 PUSH8 0x1C07E5A9226BE916 PUSH1 0xC0 SHL PUSH3 0x7B6 PUSH1 0x20 SHL PUSH1 0x20 SHR JUMP JUMPDEST PUSH3 0x362 PUSH32 0x4BBEB6FD3E5222E55F2F8B0C35BC228E0A06A25D0DA772FDB02C3B92FA004F88 DUP4 PUSH3 0x7B9 PUSH1 0x20 SHL PUSH1 0x20 SHR JUMP JUMPDEST PUSH3 0x37E PUSH8 0x7862D5C1055513B PUSH1 0xC0 SHL PUSH3 0x7B6 PUSH1 0x20 SHL PUSH1 0x20 SHR JUMP JUMPDEST PUSH3 0x39A PUSH8 0x92F115933DDBA31C PUSH1 0xC0 SHL PUSH3 0x7B6 PUSH1 0x20 SHL PUSH1 0x20 SHR JUMP JUMPDEST PUSH3 0x3CC PUSH32 0x4BBEB6FD3E5222E55F2F8B0C35BC228E0A06A25D0DA772FDB02C3B92FA004F88 DUP3 PUSH3 0x7CF PUSH1 0x20 SHL PUSH1 0x20 SHR JUMP JUMPDEST PUSH3 0x3E8 PUSH8 0xF700B95D536177F3 PUSH1 0xC0 SHL PUSH3 0x7B6 PUSH1 0x20 SHL PUSH1 0x20 SHR JUMP JUMPDEST PUSH1 0x40 MLOAD DUP1 PUSH1 0xE0 ADD PUSH1 0x40 MSTORE DUP1 PUSH1 0x2 PUSH4 0xFFFFFFFF AND DUP2 MSTORE PUSH1 0x20 ADD PUSH1 0x2 PUSH1 0xFF AND PUSH4 0xFFFFFFFF AND DUP2 MSTORE PUSH1 0x20 ADD PUSH1 0xF PUSH1 0xFF AND PUSH4 0xFFFFFFFF AND DUP2 MSTORE PUSH1 0x20 ADD PUSH1 0x50 PUSH1 0xFF AND DUP2 MSTORE PUSH1 0x20 ADD PUSH1 0x50 PUSH1 0xFF AND DUP2 MSTORE PUSH1 0x20 ADD PUSH32 0x4BBEB6FD3E5222E55F2F8B0C35BC228E0A06A25D0DA772FDB02C3B92FA004F88 DUP2 MSTORE PUSH1 0x20 ADD PUSH1 0x40 MLOAD PUSH1 0x20 ADD PUSH3 0x46B SWAP1 PUSH3 0xC17 JUMP JUMPDEST PUSH1 0x40 MLOAD PUSH1 0x20 DUP2 DUP4 SUB SUB DUP2 MSTORE SWAP1 PUSH1 0x40 MSTORE PUSH3 0x485 SWAP1 PUSH3 0xC77 JUMP JUMPDEST DUP2 MSTORE POP PUSH1 0x2 PUSH1 0x0 PUSH32 0x4BBEB6FD3E5222E55F2F8B0C35BC228E0A06A25D0DA772FDB02C3B92FA004F88 DUP2 MSTORE PUSH1 0x20 ADD SWAP1 DUP2 MSTORE PUSH1 0x20 ADD PUSH1 0x0 KECCAK256 PUSH1 0x0 DUP3 ADD MLOAD DUP2 PUSH1 0x0 ADD PUSH1 0x0 PUSH2 0x100 EXP DUP2 SLOAD DUP2 PUSH4 0xFFFFFFFF MUL NOT AND SWAP1 DUP4 PUSH4 0xFFFFFFFF AND MUL OR SWAP1 SSTORE POP PUSH1 0x20 DUP3 ADD MLOAD DUP2 PUSH1 0x0 ADD PUSH1 0x4 PUSH2 0x100 EXP DUP2 SLOAD DUP2 PUSH4 0xFFFFFFFF MUL NOT AND SWAP1 DUP4 PUSH4 0xFFFFFFFF AND MUL OR SWAP1 SSTORE POP PUSH1 0x40 DUP3 ADD MLOAD DUP2 PUSH1 0x0 ADD PUSH1 0x8 PUSH2 0x100 EXP DUP2 SLOAD DUP2 PUSH4 0xFFFFFFFF MUL NOT AND SWAP1 DUP4 PUSH4 0xFFFFFFFF AND MUL OR SWAP1 SSTORE POP PUSH1 0x60 DUP3 ADD MLOAD DUP2 PUSH1 0x0 ADD PUSH1 0xC PUSH2 0x100 EXP DUP2 SLOAD DUP2 PUSH1 0xFF MUL NOT AND SWAP1 DUP4 PUSH1 0xFF AND MUL OR SWAP1 SSTORE POP PUSH1 0x80 DUP3 ADD MLOAD DUP2 PUSH1 0x0 ADD PUSH1 0xD PUSH2 0x100 EXP DUP2 SLOAD DUP2 PUSH1 0xFF MUL NOT AND SWAP1 DUP4 PUSH1 0xFF AND MUL OR SWAP1 SSTORE POP PUSH1 0xA0 DUP3 ADD MLOAD DUP2 PUSH1 0x1 ADD SSTORE PUSH1 0xC0 DUP3 ADD MLOAD DUP2 PUSH1 0x2 ADD SSTORE SWAP1 POP POP PUSH3 0x5A5 PUSH8 0x82A82F6F1BD2C116 PUSH1 0xC0 SHL PUSH3 0x7B6 PUSH1 0x20 SHL PUSH1 0x20 SHR JUMP JUMPDEST PUSH3 0x5C1 PUSH8 0x2E2EEF9C059DC207 PUSH1 0xC0 SHL PUSH3 0x7B6 PUSH1 0x20 SHL PUSH1 0x20 SHR JUMP JUMPDEST PUSH3 0x5F4 PUSH32 0xD646AE07EB0D0F77457502A65E7407930DFF4CD4FD99ABC6AAC87A753F4C8A42 PUSH1 0x0 PUSH3 0x7B9 PUSH1 0x20 SHL PUSH1 0x20 SHR JUMP JUMPDEST PUSH3 0x610 PUSH8 0x2071DF197B17F30B PUSH1 0xC0 SHL PUSH3 0x7B6 PUSH1 0x20 SHL PUSH1 0x20 SHR JUMP JUMPDEST PUSH1 0x40 MLOAD DUP1 PUSH1 0xE0 ADD PUSH1 0x40 MSTORE DUP1 PUSH1 0x0 PUSH4 0xFFFFFFFF AND DUP2 MSTORE PUSH1 0x20 ADD PUSH1 0x0 PUSH4 0xFFFFFFFF AND DUP2 MSTORE PUSH1 0x20 ADD PUSH1 0xF PUSH1 0xFF AND PUSH4 0xFFFFFFFF AND DUP2 MSTORE PUSH1 0x20 ADD PUSH1 0x50 PUSH1 0xFF AND DUP2 MSTORE PUSH1 0x20 ADD PUSH1 0x50 PUSH1 0xFF AND DUP2 MSTORE PUSH1 0x20 ADD PUSH32 0x4BBEB6FD3E5222E55F2F8B0C35BC228E0A06A25D0DA772FDB02C3B92FA004F88 DUP2 MSTORE PUSH1 0x20 ADD PUSH1 0x40 MLOAD PUSH1 0x20 ADD PUSH3 0x690 SWAP1 PUSH3 0xD37 JUMP JUMPDEST PUSH1 0x40 MLOAD PUSH1 0x20 DUP2 DUP4 SUB SUB DUP2 MSTORE SWAP1 PUSH1 0x40 MSTORE PUSH3 0x6AA SWAP1 PUSH3 0xC77 JUMP JUMPDEST DUP2 MSTORE POP PUSH1 0x2 PUSH1 0x0 PUSH32 0xD646AE07EB0D0F77457502A65E7407930DFF4CD4FD99ABC6AAC87A753F4C8A42 DUP2 MSTORE PUSH1 0x20 ADD SWAP1 DUP2 MSTORE PUSH1 0x20 ADD PUSH1 0x0 KECCAK256 PUSH1 0x0 DUP3 ADD MLOAD DUP2 PUSH1 0x0 ADD PUSH1 0x0 PUSH2 0x100 EXP DUP2 SLOAD DUP2 PUSH4 0xFFFFFFFF MUL NOT AND SWAP1 DUP4 PUSH4 0xFFFFFFFF AND MUL OR SWAP1 SSTORE POP PUSH1 0x20 DUP3 ADD MLOAD DUP2 PUSH1 0x0 ADD PUSH1 0x4 PUSH2 0x100 EXP DUP2 SLOAD DUP2 PUSH4 0xFFFFFFFF MUL NOT AND SWAP1 DUP4 PUSH4 0xFFFFFFFF AND MUL OR SWAP1 SSTORE POP PUSH1 0x40 DUP3 ADD MLOAD DUP2 PUSH1 0x0 ADD PUSH1 0x8 PUSH2 0x100 EXP DUP2 SLOAD DUP2 PUSH4 0xFFFFFFFF MUL NOT AND SWAP1 DUP4 PUSH4 0xFFFFFFFF AND MUL OR SWAP1 SSTORE POP PUSH1 0x60 DUP3 ADD MLOAD DUP2 PUSH1 0x0 ADD PUSH1 0xC PUSH2 0x100 EXP DUP2 SLOAD DUP2 PUSH1 0xFF MUL NOT AND SWAP1 DUP4 PUSH1 0xFF AND MUL OR SWAP1 SSTORE POP PUSH1 0x80 DUP3 ADD MLOAD DUP2 PUSH1 0x0 ADD PUSH1 0xD PUSH2 0x100 EXP DUP2 SLOAD DUP2 PUSH1 0xFF MUL NOT AND SWAP1 DUP4 PUSH1 0xFF AND MUL OR SWAP1 SSTORE POP PUSH1 0xA0 DUP3 ADD MLOAD DUP2 PUSH1 0x1 ADD SSTORE PUSH1 0xC0 DUP3 ADD MLOAD DUP2 PUSH1 0x2 ADD SSTORE SWAP1 POP POP POP POP PUSH3 0xD4E JUMP JUMPDEST POP JUMP JUMPDEST PUSH3 0x7CB DUP3 DUP3 PUSH3 0x7CF PUSH1 0x20 SHL PUSH1 0x20 SHR JUMP JUMPDEST POP POP JUMP JUMPDEST PUSH3 0x7E1 DUP3 DUP3 PUSH3 0x8C0 PUSH1 0x20 SHL PUSH1 0x20 SHR JUMP JUMPDEST PUSH3 0x8BC JUMPI PUSH1 0x1 PUSH1 0x0 DUP1 DUP5 DUP2 MSTORE PUSH1 0x20 ADD SWAP1 DUP2 MSTORE PUSH1 0x20 ADD PUSH1 0x0 KECCAK256 PUSH1 0x0 ADD PUSH1 0x0 DUP4 PUSH20 0xFFFFFFFFFFFFFFFFFFFFFFFFFFFFFFFFFFFFFFFF AND PUSH20 0xFFFFFFFFFFFFFFFFFFFFFFFFFFFFFFFFFFFFFFFF AND DUP2 MSTORE PUSH1 0x20 ADD SWAP1 DUP2 MSTORE PUSH1 0x20 ADD PUSH1 0x0 KECCAK256 PUSH1 0x0 PUSH2 0x100 EXP DUP2 SLOAD DUP2 PUSH1 0xFF MUL NOT AND SWAP1 DUP4 ISZERO ISZERO MUL OR SWAP1 SSTORE POP PUSH3 0x861 PUSH3 0x92A PUSH1 0x20 SHL PUSH1 0x20 SHR JUMP JUMPDEST PUSH20 0xFFFFFFFFFFFFFFFFFFFFFFFFFFFFFFFFFFFFFFFF AND DUP2 PUSH20 0xFFFFFFFFFFFFFFFFFFFFFFFFFFFFFFFFFFFFFFFF AND DUP4 PUSH32 0x2F8788117E7EFF1D82E926EC794901D17C78024A50270940304540A733656F0D PUSH1 0x40 MLOAD PUSH1 0x40 MLOAD DUP1 SWAP2 SUB SWAP1 LOG4 JUMPDEST POP POP JUMP JUMPDEST PUSH1 0x0 DUP1 PUSH1 0x0 DUP5 DUP2 MSTORE PUSH1 0x20 ADD SWAP1 DUP2 MSTORE PUSH1 0x20 ADD PUSH1 0x0 KECCAK256 PUSH1 0x0 ADD PUSH1 0x0 DUP4 PUSH20 0xFFFFFFFFFFFFFFFFFFFFFFFFFFFFFFFFFFFFFFFF AND PUSH20 0xFFFFFFFFFFFFFFFFFFFFFFFFFFFFFFFFFFFFFFFF AND DUP2 MSTORE PUSH1 0x20 ADD SWAP1 DUP2 MSTORE PUSH1 0x20 ADD PUSH1 0x0 KECCAK256 PUSH1 0x0 SWAP1 SLOAD SWAP1 PUSH2 0x100 EXP SWAP1 DIV PUSH1 0xFF AND SWAP1 POP SWAP3 SWAP2 POP POP JUMP JUMPDEST PUSH1 0x0 CALLER SWAP1 POP SWAP1 JUMP JUMPDEST PUSH1 0x0 DUP1 REVERT JUMPDEST PUSH1 0x0 PUSH20 0xFFFFFFFFFFFFFFFFFFFFFFFFFFFFFFFFFFFFFFFF DUP3 AND SWAP1 POP SWAP2 SWAP1 POP JUMP JUMPDEST PUSH1 0x0 PUSH3 0x964 DUP3 PUSH3 0x937 JUMP JUMPDEST SWAP1 POP SWAP2 SWAP1 POP JUMP JUMPDEST PUSH3 0x976 DUP2 PUSH3 0x957 JUMP JUMPDEST DUP2 EQ PUSH3 0x982 JUMPI PUSH1 0x0 DUP1 REVERT JUMPDEST POP JUMP JUMPDEST PUSH1 0x0 DUP2 MLOAD SWAP1 POP PUSH3 0x996 DUP2 PUSH3 0x96B JUMP JUMPDEST SWAP3 SWAP2 POP POP JUMP JUMPDEST PUSH1 0x0 DUP1 PUSH1 0x40 DUP4 DUP6 SUB SLT ISZERO PUSH3 0x9B6 JUMPI PUSH3 0x9B5 PUSH3 0x932 JUMP JUMPDEST JUMPDEST PUSH1 0x0 PUSH3 0x9C6 DUP6 DUP3 DUP7 ADD PUSH3 0x985 JUMP JUMPDEST SWAP3 POP POP PUSH1 0x20 PUSH3 0x9D9 DUP6 DUP3 DUP7 ADD PUSH3 0x985 JUMP JUMPDEST SWAP2 POP POP SWAP3 POP SWAP3 SWAP1 POP JUMP JUMPDEST PUSH1 0x0 DUP3 DUP3 MSTORE PUSH1 0x20 DUP3 ADD SWAP1 POP SWAP3 SWAP2 POP POP JUMP JUMPDEST PUSH32 0x4365727469666965722061646D696E3120616464726573732063616E6E6F7420 PUSH1 0x0 DUP3 ADD MSTORE PUSH32 0x6265203000000000000000000000000000000000000000000000000000000000 PUSH1 0x20 DUP3 ADD MSTORE POP JUMP JUMPDEST PUSH1 0x0 PUSH3 0xA52 PUSH1 0x24 DUP4 PUSH3 0x9E3 JUMP JUMPDEST SWAP2 POP PUSH3 0xA5F DUP3 PUSH3 0x9F4 JUMP JUMPDEST PUSH1 0x40 DUP3 ADD SWAP1 POP SWAP2 SWAP1 POP JUMP JUMPDEST PUSH1 0x0 PUSH1 0x20 DUP3 ADD SWAP1 POP DUP2 DUP2 SUB PUSH1 0x0 DUP4 ADD MSTORE PUSH3 0xA85 DUP2 PUSH3 0xA43 JUMP JUMPDEST SWAP1 POP SWAP2 SWAP1 POP JUMP JUMPDEST PUSH32 0x4365727469666965722061646D696E3220616464726573732063616E6E6F7420 PUSH1 0x0 DUP3 ADD MSTORE PUSH32 0x6265203000000000000000000000000000000000000000000000000000000000 PUSH1 0x20 DUP3 ADD MSTORE POP JUMP JUMPDEST PUSH1 0x0 PUSH3 0xAEA PUSH1 0x24 DUP4 PUSH3 0x9E3 JUMP JUMPDEST SWAP2 POP PUSH3 0xAF7 DUP3 PUSH3 0xA8C JUMP JUMPDEST PUSH1 0x40 DUP3 ADD SWAP1 POP SWAP2 SWAP1 POP JUMP JUMPDEST PUSH1 0x0 PUSH1 0x20 DUP3 ADD SWAP1 POP DUP2 DUP2 SUB PUSH1 0x0 DUP4 ADD MSTORE PUSH3 0xB1D DUP2 PUSH3 0xADB JUMP JUMPDEST SWAP1 POP SWAP2 SWAP1 POP JUMP JUMPDEST PUSH32 0x436572746966696572206164647265737365732063616E6E6F74206265207468 PUSH1 0x0 DUP3 ADD MSTORE PUSH32 0x652073616D650000000000000000000000000000000000000000000000000000 PUSH1 0x20 DUP3 ADD MSTORE POP JUMP JUMPDEST PUSH1 0x0 PUSH3 0xB82 PUSH1 0x26 DUP4 PUSH3 0x9E3 JUMP JUMPDEST SWAP2 POP PUSH3 0xB8F DUP3 PUSH3 0xB24 JUMP JUMPDEST PUSH1 0x40 DUP3 ADD SWAP1 POP SWAP2 SWAP1 POP JUMP JUMPDEST PUSH1 0x0 PUSH1 0x20 DUP3 ADD SWAP1 POP DUP2 DUP2 SUB PUSH1 0x0 DUP4 ADD MSTORE PUSH3 0xBB5 DUP2 PUSH3 0xB73 JUMP JUMPDEST SWAP1 POP SWAP2 SWAP1 POP JUMP JUMPDEST PUSH1 0x0 DUP2 SWAP1 POP SWAP3 SWAP2 POP POP JUMP JUMPDEST PUSH32 0x4345525449464945525F41444D494E0000000000000000000000000000000000 PUSH1 0x0 DUP3 ADD MSTORE POP JUMP JUMPDEST PUSH1 0x0 PUSH3 0xBFF PUSH1 0xF DUP4 PUSH3 0xBBC JUMP JUMPDEST SWAP2 POP PUSH3 0xC0C DUP3 PUSH3 0xBC7 JUMP JUMPDEST PUSH1 0xF DUP3 ADD SWAP1 POP SWAP2 SWAP1 POP JUMP JUMPDEST PUSH1 0x0 PUSH3 0xC24 DUP3 PUSH3 0xBF0 JUMP JUMPDEST SWAP2 POP DUP2 SWAP1 POP SWAP2 SWAP1 POP JUMP JUMPDEST PUSH1 0x0 DUP2 MLOAD SWAP1 POP SWAP2 SWAP1 POP JUMP JUMPDEST PUSH1 0x0 DUP2 SWAP1 POP PUSH1 0x20 DUP3 ADD SWAP1 POP SWAP2 SWAP1 POP JUMP JUMPDEST PUSH1 0x0 DUP2 SWAP1 POP SWAP2 SWAP1 POP JUMP JUMPDEST PUSH1 0x0 PUSH3 0xC61 DUP3 MLOAD PUSH3 0xC49 JUMP JUMPDEST DUP1 SWAP2 POP POP SWAP2 SWAP1 POP JUMP JUMPDEST PUSH1 0x0 DUP3 DUP3 SHL SWAP1 POP SWAP3 SWAP2 POP POP JUMP JUMPDEST PUSH1 0x0 PUSH3 0xC84 DUP3 PUSH3 0xC2E JUMP JUMPDEST DUP3 PUSH3 0xC90 DUP5 PUSH3 0xC39 JUMP JUMPDEST SWAP1 POP PUSH3 0xC9D DUP2 PUSH3 0xC53 JUMP JUMPDEST SWAP3 POP PUSH1 0x20 DUP3 LT ISZERO PUSH3 0xCE0 JUMPI PUSH3 0xCDB PUSH32 0xFFFFFFFFFFFFFFFFFFFFFFFFFFFFFFFFFFFFFFFFFFFFFFFFFFFFFFFFFFFFFFFF DUP4 PUSH1 0x20 SUB PUSH1 0x8 MUL PUSH3 0xC6A JUMP JUMPDEST DUP4 AND SWAP3 POP JUMPDEST POP POP SWAP2 SWAP1 POP JUMP JUMPDEST PUSH32 0x4345525449464945520000000000000000000000000000000000000000000000 PUSH1 0x0 DUP3 ADD MSTORE POP JUMP JUMPDEST PUSH1 0x0 PUSH3 0xD1F PUSH1 0x9 DUP4 PUSH3 0xBBC JUMP JUMPDEST SWAP2 POP PUSH3 0xD2C DUP3 PUSH3 0xCE7 JUMP JUMPDEST PUSH1 0x9 DUP3 ADD SWAP1 POP SWAP2 SWAP1 POP JUMP JUMPDEST PUSH1 0x0 PUSH3 0xD44 DUP3 PUSH3 0xD10 JUMP JUMPDEST SWAP2 POP DUP2 SWAP1 POP SWAP2 SWAP1 POP JUMP JUMPDEST PUSH2 0x7E44 DUP1 PUSH3 0xD5E PUSH1 0x0 CODECOPY PUSH1 0x0 RETURN INVALID PUSH1 0x80 PUSH1 0x40 MSTORE CALLVALUE DUP1 ISZERO PUSH2 0x10 JUMPI PUSH1 0x0 DUP1 REVERT JUMPDEST POP PUSH1 0x4 CALLDATASIZE LT PUSH2 0x1F0 JUMPI PUSH1 0x0 CALLDATALOAD PUSH1 0xE0 SHR DUP1 PUSH4 0x742F0688 GT PUSH2 0x10F JUMPI DUP1 PUSH4 0xACE81910 GT PUSH2 0xA2 JUMPI DUP1 PUSH4 0xD0FB68C7 GT PUSH2 0x71 JUMPI DUP1 PUSH4 0xD0FB68C7 EQ PUSH2 0x5DB JUMPI DUP1 PUSH4 0xD3243AD8 EQ PUSH2 0x5F9 JUMPI DUP1 PUSH4 0xD547741F EQ PUSH2 0x615 JUMPI DUP1 PUSH4 0xE05F2FB4 EQ PUSH2 0x631 JUMPI PUSH2 0x1F0 JUMP JUMPDEST DUP1 PUSH4 0xACE81910 EQ PUSH2 0x555 JUMPI DUP1 PUSH4 0xB86BC74F EQ PUSH2 0x571 JUMPI DUP1 PUSH4 0xBF802091 EQ PUSH2 0x58F JUMPI DUP1 PUSH4 0xC9DBCFDA EQ PUSH2 0x5BF JUMPI PUSH2 0x1F0 JUMP JUMPDEST DUP1 PUSH4 0x9DD09A73 GT PUSH2 0xDE JUMPI DUP1 PUSH4 0x9DD09A73 EQ PUSH2 0x4CD JUMPI DUP1 PUSH4 0x9E339909 EQ PUSH2 0x4FD JUMPI DUP1 PUSH4 0xA1CEBF52 EQ PUSH2 0x51B JUMPI DUP1 PUSH4 0xA217FDDF EQ PUSH2 0x537 JUMPI PUSH2 0x1F0 JUMP JUMPDEST DUP1 PUSH4 0x742F0688 EQ PUSH2 0x42E JUMPI DUP1 PUSH4 0x7CD29FB7 EQ PUSH2 0x463 JUMPI DUP1 PUSH4 0x8856A0E9 EQ PUSH2 0x481 JUMPI DUP1 PUSH4 0x91D14854 EQ PUSH2 0x49D JUMPI PUSH2 0x1F0 JUMP JUMPDEST DUP1 PUSH4 0x2F2FF15D GT PUSH2 0x187 JUMPI DUP1 PUSH4 0x5907EBEA GT PUSH2 0x156 JUMPI DUP1 PUSH4 0x5907EBEA EQ PUSH2 0x3A6 JUMPI DUP1 PUSH4 0x642F9163 EQ PUSH2 0x3C4 JUMPI DUP1 PUSH4 0x6BC6421B EQ PUSH2 0x3F4 JUMPI DUP1 PUSH4 0x719129BE EQ PUSH2 0x412 JUMPI PUSH2 0x1F0 JUMP JUMPDEST DUP1 PUSH4 0x2F2FF15D EQ PUSH2 0x332 JUMPI DUP1 PUSH4 0x33B72E49 EQ PUSH2 0x34E JUMPI DUP1 PUSH4 0x36568ABE EQ PUSH2 0x36C JUMPI DUP1 PUSH4 0x4DA11A20 EQ PUSH2 0x388 JUMPI PUSH2 0x1F0 JUMP JUMPDEST DUP1 PUSH4 0x1A968069 GT PUSH2 0x1C3 JUMPI DUP1 PUSH4 0x1A968069 EQ PUSH2 0x292 JUMPI DUP1 PUSH4 0x1A9CFE28 EQ PUSH2 0x2C6 JUMPI DUP1 PUSH4 0x248A9CA3 EQ PUSH2 0x2E4 JUMPI DUP1 PUSH4 0x2CD94E4F EQ PUSH2 0x314 JUMPI PUSH2 0x1F0 JUMP JUMPDEST DUP1 PUSH4 0x1FFC9A7 EQ PUSH2 0x1F5 JUMPI DUP1 PUSH4 0x5F84D45 EQ PUSH2 0x225 JUMPI DUP1 PUSH4 0x6EAD22E EQ PUSH2 0x241 JUMPI DUP1 PUSH4 0xF68794A EQ PUSH2 0x274 JUMPI JUMPDEST PUSH1 0x0 DUP1 REVERT JUMPDEST PUSH2 0x20F PUSH1 0x4 DUP1 CALLDATASIZE SUB DUP2 ADD SWAP1 PUSH2 0x20A SWAP2 SWAP1 PUSH2 0x5B15 JUMP JUMPDEST PUSH2 0x64F JUMP JUMPDEST PUSH1 0x40 MLOAD PUSH2 0x21C SWAP2 SWAP1 PUSH2 0x5B5D JUMP JUMPDEST PUSH1 0x40 MLOAD DUP1 SWAP2 SUB SWAP1 RETURN JUMPDEST PUSH2 0x23F PUSH1 0x4 DUP1 CALLDATASIZE SUB DUP2 ADD SWAP1 PUSH2 0x23A SWAP2 SWAP1 PUSH2 0x5BDA JUMP JUMPDEST PUSH2 0x6C9 JUMP JUMPDEST STOP JUMPDEST PUSH2 0x25B PUSH1 0x4 DUP1 CALLDATASIZE SUB DUP2 ADD SWAP1 PUSH2 0x256 SWAP2 SWAP1 PUSH2 0x5C1A JUMP JUMPDEST PUSH2 0xDD6 JUMP JUMPDEST PUSH1 0x40 MLOAD PUSH2 0x26B SWAP5 SWAP4 SWAP3 SWAP2 SWAP1 PUSH2 0x5CE6 JUMP JUMPDEST PUSH1 0x40 MLOAD DUP1 SWAP2 SUB SWAP1 RETURN JUMPDEST PUSH2 0x27C PUSH2 0xF16 JUMP JUMPDEST PUSH1 0x40 MLOAD PUSH2 0x289 SWAP2 SWAP1 PUSH2 0x5D55 JUMP JUMPDEST PUSH1 0x40 MLOAD DUP1 SWAP2 SUB SWAP1 RETURN JUMPDEST PUSH2 0x2AC PUSH1 0x4 DUP1 CALLDATASIZE SUB DUP2 ADD SWAP1 PUSH2 0x2A7 SWAP2 SWAP1 PUSH2 0x5DA6 JUMP JUMPDEST PUSH2 0xF1B JUMP JUMPDEST PUSH1 0x40 MLOAD PUSH2 0x2BD SWAP6 SWAP5 SWAP4 SWAP3 SWAP2 SWAP1 PUSH2 0x5DE2 JUMP JUMPDEST PUSH1 0x40 MLOAD DUP1 SWAP2 SUB SWAP1 RETURN JUMPDEST PUSH2 0x2CE PUSH2 0x1000 JUMP JUMPDEST PUSH1 0x40 MLOAD PUSH2 0x2DB SWAP2 SWAP1 PUSH2 0x5D55 JUMP JUMPDEST PUSH1 0x40 MLOAD DUP1 SWAP2 SUB SWAP1 RETURN JUMPDEST PUSH2 0x2FE PUSH1 0x4 DUP1 CALLDATASIZE SUB DUP2 ADD SWAP1 PUSH2 0x2F9 SWAP2 SWAP1 PUSH2 0x5DA6 JUMP JUMPDEST PUSH2 0x1005 JUMP JUMPDEST PUSH1 0x40 MLOAD PUSH2 0x30B SWAP2 SWAP1 PUSH2 0x5E3C JUMP JUMPDEST PUSH1 0x40 MLOAD DUP1 SWAP2 SUB SWAP1 RETURN JUMPDEST PUSH2 0x31C PUSH2 0x1024 JUMP JUMPDEST PUSH1 0x40 MLOAD PUSH2 0x329 SWAP2 SWAP1 PUSH2 0x5D55 JUMP JUMPDEST PUSH1 0x40 MLOAD DUP1 SWAP2 SUB SWAP1 RETURN JUMPDEST PUSH2 0x34C PUSH1 0x4 DUP1 CALLDATASIZE SUB DUP2 ADD SWAP1 PUSH2 0x347 SWAP2 SWAP1 PUSH2 0x5EB5 JUMP JUMPDEST PUSH2 0x1029 JUMP JUMPDEST STOP JUMPDEST PUSH2 0x356 PUSH2 0x104A JUMP JUMPDEST PUSH1 0x40 MLOAD PUSH2 0x363 SWAP2 SWAP1 PUSH2 0x5D55 JUMP JUMPDEST PUSH1 0x40 MLOAD DUP1 SWAP2 SUB SWAP1 RETURN JUMPDEST PUSH2 0x386 PUSH1 0x4 DUP1 CALLDATASIZE SUB DUP2 ADD SWAP1 PUSH2 0x381 SWAP2 SWAP1 PUSH2 0x5EB5 JUMP JUMPDEST PUSH2 0x104F JUMP JUMPDEST STOP JUMPDEST PUSH2 0x390 PUSH2 0x10C6 JUMP JUMPDEST PUSH1 0x40 MLOAD PUSH2 0x39D SWAP2 SWAP1 PUSH2 0x5D55 JUMP JUMPDEST PUSH1 0x40 MLOAD DUP1 SWAP2 SUB SWAP1 RETURN JUMPDEST PUSH2 0x3AE PUSH2 0x10CB JUMP JUMPDEST PUSH1 0x40 MLOAD PUSH2 0x3BB SWAP2 SWAP1 PUSH2 0x5D55 JUMP JUMPDEST PUSH1 0x40 MLOAD DUP1 SWAP2 SUB SWAP1 RETURN JUMPDEST PUSH2 0x3DE PUSH1 0x4 DUP1 CALLDATASIZE SUB DUP2 ADD SWAP1 PUSH2 0x3D9 SWAP2 SWAP1 PUSH2 0x5C1A JUMP JUMPDEST PUSH2 0x10D0 JUMP JUMPDEST PUSH1 0x40 MLOAD PUSH2 0x3EB SWAP2 SWAP1 PUSH2 0x5FB8 JUMP JUMPDEST PUSH1 0x40 MLOAD DUP1 SWAP2 SUB SWAP1 RETURN JUMPDEST PUSH2 0x3FC PUSH2 0x131A JUMP JUMPDEST PUSH1 0x40 MLOAD PUSH2 0x409 SWAP2 SWAP1 PUSH2 0x5D55 JUMP JUMPDEST PUSH1 0x40 MLOAD DUP1 SWAP2 SUB SWAP1 RETURN JUMPDEST PUSH2 0x42C PUSH1 0x4 DUP1 CALLDATASIZE SUB DUP2 ADD SWAP1 PUSH2 0x427 SWAP2 SWAP1 PUSH2 0x5FDA JUMP JUMPDEST PUSH2 0x131F JUMP JUMPDEST STOP JUMPDEST PUSH2 0x448 PUSH1 0x4 DUP1 CALLDATASIZE SUB DUP2 ADD SWAP1 PUSH2 0x443 SWAP2 SWAP1 PUSH2 0x5DA6 JUMP JUMPDEST PUSH2 0x1BA3 JUMP JUMPDEST PUSH1 0x40 MLOAD PUSH2 0x45A SWAP7 SWAP6 SWAP5 SWAP4 SWAP3 SWAP2 SWAP1 PUSH2 0x6134 JUMP JUMPDEST PUSH1 0x40 MLOAD DUP1 SWAP2 SUB SWAP1 RETURN JUMPDEST PUSH2 0x46B PUSH2 0x1C13 JUMP JUMPDEST PUSH1 0x40 MLOAD PUSH2 0x478 SWAP2 SWAP1 PUSH2 0x5D55 JUMP JUMPDEST PUSH1 0x40 MLOAD DUP1 SWAP2 SUB SWAP1 RETURN JUMPDEST PUSH2 0x49B PUSH1 0x4 DUP1 CALLDATASIZE SUB DUP2 ADD SWAP1 PUSH2 0x496 SWAP2 SWAP1 PUSH2 0x6204 JUMP JUMPDEST PUSH2 0x1C18 JUMP JUMPDEST STOP JUMPDEST PUSH2 0x4B7 PUSH1 0x4 DUP1 CALLDATASIZE SUB DUP2 ADD SWAP1 PUSH2 0x4B2 SWAP2 SWAP1 PUSH2 0x5EB5 JUMP JUMPDEST PUSH2 0x26DA JUMP JUMPDEST PUSH1 0x40 MLOAD PUSH2 0x4C4 SWAP2 SWAP1 PUSH2 0x5B5D JUMP JUMPDEST PUSH1 0x40 MLOAD DUP1 SWAP2 SUB SWAP1 RETURN JUMPDEST PUSH2 0x4E7 PUSH1 0x4 DUP1 CALLDATASIZE SUB DUP2 ADD SWAP1 PUSH2 0x4E2 SWAP2 SWAP1 PUSH2 0x5C1A JUMP JUMPDEST PUSH2 0x2744 JUMP JUMPDEST PUSH1 0x40 MLOAD PUSH2 0x4F4 SWAP2 SWAP1 PUSH2 0x5E3C JUMP JUMPDEST PUSH1 0x40 MLOAD DUP1 SWAP2 SUB SWAP1 RETURN JUMPDEST PUSH2 0x505 PUSH2 0x275C JUMP JUMPDEST PUSH1 0x40 MLOAD PUSH2 0x512 SWAP2 SWAP1 PUSH2 0x5D55 JUMP JUMPDEST PUSH1 0x40 MLOAD DUP1 SWAP2 SUB SWAP1 RETURN JUMPDEST PUSH2 0x535 PUSH1 0x4 DUP1 CALLDATASIZE SUB DUP2 ADD SWAP1 PUSH2 0x530 SWAP2 SWAP1 PUSH2 0x63B4 JUMP JUMPDEST PUSH2 0x2761 JUMP JUMPDEST STOP JUMPDEST PUSH2 0x53F PUSH2 0x2B5F JUMP JUMPDEST PUSH1 0x40 MLOAD PUSH2 0x54C SWAP2 SWAP1 PUSH2 0x5E3C JUMP JUMPDEST PUSH1 0x40 MLOAD DUP1 SWAP2 SUB SWAP1 RETURN JUMPDEST PUSH2 0x56F PUSH1 0x4 DUP1 CALLDATASIZE SUB DUP2 ADD SWAP1 PUSH2 0x56A SWAP2 SWAP1 PUSH2 0x6204 JUMP JUMPDEST PUSH2 0x2B66 JUMP JUMPDEST STOP JUMPDEST PUSH2 0x579 PUSH2 0x35ED JUMP JUMPDEST PUSH1 0x40 MLOAD PUSH2 0x586 SWAP2 SWAP1 PUSH2 0x5E3C JUMP JUMPDEST PUSH1 0x40 MLOAD DUP1 SWAP2 SUB SWAP1 RETURN JUMPDEST PUSH2 0x5A9 PUSH1 0x4 DUP1 CALLDATASIZE SUB DUP2 ADD SWAP1 PUSH2 0x5A4 SWAP2 SWAP1 PUSH2 0x6453 JUMP JUMPDEST PUSH2 0x3611 JUMP JUMPDEST PUSH1 0x40 MLOAD PUSH2 0x5B6 SWAP2 SWAP1 PUSH2 0x6493 JUMP JUMPDEST PUSH1 0x40 MLOAD DUP1 SWAP2 SUB SWAP1 RETURN JUMPDEST PUSH2 0x5D9 PUSH1 0x4 DUP1 CALLDATASIZE SUB DUP2 ADD SWAP1 PUSH2 0x5D4 SWAP2 SWAP1 PUSH2 0x63B4 JUMP JUMPDEST PUSH2 0x370E JUMP JUMPDEST STOP JUMPDEST PUSH2 0x5E3 PUSH2 0x3951 JUMP JUMPDEST PUSH1 0x40 MLOAD PUSH2 0x5F0 SWAP2 SWAP1 PUSH2 0x5D55 JUMP JUMPDEST PUSH1 0x40 MLOAD DUP1 SWAP2 SUB SWAP1 RETURN JUMPDEST PUSH2 0x613 PUSH1 0x4 DUP1 CALLDATASIZE SUB DUP2 ADD SWAP1 PUSH2 0x60E SWAP2 SWAP1 PUSH2 0x5FDA JUMP JUMPDEST PUSH2 0x3956 JUMP JUMPDEST STOP JUMPDEST PUSH2 0x62F PUSH1 0x4 DUP1 CALLDATASIZE SUB DUP2 ADD SWAP1 PUSH2 0x62A SWAP2 SWAP1 PUSH2 0x5EB5 JUMP JUMPDEST PUSH2 0x451A JUMP JUMPDEST STOP JUMPDEST PUSH2 0x639 PUSH2 0x453B JUMP JUMPDEST PUSH1 0x40 MLOAD PUSH2 0x646 SWAP2 SWAP1 PUSH2 0x5E3C JUMP JUMPDEST PUSH1 0x40 MLOAD DUP1 SWAP2 SUB SWAP1 RETURN JUMPDEST PUSH1 0x0 PUSH32 0x7965DB0B00000000000000000000000000000000000000000000000000000000 PUSH28 0xFFFFFFFFFFFFFFFFFFFFFFFFFFFFFFFFFFFFFFFFFFFFFFFFFFFFFFFF NOT AND DUP3 PUSH28 0xFFFFFFFFFFFFFFFFFFFFFFFFFFFFFFFFFFFFFFFFFFFFFFFFFFFFFFFF NOT AND EQ DUP1 PUSH2 0x6C2 JUMPI POP PUSH2 0x6C1 DUP3 PUSH2 0x455F JUMP JUMPDEST JUMPDEST SWAP1 POP SWAP2 SWAP1 POP JUMP JUMPDEST PUSH2 0x6DD PUSH8 0x6AE93F6BF114C2F7 PUSH1 0xC0 SHL PUSH2 0x45C9 JUMP JUMPDEST PUSH2 0x6F1 PUSH8 0x7A7ED0C4E5844014 PUSH1 0xC0 SHL PUSH2 0x45C9 JUMP JUMPDEST PUSH2 0x705 PUSH8 0x45D4F9869D13660B PUSH1 0xC0 SHL PUSH2 0x45C9 JUMP JUMPDEST PUSH2 0x719 PUSH8 0x1CBDD7ADD0B2DD5C PUSH1 0xC0 SHL PUSH2 0x45C9 JUMP JUMPDEST PUSH2 0x743 PUSH32 0xD646AE07EB0D0F77457502A65E7407930DFF4CD4FD99ABC6AAC87A753F4C8A42 CALLER PUSH2 0x26DA JUMP JUMPDEST PUSH2 0x782 JUMPI PUSH1 0x40 MLOAD PUSH32 0x8C379A000000000000000000000000000000000000000000000000000000000 DUP2 MSTORE PUSH1 0x4 ADD PUSH2 0x779 SWAP1 PUSH2 0x64FA JUMP JUMPDEST PUSH1 0x40 MLOAD DUP1 SWAP2 SUB SWAP1 REVERT JUMPDEST PUSH2 0x796 PUSH8 0xF2A3B9BA0BC2281E PUSH1 0xC0 SHL PUSH2 0x45C9 JUMP JUMPDEST PUSH2 0x7AA PUSH8 0x9859BE0913BC1E17 PUSH1 0xC0 SHL PUSH2 0x45C9 JUMP JUMPDEST PUSH2 0x7BE PUSH8 0x8F5912FC196C66FB PUSH1 0xC0 SHL PUSH2 0x45C9 JUMP JUMPDEST PUSH2 0x7D2 PUSH8 0xD451AD32AAB430B8 PUSH1 0xC0 SHL PUSH2 0x45C9 JUMP JUMPDEST PUSH1 0x0 DUP3 GT PUSH2 0x815 JUMPI PUSH1 0x40 MLOAD PUSH32 0x8C379A000000000000000000000000000000000000000000000000000000000 DUP2 MSTORE PUSH1 0x4 ADD PUSH2 0x80C SWAP1 PUSH2 0x6566 JUMP JUMPDEST PUSH1 0x40 MLOAD DUP1 SWAP2 SUB SWAP1 REVERT JUMPDEST PUSH2 0x829 PUSH8 0x2F872260EC70AA80 PUSH1 0xC0 SHL PUSH2 0x45C9 JUMP JUMPDEST PUSH2 0x83D PUSH8 0xE28D98831E470A0E PUSH1 0xC0 SHL PUSH2 0x45C9 JUMP JUMPDEST PUSH2 0x851 PUSH8 0x70E61A765DFB20AA PUSH1 0xC0 SHL PUSH2 0x45C9 JUMP JUMPDEST PUSH2 0x865 PUSH8 0x68C3BD0AF40A1B5D PUSH1 0xC0 SHL PUSH2 0x45C9 JUMP JUMPDEST PUSH1 0x0 PUSH1 0x1 PUSH1 0x0 DUP5 DUP2 MSTORE PUSH1 0x20 ADD SWAP1 DUP2 MSTORE PUSH1 0x20 ADD PUSH1 0x0 KECCAK256 PUSH1 0x0 ADD SLOAD SUB PUSH2 0x8BE JUMPI PUSH1 0x40 MLOAD PUSH32 0x8C379A000000000000000000000000000000000000000000000000000000000 DUP2 MSTORE PUSH1 0x4 ADD PUSH2 0x8B5 SWAP1 PUSH2 0x65D2 JUMP JUMPDEST PUSH1 0x40 MLOAD DUP1 SWAP2 SUB SWAP1 REVERT JUMPDEST PUSH2 0x8D2 PUSH8 0x2BC4242EBEBE4289 PUSH1 0xC0 SHL PUSH2 0x45C9 JUMP JUMPDEST PUSH2 0x8E6 PUSH8 0xE87324C8C42B7147 PUSH1 0xC0 SHL PUSH2 0x45C9 JUMP JUMPDEST PUSH2 0x8FA PUSH8 0x2C4D7D6A241E4B89 PUSH1 0xC0 SHL PUSH2 0x45C9 JUMP JUMPDEST PUSH1 0x0 DUP3 PUSH1 0x40 MLOAD PUSH1 0x20 ADD PUSH2 0x90D SWAP2 SWAP1 PUSH2 0x666A JUMP JUMPDEST PUSH1 0x40 MLOAD PUSH1 0x20 DUP2 DUP4 SUB SUB DUP2 MSTORE SWAP1 PUSH1 0x40 MSTORE DUP1 MLOAD SWAP1 PUSH1 0x20 ADD KECCAK256 SWAP1 POP PUSH2 0x939 PUSH8 0xF2F4865958547479 PUSH1 0xC0 SHL PUSH2 0x45C9 JUMP JUMPDEST PUSH2 0x94D PUSH8 0x8E01888C80102D37 PUSH1 0xC0 SHL PUSH2 0x45C9 JUMP JUMPDEST PUSH2 0x9B6 DUP2 PUSH32 0xD646AE07EB0D0F77457502A65E7407930DFF4CD4FD99ABC6AAC87A753F4C8A42 DUP6 PUSH1 0x40 MLOAD PUSH1 0x20 ADD PUSH2 0x983 SWAP2 SWAP1 PUSH2 0x6690 JUMP JUMPDEST PUSH1 0x40 MLOAD PUSH1 0x20 DUP2 DUP4 SUB SUB DUP2 MSTORE SWAP1 PUSH1 0x40 MSTORE PUSH1 0x40 MLOAD PUSH1 0x20 ADD PUSH2 0x9A2 SWAP2 SWAP1 PUSH2 0x6702 JUMP JUMPDEST PUSH1 0x40 MLOAD PUSH1 0x20 DUP2 DUP4 SUB SUB DUP2 MSTORE SWAP1 PUSH1 0x40 MSTORE PUSH2 0x45CC JUMP JUMPDEST PUSH2 0x9CA PUSH8 0xBC51F865C49130A8 PUSH1 0xC0 SHL PUSH2 0x45C9 JUMP JUMPDEST PUSH2 0x9DE PUSH8 0xF8B6AC0350413CDE PUSH1 0xC0 SHL PUSH2 0x45C9 JUMP JUMPDEST DUP2 DUP1 ISZERO PUSH2 0xA4F JUMPI POP PUSH1 0x0 ISZERO ISZERO PUSH1 0x3 PUSH1 0x0 DUP4 DUP2 MSTORE PUSH1 0x20 ADD SWAP1 DUP2 MSTORE PUSH1 0x20 ADD PUSH1 0x0 KECCAK256 PUSH1 0x3 ADD PUSH1 0x0 CALLER PUSH20 0xFFFFFFFFFFFFFFFFFFFFFFFFFFFFFFFFFFFFFFFF AND PUSH20 0xFFFFFFFFFFFFFFFFFFFFFFFFFFFFFFFFFFFFFFFF AND DUP2 MSTORE PUSH1 0x20 ADD SWAP1 DUP2 MSTORE PUSH1 0x20 ADD PUSH1 0x0 KECCAK256 PUSH1 0x0 SWAP1 SLOAD SWAP1 PUSH2 0x100 EXP SWAP1 DIV PUSH1 0xFF AND ISZERO ISZERO EQ JUMPDEST ISZERO PUSH2 0xB10 JUMPI PUSH2 0xA68 PUSH8 0x4F5571DC82A8340F PUSH1 0xC0 SHL PUSH2 0x45C9 JUMP JUMPDEST PUSH2 0xA7C PUSH8 0xDF20EF43CD86120A PUSH1 0xC0 SHL PUSH2 0x45C9 JUMP JUMPDEST PUSH2 0xA90 PUSH8 0xF9332553ECEB56D8 PUSH1 0xC0 SHL PUSH2 0x45C9 JUMP JUMPDEST PUSH2 0xAAC PUSH1 0x3 PUSH1 0x0 DUP4 DUP2 MSTORE PUSH1 0x20 ADD SWAP1 DUP2 MSTORE PUSH1 0x20 ADD PUSH1 0x0 KECCAK256 CALLER PUSH2 0x4770 JUMP JUMPDEST PUSH2 0xAC0 PUSH8 0x7D4CEA3F8D4622D5 PUSH1 0xC0 SHL PUSH2 0x45C9 JUMP JUMPDEST PUSH2 0xAD4 PUSH8 0xEB262170AB108A03 PUSH1 0xC0 SHL PUSH2 0x45C9 JUMP JUMPDEST PUSH32 0xB431A69783A2491A0C400FF16DAB32CD442ABF8FE5AF63A526A7248D730192F8 DUP2 PUSH1 0x40 MLOAD PUSH2 0xB03 SWAP2 SWAP1 PUSH2 0x5E3C JUMP JUMPDEST PUSH1 0x40 MLOAD DUP1 SWAP2 SUB SWAP1 LOG1 PUSH2 0xC16 JUMP JUMPDEST PUSH2 0xB24 PUSH8 0x978F6ECC8F606819 PUSH1 0xC0 SHL PUSH2 0x45C9 JUMP JUMPDEST PUSH2 0xB38 PUSH8 0xD61646692ED40D10 PUSH1 0xC0 SHL PUSH2 0x45C9 JUMP JUMPDEST PUSH1 0x0 ISZERO ISZERO DUP3 ISZERO ISZERO SUB PUSH2 0xC00 JUMPI PUSH2 0xB58 PUSH8 0x281F41604962EF63 PUSH1 0xC0 SHL PUSH2 0x45C9 JUMP JUMPDEST PUSH2 0xB6C PUSH8 0x1DC47E9DC7E2D49 PUSH1 0xC0 SHL PUSH2 0x45C9 JUMP JUMPDEST PUSH2 0xB80 PUSH8 0xE00C6E3F0D9A678B PUSH1 0xC0 SHL PUSH2 0x45C9 JUMP JUMPDEST PUSH2 0xB9C PUSH1 0x3 PUSH1 0x0 DUP4 DUP2 MSTORE PUSH1 0x20 ADD SWAP1 DUP2 MSTORE PUSH1 0x20 ADD PUSH1 0x0 KECCAK256 CALLER PUSH2 0x49F2 JUMP JUMPDEST PUSH2 0xBB0 PUSH8 0x211496B55CB50CFF PUSH1 0xC0 SHL PUSH2 0x45C9 JUMP JUMPDEST PUSH2 0xBC4 PUSH8 0xFA27C246EEE8A08B PUSH1 0xC0 SHL PUSH2 0x45C9 JUMP JUMPDEST PUSH32 0xB431A69783A2491A0C400FF16DAB32CD442ABF8FE5AF63A526A7248D730192F8 DUP2 PUSH1 0x40 MLOAD PUSH2 0xBF3 SWAP2 SWAP1 PUSH2 0x5E3C JUMP JUMPDEST PUSH1 0x40 MLOAD DUP1 SWAP2 SUB SWAP1 LOG1 PUSH2 0xC15 JUMP JUMPDEST PUSH2 0xC14 PUSH8 0xBA7A7D4F3FF1ED82 PUSH1 0xC0 SHL PUSH2 0x45C9 JUMP JUMPDEST JUMPDEST JUMPDEST PUSH2 0xC2A PUSH8 0x19A84E662ED6D2E4 PUSH1 0xC0 SHL PUSH2 0x45C9 JUMP JUMPDEST PUSH2 0xC3E PUSH8 0x553B9AE776C1AC07 PUSH1 0xC0 SHL PUSH2 0x45C9 JUMP JUMPDEST PUSH2 0xCA4 PUSH1 0x50 PUSH1 0xFF AND PUSH1 0x2 PUSH1 0x0 PUSH32 0xD646AE07EB0D0F77457502A65E7407930DFF4CD4FD99ABC6AAC87A753F4C8A42 DUP2 MSTORE PUSH1 0x20 ADD SWAP1 DUP2 MSTORE PUSH1 0x20 ADD PUSH1 0x0 KECCAK256 PUSH1 0x0 ADD PUSH1 0x0 SWAP1 SLOAD SWAP1 PUSH2 0x100 EXP SWAP1 DIV PUSH4 0xFFFFFFFF AND PUSH2 0xC97 SWAP2 SWAP1 PUSH2 0x6767 JUMP JUMPDEST PUSH4 0xFFFFFFFF AND PUSH1 0x64 PUSH2 0x3611 JUMP JUMPDEST PUSH1 0x3 PUSH1 0x0 DUP4 DUP2 MSTORE PUSH1 0x20 ADD SWAP1 DUP2 MSTORE PUSH1 0x20 ADD PUSH1 0x0 KECCAK256 PUSH1 0x2 ADD PUSH1 0x0 SWAP1 SLOAD SWAP1 PUSH2 0x100 EXP SWAP1 DIV PUSH1 0xFF AND PUSH1 0xFF AND LT PUSH2 0xDBC JUMPI PUSH2 0xCE4 PUSH8 0x76E3A440F346F78B PUSH1 0xC0 SHL PUSH2 0x45C9 JUMP JUMPDEST PUSH2 0xCF8 PUSH8 0x2FE19DD197AE71B7 PUSH1 0xC0 SHL PUSH2 0x45C9 JUMP JUMPDEST PUSH2 0xD0C PUSH8 0x4DADAD20973E5E5D PUSH1 0xC0 SHL PUSH2 0x45C9 JUMP JUMPDEST PUSH2 0xD27 PUSH1 0x3 PUSH1 0x0 DUP4 DUP2 MSTORE PUSH1 0x20 ADD SWAP1 DUP2 MSTORE PUSH1 0x20 ADD PUSH1 0x0 KECCAK256 PUSH2 0x4BAA JUMP JUMPDEST PUSH2 0xD3B PUSH8 0xDCFD845B2FE814EE PUSH1 0xC0 SHL PUSH2 0x45C9 JUMP JUMPDEST PUSH2 0xD4F PUSH8 0x87C8EA0FEDA3ADA5 PUSH1 0xC0 SHL PUSH2 0x45C9 JUMP JUMPDEST PUSH32 0x562618DBCF74B61AE5B0F229FE40BA6D5B6AE6B4248F8C89A870DDA7C77135F6 DUP2 PUSH1 0x40 MLOAD PUSH2 0xD7E SWAP2 SWAP1 PUSH2 0x5E3C JUMP JUMPDEST PUSH1 0x40 MLOAD DUP1 SWAP2 SUB SWAP1 LOG1 PUSH2 0xD9A PUSH8 0x124F1DAD53C69BC5 PUSH1 0xC0 SHL PUSH2 0x45C9 JUMP JUMPDEST PUSH2 0xDAE PUSH8 0x6E8D3572B8C8BA0B PUSH1 0xC0 SHL PUSH2 0x45C9 JUMP JUMPDEST PUSH2 0xDB7 DUP4 PUSH2 0x4CF7 JUMP JUMPDEST PUSH2 0xDD1 JUMP JUMPDEST PUSH2 0xDD0 PUSH8 0xEC4E2BCD06462333 PUSH1 0xC0 SHL PUSH2 0x45C9 JUMP JUMPDEST JUMPDEST POP POP POP JUMP JUMPDEST PUSH1 0x1 PUSH1 0x20 MSTORE DUP1 PUSH1 0x0 MSTORE PUSH1 0x40 PUSH1 0x0 KECCAK256 PUSH1 0x0 SWAP2 POP SWAP1 POP DUP1 PUSH1 0x0 ADD SLOAD SWAP1 DUP1 PUSH1 0x1 ADD DUP1 SLOAD PUSH2 0xDFF SWAP1 PUSH2 0x67D3 JUMP JUMPDEST DUP1 PUSH1 0x1F ADD PUSH1 0x20 DUP1 SWAP2 DIV MUL PUSH1 0x20 ADD PUSH1 0x40 MLOAD SWAP1 DUP2 ADD PUSH1 0x40 MSTORE DUP1 SWAP3 SWAP2 SWAP1 DUP2 DUP2 MSTORE PUSH1 0x20 ADD DUP3 DUP1 SLOAD PUSH2 0xE2B SWAP1 PUSH2 0x67D3 JUMP JUMPDEST DUP1 ISZERO PUSH2 0xE78 JUMPI DUP1 PUSH1 0x1F LT PUSH2 0xE4D JUMPI PUSH2 0x100 DUP1 DUP4 SLOAD DIV MUL DUP4 MSTORE SWAP2 PUSH1 0x20 ADD SWAP2 PUSH2 0xE78 JUMP JUMPDEST DUP3 ADD SWAP2 SWAP1 PUSH1 0x0 MSTORE PUSH1 0x20 PUSH1 0x0 KECCAK256 SWAP1 JUMPDEST DUP2 SLOAD DUP2 MSTORE SWAP1 PUSH1 0x1 ADD SWAP1 PUSH1 0x20 ADD DUP1 DUP4 GT PUSH2 0xE5B JUMPI DUP3 SWAP1 SUB PUSH1 0x1F AND DUP3 ADD SWAP2 JUMPDEST POP POP POP POP POP SWAP1 DUP1 PUSH1 0x2 ADD DUP1 SLOAD PUSH2 0xE8D SWAP1 PUSH2 0x67D3 JUMP JUMPDEST DUP1 PUSH1 0x1F ADD PUSH1 0x20 DUP1 SWAP2 DIV MUL PUSH1 0x20 ADD PUSH1 0x40 MLOAD SWAP1 DUP2 ADD PUSH1 0x40 MSTORE DUP1 SWAP3 SWAP2 SWAP1 DUP2 DUP2 MSTORE PUSH1 0x20 ADD DUP3 DUP1 SLOAD PUSH2 0xEB9 SWAP1 PUSH2 0x67D3 JUMP JUMPDEST DUP1 ISZERO PUSH2 0xF06 JUMPI DUP1 PUSH1 0x1F LT PUSH2 0xEDB JUMPI PUSH2 0x100 DUP1 DUP4 SLOAD DIV MUL DUP4 MSTORE SWAP2 PUSH1 0x20 ADD SWAP2 PUSH2 0xF06 JUMP JUMPDEST DUP3 ADD SWAP2 SWAP1 PUSH1 0x0 MSTORE PUSH1 0x20 PUSH1 0x0 KECCAK256 SWAP1 JUMPDEST DUP2 SLOAD DUP2 MSTORE SWAP1 PUSH1 0x1 ADD SWAP1 PUSH1 0x20 ADD DUP1 DUP4 GT PUSH2 0xEE9 JUMPI DUP3 SWAP1 SUB PUSH1 0x1F AND DUP3 ADD SWAP2 JUMPDEST POP POP POP POP POP SWAP1 DUP1 PUSH1 0x3 ADD SLOAD SWAP1 POP DUP5 JUMP JUMPDEST PUSH1 0x50 DUP2 JUMP JUMPDEST PUSH1 0x3 PUSH1 0x20 MSTORE DUP1 PUSH1 0x0 MSTORE PUSH1 0x40 PUSH1 0x0 KECCAK256 PUSH1 0x0 SWAP2 POP SWAP1 POP DUP1 PUSH1 0x0 ADD PUSH1 0x0 SWAP1 SLOAD SWAP1 PUSH2 0x100 EXP SWAP1 DIV PUSH1 0xFF AND SWAP1 DUP1 PUSH1 0x1 ADD SLOAD SWAP1 DUP1 PUSH1 0x2 ADD PUSH1 0x0 SWAP1 SLOAD SWAP1 PUSH2 0x100 EXP SWAP1 DIV PUSH1 0xFF AND SWAP1 DUP1 PUSH1 0x2 ADD PUSH1 0x1 SWAP1 SLOAD SWAP1 PUSH2 0x100 EXP SWAP1 DIV PUSH1 0xFF AND SWAP1 DUP1 PUSH1 0x5 ADD DUP1 SLOAD PUSH2 0xF7D SWAP1 PUSH2 0x67D3 JUMP JUMPDEST DUP1 PUSH1 0x1F ADD PUSH1 0x20 DUP1 SWAP2 DIV MUL PUSH1 0x20 ADD PUSH1 0x40 MLOAD SWAP1 DUP2 ADD PUSH1 0x40 MSTORE DUP1 SWAP3 SWAP2 SWAP1 DUP2 DUP2 MSTORE PUSH1 0x20 ADD DUP3 DUP1 SLOAD PUSH2 0xFA9 SWAP1 PUSH2 0x67D3 JUMP JUMPDEST DUP1 ISZERO PUSH2 0xFF6 JUMPI DUP1 PUSH1 0x1F LT PUSH2 0xFCB JUMPI PUSH2 0x100 DUP1 DUP4 SLOAD DIV MUL DUP4 MSTORE SWAP2 PUSH1 0x20 ADD SWAP2 PUSH2 0xFF6 JUMP JUMPDEST DUP3 ADD SWAP2 SWAP1 PUSH1 0x0 MSTORE PUSH1 0x20 PUSH1 0x0 KECCAK256 SWAP1 JUMPDEST DUP2 SLOAD DUP2 MSTORE SWAP1 PUSH1 0x1 ADD SWAP1 PUSH1 0x20 ADD DUP1 DUP4 GT PUSH2 0xFD9 JUMPI DUP3 SWAP1 SUB PUSH1 0x1F AND DUP3 ADD SWAP2 JUMPDEST POP POP POP POP POP SWAP1 POP DUP6 JUMP JUMPDEST PUSH1 0x50 DUP2 JUMP JUMPDEST PUSH1 0x0 DUP1 PUSH1 0x0 DUP4 DUP2 MSTORE PUSH1 0x20 ADD SWAP1 DUP2 MSTORE PUSH1 0x20 ADD PUSH1 0x0 KECCAK256 PUSH1 0x1 ADD SLOAD SWAP1 POP SWAP2 SWAP1 POP JUMP JUMPDEST PUSH1 0x50 DUP2 JUMP JUMPDEST PUSH2 0x1032 DUP3 PUSH2 0x1005 JUMP JUMPDEST PUSH2 0x103B DUP2 PUSH2 0x4DC7 JUMP JUMPDEST PUSH2 0x1045 DUP4 DUP4 PUSH2 0x4DDB JUMP JUMPDEST POP POP POP JUMP JUMPDEST PUSH1 0x2 DUP2 JUMP JUMPDEST PUSH2 0x1063 PUSH8 0x515D414290EF63A7 PUSH1 0xC0 SHL PUSH2 0x45C9 JUMP JUMPDEST PUSH2 0x1077 PUSH8 0x408D4005470649CF PUSH1 0xC0 SHL PUSH2 0x45C9 JUMP JUMPDEST PUSH2 0x108B PUSH8 0x9C54A3CC10A34A3D PUSH1 0xC0 SHL PUSH2 0x45C9 JUMP JUMPDEST PUSH1 0x40 MLOAD PUSH32 0x8C379A000000000000000000000000000000000000000000000000000000000 DUP2 MSTORE PUSH1 0x4 ADD PUSH2 0x10BD SWAP1 PUSH2 0x6876 JUMP JUMPDEST PUSH1 0x40 MLOAD DUP1 SWAP2 SUB SWAP1 REVERT JUMPDEST PUSH1 0x50 DUP2 JUMP JUMPDEST PUSH1 0xF DUP2 JUMP JUMPDEST PUSH2 0x10D8 PUSH2 0x5A24 JUMP JUMPDEST PUSH2 0x10EC PUSH8 0xFB71384749976683 PUSH1 0xC0 SHL PUSH2 0x4EBB JUMP JUMPDEST PUSH2 0x1100 PUSH8 0xCABF37FB9B0FE093 PUSH1 0xC0 SHL PUSH2 0x4EBB JUMP JUMPDEST PUSH2 0x1114 PUSH8 0x8F0D48F9169A161C PUSH1 0xC0 SHL PUSH2 0x4EBB JUMP JUMPDEST PUSH2 0x1128 PUSH8 0x6F1C6119A0E8189B PUSH1 0xC0 SHL PUSH2 0x4EBB JUMP JUMPDEST PUSH1 0x0 PUSH1 0x1 PUSH1 0x0 DUP5 DUP2 MSTORE PUSH1 0x20 ADD SWAP1 DUP2 MSTORE PUSH1 0x20 ADD PUSH1 0x0 KECCAK256 PUSH1 0x0 ADD SLOAD SUB PUSH2 0x1181 JUMPI PUSH1 0x40 MLOAD PUSH32 0x8C379A000000000000000000000000000000000000000000000000000000000 DUP2 MSTORE PUSH1 0x4 ADD PUSH2 0x1178 SWAP1 PUSH2 0x68E2 JUMP JUMPDEST PUSH1 0x40 MLOAD DUP1 SWAP2 SUB SWAP1 REVERT JUMPDEST PUSH2 0x1195 PUSH8 0x1EFBC114CA82BA3A PUSH1 0xC0 SHL PUSH2 0x4EBB JUMP JUMPDEST PUSH2 0x11A9 PUSH8 0xB5E10CCF1DFB2CBF PUSH1 0xC0 SHL PUSH2 0x4EBB JUMP JUMPDEST PUSH2 0x11BD PUSH8 0x24AF5E47DD5E209B PUSH1 0xC0 SHL PUSH2 0x4EBB JUMP JUMPDEST PUSH1 0x1 PUSH1 0x0 DUP4 DUP2 MSTORE PUSH1 0x20 ADD SWAP1 DUP2 MSTORE PUSH1 0x20 ADD PUSH1 0x0 KECCAK256 PUSH1 0x40 MLOAD DUP1 PUSH1 0x80 ADD PUSH1 0x40 MSTORE SWAP1 DUP2 PUSH1 0x0 DUP3 ADD SLOAD DUP2 MSTORE PUSH1 0x20 ADD PUSH1 0x1 DUP3 ADD DUP1 SLOAD PUSH2 0x11F5 SWAP1 PUSH2 0x67D3 JUMP JUMPDEST DUP1 PUSH1 0x1F ADD PUSH1 0x20 DUP1 SWAP2 DIV MUL PUSH1 0x20 ADD PUSH1 0x40 MLOAD SWAP1 DUP2 ADD PUSH1 0x40 MSTORE DUP1 SWAP3 SWAP2 SWAP1 DUP2 DUP2 MSTORE PUSH1 0x20 ADD DUP3 DUP1 SLOAD PUSH2 0x1221 SWAP1 PUSH2 0x67D3 JUMP JUMPDEST DUP1 ISZERO PUSH2 0x126E JUMPI DUP1 PUSH1 0x1F LT PUSH2 0x1243 JUMPI PUSH2 0x100 DUP1 DUP4 SLOAD DIV MUL DUP4 MSTORE SWAP2 PUSH1 0x20 ADD SWAP2 PUSH2 0x126E JUMP JUMPDEST DUP3 ADD SWAP2 SWAP1 PUSH1 0x0 MSTORE PUSH1 0x20 PUSH1 0x0 KECCAK256 SWAP1 JUMPDEST DUP2 SLOAD DUP2 MSTORE SWAP1 PUSH1 0x1 ADD SWAP1 PUSH1 0x20 ADD DUP1 DUP4 GT PUSH2 0x1251 JUMPI DUP3 SWAP1 SUB PUSH1 0x1F AND DUP3 ADD SWAP2 JUMPDEST POP POP POP POP POP DUP2 MSTORE PUSH1 0x20 ADD PUSH1 0x2 DUP3 ADD DUP1 SLOAD PUSH2 0x1287 SWAP1 PUSH2 0x67D3 JUMP JUMPDEST DUP1 PUSH1 0x1F ADD PUSH1 0x20 DUP1 SWAP2 DIV MUL PUSH1 0x20 ADD PUSH1 0x40 MLOAD SWAP1 DUP2 ADD PUSH1 0x40 MSTORE DUP1 SWAP3 SWAP2 SWAP1 DUP2 DUP2 MSTORE PUSH1 0x20 ADD DUP3 DUP1 SLOAD PUSH2 0x12B3 SWAP1 PUSH2 0x67D3 JUMP JUMPDEST DUP1 ISZERO PUSH2 0x1300 JUMPI DUP1 PUSH1 0x1F LT PUSH2 0x12D5 JUMPI PUSH2 0x100 DUP1 DUP4 SLOAD DIV MUL DUP4 MSTORE SWAP2 PUSH1 0x20 ADD SWAP2 PUSH2 0x1300 JUMP JUMPDEST DUP3 ADD SWAP2 SWAP1 PUSH1 0x0 MSTORE PUSH1 0x20 PUSH1 0x0 KECCAK256 SWAP1 JUMPDEST DUP2 SLOAD DUP2 MSTORE SWAP1 PUSH1 0x1 ADD SWAP1 PUSH1 0x20 ADD DUP1 DUP4 GT PUSH2 0x12E3 JUMPI DUP3 SWAP1 SUB PUSH1 0x1F AND DUP3 ADD SWAP2 JUMPDEST POP POP POP POP POP DUP2 MSTORE PUSH1 0x20 ADD PUSH1 0x3 DUP3 ADD SLOAD DUP2 MSTORE POP POP SWAP1 POP SWAP2 SWAP1 POP JUMP JUMPDEST PUSH1 0x33 DUP2 JUMP JUMPDEST PUSH2 0x1333 PUSH8 0x35DC9D0C045E8DEA PUSH1 0xC0 SHL PUSH2 0x45C9 JUMP JUMPDEST PUSH2 0x1347 PUSH8 0xB7DBF79DDBA2CAB7 PUSH1 0xC0 SHL PUSH2 0x45C9 JUMP JUMPDEST PUSH2 0x135B PUSH8 0x825657E0D56BE418 PUSH1 0xC0 SHL PUSH2 0x45C9 JUMP JUMPDEST PUSH1 0x0 PUSH1 0x2 PUSH1 0x0 DUP6 DUP2 MSTORE PUSH1 0x20 ADD SWAP1 DUP2 MSTORE PUSH1 0x20 ADD PUSH1 0x0 KECCAK256 SWAP1 POP PUSH2 0x1386 PUSH8 0xDAD7EBA3D5EA0FC5 PUSH1 0xC0 SHL PUSH2 0x45C9 JUMP JUMPDEST PUSH2 0x139A PUSH8 0x3D21F2ECDA879AC7 PUSH1 0xC0 SHL PUSH2 0x45C9 JUMP JUMPDEST PUSH2 0x13AE PUSH8 0xFEBE2105280DEA46 PUSH1 0xC0 SHL PUSH2 0x45C9 JUMP JUMPDEST DUP1 PUSH1 0x0 ADD PUSH1 0x0 SWAP1 SLOAD SWAP1 PUSH2 0x100 EXP SWAP1 DIV PUSH4 0xFFFFFFFF AND PUSH4 0xFFFFFFFF AND DUP2 PUSH1 0x0 ADD PUSH1 0x8 SWAP1 SLOAD SWAP1 PUSH2 0x100 EXP SWAP1 DIV PUSH4 0xFFFFFFFF AND PUSH4 0xFFFFFFFF AND GT DUP2 PUSH1 0x2 ADD SLOAD PUSH1 0x40 MLOAD PUSH1 0x20 ADD PUSH2 0x13FA SWAP2 SWAP1 PUSH2 0x6923 JUMP JUMPDEST PUSH1 0x40 MLOAD PUSH1 0x20 DUP2 DUP4 SUB SUB DUP2 MSTORE SWAP1 PUSH1 0x40 MSTORE PUSH1 0x40 MLOAD PUSH1 0x20 ADD PUSH2 0x1419 SWAP2 SWAP1 PUSH2 0x698A JUMP JUMPDEST PUSH1 0x40 MLOAD PUSH1 0x20 DUP2 DUP4 SUB SUB DUP2 MSTORE SWAP1 PUSH1 0x40 MSTORE SWAP1 PUSH2 0x1469 JUMPI PUSH1 0x40 MLOAD PUSH32 0x8C379A000000000000000000000000000000000000000000000000000000000 DUP2 MSTORE PUSH1 0x4 ADD PUSH2 0x1460 SWAP2 SWAP1 PUSH2 0x69BF JUMP JUMPDEST PUSH1 0x40 MLOAD DUP1 SWAP2 SUB SWAP1 REVERT JUMPDEST POP PUSH2 0x147E PUSH8 0x198F1E6710F19363 PUSH1 0xC0 SHL PUSH2 0x45C9 JUMP JUMPDEST PUSH2 0x1492 PUSH8 0x8FDDFCC5363932F PUSH1 0xC0 SHL PUSH2 0x45C9 JUMP JUMPDEST PUSH2 0x14A6 PUSH8 0xEE4A48E3DB8A3245 PUSH1 0xC0 SHL PUSH2 0x45C9 JUMP JUMPDEST PUSH2 0x14BA PUSH8 0x85550DFB5A2FA17E PUSH1 0xC0 SHL PUSH2 0x45C9 JUMP JUMPDEST PUSH2 0x14C8 DUP2 PUSH1 0x1 ADD SLOAD CALLER PUSH2 0x26DA JUMP JUMPDEST DUP2 PUSH1 0x2 ADD SLOAD PUSH1 0x40 MLOAD PUSH1 0x20 ADD PUSH2 0x14DD SWAP2 SWAP1 PUSH2 0x6923 JUMP JUMPDEST PUSH1 0x40 MLOAD PUSH1 0x20 DUP2 DUP4 SUB SUB DUP2 MSTORE SWAP1 PUSH1 0x40 MSTORE PUSH1 0x40 MLOAD PUSH1 0x20 ADD PUSH2 0x14FC SWAP2 SWAP1 PUSH2 0x6A2D JUMP JUMPDEST PUSH1 0x40 MLOAD PUSH1 0x20 DUP2 DUP4 SUB SUB DUP2 MSTORE SWAP1 PUSH1 0x40 MSTORE SWAP1 PUSH2 0x154C JUMPI PUSH1 0x40 MLOAD PUSH32 0x8C379A000000000000000000000000000000000000000000000000000000000 DUP2 MSTORE PUSH1 0x4 ADD PUSH2 0x1543 SWAP2 SWAP1 PUSH2 0x69BF JUMP JUMPDEST PUSH1 0x40 MLOAD DUP1 SWAP2 SUB SWAP1 REVERT JUMPDEST POP PUSH2 0x1561 PUSH8 0x987F0DD0903D99A0 PUSH1 0xC0 SHL PUSH2 0x45C9 JUMP JUMPDEST PUSH2 0x1575 PUSH8 0x65417F5293396293 PUSH1 0xC0 SHL PUSH2 0x45C9 JUMP JUMPDEST PUSH2 0x1589 PUSH8 0x1A036548B9454EFA PUSH1 0xC0 SHL PUSH2 0x45C9 JUMP JUMPDEST PUSH2 0x159D PUSH8 0x8A81A5A89E7249F2 PUSH1 0xC0 SHL PUSH2 0x45C9 JUMP JUMPDEST PUSH1 0x0 ISZERO ISZERO PUSH2 0x15AB DUP6 DUP6 PUSH2 0x26DA JUMP JUMPDEST ISZERO ISZERO EQ DUP2 PUSH1 0x2 ADD SLOAD PUSH1 0x40 MLOAD PUSH1 0x20 ADD PUSH2 0x15C3 SWAP2 SWAP1 PUSH2 0x6923 JUMP JUMPDEST PUSH1 0x40 MLOAD PUSH1 0x20 DUP2 DUP4 SUB SUB DUP2 MSTORE SWAP1 PUSH1 0x40 MSTORE PUSH1 0x40 MLOAD PUSH1 0x20 ADD PUSH2 0x15E2 SWAP2 SWAP1 PUSH2 0x6A88 JUMP JUMPDEST PUSH1 0x40 MLOAD PUSH1 0x20 DUP2 DUP4 SUB SUB DUP2 MSTORE SWAP1 PUSH1 0x40 MSTORE SWAP1 PUSH2 0x1632 JUMPI PUSH1 0x40 MLOAD PUSH32 0x8C379A000000000000000000000000000000000000000000000000000000000 DUP2 MSTORE PUSH1 0x4 ADD PUSH2 0x1629 SWAP2 SWAP1 PUSH2 0x69BF JUMP JUMPDEST PUSH1 0x40 MLOAD DUP1 SWAP2 SUB SWAP1 REVERT JUMPDEST POP PUSH2 0x1647 PUSH8 0x4FADF5AF7278B04 PUSH1 0xC0 SHL PUSH2 0x45C9 JUMP JUMPDEST PUSH2 0x165B PUSH8 0xA15A5378DC28021C PUSH1 0xC0 SHL PUSH2 0x45C9 JUMP JUMPDEST PUSH2 0x166F PUSH8 0x21FC27606240057C PUSH1 0xC0 SHL PUSH2 0x45C9 JUMP JUMPDEST PUSH1 0x0 DUP4 DUP6 PUSH1 0x40 MLOAD PUSH1 0x20 ADD PUSH2 0x1684 SWAP3 SWAP2 SWAP1 PUSH2 0x6B42 JUMP JUMPDEST PUSH1 0x40 MLOAD PUSH1 0x20 DUP2 DUP4 SUB SUB DUP2 MSTORE SWAP1 PUSH1 0x40 MSTORE DUP1 MLOAD SWAP1 PUSH1 0x20 ADD KECCAK256 SWAP1 POP PUSH2 0x16B0 PUSH8 0xE67F2367DE48A396 PUSH1 0xC0 SHL PUSH2 0x45C9 JUMP JUMPDEST PUSH2 0x16C4 PUSH8 0x3BBA1B125BE8F21A PUSH1 0xC0 SHL PUSH2 0x45C9 JUMP JUMPDEST PUSH2 0x1736 DUP2 DUP4 PUSH1 0x1 ADD SLOAD DUP5 PUSH1 0x2 ADD SLOAD PUSH1 0x40 MLOAD PUSH1 0x20 ADD PUSH2 0x16E2 SWAP2 SWAP1 PUSH2 0x6923 JUMP JUMPDEST PUSH1 0x40 MLOAD PUSH1 0x20 DUP2 DUP4 SUB SUB DUP2 MSTORE SWAP1 PUSH1 0x40 MSTORE DUP8 PUSH1 0x40 MLOAD PUSH1 0x20 ADD PUSH2 0x1702 SWAP2 SWAP1 PUSH2 0x6B79 JUMP JUMPDEST PUSH1 0x40 MLOAD PUSH1 0x20 DUP2 DUP4 SUB SUB DUP2 MSTORE SWAP1 PUSH1 0x40 MSTORE PUSH1 0x40 MLOAD PUSH1 0x20 ADD PUSH2 0x1722 SWAP3 SWAP2 SWAP1 PUSH2 0x6BE0 JUMP JUMPDEST PUSH1 0x40 MLOAD PUSH1 0x20 DUP2 DUP4 SUB SUB DUP2 MSTORE SWAP1 PUSH1 0x40 MSTORE PUSH2 0x45CC JUMP JUMPDEST PUSH2 0x174A PUSH8 0xEB5BB2AC8E80D29B PUSH1 0xC0 SHL PUSH2 0x45C9 JUMP JUMPDEST PUSH2 0x175E PUSH8 0x55EA1935824A5E18 PUSH1 0xC0 SHL PUSH2 0x45C9 JUMP JUMPDEST DUP3 DUP1 ISZERO PUSH2 0x17CF JUMPI POP PUSH1 0x0 ISZERO ISZERO PUSH1 0x3 PUSH1 0x0 DUP4 DUP2 MSTORE PUSH1 0x20 ADD SWAP1 DUP2 MSTORE PUSH1 0x20 ADD PUSH1 0x0 KECCAK256 PUSH1 0x3 ADD PUSH1 0x0 CALLER PUSH20 0xFFFFFFFFFFFFFFFFFFFFFFFFFFFFFFFFFFFFFFFF AND PUSH20 0xFFFFFFFFFFFFFFFFFFFFFFFFFFFFFFFFFFFFFFFF AND DUP2 MSTORE PUSH1 0x20 ADD SWAP1 DUP2 MSTORE PUSH1 0x20 ADD PUSH1 0x0 KECCAK256 PUSH1 0x0 SWAP1 SLOAD SWAP1 PUSH2 0x100 EXP SWAP1 DIV PUSH1 0xFF AND ISZERO ISZERO EQ JUMPDEST ISZERO PUSH2 0x1890 JUMPI PUSH2 0x17E8 PUSH8 0x2A12CAC354A8E823 PUSH1 0xC0 SHL PUSH2 0x45C9 JUMP JUMPDEST PUSH2 0x17FC PUSH8 0x67EC4DA59FBC86A1 PUSH1 0xC0 SHL PUSH2 0x45C9 JUMP JUMPDEST PUSH2 0x1810 PUSH8 0x6EFDDDF06DED552E PUSH1 0xC0 SHL PUSH2 0x45C9 JUMP JUMPDEST PUSH2 0x182C PUSH1 0x3 PUSH1 0x0 DUP4 DUP2 MSTORE PUSH1 0x20 ADD SWAP1 DUP2 MSTORE PUSH1 0x20 ADD PUSH1 0x0 KECCAK256 CALLER PUSH2 0x4770 JUMP JUMPDEST PUSH2 0x1840 PUSH8 0x8F6D07B51ABB6A24 PUSH1 0xC0 SHL PUSH2 0x45C9 JUMP JUMPDEST PUSH2 0x1854 PUSH8 0xA14FB71BA5E7613F PUSH1 0xC0 SHL PUSH2 0x45C9 JUMP JUMPDEST PUSH32 0xB431A69783A2491A0C400FF16DAB32CD442ABF8FE5AF63A526A7248D730192F8 DUP2 PUSH1 0x40 MLOAD PUSH2 0x1883 SWAP2 SWAP1 PUSH2 0x5E3C JUMP JUMPDEST PUSH1 0x40 MLOAD DUP1 SWAP2 SUB SWAP1 LOG1 PUSH2 0x1996 JUMP JUMPDEST PUSH2 0x18A4 PUSH8 0xDF7DD5880412D4B9 PUSH1 0xC0 SHL PUSH2 0x45C9 JUMP JUMPDEST PUSH2 0x18B8 PUSH8 0x5FF1C5FAC858EEC9 PUSH1 0xC0 SHL PUSH2 0x45C9 JUMP JUMPDEST PUSH1 0x0 ISZERO ISZERO DUP4 ISZERO ISZERO SUB PUSH2 0x1980 JUMPI PUSH2 0x18D8 PUSH8 0xFE26844B548A8378 PUSH1 0xC0 SHL PUSH2 0x45C9 JUMP JUMPDEST PUSH2 0x18EC PUSH8 0x68A51F3C021201CB PUSH1 0xC0 SHL PUSH2 0x45C9 JUMP JUMPDEST PUSH2 0x1900 PUSH8 0xA21E7EBE78774F90 PUSH1 0xC0 SHL PUSH2 0x45C9 JUMP JUMPDEST PUSH2 0x191C PUSH1 0x3 PUSH1 0x0 DUP4 DUP2 MSTORE PUSH1 0x20 ADD SWAP1 DUP2 MSTORE PUSH1 0x20 ADD PUSH1 0x0 KECCAK256 CALLER PUSH2 0x49F2 JUMP JUMPDEST PUSH2 0x1930 PUSH8 0xCD288A479316CB8E PUSH1 0xC0 SHL PUSH2 0x45C9 JUMP JUMPDEST PUSH2 0x1944 PUSH8 0xE62655D9C0DA73F4 PUSH1 0xC0 SHL PUSH2 0x45C9 JUMP JUMPDEST PUSH32 0xB431A69783A2491A0C400FF16DAB32CD442ABF8FE5AF63A526A7248D730192F8 DUP2 PUSH1 0x40 MLOAD PUSH2 0x1973 SWAP2 SWAP1 PUSH2 0x5E3C JUMP JUMPDEST PUSH1 0x40 MLOAD DUP1 SWAP2 SUB SWAP1 LOG1 PUSH2 0x1995 JUMP JUMPDEST PUSH2 0x1994 PUSH8 0x5D17B8D482393673 PUSH1 0xC0 SHL PUSH2 0x45C9 JUMP JUMPDEST JUMPDEST JUMPDEST PUSH2 0x19AA PUSH8 0xA680BCC96564015D PUSH1 0xC0 SHL PUSH2 0x45C9 JUMP JUMPDEST PUSH2 0x19BE PUSH8 0x4108A0766FB3770F PUSH1 0xC0 SHL PUSH2 0x45C9 JUMP JUMPDEST PUSH2 0x1A18 DUP3 PUSH1 0x0 ADD PUSH1 0xC SWAP1 SLOAD SWAP1 PUSH2 0x100 EXP SWAP1 DIV PUSH1 0xFF AND PUSH1 0xFF AND PUSH1 0x2 PUSH1 0x0 DUP6 PUSH1 0x1 ADD SLOAD DUP2 MSTORE PUSH1 0x20 ADD SWAP1 DUP2 MSTORE PUSH1 0x20 ADD PUSH1 0x0 KECCAK256 PUSH1 0x0 ADD PUSH1 0x0 SWAP1 SLOAD SWAP1 PUSH2 0x100 EXP SWAP1 DIV PUSH4 0xFFFFFFFF AND PUSH2 0x1A0B SWAP2 SWAP1 PUSH2 0x6767 JUMP JUMPDEST PUSH4 0xFFFFFFFF AND PUSH1 0x64 PUSH2 0x3611 JUMP JUMPDEST PUSH1 0x3 PUSH1 0x0 DUP4 DUP2 MSTORE PUSH1 0x20 ADD SWAP1 DUP2 MSTORE PUSH1 0x20 ADD PUSH1 0x0 KECCAK256 PUSH1 0x2 ADD PUSH1 0x0 SWAP1 SLOAD SWAP1 PUSH2 0x100 EXP SWAP1 DIV PUSH1 0xFF AND PUSH1 0xFF AND LT PUSH2 0x1B87 JUMPI PUSH2 0x1A58 PUSH8 0x37C85746C2F8F065 PUSH1 0xC0 SHL PUSH2 0x45C9 JUMP JUMPDEST PUSH2 0x1A6C PUSH8 0x2011FAB2EAC00491 PUSH1 0xC0 SHL PUSH2 0x45C9 JUMP JUMPDEST PUSH2 0x1A80 PUSH8 0x44A1B5A674D397BA PUSH1 0xC0 SHL PUSH2 0x45C9 JUMP JUMPDEST PUSH2 0x1A9B PUSH1 0x3 PUSH1 0x0 DUP4 DUP2 MSTORE PUSH1 0x20 ADD SWAP1 DUP2 MSTORE PUSH1 0x20 ADD PUSH1 0x0 KECCAK256 PUSH2 0x4BAA JUMP JUMPDEST PUSH2 0x1AAF PUSH8 0x356380150091118D PUSH1 0xC0 SHL PUSH2 0x45C9 JUMP JUMPDEST PUSH2 0x1AC3 PUSH8 0xD1DA6E531BB5433E PUSH1 0xC0 SHL PUSH2 0x45C9 JUMP JUMPDEST PUSH32 0x562618DBCF74B61AE5B0F229FE40BA6D5B6AE6B4248F8C89A870DDA7C77135F6 DUP2 PUSH1 0x40 MLOAD PUSH2 0x1AF2 SWAP2 SWAP1 PUSH2 0x5E3C JUMP JUMPDEST PUSH1 0x40 MLOAD DUP1 SWAP2 SUB SWAP1 LOG1 PUSH2 0x1B0E PUSH8 0x2EE69EE778148743 PUSH1 0xC0 SHL PUSH2 0x45C9 JUMP JUMPDEST PUSH2 0x1B22 PUSH8 0x1B9E414AB197E55F PUSH1 0xC0 SHL PUSH2 0x45C9 JUMP JUMPDEST PUSH2 0x1B2C DUP6 DUP6 PUSH2 0x4DDB JUMP JUMPDEST PUSH2 0x1B40 PUSH8 0x14F85A465318971D PUSH1 0xC0 SHL PUSH2 0x45C9 JUMP JUMPDEST PUSH1 0x1 DUP3 PUSH1 0x0 ADD PUSH1 0x0 DUP3 DUP3 DUP3 SWAP1 SLOAD SWAP1 PUSH2 0x100 EXP SWAP1 DIV PUSH4 0xFFFFFFFF AND PUSH2 0x1B64 SWAP2 SWAP1 PUSH2 0x6C22 JUMP JUMPDEST SWAP3 POP PUSH2 0x100 EXP DUP2 SLOAD DUP2 PUSH4 0xFFFFFFFF MUL NOT AND SWAP1 DUP4 PUSH4 0xFFFFFFFF AND MUL OR SWAP1 SSTORE POP PUSH2 0x1B9C JUMP JUMPDEST PUSH2 0x1B9B PUSH8 0xE79B395DE5E6D684 PUSH1 0xC0 SHL PUSH2 0x45C9 JUMP JUMPDEST JUMPDEST POP POP POP POP POP JUMP JUMPDEST PUSH1 0x6 PUSH1 0x20 MSTORE DUP1 PUSH1 0x0 MSTORE PUSH1 0x40 PUSH1 0x0 KECCAK256 PUSH1 0x0 SWAP2 POP SWAP1 POP DUP1 PUSH1 0x0 ADD PUSH1 0x0 SWAP1 SLOAD SWAP1 PUSH2 0x100 EXP SWAP1 DIV PUSH1 0xFF AND SWAP1 DUP1 PUSH1 0x0 ADD PUSH1 0x1 SWAP1 SLOAD SWAP1 PUSH2 0x100 EXP SWAP1 DIV PUSH1 0xFF AND SWAP1 DUP1 PUSH1 0x0 ADD PUSH1 0x2 SWAP1 SLOAD SWAP1 PUSH2 0x100 EXP SWAP1 DIV PUSH1 0xFF AND SWAP1 DUP1 PUSH1 0x1 ADD SLOAD SWAP1 DUP1 PUSH1 0x2 ADD PUSH1 0x0 SWAP1 SLOAD SWAP1 PUSH2 0x100 EXP SWAP1 DIV PUSH1 0xFF AND SWAP1 DUP1 PUSH1 0x3 ADD SLOAD SWAP1 POP DUP7 JUMP JUMPDEST PUSH1 0x50 DUP2 JUMP JUMPDEST PUSH2 0x1C2C PUSH8 0x4ABA95960958E732 PUSH1 0xC0 SHL PUSH2 0x45C9 JUMP JUMPDEST PUSH2 0x1C40 PUSH8 0x30249E749F45B5E4 PUSH1 0xC0 SHL PUSH2 0x45C9 JUMP JUMPDEST PUSH2 0x1C54 PUSH8 0x374DFD98B823C8CF PUSH1 0xC0 SHL PUSH2 0x45C9 JUMP JUMPDEST PUSH2 0x1C68 PUSH8 0x20270532058F02E5 PUSH1 0xC0 SHL PUSH2 0x45C9 JUMP JUMPDEST PUSH2 0x1C92 PUSH32 0xD646AE07EB0D0F77457502A65E7407930DFF4CD4FD99ABC6AAC87A753F4C8A42 CALLER PUSH2 0x26DA JUMP JUMPDEST PUSH2 0x1CD1 JUMPI PUSH1 0x40 MLOAD PUSH32 0x8C379A000000000000000000000000000000000000000000000000000000000 DUP2 MSTORE PUSH1 0x4 ADD PUSH2 0x1CC8 SWAP1 PUSH2 0x64FA JUMP JUMPDEST PUSH1 0x40 MLOAD DUP1 SWAP2 SUB SWAP1 REVERT JUMPDEST PUSH2 0x1CE5 PUSH8 0x9E04F1A5C5BDA7DF PUSH1 0xC0 SHL PUSH2 0x45C9 JUMP JUMPDEST PUSH2 0x1CF9 PUSH8 0xD618060FAF473A2A PUSH1 0xC0 SHL PUSH2 0x45C9 JUMP JUMPDEST PUSH2 0x1D0D PUSH8 0x59AACAB69E3A1CF8 PUSH1 0xC0 SHL PUSH2 0x45C9 JUMP JUMPDEST PUSH2 0x1D21 PUSH8 0x1F8604B2E035DF8C PUSH1 0xC0 SHL PUSH2 0x45C9 JUMP JUMPDEST PUSH1 0x0 PUSH1 0x1 PUSH1 0x0 DUP8 DUP2 MSTORE PUSH1 0x20 ADD SWAP1 DUP2 MSTORE PUSH1 0x20 ADD PUSH1 0x0 KECCAK256 PUSH1 0x0 ADD SLOAD SUB PUSH2 0x1D7A JUMPI PUSH1 0x40 MLOAD PUSH32 0x8C379A000000000000000000000000000000000000000000000000000000000 DUP2 MSTORE PUSH1 0x4 ADD PUSH2 0x1D71 SWAP1 PUSH2 0x65D2 JUMP JUMPDEST PUSH1 0x40 MLOAD DUP1 SWAP2 SUB SWAP1 REVERT JUMPDEST PUSH2 0x1D8E PUSH8 0x4341521415B393FF PUSH1 0xC0 SHL PUSH2 0x45C9 JUMP JUMPDEST PUSH2 0x1DA2 PUSH8 0x3ABDA3DB58EE88D6 PUSH1 0xC0 SHL PUSH2 0x45C9 JUMP JUMPDEST PUSH2 0x1DB6 PUSH8 0xD0A65ECDFB35759E PUSH1 0xC0 SHL PUSH2 0x45C9 JUMP JUMPDEST PUSH2 0x1DCA PUSH8 0xFECB9A5516D562AD PUSH1 0xC0 SHL PUSH2 0x45C9 JUMP JUMPDEST PUSH1 0x0 PUSH1 0x3 DUP2 GT ISZERO PUSH2 0x1DDE JUMPI PUSH2 0x1DDD PUSH2 0x602D JUMP JUMPDEST JUMPDEST DUP5 PUSH1 0x3 DUP2 GT ISZERO PUSH2 0x1DF1 JUMPI PUSH2 0x1DF0 PUSH2 0x602D JUMP JUMPDEST JUMPDEST LT ISZERO DUP1 ISZERO PUSH2 0x1E23 JUMPI POP PUSH1 0x3 DUP1 DUP2 GT ISZERO PUSH2 0x1E0D JUMPI PUSH2 0x1E0C PUSH2 0x602D JUMP JUMPDEST JUMPDEST DUP5 PUSH1 0x3 DUP2 GT ISZERO PUSH2 0x1E20 JUMPI PUSH2 0x1E1F PUSH2 0x602D JUMP JUMPDEST JUMPDEST GT ISZERO JUMPDEST PUSH2 0x1E62 JUMPI PUSH1 0x40 MLOAD PUSH32 0x8C379A000000000000000000000000000000000000000000000000000000000 DUP2 MSTORE PUSH1 0x4 ADD PUSH2 0x1E59 SWAP1 PUSH2 0x6CA6 JUMP JUMPDEST PUSH1 0x40 MLOAD DUP1 SWAP2 SUB SWAP1 REVERT JUMPDEST PUSH2 0x1E76 PUSH8 0x11522E4C80B8ACF5 PUSH1 0xC0 SHL PUSH2 0x45C9 JUMP JUMPDEST PUSH2 0x1E8A PUSH8 0x5A87C8131B0F3476 PUSH1 0xC0 SHL PUSH2 0x45C9 JUMP JUMPDEST PUSH2 0x1E9E PUSH8 0xB52E37C57F13F036 PUSH1 0xC0 SHL PUSH2 0x45C9 JUMP JUMPDEST PUSH2 0x1EB2 PUSH8 0xC6BC374FA7FEFF01 PUSH1 0xC0 SHL PUSH2 0x45C9 JUMP JUMPDEST PUSH1 0x0 PUSH1 0x2 DUP2 GT ISZERO PUSH2 0x1EC6 JUMPI PUSH2 0x1EC5 PUSH2 0x602D JUMP JUMPDEST JUMPDEST DUP4 PUSH1 0x2 DUP2 GT ISZERO PUSH2 0x1ED9 JUMPI PUSH2 0x1ED8 PUSH2 0x602D JUMP JUMPDEST JUMPDEST LT ISZERO DUP1 ISZERO PUSH2 0x1F0B JUMPI POP PUSH1 0x2 DUP1 DUP2 GT ISZERO PUSH2 0x1EF5 JUMPI PUSH2 0x1EF4 PUSH2 0x602D JUMP JUMPDEST JUMPDEST DUP4 PUSH1 0x2 DUP2 GT ISZERO PUSH2 0x1F08 JUMPI PUSH2 0x1F07 PUSH2 0x602D JUMP JUMPDEST JUMPDEST GT ISZERO JUMPDEST PUSH2 0x1F4A JUMPI PUSH1 0x40 MLOAD PUSH32 0x8C379A000000000000000000000000000000000000000000000000000000000 DUP2 MSTORE PUSH1 0x4 ADD PUSH2 0x1F41 SWAP1 PUSH2 0x6D12 JUMP JUMPDEST PUSH1 0x40 MLOAD DUP1 SWAP2 SUB SWAP1 REVERT JUMPDEST PUSH2 0x1F5E PUSH8 0x86AC1E62D24A3498 PUSH1 0xC0 SHL PUSH2 0x45C9 JUMP JUMPDEST PUSH2 0x1F72 PUSH8 0x9E5C2CDD766B16DE PUSH1 0xC0 SHL PUSH2 0x45C9 JUMP JUMPDEST PUSH2 0x1F86 PUSH8 0x53AAAF9320FE18FD PUSH1 0xC0 SHL PUSH2 0x45C9 JUMP JUMPDEST PUSH2 0x1F9A PUSH8 0xAB49E147B91272B3 PUSH1 0xC0 SHL PUSH2 0x45C9 JUMP JUMPDEST PUSH1 0x0 PUSH1 0xF DUP2 GT ISZERO PUSH2 0x1FAE JUMPI PUSH2 0x1FAD PUSH2 0x602D JUMP JUMPDEST JUMPDEST DUP3 PUSH1 0xF DUP2 GT ISZERO PUSH2 0x1FC1 JUMPI PUSH2 0x1FC0 PUSH2 0x602D JUMP JUMPDEST JUMPDEST LT ISZERO DUP1 ISZERO PUSH2 0x1FF3 JUMPI POP PUSH1 0xF DUP1 DUP2 GT ISZERO PUSH2 0x1FDD JUMPI PUSH2 0x1FDC PUSH2 0x602D JUMP JUMPDEST JUMPDEST DUP3 PUSH1 0xF DUP2 GT ISZERO PUSH2 0x1FF0 JUMPI PUSH2 0x1FEF PUSH2 0x602D JUMP JUMPDEST JUMPDEST GT ISZERO JUMPDEST PUSH2 0x2032 JUMPI PUSH1 0x40 MLOAD PUSH32 0x8C379A000000000000000000000000000000000000000000000000000000000 DUP2 MSTORE PUSH1 0x4 ADD PUSH2 0x2029 SWAP1 PUSH2 0x6D7E JUMP JUMPDEST PUSH1 0x40 MLOAD DUP1 SWAP2 SUB SWAP1 REVERT JUMPDEST PUSH2 0x2046 PUSH8 0x9AB8A363C1DB47F7 PUSH1 0xC0 SHL PUSH2 0x45C9 JUMP JUMPDEST PUSH2 0x205A PUSH8 0xC80F0B231C338B2D PUSH1 0xC0 SHL PUSH2 0x45C9 JUMP JUMPDEST PUSH2 0x206E PUSH8 0x5397BBBEEF836AD8 PUSH1 0xC0 SHL PUSH2 0x45C9 JUMP JUMPDEST PUSH2 0x2082 PUSH8 0x9B6D6670ACBBE933 PUSH1 0xC0 SHL PUSH2 0x45C9 JUMP JUMPDEST PUSH1 0x1 ISZERO ISZERO PUSH1 0x6 PUSH1 0x0 DUP8 DUP8 DUP8 DUP8 PUSH1 0x40 MLOAD PUSH1 0x20 ADD PUSH2 0x20A1 SWAP5 SWAP4 SWAP3 SWAP2 SWAP1 PUSH2 0x6E02 JUMP JUMPDEST PUSH1 0x40 MLOAD PUSH1 0x20 DUP2 DUP4 SUB SUB DUP2 MSTORE SWAP1 PUSH1 0x40 MSTORE DUP1 MLOAD SWAP1 PUSH1 0x20 ADD KECCAK256 DUP2 MSTORE PUSH1 0x20 ADD SWAP1 DUP2 MSTORE PUSH1 0x20 ADD PUSH1 0x0 KECCAK256 PUSH1 0x2 ADD PUSH1 0x0 SWAP1 SLOAD SWAP1 PUSH2 0x100 EXP SWAP1 DIV PUSH1 0xFF AND ISZERO ISZERO EQ PUSH2 0x2118 JUMPI PUSH1 0x40 MLOAD PUSH32 0x8C379A000000000000000000000000000000000000000000000000000000000 DUP2 MSTORE PUSH1 0x4 ADD PUSH2 0x210F SWAP1 PUSH2 0x6E9C JUMP JUMPDEST PUSH1 0x40 MLOAD DUP1 SWAP2 SUB SWAP1 REVERT JUMPDEST PUSH2 0x212C PUSH8 0x8DBA3CFCDD7AB4AB PUSH1 0xC0 SHL PUSH2 0x45C9 JUMP JUMPDEST PUSH2 0x2140 PUSH8 0x2E1F532EB4156EB5 PUSH1 0xC0 SHL PUSH2 0x45C9 JUMP JUMPDEST PUSH2 0x2154 PUSH8 0xB763B8910A23EFEE PUSH1 0xC0 SHL PUSH2 0x45C9 JUMP JUMPDEST PUSH1 0x0 DUP6 DUP6 DUP6 DUP6 PUSH1 0x40 MLOAD PUSH1 0x20 ADD PUSH2 0x216D SWAP5 SWAP4 SWAP3 SWAP2 SWAP1 PUSH2 0x6F08 JUMP JUMPDEST PUSH1 0x40 MLOAD PUSH1 0x20 DUP2 DUP4 SUB SUB DUP2 MSTORE SWAP1 PUSH1 0x40 MSTORE DUP1 MLOAD SWAP1 PUSH1 0x20 ADD KECCAK256 SWAP1 POP PUSH2 0x2199 PUSH8 0xACD6A8C8F4D574B6 PUSH1 0xC0 SHL PUSH2 0x45C9 JUMP JUMPDEST PUSH2 0x21AD PUSH8 0x7697096D64270CDB PUSH1 0xC0 SHL PUSH2 0x45C9 JUMP JUMPDEST PUSH2 0x2279 DUP2 PUSH32 0xD646AE07EB0D0F77457502A65E7407930DFF4CD4FD99ABC6AAC87A753F4C8A42 DUP9 PUSH1 0x40 MLOAD PUSH1 0x20 ADD PUSH2 0x21E3 SWAP2 SWAP1 PUSH2 0x6690 JUMP JUMPDEST PUSH1 0x40 MLOAD PUSH1 0x20 DUP2 DUP4 SUB SUB DUP2 MSTORE SWAP1 PUSH1 0x40 MSTORE DUP9 PUSH1 0x40 MLOAD PUSH1 0x20 ADD PUSH2 0x2203 SWAP2 SWAP1 PUSH2 0x6F61 JUMP JUMPDEST PUSH1 0x40 MLOAD PUSH1 0x20 DUP2 DUP4 SUB SUB DUP2 MSTORE SWAP1 PUSH1 0x40 MSTORE DUP9 PUSH1 0x40 MLOAD PUSH1 0x20 ADD PUSH2 0x2223 SWAP2 SWAP1 PUSH2 0x6F7C JUMP JUMPDEST PUSH1 0x40 MLOAD PUSH1 0x20 DUP2 DUP4 SUB SUB DUP2 MSTORE SWAP1 PUSH1 0x40 MSTORE DUP9 PUSH1 0x40 MLOAD PUSH1 0x20 ADD PUSH2 0x2243 SWAP2 SWAP1 PUSH2 0x6F97 JUMP JUMPDEST PUSH1 0x40 MLOAD PUSH1 0x20 DUP2 DUP4 SUB SUB DUP2 MSTORE SWAP1 PUSH1 0x40 MSTORE PUSH1 0x40 MLOAD PUSH1 0x20 ADD PUSH2 0x2265 SWAP5 SWAP4 SWAP3 SWAP2 SWAP1 PUSH2 0x6FD8 JUMP JUMPDEST PUSH1 0x40 MLOAD PUSH1 0x20 DUP2 DUP4 SUB SUB DUP2 MSTORE SWAP1 PUSH1 0x40 MSTORE PUSH2 0x45CC JUMP JUMPDEST PUSH2 0x228D PUSH8 0x3318F6946F781978 PUSH1 0xC0 SHL PUSH2 0x45C9 JUMP JUMPDEST PUSH2 0x22A1 PUSH8 0xD4C4533D7E9A60A6 PUSH1 0xC0 SHL PUSH2 0x45C9 JUMP JUMPDEST DUP2 DUP1 ISZERO PUSH2 0x2312 JUMPI POP PUSH1 0x0 ISZERO ISZERO PUSH1 0x3 PUSH1 0x0 DUP4 DUP2 MSTORE PUSH1 0x20 ADD SWAP1 DUP2 MSTORE PUSH1 0x20 ADD PUSH1 0x0 KECCAK256 PUSH1 0x3 ADD PUSH1 0x0 CALLER PUSH20 0xFFFFFFFFFFFFFFFFFFFFFFFFFFFFFFFFFFFFFFFF AND PUSH20 0xFFFFFFFFFFFFFFFFFFFFFFFFFFFFFFFFFFFFFFFF AND DUP2 MSTORE PUSH1 0x20 ADD SWAP1 DUP2 MSTORE PUSH1 0x20 ADD PUSH1 0x0 KECCAK256 PUSH1 0x0 SWAP1 SLOAD SWAP1 PUSH2 0x100 EXP SWAP1 DIV PUSH1 0xFF AND ISZERO ISZERO EQ JUMPDEST ISZERO PUSH2 0x23D3 JUMPI PUSH2 0x232B PUSH8 0x32954512786739F5 PUSH1 0xC0 SHL PUSH2 0x45C9 JUMP JUMPDEST PUSH2 0x233F PUSH8 0x24BCD6FFDFBD0D4D PUSH1 0xC0 SHL PUSH2 0x45C9 JUMP JUMPDEST PUSH2 0x2353 PUSH8 0x7338A703CA5A2A96 PUSH1 0xC0 SHL PUSH2 0x45C9 JUMP JUMPDEST PUSH2 0x236F PUSH1 0x3 PUSH1 0x0 DUP4 DUP2 MSTORE PUSH1 0x20 ADD SWAP1 DUP2 MSTORE PUSH1 0x20 ADD PUSH1 0x0 KECCAK256 CALLER PUSH2 0x4770 JUMP JUMPDEST PUSH2 0x2383 PUSH8 0x3B1E688B7D79D00D PUSH1 0xC0 SHL PUSH2 0x45C9 JUMP JUMPDEST PUSH2 0x2397 PUSH8 0x6BEA465BB4414610 PUSH1 0xC0 SHL PUSH2 0x45C9 JUMP JUMPDEST PUSH32 0xB431A69783A2491A0C400FF16DAB32CD442ABF8FE5AF63A526A7248D730192F8 DUP2 PUSH1 0x40 MLOAD PUSH2 0x23C6 SWAP2 SWAP1 PUSH2 0x5E3C JUMP JUMPDEST PUSH1 0x40 MLOAD DUP1 SWAP2 SUB SWAP1 LOG1 PUSH2 0x24D9 JUMP JUMPDEST PUSH2 0x23E7 PUSH8 0xE8C1FA74BACD7FBB PUSH1 0xC0 SHL PUSH2 0x45C9 JUMP JUMPDEST PUSH2 0x23FB PUSH8 0x1F5319FEB6477E35 PUSH1 0xC0 SHL PUSH2 0x45C9 JUMP JUMPDEST PUSH1 0x0 ISZERO ISZERO DUP3 ISZERO ISZERO SUB PUSH2 0x24C3 JUMPI PUSH2 0x241B PUSH8 0xF438D58DFB1BE182 PUSH1 0xC0 SHL PUSH2 0x45C9 JUMP JUMPDEST PUSH2 0x242F PUSH8 0x8EF10DCAEAC9036F PUSH1 0xC0 SHL PUSH2 0x45C9 JUMP JUMPDEST PUSH2 0x2443 PUSH8 0x35F2056C8483D804 PUSH1 0xC0 SHL PUSH2 0x45C9 JUMP JUMPDEST PUSH2 0x245F PUSH1 0x3 PUSH1 0x0 DUP4 DUP2 MSTORE PUSH1 0x20 ADD SWAP1 DUP2 MSTORE PUSH1 0x20 ADD PUSH1 0x0 KECCAK256 CALLER PUSH2 0x49F2 JUMP JUMPDEST PUSH2 0x2473 PUSH8 0xC187D7D65CF65AF2 PUSH1 0xC0 SHL PUSH2 0x45C9 JUMP JUMPDEST PUSH2 0x2487 PUSH8 0xADE7A62C071E519D PUSH1 0xC0 SHL PUSH2 0x45C9 JUMP JUMPDEST PUSH32 0xB431A69783A2491A0C400FF16DAB32CD442ABF8FE5AF63A526A7248D730192F8 DUP2 PUSH1 0x40 MLOAD PUSH2 0x24B6 SWAP2 SWAP1 PUSH2 0x5E3C JUMP JUMPDEST PUSH1 0x40 MLOAD DUP1 SWAP2 SUB SWAP1 LOG1 PUSH2 0x24D8 JUMP JUMPDEST PUSH2 0x24D7 PUSH8 0x5439B2C4CD164823 PUSH1 0xC0 SHL PUSH2 0x45C9 JUMP JUMPDEST JUMPDEST JUMPDEST PUSH2 0x24ED PUSH8 0x2F6377F918FC3E74 PUSH1 0xC0 SHL PUSH2 0x45C9 JUMP JUMPDEST PUSH2 0x2501 PUSH8 0x62C646C22C573F3E PUSH1 0xC0 SHL PUSH2 0x45C9 JUMP JUMPDEST PUSH2 0x2567 PUSH1 0x50 PUSH1 0xFF AND PUSH1 0x2 PUSH1 0x0 PUSH32 0xD646AE07EB0D0F77457502A65E7407930DFF4CD4FD99ABC6AAC87A753F4C8A42 DUP2 MSTORE PUSH1 0x20 ADD SWAP1 DUP2 MSTORE PUSH1 0x20 ADD PUSH1 0x0 KECCAK256 PUSH1 0x0 ADD PUSH1 0x0 SWAP1 SLOAD SWAP1 PUSH2 0x100 EXP SWAP1 DIV PUSH4 0xFFFFFFFF AND PUSH2 0x255A SWAP2 SWAP1 PUSH2 0x6767 JUMP JUMPDEST PUSH4 0xFFFFFFFF AND PUSH1 0x64 PUSH2 0x3611 JUMP JUMPDEST PUSH1 0x3 PUSH1 0x0 DUP4 DUP2 MSTORE PUSH1 0x20 ADD SWAP1 DUP2 MSTORE PUSH1 0x20 ADD PUSH1 0x0 KECCAK256 PUSH1 0x2 ADD PUSH1 0x0 SWAP1 SLOAD SWAP1 PUSH2 0x100 EXP SWAP1 DIV PUSH1 0xFF AND PUSH1 0xFF AND LT PUSH2 0x26BD JUMPI PUSH2 0x25A7 PUSH8 0x220AD4741FC3DF5D PUSH1 0xC0 SHL PUSH2 0x45C9 JUMP JUMPDEST PUSH2 0x25BB PUSH8 0x99A0B0988AF08677 PUSH1 0xC0 SHL PUSH2 0x45C9 JUMP JUMPDEST PUSH2 0x25CF PUSH8 0x5D49AC61BE8EBD71 PUSH1 0xC0 SHL PUSH2 0x45C9 JUMP JUMPDEST PUSH2 0x25EA PUSH1 0x3 PUSH1 0x0 DUP4 DUP2 MSTORE PUSH1 0x20 ADD SWAP1 DUP2 MSTORE PUSH1 0x20 ADD PUSH1 0x0 KECCAK256 PUSH2 0x4BAA JUMP JUMPDEST PUSH2 0x25FE PUSH8 0xAC18A9A1EC69E6B8 PUSH1 0xC0 SHL PUSH2 0x45C9 JUMP JUMPDEST PUSH2 0x2612 PUSH8 0x698BF9A5753EF891 PUSH1 0xC0 SHL PUSH2 0x45C9 JUMP JUMPDEST PUSH32 0x562618DBCF74B61AE5B0F229FE40BA6D5B6AE6B4248F8C89A870DDA7C77135F6 DUP2 PUSH1 0x40 MLOAD PUSH2 0x2641 SWAP2 SWAP1 PUSH2 0x5E3C JUMP JUMPDEST PUSH1 0x40 MLOAD DUP1 SWAP2 SUB SWAP1 LOG1 PUSH2 0x265D PUSH8 0x4A780F79854977D8 PUSH1 0xC0 SHL PUSH2 0x45C9 JUMP JUMPDEST PUSH1 0x0 PUSH1 0x6 PUSH1 0x0 DUP9 DUP9 DUP9 DUP9 PUSH1 0x40 MLOAD PUSH1 0x20 ADD PUSH2 0x267A SWAP5 SWAP4 SWAP3 SWAP2 SWAP1 PUSH2 0x6E02 JUMP JUMPDEST PUSH1 0x40 MLOAD PUSH1 0x20 DUP2 DUP4 SUB SUB DUP2 MSTORE SWAP1 PUSH1 0x40 MSTORE DUP1 MLOAD SWAP1 PUSH1 0x20 ADD KECCAK256 DUP2 MSTORE PUSH1 0x20 ADD SWAP1 DUP2 MSTORE PUSH1 0x20 ADD PUSH1 0x0 KECCAK256 PUSH1 0x2 ADD PUSH1 0x0 PUSH2 0x100 EXP DUP2 SLOAD DUP2 PUSH1 0xFF MUL NOT AND SWAP1 DUP4 ISZERO ISZERO MUL OR SWAP1 SSTORE POP PUSH2 0x26D2 JUMP JUMPDEST PUSH2 0x26D1 PUSH8 0x69AD2177CECD222F PUSH1 0xC0 SHL PUSH2 0x45C9 JUMP JUMPDEST JUMPDEST POP POP POP POP POP POP JUMP JUMPDEST PUSH1 0x0 DUP1 PUSH1 0x0 DUP5 DUP2 MSTORE PUSH1 0x20 ADD SWAP1 DUP2 MSTORE PUSH1 0x20 ADD PUSH1 0x0 KECCAK256 PUSH1 0x0 ADD PUSH1 0x0 DUP4 PUSH20 0xFFFFFFFFFFFFFFFFFFFFFFFFFFFFFFFFFFFFFFFF AND PUSH20 0xFFFFFFFFFFFFFFFFFFFFFFFFFFFFFFFFFFFFFFFF AND DUP2 MSTORE PUSH1 0x20 ADD SWAP1 DUP2 MSTORE PUSH1 0x20 ADD PUSH1 0x0 KECCAK256 PUSH1 0x0 SWAP1 SLOAD SWAP1 PUSH2 0x100 EXP SWAP1 DIV PUSH1 0xFF AND SWAP1 POP SWAP3 SWAP2 POP POP JUMP JUMPDEST PUSH1 0x4 PUSH1 0x20 MSTORE DUP1 PUSH1 0x0 MSTORE PUSH1 0x40 PUSH1 0x0 KECCAK256 PUSH1 0x0 SWAP2 POP SWAP1 POP SLOAD DUP2 JUMP JUMPDEST PUSH1 0xF DUP2 JUMP JUMPDEST PUSH2 0x2775 PUSH8 0xEFD429D53DEA2462 PUSH1 0xC0 SHL PUSH2 0x45C9 JUMP JUMPDEST PUSH2 0x2789 PUSH8 0xEF5C68BAD402A4E0 PUSH1 0xC0 SHL PUSH2 0x45C9 JUMP JUMPDEST PUSH2 0x279D PUSH8 0xB55B9F6D9D1026AF PUSH1 0xC0 SHL PUSH2 0x45C9 JUMP JUMPDEST PUSH2 0x27B1 PUSH8 0xC7765049F91A4EF7 PUSH1 0xC0 SHL PUSH2 0x45C9 JUMP JUMPDEST PUSH2 0x27DB PUSH32 0xD646AE07EB0D0F77457502A65E7407930DFF4CD4FD99ABC6AAC87A753F4C8A42 CALLER PUSH2 0x26DA JUMP JUMPDEST PUSH2 0x281A JUMPI PUSH1 0x40 MLOAD PUSH32 0x8C379A000000000000000000000000000000000000000000000000000000000 DUP2 MSTORE PUSH1 0x4 ADD PUSH2 0x2811 SWAP1 PUSH2 0x64FA JUMP JUMPDEST PUSH1 0x40 MLOAD DUP1 SWAP2 SUB SWAP1 REVERT JUMPDEST PUSH2 0x282E PUSH8 0xA6D489319A22F360 PUSH1 0xC0 SHL PUSH2 0x45C9 JUMP JUMPDEST PUSH2 0x2842 PUSH8 0xA5644B271BDEBD05 PUSH1 0xC0 SHL PUSH2 0x45C9 JUMP JUMPDEST PUSH2 0x2856 PUSH8 0x73766D50C37AE174 PUSH1 0xC0 SHL PUSH2 0x45C9 JUMP JUMPDEST PUSH2 0x286A PUSH8 0x8B979D26B761488E PUSH1 0xC0 SHL PUSH2 0x45C9 JUMP JUMPDEST PUSH1 0x0 DUP5 GT PUSH2 0x28AD JUMPI PUSH1 0x40 MLOAD PUSH32 0x8C379A000000000000000000000000000000000000000000000000000000000 DUP2 MSTORE PUSH1 0x4 ADD PUSH2 0x28A4 SWAP1 PUSH2 0x6566 JUMP JUMPDEST PUSH1 0x40 MLOAD DUP1 SWAP2 SUB SWAP1 REVERT JUMPDEST PUSH2 0x28C1 PUSH8 0x4773B74CA2DFD977 PUSH1 0xC0 SHL PUSH2 0x45C9 JUMP JUMPDEST PUSH2 0x28D5 PUSH8 0x3A3C8E3B93C77FD7 PUSH1 0xC0 SHL PUSH2 0x45C9 JUMP JUMPDEST PUSH2 0x28E9 PUSH8 0xDE5B5A61926C36C9 PUSH1 0xC0 SHL PUSH2 0x45C9 JUMP JUMPDEST PUSH2 0x28FD PUSH8 0xFBA3334237611515 PUSH1 0xC0 SHL PUSH2 0x45C9 JUMP JUMPDEST PUSH1 0x0 DUP4 MLOAD GT PUSH2 0x2941 JUMPI PUSH1 0x40 MLOAD PUSH32 0x8C379A000000000000000000000000000000000000000000000000000000000 DUP2 MSTORE PUSH1 0x4 ADD PUSH2 0x2938 SWAP1 PUSH2 0x709E JUMP JUMPDEST PUSH1 0x40 MLOAD DUP1 SWAP2 SUB SWAP1 REVERT JUMPDEST PUSH2 0x2955 PUSH8 0xA458FC201C41F2EB PUSH1 0xC0 SHL PUSH2 0x45C9 JUMP JUMPDEST PUSH2 0x2969 PUSH8 0x32E4132DAD121900 PUSH1 0xC0 SHL PUSH2 0x45C9 JUMP JUMPDEST PUSH2 0x297D PUSH8 0x5903462AB1321CAC PUSH1 0xC0 SHL PUSH2 0x45C9 JUMP JUMPDEST PUSH2 0x2991 PUSH8 0x95A317EC06F83C10 PUSH1 0xC0 SHL PUSH2 0x45C9 JUMP JUMPDEST PUSH1 0x0 DUP3 MLOAD GT PUSH2 0x29D5 JUMPI PUSH1 0x40 MLOAD PUSH32 0x8C379A000000000000000000000000000000000000000000000000000000000 DUP2 MSTORE PUSH1 0x4 ADD PUSH2 0x29CC SWAP1 PUSH2 0x710A JUMP JUMPDEST PUSH1 0x40 MLOAD DUP1 SWAP2 SUB SWAP1 REVERT JUMPDEST PUSH2 0x29E9 PUSH8 0xB1D4635B098CE77A PUSH1 0xC0 SHL PUSH2 0x45C9 JUMP JUMPDEST PUSH2 0x29FD PUSH8 0xA0B843672511AB55 PUSH1 0xC0 SHL PUSH2 0x45C9 JUMP JUMPDEST PUSH2 0x2A11 PUSH8 0x7C7927E4B5BD48F4 PUSH1 0xC0 SHL PUSH2 0x45C9 JUMP JUMPDEST PUSH2 0x2A25 PUSH8 0xA4EBBAF8FAAC82D2 PUSH1 0xC0 SHL PUSH2 0x45C9 JUMP JUMPDEST PUSH1 0x0 DUP2 GT PUSH2 0x2A68 JUMPI PUSH1 0x40 MLOAD PUSH32 0x8C379A000000000000000000000000000000000000000000000000000000000 DUP2 MSTORE PUSH1 0x4 ADD PUSH2 0x2A5F SWAP1 PUSH2 0x7176 JUMP JUMPDEST PUSH1 0x40 MLOAD DUP1 SWAP2 SUB SWAP1 REVERT JUMPDEST PUSH2 0x2A7C PUSH8 0x97B47E77A9A7B3FC PUSH1 0xC0 SHL PUSH2 0x45C9 JUMP JUMPDEST PUSH2 0x2A90 PUSH8 0x758438FA606727D9 PUSH1 0xC0 SHL PUSH2 0x45C9 JUMP JUMPDEST PUSH2 0x2AA4 PUSH8 0x589E0C39053CAD26 PUSH1 0xC0 SHL PUSH2 0x45C9 JUMP JUMPDEST PUSH2 0x2AB8 PUSH8 0x59DE4F2A505F6C6D PUSH1 0xC0 SHL PUSH2 0x45C9 JUMP JUMPDEST PUSH1 0x0 PUSH1 0x1 PUSH1 0x0 DUP7 DUP2 MSTORE PUSH1 0x20 ADD SWAP1 DUP2 MSTORE PUSH1 0x20 ADD PUSH1 0x0 KECCAK256 PUSH1 0x0 ADD SLOAD EQ PUSH2 0x2B11 JUMPI PUSH1 0x40 MLOAD PUSH32 0x8C379A000000000000000000000000000000000000000000000000000000000 DUP2 MSTORE PUSH1 0x4 ADD PUSH2 0x2B08 SWAP1 PUSH2 0x71E2 JUMP JUMPDEST PUSH1 0x40 MLOAD DUP1 SWAP2 SUB SWAP1 REVERT JUMPDEST PUSH2 0x2B25 PUSH8 0x6D4A2D08A14EA231 PUSH1 0xC0 SHL PUSH2 0x45C9 JUMP JUMPDEST PUSH2 0x2B39 PUSH8 0xC3B37424D9C469D0 PUSH1 0xC0 SHL PUSH2 0x45C9 JUMP JUMPDEST PUSH2 0x2B4D PUSH8 0x740CE2464856C2B3 PUSH1 0xC0 SHL PUSH2 0x45C9 JUMP JUMPDEST PUSH2 0x2B59 DUP5 DUP5 DUP5 DUP5 PUSH2 0x4EBE JUMP JUMPDEST POP POP POP POP JUMP JUMPDEST PUSH1 0x0 DUP1 SHL DUP2 JUMP JUMPDEST PUSH2 0x2B7A PUSH8 0x14F96B5406597F99 PUSH1 0xC0 SHL PUSH2 0x45C9 JUMP JUMPDEST PUSH2 0x2B8E PUSH8 0xDF07991CAEF353D PUSH1 0xC0 SHL PUSH2 0x45C9 JUMP JUMPDEST PUSH2 0x2BA2 PUSH8 0xAE62EA1482F5A883 PUSH1 0xC0 SHL PUSH2 0x45C9 JUMP JUMPDEST PUSH2 0x2BB6 PUSH8 0x163E0E75E54E0C8A PUSH1 0xC0 SHL PUSH2 0x45C9 JUMP JUMPDEST PUSH2 0x2BE0 PUSH32 0xD646AE07EB0D0F77457502A65E7407930DFF4CD4FD99ABC6AAC87A753F4C8A42 CALLER PUSH2 0x26DA JUMP JUMPDEST PUSH2 0x2C1F JUMPI PUSH1 0x40 MLOAD PUSH32 0x8C379A000000000000000000000000000000000000000000000000000000000 DUP2 MSTORE PUSH1 0x4 ADD PUSH2 0x2C16 SWAP1 PUSH2 0x64FA JUMP JUMPDEST PUSH1 0x40 MLOAD DUP1 SWAP2 SUB SWAP1 REVERT JUMPDEST PUSH2 0x2C33 PUSH8 0xA4E6A19CBFE51679 PUSH1 0xC0 SHL PUSH2 0x45C9 JUMP JUMPDEST PUSH2 0x2C47 PUSH8 0x5C78A7177EB1A8FB PUSH1 0xC0 SHL PUSH2 0x45C9 JUMP JUMPDEST PUSH2 0x2C5B PUSH8 0xBF4499FF51C0C221 PUSH1 0xC0 SHL PUSH2 0x45C9 JUMP JUMPDEST PUSH2 0x2C6F PUSH8 0x822948BE4D3EF9A7 PUSH1 0xC0 SHL PUSH2 0x45C9 JUMP JUMPDEST PUSH1 0x0 PUSH1 0x1 PUSH1 0x0 DUP8 DUP2 MSTORE PUSH1 0x20 ADD SWAP1 DUP2 MSTORE PUSH1 0x20 ADD PUSH1 0x0 KECCAK256 PUSH1 0x0 ADD SLOAD SUB PUSH2 0x2CC8 JUMPI PUSH1 0x40 MLOAD PUSH32 0x8C379A000000000000000000000000000000000000000000000000000000000 DUP2 MSTORE PUSH1 0x4 ADD PUSH2 0x2CBF SWAP1 PUSH2 0x65D2 JUMP JUMPDEST PUSH1 0x40 MLOAD DUP1 SWAP2 SUB SWAP1 REVERT JUMPDEST PUSH2 0x2CDC PUSH8 0x96129956313ADF1B PUSH1 0xC0 SHL PUSH2 0x45C9 JUMP JUMPDEST PUSH2 0x2CF0 PUSH8 0xA37DF02138054E52 PUSH1 0xC0 SHL PUSH2 0x45C9 JUMP JUMPDEST PUSH2 0x2D04 PUSH8 0xB057154329C49BF8 PUSH1 0xC0 SHL PUSH2 0x45C9 JUMP JUMPDEST PUSH2 0x2D18 PUSH8 0xE3A8E90515CCE0B7 PUSH1 0xC0 SHL PUSH2 0x45C9 JUMP JUMPDEST PUSH1 0x0 PUSH1 0x3 DUP2 GT ISZERO PUSH2 0x2D2C JUMPI PUSH2 0x2D2B PUSH2 0x602D JUMP JUMPDEST JUMPDEST DUP5 PUSH1 0x3 DUP2 GT ISZERO PUSH2 0x2D3F JUMPI PUSH2 0x2D3E PUSH2 0x602D JUMP JUMPDEST JUMPDEST LT ISZERO DUP1 ISZERO PUSH2 0x2D71 JUMPI POP PUSH1 0x3 DUP1 DUP2 GT ISZERO PUSH2 0x2D5B JUMPI PUSH2 0x2D5A PUSH2 0x602D JUMP JUMPDEST JUMPDEST DUP5 PUSH1 0x3 DUP2 GT ISZERO PUSH2 0x2D6E JUMPI PUSH2 0x2D6D PUSH2 0x602D JUMP JUMPDEST JUMPDEST GT ISZERO JUMPDEST PUSH2 0x2DB0 JUMPI PUSH1 0x40 MLOAD PUSH32 0x8C379A000000000000000000000000000000000000000000000000000000000 DUP2 MSTORE PUSH1 0x4 ADD PUSH2 0x2DA7 SWAP1 PUSH2 0x6CA6 JUMP JUMPDEST PUSH1 0x40 MLOAD DUP1 SWAP2 SUB SWAP1 REVERT JUMPDEST PUSH2 0x2DC4 PUSH8 0xB5A228E10270E225 PUSH1 0xC0 SHL PUSH2 0x45C9 JUMP JUMPDEST PUSH2 0x2DD8 PUSH8 0x3DDB288B7F8FDE58 PUSH1 0xC0 SHL PUSH2 0x45C9 JUMP JUMPDEST PUSH2 0x2DEC PUSH8 0x28FFED5C4BBB136D PUSH1 0xC0 SHL PUSH2 0x45C9 JUMP JUMPDEST PUSH2 0x2E00 PUSH8 0x1A14E86B1536E0C4 PUSH1 0xC0 SHL PUSH2 0x45C9 JUMP JUMPDEST PUSH1 0x0 PUSH1 0x2 DUP2 GT ISZERO PUSH2 0x2E14 JUMPI PUSH2 0x2E13 PUSH2 0x602D JUMP JUMPDEST JUMPDEST DUP4 PUSH1 0x2 DUP2 GT ISZERO PUSH2 0x2E27 JUMPI PUSH2 0x2E26 PUSH2 0x602D JUMP JUMPDEST JUMPDEST LT ISZERO DUP1 ISZERO PUSH2 0x2E59 JUMPI POP PUSH1 0x2 DUP1 DUP2 GT ISZERO PUSH2 0x2E43 JUMPI PUSH2 0x2E42 PUSH2 0x602D JUMP JUMPDEST JUMPDEST DUP4 PUSH1 0x2 DUP2 GT ISZERO PUSH2 0x2E56 JUMPI PUSH2 0x2E55 PUSH2 0x602D JUMP JUMPDEST JUMPDEST GT ISZERO JUMPDEST PUSH2 0x2E98 JUMPI PUSH1 0x40 MLOAD PUSH32 0x8C379A000000000000000000000000000000000000000000000000000000000 DUP2 MSTORE PUSH1 0x4 ADD PUSH2 0x2E8F SWAP1 PUSH2 0x6D12 JUMP JUMPDEST PUSH1 0x40 MLOAD DUP1 SWAP2 SUB SWAP1 REVERT JUMPDEST PUSH2 0x2EAC PUSH8 0x8190894182F13227 PUSH1 0xC0 SHL PUSH2 0x45C9 JUMP JUMPDEST PUSH2 0x2EC0 PUSH8 0x5E914CC764A08BDC PUSH1 0xC0 SHL PUSH2 0x45C9 JUMP JUMPDEST PUSH2 0x2ED4 PUSH8 0x59CB1221E0215D5E PUSH1 0xC0 SHL PUSH2 0x45C9 JUMP JUMPDEST PUSH2 0x2EE8 PUSH8 0x6D76B91FE9DE0F8C PUSH1 0xC0 SHL PUSH2 0x45C9 JUMP JUMPDEST PUSH1 0x0 PUSH1 0xF DUP2 GT ISZERO PUSH2 0x2EFC JUMPI PUSH2 0x2EFB PUSH2 0x602D JUMP JUMPDEST JUMPDEST DUP3 PUSH1 0xF DUP2 GT ISZERO PUSH2 0x2F0F JUMPI PUSH2 0x2F0E PUSH2 0x602D JUMP JUMPDEST JUMPDEST LT ISZERO DUP1 ISZERO PUSH2 0x2F41 JUMPI POP PUSH1 0xF DUP1 DUP2 GT ISZERO PUSH2 0x2F2B JUMPI PUSH2 0x2F2A PUSH2 0x602D JUMP JUMPDEST JUMPDEST DUP3 PUSH1 0xF DUP2 GT ISZERO PUSH2 0x2F3E JUMPI PUSH2 0x2F3D PUSH2 0x602D JUMP JUMPDEST JUMPDEST GT ISZERO JUMPDEST PUSH2 0x2F80 JUMPI PUSH1 0x40 MLOAD PUSH32 0x8C379A000000000000000000000000000000000000000000000000000000000 DUP2 MSTORE PUSH1 0x4 ADD PUSH2 0x2F77 SWAP1 PUSH2 0x6D7E JUMP JUMPDEST PUSH1 0x40 MLOAD DUP1 SWAP2 SUB SWAP1 REVERT JUMPDEST PUSH2 0x2F94 PUSH8 0xBDF8A12455256E97 PUSH1 0xC0 SHL PUSH2 0x45C9 JUMP JUMPDEST PUSH2 0x2FA8 PUSH8 0xED9C0B858915E646 PUSH1 0xC0 SHL PUSH2 0x45C9 JUMP JUMPDEST PUSH2 0x2FBC PUSH8 0x649BD458A2007257 PUSH1 0xC0 SHL PUSH2 0x45C9 JUMP JUMPDEST PUSH2 0x2FD0 PUSH8 0xB6B16EA080CCDB2 PUSH1 0xC0 SHL PUSH2 0x45C9 JUMP JUMPDEST PUSH1 0x0 ISZERO ISZERO PUSH1 0x6 PUSH1 0x0 DUP8 DUP8 DUP8 DUP8 PUSH1 0x40 MLOAD PUSH1 0x20 ADD PUSH2 0x2FEF SWAP5 SWAP4 SWAP3 SWAP2 SWAP1 PUSH2 0x6E02 JUMP JUMPDEST PUSH1 0x40 MLOAD PUSH1 0x20 DUP2 DUP4 SUB SUB DUP2 MSTORE SWAP1 PUSH1 0x40 MSTORE DUP1 MLOAD SWAP1 PUSH1 0x20 ADD KECCAK256 DUP2 MSTORE PUSH1 0x20 ADD SWAP1 DUP2 MSTORE PUSH1 0x20 ADD PUSH1 0x0 KECCAK256 PUSH1 0x2 ADD PUSH1 0x0 SWAP1 SLOAD SWAP1 PUSH2 0x100 EXP SWAP1 DIV PUSH1 0xFF AND ISZERO ISZERO EQ PUSH2 0x3066 JUMPI PUSH1 0x40 MLOAD PUSH32 0x8C379A000000000000000000000000000000000000000000000000000000000 DUP2 MSTORE PUSH1 0x4 ADD PUSH2 0x305D SWAP1 PUSH2 0x724E JUMP JUMPDEST PUSH1 0x40 MLOAD DUP1 SWAP2 SUB SWAP1 REVERT JUMPDEST PUSH2 0x307A PUSH8 0x689B85AE64F251BF PUSH1 0xC0 SHL PUSH2 0x45C9 JUMP JUMPDEST PUSH2 0x308E PUSH8 0x35E2A6E6763DE1BE PUSH1 0xC0 SHL PUSH2 0x45C9 JUMP JUMPDEST PUSH2 0x30A2 PUSH8 0x9E04AE92E1584C0 PUSH1 0xC0 SHL PUSH2 0x45C9 JUMP JUMPDEST PUSH1 0x0 DUP6 DUP6 DUP6 DUP6 PUSH1 0x40 MLOAD PUSH1 0x20 ADD PUSH2 0x30BB SWAP5 SWAP4 SWAP3 SWAP2 SWAP1 PUSH2 0x72BA JUMP JUMPDEST PUSH1 0x40 MLOAD PUSH1 0x20 DUP2 DUP4 SUB SUB DUP2 MSTORE SWAP1 PUSH1 0x40 MSTORE DUP1 MLOAD SWAP1 PUSH1 0x20 ADD KECCAK256 SWAP1 POP PUSH2 0x30E7 PUSH8 0x2117BB302F321A49 PUSH1 0xC0 SHL PUSH2 0x45C9 JUMP JUMPDEST PUSH2 0x30FB PUSH8 0x918F30A7FAD84412 PUSH1 0xC0 SHL PUSH2 0x45C9 JUMP JUMPDEST PUSH2 0x31C7 DUP2 PUSH32 0xD646AE07EB0D0F77457502A65E7407930DFF4CD4FD99ABC6AAC87A753F4C8A42 DUP9 PUSH1 0x40 MLOAD PUSH1 0x20 ADD PUSH2 0x3131 SWAP2 SWAP1 PUSH2 0x6690 JUMP JUMPDEST PUSH1 0x40 MLOAD PUSH1 0x20 DUP2 DUP4 SUB SUB DUP2 MSTORE SWAP1 PUSH1 0x40 MSTORE DUP9 PUSH1 0x40 MLOAD PUSH1 0x20 ADD PUSH2 0x3151 SWAP2 SWAP1 PUSH2 0x6F61 JUMP JUMPDEST PUSH1 0x40 MLOAD PUSH1 0x20 DUP2 DUP4 SUB SUB DUP2 MSTORE SWAP1 PUSH1 0x40 MSTORE DUP9 PUSH1 0x40 MLOAD PUSH1 0x20 ADD PUSH2 0x3171 SWAP2 SWAP1 PUSH2 0x6F7C JUMP JUMPDEST PUSH1 0x40 MLOAD PUSH1 0x20 DUP2 DUP4 SUB SUB DUP2 MSTORE SWAP1 PUSH1 0x40 MSTORE DUP9 PUSH1 0x40 MLOAD PUSH1 0x20 ADD PUSH2 0x3191 SWAP2 SWAP1 PUSH2 0x6F97 JUMP JUMPDEST PUSH1 0x40 MLOAD PUSH1 0x20 DUP2 DUP4 SUB SUB DUP2 MSTORE SWAP1 PUSH1 0x40 MSTORE PUSH1 0x40 MLOAD PUSH1 0x20 ADD PUSH2 0x31B3 SWAP5 SWAP4 SWAP3 SWAP2 SWAP1 PUSH2 0x7339 JUMP JUMPDEST PUSH1 0x40 MLOAD PUSH1 0x20 DUP2 DUP4 SUB SUB DUP2 MSTORE SWAP1 PUSH1 0x40 MSTORE PUSH2 0x45CC JUMP JUMPDEST PUSH2 0x31DB PUSH8 0x9D26A0BCAE16F155 PUSH1 0xC0 SHL PUSH2 0x45C9 JUMP JUMPDEST PUSH2 0x31EF PUSH8 0x62560A22786C9D89 PUSH1 0xC0 SHL PUSH2 0x45C9 JUMP JUMPDEST DUP2 DUP1 ISZERO PUSH2 0x3260 JUMPI POP PUSH1 0x0 ISZERO ISZERO PUSH1 0x3 PUSH1 0x0 DUP4 DUP2 MSTORE PUSH1 0x20 ADD SWAP1 DUP2 MSTORE PUSH1 0x20 ADD PUSH1 0x0 KECCAK256 PUSH1 0x3 ADD PUSH1 0x0 CALLER PUSH20 0xFFFFFFFFFFFFFFFFFFFFFFFFFFFFFFFFFFFFFFFF AND PUSH20 0xFFFFFFFFFFFFFFFFFFFFFFFFFFFFFFFFFFFFFFFF AND DUP2 MSTORE PUSH1 0x20 ADD SWAP1 DUP2 MSTORE PUSH1 0x20 ADD PUSH1 0x0 KECCAK256 PUSH1 0x0 SWAP1 SLOAD SWAP1 PUSH2 0x100 EXP SWAP1 DIV PUSH1 0xFF AND ISZERO ISZERO EQ JUMPDEST ISZERO PUSH2 0x3321 JUMPI PUSH2 0x3279 PUSH8 0x6AD05DD6AD0C5E8E PUSH1 0xC0 SHL PUSH2 0x45C9 JUMP JUMPDEST PUSH2 0x328D PUSH8 0xB018FB771A8F126A PUSH1 0xC0 SHL PUSH2 0x45C9 JUMP JUMPDEST PUSH2 0x32A1 PUSH8 0x3838E17E05CAD86E PUSH1 0xC0 SHL PUSH2 0x45C9 JUMP JUMPDEST PUSH2 0x32BD PUSH1 0x3 PUSH1 0x0 DUP4 DUP2 MSTORE PUSH1 0x20 ADD SWAP1 DUP2 MSTORE PUSH1 0x20 ADD PUSH1 0x0 KECCAK256 CALLER PUSH2 0x4770 JUMP JUMPDEST PUSH2 0x32D1 PUSH8 0x3B992EF7312A36A2 PUSH1 0xC0 SHL PUSH2 0x45C9 JUMP JUMPDEST PUSH2 0x32E5 PUSH8 0xD1937D9A9D9EDE4B PUSH1 0xC0 SHL PUSH2 0x45C9 JUMP JUMPDEST PUSH32 0xB431A69783A2491A0C400FF16DAB32CD442ABF8FE5AF63A526A7248D730192F8 DUP2 PUSH1 0x40 MLOAD PUSH2 0x3314 SWAP2 SWAP1 PUSH2 0x5E3C JUMP JUMPDEST PUSH1 0x40 MLOAD DUP1 SWAP2 SUB SWAP1 LOG1 PUSH2 0x3427 JUMP JUMPDEST PUSH2 0x3335 PUSH8 0xEBA93D2F1C3A3725 PUSH1 0xC0 SHL PUSH2 0x45C9 JUMP JUMPDEST PUSH2 0x3349 PUSH8 0xE583D3490FB5C11A PUSH1 0xC0 SHL PUSH2 0x45C9 JUMP JUMPDEST PUSH1 0x0 ISZERO ISZERO DUP3 ISZERO ISZERO SUB PUSH2 0x3411 JUMPI PUSH2 0x3369 PUSH8 0x3C216AEF0914C7D PUSH1 0xC0 SHL PUSH2 0x45C9 JUMP JUMPDEST PUSH2 0x337D PUSH8 0xE929230DACD39FC4 PUSH1 0xC0 SHL PUSH2 0x45C9 JUMP JUMPDEST PUSH2 0x3391 PUSH8 0xF0423AD893494D1F PUSH1 0xC0 SHL PUSH2 0x45C9 JUMP JUMPDEST PUSH2 0x33AD PUSH1 0x3 PUSH1 0x0 DUP4 DUP2 MSTORE PUSH1 0x20 ADD SWAP1 DUP2 MSTORE PUSH1 0x20 ADD PUSH1 0x0 KECCAK256 CALLER PUSH2 0x49F2 JUMP JUMPDEST PUSH2 0x33C1 PUSH8 0xE4635F8420CBA4D PUSH1 0xC0 SHL PUSH2 0x45C9 JUMP JUMPDEST PUSH2 0x33D5 PUSH8 0xA8F356AE64E80FB2 PUSH1 0xC0 SHL PUSH2 0x45C9 JUMP JUMPDEST PUSH32 0xB431A69783A2491A0C400FF16DAB32CD442ABF8FE5AF63A526A7248D730192F8 DUP2 PUSH1 0x40 MLOAD PUSH2 0x3404 SWAP2 SWAP1 PUSH2 0x5E3C JUMP JUMPDEST PUSH1 0x40 MLOAD DUP1 SWAP2 SUB SWAP1 LOG1 PUSH2 0x3426 JUMP JUMPDEST PUSH2 0x3425 PUSH8 0x87081979864AFEAE PUSH1 0xC0 SHL PUSH2 0x45C9 JUMP JUMPDEST JUMPDEST JUMPDEST PUSH2 0x343B PUSH8 0x7547DDE3E6DE66C1 PUSH1 0xC0 SHL PUSH2 0x45C9 JUMP JUMPDEST PUSH2 0x344F PUSH8 0x76A3D74FA8FA5457 PUSH1 0xC0 SHL PUSH2 0x45C9 JUMP JUMPDEST PUSH2 0x34B5 PUSH1 0x33 PUSH1 0xFF AND PUSH1 0x2 PUSH1 0x0 PUSH32 0xD646AE07EB0D0F77457502A65E7407930DFF4CD4FD99ABC6AAC87A753F4C8A42 DUP2 MSTORE PUSH1 0x20 ADD SWAP1 DUP2 MSTORE PUSH1 0x20 ADD PUSH1 0x0 KECCAK256 PUSH1 0x0 ADD PUSH1 0x0 SWAP1 SLOAD SWAP1 PUSH2 0x100 EXP SWAP1 DIV PUSH4 0xFFFFFFFF AND PUSH2 0x34A8 SWAP2 SWAP1 PUSH2 0x6767 JUMP JUMPDEST PUSH4 0xFFFFFFFF AND PUSH1 0x64 PUSH2 0x3611 JUMP JUMPDEST PUSH1 0x3 PUSH1 0x0 DUP4 DUP2 MSTORE PUSH1 0x20 ADD SWAP1 DUP2 MSTORE PUSH1 0x20 ADD PUSH1 0x0 KECCAK256 PUSH1 0x2 ADD PUSH1 0x0 SWAP1 SLOAD SWAP1 PUSH2 0x100 EXP SWAP1 DIV PUSH1 0xFF AND PUSH1 0xFF AND LT PUSH2 0x35D0 JUMPI PUSH2 0x34F5 PUSH8 0x4ED9EA8C9338F000 PUSH1 0xC0 SHL PUSH2 0x45C9 JUMP JUMPDEST PUSH2 0x3509 PUSH8 0x9BAA3422236FC69F PUSH1 0xC0 SHL PUSH2 0x45C9 JUMP JUMPDEST PUSH2 0x351D PUSH8 0xC5044043363BB237 PUSH1 0xC0 SHL PUSH2 0x45C9 JUMP JUMPDEST PUSH2 0x3538 PUSH1 0x3 PUSH1 0x0 DUP4 DUP2 MSTORE PUSH1 0x20 ADD SWAP1 DUP2 MSTORE PUSH1 0x20 ADD PUSH1 0x0 KECCAK256 PUSH2 0x4BAA JUMP JUMPDEST PUSH2 0x354C PUSH8 0xBFC6B0F370D70249 PUSH1 0xC0 SHL PUSH2 0x45C9 JUMP JUMPDEST PUSH2 0x3560 PUSH8 0x9CCB8433F30B7F61 PUSH1 0xC0 SHL PUSH2 0x45C9 JUMP JUMPDEST PUSH32 0x562618DBCF74B61AE5B0F229FE40BA6D5B6AE6B4248F8C89A870DDA7C77135F6 DUP2 PUSH1 0x40 MLOAD PUSH2 0x358F SWAP2 SWAP1 PUSH2 0x5E3C JUMP JUMPDEST PUSH1 0x40 MLOAD DUP1 SWAP2 SUB SWAP1 LOG1 PUSH2 0x35AB PUSH8 0x842A97201189B8B PUSH1 0xC0 SHL PUSH2 0x45C9 JUMP JUMPDEST PUSH2 0x35BF PUSH8 0xCA8D401C43F5F9D7 PUSH1 0xC0 SHL PUSH2 0x45C9 JUMP JUMPDEST PUSH2 0x35CB DUP7 DUP7 DUP7 DUP7 PUSH2 0x4FC8 JUMP JUMPDEST PUSH2 0x35E5 JUMP JUMPDEST PUSH2 0x35E4 PUSH8 0xE22DCAA2865F1211 PUSH1 0xC0 SHL PUSH2 0x45C9 JUMP JUMPDEST JUMPDEST POP POP POP POP POP POP JUMP JUMPDEST PUSH32 0xD646AE07EB0D0F77457502A65E7407930DFF4CD4FD99ABC6AAC87A753F4C8A42 DUP2 JUMP JUMPDEST PUSH1 0x0 PUSH2 0x3627 PUSH8 0x171D99280850D93C PUSH1 0xC0 SHL PUSH2 0x51C7 JUMP JUMPDEST PUSH2 0x363B PUSH8 0x1F1CE49847F98DCC PUSH1 0xC0 SHL PUSH2 0x51C7 JUMP JUMPDEST PUSH2 0x364F PUSH8 0xEE187A4831FC40A0 PUSH1 0xC0 SHL PUSH2 0x51C7 JUMP JUMPDEST PUSH1 0x0 DUP3 DUP5 PUSH2 0x365D SWAP2 SWAP1 PUSH2 0x73E2 JUMP JUMPDEST SUB PUSH2 0x36B1 JUMPI PUSH2 0x3676 PUSH8 0xB04B052C3829F669 PUSH1 0xC0 SHL PUSH2 0x51C7 JUMP JUMPDEST PUSH2 0x368A PUSH8 0x4689B2288E414044 PUSH1 0xC0 SHL PUSH2 0x51C7 JUMP JUMPDEST PUSH2 0x369E PUSH8 0x7B89166DB061C85D PUSH1 0xC0 SHL PUSH2 0x51C7 JUMP JUMPDEST DUP2 DUP4 PUSH2 0x36AA SWAP2 SWAP1 PUSH2 0x7413 JUMP JUMPDEST SWAP1 POP PUSH2 0x3708 JUMP JUMPDEST PUSH2 0x36C5 PUSH8 0xAC3B39E2188A30CA PUSH1 0xC0 SHL PUSH2 0x51C7 JUMP JUMPDEST PUSH2 0x36D9 PUSH8 0x49AB266D1FEE3FED PUSH1 0xC0 SHL PUSH2 0x51C7 JUMP JUMPDEST PUSH2 0x36ED PUSH8 0x3B294661B66E36A5 PUSH1 0xC0 SHL PUSH2 0x51C7 JUMP JUMPDEST PUSH1 0x1 DUP3 DUP5 PUSH2 0x36FB SWAP2 SWAP1 PUSH2 0x7413 JUMP JUMPDEST PUSH2 0x3705 SWAP2 SWAP1 PUSH2 0x7444 JUMP JUMPDEST SWAP1 POP JUMPDEST SWAP3 SWAP2 POP POP JUMP JUMPDEST PUSH2 0x3722 PUSH8 0x71868017DD9EA9A2 PUSH1 0xC0 SHL PUSH2 0x45C9 JUMP JUMPDEST PUSH2 0x3736 PUSH8 0xAB1BD67FCC0DC4E6 PUSH1 0xC0 SHL PUSH2 0x45C9 JUMP JUMPDEST PUSH2 0x374A PUSH8 0x14693CE83117A4A6 PUSH1 0xC0 SHL PUSH2 0x45C9 JUMP JUMPDEST PUSH2 0x375E PUSH8 0x1EE91D41820DE701 PUSH1 0xC0 SHL PUSH2 0x45C9 JUMP JUMPDEST PUSH2 0x3788 PUSH32 0xD646AE07EB0D0F77457502A65E7407930DFF4CD4FD99ABC6AAC87A753F4C8A42 CALLER PUSH2 0x26DA JUMP JUMPDEST PUSH2 0x37C7 JUMPI PUSH1 0x40 MLOAD PUSH32 0x8C379A000000000000000000000000000000000000000000000000000000000 DUP2 MSTORE PUSH1 0x4 ADD PUSH2 0x37BE SWAP1 PUSH2 0x64FA JUMP JUMPDEST PUSH1 0x40 MLOAD DUP1 SWAP2 SUB SWAP1 REVERT JUMPDEST PUSH2 0x37DB PUSH8 0x65714EE521157C16 PUSH1 0xC0 SHL PUSH2 0x45C9 JUMP JUMPDEST PUSH2 0x37EF PUSH8 0x647B5B224D6B0949 PUSH1 0xC0 SHL PUSH2 0x45C9 JUMP JUMPDEST PUSH2 0x3803 PUSH8 0x65B7E103C94A229D PUSH1 0xC0 SHL PUSH2 0x45C9 JUMP JUMPDEST PUSH2 0x3817 PUSH8 0x12792DB49BD80008 PUSH1 0xC0 SHL PUSH2 0x45C9 JUMP JUMPDEST PUSH1 0x0 DUP5 GT PUSH2 0x385A JUMPI PUSH1 0x40 MLOAD PUSH32 0x8C379A000000000000000000000000000000000000000000000000000000000 DUP2 MSTORE PUSH1 0x4 ADD PUSH2 0x3851 SWAP1 PUSH2 0x6566 JUMP JUMPDEST PUSH1 0x40 MLOAD DUP1 SWAP2 SUB SWAP1 REVERT JUMPDEST PUSH2 0x386E PUSH8 0x3A5A274BE22801D2 PUSH1 0xC0 SHL PUSH2 0x45C9 JUMP JUMPDEST PUSH2 0x3882 PUSH8 0x493634455E2D80E9 PUSH1 0xC0 SHL PUSH2 0x45C9 JUMP JUMPDEST PUSH2 0x3896 PUSH8 0x1175E050037A7C27 PUSH1 0xC0 SHL PUSH2 0x45C9 JUMP JUMPDEST PUSH2 0x38AA PUSH8 0x5137F0B970B59AA7 PUSH1 0xC0 SHL PUSH2 0x45C9 JUMP JUMPDEST PUSH1 0x0 PUSH1 0x1 PUSH1 0x0 DUP7 DUP2 MSTORE PUSH1 0x20 ADD SWAP1 DUP2 MSTORE PUSH1 0x20 ADD PUSH1 0x0 KECCAK256 PUSH1 0x0 ADD SLOAD SUB PUSH2 0x3903 JUMPI PUSH1 0x40 MLOAD PUSH32 0x8C379A000000000000000000000000000000000000000000000000000000000 DUP2 MSTORE PUSH1 0x4 ADD PUSH2 0x38FA SWAP1 PUSH2 0x65D2 JUMP JUMPDEST PUSH1 0x40 MLOAD DUP1 SWAP2 SUB SWAP1 REVERT JUMPDEST PUSH2 0x3917 PUSH8 0x7BA3D7AD982F17C1 PUSH1 0xC0 SHL PUSH2 0x45C9 JUMP JUMPDEST PUSH2 0x392B PUSH8 0x5FF2FE70F0A16508 PUSH1 0xC0 SHL PUSH2 0x45C9 JUMP JUMPDEST PUSH2 0x393F PUSH8 0x39D9FB6B575BA4E3 PUSH1 0xC0 SHL PUSH2 0x45C9 JUMP JUMPDEST PUSH2 0x394B DUP5 DUP5 DUP5 DUP5 PUSH2 0x51CA JUMP JUMPDEST POP POP POP POP JUMP JUMPDEST PUSH1 0x50 DUP2 JUMP JUMPDEST PUSH2 0x396A PUSH8 0x5EA5FD91E72C5013 PUSH1 0xC0 SHL PUSH2 0x45C9 JUMP JUMPDEST PUSH2 0x397E PUSH8 0x40B5EFFBE6FBC4BA PUSH1 0xC0 SHL PUSH2 0x45C9 JUMP JUMPDEST PUSH2 0x3992 PUSH8 0xD72DD4E9F32DF2A6 PUSH1 0xC0 SHL PUSH2 0x45C9 JUMP JUMPDEST PUSH1 0x0 PUSH1 0x2 PUSH1 0x0 DUP6 DUP2 MSTORE PUSH1 0x20 ADD SWAP1 DUP2 MSTORE PUSH1 0x20 ADD PUSH1 0x0 KECCAK256 SWAP1 POP PUSH2 0x39BD PUSH8 0xED0A2A914FD84F7 PUSH1 0xC0 SHL PUSH2 0x45C9 JUMP JUMPDEST PUSH2 0x39D1 PUSH8 0x87DE25C771EC2582 PUSH1 0xC0 SHL PUSH2 0x45C9 JUMP JUMPDEST PUSH2 0x39E5 PUSH8 0x9A8CDFCABCB0DACB PUSH1 0xC0 SHL PUSH2 0x45C9 JUMP JUMPDEST DUP1 PUSH1 0x0 ADD PUSH1 0x4 SWAP1 SLOAD SWAP1 PUSH2 0x100 EXP SWAP1 DIV PUSH4 0xFFFFFFFF AND PUSH4 0xFFFFFFFF AND DUP2 PUSH1 0x0 ADD PUSH1 0x0 SWAP1 SLOAD SWAP1 PUSH2 0x100 EXP SWAP1 DIV PUSH4 0xFFFFFFFF AND PUSH4 0xFFFFFFFF AND GT DUP2 PUSH1 0x2 ADD SLOAD PUSH1 0x40 MLOAD PUSH1 0x20 ADD PUSH2 0x3A31 SWAP2 SWAP1 PUSH2 0x6923 JUMP JUMPDEST PUSH1 0x40 MLOAD PUSH1 0x20 DUP2 DUP4 SUB SUB DUP2 MSTORE SWAP1 PUSH1 0x40 MSTORE PUSH1 0x40 MLOAD PUSH1 0x20 ADD PUSH2 0x3A50 SWAP2 SWAP1 PUSH2 0x749E JUMP JUMPDEST PUSH1 0x40 MLOAD PUSH1 0x20 DUP2 DUP4 SUB SUB DUP2 MSTORE SWAP1 PUSH1 0x40 MSTORE SWAP1 PUSH2 0x3AA0 JUMPI PUSH1 0x40 MLOAD PUSH32 0x8C379A000000000000000000000000000000000000000000000000000000000 DUP2 MSTORE PUSH1 0x4 ADD PUSH2 0x3A97 SWAP2 SWAP1 PUSH2 0x69BF JUMP JUMPDEST PUSH1 0x40 MLOAD DUP1 SWAP2 SUB SWAP1 REVERT JUMPDEST POP PUSH2 0x3AB5 PUSH8 0x772E58326B3683CE PUSH1 0xC0 SHL PUSH2 0x45C9 JUMP JUMPDEST PUSH2 0x3AC9 PUSH8 0xF33D304923BB8F17 PUSH1 0xC0 SHL PUSH2 0x45C9 JUMP JUMPDEST PUSH2 0x3ADD PUSH8 0x30DBD22AA968D27A PUSH1 0xC0 SHL PUSH2 0x45C9 JUMP JUMPDEST PUSH2 0x3AF1 PUSH8 0x1045BC06E9EC4A83 PUSH1 0xC0 SHL PUSH2 0x45C9 JUMP JUMPDEST PUSH2 0x3AFB DUP5 DUP5 PUSH2 0x26DA JUMP JUMPDEST DUP2 PUSH1 0x2 ADD SLOAD PUSH1 0x40 MLOAD PUSH1 0x20 ADD PUSH2 0x3B10 SWAP2 SWAP1 PUSH2 0x6923 JUMP JUMPDEST PUSH1 0x40 MLOAD PUSH1 0x20 DUP2 DUP4 SUB SUB DUP2 MSTORE SWAP1 PUSH1 0x40 MSTORE PUSH1 0x40 MLOAD PUSH1 0x20 ADD PUSH2 0x3B2F SWAP2 SWAP1 PUSH2 0x74F9 JUMP JUMPDEST PUSH1 0x40 MLOAD PUSH1 0x20 DUP2 DUP4 SUB SUB DUP2 MSTORE SWAP1 PUSH1 0x40 MSTORE SWAP1 PUSH2 0x3B7F JUMPI PUSH1 0x40 MLOAD PUSH32 0x8C379A000000000000000000000000000000000000000000000000000000000 DUP2 MSTORE PUSH1 0x4 ADD PUSH2 0x3B76 SWAP2 SWAP1 PUSH2 0x69BF JUMP JUMPDEST PUSH1 0x40 MLOAD DUP1 SWAP2 SUB SWAP1 REVERT JUMPDEST POP PUSH2 0x3B94 PUSH8 0xBF20874DED53A208 PUSH1 0xC0 SHL PUSH2 0x45C9 JUMP JUMPDEST PUSH2 0x3BA8 PUSH8 0xE36F7F130CB3F213 PUSH1 0xC0 SHL PUSH2 0x45C9 JUMP JUMPDEST PUSH2 0x3BBC PUSH8 0x15BD5E551D188D83 PUSH1 0xC0 SHL PUSH2 0x45C9 JUMP JUMPDEST PUSH2 0x3BD0 PUSH8 0x580BBBB9CCBB13BE PUSH1 0xC0 SHL PUSH2 0x45C9 JUMP JUMPDEST PUSH2 0x3BDE DUP2 PUSH1 0x1 ADD SLOAD CALLER PUSH2 0x26DA JUMP JUMPDEST DUP2 PUSH1 0x2 ADD SLOAD PUSH1 0x40 MLOAD PUSH1 0x20 ADD PUSH2 0x3BF3 SWAP2 SWAP1 PUSH2 0x6923 JUMP JUMPDEST PUSH1 0x40 MLOAD PUSH1 0x20 DUP2 DUP4 SUB SUB DUP2 MSTORE SWAP1 PUSH1 0x40 MSTORE PUSH1 0x40 MLOAD PUSH1 0x20 ADD PUSH2 0x3C12 SWAP2 SWAP1 PUSH2 0x6A2D JUMP JUMPDEST PUSH1 0x40 MLOAD PUSH1 0x20 DUP2 DUP4 SUB SUB DUP2 MSTORE SWAP1 PUSH1 0x40 MSTORE SWAP1 PUSH2 0x3C62 JUMPI PUSH1 0x40 MLOAD PUSH32 0x8C379A000000000000000000000000000000000000000000000000000000000 DUP2 MSTORE PUSH1 0x4 ADD PUSH2 0x3C59 SWAP2 SWAP1 PUSH2 0x69BF JUMP JUMPDEST PUSH1 0x40 MLOAD DUP1 SWAP2 SUB SWAP1 REVERT JUMPDEST POP PUSH2 0x3C77 PUSH8 0x66006DD0F09419F5 PUSH1 0xC0 SHL PUSH2 0x45C9 JUMP JUMPDEST PUSH2 0x3C8B PUSH8 0x20CEEB0471D394B6 PUSH1 0xC0 SHL PUSH2 0x45C9 JUMP JUMPDEST PUSH2 0x3C9F PUSH8 0x213863767FEBEE4A PUSH1 0xC0 SHL PUSH2 0x45C9 JUMP JUMPDEST PUSH1 0x0 DUP4 DUP6 PUSH1 0x40 MLOAD PUSH1 0x20 ADD PUSH2 0x3CB4 SWAP3 SWAP2 SWAP1 PUSH2 0x756B JUMP JUMPDEST PUSH1 0x40 MLOAD PUSH1 0x20 DUP2 DUP4 SUB SUB DUP2 MSTORE SWAP1 PUSH1 0x40 MSTORE DUP1 MLOAD SWAP1 PUSH1 0x20 ADD KECCAK256 SWAP1 POP PUSH2 0x3CE0 PUSH8 0x2D86523E849FC68D PUSH1 0xC0 SHL PUSH2 0x45C9 JUMP JUMPDEST PUSH2 0x3CF4 PUSH8 0x689F9D36814699ED PUSH1 0xC0 SHL PUSH2 0x45C9 JUMP JUMPDEST PUSH2 0x3D66 DUP2 DUP4 PUSH1 0x1 ADD SLOAD DUP5 PUSH1 0x2 ADD SLOAD PUSH1 0x40 MLOAD PUSH1 0x20 ADD PUSH2 0x3D12 SWAP2 SWAP1 PUSH2 0x6923 JUMP JUMPDEST PUSH1 0x40 MLOAD PUSH1 0x20 DUP2 DUP4 SUB SUB DUP2 MSTORE SWAP1 PUSH1 0x40 MSTORE DUP8 PUSH1 0x40 MLOAD PUSH1 0x20 ADD PUSH2 0x3D32 SWAP2 SWAP1 PUSH2 0x6B79 JUMP JUMPDEST PUSH1 0x40 MLOAD PUSH1 0x20 DUP2 DUP4 SUB SUB DUP2 MSTORE SWAP1 PUSH1 0x40 MSTORE PUSH1 0x40 MLOAD PUSH1 0x20 ADD PUSH2 0x3D52 SWAP3 SWAP2 SWAP1 PUSH2 0x75C8 JUMP JUMPDEST PUSH1 0x40 MLOAD PUSH1 0x20 DUP2 DUP4 SUB SUB DUP2 MSTORE SWAP1 PUSH1 0x40 MSTORE PUSH2 0x45CC JUMP JUMPDEST PUSH2 0x3D7A PUSH8 0xF194D1FFC0447EA9 PUSH1 0xC0 SHL PUSH2 0x45C9 JUMP JUMPDEST PUSH2 0x3D8E PUSH8 0x89A333387D41A6B6 PUSH1 0xC0 SHL PUSH2 0x45C9 JUMP JUMPDEST DUP3 DUP1 ISZERO PUSH2 0x3DFF JUMPI POP PUSH1 0x0 ISZERO ISZERO PUSH1 0x3 PUSH1 0x0 DUP4 DUP2 MSTORE PUSH1 0x20 ADD SWAP1 DUP2 MSTORE PUSH1 0x20 ADD PUSH1 0x0 KECCAK256 PUSH1 0x3 ADD PUSH1 0x0 CALLER PUSH20 0xFFFFFFFFFFFFFFFFFFFFFFFFFFFFFFFFFFFFFFFF AND PUSH20 0xFFFFFFFFFFFFFFFFFFFFFFFFFFFFFFFFFFFFFFFF AND DUP2 MSTORE PUSH1 0x20 ADD SWAP1 DUP2 MSTORE PUSH1 0x20 ADD PUSH1 0x0 KECCAK256 PUSH1 0x0 SWAP1 SLOAD SWAP1 PUSH2 0x100 EXP SWAP1 DIV PUSH1 0xFF AND ISZERO ISZERO EQ JUMPDEST ISZERO PUSH2 0x3EC0 JUMPI PUSH2 0x3E18 PUSH8 0x5DA07D83CB2BAB9D PUSH1 0xC0 SHL PUSH2 0x45C9 JUMP JUMPDEST PUSH2 0x3E2C PUSH8 0xF25AC83BECFB3BA8 PUSH1 0xC0 SHL PUSH2 0x45C9 JUMP JUMPDEST PUSH2 0x3E40 PUSH8 0x386935278DAE8226 PUSH1 0xC0 SHL PUSH2 0x45C9 JUMP JUMPDEST PUSH2 0x3E5C PUSH1 0x3 PUSH1 0x0 DUP4 DUP2 MSTORE PUSH1 0x20 ADD SWAP1 DUP2 MSTORE PUSH1 0x20 ADD PUSH1 0x0 KECCAK256 CALLER PUSH2 0x4770 JUMP JUMPDEST PUSH2 0x3E70 PUSH8 0xCCB3B5B8AF78B2CB PUSH1 0xC0 SHL PUSH2 0x45C9 JUMP JUMPDEST PUSH2 0x3E84 PUSH8 0xE0F5824EDE3CB57D PUSH1 0xC0 SHL PUSH2 0x45C9 JUMP JUMPDEST PUSH32 0xB431A69783A2491A0C400FF16DAB32CD442ABF8FE5AF63A526A7248D730192F8 DUP2 PUSH1 0x40 MLOAD PUSH2 0x3EB3 SWAP2 SWAP1 PUSH2 0x5E3C JUMP JUMPDEST PUSH1 0x40 MLOAD DUP1 SWAP2 SUB SWAP1 LOG1 PUSH2 0x3FC6 JUMP JUMPDEST PUSH2 0x3ED4 PUSH8 0xF4B14BEAD3785A66 PUSH1 0xC0 SHL PUSH2 0x45C9 JUMP JUMPDEST PUSH2 0x3EE8 PUSH8 0x43D8BA5B87E2E648 PUSH1 0xC0 SHL PUSH2 0x45C9 JUMP JUMPDEST PUSH1 0x0 ISZERO ISZERO DUP4 ISZERO ISZERO SUB PUSH2 0x3FB0 JUMPI PUSH2 0x3F08 PUSH8 0x5882F3B1B847165D PUSH1 0xC0 SHL PUSH2 0x45C9 JUMP JUMPDEST PUSH2 0x3F1C PUSH8 0xEC6DBC09E6A8D3C3 PUSH1 0xC0 SHL PUSH2 0x45C9 JUMP JUMPDEST PUSH2 0x3F30 PUSH8 0x87FEC01562DE0D77 PUSH1 0xC0 SHL PUSH2 0x45C9 JUMP JUMPDEST PUSH2 0x3F4C PUSH1 0x3 PUSH1 0x0 DUP4 DUP2 MSTORE PUSH1 0x20 ADD SWAP1 DUP2 MSTORE PUSH1 0x20 ADD PUSH1 0x0 KECCAK256 CALLER PUSH2 0x49F2 JUMP JUMPDEST PUSH2 0x3F60 PUSH8 0xB815FA764D360F80 PUSH1 0xC0 SHL PUSH2 0x45C9 JUMP JUMPDEST PUSH2 0x3F74 PUSH8 0x6C848CA2D28CC2E7 PUSH1 0xC0 SHL PUSH2 0x45C9 JUMP JUMPDEST PUSH32 0xB431A69783A2491A0C400FF16DAB32CD442ABF8FE5AF63A526A7248D730192F8 DUP2 PUSH1 0x40 MLOAD PUSH2 0x3FA3 SWAP2 SWAP1 PUSH2 0x5E3C JUMP JUMPDEST PUSH1 0x40 MLOAD DUP1 SWAP2 SUB SWAP1 LOG1 PUSH2 0x3FC5 JUMP JUMPDEST PUSH2 0x3FC4 PUSH8 0x62A5C10409C68FA6 PUSH1 0xC0 SHL PUSH2 0x45C9 JUMP JUMPDEST JUMPDEST JUMPDEST PUSH2 0x3FDA PUSH8 0x67BE7BCFB8B646A3 PUSH1 0xC0 SHL PUSH2 0x45C9 JUMP JUMPDEST PUSH2 0x3FEE PUSH8 0xAB4B51EF71953986 PUSH1 0xC0 SHL PUSH2 0x45C9 JUMP JUMPDEST DUP2 PUSH1 0x1 ADD SLOAD DUP6 EQ ISZERO DUP1 ISZERO PUSH2 0x4081 JUMPI POP PUSH2 0x4057 DUP3 PUSH1 0x0 ADD PUSH1 0xD SWAP1 SLOAD SWAP1 PUSH2 0x100 EXP SWAP1 DIV PUSH1 0xFF AND PUSH1 0xFF AND PUSH1 0x2 PUSH1 0x0 DUP6 PUSH1 0x1 ADD SLOAD DUP2 MSTORE PUSH1 0x20 ADD SWAP1 DUP2 MSTORE PUSH1 0x20 ADD PUSH1 0x0 KECCAK256 PUSH1 0x0 ADD PUSH1 0x0 SWAP1 SLOAD SWAP1 PUSH2 0x100 EXP SWAP1 DIV PUSH4 0xFFFFFFFF AND PUSH2 0x404A SWAP2 SWAP1 PUSH2 0x6767 JUMP JUMPDEST PUSH4 0xFFFFFFFF AND PUSH1 0x64 PUSH2 0x3611 JUMP JUMPDEST PUSH1 0x3 PUSH1 0x0 DUP4 DUP2 MSTORE PUSH1 0x20 ADD SWAP1 DUP2 MSTORE PUSH1 0x20 ADD PUSH1 0x0 KECCAK256 PUSH1 0x2 ADD PUSH1 0x0 SWAP1 SLOAD SWAP1 PUSH2 0x100 EXP SWAP1 DIV PUSH1 0xFF AND PUSH1 0xFF AND LT ISZERO JUMPDEST DUP1 ISZERO PUSH2 0x409D JUMPI POP PUSH2 0x409C PUSH8 0x45513953A8AAED3B PUSH1 0xC0 SHL PUSH2 0x563F JUMP JUMPDEST JUMPDEST DUP1 PUSH2 0x415E JUMPI POP DUP2 PUSH1 0x1 ADD SLOAD DUP6 EQ DUP1 ISZERO PUSH2 0x4141 JUMPI POP PUSH2 0x4117 DUP3 PUSH1 0x0 ADD PUSH1 0xD SWAP1 SLOAD SWAP1 PUSH2 0x100 EXP SWAP1 DIV PUSH1 0xFF AND PUSH1 0xFF AND PUSH1 0x1 PUSH1 0x2 PUSH1 0x0 DUP7 PUSH1 0x1 ADD SLOAD DUP2 MSTORE PUSH1 0x20 ADD SWAP1 DUP2 MSTORE PUSH1 0x20 ADD PUSH1 0x0 KECCAK256 PUSH1 0x0 ADD PUSH1 0x0 SWAP1 SLOAD SWAP1 PUSH2 0x100 EXP SWAP1 DIV PUSH4 0xFFFFFFFF AND PUSH2 0x4100 SWAP2 SWAP1 PUSH2 0x760A JUMP JUMPDEST PUSH2 0x410A SWAP2 SWAP1 PUSH2 0x6767 JUMP JUMPDEST PUSH4 0xFFFFFFFF AND PUSH1 0x64 PUSH2 0x3611 JUMP JUMPDEST PUSH1 0x3 PUSH1 0x0 DUP4 DUP2 MSTORE PUSH1 0x20 ADD SWAP1 DUP2 MSTORE PUSH1 0x20 ADD PUSH1 0x0 KECCAK256 PUSH1 0x2 ADD PUSH1 0x0 SWAP1 SLOAD SWAP1 PUSH2 0x100 EXP SWAP1 DIV PUSH1 0xFF AND PUSH1 0xFF AND LT ISZERO JUMPDEST DUP1 ISZERO PUSH2 0x415D JUMPI POP PUSH2 0x415C PUSH8 0xA0247630C45FC010 PUSH1 0xC0 SHL PUSH2 0x563F JUMP JUMPDEST JUMPDEST JUMPDEST ISZERO PUSH2 0x44FE JUMPI PUSH2 0x4177 PUSH8 0xCB56C9DFFEF6C09B PUSH1 0xC0 SHL PUSH2 0x45C9 JUMP JUMPDEST PUSH2 0x418B PUSH8 0xF6C466182E7DAF4 PUSH1 0xC0 SHL PUSH2 0x45C9 JUMP JUMPDEST PUSH2 0x419F PUSH8 0x96AF1B9E171F5D0C PUSH1 0xC0 SHL PUSH2 0x45C9 JUMP JUMPDEST PUSH1 0x0 JUMPDEST PUSH1 0x5 SLOAD DUP2 LT ISZERO PUSH2 0x43CE JUMPI PUSH2 0x41C0 PUSH8 0x6EA5A5CFDD40CA77 PUSH1 0xC0 SHL PUSH2 0x45C9 JUMP JUMPDEST PUSH2 0x41D4 PUSH8 0x34C805801AD925B4 PUSH1 0xC0 SHL PUSH2 0x45C9 JUMP JUMPDEST PUSH1 0x1 ISZERO ISZERO PUSH1 0x3 PUSH1 0x0 PUSH1 0x4 PUSH1 0x0 DUP6 DUP2 MSTORE PUSH1 0x20 ADD SWAP1 DUP2 MSTORE PUSH1 0x20 ADD PUSH1 0x0 KECCAK256 SLOAD DUP2 MSTORE PUSH1 0x20 ADD SWAP1 DUP2 MSTORE PUSH1 0x20 ADD PUSH1 0x0 KECCAK256 PUSH1 0x3 ADD PUSH1 0x0 DUP8 PUSH20 0xFFFFFFFFFFFFFFFFFFFFFFFFFFFFFFFFFFFFFFFF AND PUSH20 0xFFFFFFFFFFFFFFFFFFFFFFFFFFFFFFFFFFFFFFFF AND DUP2 MSTORE PUSH1 0x20 ADD SWAP1 DUP2 MSTORE PUSH1 0x20 ADD PUSH1 0x0 KECCAK256 PUSH1 0x0 SWAP1 SLOAD SWAP1 PUSH2 0x100 EXP SWAP1 DIV PUSH1 0xFF AND ISZERO ISZERO EQ DUP1 ISZERO PUSH2 0x4283 JUMPI POP DUP6 PUSH1 0x3 PUSH1 0x0 PUSH1 0x4 PUSH1 0x0 DUP6 DUP2 MSTORE PUSH1 0x20 ADD SWAP1 DUP2 MSTORE PUSH1 0x20 ADD PUSH1 0x0 KECCAK256 SLOAD DUP2 MSTORE PUSH1 0x20 ADD SWAP1 DUP2 MSTORE PUSH1 0x20 ADD PUSH1 0x0 KECCAK256 PUSH1 0x1 ADD SLOAD EQ JUMPDEST ISZERO PUSH2 0x43A6 JUMPI PUSH2 0x429C PUSH8 0xDE2808851EA85358 PUSH1 0xC0 SHL PUSH2 0x45C9 JUMP JUMPDEST PUSH2 0x42B0 PUSH8 0x7AB469CC82D327C1 PUSH1 0xC0 SHL PUSH2 0x45C9 JUMP JUMPDEST PUSH1 0x1 PUSH1 0x3 PUSH1 0x0 PUSH1 0x4 PUSH1 0x0 DUP6 DUP2 MSTORE PUSH1 0x20 ADD SWAP1 DUP2 MSTORE PUSH1 0x20 ADD PUSH1 0x0 KECCAK256 SLOAD DUP2 MSTORE PUSH1 0x20 ADD SWAP1 DUP2 MSTORE PUSH1 0x20 ADD PUSH1 0x0 KECCAK256 PUSH1 0x2 ADD PUSH1 0x0 DUP3 DUP3 DUP3 SWAP1 SLOAD SWAP1 PUSH2 0x100 EXP SWAP1 DIV PUSH1 0xFF AND PUSH2 0x42F6 SWAP2 SWAP1 PUSH2 0x7642 JUMP JUMPDEST SWAP3 POP PUSH2 0x100 EXP DUP2 SLOAD DUP2 PUSH1 0xFF MUL NOT AND SWAP1 DUP4 PUSH1 0xFF AND MUL OR SWAP1 SSTORE POP PUSH2 0x4322 PUSH8 0x34FCCB1C20348035 PUSH1 0xC0 SHL PUSH2 0x45C9 JUMP JUMPDEST PUSH1 0x0 PUSH1 0x3 PUSH1 0x0 PUSH1 0x4 PUSH1 0x0 DUP6 DUP2 MSTORE PUSH1 0x20 ADD SWAP1 DUP2 MSTORE PUSH1 0x20 ADD PUSH1 0x0 KECCAK256 SLOAD DUP2 MSTORE PUSH1 0x20 ADD SWAP1 DUP2 MSTORE PUSH1 0x20 ADD PUSH1 0x0 KECCAK256 PUSH1 0x3 ADD PUSH1 0x0 DUP8 PUSH20 0xFFFFFFFFFFFFFFFFFFFFFFFFFFFFFFFFFFFFFFFF AND PUSH20 0xFFFFFFFFFFFFFFFFFFFFFFFFFFFFFFFFFFFFFFFF AND DUP2 MSTORE PUSH1 0x20 ADD SWAP1 DUP2 MSTORE PUSH1 0x20 ADD PUSH1 0x0 KECCAK256 PUSH1 0x0 PUSH2 0x100 EXP DUP2 SLOAD DUP2 PUSH1 0xFF MUL NOT AND SWAP1 DUP4 ISZERO ISZERO MUL OR SWAP1 SSTORE POP PUSH2 0x43BB JUMP JUMPDEST PUSH2 0x43BA PUSH8 0xFC92D0035D00688E PUSH1 0xC0 SHL PUSH2 0x45C9 JUMP JUMPDEST JUMPDEST DUP1 DUP1 PUSH2 0x43C6 SWAP1 PUSH2 0x7677 JUMP JUMPDEST SWAP2 POP POP PUSH2 0x41A2 JUMP JUMPDEST POP PUSH2 0x43E3 PUSH8 0xE5A91BFC65F0C4B1 PUSH1 0xC0 SHL PUSH2 0x45C9 JUMP JUMPDEST PUSH2 0x43F7 PUSH8 0x4900A3687504079C PUSH1 0xC0 SHL PUSH2 0x45C9 JUMP JUMPDEST PUSH2 0x4412 PUSH1 0x3 PUSH1 0x0 DUP4 DUP2 MSTORE PUSH1 0x20 ADD SWAP1 DUP2 MSTORE PUSH1 0x20 ADD PUSH1 0x0 KECCAK256 PUSH2 0x4BAA JUMP JUMPDEST PUSH2 0x4426 PUSH8 0x4FCE23AE6BB9DC7F PUSH1 0xC0 SHL PUSH2 0x45C9 JUMP JUMPDEST PUSH2 0x443A PUSH8 0xA37F82E1AE7B555D PUSH1 0xC0 SHL PUSH2 0x45C9 JUMP JUMPDEST PUSH32 0x562618DBCF74B61AE5B0F229FE40BA6D5B6AE6B4248F8C89A870DDA7C77135F6 DUP2 PUSH1 0x40 MLOAD PUSH2 0x4469 SWAP2 SWAP1 PUSH2 0x5E3C JUMP JUMPDEST PUSH1 0x40 MLOAD DUP1 SWAP2 SUB SWAP1 LOG1 PUSH2 0x4485 PUSH8 0xDB9F0C54E2940744 PUSH1 0xC0 SHL PUSH2 0x45C9 JUMP JUMPDEST PUSH2 0x4499 PUSH8 0xE392881A64B85DD9 PUSH1 0xC0 SHL PUSH2 0x45C9 JUMP JUMPDEST PUSH2 0x44A3 DUP6 DUP6 PUSH2 0x564A JUMP JUMPDEST PUSH2 0x44B7 PUSH8 0x3B69B5F7DA0FC985 PUSH1 0xC0 SHL PUSH2 0x45C9 JUMP JUMPDEST PUSH1 0x1 DUP3 PUSH1 0x0 ADD PUSH1 0x0 DUP3 DUP3 DUP3 SWAP1 SLOAD SWAP1 PUSH2 0x100 EXP SWAP1 DIV PUSH4 0xFFFFFFFF AND PUSH2 0x44DB SWAP2 SWAP1 PUSH2 0x760A JUMP JUMPDEST SWAP3 POP PUSH2 0x100 EXP DUP2 SLOAD DUP2 PUSH4 0xFFFFFFFF MUL NOT AND SWAP1 DUP4 PUSH4 0xFFFFFFFF AND MUL OR SWAP1 SSTORE POP PUSH2 0x4513 JUMP JUMPDEST PUSH2 0x4512 PUSH8 0x39878FDC39193A5C PUSH1 0xC0 SHL PUSH2 0x45C9 JUMP JUMPDEST JUMPDEST POP POP POP POP POP JUMP JUMPDEST PUSH2 0x4523 DUP3 PUSH2 0x1005 JUMP JUMPDEST PUSH2 0x452C DUP2 PUSH2 0x4DC7 JUMP JUMPDEST PUSH2 0x4536 DUP4 DUP4 PUSH2 0x564A JUMP JUMPDEST POP POP POP JUMP JUMPDEST PUSH32 0x4BBEB6FD3E5222E55F2F8B0C35BC228E0A06A25D0DA772FDB02C3B92FA004F88 DUP2 JUMP JUMPDEST PUSH1 0x0 PUSH32 0x1FFC9A700000000000000000000000000000000000000000000000000000000 PUSH28 0xFFFFFFFFFFFFFFFFFFFFFFFFFFFFFFFFFFFFFFFFFFFFFFFFFFFFFFFF NOT AND DUP3 PUSH28 0xFFFFFFFFFFFFFFFFFFFFFFFFFFFFFFFFFFFFFFFFFFFFFFFFFFFFFFFF NOT AND EQ SWAP1 POP SWAP2 SWAP1 POP JUMP JUMPDEST POP JUMP JUMPDEST PUSH2 0x45E0 PUSH8 0x7B5A83C26FEAC28 PUSH1 0xC0 SHL PUSH2 0x45C9 JUMP JUMPDEST PUSH2 0x45F4 PUSH8 0xD285A5263EC8E0F5 PUSH1 0xC0 SHL PUSH2 0x45C9 JUMP JUMPDEST PUSH2 0x4608 PUSH8 0x5E4CBCC73C151F3 PUSH1 0xC0 SHL PUSH2 0x45C9 JUMP JUMPDEST PUSH1 0x0 ISZERO ISZERO PUSH1 0x3 PUSH1 0x0 DUP6 DUP2 MSTORE PUSH1 0x20 ADD SWAP1 DUP2 MSTORE PUSH1 0x20 ADD PUSH1 0x0 KECCAK256 PUSH1 0x0 ADD PUSH1 0x0 SWAP1 SLOAD SWAP1 PUSH2 0x100 EXP SWAP1 DIV PUSH1 0xFF AND ISZERO ISZERO SUB PUSH2 0x4756 JUMPI PUSH2 0x464B PUSH8 0x60F35A0621673347 PUSH1 0xC0 SHL PUSH2 0x45C9 JUMP JUMPDEST PUSH2 0x465F PUSH8 0x6596486D69562B77 PUSH1 0xC0 SHL PUSH2 0x45C9 JUMP JUMPDEST PUSH1 0x1 PUSH1 0x3 PUSH1 0x0 DUP6 DUP2 MSTORE PUSH1 0x20 ADD SWAP1 DUP2 MSTORE PUSH1 0x20 ADD PUSH1 0x0 KECCAK256 PUSH1 0x0 ADD PUSH1 0x0 PUSH2 0x100 EXP DUP2 SLOAD DUP2 PUSH1 0xFF MUL NOT AND SWAP1 DUP4 ISZERO ISZERO MUL OR SWAP1 SSTORE POP PUSH2 0x46A2 PUSH8 0xACEFC79E49D8D98E PUSH1 0xC0 SHL PUSH2 0x45C9 JUMP JUMPDEST DUP3 PUSH1 0x4 PUSH1 0x0 PUSH1 0x5 SLOAD DUP2 MSTORE PUSH1 0x20 ADD SWAP1 DUP2 MSTORE PUSH1 0x20 ADD PUSH1 0x0 KECCAK256 DUP2 SWAP1 SSTORE POP PUSH2 0x46D0 PUSH8 0xF1DD76D34C817F8 PUSH1 0xC0 SHL PUSH2 0x45C9 JUMP JUMPDEST PUSH1 0x1 PUSH1 0x5 PUSH1 0x0 DUP3 DUP3 SLOAD PUSH2 0x46E3 SWAP2 SWAP1 PUSH2 0x7444 JUMP JUMPDEST SWAP3 POP POP DUP2 SWAP1 SSTORE POP PUSH2 0x46FE PUSH8 0x6751378D318E7C40 PUSH1 0xC0 SHL PUSH2 0x45C9 JUMP JUMPDEST DUP2 PUSH1 0x3 PUSH1 0x0 DUP6 DUP2 MSTORE PUSH1 0x20 ADD SWAP1 DUP2 MSTORE PUSH1 0x20 ADD PUSH1 0x0 KECCAK256 PUSH1 0x1 ADD DUP2 SWAP1 SSTORE POP PUSH2 0x472D PUSH8 0x4F87EFA02C74E0F2 PUSH1 0xC0 SHL PUSH2 0x45C9 JUMP JUMPDEST DUP1 PUSH1 0x3 PUSH1 0x0 DUP6 DUP2 MSTORE PUSH1 0x20 ADD SWAP1 DUP2 MSTORE PUSH1 0x20 ADD PUSH1 0x0 KECCAK256 PUSH1 0x5 ADD SWAP1 DUP2 PUSH2 0x4750 SWAP2 SWAP1 PUSH2 0x786B JUMP JUMPDEST POP PUSH2 0x476B JUMP JUMPDEST PUSH2 0x476A PUSH8 0xDF9346BF5F7FF815 PUSH1 0xC0 SHL PUSH2 0x45C9 JUMP JUMPDEST JUMPDEST POP POP POP JUMP JUMPDEST PUSH2 0x4784 PUSH8 0x797C64B14075C8F9 PUSH1 0xC0 SHL PUSH2 0x572B JUMP JUMPDEST PUSH2 0x4798 PUSH8 0xAC145F749C9E99C1 PUSH1 0xC0 SHL PUSH2 0x572B JUMP JUMPDEST PUSH2 0x47AC PUSH8 0xB695EB22EEFBA2BF PUSH1 0xC0 SHL PUSH2 0x572B JUMP JUMPDEST PUSH2 0x47C0 PUSH8 0xFCB479FF5AEB66B5 PUSH1 0xC0 SHL PUSH2 0x572B JUMP JUMPDEST PUSH1 0x0 ISZERO ISZERO DUP3 PUSH1 0x3 ADD PUSH1 0x0 DUP4 PUSH20 0xFFFFFFFFFFFFFFFFFFFFFFFFFFFFFFFFFFFFFFFF AND PUSH20 0xFFFFFFFFFFFFFFFFFFFFFFFFFFFFFFFFFFFFFFFF AND DUP2 MSTORE PUSH1 0x20 ADD SWAP1 DUP2 MSTORE PUSH1 0x20 ADD PUSH1 0x0 KECCAK256 PUSH1 0x0 SWAP1 SLOAD SWAP1 PUSH2 0x100 EXP SWAP1 DIV PUSH1 0xFF AND ISZERO ISZERO EQ PUSH2 0x4855 JUMPI PUSH1 0x40 MLOAD PUSH32 0x8C379A000000000000000000000000000000000000000000000000000000000 DUP2 MSTORE PUSH1 0x4 ADD PUSH2 0x484C SWAP1 PUSH2 0x7989 JUMP JUMPDEST PUSH1 0x40 MLOAD DUP1 SWAP2 SUB SWAP1 REVERT JUMPDEST PUSH2 0x4869 PUSH8 0x5BC11C9DE63DB595 PUSH1 0xC0 SHL PUSH2 0x572B JUMP JUMPDEST PUSH2 0x487D PUSH8 0x6BE8A1C3691FAD8B PUSH1 0xC0 SHL PUSH2 0x572B JUMP JUMPDEST DUP1 DUP3 PUSH1 0x4 ADD PUSH1 0x0 DUP5 PUSH1 0x2 ADD PUSH1 0x1 SWAP1 SLOAD SWAP1 PUSH2 0x100 EXP SWAP1 DIV PUSH1 0xFF AND PUSH1 0xFF AND DUP2 MSTORE PUSH1 0x20 ADD SWAP1 DUP2 MSTORE PUSH1 0x20 ADD PUSH1 0x0 KECCAK256 PUSH1 0x0 PUSH2 0x100 EXP DUP2 SLOAD DUP2 PUSH20 0xFFFFFFFFFFFFFFFFFFFFFFFFFFFFFFFFFFFFFFFF MUL NOT AND SWAP1 DUP4 PUSH20 0xFFFFFFFFFFFFFFFFFFFFFFFFFFFFFFFFFFFFFFFF AND MUL OR SWAP1 SSTORE POP PUSH2 0x48F9 PUSH8 0x1A4585E7F05081B3 PUSH1 0xC0 SHL PUSH2 0x572B JUMP JUMPDEST DUP2 PUSH1 0x2 ADD PUSH1 0x1 DUP2 DUP2 SWAP1 SLOAD SWAP1 PUSH2 0x100 EXP SWAP1 DIV PUSH1 0xFF AND DUP1 SWAP3 SWAP2 SWAP1 PUSH2 0x491A SWAP1 PUSH2 0x79A9 JUMP JUMPDEST SWAP2 SWAP1 PUSH2 0x100 EXP DUP2 SLOAD DUP2 PUSH1 0xFF MUL NOT AND SWAP1 DUP4 PUSH1 0xFF AND MUL OR SWAP1 SSTORE POP POP PUSH2 0x4947 PUSH8 0xB25FDCCC717FD034 PUSH1 0xC0 SHL PUSH2 0x572B JUMP JUMPDEST PUSH1 0x1 DUP3 PUSH1 0x3 ADD PUSH1 0x0 DUP4 PUSH20 0xFFFFFFFFFFFFFFFFFFFFFFFFFFFFFFFFFFFFFFFF AND PUSH20 0xFFFFFFFFFFFFFFFFFFFFFFFFFFFFFFFFFFFFFFFF AND DUP2 MSTORE PUSH1 0x20 ADD SWAP1 DUP2 MSTORE PUSH1 0x20 ADD PUSH1 0x0 KECCAK256 PUSH1 0x0 PUSH2 0x100 EXP DUP2 SLOAD DUP2 PUSH1 0xFF MUL NOT AND SWAP1 DUP4 ISZERO ISZERO MUL OR SWAP1 SSTORE POP PUSH2 0x49B5 PUSH8 0x1462DD328C4718AC PUSH1 0xC0 SHL PUSH2 0x572B JUMP JUMPDEST PUSH1 0x1 DUP3 PUSH1 0x2 ADD PUSH1 0x0 DUP3 DUP3 DUP3 SWAP1 SLOAD SWAP1 PUSH2 0x100 EXP SWAP1 DIV PUSH1 0xFF AND PUSH2 0x49D6 SWAP2 SWAP1 PUSH2 0x79D2 JUMP JUMPDEST SWAP3 POP PUSH2 0x100 EXP DUP2 SLOAD DUP2 PUSH1 0xFF MUL NOT AND SWAP1 DUP4 PUSH1 0xFF AND MUL OR SWAP1 SSTORE POP POP POP JUMP JUMPDEST PUSH2 0x4A06 PUSH8 0x5D04D83D8DDE6232 PUSH1 0xC0 SHL PUSH2 0x572B JUMP JUMPDEST PUSH2 0x4A1A PUSH8 0xD3245E2D553E4F4D PUSH1 0xC0 SHL PUSH2 0x572B JUMP JUMPDEST PUSH2 0x4A2E PUSH8 0x779CD5C9944B982 PUSH1 0xC0 SHL PUSH2 0x572B JUMP JUMPDEST PUSH2 0x4A42 PUSH8 0xC1B2F784A22F15E1 PUSH1 0xC0 SHL PUSH2 0x572B JUMP JUMPDEST PUSH1 0x1 ISZERO ISZERO DUP3 PUSH1 0x3 ADD PUSH1 0x0 DUP4 PUSH20 0xFFFFFFFFFFFFFFFFFFFFFFFFFFFFFFFFFFFFFFFF AND PUSH20 0xFFFFFFFFFFFFFFFFFFFFFFFFFFFFFFFFFFFFFFFF AND DUP2 MSTORE PUSH1 0x20 ADD SWAP1 DUP2 MSTORE PUSH1 0x20 ADD PUSH1 0x0 KECCAK256 PUSH1 0x0 SWAP1 SLOAD SWAP1 PUSH2 0x100 EXP SWAP1 DIV PUSH1 0xFF AND ISZERO ISZERO EQ PUSH2 0x4AD7 JUMPI PUSH1 0x40 MLOAD PUSH32 0x8C379A000000000000000000000000000000000000000000000000000000000 DUP2 MSTORE PUSH1 0x4 ADD PUSH2 0x4ACE SWAP1 PUSH2 0x7A79 JUMP JUMPDEST PUSH1 0x40 MLOAD DUP1 SWAP2 SUB SWAP1 REVERT JUMPDEST PUSH2 0x4AEB PUSH8 0xB9BC764889165073 PUSH1 0xC0 SHL PUSH2 0x572B JUMP JUMPDEST PUSH2 0x4AFF PUSH8 0x405798A3DE3077E1 PUSH1 0xC0 SHL PUSH2 0x572B JUMP JUMPDEST PUSH1 0x0 DUP3 PUSH1 0x3 ADD PUSH1 0x0 DUP4 PUSH20 0xFFFFFFFFFFFFFFFFFFFFFFFFFFFFFFFFFFFFFFFF AND PUSH20 0xFFFFFFFFFFFFFFFFFFFFFFFFFFFFFFFFFFFFFFFF AND DUP2 MSTORE PUSH1 0x20 ADD SWAP1 DUP2 MSTORE PUSH1 0x20 ADD PUSH1 0x0 KECCAK256 PUSH1 0x0 PUSH2 0x100 EXP DUP2 SLOAD DUP2 PUSH1 0xFF MUL NOT AND SWAP1 DUP4 ISZERO ISZERO MUL OR SWAP1 SSTORE POP PUSH2 0x4B6D PUSH8 0x362F4144A4DBB296 PUSH1 0xC0 SHL PUSH2 0x572B JUMP JUMPDEST PUSH1 0x1 DUP3 PUSH1 0x2 ADD PUSH1 0x0 DUP3 DUP3 DUP3 SWAP1 SLOAD SWAP1 PUSH2 0x100 EXP SWAP1 DIV PUSH1 0xFF AND PUSH2 0x4B8E SWAP2 SWAP1 PUSH2 0x7642 JUMP JUMPDEST SWAP3 POP PUSH2 0x100 EXP DUP2 SLOAD DUP2 PUSH1 0xFF MUL NOT AND SWAP1 DUP4 PUSH1 0xFF AND MUL OR SWAP1 SSTORE POP POP POP JUMP JUMPDEST PUSH2 0x4BBE PUSH8 0x644DF46897FF8C45 PUSH1 0xC0 SHL PUSH2 0x572B JUMP JUMPDEST PUSH2 0x4BD2 PUSH8 0x30A71E31C726828D PUSH1 0xC0 SHL PUSH2 0x572B JUMP JUMPDEST PUSH1 0x0 DUP2 PUSH1 0x2 ADD PUSH1 0x0 PUSH2 0x100 EXP DUP2 SLOAD DUP2 PUSH1 0xFF MUL NOT AND SWAP1 DUP4 PUSH1 0xFF AND MUL OR SWAP1 SSTORE POP PUSH2 0x4C04 PUSH8 0x10846983D352CDED PUSH1 0xC0 SHL PUSH2 0x572B JUMP JUMPDEST PUSH2 0x4C18 PUSH8 0xF738224570466255 PUSH1 0xC0 SHL PUSH2 0x572B JUMP JUMPDEST PUSH1 0x0 JUMPDEST DUP2 PUSH1 0x2 ADD PUSH1 0x1 SWAP1 SLOAD SWAP1 PUSH2 0x100 EXP SWAP1 DIV PUSH1 0xFF AND PUSH1 0xFF AND DUP2 PUSH1 0xFF AND LT ISZERO PUSH2 0x4CF3 JUMPI PUSH2 0x4C4E PUSH8 0x7E83EE00CB156878 PUSH1 0xC0 SHL PUSH2 0x572B JUMP JUMPDEST PUSH1 0x0 DUP3 PUSH1 0x3 ADD PUSH1 0x0 DUP5 PUSH1 0x4 ADD PUSH1 0x0 DUP6 PUSH1 0xFF AND DUP2 MSTORE PUSH1 0x20 ADD SWAP1 DUP2 MSTORE PUSH1 0x20 ADD PUSH1 0x0 KECCAK256 PUSH1 0x0 SWAP1 SLOAD SWAP1 PUSH2 0x100 EXP SWAP1 DIV PUSH20 0xFFFFFFFFFFFFFFFFFFFFFFFFFFFFFFFFFFFFFFFF AND PUSH20 0xFFFFFFFFFFFFFFFFFFFFFFFFFFFFFFFFFFFFFFFF AND PUSH20 0xFFFFFFFFFFFFFFFFFFFFFFFFFFFFFFFFFFFFFFFF AND DUP2 MSTORE PUSH1 0x20 ADD SWAP1 DUP2 MSTORE PUSH1 0x20 ADD PUSH1 0x0 KECCAK256 PUSH1 0x0 PUSH2 0x100 EXP DUP2 SLOAD DUP2 PUSH1 0xFF MUL NOT AND SWAP1 DUP4 ISZERO ISZERO MUL OR SWAP1 SSTORE POP DUP1 DUP1 PUSH2 0x4CEB SWAP1 PUSH2 0x79A9 JUMP JUMPDEST SWAP2 POP POP PUSH2 0x4C1B JUMP JUMPDEST POP POP JUMP JUMPDEST PUSH2 0x4D0B PUSH8 0xB5B158CD02C2FB4B PUSH1 0xC0 SHL PUSH2 0x4EBB JUMP JUMPDEST PUSH2 0x4D1F PUSH8 0xA1EA6A203D9B8925 PUSH1 0xC0 SHL PUSH2 0x4EBB JUMP JUMPDEST PUSH1 0x1 PUSH1 0x0 DUP3 DUP2 MSTORE PUSH1 0x20 ADD SWAP1 DUP2 MSTORE PUSH1 0x20 ADD PUSH1 0x0 KECCAK256 PUSH1 0x0 DUP1 DUP3 ADD PUSH1 0x0 SWAP1 SSTORE PUSH1 0x1 DUP3 ADD PUSH1 0x0 PUSH2 0x4D4B SWAP2 SWAP1 PUSH2 0x5A4C JUMP JUMPDEST PUSH1 0x2 DUP3 ADD PUSH1 0x0 PUSH2 0x4D5B SWAP2 SWAP1 PUSH2 0x5A4C JUMP JUMPDEST PUSH1 0x3 DUP3 ADD PUSH1 0x0 SWAP1 SSTORE POP POP PUSH2 0x4D79 PUSH8 0x5AC7E0755718F338 PUSH1 0xC0 SHL PUSH2 0x4EBB JUMP JUMPDEST PUSH2 0x4D8D PUSH8 0x404365A798C3BEE PUSH1 0xC0 SHL PUSH2 0x4EBB JUMP JUMPDEST PUSH32 0x34DE6B871245ED0A89B82912E8E5EE6D9C3104B3E5BB1D67A71AD7E68239E41C DUP2 PUSH1 0x40 MLOAD PUSH2 0x4DBC SWAP2 SWAP1 PUSH2 0x6493 JUMP JUMPDEST PUSH1 0x40 MLOAD DUP1 SWAP2 SUB SWAP1 LOG1 POP JUMP JUMPDEST PUSH2 0x4DD8 DUP2 PUSH2 0x4DD3 PUSH2 0x572E JUMP JUMPDEST PUSH2 0x5736 JUMP JUMPDEST POP JUMP JUMPDEST PUSH2 0x4DE5 DUP3 DUP3 PUSH2 0x26DA JUMP JUMPDEST PUSH2 0x4EB7 JUMPI PUSH1 0x1 PUSH1 0x0 DUP1 DUP5 DUP2 MSTORE PUSH1 0x20 ADD SWAP1 DUP2 MSTORE PUSH1 0x20 ADD PUSH1 0x0 KECCAK256 PUSH1 0x0 ADD PUSH1 0x0 DUP4 PUSH20 0xFFFFFFFFFFFFFFFFFFFFFFFFFFFFFFFFFFFFFFFF AND PUSH20 0xFFFFFFFFFFFFFFFFFFFFFFFFFFFFFFFFFFFFFFFF AND DUP2 MSTORE PUSH1 0x20 ADD SWAP1 DUP2 MSTORE PUSH1 0x20 ADD PUSH1 0x0 KECCAK256 PUSH1 0x0 PUSH2 0x100 EXP DUP2 SLOAD DUP2 PUSH1 0xFF MUL NOT AND SWAP1 DUP4 ISZERO ISZERO MUL OR SWAP1 SSTORE POP PUSH2 0x4E5C PUSH2 0x572E JUMP JUMPDEST PUSH20 0xFFFFFFFFFFFFFFFFFFFFFFFFFFFFFFFFFFFFFFFF AND DUP2 PUSH20 0xFFFFFFFFFFFFFFFFFFFFFFFFFFFFFFFFFFFFFFFF AND DUP4 PUSH32 0x2F8788117E7EFF1D82E926EC794901D17C78024A50270940304540A733656F0D PUSH1 0x40 MLOAD PUSH1 0x40 MLOAD DUP1 SWAP2 SUB SWAP1 LOG4 JUMPDEST POP POP JUMP JUMPDEST POP JUMP JUMPDEST PUSH2 0x4ED2 PUSH8 0x2197159AD936E066 PUSH1 0xC0 SHL PUSH2 0x4EBB JUMP JUMPDEST PUSH2 0x4EE6 PUSH8 0x10506AF5EB8DBD93 PUSH1 0xC0 SHL PUSH2 0x4EBB JUMP JUMPDEST PUSH1 0x40 MLOAD DUP1 PUSH1 0x80 ADD PUSH1 0x40 MSTORE DUP1 DUP6 DUP2 MSTORE PUSH1 0x20 ADD DUP5 DUP2 MSTORE PUSH1 0x20 ADD DUP4 DUP2 MSTORE PUSH1 0x20 ADD DUP3 DUP2 MSTORE POP PUSH1 0x1 PUSH1 0x0 DUP7 DUP2 MSTORE PUSH1 0x20 ADD SWAP1 DUP2 MSTORE PUSH1 0x20 ADD PUSH1 0x0 KECCAK256 PUSH1 0x0 DUP3 ADD MLOAD DUP2 PUSH1 0x0 ADD SSTORE PUSH1 0x20 DUP3 ADD MLOAD DUP2 PUSH1 0x1 ADD SWAP1 DUP2 PUSH2 0x4F39 SWAP2 SWAP1 PUSH2 0x786B JUMP JUMPDEST POP PUSH1 0x40 DUP3 ADD MLOAD DUP2 PUSH1 0x2 ADD SWAP1 DUP2 PUSH2 0x4F4F SWAP2 SWAP1 PUSH2 0x786B JUMP JUMPDEST POP PUSH1 0x60 DUP3 ADD MLOAD DUP2 PUSH1 0x3 ADD SSTORE SWAP1 POP POP PUSH2 0x4F71 PUSH8 0x479521140D75F960 PUSH1 0xC0 SHL PUSH2 0x4EBB JUMP JUMPDEST PUSH2 0x4F85 PUSH8 0x4A0ABBDD4BFB40F3 PUSH1 0xC0 SHL PUSH2 0x4EBB JUMP JUMPDEST PUSH32 0xB6767D1C89515962142B00B5577569C92A74381D9441A528911C66E0C3CEA1F8 DUP5 DUP5 DUP5 DUP5 PUSH1 0x40 MLOAD PUSH2 0x4FBA SWAP5 SWAP4 SWAP3 SWAP2 SWAP1 PUSH2 0x5CE6 JUMP JUMPDEST PUSH1 0x40 MLOAD DUP1 SWAP2 SUB SWAP1 LOG1 POP POP POP POP JUMP JUMPDEST PUSH2 0x4FDC PUSH8 0x248DCA5C34FF865B PUSH1 0xC0 SHL PUSH2 0x45C9 JUMP JUMPDEST PUSH2 0x4FF0 PUSH8 0x52D84047F7EC1FD8 PUSH1 0xC0 SHL PUSH2 0x45C9 JUMP JUMPDEST PUSH1 0x40 MLOAD DUP1 PUSH1 0xC0 ADD PUSH1 0x40 MSTORE DUP1 DUP5 PUSH1 0x3 DUP2 GT ISZERO PUSH2 0x500E JUMPI PUSH2 0x500D PUSH2 0x602D JUMP JUMPDEST JUMPDEST DUP2 MSTORE PUSH1 0x20 ADD DUP4 PUSH1 0x2 DUP2 GT ISZERO PUSH2 0x5026 JUMPI PUSH2 0x5025 PUSH2 0x602D JUMP JUMPDEST JUMPDEST DUP2 MSTORE PUSH1 0x20 ADD DUP3 PUSH1 0xF DUP2 GT ISZERO PUSH2 0x503E JUMPI PUSH2 0x503D PUSH2 0x602D JUMP JUMPDEST JUMPDEST DUP2 MSTORE PUSH1 0x20 ADD TIMESTAMP DUP2 MSTORE PUSH1 0x20 ADD PUSH1 0x1 ISZERO ISZERO DUP2 MSTORE PUSH1 0x20 ADD DUP6 DUP2 MSTORE POP PUSH1 0x6 PUSH1 0x0 DUP7 DUP7 DUP7 DUP7 PUSH1 0x40 MLOAD PUSH1 0x20 ADD PUSH2 0x5071 SWAP5 SWAP4 SWAP3 SWAP2 SWAP1 PUSH2 0x6E02 JUMP JUMPDEST PUSH1 0x40 MLOAD PUSH1 0x20 DUP2 DUP4 SUB SUB DUP2 MSTORE SWAP1 PUSH1 0x40 MSTORE DUP1 MLOAD SWAP1 PUSH1 0x20 ADD KECCAK256 DUP2 MSTORE PUSH1 0x20 ADD SWAP1 DUP2 MSTORE PUSH1 0x20 ADD PUSH1 0x0 KECCAK256 PUSH1 0x0 DUP3 ADD MLOAD DUP2 PUSH1 0x0 ADD PUSH1 0x0 PUSH2 0x100 EXP DUP2 SLOAD DUP2 PUSH1 0xFF MUL NOT AND SWAP1 DUP4 PUSH1 0x3 DUP2 GT ISZERO PUSH2 0x50C0 JUMPI PUSH2 0x50BF PUSH2 0x602D JUMP JUMPDEST JUMPDEST MUL OR SWAP1 SSTORE POP PUSH1 0x20 DUP3 ADD MLOAD DUP2 PUSH1 0x0 ADD PUSH1 0x1 PUSH2 0x100 EXP DUP2 SLOAD DUP2 PUSH1 0xFF MUL NOT AND SWAP1 DUP4 PUSH1 0x2 DUP2 GT ISZERO PUSH2 0x50F0 JUMPI PUSH2 0x50EF PUSH2 0x602D JUMP JUMPDEST JUMPDEST MUL OR SWAP1 SSTORE POP PUSH1 0x40 DUP3 ADD MLOAD DUP2 PUSH1 0x0 ADD PUSH1 0x2 PUSH2 0x100 EXP DUP2 SLOAD DUP2 PUSH1 0xFF MUL NOT AND SWAP1 DUP4 PUSH1 0xF DUP2 GT ISZERO PUSH2 0x5120 JUMPI PUSH2 0x511F PUSH2 0x602D JUMP JUMPDEST JUMPDEST MUL OR SWAP1 SSTORE POP PUSH1 0x60 DUP3 ADD MLOAD DUP2 PUSH1 0x1 ADD SSTORE PUSH1 0x80 DUP3 ADD MLOAD DUP2 PUSH1 0x2 ADD PUSH1 0x0 PUSH2 0x100 EXP DUP2 SLOAD DUP2 PUSH1 0xFF MUL NOT AND SWAP1 DUP4 ISZERO ISZERO MUL OR SWAP1 SSTORE POP PUSH1 0xA0 DUP3 ADD MLOAD DUP2 PUSH1 0x3 ADD SSTORE SWAP1 POP POP PUSH2 0x5170 PUSH8 0xAE030A65C15F8755 PUSH1 0xC0 SHL PUSH2 0x45C9 JUMP JUMPDEST PUSH2 0x5184 PUSH8 0x4DBD682BD4FC3106 PUSH1 0xC0 SHL PUSH2 0x45C9 JUMP JUMPDEST PUSH32 0xB55811DD01470A227956304B027C610C7CDF9DD622DCC47791380261D56DC6ED DUP5 DUP5 DUP5 DUP5 PUSH1 0x40 MLOAD PUSH2 0x51B9 SWAP5 SWAP4 SWAP3 SWAP2 SWAP1 PUSH2 0x7A99 JUMP JUMPDEST PUSH1 0x40 MLOAD DUP1 SWAP2 SUB SWAP1 LOG1 POP POP POP POP JUMP JUMPDEST POP JUMP JUMPDEST PUSH2 0x51DE PUSH8 0x8F52EF164F305571 PUSH1 0xC0 SHL PUSH2 0x4EBB JUMP JUMPDEST PUSH2 0x51F2 PUSH8 0x96E591CC4057D141 PUSH1 0xC0 SHL PUSH2 0x4EBB JUMP JUMPDEST PUSH2 0x5206 PUSH8 0x8507B1A7ED5D4AF PUSH1 0xC0 SHL PUSH2 0x4EBB JUMP JUMPDEST PUSH2 0x521A PUSH8 0x559F3E42497B2325 PUSH1 0xC0 SHL PUSH2 0x4EBB JUMP JUMPDEST PUSH1 0x0 PUSH1 0x1 PUSH1 0x0 DUP7 DUP2 MSTORE PUSH1 0x20 ADD SWAP1 DUP2 MSTORE PUSH1 0x20 ADD PUSH1 0x0 KECCAK256 PUSH1 0x0 ADD SLOAD SUB PUSH2 0x5273 JUMPI PUSH1 0x40 MLOAD PUSH32 0x8C379A000000000000000000000000000000000000000000000000000000000 DUP2 MSTORE PUSH1 0x4 ADD PUSH2 0x526A SWAP1 PUSH2 0x7B2A JUMP JUMPDEST PUSH1 0x40 MLOAD DUP1 SWAP2 SUB SWAP1 REVERT JUMPDEST PUSH2 0x5287 PUSH8 0x28097C31405AE1F3 PUSH1 0xC0 SHL PUSH2 0x4EBB JUMP JUMPDEST PUSH2 0x529B PUSH8 0x3C7B5FE1417D860B PUSH1 0xC0 SHL PUSH2 0x4EBB JUMP JUMPDEST PUSH2 0x52AF PUSH8 0xC98D308DD86A644B PUSH1 0xC0 SHL PUSH2 0x4EBB JUMP JUMPDEST PUSH1 0x1 PUSH1 0x0 DUP6 DUP2 MSTORE PUSH1 0x20 ADD SWAP1 DUP2 MSTORE PUSH1 0x20 ADD PUSH1 0x0 KECCAK256 PUSH1 0x1 ADD PUSH1 0x40 MLOAD PUSH1 0x20 ADD PUSH2 0x52D5 SWAP2 SWAP1 PUSH2 0x7BCD JUMP JUMPDEST PUSH1 0x40 MLOAD PUSH1 0x20 DUP2 DUP4 SUB SUB DUP2 MSTORE SWAP1 PUSH1 0x40 MSTORE DUP1 MLOAD SWAP1 PUSH1 0x20 ADD KECCAK256 DUP4 PUSH1 0x40 MLOAD PUSH1 0x20 ADD PUSH2 0x52FC SWAP2 SWAP1 PUSH2 0x7BE4 JUMP JUMPDEST PUSH1 0x40 MLOAD PUSH1 0x20 DUP2 DUP4 SUB SUB DUP2 MSTORE SWAP1 PUSH1 0x40 MSTORE DUP1 MLOAD SWAP1 PUSH1 0x20 ADD KECCAK256 EQ ISZERO DUP1 ISZERO PUSH2 0x536A JUMPI POP PUSH1 0x40 MLOAD PUSH1 0x20 ADD PUSH2 0x532A SWAP1 PUSH2 0x7C21 JUMP JUMPDEST PUSH1 0x40 MLOAD PUSH1 0x20 DUP2 DUP4 SUB SUB DUP2 MSTORE SWAP1 PUSH1 0x40 MSTORE DUP1 MLOAD SWAP1 PUSH1 0x20 ADD KECCAK256 DUP4 PUSH1 0x40 MLOAD PUSH1 0x20 ADD PUSH2 0x5351 SWAP2 SWAP1 PUSH2 0x7BE4 JUMP JUMPDEST PUSH1 0x40 MLOAD PUSH1 0x20 DUP2 DUP4 SUB SUB DUP2 MSTORE SWAP1 PUSH1 0x40 MSTORE DUP1 MLOAD SWAP1 PUSH1 0x20 ADD KECCAK256 EQ ISZERO JUMPDEST ISZERO PUSH2 0x53C0 JUMPI PUSH2 0x5383 PUSH8 0x8571E9A913979A01 PUSH1 0xC0 SHL PUSH2 0x4EBB JUMP JUMPDEST PUSH2 0x5397 PUSH8 0xD9F02E438EEB9BDB PUSH1 0xC0 SHL PUSH2 0x4EBB JUMP JUMPDEST DUP3 PUSH1 0x1 PUSH1 0x0 DUP7 DUP2 MSTORE PUSH1 0x20 ADD SWAP1 DUP2 MSTORE PUSH1 0x20 ADD PUSH1 0x0 KECCAK256 PUSH1 0x1 ADD SWAP1 DUP2 PUSH2 0x53BA SWAP2 SWAP1 PUSH2 0x786B JUMP JUMPDEST POP PUSH2 0x53D5 JUMP JUMPDEST PUSH2 0x53D4 PUSH8 0xFC1CCF2C3E5A43D PUSH1 0xC0 SHL PUSH2 0x4EBB JUMP JUMPDEST JUMPDEST PUSH2 0x53E9 PUSH8 0x120CA5C9CEBEBFB8 PUSH1 0xC0 SHL PUSH2 0x4EBB JUMP JUMPDEST PUSH2 0x53FD PUSH8 0x2CA296637AA2CA04 PUSH1 0xC0 SHL PUSH2 0x4EBB JUMP JUMPDEST PUSH1 0x1 PUSH1 0x0 DUP6 DUP2 MSTORE PUSH1 0x20 ADD SWAP1 DUP2 MSTORE PUSH1 0x20 ADD PUSH1 0x0 KECCAK256 PUSH1 0x2 ADD PUSH1 0x40 MLOAD PUSH1 0x20 ADD PUSH2 0x5423 SWAP2 SWAP1 PUSH2 0x7BCD JUMP JUMPDEST PUSH1 0x40 MLOAD PUSH1 0x20 DUP2 DUP4 SUB SUB DUP2 MSTORE SWAP1 PUSH1 0x40 MSTORE DUP1 MLOAD SWAP1 PUSH1 0x20 ADD KECCAK256 DUP3 PUSH1 0x40 MLOAD PUSH1 0x20 ADD PUSH2 0x544A SWAP2 SWAP1 PUSH2 0x7BE4 JUMP JUMPDEST PUSH1 0x40 MLOAD PUSH1 0x20 DUP2 DUP4 SUB SUB DUP2 MSTORE SWAP1 PUSH1 0x40 MSTORE DUP1 MLOAD SWAP1 PUSH1 0x20 ADD KECCAK256 EQ ISZERO DUP1 ISZERO PUSH2 0x54B8 JUMPI POP PUSH1 0x40 MLOAD PUSH1 0x20 ADD PUSH2 0x5478 SWAP1 PUSH2 0x7C21 JUMP JUMPDEST PUSH1 0x40 MLOAD PUSH1 0x20 DUP2 DUP4 SUB SUB DUP2 MSTORE SWAP1 PUSH1 0x40 MSTORE DUP1 MLOAD SWAP1 PUSH1 0x20 ADD KECCAK256 DUP3 PUSH1 0x40 MLOAD PUSH1 0x20 ADD PUSH2 0x549F SWAP2 SWAP1 PUSH2 0x7BE4 JUMP JUMPDEST PUSH1 0x40 MLOAD PUSH1 0x20 DUP2 DUP4 SUB SUB DUP2 MSTORE SWAP1 PUSH1 0x40 MSTORE DUP1 MLOAD SWAP1 PUSH1 0x20 ADD KECCAK256 EQ ISZERO JUMPDEST ISZERO PUSH2 0x550E JUMPI PUSH2 0x54D1 PUSH8 0x6578DFBDE5BCA096 PUSH1 0xC0 SHL PUSH2 0x4EBB JUMP JUMPDEST PUSH2 0x54E5 PUSH8 0x8D1D7F67BC5E9365 PUSH1 0xC0 SHL PUSH2 0x4EBB JUMP JUMPDEST DUP2 PUSH1 0x1 PUSH1 0x0 DUP7 DUP2 MSTORE PUSH1 0x20 ADD SWAP1 DUP2 MSTORE PUSH1 0x20 ADD PUSH1 0x0 KECCAK256 PUSH1 0x2 ADD SWAP1 DUP2 PUSH2 0x5508 SWAP2 SWAP1 PUSH2 0x786B JUMP JUMPDEST POP PUSH2 0x5523 JUMP JUMPDEST PUSH2 0x5522 PUSH8 0x2D3EF2662851587C PUSH1 0xC0 SHL PUSH2 0x4EBB JUMP JUMPDEST JUMPDEST PUSH2 0x5537 PUSH8 0x67FB5D25C227C3EC PUSH1 0xC0 SHL PUSH2 0x4EBB JUMP JUMPDEST PUSH2 0x554B PUSH8 0x43E5FEEB12991725 PUSH1 0xC0 SHL PUSH2 0x4EBB JUMP JUMPDEST PUSH1 0x1 PUSH1 0x0 DUP6 DUP2 MSTORE PUSH1 0x20 ADD SWAP1 DUP2 MSTORE PUSH1 0x20 ADD PUSH1 0x0 KECCAK256 PUSH1 0x3 ADD SLOAD DUP2 EQ ISZERO DUP1 ISZERO PUSH2 0x5572 JUMPI POP PUSH1 0x0 DUP2 EQ ISZERO JUMPDEST ISZERO PUSH2 0x55BF JUMPI PUSH2 0x558B PUSH8 0xD26D79B8805F3906 PUSH1 0xC0 SHL PUSH2 0x4EBB JUMP JUMPDEST PUSH2 0x559F PUSH8 0xEE045ADE4A472CB7 PUSH1 0xC0 SHL PUSH2 0x4EBB JUMP JUMPDEST DUP1 PUSH1 0x1 PUSH1 0x0 DUP7 DUP2 MSTORE PUSH1 0x20 ADD SWAP1 DUP2 MSTORE PUSH1 0x20 ADD PUSH1 0x0 KECCAK256 PUSH1 0x3 ADD DUP2 SWAP1 SSTORE POP PUSH2 0x55D4 JUMP JUMPDEST PUSH2 0x55D3 PUSH8 0xFCC4096A20E6949F PUSH1 0xC0 SHL PUSH2 0x4EBB JUMP JUMPDEST JUMPDEST PUSH2 0x55E8 PUSH8 0x7A3BF015895A932E PUSH1 0xC0 SHL PUSH2 0x4EBB JUMP JUMPDEST PUSH2 0x55FC PUSH8 0x25D22F3BC4F6E9BB PUSH1 0xC0 SHL PUSH2 0x4EBB JUMP JUMPDEST PUSH32 0x3E10A3F40E9AF2A5E61CB5A3DE55FD67286470C35B3CF345B04A83CF3F49077 DUP5 DUP5 DUP5 DUP5 PUSH1 0x40 MLOAD PUSH2 0x5631 SWAP5 SWAP4 SWAP3 SWAP2 SWAP1 PUSH2 0x5CE6 JUMP JUMPDEST PUSH1 0x40 MLOAD DUP1 SWAP2 SUB SWAP1 LOG1 POP POP POP POP JUMP JUMPDEST PUSH1 0x0 PUSH1 0x1 SWAP1 POP SWAP2 SWAP1 POP JUMP JUMPDEST PUSH2 0x5654 DUP3 DUP3 PUSH2 0x26DA JUMP JUMPDEST ISZERO PUSH2 0x5727 JUMPI PUSH1 0x0 DUP1 PUSH1 0x0 DUP5 DUP2 MSTORE PUSH1 0x20 ADD SWAP1 DUP2 MSTORE PUSH1 0x20 ADD PUSH1 0x0 KECCAK256 PUSH1 0x0 ADD PUSH1 0x0 DUP4 PUSH20 0xFFFFFFFFFFFFFFFFFFFFFFFFFFFFFFFFFFFFFFFF AND PUSH20 0xFFFFFFFFFFFFFFFFFFFFFFFFFFFFFFFFFFFFFFFF AND DUP2 MSTORE PUSH1 0x20 ADD SWAP1 DUP2 MSTORE PUSH1 0x20 ADD PUSH1 0x0 KECCAK256 PUSH1 0x0 PUSH2 0x100 EXP DUP2 SLOAD DUP2 PUSH1 0xFF MUL NOT AND SWAP1 DUP4 ISZERO ISZERO MUL OR SWAP1 SSTORE POP PUSH2 0x56CC PUSH2 0x572E JUMP JUMPDEST PUSH20 0xFFFFFFFFFFFFFFFFFFFFFFFFFFFFFFFFFFFFFFFF AND DUP2 PUSH20 0xFFFFFFFFFFFFFFFFFFFFFFFFFFFFFFFFFFFFFFFF AND DUP4 PUSH32 0xF6391F5C32D9C69D2A47EA670B442974B53935D1EDC7FD64EB21E047A839171B PUSH1 0x40 MLOAD PUSH1 0x40 MLOAD DUP1 SWAP2 SUB SWAP1 LOG4 JUMPDEST POP POP JUMP JUMPDEST POP JUMP JUMPDEST PUSH1 0x0 CALLER SWAP1 POP SWAP1 JUMP JUMPDEST PUSH2 0x5740 DUP3 DUP3 PUSH2 0x26DA JUMP JUMPDEST PUSH2 0x57B7 JUMPI PUSH2 0x574D DUP2 PUSH2 0x57BB JUMP JUMPDEST PUSH2 0x575B DUP4 PUSH1 0x0 SHR PUSH1 0x20 PUSH2 0x57E8 JUMP JUMPDEST PUSH1 0x40 MLOAD PUSH1 0x20 ADD PUSH2 0x576C SWAP3 SWAP2 SWAP1 PUSH2 0x7CCE JUMP JUMPDEST PUSH1 0x40 MLOAD PUSH1 0x20 DUP2 DUP4 SUB SUB DUP2 MSTORE SWAP1 PUSH1 0x40 MSTORE PUSH1 0x40 MLOAD PUSH32 0x8C379A000000000000000000000000000000000000000000000000000000000 DUP2 MSTORE PUSH1 0x4 ADD PUSH2 0x57AE SWAP2 SWAP1 PUSH2 0x69BF JUMP JUMPDEST PUSH1 0x40 MLOAD DUP1 SWAP2 SUB SWAP1 REVERT JUMPDEST POP POP JUMP JUMPDEST PUSH1 0x60 PUSH2 0x57E1 DUP3 PUSH20 0xFFFFFFFFFFFFFFFFFFFFFFFFFFFFFFFFFFFFFFFF AND PUSH1 0x14 PUSH1 0xFF AND PUSH2 0x57E8 JUMP JUMPDEST SWAP1 POP SWAP2 SWAP1 POP JUMP JUMPDEST PUSH1 0x60 PUSH1 0x0 PUSH1 0x2 DUP4 PUSH1 0x2 PUSH2 0x57FB SWAP2 SWAP1 PUSH2 0x7D08 JUMP JUMPDEST PUSH2 0x5805 SWAP2 SWAP1 PUSH2 0x7444 JUMP JUMPDEST PUSH8 0xFFFFFFFFFFFFFFFF DUP2 GT ISZERO PUSH2 0x581E JUMPI PUSH2 0x581D PUSH2 0x6289 JUMP JUMPDEST JUMPDEST PUSH1 0x40 MLOAD SWAP1 DUP1 DUP3 MSTORE DUP1 PUSH1 0x1F ADD PUSH1 0x1F NOT AND PUSH1 0x20 ADD DUP3 ADD PUSH1 0x40 MSTORE DUP1 ISZERO PUSH2 0x5850 JUMPI DUP2 PUSH1 0x20 ADD PUSH1 0x1 DUP3 MUL DUP1 CALLDATASIZE DUP4 CALLDATACOPY DUP1 DUP3 ADD SWAP2 POP POP SWAP1 POP JUMPDEST POP SWAP1 POP PUSH32 0x3000000000000000000000000000000000000000000000000000000000000000 DUP2 PUSH1 0x0 DUP2 MLOAD DUP2 LT PUSH2 0x5888 JUMPI PUSH2 0x5887 PUSH2 0x7D4A JUMP JUMPDEST JUMPDEST PUSH1 0x20 ADD ADD SWAP1 PUSH31 0xFFFFFFFFFFFFFFFFFFFFFFFFFFFFFFFFFFFFFFFFFFFFFFFFFFFFFFFFFFFFFF NOT AND SWAP1 DUP2 PUSH1 0x0 BYTE SWAP1 MSTORE8 POP PUSH32 0x7800000000000000000000000000000000000000000000000000000000000000 DUP2 PUSH1 0x1 DUP2 MLOAD DUP2 LT PUSH2 0x58EC JUMPI PUSH2 0x58EB PUSH2 0x7D4A JUMP JUMPDEST JUMPDEST PUSH1 0x20 ADD ADD SWAP1 PUSH31 0xFFFFFFFFFFFFFFFFFFFFFFFFFFFFFFFFFFFFFFFFFFFFFFFFFFFFFFFFFFFFFF NOT AND SWAP1 DUP2 PUSH1 0x0 BYTE SWAP1 MSTORE8 POP PUSH1 0x0 PUSH1 0x1 DUP5 PUSH1 0x2 PUSH2 0x592C SWAP2 SWAP1 PUSH2 0x7D08 JUMP JUMPDEST PUSH2 0x5936 SWAP2 SWAP1 PUSH2 0x7444 JUMP JUMPDEST SWAP1 POP JUMPDEST PUSH1 0x1 DUP2 GT ISZERO PUSH2 0x59D6 JUMPI PUSH32 0x3031323334353637383961626364656600000000000000000000000000000000 PUSH1 0xF DUP7 AND PUSH1 0x10 DUP2 LT PUSH2 0x5978 JUMPI PUSH2 0x5977 PUSH2 0x7D4A JUMP JUMPDEST JUMPDEST BYTE PUSH1 0xF8 SHL DUP3 DUP3 DUP2 MLOAD DUP2 LT PUSH2 0x598F JUMPI PUSH2 0x598E PUSH2 0x7D4A JUMP JUMPDEST JUMPDEST PUSH1 0x20 ADD ADD SWAP1 PUSH31 0xFFFFFFFFFFFFFFFFFFFFFFFFFFFFFFFFFFFFFFFFFFFFFFFFFFFFFFFFFFFFFF NOT AND SWAP1 DUP2 PUSH1 0x0 BYTE SWAP1 MSTORE8 POP PUSH1 0x4 DUP6 SWAP1 SHR SWAP5 POP DUP1 PUSH2 0x59CF SWAP1 PUSH2 0x7D79 JUMP JUMPDEST SWAP1 POP PUSH2 0x5939 JUMP JUMPDEST POP PUSH1 0x0 DUP5 EQ PUSH2 0x5A1A JUMPI PUSH1 0x40 MLOAD PUSH32 0x8C379A000000000000000000000000000000000000000000000000000000000 DUP2 MSTORE PUSH1 0x4 ADD PUSH2 0x5A11 SWAP1 PUSH2 0x7DEE JUMP JUMPDEST PUSH1 0x40 MLOAD DUP1 SWAP2 SUB SWAP1 REVERT JUMPDEST DUP1 SWAP2 POP POP SWAP3 SWAP2 POP POP JUMP JUMPDEST PUSH1 0x40 MLOAD DUP1 PUSH1 0x80 ADD PUSH1 0x40 MSTORE DUP1 PUSH1 0x0 DUP2 MSTORE PUSH1 0x20 ADD PUSH1 0x60 DUP2 MSTORE PUSH1 0x20 ADD PUSH1 0x60 DUP2 MSTORE PUSH1 0x20 ADD PUSH1 0x0 DUP2 MSTORE POP SWAP1 JUMP JUMPDEST POP DUP1 SLOAD PUSH2 0x5A58 SWAP1 PUSH2 0x67D3 JUMP JUMPDEST PUSH1 0x0 DUP3 SSTORE DUP1 PUSH1 0x1F LT PUSH2 0x5A6A JUMPI POP PUSH2 0x5A89 JUMP JUMPDEST PUSH1 0x1F ADD PUSH1 0x20 SWAP1 DIV SWAP1 PUSH1 0x0 MSTORE PUSH1 0x20 PUSH1 0x0 KECCAK256 SWAP1 DUP2 ADD SWAP1 PUSH2 0x5A88 SWAP2 SWAP1 PUSH2 0x5A8C JUMP JUMPDEST JUMPDEST POP JUMP JUMPDEST JUMPDEST DUP1 DUP3 GT ISZERO PUSH2 0x5AA5 JUMPI PUSH1 0x0 DUP2 PUSH1 0x0 SWAP1 SSTORE POP PUSH1 0x1 ADD PUSH2 0x5A8D JUMP JUMPDEST POP SWAP1 JUMP JUMPDEST PUSH1 0x0 PUSH1 0x40 MLOAD SWAP1 POP SWAP1 JUMP JUMPDEST PUSH1 0x0 DUP1 REVERT JUMPDEST PUSH1 0x0 DUP1 REVERT JUMPDEST PUSH1 0x0 PUSH32 0xFFFFFFFF00000000000000000000000000000000000000000000000000000000 DUP3 AND SWAP1 POP SWAP2 SWAP1 POP JUMP JUMPDEST PUSH2 0x5AF2 DUP2 PUSH2 0x5ABD JUMP JUMPDEST DUP2 EQ PUSH2 0x5AFD JUMPI PUSH1 0x0 DUP1 REVERT JUMPDEST POP JUMP JUMPDEST PUSH1 0x0 DUP2 CALLDATALOAD SWAP1 POP PUSH2 0x5B0F DUP2 PUSH2 0x5AE9 JUMP JUMPDEST SWAP3 SWAP2 POP POP JUMP JUMPDEST PUSH1 0x0 PUSH1 0x20 DUP3 DUP5 SUB SLT ISZERO PUSH2 0x5B2B JUMPI PUSH2 0x5B2A PUSH2 0x5AB3 JUMP JUMPDEST JUMPDEST PUSH1 0x0 PUSH2 0x5B39 DUP5 DUP3 DUP6 ADD PUSH2 0x5B00 JUMP JUMPDEST SWAP2 POP POP SWAP3 SWAP2 POP POP JUMP JUMPDEST PUSH1 0x0 DUP2 ISZERO ISZERO SWAP1 POP SWAP2 SWAP1 POP JUMP JUMPDEST PUSH2 0x5B57 DUP2 PUSH2 0x5B42 JUMP JUMPDEST DUP3 MSTORE POP POP JUMP JUMPDEST PUSH1 0x0 PUSH1 0x20 DUP3 ADD SWAP1 POP PUSH2 0x5B72 PUSH1 0x0 DUP4 ADD DUP5 PUSH2 0x5B4E JUMP JUMPDEST SWAP3 SWAP2 POP POP JUMP JUMPDEST PUSH1 0x0 DUP2 SWAP1 POP SWAP2 SWAP1 POP JUMP JUMPDEST PUSH2 0x5B8B DUP2 PUSH2 0x5B78 JUMP JUMPDEST DUP2 EQ PUSH2 0x5B96 JUMPI PUSH1 0x0 DUP1 REVERT JUMPDEST POP JUMP JUMPDEST PUSH1 0x0 DUP2 CALLDATALOAD SWAP1 POP PUSH2 0x5BA8 DUP2 PUSH2 0x5B82 JUMP JUMPDEST SWAP3 SWAP2 POP POP JUMP JUMPDEST PUSH2 0x5BB7 DUP2 PUSH2 0x5B42 JUMP JUMPDEST DUP2 EQ PUSH2 0x5BC2 JUMPI PUSH1 0x0 DUP1 REVERT JUMPDEST POP JUMP JUMPDEST PUSH1 0x0 DUP2 CALLDATALOAD SWAP1 POP PUSH2 0x5BD4 DUP2 PUSH2 0x5BAE JUMP JUMPDEST SWAP3 SWAP2 POP POP JUMP JUMPDEST PUSH1 0x0 DUP1 PUSH1 0x40 DUP4 DUP6 SUB SLT ISZERO PUSH2 0x5BF1 JUMPI PUSH2 0x5BF0 PUSH2 0x5AB3 JUMP JUMPDEST JUMPDEST PUSH1 0x0 PUSH2 0x5BFF DUP6 DUP3 DUP7 ADD PUSH2 0x5B99 JUMP JUMPDEST SWAP3 POP POP PUSH1 0x20 PUSH2 0x5C10 DUP6 DUP3 DUP7 ADD PUSH2 0x5BC5 JUMP JUMPDEST SWAP2 POP POP SWAP3 POP SWAP3 SWAP1 POP JUMP JUMPDEST PUSH1 0x0 PUSH1 0x20 DUP3 DUP5 SUB SLT ISZERO PUSH2 0x5C30 JUMPI PUSH2 0x5C2F PUSH2 0x5AB3 JUMP JUMPDEST JUMPDEST PUSH1 0x0 PUSH2 0x5C3E DUP5 DUP3 DUP6 ADD PUSH2 0x5B99 JUMP JUMPDEST SWAP2 POP POP SWAP3 SWAP2 POP POP JUMP JUMPDEST PUSH2 0x5C50 DUP2 PUSH2 0x5B78 JUMP JUMPDEST DUP3 MSTORE POP POP JUMP JUMPDEST PUSH1 0x0 DUP2 MLOAD SWAP1 POP SWAP2 SWAP1 POP JUMP JUMPDEST PUSH1 0x0 DUP3 DUP3 MSTORE PUSH1 0x20 DUP3 ADD SWAP1 POP SWAP3 SWAP2 POP POP JUMP JUMPDEST PUSH1 0x0 JUMPDEST DUP4 DUP2 LT ISZERO PUSH2 0x5C90 JUMPI DUP1 DUP3 ADD MLOAD DUP2 DUP5 ADD MSTORE PUSH1 0x20 DUP2 ADD SWAP1 POP PUSH2 0x5C75 JUMP JUMPDEST PUSH1 0x0 DUP5 DUP5 ADD MSTORE POP POP POP POP JUMP JUMPDEST PUSH1 0x0 PUSH1 0x1F NOT PUSH1 0x1F DUP4 ADD AND SWAP1 POP SWAP2 SWAP1 POP JUMP JUMPDEST PUSH1 0x0 PUSH2 0x5CB8 DUP3 PUSH2 0x5C56 JUMP JUMPDEST PUSH2 0x5CC2 DUP2 DUP6 PUSH2 0x5C61 JUMP JUMPDEST SWAP4 POP PUSH2 0x5CD2 DUP2 DUP6 PUSH1 0x20 DUP7 ADD PUSH2 0x5C72 JUMP JUMPDEST PUSH2 0x5CDB DUP2 PUSH2 0x5C9C JUMP JUMPDEST DUP5 ADD SWAP2 POP POP SWAP3 SWAP2 POP POP JUMP JUMPDEST PUSH1 0x0 PUSH1 0x80 DUP3 ADD SWAP1 POP PUSH2 0x5CFB PUSH1 0x0 DUP4 ADD DUP8 PUSH2 0x5C47 JUMP JUMPDEST DUP2 DUP2 SUB PUSH1 0x20 DUP4 ADD MSTORE PUSH2 0x5D0D DUP2 DUP7 PUSH2 0x5CAD JUMP JUMPDEST SWAP1 POP DUP2 DUP2 SUB PUSH1 0x40 DUP4 ADD MSTORE PUSH2 0x5D21 DUP2 DUP6 PUSH2 0x5CAD JUMP JUMPDEST SWAP1 POP PUSH2 0x5D30 PUSH1 0x60 DUP4 ADD DUP5 PUSH2 0x5C47 JUMP JUMPDEST SWAP6 SWAP5 POP POP POP POP POP JUMP JUMPDEST PUSH1 0x0 PUSH1 0xFF DUP3 AND SWAP1 POP SWAP2 SWAP1 POP JUMP JUMPDEST PUSH2 0x5D4F DUP2 PUSH2 0x5D39 JUMP JUMPDEST DUP3 MSTORE POP POP JUMP JUMPDEST PUSH1 0x0 PUSH1 0x20 DUP3 ADD SWAP1 POP PUSH2 0x5D6A PUSH1 0x0 DUP4 ADD DUP5 PUSH2 0x5D46 JUMP JUMPDEST SWAP3 SWAP2 POP POP JUMP JUMPDEST PUSH1 0x0 DUP2 SWAP1 POP SWAP2 SWAP1 POP JUMP JUMPDEST PUSH2 0x5D83 DUP2 PUSH2 0x5D70 JUMP JUMPDEST DUP2 EQ PUSH2 0x5D8E JUMPI PUSH1 0x0 DUP1 REVERT JUMPDEST POP JUMP JUMPDEST PUSH1 0x0 DUP2 CALLDATALOAD SWAP1 POP PUSH2 0x5DA0 DUP2 PUSH2 0x5D7A JUMP JUMPDEST SWAP3 SWAP2 POP POP JUMP JUMPDEST PUSH1 0x0 PUSH1 0x20 DUP3 DUP5 SUB SLT ISZERO PUSH2 0x5DBC JUMPI PUSH2 0x5DBB PUSH2 0x5AB3 JUMP JUMPDEST JUMPDEST PUSH1 0x0 PUSH2 0x5DCA DUP5 DUP3 DUP6 ADD PUSH2 0x5D91 JUMP JUMPDEST SWAP2 POP POP SWAP3 SWAP2 POP POP JUMP JUMPDEST PUSH2 0x5DDC DUP2 PUSH2 0x5D70 JUMP JUMPDEST DUP3 MSTORE POP POP JUMP JUMPDEST PUSH1 0x0 PUSH1 0xA0 DUP3 ADD SWAP1 POP PUSH2 0x5DF7 PUSH1 0x0 DUP4 ADD DUP9 PUSH2 0x5B4E JUMP JUMPDEST PUSH2 0x5E04 PUSH1 0x20 DUP4 ADD DUP8 PUSH2 0x5DD3 JUMP JUMPDEST PUSH2 0x5E11 PUSH1 0x40 DUP4 ADD DUP7 PUSH2 0x5D46 JUMP JUMPDEST PUSH2 0x5E1E PUSH1 0x60 DUP4 ADD DUP6 PUSH2 0x5D46 JUMP JUMPDEST DUP2 DUP2 SUB PUSH1 0x80 DUP4 ADD MSTORE PUSH2 0x5E30 DUP2 DUP5 PUSH2 0x5CAD JUMP JUMPDEST SWAP1 POP SWAP7 SWAP6 POP POP POP POP POP POP JUMP JUMPDEST PUSH1 0x0 PUSH1 0x20 DUP3 ADD SWAP1 POP PUSH2 0x5E51 PUSH1 0x0 DUP4 ADD DUP5 PUSH2 0x5DD3 JUMP JUMPDEST SWAP3 SWAP2 POP POP JUMP JUMPDEST PUSH1 0x0 PUSH20 0xFFFFFFFFFFFFFFFFFFFFFFFFFFFFFFFFFFFFFFFF DUP3 AND SWAP1 POP SWAP2 SWAP1 POP JUMP JUMPDEST PUSH1 0x0 PUSH2 0x5E82 DUP3 PUSH2 0x5E57 JUMP JUMPDEST SWAP1 POP SWAP2 SWAP1 POP JUMP JUMPDEST PUSH2 0x5E92 DUP2 PUSH2 0x5E77 JUMP JUMPDEST DUP2 EQ PUSH2 0x5E9D JUMPI PUSH1 0x0 DUP1 REVERT JUMPDEST POP JUMP JUMPDEST PUSH1 0x0 DUP2 CALLDATALOAD SWAP1 POP PUSH2 0x5EAF DUP2 PUSH2 0x5E89 JUMP JUMPDEST SWAP3 SWAP2 POP POP JUMP JUMPDEST PUSH1 0x0 DUP1 PUSH1 0x40 DUP4 DUP6 SUB SLT ISZERO PUSH2 0x5ECC JUMPI PUSH2 0x5ECB PUSH2 0x5AB3 JUMP JUMPDEST JUMPDEST PUSH1 0x0 PUSH2 0x5EDA DUP6 DUP3 DUP7 ADD PUSH2 0x5D91 JUMP JUMPDEST SWAP3 POP POP PUSH1 0x20 PUSH2 0x5EEB DUP6 DUP3 DUP7 ADD PUSH2 0x5EA0 JUMP JUMPDEST SWAP2 POP POP SWAP3 POP SWAP3 SWAP1 POP JUMP JUMPDEST PUSH2 0x5EFE DUP2 PUSH2 0x5B78 JUMP JUMPDEST DUP3 MSTORE POP POP JUMP JUMPDEST PUSH1 0x0 DUP3 DUP3 MSTORE PUSH1 0x20 DUP3 ADD SWAP1 POP SWAP3 SWAP2 POP POP JUMP JUMPDEST PUSH1 0x0 PUSH2 0x5F20 DUP3 PUSH2 0x5C56 JUMP JUMPDEST PUSH2 0x5F2A DUP2 DUP6 PUSH2 0x5F04 JUMP JUMPDEST SWAP4 POP PUSH2 0x5F3A DUP2 DUP6 PUSH1 0x20 DUP7 ADD PUSH2 0x5C72 JUMP JUMPDEST PUSH2 0x5F43 DUP2 PUSH2 0x5C9C JUMP JUMPDEST DUP5 ADD SWAP2 POP POP SWAP3 SWAP2 POP POP JUMP JUMPDEST PUSH1 0x0 PUSH1 0x80 DUP4 ADD PUSH1 0x0 DUP4 ADD MLOAD PUSH2 0x5F66 PUSH1 0x0 DUP7 ADD DUP3 PUSH2 0x5EF5 JUMP JUMPDEST POP PUSH1 0x20 DUP4 ADD MLOAD DUP5 DUP3 SUB PUSH1 0x20 DUP7 ADD MSTORE PUSH2 0x5F7E DUP3 DUP3 PUSH2 0x5F15 JUMP JUMPDEST SWAP2 POP POP PUSH1 0x40 DUP4 ADD MLOAD DUP5 DUP3 SUB PUSH1 0x40 DUP7 ADD MSTORE PUSH2 0x5F98 DUP3 DUP3 PUSH2 0x5F15 JUMP JUMPDEST SWAP2 POP POP PUSH1 0x60 DUP4 ADD MLOAD PUSH2 0x5FAD PUSH1 0x60 DUP7 ADD DUP3 PUSH2 0x5EF5 JUMP JUMPDEST POP DUP1 SWAP2 POP POP SWAP3 SWAP2 POP POP JUMP JUMPDEST PUSH1 0x0 PUSH1 0x20 DUP3 ADD SWAP1 POP DUP2 DUP2 SUB PUSH1 0x0 DUP4 ADD MSTORE PUSH2 0x5FD2 DUP2 DUP5 PUSH2 0x5F4E JUMP JUMPDEST SWAP1 POP SWAP3 SWAP2 POP POP JUMP JUMPDEST PUSH1 0x0 DUP1 PUSH1 0x0 PUSH1 0x60 DUP5 DUP7 SUB SLT ISZERO PUSH2 0x5FF3 JUMPI PUSH2 0x5FF2 PUSH2 0x5AB3 JUMP JUMPDEST JUMPDEST PUSH1 0x0 PUSH2 0x6001 DUP7 DUP3 DUP8 ADD PUSH2 0x5D91 JUMP JUMPDEST SWAP4 POP POP PUSH1 0x20 PUSH2 0x6012 DUP7 DUP3 DUP8 ADD PUSH2 0x5EA0 JUMP JUMPDEST SWAP3 POP POP PUSH1 0x40 PUSH2 0x6023 DUP7 DUP3 DUP8 ADD PUSH2 0x5BC5 JUMP JUMPDEST SWAP2 POP POP SWAP3 POP SWAP3 POP SWAP3 JUMP JUMPDEST PUSH32 0x4E487B7100000000000000000000000000000000000000000000000000000000 PUSH1 0x0 MSTORE PUSH1 0x21 PUSH1 0x4 MSTORE PUSH1 0x24 PUSH1 0x0 REVERT JUMPDEST PUSH1 0x4 DUP2 LT PUSH2 0x606D JUMPI PUSH2 0x606C PUSH2 0x602D JUMP JUMPDEST JUMPDEST POP JUMP JUMPDEST PUSH1 0x0 DUP2 SWAP1 POP PUSH2 0x607E DUP3 PUSH2 0x605C JUMP JUMPDEST SWAP2 SWAP1 POP JUMP JUMPDEST PUSH1 0x0 PUSH2 0x608E DUP3 PUSH2 0x6070 JUMP JUMPDEST SWAP1 POP SWAP2 SWAP1 POP JUMP JUMPDEST PUSH2 0x609E DUP2 PUSH2 0x6083 JUMP JUMPDEST DUP3 MSTORE POP POP JUMP JUMPDEST PUSH1 0x3 DUP2 LT PUSH2 0x60B5 JUMPI PUSH2 0x60B4 PUSH2 0x602D JUMP JUMPDEST JUMPDEST POP JUMP JUMPDEST PUSH1 0x0 DUP2 SWAP1 POP PUSH2 0x60C6 DUP3 PUSH2 0x60A4 JUMP JUMPDEST SWAP2 SWAP1 POP JUMP JUMPDEST PUSH1 0x0 PUSH2 0x60D6 DUP3 PUSH2 0x60B8 JUMP JUMPDEST SWAP1 POP SWAP2 SWAP1 POP JUMP JUMPDEST PUSH2 0x60E6 DUP2 PUSH2 0x60CB JUMP JUMPDEST DUP3 MSTORE POP POP JUMP JUMPDEST PUSH1 0x10 DUP2 LT PUSH2 0x60FD JUMPI PUSH2 0x60FC PUSH2 0x602D JUMP JUMPDEST JUMPDEST POP JUMP JUMPDEST PUSH1 0x0 DUP2 SWAP1 POP PUSH2 0x610E DUP3 PUSH2 0x60EC JUMP JUMPDEST SWAP2 SWAP1 POP JUMP JUMPDEST PUSH1 0x0 PUSH2 0x611E DUP3 PUSH2 0x6100 JUMP JUMPDEST SWAP1 POP SWAP2 SWAP1 POP JUMP JUMPDEST PUSH2 0x612E DUP2 PUSH2 0x6113 JUMP JUMPDEST DUP3 MSTORE POP POP JUMP JUMPDEST PUSH1 0x0 PUSH1 0xC0 DUP3 ADD SWAP1 POP PUSH2 0x6149 PUSH1 0x0 DUP4 ADD DUP10 PUSH2 0x6095 JUMP JUMPDEST PUSH2 0x6156 PUSH1 0x20 DUP4 ADD DUP9 PUSH2 0x60DD JUMP JUMPDEST PUSH2 0x6163 PUSH1 0x40 DUP4 ADD DUP8 PUSH2 0x6125 JUMP JUMPDEST PUSH2 0x6170 PUSH1 0x60 DUP4 ADD DUP7 PUSH2 0x5C47 JUMP JUMPDEST PUSH2 0x617D PUSH1 0x80 DUP4 ADD DUP6 PUSH2 0x5B4E JUMP JUMPDEST PUSH2 0x618A PUSH1 0xA0 DUP4 ADD DUP5 PUSH2 0x5C47 JUMP JUMPDEST SWAP8 SWAP7 POP POP POP POP POP POP POP JUMP JUMPDEST PUSH1 0x4 DUP2 LT PUSH2 0x61A2 JUMPI PUSH1 0x0 DUP1 REVERT JUMPDEST POP JUMP JUMPDEST PUSH1 0x0 DUP2 CALLDATALOAD SWAP1 POP PUSH2 0x61B4 DUP2 PUSH2 0x6195 JUMP JUMPDEST SWAP3 SWAP2 POP POP JUMP JUMPDEST PUSH1 0x3 DUP2 LT PUSH2 0x61C7 JUMPI PUSH1 0x0 DUP1 REVERT JUMPDEST POP JUMP JUMPDEST PUSH1 0x0 DUP2 CALLDATALOAD SWAP1 POP PUSH2 0x61D9 DUP2 PUSH2 0x61BA JUMP JUMPDEST SWAP3 SWAP2 POP POP JUMP JUMPDEST PUSH1 0x10 DUP2 LT PUSH2 0x61EC JUMPI PUSH1 0x0 DUP1 REVERT JUMPDEST POP JUMP JUMPDEST PUSH1 0x0 DUP2 CALLDATALOAD SWAP1 POP PUSH2 0x61FE DUP2 PUSH2 0x61DF JUMP JUMPDEST SWAP3 SWAP2 POP POP JUMP JUMPDEST PUSH1 0x0 DUP1 PUSH1 0x0 DUP1 PUSH1 0x0 PUSH1 0xA0 DUP7 DUP9 SUB SLT ISZERO PUSH2 0x6220 JUMPI PUSH2 0x621F PUSH2 0x5AB3 JUMP JUMPDEST JUMPDEST PUSH1 0x0 PUSH2 0x622E DUP9 DUP3 DUP10 ADD PUSH2 0x5B99 JUMP JUMPDEST SWAP6 POP POP PUSH1 0x20 PUSH2 0x623F DUP9 DUP3 DUP10 ADD PUSH2 0x61A5 JUMP JUMPDEST SWAP5 POP POP PUSH1 0x40 PUSH2 0x6250 DUP9 DUP3 DUP10 ADD PUSH2 0x61CA JUMP JUMPDEST SWAP4 POP POP PUSH1 0x60 PUSH2 0x6261 DUP9 DUP3 DUP10 ADD PUSH2 0x61EF JUMP JUMPDEST SWAP3 POP POP PUSH1 0x80 PUSH2 0x6272 DUP9 DUP3 DUP10 ADD PUSH2 0x5BC5 JUMP JUMPDEST SWAP2 POP POP SWAP3 SWAP6 POP SWAP3 SWAP6 SWAP1 SWAP4 POP JUMP JUMPDEST PUSH1 0x0 DUP1 REVERT JUMPDEST PUSH1 0x0 DUP1 REVERT JUMPDEST PUSH32 0x4E487B7100000000000000000000000000000000000000000000000000000000 PUSH1 0x0 MSTORE PUSH1 0x41 PUSH1 0x4 MSTORE PUSH1 0x24 PUSH1 0x0 REVERT JUMPDEST PUSH2 0x62C1 DUP3 PUSH2 0x5C9C JUMP JUMPDEST DUP2 ADD DUP2 DUP2 LT PUSH8 0xFFFFFFFFFFFFFFFF DUP3 GT OR ISZERO PUSH2 0x62E0 JUMPI PUSH2 0x62DF PUSH2 0x6289 JUMP JUMPDEST JUMPDEST DUP1 PUSH1 0x40 MSTORE POP POP POP JUMP JUMPDEST PUSH1 0x0 PUSH2 0x62F3 PUSH2 0x5AA9 JUMP JUMPDEST SWAP1 POP PUSH2 0x62FF DUP3 DUP3 PUSH2 0x62B8 JUMP JUMPDEST SWAP2 SWAP1 POP JUMP JUMPDEST PUSH1 0x0 PUSH8 0xFFFFFFFFFFFFFFFF DUP3 GT ISZERO PUSH2 0x631F JUMPI PUSH2 0x631E PUSH2 0x6289 JUMP JUMPDEST JUMPDEST PUSH2 0x6328 DUP3 PUSH2 0x5C9C JUMP JUMPDEST SWAP1 POP PUSH1 0x20 DUP2 ADD SWAP1 POP SWAP2 SWAP1 POP JUMP JUMPDEST DUP3 DUP2 DUP4 CALLDATACOPY PUSH1 0x0 DUP4 DUP4 ADD MSTORE POP POP POP JUMP JUMPDEST PUSH1 0x0 PUSH2 0x6357 PUSH2 0x6352 DUP5 PUSH2 0x6304 JUMP JUMPDEST PUSH2 0x62E9 JUMP JUMPDEST SWAP1 POP DUP3 DUP2 MSTORE PUSH1 0x20 DUP2 ADD DUP5 DUP5 DUP5 ADD GT ISZERO PUSH2 0x6373 JUMPI PUSH2 0x6372 PUSH2 0x6284 JUMP JUMPDEST JUMPDEST PUSH2 0x637E DUP5 DUP3 DUP6 PUSH2 0x6335 JUMP JUMPDEST POP SWAP4 SWAP3 POP POP POP JUMP JUMPDEST PUSH1 0x0 DUP3 PUSH1 0x1F DUP4 ADD SLT PUSH2 0x639B JUMPI PUSH2 0x639A PUSH2 0x627F JUMP JUMPDEST JUMPDEST DUP2 CALLDATALOAD PUSH2 0x63AB DUP5 DUP3 PUSH1 0x20 DUP7 ADD PUSH2 0x6344 JUMP JUMPDEST SWAP2 POP POP SWAP3 SWAP2 POP POP JUMP JUMPDEST PUSH1 0x0 DUP1 PUSH1 0x0 DUP1 PUSH1 0x80 DUP6 DUP8 SUB SLT ISZERO PUSH2 0x63CE JUMPI PUSH2 0x63CD PUSH2 0x5AB3 JUMP JUMPDEST JUMPDEST PUSH1 0x0 PUSH2 0x63DC DUP8 DUP3 DUP9 ADD PUSH2 0x5B99 JUMP JUMPDEST SWAP5 POP POP PUSH1 0x20 DUP6 ADD CALLDATALOAD PUSH8 0xFFFFFFFFFFFFFFFF DUP2 GT ISZERO PUSH2 0x63FD JUMPI PUSH2 0x63FC PUSH2 0x5AB8 JUMP JUMPDEST JUMPDEST PUSH2 0x6409 DUP8 DUP3 DUP9 ADD PUSH2 0x6386 JUMP JUMPDEST SWAP4 POP POP PUSH1 0x40 DUP6 ADD CALLDATALOAD PUSH8 0xFFFFFFFFFFFFFFFF DUP2 GT ISZERO PUSH2 0x642A JUMPI PUSH2 0x6429 PUSH2 0x5AB8 JUMP JUMPDEST JUMPDEST PUSH2 0x6436 DUP8 DUP3 DUP9 ADD PUSH2 0x6386 JUMP JUMPDEST SWAP3 POP POP PUSH1 0x60 PUSH2 0x6447 DUP8 DUP3 DUP9 ADD PUSH2 0x5B99 JUMP JUMPDEST SWAP2 POP POP SWAP3 SWAP6 SWAP2 SWAP5 POP SWAP3 POP JUMP JUMPDEST PUSH1 0x0 DUP1 PUSH1 0x40 DUP4 DUP6 SUB SLT ISZERO PUSH2 0x646A JUMPI PUSH2 0x6469 PUSH2 0x5AB3 JUMP JUMPDEST JUMPDEST PUSH1 0x0 PUSH2 0x6478 DUP6 DUP3 DUP7 ADD PUSH2 0x5B99 JUMP JUMPDEST SWAP3 POP POP PUSH1 0x20 PUSH2 0x6489 DUP6 DUP3 DUP7 ADD PUSH2 0x5B99 JUMP JUMPDEST SWAP2 POP POP SWAP3 POP SWAP3 SWAP1 POP JUMP JUMPDEST PUSH1 0x0 PUSH1 0x20 DUP3 ADD SWAP1 POP PUSH2 0x64A8 PUSH1 0x0 DUP4 ADD DUP5 PUSH2 0x5C47 JUMP JUMPDEST SWAP3 SWAP2 POP POP JUMP JUMPDEST PUSH32 0x43616C6C6572206973206E6F7420612063657274696669657200000000000000 PUSH1 0x0 DUP3 ADD MSTORE POP JUMP JUMPDEST PUSH1 0x0 PUSH2 0x64E4 PUSH1 0x19 DUP4 PUSH2 0x5C61 JUMP JUMPDEST SWAP2 POP PUSH2 0x64EF DUP3 PUSH2 0x64AE JUMP JUMPDEST PUSH1 0x20 DUP3 ADD SWAP1 POP SWAP2 SWAP1 POP JUMP JUMPDEST PUSH1 0x0 PUSH1 0x20 DUP3 ADD SWAP1 POP DUP2 DUP2 SUB PUSH1 0x0 DUP4 ADD MSTORE PUSH2 0x6513 DUP2 PUSH2 0x64D7 JUMP JUMPDEST SWAP1 POP SWAP2 SWAP1 POP JUMP JUMPDEST PUSH32 0x4964206D7573742062652067726561746572207468616E203000000000000000 PUSH1 0x0 DUP3 ADD MSTORE POP JUMP JUMPDEST PUSH1 0x0 PUSH2 0x6550 PUSH1 0x19 DUP4 PUSH2 0x5C61 JUMP JUMPDEST SWAP2 POP PUSH2 0x655B DUP3 PUSH2 0x651A JUMP JUMPDEST PUSH1 0x20 DUP3 ADD SWAP1 POP SWAP2 SWAP1 POP JUMP JUMPDEST PUSH1 0x0 PUSH1 0x20 DUP3 ADD SWAP1 POP DUP2 DUP2 SUB PUSH1 0x0 DUP4 ADD MSTORE PUSH2 0x657F DUP2 PUSH2 0x6543 JUMP JUMPDEST SWAP1 POP SWAP2 SWAP1 POP JUMP JUMPDEST PUSH32 0x546869732073747564656E7420646F65736E2774206578697374000000000000 PUSH1 0x0 DUP3 ADD MSTORE POP JUMP JUMPDEST PUSH1 0x0 PUSH2 0x65BC PUSH1 0x1A DUP4 PUSH2 0x5C61 JUMP JUMPDEST SWAP2 POP PUSH2 0x65C7 DUP3 PUSH2 0x6586 JUMP JUMPDEST PUSH1 0x20 DUP3 ADD SWAP1 POP SWAP2 SWAP1 POP JUMP JUMPDEST PUSH1 0x0 PUSH1 0x20 DUP3 ADD SWAP1 POP DUP2 DUP2 SUB PUSH1 0x0 DUP4 ADD MSTORE PUSH2 0x65EB DUP2 PUSH2 0x65AF JUMP JUMPDEST SWAP1 POP SWAP2 SWAP1 POP JUMP JUMPDEST PUSH1 0x0 DUP2 SWAP1 POP SWAP2 SWAP1 POP JUMP JUMPDEST PUSH2 0x660D PUSH2 0x6608 DUP3 PUSH2 0x5B78 JUMP JUMPDEST PUSH2 0x65F2 JUMP JUMPDEST DUP3 MSTORE POP POP JUMP JUMPDEST PUSH1 0x0 DUP2 SWAP1 POP SWAP3 SWAP2 POP POP JUMP JUMPDEST PUSH32 0x44454C4554452053545544454E54000000000000000000000000000000000000 PUSH1 0x0 DUP3 ADD MSTORE POP JUMP JUMPDEST PUSH1 0x0 PUSH2 0x6654 PUSH1 0xE DUP4 PUSH2 0x6613 JUMP JUMPDEST SWAP2 POP PUSH2 0x665F DUP3 PUSH2 0x661E JUMP JUMPDEST PUSH1 0xE DUP3 ADD SWAP1 POP SWAP2 SWAP1 POP JUMP JUMPDEST PUSH1 0x0 PUSH2 0x6676 DUP3 DUP5 PUSH2 0x65FC JUMP JUMPDEST PUSH1 0x20 DUP3 ADD SWAP2 POP PUSH2 0x6685 DUP3 PUSH2 0x6647 JUMP JUMPDEST SWAP2 POP DUP2 SWAP1 POP SWAP3 SWAP2 POP POP JUMP JUMPDEST PUSH1 0x0 PUSH2 0x669C DUP3 DUP5 PUSH2 0x65FC JUMP JUMPDEST PUSH1 0x20 DUP3 ADD SWAP2 POP DUP2 SWAP1 POP SWAP3 SWAP2 POP POP JUMP JUMPDEST PUSH32 0x44656C6574652073747564656E74200000000000000000000000000000000000 DUP2 MSTORE POP JUMP JUMPDEST PUSH1 0x0 PUSH2 0x66DC DUP3 PUSH2 0x5C56 JUMP JUMPDEST PUSH2 0x66E6 DUP2 DUP6 PUSH2 0x6613 JUMP JUMPDEST SWAP4 POP PUSH2 0x66F6 DUP2 DUP6 PUSH1 0x20 DUP7 ADD PUSH2 0x5C72 JUMP JUMPDEST DUP1 DUP5 ADD SWAP2 POP POP SWAP3 SWAP2 POP POP JUMP JUMPDEST PUSH1 0x0 PUSH2 0x670D DUP3 PUSH2 0x66AB JUMP JUMPDEST PUSH1 0xF DUP3 ADD SWAP2 POP PUSH2 0x671D DUP3 DUP5 PUSH2 0x66D1 JUMP JUMPDEST SWAP2 POP DUP2 SWAP1 POP SWAP3 SWAP2 POP POP JUMP JUMPDEST PUSH1 0x0 PUSH4 0xFFFFFFFF DUP3 AND SWAP1 POP SWAP2 SWAP1 POP JUMP JUMPDEST PUSH32 0x4E487B7100000000000000000000000000000000000000000000000000000000 PUSH1 0x0 MSTORE PUSH1 0x11 PUSH1 0x4 MSTORE PUSH1 0x24 PUSH1 0x0 REVERT JUMPDEST PUSH1 0x0 PUSH2 0x6772 DUP3 PUSH2 0x6728 JUMP JUMPDEST SWAP2 POP PUSH2 0x677D DUP4 PUSH2 0x6728 JUMP JUMPDEST SWAP3 POP DUP3 DUP3 MUL PUSH2 0x678B DUP2 PUSH2 0x6728 JUMP JUMPDEST SWAP2 POP DUP1 DUP3 EQ PUSH2 0x679D JUMPI PUSH2 0x679C PUSH2 0x6738 JUMP JUMPDEST JUMPDEST POP SWAP3 SWAP2 POP POP JUMP JUMPDEST PUSH32 0x4E487B7100000000000000000000000000000000000000000000000000000000 PUSH1 0x0 MSTORE PUSH1 0x22 PUSH1 0x4 MSTORE PUSH1 0x24 PUSH1 0x0 REVERT JUMPDEST PUSH1 0x0 PUSH1 0x2 DUP3 DIV SWAP1 POP PUSH1 0x1 DUP3 AND DUP1 PUSH2 0x67EB JUMPI PUSH1 0x7F DUP3 AND SWAP2 POP JUMPDEST PUSH1 0x20 DUP3 LT DUP2 SUB PUSH2 0x67FE JUMPI PUSH2 0x67FD PUSH2 0x67A4 JUMP JUMPDEST JUMPDEST POP SWAP2 SWAP1 POP JUMP JUMPDEST PUSH32 0x596F752063616E27742072656E6F756E636520746F20796F757220726F6C652E PUSH1 0x0 DUP3 ADD MSTORE PUSH32 0x20506C6561736520636F6E746163742061646D696E7300000000000000000000 PUSH1 0x20 DUP3 ADD MSTORE POP JUMP JUMPDEST PUSH1 0x0 PUSH2 0x6860 PUSH1 0x36 DUP4 PUSH2 0x5C61 JUMP JUMPDEST SWAP2 POP PUSH2 0x686B DUP3 PUSH2 0x6804 JUMP JUMPDEST PUSH1 0x40 DUP3 ADD SWAP1 POP SWAP2 SWAP1 POP JUMP JUMPDEST PUSH1 0x0 PUSH1 0x20 DUP3 ADD SWAP1 POP DUP2 DUP2 SUB PUSH1 0x0 DUP4 ADD MSTORE PUSH2 0x688F DUP2 PUSH2 0x6853 JUMP JUMPDEST SWAP1 POP SWAP2 SWAP1 POP JUMP JUMPDEST PUSH32 0x53747564656E7420646F65736E27742065786973740000000000000000000000 PUSH1 0x0 DUP3 ADD MSTORE POP JUMP JUMPDEST PUSH1 0x0 PUSH2 0x68CC PUSH1 0x15 DUP4 PUSH2 0x5C61 JUMP JUMPDEST SWAP2 POP PUSH2 0x68D7 DUP3 PUSH2 0x6896 JUMP JUMPDEST PUSH1 0x20 DUP3 ADD SWAP1 POP SWAP2 SWAP1 POP JUMP JUMPDEST PUSH1 0x0 PUSH1 0x20 DUP3 ADD SWAP1 POP DUP2 DUP2 SUB PUSH1 0x0 DUP4 ADD MSTORE PUSH2 0x68FB DUP2 PUSH2 0x68BF JUMP JUMPDEST SWAP1 POP SWAP2 SWAP1 POP JUMP JUMPDEST PUSH1 0x0 DUP2 SWAP1 POP SWAP2 SWAP1 POP JUMP JUMPDEST PUSH2 0x691D PUSH2 0x6918 DUP3 PUSH2 0x5D70 JUMP JUMPDEST PUSH2 0x6902 JUMP JUMPDEST DUP3 MSTORE POP POP JUMP JUMPDEST PUSH1 0x0 PUSH2 0x692F DUP3 DUP5 PUSH2 0x690C JUMP JUMPDEST PUSH1 0x20 DUP3 ADD SWAP2 POP DUP2 SWAP1 POP SWAP3 SWAP2 POP POP JUMP JUMPDEST PUSH32 0x4D61782000000000000000000000000000000000000000000000000000000000 DUP2 MSTORE POP JUMP JUMPDEST PUSH32 0x2072656163686564000000000000000000000000000000000000000000000000 DUP2 MSTORE POP JUMP JUMPDEST PUSH1 0x0 PUSH2 0x6995 DUP3 PUSH2 0x693E JUMP JUMPDEST PUSH1 0x4 DUP3 ADD SWAP2 POP PUSH2 0x69A5 DUP3 DUP5 PUSH2 0x66D1 JUMP JUMPDEST SWAP2 POP PUSH2 0x69B0 DUP3 PUSH2 0x6964 JUMP JUMPDEST PUSH1 0x8 DUP3 ADD SWAP2 POP DUP2 SWAP1 POP SWAP3 SWAP2 POP POP JUMP JUMPDEST PUSH1 0x0 PUSH1 0x20 DUP3 ADD SWAP1 POP DUP2 DUP2 SUB PUSH1 0x0 DUP4 ADD MSTORE PUSH2 0x69D9 DUP2 DUP5 PUSH2 0x5CAD JUMP JUMPDEST SWAP1 POP SWAP3 SWAP2 POP POP JUMP JUMPDEST PUSH32 0x43616C6C6572206973206E6F7420612000000000000000000000000000000000 DUP2 MSTORE POP JUMP JUMPDEST PUSH32 0x2061646D696E0000000000000000000000000000000000000000000000000000 DUP2 MSTORE POP JUMP JUMPDEST PUSH1 0x0 PUSH2 0x6A38 DUP3 PUSH2 0x69E1 JUMP JUMPDEST PUSH1 0x10 DUP3 ADD SWAP2 POP PUSH2 0x6A48 DUP3 DUP5 PUSH2 0x66D1 JUMP JUMPDEST SWAP2 POP PUSH2 0x6A53 DUP3 PUSH2 0x6A07 JUMP JUMPDEST PUSH1 0x6 DUP3 ADD SWAP2 POP DUP2 SWAP1 POP SWAP3 SWAP2 POP POP JUMP JUMPDEST PUSH32 0x54686973206164647265737320697320616C7265616479206120000000000000 DUP2 MSTORE POP JUMP JUMPDEST PUSH1 0x0 PUSH2 0x6A93 DUP3 PUSH2 0x6A62 JUMP JUMPDEST PUSH1 0x1A DUP3 ADD SWAP2 POP PUSH2 0x6AA3 DUP3 DUP5 PUSH2 0x66D1 JUMP JUMPDEST SWAP2 POP DUP2 SWAP1 POP SWAP3 SWAP2 POP POP JUMP JUMPDEST PUSH1 0x0 DUP2 PUSH1 0x60 SHL SWAP1 POP SWAP2 SWAP1 POP JUMP JUMPDEST PUSH1 0x0 PUSH2 0x6AC6 DUP3 PUSH2 0x6AAE JUMP JUMPDEST SWAP1 POP SWAP2 SWAP1 POP JUMP JUMPDEST PUSH1 0x0 PUSH2 0x6AD8 DUP3 PUSH2 0x6ABB JUMP JUMPDEST SWAP1 POP SWAP2 SWAP1 POP JUMP JUMPDEST PUSH2 0x6AF0 PUSH2 0x6AEB DUP3 PUSH2 0x5E77 JUMP JUMPDEST PUSH2 0x6ACD JUMP JUMPDEST DUP3 MSTORE POP POP JUMP JUMPDEST PUSH32 0x4752414E54000000000000000000000000000000000000000000000000000000 PUSH1 0x0 DUP3 ADD MSTORE POP JUMP JUMPDEST PUSH1 0x0 PUSH2 0x6B2C PUSH1 0x5 DUP4 PUSH2 0x6613 JUMP JUMPDEST SWAP2 POP PUSH2 0x6B37 DUP3 PUSH2 0x6AF6 JUMP JUMPDEST PUSH1 0x5 DUP3 ADD SWAP1 POP SWAP2 SWAP1 POP JUMP JUMPDEST PUSH1 0x0 PUSH2 0x6B4E DUP3 DUP6 PUSH2 0x6ADF JUMP JUMPDEST PUSH1 0x14 DUP3 ADD SWAP2 POP PUSH2 0x6B5D DUP3 PUSH2 0x6B1F JUMP JUMPDEST SWAP2 POP PUSH2 0x6B69 DUP3 DUP5 PUSH2 0x690C JUMP JUMPDEST PUSH1 0x20 DUP3 ADD SWAP2 POP DUP2 SWAP1 POP SWAP4 SWAP3 POP POP POP JUMP JUMPDEST PUSH1 0x0 PUSH2 0x6B85 DUP3 DUP5 PUSH2 0x6ADF JUMP JUMPDEST PUSH1 0x14 DUP3 ADD SWAP2 POP DUP2 SWAP1 POP SWAP3 SWAP2 POP POP JUMP JUMPDEST PUSH32 0x4772616E74200000000000000000000000000000000000000000000000000000 DUP2 MSTORE POP JUMP JUMPDEST PUSH32 0x2000000000000000000000000000000000000000000000000000000000000000 DUP2 MSTORE POP JUMP JUMPDEST PUSH1 0x0 PUSH2 0x6BEB DUP3 PUSH2 0x6B94 JUMP JUMPDEST PUSH1 0x6 DUP3 ADD SWAP2 POP PUSH2 0x6BFB DUP3 DUP6 PUSH2 0x66D1 JUMP JUMPDEST SWAP2 POP PUSH2 0x6C06 DUP3 PUSH2 0x6BBA JUMP JUMPDEST PUSH1 0x1 DUP3 ADD SWAP2 POP PUSH2 0x6C16 DUP3 DUP5 PUSH2 0x66D1 JUMP JUMPDEST SWAP2 POP DUP2 SWAP1 POP SWAP4 SWAP3 POP POP POP JUMP JUMPDEST PUSH1 0x0 PUSH2 0x6C2D DUP3 PUSH2 0x6728 JUMP JUMPDEST SWAP2 POP PUSH2 0x6C38 DUP4 PUSH2 0x6728 JUMP JUMPDEST SWAP3 POP DUP3 DUP3 ADD SWAP1 POP PUSH4 0xFFFFFFFF DUP2 GT ISZERO PUSH2 0x6C54 JUMPI PUSH2 0x6C53 PUSH2 0x6738 JUMP JUMPDEST JUMPDEST SWAP3 SWAP2 POP POP JUMP JUMPDEST PUSH32 0x417070726563696174696F6E206973206E6F742076616C696400000000000000 PUSH1 0x0 DUP3 ADD MSTORE POP JUMP JUMPDEST PUSH1 0x0 PUSH2 0x6C90 PUSH1 0x19 DUP4 PUSH2 0x5C61 JUMP JUMPDEST SWAP2 POP PUSH2 0x6C9B DUP3 PUSH2 0x6C5A JUMP JUMPDEST PUSH1 0x20 DUP3 ADD SWAP1 POP SWAP2 SWAP1 POP JUMP JUMPDEST PUSH1 0x0 PUSH1 0x20 DUP3 ADD SWAP1 POP DUP2 DUP2 SUB PUSH1 0x0 DUP4 ADD MSTORE PUSH2 0x6CBF DUP2 PUSH2 0x6C83 JUMP JUMPDEST SWAP1 POP SWAP2 SWAP1 POP JUMP JUMPDEST PUSH32 0x446567726565206973206E6F742076616C696400000000000000000000000000 PUSH1 0x0 DUP3 ADD MSTORE POP JUMP JUMPDEST PUSH1 0x0 PUSH2 0x6CFC PUSH1 0x13 DUP4 PUSH2 0x5C61 JUMP JUMPDEST SWAP2 POP PUSH2 0x6D07 DUP3 PUSH2 0x6CC6 JUMP JUMPDEST PUSH1 0x20 DUP3 ADD SWAP1 POP SWAP2 SWAP1 POP JUMP JUMPDEST PUSH1 0x0 PUSH1 0x20 DUP3 ADD SWAP1 POP DUP2 DUP2 SUB PUSH1 0x0 DUP4 ADD MSTORE PUSH2 0x6D2B DUP2 PUSH2 0x6CEF JUMP JUMPDEST SWAP1 POP SWAP2 SWAP1 POP JUMP JUMPDEST PUSH32 0x50726F6772616D206973206E6F742076616C6964000000000000000000000000 PUSH1 0x0 DUP3 ADD MSTORE POP JUMP JUMPDEST PUSH1 0x0 PUSH2 0x6D68 PUSH1 0x14 DUP4 PUSH2 0x5C61 JUMP JUMPDEST SWAP2 POP PUSH2 0x6D73 DUP3 PUSH2 0x6D32 JUMP JUMPDEST PUSH1 0x20 DUP3 ADD SWAP1 POP SWAP2 SWAP1 POP JUMP JUMPDEST PUSH1 0x0 PUSH1 0x20 DUP3 ADD SWAP1 POP DUP2 DUP2 SUB PUSH1 0x0 DUP4 ADD MSTORE PUSH2 0x6D97 DUP2 PUSH2 0x6D5B JUMP JUMPDEST SWAP1 POP SWAP2 SWAP1 POP JUMP JUMPDEST PUSH1 0x0 DUP2 PUSH1 0xF8 SHL SWAP1 POP SWAP2 SWAP1 POP JUMP JUMPDEST PUSH1 0x0 PUSH2 0x6DB6 DUP3 PUSH2 0x6D9E JUMP JUMPDEST SWAP1 POP SWAP2 SWAP1 POP JUMP JUMPDEST PUSH2 0x6DCE PUSH2 0x6DC9 DUP3 PUSH2 0x6083 JUMP JUMPDEST PUSH2 0x6DAB JUMP JUMPDEST DUP3 MSTORE POP POP JUMP JUMPDEST PUSH2 0x6DE5 PUSH2 0x6DE0 DUP3 PUSH2 0x60CB JUMP JUMPDEST PUSH2 0x6DAB JUMP JUMPDEST DUP3 MSTORE POP POP JUMP JUMPDEST PUSH2 0x6DFC PUSH2 0x6DF7 DUP3 PUSH2 0x6113 JUMP JUMPDEST PUSH2 0x6DAB JUMP JUMPDEST DUP3 MSTORE POP POP JUMP JUMPDEST PUSH1 0x0 PUSH2 0x6E0E DUP3 DUP8 PUSH2 0x65FC JUMP JUMPDEST PUSH1 0x20 DUP3 ADD SWAP2 POP PUSH2 0x6E1E DUP3 DUP7 PUSH2 0x6DBD JUMP JUMPDEST PUSH1 0x1 DUP3 ADD SWAP2 POP PUSH2 0x6E2E DUP3 DUP6 PUSH2 0x6DD4 JUMP JUMPDEST PUSH1 0x1 DUP3 ADD SWAP2 POP PUSH2 0x6E3E DUP3 DUP5 PUSH2 0x6DEB JUMP JUMPDEST PUSH1 0x1 DUP3 ADD SWAP2 POP DUP2 SWAP1 POP SWAP6 SWAP5 POP POP POP POP POP JUMP JUMPDEST PUSH32 0x5468697320636572746966696361746520646F65736E27742065786973740000 PUSH1 0x0 DUP3 ADD MSTORE POP JUMP JUMPDEST PUSH1 0x0 PUSH2 0x6E86 PUSH1 0x1E DUP4 PUSH2 0x5C61 JUMP JUMPDEST SWAP2 POP PUSH2 0x6E91 DUP3 PUSH2 0x6E50 JUMP JUMPDEST PUSH1 0x20 DUP3 ADD SWAP1 POP SWAP2 SWAP1 POP JUMP JUMPDEST PUSH1 0x0 PUSH1 0x20 DUP3 ADD SWAP1 POP DUP2 DUP2 SUB PUSH1 0x0 DUP4 ADD MSTORE PUSH2 0x6EB5 DUP2 PUSH2 0x6E79 JUMP JUMPDEST SWAP1 POP SWAP2 SWAP1 POP JUMP JUMPDEST PUSH32 0x44454C4554450000000000000000000000000000000000000000000000000000 PUSH1 0x0 DUP3 ADD MSTORE POP JUMP JUMPDEST PUSH1 0x0 PUSH2 0x6EF2 PUSH1 0x6 DUP4 PUSH2 0x6613 JUMP JUMPDEST SWAP2 POP PUSH2 0x6EFD DUP3 PUSH2 0x6EBC JUMP JUMPDEST PUSH1 0x6 DUP3 ADD SWAP1 POP SWAP2 SWAP1 POP JUMP JUMPDEST PUSH1 0x0 PUSH2 0x6F14 DUP3 DUP8 PUSH2 0x65FC JUMP JUMPDEST PUSH1 0x20 DUP3 ADD SWAP2 POP PUSH2 0x6F24 DUP3 DUP7 PUSH2 0x6DBD JUMP JUMPDEST PUSH1 0x1 DUP3 ADD SWAP2 POP PUSH2 0x6F34 DUP3 DUP6 PUSH2 0x6DD4 JUMP JUMPDEST PUSH1 0x1 DUP3 ADD SWAP2 POP PUSH2 0x6F44 DUP3 DUP5 PUSH2 0x6DEB JUMP JUMPDEST PUSH1 0x1 DUP3 ADD SWAP2 POP PUSH2 0x6F53 DUP3 PUSH2 0x6EE5 JUMP JUMPDEST SWAP2 POP DUP2 SWAP1 POP SWAP6 SWAP5 POP POP POP POP POP JUMP JUMPDEST PUSH1 0x0 PUSH2 0x6F6D DUP3 DUP5 PUSH2 0x6DBD JUMP JUMPDEST PUSH1 0x1 DUP3 ADD SWAP2 POP DUP2 SWAP1 POP SWAP3 SWAP2 POP POP JUMP JUMPDEST PUSH1 0x0 PUSH2 0x6F88 DUP3 DUP5 PUSH2 0x6DD4 JUMP JUMPDEST PUSH1 0x1 DUP3 ADD SWAP2 POP DUP2 SWAP1 POP SWAP3 SWAP2 POP POP JUMP JUMPDEST PUSH1 0x0 PUSH2 0x6FA3 DUP3 DUP5 PUSH2 0x6DEB JUMP JUMPDEST PUSH1 0x1 DUP3 ADD SWAP2 POP DUP2 SWAP1 POP SWAP3 SWAP2 POP POP JUMP JUMPDEST PUSH32 0x44656C6574652000000000000000000000000000000000000000000000000000 DUP2 MSTORE POP JUMP JUMPDEST PUSH1 0x0 PUSH2 0x6FE3 DUP3 PUSH2 0x6FB2 JUMP JUMPDEST PUSH1 0x7 DUP3 ADD SWAP2 POP PUSH2 0x6FF3 DUP3 DUP8 PUSH2 0x66D1 JUMP JUMPDEST SWAP2 POP PUSH2 0x6FFE DUP3 PUSH2 0x6BBA JUMP JUMPDEST PUSH1 0x1 DUP3 ADD SWAP2 POP PUSH2 0x700E DUP3 DUP7 PUSH2 0x66D1 JUMP JUMPDEST SWAP2 POP PUSH2 0x7019 DUP3 PUSH2 0x6BBA JUMP JUMPDEST PUSH1 0x1 DUP3 ADD SWAP2 POP PUSH2 0x7029 DUP3 DUP6 PUSH2 0x66D1 JUMP JUMPDEST SWAP2 POP PUSH2 0x7034 DUP3 PUSH2 0x6BBA JUMP JUMPDEST PUSH1 0x1 DUP3 ADD SWAP2 POP PUSH2 0x7044 DUP3 DUP5 PUSH2 0x66D1 JUMP JUMPDEST SWAP2 POP DUP2 SWAP1 POP SWAP6 SWAP5 POP POP POP POP POP JUMP JUMPDEST PUSH32 0x46697273746E616D652063616E6E6F7420626520656D70747900000000000000 PUSH1 0x0 DUP3 ADD MSTORE POP JUMP JUMPDEST PUSH1 0x0 PUSH2 0x7088 PUSH1 0x19 DUP4 PUSH2 0x5C61 JUMP JUMPDEST SWAP2 POP PUSH2 0x7093 DUP3 PUSH2 0x7052 JUMP JUMPDEST PUSH1 0x20 DUP3 ADD SWAP1 POP SWAP2 SWAP1 POP JUMP JUMPDEST PUSH1 0x0 PUSH1 0x20 DUP3 ADD SWAP1 POP DUP2 DUP2 SUB PUSH1 0x0 DUP4 ADD MSTORE PUSH2 0x70B7 DUP2 PUSH2 0x707B JUMP JUMPDEST SWAP1 POP SWAP2 SWAP1 POP JUMP JUMPDEST PUSH32 0x4C6173746E616D652063616E6E6F7420626520656D7074790000000000000000 PUSH1 0x0 DUP3 ADD MSTORE POP JUMP JUMPDEST PUSH1 0x0 PUSH2 0x70F4 PUSH1 0x18 DUP4 PUSH2 0x5C61 JUMP JUMPDEST SWAP2 POP PUSH2 0x70FF DUP3 PUSH2 0x70BE JUMP JUMPDEST PUSH1 0x20 DUP3 ADD SWAP1 POP SWAP2 SWAP1 POP JUMP JUMPDEST PUSH1 0x0 PUSH1 0x20 DUP3 ADD SWAP1 POP DUP2 DUP2 SUB PUSH1 0x0 DUP4 ADD MSTORE PUSH2 0x7123 DUP2 PUSH2 0x70E7 JUMP JUMPDEST SWAP1 POP SWAP2 SWAP1 POP JUMP JUMPDEST PUSH32 0x426972746864617465206D7573742062652067726561746572207468616E2030 PUSH1 0x0 DUP3 ADD MSTORE POP JUMP JUMPDEST PUSH1 0x0 PUSH2 0x7160 PUSH1 0x20 DUP4 PUSH2 0x5C61 JUMP JUMPDEST SWAP2 POP PUSH2 0x716B DUP3 PUSH2 0x712A JUMP JUMPDEST PUSH1 0x20 DUP3 ADD SWAP1 POP SWAP2 SWAP1 POP JUMP JUMPDEST PUSH1 0x0 PUSH1 0x20 DUP3 ADD SWAP1 POP DUP2 DUP2 SUB PUSH1 0x0 DUP4 ADD MSTORE PUSH2 0x718F DUP2 PUSH2 0x7153 JUMP JUMPDEST SWAP1 POP SWAP2 SWAP1 POP JUMP JUMPDEST PUSH32 0x546869732073747564656E7420616C7265616479206578697374730000000000 PUSH1 0x0 DUP3 ADD MSTORE POP JUMP JUMPDEST PUSH1 0x0 PUSH2 0x71CC PUSH1 0x1B DUP4 PUSH2 0x5C61 JUMP JUMPDEST SWAP2 POP PUSH2 0x71D7 DUP3 PUSH2 0x7196 JUMP JUMPDEST PUSH1 0x20 DUP3 ADD SWAP1 POP SWAP2 SWAP1 POP JUMP JUMPDEST PUSH1 0x0 PUSH1 0x20 DUP3 ADD SWAP1 POP DUP2 DUP2 SUB PUSH1 0x0 DUP4 ADD MSTORE PUSH2 0x71FB DUP2 PUSH2 0x71BF JUMP JUMPDEST SWAP1 POP SWAP2 SWAP1 POP JUMP JUMPDEST PUSH32 0x5468697320636572746966696361746520616C72656164792065786973747300 PUSH1 0x0 DUP3 ADD MSTORE POP JUMP JUMPDEST PUSH1 0x0 PUSH2 0x7238 PUSH1 0x1F DUP4 PUSH2 0x5C61 JUMP JUMPDEST SWAP2 POP PUSH2 0x7243 DUP3 PUSH2 0x7202 JUMP JUMPDEST PUSH1 0x20 DUP3 ADD SWAP1 POP SWAP2 SWAP1 POP JUMP JUMPDEST PUSH1 0x0 PUSH1 0x20 DUP3 ADD SWAP1 POP DUP2 DUP2 SUB PUSH1 0x0 DUP4 ADD MSTORE PUSH2 0x7267 DUP2 PUSH2 0x722B JUMP JUMPDEST SWAP1 POP SWAP2 SWAP1 POP JUMP JUMPDEST PUSH32 0x4345525449465900000000000000000000000000000000000000000000000000 PUSH1 0x0 DUP3 ADD MSTORE POP JUMP JUMPDEST PUSH1 0x0 PUSH2 0x72A4 PUSH1 0x7 DUP4 PUSH2 0x6613 JUMP JUMPDEST SWAP2 POP PUSH2 0x72AF DUP3 PUSH2 0x726E JUMP JUMPDEST PUSH1 0x7 DUP3 ADD SWAP1 POP SWAP2 SWAP1 POP JUMP JUMPDEST PUSH1 0x0 PUSH2 0x72C6 DUP3 DUP8 PUSH2 0x65FC JUMP JUMPDEST PUSH1 0x20 DUP3 ADD SWAP2 POP PUSH2 0x72D6 DUP3 DUP7 PUSH2 0x6DBD JUMP JUMPDEST PUSH1 0x1 DUP3 ADD SWAP2 POP PUSH2 0x72E6 DUP3 DUP6 PUSH2 0x6DD4 JUMP JUMPDEST PUSH1 0x1 DUP3 ADD SWAP2 POP PUSH2 0x72F6 DUP3 DUP5 PUSH2 0x6DEB JUMP JUMPDEST PUSH1 0x1 DUP3 ADD SWAP2 POP PUSH2 0x7305 DUP3 PUSH2 0x7297 JUMP JUMPDEST SWAP2 POP DUP2 SWAP1 POP SWAP6 SWAP5 POP POP POP POP POP JUMP JUMPDEST PUSH32 0x4365727469667920000000000000000000000000000000000000000000000000 DUP2 MSTORE POP JUMP JUMPDEST PUSH1 0x0 PUSH2 0x7344 DUP3 PUSH2 0x7313 JUMP JUMPDEST PUSH1 0x8 DUP3 ADD SWAP2 POP PUSH2 0x7354 DUP3 DUP8 PUSH2 0x66D1 JUMP JUMPDEST SWAP2 POP PUSH2 0x735F DUP3 PUSH2 0x6BBA JUMP JUMPDEST PUSH1 0x1 DUP3 ADD SWAP2 POP PUSH2 0x736F DUP3 DUP7 PUSH2 0x66D1 JUMP JUMPDEST SWAP2 POP PUSH2 0x737A DUP3 PUSH2 0x6BBA JUMP JUMPDEST PUSH1 0x1 DUP3 ADD SWAP2 POP PUSH2 0x738A DUP3 DUP6 PUSH2 0x66D1 JUMP JUMPDEST SWAP2 POP PUSH2 0x7395 DUP3 PUSH2 0x6BBA JUMP JUMPDEST PUSH1 0x1 DUP3 ADD SWAP2 POP PUSH2 0x73A5 DUP3 DUP5 PUSH2 0x66D1 JUMP JUMPDEST SWAP2 POP DUP2 SWAP1 POP SWAP6 SWAP5 POP POP POP POP POP JUMP JUMPDEST PUSH32 0x4E487B7100000000000000000000000000000000000000000000000000000000 PUSH1 0x0 MSTORE PUSH1 0x12 PUSH1 0x4 MSTORE PUSH1 0x24 PUSH1 0x0 REVERT JUMPDEST PUSH1 0x0 PUSH2 0x73ED DUP3 PUSH2 0x5B78 JUMP JUMPDEST SWAP2 POP PUSH2 0x73F8 DUP4 PUSH2 0x5B78 JUMP JUMPDEST SWAP3 POP DUP3 PUSH2 0x7408 JUMPI PUSH2 0x7407 PUSH2 0x73B3 JUMP JUMPDEST JUMPDEST DUP3 DUP3 MOD SWAP1 POP SWAP3 SWAP2 POP POP JUMP JUMPDEST PUSH1 0x0 PUSH2 0x741E DUP3 PUSH2 0x5B78 JUMP JUMPDEST SWAP2 POP PUSH2 0x7429 DUP4 PUSH2 0x5B78 JUMP JUMPDEST SWAP3 POP DUP3 PUSH2 0x7439 JUMPI PUSH2 0x7438 PUSH2 0x73B3 JUMP JUMPDEST JUMPDEST DUP3 DUP3 DIV SWAP1 POP SWAP3 SWAP2 POP POP JUMP JUMPDEST PUSH1 0x0 PUSH2 0x744F DUP3 PUSH2 0x5B78 JUMP JUMPDEST SWAP2 POP PUSH2 0x745A DUP4 PUSH2 0x5B78 JUMP JUMPDEST SWAP3 POP DUP3 DUP3 ADD SWAP1 POP DUP1 DUP3 GT ISZERO PUSH2 0x7472 JUMPI PUSH2 0x7471 PUSH2 0x6738 JUMP JUMPDEST JUMPDEST SWAP3 SWAP2 POP POP JUMP JUMPDEST PUSH32 0x4D696E2000000000000000000000000000000000000000000000000000000000 DUP2 MSTORE POP JUMP JUMPDEST PUSH1 0x0 PUSH2 0x74A9 DUP3 PUSH2 0x7478 JUMP JUMPDEST PUSH1 0x4 DUP3 ADD SWAP2 POP PUSH2 0x74B9 DUP3 DUP5 PUSH2 0x66D1 JUMP JUMPDEST SWAP2 POP PUSH2 0x74C4 DUP3 PUSH2 0x6964 JUMP JUMPDEST PUSH1 0x8 DUP3 ADD SWAP2 POP DUP2 SWAP1 POP SWAP3 SWAP2 POP POP JUMP JUMPDEST PUSH32 0x546869732061646472657373206973206E6F7420612000000000000000000000 DUP2 MSTORE POP JUMP JUMPDEST PUSH1 0x0 PUSH2 0x7504 DUP3 PUSH2 0x74D3 JUMP JUMPDEST PUSH1 0x16 DUP3 ADD SWAP2 POP PUSH2 0x7514 DUP3 DUP5 PUSH2 0x66D1 JUMP JUMPDEST SWAP2 POP DUP2 SWAP1 POP SWAP3 SWAP2 POP POP JUMP JUMPDEST PUSH32 0x5245564F4B450000000000000000000000000000000000000000000000000000 PUSH1 0x0 DUP3 ADD MSTORE POP JUMP JUMPDEST PUSH1 0x0 PUSH2 0x7555 PUSH1 0x6 DUP4 PUSH2 0x6613 JUMP JUMPDEST SWAP2 POP PUSH2 0x7560 DUP3 PUSH2 0x751F JUMP JUMPDEST PUSH1 0x6 DUP3 ADD SWAP1 POP SWAP2 SWAP1 POP JUMP JUMPDEST PUSH1 0x0 PUSH2 0x7577 DUP3 DUP6 PUSH2 0x6ADF JUMP JUMPDEST PUSH1 0x14 DUP3 ADD SWAP2 POP PUSH2 0x7586 DUP3 PUSH2 0x7548 JUMP JUMPDEST SWAP2 POP PUSH2 0x7592 DUP3 DUP5 PUSH2 0x690C JUMP JUMPDEST PUSH1 0x20 DUP3 ADD SWAP2 POP DUP2 SWAP1 POP SWAP4 SWAP3 POP POP POP JUMP JUMPDEST PUSH32 0x5265766F6B652000000000000000000000000000000000000000000000000000 DUP2 MSTORE POP JUMP JUMPDEST PUSH1 0x0 PUSH2 0x75D3 DUP3 PUSH2 0x75A2 JUMP JUMPDEST PUSH1 0x7 DUP3 ADD SWAP2 POP PUSH2 0x75E3 DUP3 DUP6 PUSH2 0x66D1 JUMP JUMPDEST SWAP2 POP PUSH2 0x75EE DUP3 PUSH2 0x6BBA JUMP JUMPDEST PUSH1 0x1 DUP3 ADD SWAP2 POP PUSH2 0x75FE DUP3 DUP5 PUSH2 0x66D1 JUMP JUMPDEST SWAP2 POP DUP2 SWAP1 POP SWAP4 SWAP3 POP POP POP JUMP JUMPDEST PUSH1 0x0 PUSH2 0x7615 DUP3 PUSH2 0x6728 JUMP JUMPDEST SWAP2 POP PUSH2 0x7620 DUP4 PUSH2 0x6728 JUMP JUMPDEST SWAP3 POP DUP3 DUP3 SUB SWAP1 POP PUSH4 0xFFFFFFFF DUP2 GT ISZERO PUSH2 0x763C JUMPI PUSH2 0x763B PUSH2 0x6738 JUMP JUMPDEST JUMPDEST SWAP3 SWAP2 POP POP JUMP JUMPDEST PUSH1 0x0 PUSH2 0x764D DUP3 PUSH2 0x5D39 JUMP JUMPDEST SWAP2 POP PUSH2 0x7658 DUP4 PUSH2 0x5D39 JUMP JUMPDEST SWAP3 POP DUP3 DUP3 SUB SWAP1 POP PUSH1 0xFF DUP2 GT ISZERO PUSH2 0x7671 JUMPI PUSH2 0x7670 PUSH2 0x6738 JUMP JUMPDEST JUMPDEST SWAP3 SWAP2 POP POP JUMP JUMPDEST PUSH1 0x0 PUSH2 0x7682 DUP3 PUSH2 0x5B78 JUMP JUMPDEST SWAP2 POP PUSH32 0xFFFFFFFFFFFFFFFFFFFFFFFFFFFFFFFFFFFFFFFFFFFFFFFFFFFFFFFFFFFFFFFF DUP3 SUB PUSH2 0x76B4 JUMPI PUSH2 0x76B3 PUSH2 0x6738 JUMP JUMPDEST JUMPDEST PUSH1 0x1 DUP3 ADD SWAP1 POP SWAP2 SWAP1 POP JUMP JUMPDEST PUSH1 0x0 DUP2 SWAP1 POP DUP2 PUSH1 0x0 MSTORE PUSH1 0x20 PUSH1 0x0 KECCAK256 SWAP1 POP SWAP2 SWAP1 POP JUMP JUMPDEST PUSH1 0x0 PUSH1 0x20 PUSH1 0x1F DUP4 ADD DIV SWAP1 POP SWAP2 SWAP1 POP JUMP JUMPDEST PUSH1 0x0 DUP3 DUP3 SHL SWAP1 POP SWAP3 SWAP2 POP POP JUMP JUMPDEST PUSH1 0x0 PUSH1 0x8 DUP4 MUL PUSH2 0x7721 PUSH32 0xFFFFFFFFFFFFFFFFFFFFFFFFFFFFFFFFFFFFFFFFFFFFFFFFFFFFFFFFFFFFFFFF DUP3 PUSH2 0x76E4 JUMP JUMPDEST PUSH2 0x772B DUP7 DUP4 PUSH2 0x76E4 JUMP JUMPDEST SWAP6 POP DUP1 NOT DUP5 AND SWAP4 POP DUP1 DUP7 AND DUP5 OR SWAP3 POP POP POP SWAP4 SWAP3 POP POP POP JUMP JUMPDEST PUSH1 0x0 DUP2 SWAP1 POP SWAP2 SWAP1 POP JUMP JUMPDEST PUSH1 0x0 PUSH2 0x7768 PUSH2 0x7763 PUSH2 0x775E DUP5 PUSH2 0x5B78 JUMP JUMPDEST PUSH2 0x7743 JUMP JUMPDEST PUSH2 0x5B78 JUMP JUMPDEST SWAP1 POP SWAP2 SWAP1 POP JUMP JUMPDEST PUSH1 0x0 DUP2 SWAP1 POP SWAP2 SWAP1 POP JUMP JUMPDEST PUSH2 0x7782 DUP4 PUSH2 0x774D JUMP JUMPDEST PUSH2 0x7796 PUSH2 0x778E DUP3 PUSH2 0x776F JUMP JUMPDEST DUP5 DUP5 SLOAD PUSH2 0x76F1 JUMP JUMPDEST DUP3 SSTORE POP POP POP POP JUMP JUMPDEST PUSH1 0x0 SWAP1 JUMP JUMPDEST PUSH2 0x77AB PUSH2 0x779E JUMP JUMPDEST PUSH2 0x77B6 DUP2 DUP5 DUP5 PUSH2 0x7779 JUMP JUMPDEST POP POP POP JUMP JUMPDEST JUMPDEST DUP2 DUP2 LT ISZERO PUSH2 0x77DA JUMPI PUSH2 0x77CF PUSH1 0x0 DUP3 PUSH2 0x77A3 JUMP JUMPDEST PUSH1 0x1 DUP2 ADD SWAP1 POP PUSH2 0x77BC JUMP JUMPDEST POP POP JUMP JUMPDEST PUSH1 0x1F DUP3 GT ISZERO PUSH2 0x781F JUMPI PUSH2 0x77F0 DUP2 PUSH2 0x76BF JUMP JUMPDEST PUSH2 0x77F9 DUP5 PUSH2 0x76D4 JUMP JUMPDEST DUP2 ADD PUSH1 0x20 DUP6 LT ISZERO PUSH2 0x7808 JUMPI DUP2 SWAP1 POP JUMPDEST PUSH2 0x781C PUSH2 0x7814 DUP6 PUSH2 0x76D4 JUMP JUMPDEST DUP4 ADD DUP3 PUSH2 0x77BB JUMP JUMPDEST POP POP JUMPDEST POP POP POP JUMP JUMPDEST PUSH1 0x0 DUP3 DUP3 SHR SWAP1 POP SWAP3 SWAP2 POP POP JUMP JUMPDEST PUSH1 0x0 PUSH2 0x7842 PUSH1 0x0 NOT DUP5 PUSH1 0x8 MUL PUSH2 0x7824 JUMP JUMPDEST NOT DUP1 DUP4 AND SWAP2 POP POP SWAP3 SWAP2 POP POP JUMP JUMPDEST PUSH1 0x0 PUSH2 0x785B DUP4 DUP4 PUSH2 0x7831 JUMP JUMPDEST SWAP2 POP DUP3 PUSH1 0x2 MUL DUP3 OR SWAP1 POP SWAP3 SWAP2 POP POP JUMP JUMPDEST PUSH2 0x7874 DUP3 PUSH2 0x5C56 JUMP JUMPDEST PUSH8 0xFFFFFFFFFFFFFFFF DUP2 GT ISZERO PUSH2 0x788D JUMPI PUSH2 0x788C PUSH2 0x6289 JUMP JUMPDEST JUMPDEST PUSH2 0x7897 DUP3 SLOAD PUSH2 0x67D3 JUMP JUMPDEST PUSH2 0x78A2 DUP3 DUP3 DUP6 PUSH2 0x77DE JUMP JUMPDEST PUSH1 0x0 PUSH1 0x20 SWAP1 POP PUSH1 0x1F DUP4 GT PUSH1 0x1 DUP2 EQ PUSH2 0x78D5 JUMPI PUSH1 0x0 DUP5 ISZERO PUSH2 0x78C3 JUMPI DUP3 DUP8 ADD MLOAD SWAP1 POP JUMPDEST PUSH2 0x78CD DUP6 DUP3 PUSH2 0x784F JUMP JUMPDEST DUP7 SSTORE POP PUSH2 0x7935 JUMP JUMPDEST PUSH1 0x1F NOT DUP5 AND PUSH2 0x78E3 DUP7 PUSH2 0x76BF JUMP JUMPDEST PUSH1 0x0 JUMPDEST DUP3 DUP2 LT ISZERO PUSH2 0x790B JUMPI DUP5 DUP10 ADD MLOAD DUP3 SSTORE PUSH1 0x1 DUP3 ADD SWAP2 POP PUSH1 0x20 DUP6 ADD SWAP5 POP PUSH1 0x20 DUP2 ADD SWAP1 POP PUSH2 0x78E6 JUMP JUMPDEST DUP7 DUP4 LT ISZERO PUSH2 0x7928 JUMPI DUP5 DUP10 ADD MLOAD PUSH2 0x7924 PUSH1 0x1F DUP10 AND DUP3 PUSH2 0x7831 JUMP JUMPDEST DUP4 SSTORE POP JUMPDEST PUSH1 0x1 PUSH1 0x2 DUP9 MUL ADD DUP9 SSTORE POP POP POP JUMPDEST POP POP POP POP POP POP JUMP JUMPDEST PUSH32 0x596F7520616C7265616479207369676E65642074686973206D756C7469736967 PUSH1 0x0 DUP3 ADD MSTORE POP JUMP JUMPDEST PUSH1 0x0 PUSH2 0x7973 PUSH1 0x20 DUP4 PUSH2 0x5C61 JUMP JUMPDEST SWAP2 POP PUSH2 0x797E DUP3 PUSH2 0x793D JUMP JUMPDEST PUSH1 0x20 DUP3 ADD SWAP1 POP SWAP2 SWAP1 POP JUMP JUMPDEST PUSH1 0x0 PUSH1 0x20 DUP3 ADD SWAP1 POP DUP2 DUP2 SUB PUSH1 0x0 DUP4 ADD MSTORE PUSH2 0x79A2 DUP2 PUSH2 0x7966 JUMP JUMPDEST SWAP1 POP SWAP2 SWAP1 POP JUMP JUMPDEST PUSH1 0x0 PUSH2 0x79B4 DUP3 PUSH2 0x5D39 JUMP JUMPDEST SWAP2 POP PUSH1 0xFF DUP3 SUB PUSH2 0x79C7 JUMPI PUSH2 0x79C6 PUSH2 0x6738 JUMP JUMPDEST JUMPDEST PUSH1 0x1 DUP3 ADD SWAP1 POP SWAP2 SWAP1 POP JUMP JUMPDEST PUSH1 0x0 PUSH2 0x79DD DUP3 PUSH2 0x5D39 JUMP JUMPDEST SWAP2 POP PUSH2 0x79E8 DUP4 PUSH2 0x5D39 JUMP JUMPDEST SWAP3 POP DUP3 DUP3 ADD SWAP1 POP PUSH1 0xFF DUP2 GT ISZERO PUSH2 0x7A01 JUMPI PUSH2 0x7A00 PUSH2 0x6738 JUMP JUMPDEST JUMPDEST SWAP3 SWAP2 POP POP JUMP JUMPDEST PUSH32 0x596F752068617665206E6F7465207369676E65642074686973206D756C746973 PUSH1 0x0 DUP3 ADD MSTORE PUSH32 0x6967207965740000000000000000000000000000000000000000000000000000 PUSH1 0x20 DUP3 ADD MSTORE POP JUMP JUMPDEST PUSH1 0x0 PUSH2 0x7A63 PUSH1 0x26 DUP4 PUSH2 0x5C61 JUMP JUMPDEST SWAP2 POP PUSH2 0x7A6E DUP3 PUSH2 0x7A07 JUMP JUMPDEST PUSH1 0x40 DUP3 ADD SWAP1 POP SWAP2 SWAP1 POP JUMP JUMPDEST PUSH1 0x0 PUSH1 0x20 DUP3 ADD SWAP1 POP DUP2 DUP2 SUB PUSH1 0x0 DUP4 ADD MSTORE PUSH2 0x7A92 DUP2 PUSH2 0x7A56 JUMP JUMPDEST SWAP1 POP SWAP2 SWAP1 POP JUMP JUMPDEST PUSH1 0x0 PUSH1 0x80 DUP3 ADD SWAP1 POP PUSH2 0x7AAE PUSH1 0x0 DUP4 ADD DUP8 PUSH2 0x5C47 JUMP JUMPDEST PUSH2 0x7ABB PUSH1 0x20 DUP4 ADD DUP7 PUSH2 0x6095 JUMP JUMPDEST PUSH2 0x7AC8 PUSH1 0x40 DUP4 ADD DUP6 PUSH2 0x60DD JUMP JUMPDEST PUSH2 0x7AD5 PUSH1 0x60 DUP4 ADD DUP5 PUSH2 0x6125 JUMP JUMPDEST SWAP6 SWAP5 POP POP POP POP POP JUMP JUMPDEST PUSH32 0x53747564656E7420646F6573206E6F7420657869737400000000000000000000 PUSH1 0x0 DUP3 ADD MSTORE POP JUMP JUMPDEST PUSH1 0x0 PUSH2 0x7B14 PUSH1 0x16 DUP4 PUSH2 0x5C61 JUMP JUMPDEST SWAP2 POP PUSH2 0x7B1F DUP3 PUSH2 0x7ADE JUMP JUMPDEST PUSH1 0x20 DUP3 ADD SWAP1 POP SWAP2 SWAP1 POP JUMP JUMPDEST PUSH1 0x0 PUSH1 0x20 DUP3 ADD SWAP1 POP DUP2 DUP2 SUB PUSH1 0x0 DUP4 ADD MSTORE PUSH2 0x7B43 DUP2 PUSH2 0x7B07 JUMP JUMPDEST SWAP1 POP SWAP2 SWAP1 POP JUMP JUMPDEST PUSH1 0x0 DUP2 SLOAD PUSH2 0x7B57 DUP2 PUSH2 0x67D3 JUMP JUMPDEST PUSH2 0x7B61 DUP2 DUP7 PUSH2 0x6613 JUMP JUMPDEST SWAP5 POP PUSH1 0x1 DUP3 AND PUSH1 0x0 DUP2 EQ PUSH2 0x7B7C JUMPI PUSH1 0x1 DUP2 EQ PUSH2 0x7B91 JUMPI PUSH2 0x7BC4 JUMP JUMPDEST PUSH1 0xFF NOT DUP4 AND DUP7 MSTORE DUP2 ISZERO ISZERO DUP3 MUL DUP7 ADD SWAP4 POP PUSH2 0x7BC4 JUMP JUMPDEST PUSH2 0x7B9A DUP6 PUSH2 0x76BF JUMP JUMPDEST PUSH1 0x0 JUMPDEST DUP4 DUP2 LT ISZERO PUSH2 0x7BBC JUMPI DUP2 SLOAD DUP2 DUP10 ADD MSTORE PUSH1 0x1 DUP3 ADD SWAP2 POP PUSH1 0x20 DUP2 ADD SWAP1 POP PUSH2 0x7B9D JUMP JUMPDEST DUP4 DUP9 ADD SWAP6 POP POP POP JUMPDEST POP POP POP SWAP3 SWAP2 POP POP JUMP JUMPDEST PUSH1 0x0 PUSH2 0x7BD9 DUP3 DUP5 PUSH2 0x7B4A JUMP JUMPDEST SWAP2 POP DUP2 SWAP1 POP SWAP3 SWAP2 POP POP JUMP JUMPDEST PUSH1 0x0 PUSH2 0x7BF0 DUP3 DUP5 PUSH2 0x66D1 JUMP JUMPDEST SWAP2 POP DUP2 SWAP1 POP SWAP3 SWAP2 POP POP JUMP JUMPDEST POP JUMP JUMPDEST PUSH1 0x0 PUSH2 0x7C0B PUSH1 0x0 DUP4 PUSH2 0x6613 JUMP JUMPDEST SWAP2 POP PUSH2 0x7C16 DUP3 PUSH2 0x7BFB JUMP JUMPDEST PUSH1 0x0 DUP3 ADD SWAP1 POP SWAP2 SWAP1 POP JUMP JUMPDEST PUSH1 0x0 PUSH2 0x7C2C DUP3 PUSH2 0x7BFE JUMP JUMPDEST SWAP2 POP DUP2 SWAP1 POP SWAP2 SWAP1 POP JUMP JUMPDEST PUSH32 0x416363657373436F6E74726F6C3A206163636F756E7420000000000000000000 PUSH1 0x0 DUP3 ADD MSTORE POP JUMP JUMPDEST PUSH1 0x0 PUSH2 0x7C6C PUSH1 0x17 DUP4 PUSH2 0x6613 JUMP JUMPDEST SWAP2 POP PUSH2 0x7C77 DUP3 PUSH2 0x7C36 JUMP JUMPDEST PUSH1 0x17 DUP3 ADD SWAP1 POP SWAP2 SWAP1 POP JUMP JUMPDEST PUSH32 0x206973206D697373696E6720726F6C6520000000000000000000000000000000 PUSH1 0x0 DUP3 ADD MSTORE POP JUMP JUMPDEST PUSH1 0x0 PUSH2 0x7CB8 PUSH1 0x11 DUP4 PUSH2 0x6613 JUMP JUMPDEST SWAP2 POP PUSH2 0x7CC3 DUP3 PUSH2 0x7C82 JUMP JUMPDEST PUSH1 0x11 DUP3 ADD SWAP1 POP SWAP2 SWAP1 POP JUMP JUMPDEST PUSH1 0x0 PUSH2 0x7CD9 DUP3 PUSH2 0x7C5F JUMP JUMPDEST SWAP2 POP PUSH2 0x7CE5 DUP3 DUP6 PUSH2 0x66D1 JUMP JUMPDEST SWAP2 POP PUSH2 0x7CF0 DUP3 PUSH2 0x7CAB JUMP JUMPDEST SWAP2 POP PUSH2 0x7CFC DUP3 DUP5 PUSH2 0x66D1 JUMP JUMPDEST SWAP2 POP DUP2 SWAP1 POP SWAP4 SWAP3 POP POP POP JUMP JUMPDEST PUSH1 0x0 PUSH2 0x7D13 DUP3 PUSH2 0x5B78 JUMP JUMPDEST SWAP2 POP PUSH2 0x7D1E DUP4 PUSH2 0x5B78 JUMP JUMPDEST SWAP3 POP DUP3 DUP3 MUL PUSH2 0x7D2C DUP2 PUSH2 0x5B78 JUMP JUMPDEST SWAP2 POP DUP3 DUP3 DIV DUP5 EQ DUP4 ISZERO OR PUSH2 0x7D43 JUMPI PUSH2 0x7D42 PUSH2 0x6738 JUMP JUMPDEST JUMPDEST POP SWAP3 SWAP2 POP POP JUMP JUMPDEST PUSH32 0x4E487B7100000000000000000000000000000000000000000000000000000000 PUSH1 0x0 MSTORE PUSH1 0x32 PUSH1 0x4 MSTORE PUSH1 0x24 PUSH1 0x0 REVERT JUMPDEST PUSH1 0x0 PUSH2 0x7D84 DUP3 PUSH2 0x5B78 JUMP JUMPDEST SWAP2 POP PUSH1 0x0 DUP3 SUB PUSH2 0x7D97 JUMPI PUSH2 0x7D96 PUSH2 0x6738 JUMP JUMPDEST JUMPDEST PUSH1 0x1 DUP3 SUB SWAP1 POP SWAP2 SWAP1 POP JUMP JUMPDEST PUSH32 0x537472696E67733A20686578206C656E67746820696E73756666696369656E74 PUSH1 0x0 DUP3 ADD MSTORE POP JUMP JUMPDEST PUSH1 0x0 PUSH2 0x7DD8 PUSH1 0x20 DUP4 PUSH2 0x5C61 JUMP JUMPDEST SWAP2 POP PUSH2 0x7DE3 DUP3 PUSH2 0x7DA2 JUMP JUMPDEST PUSH1 0x20 DUP3 ADD SWAP1 POP SWAP2 SWAP1 POP JUMP JUMPDEST PUSH1 0x0 PUSH1 0x20 DUP3 ADD SWAP1 POP DUP2 DUP2 SUB PUSH1 0x0 DUP4 ADD MSTORE PUSH2 0x7E07 DUP2 PUSH2 0x7DCB JUMP JUMPDEST SWAP1 POP SWAP2 SWAP1 POP JUMP INVALID LOG2 PUSH5 0x6970667358 0x22 SLT KECCAK256 0xC6 PUSH14 0x9B849F231A7BC83EFA40F4584F4F PUSH21 0x88DC262F3B24F8D5D8CE8F3D873F7C64736F6C6343 STOP ADDMOD SGT STOP CALLER "},"methodIdentifiers":{"CERTIFIER()":"b86bc74f","CERTIFIER_ADMIN()":"e05f2fb4","DEFAULT_ADMIN_ROLE()":"a217fddf","MAX_CERTIFIERS()":"5907ebea","MAX_CERTIFIERS_ADMIN()":"9e339909","MIN_CERTIFIERS_ADMIN()":"33b72e49","PERCENT_TO_CERTIFY()":"6bc6421b","PERCENT_TO_DELETE_STUDENT()":"d0fb68c7","PERCENT_TO_EDIT_CERTIFICATE()":"2cd94e4f","PERCENT_TO_GRANT_CERTIFIER()":"4da11a20","PERCENT_TO_GRANT_CERTIFIER_ADMIN()":"0f68794a","PERCENT_TO_REVOKE_CERTIFIER()":"1a9cfe28","PERCENT_TO_REVOKE_CERTIFIER_ADMIN()":"7cd29fb7","ceilUDiv(uint256,uint256)":"bf802091","certificates(bytes32)":"742f0688","certify(uint256,uint8,uint8,uint8,bool)":"ace81910","createStudent(uint256,string,string,uint256)":"a1cebf52","deleteCertificate(uint256,uint8,uint8,uint8,bool)":"8856a0e9","editStudentById(uint256,string,string,uint256)":"c9dbcfda","getRoleAdmin(bytes32)":"248a9ca3","getStudent(uint256)":"642f9163","grantAnyRole(bytes32,address,bool)":"719129be","grantRole(bytes32,address)":"2f2ff15d","hasRole(bytes32,address)":"91d14854","multiSig(bytes32)":"1a968069","multiSigId(uint256)":"9dd09a73","removeStudentById(uint256,bool)":"05f84d45","renounceRole(bytes32,address)":"36568abe","revokeAnyRole(bytes32,address,bool)":"d3243ad8","revokeRole(bytes32,address)":"d547741f","students(uint256)":"06ead22e","supportsInterface(bytes4)":"01ffc9a7"}}}}}