{
  "_format": "hh-sol-artifact-1",
  "contractName": "Certifications",
  "sourceName": "contracts/Certifications.sol",
  "abi": [
    {
      "inputs": [
        {
          "internalType": "address",
          "name": "certifier_admin1",
          "type": "address"
        },
        {
          "internalType": "address",
          "name": "certifier_admin2",
          "type": "address"
        }
      ],
      "stateMutability": "nonpayable",
      "type": "constructor"
    },
    {
      "anonymous": false,
      "inputs": [
        {
          "indexed": true,
          "internalType": "bytes32",
          "name": "role",
          "type": "bytes32"
        },
        {
          "indexed": true,
          "internalType": "bytes32",
          "name": "previousAdminRole",
          "type": "bytes32"
        },
        {
          "indexed": true,
          "internalType": "bytes32",
          "name": "newAdminRole",
          "type": "bytes32"
        }
      ],
      "name": "RoleAdminChanged",
      "type": "event"
    },
    {
      "anonymous": false,
      "inputs": [
        {
          "indexed": true,
          "internalType": "bytes32",
          "name": "role",
          "type": "bytes32"
        },
        {
          "indexed": true,
          "internalType": "address",
          "name": "account",
          "type": "address"
        },
        {
          "indexed": true,
          "internalType": "address",
          "name": "sender",
          "type": "address"
        }
      ],
      "name": "RoleGranted",
      "type": "event"
    },
    {
      "anonymous": false,
      "inputs": [
        {
          "indexed": true,
          "internalType": "bytes32",
          "name": "role",
          "type": "bytes32"
        },
        {
          "indexed": true,
          "internalType": "address",
          "name": "account",
          "type": "address"
        },
        {
          "indexed": true,
          "internalType": "address",
          "name": "sender",
          "type": "address"
        }
      ],
      "name": "RoleRevoked",
      "type": "event"
    },
    {
      "anonymous": false,
      "inputs": [
        {
          "indexed": false,
          "internalType": "uint256",
          "name": "id",
          "type": "uint256"
        },
        {
          "indexed": false,
          "internalType": "string",
          "name": "firstname",
          "type": "string"
        },
        {
          "indexed": false,
          "internalType": "string",
          "name": "lastname",
          "type": "string"
        },
        {
          "indexed": false,
          "internalType": "uint256",
          "name": "birthdate",
          "type": "uint256"
        }
      ],
      "name": "StudentAdded",
      "type": "event"
    },
    {
      "anonymous": false,
      "inputs": [
        {
          "indexed": false,
          "internalType": "uint256",
          "name": "id",
          "type": "uint256"
        }
      ],
      "name": "StudentDeleted",
      "type": "event"
    },
    {
      "anonymous": false,
      "inputs": [
        {
          "indexed": false,
          "internalType": "uint256",
          "name": "id",
          "type": "uint256"
        },
        {
          "indexed": false,
          "internalType": "string",
          "name": "firstname",
          "type": "string"
        },
        {
          "indexed": false,
          "internalType": "string",
          "name": "lastname",
          "type": "string"
        },
        {
          "indexed": false,
          "internalType": "uint256",
          "name": "birthdate",
          "type": "uint256"
        }
      ],
      "name": "StudentEdited",
      "type": "event"
    },
    {
      "anonymous": false,
      "inputs": [
        {
          "indexed": false,
          "internalType": "uint256",
          "name": "studentId",
          "type": "uint256"
        },
        {
          "indexed": false,
          "internalType": "enum Certifications.appreciation",
          "name": "appreciation",
          "type": "uint8"
        },
        {
          "indexed": false,
          "internalType": "enum Certifications.degree",
          "name": "degree",
          "type": "uint8"
        },
        {
          "indexed": false,
          "internalType": "enum Certifications.program",
          "name": "program",
          "type": "uint8"
        }
      ],
      "name": "certificationEmited",
      "type": "event"
    },
    {
      "anonymous": false,
      "inputs": [
        {
          "indexed": false,
          "internalType": "bytes32",
          "name": "multiSigName",
          "type": "bytes32"
        }
      ],
      "name": "multiSigCleared",
      "type": "event"
    },
    {
      "anonymous": false,
      "inputs": [
        {
          "indexed": false,
          "internalType": "bytes32",
          "name": "multiSigName",
          "type": "bytes32"
        }
      ],
      "name": "multiSigSigned",
      "type": "event"
    },
    {
      "inputs": [],
      "name": "CERTIFIER",
      "outputs": [
        {
          "internalType": "bytes32",
          "name": "",
          "type": "bytes32"
        }
      ],
      "stateMutability": "view",
      "type": "function"
    },
    {
      "inputs": [],
      "name": "CERTIFIER_ADMIN",
      "outputs": [
        {
          "internalType": "bytes32",
          "name": "",
          "type": "bytes32"
        }
      ],
      "stateMutability": "view",
      "type": "function"
    },
    {
      "inputs": [],
      "name": "DEFAULT_ADMIN_ROLE",
      "outputs": [
        {
          "internalType": "bytes32",
          "name": "",
          "type": "bytes32"
        }
      ],
      "stateMutability": "view",
      "type": "function"
    },
    {
      "inputs": [],
      "name": "MAX_CERTIFIERS",
      "outputs": [
        {
          "internalType": "uint8",
          "name": "",
          "type": "uint8"
        }
      ],
      "stateMutability": "view",
      "type": "function"
    },
    {
      "inputs": [],
      "name": "MAX_CERTIFIERS_ADMIN",
      "outputs": [
        {
          "internalType": "uint8",
          "name": "",
          "type": "uint8"
        }
      ],
      "stateMutability": "view",
      "type": "function"
    },
    {
      "inputs": [],
      "name": "MIN_CERTIFIERS_ADMIN",
      "outputs": [
        {
          "internalType": "uint8",
          "name": "",
          "type": "uint8"
        }
      ],
      "stateMutability": "view",
      "type": "function"
    },
    {
      "inputs": [],
      "name": "PERCENT_TO_CERTIFY",
      "outputs": [
        {
          "internalType": "uint8",
          "name": "",
          "type": "uint8"
        }
      ],
      "stateMutability": "view",
      "type": "function"
    },
    {
      "inputs": [],
      "name": "PERCENT_TO_DELETE_STUDENT",
      "outputs": [
        {
          "internalType": "uint8",
          "name": "",
          "type": "uint8"
        }
      ],
      "stateMutability": "view",
      "type": "function"
    },
    {
      "inputs": [],
      "name": "PERCENT_TO_EDIT_CERTIFICATE",
      "outputs": [
        {
          "internalType": "uint8",
          "name": "",
          "type": "uint8"
        }
      ],
      "stateMutability": "view",
      "type": "function"
    },
    {
      "inputs": [],
      "name": "PERCENT_TO_GRANT_CERTIFIER",
      "outputs": [
        {
          "internalType": "uint8",
          "name": "",
          "type": "uint8"
        }
      ],
      "stateMutability": "view",
      "type": "function"
    },
    {
      "inputs": [],
      "name": "PERCENT_TO_GRANT_CERTIFIER_ADMIN",
      "outputs": [
        {
          "internalType": "uint8",
          "name": "",
          "type": "uint8"
        }
      ],
      "stateMutability": "view",
      "type": "function"
    },
    {
      "inputs": [],
      "name": "PERCENT_TO_REVOKE_CERTIFIER",
      "outputs": [
        {
          "internalType": "uint8",
          "name": "",
          "type": "uint8"
        }
      ],
      "stateMutability": "view",
      "type": "function"
    },
    {
      "inputs": [],
      "name": "PERCENT_TO_REVOKE_CERTIFIER_ADMIN",
      "outputs": [
        {
          "internalType": "uint8",
          "name": "",
          "type": "uint8"
        }
      ],
      "stateMutability": "view",
      "type": "function"
    },
    {
      "inputs": [
        {
          "internalType": "address",
          "name": "_address",
          "type": "address"
        }
      ],
      "name": "addToStr",
      "outputs": [
        {
          "internalType": "string",
          "name": "",
          "type": "string"
        }
      ],
      "stateMutability": "pure",
      "type": "function"
    },
    {
      "inputs": [
        {
          "internalType": "uint256",
          "name": "a",
          "type": "uint256"
        },
        {
          "internalType": "uint256",
          "name": "b",
          "type": "uint256"
        }
      ],
      "name": "ceilUDiv",
      "outputs": [
        {
          "internalType": "uint256",
          "name": "",
          "type": "uint256"
        }
      ],
      "stateMutability": "pure",
      "type": "function"
    },
    {
      "inputs": [
        {
          "internalType": "bytes32",
          "name": "",
          "type": "bytes32"
        }
      ],
      "name": "certificates",
      "outputs": [
        {
          "internalType": "enum Certifications.appreciation",
          "name": "appreciation",
          "type": "uint8"
        },
        {
          "internalType": "enum Certifications.degree",
          "name": "degree",
          "type": "uint8"
        },
        {
          "internalType": "enum Certifications.program",
          "name": "program",
          "type": "uint8"
        },
        {
          "internalType": "uint256",
          "name": "creation_date",
          "type": "uint256"
        },
        {
          "internalType": "bool",
          "name": "validity",
          "type": "bool"
        },
        {
          "internalType": "uint256",
          "name": "stud_id",
          "type": "uint256"
        }
      ],
      "stateMutability": "view",
      "type": "function"
    },
    {
      "inputs": [
        {
          "internalType": "uint256",
          "name": "",
          "type": "uint256"
        },
        {
          "internalType": "uint256",
          "name": "",
          "type": "uint256"
        }
      ],
      "name": "certificatesByStudent",
      "outputs": [
        {
          "internalType": "bytes32",
          "name": "",
          "type": "bytes32"
        }
      ],
      "stateMutability": "view",
      "type": "function"
    },
    {
      "inputs": [
        {
          "internalType": "uint256",
          "name": "studentId",
          "type": "uint256"
        },
        {
          "internalType": "enum Certifications.appreciation",
          "name": "app",
          "type": "uint8"
        },
        {
          "internalType": "enum Certifications.degree",
          "name": "deg",
          "type": "uint8"
        },
        {
          "internalType": "enum Certifications.program",
          "name": "prog",
          "type": "uint8"
        },
        {
          "internalType": "bool",
          "name": "approve",
          "type": "bool"
        }
      ],
      "name": "certify",
      "outputs": [],
      "stateMutability": "nonpayable",
      "type": "function"
    },
    {
      "inputs": [
        {
          "internalType": "uint256",
          "name": "_id",
          "type": "uint256"
        },
        {
          "internalType": "string",
          "name": "_firstname",
          "type": "string"
        },
        {
          "internalType": "string",
          "name": "_lastname",
          "type": "string"
        },
        {
          "internalType": "uint256",
          "name": "_birthdate",
          "type": "uint256"
        }
      ],
      "name": "createStudent",
      "outputs": [],
      "stateMutability": "nonpayable",
      "type": "function"
    },
    {
      "inputs": [
        {
          "internalType": "uint256",
          "name": "studentId",
          "type": "uint256"
        },
        {
          "internalType": "enum Certifications.appreciation",
          "name": "app",
          "type": "uint8"
        },
        {
          "internalType": "enum Certifications.degree",
          "name": "deg",
          "type": "uint8"
        },
        {
          "internalType": "enum Certifications.program",
          "name": "prog",
          "type": "uint8"
        },
        {
          "internalType": "bool",
          "name": "approve",
          "type": "bool"
        }
      ],
      "name": "deleteCertificate",
      "outputs": [],
      "stateMutability": "nonpayable",
      "type": "function"
    },
    {
      "inputs": [
        {
          "internalType": "uint256",
          "name": "_id",
          "type": "uint256"
        },
        {
          "internalType": "string",
          "name": "_firstname",
          "type": "string"
        },
        {
          "internalType": "string",
          "name": "_lastname",
          "type": "string"
        },
        {
          "internalType": "uint256",
          "name": "_birthdate",
          "type": "uint256"
        }
      ],
      "name": "editStudentById",
      "outputs": [],
      "stateMutability": "nonpayable",
      "type": "function"
    },
    {
      "inputs": [
        {
          "internalType": "address",
          "name": "signer",
          "type": "address"
        }
      ],
      "name": "getAllMultiSig",
      "outputs": [
        {
          "internalType": "bytes32[]",
          "name": "",
          "type": "bytes32[]"
        },
        {
          "internalType": "uint8[]",
          "name": "",
          "type": "uint8[]"
        },
        {
          "internalType": "string[]",
          "name": "",
          "type": "string[]"
        },
        {
          "internalType": "bool[]",
          "name": "",
          "type": "bool[]"
        }
      ],
      "stateMutability": "view",
      "type": "function"
    },
    {
      "inputs": [
        {
          "internalType": "uint256",
          "name": "_id",
          "type": "uint256"
        }
      ],
      "name": "getCertificatesByStudent",
      "outputs": [
        {
          "internalType": "bytes32[]",
          "name": "",
          "type": "bytes32[]"
        }
      ],
      "stateMutability": "view",
      "type": "function"
    },
    {
      "inputs": [
        {
          "internalType": "bytes32",
          "name": "_id",
          "type": "bytes32"
        }
      ],
      "name": "getCertificationById",
      "outputs": [
        {
          "internalType": "uint8",
          "name": "",
          "type": "uint8"
        },
        {
          "internalType": "uint8",
          "name": "",
          "type": "uint8"
        },
        {
          "internalType": "uint8",
          "name": "",
          "type": "uint8"
        },
        {
          "internalType": "uint256",
          "name": "",
          "type": "uint256"
        },
        {
          "internalType": "uint256",
          "name": "",
          "type": "uint256"
        }
      ],
      "stateMutability": "view",
      "type": "function"
    },
    {
      "inputs": [
        {
          "internalType": "bytes32",
          "name": "role",
          "type": "bytes32"
        }
      ],
      "name": "getRoleAdmin",
      "outputs": [
        {
          "internalType": "bytes32",
          "name": "",
          "type": "bytes32"
        }
      ],
      "stateMutability": "view",
      "type": "function"
    },
    {
      "inputs": [
        {
          "internalType": "bytes32",
          "name": "_role",
          "type": "bytes32"
        }
      ],
      "name": "getRoleMembersNb",
      "outputs": [
        {
          "internalType": "uint256",
          "name": "",
          "type": "uint256"
        }
      ],
      "stateMutability": "view",
      "type": "function"
    },
    {
      "inputs": [
        {
          "internalType": "uint256",
          "name": "_id",
          "type": "uint256"
        }
      ],
      "name": "getStudent",
      "outputs": [
        {
          "internalType": "string",
          "name": "",
          "type": "string"
        },
        {
          "internalType": "string",
          "name": "",
          "type": "string"
        },
        {
          "internalType": "uint256",
          "name": "",
          "type": "uint256"
        }
      ],
      "stateMutability": "view",
      "type": "function"
    },
    {
      "inputs": [],
      "name": "getStudentsIds",
      "outputs": [
        {
          "internalType": "uint256[]",
          "name": "",
          "type": "uint256[]"
        }
      ],
      "stateMutability": "view",
      "type": "function"
    },
    {
      "inputs": [
        {
          "internalType": "bytes32",
          "name": "roleHash",
          "type": "bytes32"
        },
        {
          "internalType": "address",
          "name": "target",
          "type": "address"
        },
        {
          "internalType": "bool",
          "name": "approve",
          "type": "bool"
        }
      ],
      "name": "grantAnyRole",
      "outputs": [],
      "stateMutability": "nonpayable",
      "type": "function"
    },
    {
      "inputs": [
        {
          "internalType": "bytes32",
          "name": "role",
          "type": "bytes32"
        },
        {
          "internalType": "address",
          "name": "account",
          "type": "address"
        }
      ],
      "name": "grantRole",
      "outputs": [],
      "stateMutability": "nonpayable",
      "type": "function"
    },
    {
      "inputs": [
        {
          "internalType": "bytes32",
          "name": "role",
          "type": "bytes32"
        },
        {
          "internalType": "address",
          "name": "account",
          "type": "address"
        }
      ],
      "name": "hasRole",
      "outputs": [
        {
          "internalType": "bool",
          "name": "",
          "type": "bool"
        }
      ],
      "stateMutability": "view",
      "type": "function"
    },
    {
      "inputs": [
        {
          "internalType": "bytes32",
          "name": "",
          "type": "bytes32"
        }
      ],
      "name": "multiSig",
      "outputs": [
        {
          "internalType": "bool",
          "name": "created",
          "type": "bool"
        },
        {
          "internalType": "bytes32",
          "name": "role",
          "type": "bytes32"
        },
        {
          "internalType": "uint8",
          "name": "count",
          "type": "uint8"
        },
        {
          "internalType": "uint8",
          "name": "id",
          "type": "uint8"
        },
        {
          "internalType": "string",
          "name": "info",
          "type": "string"
        }
      ],
      "stateMutability": "view",
      "type": "function"
    },
    {
      "inputs": [
        {
          "internalType": "uint256",
          "name": "",
          "type": "uint256"
        }
      ],
      "name": "multiSigId",
      "outputs": [
        {
          "internalType": "bytes32",
          "name": "",
          "type": "bytes32"
        }
      ],
      "stateMutability": "view",
      "type": "function"
    },
    {
      "inputs": [
        {
          "internalType": "uint256",
          "name": "_id",
          "type": "uint256"
        },
        {
          "internalType": "bool",
          "name": "_approve",
          "type": "bool"
        }
      ],
      "name": "removeStudentById",
      "outputs": [],
      "stateMutability": "nonpayable",
      "type": "function"
    },
    {
      "inputs": [
        {
          "internalType": "bytes32",
          "name": "",
          "type": "bytes32"
        },
        {
          "internalType": "address",
          "name": "",
          "type": "address"
        }
      ],
      "name": "renounceRole",
      "outputs": [],
      "stateMutability": "nonpayable",
      "type": "function"
    },
    {
      "inputs": [
        {
          "internalType": "bytes32",
          "name": "roleHash",
          "type": "bytes32"
        },
        {
          "internalType": "address",
          "name": "target",
          "type": "address"
        },
        {
          "internalType": "bool",
          "name": "approve",
          "type": "bool"
        }
      ],
      "name": "revokeAnyRole",
      "outputs": [],
      "stateMutability": "nonpayable",
      "type": "function"
    },
    {
      "inputs": [
        {
          "internalType": "bytes32",
          "name": "role",
          "type": "bytes32"
        },
        {
          "internalType": "address",
          "name": "account",
          "type": "address"
        }
      ],
      "name": "revokeRole",
      "outputs": [],
      "stateMutability": "nonpayable",
      "type": "function"
    },
    {
      "inputs": [
        {
          "internalType": "uint256",
          "name": "",
          "type": "uint256"
        }
      ],
      "name": "students",
      "outputs": [
        {
          "internalType": "uint256",
          "name": "id",
          "type": "uint256"
        },
        {
          "internalType": "string",
          "name": "firstname",
          "type": "string"
        },
        {
          "internalType": "string",
          "name": "lastname",
          "type": "string"
        },
        {
          "internalType": "uint256",
          "name": "birthdate",
          "type": "uint256"
        }
      ],
      "stateMutability": "view",
      "type": "function"
    },
    {
      "inputs": [
        {
          "internalType": "uint256",
          "name": "",
          "type": "uint256"
        }
      ],
      "name": "studentsIds",
      "outputs": [
        {
          "internalType": "uint256",
          "name": "",
          "type": "uint256"
        }
      ],
      "stateMutability": "view",
      "type": "function"
    },
    {
      "inputs": [
        {
          "internalType": "bytes4",
          "name": "interfaceId",
          "type": "bytes4"
        }
      ],
      "name": "supportsInterface",
      "outputs": [
        {
          "internalType": "bool",
          "name": "",
          "type": "bool"
        }
      ],
      "stateMutability": "view",
      "type": "function"
    }
  ],
  "bytecode": "0x60806040523480156200001157600080fd5b506040516200a4913803806200a49183398181016040528101906200003791906200099c565b620000536729779e5c28a44e9360c01b620007b660201b60201c565b6200006f67f412bf9358166fd460c01b620007b660201b60201c565b6200008b67313d4c2f5b61a9dc60c01b620007b660201b60201c565b620000a767b704fb86bf9b0ae560c01b620007b660201b60201c565b600073ffffffffffffffffffffffffffffffffffffffff168273ffffffffffffffffffffffffffffffffffffffff160362000119576040517f08c379a0000000000000000000000000000000000000000000000000000000008152600401620001109062000a6a565b60405180910390fd5b620001356744df0a3ad3ca1c7460c01b620007b660201b60201c565b62000151675753b4ffa8a3fbd660c01b620007b660201b60201c565b6200016d6730e331aa91c4f9bc60c01b620007b660201b60201c565b62000189674eb2a36fb681e6cf60c01b620007b660201b60201c565b600073ffffffffffffffffffffffffffffffffffffffff168173ffffffffffffffffffffffffffffffffffffffff1603620001fb576040517f08c379a0000000000000000000000000000000000000000000000000000000008152600401620001f29062000b02565b60405180910390fd5b6200021767f2e70cd0c63d2b6d60c01b620007b660201b60201c565b6200023367f20ecf405b91af1260c01b620007b660201b60201c565b6200024f67c54fde1e8f0ccf5460c01b620007b660201b60201c565b6200026b67842d536c92f2195b60c01b620007b660201b60201c565b8073ffffffffffffffffffffffffffffffffffffffff168273ffffffffffffffffffffffffffffffffffffffff1603620002dc576040517f08c379a0000000000000000000000000000000000000000000000000000000008152600401620002d39062000b9a565b60405180910390fd5b620002f8679f63132de969868060c01b620007b660201b60201c565b620003146735cccddcc702659760c01b620007b660201b60201c565b62000330679e95cee7fe6e926560c01b620007b660201b60201c565b620003627f4bbeb6fd3e5222e55f2f8b0c35bc228e0a06a25d0da772fdb02c3b92fa004f8883620007b960201b60201c565b6200037e67c0c333f011d1fa4e60c01b620007b660201b60201c565b6200039a670c161197cf5c060e60c01b620007b660201b60201c565b620003cc7f4bbeb6fd3e5222e55f2f8b0c35bc228e0a06a25d0da772fdb02c3b92fa004f8882620007cf60201b60201c565b620003e8678ae199c6bad6788260c01b620007b660201b60201c565b6040518060e00160405280600263ffffffff168152602001600260ff1663ffffffff168152602001600f60ff1663ffffffff168152602001605060ff168152602001605060ff1681526020017f4bbeb6fd3e5222e55f2f8b0c35bc228e0a06a25d0da772fdb02c3b92fa004f8881526020016040516020016200046b9062000c17565b604051602081830303815290604052620004859062000c77565b815250600360007f4bbeb6fd3e5222e55f2f8b0c35bc228e0a06a25d0da772fdb02c3b92fa004f88815260200190815260200160002060008201518160000160006101000a81548163ffffffff021916908363ffffffff16021790555060208201518160000160046101000a81548163ffffffff021916908363ffffffff16021790555060408201518160000160086101000a81548163ffffffff021916908363ffffffff160217905550606082015181600001600c6101000a81548160ff021916908360ff160217905550608082015181600001600d6101000a81548160ff021916908360ff16021790555060a0820151816001015560c08201518160020155905050620005a56725e8248393bb070b60c01b620007b660201b60201c565b620005c16779dbe9f023bdb8c260c01b620007b660201b60201c565b620005f47fd646ae07eb0d0f77457502a65e7407930dff4cd4fd99abc6aac87a753f4c8a426000620007b960201b60201c565b6200061067a32025a628d05e9260c01b620007b660201b60201c565b6040518060e00160405280600063ffffffff168152602001600063ffffffff168152602001600f60ff1663ffffffff168152602001605060ff168152602001605060ff1681526020017f4bbeb6fd3e5222e55f2f8b0c35bc228e0a06a25d0da772fdb02c3b92fa004f888152602001604051602001620006909062000d37565b604051602081830303815290604052620006aa9062000c77565b815250600360007fd646ae07eb0d0f77457502a65e7407930dff4cd4fd99abc6aac87a753f4c8a42815260200190815260200160002060008201518160000160006101000a81548163ffffffff021916908363ffffffff16021790555060208201518160000160046101000a81548163ffffffff021916908363ffffffff16021790555060408201518160000160086101000a81548163ffffffff021916908363ffffffff160217905550606082015181600001600c6101000a81548160ff021916908360ff160217905550608082015181600001600d6101000a81548160ff021916908360ff16021790555060a0820151816001015560c08201518160020155905050505062000d4e565b50565b620007cb8282620007cf60201b60201c565b5050565b620007e18282620008c060201b60201c565b620008bc57600160008084815260200190815260200160002060000160008373ffffffffffffffffffffffffffffffffffffffff1673ffffffffffffffffffffffffffffffffffffffff16815260200190815260200160002060006101000a81548160ff021916908315150217905550620008616200092a60201b60201c565b73ffffffffffffffffffffffffffffffffffffffff168173ffffffffffffffffffffffffffffffffffffffff16837f2f8788117e7eff1d82e926ec794901d17c78024a50270940304540a733656f0d60405160405180910390a45b5050565b600080600084815260200190815260200160002060000160008373ffffffffffffffffffffffffffffffffffffffff1673ffffffffffffffffffffffffffffffffffffffff16815260200190815260200160002060009054906101000a900460ff16905092915050565b600033905090565b600080fd5b600073ffffffffffffffffffffffffffffffffffffffff82169050919050565b6000620009648262000937565b9050919050565b620009768162000957565b81146200098257600080fd5b50565b60008151905062000996816200096b565b92915050565b60008060408385031215620009b657620009b562000932565b5b6000620009c68582860162000985565b9250506020620009d98582860162000985565b9150509250929050565b600082825260208201905092915050565b7f4365727469666965722061646d696e3120616464726573732063616e6e6f742060008201527f6265203000000000000000000000000000000000000000000000000000000000602082015250565b600062000a52602483620009e3565b915062000a5f82620009f4565b604082019050919050565b6000602082019050818103600083015262000a858162000a43565b9050919050565b7f4365727469666965722061646d696e3220616464726573732063616e6e6f742060008201527f6265203000000000000000000000000000000000000000000000000000000000602082015250565b600062000aea602483620009e3565b915062000af78262000a8c565b604082019050919050565b6000602082019050818103600083015262000b1d8162000adb565b9050919050565b7f436572746966696572206164647265737365732063616e6e6f7420626520746860008201527f652073616d650000000000000000000000000000000000000000000000000000602082015250565b600062000b82602683620009e3565b915062000b8f8262000b24565b604082019050919050565b6000602082019050818103600083015262000bb58162000b73565b9050919050565b600081905092915050565b7f4345525449464945525f41444d494e0000000000000000000000000000000000600082015250565b600062000bff600f8362000bbc565b915062000c0c8262000bc7565b600f82019050919050565b600062000c248262000bf0565b9150819050919050565b600081519050919050565b6000819050602082019050919050565b6000819050919050565b600062000c61825162000c49565b80915050919050565b600082821b905092915050565b600062000c848262000c2e565b8262000c908462000c39565b905062000c9d8162000c53565b9250602082101562000ce05762000cdb7fffffffffffffffffffffffffffffffffffffffffffffffffffffffffffffffff8360200360080262000c6a565b831692505b5050919050565b7f4345525449464945520000000000000000000000000000000000000000000000600082015250565b600062000d1f60098362000bbc565b915062000d2c8262000ce7565b600982019050919050565b600062000d448262000d10565b9150819050919050565b6197338062000d5e6000396000f3fe608060405234801561001057600080fd5b50600436106102485760003560e01c80637cd29fb71161013b578063b86bc74f116100b8578063d547741f1161007c578063d547741f14610750578063d911f5531461076c578063df3a12dd146107a0578063e05f2fb4146107d0578063e5a357f5146107ee57610248565b8063b86bc74f146106ac578063bf802091146106ca578063c9dbcfda146106fa578063d0fb68c714610716578063d3243ad81461073457610248565b80639e339909116100ff5780639e33990914610608578063a1cebf5214610626578063a217fddf14610642578063a3eabd3d14610660578063ace819101461069057610248565b80637cd29fb71461053b5780638856a0e9146105595780638e82d0e71461057557806391d14854146105a85780639dd09a73146105d857610248565b806333b72e49116101c95780635907ebea1161018d5780635907ebea1461047c578063642f91631461049a5780636bc6421b146104cc578063719129be146104ea578063742f06881461050657610248565b806333b72e49146103d657806336568abe146103f4578063461c71b2146104105780634cce913b1461042e5780634da11a201461045e57610248565b80631a968069116102105780631a9680691461031a5780631a9cfe281461034e578063248a9ca31461036c5780632cd94e4f1461039c5780632f2ff15d146103ba57610248565b806301ffc9a71461024d57806305f84d451461027d57806306ead22e146102995780630f68794a146102cc57806312ac167c146102ea575b600080fd5b61026760048036038101906102629190616f2a565b61081e565b6040516102749190616f72565b60405180910390f35b61029760048036038101906102929190616fef565b610898565b005b6102b360048036038101906102ae919061702f565b610f8e565b6040516102c394939291906170fb565b60405180910390f35b6102d46110ce565b6040516102e1919061716a565b60405180910390f35b61030460048036038101906102ff91906171e3565b6110d3565b6040516103119190617210565b60405180910390f35b610334600480360381019061032f9190617268565b61150a565b6040516103459594939291906172a4565b60405180910390f35b6103566115ef565b604051610363919061716a565b60405180910390f35b61038660048036038101906103819190617268565b6115f4565b60405161039391906172fe565b60405180910390f35b6103a4611613565b6040516103b1919061716a565b60405180910390f35b6103d460048036038101906103cf9190617319565b611618565b005b6103de611639565b6040516103eb919061716a565b60405180910390f35b61040e60048036038101906104099190617319565b61163e565b005b6104186116b5565b6040516104259190617417565b60405180910390f35b61044860048036038101906104439190617439565b611749565b60405161045591906172fe565b60405180910390f35b61046661177a565b604051610473919061716a565b60405180910390f35b61048461177f565b604051610491919061716a565b60405180910390f35b6104b460048036038101906104af919061702f565b611784565b6040516104c393929190617479565b60405180910390f35b6104d46119d6565b6040516104e1919061716a565b60405180910390f35b61050460048036038101906104ff91906174be565b6119db565b005b610520600480360381019061051b9190617268565b612248565b60405161053296959493929190617618565b60405180910390f35b6105436122b8565b604051610550919061716a565b60405180910390f35b610573600480360381019061056e91906176e8565b6122bd565b005b61058f600480360381019061058a91906171e3565b612d59565b60405161059f9493929190617aa9565b60405180910390f35b6105c260048036038101906105bd9190617319565b61323c565b6040516105cf9190616f72565b60405180910390f35b6105f260048036038101906105ed919061702f565b6132a6565b6040516105ff91906172fe565b60405180910390f35b6106106132be565b60405161061d919061716a565b60405180910390f35b610640600480360381019061063b9190617c3f565b6132c3565b005b61064a6136c1565b60405161065791906172fe565b60405180910390f35b61067a60048036038101906106759190617268565b6136c8565b6040516106879190617cde565b60405180910390f35b6106aa60048036038101906106a591906176e8565b61373a565b005b6106b461419b565b6040516106c191906172fe565b60405180910390f35b6106e460048036038101906106df9190617439565b6141bf565b6040516106f19190617cde565b60405180910390f35b610714600480360381019061070f9190617c3f565b6142bc565b005b61071e6144ff565b60405161072b919061716a565b60405180910390f35b61074e600480360381019061074991906174be565b614504565b005b61076a60048036038101906107659190617319565b6150b1565b005b61078660048036038101906107819190617268565b6150d2565b604051610797959493929190617cf9565b60405180910390f35b6107ba60048036038101906107b5919061702f565b6152b3565b6040516107c79190617cde565b60405180910390f35b6107d86152d7565b6040516107e591906172fe565b60405180910390f35b6108086004803603810190610803919061702f565b6152fb565b6040516108159190617d4c565b60405180910390f35b60007f7965db0b000000000000000000000000000000000000000000000000000000007bffffffffffffffffffffffffffffffffffffffffffffffffffffffff1916827bffffffffffffffffffffffffffffffffffffffffffffffffffffffff1916148061089157506108908261544b565b5b9050919050565b6108ac67fc92d0035d00688e60c01b6154b5565b6108c067e5a91bfc65f0c4b160c01b6154b5565b6108d4674900a3687504079c60c01b6154b5565b6108e8674fce23ae6bb9dc7f60c01b6154b5565b6109127fd646ae07eb0d0f77457502a65e7407930dff4cd4fd99abc6aac87a753f4c8a423361323c565b610951576040517f08c379a000000000000000000000000000000000000000000000000000000000815260040161094890617dba565b60405180910390fd5b61096567a37f82e1ae7b555d60c01b6154b5565b61097967db9f0c54e294074460c01b6154b5565b61098d67e392881a64b85dd960c01b6154b5565b6109a1673b69b5f7da0fc98560c01b6154b5565b600082116109e4576040517f08c379a00000000000000000000000000000000000000000000000000000000081526004016109db90617e26565b60405180910390fd5b6109f86739878fdc39193a5c60c01b6154b5565b610a0c67efd429d53dea246260c01b6154b5565b610a2067ef5c68bad402a4e060c01b6154b5565b610a3467b55b9f6d9d1026af60c01b6154b5565b6000600160008481526020019081526020016000206000015403610a8d576040517f08c379a0000000000000000000000000000000000000000000000000000000008152600401610a8490617e92565b60405180910390fd5b610aa167c7765049f91a4ef760c01b6154b5565b610ab567a6d489319a22f36060c01b6154b5565b610ac967a5644b271bdebd0560c01b6154b5565b600082604051602001610adc9190617f2a565b604051602081830303815290604052805190602001209050610b086773766d50c37ae17460c01b6154b5565b610b1c678b979d26b761488e60c01b6154b5565b610b6e817fd646ae07eb0d0f77457502a65e7407930dff4cd4fd99abc6aac87a753f4c8a42610b4a866154b8565b604051602001610b5a9190617fa7565b604051602081830303815290604052615586565b610b82674773b74ca2dfd97760c01b6154b5565b610b96673a3c8e3b93c77fd760c01b6154b5565b818015610c075750600015156004600083815260200190815260200160002060030160003373ffffffffffffffffffffffffffffffffffffffff1673ffffffffffffffffffffffffffffffffffffffff16815260200190815260200160002060009054906101000a900460ff161515145b15610cc857610c2067de5b5a61926c36c960c01b6154b5565b610c3467fba333423761151560c01b6154b5565b610c4867a458fc201c41f2eb60c01b6154b5565b610c64600460008381526020019081526020016000203361572a565b610c786732e4132dad12190060c01b6154b5565b610c8c675903462ab1321cac60c01b6154b5565b7fb431a69783a2491a0c400ff16dab32cd442abf8fe5af63a526a7248d730192f881604051610cbb91906172fe565b60405180910390a1610dce565b610cdc6795a317ec06f83c1060c01b6154b5565b610cf067b1d4635b098ce77a60c01b6154b5565b6000151582151503610db857610d1067a0b843672511ab5560c01b6154b5565b610d24677c7927e4b5bd48f460c01b6154b5565b610d3867a4ebbaf8faac82d260c01b6154b5565b610d5460046000838152602001908152602001600020336159ac565b610d686797b47e77a9a7b3fc60c01b6154b5565b610d7c67758438fa606727d960c01b6154b5565b7fb431a69783a2491a0c400ff16dab32cd442abf8fe5af63a526a7248d730192f881604051610dab91906172fe565b60405180910390a1610dcd565b610dcc67589e0c39053cad2660c01b6154b5565b5b5b610de26759de4f2a505f6c6d60c01b6154b5565b610df6676d4a2d08a14ea23160c01b6154b5565b610e5c605060ff16600360007fd646ae07eb0d0f77457502a65e7407930dff4cd4fd99abc6aac87a753f4c8a42815260200190815260200160002060000160009054906101000a900463ffffffff16610e4f919061800c565b63ffffffff1660646141bf565b6004600083815260200190815260200160002060020160009054906101000a900460ff1660ff1610610f7457610e9c67c3b37424d9c469d060c01b6154b5565b610eb067740ce2464856c2b360c01b6154b5565b610ec4676ae93f6bf114c2f760c01b6154b5565b610edf60046000838152602001908152602001600020615b64565b610ef3677a7ed0c4e584401460c01b6154b5565b610f076745d4f9869d13660b60c01b6154b5565b7f562618dbcf74b61ae5b0f229fe40ba6d5b6ae6b4248f8c89a870dda7c77135f681604051610f3691906172fe565b60405180910390a1610f52671cbdd7add0b2dd5c60c01b6154b5565b610f6667f2a3b9ba0bc2281e60c01b6154b5565b610f6f83615cb1565b610f89565b610f88679859be0913bc1e1760c01b6154b5565b5b505050565b6001602052806000526040600020600091509050806000015490806001018054610fb790618078565b80601f0160208091040260200160405190810160405280929190818152602001828054610fe390618078565b80156110305780601f1061100557610100808354040283529160200191611030565b820191906000526020600020905b81548152906001019060200180831161101357829003601f168201915b50505050509080600201805461104590618078565b80601f016020809104026020016040519081016040528092919081815260200182805461107190618078565b80156110be5780601f10611093576101008083540402835291602001916110be565b820191906000526020600020905b8154815290600101906020018083116110a157829003601f168201915b5050505050908060030154905084565b605081565b60606110e967c6c2a97e3fce25a460c01b615e93565b6110fd678b9003f64629527160c01b615e93565b611111679a3115c808db295760c01b615e93565b60008273ffffffffffffffffffffffffffffffffffffffff1660001b905061114367de4b0ed40e05566460c01b615e93565b6111576710d85f562cda14c460c01b615e93565b60006040518060400160405280601081526020017f303132333435363738396162636465660000000000000000000000000000000081525090506111a567340afe87cd14d3fb60c01b615e93565b6111b967fdcf0d66da28a43660c01b615e93565b6000602a67ffffffffffffffff8111156111d6576111d5617b14565b5b6040519080825280601f01601f1916602001820160405280156112085781602001600182028036833780820191505090505b50905061121f67fab9f092363f74b060c01b615e93565b7f300000000000000000000000000000000000000000000000000000000000000081600081518110611254576112536180a9565b5b60200101907effffffffffffffffffffffffffffffffffffffffffffffffffffffffffffff1916908160001a90535061129767ed9fcec2dd0e556260c01b615e93565b7f7800000000000000000000000000000000000000000000000000000000000000816001815181106112cc576112cb6180a9565b5b60200101907effffffffffffffffffffffffffffffffffffffffffffffffffffffffffffff1916908160001a90535061130f67da9c01a3a26884fc60c01b615e93565b61132367cee081367d156c8b60c01b615e93565b60005b60148110156114d6576113436725a4132e77404c0b60c01b615e93565b82600485600c8461135491906180d8565b60208110611365576113646180a9565b5b1a60f81b7effffffffffffffffffffffffffffffffffffffffffffffffffffffffffffff1916901c60f81c60ff16815181106113a4576113a36180a9565b5b602001015160f81c60f81b826002836113bd919061810c565b60026113c991906180d8565b815181106113da576113d96180a9565b5b60200101907effffffffffffffffffffffffffffffffffffffffffffffffffffffffffffff1916908160001a90535061141d6770a8741b582a334060c01b615e93565b82600f60f81b85600c8461143191906180d8565b60208110611442576114416180a9565b5b1a60f81b1660f81c60ff168151811061145e5761145d6180a9565b5b602001015160f81c60f81b82600283611477919061810c565b600361148391906180d8565b81518110611494576114936180a9565b5b60200101907effffffffffffffffffffffffffffffffffffffffffffffffffffffffffffff1916908160001a90535080806114ce9061814e565b915050611326565b506114eb67e337d3bb0e02809d60c01b615e93565b6114ff679f8efc402a44a4f960c01b615e93565b809350505050919050565b60046020528060005260406000206000915090508060000160009054906101000a900460ff16908060010154908060020160009054906101000a900460ff16908060020160019054906101000a900460ff169080600501805461156c90618078565b80601f016020809104026020016040519081016040528092919081815260200182805461159890618078565b80156115e55780601f106115ba576101008083540402835291602001916115e5565b820191906000526020600020905b8154815290600101906020018083116115c857829003601f168201915b5050505050905085565b605081565b6000806000838152602001908152602001600020600101549050919050565b605081565b611621826115f4565b61162a81615e96565b6116348383615eaa565b505050565b600281565b61165267515d414290ef63a760c01b6154b5565b61166667408d4005470649cf60c01b6154b5565b61167a679c54a3cc10a34a3d60c01b6154b5565b6040517f08c379a00000000000000000000000000000000000000000000000000000000081526004016116ac90618208565b60405180910390fd5b60606116cb67efa82b5968256cc060c01b615f8a565b6116df67803a291d8ae6799f60c01b615f8a565b6116f367f3df4483e82d4c8d60c01b615f8a565b600280548060200260200160405190810160405280929190818152602001828054801561173f57602002820191906000526020600020905b81548152602001906001019080831161172b575b5050505050905090565b6008602052816000526040600020818154811061176557600080fd5b90600052602060002001600091509150505481565b605081565b600f81565b606080600061179d677cdb6ef5cbed1e3d60c01b615f8a565b6117b1677f0cceaac7cfa9ce60c01b615f8a565b6117c567d24e39081913322960c01b615f8a565b6117d9677be0137893f7d8be60c01b615f8a565b6000600160008681526020019081526020016000206000015403611832576040517f08c379a000000000000000000000000000000000000000000000000000000000815260040161182990618274565b60405180910390fd5b611846675cd447a5b617b78060c01b615f8a565b61185a67c2ba5ce93628c4d360c01b615f8a565b61186e67085df455a24fa24860c01b615f8a565b600160008581526020019081526020016000206001016001600086815260200190815260200160002060020160016000878152602001908152602001600020600301548280546118bd90618078565b80601f01602080910402602001604051908101604052809291908181526020018280546118e990618078565b80156119365780601f1061190b57610100808354040283529160200191611936565b820191906000526020600020905b81548152906001019060200180831161191957829003601f168201915b5050505050925081805461194990618078565b80601f016020809104026020016040519081016040528092919081815260200182805461197590618078565b80156119c25780601f10611997576101008083540402835291602001916119c2565b820191906000526020600020905b8154815290600101906020018083116119a557829003601f168201915b505050505091509250925092509193909250565b603381565b6119ef67928b579f6f77d60a60c01b6154b5565b611a03671eafb37a2fea50c360c01b6154b5565b611a17671c760441a51f00fe60c01b6154b5565b6000600360008581526020019081526020016000209050611a4267019381ea2a143a2660c01b6154b5565b611a5667bf6825f8b726169f60c01b6154b5565b611a6a674346da88ac06a84360c01b6154b5565b8060000160009054906101000a900463ffffffff1663ffffffff168160000160089054906101000a900463ffffffff1663ffffffff16118160020154604051602001611ab691906182b5565b604051602081830303815290604052604051602001611ad5919061831c565b60405160208183030381529060405290611b25576040517f08c379a0000000000000000000000000000000000000000000000000000000008152600401611b1c9190617210565b60405180910390fd5b50611b3a6739aba34486adf0da60c01b6154b5565b611b4e670a6059053a04f96460c01b6154b5565b611b6267ae953caa734ab3b060c01b6154b5565b611b7667f5900fc41a1b03e060c01b6154b5565b611b8481600101543361323c565b8160020154604051602001611b9991906182b5565b604051602081830303815290604052604051602001611bb8919061839d565b60405160208183030381529060405290611c08576040517f08c379a0000000000000000000000000000000000000000000000000000000008152600401611bff9190617210565b60405180910390fd5b50611c1d678f048ba93c318bdf60c01b6154b5565b611c3167eabba9f8cd63b62060c01b6154b5565b611c4567a6b100261d7ca0a160c01b6154b5565b611c59677c8571a546cd703b60c01b6154b5565b60001515611c67858561323c565b1515148160020154604051602001611c7f91906182b5565b604051602081830303815290604052604051602001611c9e91906183f8565b60405160208183030381529060405290611cee576040517f08c379a0000000000000000000000000000000000000000000000000000000008152600401611ce59190617210565b60405180910390fd5b50611d03676174d0f42c37649a60c01b6154b5565b611d17672212cda1dcb9ea1260c01b6154b5565b611d2b67a83a11a74eb277ae60c01b6154b5565b60008385604051602001611d409291906184b2565b604051602081830303815290604052805190602001209050611d6c6706ddd2fa1476c45260c01b6154b5565b611d8067476c17a0b8385f1760c01b6154b5565b611ddb8183600101548460020154604051602001611d9e91906182b5565b604051602081830303815290604052611db6886110d3565b604051602001611dc7929190618535565b604051602081830303815290604052615586565b611def671c07e5a9226be91660c01b6154b5565b611e036707862d5c1055513b60c01b6154b5565b828015611e745750600015156004600083815260200190815260200160002060030160003373ffffffffffffffffffffffffffffffffffffffff1673ffffffffffffffffffffffffffffffffffffffff16815260200190815260200160002060009054906101000a900460ff161515145b15611f3557611e8d6792f115933ddba31c60c01b6154b5565b611ea167f700b95d536177f360c01b6154b5565b611eb56782a82f6f1bd2c11660c01b6154b5565b611ed1600460008381526020019081526020016000203361572a565b611ee5672e2eef9c059dc20760c01b6154b5565b611ef9672071df197b17f30b60c01b6154b5565b7fb431a69783a2491a0c400ff16dab32cd442abf8fe5af63a526a7248d730192f881604051611f2891906172fe565b60405180910390a161203b565b611f496707b5a83c26feac2860c01b6154b5565b611f5d67d285a5263ec8e0f560c01b6154b5565b600015158315150361202557611f7d6705e4cbcc73c151f360c01b6154b5565b611f916760f35a062167334760c01b6154b5565b611fa5676596486d69562b7760c01b6154b5565b611fc160046000838152602001908152602001600020336159ac565b611fd567acefc79e49d8d98e60c01b6154b5565b611fe9670f1dd76d34c817f860c01b6154b5565b7fb431a69783a2491a0c400ff16dab32cd442abf8fe5af63a526a7248d730192f88160405161201891906172fe565b60405180910390a161203a565b612039676751378d318e7c4060c01b6154b5565b5b5b61204f674f87efa02c74e0f260c01b6154b5565b61206367df9346bf5f7ff81560c01b6154b5565b6120bd82600001600c9054906101000a900460ff1660ff16600360008560010154815260200190815260200160002060000160009054906101000a900463ffffffff166120b0919061800c565b63ffffffff1660646141bf565b6004600083815260200190815260200160002060020160009054906101000a900460ff1660ff161061222c576120fd6735dc9d0c045e8dea60c01b6154b5565b61211167b7dbf79ddba2cab760c01b6154b5565b61212567825657e0d56be41860c01b6154b5565b61214060046000838152602001908152602001600020615b64565b61215467dad7eba3d5ea0fc560c01b6154b5565b612168673d21f2ecda879ac760c01b6154b5565b7f562618dbcf74b61ae5b0f229fe40ba6d5b6ae6b4248f8c89a870dda7c77135f68160405161219791906172fe565b60405180910390a16121b367febe2105280dea4660c01b6154b5565b6121c767198f1e6710f1936360c01b6154b5565b6121d18585615eaa565b6121e56708fddfcc5363932f60c01b6154b5565b60018260000160008282829054906101000a900463ffffffff166122099190618577565b92506101000a81548163ffffffff021916908363ffffffff160217905550612241565b61224067ee4a48e3db8a324560c01b6154b5565b5b5050505050565b60076020528060005260406000206000915090508060000160009054906101000a900460ff16908060000160019054906101000a900460ff16908060000160029054906101000a900460ff16908060010154908060020160009054906101000a900460ff16908060030154905086565b605081565b6122d167bdf8a12455256e9760c01b6154b5565b6122e567ed9c0b858915e64660c01b6154b5565b6122f967649bd458a200725760c01b6154b5565b61230d670b6b16ea080ccdb260c01b6154b5565b6123377fd646ae07eb0d0f77457502a65e7407930dff4cd4fd99abc6aac87a753f4c8a423361323c565b612376576040517f08c379a000000000000000000000000000000000000000000000000000000000815260040161236d90617dba565b60405180910390fd5b61238a67689b85ae64f251bf60c01b6154b5565b61239e6735e2a6e6763de1be60c01b6154b5565b6123b26709e04ae92e1584c060c01b6154b5565b6123c6672117bb302f321a4960c01b6154b5565b600060016000878152602001908152602001600020600001540361241f576040517f08c379a000000000000000000000000000000000000000000000000000000000815260040161241690617e92565b60405180910390fd5b61243367918f30a7fad8441260c01b6154b5565b612447679d26a0bcae16f15560c01b6154b5565b61245b6762560a22786c9d8960c01b6154b5565b61246f676ad05dd6ad0c5e8e60c01b6154b5565b6000600381111561248357612482617511565b5b84600381111561249657612495617511565b5b101580156124c857506003808111156124b2576124b1617511565b5b8460038111156124c5576124c4617511565b5b11155b612507576040517f08c379a00000000000000000000000000000000000000000000000000000000081526004016124fe906185fb565b60405180910390fd5b61251b67b018fb771a8f126a60c01b6154b5565b61252f673838e17e05cad86e60c01b6154b5565b612543673b992ef7312a36a260c01b6154b5565b61255767d1937d9a9d9ede4b60c01b6154b5565b6000600281111561256b5761256a617511565b5b83600281111561257e5761257d617511565b5b101580156125b0575060028081111561259a57612599617511565b5b8360028111156125ad576125ac617511565b5b11155b6125ef576040517f08c379a00000000000000000000000000000000000000000000000000000000081526004016125e690618667565b60405180910390fd5b61260367eba93d2f1c3a372560c01b6154b5565b61261767e583d3490fb5c11a60c01b6154b5565b61262b6703c216aef0914c7d60c01b6154b5565b61263f67e929230dacd39fc460c01b6154b5565b6000600f81111561265357612652617511565b5b82600f81111561266657612665617511565b5b101580156126985750600f8081111561268257612681617511565b5b82600f81111561269557612694617511565b5b11155b6126d7576040517f08c379a00000000000000000000000000000000000000000000000000000000081526004016126ce906186d3565b60405180910390fd5b6126eb67f0423ad893494d1f60c01b6154b5565b6126ff670e4635f8420cba4d60c01b6154b5565b61271367a8f356ae64e80fb260c01b6154b5565b6127276787081979864afeae60c01b6154b5565b6001151560076000878787876040516020016127469493929190618757565b60405160208183030381529060405280519060200120815260200190815260200160002060020160009054906101000a900460ff161515146127bd576040517f08c379a00000000000000000000000000000000000000000000000000000000081526004016127b4906187f1565b60405180910390fd5b6127d1677547dde3e6de66c160c01b6154b5565b6127e56776a3d74fa8fa545760c01b6154b5565b6127f9674ed9ea8c9338f00060c01b6154b5565b600085858585604051602001612812949392919061885d565b60405160208183030381529060405280519060200120905061283e679baa3422236fc69f60c01b6154b5565b61285267c5044043363bb23760c01b6154b5565b6128f8817fd646ae07eb0d0f77457502a65e7407930dff4cd4fd99abc6aac87a753f4c8a42612880896154b8565b61289b89600381111561289657612895617511565b5b6154b8565b6128b68960028111156128b1576128b0617511565b5b6154b8565b6128d189600f8111156128cc576128cb617511565b5b6154b8565b6040516020016128e494939291906188dc565b604051602081830303815290604052615586565b61290c67bfc6b0f370d7024960c01b6154b5565b612920679ccb8433f30b7f6160c01b6154b5565b8180156129915750600015156004600083815260200190815260200160002060030160003373ffffffffffffffffffffffffffffffffffffffff1673ffffffffffffffffffffffffffffffffffffffff16815260200190815260200160002060009054906101000a900460ff161515145b15612a52576129aa670842a97201189b8b60c01b6154b5565b6129be67ca8d401c43f5f9d760c01b6154b5565b6129d267e22dcaa2865f121160c01b6154b5565b6129ee600460008381526020019081526020016000203361572a565b612a02674aba95960958e73260c01b6154b5565b612a166730249e749f45b5e460c01b6154b5565b7fb431a69783a2491a0c400ff16dab32cd442abf8fe5af63a526a7248d730192f881604051612a4591906172fe565b60405180910390a1612b58565b612a6667374dfd98b823c8cf60c01b6154b5565b612a7a6720270532058f02e560c01b6154b5565b6000151582151503612b4257612a9a679e04f1a5c5bda7df60c01b6154b5565b612aae67d618060faf473a2a60c01b6154b5565b612ac26759aacab69e3a1cf860c01b6154b5565b612ade60046000838152602001908152602001600020336159ac565b612af2671f8604b2e035df8c60c01b6154b5565b612b06674341521415b393ff60c01b6154b5565b7fb431a69783a2491a0c400ff16dab32cd442abf8fe5af63a526a7248d730192f881604051612b3591906172fe565b60405180910390a1612b57565b612b56673abda3db58ee88d660c01b6154b5565b5b5b612b6c67d0a65ecdfb35759e60c01b6154b5565b612b8067fecb9a5516d562ad60c01b6154b5565b612be6605060ff16600360007fd646ae07eb0d0f77457502a65e7407930dff4cd4fd99abc6aac87a753f4c8a42815260200190815260200160002060000160009054906101000a900463ffffffff16612bd9919061800c565b63ffffffff1660646141bf565b6004600083815260200190815260200160002060020160009054906101000a900460ff1660ff1610612d3c57612c266711522e4c80b8acf560c01b6154b5565b612c3a675a87c8131b0f347660c01b6154b5565b612c4e67b52e37c57f13f03660c01b6154b5565b612c6960046000838152602001908152602001600020615b64565b612c7d67c6bc374fa7feff0160c01b6154b5565b612c916786ac1e62d24a349860c01b6154b5565b7f562618dbcf74b61ae5b0f229fe40ba6d5b6ae6b4248f8c89a870dda7c77135f681604051612cc091906172fe565b60405180910390a1612cdc679e5c2cdd766b16de60c01b6154b5565b60006007600088888888604051602001612cf99493929190618757565b60405160208183030381529060405280519060200120815260200190815260200160002060020160006101000a81548160ff021916908315150217905550612d51565b612d506753aaaf9320fe18fd60c01b6154b5565b5b505050505050565b606080606080612d73677338a703ca5a2a9660c01b6154b5565b612d87673b1e688b7d79d00d60c01b6154b5565b612d9b676bea465bb441461060c01b6154b5565b600060065467ffffffffffffffff811115612db957612db8617b14565b5b604051908082528060200260200182016040528015612dec57816020015b6060815260200190600190039081612dd75790505b509050612e0367e8c1fa74bacd7fbb60c01b6154b5565b612e17671f5319feb6477e3560c01b6154b5565b600060065467ffffffffffffffff811115612e3557612e34617b14565b5b604051908082528060200260200182016040528015612e635781602001602082028036833780820191505090505b509050612e7a67f438d58dfb1be18260c01b6154b5565b612e8e678ef10dcaeac9036f60c01b6154b5565b600060065467ffffffffffffffff811115612eac57612eab617b14565b5b604051908082528060200260200182016040528015612eda5781602001602082028036833780820191505090505b509050612ef16735f2056c8483d80460c01b6154b5565b612f0567c187d7d65cf65af260c01b6154b5565b600060065467ffffffffffffffff811115612f2357612f22617b14565b5b604051908082528060200260200182016040528015612f515781602001602082028036833780820191505090505b509050612f6867ade7a62c071e519d60c01b6154b5565b612f7c675439b2c4cd16482360c01b6154b5565b60005b6006548110156131fc57612f9d672f6377f918fc3e7460c01b6154b5565b60046000600560008481526020019081526020016000205481526020019081526020016000206005018054612fd190618078565b80601f0160208091040260200160405190810160405280929190818152602001828054612ffd90618078565b801561304a5780601f1061301f5761010080835404028352916020019161304a565b820191906000526020600020905b81548152906001019060200180831161302d57829003601f168201915b5050505050858281518110613062576130616180a9565b5b60200260200101819052506130816762c646c22c573f3e60c01b6154b5565b600460006005600084815260200190815260200160002054815260200190815260200160002060020160009054906101000a900460ff168482815181106130cb576130ca6180a9565b5b602002602001019060ff16908160ff16815250506130f367220ad4741fc3df5d60c01b6154b5565b6004600060056000848152602001908152602001600020548152602001908152602001600020600101548382815181106131305761312f6180a9565b5b6020026020010181815250506131506799a0b0988af0867760c01b6154b5565b600460006005600084815260200190815260200160002054815260200190815260200160002060030160008b73ffffffffffffffffffffffffffffffffffffffff1673ffffffffffffffffffffffffffffffffffffffff16815260200190815260200160002060009054906101000a900460ff168282815181106131d7576131d66180a9565b5b60200260200101901515908115158152505080806131f49061814e565b915050612f7f565b50613211675d49ac61be8ebd7160c01b6154b5565b61322567ac18a9a1ec69e6b860c01b6154b5565b818385839750975097509750505050509193509193565b600080600084815260200190815260200160002060000160008373ffffffffffffffffffffffffffffffffffffffff1673ffffffffffffffffffffffffffffffffffffffff16815260200190815260200160002060009054906101000a900460ff16905092915050565b60056020528060005260406000206000915090505481565b600f81565b6132d767f194d1ffc0447ea960c01b6154b5565b6132eb6789a333387d41a6b660c01b6154b5565b6132ff675da07d83cb2bab9d60c01b6154b5565b61331367f25ac83becfb3ba860c01b6154b5565b61333d7fd646ae07eb0d0f77457502a65e7407930dff4cd4fd99abc6aac87a753f4c8a423361323c565b61337c576040517f08c379a000000000000000000000000000000000000000000000000000000000815260040161337390617dba565b60405180910390fd5b61339067386935278dae822660c01b6154b5565b6133a467ccb3b5b8af78b2cb60c01b6154b5565b6133b867e0f5824ede3cb57d60c01b6154b5565b6133cc67f4b14bead3785a6660c01b6154b5565b6000841161340f576040517f08c379a000000000000000000000000000000000000000000000000000000000815260040161340690617e26565b60405180910390fd5b6134236743d8ba5b87e2e64860c01b6154b5565b613437675882f3b1b847165d60c01b6154b5565b61344b67ec6dbc09e6a8d3c360c01b6154b5565b61345f6787fec01562de0d7760c01b6154b5565b60008351116134a3576040517f08c379a000000000000000000000000000000000000000000000000000000000815260040161349a906189a2565b60405180910390fd5b6134b767b815fa764d360f8060c01b6154b5565b6134cb676c848ca2d28cc2e760c01b6154b5565b6134df6762a5c10409c68fa660c01b6154b5565b6134f36767be7bcfb8b646a360c01b6154b5565b6000825111613537576040517f08c379a000000000000000000000000000000000000000000000000000000000815260040161352e90618a0e565b60405180910390fd5b61354b67ab4b51ef7195398660c01b6154b5565b61355f6745513953a8aaed3b60c01b6154b5565b61357367a0247630c45fc01060c01b6154b5565b61358767cb56c9dffef6c09b60c01b6154b5565b600081116135ca576040517f08c379a00000000000000000000000000000000000000000000000000000000081526004016135c190618a7a565b60405180910390fd5b6135de670f6c466182e7daf460c01b6154b5565b6135f26796af1b9e171f5d0c60c01b6154b5565b613606676ea5a5cfdd40ca7760c01b6154b5565b61361a6734c805801ad925b460c01b6154b5565b6000600160008681526020019081526020016000206000015414613673576040517f08c379a000000000000000000000000000000000000000000000000000000000815260040161366a90618ae6565b60405180910390fd5b61368767de2808851ea8535860c01b6154b5565b61369b677ab469cc82d327c160c01b6154b5565b6136af6734fccb1c2034803560c01b6154b5565b6136bb84848484615f8d565b50505050565b6000801b81565b60006136de67698bf9a5753ef89160c01b6154b5565b6136f2674a780f79854977d860c01b6154b5565b6137066769ad2177cecd222f60c01b6154b5565b6003600083815260200190815260200160002060000160009054906101000a900463ffffffff1663ffffffff169050919050565b61374e6701dc47e9dc7e2d4960c01b6154b5565b61376267e00c6e3f0d9a678b60c01b6154b5565b61377667211496b55cb50cff60c01b6154b5565b61378a67fa27c246eee8a08b60c01b6154b5565b6137b47fd646ae07eb0d0f77457502a65e7407930dff4cd4fd99abc6aac87a753f4c8a423361323c565b6137f3576040517f08c379a00000000000000000000000000000000000000000000000000000000081526004016137ea90617dba565b60405180910390fd5b61380767ba7a7d4f3ff1ed8260c01b6154b5565b61381b6719a84e662ed6d2e460c01b6154b5565b61382f67553b9ae776c1ac0760c01b6154b5565b6138436776e3a440f346f78b60c01b6154b5565b600060016000878152602001908152602001600020600001540361389c576040517f08c379a000000000000000000000000000000000000000000000000000000000815260040161389390617e92565b60405180910390fd5b6138b0672fe19dd197ae71b760c01b6154b5565b6138c4674dadad20973e5e5d60c01b6154b5565b6138d867dcfd845b2fe814ee60c01b6154b5565b6138ec6787c8ea0feda3ada560c01b6154b5565b60006003811115613900576138ff617511565b5b84600381111561391357613912617511565b5b10158015613945575060038081111561392f5761392e617511565b5b84600381111561394257613941617511565b5b11155b613984576040517f08c379a000000000000000000000000000000000000000000000000000000000815260040161397b906185fb565b60405180910390fd5b61399867124f1dad53c69bc560c01b6154b5565b6139ac676e8d3572b8c8ba0b60c01b6154b5565b6139c067ec4e2bcd0646233360c01b6154b5565b6139d46771868017dd9ea9a260c01b6154b5565b600060028111156139e8576139e7617511565b5b8360028111156139fb576139fa617511565b5b10158015613a2d5750600280811115613a1757613a16617511565b5b836002811115613a2a57613a29617511565b5b11155b613a6c576040517f08c379a0000000000000000000000000000000000000000000000000000000008152600401613a6390618667565b60405180910390fd5b613a8067ab1bd67fcc0dc4e660c01b6154b5565b613a946714693ce83117a4a660c01b6154b5565b613aa8671ee91d41820de70160c01b6154b5565b613abc6765714ee521157c1660c01b6154b5565b6000600f811115613ad057613acf617511565b5b82600f811115613ae357613ae2617511565b5b10158015613b155750600f80811115613aff57613afe617511565b5b82600f811115613b1257613b11617511565b5b11155b613b54576040517f08c379a0000000000000000000000000000000000000000000000000000000008152600401613b4b906186d3565b60405180910390fd5b613b6867647b5b224d6b094960c01b6154b5565b613b7c6765b7e103c94a229d60c01b6154b5565b613b906712792db49bd8000860c01b6154b5565b613ba4673a5a274be22801d260c01b6154b5565b600015156007600087878787604051602001613bc39493929190618757565b60405160208183030381529060405280519060200120815260200190815260200160002060020160009054906101000a900460ff16151514613c3a576040517f08c379a0000000000000000000000000000000000000000000000000000000008152600401613c3190618b52565b60405180910390fd5b613c4e67493634455e2d80e960c01b6154b5565b613c62671175e050037a7c2760c01b6154b5565b613c76675137f0b970b59aa760c01b6154b5565b600085858585604051602001613c8f9493929190618bbe565b604051602081830303815290604052805190602001209050613cbb677ba3d7ad982f17c160c01b6154b5565b613ccf675ff2fe70f0a1650860c01b6154b5565b613d75817fd646ae07eb0d0f77457502a65e7407930dff4cd4fd99abc6aac87a753f4c8a42613cfd896154b8565b613d18896003811115613d1357613d12617511565b5b6154b8565b613d33896002811115613d2e57613d2d617511565b5b6154b8565b613d4e89600f811115613d4957613d48617511565b5b6154b8565b604051602001613d619493929190618c3d565b604051602081830303815290604052615586565b613d896739d9fb6b575ba4e360c01b6154b5565b613d9d67248dca5c34ff865b60c01b6154b5565b818015613e0e5750600015156004600083815260200190815260200160002060030160003373ffffffffffffffffffffffffffffffffffffffff1673ffffffffffffffffffffffffffffffffffffffff16815260200190815260200160002060009054906101000a900460ff161515145b15613ecf57613e276752d84047f7ec1fd860c01b6154b5565b613e3b67ae030a65c15f875560c01b6154b5565b613e4f674dbd682bd4fc310660c01b6154b5565b613e6b600460008381526020019081526020016000203361572a565b613e7f6714f96b5406597f9960c01b6154b5565b613e93670df07991caef353d60c01b6154b5565b7fb431a69783a2491a0c400ff16dab32cd442abf8fe5af63a526a7248d730192f881604051613ec291906172fe565b60405180910390a1613fd5565b613ee367ae62ea1482f5a88360c01b6154b5565b613ef767163e0e75e54e0c8a60c01b6154b5565b6000151582151503613fbf57613f1767a4e6a19cbfe5167960c01b6154b5565b613f2b675c78a7177eb1a8fb60c01b6154b5565b613f3f67bf4499ff51c0c22160c01b6154b5565b613f5b60046000838152602001908152602001600020336159ac565b613f6f67822948be4d3ef9a760c01b6154b5565b613f836796129956313adf1b60c01b6154b5565b7fb431a69783a2491a0c400ff16dab32cd442abf8fe5af63a526a7248d730192f881604051613fb291906172fe565b60405180910390a1613fd4565b613fd367a37df02138054e5260c01b6154b5565b5b5b613fe967b057154329c49bf860c01b6154b5565b613ffd67e3a8e90515cce0b760c01b6154b5565b614063603360ff16600360007fd646ae07eb0d0f77457502a65e7407930dff4cd4fd99abc6aac87a753f4c8a42815260200190815260200160002060000160009054906101000a900463ffffffff16614056919061800c565b63ffffffff1660646141bf565b6004600083815260200190815260200160002060020160009054906101000a900460ff1660ff161061417e576140a367b5a228e10270e22560c01b6154b5565b6140b7673ddb288b7f8fde5860c01b6154b5565b6140cb6728ffed5c4bbb136d60c01b6154b5565b6140e660046000838152602001908152602001600020615b64565b6140fa671a14e86b1536e0c460c01b6154b5565b61410e678190894182f1322760c01b6154b5565b7f562618dbcf74b61ae5b0f229fe40ba6d5b6ae6b4248f8c89a870dda7c77135f68160405161413d91906172fe565b60405180910390a1614159675e914cc764a08bdc60c01b6154b5565b61416d6759cb1221e0215d5e60c01b6154b5565b61417986868686616224565b614193565b614192676d76b91fe9de0f8c60c01b6154b5565b5b505050505050565b7fd646ae07eb0d0f77457502a65e7407930dff4cd4fd99abc6aac87a753f4c8a4281565b60006141d567f61426e1a1f663da60c01b6164b1565b6141e967c372d0ed468d9dea60c01b6164b1565b6141fd670709952a306f11ce60c01b6164b1565b6000828461420b9190618ce6565b0361425f57614224674fb2442b97e9378c60c01b6164b1565b61423867d8aced1f47c17a9460c01b6164b1565b61424c678666469e36a7479960c01b6164b1565b81836142589190618d17565b90506142b6565b6142736710c2ea96563e926160c01b6164b1565b61428767f66b81fd4ac3f5c560c01b6164b1565b61429b67b044a5f496fe479d60c01b6164b1565b600182846142a99190618d17565b6142b391906180d8565b90505b92915050565b6142d0678f5912fc196c66fb60c01b6154b5565b6142e467d451ad32aab430b860c01b6154b5565b6142f8672f872260ec70aa8060c01b6154b5565b61430c67e28d98831e470a0e60c01b6154b5565b6143367fd646ae07eb0d0f77457502a65e7407930dff4cd4fd99abc6aac87a753f4c8a423361323c565b614375576040517f08c379a000000000000000000000000000000000000000000000000000000000815260040161436c90617dba565b60405180910390fd5b6143896770e61a765dfb20aa60c01b6154b5565b61439d6768c3bd0af40a1b5d60c01b6154b5565b6143b1672bc4242ebebe428960c01b6154b5565b6143c567e87324c8c42b714760c01b6154b5565b60008411614408576040517f08c379a00000000000000000000000000000000000000000000000000000000081526004016143ff90617e26565b60405180910390fd5b61441c672c4d7d6a241e4b8960c01b6154b5565b61443067f2f486595854747960c01b6154b5565b614444678e01888c80102d3760c01b6154b5565b61445867bc51f865c49130a860c01b6154b5565b60006001600086815260200190815260200160002060000154036144b1576040517f08c379a00000000000000000000000000000000000000000000000000000000081526004016144a890617e92565b60405180910390fd5b6144c567f8b6ac0350413cde60c01b6154b5565b6144d9674f5571dc82a8340f60c01b6154b5565b6144ed67df20ef43cd86120a60c01b6154b5565b6144f9848484846164b4565b50505050565b605081565b6145186785550dfb5a2fa17e60c01b6154b5565b61452c67987f0dd0903d99a060c01b6154b5565b6145406765417f529339629360c01b6154b5565b600060036000858152602001908152602001600020905061456b671a036548b9454efa60c01b6154b5565b61457f678a81a5a89e7249f260c01b6154b5565b6145936704fadf5af7278b0460c01b6154b5565b8060000160049054906101000a900463ffffffff1663ffffffff168160000160009054906101000a900463ffffffff1663ffffffff161181600201546040516020016145df91906182b5565b6040516020818303038152906040526040516020016145fe9190618d6e565b6040516020818303038152906040529061464e576040517f08c379a00000000000000000000000000000000000000000000000000000000081526004016146459190617210565b60405180910390fd5b5061466367a15a5378dc28021c60c01b6154b5565b6146776721fc27606240057c60c01b6154b5565b61468b67e67f2367de48a39660c01b6154b5565b61469f673bba1b125be8f21a60c01b6154b5565b6146a9848461323c565b81600201546040516020016146be91906182b5565b6040516020818303038152906040526040516020016146dd9190618dc9565b6040516020818303038152906040529061472d576040517f08c379a00000000000000000000000000000000000000000000000000000000081526004016147249190617210565b60405180910390fd5b5061474267eb5bb2ac8e80d29b60c01b6154b5565b6147566755ea1935824a5e1860c01b6154b5565b61476a672a12cac354a8e82360c01b6154b5565b61477e6767ec4da59fbc86a160c01b6154b5565b61478c81600101543361323c565b81600201546040516020016147a191906182b5565b6040516020818303038152906040526040516020016147c0919061839d565b60405160208183030381529060405290614810576040517f08c379a00000000000000000000000000000000000000000000000000000000081526004016148079190617210565b60405180910390fd5b50614825676efdddf06ded552e60c01b6154b5565b614839678f6d07b51abb6a2460c01b6154b5565b61484d67a14fb71ba5e7613f60c01b6154b5565b60008385604051602001614862929190618e3b565b60405160208183030381529060405280519060200120905061488e67df7dd5880412d4b960c01b6154b5565b6148a2675ff1c5fac858eec960c01b6154b5565b6148fd81836001015484600201546040516020016148c091906182b5565b6040516020818303038152906040526148d8886110d3565b6040516020016148e9929190618e98565b604051602081830303815290604052615586565b61491167fe26844b548a837860c01b6154b5565b6149256768a51f3c021201cb60c01b6154b5565b8280156149965750600015156004600083815260200190815260200160002060030160003373ffffffffffffffffffffffffffffffffffffffff1673ffffffffffffffffffffffffffffffffffffffff16815260200190815260200160002060009054906101000a900460ff161515145b15614a57576149af67a21e7ebe78774f9060c01b6154b5565b6149c367cd288a479316cb8e60c01b6154b5565b6149d767e62655d9c0da73f460c01b6154b5565b6149f3600460008381526020019081526020016000203361572a565b614a07675d17b8d48239367360c01b6154b5565b614a1b67a680bcc96564015d60c01b6154b5565b7fb431a69783a2491a0c400ff16dab32cd442abf8fe5af63a526a7248d730192f881604051614a4a91906172fe565b60405180910390a1614b5d565b614a6b674108a0766fb3770f60c01b6154b5565b614a7f6737c85746c2f8f06560c01b6154b5565b6000151583151503614b4757614a9f672011fab2eac0049160c01b6154b5565b614ab36744a1b5a674d397ba60c01b6154b5565b614ac767356380150091118d60c01b6154b5565b614ae360046000838152602001908152602001600020336159ac565b614af767d1da6e531bb5433e60c01b6154b5565b614b0b672ee69ee77814874360c01b6154b5565b7fb431a69783a2491a0c400ff16dab32cd442abf8fe5af63a526a7248d730192f881604051614b3a91906172fe565b60405180910390a1614b5c565b614b5b671b9e414ab197e55f60c01b6154b5565b5b5b614b716714f85a465318971d60c01b6154b5565b614b8567e79b395de5e6d68460c01b6154b5565b81600101548514158015614c185750614bee82600001600d9054906101000a900460ff1660ff16600360008560010154815260200190815260200160002060000160009054906101000a900463ffffffff16614be1919061800c565b63ffffffff1660646141bf565b6004600083815260200190815260200160002060020160009054906101000a900460ff1660ff1610155b8015614c345750614c33675ea5fd91e72c501360c01b616929565b5b80614cf55750816001015485148015614cd85750614cae82600001600d9054906101000a900460ff1660ff166001600360008660010154815260200190815260200160002060000160009054906101000a900463ffffffff16614c979190618eda565b614ca1919061800c565b63ffffffff1660646141bf565b6004600083815260200190815260200160002060020160009054906101000a900460ff1660ff1610155b8015614cf45750614cf36740b5effbe6fbc4ba60c01b616929565b5b5b1561509557614d0e67d72dd4e9f32df2a660c01b6154b5565b614d22670ed0a2a914fd84f760c01b6154b5565b614d366787de25c771ec258260c01b6154b5565b60005b600654811015614f6557614d57679a8cdfcabcb0dacb60c01b6154b5565b614d6b67772e58326b3683ce60c01b6154b5565b60011515600460006005600085815260200190815260200160002054815260200190815260200160002060030160008773ffffffffffffffffffffffffffffffffffffffff1673ffffffffffffffffffffffffffffffffffffffff16815260200190815260200160002060009054906101000a900460ff161515148015614e1a575085600460006005600085815260200190815260200160002054815260200190815260200160002060010154145b15614f3d57614e3367f33d304923bb8f1760c01b6154b5565b614e476730dbd22aa968d27a60c01b6154b5565b6001600460006005600085815260200190815260200160002054815260200190815260200160002060020160008282829054906101000a900460ff16614e8d9190618f12565b92506101000a81548160ff021916908360ff160217905550614eb9671045bc06e9ec4a8360c01b6154b5565b6000600460006005600085815260200190815260200160002054815260200190815260200160002060030160008773ffffffffffffffffffffffffffffffffffffffff1673ffffffffffffffffffffffffffffffffffffffff16815260200190815260200160002060006101000a81548160ff021916908315150217905550614f52565b614f5167bf20874ded53a20860c01b6154b5565b5b8080614f5d9061814e565b915050614d39565b50614f7a67e36f7f130cb3f21360c01b6154b5565b614f8e6715bd5e551d188d8360c01b6154b5565b614fa960046000838152602001908152602001600020615b64565b614fbd67580bbbb9ccbb13be60c01b6154b5565b614fd16766006dd0f09419f560c01b6154b5565b7f562618dbcf74b61ae5b0f229fe40ba6d5b6ae6b4248f8c89a870dda7c77135f68160405161500091906172fe565b60405180910390a161501c6720ceeb0471d394b660c01b6154b5565b61503067213863767febee4a60c01b6154b5565b61503a8585616934565b61504e672d86523e849fc68d60c01b6154b5565b60018260000160008282829054906101000a900463ffffffff166150729190618eda565b92506101000a81548163ffffffff021916908363ffffffff1602179055506150aa565b6150a967689f9d36814699ed60c01b6154b5565b5b5050505050565b6150ba826115f4565b6150c381615e96565b6150cd8383616934565b505050565b60008060008060006150ee67b763b8910a23efee60c01b6154b5565b61510267acd6a8c8f4d574b660c01b6154b5565b615116677697096d64270cdb60c01b6154b5565b61512a673318f6946f78197860c01b6154b5565b600115156007600088815260200190815260200160002060020160009054906101000a900460ff16151514615194576040517f08c379a000000000000000000000000000000000000000000000000000000000815260040161518b906187f1565b60405180910390fd5b6151a867d4c4533d7e9a60a660c01b6154b5565b6151bc6732954512786739f560c01b6154b5565b6151d06724bcd6ffdfbd0d4d60c01b6154b5565b6007600087815260200190815260200160002060000160009054906101000a900460ff16600381111561520657615205617511565b5b6007600088815260200190815260200160002060000160019054906101000a900460ff16600281111561523c5761523b617511565b5b6007600089815260200190815260200160002060000160029054906101000a900460ff16600f81111561527257615271617511565b5b600760008a815260200190815260200160002060010154600760008b8152602001908152602001600020600301549450945094509450945091939590929450565b600281815481106152c357600080fd5b906000526020600020016000915090505481565b7f4bbeb6fd3e5222e55f2f8b0c35bc228e0a06a25d0da772fdb02c3b92fa004f8881565b606061531167ab49e147b91272b360c01b6154b5565b615325679ab8a363c1db47f760c01b6154b5565b61533967c80f0b231c338b2d60c01b6154b5565b61534d675397bbbeef836ad860c01b6154b5565b60006001600084815260200190815260200160002060000154036153a6576040517f08c379a000000000000000000000000000000000000000000000000000000000815260040161539d90617e92565b60405180910390fd5b6153ba679b6d6670acbbe93360c01b6154b5565b6153ce678dba3cfcdd7ab4ab60c01b6154b5565b6153e2672e1f532eb4156eb560c01b6154b5565b6008600083815260200190815260200160002080548060200260200160405190810160405280929190818152602001828054801561543f57602002820191906000526020600020905b81548152602001906001019080831161542b575b50505050509050919050565b60007f01ffc9a7000000000000000000000000000000000000000000000000000000007bffffffffffffffffffffffffffffffffffffffffffffffffffffffff1916827bffffffffffffffffffffffffffffffffffffffffffffffffffffffff1916149050919050565b50565b6060600060016154c784616a15565b01905060008167ffffffffffffffff8111156154e6576154e5617b14565b5b6040519080825280601f01601f1916602001820160405280156155185781602001600182028036833780820191505090505b509050600082602001820190505b60011561557b578080600190039150507f3031323334353637383961626364656600000000000000000000000000000000600a86061a8153600a858161556f5761556e618cb7565b5b04945060008503615526575b819350505050919050565b61559a67c1566280ac59697360c01b6154b5565b6155ae6788e9d3b14a74677d60c01b6154b5565b6155c267e409a8b73318189d60c01b6154b5565b600015156004600085815260200190815260200160002060000160009054906101000a900460ff16151503615710576156056752d9d67f7d2e047f60c01b6154b5565b61561967546ad04b2b9f136560c01b6154b5565b60016004600085815260200190815260200160002060000160006101000a81548160ff02191690831515021790555061565c675a8b242276bd5f8460c01b6154b5565b826005600060065481526020019081526020016000208190555061568a67bce0c7533c9a630d60c01b6154b5565b60016006600082825461569d91906180d8565b925050819055506156b867da93c48fa161e79d60c01b6154b5565b8160046000858152602001908152602001600020600101819055506156e76796048d7fd2d928c860c01b6154b5565b8060046000858152602001908152602001600020600501908161570a91906190f3565b50615725565b615724675f1c668ee669ab0b60c01b6154b5565b5b505050565b61573e67d42e23a03bbb9f5160c01b616b68565b615752676b0a876d7f65e67460c01b616b68565b615766670e2d5a60266f4e3860c01b616b68565b61577a67dff015bc3eff07b760c01b616b68565b600015158260030160008373ffffffffffffffffffffffffffffffffffffffff1673ffffffffffffffffffffffffffffffffffffffff16815260200190815260200160002060009054906101000a900460ff1615151461580f576040517f08c379a000000000000000000000000000000000000000000000000000000000815260040161580690619211565b60405180910390fd5b61582367544f24841f015c0960c01b616b68565b615837676b3348069692e1c060c01b616b68565b808260040160008460020160019054906101000a900460ff1660ff16815260200190815260200160002060006101000a81548173ffffffffffffffffffffffffffffffffffffffff021916908373ffffffffffffffffffffffffffffffffffffffff1602179055506158b3674889a33ed357c30260c01b616b68565b81600201600181819054906101000a900460ff16809291906158d490619231565b91906101000a81548160ff021916908360ff1602179055505061590167e079fd1d12ba580e60c01b616b68565b60018260030160008373ffffffffffffffffffffffffffffffffffffffff1673ffffffffffffffffffffffffffffffffffffffff16815260200190815260200160002060006101000a81548160ff02191690831515021790555061596f6750e90d39fcf392ab60c01b616b68565b60018260020160008282829054906101000a900460ff16615990919061925a565b92506101000a81548160ff021916908360ff1602179055505050565b6159c067b769e03249df5ae860c01b616b68565b6159d467cf315d4e11c7a8b760c01b616b68565b6159e867bbf6fbbdf813121460c01b616b68565b6159fc679c7b692f5fb6374460c01b616b68565b600115158260030160008373ffffffffffffffffffffffffffffffffffffffff1673ffffffffffffffffffffffffffffffffffffffff16815260200190815260200160002060009054906101000a900460ff16151514615a91576040517f08c379a0000000000000000000000000000000000000000000000000000000008152600401615a8890619301565b60405180910390fd5b615aa5679da0c426b492f83b60c01b616b68565b615ab967ee38cd30253f1dce60c01b616b68565b60008260030160008373ffffffffffffffffffffffffffffffffffffffff1673ffffffffffffffffffffffffffffffffffffffff16815260200190815260200160002060006101000a81548160ff021916908315150217905550615b2767b931ede1f25e88c860c01b616b68565b60018260020160008282829054906101000a900460ff16615b489190618f12565b92506101000a81548160ff021916908360ff1602179055505050565b615b7867b4a12e0d69cc995660c01b616b68565b615b8c670d060496c1fecab260c01b616b68565b60008160020160006101000a81548160ff021916908360ff160217905550615bbe67341d57e17a9468b560c01b616b68565b615bd267c0182900b86f084d60c01b616b68565b60005b8160020160019054906101000a900460ff1660ff168160ff161015615cad57615c0867a10ab145ed780ba260c01b616b68565b60008260030160008460040160008560ff16815260200190815260200160002060009054906101000a900473ffffffffffffffffffffffffffffffffffffffff1673ffffffffffffffffffffffffffffffffffffffff1673ffffffffffffffffffffffffffffffffffffffff16815260200190815260200160002060006101000a81548160ff0219169083151502179055508080615ca590619231565b915050615bd5565b5050565b615cc5671611662cb9dae94d60c01b615f8a565b615cd967216f7a8f2efab2a760c01b615f8a565b60016000828152602001908152602001600020600080820160009055600182016000615d059190616e61565b600282016000615d159190616e61565b60038201600090555050615d3367e097f569b4e65fdf60c01b615f8a565b615d47670bb661c72d0c4ac460c01b615f8a565b60005b600280549050811015615e3057615d6b67aabb91e763d4155660c01b615f8a565b615d7f67d9483c4c9091c0f360c01b615f8a565b8160028281548110615d9457615d936180a9565b5b906000526020600020015403615e0957615db8673abd118e698f57c460c01b615f8a565b615dcc67945b6dfd81ed0b9960c01b615f8a565b600060028281548110615de257615de16180a9565b5b9060005260206000200181905550615e0467174bf75761bddef660c01b615f8a565b615e30565b615e1d67d4d55f133ba9aebb60c01b615f8a565b8080615e289061814e565b915050615d4a565b50615e456740fe773e1cb7aee860c01b615f8a565b615e5967db3f8feb92715f8960c01b615f8a565b7f34de6b871245ed0a89b82912e8e5ee6d9c3104b3e5bb1d67a71ad7e68239e41c81604051615e889190617cde565b60405180910390a150565b50565b615ea781615ea2616b6b565b616b73565b50565b615eb4828261323c565b615f8657600160008084815260200190815260200160002060000160008373ffffffffffffffffffffffffffffffffffffffff1673ffffffffffffffffffffffffffffffffffffffff16815260200190815260200160002060006101000a81548160ff021916908315150217905550615f2b616b6b565b73ffffffffffffffffffffffffffffffffffffffff168173ffffffffffffffffffffffffffffffffffffffff16837f2f8788117e7eff1d82e926ec794901d17c78024a50270940304540a733656f0d60405160405180910390a45b5050565b50565b615fa167cd60cec0f477d92060c01b615f8a565b615fb567f8e6bbaf3f8bd14c60c01b615f8a565b615fc9677a88334868b6f1e860c01b615f8a565b615fdd67b9acb39d80c9d30e60c01b615f8a565b6000600160008681526020019081526020016000206000015414616036576040517f08c379a000000000000000000000000000000000000000000000000000000000815260040161602d9061936d565b60405180910390fd5b61604a6762d886a6d3b6192060c01b615f8a565b61605e671dfa633361721c0260c01b615f8a565b616072676156cb8237b39fc960c01b615f8a565b61608667b36b3d5d4fdfa06c60c01b615f8a565b600084036160c9576040517f08c379a00000000000000000000000000000000000000000000000000000000081526004016160c0906193d9565b60405180910390fd5b6160dd678ae8108d8e9ccb8560c01b615f8a565b6160f1677d6ec732296dc2e360c01b615f8a565b6040518060800160405280858152602001848152602001838152602001828152506001600086815260200190815260200160002060008201518160000155602082015181600101908161614491906190f3565b50604082015181600201908161615a91906190f3565b506060820151816003015590505061617c6793a5f15b8fdd785360c01b615f8a565b61619067a5bd79ee33adf50f60c01b615f8a565b60028490806001815401808255809150506001900390600052602060002001600090919091909150556161cd6748b153eaeaedf43160c01b615f8a565b6161e167b57cd13fa9ba094760c01b615f8a565b7fb6767d1c89515962142b00b5577569c92a74381d9441a528911c66e0c3cea1f88484848460405161621694939291906170fb565b60405180910390a150505050565b61623867f9332553eceb56d860c01b6154b5565b61624c677d4cea3f8d4622d560c01b6154b5565b6040518060c0016040528084600381111561626a57616269617511565b5b815260200183600281111561628257616281617511565b5b815260200182600f81111561629a57616299617511565b5b81526020014281526020016001151581526020018581525060076000868686866040516020016162cd9493929190618757565b60405160208183030381529060405280519060200120815260200190815260200160002060008201518160000160006101000a81548160ff0219169083600381111561631c5761631b617511565b5b021790555060208201518160000160016101000a81548160ff0219169083600281111561634c5761634b617511565b5b021790555060408201518160000160026101000a81548160ff0219169083600f81111561637c5761637b617511565b5b02179055506060820151816001015560808201518160020160006101000a81548160ff02191690831515021790555060a082015181600301559050506163cc67eb262170ab108a0360c01b6154b5565b6163e067978f6ecc8f60681960c01b6154b5565b600860008581526020019081526020016000208484848460405160200161640a9493929190618757565b60405160208183030381529060405280519060200120908060018154018082558091505060019003906000526020600020016000909190919091505561645a67d61646692ed40d1060c01b6154b5565b61646e67281f41604962ef6360c01b6154b5565b7fb55811dd01470a227956304b027c610c7cdf9dd622dcc47791380261d56dc6ed848484846040516164a394939291906193f9565b60405180910390a150505050565b50565b6164c8674fa302755311227760c01b615f8a565b6164dc67b2e0009661c2df8c60c01b615f8a565b6164f0674ba1c2b0a31bf16a60c01b615f8a565b616504672175c4db49308e0560c01b615f8a565b600060016000868152602001908152602001600020600001540361655d576040517f08c379a00000000000000000000000000000000000000000000000000000000081526004016165549061948a565b60405180910390fd5b61657167f2040cc31830c96860c01b615f8a565b61658567219acd0535b5e94f60c01b615f8a565b616599677cdd76207fc5bcab60c01b615f8a565b600160008581526020019081526020016000206001016040516020016165bf919061952d565b60405160208183030381529060405280519060200120836040516020016165e69190619544565b6040516020818303038152906040528051906020012014158015616654575060405160200161661490619581565b604051602081830303815290604052805190602001208360405160200161663b9190619544565b6040516020818303038152906040528051906020012014155b156166aa5761666d67449ffde15d725c8460c01b615f8a565b61668167cb790d03a7518f8360c01b615f8a565b826001600086815260200190815260200160002060010190816166a491906190f3565b506166bf565b6166be67b555f135a018a11560c01b615f8a565b5b6166d3674ae94c950c3986de60c01b615f8a565b6166e767f53eec60b023ab8f60c01b615f8a565b6001600085815260200190815260200160002060020160405160200161670d919061952d565b60405160208183030381529060405280519060200120826040516020016167349190619544565b60405160208183030381529060405280519060200120141580156167a2575060405160200161676290619581565b60405160208183030381529060405280519060200120826040516020016167899190619544565b6040516020818303038152906040528051906020012014155b156167f8576167bb67b92caeff1e2c4e7160c01b615f8a565b6167cf67a48a759f9639db6460c01b615f8a565b816001600086815260200190815260200160002060020190816167f291906190f3565b5061680d565b61680c67aed08070e6bcf4c660c01b615f8a565b5b616821674f519b1e053efb5460c01b615f8a565b61683567aec0a71526ccaba060c01b615f8a565b6001600085815260200190815260200160002060030154811415801561685c575060008114155b156168a9576168756737b3e1505cacbb5c60c01b615f8a565b616889670caebcbad414c98960c01b615f8a565b8060016000868152602001908152602001600020600301819055506168be565b6168bd67e5575fcbd78b3a8c60c01b615f8a565b5b6168d267f92c5cce75da192d60c01b615f8a565b6168e6672197159ad936e06660c01b615f8a565b7f03e10a3f40e9af2a5e61cb5a3de55fd67286470c35b3cf345b04a83cf3f490778484848460405161691b94939291906170fb565b60405180910390a150505050565b600060019050919050565b61693e828261323c565b15616a1157600080600084815260200190815260200160002060000160008373ffffffffffffffffffffffffffffffffffffffff1673ffffffffffffffffffffffffffffffffffffffff16815260200190815260200160002060006101000a81548160ff0219169083151502179055506169b6616b6b565b73ffffffffffffffffffffffffffffffffffffffff168173ffffffffffffffffffffffffffffffffffffffff16837ff6391f5c32d9c69d2a47ea670b442974b53935d1edc7fd64eb21e047a839171b60405160405180910390a45b5050565b600080600090507a184f03e93ff9f4daa797ed6e38ed64bf6a1f0100000000000000008310616a73577a184f03e93ff9f4daa797ed6e38ed64bf6a1f0100000000000000008381616a6957616a68618cb7565b5b0492506040810190505b6d04ee2d6d415b85acef81000000008310616ab0576d04ee2d6d415b85acef81000000008381616aa657616aa5618cb7565b5b0492506020810190505b662386f26fc100008310616adf57662386f26fc100008381616ad557616ad4618cb7565b5b0492506010810190505b6305f5e1008310616b08576305f5e1008381616afe57616afd618cb7565b5b0492506008810190505b6127108310616b2d576127108381616b2357616b22618cb7565b5b0492506004810190505b60648310616b505760648381616b4657616b45618cb7565b5b0492506002810190505b600a8310616b5f576001810190505b80915050919050565b50565b600033905090565b616b7d828261323c565b616bf457616b8a81616bf8565b616b988360001c6020616c25565b604051602001616ba992919061962e565b6040516020818303038152906040526040517f08c379a0000000000000000000000000000000000000000000000000000000008152600401616beb9190617210565b60405180910390fd5b5050565b6060616c1e8273ffffffffffffffffffffffffffffffffffffffff16601460ff16616c25565b9050919050565b606060006002836002616c38919061810c565b616c4291906180d8565b67ffffffffffffffff811115616c5b57616c5a617b14565b5b6040519080825280601f01601f191660200182016040528015616c8d5781602001600182028036833780820191505090505b5090507f300000000000000000000000000000000000000000000000000000000000000081600081518110616cc557616cc46180a9565b5b60200101907effffffffffffffffffffffffffffffffffffffffffffffffffffffffffffff1916908160001a9053507f780000000000000000000000000000000000000000000000000000000000000081600181518110616d2957616d286180a9565b5b60200101907effffffffffffffffffffffffffffffffffffffffffffffffffffffffffffff1916908160001a90535060006001846002616d69919061810c565b616d7391906180d8565b90505b6001811115616e13577f3031323334353637383961626364656600000000000000000000000000000000600f861660108110616db557616db46180a9565b5b1a60f81b828281518110616dcc57616dcb6180a9565b5b60200101907effffffffffffffffffffffffffffffffffffffffffffffffffffffffffffff1916908160001a905350600485901c945080616e0c90619668565b9050616d76565b5060008414616e57576040517f08c379a0000000000000000000000000000000000000000000000000000000008152600401616e4e906196dd565b60405180910390fd5b8091505092915050565b508054616e6d90618078565b6000825580601f10616e7f5750616e9e565b601f016020900490600052602060002090810190616e9d9190616ea1565b5b50565b5b80821115616eba576000816000905550600101616ea2565b5090565b6000604051905090565b600080fd5b600080fd5b60007fffffffff0000000000000000000000000000000000000000000000000000000082169050919050565b616f0781616ed2565b8114616f1257600080fd5b50565b600081359050616f2481616efe565b92915050565b600060208284031215616f4057616f3f616ec8565b5b6000616f4e84828501616f15565b91505092915050565b60008115159050919050565b616f6c81616f57565b82525050565b6000602082019050616f876000830184616f63565b92915050565b6000819050919050565b616fa081616f8d565b8114616fab57600080fd5b50565b600081359050616fbd81616f97565b92915050565b616fcc81616f57565b8114616fd757600080fd5b50565b600081359050616fe981616fc3565b92915050565b6000806040838503121561700657617005616ec8565b5b600061701485828601616fae565b925050602061702585828601616fda565b9150509250929050565b60006020828403121561704557617044616ec8565b5b600061705384828501616fae565b91505092915050565b61706581616f8d565b82525050565b600081519050919050565b600082825260208201905092915050565b60005b838110156170a557808201518184015260208101905061708a565b60008484015250505050565b6000601f19601f8301169050919050565b60006170cd8261706b565b6170d78185617076565b93506170e7818560208601617087565b6170f0816170b1565b840191505092915050565b6000608082019050617110600083018761705c565b818103602083015261712281866170c2565b9050818103604083015261713681856170c2565b9050617145606083018461705c565b95945050505050565b600060ff82169050919050565b6171648161714e565b82525050565b600060208201905061717f600083018461715b565b92915050565b600073ffffffffffffffffffffffffffffffffffffffff82169050919050565b60006171b082617185565b9050919050565b6171c0816171a5565b81146171cb57600080fd5b50565b6000813590506171dd816171b7565b92915050565b6000602082840312156171f9576171f8616ec8565b5b6000617207848285016171ce565b91505092915050565b6000602082019050818103600083015261722a81846170c2565b905092915050565b6000819050919050565b61724581617232565b811461725057600080fd5b50565b6000813590506172628161723c565b92915050565b60006020828403121561727e5761727d616ec8565b5b600061728c84828501617253565b91505092915050565b61729e81617232565b82525050565b600060a0820190506172b96000830188616f63565b6172c66020830187617295565b6172d3604083018661715b565b6172e0606083018561715b565b81810360808301526172f281846170c2565b90509695505050505050565b60006020820190506173136000830184617295565b92915050565b600080604083850312156173305761732f616ec8565b5b600061733e85828601617253565b925050602061734f858286016171ce565b9150509250929050565b600081519050919050565b600082825260208201905092915050565b6000819050602082019050919050565b61738e81616f8d565b82525050565b60006173a08383617385565b60208301905092915050565b6000602082019050919050565b60006173c482617359565b6173ce8185617364565b93506173d983617375565b8060005b8381101561740a5781516173f18882617394565b97506173fc836173ac565b9250506001810190506173dd565b5085935050505092915050565b6000602082019050818103600083015261743181846173b9565b905092915050565b600080604083850312156174505761744f616ec8565b5b600061745e85828601616fae565b925050602061746f85828601616fae565b9150509250929050565b6000606082019050818103600083015261749381866170c2565b905081810360208301526174a781856170c2565b90506174b6604083018461705c565b949350505050565b6000806000606084860312156174d7576174d6616ec8565b5b60006174e586828701617253565b93505060206174f6868287016171ce565b925050604061750786828701616fda565b9150509250925092565b7f4e487b7100000000000000000000000000000000000000000000000000000000600052602160045260246000fd5b6004811061755157617550617511565b5b50565b600081905061756282617540565b919050565b600061757282617554565b9050919050565b61758281617567565b82525050565b6003811061759957617598617511565b5b50565b60008190506175aa82617588565b919050565b60006175ba8261759c565b9050919050565b6175ca816175af565b82525050565b601081106175e1576175e0617511565b5b50565b60008190506175f2826175d0565b919050565b6000617602826175e4565b9050919050565b617612816175f7565b82525050565b600060c08201905061762d6000830189617579565b61763a60208301886175c1565b6176476040830187617609565b617654606083018661705c565b6176616080830185616f63565b61766e60a083018461705c565b979650505050505050565b6004811061768657600080fd5b50565b60008135905061769881617679565b92915050565b600381106176ab57600080fd5b50565b6000813590506176bd8161769e565b92915050565b601081106176d057600080fd5b50565b6000813590506176e2816176c3565b92915050565b600080600080600060a0868803121561770457617703616ec8565b5b600061771288828901616fae565b955050602061772388828901617689565b9450506040617734888289016176ae565b9350506060617745888289016176d3565b925050608061775688828901616fda565b9150509295509295909350565b600081519050919050565b600082825260208201905092915050565b6000819050602082019050919050565b61779881617232565b82525050565b60006177aa838361778f565b60208301905092915050565b6000602082019050919050565b60006177ce82617763565b6177d8818561776e565b93506177e38361777f565b8060005b838110156178145781516177fb888261779e565b9750617806836177b6565b9250506001810190506177e7565b5085935050505092915050565b600081519050919050565b600082825260208201905092915050565b6000819050602082019050919050565b6178568161714e565b82525050565b6000617868838361784d565b60208301905092915050565b6000602082019050919050565b600061788c82617821565b617896818561782c565b93506178a18361783d565b8060005b838110156178d25781516178b9888261785c565b97506178c483617874565b9250506001810190506178a5565b5085935050505092915050565b600081519050919050565b600082825260208201905092915050565b6000819050602082019050919050565b600082825260208201905092915050565b60006179278261706b565b617931818561790b565b9350617941818560208601617087565b61794a816170b1565b840191505092915050565b6000617961838361791c565b905092915050565b6000602082019050919050565b6000617981826178df565b61798b81856178ea565b93508360208202850161799d856178fb565b8060005b858110156179d957848403895281516179ba8582617955565b94506179c583617969565b925060208a019950506001810190506179a1565b50829750879550505050505092915050565b600081519050919050565b600082825260208201905092915050565b6000819050602082019050919050565b617a2081616f57565b82525050565b6000617a328383617a17565b60208301905092915050565b6000602082019050919050565b6000617a56826179eb565b617a6081856179f6565b9350617a6b83617a07565b8060005b83811015617a9c578151617a838882617a26565b9750617a8e83617a3e565b925050600181019050617a6f565b5085935050505092915050565b60006080820190508181036000830152617ac381876177c3565b90508181036020830152617ad78186617881565b90508181036040830152617aeb8185617976565b90508181036060830152617aff8184617a4b565b905095945050505050565b600080fd5b600080fd5b7f4e487b7100000000000000000000000000000000000000000000000000000000600052604160045260246000fd5b617b4c826170b1565b810181811067ffffffffffffffff82111715617b6b57617b6a617b14565b5b80604052505050565b6000617b7e616ebe565b9050617b8a8282617b43565b919050565b600067ffffffffffffffff821115617baa57617ba9617b14565b5b617bb3826170b1565b9050602081019050919050565b82818337600083830152505050565b6000617be2617bdd84617b8f565b617b74565b905082815260208101848484011115617bfe57617bfd617b0f565b5b617c09848285617bc0565b509392505050565b600082601f830112617c2657617c25617b0a565b5b8135617c36848260208601617bcf565b91505092915050565b60008060008060808587031215617c5957617c58616ec8565b5b6000617c6787828801616fae565b945050602085013567ffffffffffffffff811115617c8857617c87616ecd565b5b617c9487828801617c11565b935050604085013567ffffffffffffffff811115617cb557617cb4616ecd565b5b617cc187828801617c11565b9250506060617cd287828801616fae565b91505092959194509250565b6000602082019050617cf3600083018461705c565b92915050565b600060a082019050617d0e600083018861715b565b617d1b602083018761715b565b617d28604083018661715b565b617d35606083018561705c565b617d42608083018461705c565b9695505050505050565b60006020820190508181036000830152617d6681846177c3565b905092915050565b7f43616c6c6572206973206e6f7420612063657274696669657200000000000000600082015250565b6000617da4601983617076565b9150617daf82617d6e565b602082019050919050565b60006020820190508181036000830152617dd381617d97565b9050919050565b7f4964206d7573742062652067726561746572207468616e203000000000000000600082015250565b6000617e10601983617076565b9150617e1b82617dda565b602082019050919050565b60006020820190508181036000830152617e3f81617e03565b9050919050565b7f546869732073747564656e7420646f65736e2774206578697374000000000000600082015250565b6000617e7c601a83617076565b9150617e8782617e46565b602082019050919050565b60006020820190508181036000830152617eab81617e6f565b9050919050565b6000819050919050565b617ecd617ec882616f8d565b617eb2565b82525050565b600081905092915050565b7f44454c4554452053545544454e54000000000000000000000000000000000000600082015250565b6000617f14600e83617ed3565b9150617f1f82617ede565b600e82019050919050565b6000617f368284617ebc565b602082019150617f4582617f07565b915081905092915050565b7f44656c6574652073747564656e74200000000000000000000000000000000000815250565b6000617f818261706b565b617f8b8185617ed3565b9350617f9b818560208601617087565b80840191505092915050565b6000617fb282617f50565b600f82019150617fc28284617f76565b915081905092915050565b600063ffffffff82169050919050565b7f4e487b7100000000000000000000000000000000000000000000000000000000600052601160045260246000fd5b600061801782617fcd565b915061802283617fcd565b925082820261803081617fcd565b915080821461804257618041617fdd565b5b5092915050565b7f4e487b7100000000000000000000000000000000000000000000000000000000600052602260045260246000fd5b6000600282049050600182168061809057607f821691505b6020821081036180a3576180a2618049565b5b50919050565b7f4e487b7100000000000000000000000000000000000000000000000000000000600052603260045260246000fd5b60006180e382616f8d565b91506180ee83616f8d565b925082820190508082111561810657618105617fdd565b5b92915050565b600061811782616f8d565b915061812283616f8d565b925082820261813081616f8d565b9150828204841483151761814757618146617fdd565b5b5092915050565b600061815982616f8d565b91507fffffffffffffffffffffffffffffffffffffffffffffffffffffffffffffffff820361818b5761818a617fdd565b5b600182019050919050565b7f596f752063616e27742072656e6f756e636520746f20796f757220726f6c652e60008201527f20506c6561736520636f6e746163742061646d696e7300000000000000000000602082015250565b60006181f2603683617076565b91506181fd82618196565b604082019050919050565b60006020820190508181036000830152618221816181e5565b9050919050565b7f53747564656e7420646f65736e27742065786973740000000000000000000000600082015250565b600061825e601583617076565b915061826982618228565b602082019050919050565b6000602082019050818103600083015261828d81618251565b9050919050565b6000819050919050565b6182af6182aa82617232565b618294565b82525050565b60006182c1828461829e565b60208201915081905092915050565b7f4d61782000000000000000000000000000000000000000000000000000000000815250565b7f2072656163686564000000000000000000000000000000000000000000000000815250565b6000618327826182d0565b6004820191506183378284617f76565b9150618342826182f6565b60088201915081905092915050565b7f43616c6c6572206973206e6f7420612000000000000000000000000000000000815250565b7f2061646d696e0000000000000000000000000000000000000000000000000000815250565b60006183a882618351565b6010820191506183b88284617f76565b91506183c382618377565b60068201915081905092915050565b7f54686973206164647265737320697320616c7265616479206120000000000000815250565b6000618403826183d2565b601a820191506184138284617f76565b915081905092915050565b60008160601b9050919050565b60006184368261841e565b9050919050565b60006184488261842b565b9050919050565b61846061845b826171a5565b61843d565b82525050565b7f4752414e54000000000000000000000000000000000000000000000000000000600082015250565b600061849c600583617ed3565b91506184a782618466565b600582019050919050565b60006184be828561844f565b6014820191506184cd8261848f565b91506184d9828461829e565b6020820191508190509392505050565b7f4772616e74200000000000000000000000000000000000000000000000000000815250565b7f2000000000000000000000000000000000000000000000000000000000000000815250565b6000618540826184e9565b6006820191506185508285617f76565b915061855b8261850f565b60018201915061856b8284617f76565b91508190509392505050565b600061858282617fcd565b915061858d83617fcd565b9250828201905063ffffffff8111156185a9576185a8617fdd565b5b92915050565b7f417070726563696174696f6e206973206e6f742076616c696400000000000000600082015250565b60006185e5601983617076565b91506185f0826185af565b602082019050919050565b60006020820190508181036000830152618614816185d8565b9050919050565b7f446567726565206973206e6f742076616c696400000000000000000000000000600082015250565b6000618651601383617076565b915061865c8261861b565b602082019050919050565b6000602082019050818103600083015261868081618644565b9050919050565b7f50726f6772616d206973206e6f742076616c6964000000000000000000000000600082015250565b60006186bd601483617076565b91506186c882618687565b602082019050919050565b600060208201905081810360008301526186ec816186b0565b9050919050565b60008160f81b9050919050565b600061870b826186f3565b9050919050565b61872361871e82617567565b618700565b82525050565b61873a618735826175af565b618700565b82525050565b61875161874c826175f7565b618700565b82525050565b60006187638287617ebc565b6020820191506187738286618712565b6001820191506187838285618729565b6001820191506187938284618740565b60018201915081905095945050505050565b7f5468697320636572746966696361746520646f65736e27742065786973740000600082015250565b60006187db601e83617076565b91506187e6826187a5565b602082019050919050565b6000602082019050818103600083015261880a816187ce565b9050919050565b7f44454c4554450000000000000000000000000000000000000000000000000000600082015250565b6000618847600683617ed3565b915061885282618811565b600682019050919050565b60006188698287617ebc565b6020820191506188798286618712565b6001820191506188898285618729565b6001820191506188998284618740565b6001820191506188a88261883a565b915081905095945050505050565b7f44656c6574652000000000000000000000000000000000000000000000000000815250565b60006188e7826188b6565b6007820191506188f78287617f76565b91506189028261850f565b6001820191506189128286617f76565b915061891d8261850f565b60018201915061892d8285617f76565b91506189388261850f565b6001820191506189488284617f76565b915081905095945050505050565b7f46697273746e616d652063616e6e6f7420626520656d70747900000000000000600082015250565b600061898c601983617076565b915061899782618956565b602082019050919050565b600060208201905081810360008301526189bb8161897f565b9050919050565b7f4c6173746e616d652063616e6e6f7420626520656d7074790000000000000000600082015250565b60006189f8601883617076565b9150618a03826189c2565b602082019050919050565b60006020820190508181036000830152618a27816189eb565b9050919050565b7f426972746864617465206d7573742062652067726561746572207468616e2030600082015250565b6000618a64602083617076565b9150618a6f82618a2e565b602082019050919050565b60006020820190508181036000830152618a9381618a57565b9050919050565b7f546869732073747564656e7420616c7265616479206578697374730000000000600082015250565b6000618ad0601b83617076565b9150618adb82618a9a565b602082019050919050565b60006020820190508181036000830152618aff81618ac3565b9050919050565b7f5468697320636572746966696361746520616c72656164792065786973747300600082015250565b6000618b3c601f83617076565b9150618b4782618b06565b602082019050919050565b60006020820190508181036000830152618b6b81618b2f565b9050919050565b7f4345525449465900000000000000000000000000000000000000000000000000600082015250565b6000618ba8600783617ed3565b9150618bb382618b72565b600782019050919050565b6000618bca8287617ebc565b602082019150618bda8286618712565b600182019150618bea8285618729565b600182019150618bfa8284618740565b600182019150618c0982618b9b565b915081905095945050505050565b7f4365727469667920000000000000000000000000000000000000000000000000815250565b6000618c4882618c17565b600882019150618c588287617f76565b9150618c638261850f565b600182019150618c738286617f76565b9150618c7e8261850f565b600182019150618c8e8285617f76565b9150618c998261850f565b600182019150618ca98284617f76565b915081905095945050505050565b7f4e487b7100000000000000000000000000000000000000000000000000000000600052601260045260246000fd5b6000618cf182616f8d565b9150618cfc83616f8d565b925082618d0c57618d0b618cb7565b5b828206905092915050565b6000618d2282616f8d565b9150618d2d83616f8d565b925082618d3d57618d3c618cb7565b5b828204905092915050565b7f4d696e2000000000000000000000000000000000000000000000000000000000815250565b6000618d7982618d48565b600482019150618d898284617f76565b9150618d94826182f6565b60088201915081905092915050565b7f546869732061646472657373206973206e6f7420612000000000000000000000815250565b6000618dd482618da3565b601682019150618de48284617f76565b915081905092915050565b7f5245564f4b450000000000000000000000000000000000000000000000000000600082015250565b6000618e25600683617ed3565b9150618e3082618def565b600682019050919050565b6000618e47828561844f565b601482019150618e5682618e18565b9150618e62828461829e565b6020820191508190509392505050565b7f5265766f6b652000000000000000000000000000000000000000000000000000815250565b6000618ea382618e72565b600782019150618eb38285617f76565b9150618ebe8261850f565b600182019150618ece8284617f76565b91508190509392505050565b6000618ee582617fcd565b9150618ef083617fcd565b9250828203905063ffffffff811115618f0c57618f0b617fdd565b5b92915050565b6000618f1d8261714e565b9150618f288361714e565b9250828203905060ff811115618f4157618f40617fdd565b5b92915050565b60008190508160005260206000209050919050565b60006020601f8301049050919050565b600082821b905092915050565b600060088302618fa97fffffffffffffffffffffffffffffffffffffffffffffffffffffffffffffffff82618f6c565b618fb38683618f6c565b95508019841693508086168417925050509392505050565b6000819050919050565b6000618ff0618feb618fe684616f8d565b618fcb565b616f8d565b9050919050565b6000819050919050565b61900a83618fd5565b61901e61901682618ff7565b848454618f79565b825550505050565b600090565b619033619026565b61903e818484619001565b505050565b5b818110156190625761905760008261902b565b600181019050619044565b5050565b601f8211156190a75761907881618f47565b61908184618f5c565b81016020851015619090578190505b6190a461909c85618f5c565b830182619043565b50505b505050565b600082821c905092915050565b60006190ca600019846008026190ac565b1980831691505092915050565b60006190e383836190b9565b9150826002028217905092915050565b6190fc8261706b565b67ffffffffffffffff81111561911557619114617b14565b5b61911f8254618078565b61912a828285619066565b600060209050601f83116001811461915d576000841561914b578287015190505b61915585826190d7565b8655506191bd565b601f19841661916b86618f47565b60005b828110156191935784890151825560018201915060208501945060208101905061916e565b868310156191b057848901516191ac601f8916826190b9565b8355505b6001600288020188555050505b505050505050565b7f596f7520616c7265616479207369676e65642074686973206d756c7469736967600082015250565b60006191fb602083617076565b9150619206826191c5565b602082019050919050565b6000602082019050818103600083015261922a816191ee565b9050919050565b600061923c8261714e565b915060ff820361924f5761924e617fdd565b5b600182019050919050565b60006192658261714e565b91506192708361714e565b9250828201905060ff81111561928957619288617fdd565b5b92915050565b7f596f752068617665206e6f7465207369676e65642074686973206d756c74697360008201527f6967207965740000000000000000000000000000000000000000000000000000602082015250565b60006192eb602683617076565b91506192f68261928f565b604082019050919050565b6000602082019050818103600083015261931a816192de565b9050919050565b7f53747564656e7420616c72656164792065786973747300000000000000000000600082015250565b6000619357601683617076565b915061936282619321565b602082019050919050565b600060208201905081810360008301526193868161934a565b9050919050565b7f49642063616e2774206265203000000000000000000000000000000000000000600082015250565b60006193c3600d83617076565b91506193ce8261938d565b602082019050919050565b600060208201905081810360008301526193f2816193b6565b9050919050565b600060808201905061940e600083018761705c565b61941b6020830186617579565b61942860408301856175c1565b6194356060830184617609565b95945050505050565b7f53747564656e7420646f6573206e6f7420657869737400000000000000000000600082015250565b6000619474601683617076565b915061947f8261943e565b602082019050919050565b600060208201905081810360008301526194a381619467565b9050919050565b600081546194b781618078565b6194c18186617ed3565b945060018216600081146194dc57600181146194f157619524565b60ff1983168652811515820286019350619524565b6194fa85618f47565b60005b8381101561951c578154818901526001820191506020810190506194fd565b838801955050505b50505092915050565b600061953982846194aa565b915081905092915050565b60006195508284617f76565b915081905092915050565b50565b600061956b600083617ed3565b91506195768261955b565b600082019050919050565b600061958c8261955e565b9150819050919050565b7f416363657373436f6e74726f6c3a206163636f756e7420000000000000000000600082015250565b60006195cc601783617ed3565b91506195d782619596565b601782019050919050565b7f206973206d697373696e6720726f6c6520000000000000000000000000000000600082015250565b6000619618601183617ed3565b9150619623826195e2565b601182019050919050565b6000619639826195bf565b91506196458285617f76565b91506196508261960b565b915061965c8284617f76565b91508190509392505050565b600061967382616f8d565b91506000820361968657619685617fdd565b5b600182039050919050565b7f537472696e67733a20686578206c656e67746820696e73756666696369656e74600082015250565b60006196c7602083617076565b91506196d282619691565b602082019050919050565b600060208201905081810360008301526196f6816196ba565b905091905056fea2646970667358221220ca81eff37251755464c03ed6fa2000a60612e0184e94ad1b99d6f3b773b7799964736f6c63430008130033",
  "linkReferences": {},
  "deployedLinkReferences": {}
}