{
  "_format": "hh-sol-artifact-1",
  "contractName": "Certifications",
  "sourceName": "contracts/Certifications.sol",
  "abi": [
    {
      "inputs": [
        {
          "internalType": "address",
          "name": "certifier_admin1",
          "type": "address"
        },
        {
          "internalType": "address",
          "name": "certifier_admin2",
          "type": "address"
        }
      ],
      "stateMutability": "nonpayable",
      "type": "constructor"
    },
    {
      "anonymous": false,
      "inputs": [
        {
          "indexed": true,
          "internalType": "bytes32",
          "name": "role",
          "type": "bytes32"
        },
        {
          "indexed": true,
          "internalType": "bytes32",
          "name": "previousAdminRole",
          "type": "bytes32"
        },
        {
          "indexed": true,
          "internalType": "bytes32",
          "name": "newAdminRole",
          "type": "bytes32"
        }
      ],
      "name": "RoleAdminChanged",
      "type": "event"
    },
    {
      "anonymous": false,
      "inputs": [
        {
          "indexed": true,
          "internalType": "bytes32",
          "name": "role",
          "type": "bytes32"
        },
        {
          "indexed": true,
          "internalType": "address",
          "name": "account",
          "type": "address"
        },
        {
          "indexed": true,
          "internalType": "address",
          "name": "sender",
          "type": "address"
        }
      ],
      "name": "RoleGranted",
      "type": "event"
    },
    {
      "anonymous": false,
      "inputs": [
        {
          "indexed": true,
          "internalType": "bytes32",
          "name": "role",
          "type": "bytes32"
        },
        {
          "indexed": true,
          "internalType": "address",
          "name": "account",
          "type": "address"
        },
        {
          "indexed": true,
          "internalType": "address",
          "name": "sender",
          "type": "address"
        }
      ],
      "name": "RoleRevoked",
      "type": "event"
    },
    {
      "anonymous": false,
      "inputs": [
        {
          "indexed": false,
          "internalType": "uint256",
          "name": "id",
          "type": "uint256"
        },
        {
          "indexed": false,
          "internalType": "string",
          "name": "firstname",
          "type": "string"
        },
        {
          "indexed": false,
          "internalType": "string",
          "name": "lastname",
          "type": "string"
        },
        {
          "indexed": false,
          "internalType": "uint256",
          "name": "birthdate",
          "type": "uint256"
        }
      ],
      "name": "StudentAdded",
      "type": "event"
    },
    {
      "anonymous": false,
      "inputs": [
        {
          "indexed": false,
          "internalType": "uint256",
          "name": "id",
          "type": "uint256"
        }
      ],
      "name": "StudentDeleted",
      "type": "event"
    },
    {
      "anonymous": false,
      "inputs": [
        {
          "indexed": false,
          "internalType": "uint256",
          "name": "id",
          "type": "uint256"
        },
        {
          "indexed": false,
          "internalType": "string",
          "name": "firstname",
          "type": "string"
        },
        {
          "indexed": false,
          "internalType": "string",
          "name": "lastname",
          "type": "string"
        },
        {
          "indexed": false,
          "internalType": "uint256",
          "name": "birthdate",
          "type": "uint256"
        }
      ],
      "name": "StudentEdited",
      "type": "event"
    },
    {
      "anonymous": false,
      "inputs": [
        {
          "indexed": false,
          "internalType": "uint256",
          "name": "studentId",
          "type": "uint256"
        },
        {
          "indexed": false,
          "internalType": "enum Certifications.appreciation",
          "name": "appreciation",
          "type": "uint8"
        },
        {
          "indexed": false,
          "internalType": "enum Certifications.degree",
          "name": "degree",
          "type": "uint8"
        },
        {
          "indexed": false,
          "internalType": "enum Certifications.program",
          "name": "program",
          "type": "uint8"
        }
      ],
      "name": "certificationEmited",
      "type": "event"
    },
    {
      "anonymous": false,
      "inputs": [
        {
          "indexed": false,
          "internalType": "bytes32",
          "name": "multiSigName",
          "type": "bytes32"
        }
      ],
      "name": "multiSigCleared",
      "type": "event"
    },
    {
      "anonymous": false,
      "inputs": [
        {
          "indexed": false,
          "internalType": "bytes32",
          "name": "multiSigName",
          "type": "bytes32"
        }
      ],
      "name": "multiSigSigned",
      "type": "event"
    },
    {
      "inputs": [],
      "name": "CERTIFIER",
      "outputs": [
        {
          "internalType": "bytes32",
          "name": "",
          "type": "bytes32"
        }
      ],
      "stateMutability": "view",
      "type": "function"
    },
    {
      "inputs": [],
      "name": "CERTIFIER_ADMIN",
      "outputs": [
        {
          "internalType": "bytes32",
          "name": "",
          "type": "bytes32"
        }
      ],
      "stateMutability": "view",
      "type": "function"
    },
    {
      "inputs": [],
      "name": "DEFAULT_ADMIN_ROLE",
      "outputs": [
        {
          "internalType": "bytes32",
          "name": "",
          "type": "bytes32"
        }
      ],
      "stateMutability": "view",
      "type": "function"
    },
    {
      "inputs": [],
      "name": "MAX_CERTIFIERS",
      "outputs": [
        {
          "internalType": "uint8",
          "name": "",
          "type": "uint8"
        }
      ],
      "stateMutability": "view",
      "type": "function"
    },
    {
      "inputs": [],
      "name": "MAX_CERTIFIERS_ADMIN",
      "outputs": [
        {
          "internalType": "uint8",
          "name": "",
          "type": "uint8"
        }
      ],
      "stateMutability": "view",
      "type": "function"
    },
    {
      "inputs": [],
      "name": "MIN_CERTIFIERS_ADMIN",
      "outputs": [
        {
          "internalType": "uint8",
          "name": "",
          "type": "uint8"
        }
      ],
      "stateMutability": "view",
      "type": "function"
    },
    {
      "inputs": [],
      "name": "PERCENT_TO_CERTIFY",
      "outputs": [
        {
          "internalType": "uint8",
          "name": "",
          "type": "uint8"
        }
      ],
      "stateMutability": "view",
      "type": "function"
    },
    {
      "inputs": [],
      "name": "PERCENT_TO_DELETE_STUDENT",
      "outputs": [
        {
          "internalType": "uint8",
          "name": "",
          "type": "uint8"
        }
      ],
      "stateMutability": "view",
      "type": "function"
    },
    {
      "inputs": [],
      "name": "PERCENT_TO_EDIT_CERTIFICATE",
      "outputs": [
        {
          "internalType": "uint8",
          "name": "",
          "type": "uint8"
        }
      ],
      "stateMutability": "view",
      "type": "function"
    },
    {
      "inputs": [],
      "name": "PERCENT_TO_GRANT_CERTIFIER",
      "outputs": [
        {
          "internalType": "uint8",
          "name": "",
          "type": "uint8"
        }
      ],
      "stateMutability": "view",
      "type": "function"
    },
    {
      "inputs": [],
      "name": "PERCENT_TO_GRANT_CERTIFIER_ADMIN",
      "outputs": [
        {
          "internalType": "uint8",
          "name": "",
          "type": "uint8"
        }
      ],
      "stateMutability": "view",
      "type": "function"
    },
    {
      "inputs": [],
      "name": "PERCENT_TO_REVOKE_CERTIFIER",
      "outputs": [
        {
          "internalType": "uint8",
          "name": "",
          "type": "uint8"
        }
      ],
      "stateMutability": "view",
      "type": "function"
    },
    {
      "inputs": [],
      "name": "PERCENT_TO_REVOKE_CERTIFIER_ADMIN",
      "outputs": [
        {
          "internalType": "uint8",
          "name": "",
          "type": "uint8"
        }
      ],
      "stateMutability": "view",
      "type": "function"
    },
    {
      "inputs": [
        {
          "internalType": "address",
          "name": "_address",
          "type": "address"
        }
      ],
      "name": "addToStr",
      "outputs": [
        {
          "internalType": "string",
          "name": "",
          "type": "string"
        }
      ],
      "stateMutability": "pure",
      "type": "function"
    },
    {
      "inputs": [
        {
          "internalType": "uint256",
          "name": "a",
          "type": "uint256"
        },
        {
          "internalType": "uint256",
          "name": "b",
          "type": "uint256"
        }
      ],
      "name": "ceilUDiv",
      "outputs": [
        {
          "internalType": "uint256",
          "name": "",
          "type": "uint256"
        }
      ],
      "stateMutability": "pure",
      "type": "function"
    },
    {
      "inputs": [
        {
          "internalType": "bytes32",
          "name": "",
          "type": "bytes32"
        }
      ],
      "name": "certificates",
      "outputs": [
        {
          "internalType": "enum Certifications.appreciation",
          "name": "appreciation",
          "type": "uint8"
        },
        {
          "internalType": "enum Certifications.degree",
          "name": "degree",
          "type": "uint8"
        },
        {
          "internalType": "enum Certifications.program",
          "name": "program",
          "type": "uint8"
        },
        {
          "internalType": "uint256",
          "name": "creation_date",
          "type": "uint256"
        },
        {
          "internalType": "bool",
          "name": "validity",
          "type": "bool"
        },
        {
          "internalType": "uint256",
          "name": "stud_id",
          "type": "uint256"
        }
      ],
      "stateMutability": "view",
      "type": "function"
    },
    {
      "inputs": [
        {
          "internalType": "uint256",
          "name": "",
          "type": "uint256"
        },
        {
          "internalType": "uint256",
          "name": "",
          "type": "uint256"
        }
      ],
      "name": "certificatesByStudent",
      "outputs": [
        {
          "internalType": "bytes32",
          "name": "",
          "type": "bytes32"
        }
      ],
      "stateMutability": "view",
      "type": "function"
    },
    {
      "inputs": [
        {
          "internalType": "uint256",
          "name": "studentId",
          "type": "uint256"
        },
        {
          "internalType": "enum Certifications.appreciation",
          "name": "app",
          "type": "uint8"
        },
        {
          "internalType": "enum Certifications.degree",
          "name": "deg",
          "type": "uint8"
        },
        {
          "internalType": "enum Certifications.program",
          "name": "prog",
          "type": "uint8"
        },
        {
          "internalType": "bool",
          "name": "approve",
          "type": "bool"
        }
      ],
      "name": "certify",
      "outputs": [],
      "stateMutability": "nonpayable",
      "type": "function"
    },
    {
      "inputs": [
        {
          "internalType": "uint256",
          "name": "_id",
          "type": "uint256"
        },
        {
          "internalType": "string",
          "name": "_firstname",
          "type": "string"
        },
        {
          "internalType": "string",
          "name": "_lastname",
          "type": "string"
        },
        {
          "internalType": "uint256",
          "name": "_birthdate",
          "type": "uint256"
        }
      ],
      "name": "createStudent",
      "outputs": [],
      "stateMutability": "nonpayable",
      "type": "function"
    },
    {
      "inputs": [
        {
          "internalType": "uint256",
          "name": "studentId",
          "type": "uint256"
        },
        {
          "internalType": "enum Certifications.appreciation",
          "name": "app",
          "type": "uint8"
        },
        {
          "internalType": "enum Certifications.degree",
          "name": "deg",
          "type": "uint8"
        },
        {
          "internalType": "enum Certifications.program",
          "name": "prog",
          "type": "uint8"
        },
        {
          "internalType": "bool",
          "name": "approve",
          "type": "bool"
        }
      ],
      "name": "deleteCertificate",
      "outputs": [],
      "stateMutability": "nonpayable",
      "type": "function"
    },
    {
      "inputs": [
        {
          "internalType": "uint256",
          "name": "_id",
          "type": "uint256"
        },
        {
          "internalType": "string",
          "name": "_firstname",
          "type": "string"
        },
        {
          "internalType": "string",
          "name": "_lastname",
          "type": "string"
        },
        {
          "internalType": "uint256",
          "name": "_birthdate",
          "type": "uint256"
        }
      ],
      "name": "editStudentById",
      "outputs": [],
      "stateMutability": "nonpayable",
      "type": "function"
    },
    {
      "inputs": [
        {
          "internalType": "address",
          "name": "signer",
          "type": "address"
        }
      ],
      "name": "getAllMultiSig",
      "outputs": [
        {
          "internalType": "bytes32[]",
          "name": "",
          "type": "bytes32[]"
        },
        {
          "internalType": "uint8[]",
          "name": "",
          "type": "uint8[]"
        },
        {
          "internalType": "string[]",
          "name": "",
          "type": "string[]"
        },
        {
          "internalType": "bool[]",
          "name": "",
          "type": "bool[]"
        }
      ],
      "stateMutability": "view",
      "type": "function"
    },
    {
      "inputs": [
        {
          "internalType": "uint256",
          "name": "_id",
          "type": "uint256"
        }
      ],
      "name": "getCertificatesByStudent",
      "outputs": [
        {
          "internalType": "bytes32[]",
          "name": "",
          "type": "bytes32[]"
        }
      ],
      "stateMutability": "view",
      "type": "function"
    },
    {
      "inputs": [
        {
          "internalType": "bytes32",
          "name": "role",
          "type": "bytes32"
        }
      ],
      "name": "getRoleAdmin",
      "outputs": [
        {
          "internalType": "bytes32",
          "name": "",
          "type": "bytes32"
        }
      ],
      "stateMutability": "view",
      "type": "function"
    },
    {
      "inputs": [
        {
          "internalType": "bytes32",
          "name": "_role",
          "type": "bytes32"
        }
      ],
      "name": "getRoleMembersNb",
      "outputs": [
        {
          "internalType": "uint256",
          "name": "",
          "type": "uint256"
        }
      ],
      "stateMutability": "view",
      "type": "function"
    },
    {
      "inputs": [
        {
          "internalType": "uint256",
          "name": "_id",
          "type": "uint256"
        }
      ],
      "name": "getStudent",
      "outputs": [
        {
          "components": [
            {
              "internalType": "uint256",
              "name": "id",
              "type": "uint256"
            },
            {
              "internalType": "string",
              "name": "firstname",
              "type": "string"
            },
            {
              "internalType": "string",
              "name": "lastname",
              "type": "string"
            },
            {
              "internalType": "uint256",
              "name": "birthdate",
              "type": "uint256"
            }
          ],
          "internalType": "struct Students.Student",
          "name": "",
          "type": "tuple"
        }
      ],
      "stateMutability": "view",
      "type": "function"
    },
    {
      "inputs": [
        {
          "internalType": "bytes32",
          "name": "roleHash",
          "type": "bytes32"
        },
        {
          "internalType": "address",
          "name": "target",
          "type": "address"
        },
        {
          "internalType": "bool",
          "name": "approve",
          "type": "bool"
        }
      ],
      "name": "grantAnyRole",
      "outputs": [],
      "stateMutability": "nonpayable",
      "type": "function"
    },
    {
      "inputs": [
        {
          "internalType": "bytes32",
          "name": "role",
          "type": "bytes32"
        },
        {
          "internalType": "address",
          "name": "account",
          "type": "address"
        }
      ],
      "name": "grantRole",
      "outputs": [],
      "stateMutability": "nonpayable",
      "type": "function"
    },
    {
      "inputs": [
        {
          "internalType": "bytes32",
          "name": "role",
          "type": "bytes32"
        },
        {
          "internalType": "address",
          "name": "account",
          "type": "address"
        }
      ],
      "name": "hasRole",
      "outputs": [
        {
          "internalType": "bool",
          "name": "",
          "type": "bool"
        }
      ],
      "stateMutability": "view",
      "type": "function"
    },
    {
      "inputs": [
        {
          "internalType": "bytes32",
          "name": "",
          "type": "bytes32"
        }
      ],
      "name": "multiSig",
      "outputs": [
        {
          "internalType": "bool",
          "name": "created",
          "type": "bool"
        },
        {
          "internalType": "bytes32",
          "name": "role",
          "type": "bytes32"
        },
        {
          "internalType": "uint8",
          "name": "count",
          "type": "uint8"
        },
        {
          "internalType": "uint8",
          "name": "id",
          "type": "uint8"
        },
        {
          "internalType": "string",
          "name": "info",
          "type": "string"
        }
      ],
      "stateMutability": "view",
      "type": "function"
    },
    {
      "inputs": [
        {
          "internalType": "uint256",
          "name": "",
          "type": "uint256"
        }
      ],
      "name": "multiSigId",
      "outputs": [
        {
          "internalType": "bytes32",
          "name": "",
          "type": "bytes32"
        }
      ],
      "stateMutability": "view",
      "type": "function"
    },
    {
      "inputs": [
        {
          "internalType": "uint256",
          "name": "_id",
          "type": "uint256"
        },
        {
          "internalType": "bool",
          "name": "_approve",
          "type": "bool"
        }
      ],
      "name": "removeStudentById",
      "outputs": [],
      "stateMutability": "nonpayable",
      "type": "function"
    },
    {
      "inputs": [
        {
          "internalType": "bytes32",
          "name": "",
          "type": "bytes32"
        },
        {
          "internalType": "address",
          "name": "",
          "type": "address"
        }
      ],
      "name": "renounceRole",
      "outputs": [],
      "stateMutability": "nonpayable",
      "type": "function"
    },
    {
      "inputs": [
        {
          "internalType": "bytes32",
          "name": "roleHash",
          "type": "bytes32"
        },
        {
          "internalType": "address",
          "name": "target",
          "type": "address"
        },
        {
          "internalType": "bool",
          "name": "approve",
          "type": "bool"
        }
      ],
      "name": "revokeAnyRole",
      "outputs": [],
      "stateMutability": "nonpayable",
      "type": "function"
    },
    {
      "inputs": [
        {
          "internalType": "bytes32",
          "name": "role",
          "type": "bytes32"
        },
        {
          "internalType": "address",
          "name": "account",
          "type": "address"
        }
      ],
      "name": "revokeRole",
      "outputs": [],
      "stateMutability": "nonpayable",
      "type": "function"
    },
    {
      "inputs": [
        {
          "internalType": "uint256",
          "name": "",
          "type": "uint256"
        }
      ],
      "name": "students",
      "outputs": [
        {
          "internalType": "uint256",
          "name": "id",
          "type": "uint256"
        },
        {
          "internalType": "string",
          "name": "firstname",
          "type": "string"
        },
        {
          "internalType": "string",
          "name": "lastname",
          "type": "string"
        },
        {
          "internalType": "uint256",
          "name": "birthdate",
          "type": "uint256"
        }
      ],
      "stateMutability": "view",
      "type": "function"
    },
    {
      "inputs": [
        {
          "internalType": "uint256",
          "name": "",
          "type": "uint256"
        }
      ],
      "name": "studentsIds",
      "outputs": [
        {
          "internalType": "uint256",
          "name": "",
          "type": "uint256"
        }
      ],
      "stateMutability": "view",
      "type": "function"
    },
    {
      "inputs": [
        {
          "internalType": "bytes4",
          "name": "interfaceId",
          "type": "bytes4"
        }
      ],
      "name": "supportsInterface",
      "outputs": [
        {
          "internalType": "bool",
          "name": "",
          "type": "bool"
        }
      ],
      "stateMutability": "view",
      "type": "function"
    }
  ],
  "bytecode": "0x60806040523480156200001157600080fd5b5060405162004968380380620049688339810160408190526200003491620005de565b6001600160a01b0382166200009c5760405162461bcd60e51b8152602060048201526024808201527f4365727469666965722061646d696e3120616464726573732063616e6e6f74206044820152630626520360e41b60648201526084015b60405180910390fd5b6001600160a01b038116620001005760405162461bcd60e51b8152602060048201526024808201527f4365727469666965722061646d696e3220616464726573732063616e6e6f74206044820152630626520360e41b606482015260840162000093565b806001600160a01b0316826001600160a01b031603620001725760405162461bcd60e51b815260206004820152602660248201527f436572746966696572206164647265737365732063616e6e6f74206265207468604482015265652073616d6560d01b606482015260840162000093565b6200018d600080516020620049288339815191528362000511565b620001a8600080516020620049288339815191528262000521565b6040805160e0810182526002808252602080830191909152600f8284015260506060830181905260808301526000805160206200492883398151915260a08301529151909160c08301916200021391016e21a2a92a24a324a2a92fa0a226a4a760891b8152600f0190565b6040516020818303038152906040526200022d9062000616565b90526000805160206200492883398151915260009081526003602090815282517f996892c26f58715b0987b59a23f94e8ef0c02cd4cae9fdbc7a2316b6cd446de080549285015160408601516060870151608088015160ff908116600160681b0260ff60681b19919092166c010000000000000000000000000260ff60601b1963ffffffff94851668010000000000000000021664ffffffffff60401b19958516640100000000026001600160401b03199099169490971693909317969096179290921693909317929092179290921617905560a08201517f996892c26f58715b0987b59a23f94e8ef0c02cd4cae9fdbc7a2316b6cd446de15560c0909101517f996892c26f58715b0987b59a23f94e8ef0c02cd4cae9fdbc7a2316b6cd446de2556200036b90600080516020620049488339815191529062000511565b6040805160e0810182526000808252602080830191909152600f8284015260506060830181905260808301526000805160206200492883398151915260a08301529151909160c0830191620003d091016821a2a92a24a324a2a960b91b815260090190565b604051602081830303815290604052620003ea9062000616565b9052600080516020620049488339815191526000526003602090815281517f04ed60087a82bd97d8afa881e356d9b31a57e1f4fa6c3493c1181428b0c3356280549284015160408501516060860151608087015160ff908116600160681b0260ff60681b19919092166c010000000000000000000000000260ff60601b1963ffffffff94851668010000000000000000021664ffffffffff60401b19958516640100000000026001600160401b03199099169490971693909317969096179290921693909317929092179290921617905560a08101517f04ed60087a82bd97d8afa881e356d9b31a57e1f4fa6c3493c1181428b0c335635560c001517f04ed60087a82bd97d8afa881e356d9b31a57e1f4fa6c3493c1181428b0c3356455506200063e9050565b6200051d828262000521565b5050565b6000828152602081815260408083206001600160a01b038516845290915290205460ff166200051d576000828152602081815260408083206001600160a01b03851684529091529020805460ff191660011790556200057d3390565b6001600160a01b0316816001600160a01b0316837f2f8788117e7eff1d82e926ec794901d17c78024a50270940304540a733656f0d60405160405180910390a45050565b80516001600160a01b0381168114620005d957600080fd5b919050565b60008060408385031215620005f257600080fd5b620005fd83620005c1565b91506200060d60208401620005c1565b90509250929050565b8051602080830151919081101562000638576000198160200360031b1b821691505b50919050565b6142da806200064e6000396000f3fe608060405234801561001057600080fd5b50600436106102325760003560e01c80637cd29fb711610130578063ace81910116100b8578063d3243ad81161007c578063d3243ad814610500578063d547741f14610513578063df3a12dd14610526578063e05f2fb414610539578063e5a357f51461056057600080fd5b8063ace81910146104b2578063b86bc74f146104c5578063bf802091146104da578063c9dbcfda146104ed578063d0fb68c71461029757600080fd5b80639dd09a73116100ff5780639dd09a73146104515780639e33990914610367578063a1cebf5214610471578063a217fddf14610484578063a3eabd3d1461048c57600080fd5b80637cd29fb7146102975780638856a0e9146104085780638e82d0e71461041b57806391d148541461043e57600080fd5b80632f2ff15d116101be5780635907ebea116101825780635907ebea14610367578063642f91631461036f5780636bc6421b1461038f578063719129be14610397578063742f0688146103aa57600080fd5b80632f2ff15d1461032657806333b72e491461033957806336568abe146103415780634cce913b146103545780634da11a201461029757600080fd5b806312ac167c1161020557806312ac167c146102b15780631a968069146102d15780631a9cfe2814610297578063248a9ca3146102f55780632cd94e4f1461029757600080fd5b806301ffc9a71461023757806305f84d451461025f57806306ead22e146102745780630f68794a14610297575b600080fd5b61024a6102453660046133ae565b610580565b60405190151581526020015b60405180910390f35b61027261026d3660046133ed565b6105b7565b005b610287610282366004613419565b610849565b6040516102569493929190613482565b61029f605081565b60405160ff9091168152602001610256565b6102c46102bf3660046134d6565b610981565b60405161025691906134f1565b6102e46102df366004613419565b610b6c565b604051610256959493929190613504565b610318610303366004613419565b60009081526020819052604090206001015490565b604051908152602001610256565b610272610334366004613542565b610c2e565b61029f600281565b61027261034f366004613542565b610c53565b610318610362366004613565565b610cba565b61029f600f81565b61038261037d366004613419565b610ceb565b6040516102569190613587565b61029f603381565b6102726103a53660046135e1565b610ec1565b6103f66103b8366004613419565b600760205260009081526040902080546001820154600283015460039093015460ff8084169461010085048216946201000090048216939291169086565b60405161025696959493929190613667565b6102726104163660046136ac565b61123e565b61042e6104293660046134d6565b611726565b6040516102569493929190613789565b61024a61044c366004613542565b611a2b565b61031861045f366004613419565b60056020526000908152604090205481565b61027261047f3660046138ed565b611a54565b610318600081565b61031861049a366004613419565b60009081526003602052604090205463ffffffff1690565b6102726104c03660046136ac565b611c08565b61031860008051602061428583398151915281565b6103186104e8366004613565565b61209b565b6102726104fb3660046138ed565b6120d4565b61027261050e3660046135e1565b612161565b610272610521366004613542565b612640565b610318610534366004613419565b612665565b6103187f4bbeb6fd3e5222e55f2f8b0c35bc228e0a06a25d0da772fdb02c3b92fa004f8881565b61057361056e366004613419565b612686565b6040516102569190613962565b60006001600160e01b03198216637965db0b60e01b14806105b157506301ffc9a760e01b6001600160e01b03198316145b92915050565b6105cf60008051602061428583398151915233611a2b565b6105f45760405162461bcd60e51b81526004016105eb90613975565b60405180910390fd5b600082116106145760405162461bcd60e51b81526004016105eb906139ac565b60008281526001602052604081205490036106415760405162461bcd60e51b81526004016105eb906139e3565b60008260405160200161066d9181526d1111531155114814d5155111539560921b6020820152602e0190565b6040516020818303038152906040528051906020012090506106dc81600080516020614285833981519152856040516020016106ab91815260200190565b60408051601f19818403018152908290526106c891602001613a1a565b604051602081830303815290604052612715565b8180156107065750600081815260046020908152604080832033845260030190915290205460ff16155b156107495760008181526004602052604090206107239033612796565b6040518181526000805160206142458339815191529060200160405180910390a161078d565b81151560000361078d57600081815260046020526040902061076b90336128c3565b6040518181526000805160206142458339815191529060200160405180910390a15b60008051602061428583398151915260005260036020527f04ed60087a82bd97d8afa881e356d9b31a57e1f4fa6c3493c1181428b0c33562546107e9906107dc9060509063ffffffff16613a67565b63ffffffff16606461209b565b60008281526004602052604090206002015460ff161061084457600081815260046020526040902061081a9061297b565b6040518181526000805160206142658339815191529060200160405180910390a1610844836129ec565b505050565b60016020819052600091825260409091208054918101805461086a90613a8f565b80601f016020809104026020016040519081016040528092919081815260200182805461089690613a8f565b80156108e35780601f106108b8576101008083540402835291602001916108e3565b820191906000526020600020905b8154815290600101906020018083116108c657829003601f168201915b5050505050908060020180546108f890613a8f565b80601f016020809104026020016040519081016040528092919081815260200182805461092490613a8f565b80156109715780601f1061094657610100808354040283529160200191610971565b820191906000526020600020905b81548152906001019060200180831161095457829003601f168201915b5050505050908060030154905084565b604080518082018252601081526f181899199a1a9b1b9c1cb0b131b232b360811b60208201528151602a80825260608281019094526001600160a01b0385169291600091602082018180368337019050509050600360fc1b816000815181106109ec576109ec613ac9565b60200101906001600160f81b031916908160001a905350600f60fb1b81600181518110610a1b57610a1b613ac9565b60200101906001600160f81b031916908160001a90535060005b6014811015610b635782600485610a4d84600c613adf565b60208110610a5d57610a5d613ac9565b1a60f81b6001600160f81b031916901c60f81c60ff1681518110610a8357610a83613ac9565b01602001516001600160f81b03191682610a9e836002613af2565b610aa9906002613adf565b81518110610ab957610ab9613ac9565b60200101906001600160f81b031916908160001a9053508284610add83600c613adf565b60208110610aed57610aed613ac9565b825191901a600f16908110610b0457610b04613ac9565b01602001516001600160f81b03191682610b1f836002613af2565b610b2a906003613adf565b81518110610b3a57610b3a613ac9565b60200101906001600160f81b031916908160001a90535080610b5b81613b09565b915050610a35565b50949350505050565b600460205260009081526040902080546001820154600283015460058401805460ff9485169593948381169461010090940416929190610bab90613a8f565b80601f0160208091040260200160405190810160405280929190818152602001828054610bd790613a8f565b8015610c245780601f10610bf957610100808354040283529160200191610c24565b820191906000526020600020905b815481529060010190602001808311610c0757829003601f168201915b5050505050905085565b600082815260208190526040902060010154610c4981612ac5565b6108448383612ad2565b60405162461bcd60e51b815260206004820152603660248201527f596f752063616e27742072656e6f756e636520746f20796f757220726f6c652e60448201527520506c6561736520636f6e746163742061646d696e7360501b60648201526084016105eb565b60086020528160005260406000208181548110610cd657600080fd5b90600052602060002001600091509150505481565b610d166040518060800160405280600081526020016060815260200160608152602001600081525090565b6000828152600160205260408120549003610d6b5760405162461bcd60e51b815260206004820152601560248201527414dd1d59195b9d08191bd95cdb89dd08195e1a5cdd605a1b60448201526064016105eb565b60008281526001602081815260409283902083516080810190945280548452918201805491840191610d9c90613a8f565b80601f0160208091040260200160405190810160405280929190818152602001828054610dc890613a8f565b8015610e155780601f10610dea57610100808354040283529160200191610e15565b820191906000526020600020905b815481529060010190602001808311610df857829003601f168201915b50505050508152602001600282018054610e2e90613a8f565b80601f0160208091040260200160405190810160405280929190818152602001828054610e5a90613a8f565b8015610ea75780601f10610e7c57610100808354040283529160200191610ea7565b820191906000526020600020905b815481529060010190602001808311610e8a57829003601f168201915b505050505081526020016003820154815250509050919050565b60008381526003602090815260409182902080546002820154845193840152909263ffffffff808316680100000000000000009093041691909111910160408051601f1981840301815290829052610f1b91602001613b22565b60405160208183030381529060405290610f485760405162461bcd60e51b81526004016105eb91906134f1565b50610f57816001015433611a2b565b8160020154604051602001610f6e91815260200190565b60408051601f1981840301815290829052610f8b91602001613b60565b60405160208183030381529060405290610fb85760405162461bcd60e51b81526004016105eb91906134f1565b50610fc38484611a2b565b60028201546040805160208101929092529115910160408051601f1981840301815290829052610ff591602001613ba8565b604051602081830303815290604052906110225760405162461bcd60e51b81526004016105eb91906134f1565b506040516bffffffffffffffffffffffff19606085901b1660208201526411d490539560da1b6034820152603981018590526000906059016040516020818303038152906040528051906020012090506110bb818360010154846002015460405160200161109291815260200190565b6040516020818303038152906040526110aa88610981565b6040516020016106c8929190613bed565b8280156110e55750600081815260046020908152604080832033845260030190915290205460ff16155b156111285760008181526004602052604090206111029033612796565b6040518181526000805160206142458339815191529060200160405180910390a161116c565b82151560000361116c57600081815260046020526040902061114a90336128c3565b6040518181526000805160206142458339815191529060200160405180910390a15b815460018301546000908152600360205260409020546111a1916107dc91600160601b90910460ff169063ffffffff16613a67565b60008281526004602052604090206002015460ff16106112375760008181526004602052604090206111d29061297b565b6040518181526000805160206142658339815191529060200160405180910390a16111fd8585612ad2565b8154600190839060009061121890849063ffffffff16613c3b565b92506101000a81548163ffffffff021916908363ffffffff1602179055505b5050505050565b61125660008051602061428583398151915233611a2b565b6112725760405162461bcd60e51b81526004016105eb90613975565b600085815260016020526040812054900361129f5760405162461bcd60e51b81526004016105eb906139e3565b60008460038111156112b3576112b361361d565b101580156112d3575060038460038111156112d0576112d061361d565b11155b61131b5760405162461bcd60e51b8152602060048201526019602482015278105c1c1c9958da585d1a5bdb881a5cc81b9bdd081d985b1a59603a1b60448201526064016105eb565b600083600281111561132f5761132f61361d565b1015801561134f5750600283600281111561134c5761134c61361d565b11155b6113915760405162461bcd60e51b8152602060048201526013602482015272111959dc9959481a5cc81b9bdd081d985b1a59606a1b60448201526064016105eb565b600082600f8111156113a5576113a561361d565b101580156113c55750600f82600f8111156113c2576113c261361d565b11155b6114085760405162461bcd60e51b8152602060048201526014602482015273141c9bd9dc985b481a5cc81b9bdd081d985b1a5960621b60448201526064016105eb565b60076000868686866040516020016114239493929190613c96565b60408051601f198184030181529181528151602092830120835290820192909252016000206002015460ff1615156001146114a05760405162461bcd60e51b815260206004820152601e60248201527f5468697320636572746966696361746520646f65736e2774206578697374000060448201526064016105eb565b6000858585856040516020016114b99493929190613ccb565b60405160208183030381529060405280519060200120905061157781600080516020614285833981519152886040516020016114f791815260200190565b604051602081830303815290604052886040516020016115179190613d0f565b604051602081830303815290604052886040516020016115379190613d21565b604051602081830303815290604052886040516020016115579190613d2b565b60408051601f19818403018152908290526106c894939291602001613d35565b8180156115a15750600081815260046020908152604080832033845260030190915290205460ff16155b156115e45760008181526004602052604090206115be9033612796565b6040518181526000805160206142458339815191529060200160405180910390a1611628565b81151560000361162857600081815260046020526040902061160690336128c3565b6040518181526000805160206142458339815191529060200160405180910390a15b60008051602061428583398151915260005260036020527f04ed60087a82bd97d8afa881e356d9b31a57e1f4fa6c3493c1181428b0c3356254611677906107dc9060509063ffffffff16613a67565b60008281526004602052604090206002015460ff161061171e5760008181526004602052604090206116a89061297b565b6040518181526000805160206142658339815191529060200160405180910390a1600060076000888888886040516020016116e69493929190613c96565b60408051808303601f19018152918152815160209283012083529082019290925201600020600201805460ff19169115159190911790555b505050505050565b606080606080600060065467ffffffffffffffff8111156117495761174961384a565b60405190808252806020026020018201604052801561177c57816020015b60608152602001906001900390816117675790505b509050600060065467ffffffffffffffff81111561179c5761179c61384a565b6040519080825280602002602001820160405280156117c5578160200160208202803683370190505b509050600060065467ffffffffffffffff8111156117e5576117e561384a565b60405190808252806020026020018201604052801561180e578160200160208202803683370190505b509050600060065467ffffffffffffffff81111561182e5761182e61384a565b604051908082528060200260200182016040528015611857578160200160208202803683370190505b50905060005b600654811015611a1a576000818152600560208181526040808420548452600490915290912001805461188f90613a8f565b80601f01602080910402602001604051908101604052809291908181526020018280546118bb90613a8f565b80156119085780601f106118dd57610100808354040283529160200191611908565b820191906000526020600020905b8154815290600101906020018083116118eb57829003601f168201915b505050505085828151811061191f5761191f613ac9565b602090810291909101810191909152600082815260058252604080822054825260049092522060020154845160ff9091169085908390811061196357611963613ac9565b60ff90921660209283029190910182015260008281526005825260408082205482526004909252206001015483518490839081106119a3576119a3613ac9565b6020908102919091018101919091526000828152600582526040808220548252600483528082206001600160a01b038e1683526003019092522054825160ff909116908390839081106119f8576119f8613ac9565b9115156020928302919091019091015280611a1281613b09565b91505061185d565b509098919750919550909350915050565b6000918252602082815260408084206001600160a01b0393909316845291905290205460ff1690565b611a6c60008051602061428583398151915233611a2b565b611a885760405162461bcd60e51b81526004016105eb90613975565b60008411611aa85760405162461bcd60e51b81526004016105eb906139ac565b6000835111611af95760405162461bcd60e51b815260206004820152601960248201527f46697273746e616d652063616e6e6f7420626520656d7074790000000000000060448201526064016105eb565b6000825111611b4a5760405162461bcd60e51b815260206004820152601860248201527f4c6173746e616d652063616e6e6f7420626520656d707479000000000000000060448201526064016105eb565b60008111611b9a5760405162461bcd60e51b815260206004820181905260248201527f426972746864617465206d7573742062652067726561746572207468616e203060448201526064016105eb565b60008481526001602052604090205415611bf65760405162461bcd60e51b815260206004820152601b60248201527f546869732073747564656e7420616c726561647920657869737473000000000060448201526064016105eb565b611c0284848484612b56565b50505050565b611c2060008051602061428583398151915233611a2b565b611c3c5760405162461bcd60e51b81526004016105eb90613975565b6000858152600160205260408120549003611c695760405162461bcd60e51b81526004016105eb906139e3565b6000846003811115611c7d57611c7d61361d565b10158015611c9d57506003846003811115611c9a57611c9a61361d565b11155b611ce55760405162461bcd60e51b8152602060048201526019602482015278105c1c1c9958da585d1a5bdb881a5cc81b9bdd081d985b1a59603a1b60448201526064016105eb565b6000836002811115611cf957611cf961361d565b10158015611d1957506002836002811115611d1657611d1661361d565b11155b611d5b5760405162461bcd60e51b8152602060048201526013602482015272111959dc9959481a5cc81b9bdd081d985b1a59606a1b60448201526064016105eb565b600082600f811115611d6f57611d6f61361d565b10158015611d8f5750600f82600f811115611d8c57611d8c61361d565b11155b611dd25760405162461bcd60e51b8152602060048201526014602482015273141c9bd9dc985b481a5cc81b9bdd081d985b1a5960621b60448201526064016105eb565b6007600086868686604051602001611ded9493929190613c96565b60408051601f198184030181529181528151602092830120835290820192909252016000206002015460ff1615611e665760405162461bcd60e51b815260206004820152601f60248201527f5468697320636572746966696361746520616c7265616479206578697374730060448201526064016105eb565b600085858585604051602001611e7f9493929190613dc0565b604051602081830303815290604052805190602001209050611f3d8160008051602061428583398151915288604051602001611ebd91815260200190565b60405160208183030381529060405288604051602001611edd9190613d0f565b60405160208183030381529060405288604051602001611efd9190613d21565b60405160208183030381529060405288604051602001611f1d9190613d2b565b60408051601f19818403018152908290526106c894939291602001613e05565b818015611f675750600081815260046020908152604080832033845260030190915290205460ff16155b15611faa576000818152600460205260409020611f849033612796565b6040518181526000805160206142458339815191529060200160405180910390a1611fee565b811515600003611fee576000818152600460205260409020611fcc90336128c3565b6040518181526000805160206142458339815191529060200160405180910390a15b60008051602061428583398151915260005260036020527f04ed60087a82bd97d8afa881e356d9b31a57e1f4fa6c3493c1181428b0c335625461203d906107dc9060339063ffffffff16613a67565b60008281526004602052604090206002015460ff161061171e57600081815260046020526040902061206e9061297b565b6040518181526000805160206142658339815191529060200160405180910390a161171e86868686612ccf565b60006120a78284613ea7565b6000036120bf576120b88284613ebb565b90506105b1565b6120c98284613ebb565b6120b8906001613adf565b6120ec60008051602061428583398151915233611a2b565b6121085760405162461bcd60e51b81526004016105eb90613975565b600084116121285760405162461bcd60e51b81526004016105eb906139ac565b60008481526001602052604081205490036121555760405162461bcd60e51b81526004016105eb906139e3565b611c0284848484612e9d565b60008381526003602090815260409182902080546002820154845193840152909263ffffffff64010000000083048116921691909111910160408051601f19818403018152908290526121b691602001613ecf565b604051602081830303815290604052906121e35760405162461bcd60e51b81526004016105eb91906134f1565b506121ee8484611a2b565b816002015460405160200161220591815260200190565b60408051601f198184030181529082905261222291602001613eee565b6040516020818303038152906040529061224f5760405162461bcd60e51b81526004016105eb91906134f1565b5061225e816001015433611a2b565b816002015460405160200161227591815260200190565b60408051601f198184030181529082905261229291602001613b60565b604051602081830303815290604052906122bf5760405162461bcd60e51b81526004016105eb91906134f1565b506040516bffffffffffffffffffffffff19606085901b166020820152655245564f4b4560d01b6034820152603a8101859052600090605a01604051602081830303815290604052805190602001209050612359818360010154846002015460405160200161233091815260200190565b60405160208183030381529060405261234888610981565b6040516020016106c8929190613f2c565b8280156123835750600081815260046020908152604080832033845260030190915290205460ff16155b156123c65760008181526004602052604090206123a09033612796565b6040518181526000805160206142458339815191529060200160405180910390a161240a565b82151560000361240a5760008181526004602052604090206123e890336128c3565b6040518181526000805160206142458339815191529060200160405180910390a15b8160010154851415801561246657508154600183015460009081526003602052604090205461244e916107dc91600160681b90910460ff169063ffffffff16613a67565b60008281526004602052604090206002015460ff1610155b806124d157508160010154851480156124d1575081546001808401546000908152600360205260409020546124b992600160681b900460ff16916124af9163ffffffff16613f7b565b6107dc9190613a67565b60008281526004602052604090206002015460ff1610155b156112375760005b6006548110156125e2576000818152600560209081526040808320548352600482528083206001600160a01b038916845260030190915290205460ff161515600114801561254457506000818152600560209081526040808320548352600490915290206001015486145b156125d05760008181526005602090815260408083205483526004909152812060020180546001929061257b90849060ff16613f98565b825460ff9182166101009390930a9283029190920219909116179055506000818152600560209081526040808320548352600482528083206001600160a01b03891684526003019091529020805460ff191690555b806125da81613b09565b9150506124d9565b5060008181526004602052604090206125fa9061297b565b6040518181526000805160206142658339815191529060200160405180910390a161262585856130ed565b8154600190839060009061121890849063ffffffff16613f7b565b60008281526020819052604090206001015461265b81612ac5565b61084483836130ed565b6002818154811061267557600080fd5b600091825260209091200154905081565b600081815260016020526040812054606091036126b55760405162461bcd60e51b81526004016105eb906139e3565b6000828152600860209081526040918290208054835181840281018401909452808452909183018282801561270957602002820191906000526020600020905b8154815260200190600101908083116126f5575b50505050509050919050565b60008381526004602052604081205460ff1615159003610844576000838152600460209081526040808320805460ff191660019081179091556006805485526005909352908320869055815490929061276f908490613adf565b9091555050600083815260046020526040902060018101839055600501611c028282613ff7565b6001600160a01b038116600090815260038301602052604090205460ff16156128015760405162461bcd60e51b815260206004820181905260248201527f596f7520616c7265616479207369676e65642074686973206d756c746973696760448201526064016105eb565b6002820180546101009081900460ff9081166000908152600486016020526040902080546001600160a01b0319166001600160a01b0386161790558254919091041690600161284f836140b7565b82546101009290920a60ff8181021990931691831602179091556001600160a01b03831660009081526003850160205260408120805460ff19166001908117909155600286018054919450926128a7918591166140d6565b92506101000a81548160ff021916908360ff1602179055505050565b6001600160a01b038116600090815260038301602052604090205460ff1615156001146129415760405162461bcd60e51b815260206004820152602660248201527f596f752068617665206e6f7465207369676e65642074686973206d756c7469736044820152651a59c81e595d60d21b60648201526084016105eb565b6001600160a01b03811660009081526003830160205260408120805460ff19169055600283018054600192906128a790849060ff16613f98565b60028101805460ff1916905560005b600282015460ff610100909104811690821610156129e85760ff811660009081526004830160209081526040808320546001600160a01b03168352600385019091529020805460ff19169055806129e0816140b7565b91505061298a565b5050565b600081815260016020819052604082208281559190612a0d90830182613360565b612a1b600283016000613360565b6003820160009055505060005b600254811015612a8e578160028281548110612a4657612a46613ac9565b906000526020600020015403612a7c57600060028281548110612a6b57612a6b613ac9565b600091825260209091200155612a8e565b80612a8681613b09565b915050612a28565b506040518181527f34de6b871245ed0a89b82912e8e5ee6d9c3104b3e5bb1d67a71ad7e68239e41c9060200160405180910390a150565b612acf8133613152565b50565b612adc8282611a2b565b6129e8576000828152602081815260408083206001600160a01b03851684529091529020805460ff19166001179055612b123390565b6001600160a01b0316816001600160a01b0316837f2f8788117e7eff1d82e926ec794901d17c78024a50270940304540a733656f0d60405160405180910390a45050565b60008481526001602052604090205415612bab5760405162461bcd60e51b815260206004820152601660248201527553747564656e7420616c72656164792065786973747360501b60448201526064016105eb565b83600003612beb5760405162461bcd60e51b815260206004820152600d60248201526c049642063616e2774206265203609c1b60448201526064016105eb565b6040805160808101825285815260208082018681528284018690526060830185905260008881526001928390529390932082518155925191929190820190612c339082613ff7565b5060408201516002820190612c489082613ff7565b5060609190910151600390910155600280546001810182556000919091527f405787fa12a823e0f2b7631cc41b3ba8828b3321ca811111fa75cd3aa3bb5ace018490556040517fb6767d1c89515962142b00b5577569c92a74381d9441a528911c66e0c3cea1f890612cc1908690869086908690613482565b60405180910390a150505050565b6040518060c00160405280846003811115612cec57612cec61361d565b8152602001836002811115612d0357612d0361361d565b815260200182600f811115612d1a57612d1a61361d565b8152602001428152602001600115158152602001858152506007600086868686604051602001612d4d9493929190613c96565b60408051601f1981840301815291815281516020928301208352908201929092520160002081518154829060ff19166001836003811115612d9057612d9061361d565b021790555060208201518154829061ff001916610100836002811115612db857612db861361d565b021790555060408201518154829062ff000019166201000083600f811115612de257612de261361d565b021790555060608201516001820155608082015160028201805460ff191691151591909117905560a0909101516003909101556000848152600860209081526040918290209151612e3b91879187918791879101613c96565b60408051601f19818403018152908290528051602091820120835460018101855560009485529190932001919091557fb55811dd01470a227956304b027c610c7cdf9dd622dcc47791380261d56dc6ed90612cc19086908690869086906140ef565b6000848152600160205260408120549003612ef35760405162461bcd60e51b815260206004820152601660248201527514dd1d59195b9d08191bd95cc81b9bdd08195e1a5cdd60521b60448201526064016105eb565b60016000858152602001908152602001600020600101604051602001612f199190614126565b6040516020818303038152906040528051906020012083604051602001612f40919061419c565b6040516020818303038152906040528051906020012014158015612f9857506040805160008152602081018083528151902091612f7f9186910161419c565b6040516020818303038152906040528051906020012014155b15612fbb57600084815260016020819052604090912001612fb98482613ff7565b505b6000848152600160209081526040918290209151612fdd926002019101614126565b6040516020818303038152906040528051906020012082604051602001613004919061419c565b604051602081830303815290604052805190602001201415801561305c575060408051600081526020810180835281519020916130439185910161419c565b6040516020818303038152906040528051906020012014155b1561307e57600084815260016020526040902060020161307c8382613ff7565b505b600084815260016020526040902060030154811480159061309e57508015155b156130b85760008481526001602052604090206003018190555b7f03e10a3f40e9af2a5e61cb5a3de55fd67286470c35b3cf345b04a83cf3f4907784848484604051612cc19493929190613482565b6130f78282611a2b565b156129e8576000828152602081815260408083206001600160a01b0385168085529252808320805460ff1916905551339285917ff6391f5c32d9c69d2a47ea670b442974b53935d1edc7fd64eb21e047a839171b9190a45050565b61315c8282611a2b565b6129e857613169816131ab565b6131748360206131bd565b6040516020016131859291906141b8565b60408051601f198184030181529082905262461bcd60e51b82526105eb916004016134f1565b60606105b16001600160a01b03831660145b606060006131cc836002613af2565b6131d7906002613adf565b67ffffffffffffffff8111156131ef576131ef61384a565b6040519080825280601f01601f191660200182016040528015613219576020820181803683370190505b509050600360fc1b8160008151811061323457613234613ac9565b60200101906001600160f81b031916908160001a905350600f60fb1b8160018151811061326357613263613ac9565b60200101906001600160f81b031916908160001a9053506000613287846002613af2565b613292906001613adf565b90505b600181111561330a576f181899199a1a9b1b9c1cb0b131b232b360811b85600f16601081106132c6576132c6613ac9565b1a60f81b8282815181106132dc576132dc613ac9565b60200101906001600160f81b031916908160001a90535060049490941c936133038161422d565b9050613295565b5083156133595760405162461bcd60e51b815260206004820181905260248201527f537472696e67733a20686578206c656e67746820696e73756666696369656e7460448201526064016105eb565b9392505050565b50805461336c90613a8f565b6000825580601f1061337c575050565b601f016020900490600052602060002090810190612acf91905b808211156133aa5760008155600101613396565b5090565b6000602082840312156133c057600080fd5b81356001600160e01b03198116811461335957600080fd5b803580151581146133e857600080fd5b919050565b6000806040838503121561340057600080fd5b82359150613410602084016133d8565b90509250929050565b60006020828403121561342b57600080fd5b5035919050565b60005b8381101561344d578181015183820152602001613435565b50506000910152565b6000815180845261346e816020860160208601613432565b601f01601f19169290920160200192915050565b84815260806020820152600061349b6080830186613456565b82810360408401526134ad8186613456565b91505082606083015295945050505050565b80356001600160a01b03811681146133e857600080fd5b6000602082840312156134e857600080fd5b613359826134bf565b6020815260006133596020830184613456565b851515815284602082015260ff8416604082015260ff8316606082015260a06080820152600061353760a0830184613456565b979650505050505050565b6000806040838503121561355557600080fd5b82359150613410602084016134bf565b6000806040838503121561357857600080fd5b50508035926020909101359150565b602081528151602082015260006020830151608060408401526135ad60a0840182613456565b90506040840151601f198483030160608501526135ca8282613456565b915050606084015160808401528091505092915050565b6000806000606084860312156135f657600080fd5b83359250613606602085016134bf565b9150613614604085016133d8565b90509250925092565b634e487b7160e01b600052602160045260246000fd5b600481106136435761364361361d565b9052565b600381106136435761364361361d565b601081106136435761364361361d565b60c081016136758289613633565b6136826020830188613647565b61368f6040830187613657565b6060820194909452911515608083015260a0909101529392505050565b600080600080600060a086880312156136c457600080fd5b853594506020860135600481106136da57600080fd5b93506040860135600381106136ee57600080fd5b925060608601356010811061370257600080fd5b9150613710608087016133d8565b90509295509295909350565b600081518084526020808501945080840160005b8381101561374c57815187529582019590820190600101613730565b509495945050505050565b600081518084526020808501945080840160005b8381101561374c57815115158752958201959082019060010161376b565b60808152600061379c608083018761371c565b82810360208481019190915286518083528782019282019060005b818110156137d657845160ff16835293830193918301916001016137b7565b5050848103604086015286518082528282019350600581901b8201830183890160005b8381101561382757601f19858403018752613815838351613456565b968601969250908501906001016137f9565b5050868103606088015261383b8189613757565b9b9a5050505050505050505050565b634e487b7160e01b600052604160045260246000fd5b600082601f83011261387157600080fd5b813567ffffffffffffffff8082111561388c5761388c61384a565b604051601f8301601f19908116603f011681019082821181831017156138b4576138b461384a565b816040528381528660208588010111156138cd57600080fd5b836020870160208301376000602085830101528094505050505092915050565b6000806000806080858703121561390357600080fd5b84359350602085013567ffffffffffffffff8082111561392257600080fd5b61392e88838901613860565b9450604087013591508082111561394457600080fd5b5061395187828801613860565b949793965093946060013593505050565b602081526000613359602083018461371c565b60208082526019908201527f43616c6c6572206973206e6f7420612063657274696669657200000000000000604082015260600190565b60208082526019908201527f4964206d7573742062652067726561746572207468616e203000000000000000604082015260600190565b6020808252601a908201527f546869732073747564656e7420646f65736e2774206578697374000000000000604082015260600190565b6e02232b632ba329039ba3ab232b73a1608d1b815260008251613a4481600f850160208701613432565b91909101600f0192915050565b634e487b7160e01b600052601160045260246000fd5b63ffffffff818116838216028082169190828114613a8757613a87613a51565b505092915050565b600181811c90821680613aa357607f821691505b602082108103613ac357634e487b7160e01b600052602260045260246000fd5b50919050565b634e487b7160e01b600052603260045260246000fd5b808201808211156105b1576105b1613a51565b80820281158282048414176105b1576105b1613a51565b600060018201613b1b57613b1b613a51565b5060010190565b63026b0bc160e51b815260008251613b41816004850160208701613432565b67081c995858da195960c21b6004939091019283015250600c01919050565b6f021b0b63632b91034b9903737ba1030960851b815260008251613b8b816010850160208701613432565b651030b236b4b760d11b6010939091019283015250601601919050565b7f54686973206164647265737320697320616c7265616479206120000000000000815260008251613be081601a850160208701613432565b91909101601a0192915050565b65023b930b73a160d51b815260008351613c0e816006850160208801613432565b600160fd1b6006918401918201528351613c2f816007840160208801613432565b01600701949350505050565b63ffffffff818116838216019080821115613c5857613c58613a51565b5092915050565b60048110613c6f57613c6f61361d565b60f81b9052565b60038110613c6f57613c6f61361d565b60108110613c6f57613c6f61361d565b848152613ca66020820185613c5f565b613cb36021820184613c76565b613cc06022820183613c86565b602301949350505050565b848152613cdb6020820185613c5f565b613ce86021820184613c76565b613cf56022820183613c86565b6544454c45544560d01b6023820152602901949350505050565b613d198183613c5f565b600101919050565b613d198183613c76565b613d198183613c86565b6602232b632ba32960cd1b815260008551613d57816007850160208a01613432565b8083019050600160fd1b8060078301528651613d7a816008850160208b01613432565b600892019182018190528551613d97816009850160208a01613432565b60099201918201528351613db281600a840160208801613432565b01600a019695505050505050565b848152613dd06020820185613c5f565b613ddd6021820184613c76565b613dea6022820183613c86565b664345525449465960c81b6023820152602a01949350505050565b67021b2b93a34b33c960c51b815260008551613e28816008850160208a01613432565b8083019050600160fd1b8060088301528651613e4b816009850160208b01613432565b600992019182018190528551613e6881600a850160208a01613432565b600a9201918201528351613e8381600b840160208801613432565b01600b019695505050505050565b634e487b7160e01b600052601260045260246000fd5b600082613eb657613eb6613e91565b500690565b600082613eca57613eca613e91565b500490565b63026b4b7160e51b815260008251613b41816004850160208701613432565b7502a3434b99030b2323932b9b99034b9903737ba1030960551b815260008251613f1f816016850160208701613432565b9190910160160192915050565b6602932bb37b5b2960cd1b815260008351613f4e816007850160208801613432565b600160fd1b6007918401918201528351613f6f816008840160208801613432565b01600801949350505050565b63ffffffff828116828216039080821115613c5857613c58613a51565b60ff82811682821603908111156105b1576105b1613a51565b601f82111561084457600081815260208120601f850160051c81016020861015613fd85750805b601f850160051c820191505b8181101561171e57828155600101613fe4565b815167ffffffffffffffff8111156140115761401161384a565b6140258161401f8454613a8f565b84613fb1565b602080601f83116001811461405a57600084156140425750858301515b600019600386901b1c1916600185901b17855561171e565b600085815260208120601f198616915b828110156140895788860151825594840194600190910190840161406a565b50858210156140a75787850151600019600388901b60f8161c191681555b5050505050600190811b01905550565b600060ff821660ff81036140cd576140cd613a51565b60010192915050565b60ff81811683821601908111156105b1576105b1613a51565b848152608081016141036020830186613633565b6141106040830185613647565b61411d6060830184613657565b95945050505050565b600080835461413481613a8f565b6001828116801561414c576001811461416157614190565b60ff1984168752821515830287019450614190565b8760005260208060002060005b858110156141875781548a82015290840190820161416e565b50505082870194505b50929695505050505050565b600082516141ae818460208701613432565b9190910192915050565b7f416363657373436f6e74726f6c3a206163636f756e74200000000000000000008152600083516141f0816017850160208801613432565b7001034b99036b4b9b9b4b733903937b6329607d1b6017918401918201528351614221816028840160208801613432565b01602801949350505050565b60008161423c5761423c613a51565b50600019019056feb431a69783a2491a0c400ff16dab32cd442abf8fe5af63a526a7248d730192f8562618dbcf74b61ae5b0f229fe40ba6d5b6ae6b4248f8c89a870dda7c77135f6d646ae07eb0d0f77457502a65e7407930dff4cd4fd99abc6aac87a753f4c8a42a2646970667358221220100a9d6a1f1287ca2a6847cd31cfecd3c9a8b6c6c2b68a58a3eb48118c62587564736f6c634300081300334bbeb6fd3e5222e55f2f8b0c35bc228e0a06a25d0da772fdb02c3b92fa004f88d646ae07eb0d0f77457502a65e7407930dff4cd4fd99abc6aac87a753f4c8a42",
  "linkReferences": {},
  "deployedLinkReferences": {}
}