{
  "_format": "hh-sol-artifact-1",
  "contractName": "Certifications",
  "sourceName": "contracts/Certifications.sol",
  "abi": [
    {
      "inputs": [
        {
          "internalType": "address",
          "name": "certifier_admin1",
          "type": "address"
        },
        {
          "internalType": "address",
          "name": "certifier_admin2",
          "type": "address"
        }
      ],
      "stateMutability": "nonpayable",
      "type": "constructor"
    },
    {
      "anonymous": false,
      "inputs": [
        {
          "indexed": true,
          "internalType": "bytes32",
          "name": "role",
          "type": "bytes32"
        },
        {
          "indexed": true,
          "internalType": "bytes32",
          "name": "previousAdminRole",
          "type": "bytes32"
        },
        {
          "indexed": true,
          "internalType": "bytes32",
          "name": "newAdminRole",
          "type": "bytes32"
        }
      ],
      "name": "RoleAdminChanged",
      "type": "event"
    },
    {
      "anonymous": false,
      "inputs": [
        {
          "indexed": true,
          "internalType": "bytes32",
          "name": "role",
          "type": "bytes32"
        },
        {
          "indexed": true,
          "internalType": "address",
          "name": "account",
          "type": "address"
        },
        {
          "indexed": true,
          "internalType": "address",
          "name": "sender",
          "type": "address"
        }
      ],
      "name": "RoleGranted",
      "type": "event"
    },
    {
      "anonymous": false,
      "inputs": [
        {
          "indexed": true,
          "internalType": "bytes32",
          "name": "role",
          "type": "bytes32"
        },
        {
          "indexed": true,
          "internalType": "address",
          "name": "account",
          "type": "address"
        },
        {
          "indexed": true,
          "internalType": "address",
          "name": "sender",
          "type": "address"
        }
      ],
      "name": "RoleRevoked",
      "type": "event"
    },
    {
      "anonymous": false,
      "inputs": [
        {
          "indexed": false,
          "internalType": "uint256",
          "name": "id",
          "type": "uint256"
        },
        {
          "indexed": false,
          "internalType": "string",
          "name": "firstname",
          "type": "string"
        },
        {
          "indexed": false,
          "internalType": "string",
          "name": "lastname",
          "type": "string"
        },
        {
          "indexed": false,
          "internalType": "uint256",
          "name": "birthdate",
          "type": "uint256"
        }
      ],
      "name": "StudentAdded",
      "type": "event"
    },
    {
      "anonymous": false,
      "inputs": [
        {
          "indexed": false,
          "internalType": "uint256",
          "name": "id",
          "type": "uint256"
        }
      ],
      "name": "StudentDeleted",
      "type": "event"
    },
    {
      "anonymous": false,
      "inputs": [
        {
          "indexed": false,
          "internalType": "uint256",
          "name": "id",
          "type": "uint256"
        },
        {
          "indexed": false,
          "internalType": "string",
          "name": "firstname",
          "type": "string"
        },
        {
          "indexed": false,
          "internalType": "string",
          "name": "lastname",
          "type": "string"
        },
        {
          "indexed": false,
          "internalType": "uint256",
          "name": "birthdate",
          "type": "uint256"
        }
      ],
      "name": "StudentEdited",
      "type": "event"
    },
    {
      "anonymous": false,
      "inputs": [
        {
          "indexed": false,
          "internalType": "uint256",
          "name": "studentId",
          "type": "uint256"
        },
        {
          "indexed": false,
          "internalType": "enum Certifications.appreciation",
          "name": "appreciation",
          "type": "uint8"
        },
        {
          "indexed": false,
          "internalType": "enum Certifications.degree",
          "name": "degree",
          "type": "uint8"
        },
        {
          "indexed": false,
          "internalType": "enum Certifications.program",
          "name": "program",
          "type": "uint8"
        }
      ],
      "name": "certificationEmited",
      "type": "event"
    },
    {
      "anonymous": false,
      "inputs": [
        {
          "indexed": false,
          "internalType": "bytes32",
          "name": "multiSigName",
          "type": "bytes32"
        }
      ],
      "name": "multiSigCleared",
      "type": "event"
    },
    {
      "anonymous": false,
      "inputs": [
        {
          "indexed": false,
          "internalType": "bytes32",
          "name": "multiSigName",
          "type": "bytes32"
        }
      ],
      "name": "multiSigSigned",
      "type": "event"
    },
    {
      "inputs": [],
      "name": "CERTIFIER",
      "outputs": [
        {
          "internalType": "bytes32",
          "name": "",
          "type": "bytes32"
        }
      ],
      "stateMutability": "view",
      "type": "function"
    },
    {
      "inputs": [],
      "name": "CERTIFIER_ADMIN",
      "outputs": [
        {
          "internalType": "bytes32",
          "name": "",
          "type": "bytes32"
        }
      ],
      "stateMutability": "view",
      "type": "function"
    },
    {
      "inputs": [],
      "name": "DEFAULT_ADMIN_ROLE",
      "outputs": [
        {
          "internalType": "bytes32",
          "name": "",
          "type": "bytes32"
        }
      ],
      "stateMutability": "view",
      "type": "function"
    },
    {
      "inputs": [],
      "name": "MAX_CERTIFIERS",
      "outputs": [
        {
          "internalType": "uint8",
          "name": "",
          "type": "uint8"
        }
      ],
      "stateMutability": "view",
      "type": "function"
    },
    {
      "inputs": [],
      "name": "MAX_CERTIFIERS_ADMIN",
      "outputs": [
        {
          "internalType": "uint8",
          "name": "",
          "type": "uint8"
        }
      ],
      "stateMutability": "view",
      "type": "function"
    },
    {
      "inputs": [],
      "name": "MIN_CERTIFIERS_ADMIN",
      "outputs": [
        {
          "internalType": "uint8",
          "name": "",
          "type": "uint8"
        }
      ],
      "stateMutability": "view",
      "type": "function"
    },
    {
      "inputs": [],
      "name": "PERCENT_TO_CERTIFY",
      "outputs": [
        {
          "internalType": "uint8",
          "name": "",
          "type": "uint8"
        }
      ],
      "stateMutability": "view",
      "type": "function"
    },
    {
      "inputs": [],
      "name": "PERCENT_TO_DELETE_STUDENT",
      "outputs": [
        {
          "internalType": "uint8",
          "name": "",
          "type": "uint8"
        }
      ],
      "stateMutability": "view",
      "type": "function"
    },
    {
      "inputs": [],
      "name": "PERCENT_TO_EDIT_CERTIFICATE",
      "outputs": [
        {
          "internalType": "uint8",
          "name": "",
          "type": "uint8"
        }
      ],
      "stateMutability": "view",
      "type": "function"
    },
    {
      "inputs": [],
      "name": "PERCENT_TO_GRANT_CERTIFIER",
      "outputs": [
        {
          "internalType": "uint8",
          "name": "",
          "type": "uint8"
        }
      ],
      "stateMutability": "view",
      "type": "function"
    },
    {
      "inputs": [],
      "name": "PERCENT_TO_GRANT_CERTIFIER_ADMIN",
      "outputs": [
        {
          "internalType": "uint8",
          "name": "",
          "type": "uint8"
        }
      ],
      "stateMutability": "view",
      "type": "function"
    },
    {
      "inputs": [],
      "name": "PERCENT_TO_REVOKE_CERTIFIER",
      "outputs": [
        {
          "internalType": "uint8",
          "name": "",
          "type": "uint8"
        }
      ],
      "stateMutability": "view",
      "type": "function"
    },
    {
      "inputs": [],
      "name": "PERCENT_TO_REVOKE_CERTIFIER_ADMIN",
      "outputs": [
        {
          "internalType": "uint8",
          "name": "",
          "type": "uint8"
        }
      ],
      "stateMutability": "view",
      "type": "function"
    },
    {
      "inputs": [
        {
          "internalType": "address",
          "name": "_address",
          "type": "address"
        }
      ],
      "name": "addToStr",
      "outputs": [
        {
          "internalType": "string",
          "name": "",
          "type": "string"
        }
      ],
      "stateMutability": "pure",
      "type": "function"
    },
    {
      "inputs": [
        {
          "internalType": "uint256",
          "name": "a",
          "type": "uint256"
        },
        {
          "internalType": "uint256",
          "name": "b",
          "type": "uint256"
        }
      ],
      "name": "ceilUDiv",
      "outputs": [
        {
          "internalType": "uint256",
          "name": "",
          "type": "uint256"
        }
      ],
      "stateMutability": "pure",
      "type": "function"
    },
    {
      "inputs": [
        {
          "internalType": "bytes32",
          "name": "",
          "type": "bytes32"
        }
      ],
      "name": "certificates",
      "outputs": [
        {
          "internalType": "enum Certifications.appreciation",
          "name": "appreciation",
          "type": "uint8"
        },
        {
          "internalType": "enum Certifications.degree",
          "name": "degree",
          "type": "uint8"
        },
        {
          "internalType": "enum Certifications.program",
          "name": "program",
          "type": "uint8"
        },
        {
          "internalType": "uint256",
          "name": "creation_date",
          "type": "uint256"
        },
        {
          "internalType": "bool",
          "name": "validity",
          "type": "bool"
        },
        {
          "internalType": "uint256",
          "name": "stud_id",
          "type": "uint256"
        }
      ],
      "stateMutability": "view",
      "type": "function"
    },
    {
      "inputs": [
        {
          "internalType": "uint256",
          "name": "",
          "type": "uint256"
        },
        {
          "internalType": "uint256",
          "name": "",
          "type": "uint256"
        }
      ],
      "name": "certificatesByStudent",
      "outputs": [
        {
          "internalType": "bytes32",
          "name": "",
          "type": "bytes32"
        }
      ],
      "stateMutability": "view",
      "type": "function"
    },
    {
      "inputs": [
        {
          "internalType": "uint256",
          "name": "studentId",
          "type": "uint256"
        },
        {
          "internalType": "enum Certifications.appreciation",
          "name": "app",
          "type": "uint8"
        },
        {
          "internalType": "enum Certifications.degree",
          "name": "deg",
          "type": "uint8"
        },
        {
          "internalType": "enum Certifications.program",
          "name": "prog",
          "type": "uint8"
        },
        {
          "internalType": "bool",
          "name": "approve",
          "type": "bool"
        }
      ],
      "name": "certify",
      "outputs": [],
      "stateMutability": "nonpayable",
      "type": "function"
    },
    {
      "inputs": [
        {
          "internalType": "uint256",
          "name": "_id",
          "type": "uint256"
        },
        {
          "internalType": "string",
          "name": "_firstname",
          "type": "string"
        },
        {
          "internalType": "string",
          "name": "_lastname",
          "type": "string"
        },
        {
          "internalType": "uint256",
          "name": "_birthdate",
          "type": "uint256"
        }
      ],
      "name": "createStudent",
      "outputs": [],
      "stateMutability": "nonpayable",
      "type": "function"
    },
    {
      "inputs": [
        {
          "internalType": "uint256",
          "name": "studentId",
          "type": "uint256"
        },
        {
          "internalType": "enum Certifications.appreciation",
          "name": "app",
          "type": "uint8"
        },
        {
          "internalType": "enum Certifications.degree",
          "name": "deg",
          "type": "uint8"
        },
        {
          "internalType": "enum Certifications.program",
          "name": "prog",
          "type": "uint8"
        },
        {
          "internalType": "bool",
          "name": "approve",
          "type": "bool"
        }
      ],
      "name": "deleteCertificate",
      "outputs": [],
      "stateMutability": "nonpayable",
      "type": "function"
    },
    {
      "inputs": [
        {
          "internalType": "uint256",
          "name": "_id",
          "type": "uint256"
        },
        {
          "internalType": "string",
          "name": "_firstname",
          "type": "string"
        },
        {
          "internalType": "string",
          "name": "_lastname",
          "type": "string"
        },
        {
          "internalType": "uint256",
          "name": "_birthdate",
          "type": "uint256"
        }
      ],
      "name": "editStudentById",
      "outputs": [],
      "stateMutability": "nonpayable",
      "type": "function"
    },
    {
      "inputs": [
        {
          "internalType": "address",
          "name": "signer",
          "type": "address"
        }
      ],
      "name": "getAllMultiSig",
      "outputs": [
        {
          "internalType": "bytes32[]",
          "name": "",
          "type": "bytes32[]"
        },
        {
          "internalType": "uint8[]",
          "name": "",
          "type": "uint8[]"
        },
        {
          "internalType": "string[]",
          "name": "",
          "type": "string[]"
        },
        {
          "internalType": "bool[]",
          "name": "",
          "type": "bool[]"
        }
      ],
      "stateMutability": "view",
      "type": "function"
    },
    {
      "inputs": [
        {
          "internalType": "uint256",
          "name": "_id",
          "type": "uint256"
        }
      ],
      "name": "getCertificatesByStudent",
      "outputs": [
        {
          "internalType": "bytes32[]",
          "name": "",
          "type": "bytes32[]"
        }
      ],
      "stateMutability": "view",
      "type": "function"
    },
    {
      "inputs": [
        {
          "internalType": "bytes32",
          "name": "role",
          "type": "bytes32"
        }
      ],
      "name": "getRoleAdmin",
      "outputs": [
        {
          "internalType": "bytes32",
          "name": "",
          "type": "bytes32"
        }
      ],
      "stateMutability": "view",
      "type": "function"
    },
    {
      "inputs": [
        {
          "internalType": "bytes32",
          "name": "_role",
          "type": "bytes32"
        }
      ],
      "name": "getRoleMembersNb",
      "outputs": [
        {
          "internalType": "uint256",
          "name": "",
          "type": "uint256"
        }
      ],
      "stateMutability": "view",
      "type": "function"
    },
    {
      "inputs": [
        {
          "internalType": "uint256",
          "name": "_id",
          "type": "uint256"
        }
      ],
      "name": "getStudent",
      "outputs": [
        {
          "components": [
            {
              "internalType": "uint256",
              "name": "id",
              "type": "uint256"
            },
            {
              "internalType": "string",
              "name": "firstname",
              "type": "string"
            },
            {
              "internalType": "string",
              "name": "lastname",
              "type": "string"
            },
            {
              "internalType": "uint256",
              "name": "birthdate",
              "type": "uint256"
            }
          ],
          "internalType": "struct Students.Student",
          "name": "",
          "type": "tuple"
        }
      ],
      "stateMutability": "view",
      "type": "function"
    },
    {
      "inputs": [
        {
          "internalType": "bytes32",
          "name": "roleHash",
          "type": "bytes32"
        },
        {
          "internalType": "address",
          "name": "target",
          "type": "address"
        },
        {
          "internalType": "bool",
          "name": "approve",
          "type": "bool"
        }
      ],
      "name": "grantAnyRole",
      "outputs": [],
      "stateMutability": "nonpayable",
      "type": "function"
    },
    {
      "inputs": [
        {
          "internalType": "bytes32",
          "name": "role",
          "type": "bytes32"
        },
        {
          "internalType": "address",
          "name": "account",
          "type": "address"
        }
      ],
      "name": "grantRole",
      "outputs": [],
      "stateMutability": "nonpayable",
      "type": "function"
    },
    {
      "inputs": [
        {
          "internalType": "bytes32",
          "name": "role",
          "type": "bytes32"
        },
        {
          "internalType": "address",
          "name": "account",
          "type": "address"
        }
      ],
      "name": "hasRole",
      "outputs": [
        {
          "internalType": "bool",
          "name": "",
          "type": "bool"
        }
      ],
      "stateMutability": "view",
      "type": "function"
    },
    {
      "inputs": [
        {
          "internalType": "bytes32",
          "name": "",
          "type": "bytes32"
        }
      ],
      "name": "multiSig",
      "outputs": [
        {
          "internalType": "bool",
          "name": "created",
          "type": "bool"
        },
        {
          "internalType": "bytes32",
          "name": "role",
          "type": "bytes32"
        },
        {
          "internalType": "uint8",
          "name": "count",
          "type": "uint8"
        },
        {
          "internalType": "uint8",
          "name": "id",
          "type": "uint8"
        },
        {
          "internalType": "string",
          "name": "info",
          "type": "string"
        }
      ],
      "stateMutability": "view",
      "type": "function"
    },
    {
      "inputs": [
        {
          "internalType": "uint256",
          "name": "",
          "type": "uint256"
        }
      ],
      "name": "multiSigId",
      "outputs": [
        {
          "internalType": "bytes32",
          "name": "",
          "type": "bytes32"
        }
      ],
      "stateMutability": "view",
      "type": "function"
    },
    {
      "inputs": [
        {
          "internalType": "uint256",
          "name": "_id",
          "type": "uint256"
        },
        {
          "internalType": "bool",
          "name": "_approve",
          "type": "bool"
        }
      ],
      "name": "removeStudentById",
      "outputs": [],
      "stateMutability": "nonpayable",
      "type": "function"
    },
    {
      "inputs": [
        {
          "internalType": "bytes32",
          "name": "",
          "type": "bytes32"
        },
        {
          "internalType": "address",
          "name": "",
          "type": "address"
        }
      ],
      "name": "renounceRole",
      "outputs": [],
      "stateMutability": "nonpayable",
      "type": "function"
    },
    {
      "inputs": [
        {
          "internalType": "bytes32",
          "name": "roleHash",
          "type": "bytes32"
        },
        {
          "internalType": "address",
          "name": "target",
          "type": "address"
        },
        {
          "internalType": "bool",
          "name": "approve",
          "type": "bool"
        }
      ],
      "name": "revokeAnyRole",
      "outputs": [],
      "stateMutability": "nonpayable",
      "type": "function"
    },
    {
      "inputs": [
        {
          "internalType": "bytes32",
          "name": "role",
          "type": "bytes32"
        },
        {
          "internalType": "address",
          "name": "account",
          "type": "address"
        }
      ],
      "name": "revokeRole",
      "outputs": [],
      "stateMutability": "nonpayable",
      "type": "function"
    },
    {
      "inputs": [
        {
          "internalType": "uint256",
          "name": "",
          "type": "uint256"
        }
      ],
      "name": "students",
      "outputs": [
        {
          "internalType": "uint256",
          "name": "id",
          "type": "uint256"
        },
        {
          "internalType": "string",
          "name": "firstname",
          "type": "string"
        },
        {
          "internalType": "string",
          "name": "lastname",
          "type": "string"
        },
        {
          "internalType": "uint256",
          "name": "birthdate",
          "type": "uint256"
        }
      ],
      "stateMutability": "view",
      "type": "function"
    },
    {
      "inputs": [
        {
          "internalType": "uint256",
          "name": "",
          "type": "uint256"
        }
      ],
      "name": "studentsIds",
      "outputs": [
        {
          "internalType": "uint256",
          "name": "",
          "type": "uint256"
        }
      ],
      "stateMutability": "view",
      "type": "function"
    },
    {
      "inputs": [
        {
          "internalType": "bytes4",
          "name": "interfaceId",
          "type": "bytes4"
        }
      ],
      "name": "supportsInterface",
      "outputs": [
        {
          "internalType": "bool",
          "name": "",
          "type": "bool"
        }
      ],
      "stateMutability": "view",
      "type": "function"
    }
  ],
  "bytecode": "0x60806040523480156200001157600080fd5b5060405162004a2b38038062004a2b8339810160408190526200003491620005de565b6001600160a01b0382166200009c5760405162461bcd60e51b8152602060048201526024808201527f4365727469666965722061646d696e3120616464726573732063616e6e6f74206044820152630626520360e41b60648201526084015b60405180910390fd5b6001600160a01b038116620001005760405162461bcd60e51b8152602060048201526024808201527f4365727469666965722061646d696e3220616464726573732063616e6e6f74206044820152630626520360e41b606482015260840162000093565b806001600160a01b0316826001600160a01b031603620001725760405162461bcd60e51b815260206004820152602660248201527f436572746966696572206164647265737365732063616e6e6f74206265207468604482015265652073616d6560d01b606482015260840162000093565b6200018d600080516020620049eb8339815191528362000511565b620001a8600080516020620049eb8339815191528262000521565b6040805160e0810182526002808252602080830191909152600f828401526050606083018190526080830152600080516020620049eb83398151915260a08301529151909160c08301916200021391016e21a2a92a24a324a2a92fa0a226a4a760891b8152600f0190565b6040516020818303038152906040526200022d9062000616565b9052600080516020620049eb83398151915260009081526003602090815282517f996892c26f58715b0987b59a23f94e8ef0c02cd4cae9fdbc7a2316b6cd446de080549285015160408601516060870151608088015160ff908116600160681b0260ff60681b19919092166c010000000000000000000000000260ff60601b1963ffffffff94851668010000000000000000021664ffffffffff60401b19958516640100000000026001600160401b03199099169490971693909317969096179290921693909317929092179290921617905560a08201517f996892c26f58715b0987b59a23f94e8ef0c02cd4cae9fdbc7a2316b6cd446de15560c0909101517f996892c26f58715b0987b59a23f94e8ef0c02cd4cae9fdbc7a2316b6cd446de2556200036b9060008051602062004a0b8339815191529062000511565b6040805160e0810182526000808252602080830191909152600f828401526050606083018190526080830152600080516020620049eb83398151915260a08301529151909160c0830191620003d091016821a2a92a24a324a2a960b91b815260090190565b604051602081830303815290604052620003ea9062000616565b905260008051602062004a0b8339815191526000526003602090815281517f04ed60087a82bd97d8afa881e356d9b31a57e1f4fa6c3493c1181428b0c3356280549284015160408501516060860151608087015160ff908116600160681b0260ff60681b19919092166c010000000000000000000000000260ff60601b1963ffffffff94851668010000000000000000021664ffffffffff60401b19958516640100000000026001600160401b03199099169490971693909317969096179290921693909317929092179290921617905560a08101517f04ed60087a82bd97d8afa881e356d9b31a57e1f4fa6c3493c1181428b0c335635560c001517f04ed60087a82bd97d8afa881e356d9b31a57e1f4fa6c3493c1181428b0c3356455506200063e9050565b6200051d828262000521565b5050565b6000828152602081815260408083206001600160a01b038516845290915290205460ff166200051d576000828152602081815260408083206001600160a01b03851684529091529020805460ff191660011790556200057d3390565b6001600160a01b0316816001600160a01b0316837f2f8788117e7eff1d82e926ec794901d17c78024a50270940304540a733656f0d60405160405180910390a45050565b80516001600160a01b0381168114620005d957600080fd5b919050565b60008060408385031215620005f257600080fd5b620005fd83620005c1565b91506200060d60208401620005c1565b90509250929050565b8051602080830151919081101562000638576000198160200360031b1b821691505b50919050565b61439d806200064e6000396000f3fe608060405234801561001057600080fd5b50600436106102325760003560e01c80637cd29fb711610130578063ace81910116100b8578063d3243ad81161007c578063d3243ad814610500578063d547741f14610513578063df3a12dd14610526578063e05f2fb414610539578063e5a357f51461056057600080fd5b8063ace81910146104b2578063b86bc74f146104c5578063bf802091146104da578063c9dbcfda146104ed578063d0fb68c71461029757600080fd5b80639dd09a73116100ff5780639dd09a73146104515780639e33990914610367578063a1cebf5214610471578063a217fddf14610484578063a3eabd3d1461048c57600080fd5b80637cd29fb7146102975780638856a0e9146104085780638e82d0e71461041b57806391d148541461043e57600080fd5b80632f2ff15d116101be5780635907ebea116101825780635907ebea14610367578063642f91631461036f5780636bc6421b1461038f578063719129be14610397578063742f0688146103aa57600080fd5b80632f2ff15d1461032657806333b72e491461033957806336568abe146103415780634cce913b146103545780634da11a201461029757600080fd5b806312ac167c1161020557806312ac167c146102b15780631a968069146102d15780631a9cfe2814610297578063248a9ca3146102f55780632cd94e4f1461029757600080fd5b806301ffc9a71461023757806305f84d451461025f57806306ead22e146102745780630f68794a14610297575b600080fd5b61024a610245366004613497565b610580565b60405190151581526020015b60405180910390f35b61027261026d3660046134d6565b6105b7565b005b610287610282366004613502565b610832565b604051610256949392919061356b565b61029f605081565b60405160ff9091168152602001610256565b6102c46102bf3660046135bf565b61096a565b60405161025691906135da565b6102e46102df366004613502565b610b55565b6040516102569594939291906135ed565b610318610303366004613502565b60009081526020819052604090206001015490565b604051908152602001610256565b61027261033436600461362b565b610c17565b61029f600281565b61027261034f36600461362b565b610c3c565b61031861036236600461364e565b610ca3565b61029f600f81565b61038261037d366004613502565b610cd4565b6040516102569190613670565b61029f603381565b6102726103a53660046136ca565b610eaa565b6103f66103b8366004613502565b600760205260009081526040902080546001820154600283015460039093015460ff8084169461010085048216946201000090048216939291169086565b60405161025696959493929190613750565b610272610416366004613795565b611227565b61042e6104293660046135bf565b6116dc565b6040516102569493929190613872565b61024a61044c36600461362b565b6119e1565b61031861045f366004613502565b60056020526000908152604090205481565b61027261047f3660046139d6565b611a0a565b610318600081565b61031861049a366004613502565b60009081526003602052604090205463ffffffff1690565b6102726104c0366004613795565b611bbe565b61031860008051602061434883398151915281565b6103186104e836600461364e565b612019565b6102726104fb3660046139d6565b612052565b61027261050e3660046136ca565b6120df565b61027261052136600461362b565b6125be565b610318610534366004613502565b6125e3565b6103187f4bbeb6fd3e5222e55f2f8b0c35bc228e0a06a25d0da772fdb02c3b92fa004f8881565b61057361056e366004613502565b612604565b6040516102569190613a4b565b60006001600160e01b03198216637965db0b60e01b14806105b157506301ffc9a760e01b6001600160e01b03198316145b92915050565b6105cf600080516020614348833981519152336119e1565b6105f45760405162461bcd60e51b81526004016105eb90613a5e565b60405180910390fd5b600082116106145760405162461bcd60e51b81526004016105eb90613a95565b60008281526001602052604081205490036106415760405162461bcd60e51b81526004016105eb90613acc565b60008260405160200161066d9181526d1111531155114814d5155111539560921b6020820152602e0190565b6040516020818303038152906040528051906020012090506106c5816000805160206143488339815191526106a186612693565b6040516020016106b19190613b03565b604051602081830303815290604052612726565b8180156106ef5750600081815260046020908152604080832033845260030190915290205460ff16155b1561073257600081815260046020526040902061070c90336127a7565b6040518181526000805160206143088339815191529060200160405180910390a1610776565b81151560000361077657600081815260046020526040902061075490336128d4565b6040518181526000805160206143088339815191529060200160405180910390a15b60008051602061434883398151915260005260036020527f04ed60087a82bd97d8afa881e356d9b31a57e1f4fa6c3493c1181428b0c33562546107d2906107c59060509063ffffffff16613b50565b63ffffffff166064612019565b60008281526004602052604090206002015460ff161061082d5760008181526004602052604090206108039061298c565b6040518181526000805160206143288339815191529060200160405180910390a161082d836129fd565b505050565b60016020819052600091825260409091208054918101805461085390613b78565b80601f016020809104026020016040519081016040528092919081815260200182805461087f90613b78565b80156108cc5780601f106108a1576101008083540402835291602001916108cc565b820191906000526020600020905b8154815290600101906020018083116108af57829003601f168201915b5050505050908060020180546108e190613b78565b80601f016020809104026020016040519081016040528092919081815260200182805461090d90613b78565b801561095a5780601f1061092f5761010080835404028352916020019161095a565b820191906000526020600020905b81548152906001019060200180831161093d57829003601f168201915b5050505050908060030154905084565b604080518082018252601081526f181899199a1a9b1b9c1cb0b131b232b360811b60208201528151602a80825260608281019094526001600160a01b0385169291600091602082018180368337019050509050600360fc1b816000815181106109d5576109d5613bb2565b60200101906001600160f81b031916908160001a905350600f60fb1b81600181518110610a0457610a04613bb2565b60200101906001600160f81b031916908160001a90535060005b6014811015610b4c5782600485610a3684600c613bc8565b60208110610a4657610a46613bb2565b1a60f81b6001600160f81b031916901c60f81c60ff1681518110610a6c57610a6c613bb2565b01602001516001600160f81b03191682610a87836002613bdb565b610a92906002613bc8565b81518110610aa257610aa2613bb2565b60200101906001600160f81b031916908160001a9053508284610ac683600c613bc8565b60208110610ad657610ad6613bb2565b825191901a600f16908110610aed57610aed613bb2565b01602001516001600160f81b03191682610b08836002613bdb565b610b13906003613bc8565b81518110610b2357610b23613bb2565b60200101906001600160f81b031916908160001a90535080610b4481613bf2565b915050610a1e565b50949350505050565b600460205260009081526040902080546001820154600283015460058401805460ff9485169593948381169461010090940416929190610b9490613b78565b80601f0160208091040260200160405190810160405280929190818152602001828054610bc090613b78565b8015610c0d5780601f10610be257610100808354040283529160200191610c0d565b820191906000526020600020905b815481529060010190602001808311610bf057829003601f168201915b5050505050905085565b600082815260208190526040902060010154610c3281612ad6565b61082d8383612ae3565b60405162461bcd60e51b815260206004820152603660248201527f596f752063616e27742072656e6f756e636520746f20796f757220726f6c652e60448201527520506c6561736520636f6e746163742061646d696e7360501b60648201526084016105eb565b60086020528160005260406000208181548110610cbf57600080fd5b90600052602060002001600091509150505481565b610cff6040518060800160405280600081526020016060815260200160608152602001600081525090565b6000828152600160205260408120549003610d545760405162461bcd60e51b815260206004820152601560248201527414dd1d59195b9d08191bd95cdb89dd08195e1a5cdd605a1b60448201526064016105eb565b60008281526001602081815260409283902083516080810190945280548452918201805491840191610d8590613b78565b80601f0160208091040260200160405190810160405280929190818152602001828054610db190613b78565b8015610dfe5780601f10610dd357610100808354040283529160200191610dfe565b820191906000526020600020905b815481529060010190602001808311610de157829003601f168201915b50505050508152602001600282018054610e1790613b78565b80601f0160208091040260200160405190810160405280929190818152602001828054610e4390613b78565b8015610e905780601f10610e6557610100808354040283529160200191610e90565b820191906000526020600020905b815481529060010190602001808311610e7357829003601f168201915b505050505081526020016003820154815250509050919050565b60008381526003602090815260409182902080546002820154845193840152909263ffffffff808316680100000000000000009093041691909111910160408051601f1981840301815290829052610f0491602001613c0b565b60405160208183030381529060405290610f315760405162461bcd60e51b81526004016105eb91906135da565b50610f408160010154336119e1565b8160020154604051602001610f5791815260200190565b60408051601f1981840301815290829052610f7491602001613c49565b60405160208183030381529060405290610fa15760405162461bcd60e51b81526004016105eb91906135da565b50610fac84846119e1565b60028201546040805160208101929092529115910160408051601f1981840301815290829052610fde91602001613c91565b6040516020818303038152906040529061100b5760405162461bcd60e51b81526004016105eb91906135da565b506040516bffffffffffffffffffffffff19606085901b1660208201526411d490539560da1b6034820152603981018590526000906059016040516020818303038152906040528051906020012090506110a4818360010154846002015460405160200161107b91815260200190565b6040516020818303038152906040526110938861096a565b6040516020016106b1929190613cd6565b8280156110ce5750600081815260046020908152604080832033845260030190915290205460ff16155b156111115760008181526004602052604090206110eb90336127a7565b6040518181526000805160206143088339815191529060200160405180910390a1611155565b82151560000361115557600081815260046020526040902061113390336128d4565b6040518181526000805160206143088339815191529060200160405180910390a15b8154600183015460009081526003602052604090205461118a916107c591600160601b90910460ff169063ffffffff16613b50565b60008281526004602052604090206002015460ff16106112205760008181526004602052604090206111bb9061298c565b6040518181526000805160206143288339815191529060200160405180910390a16111e68585612ae3565b8154600190839060009061120190849063ffffffff16613d24565b92506101000a81548163ffffffff021916908363ffffffff1602179055505b5050505050565b61123f600080516020614348833981519152336119e1565b61125b5760405162461bcd60e51b81526004016105eb90613a5e565b60008581526001602052604081205490036112885760405162461bcd60e51b81526004016105eb90613acc565b600084600381111561129c5761129c613706565b101580156112bc575060038460038111156112b9576112b9613706565b11155b6113045760405162461bcd60e51b8152602060048201526019602482015278105c1c1c9958da585d1a5bdb881a5cc81b9bdd081d985b1a59603a1b60448201526064016105eb565b600083600281111561131857611318613706565b101580156113385750600283600281111561133557611335613706565b11155b61137a5760405162461bcd60e51b8152602060048201526013602482015272111959dc9959481a5cc81b9bdd081d985b1a59606a1b60448201526064016105eb565b600082600f81111561138e5761138e613706565b101580156113ae5750600f82600f8111156113ab576113ab613706565b11155b6113f15760405162461bcd60e51b8152602060048201526014602482015273141c9bd9dc985b481a5cc81b9bdd081d985b1a5960621b60448201526064016105eb565b600760008686868660405160200161140c9493929190613d7f565b60408051601f198184030181529181528151602092830120835290820192909252016000206002015460ff1615156001146114895760405162461bcd60e51b815260206004820152601e60248201527f5468697320636572746966696361746520646f65736e2774206578697374000060448201526064016105eb565b6000858585856040516020016114a29493929190613db4565b60405160208183030381529060405280519060200120905061152d816000805160206143488339815191526114d689612693565b6114f08960038111156114eb576114eb613706565b612693565b6115058960028111156114eb576114eb613706565b61151a89600f8111156114eb576114eb613706565b6040516020016106b19493929190613df8565b8180156115575750600081815260046020908152604080832033845260030190915290205460ff16155b1561159a57600081815260046020526040902061157490336127a7565b6040518181526000805160206143088339815191529060200160405180910390a16115de565b8115156000036115de5760008181526004602052604090206115bc90336128d4565b6040518181526000805160206143088339815191529060200160405180910390a15b60008051602061434883398151915260005260036020527f04ed60087a82bd97d8afa881e356d9b31a57e1f4fa6c3493c1181428b0c335625461162d906107c59060509063ffffffff16613b50565b60008281526004602052604090206002015460ff16106116d457600081815260046020526040902061165e9061298c565b6040518181526000805160206143288339815191529060200160405180910390a16000600760008888888860405160200161169c9493929190613d7f565b60408051808303601f19018152918152815160209283012083529082019290925201600020600201805460ff19169115159190911790555b505050505050565b606080606080600060065467ffffffffffffffff8111156116ff576116ff613933565b60405190808252806020026020018201604052801561173257816020015b606081526020019060019003908161171d5790505b509050600060065467ffffffffffffffff81111561175257611752613933565b60405190808252806020026020018201604052801561177b578160200160208202803683370190505b509050600060065467ffffffffffffffff81111561179b5761179b613933565b6040519080825280602002602001820160405280156117c4578160200160208202803683370190505b509050600060065467ffffffffffffffff8111156117e4576117e4613933565b60405190808252806020026020018201604052801561180d578160200160208202803683370190505b50905060005b6006548110156119d0576000818152600560208181526040808420548452600490915290912001805461184590613b78565b80601f016020809104026020016040519081016040528092919081815260200182805461187190613b78565b80156118be5780601f10611893576101008083540402835291602001916118be565b820191906000526020600020905b8154815290600101906020018083116118a157829003601f168201915b50505050508582815181106118d5576118d5613bb2565b602090810291909101810191909152600082815260058252604080822054825260049092522060020154845160ff9091169085908390811061191957611919613bb2565b60ff909216602092830291909101820152600082815260058252604080822054825260049092522060010154835184908390811061195957611959613bb2565b6020908102919091018101919091526000828152600582526040808220548252600483528082206001600160a01b038e1683526003019092522054825160ff909116908390839081106119ae576119ae613bb2565b91151560209283029190910190910152806119c881613bf2565b915050611813565b509098919750919550909350915050565b6000918252602082815260408084206001600160a01b0393909316845291905290205460ff1690565b611a22600080516020614348833981519152336119e1565b611a3e5760405162461bcd60e51b81526004016105eb90613a5e565b60008411611a5e5760405162461bcd60e51b81526004016105eb90613a95565b6000835111611aaf5760405162461bcd60e51b815260206004820152601960248201527f46697273746e616d652063616e6e6f7420626520656d7074790000000000000060448201526064016105eb565b6000825111611b005760405162461bcd60e51b815260206004820152601860248201527f4c6173746e616d652063616e6e6f7420626520656d707479000000000000000060448201526064016105eb565b60008111611b505760405162461bcd60e51b815260206004820181905260248201527f426972746864617465206d7573742062652067726561746572207468616e203060448201526064016105eb565b60008481526001602052604090205415611bac5760405162461bcd60e51b815260206004820152601b60248201527f546869732073747564656e7420616c726561647920657869737473000000000060448201526064016105eb565b611bb884848484612b67565b50505050565b611bd6600080516020614348833981519152336119e1565b611bf25760405162461bcd60e51b81526004016105eb90613a5e565b6000858152600160205260408120549003611c1f5760405162461bcd60e51b81526004016105eb90613acc565b6000846003811115611c3357611c33613706565b10158015611c5357506003846003811115611c5057611c50613706565b11155b611c9b5760405162461bcd60e51b8152602060048201526019602482015278105c1c1c9958da585d1a5bdb881a5cc81b9bdd081d985b1a59603a1b60448201526064016105eb565b6000836002811115611caf57611caf613706565b10158015611ccf57506002836002811115611ccc57611ccc613706565b11155b611d115760405162461bcd60e51b8152602060048201526013602482015272111959dc9959481a5cc81b9bdd081d985b1a59606a1b60448201526064016105eb565b600082600f811115611d2557611d25613706565b10158015611d455750600f82600f811115611d4257611d42613706565b11155b611d885760405162461bcd60e51b8152602060048201526014602482015273141c9bd9dc985b481a5cc81b9bdd081d985b1a5960621b60448201526064016105eb565b6007600086868686604051602001611da39493929190613d7f565b60408051601f198184030181529181528151602092830120835290820192909252016000206002015460ff1615611e1c5760405162461bcd60e51b815260206004820152601f60248201527f5468697320636572746966696361746520616c7265616479206578697374730060448201526064016105eb565b600085858585604051602001611e359493929190613e83565b604051602081830303815290604052805190602001209050611ebb81600080516020614348833981519152611e6989612693565b611e7e8960038111156114eb576114eb613706565b611e938960028111156114eb576114eb613706565b611ea889600f8111156114eb576114eb613706565b6040516020016106b19493929190613ec8565b818015611ee55750600081815260046020908152604080832033845260030190915290205460ff16155b15611f28576000818152600460205260409020611f0290336127a7565b6040518181526000805160206143088339815191529060200160405180910390a1611f6c565b811515600003611f6c576000818152600460205260409020611f4a90336128d4565b6040518181526000805160206143088339815191529060200160405180910390a15b60008051602061434883398151915260005260036020527f04ed60087a82bd97d8afa881e356d9b31a57e1f4fa6c3493c1181428b0c3356254611fbb906107c59060339063ffffffff16613b50565b60008281526004602052604090206002015460ff16106116d4576000818152600460205260409020611fec9061298c565b6040518181526000805160206143288339815191529060200160405180910390a16116d486868686612ce0565b60006120258284613f6a565b60000361203d576120368284613f7e565b90506105b1565b6120478284613f7e565b612036906001613bc8565b61206a600080516020614348833981519152336119e1565b6120865760405162461bcd60e51b81526004016105eb90613a5e565b600084116120a65760405162461bcd60e51b81526004016105eb90613a95565b60008481526001602052604081205490036120d35760405162461bcd60e51b81526004016105eb90613acc565b611bb884848484612eae565b60008381526003602090815260409182902080546002820154845193840152909263ffffffff64010000000083048116921691909111910160408051601f198184030181529082905261213491602001613f92565b604051602081830303815290604052906121615760405162461bcd60e51b81526004016105eb91906135da565b5061216c84846119e1565b816002015460405160200161218391815260200190565b60408051601f19818403018152908290526121a091602001613fb1565b604051602081830303815290604052906121cd5760405162461bcd60e51b81526004016105eb91906135da565b506121dc8160010154336119e1565b81600201546040516020016121f391815260200190565b60408051601f198184030181529082905261221091602001613c49565b6040516020818303038152906040529061223d5760405162461bcd60e51b81526004016105eb91906135da565b506040516bffffffffffffffffffffffff19606085901b166020820152655245564f4b4560d01b6034820152603a8101859052600090605a016040516020818303038152906040528051906020012090506122d781836001015484600201546040516020016122ae91815260200190565b6040516020818303038152906040526122c68861096a565b6040516020016106b1929190613fef565b8280156123015750600081815260046020908152604080832033845260030190915290205460ff16155b1561234457600081815260046020526040902061231e90336127a7565b6040518181526000805160206143088339815191529060200160405180910390a1612388565b82151560000361238857600081815260046020526040902061236690336128d4565b6040518181526000805160206143088339815191529060200160405180910390a15b816001015485141580156123e45750815460018301546000908152600360205260409020546123cc916107c591600160681b90910460ff169063ffffffff16613b50565b60008281526004602052604090206002015460ff1610155b8061244f575081600101548514801561244f5750815460018084015460009081526003602052604090205461243792600160681b900460ff169161242d9163ffffffff1661403e565b6107c59190613b50565b60008281526004602052604090206002015460ff1610155b156112205760005b600654811015612560576000818152600560209081526040808320548352600482528083206001600160a01b038916845260030190915290205460ff16151560011480156124c257506000818152600560209081526040808320548352600490915290206001015486145b1561254e576000818152600560209081526040808320548352600490915281206002018054600192906124f990849060ff1661405b565b825460ff9182166101009390930a9283029190920219909116179055506000818152600560209081526040808320548352600482528083206001600160a01b03891684526003019091529020805460ff191690555b8061255881613bf2565b915050612457565b5060008181526004602052604090206125789061298c565b6040518181526000805160206143288339815191529060200160405180910390a16125a385856130fe565b8154600190839060009061120190849063ffffffff1661403e565b6000828152602081905260409020600101546125d981612ad6565b61082d83836130fe565b600281815481106125f357600080fd5b600091825260209091200154905081565b600081815260016020526040812054606091036126335760405162461bcd60e51b81526004016105eb90613acc565b6000828152600860209081526040918290208054835181840281018401909452808452909183018282801561268757602002820191906000526020600020905b815481526020019060010190808311612673575b50505050509050919050565b606060006126a083613163565b600101905060008167ffffffffffffffff8111156126c0576126c0613933565b6040519080825280601f01601f1916602001820160405280156126ea576020820181803683370190505b5090508181016020015b600019016f181899199a1a9b1b9c1cb0b131b232b360811b600a86061a8153600a85049450846126f457509392505050565b60008381526004602052604081205460ff161515900361082d576000838152600460209081526040808320805460ff1916600190811790915560068054855260059093529083208690558154909290612780908490613bc8565b9091555050600083815260046020526040902060018101839055600501611bb882826140ba565b6001600160a01b038116600090815260038301602052604090205460ff16156128125760405162461bcd60e51b815260206004820181905260248201527f596f7520616c7265616479207369676e65642074686973206d756c746973696760448201526064016105eb565b6002820180546101009081900460ff9081166000908152600486016020526040902080546001600160a01b0319166001600160a01b038616179055825491909104169060016128608361417a565b82546101009290920a60ff8181021990931691831602179091556001600160a01b03831660009081526003850160205260408120805460ff19166001908117909155600286018054919450926128b891859116614199565b92506101000a81548160ff021916908360ff1602179055505050565b6001600160a01b038116600090815260038301602052604090205460ff1615156001146129525760405162461bcd60e51b815260206004820152602660248201527f596f752068617665206e6f7465207369676e65642074686973206d756c7469736044820152651a59c81e595d60d21b60648201526084016105eb565b6001600160a01b03811660009081526003830160205260408120805460ff19169055600283018054600192906128b890849060ff1661405b565b60028101805460ff1916905560005b600282015460ff610100909104811690821610156129f95760ff811660009081526004830160209081526040808320546001600160a01b03168352600385019091529020805460ff19169055806129f18161417a565b91505061299b565b5050565b600081815260016020819052604082208281559190612a1e90830182613449565b612a2c600283016000613449565b6003820160009055505060005b600254811015612a9f578160028281548110612a5757612a57613bb2565b906000526020600020015403612a8d57600060028281548110612a7c57612a7c613bb2565b600091825260209091200155612a9f565b80612a9781613bf2565b915050612a39565b506040518181527f34de6b871245ed0a89b82912e8e5ee6d9c3104b3e5bb1d67a71ad7e68239e41c9060200160405180910390a150565b612ae0813361323b565b50565b612aed82826119e1565b6129f9576000828152602081815260408083206001600160a01b03851684529091529020805460ff19166001179055612b233390565b6001600160a01b0316816001600160a01b0316837f2f8788117e7eff1d82e926ec794901d17c78024a50270940304540a733656f0d60405160405180910390a45050565b60008481526001602052604090205415612bbc5760405162461bcd60e51b815260206004820152601660248201527553747564656e7420616c72656164792065786973747360501b60448201526064016105eb565b83600003612bfc5760405162461bcd60e51b815260206004820152600d60248201526c049642063616e2774206265203609c1b60448201526064016105eb565b6040805160808101825285815260208082018681528284018690526060830185905260008881526001928390529390932082518155925191929190820190612c4490826140ba565b5060408201516002820190612c5990826140ba565b5060609190910151600390910155600280546001810182556000919091527f405787fa12a823e0f2b7631cc41b3ba8828b3321ca811111fa75cd3aa3bb5ace018490556040517fb6767d1c89515962142b00b5577569c92a74381d9441a528911c66e0c3cea1f890612cd290869086908690869061356b565b60405180910390a150505050565b6040518060c00160405280846003811115612cfd57612cfd613706565b8152602001836002811115612d1457612d14613706565b815260200182600f811115612d2b57612d2b613706565b8152602001428152602001600115158152602001858152506007600086868686604051602001612d5e9493929190613d7f565b60408051601f1981840301815291815281516020928301208352908201929092520160002081518154829060ff19166001836003811115612da157612da1613706565b021790555060208201518154829061ff001916610100836002811115612dc957612dc9613706565b021790555060408201518154829062ff000019166201000083600f811115612df357612df3613706565b021790555060608201516001820155608082015160028201805460ff191691151591909117905560a0909101516003909101556000848152600860209081526040918290209151612e4c91879187918791879101613d7f565b60408051601f19818403018152908290528051602091820120835460018101855560009485529190932001919091557fb55811dd01470a227956304b027c610c7cdf9dd622dcc47791380261d56dc6ed90612cd29086908690869086906141b2565b6000848152600160205260408120549003612f045760405162461bcd60e51b815260206004820152601660248201527514dd1d59195b9d08191bd95cc81b9bdd08195e1a5cdd60521b60448201526064016105eb565b60016000858152602001908152602001600020600101604051602001612f2a91906141e9565b6040516020818303038152906040528051906020012083604051602001612f51919061425f565b6040516020818303038152906040528051906020012014158015612fa957506040805160008152602081018083528151902091612f909186910161425f565b6040516020818303038152906040528051906020012014155b15612fcc57600084815260016020819052604090912001612fca84826140ba565b505b6000848152600160209081526040918290209151612fee9260020191016141e9565b6040516020818303038152906040528051906020012082604051602001613015919061425f565b604051602081830303815290604052805190602001201415801561306d575060408051600081526020810180835281519020916130549185910161425f565b6040516020818303038152906040528051906020012014155b1561308f57600084815260016020526040902060020161308d83826140ba565b505b60008481526001602052604090206003015481148015906130af57508015155b156130c95760008481526001602052604090206003018190555b7f03e10a3f40e9af2a5e61cb5a3de55fd67286470c35b3cf345b04a83cf3f4907784848484604051612cd2949392919061356b565b61310882826119e1565b156129f9576000828152602081815260408083206001600160a01b0385168085529252808320805460ff1916905551339285917ff6391f5c32d9c69d2a47ea670b442974b53935d1edc7fd64eb21e047a839171b9190a45050565b60008072184f03e93ff9f4daa797ed6e38ed64bf6a1f0160401b83106131a25772184f03e93ff9f4daa797ed6e38ed64bf6a1f0160401b830492506040015b6d04ee2d6d415b85acef810000000083106131ce576d04ee2d6d415b85acef8100000000830492506020015b662386f26fc1000083106131ec57662386f26fc10000830492506010015b6305f5e1008310613204576305f5e100830492506008015b612710831061321857612710830492506004015b6064831061322a576064830492506002015b600a83106105b15760010192915050565b61324582826119e1565b6129f95761325281613294565b61325d8360206132a6565b60405160200161326e92919061427b565b60408051601f198184030181529082905262461bcd60e51b82526105eb916004016135da565b60606105b16001600160a01b03831660145b606060006132b5836002613bdb565b6132c0906002613bc8565b67ffffffffffffffff8111156132d8576132d8613933565b6040519080825280601f01601f191660200182016040528015613302576020820181803683370190505b509050600360fc1b8160008151811061331d5761331d613bb2565b60200101906001600160f81b031916908160001a905350600f60fb1b8160018151811061334c5761334c613bb2565b60200101906001600160f81b031916908160001a9053506000613370846002613bdb565b61337b906001613bc8565b90505b60018111156133f3576f181899199a1a9b1b9c1cb0b131b232b360811b85600f16601081106133af576133af613bb2565b1a60f81b8282815181106133c5576133c5613bb2565b60200101906001600160f81b031916908160001a90535060049490941c936133ec816142f0565b905061337e565b5083156134425760405162461bcd60e51b815260206004820181905260248201527f537472696e67733a20686578206c656e67746820696e73756666696369656e7460448201526064016105eb565b9392505050565b50805461345590613b78565b6000825580601f10613465575050565b601f016020900490600052602060002090810190612ae091905b80821115613493576000815560010161347f565b5090565b6000602082840312156134a957600080fd5b81356001600160e01b03198116811461344257600080fd5b803580151581146134d157600080fd5b919050565b600080604083850312156134e957600080fd5b823591506134f9602084016134c1565b90509250929050565b60006020828403121561351457600080fd5b5035919050565b60005b8381101561353657818101518382015260200161351e565b50506000910152565b6000815180845261355781602086016020860161351b565b601f01601f19169290920160200192915050565b848152608060208201526000613584608083018661353f565b8281036040840152613596818661353f565b91505082606083015295945050505050565b80356001600160a01b03811681146134d157600080fd5b6000602082840312156135d157600080fd5b613442826135a8565b602081526000613442602083018461353f565b851515815284602082015260ff8416604082015260ff8316606082015260a06080820152600061362060a083018461353f565b979650505050505050565b6000806040838503121561363e57600080fd5b823591506134f9602084016135a8565b6000806040838503121561366157600080fd5b50508035926020909101359150565b6020815281516020820152600060208301516080604084015261369660a084018261353f565b90506040840151601f198483030160608501526136b3828261353f565b915050606084015160808401528091505092915050565b6000806000606084860312156136df57600080fd5b833592506136ef602085016135a8565b91506136fd604085016134c1565b90509250925092565b634e487b7160e01b600052602160045260246000fd5b6004811061372c5761372c613706565b9052565b6003811061372c5761372c613706565b6010811061372c5761372c613706565b60c0810161375e828961371c565b61376b6020830188613730565b6137786040830187613740565b6060820194909452911515608083015260a0909101529392505050565b600080600080600060a086880312156137ad57600080fd5b853594506020860135600481106137c357600080fd5b93506040860135600381106137d757600080fd5b92506060860135601081106137eb57600080fd5b91506137f9608087016134c1565b90509295509295909350565b600081518084526020808501945080840160005b8381101561383557815187529582019590820190600101613819565b509495945050505050565b600081518084526020808501945080840160005b83811015613835578151151587529582019590820190600101613854565b6080815260006138856080830187613805565b82810360208481019190915286518083528782019282019060005b818110156138bf57845160ff16835293830193918301916001016138a0565b5050848103604086015286518082528282019350600581901b8201830183890160005b8381101561391057601f198584030187526138fe83835161353f565b968601969250908501906001016138e2565b505086810360608801526139248189613840565b9b9a5050505050505050505050565b634e487b7160e01b600052604160045260246000fd5b600082601f83011261395a57600080fd5b813567ffffffffffffffff8082111561397557613975613933565b604051601f8301601f19908116603f0116810190828211818310171561399d5761399d613933565b816040528381528660208588010111156139b657600080fd5b836020870160208301376000602085830101528094505050505092915050565b600080600080608085870312156139ec57600080fd5b84359350602085013567ffffffffffffffff80821115613a0b57600080fd5b613a1788838901613949565b94506040870135915080821115613a2d57600080fd5b50613a3a87828801613949565b949793965093946060013593505050565b6020815260006134426020830184613805565b60208082526019908201527f43616c6c6572206973206e6f7420612063657274696669657200000000000000604082015260600190565b60208082526019908201527f4964206d7573742062652067726561746572207468616e203000000000000000604082015260600190565b6020808252601a908201527f546869732073747564656e7420646f65736e2774206578697374000000000000604082015260600190565b6e02232b632ba329039ba3ab232b73a1608d1b815260008251613b2d81600f85016020870161351b565b91909101600f0192915050565b634e487b7160e01b600052601160045260246000fd5b63ffffffff818116838216028082169190828114613b7057613b70613b3a565b505092915050565b600181811c90821680613b8c57607f821691505b602082108103613bac57634e487b7160e01b600052602260045260246000fd5b50919050565b634e487b7160e01b600052603260045260246000fd5b808201808211156105b1576105b1613b3a565b80820281158282048414176105b1576105b1613b3a565b600060018201613c0457613c04613b3a565b5060010190565b63026b0bc160e51b815260008251613c2a81600485016020870161351b565b67081c995858da195960c21b6004939091019283015250600c01919050565b6f021b0b63632b91034b9903737ba1030960851b815260008251613c7481601085016020870161351b565b651030b236b4b760d11b6010939091019283015250601601919050565b7f54686973206164647265737320697320616c7265616479206120000000000000815260008251613cc981601a85016020870161351b565b91909101601a0192915050565b65023b930b73a160d51b815260008351613cf781600685016020880161351b565b600160fd1b6006918401918201528351613d1881600784016020880161351b565b01600701949350505050565b63ffffffff818116838216019080821115613d4157613d41613b3a565b5092915050565b60048110613d5857613d58613706565b60f81b9052565b60038110613d5857613d58613706565b60108110613d5857613d58613706565b848152613d8f6020820185613d48565b613d9c6021820184613d5f565b613da96022820183613d6f565b602301949350505050565b848152613dc46020820185613d48565b613dd16021820184613d5f565b613dde6022820183613d6f565b6544454c45544560d01b6023820152602901949350505050565b6602232b632ba32960cd1b815260008551613e1a816007850160208a0161351b565b8083019050600160fd1b8060078301528651613e3d816008850160208b0161351b565b600892019182018190528551613e5a816009850160208a0161351b565b60099201918201528351613e7581600a84016020880161351b565b01600a019695505050505050565b848152613e936020820185613d48565b613ea06021820184613d5f565b613ead6022820183613d6f565b664345525449465960c81b6023820152602a01949350505050565b67021b2b93a34b33c960c51b815260008551613eeb816008850160208a0161351b565b8083019050600160fd1b8060088301528651613f0e816009850160208b0161351b565b600992019182018190528551613f2b81600a850160208a0161351b565b600a9201918201528351613f4681600b84016020880161351b565b01600b019695505050505050565b634e487b7160e01b600052601260045260246000fd5b600082613f7957613f79613f54565b500690565b600082613f8d57613f8d613f54565b500490565b63026b4b7160e51b815260008251613c2a81600485016020870161351b565b7502a3434b99030b2323932b9b99034b9903737ba1030960551b815260008251613fe281601685016020870161351b565b9190910160160192915050565b6602932bb37b5b2960cd1b81526000835161401181600785016020880161351b565b600160fd1b600791840191820152835161403281600884016020880161351b565b01600801949350505050565b63ffffffff828116828216039080821115613d4157613d41613b3a565b60ff82811682821603908111156105b1576105b1613b3a565b601f82111561082d57600081815260208120601f850160051c8101602086101561409b5750805b601f850160051c820191505b818110156116d4578281556001016140a7565b815167ffffffffffffffff8111156140d4576140d4613933565b6140e8816140e28454613b78565b84614074565b602080601f83116001811461411d57600084156141055750858301515b600019600386901b1c1916600185901b1785556116d4565b600085815260208120601f198616915b8281101561414c5788860151825594840194600190910190840161412d565b508582101561416a5787850151600019600388901b60f8161c191681555b5050505050600190811b01905550565b600060ff821660ff810361419057614190613b3a565b60010192915050565b60ff81811683821601908111156105b1576105b1613b3a565b848152608081016141c6602083018661371c565b6141d36040830185613730565b6141e06060830184613740565b95945050505050565b60008083546141f781613b78565b6001828116801561420f576001811461422457614253565b60ff1984168752821515830287019450614253565b8760005260208060002060005b8581101561424a5781548a820152908401908201614231565b50505082870194505b50929695505050505050565b6000825161427181846020870161351b565b9190910192915050565b7f416363657373436f6e74726f6c3a206163636f756e74200000000000000000008152600083516142b381601785016020880161351b565b7001034b99036b4b9b9b4b733903937b6329607d1b60179184019182015283516142e481602884016020880161351b565b01602801949350505050565b6000816142ff576142ff613b3a565b50600019019056feb431a69783a2491a0c400ff16dab32cd442abf8fe5af63a526a7248d730192f8562618dbcf74b61ae5b0f229fe40ba6d5b6ae6b4248f8c89a870dda7c77135f6d646ae07eb0d0f77457502a65e7407930dff4cd4fd99abc6aac87a753f4c8a42a26469706673582212207fd3b7cc5823c2873e75335989850443a29726819e6f4e136ecb161be3a8926f64736f6c634300081300334bbeb6fd3e5222e55f2f8b0c35bc228e0a06a25d0da772fdb02c3b92fa004f88d646ae07eb0d0f77457502a65e7407930dff4cd4fd99abc6aac87a753f4c8a42",
  "linkReferences": {},
  "deployedLinkReferences": {}
}