{
  "_format": "hh-sol-artifact-1",
  "contractName": "Certifications",
  "sourceName": "contracts/Certifications.sol",
  "abi": [
    {
      "inputs": [
        {
          "internalType": "address",
          "name": "certifier_admin1",
          "type": "address"
        },
        {
          "internalType": "address",
          "name": "certifier_admin2",
          "type": "address"
        }
      ],
      "stateMutability": "nonpayable",
      "type": "constructor"
    },
    {
      "anonymous": false,
      "inputs": [
        {
          "indexed": true,
          "internalType": "bytes32",
          "name": "role",
          "type": "bytes32"
        },
        {
          "indexed": true,
          "internalType": "bytes32",
          "name": "previousAdminRole",
          "type": "bytes32"
        },
        {
          "indexed": true,
          "internalType": "bytes32",
          "name": "newAdminRole",
          "type": "bytes32"
        }
      ],
      "name": "RoleAdminChanged",
      "type": "event"
    },
    {
      "anonymous": false,
      "inputs": [
        {
          "indexed": true,
          "internalType": "bytes32",
          "name": "role",
          "type": "bytes32"
        },
        {
          "indexed": true,
          "internalType": "address",
          "name": "account",
          "type": "address"
        },
        {
          "indexed": true,
          "internalType": "address",
          "name": "sender",
          "type": "address"
        }
      ],
      "name": "RoleGranted",
      "type": "event"
    },
    {
      "anonymous": false,
      "inputs": [
        {
          "indexed": true,
          "internalType": "bytes32",
          "name": "role",
          "type": "bytes32"
        },
        {
          "indexed": true,
          "internalType": "address",
          "name": "account",
          "type": "address"
        },
        {
          "indexed": true,
          "internalType": "address",
          "name": "sender",
          "type": "address"
        }
      ],
      "name": "RoleRevoked",
      "type": "event"
    },
    {
      "anonymous": false,
      "inputs": [
        {
          "indexed": false,
          "internalType": "uint256",
          "name": "id",
          "type": "uint256"
        },
        {
          "indexed": false,
          "internalType": "string",
          "name": "firstname",
          "type": "string"
        },
        {
          "indexed": false,
          "internalType": "string",
          "name": "lastname",
          "type": "string"
        },
        {
          "indexed": false,
          "internalType": "uint256",
          "name": "birthdate",
          "type": "uint256"
        }
      ],
      "name": "StudentAdded",
      "type": "event"
    },
    {
      "anonymous": false,
      "inputs": [
        {
          "indexed": false,
          "internalType": "uint256",
          "name": "id",
          "type": "uint256"
        }
      ],
      "name": "StudentDeleted",
      "type": "event"
    },
    {
      "anonymous": false,
      "inputs": [
        {
          "indexed": false,
          "internalType": "uint256",
          "name": "id",
          "type": "uint256"
        },
        {
          "indexed": false,
          "internalType": "string",
          "name": "firstname",
          "type": "string"
        },
        {
          "indexed": false,
          "internalType": "string",
          "name": "lastname",
          "type": "string"
        },
        {
          "indexed": false,
          "internalType": "uint256",
          "name": "birthdate",
          "type": "uint256"
        }
      ],
      "name": "StudentEdited",
      "type": "event"
    },
    {
      "anonymous": false,
      "inputs": [
        {
          "indexed": false,
          "internalType": "uint256",
          "name": "studentId",
          "type": "uint256"
        },
        {
          "indexed": false,
          "internalType": "enum Certifications.appreciation",
          "name": "appreciation",
          "type": "uint8"
        },
        {
          "indexed": false,
          "internalType": "enum Certifications.degree",
          "name": "degree",
          "type": "uint8"
        },
        {
          "indexed": false,
          "internalType": "enum Certifications.program",
          "name": "program",
          "type": "uint8"
        }
      ],
      "name": "certificationEmited",
      "type": "event"
    },
    {
      "anonymous": false,
      "inputs": [
        {
          "indexed": false,
          "internalType": "bytes32",
          "name": "multiSigName",
          "type": "bytes32"
        }
      ],
      "name": "multiSigCleared",
      "type": "event"
    },
    {
      "anonymous": false,
      "inputs": [
        {
          "indexed": false,
          "internalType": "bytes32",
          "name": "multiSigName",
          "type": "bytes32"
        }
      ],
      "name": "multiSigSigned",
      "type": "event"
    },
    {
      "inputs": [],
      "name": "CERTIFIER",
      "outputs": [
        {
          "internalType": "bytes32",
          "name": "",
          "type": "bytes32"
        }
      ],
      "stateMutability": "view",
      "type": "function"
    },
    {
      "inputs": [],
      "name": "CERTIFIER_ADMIN",
      "outputs": [
        {
          "internalType": "bytes32",
          "name": "",
          "type": "bytes32"
        }
      ],
      "stateMutability": "view",
      "type": "function"
    },
    {
      "inputs": [],
      "name": "DEFAULT_ADMIN_ROLE",
      "outputs": [
        {
          "internalType": "bytes32",
          "name": "",
          "type": "bytes32"
        }
      ],
      "stateMutability": "view",
      "type": "function"
    },
    {
      "inputs": [],
      "name": "MAX_CERTIFIERS",
      "outputs": [
        {
          "internalType": "uint8",
          "name": "",
          "type": "uint8"
        }
      ],
      "stateMutability": "view",
      "type": "function"
    },
    {
      "inputs": [],
      "name": "MAX_CERTIFIERS_ADMIN",
      "outputs": [
        {
          "internalType": "uint8",
          "name": "",
          "type": "uint8"
        }
      ],
      "stateMutability": "view",
      "type": "function"
    },
    {
      "inputs": [],
      "name": "MIN_CERTIFIERS_ADMIN",
      "outputs": [
        {
          "internalType": "uint8",
          "name": "",
          "type": "uint8"
        }
      ],
      "stateMutability": "view",
      "type": "function"
    },
    {
      "inputs": [],
      "name": "PERCENT_TO_CERTIFY",
      "outputs": [
        {
          "internalType": "uint8",
          "name": "",
          "type": "uint8"
        }
      ],
      "stateMutability": "view",
      "type": "function"
    },
    {
      "inputs": [],
      "name": "PERCENT_TO_DELETE_STUDENT",
      "outputs": [
        {
          "internalType": "uint8",
          "name": "",
          "type": "uint8"
        }
      ],
      "stateMutability": "view",
      "type": "function"
    },
    {
      "inputs": [],
      "name": "PERCENT_TO_EDIT_CERTIFICATE",
      "outputs": [
        {
          "internalType": "uint8",
          "name": "",
          "type": "uint8"
        }
      ],
      "stateMutability": "view",
      "type": "function"
    },
    {
      "inputs": [],
      "name": "PERCENT_TO_GRANT_CERTIFIER",
      "outputs": [
        {
          "internalType": "uint8",
          "name": "",
          "type": "uint8"
        }
      ],
      "stateMutability": "view",
      "type": "function"
    },
    {
      "inputs": [],
      "name": "PERCENT_TO_GRANT_CERTIFIER_ADMIN",
      "outputs": [
        {
          "internalType": "uint8",
          "name": "",
          "type": "uint8"
        }
      ],
      "stateMutability": "view",
      "type": "function"
    },
    {
      "inputs": [],
      "name": "PERCENT_TO_REVOKE_CERTIFIER",
      "outputs": [
        {
          "internalType": "uint8",
          "name": "",
          "type": "uint8"
        }
      ],
      "stateMutability": "view",
      "type": "function"
    },
    {
      "inputs": [],
      "name": "PERCENT_TO_REVOKE_CERTIFIER_ADMIN",
      "outputs": [
        {
          "internalType": "uint8",
          "name": "",
          "type": "uint8"
        }
      ],
      "stateMutability": "view",
      "type": "function"
    },
    {
      "inputs": [
        {
          "internalType": "address",
          "name": "_address",
          "type": "address"
        }
      ],
      "name": "addToStr",
      "outputs": [
        {
          "internalType": "string",
          "name": "",
          "type": "string"
        }
      ],
      "stateMutability": "pure",
      "type": "function"
    },
    {
      "inputs": [
        {
          "internalType": "uint256",
          "name": "a",
          "type": "uint256"
        },
        {
          "internalType": "uint256",
          "name": "b",
          "type": "uint256"
        }
      ],
      "name": "ceilUDiv",
      "outputs": [
        {
          "internalType": "uint256",
          "name": "",
          "type": "uint256"
        }
      ],
      "stateMutability": "pure",
      "type": "function"
    },
    {
      "inputs": [
        {
          "internalType": "bytes32",
          "name": "",
          "type": "bytes32"
        }
      ],
      "name": "certificates",
      "outputs": [
        {
          "internalType": "enum Certifications.appreciation",
          "name": "appreciation",
          "type": "uint8"
        },
        {
          "internalType": "enum Certifications.degree",
          "name": "degree",
          "type": "uint8"
        },
        {
          "internalType": "enum Certifications.program",
          "name": "program",
          "type": "uint8"
        },
        {
          "internalType": "uint256",
          "name": "creation_date",
          "type": "uint256"
        },
        {
          "internalType": "bool",
          "name": "validity",
          "type": "bool"
        },
        {
          "internalType": "uint256",
          "name": "stud_id",
          "type": "uint256"
        }
      ],
      "stateMutability": "view",
      "type": "function"
    },
    {
      "inputs": [
        {
          "internalType": "uint256",
          "name": "",
          "type": "uint256"
        },
        {
          "internalType": "uint256",
          "name": "",
          "type": "uint256"
        }
      ],
      "name": "certificatesByStudent",
      "outputs": [
        {
          "internalType": "bytes32",
          "name": "",
          "type": "bytes32"
        }
      ],
      "stateMutability": "view",
      "type": "function"
    },
    {
      "inputs": [
        {
          "internalType": "uint256",
          "name": "studentId",
          "type": "uint256"
        },
        {
          "internalType": "enum Certifications.appreciation",
          "name": "app",
          "type": "uint8"
        },
        {
          "internalType": "enum Certifications.degree",
          "name": "deg",
          "type": "uint8"
        },
        {
          "internalType": "enum Certifications.program",
          "name": "prog",
          "type": "uint8"
        },
        {
          "internalType": "bool",
          "name": "approve",
          "type": "bool"
        }
      ],
      "name": "certify",
      "outputs": [],
      "stateMutability": "nonpayable",
      "type": "function"
    },
    {
      "inputs": [
        {
          "internalType": "uint256",
          "name": "_id",
          "type": "uint256"
        },
        {
          "internalType": "string",
          "name": "_firstname",
          "type": "string"
        },
        {
          "internalType": "string",
          "name": "_lastname",
          "type": "string"
        },
        {
          "internalType": "uint256",
          "name": "_birthdate",
          "type": "uint256"
        }
      ],
      "name": "createStudent",
      "outputs": [],
      "stateMutability": "nonpayable",
      "type": "function"
    },
    {
      "inputs": [
        {
          "internalType": "uint256",
          "name": "studentId",
          "type": "uint256"
        },
        {
          "internalType": "enum Certifications.appreciation",
          "name": "app",
          "type": "uint8"
        },
        {
          "internalType": "enum Certifications.degree",
          "name": "deg",
          "type": "uint8"
        },
        {
          "internalType": "enum Certifications.program",
          "name": "prog",
          "type": "uint8"
        },
        {
          "internalType": "bool",
          "name": "approve",
          "type": "bool"
        }
      ],
      "name": "deleteCertificate",
      "outputs": [],
      "stateMutability": "nonpayable",
      "type": "function"
    },
    {
      "inputs": [
        {
          "internalType": "uint256",
          "name": "_id",
          "type": "uint256"
        },
        {
          "internalType": "string",
          "name": "_firstname",
          "type": "string"
        },
        {
          "internalType": "string",
          "name": "_lastname",
          "type": "string"
        },
        {
          "internalType": "uint256",
          "name": "_birthdate",
          "type": "uint256"
        }
      ],
      "name": "editStudentById",
      "outputs": [],
      "stateMutability": "nonpayable",
      "type": "function"
    },
    {
      "inputs": [
        {
          "internalType": "address",
          "name": "signer",
          "type": "address"
        }
      ],
      "name": "getAllMultiSig",
      "outputs": [
        {
          "internalType": "bytes32[]",
          "name": "",
          "type": "bytes32[]"
        },
        {
          "internalType": "uint8[]",
          "name": "",
          "type": "uint8[]"
        },
        {
          "internalType": "string[]",
          "name": "",
          "type": "string[]"
        },
        {
          "internalType": "bool[]",
          "name": "",
          "type": "bool[]"
        }
      ],
      "stateMutability": "view",
      "type": "function"
    },
    {
      "inputs": [
        {
          "internalType": "uint256",
          "name": "_id",
          "type": "uint256"
        }
      ],
      "name": "getCertificatesByStudent",
      "outputs": [
        {
          "internalType": "bytes32[]",
          "name": "",
          "type": "bytes32[]"
        }
      ],
      "stateMutability": "view",
      "type": "function"
    },
    {
      "inputs": [
        {
          "internalType": "bytes32",
          "name": "_id",
          "type": "bytes32"
        }
      ],
      "name": "getCertificationById",
      "outputs": [
        {
          "internalType": "uint8",
          "name": "",
          "type": "uint8"
        },
        {
          "internalType": "uint8",
          "name": "",
          "type": "uint8"
        },
        {
          "internalType": "uint8",
          "name": "",
          "type": "uint8"
        },
        {
          "internalType": "uint256",
          "name": "",
          "type": "uint256"
        },
        {
          "internalType": "uint256",
          "name": "",
          "type": "uint256"
        }
      ],
      "stateMutability": "view",
      "type": "function"
    },
    {
      "inputs": [
        {
          "internalType": "bytes32",
          "name": "role",
          "type": "bytes32"
        }
      ],
      "name": "getRoleAdmin",
      "outputs": [
        {
          "internalType": "bytes32",
          "name": "",
          "type": "bytes32"
        }
      ],
      "stateMutability": "view",
      "type": "function"
    },
    {
      "inputs": [
        {
          "internalType": "bytes32",
          "name": "_role",
          "type": "bytes32"
        }
      ],
      "name": "getRoleMembersNb",
      "outputs": [
        {
          "internalType": "uint256",
          "name": "",
          "type": "uint256"
        }
      ],
      "stateMutability": "view",
      "type": "function"
    },
    {
      "inputs": [
        {
          "internalType": "uint256",
          "name": "_id",
          "type": "uint256"
        }
      ],
      "name": "getStudent",
      "outputs": [
        {
          "internalType": "string",
          "name": "",
          "type": "string"
        },
        {
          "internalType": "string",
          "name": "",
          "type": "string"
        },
        {
          "internalType": "uint256",
          "name": "",
          "type": "uint256"
        }
      ],
      "stateMutability": "view",
      "type": "function"
    },
    {
      "inputs": [],
      "name": "getStudentsIds",
      "outputs": [
        {
          "internalType": "uint256[]",
          "name": "",
          "type": "uint256[]"
        }
      ],
      "stateMutability": "view",
      "type": "function"
    },
    {
      "inputs": [
        {
          "internalType": "bytes32",
          "name": "roleHash",
          "type": "bytes32"
        },
        {
          "internalType": "address",
          "name": "target",
          "type": "address"
        },
        {
          "internalType": "bool",
          "name": "approve",
          "type": "bool"
        }
      ],
      "name": "grantAnyRole",
      "outputs": [],
      "stateMutability": "nonpayable",
      "type": "function"
    },
    {
      "inputs": [
        {
          "internalType": "bytes32",
          "name": "role",
          "type": "bytes32"
        },
        {
          "internalType": "address",
          "name": "account",
          "type": "address"
        }
      ],
      "name": "grantRole",
      "outputs": [],
      "stateMutability": "nonpayable",
      "type": "function"
    },
    {
      "inputs": [
        {
          "internalType": "bytes32",
          "name": "role",
          "type": "bytes32"
        },
        {
          "internalType": "address",
          "name": "account",
          "type": "address"
        }
      ],
      "name": "hasRole",
      "outputs": [
        {
          "internalType": "bool",
          "name": "",
          "type": "bool"
        }
      ],
      "stateMutability": "view",
      "type": "function"
    },
    {
      "inputs": [
        {
          "internalType": "bytes32",
          "name": "",
          "type": "bytes32"
        }
      ],
      "name": "multiSig",
      "outputs": [
        {
          "internalType": "bool",
          "name": "created",
          "type": "bool"
        },
        {
          "internalType": "bytes32",
          "name": "role",
          "type": "bytes32"
        },
        {
          "internalType": "uint8",
          "name": "count",
          "type": "uint8"
        },
        {
          "internalType": "uint8",
          "name": "id",
          "type": "uint8"
        },
        {
          "internalType": "string",
          "name": "info",
          "type": "string"
        }
      ],
      "stateMutability": "view",
      "type": "function"
    },
    {
      "inputs": [
        {
          "internalType": "uint256",
          "name": "",
          "type": "uint256"
        }
      ],
      "name": "multiSigId",
      "outputs": [
        {
          "internalType": "bytes32",
          "name": "",
          "type": "bytes32"
        }
      ],
      "stateMutability": "view",
      "type": "function"
    },
    {
      "inputs": [
        {
          "internalType": "uint256",
          "name": "_id",
          "type": "uint256"
        },
        {
          "internalType": "bool",
          "name": "_approve",
          "type": "bool"
        }
      ],
      "name": "removeStudentById",
      "outputs": [],
      "stateMutability": "nonpayable",
      "type": "function"
    },
    {
      "inputs": [
        {
          "internalType": "bytes32",
          "name": "",
          "type": "bytes32"
        },
        {
          "internalType": "address",
          "name": "",
          "type": "address"
        }
      ],
      "name": "renounceRole",
      "outputs": [],
      "stateMutability": "nonpayable",
      "type": "function"
    },
    {
      "inputs": [
        {
          "internalType": "bytes32",
          "name": "roleHash",
          "type": "bytes32"
        },
        {
          "internalType": "address",
          "name": "target",
          "type": "address"
        },
        {
          "internalType": "bool",
          "name": "approve",
          "type": "bool"
        }
      ],
      "name": "revokeAnyRole",
      "outputs": [],
      "stateMutability": "nonpayable",
      "type": "function"
    },
    {
      "inputs": [
        {
          "internalType": "bytes32",
          "name": "role",
          "type": "bytes32"
        },
        {
          "internalType": "address",
          "name": "account",
          "type": "address"
        }
      ],
      "name": "revokeRole",
      "outputs": [],
      "stateMutability": "nonpayable",
      "type": "function"
    },
    {
      "inputs": [
        {
          "internalType": "uint256",
          "name": "",
          "type": "uint256"
        }
      ],
      "name": "students",
      "outputs": [
        {
          "internalType": "uint256",
          "name": "id",
          "type": "uint256"
        },
        {
          "internalType": "string",
          "name": "firstname",
          "type": "string"
        },
        {
          "internalType": "string",
          "name": "lastname",
          "type": "string"
        },
        {
          "internalType": "uint256",
          "name": "birthdate",
          "type": "uint256"
        }
      ],
      "stateMutability": "view",
      "type": "function"
    },
    {
      "inputs": [
        {
          "internalType": "uint256",
          "name": "",
          "type": "uint256"
        }
      ],
      "name": "studentsIds",
      "outputs": [
        {
          "internalType": "uint256",
          "name": "",
          "type": "uint256"
        }
      ],
      "stateMutability": "view",
      "type": "function"
    },
    {
      "inputs": [
        {
          "internalType": "bytes4",
          "name": "interfaceId",
          "type": "bytes4"
        }
      ],
      "name": "supportsInterface",
      "outputs": [
        {
          "internalType": "bool",
          "name": "",
          "type": "bool"
        }
      ],
      "stateMutability": "view",
      "type": "function"
    }
  ],
  "bytecode": "0x60806040523480156200001157600080fd5b5060405162004bee38038062004bee8339810160408190526200003491620005de565b6001600160a01b0382166200009c5760405162461bcd60e51b8152602060048201526024808201527f4365727469666965722061646d696e3120616464726573732063616e6e6f74206044820152630626520360e41b60648201526084015b60405180910390fd5b6001600160a01b038116620001005760405162461bcd60e51b8152602060048201526024808201527f4365727469666965722061646d696e3220616464726573732063616e6e6f74206044820152630626520360e41b606482015260840162000093565b806001600160a01b0316826001600160a01b031603620001725760405162461bcd60e51b815260206004820152602660248201527f436572746966696572206164647265737365732063616e6e6f74206265207468604482015265652073616d6560d01b606482015260840162000093565b6200018d60008051602062004bae8339815191528362000511565b620001a860008051602062004bae8339815191528262000521565b6040805160e0810182526002808252602080830191909152600f82840152605060608301819052608083015260008051602062004bae83398151915260a08301529151909160c08301916200021391016e21a2a92a24a324a2a92fa0a226a4a760891b8152600f0190565b6040516020818303038152906040526200022d9062000616565b905260008051602062004bae83398151915260009081526003602090815282517f996892c26f58715b0987b59a23f94e8ef0c02cd4cae9fdbc7a2316b6cd446de080549285015160408601516060870151608088015160ff908116600160681b0260ff60681b19919092166c010000000000000000000000000260ff60601b1963ffffffff94851668010000000000000000021664ffffffffff60401b19958516640100000000026001600160401b03199099169490971693909317969096179290921693909317929092179290921617905560a08201517f996892c26f58715b0987b59a23f94e8ef0c02cd4cae9fdbc7a2316b6cd446de15560c0909101517f996892c26f58715b0987b59a23f94e8ef0c02cd4cae9fdbc7a2316b6cd446de2556200036b9060008051602062004bce8339815191529062000511565b6040805160e0810182526000808252602080830191909152600f82840152605060608301819052608083015260008051602062004bae83398151915260a08301529151909160c0830191620003d091016821a2a92a24a324a2a960b91b815260090190565b604051602081830303815290604052620003ea9062000616565b905260008051602062004bce8339815191526000526003602090815281517f04ed60087a82bd97d8afa881e356d9b31a57e1f4fa6c3493c1181428b0c3356280549284015160408501516060860151608087015160ff908116600160681b0260ff60681b19919092166c010000000000000000000000000260ff60601b1963ffffffff94851668010000000000000000021664ffffffffff60401b19958516640100000000026001600160401b03199099169490971693909317969096179290921693909317929092179290921617905560a08101517f04ed60087a82bd97d8afa881e356d9b31a57e1f4fa6c3493c1181428b0c335635560c001517f04ed60087a82bd97d8afa881e356d9b31a57e1f4fa6c3493c1181428b0c3356455506200063e9050565b6200051d828262000521565b5050565b6000828152602081815260408083206001600160a01b038516845290915290205460ff166200051d576000828152602081815260408083206001600160a01b03851684529091529020805460ff191660011790556200057d3390565b6001600160a01b0316816001600160a01b0316837f2f8788117e7eff1d82e926ec794901d17c78024a50270940304540a733656f0d60405160405180910390a45050565b80516001600160a01b0381168114620005d957600080fd5b919050565b60008060408385031215620005f257600080fd5b620005fd83620005c1565b91506200060d60208401620005c1565b90509250929050565b8051602080830151919081101562000638576000198160200360031b1b821691505b50919050565b614560806200064e6000396000f3fe608060405234801561001057600080fd5b50600436106102485760003560e01c80637cd29fb71161013b578063b86bc74f116100b8578063d547741f1161007c578063d547741f14610540578063d911f55314610553578063df3a12dd14610599578063e05f2fb4146105ac578063e5a357f5146105d357600080fd5b8063b86bc74f146104f2578063bf80209114610507578063c9dbcfda1461051a578063d0fb68c7146102ad578063d3243ad81461052d57600080fd5b80639e339909116100ff5780639e33990914610392578063a1cebf521461049e578063a217fddf146104b1578063a3eabd3d146104b9578063ace81910146104df57600080fd5b80637cd29fb7146102ad5780638856a0e9146104355780638e82d0e71461044857806391d148541461046b5780639dd09a731461047e57600080fd5b806333b72e49116101c95780635907ebea1161018d5780635907ebea14610392578063642f91631461039a5780636bc6421b146103bc578063719129be146103c4578063742f0688146103d757600080fd5b806333b72e491461034f57806336568abe14610357578063461c71b21461036a5780634cce913b1461037f5780634da11a20146102ad57600080fd5b80631a968069116102105780631a968069146102e75780631a9cfe28146102ad578063248a9ca31461030b5780632cd94e4f146102ad5780632f2ff15d1461033c57600080fd5b806301ffc9a71461024d57806305f84d451461027557806306ead22e1461028a5780630f68794a146102ad57806312ac167c146102c7575b600080fd5b61026061025b36600461363a565b6105f3565b60405190151581526020015b60405180910390f35b610288610283366004613679565b61062a565b005b61029d6102983660046136a5565b6108a5565b60405161026c949392919061370e565b6102b5605081565b60405160ff909116815260200161026c565b6102da6102d5366004613762565b6109dd565b60405161026c919061377d565b6102fa6102f53660046136a5565b610bc8565b60405161026c959493929190613790565b61032e6103193660046136a5565b60009081526020819052604090206001015490565b60405190815260200161026c565b61028861034a3660046137ce565b610c8a565b6102b5600281565b6102886103653660046137ce565b610caf565b610372610d16565b60405161026c91906137f1565b61032e61038d366004613835565b610d6e565b6102b5600f81565b6103ad6103a83660046136a5565b610d9f565b60405161026c93929190613857565b6102b5603381565b6102886103d236600461388d565b610f41565b6104236103e53660046136a5565b600760205260009081526040902080546001820154600283015460039093015460ff8084169461010085048216946201000090048216939291169086565b60405161026c96959493929190613913565b610288610443366004613958565b6112be565b61045b610456366004613762565b611773565b60405161026c9493929190613a35565b6102606104793660046137ce565b611a78565b61032e61048c3660046136a5565b60056020526000908152604090205481565b6102886104ac366004613b99565b611aa1565b61032e600081565b61032e6104c73660046136a5565b60009081526003602052604090205463ffffffff1690565b6102886104ed366004613958565b611c55565b61032e60008051602061450b83398151915281565b61032e610515366004613835565b6120b0565b610288610528366004613b99565b6120e9565b61028861053b36600461388d565b612176565b61028861054e3660046137ce565b612655565b6105666105613660046136a5565b61267a565b6040805160ff9687168152948616602086015292909416918301919091526060820152608081019190915260a00161026c565b61032e6105a73660046136a5565b612786565b61032e7f4bbeb6fd3e5222e55f2f8b0c35bc228e0a06a25d0da772fdb02c3b92fa004f8881565b6105e66105e13660046136a5565b6127a7565b60405161026c9190613c0e565b60006001600160e01b03198216637965db0b60e01b148061062457506301ffc9a760e01b6001600160e01b03198316145b92915050565b61064260008051602061450b83398151915233611a78565b6106675760405162461bcd60e51b815260040161065e90613c21565b60405180910390fd5b600082116106875760405162461bcd60e51b815260040161065e90613c58565b60008281526001602052604081205490036106b45760405162461bcd60e51b815260040161065e90613c8f565b6000826040516020016106e09181526d1111531155114814d5155111539560921b6020820152602e0190565b6040516020818303038152906040528051906020012090506107388160008051602061450b83398151915261071486612836565b6040516020016107249190613cc6565b6040516020818303038152906040526128c9565b8180156107625750600081815260046020908152604080832033845260030190915290205460ff16155b156107a557600081815260046020526040902061077f903361294a565b6040518181526000805160206144cb8339815191529060200160405180910390a16107e9565b8115156000036107e95760008181526004602052604090206107c79033612a77565b6040518181526000805160206144cb8339815191529060200160405180910390a15b60008051602061450b83398151915260005260036020527f04ed60087a82bd97d8afa881e356d9b31a57e1f4fa6c3493c1181428b0c3356254610845906108389060509063ffffffff16613d13565b63ffffffff1660646120b0565b60008281526004602052604090206002015460ff16106108a057600081815260046020526040902061087690612b2f565b6040518181526000805160206144eb8339815191529060200160405180910390a16108a083612ba0565b505050565b6001602081905260009182526040909120805491810180546108c690613d3b565b80601f01602080910402602001604051908101604052809291908181526020018280546108f290613d3b565b801561093f5780601f106109145761010080835404028352916020019161093f565b820191906000526020600020905b81548152906001019060200180831161092257829003601f168201915b50505050509080600201805461095490613d3b565b80601f016020809104026020016040519081016040528092919081815260200182805461098090613d3b565b80156109cd5780601f106109a2576101008083540402835291602001916109cd565b820191906000526020600020905b8154815290600101906020018083116109b057829003601f168201915b5050505050908060030154905084565b604080518082018252601081526f181899199a1a9b1b9c1cb0b131b232b360811b60208201528151602a80825260608281019094526001600160a01b0385169291600091602082018180368337019050509050600360fc1b81600081518110610a4857610a48613d75565b60200101906001600160f81b031916908160001a905350600f60fb1b81600181518110610a7757610a77613d75565b60200101906001600160f81b031916908160001a90535060005b6014811015610bbf5782600485610aa984600c613d8b565b60208110610ab957610ab9613d75565b1a60f81b6001600160f81b031916901c60f81c60ff1681518110610adf57610adf613d75565b01602001516001600160f81b03191682610afa836002613d9e565b610b05906002613d8b565b81518110610b1557610b15613d75565b60200101906001600160f81b031916908160001a9053508284610b3983600c613d8b565b60208110610b4957610b49613d75565b825191901a600f16908110610b6057610b60613d75565b01602001516001600160f81b03191682610b7b836002613d9e565b610b86906003613d8b565b81518110610b9657610b96613d75565b60200101906001600160f81b031916908160001a90535080610bb781613db5565b915050610a91565b50949350505050565b600460205260009081526040902080546001820154600283015460058401805460ff9485169593948381169461010090940416929190610c0790613d3b565b80601f0160208091040260200160405190810160405280929190818152602001828054610c3390613d3b565b8015610c805780601f10610c5557610100808354040283529160200191610c80565b820191906000526020600020905b815481529060010190602001808311610c6357829003601f168201915b5050505050905085565b600082815260208190526040902060010154610ca581612c79565b6108a08383612c86565b60405162461bcd60e51b815260206004820152603660248201527f596f752063616e27742072656e6f756e636520746f20796f757220726f6c652e60448201527520506c6561736520636f6e746163742061646d696e7360501b606482015260840161065e565b60606002805480602002602001604051908101604052809291908181526020018280548015610d6457602002820191906000526020600020905b815481526020019060010190808311610d50575b5050505050905090565b60086020528160005260406000208181548110610d8a57600080fd5b90600052602060002001600091509150505481565b60008181526001602052604081205460609182918103610df95760405162461bcd60e51b815260206004820152601560248201527414dd1d59195b9d08191bd95cdb89dd08195e1a5cdd605a1b604482015260640161065e565b6000848152600160208190526040909120600381015491810180549092600290920191908390610e2890613d3b565b80601f0160208091040260200160405190810160405280929190818152602001828054610e5490613d3b565b8015610ea15780601f10610e7657610100808354040283529160200191610ea1565b820191906000526020600020905b815481529060010190602001808311610e8457829003601f168201915b50505050509250818054610eb490613d3b565b80601f0160208091040260200160405190810160405280929190818152602001828054610ee090613d3b565b8015610f2d5780601f10610f0257610100808354040283529160200191610f2d565b820191906000526020600020905b815481529060010190602001808311610f1057829003601f168201915b505050505091509250925092509193909250565b60008381526003602090815260409182902080546002820154845193840152909263ffffffff808316680100000000000000009093041691909111910160408051601f1981840301815290829052610f9b91602001613dce565b60405160208183030381529060405290610fc85760405162461bcd60e51b815260040161065e919061377d565b50610fd7816001015433611a78565b8160020154604051602001610fee91815260200190565b60408051601f198184030181529082905261100b91602001613e0c565b604051602081830303815290604052906110385760405162461bcd60e51b815260040161065e919061377d565b506110438484611a78565b60028201546040805160208101929092529115910160408051601f198184030181529082905261107591602001613e54565b604051602081830303815290604052906110a25760405162461bcd60e51b815260040161065e919061377d565b506040516bffffffffffffffffffffffff19606085901b1660208201526411d490539560da1b60348201526039810185905260009060590160405160208183030381529060405280519060200120905061113b818360010154846002015460405160200161111291815260200190565b60405160208183030381529060405261112a886109dd565b604051602001610724929190613e99565b8280156111655750600081815260046020908152604080832033845260030190915290205460ff16155b156111a8576000818152600460205260409020611182903361294a565b6040518181526000805160206144cb8339815191529060200160405180910390a16111ec565b8215156000036111ec5760008181526004602052604090206111ca9033612a77565b6040518181526000805160206144cb8339815191529060200160405180910390a15b815460018301546000908152600360205260409020546112219161083891600160601b90910460ff169063ffffffff16613d13565b60008281526004602052604090206002015460ff16106112b757600081815260046020526040902061125290612b2f565b6040518181526000805160206144eb8339815191529060200160405180910390a161127d8585612c86565b8154600190839060009061129890849063ffffffff16613ee7565b92506101000a81548163ffffffff021916908363ffffffff1602179055505b5050505050565b6112d660008051602061450b83398151915233611a78565b6112f25760405162461bcd60e51b815260040161065e90613c21565b600085815260016020526040812054900361131f5760405162461bcd60e51b815260040161065e90613c8f565b6000846003811115611333576113336138c9565b1015801561135357506003846003811115611350576113506138c9565b11155b61139b5760405162461bcd60e51b8152602060048201526019602482015278105c1c1c9958da585d1a5bdb881a5cc81b9bdd081d985b1a59603a1b604482015260640161065e565b60008360028111156113af576113af6138c9565b101580156113cf575060028360028111156113cc576113cc6138c9565b11155b6114115760405162461bcd60e51b8152602060048201526013602482015272111959dc9959481a5cc81b9bdd081d985b1a59606a1b604482015260640161065e565b600082600f811115611425576114256138c9565b101580156114455750600f82600f811115611442576114426138c9565b11155b6114885760405162461bcd60e51b8152602060048201526014602482015273141c9bd9dc985b481a5cc81b9bdd081d985b1a5960621b604482015260640161065e565b60076000868686866040516020016114a39493929190613f42565b60408051601f198184030181529181528151602092830120835290820192909252016000206002015460ff1615156001146115205760405162461bcd60e51b815260206004820152601e60248201527f5468697320636572746966696361746520646f65736e27742065786973740000604482015260640161065e565b6000858585856040516020016115399493929190613f77565b6040516020818303038152906040528051906020012090506115c48160008051602061450b83398151915261156d89612836565b611587896003811115611582576115826138c9565b612836565b61159c896002811115611582576115826138c9565b6115b189600f811115611582576115826138c9565b6040516020016107249493929190613fbb565b8180156115ee5750600081815260046020908152604080832033845260030190915290205460ff16155b1561163157600081815260046020526040902061160b903361294a565b6040518181526000805160206144cb8339815191529060200160405180910390a1611675565b8115156000036116755760008181526004602052604090206116539033612a77565b6040518181526000805160206144cb8339815191529060200160405180910390a15b60008051602061450b83398151915260005260036020527f04ed60087a82bd97d8afa881e356d9b31a57e1f4fa6c3493c1181428b0c33562546116c4906108389060509063ffffffff16613d13565b60008281526004602052604090206002015460ff161061176b5760008181526004602052604090206116f590612b2f565b6040518181526000805160206144eb8339815191529060200160405180910390a1600060076000888888886040516020016117339493929190613f42565b60408051808303601f19018152918152815160209283012083529082019290925201600020600201805460ff19169115159190911790555b505050505050565b606080606080600060065467ffffffffffffffff81111561179657611796613af6565b6040519080825280602002602001820160405280156117c957816020015b60608152602001906001900390816117b45790505b509050600060065467ffffffffffffffff8111156117e9576117e9613af6565b604051908082528060200260200182016040528015611812578160200160208202803683370190505b509050600060065467ffffffffffffffff81111561183257611832613af6565b60405190808252806020026020018201604052801561185b578160200160208202803683370190505b509050600060065467ffffffffffffffff81111561187b5761187b613af6565b6040519080825280602002602001820160405280156118a4578160200160208202803683370190505b50905060005b600654811015611a6757600081815260056020818152604080842054845260049091529091200180546118dc90613d3b565b80601f016020809104026020016040519081016040528092919081815260200182805461190890613d3b565b80156119555780601f1061192a57610100808354040283529160200191611955565b820191906000526020600020905b81548152906001019060200180831161193857829003601f168201915b505050505085828151811061196c5761196c613d75565b602090810291909101810191909152600082815260058252604080822054825260049092522060020154845160ff909116908590839081106119b0576119b0613d75565b60ff90921660209283029190910182015260008281526005825260408082205482526004909252206001015483518490839081106119f0576119f0613d75565b6020908102919091018101919091526000828152600582526040808220548252600483528082206001600160a01b038e1683526003019092522054825160ff90911690839083908110611a4557611a45613d75565b9115156020928302919091019091015280611a5f81613db5565b9150506118aa565b509098919750919550909350915050565b6000918252602082815260408084206001600160a01b0393909316845291905290205460ff1690565b611ab960008051602061450b83398151915233611a78565b611ad55760405162461bcd60e51b815260040161065e90613c21565b60008411611af55760405162461bcd60e51b815260040161065e90613c58565b6000835111611b465760405162461bcd60e51b815260206004820152601960248201527f46697273746e616d652063616e6e6f7420626520656d70747900000000000000604482015260640161065e565b6000825111611b975760405162461bcd60e51b815260206004820152601860248201527f4c6173746e616d652063616e6e6f7420626520656d7074790000000000000000604482015260640161065e565b60008111611be75760405162461bcd60e51b815260206004820181905260248201527f426972746864617465206d7573742062652067726561746572207468616e2030604482015260640161065e565b60008481526001602052604090205415611c435760405162461bcd60e51b815260206004820152601b60248201527f546869732073747564656e7420616c7265616479206578697374730000000000604482015260640161065e565b611c4f84848484612d0a565b50505050565b611c6d60008051602061450b83398151915233611a78565b611c895760405162461bcd60e51b815260040161065e90613c21565b6000858152600160205260408120549003611cb65760405162461bcd60e51b815260040161065e90613c8f565b6000846003811115611cca57611cca6138c9565b10158015611cea57506003846003811115611ce757611ce76138c9565b11155b611d325760405162461bcd60e51b8152602060048201526019602482015278105c1c1c9958da585d1a5bdb881a5cc81b9bdd081d985b1a59603a1b604482015260640161065e565b6000836002811115611d4657611d466138c9565b10158015611d6657506002836002811115611d6357611d636138c9565b11155b611da85760405162461bcd60e51b8152602060048201526013602482015272111959dc9959481a5cc81b9bdd081d985b1a59606a1b604482015260640161065e565b600082600f811115611dbc57611dbc6138c9565b10158015611ddc5750600f82600f811115611dd957611dd96138c9565b11155b611e1f5760405162461bcd60e51b8152602060048201526014602482015273141c9bd9dc985b481a5cc81b9bdd081d985b1a5960621b604482015260640161065e565b6007600086868686604051602001611e3a9493929190613f42565b60408051601f198184030181529181528151602092830120835290820192909252016000206002015460ff1615611eb35760405162461bcd60e51b815260206004820152601f60248201527f5468697320636572746966696361746520616c72656164792065786973747300604482015260640161065e565b600085858585604051602001611ecc9493929190614046565b604051602081830303815290604052805190602001209050611f528160008051602061450b833981519152611f0089612836565b611f15896003811115611582576115826138c9565b611f2a896002811115611582576115826138c9565b611f3f89600f811115611582576115826138c9565b604051602001610724949392919061408b565b818015611f7c5750600081815260046020908152604080832033845260030190915290205460ff16155b15611fbf576000818152600460205260409020611f99903361294a565b6040518181526000805160206144cb8339815191529060200160405180910390a1612003565b811515600003612003576000818152600460205260409020611fe19033612a77565b6040518181526000805160206144cb8339815191529060200160405180910390a15b60008051602061450b83398151915260005260036020527f04ed60087a82bd97d8afa881e356d9b31a57e1f4fa6c3493c1181428b0c3356254612052906108389060339063ffffffff16613d13565b60008281526004602052604090206002015460ff161061176b57600081815260046020526040902061208390612b2f565b6040518181526000805160206144eb8339815191529060200160405180910390a161176b86868686612e83565b60006120bc828461412d565b6000036120d4576120cd8284614141565b9050610624565b6120de8284614141565b6120cd906001613d8b565b61210160008051602061450b83398151915233611a78565b61211d5760405162461bcd60e51b815260040161065e90613c21565b6000841161213d5760405162461bcd60e51b815260040161065e90613c58565b600084815260016020526040812054900361216a5760405162461bcd60e51b815260040161065e90613c8f565b611c4f84848484613051565b60008381526003602090815260409182902080546002820154845193840152909263ffffffff64010000000083048116921691909111910160408051601f19818403018152908290526121cb91602001614155565b604051602081830303815290604052906121f85760405162461bcd60e51b815260040161065e919061377d565b506122038484611a78565b816002015460405160200161221a91815260200190565b60408051601f198184030181529082905261223791602001614174565b604051602081830303815290604052906122645760405162461bcd60e51b815260040161065e919061377d565b50612273816001015433611a78565b816002015460405160200161228a91815260200190565b60408051601f19818403018152908290526122a791602001613e0c565b604051602081830303815290604052906122d45760405162461bcd60e51b815260040161065e919061377d565b506040516bffffffffffffffffffffffff19606085901b166020820152655245564f4b4560d01b6034820152603a8101859052600090605a0160405160208183030381529060405280519060200120905061236e818360010154846002015460405160200161234591815260200190565b60405160208183030381529060405261235d886109dd565b6040516020016107249291906141b2565b8280156123985750600081815260046020908152604080832033845260030190915290205460ff16155b156123db5760008181526004602052604090206123b5903361294a565b6040518181526000805160206144cb8339815191529060200160405180910390a161241f565b82151560000361241f5760008181526004602052604090206123fd9033612a77565b6040518181526000805160206144cb8339815191529060200160405180910390a15b8160010154851415801561247b5750815460018301546000908152600360205260409020546124639161083891600160681b90910460ff169063ffffffff16613d13565b60008281526004602052604090206002015460ff1610155b806124e657508160010154851480156124e6575081546001808401546000908152600360205260409020546124ce92600160681b900460ff16916124c49163ffffffff16614201565b6108389190613d13565b60008281526004602052604090206002015460ff1610155b156112b75760005b6006548110156125f7576000818152600560209081526040808320548352600482528083206001600160a01b038916845260030190915290205460ff161515600114801561255957506000818152600560209081526040808320548352600490915290206001015486145b156125e55760008181526005602090815260408083205483526004909152812060020180546001929061259090849060ff1661421e565b825460ff9182166101009390930a9283029190920219909116179055506000818152600560209081526040808320548352600482528083206001600160a01b03891684526003019091529020805460ff191690555b806125ef81613db5565b9150506124ee565b50600081815260046020526040902061260f90612b2f565b6040518181526000805160206144eb8339815191529060200160405180910390a161263a85856132a1565b8154600190839060009061129890849063ffffffff16614201565b60008281526020819052604090206001015461267081612c79565b6108a083836132a1565b600081815260076020526040812060020154819081908190819060ff1615156001146126e85760405162461bcd60e51b815260206004820152601e60248201527f5468697320636572746966696361746520646f65736e27742065786973740000604482015260640161065e565b60008681526007602052604090205460ff16600381111561270b5761270b6138c9565b600087815260076020526040902054610100900460ff166002811115612733576127336138c9565b60008881526007602052604090205462010000900460ff16600f81111561275c5761275c6138c9565b60009889526007602052604090982060018101546003909101549299919897509550909350915050565b6002818154811061279657600080fd5b600091825260209091200154905081565b600081815260016020526040812054606091036127d65760405162461bcd60e51b815260040161065e90613c8f565b6000828152600860209081526040918290208054835181840281018401909452808452909183018282801561282a57602002820191906000526020600020905b815481526020019060010190808311612816575b50505050509050919050565b6060600061284383613306565b600101905060008167ffffffffffffffff81111561286357612863613af6565b6040519080825280601f01601f19166020018201604052801561288d576020820181803683370190505b5090508181016020015b600019016f181899199a1a9b1b9c1cb0b131b232b360811b600a86061a8153600a850494508461289757509392505050565b60008381526004602052604081205460ff16151590036108a0576000838152600460209081526040808320805460ff1916600190811790915560068054855260059093529083208690558154909290612923908490613d8b565b9091555050600083815260046020526040902060018101839055600501611c4f828261427d565b6001600160a01b038116600090815260038301602052604090205460ff16156129b55760405162461bcd60e51b815260206004820181905260248201527f596f7520616c7265616479207369676e65642074686973206d756c7469736967604482015260640161065e565b6002820180546101009081900460ff9081166000908152600486016020526040902080546001600160a01b0319166001600160a01b03861617905582549190910416906001612a038361433d565b82546101009290920a60ff8181021990931691831602179091556001600160a01b03831660009081526003850160205260408120805460ff1916600190811790915560028601805491945092612a5b9185911661435c565b92506101000a81548160ff021916908360ff1602179055505050565b6001600160a01b038116600090815260038301602052604090205460ff161515600114612af55760405162461bcd60e51b815260206004820152602660248201527f596f752068617665206e6f7465207369676e65642074686973206d756c7469736044820152651a59c81e595d60d21b606482015260840161065e565b6001600160a01b03811660009081526003830160205260408120805460ff1916905560028301805460019290612a5b90849060ff1661421e565b60028101805460ff1916905560005b600282015460ff61010090910481169082161015612b9c5760ff811660009081526004830160209081526040808320546001600160a01b03168352600385019091529020805460ff1916905580612b948161433d565b915050612b3e565b5050565b600081815260016020819052604082208281559190612bc1908301826135ec565b612bcf6002830160006135ec565b6003820160009055505060005b600254811015612c42578160028281548110612bfa57612bfa613d75565b906000526020600020015403612c3057600060028281548110612c1f57612c1f613d75565b600091825260209091200155612c42565b80612c3a81613db5565b915050612bdc565b506040518181527f34de6b871245ed0a89b82912e8e5ee6d9c3104b3e5bb1d67a71ad7e68239e41c9060200160405180910390a150565b612c8381336133de565b50565b612c908282611a78565b612b9c576000828152602081815260408083206001600160a01b03851684529091529020805460ff19166001179055612cc63390565b6001600160a01b0316816001600160a01b0316837f2f8788117e7eff1d82e926ec794901d17c78024a50270940304540a733656f0d60405160405180910390a45050565b60008481526001602052604090205415612d5f5760405162461bcd60e51b815260206004820152601660248201527553747564656e7420616c72656164792065786973747360501b604482015260640161065e565b83600003612d9f5760405162461bcd60e51b815260206004820152600d60248201526c049642063616e2774206265203609c1b604482015260640161065e565b6040805160808101825285815260208082018681528284018690526060830185905260008881526001928390529390932082518155925191929190820190612de7908261427d565b5060408201516002820190612dfc908261427d565b5060609190910151600390910155600280546001810182556000919091527f405787fa12a823e0f2b7631cc41b3ba8828b3321ca811111fa75cd3aa3bb5ace018490556040517fb6767d1c89515962142b00b5577569c92a74381d9441a528911c66e0c3cea1f890612e7590869086908690869061370e565b60405180910390a150505050565b6040518060c00160405280846003811115612ea057612ea06138c9565b8152602001836002811115612eb757612eb76138c9565b815260200182600f811115612ece57612ece6138c9565b8152602001428152602001600115158152602001858152506007600086868686604051602001612f019493929190613f42565b60408051601f1981840301815291815281516020928301208352908201929092520160002081518154829060ff19166001836003811115612f4457612f446138c9565b021790555060208201518154829061ff001916610100836002811115612f6c57612f6c6138c9565b021790555060408201518154829062ff000019166201000083600f811115612f9657612f966138c9565b021790555060608201516001820155608082015160028201805460ff191691151591909117905560a0909101516003909101556000848152600860209081526040918290209151612fef91879187918791879101613f42565b60408051601f19818403018152908290528051602091820120835460018101855560009485529190932001919091557fb55811dd01470a227956304b027c610c7cdf9dd622dcc47791380261d56dc6ed90612e75908690869086908690614375565b60008481526001602052604081205490036130a75760405162461bcd60e51b815260206004820152601660248201527514dd1d59195b9d08191bd95cc81b9bdd08195e1a5cdd60521b604482015260640161065e565b600160008581526020019081526020016000206001016040516020016130cd91906143ac565b60405160208183030381529060405280519060200120836040516020016130f49190614422565b604051602081830303815290604052805190602001201415801561314c5750604080516000815260208101808352815190209161313391869101614422565b6040516020818303038152906040528051906020012014155b1561316f5760008481526001602081905260409091200161316d848261427d565b505b60008481526001602090815260409182902091516131919260020191016143ac565b60405160208183030381529060405280519060200120826040516020016131b89190614422565b6040516020818303038152906040528051906020012014158015613210575060408051600081526020810180835281519020916131f791859101614422565b6040516020818303038152906040528051906020012014155b15613232576000848152600160205260409020600201613230838261427d565b505b600084815260016020526040902060030154811480159061325257508015155b1561326c5760008481526001602052604090206003018190555b7f03e10a3f40e9af2a5e61cb5a3de55fd67286470c35b3cf345b04a83cf3f4907784848484604051612e75949392919061370e565b6132ab8282611a78565b15612b9c576000828152602081815260408083206001600160a01b0385168085529252808320805460ff1916905551339285917ff6391f5c32d9c69d2a47ea670b442974b53935d1edc7fd64eb21e047a839171b9190a45050565b60008072184f03e93ff9f4daa797ed6e38ed64bf6a1f0160401b83106133455772184f03e93ff9f4daa797ed6e38ed64bf6a1f0160401b830492506040015b6d04ee2d6d415b85acef81000000008310613371576d04ee2d6d415b85acef8100000000830492506020015b662386f26fc10000831061338f57662386f26fc10000830492506010015b6305f5e10083106133a7576305f5e100830492506008015b61271083106133bb57612710830492506004015b606483106133cd576064830492506002015b600a83106106245760010192915050565b6133e88282611a78565b612b9c576133f581613437565b613400836020613449565b60405160200161341192919061443e565b60408051601f198184030181529082905262461bcd60e51b825261065e9160040161377d565b60606106246001600160a01b03831660145b60606000613458836002613d9e565b613463906002613d8b565b67ffffffffffffffff81111561347b5761347b613af6565b6040519080825280601f01601f1916602001820160405280156134a5576020820181803683370190505b509050600360fc1b816000815181106134c0576134c0613d75565b60200101906001600160f81b031916908160001a905350600f60fb1b816001815181106134ef576134ef613d75565b60200101906001600160f81b031916908160001a9053506000613513846002613d9e565b61351e906001613d8b565b90505b6001811115613596576f181899199a1a9b1b9c1cb0b131b232b360811b85600f166010811061355257613552613d75565b1a60f81b82828151811061356857613568613d75565b60200101906001600160f81b031916908160001a90535060049490941c9361358f816144b3565b9050613521565b5083156135e55760405162461bcd60e51b815260206004820181905260248201527f537472696e67733a20686578206c656e67746820696e73756666696369656e74604482015260640161065e565b9392505050565b5080546135f890613d3b565b6000825580601f10613608575050565b601f016020900490600052602060002090810190612c8391905b808211156136365760008155600101613622565b5090565b60006020828403121561364c57600080fd5b81356001600160e01b0319811681146135e557600080fd5b8035801515811461367457600080fd5b919050565b6000806040838503121561368c57600080fd5b8235915061369c60208401613664565b90509250929050565b6000602082840312156136b757600080fd5b5035919050565b60005b838110156136d95781810151838201526020016136c1565b50506000910152565b600081518084526136fa8160208601602086016136be565b601f01601f19169290920160200192915050565b84815260806020820152600061372760808301866136e2565b828103604084015261373981866136e2565b91505082606083015295945050505050565b80356001600160a01b038116811461367457600080fd5b60006020828403121561377457600080fd5b6135e58261374b565b6020815260006135e560208301846136e2565b851515815284602082015260ff8416604082015260ff8316606082015260a0608082015260006137c360a08301846136e2565b979650505050505050565b600080604083850312156137e157600080fd5b8235915061369c6020840161374b565b6020808252825182820181905260009190848201906040850190845b818110156138295783518352928401929184019160010161380d565b50909695505050505050565b6000806040838503121561384857600080fd5b50508035926020909101359150565b60608152600061386a60608301866136e2565b828103602084015261387c81866136e2565b915050826040830152949350505050565b6000806000606084860312156138a257600080fd5b833592506138b26020850161374b565b91506138c060408501613664565b90509250925092565b634e487b7160e01b600052602160045260246000fd5b600481106138ef576138ef6138c9565b9052565b600381106138ef576138ef6138c9565b601081106138ef576138ef6138c9565b60c0810161392182896138df565b61392e60208301886138f3565b61393b6040830187613903565b6060820194909452911515608083015260a0909101529392505050565b600080600080600060a0868803121561397057600080fd5b8535945060208601356004811061398657600080fd5b935060408601356003811061399a57600080fd5b92506060860135601081106139ae57600080fd5b91506139bc60808701613664565b90509295509295909350565b600081518084526020808501945080840160005b838110156139f8578151875295820195908201906001016139dc565b509495945050505050565b600081518084526020808501945080840160005b838110156139f8578151151587529582019590820190600101613a17565b608081526000613a4860808301876139c8565b82810360208481019190915286518083528782019282019060005b81811015613a8257845160ff1683529383019391830191600101613a63565b5050848103604086015286518082528282019350600581901b8201830183890160005b83811015613ad357601f19858403018752613ac18383516136e2565b96860196925090850190600101613aa5565b50508681036060880152613ae78189613a03565b9b9a5050505050505050505050565b634e487b7160e01b600052604160045260246000fd5b600082601f830112613b1d57600080fd5b813567ffffffffffffffff80821115613b3857613b38613af6565b604051601f8301601f19908116603f01168101908282118183101715613b6057613b60613af6565b81604052838152866020858801011115613b7957600080fd5b836020870160208301376000602085830101528094505050505092915050565b60008060008060808587031215613baf57600080fd5b84359350602085013567ffffffffffffffff80821115613bce57600080fd5b613bda88838901613b0c565b94506040870135915080821115613bf057600080fd5b50613bfd87828801613b0c565b949793965093946060013593505050565b6020815260006135e560208301846139c8565b60208082526019908201527f43616c6c6572206973206e6f7420612063657274696669657200000000000000604082015260600190565b60208082526019908201527f4964206d7573742062652067726561746572207468616e203000000000000000604082015260600190565b6020808252601a908201527f546869732073747564656e7420646f65736e2774206578697374000000000000604082015260600190565b6e02232b632ba329039ba3ab232b73a1608d1b815260008251613cf081600f8501602087016136be565b91909101600f0192915050565b634e487b7160e01b600052601160045260246000fd5b63ffffffff818116838216028082169190828114613d3357613d33613cfd565b505092915050565b600181811c90821680613d4f57607f821691505b602082108103613d6f57634e487b7160e01b600052602260045260246000fd5b50919050565b634e487b7160e01b600052603260045260246000fd5b8082018082111561062457610624613cfd565b808202811582820484141761062457610624613cfd565b600060018201613dc757613dc7613cfd565b5060010190565b63026b0bc160e51b815260008251613ded8160048501602087016136be565b67081c995858da195960c21b6004939091019283015250600c01919050565b6f021b0b63632b91034b9903737ba1030960851b815260008251613e378160108501602087016136be565b651030b236b4b760d11b6010939091019283015250601601919050565b7f54686973206164647265737320697320616c7265616479206120000000000000815260008251613e8c81601a8501602087016136be565b91909101601a0192915050565b65023b930b73a160d51b815260008351613eba8160068501602088016136be565b600160fd1b6006918401918201528351613edb8160078401602088016136be565b01600701949350505050565b63ffffffff818116838216019080821115613f0457613f04613cfd565b5092915050565b60048110613f1b57613f1b6138c9565b60f81b9052565b60038110613f1b57613f1b6138c9565b60108110613f1b57613f1b6138c9565b848152613f526020820185613f0b565b613f5f6021820184613f22565b613f6c6022820183613f32565b602301949350505050565b848152613f876020820185613f0b565b613f946021820184613f22565b613fa16022820183613f32565b6544454c45544560d01b6023820152602901949350505050565b6602232b632ba32960cd1b815260008551613fdd816007850160208a016136be565b8083019050600160fd1b8060078301528651614000816008850160208b016136be565b60089201918201819052855161401d816009850160208a016136be565b6009920191820152835161403881600a8401602088016136be565b01600a019695505050505050565b8481526140566020820185613f0b565b6140636021820184613f22565b6140706022820183613f32565b664345525449465960c81b6023820152602a01949350505050565b67021b2b93a34b33c960c51b8152600085516140ae816008850160208a016136be565b8083019050600160fd1b80600883015286516140d1816009850160208b016136be565b6009920191820181905285516140ee81600a850160208a016136be565b600a920191820152835161410981600b8401602088016136be565b01600b019695505050505050565b634e487b7160e01b600052601260045260246000fd5b60008261413c5761413c614117565b500690565b60008261415057614150614117565b500490565b63026b4b7160e51b815260008251613ded8160048501602087016136be565b7502a3434b99030b2323932b9b99034b9903737ba1030960551b8152600082516141a58160168501602087016136be565b9190910160160192915050565b6602932bb37b5b2960cd1b8152600083516141d48160078501602088016136be565b600160fd1b60079184019182015283516141f58160088401602088016136be565b01600801949350505050565b63ffffffff828116828216039080821115613f0457613f04613cfd565b60ff828116828216039081111561062457610624613cfd565b601f8211156108a057600081815260208120601f850160051c8101602086101561425e5750805b601f850160051c820191505b8181101561176b5782815560010161426a565b815167ffffffffffffffff81111561429757614297613af6565b6142ab816142a58454613d3b565b84614237565b602080601f8311600181146142e057600084156142c85750858301515b600019600386901b1c1916600185901b17855561176b565b600085815260208120601f198616915b8281101561430f578886015182559484019460019091019084016142f0565b508582101561432d5787850151600019600388901b60f8161c191681555b5050505050600190811b01905550565b600060ff821660ff810361435357614353613cfd565b60010192915050565b60ff818116838216019081111561062457610624613cfd565b8481526080810161438960208301866138df565b61439660408301856138f3565b6143a36060830184613903565b95945050505050565b60008083546143ba81613d3b565b600182811680156143d257600181146143e757614416565b60ff1984168752821515830287019450614416565b8760005260208060002060005b8581101561440d5781548a8201529084019082016143f4565b50505082870194505b50929695505050505050565b600082516144348184602087016136be565b9190910192915050565b7f416363657373436f6e74726f6c3a206163636f756e74200000000000000000008152600083516144768160178501602088016136be565b7001034b99036b4b9b9b4b733903937b6329607d1b60179184019182015283516144a78160288401602088016136be565b01602801949350505050565b6000816144c2576144c2613cfd565b50600019019056feb431a69783a2491a0c400ff16dab32cd442abf8fe5af63a526a7248d730192f8562618dbcf74b61ae5b0f229fe40ba6d5b6ae6b4248f8c89a870dda7c77135f6d646ae07eb0d0f77457502a65e7407930dff4cd4fd99abc6aac87a753f4c8a42a2646970667358221220377eee639666eea888fb5cc2e5771232e6b32e2b17b9a51a280dedeaa78774f364736f6c634300081300334bbeb6fd3e5222e55f2f8b0c35bc228e0a06a25d0da772fdb02c3b92fa004f88d646ae07eb0d0f77457502a65e7407930dff4cd4fd99abc6aac87a753f4c8a42",
  "linkReferences": {},
  "deployedLinkReferences": {}
}