{
  "_format": "hh-sol-artifact-1",
  "contractName": "Certifications",
  "sourceName": "contracts/Certifications.sol",
  "abi": [
    {
      "inputs": [
        {
          "internalType": "address",
          "name": "certifier_admin1",
          "type": "address"
        },
        {
          "internalType": "address",
          "name": "certifier_admin2",
          "type": "address"
        }
      ],
      "stateMutability": "nonpayable",
      "type": "constructor"
    },
    {
      "anonymous": false,
      "inputs": [
        {
          "indexed": true,
          "internalType": "bytes32",
          "name": "role",
          "type": "bytes32"
        },
        {
          "indexed": true,
          "internalType": "bytes32",
          "name": "previousAdminRole",
          "type": "bytes32"
        },
        {
          "indexed": true,
          "internalType": "bytes32",
          "name": "newAdminRole",
          "type": "bytes32"
        }
      ],
      "name": "RoleAdminChanged",
      "type": "event"
    },
    {
      "anonymous": false,
      "inputs": [
        {
          "indexed": true,
          "internalType": "bytes32",
          "name": "role",
          "type": "bytes32"
        },
        {
          "indexed": true,
          "internalType": "address",
          "name": "account",
          "type": "address"
        },
        {
          "indexed": true,
          "internalType": "address",
          "name": "sender",
          "type": "address"
        }
      ],
      "name": "RoleGranted",
      "type": "event"
    },
    {
      "anonymous": false,
      "inputs": [
        {
          "indexed": true,
          "internalType": "bytes32",
          "name": "role",
          "type": "bytes32"
        },
        {
          "indexed": true,
          "internalType": "address",
          "name": "account",
          "type": "address"
        },
        {
          "indexed": true,
          "internalType": "address",
          "name": "sender",
          "type": "address"
        }
      ],
      "name": "RoleRevoked",
      "type": "event"
    },
    {
      "anonymous": false,
      "inputs": [
        {
          "indexed": false,
          "internalType": "uint256",
          "name": "id",
          "type": "uint256"
        },
        {
          "indexed": false,
          "internalType": "string",
          "name": "firstname",
          "type": "string"
        },
        {
          "indexed": false,
          "internalType": "string",
          "name": "lastname",
          "type": "string"
        },
        {
          "indexed": false,
          "internalType": "uint256",
          "name": "birthdate",
          "type": "uint256"
        }
      ],
      "name": "StudentAdded",
      "type": "event"
    },
    {
      "anonymous": false,
      "inputs": [
        {
          "indexed": false,
          "internalType": "uint256",
          "name": "id",
          "type": "uint256"
        }
      ],
      "name": "StudentDeleted",
      "type": "event"
    },
    {
      "anonymous": false,
      "inputs": [
        {
          "indexed": false,
          "internalType": "uint256",
          "name": "id",
          "type": "uint256"
        },
        {
          "indexed": false,
          "internalType": "string",
          "name": "firstname",
          "type": "string"
        },
        {
          "indexed": false,
          "internalType": "string",
          "name": "lastname",
          "type": "string"
        },
        {
          "indexed": false,
          "internalType": "uint256",
          "name": "birthdate",
          "type": "uint256"
        }
      ],
      "name": "StudentEdited",
      "type": "event"
    },
    {
      "anonymous": false,
      "inputs": [
        {
          "indexed": false,
          "internalType": "uint256",
          "name": "studentId",
          "type": "uint256"
        },
        {
          "indexed": false,
          "internalType": "enum Certifications.appreciation",
          "name": "appreciation",
          "type": "uint8"
        },
        {
          "indexed": false,
          "internalType": "enum Certifications.degree",
          "name": "degree",
          "type": "uint8"
        },
        {
          "indexed": false,
          "internalType": "enum Certifications.program",
          "name": "program",
          "type": "uint8"
        }
      ],
      "name": "certificationEmited",
      "type": "event"
    },
    {
      "anonymous": false,
      "inputs": [
        {
          "indexed": false,
          "internalType": "bytes32",
          "name": "multiSigName",
          "type": "bytes32"
        }
      ],
      "name": "multiSigCleared",
      "type": "event"
    },
    {
      "anonymous": false,
      "inputs": [
        {
          "indexed": false,
          "internalType": "bytes32",
          "name": "multiSigName",
          "type": "bytes32"
        }
      ],
      "name": "multiSigSigned",
      "type": "event"
    },
    {
      "inputs": [],
      "name": "CERTIFIER",
      "outputs": [
        {
          "internalType": "bytes32",
          "name": "",
          "type": "bytes32"
        }
      ],
      "stateMutability": "view",
      "type": "function"
    },
    {
      "inputs": [],
      "name": "CERTIFIER_ADMIN",
      "outputs": [
        {
          "internalType": "bytes32",
          "name": "",
          "type": "bytes32"
        }
      ],
      "stateMutability": "view",
      "type": "function"
    },
    {
      "inputs": [],
      "name": "DEFAULT_ADMIN_ROLE",
      "outputs": [
        {
          "internalType": "bytes32",
          "name": "",
          "type": "bytes32"
        }
      ],
      "stateMutability": "view",
      "type": "function"
    },
    {
      "inputs": [],
      "name": "MAX_CERTIFIERS",
      "outputs": [
        {
          "internalType": "uint8",
          "name": "",
          "type": "uint8"
        }
      ],
      "stateMutability": "view",
      "type": "function"
    },
    {
      "inputs": [],
      "name": "MAX_CERTIFIERS_ADMIN",
      "outputs": [
        {
          "internalType": "uint8",
          "name": "",
          "type": "uint8"
        }
      ],
      "stateMutability": "view",
      "type": "function"
    },
    {
      "inputs": [],
      "name": "MIN_CERTIFIERS_ADMIN",
      "outputs": [
        {
          "internalType": "uint8",
          "name": "",
          "type": "uint8"
        }
      ],
      "stateMutability": "view",
      "type": "function"
    },
    {
      "inputs": [],
      "name": "PERCENT_TO_CERTIFY",
      "outputs": [
        {
          "internalType": "uint8",
          "name": "",
          "type": "uint8"
        }
      ],
      "stateMutability": "view",
      "type": "function"
    },
    {
      "inputs": [],
      "name": "PERCENT_TO_DELETE_STUDENT",
      "outputs": [
        {
          "internalType": "uint8",
          "name": "",
          "type": "uint8"
        }
      ],
      "stateMutability": "view",
      "type": "function"
    },
    {
      "inputs": [],
      "name": "PERCENT_TO_EDIT_CERTIFICATE",
      "outputs": [
        {
          "internalType": "uint8",
          "name": "",
          "type": "uint8"
        }
      ],
      "stateMutability": "view",
      "type": "function"
    },
    {
      "inputs": [],
      "name": "PERCENT_TO_GRANT_CERTIFIER",
      "outputs": [
        {
          "internalType": "uint8",
          "name": "",
          "type": "uint8"
        }
      ],
      "stateMutability": "view",
      "type": "function"
    },
    {
      "inputs": [],
      "name": "PERCENT_TO_GRANT_CERTIFIER_ADMIN",
      "outputs": [
        {
          "internalType": "uint8",
          "name": "",
          "type": "uint8"
        }
      ],
      "stateMutability": "view",
      "type": "function"
    },
    {
      "inputs": [],
      "name": "PERCENT_TO_REVOKE_CERTIFIER",
      "outputs": [
        {
          "internalType": "uint8",
          "name": "",
          "type": "uint8"
        }
      ],
      "stateMutability": "view",
      "type": "function"
    },
    {
      "inputs": [],
      "name": "PERCENT_TO_REVOKE_CERTIFIER_ADMIN",
      "outputs": [
        {
          "internalType": "uint8",
          "name": "",
          "type": "uint8"
        }
      ],
      "stateMutability": "view",
      "type": "function"
    },
    {
      "inputs": [
        {
          "internalType": "address",
          "name": "_address",
          "type": "address"
        }
      ],
      "name": "addToStr",
      "outputs": [
        {
          "internalType": "string",
          "name": "",
          "type": "string"
        }
      ],
      "stateMutability": "pure",
      "type": "function"
    },
    {
      "inputs": [
        {
          "internalType": "uint256",
          "name": "a",
          "type": "uint256"
        },
        {
          "internalType": "uint256",
          "name": "b",
          "type": "uint256"
        }
      ],
      "name": "ceilUDiv",
      "outputs": [
        {
          "internalType": "uint256",
          "name": "",
          "type": "uint256"
        }
      ],
      "stateMutability": "pure",
      "type": "function"
    },
    {
      "inputs": [
        {
          "internalType": "bytes32",
          "name": "",
          "type": "bytes32"
        }
      ],
      "name": "certificates",
      "outputs": [
        {
          "internalType": "enum Certifications.appreciation",
          "name": "appreciation",
          "type": "uint8"
        },
        {
          "internalType": "enum Certifications.degree",
          "name": "degree",
          "type": "uint8"
        },
        {
          "internalType": "enum Certifications.program",
          "name": "program",
          "type": "uint8"
        },
        {
          "internalType": "uint256",
          "name": "creation_date",
          "type": "uint256"
        },
        {
          "internalType": "bool",
          "name": "validity",
          "type": "bool"
        },
        {
          "internalType": "uint256",
          "name": "stud_id",
          "type": "uint256"
        }
      ],
      "stateMutability": "view",
      "type": "function"
    },
    {
      "inputs": [
        {
          "internalType": "uint256",
          "name": "",
          "type": "uint256"
        },
        {
          "internalType": "uint256",
          "name": "",
          "type": "uint256"
        }
      ],
      "name": "certificatesByStudent",
      "outputs": [
        {
          "internalType": "bytes32",
          "name": "",
          "type": "bytes32"
        }
      ],
      "stateMutability": "view",
      "type": "function"
    },
    {
      "inputs": [
        {
          "internalType": "uint256",
          "name": "studentId",
          "type": "uint256"
        },
        {
          "internalType": "enum Certifications.appreciation",
          "name": "app",
          "type": "uint8"
        },
        {
          "internalType": "enum Certifications.degree",
          "name": "deg",
          "type": "uint8"
        },
        {
          "internalType": "enum Certifications.program",
          "name": "prog",
          "type": "uint8"
        },
        {
          "internalType": "bool",
          "name": "approve",
          "type": "bool"
        }
      ],
      "name": "certify",
      "outputs": [],
      "stateMutability": "nonpayable",
      "type": "function"
    },
    {
      "inputs": [
        {
          "internalType": "uint256",
          "name": "_id",
          "type": "uint256"
        },
        {
          "internalType": "string",
          "name": "_firstname",
          "type": "string"
        },
        {
          "internalType": "string",
          "name": "_lastname",
          "type": "string"
        },
        {
          "internalType": "uint256",
          "name": "_birthdate",
          "type": "uint256"
        }
      ],
      "name": "createStudent",
      "outputs": [],
      "stateMutability": "nonpayable",
      "type": "function"
    },
    {
      "inputs": [
        {
          "internalType": "uint256",
          "name": "studentId",
          "type": "uint256"
        },
        {
          "internalType": "enum Certifications.appreciation",
          "name": "app",
          "type": "uint8"
        },
        {
          "internalType": "enum Certifications.degree",
          "name": "deg",
          "type": "uint8"
        },
        {
          "internalType": "enum Certifications.program",
          "name": "prog",
          "type": "uint8"
        },
        {
          "internalType": "bool",
          "name": "approve",
          "type": "bool"
        }
      ],
      "name": "deleteCertificate",
      "outputs": [],
      "stateMutability": "nonpayable",
      "type": "function"
    },
    {
      "inputs": [
        {
          "internalType": "uint256",
          "name": "_id",
          "type": "uint256"
        },
        {
          "internalType": "string",
          "name": "_firstname",
          "type": "string"
        },
        {
          "internalType": "string",
          "name": "_lastname",
          "type": "string"
        },
        {
          "internalType": "uint256",
          "name": "_birthdate",
          "type": "uint256"
        }
      ],
      "name": "editStudentById",
      "outputs": [],
      "stateMutability": "nonpayable",
      "type": "function"
    },
    {
      "inputs": [
        {
          "internalType": "address",
          "name": "signer",
          "type": "address"
        }
      ],
      "name": "getAllMultiSig",
      "outputs": [
        {
          "internalType": "bytes32[]",
          "name": "",
          "type": "bytes32[]"
        },
        {
          "internalType": "uint8[]",
          "name": "",
          "type": "uint8[]"
        },
        {
          "internalType": "string[]",
          "name": "",
          "type": "string[]"
        },
        {
          "internalType": "bool[]",
          "name": "",
          "type": "bool[]"
        }
      ],
      "stateMutability": "view",
      "type": "function"
    },
    {
      "inputs": [
        {
          "internalType": "uint256",
          "name": "_id",
          "type": "uint256"
        }
      ],
      "name": "getCertificatesByStudent",
      "outputs": [
        {
          "internalType": "bytes32[]",
          "name": "",
          "type": "bytes32[]"
        }
      ],
      "stateMutability": "view",
      "type": "function"
    },
    {
      "inputs": [
        {
          "internalType": "bytes32",
          "name": "role",
          "type": "bytes32"
        }
      ],
      "name": "getRoleAdmin",
      "outputs": [
        {
          "internalType": "bytes32",
          "name": "",
          "type": "bytes32"
        }
      ],
      "stateMutability": "view",
      "type": "function"
    },
    {
      "inputs": [
        {
          "internalType": "uint256",
          "name": "_id",
          "type": "uint256"
        }
      ],
      "name": "getStudent",
      "outputs": [
        {
          "components": [
            {
              "internalType": "uint256",
              "name": "id",
              "type": "uint256"
            },
            {
              "internalType": "string",
              "name": "firstname",
              "type": "string"
            },
            {
              "internalType": "string",
              "name": "lastname",
              "type": "string"
            },
            {
              "internalType": "uint256",
              "name": "birthdate",
              "type": "uint256"
            }
          ],
          "internalType": "struct Students.Student",
          "name": "",
          "type": "tuple"
        }
      ],
      "stateMutability": "view",
      "type": "function"
    },
    {
      "inputs": [
        {
          "internalType": "bytes32",
          "name": "roleHash",
          "type": "bytes32"
        },
        {
          "internalType": "address",
          "name": "target",
          "type": "address"
        },
        {
          "internalType": "bool",
          "name": "approve",
          "type": "bool"
        }
      ],
      "name": "grantAnyRole",
      "outputs": [],
      "stateMutability": "nonpayable",
      "type": "function"
    },
    {
      "inputs": [
        {
          "internalType": "bytes32",
          "name": "role",
          "type": "bytes32"
        },
        {
          "internalType": "address",
          "name": "account",
          "type": "address"
        }
      ],
      "name": "grantRole",
      "outputs": [],
      "stateMutability": "nonpayable",
      "type": "function"
    },
    {
      "inputs": [
        {
          "internalType": "bytes32",
          "name": "role",
          "type": "bytes32"
        },
        {
          "internalType": "address",
          "name": "account",
          "type": "address"
        }
      ],
      "name": "hasRole",
      "outputs": [
        {
          "internalType": "bool",
          "name": "",
          "type": "bool"
        }
      ],
      "stateMutability": "view",
      "type": "function"
    },
    {
      "inputs": [
        {
          "internalType": "bytes32",
          "name": "",
          "type": "bytes32"
        }
      ],
      "name": "multiSig",
      "outputs": [
        {
          "internalType": "bool",
          "name": "created",
          "type": "bool"
        },
        {
          "internalType": "bytes32",
          "name": "role",
          "type": "bytes32"
        },
        {
          "internalType": "uint8",
          "name": "count",
          "type": "uint8"
        },
        {
          "internalType": "uint8",
          "name": "id",
          "type": "uint8"
        },
        {
          "internalType": "string",
          "name": "info",
          "type": "string"
        }
      ],
      "stateMutability": "view",
      "type": "function"
    },
    {
      "inputs": [
        {
          "internalType": "uint256",
          "name": "",
          "type": "uint256"
        }
      ],
      "name": "multiSigId",
      "outputs": [
        {
          "internalType": "bytes32",
          "name": "",
          "type": "bytes32"
        }
      ],
      "stateMutability": "view",
      "type": "function"
    },
    {
      "inputs": [
        {
          "internalType": "uint256",
          "name": "_id",
          "type": "uint256"
        },
        {
          "internalType": "bool",
          "name": "_approve",
          "type": "bool"
        }
      ],
      "name": "removeStudentById",
      "outputs": [],
      "stateMutability": "nonpayable",
      "type": "function"
    },
    {
      "inputs": [
        {
          "internalType": "bytes32",
          "name": "",
          "type": "bytes32"
        },
        {
          "internalType": "address",
          "name": "",
          "type": "address"
        }
      ],
      "name": "renounceRole",
      "outputs": [],
      "stateMutability": "nonpayable",
      "type": "function"
    },
    {
      "inputs": [
        {
          "internalType": "bytes32",
          "name": "roleHash",
          "type": "bytes32"
        },
        {
          "internalType": "address",
          "name": "target",
          "type": "address"
        },
        {
          "internalType": "bool",
          "name": "approve",
          "type": "bool"
        }
      ],
      "name": "revokeAnyRole",
      "outputs": [],
      "stateMutability": "nonpayable",
      "type": "function"
    },
    {
      "inputs": [
        {
          "internalType": "bytes32",
          "name": "role",
          "type": "bytes32"
        },
        {
          "internalType": "address",
          "name": "account",
          "type": "address"
        }
      ],
      "name": "revokeRole",
      "outputs": [],
      "stateMutability": "nonpayable",
      "type": "function"
    },
    {
      "inputs": [
        {
          "internalType": "uint256",
          "name": "",
          "type": "uint256"
        }
      ],
      "name": "students",
      "outputs": [
        {
          "internalType": "uint256",
          "name": "id",
          "type": "uint256"
        },
        {
          "internalType": "string",
          "name": "firstname",
          "type": "string"
        },
        {
          "internalType": "string",
          "name": "lastname",
          "type": "string"
        },
        {
          "internalType": "uint256",
          "name": "birthdate",
          "type": "uint256"
        }
      ],
      "stateMutability": "view",
      "type": "function"
    },
    {
      "inputs": [
        {
          "internalType": "uint256",
          "name": "",
          "type": "uint256"
        }
      ],
      "name": "studentsIds",
      "outputs": [
        {
          "internalType": "uint256",
          "name": "",
          "type": "uint256"
        }
      ],
      "stateMutability": "view",
      "type": "function"
    },
    {
      "inputs": [
        {
          "internalType": "bytes4",
          "name": "interfaceId",
          "type": "bytes4"
        }
      ],
      "name": "supportsInterface",
      "outputs": [
        {
          "internalType": "bool",
          "name": "",
          "type": "bool"
        }
      ],
      "stateMutability": "view",
      "type": "function"
    }
  ],
  "bytecode": "0x60806040523480156200001157600080fd5b5060405162004937380380620049378339810160408190526200003491620005de565b6001600160a01b0382166200009c5760405162461bcd60e51b8152602060048201526024808201527f4365727469666965722061646d696e3120616464726573732063616e6e6f74206044820152630626520360e41b60648201526084015b60405180910390fd5b6001600160a01b038116620001005760405162461bcd60e51b8152602060048201526024808201527f4365727469666965722061646d696e3220616464726573732063616e6e6f74206044820152630626520360e41b606482015260840162000093565b806001600160a01b0316826001600160a01b031603620001725760405162461bcd60e51b815260206004820152602660248201527f436572746966696572206164647265737365732063616e6e6f74206265207468604482015265652073616d6560d01b606482015260840162000093565b6200018d600080516020620048f78339815191528362000511565b620001a8600080516020620048f78339815191528262000521565b6040805160e0810182526002808252602080830191909152600f828401526050606083018190526080830152600080516020620048f783398151915260a08301529151909160c08301916200021391016e21a2a92a24a324a2a92fa0a226a4a760891b8152600f0190565b6040516020818303038152906040526200022d9062000616565b9052600080516020620048f783398151915260009081526003602090815282517f996892c26f58715b0987b59a23f94e8ef0c02cd4cae9fdbc7a2316b6cd446de080549285015160408601516060870151608088015160ff908116600160681b0260ff60681b19919092166c010000000000000000000000000260ff60601b1963ffffffff94851668010000000000000000021664ffffffffff60401b19958516640100000000026001600160401b03199099169490971693909317969096179290921693909317929092179290921617905560a08201517f996892c26f58715b0987b59a23f94e8ef0c02cd4cae9fdbc7a2316b6cd446de15560c0909101517f996892c26f58715b0987b59a23f94e8ef0c02cd4cae9fdbc7a2316b6cd446de2556200036b90600080516020620049178339815191529062000511565b6040805160e0810182526000808252602080830191909152600f828401526050606083018190526080830152600080516020620048f783398151915260a08301529151909160c0830191620003d091016821a2a92a24a324a2a960b91b815260090190565b604051602081830303815290604052620003ea9062000616565b9052600080516020620049178339815191526000526003602090815281517f04ed60087a82bd97d8afa881e356d9b31a57e1f4fa6c3493c1181428b0c3356280549284015160408501516060860151608087015160ff908116600160681b0260ff60681b19919092166c010000000000000000000000000260ff60601b1963ffffffff94851668010000000000000000021664ffffffffff60401b19958516640100000000026001600160401b03199099169490971693909317969096179290921693909317929092179290921617905560a08101517f04ed60087a82bd97d8afa881e356d9b31a57e1f4fa6c3493c1181428b0c335635560c001517f04ed60087a82bd97d8afa881e356d9b31a57e1f4fa6c3493c1181428b0c3356455506200063e9050565b6200051d828262000521565b5050565b6000828152602081815260408083206001600160a01b038516845290915290205460ff166200051d576000828152602081815260408083206001600160a01b03851684529091529020805460ff191660011790556200057d3390565b6001600160a01b0316816001600160a01b0316837f2f8788117e7eff1d82e926ec794901d17c78024a50270940304540a733656f0d60405160405180910390a45050565b80516001600160a01b0381168114620005d957600080fd5b919050565b60008060408385031215620005f257600080fd5b620005fd83620005c1565b91506200060d60208401620005c1565b90509250929050565b8051602080830151919081101562000638576000198160200360031b1b821691505b50919050565b6142a9806200064e6000396000f3fe608060405234801561001057600080fd5b50600436106102275760003560e01c8063742f068811610130578063ace81910116100b8578063d3243ad81161007c578063d3243ad8146104cf578063d547741f146104e2578063df3a12dd146104f5578063e05f2fb414610508578063e5a357f51461052f57600080fd5b8063ace8191014610481578063b86bc74f14610494578063bf802091146104a9578063c9dbcfda146104bc578063d0fb68c71461028c57600080fd5b806391d14854116100ff57806391d14854146104335780639dd09a73146104465780639e3399091461035c578063a1cebf5214610466578063a217fddf1461047957600080fd5b8063742f06881461039f5780637cd29fb71461028c5780638856a0e9146103fd5780638e82d0e71461041057600080fd5b80632f2ff15d116101b35780634da11a20116101825780634da11a201461028c5780635907ebea1461035c578063642f9163146103645780636bc6421b14610384578063719129be1461038c57600080fd5b80632f2ff15d1461031b57806333b72e491461032e57806336568abe146103365780634cce913b1461034957600080fd5b806312ac167c116101fa57806312ac167c146102a65780631a968069146102c65780631a9cfe281461028c578063248a9ca3146102ea5780632cd94e4f1461028c57600080fd5b806301ffc9a71461022c57806305f84d451461025457806306ead22e146102695780630f68794a1461028c575b600080fd5b61023f61023a36600461337d565b61054f565b60405190151581526020015b60405180910390f35b6102676102623660046133bc565b610586565b005b61027c6102773660046133e8565b610818565b60405161024b9493929190613451565b610294605081565b60405160ff909116815260200161024b565b6102b96102b43660046134a5565b610950565b60405161024b91906134c0565b6102d96102d43660046133e8565b610b3b565b60405161024b9594939291906134d3565b61030d6102f83660046133e8565b60009081526020819052604090206001015490565b60405190815260200161024b565b610267610329366004613511565b610bfd565b610294600281565b610267610344366004613511565b610c22565b61030d610357366004613534565b610c89565b610294600f81565b6103776103723660046133e8565b610cba565b60405161024b9190613556565b610294603381565b61026761039a3660046135b0565b610e90565b6103eb6103ad3660046133e8565b600760205260009081526040902080546001820154600283015460039093015460ff8084169461010085048216946201000090048216939291169086565b60405161024b96959493929190613636565b61026761040b36600461367b565b61120d565b61042361041e3660046134a5565b6116f5565b60405161024b9493929190613758565b61023f610441366004613511565b6119fa565b61030d6104543660046133e8565b60056020526000908152604090205481565b6102676104743660046138bc565b611a23565b61030d600081565b61026761048f36600461367b565b611bd7565b61030d60008051602061425483398151915281565b61030d6104b7366004613534565b61206a565b6102676104ca3660046138bc565b6120a3565b6102676104dd3660046135b0565b612130565b6102676104f0366004613511565b61260f565b61030d6105033660046133e8565b612634565b61030d7f4bbeb6fd3e5222e55f2f8b0c35bc228e0a06a25d0da772fdb02c3b92fa004f8881565b61054261053d3660046133e8565b612655565b60405161024b9190613931565b60006001600160e01b03198216637965db0b60e01b148061058057506301ffc9a760e01b6001600160e01b03198316145b92915050565b61059e600080516020614254833981519152336119fa565b6105c35760405162461bcd60e51b81526004016105ba90613944565b60405180910390fd5b600082116105e35760405162461bcd60e51b81526004016105ba9061397b565b60008281526001602052604081205490036106105760405162461bcd60e51b81526004016105ba906139b2565b60008260405160200161063c9181526d1111531155114814d5155111539560921b6020820152602e0190565b6040516020818303038152906040528051906020012090506106ab816000805160206142548339815191528560405160200161067a91815260200190565b60408051601f1981840301815290829052610697916020016139e9565b6040516020818303038152906040526126e4565b8180156106d55750600081815260046020908152604080832033845260030190915290205460ff16155b156107185760008181526004602052604090206106f29033612765565b6040518181526000805160206142148339815191529060200160405180910390a161075c565b81151560000361075c57600081815260046020526040902061073a9033612892565b6040518181526000805160206142148339815191529060200160405180910390a15b60008051602061425483398151915260005260036020527f04ed60087a82bd97d8afa881e356d9b31a57e1f4fa6c3493c1181428b0c33562546107b8906107ab9060509063ffffffff16613a36565b63ffffffff16606461206a565b60008281526004602052604090206002015460ff16106108135760008181526004602052604090206107e99061294a565b6040518181526000805160206142348339815191529060200160405180910390a1610813836129bb565b505050565b60016020819052600091825260409091208054918101805461083990613a5e565b80601f016020809104026020016040519081016040528092919081815260200182805461086590613a5e565b80156108b25780601f10610887576101008083540402835291602001916108b2565b820191906000526020600020905b81548152906001019060200180831161089557829003601f168201915b5050505050908060020180546108c790613a5e565b80601f01602080910402602001604051908101604052809291908181526020018280546108f390613a5e565b80156109405780601f1061091557610100808354040283529160200191610940565b820191906000526020600020905b81548152906001019060200180831161092357829003601f168201915b5050505050908060030154905084565b604080518082018252601081526f181899199a1a9b1b9c1cb0b131b232b360811b60208201528151602a80825260608281019094526001600160a01b0385169291600091602082018180368337019050509050600360fc1b816000815181106109bb576109bb613a98565b60200101906001600160f81b031916908160001a905350600f60fb1b816001815181106109ea576109ea613a98565b60200101906001600160f81b031916908160001a90535060005b6014811015610b325782600485610a1c84600c613aae565b60208110610a2c57610a2c613a98565b1a60f81b6001600160f81b031916901c60f81c60ff1681518110610a5257610a52613a98565b01602001516001600160f81b03191682610a6d836002613ac1565b610a78906002613aae565b81518110610a8857610a88613a98565b60200101906001600160f81b031916908160001a9053508284610aac83600c613aae565b60208110610abc57610abc613a98565b825191901a600f16908110610ad357610ad3613a98565b01602001516001600160f81b03191682610aee836002613ac1565b610af9906003613aae565b81518110610b0957610b09613a98565b60200101906001600160f81b031916908160001a90535080610b2a81613ad8565b915050610a04565b50949350505050565b600460205260009081526040902080546001820154600283015460058401805460ff9485169593948381169461010090940416929190610b7a90613a5e565b80601f0160208091040260200160405190810160405280929190818152602001828054610ba690613a5e565b8015610bf35780601f10610bc857610100808354040283529160200191610bf3565b820191906000526020600020905b815481529060010190602001808311610bd657829003601f168201915b5050505050905085565b600082815260208190526040902060010154610c1881612a94565b6108138383612aa1565b60405162461bcd60e51b815260206004820152603660248201527f596f752063616e27742072656e6f756e636520746f20796f757220726f6c652e60448201527520506c6561736520636f6e746163742061646d696e7360501b60648201526084016105ba565b60086020528160005260406000208181548110610ca557600080fd5b90600052602060002001600091509150505481565b610ce56040518060800160405280600081526020016060815260200160608152602001600081525090565b6000828152600160205260408120549003610d3a5760405162461bcd60e51b815260206004820152601560248201527414dd1d59195b9d08191bd95cdb89dd08195e1a5cdd605a1b60448201526064016105ba565b60008281526001602081815260409283902083516080810190945280548452918201805491840191610d6b90613a5e565b80601f0160208091040260200160405190810160405280929190818152602001828054610d9790613a5e565b8015610de45780601f10610db957610100808354040283529160200191610de4565b820191906000526020600020905b815481529060010190602001808311610dc757829003601f168201915b50505050508152602001600282018054610dfd90613a5e565b80601f0160208091040260200160405190810160405280929190818152602001828054610e2990613a5e565b8015610e765780601f10610e4b57610100808354040283529160200191610e76565b820191906000526020600020905b815481529060010190602001808311610e5957829003601f168201915b505050505081526020016003820154815250509050919050565b60008381526003602090815260409182902080546002820154845193840152909263ffffffff808316680100000000000000009093041691909111910160408051601f1981840301815290829052610eea91602001613af1565b60405160208183030381529060405290610f175760405162461bcd60e51b81526004016105ba91906134c0565b50610f268160010154336119fa565b8160020154604051602001610f3d91815260200190565b60408051601f1981840301815290829052610f5a91602001613b2f565b60405160208183030381529060405290610f875760405162461bcd60e51b81526004016105ba91906134c0565b50610f9284846119fa565b60028201546040805160208101929092529115910160408051601f1981840301815290829052610fc491602001613b77565b60405160208183030381529060405290610ff15760405162461bcd60e51b81526004016105ba91906134c0565b506040516bffffffffffffffffffffffff19606085901b1660208201526411d490539560da1b60348201526039810185905260009060590160405160208183030381529060405280519060200120905061108a818360010154846002015460405160200161106191815260200190565b60405160208183030381529060405261107988610950565b604051602001610697929190613bbc565b8280156110b45750600081815260046020908152604080832033845260030190915290205460ff16155b156110f75760008181526004602052604090206110d19033612765565b6040518181526000805160206142148339815191529060200160405180910390a161113b565b82151560000361113b5760008181526004602052604090206111199033612892565b6040518181526000805160206142148339815191529060200160405180910390a15b81546001830154600090815260036020526040902054611170916107ab91600160601b90910460ff169063ffffffff16613a36565b60008281526004602052604090206002015460ff16106112065760008181526004602052604090206111a19061294a565b6040518181526000805160206142348339815191529060200160405180910390a16111cc8585612aa1565b815460019083906000906111e790849063ffffffff16613c0a565b92506101000a81548163ffffffff021916908363ffffffff1602179055505b5050505050565b611225600080516020614254833981519152336119fa565b6112415760405162461bcd60e51b81526004016105ba90613944565b600085815260016020526040812054900361126e5760405162461bcd60e51b81526004016105ba906139b2565b6000846003811115611282576112826135ec565b101580156112a25750600384600381111561129f5761129f6135ec565b11155b6112ea5760405162461bcd60e51b8152602060048201526019602482015278105c1c1c9958da585d1a5bdb881a5cc81b9bdd081d985b1a59603a1b60448201526064016105ba565b60008360028111156112fe576112fe6135ec565b1015801561131e5750600283600281111561131b5761131b6135ec565b11155b6113605760405162461bcd60e51b8152602060048201526013602482015272111959dc9959481a5cc81b9bdd081d985b1a59606a1b60448201526064016105ba565b600082600f811115611374576113746135ec565b101580156113945750600f82600f811115611391576113916135ec565b11155b6113d75760405162461bcd60e51b8152602060048201526014602482015273141c9bd9dc985b481a5cc81b9bdd081d985b1a5960621b60448201526064016105ba565b60076000868686866040516020016113f29493929190613c65565b60408051601f198184030181529181528151602092830120835290820192909252016000206002015460ff16151560011461146f5760405162461bcd60e51b815260206004820152601e60248201527f5468697320636572746966696361746520646f65736e2774206578697374000060448201526064016105ba565b6000858585856040516020016114889493929190613c9a565b60405160208183030381529060405280519060200120905061154681600080516020614254833981519152886040516020016114c691815260200190565b604051602081830303815290604052886040516020016114e69190613cde565b604051602081830303815290604052886040516020016115069190613cf0565b604051602081830303815290604052886040516020016115269190613cfa565b60408051601f198184030181529082905261069794939291602001613d04565b8180156115705750600081815260046020908152604080832033845260030190915290205460ff16155b156115b357600081815260046020526040902061158d9033612765565b6040518181526000805160206142148339815191529060200160405180910390a16115f7565b8115156000036115f75760008181526004602052604090206115d59033612892565b6040518181526000805160206142148339815191529060200160405180910390a15b60008051602061425483398151915260005260036020527f04ed60087a82bd97d8afa881e356d9b31a57e1f4fa6c3493c1181428b0c3356254611646906107ab9060509063ffffffff16613a36565b60008281526004602052604090206002015460ff16106116ed5760008181526004602052604090206116779061294a565b6040518181526000805160206142348339815191529060200160405180910390a1600060076000888888886040516020016116b59493929190613c65565b60408051808303601f19018152918152815160209283012083529082019290925201600020600201805460ff19169115159190911790555b505050505050565b606080606080600060065467ffffffffffffffff81111561171857611718613819565b60405190808252806020026020018201604052801561174b57816020015b60608152602001906001900390816117365790505b509050600060065467ffffffffffffffff81111561176b5761176b613819565b604051908082528060200260200182016040528015611794578160200160208202803683370190505b509050600060065467ffffffffffffffff8111156117b4576117b4613819565b6040519080825280602002602001820160405280156117dd578160200160208202803683370190505b509050600060065467ffffffffffffffff8111156117fd576117fd613819565b604051908082528060200260200182016040528015611826578160200160208202803683370190505b50905060005b6006548110156119e9576000818152600560208181526040808420548452600490915290912001805461185e90613a5e565b80601f016020809104026020016040519081016040528092919081815260200182805461188a90613a5e565b80156118d75780601f106118ac576101008083540402835291602001916118d7565b820191906000526020600020905b8154815290600101906020018083116118ba57829003601f168201915b50505050508582815181106118ee576118ee613a98565b602090810291909101810191909152600082815260058252604080822054825260049092522060020154845160ff9091169085908390811061193257611932613a98565b60ff909216602092830291909101820152600082815260058252604080822054825260049092522060010154835184908390811061197257611972613a98565b6020908102919091018101919091526000828152600582526040808220548252600483528082206001600160a01b038e1683526003019092522054825160ff909116908390839081106119c7576119c7613a98565b91151560209283029190910190910152806119e181613ad8565b91505061182c565b509098919750919550909350915050565b6000918252602082815260408084206001600160a01b0393909316845291905290205460ff1690565b611a3b600080516020614254833981519152336119fa565b611a575760405162461bcd60e51b81526004016105ba90613944565b60008411611a775760405162461bcd60e51b81526004016105ba9061397b565b6000835111611ac85760405162461bcd60e51b815260206004820152601960248201527f46697273746e616d652063616e6e6f7420626520656d7074790000000000000060448201526064016105ba565b6000825111611b195760405162461bcd60e51b815260206004820152601860248201527f4c6173746e616d652063616e6e6f7420626520656d707479000000000000000060448201526064016105ba565b60008111611b695760405162461bcd60e51b815260206004820181905260248201527f426972746864617465206d7573742062652067726561746572207468616e203060448201526064016105ba565b60008481526001602052604090205415611bc55760405162461bcd60e51b815260206004820152601b60248201527f546869732073747564656e7420616c726561647920657869737473000000000060448201526064016105ba565b611bd184848484612b25565b50505050565b611bef600080516020614254833981519152336119fa565b611c0b5760405162461bcd60e51b81526004016105ba90613944565b6000858152600160205260408120549003611c385760405162461bcd60e51b81526004016105ba906139b2565b6000846003811115611c4c57611c4c6135ec565b10158015611c6c57506003846003811115611c6957611c696135ec565b11155b611cb45760405162461bcd60e51b8152602060048201526019602482015278105c1c1c9958da585d1a5bdb881a5cc81b9bdd081d985b1a59603a1b60448201526064016105ba565b6000836002811115611cc857611cc86135ec565b10158015611ce857506002836002811115611ce557611ce56135ec565b11155b611d2a5760405162461bcd60e51b8152602060048201526013602482015272111959dc9959481a5cc81b9bdd081d985b1a59606a1b60448201526064016105ba565b600082600f811115611d3e57611d3e6135ec565b10158015611d5e5750600f82600f811115611d5b57611d5b6135ec565b11155b611da15760405162461bcd60e51b8152602060048201526014602482015273141c9bd9dc985b481a5cc81b9bdd081d985b1a5960621b60448201526064016105ba565b6007600086868686604051602001611dbc9493929190613c65565b60408051601f198184030181529181528151602092830120835290820192909252016000206002015460ff1615611e355760405162461bcd60e51b815260206004820152601f60248201527f5468697320636572746966696361746520616c7265616479206578697374730060448201526064016105ba565b600085858585604051602001611e4e9493929190613d8f565b604051602081830303815290604052805190602001209050611f0c8160008051602061425483398151915288604051602001611e8c91815260200190565b60405160208183030381529060405288604051602001611eac9190613cde565b60405160208183030381529060405288604051602001611ecc9190613cf0565b60405160208183030381529060405288604051602001611eec9190613cfa565b60408051601f198184030181529082905261069794939291602001613dd4565b818015611f365750600081815260046020908152604080832033845260030190915290205460ff16155b15611f79576000818152600460205260409020611f539033612765565b6040518181526000805160206142148339815191529060200160405180910390a1611fbd565b811515600003611fbd576000818152600460205260409020611f9b9033612892565b6040518181526000805160206142148339815191529060200160405180910390a15b60008051602061425483398151915260005260036020527f04ed60087a82bd97d8afa881e356d9b31a57e1f4fa6c3493c1181428b0c335625461200c906107ab9060339063ffffffff16613a36565b60008281526004602052604090206002015460ff16106116ed57600081815260046020526040902061203d9061294a565b6040518181526000805160206142348339815191529060200160405180910390a16116ed86868686612c9e565b60006120768284613e76565b60000361208e576120878284613e8a565b9050610580565b6120988284613e8a565b612087906001613aae565b6120bb600080516020614254833981519152336119fa565b6120d75760405162461bcd60e51b81526004016105ba90613944565b600084116120f75760405162461bcd60e51b81526004016105ba9061397b565b60008481526001602052604081205490036121245760405162461bcd60e51b81526004016105ba906139b2565b611bd184848484612e6c565b60008381526003602090815260409182902080546002820154845193840152909263ffffffff64010000000083048116921691909111910160408051601f198184030181529082905261218591602001613e9e565b604051602081830303815290604052906121b25760405162461bcd60e51b81526004016105ba91906134c0565b506121bd84846119fa565b81600201546040516020016121d491815260200190565b60408051601f19818403018152908290526121f191602001613ebd565b6040516020818303038152906040529061221e5760405162461bcd60e51b81526004016105ba91906134c0565b5061222d8160010154336119fa565b816002015460405160200161224491815260200190565b60408051601f198184030181529082905261226191602001613b2f565b6040516020818303038152906040529061228e5760405162461bcd60e51b81526004016105ba91906134c0565b506040516bffffffffffffffffffffffff19606085901b166020820152655245564f4b4560d01b6034820152603a8101859052600090605a0160405160208183030381529060405280519060200120905061232881836001015484600201546040516020016122ff91815260200190565b60405160208183030381529060405261231788610950565b604051602001610697929190613efb565b8280156123525750600081815260046020908152604080832033845260030190915290205460ff16155b1561239557600081815260046020526040902061236f9033612765565b6040518181526000805160206142148339815191529060200160405180910390a16123d9565b8215156000036123d95760008181526004602052604090206123b79033612892565b6040518181526000805160206142148339815191529060200160405180910390a15b8160010154851415801561243557508154600183015460009081526003602052604090205461241d916107ab91600160681b90910460ff169063ffffffff16613a36565b60008281526004602052604090206002015460ff1610155b806124a057508160010154851480156124a05750815460018084015460009081526003602052604090205461248892600160681b900460ff169161247e9163ffffffff16613f4a565b6107ab9190613a36565b60008281526004602052604090206002015460ff1610155b156112065760005b6006548110156125b1576000818152600560209081526040808320548352600482528083206001600160a01b038916845260030190915290205460ff161515600114801561251357506000818152600560209081526040808320548352600490915290206001015486145b1561259f5760008181526005602090815260408083205483526004909152812060020180546001929061254a90849060ff16613f67565b825460ff9182166101009390930a9283029190920219909116179055506000818152600560209081526040808320548352600482528083206001600160a01b03891684526003019091529020805460ff191690555b806125a981613ad8565b9150506124a8565b5060008181526004602052604090206125c99061294a565b6040518181526000805160206142348339815191529060200160405180910390a16125f485856130bc565b815460019083906000906111e790849063ffffffff16613f4a565b60008281526020819052604090206001015461262a81612a94565b61081383836130bc565b6002818154811061264457600080fd5b600091825260209091200154905081565b600081815260016020526040812054606091036126845760405162461bcd60e51b81526004016105ba906139b2565b600082815260086020908152604091829020805483518184028101840190945280845290918301828280156126d857602002820191906000526020600020905b8154815260200190600101908083116126c4575b50505050509050919050565b60008381526004602052604081205460ff1615159003610813576000838152600460209081526040808320805460ff191660019081179091556006805485526005909352908320869055815490929061273e908490613aae565b9091555050600083815260046020526040902060018101839055600501611bd18282613fc6565b6001600160a01b038116600090815260038301602052604090205460ff16156127d05760405162461bcd60e51b815260206004820181905260248201527f596f7520616c7265616479207369676e65642074686973206d756c746973696760448201526064016105ba565b6002820180546101009081900460ff9081166000908152600486016020526040902080546001600160a01b0319166001600160a01b0386161790558254919091041690600161281e83614086565b82546101009290920a60ff8181021990931691831602179091556001600160a01b03831660009081526003850160205260408120805460ff1916600190811790915560028601805491945092612876918591166140a5565b92506101000a81548160ff021916908360ff1602179055505050565b6001600160a01b038116600090815260038301602052604090205460ff1615156001146129105760405162461bcd60e51b815260206004820152602660248201527f596f752068617665206e6f7465207369676e65642074686973206d756c7469736044820152651a59c81e595d60d21b60648201526084016105ba565b6001600160a01b03811660009081526003830160205260408120805460ff191690556002830180546001929061287690849060ff16613f67565b60028101805460ff1916905560005b600282015460ff610100909104811690821610156129b75760ff811660009081526004830160209081526040808320546001600160a01b03168352600385019091529020805460ff19169055806129af81614086565b915050612959565b5050565b6000818152600160208190526040822082815591906129dc9083018261332f565b6129ea60028301600061332f565b6003820160009055505060005b600254811015612a5d578160028281548110612a1557612a15613a98565b906000526020600020015403612a4b57600060028281548110612a3a57612a3a613a98565b600091825260209091200155612a5d565b80612a5581613ad8565b9150506129f7565b506040518181527f34de6b871245ed0a89b82912e8e5ee6d9c3104b3e5bb1d67a71ad7e68239e41c9060200160405180910390a150565b612a9e8133613121565b50565b612aab82826119fa565b6129b7576000828152602081815260408083206001600160a01b03851684529091529020805460ff19166001179055612ae13390565b6001600160a01b0316816001600160a01b0316837f2f8788117e7eff1d82e926ec794901d17c78024a50270940304540a733656f0d60405160405180910390a45050565b60008481526001602052604090205415612b7a5760405162461bcd60e51b815260206004820152601660248201527553747564656e7420616c72656164792065786973747360501b60448201526064016105ba565b83600003612bba5760405162461bcd60e51b815260206004820152600d60248201526c049642063616e2774206265203609c1b60448201526064016105ba565b6040805160808101825285815260208082018681528284018690526060830185905260008881526001928390529390932082518155925191929190820190612c029082613fc6565b5060408201516002820190612c179082613fc6565b5060609190910151600390910155600280546001810182556000919091527f405787fa12a823e0f2b7631cc41b3ba8828b3321ca811111fa75cd3aa3bb5ace018490556040517fb6767d1c89515962142b00b5577569c92a74381d9441a528911c66e0c3cea1f890612c90908690869086908690613451565b60405180910390a150505050565b6040518060c00160405280846003811115612cbb57612cbb6135ec565b8152602001836002811115612cd257612cd26135ec565b815260200182600f811115612ce957612ce96135ec565b8152602001428152602001600115158152602001858152506007600086868686604051602001612d1c9493929190613c65565b60408051601f1981840301815291815281516020928301208352908201929092520160002081518154829060ff19166001836003811115612d5f57612d5f6135ec565b021790555060208201518154829061ff001916610100836002811115612d8757612d876135ec565b021790555060408201518154829062ff000019166201000083600f811115612db157612db16135ec565b021790555060608201516001820155608082015160028201805460ff191691151591909117905560a0909101516003909101556000848152600860209081526040918290209151612e0a91879187918791879101613c65565b60408051601f19818403018152908290528051602091820120835460018101855560009485529190932001919091557fb55811dd01470a227956304b027c610c7cdf9dd622dcc47791380261d56dc6ed90612c909086908690869086906140be565b6000848152600160205260408120549003612ec25760405162461bcd60e51b815260206004820152601660248201527514dd1d59195b9d08191bd95cc81b9bdd08195e1a5cdd60521b60448201526064016105ba565b60016000858152602001908152602001600020600101604051602001612ee891906140f5565b6040516020818303038152906040528051906020012083604051602001612f0f919061416b565b6040516020818303038152906040528051906020012014158015612f6757506040805160008152602081018083528151902091612f4e9186910161416b565b6040516020818303038152906040528051906020012014155b15612f8a57600084815260016020819052604090912001612f888482613fc6565b505b6000848152600160209081526040918290209151612fac9260020191016140f5565b6040516020818303038152906040528051906020012082604051602001612fd3919061416b565b604051602081830303815290604052805190602001201415801561302b575060408051600081526020810180835281519020916130129185910161416b565b6040516020818303038152906040528051906020012014155b1561304d57600084815260016020526040902060020161304b8382613fc6565b505b600084815260016020526040902060030154811480159061306d57508015155b156130875760008481526001602052604090206003018190555b7f03e10a3f40e9af2a5e61cb5a3de55fd67286470c35b3cf345b04a83cf3f4907784848484604051612c909493929190613451565b6130c682826119fa565b156129b7576000828152602081815260408083206001600160a01b0385168085529252808320805460ff1916905551339285917ff6391f5c32d9c69d2a47ea670b442974b53935d1edc7fd64eb21e047a839171b9190a45050565b61312b82826119fa565b6129b7576131388161317a565b61314383602061318c565b604051602001613154929190614187565b60408051601f198184030181529082905262461bcd60e51b82526105ba916004016134c0565b60606105806001600160a01b03831660145b6060600061319b836002613ac1565b6131a6906002613aae565b67ffffffffffffffff8111156131be576131be613819565b6040519080825280601f01601f1916602001820160405280156131e8576020820181803683370190505b509050600360fc1b8160008151811061320357613203613a98565b60200101906001600160f81b031916908160001a905350600f60fb1b8160018151811061323257613232613a98565b60200101906001600160f81b031916908160001a9053506000613256846002613ac1565b613261906001613aae565b90505b60018111156132d9576f181899199a1a9b1b9c1cb0b131b232b360811b85600f166010811061329557613295613a98565b1a60f81b8282815181106132ab576132ab613a98565b60200101906001600160f81b031916908160001a90535060049490941c936132d2816141fc565b9050613264565b5083156133285760405162461bcd60e51b815260206004820181905260248201527f537472696e67733a20686578206c656e67746820696e73756666696369656e7460448201526064016105ba565b9392505050565b50805461333b90613a5e565b6000825580601f1061334b575050565b601f016020900490600052602060002090810190612a9e91905b808211156133795760008155600101613365565b5090565b60006020828403121561338f57600080fd5b81356001600160e01b03198116811461332857600080fd5b803580151581146133b757600080fd5b919050565b600080604083850312156133cf57600080fd5b823591506133df602084016133a7565b90509250929050565b6000602082840312156133fa57600080fd5b5035919050565b60005b8381101561341c578181015183820152602001613404565b50506000910152565b6000815180845261343d816020860160208601613401565b601f01601f19169290920160200192915050565b84815260806020820152600061346a6080830186613425565b828103604084015261347c8186613425565b91505082606083015295945050505050565b80356001600160a01b03811681146133b757600080fd5b6000602082840312156134b757600080fd5b6133288261348e565b6020815260006133286020830184613425565b851515815284602082015260ff8416604082015260ff8316606082015260a06080820152600061350660a0830184613425565b979650505050505050565b6000806040838503121561352457600080fd5b823591506133df6020840161348e565b6000806040838503121561354757600080fd5b50508035926020909101359150565b6020815281516020820152600060208301516080604084015261357c60a0840182613425565b90506040840151601f198483030160608501526135998282613425565b915050606084015160808401528091505092915050565b6000806000606084860312156135c557600080fd5b833592506135d56020850161348e565b91506135e3604085016133a7565b90509250925092565b634e487b7160e01b600052602160045260246000fd5b60048110613612576136126135ec565b9052565b60038110613612576136126135ec565b60108110613612576136126135ec565b60c081016136448289613602565b6136516020830188613616565b61365e6040830187613626565b6060820194909452911515608083015260a0909101529392505050565b600080600080600060a0868803121561369357600080fd5b853594506020860135600481106136a957600080fd5b93506040860135600381106136bd57600080fd5b92506060860135601081106136d157600080fd5b91506136df608087016133a7565b90509295509295909350565b600081518084526020808501945080840160005b8381101561371b578151875295820195908201906001016136ff565b509495945050505050565b600081518084526020808501945080840160005b8381101561371b57815115158752958201959082019060010161373a565b60808152600061376b60808301876136eb565b82810360208481019190915286518083528782019282019060005b818110156137a557845160ff1683529383019391830191600101613786565b5050848103604086015286518082528282019350600581901b8201830183890160005b838110156137f657601f198584030187526137e4838351613425565b968601969250908501906001016137c8565b5050868103606088015261380a8189613726565b9b9a5050505050505050505050565b634e487b7160e01b600052604160045260246000fd5b600082601f83011261384057600080fd5b813567ffffffffffffffff8082111561385b5761385b613819565b604051601f8301601f19908116603f0116810190828211818310171561388357613883613819565b8160405283815286602085880101111561389c57600080fd5b836020870160208301376000602085830101528094505050505092915050565b600080600080608085870312156138d257600080fd5b84359350602085013567ffffffffffffffff808211156138f157600080fd5b6138fd8883890161382f565b9450604087013591508082111561391357600080fd5b506139208782880161382f565b949793965093946060013593505050565b60208152600061332860208301846136eb565b60208082526019908201527f43616c6c6572206973206e6f7420612063657274696669657200000000000000604082015260600190565b60208082526019908201527f4964206d7573742062652067726561746572207468616e203000000000000000604082015260600190565b6020808252601a908201527f546869732073747564656e7420646f65736e2774206578697374000000000000604082015260600190565b6e02232b632ba329039ba3ab232b73a1608d1b815260008251613a1381600f850160208701613401565b91909101600f0192915050565b634e487b7160e01b600052601160045260246000fd5b63ffffffff818116838216028082169190828114613a5657613a56613a20565b505092915050565b600181811c90821680613a7257607f821691505b602082108103613a9257634e487b7160e01b600052602260045260246000fd5b50919050565b634e487b7160e01b600052603260045260246000fd5b8082018082111561058057610580613a20565b808202811582820484141761058057610580613a20565b600060018201613aea57613aea613a20565b5060010190565b63026b0bc160e51b815260008251613b10816004850160208701613401565b67081c995858da195960c21b6004939091019283015250600c01919050565b6f021b0b63632b91034b9903737ba1030960851b815260008251613b5a816010850160208701613401565b651030b236b4b760d11b6010939091019283015250601601919050565b7f54686973206164647265737320697320616c7265616479206120000000000000815260008251613baf81601a850160208701613401565b91909101601a0192915050565b65023b930b73a160d51b815260008351613bdd816006850160208801613401565b600160fd1b6006918401918201528351613bfe816007840160208801613401565b01600701949350505050565b63ffffffff818116838216019080821115613c2757613c27613a20565b5092915050565b60048110613c3e57613c3e6135ec565b60f81b9052565b60038110613c3e57613c3e6135ec565b60108110613c3e57613c3e6135ec565b848152613c756020820185613c2e565b613c826021820184613c45565b613c8f6022820183613c55565b602301949350505050565b848152613caa6020820185613c2e565b613cb76021820184613c45565b613cc46022820183613c55565b6544454c45544560d01b6023820152602901949350505050565b613ce88183613c2e565b600101919050565b613ce88183613c45565b613ce88183613c55565b6602232b632ba32960cd1b815260008551613d26816007850160208a01613401565b8083019050600160fd1b8060078301528651613d49816008850160208b01613401565b600892019182018190528551613d66816009850160208a01613401565b60099201918201528351613d8181600a840160208801613401565b01600a019695505050505050565b848152613d9f6020820185613c2e565b613dac6021820184613c45565b613db96022820183613c55565b664345525449465960c81b6023820152602a01949350505050565b67021b2b93a34b33c960c51b815260008551613df7816008850160208a01613401565b8083019050600160fd1b8060088301528651613e1a816009850160208b01613401565b600992019182018190528551613e3781600a850160208a01613401565b600a9201918201528351613e5281600b840160208801613401565b01600b019695505050505050565b634e487b7160e01b600052601260045260246000fd5b600082613e8557613e85613e60565b500690565b600082613e9957613e99613e60565b500490565b63026b4b7160e51b815260008251613b10816004850160208701613401565b7502a3434b99030b2323932b9b99034b9903737ba1030960551b815260008251613eee816016850160208701613401565b9190910160160192915050565b6602932bb37b5b2960cd1b815260008351613f1d816007850160208801613401565b600160fd1b6007918401918201528351613f3e816008840160208801613401565b01600801949350505050565b63ffffffff828116828216039080821115613c2757613c27613a20565b60ff828116828216039081111561058057610580613a20565b601f82111561081357600081815260208120601f850160051c81016020861015613fa75750805b601f850160051c820191505b818110156116ed57828155600101613fb3565b815167ffffffffffffffff811115613fe057613fe0613819565b613ff481613fee8454613a5e565b84613f80565b602080601f83116001811461402957600084156140115750858301515b600019600386901b1c1916600185901b1785556116ed565b600085815260208120601f198616915b8281101561405857888601518255948401946001909101908401614039565b50858210156140765787850151600019600388901b60f8161c191681555b5050505050600190811b01905550565b600060ff821660ff810361409c5761409c613a20565b60010192915050565b60ff818116838216019081111561058057610580613a20565b848152608081016140d26020830186613602565b6140df6040830185613616565b6140ec6060830184613626565b95945050505050565b600080835461410381613a5e565b6001828116801561411b57600181146141305761415f565b60ff198416875282151583028701945061415f565b8760005260208060002060005b858110156141565781548a82015290840190820161413d565b50505082870194505b50929695505050505050565b6000825161417d818460208701613401565b9190910192915050565b7f416363657373436f6e74726f6c3a206163636f756e74200000000000000000008152600083516141bf816017850160208801613401565b7001034b99036b4b9b9b4b733903937b6329607d1b60179184019182015283516141f0816028840160208801613401565b01602801949350505050565b60008161420b5761420b613a20565b50600019019056feb431a69783a2491a0c400ff16dab32cd442abf8fe5af63a526a7248d730192f8562618dbcf74b61ae5b0f229fe40ba6d5b6ae6b4248f8c89a870dda7c77135f6d646ae07eb0d0f77457502a65e7407930dff4cd4fd99abc6aac87a753f4c8a42a2646970667358221220d18914c25d56913971a57d8e253c0bfd92d1e75332c374a5b662ea107f56baa964736f6c634300081300334bbeb6fd3e5222e55f2f8b0c35bc228e0a06a25d0da772fdb02c3b92fa004f88d646ae07eb0d0f77457502a65e7407930dff4cd4fd99abc6aac87a753f4c8a42",
  "linkReferences": {},
  "deployedLinkReferences": {}
}