{
  "_format": "hh-sol-artifact-1",
  "contractName": "Certifications",
  "sourceName": "contracts/Certifications.sol",
  "abi": [
    {
      "inputs": [
        {
          "internalType": "address",
          "name": "certifier_admin1",
          "type": "address"
        },
        {
          "internalType": "address",
          "name": "certifier_admin2",
          "type": "address"
        }
      ],
      "stateMutability": "nonpayable",
      "type": "constructor"
    },
    {
      "anonymous": false,
      "inputs": [
        {
          "indexed": true,
          "internalType": "bytes32",
          "name": "role",
          "type": "bytes32"
        },
        {
          "indexed": true,
          "internalType": "bytes32",
          "name": "previousAdminRole",
          "type": "bytes32"
        },
        {
          "indexed": true,
          "internalType": "bytes32",
          "name": "newAdminRole",
          "type": "bytes32"
        }
      ],
      "name": "RoleAdminChanged",
      "type": "event"
    },
    {
      "anonymous": false,
      "inputs": [
        {
          "indexed": true,
          "internalType": "bytes32",
          "name": "role",
          "type": "bytes32"
        },
        {
          "indexed": true,
          "internalType": "address",
          "name": "account",
          "type": "address"
        },
        {
          "indexed": true,
          "internalType": "address",
          "name": "sender",
          "type": "address"
        }
      ],
      "name": "RoleGranted",
      "type": "event"
    },
    {
      "anonymous": false,
      "inputs": [
        {
          "indexed": true,
          "internalType": "bytes32",
          "name": "role",
          "type": "bytes32"
        },
        {
          "indexed": true,
          "internalType": "address",
          "name": "account",
          "type": "address"
        },
        {
          "indexed": true,
          "internalType": "address",
          "name": "sender",
          "type": "address"
        }
      ],
      "name": "RoleRevoked",
      "type": "event"
    },
    {
      "anonymous": false,
      "inputs": [
        {
          "indexed": false,
          "internalType": "uint256",
          "name": "id",
          "type": "uint256"
        },
        {
          "indexed": false,
          "internalType": "string",
          "name": "firstname",
          "type": "string"
        },
        {
          "indexed": false,
          "internalType": "string",
          "name": "lastname",
          "type": "string"
        },
        {
          "indexed": false,
          "internalType": "uint256",
          "name": "birthdate",
          "type": "uint256"
        }
      ],
      "name": "StudentAdded",
      "type": "event"
    },
    {
      "anonymous": false,
      "inputs": [
        {
          "indexed": false,
          "internalType": "uint256",
          "name": "id",
          "type": "uint256"
        }
      ],
      "name": "StudentDeleted",
      "type": "event"
    },
    {
      "anonymous": false,
      "inputs": [
        {
          "indexed": false,
          "internalType": "uint256",
          "name": "id",
          "type": "uint256"
        },
        {
          "indexed": false,
          "internalType": "string",
          "name": "firstname",
          "type": "string"
        },
        {
          "indexed": false,
          "internalType": "string",
          "name": "lastname",
          "type": "string"
        },
        {
          "indexed": false,
          "internalType": "uint256",
          "name": "birthdate",
          "type": "uint256"
        }
      ],
      "name": "StudentEdited",
      "type": "event"
    },
    {
      "anonymous": false,
      "inputs": [
        {
          "indexed": false,
          "internalType": "uint256",
          "name": "studentId",
          "type": "uint256"
        },
        {
          "indexed": false,
          "internalType": "enum Certifications.appreciation",
          "name": "appreciation",
          "type": "uint8"
        },
        {
          "indexed": false,
          "internalType": "enum Certifications.degree",
          "name": "degree",
          "type": "uint8"
        },
        {
          "indexed": false,
          "internalType": "enum Certifications.program",
          "name": "program",
          "type": "uint8"
        }
      ],
      "name": "certificationEmited",
      "type": "event"
    },
    {
      "anonymous": false,
      "inputs": [
        {
          "indexed": false,
          "internalType": "bytes32",
          "name": "multiSigName",
          "type": "bytes32"
        }
      ],
      "name": "multiSigCleared",
      "type": "event"
    },
    {
      "anonymous": false,
      "inputs": [
        {
          "indexed": false,
          "internalType": "bytes32",
          "name": "multiSigName",
          "type": "bytes32"
        }
      ],
      "name": "multiSigSigned",
      "type": "event"
    },
    {
      "inputs": [],
      "name": "CERTIFIER",
      "outputs": [
        {
          "internalType": "bytes32",
          "name": "",
          "type": "bytes32"
        }
      ],
      "stateMutability": "view",
      "type": "function"
    },
    {
      "inputs": [],
      "name": "CERTIFIER_ADMIN",
      "outputs": [
        {
          "internalType": "bytes32",
          "name": "",
          "type": "bytes32"
        }
      ],
      "stateMutability": "view",
      "type": "function"
    },
    {
      "inputs": [],
      "name": "DEFAULT_ADMIN_ROLE",
      "outputs": [
        {
          "internalType": "bytes32",
          "name": "",
          "type": "bytes32"
        }
      ],
      "stateMutability": "view",
      "type": "function"
    },
    {
      "inputs": [],
      "name": "MAX_CERTIFIERS",
      "outputs": [
        {
          "internalType": "uint8",
          "name": "",
          "type": "uint8"
        }
      ],
      "stateMutability": "view",
      "type": "function"
    },
    {
      "inputs": [],
      "name": "MAX_CERTIFIERS_ADMIN",
      "outputs": [
        {
          "internalType": "uint8",
          "name": "",
          "type": "uint8"
        }
      ],
      "stateMutability": "view",
      "type": "function"
    },
    {
      "inputs": [],
      "name": "MIN_CERTIFIERS_ADMIN",
      "outputs": [
        {
          "internalType": "uint8",
          "name": "",
          "type": "uint8"
        }
      ],
      "stateMutability": "view",
      "type": "function"
    },
    {
      "inputs": [],
      "name": "PERCENT_TO_CERTIFY",
      "outputs": [
        {
          "internalType": "uint8",
          "name": "",
          "type": "uint8"
        }
      ],
      "stateMutability": "view",
      "type": "function"
    },
    {
      "inputs": [],
      "name": "PERCENT_TO_DELETE_STUDENT",
      "outputs": [
        {
          "internalType": "uint8",
          "name": "",
          "type": "uint8"
        }
      ],
      "stateMutability": "view",
      "type": "function"
    },
    {
      "inputs": [],
      "name": "PERCENT_TO_EDIT_CERTIFICATE",
      "outputs": [
        {
          "internalType": "uint8",
          "name": "",
          "type": "uint8"
        }
      ],
      "stateMutability": "view",
      "type": "function"
    },
    {
      "inputs": [],
      "name": "PERCENT_TO_GRANT_CERTIFIER",
      "outputs": [
        {
          "internalType": "uint8",
          "name": "",
          "type": "uint8"
        }
      ],
      "stateMutability": "view",
      "type": "function"
    },
    {
      "inputs": [],
      "name": "PERCENT_TO_GRANT_CERTIFIER_ADMIN",
      "outputs": [
        {
          "internalType": "uint8",
          "name": "",
          "type": "uint8"
        }
      ],
      "stateMutability": "view",
      "type": "function"
    },
    {
      "inputs": [],
      "name": "PERCENT_TO_REVOKE_CERTIFIER",
      "outputs": [
        {
          "internalType": "uint8",
          "name": "",
          "type": "uint8"
        }
      ],
      "stateMutability": "view",
      "type": "function"
    },
    {
      "inputs": [],
      "name": "PERCENT_TO_REVOKE_CERTIFIER_ADMIN",
      "outputs": [
        {
          "internalType": "uint8",
          "name": "",
          "type": "uint8"
        }
      ],
      "stateMutability": "view",
      "type": "function"
    },
    {
      "inputs": [
        {
          "internalType": "uint256",
          "name": "a",
          "type": "uint256"
        },
        {
          "internalType": "uint256",
          "name": "b",
          "type": "uint256"
        }
      ],
      "name": "ceilUDiv",
      "outputs": [
        {
          "internalType": "uint256",
          "name": "",
          "type": "uint256"
        }
      ],
      "stateMutability": "pure",
      "type": "function"
    },
    {
      "inputs": [
        {
          "internalType": "bytes32",
          "name": "",
          "type": "bytes32"
        }
      ],
      "name": "certificates",
      "outputs": [
        {
          "internalType": "enum Certifications.appreciation",
          "name": "appreciation",
          "type": "uint8"
        },
        {
          "internalType": "enum Certifications.degree",
          "name": "degree",
          "type": "uint8"
        },
        {
          "internalType": "enum Certifications.program",
          "name": "program",
          "type": "uint8"
        },
        {
          "internalType": "uint256",
          "name": "creation_date",
          "type": "uint256"
        },
        {
          "internalType": "bool",
          "name": "validity",
          "type": "bool"
        },
        {
          "internalType": "uint256",
          "name": "stud_id",
          "type": "uint256"
        }
      ],
      "stateMutability": "view",
      "type": "function"
    },
    {
      "inputs": [
        {
          "internalType": "uint256",
          "name": "",
          "type": "uint256"
        },
        {
          "internalType": "uint256",
          "name": "",
          "type": "uint256"
        }
      ],
      "name": "certificatesByStudent",
      "outputs": [
        {
          "internalType": "bytes32",
          "name": "",
          "type": "bytes32"
        }
      ],
      "stateMutability": "view",
      "type": "function"
    },
    {
      "inputs": [
        {
          "internalType": "uint256",
          "name": "studentId",
          "type": "uint256"
        },
        {
          "internalType": "enum Certifications.appreciation",
          "name": "app",
          "type": "uint8"
        },
        {
          "internalType": "enum Certifications.degree",
          "name": "deg",
          "type": "uint8"
        },
        {
          "internalType": "enum Certifications.program",
          "name": "prog",
          "type": "uint8"
        },
        {
          "internalType": "bool",
          "name": "approve",
          "type": "bool"
        }
      ],
      "name": "certify",
      "outputs": [],
      "stateMutability": "nonpayable",
      "type": "function"
    },
    {
      "inputs": [
        {
          "internalType": "uint256",
          "name": "_id",
          "type": "uint256"
        },
        {
          "internalType": "string",
          "name": "_firstname",
          "type": "string"
        },
        {
          "internalType": "string",
          "name": "_lastname",
          "type": "string"
        },
        {
          "internalType": "uint256",
          "name": "_birthdate",
          "type": "uint256"
        }
      ],
      "name": "createStudent",
      "outputs": [],
      "stateMutability": "nonpayable",
      "type": "function"
    },
    {
      "inputs": [
        {
          "internalType": "uint256",
          "name": "studentId",
          "type": "uint256"
        },
        {
          "internalType": "enum Certifications.appreciation",
          "name": "app",
          "type": "uint8"
        },
        {
          "internalType": "enum Certifications.degree",
          "name": "deg",
          "type": "uint8"
        },
        {
          "internalType": "enum Certifications.program",
          "name": "prog",
          "type": "uint8"
        },
        {
          "internalType": "bool",
          "name": "approve",
          "type": "bool"
        }
      ],
      "name": "deleteCertificate",
      "outputs": [],
      "stateMutability": "nonpayable",
      "type": "function"
    },
    {
      "inputs": [
        {
          "internalType": "uint256",
          "name": "_id",
          "type": "uint256"
        },
        {
          "internalType": "string",
          "name": "_firstname",
          "type": "string"
        },
        {
          "internalType": "string",
          "name": "_lastname",
          "type": "string"
        },
        {
          "internalType": "uint256",
          "name": "_birthdate",
          "type": "uint256"
        }
      ],
      "name": "editStudentById",
      "outputs": [],
      "stateMutability": "nonpayable",
      "type": "function"
    },
    {
      "inputs": [
        {
          "internalType": "uint256",
          "name": "_id",
          "type": "uint256"
        }
      ],
      "name": "getCertificatesByStudent",
      "outputs": [
        {
          "internalType": "bytes32[]",
          "name": "",
          "type": "bytes32[]"
        }
      ],
      "stateMutability": "view",
      "type": "function"
    },
    {
      "inputs": [
        {
          "internalType": "bytes32",
          "name": "role",
          "type": "bytes32"
        }
      ],
      "name": "getRoleAdmin",
      "outputs": [
        {
          "internalType": "bytes32",
          "name": "",
          "type": "bytes32"
        }
      ],
      "stateMutability": "view",
      "type": "function"
    },
    {
      "inputs": [
        {
          "internalType": "uint256",
          "name": "_id",
          "type": "uint256"
        }
      ],
      "name": "getStudent",
      "outputs": [
        {
          "components": [
            {
              "internalType": "uint256",
              "name": "id",
              "type": "uint256"
            },
            {
              "internalType": "string",
              "name": "firstname",
              "type": "string"
            },
            {
              "internalType": "string",
              "name": "lastname",
              "type": "string"
            },
            {
              "internalType": "uint256",
              "name": "birthdate",
              "type": "uint256"
            }
          ],
          "internalType": "struct Students.Student",
          "name": "",
          "type": "tuple"
        }
      ],
      "stateMutability": "view",
      "type": "function"
    },
    {
      "inputs": [
        {
          "internalType": "bytes32",
          "name": "roleHash",
          "type": "bytes32"
        },
        {
          "internalType": "address",
          "name": "target",
          "type": "address"
        },
        {
          "internalType": "bool",
          "name": "approve",
          "type": "bool"
        }
      ],
      "name": "grantAnyRole",
      "outputs": [],
      "stateMutability": "nonpayable",
      "type": "function"
    },
    {
      "inputs": [
        {
          "internalType": "bytes32",
          "name": "role",
          "type": "bytes32"
        },
        {
          "internalType": "address",
          "name": "account",
          "type": "address"
        }
      ],
      "name": "grantRole",
      "outputs": [],
      "stateMutability": "nonpayable",
      "type": "function"
    },
    {
      "inputs": [
        {
          "internalType": "bytes32",
          "name": "role",
          "type": "bytes32"
        },
        {
          "internalType": "address",
          "name": "account",
          "type": "address"
        }
      ],
      "name": "hasRole",
      "outputs": [
        {
          "internalType": "bool",
          "name": "",
          "type": "bool"
        }
      ],
      "stateMutability": "view",
      "type": "function"
    },
    {
      "inputs": [
        {
          "internalType": "bytes32",
          "name": "",
          "type": "bytes32"
        }
      ],
      "name": "multiSig",
      "outputs": [
        {
          "internalType": "bool",
          "name": "created",
          "type": "bool"
        },
        {
          "internalType": "bytes32",
          "name": "role",
          "type": "bytes32"
        },
        {
          "internalType": "uint8",
          "name": "count",
          "type": "uint8"
        },
        {
          "internalType": "uint8",
          "name": "id",
          "type": "uint8"
        },
        {
          "internalType": "string",
          "name": "info",
          "type": "string"
        }
      ],
      "stateMutability": "view",
      "type": "function"
    },
    {
      "inputs": [
        {
          "internalType": "uint256",
          "name": "",
          "type": "uint256"
        }
      ],
      "name": "multiSigId",
      "outputs": [
        {
          "internalType": "bytes32",
          "name": "",
          "type": "bytes32"
        }
      ],
      "stateMutability": "view",
      "type": "function"
    },
    {
      "inputs": [],
      "name": "multiSigIdCount",
      "outputs": [
        {
          "internalType": "uint256",
          "name": "",
          "type": "uint256"
        }
      ],
      "stateMutability": "view",
      "type": "function"
    },
    {
      "inputs": [
        {
          "internalType": "uint256",
          "name": "_id",
          "type": "uint256"
        },
        {
          "internalType": "bool",
          "name": "_approve",
          "type": "bool"
        }
      ],
      "name": "removeStudentById",
      "outputs": [],
      "stateMutability": "nonpayable",
      "type": "function"
    },
    {
      "inputs": [
        {
          "internalType": "bytes32",
          "name": "",
          "type": "bytes32"
        },
        {
          "internalType": "address",
          "name": "",
          "type": "address"
        }
      ],
      "name": "renounceRole",
      "outputs": [],
      "stateMutability": "nonpayable",
      "type": "function"
    },
    {
      "inputs": [
        {
          "internalType": "bytes32",
          "name": "roleHash",
          "type": "bytes32"
        },
        {
          "internalType": "address",
          "name": "target",
          "type": "address"
        },
        {
          "internalType": "bool",
          "name": "approve",
          "type": "bool"
        }
      ],
      "name": "revokeAnyRole",
      "outputs": [],
      "stateMutability": "nonpayable",
      "type": "function"
    },
    {
      "inputs": [
        {
          "internalType": "bytes32",
          "name": "role",
          "type": "bytes32"
        },
        {
          "internalType": "address",
          "name": "account",
          "type": "address"
        }
      ],
      "name": "revokeRole",
      "outputs": [],
      "stateMutability": "nonpayable",
      "type": "function"
    },
    {
      "inputs": [
        {
          "internalType": "uint256",
          "name": "",
          "type": "uint256"
        }
      ],
      "name": "students",
      "outputs": [
        {
          "internalType": "uint256",
          "name": "id",
          "type": "uint256"
        },
        {
          "internalType": "string",
          "name": "firstname",
          "type": "string"
        },
        {
          "internalType": "string",
          "name": "lastname",
          "type": "string"
        },
        {
          "internalType": "uint256",
          "name": "birthdate",
          "type": "uint256"
        }
      ],
      "stateMutability": "view",
      "type": "function"
    },
    {
      "inputs": [
        {
          "internalType": "uint256",
          "name": "",
          "type": "uint256"
        }
      ],
      "name": "studentsIds",
      "outputs": [
        {
          "internalType": "uint256",
          "name": "",
          "type": "uint256"
        }
      ],
      "stateMutability": "view",
      "type": "function"
    },
    {
      "inputs": [
        {
          "internalType": "bytes4",
          "name": "interfaceId",
          "type": "bytes4"
        }
      ],
      "name": "supportsInterface",
      "outputs": [
        {
          "internalType": "bool",
          "name": "",
          "type": "bool"
        }
      ],
      "stateMutability": "view",
      "type": "function"
    }
  ],
  "bytecode": "0x60806040523480156200001157600080fd5b5060405162004316380380620043168339810160408190526200003491620005de565b6001600160a01b0382166200009c5760405162461bcd60e51b8152602060048201526024808201527f4365727469666965722061646d696e3120616464726573732063616e6e6f74206044820152630626520360e41b60648201526084015b60405180910390fd5b6001600160a01b038116620001005760405162461bcd60e51b8152602060048201526024808201527f4365727469666965722061646d696e3220616464726573732063616e6e6f74206044820152630626520360e41b606482015260840162000093565b806001600160a01b0316826001600160a01b031603620001725760405162461bcd60e51b815260206004820152602660248201527f436572746966696572206164647265737365732063616e6e6f74206265207468604482015265652073616d6560d01b606482015260840162000093565b6200018d600080516020620042d68339815191528362000511565b620001a8600080516020620042d68339815191528262000521565b6040805160e0810182526002808252602080830191909152600f828401526050606083018190526080830152600080516020620042d683398151915260a08301529151909160c08301916200021391016e21a2a92a24a324a2a92fa0a226a4a760891b8152600f0190565b6040516020818303038152906040526200022d9062000616565b9052600080516020620042d683398151915260009081526003602090815282517f996892c26f58715b0987b59a23f94e8ef0c02cd4cae9fdbc7a2316b6cd446de080549285015160408601516060870151608088015160ff908116600160681b0260ff60681b19919092166c010000000000000000000000000260ff60601b1963ffffffff94851668010000000000000000021664ffffffffff60401b19958516640100000000026001600160401b03199099169490971693909317969096179290921693909317929092179290921617905560a08201517f996892c26f58715b0987b59a23f94e8ef0c02cd4cae9fdbc7a2316b6cd446de15560c0909101517f996892c26f58715b0987b59a23f94e8ef0c02cd4cae9fdbc7a2316b6cd446de2556200036b90600080516020620042f68339815191529062000511565b6040805160e0810182526000808252602080830191909152600f828401526050606083018190526080830152600080516020620042d683398151915260a08301529151909160c0830191620003d091016821a2a92a24a324a2a960b91b815260090190565b604051602081830303815290604052620003ea9062000616565b9052600080516020620042f68339815191526000526003602090815281517f04ed60087a82bd97d8afa881e356d9b31a57e1f4fa6c3493c1181428b0c3356280549284015160408501516060860151608087015160ff908116600160681b0260ff60681b19919092166c010000000000000000000000000260ff60601b1963ffffffff94851668010000000000000000021664ffffffffff60401b19958516640100000000026001600160401b03199099169490971693909317969096179290921693909317929092179290921617905560a08101517f04ed60087a82bd97d8afa881e356d9b31a57e1f4fa6c3493c1181428b0c335635560c001517f04ed60087a82bd97d8afa881e356d9b31a57e1f4fa6c3493c1181428b0c3356455506200063e9050565b6200051d828262000521565b5050565b6000828152602081815260408083206001600160a01b038516845290915290205460ff166200051d576000828152602081815260408083206001600160a01b03851684529091529020805460ff191660011790556200057d3390565b6001600160a01b0316816001600160a01b0316837f2f8788117e7eff1d82e926ec794901d17c78024a50270940304540a733656f0d60405160405180910390a45050565b80516001600160a01b0381168114620005d957600080fd5b919050565b60008060408385031215620005f257600080fd5b620005fd83620005c1565b91506200060d60208401620005c1565b90509250929050565b8051602080830151919081101562000638576000198160200360031b1b821691505b50919050565b613c88806200064e6000396000f3fe608060405234801561001057600080fd5b506004361061021c5760003560e01c8063742f068811610125578063b86bc74f116100ad578063d3243ad81161007c578063d3243ad81461048a578063d547741f1461049d578063df3a12dd146104b0578063e05f2fb4146104c3578063e5a357f5146104ea57600080fd5b8063b86bc74f1461044f578063bf80209114610464578063c9dbcfda14610477578063d0fb68c71461028157600080fd5b80639dd09a73116100f45780639dd09a73146104015780639e33990914610331578063a1cebf5214610421578063a217fddf14610434578063ace819101461043c57600080fd5b8063742f06881461037d5780637cd29fb7146102815780638856a0e9146103db57806391d14854146103ee57600080fd5b806333b72e49116101a85780635907ebea116101775780635907ebea14610331578063642f9163146103395780636bc6421b1461035957806370b5088914610361578063719129be1461036a57600080fd5b806333b72e491461030357806336568abe1461030b5780634cce913b1461031e5780634da11a201461028157600080fd5b80631a968069116101ef5780631a9680691461029b5780631a9cfe2814610281578063248a9ca3146102bf5780632cd94e4f146102815780632f2ff15d146102f057600080fd5b806301ffc9a71461022157806305f84d451461024957806306ead22e1461025e5780630f68794a14610281575b600080fd5b61023461022f366004612e74565b61050a565b60405190151581526020015b60405180910390f35b61025c610257366004612eb3565b610541565b005b61027161026c366004612edf565b6107d3565b6040516102409493929190612f48565b610289605081565b60405160ff9091168152602001610240565b6102ae6102a9366004612edf565b61090b565b604051610240959493929190612f85565b6102e26102cd366004612edf565b60009081526020819052604090206001015490565b604051908152602001610240565b61025c6102fe366004612fda565b6109cd565b610289600281565b61025c610319366004612fda565b6109f2565b6102e261032c366004612ffd565b610a59565b610289600f81565b61034c610347366004612edf565b610a8a565b604051610240919061301f565b610289603381565b6102e260065481565b61025c610378366004613079565b610c60565b6103c961038b366004612edf565b600760205260009081526040902080546001820154600283015460039093015460ff8084169461010085048216946201000090048216939291169086565b604051610240969594939291906130ff565b61025c6103e9366004613144565b610ff3565b6102346103fc366004612fda565b6114db565b6102e261040f366004612edf565b60056020526000908152604090205481565b61025c61042f366004613257565b611504565b6102e2600081565b61025c61044a366004613144565b6116b8565b6102e2600080516020613c3383398151915281565b6102e2610472366004612ffd565b611b4b565b61025c610485366004613257565b611b84565b61025c610498366004613079565b611c11565b61025c6104ab366004612fda565b612106565b6102e26104be366004612edf565b61212b565b6102e27f4bbeb6fd3e5222e55f2f8b0c35bc228e0a06a25d0da772fdb02c3b92fa004f8881565b6104fd6104f8366004612edf565b61214c565b60405161024091906132cc565b60006001600160e01b03198216637965db0b60e01b148061053b57506301ffc9a760e01b6001600160e01b03198316145b92915050565b610559600080516020613c33833981519152336114db565b61057e5760405162461bcd60e51b815260040161057590613310565b60405180910390fd5b6000821161059e5760405162461bcd60e51b815260040161057590613347565b60008281526001602052604081205490036105cb5760405162461bcd60e51b81526004016105759061337e565b6000826040516020016105f79181526d1111531155114814d5155111539560921b6020820152602e0190565b60405160208183030381529060405280519060200120905061066681600080516020613c338339815191528560405160200161063591815260200190565b60408051601f1981840301815290829052610652916020016133b5565b6040516020818303038152906040526121db565b8180156106905750600081815260046020908152604080832033845260030190915290205460ff16155b156106d35760008181526004602052604090206106ad903361225c565b604051818152600080516020613bf38339815191529060200160405180910390a1610717565b8115156000036107175760008181526004602052604090206106f59033612389565b604051818152600080516020613bf38339815191529060200160405180910390a15b600080516020613c3383398151915260005260036020527f04ed60087a82bd97d8afa881e356d9b31a57e1f4fa6c3493c1181428b0c3356254610773906107669060509063ffffffff16613402565b63ffffffff166064611b4b565b60008281526004602052604090206002015460ff16106107ce5760008181526004602052604090206107a490612441565b604051818152600080516020613c138339815191529060200160405180910390a16107ce836124b2565b505050565b6001602081905260009182526040909120805491810180546107f49061342a565b80601f01602080910402602001604051908101604052809291908181526020018280546108209061342a565b801561086d5780601f106108425761010080835404028352916020019161086d565b820191906000526020600020905b81548152906001019060200180831161085057829003601f168201915b5050505050908060020180546108829061342a565b80601f01602080910402602001604051908101604052809291908181526020018280546108ae9061342a565b80156108fb5780601f106108d0576101008083540402835291602001916108fb565b820191906000526020600020905b8154815290600101906020018083116108de57829003601f168201915b5050505050908060030154905084565b600460205260009081526040902080546001820154600283015460058401805460ff948516959394838116946101009094041692919061094a9061342a565b80601f01602080910402602001604051908101604052809291908181526020018280546109769061342a565b80156109c35780601f10610998576101008083540402835291602001916109c3565b820191906000526020600020905b8154815290600101906020018083116109a657829003601f168201915b5050505050905085565b6000828152602081905260409020600101546109e88161258b565b6107ce8383612598565b60405162461bcd60e51b815260206004820152603660248201527f596f752063616e27742072656e6f756e636520746f20796f757220726f6c652e60448201527520506c6561736520636f6e746163742061646d696e7360501b6064820152608401610575565b60086020528160005260406000208181548110610a7557600080fd5b90600052602060002001600091509150505481565b610ab56040518060800160405280600081526020016060815260200160608152602001600081525090565b6000828152600160205260408120549003610b0a5760405162461bcd60e51b815260206004820152601560248201527414dd1d59195b9d08191bd95cdb89dd08195e1a5cdd605a1b6044820152606401610575565b60008281526001602081815260409283902083516080810190945280548452918201805491840191610b3b9061342a565b80601f0160208091040260200160405190810160405280929190818152602001828054610b679061342a565b8015610bb45780601f10610b8957610100808354040283529160200191610bb4565b820191906000526020600020905b815481529060010190602001808311610b9757829003601f168201915b50505050508152602001600282018054610bcd9061342a565b80601f0160208091040260200160405190810160405280929190818152602001828054610bf99061342a565b8015610c465780601f10610c1b57610100808354040283529160200191610c46565b820191906000526020600020905b815481529060010190602001808311610c2957829003601f168201915b505050505081526020016003820154815250509050919050565b60008381526003602090815260409182902080546002820154845193840152909263ffffffff808316680100000000000000009093041691909111910160408051601f1981840301815290829052610cba91602001613464565b60405160208183030381529060405290610ce75760405162461bcd60e51b815260040161057591906134a2565b50610cf68160010154336114db565b8160020154604051602001610d0d91815260200190565b60408051601f1981840301815290829052610d2a916020016134b5565b60405160208183030381529060405290610d575760405162461bcd60e51b815260040161057591906134a2565b50610d6284846114db565b60028201546040805160208101929092529115910160408051601f1981840301815290829052610d94916020016134fd565b60405160208183030381529060405290610dc15760405162461bcd60e51b815260040161057591906134a2565b506040516001600160601b0319606085901b1660208201526411d490539560da1b603482015260398101859052600090605901604051602081830303815290604052805190602001209050610e708183600101548460020154604051602001610e2c91815260200190565b60408051808303601f1901815282825260608a901b6001600160601b0319166020840152815160148185030181526034840190925261065292909190605401613542565b828015610e9a5750600081815260046020908152604080832033845260030190915290205460ff16155b15610edd576000818152600460205260409020610eb7903361225c565b604051818152600080516020613bf38339815191529060200160405180910390a1610f21565b821515600003610f21576000818152600460205260409020610eff9033612389565b604051818152600080516020613bf38339815191529060200160405180910390a15b81546001830154600090815260036020526040902054610f569161076691600160601b90910460ff169063ffffffff16613402565b60008281526004602052604090206002015460ff1610610fec576000818152600460205260409020610f8790612441565b604051818152600080516020613c138339815191529060200160405180910390a1610fb28585612598565b81546001908390600090610fcd90849063ffffffff16613590565b92506101000a81548163ffffffff021916908363ffffffff1602179055505b5050505050565b61100b600080516020613c33833981519152336114db565b6110275760405162461bcd60e51b815260040161057590613310565b60008581526001602052604081205490036110545760405162461bcd60e51b81526004016105759061337e565b6000846003811115611068576110686130b5565b1015801561108857506003846003811115611085576110856130b5565b11155b6110d05760405162461bcd60e51b8152602060048201526019602482015278105c1c1c9958da585d1a5bdb881a5cc81b9bdd081d985b1a59603a1b6044820152606401610575565b60008360028111156110e4576110e46130b5565b1015801561110457506002836002811115611101576111016130b5565b11155b6111465760405162461bcd60e51b8152602060048201526013602482015272111959dc9959481a5cc81b9bdd081d985b1a59606a1b6044820152606401610575565b600082600f81111561115a5761115a6130b5565b1015801561117a5750600f82600f811115611177576111776130b5565b11155b6111bd5760405162461bcd60e51b8152602060048201526014602482015273141c9bd9dc985b481a5cc81b9bdd081d985b1a5960621b6044820152606401610575565b60076000868686866040516020016111d894939291906135eb565b60408051601f198184030181529181528151602092830120835290820192909252016000206002015460ff1615156001146112555760405162461bcd60e51b815260206004820152601e60248201527f5468697320636572746966696361746520646f65736e277420657869737400006044820152606401610575565b60008585858560405160200161126e9493929190613620565b60405160208183030381529060405280519060200120905061132c81600080516020613c33833981519152886040516020016112ac91815260200190565b604051602081830303815290604052886040516020016112cc9190613664565b604051602081830303815290604052886040516020016112ec9190613676565b6040516020818303038152906040528860405160200161130c9190613680565b60408051601f19818403018152908290526106529493929160200161368a565b8180156113565750600081815260046020908152604080832033845260030190915290205460ff16155b15611399576000818152600460205260409020611373903361225c565b604051818152600080516020613bf38339815191529060200160405180910390a16113dd565b8115156000036113dd5760008181526004602052604090206113bb9033612389565b604051818152600080516020613bf38339815191529060200160405180910390a15b600080516020613c3383398151915260005260036020527f04ed60087a82bd97d8afa881e356d9b31a57e1f4fa6c3493c1181428b0c335625461142c906107669060509063ffffffff16613402565b60008281526004602052604090206002015460ff16106114d357600081815260046020526040902061145d90612441565b604051818152600080516020613c138339815191529060200160405180910390a16000600760008888888860405160200161149b94939291906135eb565b60408051808303601f19018152918152815160209283012083529082019290925201600020600201805460ff19169115159190911790555b505050505050565b6000918252602082815260408084206001600160a01b0393909316845291905290205460ff1690565b61151c600080516020613c33833981519152336114db565b6115385760405162461bcd60e51b815260040161057590613310565b600084116115585760405162461bcd60e51b815260040161057590613347565b60008351116115a95760405162461bcd60e51b815260206004820152601960248201527f46697273746e616d652063616e6e6f7420626520656d707479000000000000006044820152606401610575565b60008251116115fa5760405162461bcd60e51b815260206004820152601860248201527f4c6173746e616d652063616e6e6f7420626520656d70747900000000000000006044820152606401610575565b6000811161164a5760405162461bcd60e51b815260206004820181905260248201527f426972746864617465206d7573742062652067726561746572207468616e20306044820152606401610575565b600084815260016020526040902054156116a65760405162461bcd60e51b815260206004820152601b60248201527f546869732073747564656e7420616c72656164792065786973747300000000006044820152606401610575565b6116b28484848461261c565b50505050565b6116d0600080516020613c33833981519152336114db565b6116ec5760405162461bcd60e51b815260040161057590613310565b60008581526001602052604081205490036117195760405162461bcd60e51b81526004016105759061337e565b600084600381111561172d5761172d6130b5565b1015801561174d5750600384600381111561174a5761174a6130b5565b11155b6117955760405162461bcd60e51b8152602060048201526019602482015278105c1c1c9958da585d1a5bdb881a5cc81b9bdd081d985b1a59603a1b6044820152606401610575565b60008360028111156117a9576117a96130b5565b101580156117c9575060028360028111156117c6576117c66130b5565b11155b61180b5760405162461bcd60e51b8152602060048201526013602482015272111959dc9959481a5cc81b9bdd081d985b1a59606a1b6044820152606401610575565b600082600f81111561181f5761181f6130b5565b1015801561183f5750600f82600f81111561183c5761183c6130b5565b11155b6118825760405162461bcd60e51b8152602060048201526014602482015273141c9bd9dc985b481a5cc81b9bdd081d985b1a5960621b6044820152606401610575565b600760008686868660405160200161189d94939291906135eb565b60408051601f198184030181529181528151602092830120835290820192909252016000206002015460ff16156119165760405162461bcd60e51b815260206004820152601f60248201527f5468697320636572746966696361746520616c726561647920657869737473006044820152606401610575565b60008585858560405160200161192f9493929190613715565b6040516020818303038152906040528051906020012090506119ed81600080516020613c338339815191528860405160200161196d91815260200190565b6040516020818303038152906040528860405160200161198d9190613664565b604051602081830303815290604052886040516020016119ad9190613676565b604051602081830303815290604052886040516020016119cd9190613680565b60408051601f19818403018152908290526106529493929160200161375a565b818015611a175750600081815260046020908152604080832033845260030190915290205460ff16155b15611a5a576000818152600460205260409020611a34903361225c565b604051818152600080516020613bf38339815191529060200160405180910390a1611a9e565b811515600003611a9e576000818152600460205260409020611a7c9033612389565b604051818152600080516020613bf38339815191529060200160405180910390a15b600080516020613c3383398151915260005260036020527f04ed60087a82bd97d8afa881e356d9b31a57e1f4fa6c3493c1181428b0c3356254611aed906107669060339063ffffffff16613402565b60008281526004602052604090206002015460ff16106114d3576000818152600460205260409020611b1e90612441565b604051818152600080516020613c138339815191529060200160405180910390a16114d386868686612795565b6000611b5782846137fc565b600003611b6f57611b688284613810565b905061053b565b611b798284613810565b611b68906001613824565b611b9c600080516020613c33833981519152336114db565b611bb85760405162461bcd60e51b815260040161057590613310565b60008411611bd85760405162461bcd60e51b815260040161057590613347565b6000848152600160205260408120549003611c055760405162461bcd60e51b81526004016105759061337e565b6116b284848484612963565b60008381526003602090815260409182902080546002820154845193840152909263ffffffff64010000000083048116921691909111910160408051601f1981840301815290829052611c6691602001613837565b60405160208183030381529060405290611c935760405162461bcd60e51b815260040161057591906134a2565b50611c9e84846114db565b8160020154604051602001611cb591815260200190565b60408051601f1981840301815290829052611cd291602001613856565b60405160208183030381529060405290611cff5760405162461bcd60e51b815260040161057591906134a2565b50611d0e8160010154336114db565b8160020154604051602001611d2591815260200190565b60408051601f1981840301815290829052611d42916020016134b5565b60405160208183030381529060405290611d6f5760405162461bcd60e51b815260040161057591906134a2565b506040516001600160601b0319606085901b166020820152655245564f4b4560d01b6034820152603a8101859052600090605a01604051602081830303815290604052805190602001209050611e1f8183600101548460020154604051602001611ddb91815260200190565b60408051808303601f1901815282825260608a901b6001600160601b0319166020840152815160148185030181526034840190925261065292909190605401613894565b828015611e495750600081815260046020908152604080832033845260030190915290205460ff16155b15611e8c576000818152600460205260409020611e66903361225c565b604051818152600080516020613bf38339815191529060200160405180910390a1611ed0565b821515600003611ed0576000818152600460205260409020611eae9033612389565b604051818152600080516020613bf38339815191529060200160405180910390a15b81600101548514158015611f2c575081546001830154600090815260036020526040902054611f149161076691600160681b90910460ff169063ffffffff16613402565b60008281526004602052604090206002015460ff1610155b80611f975750816001015485148015611f9757508154600180840154600090815260036020526040902054611f7f92600160681b900460ff1691611f759163ffffffff166138e3565b6107669190613402565b60008281526004602052604090206002015460ff1610155b15610fec5760005b6006548110156120a8576000818152600560209081526040808320548352600482528083206001600160a01b038916845260030190915290205460ff161515600114801561200a57506000818152600560209081526040808320548352600490915290206001015486145b156120965760008181526005602090815260408083205483526004909152812060020180546001929061204190849060ff16613900565b825460ff9182166101009390930a9283029190920219909116179055506000818152600560209081526040808320548352600482528083206001600160a01b03891684526003019091529020805460ff191690555b806120a081613919565b915050611f9f565b5060008181526004602052604090206120c090612441565b604051818152600080516020613c138339815191529060200160405180910390a16120eb8585612bb3565b81546001908390600090610fcd90849063ffffffff166138e3565b6000828152602081905260409020600101546121218161258b565b6107ce8383612bb3565b6002818154811061213b57600080fd5b600091825260209091200154905081565b6000818152600160205260408120546060910361217b5760405162461bcd60e51b81526004016105759061337e565b600082815260086020908152604091829020805483518184028101840190945280845290918301828280156121cf57602002820191906000526020600020905b8154815260200190600101908083116121bb575b50505050509050919050565b60008381526004602052604081205460ff16151590036107ce576000838152600460209081526040808320805460ff1916600190811790915560068054855260059093529083208690558154909290612235908490613824565b90915550506000838152600460205260409020600181018390556005016116b28282613978565b6001600160a01b038116600090815260038301602052604090205460ff16156122c75760405162461bcd60e51b815260206004820181905260248201527f596f7520616c7265616479207369676e65642074686973206d756c74697369676044820152606401610575565b6002820180546101009081900460ff9081166000908152600486016020526040902080546001600160a01b0319166001600160a01b0386161790558254919091041690600161231583613a38565b82546101009290920a60ff8181021990931691831602179091556001600160a01b03831660009081526003850160205260408120805460ff191660019081179091556002860180549194509261236d91859116613a57565b92506101000a81548160ff021916908360ff1602179055505050565b6001600160a01b038116600090815260038301602052604090205460ff1615156001146124075760405162461bcd60e51b815260206004820152602660248201527f596f752068617665206e6f7465207369676e65642074686973206d756c7469736044820152651a59c81e595d60d21b6064820152608401610575565b6001600160a01b03811660009081526003830160205260408120805460ff191690556002830180546001929061236d90849060ff16613900565b60028101805460ff1916905560005b600282015460ff610100909104811690821610156124ae5760ff811660009081526004830160209081526040808320546001600160a01b03168352600385019091529020805460ff19169055806124a681613a38565b915050612450565b5050565b6000818152600160208190526040822082815591906124d390830182612e26565b6124e1600283016000612e26565b6003820160009055505060005b60025481101561255457816002828154811061250c5761250c613a70565b9060005260206000200154036125425760006002828154811061253157612531613a70565b600091825260209091200155612554565b8061254c81613919565b9150506124ee565b506040518181527f34de6b871245ed0a89b82912e8e5ee6d9c3104b3e5bb1d67a71ad7e68239e41c9060200160405180910390a150565b6125958133612c18565b50565b6125a282826114db565b6124ae576000828152602081815260408083206001600160a01b03851684529091529020805460ff191660011790556125d83390565b6001600160a01b0316816001600160a01b0316837f2f8788117e7eff1d82e926ec794901d17c78024a50270940304540a733656f0d60405160405180910390a45050565b600084815260016020526040902054156126715760405162461bcd60e51b815260206004820152601660248201527553747564656e7420616c72656164792065786973747360501b6044820152606401610575565b836000036126b15760405162461bcd60e51b815260206004820152600d60248201526c049642063616e2774206265203609c1b6044820152606401610575565b60408051608081018252858152602080820186815282840186905260608301859052600088815260019283905293909320825181559251919291908201906126f99082613978565b506040820151600282019061270e9082613978565b5060609190910151600390910155600280546001810182556000919091527f405787fa12a823e0f2b7631cc41b3ba8828b3321ca811111fa75cd3aa3bb5ace018490556040517fb6767d1c89515962142b00b5577569c92a74381d9441a528911c66e0c3cea1f890612787908690869086908690612f48565b60405180910390a150505050565b6040518060c001604052808460038111156127b2576127b26130b5565b81526020018360028111156127c9576127c96130b5565b815260200182600f8111156127e0576127e06130b5565b815260200142815260200160011515815260200185815250600760008686868660405160200161281394939291906135eb565b60408051601f1981840301815291815281516020928301208352908201929092520160002081518154829060ff19166001836003811115612856576128566130b5565b021790555060208201518154829061ff00191661010083600281111561287e5761287e6130b5565b021790555060408201518154829062ff000019166201000083600f8111156128a8576128a86130b5565b021790555060608201516001820155608082015160028201805460ff191691151591909117905560a0909101516003909101556000848152600860209081526040918290209151612901918791879187918791016135eb565b60408051601f19818403018152908290528051602091820120835460018101855560009485529190932001919091557fb55811dd01470a227956304b027c610c7cdf9dd622dcc47791380261d56dc6ed90612787908690869086908690613a86565b60008481526001602052604081205490036129b95760405162461bcd60e51b815260206004820152601660248201527514dd1d59195b9d08191bd95cc81b9bdd08195e1a5cdd60521b6044820152606401610575565b600160008581526020019081526020016000206001016040516020016129df9190613abd565b6040516020818303038152906040528051906020012083604051602001612a069190613b33565b6040516020818303038152906040528051906020012014158015612a5e57506040805160008152602081018083528151902091612a4591869101613b33565b6040516020818303038152906040528051906020012014155b15612a8157600084815260016020819052604090912001612a7f8482613978565b505b6000848152600160209081526040918290209151612aa3926002019101613abd565b6040516020818303038152906040528051906020012082604051602001612aca9190613b33565b6040516020818303038152906040528051906020012014158015612b2257506040805160008152602081018083528151902091612b0991859101613b33565b6040516020818303038152906040528051906020012014155b15612b44576000848152600160205260409020600201612b428382613978565b505b6000848152600160205260409020600301548114801590612b6457508015155b15612b7e5760008481526001602052604090206003018190555b7f03e10a3f40e9af2a5e61cb5a3de55fd67286470c35b3cf345b04a83cf3f49077848484846040516127879493929190612f48565b612bbd82826114db565b156124ae576000828152602081815260408083206001600160a01b0385168085529252808320805460ff1916905551339285917ff6391f5c32d9c69d2a47ea670b442974b53935d1edc7fd64eb21e047a839171b9190a45050565b612c2282826114db565b6124ae57612c2f81612c71565b612c3a836020612c83565b604051602001612c4b929190613b4f565b60408051601f198184030181529082905262461bcd60e51b8252610575916004016134a2565b606061053b6001600160a01b03831660145b60606000612c92836002613bc4565b612c9d906002613824565b67ffffffffffffffff811115612cb557612cb56131b4565b6040519080825280601f01601f191660200182016040528015612cdf576020820181803683370190505b509050600360fc1b81600081518110612cfa57612cfa613a70565b60200101906001600160f81b031916908160001a905350600f60fb1b81600181518110612d2957612d29613a70565b60200101906001600160f81b031916908160001a9053506000612d4d846002613bc4565b612d58906001613824565b90505b6001811115612dd0576f181899199a1a9b1b9c1cb0b131b232b360811b85600f1660108110612d8c57612d8c613a70565b1a60f81b828281518110612da257612da2613a70565b60200101906001600160f81b031916908160001a90535060049490941c93612dc981613bdb565b9050612d5b565b508315612e1f5760405162461bcd60e51b815260206004820181905260248201527f537472696e67733a20686578206c656e67746820696e73756666696369656e746044820152606401610575565b9392505050565b508054612e329061342a565b6000825580601f10612e42575050565b601f01602090049060005260206000209081019061259591905b80821115612e705760008155600101612e5c565b5090565b600060208284031215612e8657600080fd5b81356001600160e01b031981168114612e1f57600080fd5b80358015158114612eae57600080fd5b919050565b60008060408385031215612ec657600080fd5b82359150612ed660208401612e9e565b90509250929050565b600060208284031215612ef157600080fd5b5035919050565b60005b83811015612f13578181015183820152602001612efb565b50506000910152565b60008151808452612f34816020860160208601612ef8565b601f01601f19169290920160200192915050565b848152608060208201526000612f616080830186612f1c565b8281036040840152612f738186612f1c565b91505082606083015295945050505050565b851515815284602082015260ff8416604082015260ff8316606082015260a060808201526000612fb860a0830184612f1c565b979650505050505050565b80356001600160a01b0381168114612eae57600080fd5b60008060408385031215612fed57600080fd5b82359150612ed660208401612fc3565b6000806040838503121561301057600080fd5b50508035926020909101359150565b6020815281516020820152600060208301516080604084015261304560a0840182612f1c565b90506040840151601f198483030160608501526130628282612f1c565b915050606084015160808401528091505092915050565b60008060006060848603121561308e57600080fd5b8335925061309e60208501612fc3565b91506130ac60408501612e9e565b90509250925092565b634e487b7160e01b600052602160045260246000fd5b600481106130db576130db6130b5565b9052565b600381106130db576130db6130b5565b601081106130db576130db6130b5565b60c0810161310d82896130cb565b61311a60208301886130df565b61312760408301876130ef565b6060820194909452911515608083015260a0909101529392505050565b600080600080600060a0868803121561315c57600080fd5b8535945060208601356004811061317257600080fd5b935060408601356003811061318657600080fd5b925060608601356010811061319a57600080fd5b91506131a860808701612e9e565b90509295509295909350565b634e487b7160e01b600052604160045260246000fd5b600082601f8301126131db57600080fd5b813567ffffffffffffffff808211156131f6576131f66131b4565b604051601f8301601f19908116603f0116810190828211818310171561321e5761321e6131b4565b8160405283815286602085880101111561323757600080fd5b836020870160208301376000602085830101528094505050505092915050565b6000806000806080858703121561326d57600080fd5b84359350602085013567ffffffffffffffff8082111561328c57600080fd5b613298888389016131ca565b945060408701359150808211156132ae57600080fd5b506132bb878288016131ca565b949793965093946060013593505050565b6020808252825182820181905260009190848201906040850190845b81811015613304578351835292840192918401916001016132e8565b50909695505050505050565b60208082526019908201527f43616c6c6572206973206e6f7420612063657274696669657200000000000000604082015260600190565b60208082526019908201527f4964206d7573742062652067726561746572207468616e203000000000000000604082015260600190565b6020808252601a908201527f546869732073747564656e7420646f65736e2774206578697374000000000000604082015260600190565b6e02232b632ba329039ba3ab232b73a1608d1b8152600082516133df81600f850160208701612ef8565b91909101600f0192915050565b634e487b7160e01b600052601160045260246000fd5b63ffffffff818116838216028082169190828114613422576134226133ec565b505092915050565b600181811c9082168061343e57607f821691505b60208210810361345e57634e487b7160e01b600052602260045260246000fd5b50919050565b63026b0bc160e51b815260008251613483816004850160208701612ef8565b67081c995858da195960c21b6004939091019283015250600c01919050565b602081526000612e1f6020830184612f1c565b6f021b0b63632b91034b9903737ba1030960851b8152600082516134e0816010850160208701612ef8565b651030b236b4b760d11b6010939091019283015250601601919050565b7f54686973206164647265737320697320616c726561647920612000000000000081526000825161353581601a850160208701612ef8565b91909101601a0192915050565b65023b930b73a160d51b815260008351613563816006850160208801612ef8565b600160fd1b6006918401918201528351613584816007840160208801612ef8565b01600701949350505050565b63ffffffff8181168382160190808211156135ad576135ad6133ec565b5092915050565b600481106135c4576135c46130b5565b60f81b9052565b600381106135c4576135c46130b5565b601081106135c4576135c46130b5565b8481526135fb60208201856135b4565b61360860218201846135cb565b61361560228201836135db565b602301949350505050565b84815261363060208201856135b4565b61363d60218201846135cb565b61364a60228201836135db565b6544454c45544560d01b6023820152602901949350505050565b61366e81836135b4565b600101919050565b61366e81836135cb565b61366e81836135db565b6602232b632ba32960cd1b8152600085516136ac816007850160208a01612ef8565b8083019050600160fd1b80600783015286516136cf816008850160208b01612ef8565b6008920191820181905285516136ec816009850160208a01612ef8565b6009920191820152835161370781600a840160208801612ef8565b01600a019695505050505050565b84815261372560208201856135b4565b61373260218201846135cb565b61373f60228201836135db565b664345525449465960c81b6023820152602a01949350505050565b67021b2b93a34b33c960c51b81526000855161377d816008850160208a01612ef8565b8083019050600160fd1b80600883015286516137a0816009850160208b01612ef8565b6009920191820181905285516137bd81600a850160208a01612ef8565b600a92019182015283516137d881600b840160208801612ef8565b01600b019695505050505050565b634e487b7160e01b600052601260045260246000fd5b60008261380b5761380b6137e6565b500690565b60008261381f5761381f6137e6565b500490565b8082018082111561053b5761053b6133ec565b63026b4b7160e51b815260008251613483816004850160208701612ef8565b7502a3434b99030b2323932b9b99034b9903737ba1030960551b815260008251613887816016850160208701612ef8565b9190910160160192915050565b6602932bb37b5b2960cd1b8152600083516138b6816007850160208801612ef8565b600160fd1b60079184019182015283516138d7816008840160208801612ef8565b01600801949350505050565b63ffffffff8281168282160390808211156135ad576135ad6133ec565b60ff828116828216039081111561053b5761053b6133ec565b60006001820161392b5761392b6133ec565b5060010190565b601f8211156107ce57600081815260208120601f850160051c810160208610156139595750805b601f850160051c820191505b818110156114d357828155600101613965565b815167ffffffffffffffff811115613992576139926131b4565b6139a6816139a0845461342a565b84613932565b602080601f8311600181146139db57600084156139c35750858301515b600019600386901b1c1916600185901b1785556114d3565b600085815260208120601f198616915b82811015613a0a578886015182559484019460019091019084016139eb565b5085821015613a285787850151600019600388901b60f8161c191681555b5050505050600190811b01905550565b600060ff821660ff8103613a4e57613a4e6133ec565b60010192915050565b60ff818116838216019081111561053b5761053b6133ec565b634e487b7160e01b600052603260045260246000fd5b84815260808101613a9a60208301866130cb565b613aa760408301856130df565b613ab460608301846130ef565b95945050505050565b6000808354613acb8161342a565b60018281168015613ae35760018114613af857613b27565b60ff1984168752821515830287019450613b27565b8760005260208060002060005b85811015613b1e5781548a820152908401908201613b05565b50505082870194505b50929695505050505050565b60008251613b45818460208701612ef8565b9190910192915050565b7f416363657373436f6e74726f6c3a206163636f756e7420000000000000000000815260008351613b87816017850160208801612ef8565b7001034b99036b4b9b9b4b733903937b6329607d1b6017918401918201528351613bb8816028840160208801612ef8565b01602801949350505050565b808202811582820484141761053b5761053b6133ec565b600081613bea57613bea6133ec565b50600019019056feb431a69783a2491a0c400ff16dab32cd442abf8fe5af63a526a7248d730192f8562618dbcf74b61ae5b0f229fe40ba6d5b6ae6b4248f8c89a870dda7c77135f6d646ae07eb0d0f77457502a65e7407930dff4cd4fd99abc6aac87a753f4c8a42a26469706673582212200ce1489dcfda4bbaee2f8155322f83f6ee10d5fa3df4735b17e6e1ca0cbdf7eb64736f6c634300081300334bbeb6fd3e5222e55f2f8b0c35bc228e0a06a25d0da772fdb02c3b92fa004f88d646ae07eb0d0f77457502a65e7407930dff4cd4fd99abc6aac87a753f4c8a42",
  "linkReferences": {},
  "deployedLinkReferences": {}
}