{
  "_format": "hh-sol-artifact-1",
  "contractName": "Certifications",
  "sourceName": "contracts/Certifications.sol",
  "abi": [
    {
      "inputs": [
        {
          "internalType": "address",
          "name": "certifier_admin1",
          "type": "address"
        },
        {
          "internalType": "address",
          "name": "certifier_admin2",
          "type": "address"
        }
      ],
      "stateMutability": "nonpayable",
      "type": "constructor"
    },
    {
      "anonymous": false,
      "inputs": [
        {
          "indexed": true,
          "internalType": "bytes32",
          "name": "role",
          "type": "bytes32"
        },
        {
          "indexed": true,
          "internalType": "bytes32",
          "name": "previousAdminRole",
          "type": "bytes32"
        },
        {
          "indexed": true,
          "internalType": "bytes32",
          "name": "newAdminRole",
          "type": "bytes32"
        }
      ],
      "name": "RoleAdminChanged",
      "type": "event"
    },
    {
      "anonymous": false,
      "inputs": [
        {
          "indexed": true,
          "internalType": "bytes32",
          "name": "role",
          "type": "bytes32"
        },
        {
          "indexed": true,
          "internalType": "address",
          "name": "account",
          "type": "address"
        },
        {
          "indexed": true,
          "internalType": "address",
          "name": "sender",
          "type": "address"
        }
      ],
      "name": "RoleGranted",
      "type": "event"
    },
    {
      "anonymous": false,
      "inputs": [
        {
          "indexed": true,
          "internalType": "bytes32",
          "name": "role",
          "type": "bytes32"
        },
        {
          "indexed": true,
          "internalType": "address",
          "name": "account",
          "type": "address"
        },
        {
          "indexed": true,
          "internalType": "address",
          "name": "sender",
          "type": "address"
        }
      ],
      "name": "RoleRevoked",
      "type": "event"
    },
    {
      "inputs": [],
      "name": "CERTIFIER",
      "outputs": [
        {
          "internalType": "bytes32",
          "name": "",
          "type": "bytes32"
        }
      ],
      "stateMutability": "view",
      "type": "function"
    },
    {
      "inputs": [],
      "name": "CERTIFIER_ADMIN",
      "outputs": [
        {
          "internalType": "bytes32",
          "name": "",
          "type": "bytes32"
        }
      ],
      "stateMutability": "view",
      "type": "function"
    },
    {
      "inputs": [],
      "name": "DEFAULT_ADMIN_ROLE",
      "outputs": [
        {
          "internalType": "bytes32",
          "name": "",
          "type": "bytes32"
        }
      ],
      "stateMutability": "view",
      "type": "function"
    },
    {
      "inputs": [],
      "name": "MAX_CERTIFIERS",
      "outputs": [
        {
          "internalType": "uint8",
          "name": "",
          "type": "uint8"
        }
      ],
      "stateMutability": "view",
      "type": "function"
    },
    {
      "inputs": [],
      "name": "MAX_CERTIFIERS_ADMIN",
      "outputs": [
        {
          "internalType": "uint8",
          "name": "",
          "type": "uint8"
        }
      ],
      "stateMutability": "view",
      "type": "function"
    },
    {
      "inputs": [],
      "name": "MIN_CERTIFIERS_ADMIN",
      "outputs": [
        {
          "internalType": "uint8",
          "name": "",
          "type": "uint8"
        }
      ],
      "stateMutability": "view",
      "type": "function"
    },
    {
      "inputs": [],
      "name": "PERCENT_TO_CERTIFY",
      "outputs": [
        {
          "internalType": "uint8",
          "name": "",
          "type": "uint8"
        }
      ],
      "stateMutability": "view",
      "type": "function"
    },
    {
      "inputs": [],
      "name": "PERCENT_TO_EDIT_CERTIFICATE",
      "outputs": [
        {
          "internalType": "uint8",
          "name": "",
          "type": "uint8"
        }
      ],
      "stateMutability": "view",
      "type": "function"
    },
    {
      "inputs": [],
      "name": "PERCENT_TO_GRANT_CERTIFIER",
      "outputs": [
        {
          "internalType": "uint8",
          "name": "",
          "type": "uint8"
        }
      ],
      "stateMutability": "view",
      "type": "function"
    },
    {
      "inputs": [],
      "name": "PERCENT_TO_GRANT_CERTIFIER_ADMIN",
      "outputs": [
        {
          "internalType": "uint8",
          "name": "",
          "type": "uint8"
        }
      ],
      "stateMutability": "view",
      "type": "function"
    },
    {
      "inputs": [],
      "name": "PERCENT_TO_REVOKE_CERTIFIER",
      "outputs": [
        {
          "internalType": "uint8",
          "name": "",
          "type": "uint8"
        }
      ],
      "stateMutability": "view",
      "type": "function"
    },
    {
      "inputs": [],
      "name": "PERCENT_TO_REVOKE_CERTIFIER_ADMIN",
      "outputs": [
        {
          "internalType": "uint8",
          "name": "",
          "type": "uint8"
        }
      ],
      "stateMutability": "view",
      "type": "function"
    },
    {
      "inputs": [
        {
          "internalType": "uint256",
          "name": "a",
          "type": "uint256"
        },
        {
          "internalType": "uint256",
          "name": "b",
          "type": "uint256"
        }
      ],
      "name": "ceilUDiv",
      "outputs": [
        {
          "internalType": "uint256",
          "name": "",
          "type": "uint256"
        }
      ],
      "stateMutability": "pure",
      "type": "function"
    },
    {
      "inputs": [
        {
          "internalType": "bytes32",
          "name": "role",
          "type": "bytes32"
        }
      ],
      "name": "getRoleAdmin",
      "outputs": [
        {
          "internalType": "bytes32",
          "name": "",
          "type": "bytes32"
        }
      ],
      "stateMutability": "view",
      "type": "function"
    },
    {
      "inputs": [
        {
          "internalType": "bytes32",
          "name": "roleHash",
          "type": "bytes32"
        },
        {
          "internalType": "address",
          "name": "target",
          "type": "address"
        }
      ],
      "name": "grantAnyRole",
      "outputs": [],
      "stateMutability": "nonpayable",
      "type": "function"
    },
    {
      "inputs": [
        {
          "internalType": "bytes32",
          "name": "role",
          "type": "bytes32"
        },
        {
          "internalType": "address",
          "name": "account",
          "type": "address"
        }
      ],
      "name": "grantRole",
      "outputs": [],
      "stateMutability": "nonpayable",
      "type": "function"
    },
    {
      "inputs": [
        {
          "internalType": "bytes32",
          "name": "role",
          "type": "bytes32"
        },
        {
          "internalType": "address",
          "name": "account",
          "type": "address"
        }
      ],
      "name": "hasRole",
      "outputs": [
        {
          "internalType": "bool",
          "name": "",
          "type": "bool"
        }
      ],
      "stateMutability": "view",
      "type": "function"
    },
    {
      "inputs": [
        {
          "internalType": "bytes32",
          "name": "",
          "type": "bytes32"
        },
        {
          "internalType": "address",
          "name": "",
          "type": "address"
        }
      ],
      "name": "renounceRole",
      "outputs": [],
      "stateMutability": "nonpayable",
      "type": "function"
    },
    {
      "inputs": [
        {
          "internalType": "bytes32",
          "name": "roleHash",
          "type": "bytes32"
        },
        {
          "internalType": "address",
          "name": "target",
          "type": "address"
        }
      ],
      "name": "revokeAnyRole",
      "outputs": [],
      "stateMutability": "nonpayable",
      "type": "function"
    },
    {
      "inputs": [
        {
          "internalType": "bytes32",
          "name": "role",
          "type": "bytes32"
        },
        {
          "internalType": "address",
          "name": "account",
          "type": "address"
        }
      ],
      "name": "revokeRole",
      "outputs": [],
      "stateMutability": "nonpayable",
      "type": "function"
    },
    {
      "inputs": [
        {
          "internalType": "bytes4",
          "name": "interfaceId",
          "type": "bytes4"
        }
      ],
      "name": "supportsInterface",
      "outputs": [
        {
          "internalType": "bool",
          "name": "",
          "type": "bool"
        }
      ],
      "stateMutability": "view",
      "type": "function"
    }
  ],
  "bytecode": "0x60806040523480156200001157600080fd5b5060405162003bca38038062003bca83398181016040528101906200003791906200099c565b62000053674dbd682bd4fc310660c01b620007b660201b60201c565b6200006f6714f96b5406597f9960c01b620007b660201b60201c565b6200008b670df07991caef353d60c01b620007b660201b60201c565b620000a767ae62ea1482f5a88360c01b620007b660201b60201c565b600073ffffffffffffffffffffffffffffffffffffffff168273ffffffffffffffffffffffffffffffffffffffff160362000119576040517f08c379a0000000000000000000000000000000000000000000000000000000008152600401620001109062000a6a565b60405180910390fd5b6200013567163e0e75e54e0c8a60c01b620007b660201b60201c565b6200015167a4e6a19cbfe5167960c01b620007b660201b60201c565b6200016d675c78a7177eb1a8fb60c01b620007b660201b60201c565b6200018967bf4499ff51c0c22160c01b620007b660201b60201c565b600073ffffffffffffffffffffffffffffffffffffffff168173ffffffffffffffffffffffffffffffffffffffff1603620001fb576040517f08c379a0000000000000000000000000000000000000000000000000000000008152600401620001f29062000b02565b60405180910390fd5b6200021767822948be4d3ef9a760c01b620007b660201b60201c565b620002336796129956313adf1b60c01b620007b660201b60201c565b6200024f67a37df02138054e5260c01b620007b660201b60201c565b6200026b67b057154329c49bf860c01b620007b660201b60201c565b8073ffffffffffffffffffffffffffffffffffffffff168273ffffffffffffffffffffffffffffffffffffffff1603620002dc576040517f08c379a0000000000000000000000000000000000000000000000000000000008152600401620002d39062000b9a565b60405180910390fd5b620002f867e3a8e90515cce0b760c01b620007b660201b60201c565b6200031467b5a228e10270e22560c01b620007b660201b60201c565b62000330673ddb288b7f8fde5860c01b620007b660201b60201c565b620003627f4bbeb6fd3e5222e55f2f8b0c35bc228e0a06a25d0da772fdb02c3b92fa004f8883620007b960201b60201c565b6200037e6728ffed5c4bbb136d60c01b620007b660201b60201c565b6200039a671a14e86b1536e0c460c01b620007b660201b60201c565b620003cc7f4bbeb6fd3e5222e55f2f8b0c35bc228e0a06a25d0da772fdb02c3b92fa004f8882620007cf60201b60201c565b620003e8678190894182f1322760c01b620007b660201b60201c565b6040518060e00160405280600263ffffffff168152602001600260ff1663ffffffff168152602001600f60ff1663ffffffff168152602001605060ff168152602001605060ff1681526020017f4bbeb6fd3e5222e55f2f8b0c35bc228e0a06a25d0da772fdb02c3b92fa004f8881526020016040516020016200046b9062000c17565b604051602081830303815290604052620004859062000c77565b815250600160007f4bbeb6fd3e5222e55f2f8b0c35bc228e0a06a25d0da772fdb02c3b92fa004f88815260200190815260200160002060008201518160000160006101000a81548163ffffffff021916908363ffffffff16021790555060208201518160000160046101000a81548163ffffffff021916908363ffffffff16021790555060408201518160000160086101000a81548163ffffffff021916908363ffffffff160217905550606082015181600001600c6101000a81548160ff021916908360ff160217905550608082015181600001600d6101000a81548160ff021916908360ff16021790555060a0820151816001015560c08201518160020155905050620005a5675e914cc764a08bdc60c01b620007b660201b60201c565b620005c16759cb1221e0215d5e60c01b620007b660201b60201c565b620005f47fd646ae07eb0d0f77457502a65e7407930dff4cd4fd99abc6aac87a753f4c8a426000620007b960201b60201c565b62000610676d76b91fe9de0f8c60c01b620007b660201b60201c565b6040518060e00160405280600063ffffffff168152602001600063ffffffff168152602001600f60ff1663ffffffff168152602001605060ff168152602001605060ff1681526020017f4bbeb6fd3e5222e55f2f8b0c35bc228e0a06a25d0da772fdb02c3b92fa004f888152602001604051602001620006909062000d37565b604051602081830303815290604052620006aa9062000c77565b815250600160007fd646ae07eb0d0f77457502a65e7407930dff4cd4fd99abc6aac87a753f4c8a42815260200190815260200160002060008201518160000160006101000a81548163ffffffff021916908363ffffffff16021790555060208201518160000160046101000a81548163ffffffff021916908363ffffffff16021790555060408201518160000160086101000a81548163ffffffff021916908363ffffffff160217905550606082015181600001600c6101000a81548160ff021916908360ff160217905550608082015181600001600d6101000a81548160ff021916908360ff16021790555060a0820151816001015560c08201518160020155905050505062000d4e565b50565b620007cb8282620007cf60201b60201c565b5050565b620007e18282620008c060201b60201c565b620008bc57600160008084815260200190815260200160002060000160008373ffffffffffffffffffffffffffffffffffffffff1673ffffffffffffffffffffffffffffffffffffffff16815260200190815260200160002060006101000a81548160ff021916908315150217905550620008616200092a60201b60201c565b73ffffffffffffffffffffffffffffffffffffffff168173ffffffffffffffffffffffffffffffffffffffff16837f2f8788117e7eff1d82e926ec794901d17c78024a50270940304540a733656f0d60405160405180910390a45b5050565b600080600084815260200190815260200160002060000160008373ffffffffffffffffffffffffffffffffffffffff1673ffffffffffffffffffffffffffffffffffffffff16815260200190815260200160002060009054906101000a900460ff16905092915050565b600033905090565b600080fd5b600073ffffffffffffffffffffffffffffffffffffffff82169050919050565b6000620009648262000937565b9050919050565b620009768162000957565b81146200098257600080fd5b50565b60008151905062000996816200096b565b92915050565b60008060408385031215620009b657620009b562000932565b5b6000620009c68582860162000985565b9250506020620009d98582860162000985565b9150509250929050565b600082825260208201905092915050565b7f4365727469666965722061646d696e3120616464726573732063616e6e6f742060008201527f6265203000000000000000000000000000000000000000000000000000000000602082015250565b600062000a52602483620009e3565b915062000a5f82620009f4565b604082019050919050565b6000602082019050818103600083015262000a858162000a43565b9050919050565b7f4365727469666965722061646d696e3220616464726573732063616e6e6f742060008201527f6265203000000000000000000000000000000000000000000000000000000000602082015250565b600062000aea602483620009e3565b915062000af78262000a8c565b604082019050919050565b6000602082019050818103600083015262000b1d8162000adb565b9050919050565b7f436572746966696572206164647265737365732063616e6e6f7420626520746860008201527f652073616d650000000000000000000000000000000000000000000000000000602082015250565b600062000b82602683620009e3565b915062000b8f8262000b24565b604082019050919050565b6000602082019050818103600083015262000bb58162000b73565b9050919050565b600081905092915050565b7f4345525449464945525f41444d494e0000000000000000000000000000000000600082015250565b600062000bff600f8362000bbc565b915062000c0c8262000bc7565b600f82019050919050565b600062000c248262000bf0565b9150819050919050565b600081519050919050565b6000819050602082019050919050565b6000819050919050565b600062000c61825162000c49565b80915050919050565b600082821b905092915050565b600062000c848262000c2e565b8262000c908462000c39565b905062000c9d8162000c53565b9250602082101562000ce05762000cdb7fffffffffffffffffffffffffffffffffffffffffffffffffffffffffffffffff8360200360080262000c6a565b831692505b5050919050565b7f4345525449464945520000000000000000000000000000000000000000000000600082015250565b600062000d1f60098362000bbc565b915062000d2c8262000ce7565b600982019050919050565b600062000d448262000d10565b9150819050919050565b612e6c8062000d5e6000396000f3fe608060405234801561001057600080fd5b50600436106101375760003560e01c806360b62f08116100b8578063a217fddf1161007c578063a217fddf1461032e578063b71129c31461034c578063b86bc74f14610368578063bf80209114610386578063d547741f146103b6578063e05f2fb4146103d257610137565b806360b62f08146102885780636bc6421b146102a45780637cd29fb7146102c257806391d14854146102e05780639e3399091461031057610137565b80632f2ff15d116100ff5780632f2ff15d146101f657806333b72e491461021257806336568abe146102305780634da11a201461024c5780635907ebea1461026a57610137565b806301ffc9a71461013c5780630f68794a1461016c5780631a9cfe281461018a578063248a9ca3146101a85780632cd94e4f146101d8575b600080fd5b61015660048036038101906101519190612210565b6103f0565b6040516101639190612258565b60405180910390f35b61017461046a565b604051610181919061228f565b60405180910390f35b61019261046f565b60405161019f919061228f565b60405180910390f35b6101c260048036038101906101bd91906122e0565b610474565b6040516101cf919061231c565b60405180910390f35b6101e0610493565b6040516101ed919061228f565b60405180910390f35b610210600480360381019061020b9190612395565b610498565b005b61021a6104b9565b604051610227919061228f565b60405180910390f35b61024a60048036038101906102459190612395565b6104be565b005b610254610535565b604051610261919061228f565b60405180910390f35b61027261053a565b60405161027f919061228f565b60405180910390f35b6102a2600480360381019061029d9190612395565b61053f565b005b6102ac610ba5565b6040516102b9919061228f565b60405180910390f35b6102ca610baa565b6040516102d7919061228f565b60405180910390f35b6102fa60048036038101906102f59190612395565b610baf565b6040516103079190612258565b60405180910390f35b610318610c19565b604051610325919061228f565b60405180910390f35b610336610c1e565b604051610343919061231c565b60405180910390f35b61036660048036038101906103619190612395565b610c25565b005b6103706115ca565b60405161037d919061231c565b60405180910390f35b6103a0600480360381019061039b919061240b565b6115ee565b6040516103ad919061245a565b60405180910390f35b6103d060048036038101906103cb9190612395565b6116eb565b005b6103da61170c565b6040516103e7919061231c565b60405180910390f35b60007f7965db0b000000000000000000000000000000000000000000000000000000007bffffffffffffffffffffffffffffffffffffffffffffffffffffffff1916827bffffffffffffffffffffffffffffffffffffffffffffffffffffffff19161480610463575061046282611730565b5b9050919050565b605081565b605081565b6000806000838152602001908152602001600020600101549050919050565b605081565b6104a182610474565b6104aa8161179a565b6104b483836117ae565b505050565b600281565b6104d267515d414290ef63a760c01b61188e565b6104e667408d4005470649cf60c01b61188e565b6104fa679c54a3cc10a34a3d60c01b61188e565b6040517f08c379a000000000000000000000000000000000000000000000000000000000815260040161052c906124f8565b60405180910390fd5b605081565b600f81565b610553679d26a0bcae16f15560c01b61188e565b6105676762560a22786c9d8960c01b61188e565b61057b676ad05dd6ad0c5e8e60c01b61188e565b60006001600084815260200190815260200160002090506105a667b018fb771a8f126a60c01b61188e565b6105ba673838e17e05cad86e60c01b61188e565b6105ce673b992ef7312a36a260c01b61188e565b8060000160009054906101000a900463ffffffff1663ffffffff168160000160089054906101000a900463ffffffff1663ffffffff1611816002015460405160200161061a9190612539565b6040516020818303038152906040526040516020016106399190612611565b60405160208183030381529060405290610689576040517f08c379a00000000000000000000000000000000000000000000000000000000081526004016106809190612690565b60405180910390fd5b5061069e67d1937d9a9d9ede4b60c01b61188e565b6106b267eba93d2f1c3a372560c01b61188e565b6106c667e583d3490fb5c11a60c01b61188e565b6106da6703c216aef0914c7d60c01b61188e565b6106e8816001015433610baf565b81600201546040516020016106fd9190612539565b60405160208183030381529060405260405160200161071c91906126fe565b6040516020818303038152906040529061076c576040517f08c379a00000000000000000000000000000000000000000000000000000000081526004016107639190612690565b60405180910390fd5b5061078167e929230dacd39fc460c01b61188e565b61079567f0423ad893494d1f60c01b61188e565b6107a9670e4635f8420cba4d60c01b61188e565b6107bd67a8f356ae64e80fb260c01b61188e565b600015156107cb8484610baf565b15151481600201546040516020016107e39190612539565b6040516020818303038152906040526040516020016108029190612759565b60405160208183030381529060405290610852576040517f08c379a00000000000000000000000000000000000000000000000000000000081526004016108499190612690565b60405180910390fd5b506108676787081979864afeae60c01b61188e565b61087b677547dde3e6de66c160c01b61188e565b61088f6776a3d74fa8fa545760c01b61188e565b600082846040516020016108a4929190612813565b6040516020818303038152906040528051906020012090506108d0674ed9ea8c9338f00060c01b61188e565b6108e4679baa3422236fc69f60c01b61188e565b6108f2818360010154611891565b61090667c5044043363bb23760c01b61188e565b61091a67bfc6b0f370d7024960c01b61188e565b600015156002600083815260200190815260200160002060030160003373ffffffffffffffffffffffffffffffffffffffff1673ffffffffffffffffffffffffffffffffffffffff16815260200190815260200160002060009054906101000a900460ff161515036109e35761099a679ccb8433f30b7f6160c01b61188e565b6109ae670842a97201189b8b60c01b61188e565b6109c267ca8d401c43f5f9d760c01b61188e565b6109de60026000838152602001908152602001600020336119fc565b6109f8565b6109f767e22dcaa2865f121160c01b61188e565b5b610a0c674aba95960958e73260c01b61188e565b610a206730249e749f45b5e460c01b61188e565b610a3f82600001600c9054906101000a900460ff1660ff1660646115ee565b600160008460010154815260200190815260200160002060000160009054906101000a900463ffffffff1663ffffffff16610a7a9190612879565b6002600083815260200190815260200160002060020160009054906101000a900460ff1660ff1610610b8a57610aba67374dfd98b823c8cf60c01b61188e565b610ace6720270532058f02e560c01b61188e565b610ae2679e04f1a5c5bda7df60c01b61188e565b610afd60026000838152602001908152602001600020611c7e565b610b1167d618060faf473a2a60c01b61188e565b610b256759aacab69e3a1cf860c01b61188e565b610b2f84846117ae565b610b43671f8604b2e035df8c60c01b61188e565b60018260000160008282829054906101000a900463ffffffff16610b6791906128cb565b92506101000a81548163ffffffff021916908363ffffffff160217905550610b9f565b610b9e674341521415b393ff60c01b61188e565b5b50505050565b603281565b605081565b600080600084815260200190815260200160002060000160008373ffffffffffffffffffffffffffffffffffffffff1673ffffffffffffffffffffffffffffffffffffffff16815260200190815260200160002060009054906101000a900460ff16905092915050565b600f81565b6000801b81565b610c39673abda3db58ee88d660c01b61188e565b610c4d67d0a65ecdfb35759e60c01b61188e565b610c6167fecb9a5516d562ad60c01b61188e565b6000600160008481526020019081526020016000209050610c8c6711522e4c80b8acf560c01b61188e565b610ca0675a87c8131b0f347660c01b61188e565b610cb467b52e37c57f13f03660c01b61188e565b8060000160049054906101000a900463ffffffff1663ffffffff168160000160009054906101000a900463ffffffff1663ffffffff16118160020154604051602001610d009190612539565b604051602081830303815290604052604051602001610d1f9190612929565b60405160208183030381529060405290610d6f576040517f08c379a0000000000000000000000000000000000000000000000000000000008152600401610d669190612690565b60405180910390fd5b50610d8467c6bc374fa7feff0160c01b61188e565b610d986786ac1e62d24a349860c01b61188e565b610dac679e5c2cdd766b16de60c01b61188e565b610dc06753aaaf9320fe18fd60c01b61188e565b610dca8383610baf565b8160020154604051602001610ddf9190612539565b604051602081830303815290604052604051602001610dfe9190612984565b60405160208183030381529060405290610e4e576040517f08c379a0000000000000000000000000000000000000000000000000000000008152600401610e459190612690565b60405180910390fd5b50610e6367ab49e147b91272b360c01b61188e565b610e77679ab8a363c1db47f760c01b61188e565b610e8b67c80f0b231c338b2d60c01b61188e565b610e9f675397bbbeef836ad860c01b61188e565b610ead816001015433610baf565b8160020154604051602001610ec29190612539565b604051602081830303815290604052604051602001610ee191906126fe565b60405160208183030381529060405290610f31576040517f08c379a0000000000000000000000000000000000000000000000000000000008152600401610f289190612690565b60405180910390fd5b50610f46679b6d6670acbbe93360c01b61188e565b610f5a678dba3cfcdd7ab4ab60c01b61188e565b610f6e672e1f532eb4156eb560c01b61188e565b60008284604051602001610f839291906129f6565b604051602081830303815290604052805190602001209050610faf67b763b8910a23efee60c01b61188e565b610fc367acd6a8c8f4d574b660c01b61188e565b610fd1818360010154611891565b610fe5677697096d64270cdb60c01b61188e565b610ff9673318f6946f78197860c01b61188e565b600015156002600083815260200190815260200160002060030160003373ffffffffffffffffffffffffffffffffffffffff1673ffffffffffffffffffffffffffffffffffffffff16815260200190815260200160002060009054906101000a900460ff161515036110c25761107967d4c4533d7e9a60a660c01b61188e565b61108d6732954512786739f560c01b61188e565b6110a16724bcd6ffdfbd0d4d60c01b61188e565b6110bd60026000838152602001908152602001600020336119fc565b6110d7565b6110d6677338a703ca5a2a9660c01b61188e565b5b6110eb673b1e688b7d79d00d60c01b61188e565b6110ff676bea465bb441461060c01b61188e565b81600101548414158015611192575061112d82600001600d9054906101000a900460ff1660ff1660646115ee565b600160008460010154815260200190815260200160002060000160009054906101000a900463ffffffff1663ffffffff166111689190612879565b6002600083815260200190815260200160002060020160009054906101000a900460ff1660ff1610155b80156111ae57506111ad67e8c1fa74bacd7fbb60c01b611dcb565b5b8061126e575081600101548414801561125157506111e182600001600d9054906101000a900460ff1660ff1660646115ee565b60018060008560010154815260200190815260200160002060000160009054906101000a900463ffffffff166112179190612a2d565b63ffffffff166112279190612879565b6002600083815260200190815260200160002060020160009054906101000a900460ff1660ff1610155b801561126d575061126c671f5319feb6477e3560c01b611dcb565b5b5b156115af5761128767f438d58dfb1be18260c01b61188e565b61129b678ef10dcaeac9036f60c01b61188e565b6112af6735f2056c8483d80460c01b61188e565b60005b6004548110156114de576112d067c187d7d65cf65af260c01b61188e565b6112e467ade7a62c071e519d60c01b61188e565b60011515600260006003600085815260200190815260200160002054815260200190815260200160002060030160008673ffffffffffffffffffffffffffffffffffffffff1673ffffffffffffffffffffffffffffffffffffffff16815260200190815260200160002060009054906101000a900460ff161515148015611393575084600260006003600085815260200190815260200160002054815260200190815260200160002060010154145b156114b6576113ac675439b2c4cd16482360c01b61188e565b6113c0672f6377f918fc3e7460c01b61188e565b6001600260006003600085815260200190815260200160002054815260200190815260200160002060020160008282829054906101000a900460ff166114069190612a65565b92506101000a81548160ff021916908360ff1602179055506114326762c646c22c573f3e60c01b61188e565b6000600260006003600085815260200190815260200160002054815260200190815260200160002060030160008673ffffffffffffffffffffffffffffffffffffffff1673ffffffffffffffffffffffffffffffffffffffff16815260200190815260200160002060006101000a81548160ff0219169083151502179055506114cb565b6114ca67220ad4741fc3df5d60c01b61188e565b5b80806114d690612a9a565b9150506112b2565b506114f36799a0b0988af0867760c01b61188e565b611507675d49ac61be8ebd7160c01b61188e565b61152260026000838152602001908152602001600020611c7e565b61153667ac18a9a1ec69e6b860c01b61188e565b61154a67698bf9a5753ef89160c01b61188e565b6115548484611dd6565b611568674a780f79854977d860c01b61188e565b60018260000160008282829054906101000a900463ffffffff1661158c9190612a2d565b92506101000a81548163ffffffff021916908363ffffffff1602179055506115c4565b6115c36769ad2177cecd222f60c01b61188e565b5b50505050565b7fd646ae07eb0d0f77457502a65e7407930dff4cd4fd99abc6aac87a753f4c8a4281565b60006116046733f37bd48df4876c60c01b611eb7565b6116186768b3a8a4e889f84260c01b611eb7565b61162c67d5b051e486bd52be60c01b611eb7565b6000828461163a9190612b11565b0361168e5761165367128daeffdb4e358560c01b611eb7565b61166767b117bab6fd059f6d60c01b611eb7565b61167b6758b4cba292bc8eb560c01b611eb7565b81836116879190612b42565b90506116e5565b6116a26772d7d347267d9ce060c01b611eb7565b6116b667323a46e8d53a6bad60c01b611eb7565b6116ca67c59b66a618375d4a60c01b611eb7565b600182846116d89190612b42565b6116e29190612b73565b90505b92915050565b6116f482610474565b6116fd8161179a565b6117078383611dd6565b505050565b7f4bbeb6fd3e5222e55f2f8b0c35bc228e0a06a25d0da772fdb02c3b92fa004f8881565b60007f01ffc9a7000000000000000000000000000000000000000000000000000000007bffffffffffffffffffffffffffffffffffffffffffffffffffffffff1916827bffffffffffffffffffffffffffffffffffffffffffffffffffffffff1916149050919050565b6117ab816117a6611eba565b611ec2565b50565b6117b88282610baf565b61188a57600160008084815260200190815260200160002060000160008373ffffffffffffffffffffffffffffffffffffffff1673ffffffffffffffffffffffffffffffffffffffff16815260200190815260200160002060006101000a81548160ff02191690831515021790555061182f611eba565b73ffffffffffffffffffffffffffffffffffffffff168173ffffffffffffffffffffffffffffffffffffffff16837f2f8788117e7eff1d82e926ec794901d17c78024a50270940304540a733656f0d60405160405180910390a45b5050565b50565b6118a567bdf8a12455256e9760c01b61188e565b6118b967ed9c0b858915e64660c01b61188e565b6118cd67649bd458a200725760c01b61188e565b600015156002600084815260200190815260200160002060000160009054906101000a900460ff161515036119e357611910670b6b16ea080ccdb260c01b61188e565b61192467689b85ae64f251bf60c01b61188e565b60016002600084815260200190815260200160002060000160006101000a81548160ff0219169083151502179055506119676735e2a6e6763de1be60c01b61188e565b81600360006004548152602001908152602001600020819055506119956709e04ae92e1584c060c01b61188e565b6001600460008282546119a89190612b73565b925050819055506119c3672117bb302f321a4960c01b61188e565b8060026000848152602001908152602001600020600101819055506119f8565b6119f767918f30a7fad8441260c01b61188e565b5b5050565b611a1067a2c40f143ef7e8de60c01b611f47565b611a246719d5db820fd4f0e360c01b611f47565b611a386713d62de73cc5b8d960c01b611f47565b611a4c6724b0c300ee517d3360c01b611f47565b600015158260030160008373ffffffffffffffffffffffffffffffffffffffff1673ffffffffffffffffffffffffffffffffffffffff16815260200190815260200160002060009054906101000a900460ff16151514611ae1576040517f08c379a0000000000000000000000000000000000000000000000000000000008152600401611ad890612bf3565b60405180910390fd5b611af5676d6f0cd19c4afcc160c01b611f47565b611b0967aa76106b6ccc10b360c01b611f47565b808260040160008460020160019054906101000a900460ff1660ff16815260200190815260200160002060006101000a81548173ffffffffffffffffffffffffffffffffffffffff021916908373ffffffffffffffffffffffffffffffffffffffff160217905550611b85679e6a3fb451c22e8560c01b611f47565b81600201600181819054906101000a900460ff1680929190611ba690612c13565b91906101000a81548160ff021916908360ff16021790555050611bd367a8d75863737fcd5d60c01b611f47565b60018260030160008373ffffffffffffffffffffffffffffffffffffffff1673ffffffffffffffffffffffffffffffffffffffff16815260200190815260200160002060006101000a81548160ff021916908315150217905550611c4167d727b17ee81468a860c01b611f47565b60018260020160008282829054906101000a900460ff16611c629190612c3c565b92506101000a81548160ff021916908360ff1602179055505050565b611c926715c3adf5da5c6ef060c01b611f47565b611ca66719ec17a1b508eb4460c01b611f47565b60008160020160006101000a81548160ff021916908360ff160217905550611cd867522431d261f2fc9460c01b611f47565b611cec675555b826c236e27260c01b611f47565b60005b8160020160019054906101000a900460ff1660ff168160ff161015611dc757611d22677baa6d8a443802be60c01b611f47565b60008260030160008460040160008560ff16815260200190815260200160002060009054906101000a900473ffffffffffffffffffffffffffffffffffffffff1673ffffffffffffffffffffffffffffffffffffffff1673ffffffffffffffffffffffffffffffffffffffff16815260200190815260200160002060006101000a81548160ff0219169083151502179055508080611dbf90612c13565b915050611cef565b5050565b600060019050919050565b611de08282610baf565b15611eb357600080600084815260200190815260200160002060000160008373ffffffffffffffffffffffffffffffffffffffff1673ffffffffffffffffffffffffffffffffffffffff16815260200190815260200160002060006101000a81548160ff021916908315150217905550611e58611eba565b73ffffffffffffffffffffffffffffffffffffffff168173ffffffffffffffffffffffffffffffffffffffff16837ff6391f5c32d9c69d2a47ea670b442974b53935d1edc7fd64eb21e047a839171b60405160405180910390a45b5050565b50565b600033905090565b611ecc8282610baf565b611f4357611ed981611f4a565b611ee78360001c6020611f77565b604051602001611ef8929190612d09565b6040516020818303038152906040526040517f08c379a0000000000000000000000000000000000000000000000000000000008152600401611f3a9190612690565b60405180910390fd5b5050565b50565b6060611f708273ffffffffffffffffffffffffffffffffffffffff16601460ff16611f77565b9050919050565b606060006002836002611f8a9190612879565b611f949190612b73565b67ffffffffffffffff811115611fad57611fac612d43565b5b6040519080825280601f01601f191660200182016040528015611fdf5781602001600182028036833780820191505090505b5090507f30000000000000000000000000000000000000000000000000000000000000008160008151811061201757612016612d72565b5b60200101907effffffffffffffffffffffffffffffffffffffffffffffffffffffffffffff1916908160001a9053507f78000000000000000000000000000000000000000000000000000000000000008160018151811061207b5761207a612d72565b5b60200101907effffffffffffffffffffffffffffffffffffffffffffffffffffffffffffff1916908160001a905350600060018460026120bb9190612879565b6120c59190612b73565b90505b6001811115612165577f3031323334353637383961626364656600000000000000000000000000000000600f86166010811061210757612106612d72565b5b1a60f81b82828151811061211e5761211d612d72565b5b60200101907effffffffffffffffffffffffffffffffffffffffffffffffffffffffffffff1916908160001a905350600485901c94508061215e90612da1565b90506120c8565b50600084146121a9576040517f08c379a00000000000000000000000000000000000000000000000000000000081526004016121a090612e16565b60405180910390fd5b8091505092915050565b600080fd5b60007fffffffff0000000000000000000000000000000000000000000000000000000082169050919050565b6121ed816121b8565b81146121f857600080fd5b50565b60008135905061220a816121e4565b92915050565b600060208284031215612226576122256121b3565b5b6000612234848285016121fb565b91505092915050565b60008115159050919050565b6122528161223d565b82525050565b600060208201905061226d6000830184612249565b92915050565b600060ff82169050919050565b61228981612273565b82525050565b60006020820190506122a46000830184612280565b92915050565b6000819050919050565b6122bd816122aa565b81146122c857600080fd5b50565b6000813590506122da816122b4565b92915050565b6000602082840312156122f6576122f56121b3565b5b6000612304848285016122cb565b91505092915050565b612316816122aa565b82525050565b6000602082019050612331600083018461230d565b92915050565b600073ffffffffffffffffffffffffffffffffffffffff82169050919050565b600061236282612337565b9050919050565b61237281612357565b811461237d57600080fd5b50565b60008135905061238f81612369565b92915050565b600080604083850312156123ac576123ab6121b3565b5b60006123ba858286016122cb565b92505060206123cb85828601612380565b9150509250929050565b6000819050919050565b6123e8816123d5565b81146123f357600080fd5b50565b600081359050612405816123df565b92915050565b60008060408385031215612422576124216121b3565b5b6000612430858286016123f6565b9250506020612441858286016123f6565b9150509250929050565b612454816123d5565b82525050565b600060208201905061246f600083018461244b565b92915050565b600082825260208201905092915050565b7f596f752063616e27742072656e6f756e636520746f20796f757220726f6c652e60008201527f20506c6561736520636f6e746163742061646d696e7300000000000000000000602082015250565b60006124e2603683612475565b91506124ed82612486565b604082019050919050565b60006020820190508181036000830152612511816124d5565b9050919050565b6000819050919050565b61253361252e826122aa565b612518565b82525050565b60006125458284612522565b60208201915081905092915050565b7f4d61782000000000000000000000000000000000000000000000000000000000815250565b600081519050919050565b600081905092915050565b60005b838110156125ae578082015181840152602081019050612593565b60008484015250505050565b60006125c58261257a565b6125cf8185612585565b93506125df818560208601612590565b80840191505092915050565b7f2072656163686564000000000000000000000000000000000000000000000000815250565b600061261c82612554565b60048201915061262c82846125ba565b9150612637826125eb565b60088201915081905092915050565b6000601f19601f8301169050919050565b60006126628261257a565b61266c8185612475565b935061267c818560208601612590565b61268581612646565b840191505092915050565b600060208201905081810360008301526126aa8184612657565b905092915050565b7f43616c6c6572206973206e6f7420612000000000000000000000000000000000815250565b7f2061646d696e0000000000000000000000000000000000000000000000000000815250565b6000612709826126b2565b60108201915061271982846125ba565b9150612724826126d8565b60068201915081905092915050565b7f54686973206164647265737320697320616c7265616479206120000000000000815250565b600061276482612733565b601a8201915061277482846125ba565b915081905092915050565b60008160601b9050919050565b60006127978261277f565b9050919050565b60006127a98261278c565b9050919050565b6127c16127bc82612357565b61279e565b82525050565b7f4752414e54000000000000000000000000000000000000000000000000000000600082015250565b60006127fd600583612585565b9150612808826127c7565b600582019050919050565b600061281f82856127b0565b60148201915061282e826127f0565b915061283a8284612522565b6020820191508190509392505050565b7f4e487b7100000000000000000000000000000000000000000000000000000000600052601160045260246000fd5b6000612884826123d5565b915061288f836123d5565b925082820261289d816123d5565b915082820484148315176128b4576128b361284a565b5b5092915050565b600063ffffffff82169050919050565b60006128d6826128bb565b91506128e1836128bb565b9250828201905063ffffffff8111156128fd576128fc61284a565b5b92915050565b7f4d696e2000000000000000000000000000000000000000000000000000000000815250565b600061293482612903565b60048201915061294482846125ba565b915061294f826125eb565b60088201915081905092915050565b7f546869732061646472657373206973206e6f7420612000000000000000000000815250565b600061298f8261295e565b60168201915061299f82846125ba565b915081905092915050565b7f5245564f4b450000000000000000000000000000000000000000000000000000600082015250565b60006129e0600683612585565b91506129eb826129aa565b600682019050919050565b6000612a0282856127b0565b601482019150612a11826129d3565b9150612a1d8284612522565b6020820191508190509392505050565b6000612a38826128bb565b9150612a43836128bb565b9250828203905063ffffffff811115612a5f57612a5e61284a565b5b92915050565b6000612a7082612273565b9150612a7b83612273565b9250828203905060ff811115612a9457612a9361284a565b5b92915050565b6000612aa5826123d5565b91507fffffffffffffffffffffffffffffffffffffffffffffffffffffffffffffffff8203612ad757612ad661284a565b5b600182019050919050565b7f4e487b7100000000000000000000000000000000000000000000000000000000600052601260045260246000fd5b6000612b1c826123d5565b9150612b27836123d5565b925082612b3757612b36612ae2565b5b828206905092915050565b6000612b4d826123d5565b9150612b58836123d5565b925082612b6857612b67612ae2565b5b828204905092915050565b6000612b7e826123d5565b9150612b89836123d5565b9250828201905080821115612ba157612ba061284a565b5b92915050565b7f596f7520616c7265616479207369676e65642074686973206d756c7469736967600082015250565b6000612bdd602083612475565b9150612be882612ba7565b602082019050919050565b60006020820190508181036000830152612c0c81612bd0565b9050919050565b6000612c1e82612273565b915060ff8203612c3157612c3061284a565b5b600182019050919050565b6000612c4782612273565b9150612c5283612273565b9250828201905060ff811115612c6b57612c6a61284a565b5b92915050565b7f416363657373436f6e74726f6c3a206163636f756e7420000000000000000000600082015250565b6000612ca7601783612585565b9150612cb282612c71565b601782019050919050565b7f206973206d697373696e6720726f6c6520000000000000000000000000000000600082015250565b6000612cf3601183612585565b9150612cfe82612cbd565b601182019050919050565b6000612d1482612c9a565b9150612d2082856125ba565b9150612d2b82612ce6565b9150612d3782846125ba565b91508190509392505050565b7f4e487b7100000000000000000000000000000000000000000000000000000000600052604160045260246000fd5b7f4e487b7100000000000000000000000000000000000000000000000000000000600052603260045260246000fd5b6000612dac826123d5565b915060008203612dbf57612dbe61284a565b5b600182039050919050565b7f537472696e67733a20686578206c656e67746820696e73756666696369656e74600082015250565b6000612e00602083612475565b9150612e0b82612dca565b602082019050919050565b60006020820190508181036000830152612e2f81612df3565b905091905056fea2646970667358221220082d2763c5f714c02b62e907d606a4713e675ce2d108bc71d0fa8b03db964f6864736f6c63430008130033",
  "linkReferences": {},
  "deployedLinkReferences": {}
}