{
  "_format": "hh-sol-artifact-1",
  "contractName": "Certifications",
  "sourceName": "contracts/Certifications.sol",
  "abi": [
    {
      "inputs": [
        {
          "internalType": "address",
          "name": "certifier_admin1",
          "type": "address"
        },
        {
          "internalType": "address",
          "name": "certifier_admin2",
          "type": "address"
        }
      ],
      "stateMutability": "nonpayable",
      "type": "constructor"
    },
    {
      "anonymous": false,
      "inputs": [
        {
          "indexed": true,
          "internalType": "bytes32",
          "name": "role",
          "type": "bytes32"
        },
        {
          "indexed": true,
          "internalType": "bytes32",
          "name": "previousAdminRole",
          "type": "bytes32"
        },
        {
          "indexed": true,
          "internalType": "bytes32",
          "name": "newAdminRole",
          "type": "bytes32"
        }
      ],
      "name": "RoleAdminChanged",
      "type": "event"
    },
    {
      "anonymous": false,
      "inputs": [
        {
          "indexed": true,
          "internalType": "bytes32",
          "name": "role",
          "type": "bytes32"
        },
        {
          "indexed": true,
          "internalType": "address",
          "name": "account",
          "type": "address"
        },
        {
          "indexed": true,
          "internalType": "address",
          "name": "sender",
          "type": "address"
        }
      ],
      "name": "RoleGranted",
      "type": "event"
    },
    {
      "anonymous": false,
      "inputs": [
        {
          "indexed": true,
          "internalType": "bytes32",
          "name": "role",
          "type": "bytes32"
        },
        {
          "indexed": true,
          "internalType": "address",
          "name": "account",
          "type": "address"
        },
        {
          "indexed": true,
          "internalType": "address",
          "name": "sender",
          "type": "address"
        }
      ],
      "name": "RoleRevoked",
      "type": "event"
    },
    {
      "anonymous": false,
      "inputs": [
        {
          "indexed": false,
          "internalType": "uint256",
          "name": "studentId",
          "type": "uint256"
        },
        {
          "indexed": false,
          "internalType": "enum Certifications.appreciation",
          "name": "appreciation",
          "type": "uint8"
        },
        {
          "indexed": false,
          "internalType": "enum Certifications.degree",
          "name": "degree",
          "type": "uint8"
        },
        {
          "indexed": false,
          "internalType": "enum Certifications.program",
          "name": "program",
          "type": "uint8"
        }
      ],
      "name": "certificationEmited",
      "type": "event"
    },
    {
      "anonymous": false,
      "inputs": [
        {
          "indexed": false,
          "internalType": "bytes32",
          "name": "multiSigName",
          "type": "bytes32"
        }
      ],
      "name": "multiSigCleared",
      "type": "event"
    },
    {
      "anonymous": false,
      "inputs": [
        {
          "indexed": false,
          "internalType": "bytes32",
          "name": "multiSigName",
          "type": "bytes32"
        }
      ],
      "name": "multiSigSigned",
      "type": "event"
    },
    {
      "inputs": [],
      "name": "CERTIFIER",
      "outputs": [
        {
          "internalType": "bytes32",
          "name": "",
          "type": "bytes32"
        }
      ],
      "stateMutability": "view",
      "type": "function"
    },
    {
      "inputs": [],
      "name": "CERTIFIER_ADMIN",
      "outputs": [
        {
          "internalType": "bytes32",
          "name": "",
          "type": "bytes32"
        }
      ],
      "stateMutability": "view",
      "type": "function"
    },
    {
      "inputs": [],
      "name": "DEFAULT_ADMIN_ROLE",
      "outputs": [
        {
          "internalType": "bytes32",
          "name": "",
          "type": "bytes32"
        }
      ],
      "stateMutability": "view",
      "type": "function"
    },
    {
      "inputs": [],
      "name": "MAX_CERTIFIERS",
      "outputs": [
        {
          "internalType": "uint8",
          "name": "",
          "type": "uint8"
        }
      ],
      "stateMutability": "view",
      "type": "function"
    },
    {
      "inputs": [],
      "name": "MAX_CERTIFIERS_ADMIN",
      "outputs": [
        {
          "internalType": "uint8",
          "name": "",
          "type": "uint8"
        }
      ],
      "stateMutability": "view",
      "type": "function"
    },
    {
      "inputs": [],
      "name": "MIN_CERTIFIERS_ADMIN",
      "outputs": [
        {
          "internalType": "uint8",
          "name": "",
          "type": "uint8"
        }
      ],
      "stateMutability": "view",
      "type": "function"
    },
    {
      "inputs": [],
      "name": "PERCENT_TO_CERTIFY",
      "outputs": [
        {
          "internalType": "uint8",
          "name": "",
          "type": "uint8"
        }
      ],
      "stateMutability": "view",
      "type": "function"
    },
    {
      "inputs": [],
      "name": "PERCENT_TO_EDIT_CERTIFICATE",
      "outputs": [
        {
          "internalType": "uint8",
          "name": "",
          "type": "uint8"
        }
      ],
      "stateMutability": "view",
      "type": "function"
    },
    {
      "inputs": [],
      "name": "PERCENT_TO_GRANT_CERTIFIER",
      "outputs": [
        {
          "internalType": "uint8",
          "name": "",
          "type": "uint8"
        }
      ],
      "stateMutability": "view",
      "type": "function"
    },
    {
      "inputs": [],
      "name": "PERCENT_TO_GRANT_CERTIFIER_ADMIN",
      "outputs": [
        {
          "internalType": "uint8",
          "name": "",
          "type": "uint8"
        }
      ],
      "stateMutability": "view",
      "type": "function"
    },
    {
      "inputs": [],
      "name": "PERCENT_TO_REVOKE_CERTIFIER",
      "outputs": [
        {
          "internalType": "uint8",
          "name": "",
          "type": "uint8"
        }
      ],
      "stateMutability": "view",
      "type": "function"
    },
    {
      "inputs": [],
      "name": "PERCENT_TO_REVOKE_CERTIFIER_ADMIN",
      "outputs": [
        {
          "internalType": "uint8",
          "name": "",
          "type": "uint8"
        }
      ],
      "stateMutability": "view",
      "type": "function"
    },
    {
      "inputs": [
        {
          "internalType": "uint256",
          "name": "a",
          "type": "uint256"
        },
        {
          "internalType": "uint256",
          "name": "b",
          "type": "uint256"
        }
      ],
      "name": "ceilUDiv",
      "outputs": [
        {
          "internalType": "uint256",
          "name": "",
          "type": "uint256"
        }
      ],
      "stateMutability": "pure",
      "type": "function"
    },
    {
      "inputs": [
        {
          "internalType": "bytes32",
          "name": "",
          "type": "bytes32"
        }
      ],
      "name": "certificates",
      "outputs": [
        {
          "internalType": "enum Certifications.appreciation",
          "name": "appreciation",
          "type": "uint8"
        },
        {
          "internalType": "enum Certifications.degree",
          "name": "degree",
          "type": "uint8"
        },
        {
          "internalType": "enum Certifications.program",
          "name": "program",
          "type": "uint8"
        },
        {
          "internalType": "uint256",
          "name": "emition_date",
          "type": "uint256"
        },
        {
          "internalType": "bool",
          "name": "validity",
          "type": "bool"
        },
        {
          "internalType": "uint256",
          "name": "id",
          "type": "uint256"
        },
        {
          "internalType": "bytes32",
          "name": "firstname",
          "type": "bytes32"
        },
        {
          "internalType": "bytes32",
          "name": "lastname",
          "type": "bytes32"
        },
        {
          "internalType": "uint256",
          "name": "birthdate",
          "type": "uint256"
        }
      ],
      "stateMutability": "view",
      "type": "function"
    },
    {
      "inputs": [
        {
          "internalType": "uint256",
          "name": "studentId",
          "type": "uint256"
        },
        {
          "internalType": "string",
          "name": "studentFirstname",
          "type": "string"
        },
        {
          "internalType": "string",
          "name": "studentLastname",
          "type": "string"
        },
        {
          "internalType": "uint256",
          "name": "studentBirthdate",
          "type": "uint256"
        },
        {
          "internalType": "enum Certifications.appreciation",
          "name": "app",
          "type": "uint8"
        },
        {
          "internalType": "enum Certifications.degree",
          "name": "deg",
          "type": "uint8"
        },
        {
          "internalType": "enum Certifications.program",
          "name": "prog",
          "type": "uint8"
        }
      ],
      "name": "certify",
      "outputs": [],
      "stateMutability": "nonpayable",
      "type": "function"
    },
    {
      "inputs": [
        {
          "internalType": "bytes32",
          "name": "role",
          "type": "bytes32"
        }
      ],
      "name": "getRoleAdmin",
      "outputs": [
        {
          "internalType": "bytes32",
          "name": "",
          "type": "bytes32"
        }
      ],
      "stateMutability": "view",
      "type": "function"
    },
    {
      "inputs": [
        {
          "internalType": "bytes32",
          "name": "roleHash",
          "type": "bytes32"
        },
        {
          "internalType": "address",
          "name": "target",
          "type": "address"
        },
        {
          "internalType": "bool",
          "name": "sign",
          "type": "bool"
        }
      ],
      "name": "grantAnyRole",
      "outputs": [],
      "stateMutability": "nonpayable",
      "type": "function"
    },
    {
      "inputs": [
        {
          "internalType": "bytes32",
          "name": "role",
          "type": "bytes32"
        },
        {
          "internalType": "address",
          "name": "account",
          "type": "address"
        }
      ],
      "name": "grantRole",
      "outputs": [],
      "stateMutability": "nonpayable",
      "type": "function"
    },
    {
      "inputs": [
        {
          "internalType": "bytes32",
          "name": "role",
          "type": "bytes32"
        },
        {
          "internalType": "address",
          "name": "account",
          "type": "address"
        }
      ],
      "name": "hasRole",
      "outputs": [
        {
          "internalType": "bool",
          "name": "",
          "type": "bool"
        }
      ],
      "stateMutability": "view",
      "type": "function"
    },
    {
      "inputs": [
        {
          "internalType": "bytes32",
          "name": "",
          "type": "bytes32"
        }
      ],
      "name": "multiSig",
      "outputs": [
        {
          "internalType": "bool",
          "name": "created",
          "type": "bool"
        },
        {
          "internalType": "bytes32",
          "name": "role",
          "type": "bytes32"
        },
        {
          "internalType": "uint8",
          "name": "count",
          "type": "uint8"
        },
        {
          "internalType": "uint8",
          "name": "id",
          "type": "uint8"
        },
        {
          "internalType": "string",
          "name": "info",
          "type": "string"
        }
      ],
      "stateMutability": "view",
      "type": "function"
    },
    {
      "inputs": [
        {
          "internalType": "uint256",
          "name": "",
          "type": "uint256"
        }
      ],
      "name": "multiSigId",
      "outputs": [
        {
          "internalType": "bytes32",
          "name": "",
          "type": "bytes32"
        }
      ],
      "stateMutability": "view",
      "type": "function"
    },
    {
      "inputs": [
        {
          "internalType": "bytes32",
          "name": "",
          "type": "bytes32"
        },
        {
          "internalType": "address",
          "name": "",
          "type": "address"
        }
      ],
      "name": "renounceRole",
      "outputs": [],
      "stateMutability": "nonpayable",
      "type": "function"
    },
    {
      "inputs": [
        {
          "internalType": "bytes32",
          "name": "roleHash",
          "type": "bytes32"
        },
        {
          "internalType": "address",
          "name": "target",
          "type": "address"
        },
        {
          "internalType": "bool",
          "name": "sign",
          "type": "bool"
        }
      ],
      "name": "revokeAnyRole",
      "outputs": [],
      "stateMutability": "nonpayable",
      "type": "function"
    },
    {
      "inputs": [
        {
          "internalType": "bytes32",
          "name": "role",
          "type": "bytes32"
        },
        {
          "internalType": "address",
          "name": "account",
          "type": "address"
        }
      ],
      "name": "revokeRole",
      "outputs": [],
      "stateMutability": "nonpayable",
      "type": "function"
    },
    {
      "inputs": [
        {
          "internalType": "bytes4",
          "name": "interfaceId",
          "type": "bytes4"
        }
      ],
      "name": "supportsInterface",
      "outputs": [
        {
          "internalType": "bool",
          "name": "",
          "type": "bool"
        }
      ],
      "stateMutability": "view",
      "type": "function"
    }
  ],
  "bytecode": "0x60806040523480156200001157600080fd5b5060405162005f1f38038062005f1f83398181016040528101906200003791906200099c565b6200005367a0b843672511ab5560c01b620007b660201b60201c565b6200006f677c7927e4b5bd48f460c01b620007b660201b60201c565b6200008b67a4ebbaf8faac82d260c01b620007b660201b60201c565b620000a76797b47e77a9a7b3fc60c01b620007b660201b60201c565b600073ffffffffffffffffffffffffffffffffffffffff168273ffffffffffffffffffffffffffffffffffffffff160362000119576040517f08c379a0000000000000000000000000000000000000000000000000000000008152600401620001109062000a6a565b60405180910390fd5b6200013567758438fa606727d960c01b620007b660201b60201c565b6200015167589e0c39053cad2660c01b620007b660201b60201c565b6200016d6759de4f2a505f6c6d60c01b620007b660201b60201c565b62000189676d4a2d08a14ea23160c01b620007b660201b60201c565b600073ffffffffffffffffffffffffffffffffffffffff168173ffffffffffffffffffffffffffffffffffffffff1603620001fb576040517f08c379a0000000000000000000000000000000000000000000000000000000008152600401620001f29062000b02565b60405180910390fd5b6200021767c3b37424d9c469d060c01b620007b660201b60201c565b6200023367740ce2464856c2b360c01b620007b660201b60201c565b6200024f676ae93f6bf114c2f760c01b620007b660201b60201c565b6200026b677a7ed0c4e584401460c01b620007b660201b60201c565b8073ffffffffffffffffffffffffffffffffffffffff168273ffffffffffffffffffffffffffffffffffffffff1603620002dc576040517f08c379a0000000000000000000000000000000000000000000000000000000008152600401620002d39062000b9a565b60405180910390fd5b620002f86745d4f9869d13660b60c01b620007b660201b60201c565b62000314671cbdd7add0b2dd5c60c01b620007b660201b60201c565b6200033067f2a3b9ba0bc2281e60c01b620007b660201b60201c565b620003627f4bbeb6fd3e5222e55f2f8b0c35bc228e0a06a25d0da772fdb02c3b92fa004f8883620007b960201b60201c565b6200037e679859be0913bc1e1760c01b620007b660201b60201c565b6200039a678f5912fc196c66fb60c01b620007b660201b60201c565b620003cc7f4bbeb6fd3e5222e55f2f8b0c35bc228e0a06a25d0da772fdb02c3b92fa004f8882620007cf60201b60201c565b620003e867d451ad32aab430b860c01b620007b660201b60201c565b6040518060e00160405280600263ffffffff168152602001600260ff1663ffffffff168152602001600f60ff1663ffffffff168152602001605060ff168152602001605060ff1681526020017f4bbeb6fd3e5222e55f2f8b0c35bc228e0a06a25d0da772fdb02c3b92fa004f8881526020016040516020016200046b9062000c17565b604051602081830303815290604052620004859062000c77565b815250600160007f4bbeb6fd3e5222e55f2f8b0c35bc228e0a06a25d0da772fdb02c3b92fa004f88815260200190815260200160002060008201518160000160006101000a81548163ffffffff021916908363ffffffff16021790555060208201518160000160046101000a81548163ffffffff021916908363ffffffff16021790555060408201518160000160086101000a81548163ffffffff021916908363ffffffff160217905550606082015181600001600c6101000a81548160ff021916908360ff160217905550608082015181600001600d6101000a81548160ff021916908360ff16021790555060a0820151816001015560c08201518160020155905050620005a5672f872260ec70aa8060c01b620007b660201b60201c565b620005c167e28d98831e470a0e60c01b620007b660201b60201c565b620005f47fd646ae07eb0d0f77457502a65e7407930dff4cd4fd99abc6aac87a753f4c8a426000620007b960201b60201c565b620006106770e61a765dfb20aa60c01b620007b660201b60201c565b6040518060e00160405280600063ffffffff168152602001600063ffffffff168152602001600f60ff1663ffffffff168152602001605060ff168152602001605060ff1681526020017f4bbeb6fd3e5222e55f2f8b0c35bc228e0a06a25d0da772fdb02c3b92fa004f888152602001604051602001620006909062000d37565b604051602081830303815290604052620006aa9062000c77565b815250600160007fd646ae07eb0d0f77457502a65e7407930dff4cd4fd99abc6aac87a753f4c8a42815260200190815260200160002060008201518160000160006101000a81548163ffffffff021916908363ffffffff16021790555060208201518160000160046101000a81548163ffffffff021916908363ffffffff16021790555060408201518160000160086101000a81548163ffffffff021916908363ffffffff160217905550606082015181600001600c6101000a81548160ff021916908360ff160217905550608082015181600001600d6101000a81548160ff021916908360ff16021790555060a0820151816001015560c08201518160020155905050505062000d4e565b50565b620007cb8282620007cf60201b60201c565b5050565b620007e18282620008c060201b60201c565b620008bc57600160008084815260200190815260200160002060000160008373ffffffffffffffffffffffffffffffffffffffff1673ffffffffffffffffffffffffffffffffffffffff16815260200190815260200160002060006101000a81548160ff021916908315150217905550620008616200092a60201b60201c565b73ffffffffffffffffffffffffffffffffffffffff168173ffffffffffffffffffffffffffffffffffffffff16837f2f8788117e7eff1d82e926ec794901d17c78024a50270940304540a733656f0d60405160405180910390a45b5050565b600080600084815260200190815260200160002060000160008373ffffffffffffffffffffffffffffffffffffffff1673ffffffffffffffffffffffffffffffffffffffff16815260200190815260200160002060009054906101000a900460ff16905092915050565b600033905090565b600080fd5b600073ffffffffffffffffffffffffffffffffffffffff82169050919050565b6000620009648262000937565b9050919050565b620009768162000957565b81146200098257600080fd5b50565b60008151905062000996816200096b565b92915050565b60008060408385031215620009b657620009b562000932565b5b6000620009c68582860162000985565b9250506020620009d98582860162000985565b9150509250929050565b600082825260208201905092915050565b7f4365727469666965722061646d696e3120616464726573732063616e6e6f742060008201527f6265203000000000000000000000000000000000000000000000000000000000602082015250565b600062000a52602483620009e3565b915062000a5f82620009f4565b604082019050919050565b6000602082019050818103600083015262000a858162000a43565b9050919050565b7f4365727469666965722061646d696e3220616464726573732063616e6e6f742060008201527f6265203000000000000000000000000000000000000000000000000000000000602082015250565b600062000aea602483620009e3565b915062000af78262000a8c565b604082019050919050565b6000602082019050818103600083015262000b1d8162000adb565b9050919050565b7f436572746966696572206164647265737365732063616e6e6f7420626520746860008201527f652073616d650000000000000000000000000000000000000000000000000000602082015250565b600062000b82602683620009e3565b915062000b8f8262000b24565b604082019050919050565b6000602082019050818103600083015262000bb58162000b73565b9050919050565b600081905092915050565b7f4345525449464945525f41444d494e0000000000000000000000000000000000600082015250565b600062000bff600f8362000bbc565b915062000c0c8262000bc7565b600f82019050919050565b600062000c248262000bf0565b9150819050919050565b600081519050919050565b6000819050602082019050919050565b6000819050919050565b600062000c61825162000c49565b80915050919050565b600082821b905092915050565b600062000c848262000c2e565b8262000c908462000c39565b905062000c9d8162000c53565b9250602082101562000ce05762000cdb7fffffffffffffffffffffffffffffffffffffffffffffffffffffffffffffffff8360200360080262000c6a565b831692505b5050919050565b7f4345525449464945520000000000000000000000000000000000000000000000600082015250565b600062000d1f60098362000bbc565b915062000d2c8262000ce7565b600982019050919050565b600062000d448262000d10565b9150819050919050565b6151c18062000d5e6000396000f3fe608060405234801561001057600080fd5b50600436106101735760003560e01c80636bc6421b116100de5780639e33990911610097578063bf80209111610071578063bf8020911461045e578063d3243ad81461048e578063d547741f146104aa578063e05f2fb4146104c657610173565b80639e33990914610404578063a217fddf14610422578063b86bc74f1461044057610173565b80636bc6421b14610314578063719129be14610332578063742f06881461034e5780637cd29fb71461038657806391d14854146103a45780639dd09a73146103d457610173565b80632e83c14b116101305780632e83c14b146102665780632f2ff15d1461028257806333b72e491461029e57806336568abe146102bc5780634da11a20146102d85780635907ebea146102f657610173565b806301ffc9a7146101785780630f68794a146101a85780631a968069146101c65780631a9cfe28146101fa578063248a9ca3146102185780632cd94e4f14610248575b600080fd5b610192600480360381019061018d919061362b565b6104e4565b60405161019f9190613673565b60405180910390f35b6101b061055e565b6040516101bd91906136aa565b60405180910390f35b6101e060048036038101906101db91906136fb565b610563565b6040516101f19594939291906137c7565b60405180910390f35b610202610648565b60405161020f91906136aa565b60405180910390f35b610232600480360381019061022d91906136fb565b61064d565b60405161023f9190613821565b60405180910390f35b61025061066c565b60405161025d91906136aa565b60405180910390f35b610280600480360381019061027b9190613a16565b610671565b005b61029c60048036038101906102979190613b4e565b610fa9565b005b6102a6610fca565b6040516102b391906136aa565b60405180910390f35b6102d660048036038101906102d19190613b4e565b610fcf565b005b6102e0611046565b6040516102ed91906136aa565b60405180910390f35b6102fe61104b565b60405161030b91906136aa565b60405180910390f35b61031c611050565b60405161032991906136aa565b60405180910390f35b61034c60048036038101906103479190613bba565b611055565b005b610368600480360381019061036391906136fb565b6118d9565b60405161037d99989796959493929190613d23565b60405180910390f35b61038e61195b565b60405161039b91906136aa565b60405180910390f35b6103be60048036038101906103b99190613b4e565b611960565b6040516103cb9190613673565b60405180910390f35b6103ee60048036038101906103e99190613db0565b6119ca565b6040516103fb9190613821565b60405180910390f35b61040c6119e2565b60405161041991906136aa565b60405180910390f35b61042a6119e7565b6040516104379190613821565b60405180910390f35b6104486119ee565b6040516104559190613821565b60405180910390f35b61047860048036038101906104739190613ddd565b611a12565b6040516104859190613e1d565b60405180910390f35b6104a860048036038101906104a39190613bba565b611b0f565b005b6104c460048036038101906104bf9190613b4e565b6126d2565b005b6104ce6126f3565b6040516104db9190613821565b60405180910390f35b60007f7965db0b000000000000000000000000000000000000000000000000000000007bffffffffffffffffffffffffffffffffffffffffffffffffffffffff1916827bffffffffffffffffffffffffffffffffffffffffffffffffffffffff19161480610557575061055682612717565b5b9050919050565b605081565b60026020528060005260406000206000915090508060000160009054906101000a900460ff16908060010154908060020160009054906101000a900460ff16908060020160019054906101000a900460ff16908060050180546105c590613e67565b80601f01602080910402602001604051908101604052809291908181526020018280546105f190613e67565b801561063e5780601f106106135761010080835404028352916020019161063e565b820191906000526020600020905b81548152906001019060200180831161062157829003601f168201915b5050505050905085565b605081565b6000806000838152602001908152602001600020600101549050919050565b605081565b61068567d0a65ecdfb35759e60c01b612781565b61069967fecb9a5516d562ad60c01b612781565b6106ad6711522e4c80b8acf560c01b612781565b6106c1675a87c8131b0f347660c01b612781565b6106eb7fd646ae07eb0d0f77457502a65e7407930dff4cd4fd99abc6aac87a753f4c8a4233611960565b61072a576040517f08c379a000000000000000000000000000000000000000000000000000000000815260040161072190613ee4565b60405180910390fd5b61073e67b52e37c57f13f03660c01b612781565b61075267c6bc374fa7feff0160c01b612781565b6107666786ac1e62d24a349860c01b612781565b61077a679e5c2cdd766b16de60c01b612781565b6000600381111561078e5761078d613c0d565b5b8360038111156107a1576107a0613c0d565b5b101580156107d357506003808111156107bd576107bc613c0d565b5b8360038111156107d0576107cf613c0d565b5b11155b610812576040517f08c379a000000000000000000000000000000000000000000000000000000000815260040161080990613f50565b60405180910390fd5b6108266753aaaf9320fe18fd60c01b612781565b61083a67ab49e147b91272b360c01b612781565b61084e679ab8a363c1db47f760c01b612781565b61086267c80f0b231c338b2d60c01b612781565b6000600281111561087657610875613c0d565b5b82600281111561088957610888613c0d565b5b101580156108bb57506002808111156108a5576108a4613c0d565b5b8260028111156108b8576108b7613c0d565b5b11155b6108fa576040517f08c379a00000000000000000000000000000000000000000000000000000000081526004016108f190613fbc565b60405180910390fd5b61090e675397bbbeef836ad860c01b612781565b610922679b6d6670acbbe93360c01b612781565b610936678dba3cfcdd7ab4ab60c01b612781565b61094a672e1f532eb4156eb560c01b612781565b6000600f81111561095e5761095d613c0d565b5b81600f81111561097157610970613c0d565b5b101580156109a35750600f8081111561098d5761098c613c0d565b5b81600f8111156109a05761099f613c0d565b5b11155b6109e2576040517f08c379a00000000000000000000000000000000000000000000000000000000081526004016109d990614028565b60405180910390fd5b6109f667b763b8910a23efee60c01b612781565b610a0a67acd6a8c8f4d574b660c01b612781565b610a1e677697096d64270cdb60c01b612781565b610a32673318f6946f78197860c01b612781565b600015156005600089868686604051602001610a5194939291906140cd565b60405160208183030381529060405280519060200120815260200190815260200160002060020160009054906101000a900460ff16151514610ac8576040517f08c379a0000000000000000000000000000000000000000000000000000000008152600401610abf90614167565b60405180910390fd5b610adc67d4c4533d7e9a60a660c01b612781565b610af06732954512786739f560c01b612781565b610b046724bcd6ffdfbd0d4d60c01b612781565b600087848484604051602001610b1d94939291906141de565b604051602081830303815290604052805190602001209050610b49677338a703ca5a2a9660c01b612781565b610b5d673b1e688b7d79d00d60c01b612781565b610c29817fd646ae07eb0d0f77457502a65e7407930dff4cd4fd99abc6aac87a753f4c8a428a604051602001610b939190614237565b60405160208183030381529060405287604051602001610bb39190614252565b60405160208183030381529060405287604051602001610bd3919061426d565b60405160208183030381529060405287604051602001610bf39190614288565b604051602081830303815290604052604051602001610c159493929190614320565b604051602081830303815290604052612784565b610c3d676bea465bb441461060c01b612781565b610c5167e8c1fa74bacd7fbb60c01b612781565b600015156002600083815260200190815260200160002060030160003373ffffffffffffffffffffffffffffffffffffffff1673ffffffffffffffffffffffffffffffffffffffff16815260200190815260200160002060009054906101000a900460ff16151503610d7957610cd1671f5319feb6477e3560c01b612781565b610ce567f438d58dfb1be18260c01b612781565b610cf9678ef10dcaeac9036f60c01b612781565b610d156002600083815260200190815260200160002033612928565b610d296735f2056c8483d80460c01b612781565b610d3d67c187d7d65cf65af260c01b612781565b7fb431a69783a2491a0c400ff16dab32cd442abf8fe5af63a526a7248d730192f881604051610d6c9190613821565b60405180910390a1610d8e565b610d8d67ade7a62c071e519d60c01b612781565b5b610da2675439b2c4cd16482360c01b612781565b610db6672f6377f918fc3e7460c01b612781565b610e1c603360ff16600160007fd646ae07eb0d0f77457502a65e7407930dff4cd4fd99abc6aac87a753f4c8a42815260200190815260200160002060000160009054906101000a900463ffffffff16610e0f91906143d9565b63ffffffff166064611a12565b6002600083815260200190815260200160002060020160009054906101000a900460ff1660ff1610610f8a57610e5c6762c646c22c573f3e60c01b612781565b610e7067220ad4741fc3df5d60c01b612781565b610e846799a0b0988af0867760c01b612781565b610e9f60026000838152602001908152602001600020612baa565b610eb3675d49ac61be8ebd7160c01b612781565b610ec767ac18a9a1ec69e6b860c01b612781565b7f562618dbcf74b61ae5b0f229fe40ba6d5b6ae6b4248f8c89a870dda7c77135f681604051610ef69190613821565b60405180910390a1610f1267698bf9a5753ef89160c01b612781565b610f26674a780f79854977d860c01b612781565b610f858888604051602001610f3b9190614416565b604051602081830303815290604052610f539061446a565b88604051602001610f649190614416565b604051602081830303815290604052610f7c9061446a565b88888888612cf7565b610f9f565b610f9e6769ad2177cecd222f60c01b612781565b5b5050505050505050565b610fb28261064d565b610fbb81612f2b565b610fc58383612f3f565b505050565b600281565b610fe367515d414290ef63a760c01b612781565b610ff767408d4005470649cf60c01b612781565b61100b679c54a3cc10a34a3d60c01b612781565b6040517f08c379a000000000000000000000000000000000000000000000000000000000815260040161103d90614543565b60405180910390fd5b605081565b600f81565b603381565b61106967f9332553eceb56d860c01b612781565b61107d677d4cea3f8d4622d560c01b612781565b61109167eb262170ab108a0360c01b612781565b60006001600085815260200190815260200160002090506110bc67978f6ecc8f60681960c01b612781565b6110d067d61646692ed40d1060c01b612781565b6110e467281f41604962ef6360c01b612781565b8060000160009054906101000a900463ffffffff1663ffffffff168160000160089054906101000a900463ffffffff1663ffffffff161181600201546040516020016111309190614584565b60405160208183030381529060405260405160200161114f91906145eb565b6040516020818303038152906040529061119f576040517f08c379a00000000000000000000000000000000000000000000000000000000081526004016111969190614620565b60405180910390fd5b506111b46701dc47e9dc7e2d4960c01b612781565b6111c867e00c6e3f0d9a678b60c01b612781565b6111dc67211496b55cb50cff60c01b612781565b6111f067fa27c246eee8a08b60c01b612781565b6111fe816001015433611960565b81600201546040516020016112139190614584565b604051602081830303815290604052604051602001611232919061468e565b60405160208183030381529060405290611282576040517f08c379a00000000000000000000000000000000000000000000000000000000081526004016112799190614620565b60405180910390fd5b5061129767ba7a7d4f3ff1ed8260c01b612781565b6112ab6719a84e662ed6d2e460c01b612781565b6112bf67553b9ae776c1ac0760c01b612781565b6112d36776e3a440f346f78b60c01b612781565b600015156112e18585611960565b15151481600201546040516020016112f99190614584565b60405160208183030381529060405260405160200161131891906146e9565b60405160208183030381529060405290611368576040517f08c379a000000000000000000000000000000000000000000000000000000000815260040161135f9190614620565b60405180910390fd5b5061137d672fe19dd197ae71b760c01b612781565b611391674dadad20973e5e5d60c01b612781565b6113a567dcfd845b2fe814ee60c01b612781565b600083856040516020016113ba9291906147a3565b6040516020818303038152906040528051906020012090506113e66787c8ea0feda3ada560c01b612781565b6113fa67124f1dad53c69bc560c01b612781565b61146c81836001015484600201546040516020016114189190614584565b6040516020818303038152906040528760405160200161143891906147da565b60405160208183030381529060405260405160200161145892919061481b565b604051602081830303815290604052612784565b611480676e8d3572b8c8ba0b60c01b612781565b61149467ec4e2bcd0646233360c01b612781565b8280156115055750600015156002600083815260200190815260200160002060030160003373ffffffffffffffffffffffffffffffffffffffff1673ffffffffffffffffffffffffffffffffffffffff16815260200190815260200160002060009054906101000a900460ff161515145b156115c65761151e6771868017dd9ea9a260c01b612781565b61153267ab1bd67fcc0dc4e660c01b612781565b6115466714693ce83117a4a660c01b612781565b6115626002600083815260200190815260200160002033612928565b611576671ee91d41820de70160c01b612781565b61158a6765714ee521157c1660c01b612781565b7fb431a69783a2491a0c400ff16dab32cd442abf8fe5af63a526a7248d730192f8816040516115b99190613821565b60405180910390a16116cc565b6115da67647b5b224d6b094960c01b612781565b6115ee6765b7e103c94a229d60c01b612781565b60001515831515036116b65761160e6712792db49bd8000860c01b612781565b611622673a5a274be22801d260c01b612781565b61163667493634455e2d80e960c01b612781565b611652600260008381526020019081526020016000203361301f565b611666671175e050037a7c2760c01b612781565b61167a675137f0b970b59aa760c01b612781565b7fb431a69783a2491a0c400ff16dab32cd442abf8fe5af63a526a7248d730192f8816040516116a99190613821565b60405180910390a16116cb565b6116ca677ba3d7ad982f17c160c01b612781565b5b5b6116e0675ff2fe70f0a1650860c01b612781565b6116f46739d9fb6b575ba4e360c01b612781565b61174e82600001600c9054906101000a900460ff1660ff16600160008560010154815260200190815260200160002060000160009054906101000a900463ffffffff1661174191906143d9565b63ffffffff166064611a12565b6002600083815260200190815260200160002060020160009054906101000a900460ff1660ff16106118bd5761178e67248dca5c34ff865b60c01b612781565b6117a26752d84047f7ec1fd860c01b612781565b6117b667ae030a65c15f875560c01b612781565b6117d160026000838152602001908152602001600020612baa565b6117e5674dbd682bd4fc310660c01b612781565b6117f96714f96b5406597f9960c01b612781565b7f562618dbcf74b61ae5b0f229fe40ba6d5b6ae6b4248f8c89a870dda7c77135f6816040516118289190613821565b60405180910390a1611844670df07991caef353d60c01b612781565b61185867ae62ea1482f5a88360c01b612781565b6118628585612f3f565b61187667163e0e75e54e0c8a60c01b612781565b60018260000160008282829054906101000a900463ffffffff1661189a919061485d565b92506101000a81548163ffffffff021916908363ffffffff1602179055506118d2565b6118d167a4e6a19cbfe5167960c01b612781565b5b5050505050565b60056020528060005260406000206000915090508060000160009054906101000a900460ff16908060000160019054906101000a900460ff16908060000160029054906101000a900460ff16908060010154908060020160009054906101000a900460ff16908060030154908060040154908060050154908060060154905089565b605081565b600080600084815260200190815260200160002060000160008373ffffffffffffffffffffffffffffffffffffffff1673ffffffffffffffffffffffffffffffffffffffff16815260200190815260200160002060009054906101000a900460ff16905092915050565b60036020528060005260406000206000915090505481565b600f81565b6000801b81565b7fd646ae07eb0d0f77457502a65e7407930dff4cd4fd99abc6aac87a753f4c8a4281565b6000611a2867e2216d700919d82560c01b6131d7565b611a3c67b1db7aabfe3050a860c01b6131d7565b611a5067fdcaa693f4162f1060c01b6131d7565b60008284611a5e91906148c4565b03611ab257611a7767178361176c5b175760c01b6131d7565b611a8b67c4b9aedac44523b960c01b6131d7565b611a9f67a4703adbb9f130da60c01b6131d7565b8183611aab91906148f5565b9050611b09565b611ac6677ca098a9ee65439360c01b6131d7565b611ada67f7b14ce8c55b802460c01b6131d7565b611aee670d0b3c9dde3a472760c01b6131d7565b60018284611afc91906148f5565b611b069190614926565b90505b92915050565b611b23675c78a7177eb1a8fb60c01b612781565b611b3767bf4499ff51c0c22160c01b612781565b611b4b67822948be4d3ef9a760c01b612781565b6000600160008581526020019081526020016000209050611b766796129956313adf1b60c01b612781565b611b8a67a37df02138054e5260c01b612781565b611b9e67b057154329c49bf860c01b612781565b8060000160049054906101000a900463ffffffff1663ffffffff168160000160009054906101000a900463ffffffff1663ffffffff16118160020154604051602001611bea9190614584565b604051602081830303815290604052604051602001611c099190614980565b60405160208183030381529060405290611c59576040517f08c379a0000000000000000000000000000000000000000000000000000000008152600401611c509190614620565b60405180910390fd5b50611c6e67e3a8e90515cce0b760c01b612781565b611c8267b5a228e10270e22560c01b612781565b611c96673ddb288b7f8fde5860c01b612781565b611caa6728ffed5c4bbb136d60c01b612781565b611cb48484611960565b8160020154604051602001611cc99190614584565b604051602081830303815290604052604051602001611ce891906149db565b60405160208183030381529060405290611d38576040517f08c379a0000000000000000000000000000000000000000000000000000000008152600401611d2f9190614620565b60405180910390fd5b50611d4d671a14e86b1536e0c460c01b612781565b611d61678190894182f1322760c01b612781565b611d75675e914cc764a08bdc60c01b612781565b611d896759cb1221e0215d5e60c01b612781565b611d97816001015433611960565b8160020154604051602001611dac9190614584565b604051602081830303815290604052604051602001611dcb919061468e565b60405160208183030381529060405290611e1b576040517f08c379a0000000000000000000000000000000000000000000000000000000008152600401611e129190614620565b60405180910390fd5b50611e30676d76b91fe9de0f8c60c01b612781565b611e4467bdf8a12455256e9760c01b612781565b611e5867ed9c0b858915e64660c01b612781565b60008385604051602001611e6d929190614a4d565b604051602081830303815290604052805190602001209050611e9967649bd458a200725760c01b612781565b611ead670b6b16ea080ccdb260c01b612781565b611f1f8183600101548460020154604051602001611ecb9190614584565b60405160208183030381529060405287604051602001611eeb91906147da565b604051602081830303815290604052604051602001611f0b929190614aaa565b604051602081830303815290604052612784565b611f3367689b85ae64f251bf60c01b612781565b611f476735e2a6e6763de1be60c01b612781565b828015611fb85750600015156002600083815260200190815260200160002060030160003373ffffffffffffffffffffffffffffffffffffffff1673ffffffffffffffffffffffffffffffffffffffff16815260200190815260200160002060009054906101000a900460ff161515145b1561207957611fd16709e04ae92e1584c060c01b612781565b611fe5672117bb302f321a4960c01b612781565b611ff967918f30a7fad8441260c01b612781565b6120156002600083815260200190815260200160002033612928565b612029679d26a0bcae16f15560c01b612781565b61203d6762560a22786c9d8960c01b612781565b7fb431a69783a2491a0c400ff16dab32cd442abf8fe5af63a526a7248d730192f88160405161206c9190613821565b60405180910390a161217f565b61208d676ad05dd6ad0c5e8e60c01b612781565b6120a167b018fb771a8f126a60c01b612781565b6000151583151503612169576120c1673838e17e05cad86e60c01b612781565b6120d5673b992ef7312a36a260c01b612781565b6120e967d1937d9a9d9ede4b60c01b612781565b612105600260008381526020019081526020016000203361301f565b61211967eba93d2f1c3a372560c01b612781565b61212d67e583d3490fb5c11a60c01b612781565b7fb431a69783a2491a0c400ff16dab32cd442abf8fe5af63a526a7248d730192f88160405161215c9190613821565b60405180910390a161217e565b61217d6703c216aef0914c7d60c01b612781565b5b5b61219367e929230dacd39fc460c01b612781565b6121a767f0423ad893494d1f60c01b612781565b8160010154851415801561223a575061221082600001600d9054906101000a900460ff1660ff16600160008560010154815260200190815260200160002060000160009054906101000a900463ffffffff1661220391906143d9565b63ffffffff166064611a12565b6002600083815260200190815260200160002060020160009054906101000a900460ff1660ff1610155b80156122565750612255670e4635f8420cba4d60c01b6131da565b5b8061231657508160010154851480156122f957506122cf82600001600d9054906101000a900460ff1660ff1660018060008660010154815260200190815260200160002060000160009054906101000a900463ffffffff166122b89190614aec565b6122c291906143d9565b63ffffffff166064611a12565b6002600083815260200190815260200160002060020160009054906101000a900460ff1660ff1610155b8015612315575061231467a8f356ae64e80fb260c01b6131da565b5b5b156126b65761232f6787081979864afeae60c01b612781565b612343677547dde3e6de66c160c01b612781565b6123576776a3d74fa8fa545760c01b612781565b60005b60045481101561258657612378674ed9ea8c9338f00060c01b612781565b61238c679baa3422236fc69f60c01b612781565b60011515600260006003600085815260200190815260200160002054815260200190815260200160002060030160008773ffffffffffffffffffffffffffffffffffffffff1673ffffffffffffffffffffffffffffffffffffffff16815260200190815260200160002060009054906101000a900460ff16151514801561243b575085600260006003600085815260200190815260200160002054815260200190815260200160002060010154145b1561255e5761245467c5044043363bb23760c01b612781565b61246867bfc6b0f370d7024960c01b612781565b6001600260006003600085815260200190815260200160002054815260200190815260200160002060020160008282829054906101000a900460ff166124ae9190614b24565b92506101000a81548160ff021916908360ff1602179055506124da679ccb8433f30b7f6160c01b612781565b6000600260006003600085815260200190815260200160002054815260200190815260200160002060030160008773ffffffffffffffffffffffffffffffffffffffff1673ffffffffffffffffffffffffffffffffffffffff16815260200190815260200160002060006101000a81548160ff021916908315150217905550612573565b612572670842a97201189b8b60c01b612781565b5b808061257e90614b59565b91505061235a565b5061259b67ca8d401c43f5f9d760c01b612781565b6125af67e22dcaa2865f121160c01b612781565b6125ca60026000838152602001908152602001600020612baa565b6125de674aba95960958e73260c01b612781565b6125f26730249e749f45b5e460c01b612781565b7f562618dbcf74b61ae5b0f229fe40ba6d5b6ae6b4248f8c89a870dda7c77135f6816040516126219190613821565b60405180910390a161263d67374dfd98b823c8cf60c01b612781565b6126516720270532058f02e560c01b612781565b61265b85856131e5565b61266f679e04f1a5c5bda7df60c01b612781565b60018260000160008282829054906101000a900463ffffffff166126939190614aec565b92506101000a81548163ffffffff021916908363ffffffff1602179055506126cb565b6126ca67d618060faf473a2a60c01b612781565b5b5050505050565b6126db8261064d565b6126e481612f2b565b6126ee83836131e5565b505050565b7f4bbeb6fd3e5222e55f2f8b0c35bc228e0a06a25d0da772fdb02c3b92fa004f8881565b60007f01ffc9a7000000000000000000000000000000000000000000000000000000007bffffffffffffffffffffffffffffffffffffffffffffffffffffffff1916827bffffffffffffffffffffffffffffffffffffffffffffffffffffffff1916149050919050565b50565b6127986768c3bd0af40a1b5d60c01b612781565b6127ac672bc4242ebebe428960c01b612781565b6127c067e87324c8c42b714760c01b612781565b600015156002600085815260200190815260200160002060000160009054906101000a900460ff1615150361290e57612803672c4d7d6a241e4b8960c01b612781565b61281767f2f486595854747960c01b612781565b60016002600085815260200190815260200160002060000160006101000a81548160ff02191690831515021790555061285a678e01888c80102d3760c01b612781565b826003600060045481526020019081526020016000208190555061288867bc51f865c49130a860c01b612781565b60016004600082825461289b9190614926565b925050819055506128b667f8b6ac0350413cde60c01b612781565b8160026000858152602001908152602001600020600101819055506128e5674f5571dc82a8340f60c01b612781565b806002600085815260200190815260200160002060050190816129089190614d40565b50612923565b61292267df20ef43cd86120a60c01b612781565b5b505050565b61293c671314b6e431bedcfb60c01b6132c6565b61295067152daf20762df40b60c01b6132c6565b6129646755e49ea65d7289e060c01b6132c6565b61297867d3562b1c72a659d260c01b6132c6565b600015158260030160008373ffffffffffffffffffffffffffffffffffffffff1673ffffffffffffffffffffffffffffffffffffffff16815260200190815260200160002060009054906101000a900460ff16151514612a0d576040517f08c379a0000000000000000000000000000000000000000000000000000000008152600401612a0490614e5e565b60405180910390fd5b612a2167ac3bead4f17e4c3360c01b6132c6565b612a356709b738277559f6df60c01b6132c6565b808260040160008460020160019054906101000a900460ff1660ff16815260200190815260200160002060006101000a81548173ffffffffffffffffffffffffffffffffffffffff021916908373ffffffffffffffffffffffffffffffffffffffff160217905550612ab167d8ed15d80cef1d0460c01b6132c6565b81600201600181819054906101000a900460ff1680929190612ad290614e7e565b91906101000a81548160ff021916908360ff16021790555050612aff67c405dc6cbccb9d0760c01b6132c6565b60018260030160008373ffffffffffffffffffffffffffffffffffffffff1673ffffffffffffffffffffffffffffffffffffffff16815260200190815260200160002060006101000a81548160ff021916908315150217905550612b6d675e03a53d01baaf7860c01b6132c6565b60018260020160008282829054906101000a900460ff16612b8e9190614ea7565b92506101000a81548160ff021916908360ff1602179055505050565b612bbe67e1f2f8d4806beae660c01b6132c6565b612bd267a98859a1e9023fef60c01b6132c6565b60008160020160006101000a81548160ff021916908360ff160217905550612c0467fb5e23843aae82c760c01b6132c6565b612c1867d7e29696126fb63060c01b6132c6565b60005b8160020160019054906101000a900460ff1660ff168160ff161015612cf357612c4e67f8b20febdf336cc960c01b6132c6565b60008260030160008460040160008560ff16815260200190815260200160002060009054906101000a900473ffffffffffffffffffffffffffffffffffffffff1673ffffffffffffffffffffffffffffffffffffffff1673ffffffffffffffffffffffffffffffffffffffff16815260200190815260200160002060006101000a81548160ff0219169083151502179055508080612ceb90614e7e565b915050612c1b565b5050565b612d0b6759aacab69e3a1cf860c01b612781565b612d1f671f8604b2e035df8c60c01b612781565b604051806101200160405280846003811115612d3e57612d3d613c0d565b5b8152602001836002811115612d5657612d55613c0d565b5b815260200182600f811115612d6e57612d6d613c0d565b5b8152602001428152602001600115158152602001888152602001878152602001868152602001858152506005600089868686604051602001612db394939291906140cd565b60405160208183030381529060405280519060200120815260200190815260200160002060008201518160000160006101000a81548160ff02191690836003811115612e0257612e01613c0d565b5b021790555060208201518160000160016101000a81548160ff02191690836002811115612e3257612e31613c0d565b5b021790555060408201518160000160026101000a81548160ff0219169083600f811115612e6257612e61613c0d565b5b02179055506060820151816001015560808201518160020160006101000a81548160ff02191690831515021790555060a0820151816003015560c0820151816004015560e082015181600501556101008201518160060155905050612ed1674341521415b393ff60c01b612781565b612ee5673abda3db58ee88d660c01b612781565b7fb55811dd01470a227956304b027c610c7cdf9dd622dcc47791380261d56dc6ed87848484604051612f1a9493929190614edc565b60405180910390a150505050505050565b612f3c81612f376132c9565b6132d1565b50565b612f498282611960565b61301b57600160008084815260200190815260200160002060000160008373ffffffffffffffffffffffffffffffffffffffff1673ffffffffffffffffffffffffffffffffffffffff16815260200190815260200160002060006101000a81548160ff021916908315150217905550612fc06132c9565b73ffffffffffffffffffffffffffffffffffffffff168173ffffffffffffffffffffffffffffffffffffffff16837f2f8788117e7eff1d82e926ec794901d17c78024a50270940304540a733656f0d60405160405180910390a45b5050565b61303367b2ab78ab4e88a8b660c01b6132c6565b6130476783265a09f7a3b23d60c01b6132c6565b61305b67bfb6ee6be08c69fc60c01b6132c6565b61306f679d946af72c018eef60c01b6132c6565b600115158260030160008373ffffffffffffffffffffffffffffffffffffffff1673ffffffffffffffffffffffffffffffffffffffff16815260200190815260200160002060009054906101000a900460ff16151514613104576040517f08c379a00000000000000000000000000000000000000000000000000000000081526004016130fb90614f93565b60405180910390fd5b61311867a8f0c02c3645e77d60c01b6132c6565b61312c671aeaea7a22f3a63560c01b6132c6565b60008260030160008373ffffffffffffffffffffffffffffffffffffffff1673ffffffffffffffffffffffffffffffffffffffff16815260200190815260200160002060006101000a81548160ff02191690831515021790555061319a67124280e1781f78c360c01b6132c6565b60018260020160008282829054906101000a900460ff166131bb9190614b24565b92506101000a81548160ff021916908360ff1602179055505050565b50565b600060019050919050565b6131ef8282611960565b156132c257600080600084815260200190815260200160002060000160008373ffffffffffffffffffffffffffffffffffffffff1673ffffffffffffffffffffffffffffffffffffffff16815260200190815260200160002060006101000a81548160ff0219169083151502179055506132676132c9565b73ffffffffffffffffffffffffffffffffffffffff168173ffffffffffffffffffffffffffffffffffffffff16837ff6391f5c32d9c69d2a47ea670b442974b53935d1edc7fd64eb21e047a839171b60405160405180910390a45b5050565b50565b600033905090565b6132db8282611960565b613352576132e881613356565b6132f68360001c6020613383565b60405160200161330792919061504b565b6040516020818303038152906040526040517f08c379a00000000000000000000000000000000000000000000000000000000081526004016133499190614620565b60405180910390fd5b5050565b606061337c8273ffffffffffffffffffffffffffffffffffffffff16601460ff16613383565b9050919050565b6060600060028360026133969190615085565b6133a09190614926565b67ffffffffffffffff8111156133b9576133b861387c565b5b6040519080825280601f01601f1916602001820160405280156133eb5781602001600182028036833780820191505090505b5090507f300000000000000000000000000000000000000000000000000000000000000081600081518110613423576134226150c7565b5b60200101907effffffffffffffffffffffffffffffffffffffffffffffffffffffffffffff1916908160001a9053507f780000000000000000000000000000000000000000000000000000000000000081600181518110613487576134866150c7565b5b60200101907effffffffffffffffffffffffffffffffffffffffffffffffffffffffffffff1916908160001a905350600060018460026134c79190615085565b6134d19190614926565b90505b6001811115613571577f3031323334353637383961626364656600000000000000000000000000000000600f861660108110613513576135126150c7565b5b1a60f81b82828151811061352a576135296150c7565b5b60200101907effffffffffffffffffffffffffffffffffffffffffffffffffffffffffffff1916908160001a905350600485901c94508061356a906150f6565b90506134d4565b50600084146135b5576040517f08c379a00000000000000000000000000000000000000000000000000000000081526004016135ac9061516b565b60405180910390fd5b8091505092915050565b6000604051905090565b600080fd5b600080fd5b60007fffffffff0000000000000000000000000000000000000000000000000000000082169050919050565b613608816135d3565b811461361357600080fd5b50565b600081359050613625816135ff565b92915050565b600060208284031215613641576136406135c9565b5b600061364f84828501613616565b91505092915050565b60008115159050919050565b61366d81613658565b82525050565b60006020820190506136886000830184613664565b92915050565b600060ff82169050919050565b6136a48161368e565b82525050565b60006020820190506136bf600083018461369b565b92915050565b6000819050919050565b6136d8816136c5565b81146136e357600080fd5b50565b6000813590506136f5816136cf565b92915050565b600060208284031215613711576137106135c9565b5b600061371f848285016136e6565b91505092915050565b613731816136c5565b82525050565b600081519050919050565b600082825260208201905092915050565b60005b83811015613771578082015181840152602081019050613756565b60008484015250505050565b6000601f19601f8301169050919050565b600061379982613737565b6137a38185613742565b93506137b3818560208601613753565b6137bc8161377d565b840191505092915050565b600060a0820190506137dc6000830188613664565b6137e96020830187613728565b6137f6604083018661369b565b613803606083018561369b565b8181036080830152613815818461378e565b90509695505050505050565b60006020820190506138366000830184613728565b92915050565b6000819050919050565b61384f8161383c565b811461385a57600080fd5b50565b60008135905061386c81613846565b92915050565b600080fd5b600080fd5b7f4e487b7100000000000000000000000000000000000000000000000000000000600052604160045260246000fd5b6138b48261377d565b810181811067ffffffffffffffff821117156138d3576138d261387c565b5b80604052505050565b60006138e66135bf565b90506138f282826138ab565b919050565b600067ffffffffffffffff8211156139125761391161387c565b5b61391b8261377d565b9050602081019050919050565b82818337600083830152505050565b600061394a613945846138f7565b6138dc565b90508281526020810184848401111561396657613965613877565b5b613971848285613928565b509392505050565b600082601f83011261398e5761398d613872565b5b813561399e848260208601613937565b91505092915050565b600481106139b457600080fd5b50565b6000813590506139c6816139a7565b92915050565b600381106139d957600080fd5b50565b6000813590506139eb816139cc565b92915050565b601081106139fe57600080fd5b50565b600081359050613a10816139f1565b92915050565b600080600080600080600060e0888a031215613a3557613a346135c9565b5b6000613a438a828b0161385d565b975050602088013567ffffffffffffffff811115613a6457613a636135ce565b5b613a708a828b01613979565b965050604088013567ffffffffffffffff811115613a9157613a906135ce565b5b613a9d8a828b01613979565b9550506060613aae8a828b0161385d565b9450506080613abf8a828b016139b7565b93505060a0613ad08a828b016139dc565b92505060c0613ae18a828b01613a01565b91505092959891949750929550565b600073ffffffffffffffffffffffffffffffffffffffff82169050919050565b6000613b1b82613af0565b9050919050565b613b2b81613b10565b8114613b3657600080fd5b50565b600081359050613b4881613b22565b92915050565b60008060408385031215613b6557613b646135c9565b5b6000613b73858286016136e6565b9250506020613b8485828601613b39565b9150509250929050565b613b9781613658565b8114613ba257600080fd5b50565b600081359050613bb481613b8e565b92915050565b600080600060608486031215613bd357613bd26135c9565b5b6000613be1868287016136e6565b9350506020613bf286828701613b39565b9250506040613c0386828701613ba5565b9150509250925092565b7f4e487b7100000000000000000000000000000000000000000000000000000000600052602160045260246000fd5b60048110613c4d57613c4c613c0d565b5b50565b6000819050613c5e82613c3c565b919050565b6000613c6e82613c50565b9050919050565b613c7e81613c63565b82525050565b60038110613c9557613c94613c0d565b5b50565b6000819050613ca682613c84565b919050565b6000613cb682613c98565b9050919050565b613cc681613cab565b82525050565b60108110613cdd57613cdc613c0d565b5b50565b6000819050613cee82613ccc565b919050565b6000613cfe82613ce0565b9050919050565b613d0e81613cf3565b82525050565b613d1d8161383c565b82525050565b600061012082019050613d39600083018c613c75565b613d46602083018b613cbd565b613d53604083018a613d05565b613d606060830189613d14565b613d6d6080830188613664565b613d7a60a0830187613d14565b613d8760c0830186613728565b613d9460e0830185613728565b613da2610100830184613d14565b9a9950505050505050505050565b600060208284031215613dc657613dc56135c9565b5b6000613dd48482850161385d565b91505092915050565b60008060408385031215613df457613df36135c9565b5b6000613e028582860161385d565b9250506020613e138582860161385d565b9150509250929050565b6000602082019050613e326000830184613d14565b92915050565b7f4e487b7100000000000000000000000000000000000000000000000000000000600052602260045260246000fd5b60006002820490506001821680613e7f57607f821691505b602082108103613e9257613e91613e38565b5b50919050565b7f43616c6c6572206973206e6f7420612063657274696669657200000000000000600082015250565b6000613ece601983613742565b9150613ed982613e98565b602082019050919050565b60006020820190508181036000830152613efd81613ec1565b9050919050565b7f417070726563696174696f6e206973206e6f742076616c696400000000000000600082015250565b6000613f3a601983613742565b9150613f4582613f04565b602082019050919050565b60006020820190508181036000830152613f6981613f2d565b9050919050565b7f446567726565206973206e6f742076616c696400000000000000000000000000600082015250565b6000613fa6601383613742565b9150613fb182613f70565b602082019050919050565b60006020820190508181036000830152613fd581613f99565b9050919050565b7f50726f6772616d206973206e6f742076616c6964000000000000000000000000600082015250565b6000614012601483613742565b915061401d82613fdc565b602082019050919050565b6000602082019050818103600083015261404181614005565b9050919050565b6000819050919050565b61406361405e8261383c565b614048565b82525050565b60008160f81b9050919050565b600061408182614069565b9050919050565b61409961409482613c63565b614076565b82525050565b6140b06140ab82613cab565b614076565b82525050565b6140c76140c282613cf3565b614076565b82525050565b60006140d98287614052565b6020820191506140e98286614088565b6001820191506140f9828561409f565b60018201915061410982846140b6565b60018201915081905095945050505050565b7f5468697320636572746966696361746520616c72656164792065786973747300600082015250565b6000614151601f83613742565b915061415c8261411b565b602082019050919050565b6000602082019050818103600083015261418081614144565b9050919050565b600081905092915050565b7f4345525449465900000000000000000000000000000000000000000000000000600082015250565b60006141c8600783614187565b91506141d382614192565b600782019050919050565b60006141ea8287614052565b6020820191506141f9826141bb565b91506142058286614088565b600182019150614215828561409f565b60018201915061422582846140b6565b60018201915081905095945050505050565b60006142438284614052565b60208201915081905092915050565b600061425e8284614088565b60018201915081905092915050565b6000614279828461409f565b60018201915081905092915050565b600061429482846140b6565b60018201915081905092915050565b7f4365727469667920000000000000000000000000000000000000000000000000815250565b60006142d482613737565b6142de8185614187565b93506142ee818560208601613753565b80840191505092915050565b7f2000000000000000000000000000000000000000000000000000000000000000815250565b600061432b826142a3565b60088201915061433b82876142c9565b9150614346826142fa565b60018201915061435682866142c9565b9150614361826142fa565b60018201915061437182856142c9565b915061437c826142fa565b60018201915061438c82846142c9565b915081905095945050505050565b600063ffffffff82169050919050565b7f4e487b7100000000000000000000000000000000000000000000000000000000600052601160045260246000fd5b60006143e48261439a565b91506143ef8361439a565b92508282026143fd8161439a565b915080821461440f5761440e6143aa565b5b5092915050565b600061442282846142c9565b915081905092915050565b600081519050919050565b6000819050602082019050919050565b600061445482516136c5565b80915050919050565b600082821b905092915050565b60006144758261442d565b8261447f84614438565b905061448a81614448565b925060208210156144ca576144c57fffffffffffffffffffffffffffffffffffffffffffffffffffffffffffffffff8360200360080261445d565b831692505b5050919050565b7f596f752063616e27742072656e6f756e636520746f20796f757220726f6c652e60008201527f20506c6561736520636f6e746163742061646d696e7300000000000000000000602082015250565b600061452d603683613742565b9150614538826144d1565b604082019050919050565b6000602082019050818103600083015261455c81614520565b9050919050565b6000819050919050565b61457e614579826136c5565b614563565b82525050565b6000614590828461456d565b60208201915081905092915050565b7f4d61782000000000000000000000000000000000000000000000000000000000815250565b7f2072656163686564000000000000000000000000000000000000000000000000815250565b60006145f68261459f565b60048201915061460682846142c9565b9150614611826145c5565b60088201915081905092915050565b6000602082019050818103600083015261463a818461378e565b905092915050565b7f43616c6c6572206973206e6f7420612000000000000000000000000000000000815250565b7f2061646d696e0000000000000000000000000000000000000000000000000000815250565b600061469982614642565b6010820191506146a982846142c9565b91506146b482614668565b60068201915081905092915050565b7f54686973206164647265737320697320616c7265616479206120000000000000815250565b60006146f4826146c3565b601a8201915061470482846142c9565b915081905092915050565b60008160601b9050919050565b60006147278261470f565b9050919050565b60006147398261471c565b9050919050565b61475161474c82613b10565b61472e565b82525050565b7f4752414e54000000000000000000000000000000000000000000000000000000600082015250565b600061478d600583614187565b915061479882614757565b600582019050919050565b60006147af8285614740565b6014820191506147be82614780565b91506147ca828461456d565b6020820191508190509392505050565b60006147e68284614740565b60148201915081905092915050565b7f4772616e74200000000000000000000000000000000000000000000000000000815250565b6000614826826147f5565b60068201915061483682856142c9565b9150614841826142fa565b60018201915061485182846142c9565b91508190509392505050565b60006148688261439a565b91506148738361439a565b9250828201905063ffffffff81111561488f5761488e6143aa565b5b92915050565b7f4e487b7100000000000000000000000000000000000000000000000000000000600052601260045260246000fd5b60006148cf8261383c565b91506148da8361383c565b9250826148ea576148e9614895565b5b828206905092915050565b60006149008261383c565b915061490b8361383c565b92508261491b5761491a614895565b5b828204905092915050565b60006149318261383c565b915061493c8361383c565b9250828201905080821115614954576149536143aa565b5b92915050565b7f4d696e2000000000000000000000000000000000000000000000000000000000815250565b600061498b8261495a565b60048201915061499b82846142c9565b91506149a6826145c5565b60088201915081905092915050565b7f546869732061646472657373206973206e6f7420612000000000000000000000815250565b60006149e6826149b5565b6016820191506149f682846142c9565b915081905092915050565b7f5245564f4b450000000000000000000000000000000000000000000000000000600082015250565b6000614a37600683614187565b9150614a4282614a01565b600682019050919050565b6000614a598285614740565b601482019150614a6882614a2a565b9150614a74828461456d565b6020820191508190509392505050565b7f5265766f6b652000000000000000000000000000000000000000000000000000815250565b6000614ab582614a84565b600782019150614ac582856142c9565b9150614ad0826142fa565b600182019150614ae082846142c9565b91508190509392505050565b6000614af78261439a565b9150614b028361439a565b9250828203905063ffffffff811115614b1e57614b1d6143aa565b5b92915050565b6000614b2f8261368e565b9150614b3a8361368e565b9250828203905060ff811115614b5357614b526143aa565b5b92915050565b6000614b648261383c565b91507fffffffffffffffffffffffffffffffffffffffffffffffffffffffffffffffff8203614b9657614b956143aa565b5b600182019050919050565b60008190508160005260206000209050919050565b60006020601f8301049050919050565b600060088302614bf67fffffffffffffffffffffffffffffffffffffffffffffffffffffffffffffffff8261445d565b614c00868361445d565b95508019841693508086168417925050509392505050565b6000819050919050565b6000614c3d614c38614c338461383c565b614c18565b61383c565b9050919050565b6000819050919050565b614c5783614c22565b614c6b614c6382614c44565b848454614bc6565b825550505050565b600090565b614c80614c73565b614c8b818484614c4e565b505050565b5b81811015614caf57614ca4600082614c78565b600181019050614c91565b5050565b601f821115614cf457614cc581614ba1565b614cce84614bb6565b81016020851015614cdd578190505b614cf1614ce985614bb6565b830182614c90565b50505b505050565b600082821c905092915050565b6000614d1760001984600802614cf9565b1980831691505092915050565b6000614d308383614d06565b9150826002028217905092915050565b614d4982613737565b67ffffffffffffffff811115614d6257614d6161387c565b5b614d6c8254613e67565b614d77828285614cb3565b600060209050601f831160018114614daa5760008415614d98578287015190505b614da28582614d24565b865550614e0a565b601f198416614db886614ba1565b60005b82811015614de057848901518255600182019150602085019450602081019050614dbb565b86831015614dfd5784890151614df9601f891682614d06565b8355505b6001600288020188555050505b505050505050565b7f596f7520616c7265616479207369676e65642074686973206d756c7469736967600082015250565b6000614e48602083613742565b9150614e5382614e12565b602082019050919050565b60006020820190508181036000830152614e7781614e3b565b9050919050565b6000614e898261368e565b915060ff8203614e9c57614e9b6143aa565b5b600182019050919050565b6000614eb28261368e565b9150614ebd8361368e565b9250828201905060ff811115614ed657614ed56143aa565b5b92915050565b6000608082019050614ef16000830187613d14565b614efe6020830186613c75565b614f0b6040830185613cbd565b614f186060830184613d05565b95945050505050565b7f596f752068617665206e6f7465207369676e65642074686973206d756c74697360008201527f6967207965740000000000000000000000000000000000000000000000000000602082015250565b6000614f7d602683613742565b9150614f8882614f21565b604082019050919050565b60006020820190508181036000830152614fac81614f70565b9050919050565b7f416363657373436f6e74726f6c3a206163636f756e7420000000000000000000600082015250565b6000614fe9601783614187565b9150614ff482614fb3565b601782019050919050565b7f206973206d697373696e6720726f6c6520000000000000000000000000000000600082015250565b6000615035601183614187565b915061504082614fff565b601182019050919050565b600061505682614fdc565b915061506282856142c9565b915061506d82615028565b915061507982846142c9565b91508190509392505050565b60006150908261383c565b915061509b8361383c565b92508282026150a98161383c565b915082820484148315176150c0576150bf6143aa565b5b5092915050565b7f4e487b7100000000000000000000000000000000000000000000000000000000600052603260045260246000fd5b60006151018261383c565b915060008203615114576151136143aa565b5b600182039050919050565b7f537472696e67733a20686578206c656e67746820696e73756666696369656e74600082015250565b6000615155602083613742565b91506151608261511f565b602082019050919050565b6000602082019050818103600083015261518481615148565b905091905056fea26469706673582212205d0b236d6e7ecc232d6a8fed7cf31e991cbbef2a993869973ec4f0f8dda68bad64736f6c63430008130033",
  "linkReferences": {},
  "deployedLinkReferences": {}
}