{
  "_format": "hh-sol-artifact-1",
  "contractName": "Certifications",
  "sourceName": "contracts/Certifications.sol",
  "abi": [
    {
      "inputs": [
        {
          "internalType": "address",
          "name": "certifier_admin1",
          "type": "address"
        },
        {
          "internalType": "address",
          "name": "certifier_admin2",
          "type": "address"
        }
      ],
      "stateMutability": "nonpayable",
      "type": "constructor"
    },
    {
      "anonymous": false,
      "inputs": [
        {
          "indexed": true,
          "internalType": "bytes32",
          "name": "role",
          "type": "bytes32"
        },
        {
          "indexed": true,
          "internalType": "bytes32",
          "name": "previousAdminRole",
          "type": "bytes32"
        },
        {
          "indexed": true,
          "internalType": "bytes32",
          "name": "newAdminRole",
          "type": "bytes32"
        }
      ],
      "name": "RoleAdminChanged",
      "type": "event"
    },
    {
      "anonymous": false,
      "inputs": [
        {
          "indexed": true,
          "internalType": "bytes32",
          "name": "role",
          "type": "bytes32"
        },
        {
          "indexed": true,
          "internalType": "address",
          "name": "account",
          "type": "address"
        },
        {
          "indexed": true,
          "internalType": "address",
          "name": "sender",
          "type": "address"
        }
      ],
      "name": "RoleGranted",
      "type": "event"
    },
    {
      "anonymous": false,
      "inputs": [
        {
          "indexed": true,
          "internalType": "bytes32",
          "name": "role",
          "type": "bytes32"
        },
        {
          "indexed": true,
          "internalType": "address",
          "name": "account",
          "type": "address"
        },
        {
          "indexed": true,
          "internalType": "address",
          "name": "sender",
          "type": "address"
        }
      ],
      "name": "RoleRevoked",
      "type": "event"
    },
    {
      "anonymous": false,
      "inputs": [
        {
          "indexed": false,
          "internalType": "uint256",
          "name": "studentId",
          "type": "uint256"
        },
        {
          "indexed": false,
          "internalType": "enum Certifications.appreciation",
          "name": "appreciation",
          "type": "uint8"
        },
        {
          "indexed": false,
          "internalType": "enum Certifications.degree",
          "name": "degree",
          "type": "uint8"
        },
        {
          "indexed": false,
          "internalType": "enum Certifications.program",
          "name": "program",
          "type": "uint8"
        }
      ],
      "name": "certificationEmited",
      "type": "event"
    },
    {
      "anonymous": false,
      "inputs": [
        {
          "indexed": false,
          "internalType": "bytes32",
          "name": "multiSigName",
          "type": "bytes32"
        }
      ],
      "name": "multiSigCleared",
      "type": "event"
    },
    {
      "anonymous": false,
      "inputs": [
        {
          "indexed": false,
          "internalType": "bytes32",
          "name": "multiSigName",
          "type": "bytes32"
        }
      ],
      "name": "multiSigSigned",
      "type": "event"
    },
    {
      "inputs": [],
      "name": "CERTIFIER",
      "outputs": [
        {
          "internalType": "bytes32",
          "name": "",
          "type": "bytes32"
        }
      ],
      "stateMutability": "view",
      "type": "function"
    },
    {
      "inputs": [],
      "name": "CERTIFIER_ADMIN",
      "outputs": [
        {
          "internalType": "bytes32",
          "name": "",
          "type": "bytes32"
        }
      ],
      "stateMutability": "view",
      "type": "function"
    },
    {
      "inputs": [],
      "name": "DEFAULT_ADMIN_ROLE",
      "outputs": [
        {
          "internalType": "bytes32",
          "name": "",
          "type": "bytes32"
        }
      ],
      "stateMutability": "view",
      "type": "function"
    },
    {
      "inputs": [],
      "name": "MAX_CERTIFIERS",
      "outputs": [
        {
          "internalType": "uint8",
          "name": "",
          "type": "uint8"
        }
      ],
      "stateMutability": "view",
      "type": "function"
    },
    {
      "inputs": [],
      "name": "MAX_CERTIFIERS_ADMIN",
      "outputs": [
        {
          "internalType": "uint8",
          "name": "",
          "type": "uint8"
        }
      ],
      "stateMutability": "view",
      "type": "function"
    },
    {
      "inputs": [],
      "name": "MIN_CERTIFIERS_ADMIN",
      "outputs": [
        {
          "internalType": "uint8",
          "name": "",
          "type": "uint8"
        }
      ],
      "stateMutability": "view",
      "type": "function"
    },
    {
      "inputs": [],
      "name": "PERCENT_TO_CERTIFY",
      "outputs": [
        {
          "internalType": "uint8",
          "name": "",
          "type": "uint8"
        }
      ],
      "stateMutability": "view",
      "type": "function"
    },
    {
      "inputs": [],
      "name": "PERCENT_TO_EDIT_CERTIFICATE",
      "outputs": [
        {
          "internalType": "uint8",
          "name": "",
          "type": "uint8"
        }
      ],
      "stateMutability": "view",
      "type": "function"
    },
    {
      "inputs": [],
      "name": "PERCENT_TO_GRANT_CERTIFIER",
      "outputs": [
        {
          "internalType": "uint8",
          "name": "",
          "type": "uint8"
        }
      ],
      "stateMutability": "view",
      "type": "function"
    },
    {
      "inputs": [],
      "name": "PERCENT_TO_GRANT_CERTIFIER_ADMIN",
      "outputs": [
        {
          "internalType": "uint8",
          "name": "",
          "type": "uint8"
        }
      ],
      "stateMutability": "view",
      "type": "function"
    },
    {
      "inputs": [],
      "name": "PERCENT_TO_REVOKE_CERTIFIER",
      "outputs": [
        {
          "internalType": "uint8",
          "name": "",
          "type": "uint8"
        }
      ],
      "stateMutability": "view",
      "type": "function"
    },
    {
      "inputs": [],
      "name": "PERCENT_TO_REVOKE_CERTIFIER_ADMIN",
      "outputs": [
        {
          "internalType": "uint8",
          "name": "",
          "type": "uint8"
        }
      ],
      "stateMutability": "view",
      "type": "function"
    },
    {
      "inputs": [
        {
          "internalType": "uint256",
          "name": "a",
          "type": "uint256"
        },
        {
          "internalType": "uint256",
          "name": "b",
          "type": "uint256"
        }
      ],
      "name": "ceilUDiv",
      "outputs": [
        {
          "internalType": "uint256",
          "name": "",
          "type": "uint256"
        }
      ],
      "stateMutability": "pure",
      "type": "function"
    },
    {
      "inputs": [
        {
          "internalType": "bytes32",
          "name": "",
          "type": "bytes32"
        }
      ],
      "name": "certificates",
      "outputs": [
        {
          "internalType": "enum Certifications.appreciation",
          "name": "appreciation",
          "type": "uint8"
        },
        {
          "internalType": "enum Certifications.degree",
          "name": "degree",
          "type": "uint8"
        },
        {
          "internalType": "enum Certifications.program",
          "name": "program",
          "type": "uint8"
        },
        {
          "internalType": "uint256",
          "name": "emition_date",
          "type": "uint256"
        },
        {
          "internalType": "bool",
          "name": "validity",
          "type": "bool"
        },
        {
          "internalType": "uint256",
          "name": "id",
          "type": "uint256"
        },
        {
          "internalType": "bytes32",
          "name": "firstname",
          "type": "bytes32"
        },
        {
          "internalType": "bytes32",
          "name": "lastname",
          "type": "bytes32"
        },
        {
          "internalType": "uint256",
          "name": "birthdate",
          "type": "uint256"
        }
      ],
      "stateMutability": "view",
      "type": "function"
    },
    {
      "inputs": [
        {
          "internalType": "uint256",
          "name": "studentId",
          "type": "uint256"
        },
        {
          "internalType": "string",
          "name": "studentFirstname",
          "type": "string"
        },
        {
          "internalType": "string",
          "name": "studentLastname",
          "type": "string"
        },
        {
          "internalType": "uint256",
          "name": "studentBirthdate",
          "type": "uint256"
        },
        {
          "internalType": "enum Certifications.appreciation",
          "name": "app",
          "type": "uint8"
        },
        {
          "internalType": "enum Certifications.degree",
          "name": "deg",
          "type": "uint8"
        },
        {
          "internalType": "enum Certifications.program",
          "name": "prog",
          "type": "uint8"
        },
        {
          "internalType": "bool",
          "name": "approve",
          "type": "bool"
        }
      ],
      "name": "certify",
      "outputs": [],
      "stateMutability": "nonpayable",
      "type": "function"
    },
    {
      "inputs": [
        {
          "internalType": "uint256",
          "name": "studentId",
          "type": "uint256"
        },
        {
          "internalType": "enum Certifications.appreciation",
          "name": "app",
          "type": "uint8"
        },
        {
          "internalType": "enum Certifications.degree",
          "name": "deg",
          "type": "uint8"
        },
        {
          "internalType": "enum Certifications.program",
          "name": "prog",
          "type": "uint8"
        },
        {
          "internalType": "bool",
          "name": "approve",
          "type": "bool"
        }
      ],
      "name": "deleteCertificate",
      "outputs": [],
      "stateMutability": "nonpayable",
      "type": "function"
    },
    {
      "inputs": [
        {
          "internalType": "bytes32",
          "name": "role",
          "type": "bytes32"
        }
      ],
      "name": "getRoleAdmin",
      "outputs": [
        {
          "internalType": "bytes32",
          "name": "",
          "type": "bytes32"
        }
      ],
      "stateMutability": "view",
      "type": "function"
    },
    {
      "inputs": [
        {
          "internalType": "bytes32",
          "name": "roleHash",
          "type": "bytes32"
        },
        {
          "internalType": "address",
          "name": "target",
          "type": "address"
        },
        {
          "internalType": "bool",
          "name": "approve",
          "type": "bool"
        }
      ],
      "name": "grantAnyRole",
      "outputs": [],
      "stateMutability": "nonpayable",
      "type": "function"
    },
    {
      "inputs": [
        {
          "internalType": "bytes32",
          "name": "role",
          "type": "bytes32"
        },
        {
          "internalType": "address",
          "name": "account",
          "type": "address"
        }
      ],
      "name": "grantRole",
      "outputs": [],
      "stateMutability": "nonpayable",
      "type": "function"
    },
    {
      "inputs": [
        {
          "internalType": "bytes32",
          "name": "role",
          "type": "bytes32"
        },
        {
          "internalType": "address",
          "name": "account",
          "type": "address"
        }
      ],
      "name": "hasRole",
      "outputs": [
        {
          "internalType": "bool",
          "name": "",
          "type": "bool"
        }
      ],
      "stateMutability": "view",
      "type": "function"
    },
    {
      "inputs": [
        {
          "internalType": "bytes32",
          "name": "",
          "type": "bytes32"
        }
      ],
      "name": "multiSig",
      "outputs": [
        {
          "internalType": "bool",
          "name": "created",
          "type": "bool"
        },
        {
          "internalType": "bytes32",
          "name": "role",
          "type": "bytes32"
        },
        {
          "internalType": "uint8",
          "name": "count",
          "type": "uint8"
        },
        {
          "internalType": "uint8",
          "name": "id",
          "type": "uint8"
        },
        {
          "internalType": "string",
          "name": "info",
          "type": "string"
        }
      ],
      "stateMutability": "view",
      "type": "function"
    },
    {
      "inputs": [
        {
          "internalType": "uint256",
          "name": "",
          "type": "uint256"
        }
      ],
      "name": "multiSigId",
      "outputs": [
        {
          "internalType": "bytes32",
          "name": "",
          "type": "bytes32"
        }
      ],
      "stateMutability": "view",
      "type": "function"
    },
    {
      "inputs": [
        {
          "internalType": "bytes32",
          "name": "",
          "type": "bytes32"
        },
        {
          "internalType": "address",
          "name": "",
          "type": "address"
        }
      ],
      "name": "renounceRole",
      "outputs": [],
      "stateMutability": "nonpayable",
      "type": "function"
    },
    {
      "inputs": [
        {
          "internalType": "bytes32",
          "name": "roleHash",
          "type": "bytes32"
        },
        {
          "internalType": "address",
          "name": "target",
          "type": "address"
        },
        {
          "internalType": "bool",
          "name": "approve",
          "type": "bool"
        }
      ],
      "name": "revokeAnyRole",
      "outputs": [],
      "stateMutability": "nonpayable",
      "type": "function"
    },
    {
      "inputs": [
        {
          "internalType": "bytes32",
          "name": "role",
          "type": "bytes32"
        },
        {
          "internalType": "address",
          "name": "account",
          "type": "address"
        }
      ],
      "name": "revokeRole",
      "outputs": [],
      "stateMutability": "nonpayable",
      "type": "function"
    },
    {
      "inputs": [
        {
          "internalType": "bytes4",
          "name": "interfaceId",
          "type": "bytes4"
        }
      ],
      "name": "supportsInterface",
      "outputs": [
        {
          "internalType": "bool",
          "name": "",
          "type": "bool"
        }
      ],
      "stateMutability": "view",
      "type": "function"
    }
  ],
  "bytecode": "0x60806040523480156200001157600080fd5b5060405162006d9338038062006d9383398181016040528101906200003791906200099c565b6200005367213863767febee4a60c01b620007b660201b60201c565b6200006f672d86523e849fc68d60c01b620007b660201b60201c565b6200008b67689f9d36814699ed60c01b620007b660201b60201c565b620000a767f194d1ffc0447ea960c01b620007b660201b60201c565b600073ffffffffffffffffffffffffffffffffffffffff168273ffffffffffffffffffffffffffffffffffffffff160362000119576040517f08c379a0000000000000000000000000000000000000000000000000000000008152600401620001109062000a6a565b60405180910390fd5b620001356789a333387d41a6b660c01b620007b660201b60201c565b62000151675da07d83cb2bab9d60c01b620007b660201b60201c565b6200016d67f25ac83becfb3ba860c01b620007b660201b60201c565b6200018967386935278dae822660c01b620007b660201b60201c565b600073ffffffffffffffffffffffffffffffffffffffff168173ffffffffffffffffffffffffffffffffffffffff1603620001fb576040517f08c379a0000000000000000000000000000000000000000000000000000000008152600401620001f29062000b02565b60405180910390fd5b6200021767ccb3b5b8af78b2cb60c01b620007b660201b60201c565b6200023367e0f5824ede3cb57d60c01b620007b660201b60201c565b6200024f67f4b14bead3785a6660c01b620007b660201b60201c565b6200026b6743d8ba5b87e2e64860c01b620007b660201b60201c565b8073ffffffffffffffffffffffffffffffffffffffff168273ffffffffffffffffffffffffffffffffffffffff1603620002dc576040517f08c379a0000000000000000000000000000000000000000000000000000000008152600401620002d39062000b9a565b60405180910390fd5b620002f8675882f3b1b847165d60c01b620007b660201b60201c565b6200031467ec6dbc09e6a8d3c360c01b620007b660201b60201c565b620003306787fec01562de0d7760c01b620007b660201b60201c565b620003627f4bbeb6fd3e5222e55f2f8b0c35bc228e0a06a25d0da772fdb02c3b92fa004f8883620007b960201b60201c565b6200037e67b815fa764d360f8060c01b620007b660201b60201c565b6200039a676c848ca2d28cc2e760c01b620007b660201b60201c565b620003cc7f4bbeb6fd3e5222e55f2f8b0c35bc228e0a06a25d0da772fdb02c3b92fa004f8882620007cf60201b60201c565b620003e86762a5c10409c68fa660c01b620007b660201b60201c565b6040518060e00160405280600263ffffffff168152602001600260ff1663ffffffff168152602001600f60ff1663ffffffff168152602001605060ff168152602001605060ff1681526020017f4bbeb6fd3e5222e55f2f8b0c35bc228e0a06a25d0da772fdb02c3b92fa004f8881526020016040516020016200046b9062000c17565b604051602081830303815290604052620004859062000c77565b815250600160007f4bbeb6fd3e5222e55f2f8b0c35bc228e0a06a25d0da772fdb02c3b92fa004f88815260200190815260200160002060008201518160000160006101000a81548163ffffffff021916908363ffffffff16021790555060208201518160000160046101000a81548163ffffffff021916908363ffffffff16021790555060408201518160000160086101000a81548163ffffffff021916908363ffffffff160217905550606082015181600001600c6101000a81548160ff021916908360ff160217905550608082015181600001600d6101000a81548160ff021916908360ff16021790555060a0820151816001015560c08201518160020155905050620005a56767be7bcfb8b646a360c01b620007b660201b60201c565b620005c167ab4b51ef7195398660c01b620007b660201b60201c565b620005f47fd646ae07eb0d0f77457502a65e7407930dff4cd4fd99abc6aac87a753f4c8a426000620007b960201b60201c565b620006106745513953a8aaed3b60c01b620007b660201b60201c565b6040518060e00160405280600063ffffffff168152602001600063ffffffff168152602001600f60ff1663ffffffff168152602001605060ff168152602001605060ff1681526020017f4bbeb6fd3e5222e55f2f8b0c35bc228e0a06a25d0da772fdb02c3b92fa004f888152602001604051602001620006909062000d37565b604051602081830303815290604052620006aa9062000c77565b815250600160007fd646ae07eb0d0f77457502a65e7407930dff4cd4fd99abc6aac87a753f4c8a42815260200190815260200160002060008201518160000160006101000a81548163ffffffff021916908363ffffffff16021790555060208201518160000160046101000a81548163ffffffff021916908363ffffffff16021790555060408201518160000160086101000a81548163ffffffff021916908363ffffffff160217905550606082015181600001600c6101000a81548160ff021916908360ff160217905550608082015181600001600d6101000a81548160ff021916908360ff16021790555060a0820151816001015560c08201518160020155905050505062000d4e565b50565b620007cb8282620007cf60201b60201c565b5050565b620007e18282620008c060201b60201c565b620008bc57600160008084815260200190815260200160002060000160008373ffffffffffffffffffffffffffffffffffffffff1673ffffffffffffffffffffffffffffffffffffffff16815260200190815260200160002060006101000a81548160ff021916908315150217905550620008616200092a60201b60201c565b73ffffffffffffffffffffffffffffffffffffffff168173ffffffffffffffffffffffffffffffffffffffff16837f2f8788117e7eff1d82e926ec794901d17c78024a50270940304540a733656f0d60405160405180910390a45b5050565b600080600084815260200190815260200160002060000160008373ffffffffffffffffffffffffffffffffffffffff1673ffffffffffffffffffffffffffffffffffffffff16815260200190815260200160002060009054906101000a900460ff16905092915050565b600033905090565b600080fd5b600073ffffffffffffffffffffffffffffffffffffffff82169050919050565b6000620009648262000937565b9050919050565b620009768162000957565b81146200098257600080fd5b50565b60008151905062000996816200096b565b92915050565b60008060408385031215620009b657620009b562000932565b5b6000620009c68582860162000985565b9250506020620009d98582860162000985565b9150509250929050565b600082825260208201905092915050565b7f4365727469666965722061646d696e3120616464726573732063616e6e6f742060008201527f6265203000000000000000000000000000000000000000000000000000000000602082015250565b600062000a52602483620009e3565b915062000a5f82620009f4565b604082019050919050565b6000602082019050818103600083015262000a858162000a43565b9050919050565b7f4365727469666965722061646d696e3220616464726573732063616e6e6f742060008201527f6265203000000000000000000000000000000000000000000000000000000000602082015250565b600062000aea602483620009e3565b915062000af78262000a8c565b604082019050919050565b6000602082019050818103600083015262000b1d8162000adb565b9050919050565b7f436572746966696572206164647265737365732063616e6e6f7420626520746860008201527f652073616d650000000000000000000000000000000000000000000000000000602082015250565b600062000b82602683620009e3565b915062000b8f8262000b24565b604082019050919050565b6000602082019050818103600083015262000bb58162000b73565b9050919050565b600081905092915050565b7f4345525449464945525f41444d494e0000000000000000000000000000000000600082015250565b600062000bff600f8362000bbc565b915062000c0c8262000bc7565b600f82019050919050565b600062000c248262000bf0565b9150819050919050565b600081519050919050565b6000819050602082019050919050565b6000819050919050565b600062000c61825162000c49565b80915050919050565b600082821b905092915050565b600062000c848262000c2e565b8262000c908462000c39565b905062000c9d8162000c53565b9250602082101562000ce05762000cdb7fffffffffffffffffffffffffffffffffffffffffffffffffffffffffffffffff8360200360080262000c6a565b831692505b5050919050565b7f4345525449464945520000000000000000000000000000000000000000000000600082015250565b600062000d1f60098362000bbc565b915062000d2c8262000ce7565b600982019050919050565b600062000d448262000d10565b9150819050919050565b6160358062000d5e6000396000f3fe608060405234801561001057600080fd5b506004361061018e5760003560e01c8063742f0688116100de578063a217fddf11610097578063c0c3740111610071578063c0c37401146104a9578063d3243ad8146104c5578063d547741f146104e1578063e05f2fb4146104fd5761018e565b8063a217fddf1461043d578063b86bc74f1461045b578063bf802091146104795761018e565b8063742f06881461034d5780637cd29fb7146103855780638856a0e9146103a357806391d14854146103bf5780639dd09a73146103ef5780639e3399091461041f5761018e565b80632f2ff15d1161014b5780634da11a20116101255780634da11a20146102d75780635907ebea146102f55780636bc6421b14610313578063719129be146103315761018e565b80632f2ff15d1461028157806333b72e491461029d57806336568abe146102bb5761018e565b806301ffc9a7146101935780630f68794a146101c35780631a968069146101e15780631a9cfe2814610215578063248a9ca3146102335780632cd94e4f14610263575b600080fd5b6101ad60048036038101906101a891906141e0565b61051b565b6040516101ba9190614228565b60405180910390f35b6101cb610595565b6040516101d8919061425f565b60405180910390f35b6101fb60048036038101906101f691906142b0565b61059a565b60405161020c95949392919061437c565b60405180910390f35b61021d61067f565b60405161022a919061425f565b60405180910390f35b61024d600480360381019061024891906142b0565b610684565b60405161025a91906143d6565b60405180910390f35b61026b6106a3565b604051610278919061425f565b60405180910390f35b61029b6004803603810190610296919061444f565b6106a8565b005b6102a56106c9565b6040516102b2919061425f565b60405180910390f35b6102d560048036038101906102d0919061444f565b6106ce565b005b6102df610745565b6040516102ec919061425f565b60405180910390f35b6102fd61074a565b60405161030a919061425f565b60405180910390f35b61031b61074f565b604051610328919061425f565b60405180910390f35b61034b600480360381019061034691906144bb565b610754565b005b610367600480360381019061036291906142b0565b610fd8565b60405161037c9998979695949392919061462e565b60405180910390f35b61038d61105a565b60405161039a919061425f565b60405180910390f35b6103bd60048036038101906103b89190614756565b61105f565b005b6103d960048036038101906103d4919061444f565b611a78565b6040516103e69190614228565b60405180910390f35b610409600480360381019061040491906147d1565b611ae2565b60405161041691906143d6565b60405180910390f35b610427611afa565b604051610434919061425f565b60405180910390f35b610445611aff565b60405161045291906143d6565b60405180910390f35b610463611b06565b60405161047091906143d6565b60405180910390f35b610493600480360381019061048e91906147fe565b611b2a565b6040516104a0919061483e565b60405180910390f35b6104c360048036038101906104be919061498e565b611c27565b005b6104df60048036038101906104da91906144bb565b6126c4565b005b6104fb60048036038101906104f6919061444f565b613287565b005b6105056132a8565b60405161051291906143d6565b60405180910390f35b60007f7965db0b000000000000000000000000000000000000000000000000000000007bffffffffffffffffffffffffffffffffffffffffffffffffffffffff1916827bffffffffffffffffffffffffffffffffffffffffffffffffffffffff1916148061058e575061058d826132cc565b5b9050919050565b605081565b60026020528060005260406000206000915090508060000160009054906101000a900460ff16908060010154908060020160009054906101000a900460ff16908060020160019054906101000a900460ff16908060050180546105fc90614aab565b80601f016020809104026020016040519081016040528092919081815260200182805461062890614aab565b80156106755780601f1061064a57610100808354040283529160200191610675565b820191906000526020600020905b81548152906001019060200180831161065857829003601f168201915b5050505050905085565b605081565b6000806000838152602001908152602001600020600101549050919050565b605081565b6106b182610684565b6106ba81613336565b6106c4838361334a565b505050565b600281565b6106e267515d414290ef63a760c01b61342a565b6106f667408d4005470649cf60c01b61342a565b61070a679c54a3cc10a34a3d60c01b61342a565b6040517f08c379a000000000000000000000000000000000000000000000000000000000815260040161073c90614b4e565b60405180910390fd5b605081565b600f81565b603381565b61076867e5a91bfc65f0c4b160c01b61342a565b61077c674900a3687504079c60c01b61342a565b610790674fce23ae6bb9dc7f60c01b61342a565b60006001600085815260200190815260200160002090506107bb67a37f82e1ae7b555d60c01b61342a565b6107cf67db9f0c54e294074460c01b61342a565b6107e367e392881a64b85dd960c01b61342a565b8060000160009054906101000a900463ffffffff1663ffffffff168160000160089054906101000a900463ffffffff1663ffffffff1611816002015460405160200161082f9190614b8f565b60405160208183030381529060405260405160200161084e9190614c32565b6040516020818303038152906040529061089e576040517f08c379a00000000000000000000000000000000000000000000000000000000081526004016108959190614c67565b60405180910390fd5b506108b3673b69b5f7da0fc98560c01b61342a565b6108c76739878fdc39193a5c60c01b61342a565b6108db67efd429d53dea246260c01b61342a565b6108ef67ef5c68bad402a4e060c01b61342a565b6108fd816001015433611a78565b81600201546040516020016109129190614b8f565b6040516020818303038152906040526040516020016109319190614cd5565b60405160208183030381529060405290610981576040517f08c379a00000000000000000000000000000000000000000000000000000000081526004016109789190614c67565b60405180910390fd5b5061099667b55b9f6d9d1026af60c01b61342a565b6109aa67c7765049f91a4ef760c01b61342a565b6109be67a6d489319a22f36060c01b61342a565b6109d267a5644b271bdebd0560c01b61342a565b600015156109e08585611a78565b15151481600201546040516020016109f89190614b8f565b604051602081830303815290604052604051602001610a179190614d30565b60405160208183030381529060405290610a67576040517f08c379a0000000000000000000000000000000000000000000000000000000008152600401610a5e9190614c67565b60405180910390fd5b50610a7c6773766d50c37ae17460c01b61342a565b610a90678b979d26b761488e60c01b61342a565b610aa4674773b74ca2dfd97760c01b61342a565b60008385604051602001610ab9929190614dea565b604051602081830303815290604052805190602001209050610ae5673a3c8e3b93c77fd760c01b61342a565b610af967de5b5a61926c36c960c01b61342a565b610b6b8183600101548460020154604051602001610b179190614b8f565b60405160208183030381529060405287604051602001610b379190614e21565b604051602081830303815290604052604051602001610b57929190614e88565b60405160208183030381529060405261342d565b610b7f67fba333423761151560c01b61342a565b610b9367a458fc201c41f2eb60c01b61342a565b828015610c045750600015156002600083815260200190815260200160002060030160003373ffffffffffffffffffffffffffffffffffffffff1673ffffffffffffffffffffffffffffffffffffffff16815260200190815260200160002060009054906101000a900460ff161515145b15610cc557610c1d6732e4132dad12190060c01b61342a565b610c31675903462ab1321cac60c01b61342a565b610c456795a317ec06f83c1060c01b61342a565b610c6160026000838152602001908152602001600020336135d1565b610c7567b1d4635b098ce77a60c01b61342a565b610c8967a0b843672511ab5560c01b61342a565b7fb431a69783a2491a0c400ff16dab32cd442abf8fe5af63a526a7248d730192f881604051610cb891906143d6565b60405180910390a1610dcb565b610cd9677c7927e4b5bd48f460c01b61342a565b610ced67a4ebbaf8faac82d260c01b61342a565b6000151583151503610db557610d0d6797b47e77a9a7b3fc60c01b61342a565b610d2167758438fa606727d960c01b61342a565b610d3567589e0c39053cad2660c01b61342a565b610d516002600083815260200190815260200160002033613853565b610d656759de4f2a505f6c6d60c01b61342a565b610d79676d4a2d08a14ea23160c01b61342a565b7fb431a69783a2491a0c400ff16dab32cd442abf8fe5af63a526a7248d730192f881604051610da891906143d6565b60405180910390a1610dca565b610dc967c3b37424d9c469d060c01b61342a565b5b5b610ddf67740ce2464856c2b360c01b61342a565b610df3676ae93f6bf114c2f760c01b61342a565b610e4d82600001600c9054906101000a900460ff1660ff16600160008560010154815260200190815260200160002060000160009054906101000a900463ffffffff16610e409190614f09565b63ffffffff166064611b2a565b6002600083815260200190815260200160002060020160009054906101000a900460ff1660ff1610610fbc57610e8d677a7ed0c4e584401460c01b61342a565b610ea16745d4f9869d13660b60c01b61342a565b610eb5671cbdd7add0b2dd5c60c01b61342a565b610ed060026000838152602001908152602001600020613a0b565b610ee467f2a3b9ba0bc2281e60c01b61342a565b610ef8679859be0913bc1e1760c01b61342a565b7f562618dbcf74b61ae5b0f229fe40ba6d5b6ae6b4248f8c89a870dda7c77135f681604051610f2791906143d6565b60405180910390a1610f43678f5912fc196c66fb60c01b61342a565b610f5767d451ad32aab430b860c01b61342a565b610f61858561334a565b610f75672f872260ec70aa8060c01b61342a565b60018260000160008282829054906101000a900463ffffffff16610f999190614f46565b92506101000a81548163ffffffff021916908363ffffffff160217905550610fd1565b610fd067e28d98831e470a0e60c01b61342a565b5b5050505050565b60056020528060005260406000206000915090508060000160009054906101000a900460ff16908060000160019054906101000a900460ff16908060000160029054906101000a900460ff16908060010154908060020160009054906101000a900460ff16908060030154908060040154908060050154908060060154905089565b605081565b611073679e04f1a5c5bda7df60c01b61342a565b61108767d618060faf473a2a60c01b61342a565b61109b6759aacab69e3a1cf860c01b61342a565b6110af671f8604b2e035df8c60c01b61342a565b6110d97fd646ae07eb0d0f77457502a65e7407930dff4cd4fd99abc6aac87a753f4c8a4233611a78565b611118576040517f08c379a000000000000000000000000000000000000000000000000000000000815260040161110f90614fca565b60405180910390fd5b61112c674341521415b393ff60c01b61342a565b611140673abda3db58ee88d660c01b61342a565b61115467d0a65ecdfb35759e60c01b61342a565b61116867fecb9a5516d562ad60c01b61342a565b6000600381111561117c5761117b61450e565b5b84600381111561118f5761118e61450e565b5b101580156111c157506003808111156111ab576111aa61450e565b5b8460038111156111be576111bd61450e565b5b11155b611200576040517f08c379a00000000000000000000000000000000000000000000000000000000081526004016111f790615036565b60405180910390fd5b6112146711522e4c80b8acf560c01b61342a565b611228675a87c8131b0f347660c01b61342a565b61123c67b52e37c57f13f03660c01b61342a565b61125067c6bc374fa7feff0160c01b61342a565b600060028111156112645761126361450e565b5b8360028111156112775761127661450e565b5b101580156112a957506002808111156112935761129261450e565b5b8360028111156112a6576112a561450e565b5b11155b6112e8576040517f08c379a00000000000000000000000000000000000000000000000000000000081526004016112df906150a2565b60405180910390fd5b6112fc6786ac1e62d24a349860c01b61342a565b611310679e5c2cdd766b16de60c01b61342a565b6113246753aaaf9320fe18fd60c01b61342a565b61133867ab49e147b91272b360c01b61342a565b6000600f81111561134c5761134b61450e565b5b82600f81111561135f5761135e61450e565b5b101580156113915750600f8081111561137b5761137a61450e565b5b82600f81111561138e5761138d61450e565b5b11155b6113d0576040517f08c379a00000000000000000000000000000000000000000000000000000000081526004016113c79061510e565b60405180910390fd5b6113e4679ab8a363c1db47f760c01b61342a565b6113f867c80f0b231c338b2d60c01b61342a565b61140c675397bbbeef836ad860c01b61342a565b611420679b6d6670acbbe93360c01b61342a565b60011515600560008787878760405160200161143f94939291906151b3565b60405160208183030381529060405280519060200120815260200190815260200160002060020160009054906101000a900460ff161515146114b6576040517f08c379a00000000000000000000000000000000000000000000000000000000081526004016114ad9061524d565b60405180910390fd5b6114ca678dba3cfcdd7ab4ab60c01b61342a565b6114de672e1f532eb4156eb560c01b61342a565b6114f267b763b8910a23efee60c01b61342a565b60008585858560405160200161150b94939291906152b9565b60405160208183030381529060405280519060200120905061153767acd6a8c8f4d574b660c01b61342a565b61154b677697096d64270cdb60c01b61342a565b611617817fd646ae07eb0d0f77457502a65e7407930dff4cd4fd99abc6aac87a753f4c8a42886040516020016115819190615312565b604051602081830303815290604052886040516020016115a1919061532d565b604051602081830303815290604052886040516020016115c19190615348565b604051602081830303815290604052886040516020016115e19190615363565b60405160208183030381529060405260405160200161160394939291906153a4565b60405160208183030381529060405261342d565b61162b673318f6946f78197860c01b61342a565b61163f67d4c4533d7e9a60a660c01b61342a565b8180156116b05750600015156002600083815260200190815260200160002060030160003373ffffffffffffffffffffffffffffffffffffffff1673ffffffffffffffffffffffffffffffffffffffff16815260200190815260200160002060009054906101000a900460ff161515145b15611771576116c96732954512786739f560c01b61342a565b6116dd6724bcd6ffdfbd0d4d60c01b61342a565b6116f1677338a703ca5a2a9660c01b61342a565b61170d60026000838152602001908152602001600020336135d1565b611721673b1e688b7d79d00d60c01b61342a565b611735676bea465bb441461060c01b61342a565b7fb431a69783a2491a0c400ff16dab32cd442abf8fe5af63a526a7248d730192f88160405161176491906143d6565b60405180910390a1611877565b61178567e8c1fa74bacd7fbb60c01b61342a565b611799671f5319feb6477e3560c01b61342a565b6000151582151503611861576117b967f438d58dfb1be18260c01b61342a565b6117cd678ef10dcaeac9036f60c01b61342a565b6117e16735f2056c8483d80460c01b61342a565b6117fd6002600083815260200190815260200160002033613853565b61181167c187d7d65cf65af260c01b61342a565b61182567ade7a62c071e519d60c01b61342a565b7fb431a69783a2491a0c400ff16dab32cd442abf8fe5af63a526a7248d730192f88160405161185491906143d6565b60405180910390a1611876565b611875675439b2c4cd16482360c01b61342a565b5b5b61188b672f6377f918fc3e7460c01b61342a565b61189f6762c646c22c573f3e60c01b61342a565b611905605060ff16600160007fd646ae07eb0d0f77457502a65e7407930dff4cd4fd99abc6aac87a753f4c8a42815260200190815260200160002060000160009054906101000a900463ffffffff166118f89190614f09565b63ffffffff166064611b2a565b6002600083815260200190815260200160002060020160009054906101000a900460ff1660ff1610611a5b5761194567220ad4741fc3df5d60c01b61342a565b6119596799a0b0988af0867760c01b61342a565b61196d675d49ac61be8ebd7160c01b61342a565b61198860026000838152602001908152602001600020613a0b565b61199c67ac18a9a1ec69e6b860c01b61342a565b6119b067698bf9a5753ef89160c01b61342a565b7f562618dbcf74b61ae5b0f229fe40ba6d5b6ae6b4248f8c89a870dda7c77135f6816040516119df91906143d6565b60405180910390a16119fb674a780f79854977d860c01b61342a565b60006005600088888888604051602001611a1894939291906151b3565b60405160208183030381529060405280519060200120815260200190815260200160002060020160006101000a81548160ff021916908315150217905550611a70565b611a6f6769ad2177cecd222f60c01b61342a565b5b505050505050565b600080600084815260200190815260200160002060000160008373ffffffffffffffffffffffffffffffffffffffff1673ffffffffffffffffffffffffffffffffffffffff16815260200190815260200160002060009054906101000a900460ff16905092915050565b60036020528060005260406000206000915090505481565b600f81565b6000801b81565b7fd646ae07eb0d0f77457502a65e7407930dff4cd4fd99abc6aac87a753f4c8a4281565b6000611b406781ec30575acdfcda60c01b613b58565b611b546782dd669ff696d28260c01b613b58565b611b6867832c73ccbe439b9160c01b613b58565b60008284611b76919061544d565b03611bca57611b8f67a7e29dd6442a81da60c01b613b58565b611ba3677f6e93298effc57760c01b613b58565b611bb767f79f009c55d6c1fe60c01b613b58565b8183611bc3919061547e565b9050611c21565b611bde67c5eb65d730ac892160c01b613b58565b611bf267b7c0510cc6ac22c560c01b613b58565b611c0667a46511ac2baa58d960c01b613b58565b60018284611c14919061547e565b611c1e91906154af565b90505b92915050565b611c3b6796129956313adf1b60c01b61342a565b611c4f67a37df02138054e5260c01b61342a565b611c6367b057154329c49bf860c01b61342a565b611c7767e3a8e90515cce0b760c01b61342a565b611ca17fd646ae07eb0d0f77457502a65e7407930dff4cd4fd99abc6aac87a753f4c8a4233611a78565b611ce0576040517f08c379a0000000000000000000000000000000000000000000000000000000008152600401611cd790614fca565b60405180910390fd5b611cf467b5a228e10270e22560c01b61342a565b611d08673ddb288b7f8fde5860c01b61342a565b611d1c6728ffed5c4bbb136d60c01b61342a565b611d30671a14e86b1536e0c460c01b61342a565b60006003811115611d4457611d4361450e565b5b846003811115611d5757611d5661450e565b5b10158015611d895750600380811115611d7357611d7261450e565b5b846003811115611d8657611d8561450e565b5b11155b611dc8576040517f08c379a0000000000000000000000000000000000000000000000000000000008152600401611dbf90615036565b60405180910390fd5b611ddc678190894182f1322760c01b61342a565b611df0675e914cc764a08bdc60c01b61342a565b611e046759cb1221e0215d5e60c01b61342a565b611e18676d76b91fe9de0f8c60c01b61342a565b60006002811115611e2c57611e2b61450e565b5b836002811115611e3f57611e3e61450e565b5b10158015611e715750600280811115611e5b57611e5a61450e565b5b836002811115611e6e57611e6d61450e565b5b11155b611eb0576040517f08c379a0000000000000000000000000000000000000000000000000000000008152600401611ea7906150a2565b60405180910390fd5b611ec467bdf8a12455256e9760c01b61342a565b611ed867ed9c0b858915e64660c01b61342a565b611eec67649bd458a200725760c01b61342a565b611f00670b6b16ea080ccdb260c01b61342a565b6000600f811115611f1457611f1361450e565b5b82600f811115611f2757611f2661450e565b5b10158015611f595750600f80811115611f4357611f4261450e565b5b82600f811115611f5657611f5561450e565b5b11155b611f98576040517f08c379a0000000000000000000000000000000000000000000000000000000008152600401611f8f9061510e565b60405180910390fd5b611fac67689b85ae64f251bf60c01b61342a565b611fc06735e2a6e6763de1be60c01b61342a565b611fd46709e04ae92e1584c060c01b61342a565b611fe8672117bb302f321a4960c01b61342a565b60001515600560008a87878760405160200161200794939291906151b3565b60405160208183030381529060405280519060200120815260200190815260200160002060020160009054906101000a900460ff1615151461207e576040517f08c379a00000000000000000000000000000000000000000000000000000000081526004016120759061552f565b60405180910390fd5b61209267918f30a7fad8441260c01b61342a565b6120a6679d26a0bcae16f15560c01b61342a565b6120ba6762560a22786c9d8960c01b61342a565b6000888888888888886040516020016120d9979695949392919061559b565b604051602081830303815290604052805190602001209050612105676ad05dd6ad0c5e8e60c01b61342a565b61211967b018fb771a8f126a60c01b61342a565b612248817fd646ae07eb0d0f77457502a65e7407930dff4cd4fd99abc6aac87a753f4c8a428b60405160200161214f9190615312565b6040516020818303038152906040528b60405160200161216f919061561f565b6040516020818303038152906040528b60405160200161218f919061561f565b6040516020818303038152906040528b6040516020016121af9190615312565b6040516020818303038152906040528b6040516020016121cf919061532d565b6040516020818303038152906040528b6040516020016121ef9190615348565b6040516020818303038152906040528b60405160200161220f9190615363565b604051602081830303815290604052604051602001612234979695949392919061565c565b60405160208183030381529060405261342d565b61225c673838e17e05cad86e60c01b61342a565b612270673b992ef7312a36a260c01b61342a565b8180156122e15750600015156002600083815260200190815260200160002060030160003373ffffffffffffffffffffffffffffffffffffffff1673ffffffffffffffffffffffffffffffffffffffff16815260200190815260200160002060009054906101000a900460ff161515145b156123a2576122fa67d1937d9a9d9ede4b60c01b61342a565b61230e67eba93d2f1c3a372560c01b61342a565b61232267e583d3490fb5c11a60c01b61342a565b61233e60026000838152602001908152602001600020336135d1565b6123526703c216aef0914c7d60c01b61342a565b61236667e929230dacd39fc460c01b61342a565b7fb431a69783a2491a0c400ff16dab32cd442abf8fe5af63a526a7248d730192f88160405161239591906143d6565b60405180910390a16124a8565b6123b667f0423ad893494d1f60c01b61342a565b6123ca670e4635f8420cba4d60c01b61342a565b6000151582151503612492576123ea67a8f356ae64e80fb260c01b61342a565b6123fe6787081979864afeae60c01b61342a565b612412677547dde3e6de66c160c01b61342a565b61242e6002600083815260200190815260200160002033613853565b6124426776a3d74fa8fa545760c01b61342a565b612456674ed9ea8c9338f00060c01b61342a565b7fb431a69783a2491a0c400ff16dab32cd442abf8fe5af63a526a7248d730192f88160405161248591906143d6565b60405180910390a16124a7565b6124a6679baa3422236fc69f60c01b61342a565b5b5b6124bc67c5044043363bb23760c01b61342a565b6124d067bfc6b0f370d7024960c01b61342a565b612536603360ff16600160007fd646ae07eb0d0f77457502a65e7407930dff4cd4fd99abc6aac87a753f4c8a42815260200190815260200160002060000160009054906101000a900463ffffffff166125299190614f09565b63ffffffff166064611b2a565b6002600083815260200190815260200160002060020160009054906101000a900460ff1660ff16106126a457612576679ccb8433f30b7f6160c01b61342a565b61258a670842a97201189b8b60c01b61342a565b61259e67ca8d401c43f5f9d760c01b61342a565b6125b960026000838152602001908152602001600020613a0b565b6125cd67e22dcaa2865f121160c01b61342a565b6125e1674aba95960958e73260c01b61342a565b7f562618dbcf74b61ae5b0f229fe40ba6d5b6ae6b4248f8c89a870dda7c77135f68160405161261091906143d6565b60405180910390a161262c6730249e749f45b5e460c01b61342a565b61264067374dfd98b823c8cf60c01b61342a565b61269f8989604051602001612655919061561f565b60405160208183030381529060405261266d90615767565b8960405160200161267e919061561f565b60405160208183030381529060405261269690615767565b89898989613b5b565b6126b9565b6126b86720270532058f02e560c01b61342a565b5b505050505050505050565b6126d86770e61a765dfb20aa60c01b61342a565b6126ec6768c3bd0af40a1b5d60c01b61342a565b612700672bc4242ebebe428960c01b61342a565b600060016000858152602001908152602001600020905061272b67e87324c8c42b714760c01b61342a565b61273f672c4d7d6a241e4b8960c01b61342a565b61275367f2f486595854747960c01b61342a565b8060000160049054906101000a900463ffffffff1663ffffffff168160000160009054906101000a900463ffffffff1663ffffffff1611816002015460405160200161279f9190614b8f565b6040516020818303038152906040526040516020016127be91906157f4565b6040516020818303038152906040529061280e576040517f08c379a00000000000000000000000000000000000000000000000000000000081526004016128059190614c67565b60405180910390fd5b50612823678e01888c80102d3760c01b61342a565b61283767bc51f865c49130a860c01b61342a565b61284b67f8b6ac0350413cde60c01b61342a565b61285f674f5571dc82a8340f60c01b61342a565b6128698484611a78565b816002015460405160200161287e9190614b8f565b60405160208183030381529060405260405160200161289d919061584f565b604051602081830303815290604052906128ed576040517f08c379a00000000000000000000000000000000000000000000000000000000081526004016128e49190614c67565b60405180910390fd5b5061290267df20ef43cd86120a60c01b61342a565b61291667f9332553eceb56d860c01b61342a565b61292a677d4cea3f8d4622d560c01b61342a565b61293e67eb262170ab108a0360c01b61342a565b61294c816001015433611a78565b81600201546040516020016129619190614b8f565b6040516020818303038152906040526040516020016129809190614cd5565b604051602081830303815290604052906129d0576040517f08c379a00000000000000000000000000000000000000000000000000000000081526004016129c79190614c67565b60405180910390fd5b506129e567978f6ecc8f60681960c01b61342a565b6129f967d61646692ed40d1060c01b61342a565b612a0d67281f41604962ef6360c01b61342a565b60008385604051602001612a229291906158c1565b604051602081830303815290604052805190602001209050612a4e6701dc47e9dc7e2d4960c01b61342a565b612a6267e00c6e3f0d9a678b60c01b61342a565b612ad48183600101548460020154604051602001612a809190614b8f565b60405160208183030381529060405287604051602001612aa09190614e21565b604051602081830303815290604052604051602001612ac092919061591e565b60405160208183030381529060405261342d565b612ae867211496b55cb50cff60c01b61342a565b612afc67fa27c246eee8a08b60c01b61342a565b828015612b6d5750600015156002600083815260200190815260200160002060030160003373ffffffffffffffffffffffffffffffffffffffff1673ffffffffffffffffffffffffffffffffffffffff16815260200190815260200160002060009054906101000a900460ff161515145b15612c2e57612b8667ba7a7d4f3ff1ed8260c01b61342a565b612b9a6719a84e662ed6d2e460c01b61342a565b612bae67553b9ae776c1ac0760c01b61342a565b612bca60026000838152602001908152602001600020336135d1565b612bde6776e3a440f346f78b60c01b61342a565b612bf2672fe19dd197ae71b760c01b61342a565b7fb431a69783a2491a0c400ff16dab32cd442abf8fe5af63a526a7248d730192f881604051612c2191906143d6565b60405180910390a1612d34565b612c42674dadad20973e5e5d60c01b61342a565b612c5667dcfd845b2fe814ee60c01b61342a565b6000151583151503612d1e57612c766787c8ea0feda3ada560c01b61342a565b612c8a67124f1dad53c69bc560c01b61342a565b612c9e676e8d3572b8c8ba0b60c01b61342a565b612cba6002600083815260200190815260200160002033613853565b612cce67ec4e2bcd0646233360c01b61342a565b612ce26771868017dd9ea9a260c01b61342a565b7fb431a69783a2491a0c400ff16dab32cd442abf8fe5af63a526a7248d730192f881604051612d1191906143d6565b60405180910390a1612d33565b612d3267ab1bd67fcc0dc4e660c01b61342a565b5b5b612d486714693ce83117a4a660c01b61342a565b612d5c671ee91d41820de70160c01b61342a565b81600101548514158015612def5750612dc582600001600d9054906101000a900460ff1660ff16600160008560010154815260200190815260200160002060000160009054906101000a900463ffffffff16612db89190614f09565b63ffffffff166064611b2a565b6002600083815260200190815260200160002060020160009054906101000a900460ff1660ff1610155b8015612e0b5750612e0a6765714ee521157c1660c01b613d8f565b5b80612ecb5750816001015485148015612eae5750612e8482600001600d9054906101000a900460ff1660ff1660018060008660010154815260200190815260200160002060000160009054906101000a900463ffffffff16612e6d9190615960565b612e779190614f09565b63ffffffff166064611b2a565b6002600083815260200190815260200160002060020160009054906101000a900460ff1660ff1610155b8015612eca5750612ec967647b5b224d6b094960c01b613d8f565b5b5b1561326b57612ee46765b7e103c94a229d60c01b61342a565b612ef86712792db49bd8000860c01b61342a565b612f0c673a5a274be22801d260c01b61342a565b60005b60045481101561313b57612f2d67493634455e2d80e960c01b61342a565b612f41671175e050037a7c2760c01b61342a565b60011515600260006003600085815260200190815260200160002054815260200190815260200160002060030160008773ffffffffffffffffffffffffffffffffffffffff1673ffffffffffffffffffffffffffffffffffffffff16815260200190815260200160002060009054906101000a900460ff161515148015612ff0575085600260006003600085815260200190815260200160002054815260200190815260200160002060010154145b1561311357613009675137f0b970b59aa760c01b61342a565b61301d677ba3d7ad982f17c160c01b61342a565b6001600260006003600085815260200190815260200160002054815260200190815260200160002060020160008282829054906101000a900460ff166130639190615998565b92506101000a81548160ff021916908360ff16021790555061308f675ff2fe70f0a1650860c01b61342a565b6000600260006003600085815260200190815260200160002054815260200190815260200160002060030160008773ffffffffffffffffffffffffffffffffffffffff1673ffffffffffffffffffffffffffffffffffffffff16815260200190815260200160002060006101000a81548160ff021916908315150217905550613128565b6131276739d9fb6b575ba4e360c01b61342a565b5b8080613133906159cd565b915050612f0f565b5061315067248dca5c34ff865b60c01b61342a565b6131646752d84047f7ec1fd860c01b61342a565b61317f60026000838152602001908152602001600020613a0b565b61319367ae030a65c15f875560c01b61342a565b6131a7674dbd682bd4fc310660c01b61342a565b7f562618dbcf74b61ae5b0f229fe40ba6d5b6ae6b4248f8c89a870dda7c77135f6816040516131d691906143d6565b60405180910390a16131f26714f96b5406597f9960c01b61342a565b613206670df07991caef353d60c01b61342a565b6132108585613d9a565b61322467ae62ea1482f5a88360c01b61342a565b60018260000160008282829054906101000a900463ffffffff166132489190615960565b92506101000a81548163ffffffff021916908363ffffffff160217905550613280565b61327f67163e0e75e54e0c8a60c01b61342a565b5b5050505050565b61329082610684565b61329981613336565b6132a38383613d9a565b505050565b7f4bbeb6fd3e5222e55f2f8b0c35bc228e0a06a25d0da772fdb02c3b92fa004f8881565b60007f01ffc9a7000000000000000000000000000000000000000000000000000000007bffffffffffffffffffffffffffffffffffffffffffffffffffffffff1916827bffffffffffffffffffffffffffffffffffffffffffffffffffffffff1916149050919050565b61334781613342613e7b565b613e83565b50565b6133548282611a78565b61342657600160008084815260200190815260200160002060000160008373ffffffffffffffffffffffffffffffffffffffff1673ffffffffffffffffffffffffffffffffffffffff16815260200190815260200160002060006101000a81548160ff0219169083151502179055506133cb613e7b565b73ffffffffffffffffffffffffffffffffffffffff168173ffffffffffffffffffffffffffffffffffffffff16837f2f8788117e7eff1d82e926ec794901d17c78024a50270940304540a733656f0d60405160405180910390a45b5050565b50565b61344167a0247630c45fc01060c01b61342a565b61345567cb56c9dffef6c09b60c01b61342a565b613469670f6c466182e7daf460c01b61342a565b600015156002600085815260200190815260200160002060000160009054906101000a900460ff161515036135b7576134ac6796af1b9e171f5d0c60c01b61342a565b6134c0676ea5a5cfdd40ca7760c01b61342a565b60016002600085815260200190815260200160002060000160006101000a81548160ff0219169083151502179055506135036734c805801ad925b460c01b61342a565b826003600060045481526020019081526020016000208190555061353167de2808851ea8535860c01b61342a565b60016004600082825461354491906154af565b9250508190555061355f677ab469cc82d327c160c01b61342a565b81600260008581526020019081526020016000206001018190555061358e6734fccb1c2034803560c01b61342a565b806002600085815260200190815260200160002060050190816135b19190615bb4565b506135cc565b6135cb67fc92d0035d00688e60c01b61342a565b5b505050565b6135e567ea8284493f6fbf2960c01b613f08565b6135f96737d5072686f3bd6060c01b613f08565b61360d6766545a946de59f8d60c01b613f08565b6136216731eaad2fffbc28cf60c01b613f08565b600015158260030160008373ffffffffffffffffffffffffffffffffffffffff1673ffffffffffffffffffffffffffffffffffffffff16815260200190815260200160002060009054906101000a900460ff161515146136b6576040517f08c379a00000000000000000000000000000000000000000000000000000000081526004016136ad90615cd2565b60405180910390fd5b6136ca67f6d6508d26f3f5e560c01b613f08565b6136de67cdae7870d52eb87960c01b613f08565b808260040160008460020160019054906101000a900460ff1660ff16815260200190815260200160002060006101000a81548173ffffffffffffffffffffffffffffffffffffffff021916908373ffffffffffffffffffffffffffffffffffffffff16021790555061375a67c2b6f3d8c6b4518560c01b613f08565b81600201600181819054906101000a900460ff168092919061377b90615cf2565b91906101000a81548160ff021916908360ff160217905550506137a867683b58ce757835d160c01b613f08565b60018260030160008373ffffffffffffffffffffffffffffffffffffffff1673ffffffffffffffffffffffffffffffffffffffff16815260200190815260200160002060006101000a81548160ff021916908315150217905550613816677eb5646afe662d2b60c01b613f08565b60018260020160008282829054906101000a900460ff166138379190615d1b565b92506101000a81548160ff021916908360ff1602179055505050565b6138676751cd9add8177cb1e60c01b613f08565b61387b676ebd3423ee3b665a60c01b613f08565b61388f6769fdcbe1983a162660c01b613f08565b6138a367ec9d93ff10f153e760c01b613f08565b600115158260030160008373ffffffffffffffffffffffffffffffffffffffff1673ffffffffffffffffffffffffffffffffffffffff16815260200190815260200160002060009054906101000a900460ff16151514613938576040517f08c379a000000000000000000000000000000000000000000000000000000000815260040161392f90615dc2565b60405180910390fd5b61394c6750584b137311d37460c01b613f08565b6139606755e8d06217dde6ba60c01b613f08565b60008260030160008373ffffffffffffffffffffffffffffffffffffffff1673ffffffffffffffffffffffffffffffffffffffff16815260200190815260200160002060006101000a81548160ff0219169083151502179055506139ce67b945e5d11d41832a60c01b613f08565b60018260020160008282829054906101000a900460ff166139ef9190615998565b92506101000a81548160ff021916908360ff1602179055505050565b613a1f67343bee6a3141a1f860c01b613f08565b613a3367c55b4c989e4320fa60c01b613f08565b60008160020160006101000a81548160ff021916908360ff160217905550613a6567d1d487718112cde860c01b613f08565b613a7967a3de6bd1a15b6e6a60c01b613f08565b60005b8160020160019054906101000a900460ff1660ff168160ff161015613b5457613aaf67715c20b636ac690e60c01b613f08565b60008260030160008460040160008560ff16815260200190815260200160002060009054906101000a900473ffffffffffffffffffffffffffffffffffffffff1673ffffffffffffffffffffffffffffffffffffffff1673ffffffffffffffffffffffffffffffffffffffff16815260200190815260200160002060006101000a81548160ff0219169083151502179055508080613b4c90615cf2565b915050613a7c565b5050565b50565b613b6f67a4e6a19cbfe5167960c01b61342a565b613b83675c78a7177eb1a8fb60c01b61342a565b604051806101200160405280846003811115613ba257613ba161450e565b5b8152602001836002811115613bba57613bb961450e565b5b815260200182600f811115613bd257613bd161450e565b5b8152602001428152602001600115158152602001888152602001878152602001868152602001858152506005600089868686604051602001613c1794939291906151b3565b60405160208183030381529060405280519060200120815260200190815260200160002060008201518160000160006101000a81548160ff02191690836003811115613c6657613c6561450e565b5b021790555060208201518160000160016101000a81548160ff02191690836002811115613c9657613c9561450e565b5b021790555060408201518160000160026101000a81548160ff0219169083600f811115613cc657613cc561450e565b5b02179055506060820151816001015560808201518160020160006101000a81548160ff02191690831515021790555060a0820151816003015560c0820151816004015560e082015181600501556101008201518160060155905050613d3567bf4499ff51c0c22160c01b61342a565b613d4967822948be4d3ef9a760c01b61342a565b7fb55811dd01470a227956304b027c610c7cdf9dd622dcc47791380261d56dc6ed87848484604051613d7e9493929190615de2565b60405180910390a150505050505050565b600060019050919050565b613da48282611a78565b15613e7757600080600084815260200190815260200160002060000160008373ffffffffffffffffffffffffffffffffffffffff1673ffffffffffffffffffffffffffffffffffffffff16815260200190815260200160002060006101000a81548160ff021916908315150217905550613e1c613e7b565b73ffffffffffffffffffffffffffffffffffffffff168173ffffffffffffffffffffffffffffffffffffffff16837ff6391f5c32d9c69d2a47ea670b442974b53935d1edc7fd64eb21e047a839171b60405160405180910390a45b5050565b600033905090565b613e8d8282611a78565b613f0457613e9a81613f0b565b613ea88360001c6020613f38565b604051602001613eb9929190615ebf565b6040516020818303038152906040526040517f08c379a0000000000000000000000000000000000000000000000000000000008152600401613efb9190614c67565b60405180910390fd5b5050565b50565b6060613f318273ffffffffffffffffffffffffffffffffffffffff16601460ff16613f38565b9050919050565b606060006002836002613f4b9190615ef9565b613f5591906154af565b67ffffffffffffffff811115613f6e57613f6d614863565b5b6040519080825280601f01601f191660200182016040528015613fa05781602001600182028036833780820191505090505b5090507f300000000000000000000000000000000000000000000000000000000000000081600081518110613fd857613fd7615f3b565b5b60200101907effffffffffffffffffffffffffffffffffffffffffffffffffffffffffffff1916908160001a9053507f78000000000000000000000000000000000000000000000000000000000000008160018151811061403c5761403b615f3b565b5b60200101907effffffffffffffffffffffffffffffffffffffffffffffffffffffffffffff1916908160001a9053506000600184600261407c9190615ef9565b61408691906154af565b90505b6001811115614126577f3031323334353637383961626364656600000000000000000000000000000000600f8616601081106140c8576140c7615f3b565b5b1a60f81b8282815181106140df576140de615f3b565b5b60200101907effffffffffffffffffffffffffffffffffffffffffffffffffffffffffffff1916908160001a905350600485901c94508061411f90615f6a565b9050614089565b506000841461416a576040517f08c379a000000000000000000000000000000000000000000000000000000000815260040161416190615fdf565b60405180910390fd5b8091505092915050565b6000604051905090565b600080fd5b600080fd5b60007fffffffff0000000000000000000000000000000000000000000000000000000082169050919050565b6141bd81614188565b81146141c857600080fd5b50565b6000813590506141da816141b4565b92915050565b6000602082840312156141f6576141f561417e565b5b6000614204848285016141cb565b91505092915050565b60008115159050919050565b6142228161420d565b82525050565b600060208201905061423d6000830184614219565b92915050565b600060ff82169050919050565b61425981614243565b82525050565b60006020820190506142746000830184614250565b92915050565b6000819050919050565b61428d8161427a565b811461429857600080fd5b50565b6000813590506142aa81614284565b92915050565b6000602082840312156142c6576142c561417e565b5b60006142d48482850161429b565b91505092915050565b6142e68161427a565b82525050565b600081519050919050565b600082825260208201905092915050565b60005b8381101561432657808201518184015260208101905061430b565b60008484015250505050565b6000601f19601f8301169050919050565b600061434e826142ec565b61435881856142f7565b9350614368818560208601614308565b61437181614332565b840191505092915050565b600060a0820190506143916000830188614219565b61439e60208301876142dd565b6143ab6040830186614250565b6143b86060830185614250565b81810360808301526143ca8184614343565b90509695505050505050565b60006020820190506143eb60008301846142dd565b92915050565b600073ffffffffffffffffffffffffffffffffffffffff82169050919050565b600061441c826143f1565b9050919050565b61442c81614411565b811461443757600080fd5b50565b60008135905061444981614423565b92915050565b600080604083850312156144665761446561417e565b5b60006144748582860161429b565b92505060206144858582860161443a565b9150509250929050565b6144988161420d565b81146144a357600080fd5b50565b6000813590506144b58161448f565b92915050565b6000806000606084860312156144d4576144d361417e565b5b60006144e28682870161429b565b93505060206144f38682870161443a565b9250506040614504868287016144a6565b9150509250925092565b7f4e487b7100000000000000000000000000000000000000000000000000000000600052602160045260246000fd5b6004811061454e5761454d61450e565b5b50565b600081905061455f8261453d565b919050565b600061456f82614551565b9050919050565b61457f81614564565b82525050565b600381106145965761459561450e565b5b50565b60008190506145a782614585565b919050565b60006145b782614599565b9050919050565b6145c7816145ac565b82525050565b601081106145de576145dd61450e565b5b50565b60008190506145ef826145cd565b919050565b60006145ff826145e1565b9050919050565b61460f816145f4565b82525050565b6000819050919050565b61462881614615565b82525050565b600061012082019050614644600083018c614576565b614651602083018b6145be565b61465e604083018a614606565b61466b606083018961461f565b6146786080830188614219565b61468560a083018761461f565b61469260c08301866142dd565b61469f60e08301856142dd565b6146ad61010083018461461f565b9a9950505050505050505050565b6146c481614615565b81146146cf57600080fd5b50565b6000813590506146e1816146bb565b92915050565b600481106146f457600080fd5b50565b600081359050614706816146e7565b92915050565b6003811061471957600080fd5b50565b60008135905061472b8161470c565b92915050565b6010811061473e57600080fd5b50565b60008135905061475081614731565b92915050565b600080600080600060a086880312156147725761477161417e565b5b6000614780888289016146d2565b9550506020614791888289016146f7565b94505060406147a28882890161471c565b93505060606147b388828901614741565b92505060806147c4888289016144a6565b9150509295509295909350565b6000602082840312156147e7576147e661417e565b5b60006147f5848285016146d2565b91505092915050565b600080604083850312156148155761481461417e565b5b6000614823858286016146d2565b9250506020614834858286016146d2565b9150509250929050565b6000602082019050614853600083018461461f565b92915050565b600080fd5b600080fd5b7f4e487b7100000000000000000000000000000000000000000000000000000000600052604160045260246000fd5b61489b82614332565b810181811067ffffffffffffffff821117156148ba576148b9614863565b5b80604052505050565b60006148cd614174565b90506148d98282614892565b919050565b600067ffffffffffffffff8211156148f9576148f8614863565b5b61490282614332565b9050602081019050919050565b82818337600083830152505050565b600061493161492c846148de565b6148c3565b90508281526020810184848401111561494d5761494c61485e565b5b61495884828561490f565b509392505050565b600082601f83011261497557614974614859565b5b813561498584826020860161491e565b91505092915050565b600080600080600080600080610100898b0312156149af576149ae61417e565b5b60006149bd8b828c016146d2565b985050602089013567ffffffffffffffff8111156149de576149dd614183565b5b6149ea8b828c01614960565b975050604089013567ffffffffffffffff811115614a0b57614a0a614183565b5b614a178b828c01614960565b9650506060614a288b828c016146d2565b9550506080614a398b828c016146f7565b94505060a0614a4a8b828c0161471c565b93505060c0614a5b8b828c01614741565b92505060e0614a6c8b828c016144a6565b9150509295985092959890939650565b7f4e487b7100000000000000000000000000000000000000000000000000000000600052602260045260246000fd5b60006002820490506001821680614ac357607f821691505b602082108103614ad657614ad5614a7c565b5b50919050565b7f596f752063616e27742072656e6f756e636520746f20796f757220726f6c652e60008201527f20506c6561736520636f6e746163742061646d696e7300000000000000000000602082015250565b6000614b386036836142f7565b9150614b4382614adc565b604082019050919050565b60006020820190508181036000830152614b6781614b2b565b9050919050565b6000819050919050565b614b89614b848261427a565b614b6e565b82525050565b6000614b9b8284614b78565b60208201915081905092915050565b7f4d61782000000000000000000000000000000000000000000000000000000000815250565b600081905092915050565b6000614be6826142ec565b614bf08185614bd0565b9350614c00818560208601614308565b80840191505092915050565b7f2072656163686564000000000000000000000000000000000000000000000000815250565b6000614c3d82614baa565b600482019150614c4d8284614bdb565b9150614c5882614c0c565b60088201915081905092915050565b60006020820190508181036000830152614c818184614343565b905092915050565b7f43616c6c6572206973206e6f7420612000000000000000000000000000000000815250565b7f2061646d696e0000000000000000000000000000000000000000000000000000815250565b6000614ce082614c89565b601082019150614cf08284614bdb565b9150614cfb82614caf565b60068201915081905092915050565b7f54686973206164647265737320697320616c7265616479206120000000000000815250565b6000614d3b82614d0a565b601a82019150614d4b8284614bdb565b915081905092915050565b60008160601b9050919050565b6000614d6e82614d56565b9050919050565b6000614d8082614d63565b9050919050565b614d98614d9382614411565b614d75565b82525050565b7f4752414e54000000000000000000000000000000000000000000000000000000600082015250565b6000614dd4600583614bd0565b9150614ddf82614d9e565b600582019050919050565b6000614df68285614d87565b601482019150614e0582614dc7565b9150614e118284614b78565b6020820191508190509392505050565b6000614e2d8284614d87565b60148201915081905092915050565b7f4772616e74200000000000000000000000000000000000000000000000000000815250565b7f2000000000000000000000000000000000000000000000000000000000000000815250565b6000614e9382614e3c565b600682019150614ea38285614bdb565b9150614eae82614e62565b600182019150614ebe8284614bdb565b91508190509392505050565b600063ffffffff82169050919050565b7f4e487b7100000000000000000000000000000000000000000000000000000000600052601160045260246000fd5b6000614f1482614eca565b9150614f1f83614eca565b9250828202614f2d81614eca565b9150808214614f3f57614f3e614eda565b5b5092915050565b6000614f5182614eca565b9150614f5c83614eca565b9250828201905063ffffffff811115614f7857614f77614eda565b5b92915050565b7f43616c6c6572206973206e6f7420612063657274696669657200000000000000600082015250565b6000614fb46019836142f7565b9150614fbf82614f7e565b602082019050919050565b60006020820190508181036000830152614fe381614fa7565b9050919050565b7f417070726563696174696f6e206973206e6f742076616c696400000000000000600082015250565b60006150206019836142f7565b915061502b82614fea565b602082019050919050565b6000602082019050818103600083015261504f81615013565b9050919050565b7f446567726565206973206e6f742076616c696400000000000000000000000000600082015250565b600061508c6013836142f7565b915061509782615056565b602082019050919050565b600060208201905081810360008301526150bb8161507f565b9050919050565b7f50726f6772616d206973206e6f742076616c6964000000000000000000000000600082015250565b60006150f86014836142f7565b9150615103826150c2565b602082019050919050565b60006020820190508181036000830152615127816150eb565b9050919050565b6000819050919050565b61514961514482614615565b61512e565b82525050565b60008160f81b9050919050565b60006151678261514f565b9050919050565b61517f61517a82614564565b61515c565b82525050565b615196615191826145ac565b61515c565b82525050565b6151ad6151a8826145f4565b61515c565b82525050565b60006151bf8287615138565b6020820191506151cf828661516e565b6001820191506151df8285615185565b6001820191506151ef828461519c565b60018201915081905095945050505050565b7f5468697320636572746966696361746520646f65736e27742065786973740000600082015250565b6000615237601e836142f7565b915061524282615201565b602082019050919050565b600060208201905081810360008301526152668161522a565b9050919050565b7f4544495400000000000000000000000000000000000000000000000000000000600082015250565b60006152a3600483614bd0565b91506152ae8261526d565b600482019050919050565b60006152c58287615138565b6020820191506152d482615296565b91506152e0828661516e565b6001820191506152f08285615185565b600182019150615300828461519c565b60018201915081905095945050505050565b600061531e8284615138565b60208201915081905092915050565b6000615339828461516e565b60018201915081905092915050565b60006153548284615185565b60018201915081905092915050565b600061536f828461519c565b60018201915081905092915050565b7f4564697420000000000000000000000000000000000000000000000000000000815250565b60006153af8261537e565b6005820191506153bf8287614bdb565b91506153ca82614e62565b6001820191506153da8286614bdb565b91506153e582614e62565b6001820191506153f58285614bdb565b915061540082614e62565b6001820191506154108284614bdb565b915081905095945050505050565b7f4e487b7100000000000000000000000000000000000000000000000000000000600052601260045260246000fd5b600061545882614615565b915061546383614615565b9250826154735761547261541e565b5b828206905092915050565b600061548982614615565b915061549483614615565b9250826154a4576154a361541e565b5b828204905092915050565b60006154ba82614615565b91506154c583614615565b92508282019050808211156154dd576154dc614eda565b5b92915050565b7f5468697320636572746966696361746520616c72656164792065786973747300600082015250565b6000615519601f836142f7565b9150615524826154e3565b602082019050919050565b600060208201905081810360008301526155488161550c565b9050919050565b7f4345525449465900000000000000000000000000000000000000000000000000600082015250565b6000615585600783614bd0565b91506155908261554f565b600782019050919050565b60006155a7828a615138565b6020820191506155b78289614bdb565b91506155c38288614bdb565b91506155cf8287615138565b6020820191506155de82615578565b91506155ea828661516e565b6001820191506155fa8285615185565b60018201915061560a828461519c565b60018201915081905098975050505050505050565b600061562b8284614bdb565b915081905092915050565b7f4365727469667920000000000000000000000000000000000000000000000000815250565b600061566782615636565b600882019150615677828a614bdb565b915061568282614e62565b6001820191506156928289614bdb565b915061569d82614e62565b6001820191506156ad8288614bdb565b91506156b882614e62565b6001820191506156c88287614bdb565b91506156d382614e62565b6001820191506156e38286614bdb565b91506156ee82614e62565b6001820191506156fe8285614bdb565b915061570982614e62565b6001820191506157198284614bdb565b915081905098975050505050505050565b600081519050919050565b6000819050602082019050919050565b6000615751825161427a565b80915050919050565b600082821b905092915050565b60006157728261572a565b8261577c84615735565b905061578781615745565b925060208210156157c7576157c27fffffffffffffffffffffffffffffffffffffffffffffffffffffffffffffffff8360200360080261575a565b831692505b5050919050565b7f4d696e2000000000000000000000000000000000000000000000000000000000815250565b60006157ff826157ce565b60048201915061580f8284614bdb565b915061581a82614c0c565b60088201915081905092915050565b7f546869732061646472657373206973206e6f7420612000000000000000000000815250565b600061585a82615829565b60168201915061586a8284614bdb565b915081905092915050565b7f5245564f4b450000000000000000000000000000000000000000000000000000600082015250565b60006158ab600683614bd0565b91506158b682615875565b600682019050919050565b60006158cd8285614d87565b6014820191506158dc8261589e565b91506158e88284614b78565b6020820191508190509392505050565b7f5265766f6b652000000000000000000000000000000000000000000000000000815250565b6000615929826158f8565b6007820191506159398285614bdb565b915061594482614e62565b6001820191506159548284614bdb565b91508190509392505050565b600061596b82614eca565b915061597683614eca565b9250828203905063ffffffff81111561599257615991614eda565b5b92915050565b60006159a382614243565b91506159ae83614243565b9250828203905060ff8111156159c7576159c6614eda565b5b92915050565b60006159d882614615565b91507fffffffffffffffffffffffffffffffffffffffffffffffffffffffffffffffff8203615a0a57615a09614eda565b5b600182019050919050565b60008190508160005260206000209050919050565b60006020601f8301049050919050565b600060088302615a6a7fffffffffffffffffffffffffffffffffffffffffffffffffffffffffffffffff8261575a565b615a74868361575a565b95508019841693508086168417925050509392505050565b6000819050919050565b6000615ab1615aac615aa784614615565b615a8c565b614615565b9050919050565b6000819050919050565b615acb83615a96565b615adf615ad782615ab8565b848454615a3a565b825550505050565b600090565b615af4615ae7565b615aff818484615ac2565b505050565b5b81811015615b2357615b18600082615aec565b600181019050615b05565b5050565b601f821115615b6857615b3981615a15565b615b4284615a2a565b81016020851015615b51578190505b615b65615b5d85615a2a565b830182615b04565b50505b505050565b600082821c905092915050565b6000615b8b60001984600802615b6d565b1980831691505092915050565b6000615ba48383615b7a565b9150826002028217905092915050565b615bbd826142ec565b67ffffffffffffffff811115615bd657615bd5614863565b5b615be08254614aab565b615beb828285615b27565b600060209050601f831160018114615c1e5760008415615c0c578287015190505b615c168582615b98565b865550615c7e565b601f198416615c2c86615a15565b60005b82811015615c5457848901518255600182019150602085019450602081019050615c2f565b86831015615c715784890151615c6d601f891682615b7a565b8355505b6001600288020188555050505b505050505050565b7f596f7520616c7265616479207369676e65642074686973206d756c7469736967600082015250565b6000615cbc6020836142f7565b9150615cc782615c86565b602082019050919050565b60006020820190508181036000830152615ceb81615caf565b9050919050565b6000615cfd82614243565b915060ff8203615d1057615d0f614eda565b5b600182019050919050565b6000615d2682614243565b9150615d3183614243565b9250828201905060ff811115615d4a57615d49614eda565b5b92915050565b7f596f752068617665206e6f7465207369676e65642074686973206d756c74697360008201527f6967207965740000000000000000000000000000000000000000000000000000602082015250565b6000615dac6026836142f7565b9150615db782615d50565b604082019050919050565b60006020820190508181036000830152615ddb81615d9f565b9050919050565b6000608082019050615df7600083018761461f565b615e046020830186614576565b615e1160408301856145be565b615e1e6060830184614606565b95945050505050565b7f416363657373436f6e74726f6c3a206163636f756e7420000000000000000000600082015250565b6000615e5d601783614bd0565b9150615e6882615e27565b601782019050919050565b7f206973206d697373696e6720726f6c6520000000000000000000000000000000600082015250565b6000615ea9601183614bd0565b9150615eb482615e73565b601182019050919050565b6000615eca82615e50565b9150615ed68285614bdb565b9150615ee182615e9c565b9150615eed8284614bdb565b91508190509392505050565b6000615f0482614615565b9150615f0f83614615565b9250828202615f1d81614615565b91508282048414831517615f3457615f33614eda565b5b5092915050565b7f4e487b7100000000000000000000000000000000000000000000000000000000600052603260045260246000fd5b6000615f7582614615565b915060008203615f8857615f87614eda565b5b600182039050919050565b7f537472696e67733a20686578206c656e67746820696e73756666696369656e74600082015250565b6000615fc96020836142f7565b9150615fd482615f93565b602082019050919050565b60006020820190508181036000830152615ff881615fbc565b905091905056fea2646970667358221220115b57336c6effdaa0ded8de22d5f859415fdb38d8cdeba12c4af14785ae3c0464736f6c63430008130033",
  "linkReferences": {},
  "deployedLinkReferences": {}
}