{
  "_format": "hh-sol-artifact-1",
  "contractName": "Certifications",
  "sourceName": "contracts/Certifications.sol",
  "abi": [
    {
      "inputs": [
        {
          "internalType": "address",
          "name": "certifier_admin1",
          "type": "address"
        },
        {
          "internalType": "address",
          "name": "certifier_admin2",
          "type": "address"
        }
      ],
      "stateMutability": "nonpayable",
      "type": "constructor"
    },
    {
      "anonymous": false,
      "inputs": [
        {
          "indexed": true,
          "internalType": "bytes32",
          "name": "role",
          "type": "bytes32"
        },
        {
          "indexed": true,
          "internalType": "bytes32",
          "name": "previousAdminRole",
          "type": "bytes32"
        },
        {
          "indexed": true,
          "internalType": "bytes32",
          "name": "newAdminRole",
          "type": "bytes32"
        }
      ],
      "name": "RoleAdminChanged",
      "type": "event"
    },
    {
      "anonymous": false,
      "inputs": [
        {
          "indexed": true,
          "internalType": "bytes32",
          "name": "role",
          "type": "bytes32"
        },
        {
          "indexed": true,
          "internalType": "address",
          "name": "account",
          "type": "address"
        },
        {
          "indexed": true,
          "internalType": "address",
          "name": "sender",
          "type": "address"
        }
      ],
      "name": "RoleGranted",
      "type": "event"
    },
    {
      "anonymous": false,
      "inputs": [
        {
          "indexed": true,
          "internalType": "bytes32",
          "name": "role",
          "type": "bytes32"
        },
        {
          "indexed": true,
          "internalType": "address",
          "name": "account",
          "type": "address"
        },
        {
          "indexed": true,
          "internalType": "address",
          "name": "sender",
          "type": "address"
        }
      ],
      "name": "RoleRevoked",
      "type": "event"
    },
    {
      "anonymous": false,
      "inputs": [
        {
          "indexed": false,
          "internalType": "uint256",
          "name": "studentId",
          "type": "uint256"
        },
        {
          "indexed": false,
          "internalType": "enum Certifications.appreciation",
          "name": "appreciation",
          "type": "uint8"
        },
        {
          "indexed": false,
          "internalType": "enum Certifications.degree",
          "name": "degree",
          "type": "uint8"
        },
        {
          "indexed": false,
          "internalType": "enum Certifications.program",
          "name": "program",
          "type": "uint8"
        }
      ],
      "name": "certificationEmited",
      "type": "event"
    },
    {
      "anonymous": false,
      "inputs": [
        {
          "indexed": false,
          "internalType": "bytes32",
          "name": "multiSigName",
          "type": "bytes32"
        }
      ],
      "name": "multiSigCleared",
      "type": "event"
    },
    {
      "anonymous": false,
      "inputs": [
        {
          "indexed": false,
          "internalType": "bytes32",
          "name": "multiSigName",
          "type": "bytes32"
        }
      ],
      "name": "multiSigSigned",
      "type": "event"
    },
    {
      "inputs": [],
      "name": "CERTIFIER",
      "outputs": [
        {
          "internalType": "bytes32",
          "name": "",
          "type": "bytes32"
        }
      ],
      "stateMutability": "view",
      "type": "function"
    },
    {
      "inputs": [],
      "name": "CERTIFIER_ADMIN",
      "outputs": [
        {
          "internalType": "bytes32",
          "name": "",
          "type": "bytes32"
        }
      ],
      "stateMutability": "view",
      "type": "function"
    },
    {
      "inputs": [],
      "name": "DEFAULT_ADMIN_ROLE",
      "outputs": [
        {
          "internalType": "bytes32",
          "name": "",
          "type": "bytes32"
        }
      ],
      "stateMutability": "view",
      "type": "function"
    },
    {
      "inputs": [],
      "name": "MAX_CERTIFIERS",
      "outputs": [
        {
          "internalType": "uint8",
          "name": "",
          "type": "uint8"
        }
      ],
      "stateMutability": "view",
      "type": "function"
    },
    {
      "inputs": [],
      "name": "MAX_CERTIFIERS_ADMIN",
      "outputs": [
        {
          "internalType": "uint8",
          "name": "",
          "type": "uint8"
        }
      ],
      "stateMutability": "view",
      "type": "function"
    },
    {
      "inputs": [],
      "name": "MIN_CERTIFIERS_ADMIN",
      "outputs": [
        {
          "internalType": "uint8",
          "name": "",
          "type": "uint8"
        }
      ],
      "stateMutability": "view",
      "type": "function"
    },
    {
      "inputs": [],
      "name": "PERCENT_TO_CERTIFY",
      "outputs": [
        {
          "internalType": "uint8",
          "name": "",
          "type": "uint8"
        }
      ],
      "stateMutability": "view",
      "type": "function"
    },
    {
      "inputs": [],
      "name": "PERCENT_TO_EDIT_CERTIFICATE",
      "outputs": [
        {
          "internalType": "uint8",
          "name": "",
          "type": "uint8"
        }
      ],
      "stateMutability": "view",
      "type": "function"
    },
    {
      "inputs": [],
      "name": "PERCENT_TO_GRANT_CERTIFIER",
      "outputs": [
        {
          "internalType": "uint8",
          "name": "",
          "type": "uint8"
        }
      ],
      "stateMutability": "view",
      "type": "function"
    },
    {
      "inputs": [],
      "name": "PERCENT_TO_GRANT_CERTIFIER_ADMIN",
      "outputs": [
        {
          "internalType": "uint8",
          "name": "",
          "type": "uint8"
        }
      ],
      "stateMutability": "view",
      "type": "function"
    },
    {
      "inputs": [],
      "name": "PERCENT_TO_REVOKE_CERTIFIER",
      "outputs": [
        {
          "internalType": "uint8",
          "name": "",
          "type": "uint8"
        }
      ],
      "stateMutability": "view",
      "type": "function"
    },
    {
      "inputs": [],
      "name": "PERCENT_TO_REVOKE_CERTIFIER_ADMIN",
      "outputs": [
        {
          "internalType": "uint8",
          "name": "",
          "type": "uint8"
        }
      ],
      "stateMutability": "view",
      "type": "function"
    },
    {
      "inputs": [
        {
          "internalType": "uint256",
          "name": "a",
          "type": "uint256"
        },
        {
          "internalType": "uint256",
          "name": "b",
          "type": "uint256"
        }
      ],
      "name": "ceilUDiv",
      "outputs": [
        {
          "internalType": "uint256",
          "name": "",
          "type": "uint256"
        }
      ],
      "stateMutability": "pure",
      "type": "function"
    },
    {
      "inputs": [
        {
          "internalType": "bytes32",
          "name": "",
          "type": "bytes32"
        }
      ],
      "name": "certificates",
      "outputs": [
        {
          "internalType": "enum Certifications.appreciation",
          "name": "appreciation",
          "type": "uint8"
        },
        {
          "internalType": "enum Certifications.degree",
          "name": "degree",
          "type": "uint8"
        },
        {
          "internalType": "enum Certifications.program",
          "name": "program",
          "type": "uint8"
        },
        {
          "internalType": "uint256",
          "name": "emition_date",
          "type": "uint256"
        },
        {
          "internalType": "bool",
          "name": "validity",
          "type": "bool"
        },
        {
          "internalType": "uint256",
          "name": "id",
          "type": "uint256"
        },
        {
          "internalType": "bytes32",
          "name": "firstname",
          "type": "bytes32"
        },
        {
          "internalType": "bytes32",
          "name": "lastname",
          "type": "bytes32"
        },
        {
          "internalType": "uint256",
          "name": "birthdate",
          "type": "uint256"
        }
      ],
      "stateMutability": "view",
      "type": "function"
    },
    {
      "inputs": [
        {
          "internalType": "uint256",
          "name": "studentId",
          "type": "uint256"
        },
        {
          "internalType": "string",
          "name": "studentFirstname",
          "type": "string"
        },
        {
          "internalType": "string",
          "name": "studentLastname",
          "type": "string"
        },
        {
          "internalType": "uint256",
          "name": "studentBirthdate",
          "type": "uint256"
        },
        {
          "internalType": "enum Certifications.appreciation",
          "name": "app",
          "type": "uint8"
        },
        {
          "internalType": "enum Certifications.degree",
          "name": "deg",
          "type": "uint8"
        },
        {
          "internalType": "enum Certifications.program",
          "name": "prog",
          "type": "uint8"
        }
      ],
      "name": "certify",
      "outputs": [],
      "stateMutability": "nonpayable",
      "type": "function"
    },
    {
      "inputs": [
        {
          "internalType": "bytes32",
          "name": "role",
          "type": "bytes32"
        }
      ],
      "name": "getRoleAdmin",
      "outputs": [
        {
          "internalType": "bytes32",
          "name": "",
          "type": "bytes32"
        }
      ],
      "stateMutability": "view",
      "type": "function"
    },
    {
      "inputs": [
        {
          "internalType": "bytes32",
          "name": "roleHash",
          "type": "bytes32"
        },
        {
          "internalType": "address",
          "name": "target",
          "type": "address"
        },
        {
          "internalType": "bool",
          "name": "sign",
          "type": "bool"
        }
      ],
      "name": "grantAnyRole",
      "outputs": [],
      "stateMutability": "nonpayable",
      "type": "function"
    },
    {
      "inputs": [
        {
          "internalType": "bytes32",
          "name": "role",
          "type": "bytes32"
        },
        {
          "internalType": "address",
          "name": "account",
          "type": "address"
        }
      ],
      "name": "grantRole",
      "outputs": [],
      "stateMutability": "nonpayable",
      "type": "function"
    },
    {
      "inputs": [
        {
          "internalType": "bytes32",
          "name": "role",
          "type": "bytes32"
        },
        {
          "internalType": "address",
          "name": "account",
          "type": "address"
        }
      ],
      "name": "hasRole",
      "outputs": [
        {
          "internalType": "bool",
          "name": "",
          "type": "bool"
        }
      ],
      "stateMutability": "view",
      "type": "function"
    },
    {
      "inputs": [
        {
          "internalType": "bytes32",
          "name": "",
          "type": "bytes32"
        }
      ],
      "name": "multiSig",
      "outputs": [
        {
          "internalType": "bool",
          "name": "created",
          "type": "bool"
        },
        {
          "internalType": "bytes32",
          "name": "role",
          "type": "bytes32"
        },
        {
          "internalType": "uint8",
          "name": "count",
          "type": "uint8"
        },
        {
          "internalType": "uint8",
          "name": "id",
          "type": "uint8"
        },
        {
          "internalType": "string",
          "name": "info",
          "type": "string"
        }
      ],
      "stateMutability": "view",
      "type": "function"
    },
    {
      "inputs": [
        {
          "internalType": "uint256",
          "name": "",
          "type": "uint256"
        }
      ],
      "name": "multiSigId",
      "outputs": [
        {
          "internalType": "bytes32",
          "name": "",
          "type": "bytes32"
        }
      ],
      "stateMutability": "view",
      "type": "function"
    },
    {
      "inputs": [
        {
          "internalType": "bytes32",
          "name": "",
          "type": "bytes32"
        },
        {
          "internalType": "address",
          "name": "",
          "type": "address"
        }
      ],
      "name": "renounceRole",
      "outputs": [],
      "stateMutability": "nonpayable",
      "type": "function"
    },
    {
      "inputs": [
        {
          "internalType": "bytes32",
          "name": "roleHash",
          "type": "bytes32"
        },
        {
          "internalType": "address",
          "name": "target",
          "type": "address"
        },
        {
          "internalType": "bool",
          "name": "sign",
          "type": "bool"
        }
      ],
      "name": "revokeAnyRole",
      "outputs": [],
      "stateMutability": "nonpayable",
      "type": "function"
    },
    {
      "inputs": [
        {
          "internalType": "bytes32",
          "name": "role",
          "type": "bytes32"
        },
        {
          "internalType": "address",
          "name": "account",
          "type": "address"
        }
      ],
      "name": "revokeRole",
      "outputs": [],
      "stateMutability": "nonpayable",
      "type": "function"
    },
    {
      "inputs": [
        {
          "internalType": "bytes4",
          "name": "interfaceId",
          "type": "bytes4"
        }
      ],
      "name": "supportsInterface",
      "outputs": [
        {
          "internalType": "bool",
          "name": "",
          "type": "bool"
        }
      ],
      "stateMutability": "view",
      "type": "function"
    }
  ],
  "bytecode": "0x60806040523480156200001157600080fd5b5060405162005dcd38038062005dcd83398181016040528101906200003791906200099c565b6200005367758438fa606727d960c01b620007b660201b60201c565b6200006f67589e0c39053cad2660c01b620007b660201b60201c565b6200008b6759de4f2a505f6c6d60c01b620007b660201b60201c565b620000a7676d4a2d08a14ea23160c01b620007b660201b60201c565b600073ffffffffffffffffffffffffffffffffffffffff168273ffffffffffffffffffffffffffffffffffffffff160362000119576040517f08c379a0000000000000000000000000000000000000000000000000000000008152600401620001109062000a6a565b60405180910390fd5b6200013567c3b37424d9c469d060c01b620007b660201b60201c565b6200015167740ce2464856c2b360c01b620007b660201b60201c565b6200016d676ae93f6bf114c2f760c01b620007b660201b60201c565b62000189677a7ed0c4e584401460c01b620007b660201b60201c565b600073ffffffffffffffffffffffffffffffffffffffff168173ffffffffffffffffffffffffffffffffffffffff1603620001fb576040517f08c379a0000000000000000000000000000000000000000000000000000000008152600401620001f29062000b02565b60405180910390fd5b620002176745d4f9869d13660b60c01b620007b660201b60201c565b62000233671cbdd7add0b2dd5c60c01b620007b660201b60201c565b6200024f67f2a3b9ba0bc2281e60c01b620007b660201b60201c565b6200026b679859be0913bc1e1760c01b620007b660201b60201c565b8073ffffffffffffffffffffffffffffffffffffffff168273ffffffffffffffffffffffffffffffffffffffff1603620002dc576040517f08c379a0000000000000000000000000000000000000000000000000000000008152600401620002d39062000b9a565b60405180910390fd5b620002f8678f5912fc196c66fb60c01b620007b660201b60201c565b6200031467d451ad32aab430b860c01b620007b660201b60201c565b62000330672f872260ec70aa8060c01b620007b660201b60201c565b620003627f4bbeb6fd3e5222e55f2f8b0c35bc228e0a06a25d0da772fdb02c3b92fa004f8883620007b960201b60201c565b6200037e67e28d98831e470a0e60c01b620007b660201b60201c565b6200039a6770e61a765dfb20aa60c01b620007b660201b60201c565b620003cc7f4bbeb6fd3e5222e55f2f8b0c35bc228e0a06a25d0da772fdb02c3b92fa004f8882620007cf60201b60201c565b620003e86768c3bd0af40a1b5d60c01b620007b660201b60201c565b6040518060e00160405280600263ffffffff168152602001600260ff1663ffffffff168152602001600f60ff1663ffffffff168152602001605060ff168152602001605060ff1681526020017f4bbeb6fd3e5222e55f2f8b0c35bc228e0a06a25d0da772fdb02c3b92fa004f8881526020016040516020016200046b9062000c17565b604051602081830303815290604052620004859062000c77565b815250600160007f4bbeb6fd3e5222e55f2f8b0c35bc228e0a06a25d0da772fdb02c3b92fa004f88815260200190815260200160002060008201518160000160006101000a81548163ffffffff021916908363ffffffff16021790555060208201518160000160046101000a81548163ffffffff021916908363ffffffff16021790555060408201518160000160086101000a81548163ffffffff021916908363ffffffff160217905550606082015181600001600c6101000a81548160ff021916908360ff160217905550608082015181600001600d6101000a81548160ff021916908360ff16021790555060a0820151816001015560c08201518160020155905050620005a5672bc4242ebebe428960c01b620007b660201b60201c565b620005c167e87324c8c42b714760c01b620007b660201b60201c565b620005f47fd646ae07eb0d0f77457502a65e7407930dff4cd4fd99abc6aac87a753f4c8a426000620007b960201b60201c565b62000610672c4d7d6a241e4b8960c01b620007b660201b60201c565b6040518060e00160405280600063ffffffff168152602001600063ffffffff168152602001600f60ff1663ffffffff168152602001605060ff168152602001605060ff1681526020017f4bbeb6fd3e5222e55f2f8b0c35bc228e0a06a25d0da772fdb02c3b92fa004f888152602001604051602001620006909062000d37565b604051602081830303815290604052620006aa9062000c77565b815250600160007fd646ae07eb0d0f77457502a65e7407930dff4cd4fd99abc6aac87a753f4c8a42815260200190815260200160002060008201518160000160006101000a81548163ffffffff021916908363ffffffff16021790555060208201518160000160046101000a81548163ffffffff021916908363ffffffff16021790555060408201518160000160086101000a81548163ffffffff021916908363ffffffff160217905550606082015181600001600c6101000a81548160ff021916908360ff160217905550608082015181600001600d6101000a81548160ff021916908360ff16021790555060a0820151816001015560c08201518160020155905050505062000d4e565b50565b620007cb8282620007cf60201b60201c565b5050565b620007e18282620008c060201b60201c565b620008bc57600160008084815260200190815260200160002060000160008373ffffffffffffffffffffffffffffffffffffffff1673ffffffffffffffffffffffffffffffffffffffff16815260200190815260200160002060006101000a81548160ff021916908315150217905550620008616200092a60201b60201c565b73ffffffffffffffffffffffffffffffffffffffff168173ffffffffffffffffffffffffffffffffffffffff16837f2f8788117e7eff1d82e926ec794901d17c78024a50270940304540a733656f0d60405160405180910390a45b5050565b600080600084815260200190815260200160002060000160008373ffffffffffffffffffffffffffffffffffffffff1673ffffffffffffffffffffffffffffffffffffffff16815260200190815260200160002060009054906101000a900460ff16905092915050565b600033905090565b600080fd5b600073ffffffffffffffffffffffffffffffffffffffff82169050919050565b6000620009648262000937565b9050919050565b620009768162000957565b81146200098257600080fd5b50565b60008151905062000996816200096b565b92915050565b60008060408385031215620009b657620009b562000932565b5b6000620009c68582860162000985565b9250506020620009d98582860162000985565b9150509250929050565b600082825260208201905092915050565b7f4365727469666965722061646d696e3120616464726573732063616e6e6f742060008201527f6265203000000000000000000000000000000000000000000000000000000000602082015250565b600062000a52602483620009e3565b915062000a5f82620009f4565b604082019050919050565b6000602082019050818103600083015262000a858162000a43565b9050919050565b7f4365727469666965722061646d696e3220616464726573732063616e6e6f742060008201527f6265203000000000000000000000000000000000000000000000000000000000602082015250565b600062000aea602483620009e3565b915062000af78262000a8c565b604082019050919050565b6000602082019050818103600083015262000b1d8162000adb565b9050919050565b7f436572746966696572206164647265737365732063616e6e6f7420626520746860008201527f652073616d650000000000000000000000000000000000000000000000000000602082015250565b600062000b82602683620009e3565b915062000b8f8262000b24565b604082019050919050565b6000602082019050818103600083015262000bb58162000b73565b9050919050565b600081905092915050565b7f4345525449464945525f41444d494e0000000000000000000000000000000000600082015250565b600062000bff600f8362000bbc565b915062000c0c8262000bc7565b600f82019050919050565b600062000c248262000bf0565b9150819050919050565b600081519050919050565b6000819050602082019050919050565b6000819050919050565b600062000c61825162000c49565b80915050919050565b600082821b905092915050565b600062000c848262000c2e565b8262000c908462000c39565b905062000c9d8162000c53565b9250602082101562000ce05762000cdb7fffffffffffffffffffffffffffffffffffffffffffffffffffffffffffffffff8360200360080262000c6a565b831692505b5050919050565b7f4345525449464945520000000000000000000000000000000000000000000000600082015250565b600062000d1f60098362000bbc565b915062000d2c8262000ce7565b600982019050919050565b600062000d448262000d10565b9150819050919050565b61506f8062000d5e6000396000f3fe608060405234801561001057600080fd5b50600436106101735760003560e01c80636bc6421b116100de5780639e33990911610097578063bf80209111610071578063bf8020911461045e578063d3243ad81461048e578063d547741f146104aa578063e05f2fb4146104c657610173565b80639e33990914610404578063a217fddf14610422578063b86bc74f1461044057610173565b80636bc6421b14610314578063719129be14610332578063742f06881461034e5780637cd29fb71461038657806391d14854146103a45780639dd09a73146103d457610173565b80632e83c14b116101305780632e83c14b146102665780632f2ff15d1461028257806333b72e491461029e57806336568abe146102bc5780634da11a20146102d85780635907ebea146102f657610173565b806301ffc9a7146101785780630f68794a146101a85780631a968069146101c65780631a9cfe28146101fa578063248a9ca3146102185780632cd94e4f14610248575b600080fd5b610192600480360381019061018d9190613545565b6104e4565b60405161019f919061358d565b60405180910390f35b6101b061055e565b6040516101bd91906135c4565b60405180910390f35b6101e060048036038101906101db9190613615565b610563565b6040516101f19594939291906136e1565b60405180910390f35b610202610648565b60405161020f91906135c4565b60405180910390f35b610232600480360381019061022d9190613615565b61064d565b60405161023f919061373b565b60405180910390f35b61025061066c565b60405161025d91906135c4565b60405180910390f35b610280600480360381019061027b9190613930565b610671565b005b61029c60048036038101906102979190613a68565b610ec3565b005b6102a6610ee4565b6040516102b391906135c4565b60405180910390f35b6102d660048036038101906102d19190613a68565b610ee9565b005b6102e0610f60565b6040516102ed91906135c4565b60405180910390f35b6102fe610f65565b60405161030b91906135c4565b60405180910390f35b61031c610f6a565b60405161032991906135c4565b60405180910390f35b61034c60048036038101906103479190613ad4565b610f6f565b005b61036860048036038101906103639190613615565b6117f3565b60405161037d99989796959493929190613c3d565b60405180910390f35b61038e611875565b60405161039b91906135c4565b60405180910390f35b6103be60048036038101906103b99190613a68565b61187a565b6040516103cb919061358d565b60405180910390f35b6103ee60048036038101906103e99190613cca565b6118e4565b6040516103fb919061373b565b60405180910390f35b61040c6118fc565b60405161041991906135c4565b60405180910390f35b61042a611901565b604051610437919061373b565b60405180910390f35b610448611908565b604051610455919061373b565b60405180910390f35b61047860048036038101906104739190613cf7565b61192c565b6040516104859190613d37565b60405180910390f35b6104a860048036038101906104a39190613ad4565b611a29565b005b6104c460048036038101906104bf9190613a68565b6125ec565b005b6104ce61260d565b6040516104db919061373b565b60405180910390f35b60007f7965db0b000000000000000000000000000000000000000000000000000000007bffffffffffffffffffffffffffffffffffffffffffffffffffffffff1916827bffffffffffffffffffffffffffffffffffffffffffffffffffffffff19161480610557575061055682612631565b5b9050919050565b605081565b60026020528060005260406000206000915090508060000160009054906101000a900460ff16908060010154908060020160009054906101000a900460ff16908060020160019054906101000a900460ff16908060050180546105c590613d81565b80601f01602080910402602001604051908101604052809291908181526020018280546105f190613d81565b801561063e5780601f106106135761010080835404028352916020019161063e565b820191906000526020600020905b81548152906001019060200180831161062157829003601f168201915b5050505050905085565b605081565b6000806000838152602001908152602001600020600101549050919050565b605081565b61068567b52e37c57f13f03660c01b61269b565b61069967c6bc374fa7feff0160c01b61269b565b6106ad6786ac1e62d24a349860c01b61269b565b6106c1679e5c2cdd766b16de60c01b61269b565b6106eb7fd646ae07eb0d0f77457502a65e7407930dff4cd4fd99abc6aac87a753f4c8a423361187a565b61072a576040517f08c379a000000000000000000000000000000000000000000000000000000000815260040161072190613dfe565b60405180910390fd5b61073e6753aaaf9320fe18fd60c01b61269b565b61075267ab49e147b91272b360c01b61269b565b610766679ab8a363c1db47f760c01b61269b565b61077a67c80f0b231c338b2d60c01b61269b565b6000600381111561078e5761078d613b27565b5b8360038111156107a1576107a0613b27565b5b101580156107d357506003808111156107bd576107bc613b27565b5b8360038111156107d0576107cf613b27565b5b11155b610812576040517f08c379a000000000000000000000000000000000000000000000000000000000815260040161080990613e6a565b60405180910390fd5b610826675397bbbeef836ad860c01b61269b565b61083a679b6d6670acbbe93360c01b61269b565b61084e678dba3cfcdd7ab4ab60c01b61269b565b610862672e1f532eb4156eb560c01b61269b565b6000600281111561087657610875613b27565b5b82600281111561088957610888613b27565b5b101580156108bb57506002808111156108a5576108a4613b27565b5b8260028111156108b8576108b7613b27565b5b11155b6108fa576040517f08c379a00000000000000000000000000000000000000000000000000000000081526004016108f190613ed6565b60405180910390fd5b61090e67b763b8910a23efee60c01b61269b565b61092267acd6a8c8f4d574b660c01b61269b565b610936677697096d64270cdb60c01b61269b565b61094a673318f6946f78197860c01b61269b565b6000600f81111561095e5761095d613b27565b5b81600f81111561097157610970613b27565b5b101580156109a35750600f8081111561098d5761098c613b27565b5b81600f8111156109a05761099f613b27565b5b11155b6109e2576040517f08c379a00000000000000000000000000000000000000000000000000000000081526004016109d990613f42565b60405180910390fd5b6109f667d4c4533d7e9a60a660c01b61269b565b610a0a6732954512786739f560c01b61269b565b610a1e6724bcd6ffdfbd0d4d60c01b61269b565b600087848484604051602001610a37949392919061403e565b604051602081830303815290604052805190602001209050610a63677338a703ca5a2a9660c01b61269b565b610a77673b1e688b7d79d00d60c01b61269b565b610b43817fd646ae07eb0d0f77457502a65e7407930dff4cd4fd99abc6aac87a753f4c8a428a604051602001610aad9190614097565b60405160208183030381529060405287604051602001610acd91906140b2565b60405160208183030381529060405287604051602001610aed91906140cd565b60405160208183030381529060405287604051602001610b0d91906140e8565b604051602081830303815290604052604051602001610b2f9493929190614180565b60405160208183030381529060405261269e565b610b57676bea465bb441461060c01b61269b565b610b6b67e8c1fa74bacd7fbb60c01b61269b565b600015156002600083815260200190815260200160002060030160003373ffffffffffffffffffffffffffffffffffffffff1673ffffffffffffffffffffffffffffffffffffffff16815260200190815260200160002060009054906101000a900460ff16151503610c9357610beb671f5319feb6477e3560c01b61269b565b610bff67f438d58dfb1be18260c01b61269b565b610c13678ef10dcaeac9036f60c01b61269b565b610c2f6002600083815260200190815260200160002033612842565b610c436735f2056c8483d80460c01b61269b565b610c5767c187d7d65cf65af260c01b61269b565b7fb431a69783a2491a0c400ff16dab32cd442abf8fe5af63a526a7248d730192f881604051610c86919061373b565b60405180910390a1610ca8565b610ca767ade7a62c071e519d60c01b61269b565b5b610cbc675439b2c4cd16482360c01b61269b565b610cd0672f6377f918fc3e7460c01b61269b565b610d36603360ff16600160007fd646ae07eb0d0f77457502a65e7407930dff4cd4fd99abc6aac87a753f4c8a42815260200190815260200160002060000160009054906101000a900463ffffffff16610d299190614239565b63ffffffff16606461192c565b6002600083815260200190815260200160002060020160009054906101000a900460ff1660ff1610610ea457610d766762c646c22c573f3e60c01b61269b565b610d8a67220ad4741fc3df5d60c01b61269b565b610d9e6799a0b0988af0867760c01b61269b565b610db960026000838152602001908152602001600020612ac4565b610dcd675d49ac61be8ebd7160c01b61269b565b610de167ac18a9a1ec69e6b860c01b61269b565b7f562618dbcf74b61ae5b0f229fe40ba6d5b6ae6b4248f8c89a870dda7c77135f681604051610e10919061373b565b60405180910390a1610e2c67698bf9a5753ef89160c01b61269b565b610e40674a780f79854977d860c01b61269b565b610e9f8888604051602001610e559190614276565b604051602081830303815290604052610e6d906142ca565b88604051602001610e7e9190614276565b604051602081830303815290604052610e96906142ca565b88888888612c11565b610eb9565b610eb86769ad2177cecd222f60c01b61269b565b5b5050505050505050565b610ecc8261064d565b610ed581612e45565b610edf8383612e59565b505050565b600281565b610efd67515d414290ef63a760c01b61269b565b610f1167408d4005470649cf60c01b61269b565b610f25679c54a3cc10a34a3d60c01b61269b565b6040517f08c379a0000000000000000000000000000000000000000000000000000000008152600401610f57906143a3565b60405180910390fd5b605081565b600f81565b603381565b610f8367d61646692ed40d1060c01b61269b565b610f9767281f41604962ef6360c01b61269b565b610fab6701dc47e9dc7e2d4960c01b61269b565b6000600160008581526020019081526020016000209050610fd667e00c6e3f0d9a678b60c01b61269b565b610fea67211496b55cb50cff60c01b61269b565b610ffe67fa27c246eee8a08b60c01b61269b565b8060000160009054906101000a900463ffffffff1663ffffffff168160000160089054906101000a900463ffffffff1663ffffffff1611816002015460405160200161104a91906143e4565b604051602081830303815290604052604051602001611069919061444b565b604051602081830303815290604052906110b9576040517f08c379a00000000000000000000000000000000000000000000000000000000081526004016110b09190614480565b60405180910390fd5b506110ce67ba7a7d4f3ff1ed8260c01b61269b565b6110e26719a84e662ed6d2e460c01b61269b565b6110f667553b9ae776c1ac0760c01b61269b565b61110a6776e3a440f346f78b60c01b61269b565b61111881600101543361187a565b816002015460405160200161112d91906143e4565b60405160208183030381529060405260405160200161114c91906144ee565b6040516020818303038152906040529061119c576040517f08c379a00000000000000000000000000000000000000000000000000000000081526004016111939190614480565b60405180910390fd5b506111b1672fe19dd197ae71b760c01b61269b565b6111c5674dadad20973e5e5d60c01b61269b565b6111d967dcfd845b2fe814ee60c01b61269b565b6111ed6787c8ea0feda3ada560c01b61269b565b600015156111fb858561187a565b151514816002015460405160200161121391906143e4565b6040516020818303038152906040526040516020016112329190614549565b60405160208183030381529060405290611282576040517f08c379a00000000000000000000000000000000000000000000000000000000081526004016112799190614480565b60405180910390fd5b5061129767124f1dad53c69bc560c01b61269b565b6112ab676e8d3572b8c8ba0b60c01b61269b565b6112bf67ec4e2bcd0646233360c01b61269b565b600083856040516020016112d4929190614603565b6040516020818303038152906040528051906020012090506113006771868017dd9ea9a260c01b61269b565b61131467ab1bd67fcc0dc4e660c01b61269b565b611386818360010154846002015460405160200161133291906143e4565b60405160208183030381529060405287604051602001611352919061463a565b60405160208183030381529060405260405160200161137292919061467b565b60405160208183030381529060405261269e565b61139a6714693ce83117a4a660c01b61269b565b6113ae671ee91d41820de70160c01b61269b565b82801561141f5750600015156002600083815260200190815260200160002060030160003373ffffffffffffffffffffffffffffffffffffffff1673ffffffffffffffffffffffffffffffffffffffff16815260200190815260200160002060009054906101000a900460ff161515145b156114e0576114386765714ee521157c1660c01b61269b565b61144c67647b5b224d6b094960c01b61269b565b6114606765b7e103c94a229d60c01b61269b565b61147c6002600083815260200190815260200160002033612842565b6114906712792db49bd8000860c01b61269b565b6114a4673a5a274be22801d260c01b61269b565b7fb431a69783a2491a0c400ff16dab32cd442abf8fe5af63a526a7248d730192f8816040516114d3919061373b565b60405180910390a16115e6565b6114f467493634455e2d80e960c01b61269b565b611508671175e050037a7c2760c01b61269b565b60001515831515036115d057611528675137f0b970b59aa760c01b61269b565b61153c677ba3d7ad982f17c160c01b61269b565b611550675ff2fe70f0a1650860c01b61269b565b61156c6002600083815260200190815260200160002033612f39565b6115806739d9fb6b575ba4e360c01b61269b565b61159467248dca5c34ff865b60c01b61269b565b7fb431a69783a2491a0c400ff16dab32cd442abf8fe5af63a526a7248d730192f8816040516115c3919061373b565b60405180910390a16115e5565b6115e46752d84047f7ec1fd860c01b61269b565b5b5b6115fa67ae030a65c15f875560c01b61269b565b61160e674dbd682bd4fc310660c01b61269b565b61166882600001600c9054906101000a900460ff1660ff16600160008560010154815260200190815260200160002060000160009054906101000a900463ffffffff1661165b9190614239565b63ffffffff16606461192c565b6002600083815260200190815260200160002060020160009054906101000a900460ff1660ff16106117d7576116a86714f96b5406597f9960c01b61269b565b6116bc670df07991caef353d60c01b61269b565b6116d067ae62ea1482f5a88360c01b61269b565b6116eb60026000838152602001908152602001600020612ac4565b6116ff67163e0e75e54e0c8a60c01b61269b565b61171367a4e6a19cbfe5167960c01b61269b565b7f562618dbcf74b61ae5b0f229fe40ba6d5b6ae6b4248f8c89a870dda7c77135f681604051611742919061373b565b60405180910390a161175e675c78a7177eb1a8fb60c01b61269b565b61177267bf4499ff51c0c22160c01b61269b565b61177c8585612e59565b61179067822948be4d3ef9a760c01b61269b565b60018260000160008282829054906101000a900463ffffffff166117b491906146bd565b92506101000a81548163ffffffff021916908363ffffffff1602179055506117ec565b6117eb6796129956313adf1b60c01b61269b565b5b5050505050565b60056020528060005260406000206000915090508060000160009054906101000a900460ff16908060000160019054906101000a900460ff16908060000160029054906101000a900460ff16908060010154908060020160009054906101000a900460ff16908060030154908060040154908060050154908060060154905089565b605081565b600080600084815260200190815260200160002060000160008373ffffffffffffffffffffffffffffffffffffffff1673ffffffffffffffffffffffffffffffffffffffff16815260200190815260200160002060009054906101000a900460ff16905092915050565b60036020528060005260406000206000915090505481565b600f81565b6000801b81565b7fd646ae07eb0d0f77457502a65e7407930dff4cd4fd99abc6aac87a753f4c8a4281565b600061194267c4b9aedac44523b960c01b6130f1565b61195667a4703adbb9f130da60c01b6130f1565b61196a677ca098a9ee65439360c01b6130f1565b600082846119789190614724565b036119cc5761199167f7b14ce8c55b802460c01b6130f1565b6119a5670d0b3c9dde3a472760c01b6130f1565b6119b967d4d016e8cd7045ca60c01b6130f1565b81836119c59190614755565b9050611a23565b6119e067dc8d56f3bdb9b5b360c01b6130f1565b6119f46737d7a2fdff96df2760c01b6130f1565b611a0867e41384d303d5c22a60c01b6130f1565b60018284611a169190614755565b611a209190614786565b90505b92915050565b611a3d67a37df02138054e5260c01b61269b565b611a5167b057154329c49bf860c01b61269b565b611a6567e3a8e90515cce0b760c01b61269b565b6000600160008581526020019081526020016000209050611a9067b5a228e10270e22560c01b61269b565b611aa4673ddb288b7f8fde5860c01b61269b565b611ab86728ffed5c4bbb136d60c01b61269b565b8060000160049054906101000a900463ffffffff1663ffffffff168160000160009054906101000a900463ffffffff1663ffffffff16118160020154604051602001611b0491906143e4565b604051602081830303815290604052604051602001611b2391906147e0565b60405160208183030381529060405290611b73576040517f08c379a0000000000000000000000000000000000000000000000000000000008152600401611b6a9190614480565b60405180910390fd5b50611b88671a14e86b1536e0c460c01b61269b565b611b9c678190894182f1322760c01b61269b565b611bb0675e914cc764a08bdc60c01b61269b565b611bc46759cb1221e0215d5e60c01b61269b565b611bce848461187a565b8160020154604051602001611be391906143e4565b604051602081830303815290604052604051602001611c02919061483b565b60405160208183030381529060405290611c52576040517f08c379a0000000000000000000000000000000000000000000000000000000008152600401611c499190614480565b60405180910390fd5b50611c67676d76b91fe9de0f8c60c01b61269b565b611c7b67bdf8a12455256e9760c01b61269b565b611c8f67ed9c0b858915e64660c01b61269b565b611ca367649bd458a200725760c01b61269b565b611cb181600101543361187a565b8160020154604051602001611cc691906143e4565b604051602081830303815290604052604051602001611ce591906144ee565b60405160208183030381529060405290611d35576040517f08c379a0000000000000000000000000000000000000000000000000000000008152600401611d2c9190614480565b60405180910390fd5b50611d4a670b6b16ea080ccdb260c01b61269b565b611d5e67689b85ae64f251bf60c01b61269b565b611d726735e2a6e6763de1be60c01b61269b565b60008385604051602001611d879291906148ad565b604051602081830303815290604052805190602001209050611db36709e04ae92e1584c060c01b61269b565b611dc7672117bb302f321a4960c01b61269b565b611e398183600101548460020154604051602001611de591906143e4565b60405160208183030381529060405287604051602001611e05919061463a565b604051602081830303815290604052604051602001611e2592919061490a565b60405160208183030381529060405261269e565b611e4d67918f30a7fad8441260c01b61269b565b611e61679d26a0bcae16f15560c01b61269b565b828015611ed25750600015156002600083815260200190815260200160002060030160003373ffffffffffffffffffffffffffffffffffffffff1673ffffffffffffffffffffffffffffffffffffffff16815260200190815260200160002060009054906101000a900460ff161515145b15611f9357611eeb6762560a22786c9d8960c01b61269b565b611eff676ad05dd6ad0c5e8e60c01b61269b565b611f1367b018fb771a8f126a60c01b61269b565b611f2f6002600083815260200190815260200160002033612842565b611f43673838e17e05cad86e60c01b61269b565b611f57673b992ef7312a36a260c01b61269b565b7fb431a69783a2491a0c400ff16dab32cd442abf8fe5af63a526a7248d730192f881604051611f86919061373b565b60405180910390a1612099565b611fa767d1937d9a9d9ede4b60c01b61269b565b611fbb67eba93d2f1c3a372560c01b61269b565b600015158315150361208357611fdb67e583d3490fb5c11a60c01b61269b565b611fef6703c216aef0914c7d60c01b61269b565b61200367e929230dacd39fc460c01b61269b565b61201f6002600083815260200190815260200160002033612f39565b61203367f0423ad893494d1f60c01b61269b565b612047670e4635f8420cba4d60c01b61269b565b7fb431a69783a2491a0c400ff16dab32cd442abf8fe5af63a526a7248d730192f881604051612076919061373b565b60405180910390a1612098565b61209767a8f356ae64e80fb260c01b61269b565b5b5b6120ad6787081979864afeae60c01b61269b565b6120c1677547dde3e6de66c160c01b61269b565b81600101548514158015612154575061212a82600001600d9054906101000a900460ff1660ff16600160008560010154815260200190815260200160002060000160009054906101000a900463ffffffff1661211d9190614239565b63ffffffff16606461192c565b6002600083815260200190815260200160002060020160009054906101000a900460ff1660ff1610155b8015612170575061216f6776a3d74fa8fa545760c01b6130f4565b5b80612230575081600101548514801561221357506121e982600001600d9054906101000a900460ff1660ff1660018060008660010154815260200190815260200160002060000160009054906101000a900463ffffffff166121d2919061494c565b6121dc9190614239565b63ffffffff16606461192c565b6002600083815260200190815260200160002060020160009054906101000a900460ff1660ff1610155b801561222f575061222e674ed9ea8c9338f00060c01b6130f4565b5b5b156125d057612249679baa3422236fc69f60c01b61269b565b61225d67c5044043363bb23760c01b61269b565b61227167bfc6b0f370d7024960c01b61269b565b60005b6004548110156124a057612292679ccb8433f30b7f6160c01b61269b565b6122a6670842a97201189b8b60c01b61269b565b60011515600260006003600085815260200190815260200160002054815260200190815260200160002060030160008773ffffffffffffffffffffffffffffffffffffffff1673ffffffffffffffffffffffffffffffffffffffff16815260200190815260200160002060009054906101000a900460ff161515148015612355575085600260006003600085815260200190815260200160002054815260200190815260200160002060010154145b156124785761236e67ca8d401c43f5f9d760c01b61269b565b61238267e22dcaa2865f121160c01b61269b565b6001600260006003600085815260200190815260200160002054815260200190815260200160002060020160008282829054906101000a900460ff166123c89190614984565b92506101000a81548160ff021916908360ff1602179055506123f4674aba95960958e73260c01b61269b565b6000600260006003600085815260200190815260200160002054815260200190815260200160002060030160008773ffffffffffffffffffffffffffffffffffffffff1673ffffffffffffffffffffffffffffffffffffffff16815260200190815260200160002060006101000a81548160ff02191690831515021790555061248d565b61248c6730249e749f45b5e460c01b61269b565b5b8080612498906149b9565b915050612274565b506124b567374dfd98b823c8cf60c01b61269b565b6124c96720270532058f02e560c01b61269b565b6124e460026000838152602001908152602001600020612ac4565b6124f8679e04f1a5c5bda7df60c01b61269b565b61250c67d618060faf473a2a60c01b61269b565b7f562618dbcf74b61ae5b0f229fe40ba6d5b6ae6b4248f8c89a870dda7c77135f68160405161253b919061373b565b60405180910390a16125576759aacab69e3a1cf860c01b61269b565b61256b671f8604b2e035df8c60c01b61269b565b61257585856130ff565b612589674341521415b393ff60c01b61269b565b60018260000160008282829054906101000a900463ffffffff166125ad919061494c565b92506101000a81548163ffffffff021916908363ffffffff1602179055506125e5565b6125e4673abda3db58ee88d660c01b61269b565b5b5050505050565b6125f58261064d565b6125fe81612e45565b61260883836130ff565b505050565b7f4bbeb6fd3e5222e55f2f8b0c35bc228e0a06a25d0da772fdb02c3b92fa004f8881565b60007f01ffc9a7000000000000000000000000000000000000000000000000000000007bffffffffffffffffffffffffffffffffffffffffffffffffffffffff1916827bffffffffffffffffffffffffffffffffffffffffffffffffffffffff1916149050919050565b50565b6126b267f2f486595854747960c01b61269b565b6126c6678e01888c80102d3760c01b61269b565b6126da67bc51f865c49130a860c01b61269b565b600015156002600085815260200190815260200160002060000160009054906101000a900460ff161515036128285761271d67f8b6ac0350413cde60c01b61269b565b612731674f5571dc82a8340f60c01b61269b565b60016002600085815260200190815260200160002060000160006101000a81548160ff02191690831515021790555061277467df20ef43cd86120a60c01b61269b565b82600360006004548152602001908152602001600020819055506127a267f9332553eceb56d860c01b61269b565b6001600460008282546127b59190614786565b925050819055506127d0677d4cea3f8d4622d560c01b61269b565b8160026000858152602001908152602001600020600101819055506127ff67eb262170ab108a0360c01b61269b565b806002600085815260200190815260200160002060050190816128229190614ba0565b5061283d565b61283c67978f6ecc8f60681960c01b61269b565b5b505050565b61285667ac3bead4f17e4c3360c01b6131e0565b61286a6709b738277559f6df60c01b6131e0565b61287e67d8ed15d80cef1d0460c01b6131e0565b61289267c405dc6cbccb9d0760c01b6131e0565b600015158260030160008373ffffffffffffffffffffffffffffffffffffffff1673ffffffffffffffffffffffffffffffffffffffff16815260200190815260200160002060009054906101000a900460ff16151514612927576040517f08c379a000000000000000000000000000000000000000000000000000000000815260040161291e90614cbe565b60405180910390fd5b61293b675e03a53d01baaf7860c01b6131e0565b61294f67b2ab78ab4e88a8b660c01b6131e0565b808260040160008460020160019054906101000a900460ff1660ff16815260200190815260200160002060006101000a81548173ffffffffffffffffffffffffffffffffffffffff021916908373ffffffffffffffffffffffffffffffffffffffff1602179055506129cb6783265a09f7a3b23d60c01b6131e0565b81600201600181819054906101000a900460ff16809291906129ec90614cde565b91906101000a81548160ff021916908360ff16021790555050612a1967bfb6ee6be08c69fc60c01b6131e0565b60018260030160008373ffffffffffffffffffffffffffffffffffffffff1673ffffffffffffffffffffffffffffffffffffffff16815260200190815260200160002060006101000a81548160ff021916908315150217905550612a87679d946af72c018eef60c01b6131e0565b60018260020160008282829054906101000a900460ff16612aa89190614d07565b92506101000a81548160ff021916908360ff1602179055505050565b612ad867f8b20febdf336cc960c01b6131e0565b612aec677c84a5546afaaf6260c01b6131e0565b60008160020160006101000a81548160ff021916908360ff160217905550612b1e679213200eef50ebef60c01b6131e0565b612b3267811ef55aeb69e26760c01b6131e0565b60005b8160020160019054906101000a900460ff1660ff168160ff161015612c0d57612b6867bf8a9bd7eeae76f760c01b6131e0565b60008260030160008460040160008560ff16815260200190815260200160002060009054906101000a900473ffffffffffffffffffffffffffffffffffffffff1673ffffffffffffffffffffffffffffffffffffffff1673ffffffffffffffffffffffffffffffffffffffff16815260200190815260200160002060006101000a81548160ff0219169083151502179055508080612c0590614cde565b915050612b35565b5050565b612c2567d0a65ecdfb35759e60c01b61269b565b612c3967fecb9a5516d562ad60c01b61269b565b604051806101200160405280846003811115612c5857612c57613b27565b5b8152602001836002811115612c7057612c6f613b27565b5b815260200182600f811115612c8857612c87613b27565b5b8152602001428152602001600115158152602001888152602001878152602001868152602001858152506005600089868686604051602001612ccd9493929190614d3c565b60405160208183030381529060405280519060200120815260200190815260200160002060008201518160000160006101000a81548160ff02191690836003811115612d1c57612d1b613b27565b5b021790555060208201518160000160016101000a81548160ff02191690836002811115612d4c57612d4b613b27565b5b021790555060408201518160000160026101000a81548160ff0219169083600f811115612d7c57612d7b613b27565b5b02179055506060820151816001015560808201518160020160006101000a81548160ff02191690831515021790555060a0820151816003015560c0820151816004015560e082015181600501556101008201518160060155905050612deb6711522e4c80b8acf560c01b61269b565b612dff675a87c8131b0f347660c01b61269b565b7fb55811dd01470a227956304b027c610c7cdf9dd622dcc47791380261d56dc6ed87848484604051612e349493929190614d8a565b60405180910390a150505050505050565b612e5681612e516131e3565b6131eb565b50565b612e63828261187a565b612f3557600160008084815260200190815260200160002060000160008373ffffffffffffffffffffffffffffffffffffffff1673ffffffffffffffffffffffffffffffffffffffff16815260200190815260200160002060006101000a81548160ff021916908315150217905550612eda6131e3565b73ffffffffffffffffffffffffffffffffffffffff168173ffffffffffffffffffffffffffffffffffffffff16837f2f8788117e7eff1d82e926ec794901d17c78024a50270940304540a733656f0d60405160405180910390a45b5050565b612f4d67a8f0c02c3645e77d60c01b6131e0565b612f61671aeaea7a22f3a63560c01b6131e0565b612f7567124280e1781f78c360c01b6131e0565b612f8967e1f2f8d4806beae660c01b6131e0565b600115158260030160008373ffffffffffffffffffffffffffffffffffffffff1673ffffffffffffffffffffffffffffffffffffffff16815260200190815260200160002060009054906101000a900460ff1615151461301e576040517f08c379a000000000000000000000000000000000000000000000000000000000815260040161301590614e41565b60405180910390fd5b61303267a98859a1e9023fef60c01b6131e0565b61304667fb5e23843aae82c760c01b6131e0565b60008260030160008373ffffffffffffffffffffffffffffffffffffffff1673ffffffffffffffffffffffffffffffffffffffff16815260200190815260200160002060006101000a81548160ff0219169083151502179055506130b467d7e29696126fb63060c01b6131e0565b60018260020160008282829054906101000a900460ff166130d59190614984565b92506101000a81548160ff021916908360ff1602179055505050565b50565b600060019050919050565b613109828261187a565b156131dc57600080600084815260200190815260200160002060000160008373ffffffffffffffffffffffffffffffffffffffff1673ffffffffffffffffffffffffffffffffffffffff16815260200190815260200160002060006101000a81548160ff0219169083151502179055506131816131e3565b73ffffffffffffffffffffffffffffffffffffffff168173ffffffffffffffffffffffffffffffffffffffff16837ff6391f5c32d9c69d2a47ea670b442974b53935d1edc7fd64eb21e047a839171b60405160405180910390a45b5050565b50565b600033905090565b6131f5828261187a565b61326c5761320281613270565b6132108360001c602061329d565b604051602001613221929190614ef9565b6040516020818303038152906040526040517f08c379a00000000000000000000000000000000000000000000000000000000081526004016132639190614480565b60405180910390fd5b5050565b60606132968273ffffffffffffffffffffffffffffffffffffffff16601460ff1661329d565b9050919050565b6060600060028360026132b09190614f33565b6132ba9190614786565b67ffffffffffffffff8111156132d3576132d2613796565b5b6040519080825280601f01601f1916602001820160405280156133055781602001600182028036833780820191505090505b5090507f30000000000000000000000000000000000000000000000000000000000000008160008151811061333d5761333c614f75565b5b60200101907effffffffffffffffffffffffffffffffffffffffffffffffffffffffffffff1916908160001a9053507f7800000000000000000000000000000000000000000000000000000000000000816001815181106133a1576133a0614f75565b5b60200101907effffffffffffffffffffffffffffffffffffffffffffffffffffffffffffff1916908160001a905350600060018460026133e19190614f33565b6133eb9190614786565b90505b600181111561348b577f3031323334353637383961626364656600000000000000000000000000000000600f86166010811061342d5761342c614f75565b5b1a60f81b82828151811061344457613443614f75565b5b60200101907effffffffffffffffffffffffffffffffffffffffffffffffffffffffffffff1916908160001a905350600485901c94508061348490614fa4565b90506133ee565b50600084146134cf576040517f08c379a00000000000000000000000000000000000000000000000000000000081526004016134c690615019565b60405180910390fd5b8091505092915050565b6000604051905090565b600080fd5b600080fd5b60007fffffffff0000000000000000000000000000000000000000000000000000000082169050919050565b613522816134ed565b811461352d57600080fd5b50565b60008135905061353f81613519565b92915050565b60006020828403121561355b5761355a6134e3565b5b600061356984828501613530565b91505092915050565b60008115159050919050565b61358781613572565b82525050565b60006020820190506135a2600083018461357e565b92915050565b600060ff82169050919050565b6135be816135a8565b82525050565b60006020820190506135d960008301846135b5565b92915050565b6000819050919050565b6135f2816135df565b81146135fd57600080fd5b50565b60008135905061360f816135e9565b92915050565b60006020828403121561362b5761362a6134e3565b5b600061363984828501613600565b91505092915050565b61364b816135df565b82525050565b600081519050919050565b600082825260208201905092915050565b60005b8381101561368b578082015181840152602081019050613670565b60008484015250505050565b6000601f19601f8301169050919050565b60006136b382613651565b6136bd818561365c565b93506136cd81856020860161366d565b6136d681613697565b840191505092915050565b600060a0820190506136f6600083018861357e565b6137036020830187613642565b61371060408301866135b5565b61371d60608301856135b5565b818103608083015261372f81846136a8565b90509695505050505050565b60006020820190506137506000830184613642565b92915050565b6000819050919050565b61376981613756565b811461377457600080fd5b50565b60008135905061378681613760565b92915050565b600080fd5b600080fd5b7f4e487b7100000000000000000000000000000000000000000000000000000000600052604160045260246000fd5b6137ce82613697565b810181811067ffffffffffffffff821117156137ed576137ec613796565b5b80604052505050565b60006138006134d9565b905061380c82826137c5565b919050565b600067ffffffffffffffff82111561382c5761382b613796565b5b61383582613697565b9050602081019050919050565b82818337600083830152505050565b600061386461385f84613811565b6137f6565b9050828152602081018484840111156138805761387f613791565b5b61388b848285613842565b509392505050565b600082601f8301126138a8576138a761378c565b5b81356138b8848260208601613851565b91505092915050565b600481106138ce57600080fd5b50565b6000813590506138e0816138c1565b92915050565b600381106138f357600080fd5b50565b600081359050613905816138e6565b92915050565b6010811061391857600080fd5b50565b60008135905061392a8161390b565b92915050565b600080600080600080600060e0888a03121561394f5761394e6134e3565b5b600061395d8a828b01613777565b975050602088013567ffffffffffffffff81111561397e5761397d6134e8565b5b61398a8a828b01613893565b965050604088013567ffffffffffffffff8111156139ab576139aa6134e8565b5b6139b78a828b01613893565b95505060606139c88a828b01613777565b94505060806139d98a828b016138d1565b93505060a06139ea8a828b016138f6565b92505060c06139fb8a828b0161391b565b91505092959891949750929550565b600073ffffffffffffffffffffffffffffffffffffffff82169050919050565b6000613a3582613a0a565b9050919050565b613a4581613a2a565b8114613a5057600080fd5b50565b600081359050613a6281613a3c565b92915050565b60008060408385031215613a7f57613a7e6134e3565b5b6000613a8d85828601613600565b9250506020613a9e85828601613a53565b9150509250929050565b613ab181613572565b8114613abc57600080fd5b50565b600081359050613ace81613aa8565b92915050565b600080600060608486031215613aed57613aec6134e3565b5b6000613afb86828701613600565b9350506020613b0c86828701613a53565b9250506040613b1d86828701613abf565b9150509250925092565b7f4e487b7100000000000000000000000000000000000000000000000000000000600052602160045260246000fd5b60048110613b6757613b66613b27565b5b50565b6000819050613b7882613b56565b919050565b6000613b8882613b6a565b9050919050565b613b9881613b7d565b82525050565b60038110613baf57613bae613b27565b5b50565b6000819050613bc082613b9e565b919050565b6000613bd082613bb2565b9050919050565b613be081613bc5565b82525050565b60108110613bf757613bf6613b27565b5b50565b6000819050613c0882613be6565b919050565b6000613c1882613bfa565b9050919050565b613c2881613c0d565b82525050565b613c3781613756565b82525050565b600061012082019050613c53600083018c613b8f565b613c60602083018b613bd7565b613c6d604083018a613c1f565b613c7a6060830189613c2e565b613c87608083018861357e565b613c9460a0830187613c2e565b613ca160c0830186613642565b613cae60e0830185613642565b613cbc610100830184613c2e565b9a9950505050505050505050565b600060208284031215613ce057613cdf6134e3565b5b6000613cee84828501613777565b91505092915050565b60008060408385031215613d0e57613d0d6134e3565b5b6000613d1c85828601613777565b9250506020613d2d85828601613777565b9150509250929050565b6000602082019050613d4c6000830184613c2e565b92915050565b7f4e487b7100000000000000000000000000000000000000000000000000000000600052602260045260246000fd5b60006002820490506001821680613d9957607f821691505b602082108103613dac57613dab613d52565b5b50919050565b7f43616c6c6572206973206e6f7420612063657274696669657200000000000000600082015250565b6000613de860198361365c565b9150613df382613db2565b602082019050919050565b60006020820190508181036000830152613e1781613ddb565b9050919050565b7f417070726563696174696f6e206973206e6f742076616c696400000000000000600082015250565b6000613e5460198361365c565b9150613e5f82613e1e565b602082019050919050565b60006020820190508181036000830152613e8381613e47565b9050919050565b7f446567726565206973206e6f742076616c696400000000000000000000000000600082015250565b6000613ec060138361365c565b9150613ecb82613e8a565b602082019050919050565b60006020820190508181036000830152613eef81613eb3565b9050919050565b7f50726f6772616d206973206e6f742076616c6964000000000000000000000000600082015250565b6000613f2c60148361365c565b9150613f3782613ef6565b602082019050919050565b60006020820190508181036000830152613f5b81613f1f565b9050919050565b6000819050919050565b613f7d613f7882613756565b613f62565b82525050565b600081905092915050565b7f4345525449465900000000000000000000000000000000000000000000000000600082015250565b6000613fc4600783613f83565b9150613fcf82613f8e565b600782019050919050565b60008160f81b9050919050565b6000613ff282613fda565b9050919050565b61400a61400582613b7d565b613fe7565b82525050565b61402161401c82613bc5565b613fe7565b82525050565b61403861403382613c0d565b613fe7565b82525050565b600061404a8287613f6c565b60208201915061405982613fb7565b91506140658286613ff9565b6001820191506140758285614010565b6001820191506140858284614027565b60018201915081905095945050505050565b60006140a38284613f6c565b60208201915081905092915050565b60006140be8284613ff9565b60018201915081905092915050565b60006140d98284614010565b60018201915081905092915050565b60006140f48284614027565b60018201915081905092915050565b7f4365727469667920000000000000000000000000000000000000000000000000815250565b600061413482613651565b61413e8185613f83565b935061414e81856020860161366d565b80840191505092915050565b7f2000000000000000000000000000000000000000000000000000000000000000815250565b600061418b82614103565b60088201915061419b8287614129565b91506141a68261415a565b6001820191506141b68286614129565b91506141c18261415a565b6001820191506141d18285614129565b91506141dc8261415a565b6001820191506141ec8284614129565b915081905095945050505050565b600063ffffffff82169050919050565b7f4e487b7100000000000000000000000000000000000000000000000000000000600052601160045260246000fd5b6000614244826141fa565b915061424f836141fa565b925082820261425d816141fa565b915080821461426f5761426e61420a565b5b5092915050565b60006142828284614129565b915081905092915050565b600081519050919050565b6000819050602082019050919050565b60006142b482516135df565b80915050919050565b600082821b905092915050565b60006142d58261428d565b826142df84614298565b90506142ea816142a8565b9250602082101561432a576143257fffffffffffffffffffffffffffffffffffffffffffffffffffffffffffffffff836020036008026142bd565b831692505b5050919050565b7f596f752063616e27742072656e6f756e636520746f20796f757220726f6c652e60008201527f20506c6561736520636f6e746163742061646d696e7300000000000000000000602082015250565b600061438d60368361365c565b915061439882614331565b604082019050919050565b600060208201905081810360008301526143bc81614380565b9050919050565b6000819050919050565b6143de6143d9826135df565b6143c3565b82525050565b60006143f082846143cd565b60208201915081905092915050565b7f4d61782000000000000000000000000000000000000000000000000000000000815250565b7f2072656163686564000000000000000000000000000000000000000000000000815250565b6000614456826143ff565b6004820191506144668284614129565b915061447182614425565b60088201915081905092915050565b6000602082019050818103600083015261449a81846136a8565b905092915050565b7f43616c6c6572206973206e6f7420612000000000000000000000000000000000815250565b7f2061646d696e0000000000000000000000000000000000000000000000000000815250565b60006144f9826144a2565b6010820191506145098284614129565b9150614514826144c8565b60068201915081905092915050565b7f54686973206164647265737320697320616c7265616479206120000000000000815250565b600061455482614523565b601a820191506145648284614129565b915081905092915050565b60008160601b9050919050565b60006145878261456f565b9050919050565b60006145998261457c565b9050919050565b6145b16145ac82613a2a565b61458e565b82525050565b7f4752414e54000000000000000000000000000000000000000000000000000000600082015250565b60006145ed600583613f83565b91506145f8826145b7565b600582019050919050565b600061460f82856145a0565b60148201915061461e826145e0565b915061462a82846143cd565b6020820191508190509392505050565b600061464682846145a0565b60148201915081905092915050565b7f4772616e74200000000000000000000000000000000000000000000000000000815250565b600061468682614655565b6006820191506146968285614129565b91506146a18261415a565b6001820191506146b18284614129565b91508190509392505050565b60006146c8826141fa565b91506146d3836141fa565b9250828201905063ffffffff8111156146ef576146ee61420a565b5b92915050565b7f4e487b7100000000000000000000000000000000000000000000000000000000600052601260045260246000fd5b600061472f82613756565b915061473a83613756565b92508261474a576147496146f5565b5b828206905092915050565b600061476082613756565b915061476b83613756565b92508261477b5761477a6146f5565b5b828204905092915050565b600061479182613756565b915061479c83613756565b92508282019050808211156147b4576147b361420a565b5b92915050565b7f4d696e2000000000000000000000000000000000000000000000000000000000815250565b60006147eb826147ba565b6004820191506147fb8284614129565b915061480682614425565b60088201915081905092915050565b7f546869732061646472657373206973206e6f7420612000000000000000000000815250565b600061484682614815565b6016820191506148568284614129565b915081905092915050565b7f5245564f4b450000000000000000000000000000000000000000000000000000600082015250565b6000614897600683613f83565b91506148a282614861565b600682019050919050565b60006148b982856145a0565b6014820191506148c88261488a565b91506148d482846143cd565b6020820191508190509392505050565b7f5265766f6b652000000000000000000000000000000000000000000000000000815250565b6000614915826148e4565b6007820191506149258285614129565b91506149308261415a565b6001820191506149408284614129565b91508190509392505050565b6000614957826141fa565b9150614962836141fa565b9250828203905063ffffffff81111561497e5761497d61420a565b5b92915050565b600061498f826135a8565b915061499a836135a8565b9250828203905060ff8111156149b3576149b261420a565b5b92915050565b60006149c482613756565b91507fffffffffffffffffffffffffffffffffffffffffffffffffffffffffffffffff82036149f6576149f561420a565b5b600182019050919050565b60008190508160005260206000209050919050565b60006020601f8301049050919050565b600060088302614a567fffffffffffffffffffffffffffffffffffffffffffffffffffffffffffffffff826142bd565b614a6086836142bd565b95508019841693508086168417925050509392505050565b6000819050919050565b6000614a9d614a98614a9384613756565b614a78565b613756565b9050919050565b6000819050919050565b614ab783614a82565b614acb614ac382614aa4565b848454614a26565b825550505050565b600090565b614ae0614ad3565b614aeb818484614aae565b505050565b5b81811015614b0f57614b04600082614ad8565b600181019050614af1565b5050565b601f821115614b5457614b2581614a01565b614b2e84614a16565b81016020851015614b3d578190505b614b51614b4985614a16565b830182614af0565b50505b505050565b600082821c905092915050565b6000614b7760001984600802614b59565b1980831691505092915050565b6000614b908383614b66565b9150826002028217905092915050565b614ba982613651565b67ffffffffffffffff811115614bc257614bc1613796565b5b614bcc8254613d81565b614bd7828285614b13565b600060209050601f831160018114614c0a5760008415614bf8578287015190505b614c028582614b84565b865550614c6a565b601f198416614c1886614a01565b60005b82811015614c4057848901518255600182019150602085019450602081019050614c1b565b86831015614c5d5784890151614c59601f891682614b66565b8355505b6001600288020188555050505b505050505050565b7f596f7520616c7265616479207369676e65642074686973206d756c7469736967600082015250565b6000614ca860208361365c565b9150614cb382614c72565b602082019050919050565b60006020820190508181036000830152614cd781614c9b565b9050919050565b6000614ce9826135a8565b915060ff8203614cfc57614cfb61420a565b5b600182019050919050565b6000614d12826135a8565b9150614d1d836135a8565b9250828201905060ff811115614d3657614d3561420a565b5b92915050565b6000614d488287613f6c565b602082019150614d588286613ff9565b600182019150614d688285614010565b600182019150614d788284614027565b60018201915081905095945050505050565b6000608082019050614d9f6000830187613c2e565b614dac6020830186613b8f565b614db96040830185613bd7565b614dc66060830184613c1f565b95945050505050565b7f596f752068617665206e6f7465207369676e65642074686973206d756c74697360008201527f6967207965740000000000000000000000000000000000000000000000000000602082015250565b6000614e2b60268361365c565b9150614e3682614dcf565b604082019050919050565b60006020820190508181036000830152614e5a81614e1e565b9050919050565b7f416363657373436f6e74726f6c3a206163636f756e7420000000000000000000600082015250565b6000614e97601783613f83565b9150614ea282614e61565b601782019050919050565b7f206973206d697373696e6720726f6c6520000000000000000000000000000000600082015250565b6000614ee3601183613f83565b9150614eee82614ead565b601182019050919050565b6000614f0482614e8a565b9150614f108285614129565b9150614f1b82614ed6565b9150614f278284614129565b91508190509392505050565b6000614f3e82613756565b9150614f4983613756565b9250828202614f5781613756565b91508282048414831517614f6e57614f6d61420a565b5b5092915050565b7f4e487b7100000000000000000000000000000000000000000000000000000000600052603260045260246000fd5b6000614faf82613756565b915060008203614fc257614fc161420a565b5b600182039050919050565b7f537472696e67733a20686578206c656e67746820696e73756666696369656e74600082015250565b600061500360208361365c565b915061500e82614fcd565b602082019050919050565b6000602082019050818103600083015261503281614ff6565b905091905056fea264697066735822122050975a10dfe2e85bc2a1e63ae6e65ad7f75e2ab3f121a140344e228c78ecb37a64736f6c63430008130033",
  "linkReferences": {},
  "deployedLinkReferences": {}
}