{
  "_format": "hh-sol-artifact-1",
  "contractName": "Certifications",
  "sourceName": "contracts/Certifications.sol",
  "abi": [
    {
      "inputs": [
        {
          "internalType": "address",
          "name": "certifier_admin1",
          "type": "address"
        },
        {
          "internalType": "address",
          "name": "certifier_admin2",
          "type": "address"
        }
      ],
      "stateMutability": "nonpayable",
      "type": "constructor"
    },
    {
      "anonymous": false,
      "inputs": [
        {
          "indexed": true,
          "internalType": "bytes32",
          "name": "role",
          "type": "bytes32"
        },
        {
          "indexed": true,
          "internalType": "bytes32",
          "name": "previousAdminRole",
          "type": "bytes32"
        },
        {
          "indexed": true,
          "internalType": "bytes32",
          "name": "newAdminRole",
          "type": "bytes32"
        }
      ],
      "name": "RoleAdminChanged",
      "type": "event"
    },
    {
      "anonymous": false,
      "inputs": [
        {
          "indexed": true,
          "internalType": "bytes32",
          "name": "role",
          "type": "bytes32"
        },
        {
          "indexed": true,
          "internalType": "address",
          "name": "account",
          "type": "address"
        },
        {
          "indexed": true,
          "internalType": "address",
          "name": "sender",
          "type": "address"
        }
      ],
      "name": "RoleGranted",
      "type": "event"
    },
    {
      "anonymous": false,
      "inputs": [
        {
          "indexed": true,
          "internalType": "bytes32",
          "name": "role",
          "type": "bytes32"
        },
        {
          "indexed": true,
          "internalType": "address",
          "name": "account",
          "type": "address"
        },
        {
          "indexed": true,
          "internalType": "address",
          "name": "sender",
          "type": "address"
        }
      ],
      "name": "RoleRevoked",
      "type": "event"
    },
    {
      "anonymous": false,
      "inputs": [
        {
          "indexed": false,
          "internalType": "uint256",
          "name": "id",
          "type": "uint256"
        },
        {
          "indexed": false,
          "internalType": "string",
          "name": "firstname",
          "type": "string"
        },
        {
          "indexed": false,
          "internalType": "string",
          "name": "lastname",
          "type": "string"
        },
        {
          "indexed": false,
          "internalType": "uint256",
          "name": "birthdate",
          "type": "uint256"
        }
      ],
      "name": "StudentAdded",
      "type": "event"
    },
    {
      "anonymous": false,
      "inputs": [
        {
          "indexed": false,
          "internalType": "uint256",
          "name": "id",
          "type": "uint256"
        }
      ],
      "name": "StudentDeleted",
      "type": "event"
    },
    {
      "anonymous": false,
      "inputs": [
        {
          "indexed": false,
          "internalType": "uint256",
          "name": "id",
          "type": "uint256"
        },
        {
          "indexed": false,
          "internalType": "string",
          "name": "firstname",
          "type": "string"
        },
        {
          "indexed": false,
          "internalType": "string",
          "name": "lastname",
          "type": "string"
        },
        {
          "indexed": false,
          "internalType": "uint256",
          "name": "birthdate",
          "type": "uint256"
        }
      ],
      "name": "StudentEdited",
      "type": "event"
    },
    {
      "anonymous": false,
      "inputs": [
        {
          "indexed": false,
          "internalType": "uint256",
          "name": "studentId",
          "type": "uint256"
        },
        {
          "indexed": false,
          "internalType": "enum Certifications.appreciation",
          "name": "appreciation",
          "type": "uint8"
        },
        {
          "indexed": false,
          "internalType": "enum Certifications.degree",
          "name": "degree",
          "type": "uint8"
        },
        {
          "indexed": false,
          "internalType": "enum Certifications.program",
          "name": "program",
          "type": "uint8"
        }
      ],
      "name": "certificationEmited",
      "type": "event"
    },
    {
      "anonymous": false,
      "inputs": [
        {
          "indexed": false,
          "internalType": "bytes32",
          "name": "multiSigName",
          "type": "bytes32"
        }
      ],
      "name": "multiSigCleared",
      "type": "event"
    },
    {
      "anonymous": false,
      "inputs": [
        {
          "indexed": false,
          "internalType": "bytes32",
          "name": "multiSigName",
          "type": "bytes32"
        }
      ],
      "name": "multiSigSigned",
      "type": "event"
    },
    {
      "inputs": [],
      "name": "CERTIFIER",
      "outputs": [
        {
          "internalType": "bytes32",
          "name": "",
          "type": "bytes32"
        }
      ],
      "stateMutability": "view",
      "type": "function"
    },
    {
      "inputs": [],
      "name": "CERTIFIER_ADMIN",
      "outputs": [
        {
          "internalType": "bytes32",
          "name": "",
          "type": "bytes32"
        }
      ],
      "stateMutability": "view",
      "type": "function"
    },
    {
      "inputs": [],
      "name": "DEFAULT_ADMIN_ROLE",
      "outputs": [
        {
          "internalType": "bytes32",
          "name": "",
          "type": "bytes32"
        }
      ],
      "stateMutability": "view",
      "type": "function"
    },
    {
      "inputs": [],
      "name": "MAX_CERTIFIERS",
      "outputs": [
        {
          "internalType": "uint8",
          "name": "",
          "type": "uint8"
        }
      ],
      "stateMutability": "view",
      "type": "function"
    },
    {
      "inputs": [],
      "name": "MAX_CERTIFIERS_ADMIN",
      "outputs": [
        {
          "internalType": "uint8",
          "name": "",
          "type": "uint8"
        }
      ],
      "stateMutability": "view",
      "type": "function"
    },
    {
      "inputs": [],
      "name": "MIN_CERTIFIERS_ADMIN",
      "outputs": [
        {
          "internalType": "uint8",
          "name": "",
          "type": "uint8"
        }
      ],
      "stateMutability": "view",
      "type": "function"
    },
    {
      "inputs": [],
      "name": "PERCENT_TO_CERTIFY",
      "outputs": [
        {
          "internalType": "uint8",
          "name": "",
          "type": "uint8"
        }
      ],
      "stateMutability": "view",
      "type": "function"
    },
    {
      "inputs": [],
      "name": "PERCENT_TO_DELETE_STUDENT",
      "outputs": [
        {
          "internalType": "uint8",
          "name": "",
          "type": "uint8"
        }
      ],
      "stateMutability": "view",
      "type": "function"
    },
    {
      "inputs": [],
      "name": "PERCENT_TO_EDIT_CERTIFICATE",
      "outputs": [
        {
          "internalType": "uint8",
          "name": "",
          "type": "uint8"
        }
      ],
      "stateMutability": "view",
      "type": "function"
    },
    {
      "inputs": [],
      "name": "PERCENT_TO_GRANT_CERTIFIER",
      "outputs": [
        {
          "internalType": "uint8",
          "name": "",
          "type": "uint8"
        }
      ],
      "stateMutability": "view",
      "type": "function"
    },
    {
      "inputs": [],
      "name": "PERCENT_TO_GRANT_CERTIFIER_ADMIN",
      "outputs": [
        {
          "internalType": "uint8",
          "name": "",
          "type": "uint8"
        }
      ],
      "stateMutability": "view",
      "type": "function"
    },
    {
      "inputs": [],
      "name": "PERCENT_TO_REVOKE_CERTIFIER",
      "outputs": [
        {
          "internalType": "uint8",
          "name": "",
          "type": "uint8"
        }
      ],
      "stateMutability": "view",
      "type": "function"
    },
    {
      "inputs": [],
      "name": "PERCENT_TO_REVOKE_CERTIFIER_ADMIN",
      "outputs": [
        {
          "internalType": "uint8",
          "name": "",
          "type": "uint8"
        }
      ],
      "stateMutability": "view",
      "type": "function"
    },
    {
      "inputs": [
        {
          "internalType": "uint256",
          "name": "a",
          "type": "uint256"
        },
        {
          "internalType": "uint256",
          "name": "b",
          "type": "uint256"
        }
      ],
      "name": "ceilUDiv",
      "outputs": [
        {
          "internalType": "uint256",
          "name": "",
          "type": "uint256"
        }
      ],
      "stateMutability": "pure",
      "type": "function"
    },
    {
      "inputs": [
        {
          "internalType": "bytes32",
          "name": "",
          "type": "bytes32"
        }
      ],
      "name": "certificates",
      "outputs": [
        {
          "internalType": "enum Certifications.appreciation",
          "name": "appreciation",
          "type": "uint8"
        },
        {
          "internalType": "enum Certifications.degree",
          "name": "degree",
          "type": "uint8"
        },
        {
          "internalType": "enum Certifications.program",
          "name": "program",
          "type": "uint8"
        },
        {
          "internalType": "uint256",
          "name": "creation_date",
          "type": "uint256"
        },
        {
          "internalType": "bool",
          "name": "validity",
          "type": "bool"
        },
        {
          "internalType": "uint256",
          "name": "stud_id",
          "type": "uint256"
        }
      ],
      "stateMutability": "view",
      "type": "function"
    },
    {
      "inputs": [
        {
          "internalType": "uint256",
          "name": "",
          "type": "uint256"
        },
        {
          "internalType": "uint256",
          "name": "",
          "type": "uint256"
        }
      ],
      "name": "certificatesByStudent",
      "outputs": [
        {
          "internalType": "bytes32",
          "name": "",
          "type": "bytes32"
        }
      ],
      "stateMutability": "view",
      "type": "function"
    },
    {
      "inputs": [
        {
          "internalType": "uint256",
          "name": "studentId",
          "type": "uint256"
        },
        {
          "internalType": "enum Certifications.appreciation",
          "name": "app",
          "type": "uint8"
        },
        {
          "internalType": "enum Certifications.degree",
          "name": "deg",
          "type": "uint8"
        },
        {
          "internalType": "enum Certifications.program",
          "name": "prog",
          "type": "uint8"
        },
        {
          "internalType": "bool",
          "name": "approve",
          "type": "bool"
        }
      ],
      "name": "certify",
      "outputs": [],
      "stateMutability": "nonpayable",
      "type": "function"
    },
    {
      "inputs": [
        {
          "internalType": "uint256",
          "name": "_id",
          "type": "uint256"
        },
        {
          "internalType": "string",
          "name": "_firstname",
          "type": "string"
        },
        {
          "internalType": "string",
          "name": "_lastname",
          "type": "string"
        },
        {
          "internalType": "uint256",
          "name": "_birthdate",
          "type": "uint256"
        }
      ],
      "name": "createStudent",
      "outputs": [],
      "stateMutability": "nonpayable",
      "type": "function"
    },
    {
      "inputs": [
        {
          "internalType": "uint256",
          "name": "studentId",
          "type": "uint256"
        },
        {
          "internalType": "enum Certifications.appreciation",
          "name": "app",
          "type": "uint8"
        },
        {
          "internalType": "enum Certifications.degree",
          "name": "deg",
          "type": "uint8"
        },
        {
          "internalType": "enum Certifications.program",
          "name": "prog",
          "type": "uint8"
        },
        {
          "internalType": "bool",
          "name": "approve",
          "type": "bool"
        }
      ],
      "name": "deleteCertificate",
      "outputs": [],
      "stateMutability": "nonpayable",
      "type": "function"
    },
    {
      "inputs": [
        {
          "internalType": "uint256",
          "name": "_id",
          "type": "uint256"
        },
        {
          "internalType": "string",
          "name": "_firstname",
          "type": "string"
        },
        {
          "internalType": "string",
          "name": "_lastname",
          "type": "string"
        },
        {
          "internalType": "uint256",
          "name": "_birthdate",
          "type": "uint256"
        }
      ],
      "name": "editStudentById",
      "outputs": [],
      "stateMutability": "nonpayable",
      "type": "function"
    },
    {
      "inputs": [
        {
          "internalType": "uint256",
          "name": "_id",
          "type": "uint256"
        }
      ],
      "name": "getCertificatesByStudent",
      "outputs": [
        {
          "internalType": "bytes32[]",
          "name": "",
          "type": "bytes32[]"
        }
      ],
      "stateMutability": "view",
      "type": "function"
    },
    {
      "inputs": [
        {
          "internalType": "bytes32",
          "name": "role",
          "type": "bytes32"
        }
      ],
      "name": "getRoleAdmin",
      "outputs": [
        {
          "internalType": "bytes32",
          "name": "",
          "type": "bytes32"
        }
      ],
      "stateMutability": "view",
      "type": "function"
    },
    {
      "inputs": [
        {
          "internalType": "uint256",
          "name": "_id",
          "type": "uint256"
        }
      ],
      "name": "getStudent",
      "outputs": [
        {
          "components": [
            {
              "internalType": "uint256",
              "name": "id",
              "type": "uint256"
            },
            {
              "internalType": "string",
              "name": "firstname",
              "type": "string"
            },
            {
              "internalType": "string",
              "name": "lastname",
              "type": "string"
            },
            {
              "internalType": "uint256",
              "name": "birthdate",
              "type": "uint256"
            }
          ],
          "internalType": "struct Students.Student",
          "name": "",
          "type": "tuple"
        }
      ],
      "stateMutability": "view",
      "type": "function"
    },
    {
      "inputs": [
        {
          "internalType": "bytes32",
          "name": "roleHash",
          "type": "bytes32"
        },
        {
          "internalType": "address",
          "name": "target",
          "type": "address"
        },
        {
          "internalType": "bool",
          "name": "approve",
          "type": "bool"
        }
      ],
      "name": "grantAnyRole",
      "outputs": [],
      "stateMutability": "nonpayable",
      "type": "function"
    },
    {
      "inputs": [
        {
          "internalType": "bytes32",
          "name": "role",
          "type": "bytes32"
        },
        {
          "internalType": "address",
          "name": "account",
          "type": "address"
        }
      ],
      "name": "grantRole",
      "outputs": [],
      "stateMutability": "nonpayable",
      "type": "function"
    },
    {
      "inputs": [
        {
          "internalType": "bytes32",
          "name": "role",
          "type": "bytes32"
        },
        {
          "internalType": "address",
          "name": "account",
          "type": "address"
        }
      ],
      "name": "hasRole",
      "outputs": [
        {
          "internalType": "bool",
          "name": "",
          "type": "bool"
        }
      ],
      "stateMutability": "view",
      "type": "function"
    },
    {
      "inputs": [
        {
          "internalType": "bytes32",
          "name": "",
          "type": "bytes32"
        }
      ],
      "name": "multiSig",
      "outputs": [
        {
          "internalType": "bool",
          "name": "created",
          "type": "bool"
        },
        {
          "internalType": "bytes32",
          "name": "role",
          "type": "bytes32"
        },
        {
          "internalType": "uint8",
          "name": "count",
          "type": "uint8"
        },
        {
          "internalType": "uint8",
          "name": "id",
          "type": "uint8"
        },
        {
          "internalType": "string",
          "name": "info",
          "type": "string"
        }
      ],
      "stateMutability": "view",
      "type": "function"
    },
    {
      "inputs": [
        {
          "internalType": "uint256",
          "name": "",
          "type": "uint256"
        }
      ],
      "name": "multiSigId",
      "outputs": [
        {
          "internalType": "bytes32",
          "name": "",
          "type": "bytes32"
        }
      ],
      "stateMutability": "view",
      "type": "function"
    },
    {
      "inputs": [
        {
          "internalType": "uint256",
          "name": "_id",
          "type": "uint256"
        },
        {
          "internalType": "bool",
          "name": "_approve",
          "type": "bool"
        }
      ],
      "name": "removeStudentById",
      "outputs": [],
      "stateMutability": "nonpayable",
      "type": "function"
    },
    {
      "inputs": [
        {
          "internalType": "bytes32",
          "name": "",
          "type": "bytes32"
        },
        {
          "internalType": "address",
          "name": "",
          "type": "address"
        }
      ],
      "name": "renounceRole",
      "outputs": [],
      "stateMutability": "nonpayable",
      "type": "function"
    },
    {
      "inputs": [
        {
          "internalType": "bytes32",
          "name": "roleHash",
          "type": "bytes32"
        },
        {
          "internalType": "address",
          "name": "target",
          "type": "address"
        },
        {
          "internalType": "bool",
          "name": "approve",
          "type": "bool"
        }
      ],
      "name": "revokeAnyRole",
      "outputs": [],
      "stateMutability": "nonpayable",
      "type": "function"
    },
    {
      "inputs": [
        {
          "internalType": "bytes32",
          "name": "role",
          "type": "bytes32"
        },
        {
          "internalType": "address",
          "name": "account",
          "type": "address"
        }
      ],
      "name": "revokeRole",
      "outputs": [],
      "stateMutability": "nonpayable",
      "type": "function"
    },
    {
      "inputs": [
        {
          "internalType": "uint256",
          "name": "",
          "type": "uint256"
        }
      ],
      "name": "students",
      "outputs": [
        {
          "internalType": "uint256",
          "name": "id",
          "type": "uint256"
        },
        {
          "internalType": "string",
          "name": "firstname",
          "type": "string"
        },
        {
          "internalType": "string",
          "name": "lastname",
          "type": "string"
        },
        {
          "internalType": "uint256",
          "name": "birthdate",
          "type": "uint256"
        }
      ],
      "stateMutability": "view",
      "type": "function"
    },
    {
      "inputs": [
        {
          "internalType": "uint256",
          "name": "",
          "type": "uint256"
        }
      ],
      "name": "studentsIds",
      "outputs": [
        {
          "internalType": "uint256",
          "name": "",
          "type": "uint256"
        }
      ],
      "stateMutability": "view",
      "type": "function"
    },
    {
      "inputs": [
        {
          "internalType": "bytes4",
          "name": "interfaceId",
          "type": "bytes4"
        }
      ],
      "name": "supportsInterface",
      "outputs": [
        {
          "internalType": "bool",
          "name": "",
          "type": "bool"
        }
      ],
      "stateMutability": "view",
      "type": "function"
    }
  ],
  "bytecode": "0x60806040523480156200001157600080fd5b50604051620092dd380380620092dd83398181016040528101906200003791906200099c565b6200005367bce0c7533c9a630d60c01b620007b660201b60201c565b6200006f67da93c48fa161e79d60c01b620007b660201b60201c565b6200008b6796048d7fd2d928c860c01b620007b660201b60201c565b620000a7675f1c668ee669ab0b60c01b620007b660201b60201c565b600073ffffffffffffffffffffffffffffffffffffffff168273ffffffffffffffffffffffffffffffffffffffff160362000119576040517f08c379a0000000000000000000000000000000000000000000000000000000008152600401620001109062000a6a565b60405180910390fd5b6200013567928b579f6f77d60a60c01b620007b660201b60201c565b62000151671eafb37a2fea50c360c01b620007b660201b60201c565b6200016d671c760441a51f00fe60c01b620007b660201b60201c565b6200018967019381ea2a143a2660c01b620007b660201b60201c565b600073ffffffffffffffffffffffffffffffffffffffff168173ffffffffffffffffffffffffffffffffffffffff1603620001fb576040517f08c379a0000000000000000000000000000000000000000000000000000000008152600401620001f29062000b02565b60405180910390fd5b6200021767bf6825f8b726169f60c01b620007b660201b60201c565b62000233674346da88ac06a84360c01b620007b660201b60201c565b6200024f6739aba34486adf0da60c01b620007b660201b60201c565b6200026b670a6059053a04f96460c01b620007b660201b60201c565b8073ffffffffffffffffffffffffffffffffffffffff168273ffffffffffffffffffffffffffffffffffffffff1603620002dc576040517f08c379a0000000000000000000000000000000000000000000000000000000008152600401620002d39062000b9a565b60405180910390fd5b620002f867ae953caa734ab3b060c01b620007b660201b60201c565b6200031467f5900fc41a1b03e060c01b620007b660201b60201c565b62000330678f048ba93c318bdf60c01b620007b660201b60201c565b620003627f4bbeb6fd3e5222e55f2f8b0c35bc228e0a06a25d0da772fdb02c3b92fa004f8883620007b960201b60201c565b6200037e67eabba9f8cd63b62060c01b620007b660201b60201c565b6200039a67a6b100261d7ca0a160c01b620007b660201b60201c565b620003cc7f4bbeb6fd3e5222e55f2f8b0c35bc228e0a06a25d0da772fdb02c3b92fa004f8882620007cf60201b60201c565b620003e8677c8571a546cd703b60c01b620007b660201b60201c565b6040518060e00160405280600263ffffffff168152602001600260ff1663ffffffff168152602001600f60ff1663ffffffff168152602001605060ff168152602001605060ff1681526020017f4bbeb6fd3e5222e55f2f8b0c35bc228e0a06a25d0da772fdb02c3b92fa004f8881526020016040516020016200046b9062000c17565b604051602081830303815290604052620004859062000c77565b815250600360007f4bbeb6fd3e5222e55f2f8b0c35bc228e0a06a25d0da772fdb02c3b92fa004f88815260200190815260200160002060008201518160000160006101000a81548163ffffffff021916908363ffffffff16021790555060208201518160000160046101000a81548163ffffffff021916908363ffffffff16021790555060408201518160000160086101000a81548163ffffffff021916908363ffffffff160217905550606082015181600001600c6101000a81548160ff021916908360ff160217905550608082015181600001600d6101000a81548160ff021916908360ff16021790555060a0820151816001015560c08201518160020155905050620005a5676174d0f42c37649a60c01b620007b660201b60201c565b620005c1672212cda1dcb9ea1260c01b620007b660201b60201c565b620005f47fd646ae07eb0d0f77457502a65e7407930dff4cd4fd99abc6aac87a753f4c8a426000620007b960201b60201c565b6200061067a83a11a74eb277ae60c01b620007b660201b60201c565b6040518060e00160405280600063ffffffff168152602001600063ffffffff168152602001600f60ff1663ffffffff168152602001605060ff168152602001605060ff1681526020017f4bbeb6fd3e5222e55f2f8b0c35bc228e0a06a25d0da772fdb02c3b92fa004f888152602001604051602001620006909062000d37565b604051602081830303815290604052620006aa9062000c77565b815250600360007fd646ae07eb0d0f77457502a65e7407930dff4cd4fd99abc6aac87a753f4c8a42815260200190815260200160002060008201518160000160006101000a81548163ffffffff021916908363ffffffff16021790555060208201518160000160046101000a81548163ffffffff021916908363ffffffff16021790555060408201518160000160086101000a81548163ffffffff021916908363ffffffff160217905550606082015181600001600c6101000a81548160ff021916908360ff160217905550608082015181600001600d6101000a81548160ff021916908360ff16021790555060a0820151816001015560c08201518160020155905050505062000d4e565b50565b620007cb8282620007cf60201b60201c565b5050565b620007e18282620008c060201b60201c565b620008bc57600160008084815260200190815260200160002060000160008373ffffffffffffffffffffffffffffffffffffffff1673ffffffffffffffffffffffffffffffffffffffff16815260200190815260200160002060006101000a81548160ff021916908315150217905550620008616200092a60201b60201c565b73ffffffffffffffffffffffffffffffffffffffff168173ffffffffffffffffffffffffffffffffffffffff16837f2f8788117e7eff1d82e926ec794901d17c78024a50270940304540a733656f0d60405160405180910390a45b5050565b600080600084815260200190815260200160002060000160008373ffffffffffffffffffffffffffffffffffffffff1673ffffffffffffffffffffffffffffffffffffffff16815260200190815260200160002060009054906101000a900460ff16905092915050565b600033905090565b600080fd5b600073ffffffffffffffffffffffffffffffffffffffff82169050919050565b6000620009648262000937565b9050919050565b620009768162000957565b81146200098257600080fd5b50565b60008151905062000996816200096b565b92915050565b60008060408385031215620009b657620009b562000932565b5b6000620009c68582860162000985565b9250506020620009d98582860162000985565b9150509250929050565b600082825260208201905092915050565b7f4365727469666965722061646d696e3120616464726573732063616e6e6f742060008201527f6265203000000000000000000000000000000000000000000000000000000000602082015250565b600062000a52602483620009e3565b915062000a5f82620009f4565b604082019050919050565b6000602082019050818103600083015262000a858162000a43565b9050919050565b7f4365727469666965722061646d696e3220616464726573732063616e6e6f742060008201527f6265203000000000000000000000000000000000000000000000000000000000602082015250565b600062000aea602483620009e3565b915062000af78262000a8c565b604082019050919050565b6000602082019050818103600083015262000b1d8162000adb565b9050919050565b7f436572746966696572206164647265737365732063616e6e6f7420626520746860008201527f652073616d650000000000000000000000000000000000000000000000000000602082015250565b600062000b82602683620009e3565b915062000b8f8262000b24565b604082019050919050565b6000602082019050818103600083015262000bb58162000b73565b9050919050565b600081905092915050565b7f4345525449464945525f41444d494e0000000000000000000000000000000000600082015250565b600062000bff600f8362000bbc565b915062000c0c8262000bc7565b600f82019050919050565b600062000c248262000bf0565b9150819050919050565b600081519050919050565b6000819050602082019050919050565b6000819050919050565b600062000c61825162000c49565b80915050919050565b600082821b905092915050565b600062000c848262000c2e565b8262000c908462000c39565b905062000c9d8162000c53565b9250602082101562000ce05762000cdb7fffffffffffffffffffffffffffffffffffffffffffffffffffffffffffffffff8360200360080262000c6a565b831692505b5050919050565b7f4345525449464945520000000000000000000000000000000000000000000000600082015250565b600062000d1f60098362000bbc565b915062000d2c8262000ce7565b600982019050919050565b600062000d448262000d10565b9150819050919050565b61857f8062000d5e6000396000f3fe608060405234801561001057600080fd5b50600436106102115760003560e01c8063742f068811610125578063b86bc74f116100ad578063d3243ad81161007c578063d3243ad81461064a578063d547741f14610666578063df3a12dd14610682578063e05f2fb4146106b2578063e5a357f5146106d057610211565b8063b86bc74f146105c2578063bf802091146105e0578063c9dbcfda14610610578063d0fb68c71461062c57610211565b80639dd09a73116100f45780639dd09a731461051e5780639e3399091461054e578063a1cebf521461056c578063a217fddf14610588578063ace81910146105a657610211565b8063742f06881461047f5780637cd29fb7146104b45780638856a0e9146104d257806391d14854146104ee57610211565b80632f2ff15d116101a85780634da11a20116101775780634da11a20146103d95780635907ebea146103f7578063642f9163146104155780636bc6421b14610445578063719129be1461046357610211565b80632f2ff15d1461035357806333b72e491461036f57806336568abe1461038d5780634cce913b146103a957610211565b80631a968069116101e45780631a968069146102b35780631a9cfe28146102e7578063248a9ca3146103055780632cd94e4f1461033557610211565b806301ffc9a71461021657806305f84d451461024657806306ead22e146102625780630f68794a14610295575b600080fd5b610230600480360381019061022b9190616098565b610700565b60405161023d91906160e0565b60405180910390f35b610260600480360381019061025b919061615d565b61077a565b005b61027c6004803603810190610277919061619d565b610e87565b60405161028c9493929190616269565b60405180910390f35b61029d610fc7565b6040516102aa91906162d8565b60405180910390f35b6102cd60048036038101906102c89190616329565b610fcc565b6040516102de959493929190616365565b60405180910390f35b6102ef6110b1565b6040516102fc91906162d8565b60405180910390f35b61031f600480360381019061031a9190616329565b6110b6565b60405161032c91906163bf565b60405180910390f35b61033d6110d5565b60405161034a91906162d8565b60405180910390f35b61036d60048036038101906103689190616438565b6110da565b005b6103776110fb565b60405161038491906162d8565b60405180910390f35b6103a760048036038101906103a29190616438565b611100565b005b6103c360048036038101906103be9190616478565b611177565b6040516103d091906163bf565b60405180910390f35b6103e16111a8565b6040516103ee91906162d8565b60405180910390f35b6103ff6111ad565b60405161040c91906162d8565b60405180910390f35b61042f600480360381019061042a919061619d565b6111b2565b60405161043c919061657b565b60405180910390f35b61044d6113fc565b60405161045a91906162d8565b60405180910390f35b61047d6004803603810190610478919061659d565b611401565b005b61049960048036038101906104949190616329565b611c85565b6040516104ab969594939291906166f7565b60405180910390f35b6104bc611cf5565b6040516104c991906162d8565b60405180910390f35b6104ec60048036038101906104e791906167c7565b611cfa565b005b61050860048036038101906105039190616438565b6127bc565b60405161051591906160e0565b60405180910390f35b6105386004803603810190610533919061619d565b612826565b60405161054591906163bf565b60405180910390f35b61055661283e565b60405161056391906162d8565b60405180910390f35b61058660048036038101906105819190616977565b612843565b005b610590612c41565b60405161059d91906163bf565b60405180910390f35b6105c060048036038101906105bb91906167c7565b612c48565b005b6105ca6136cf565b6040516105d791906163bf565b60405180910390f35b6105fa60048036038101906105f59190616478565b6136f3565b6040516106079190616a16565b60405180910390f35b61062a60048036038101906106259190616977565b6137f0565b005b610634613a33565b60405161064191906162d8565b60405180910390f35b610664600480360381019061065f919061659d565b613a38565b005b610680600480360381019061067b9190616438565b6145fc565b005b61069c6004803603810190610697919061619d565b61461d565b6040516106a99190616a16565b60405180910390f35b6106ba614641565b6040516106c791906163bf565b60405180910390f35b6106ea60048036038101906106e5919061619d565b614665565b6040516106f79190616aef565b60405180910390f35b60007f7965db0b000000000000000000000000000000000000000000000000000000007bffffffffffffffffffffffffffffffffffffffffffffffffffffffff1916827bffffffffffffffffffffffffffffffffffffffffffffffffffffffff191614806107735750610772826147b5565b5b9050919050565b61078e677c7927e4b5bd48f460c01b61481f565b6107a267a4ebbaf8faac82d260c01b61481f565b6107b66797b47e77a9a7b3fc60c01b61481f565b6107ca67758438fa606727d960c01b61481f565b6107f47fd646ae07eb0d0f77457502a65e7407930dff4cd4fd99abc6aac87a753f4c8a42336127bc565b610833576040517f08c379a000000000000000000000000000000000000000000000000000000000815260040161082a90616b5d565b60405180910390fd5b61084767589e0c39053cad2660c01b61481f565b61085b6759de4f2a505f6c6d60c01b61481f565b61086f676d4a2d08a14ea23160c01b61481f565b61088367c3b37424d9c469d060c01b61481f565b600082116108c6576040517f08c379a00000000000000000000000000000000000000000000000000000000081526004016108bd90616bc9565b60405180910390fd5b6108da67740ce2464856c2b360c01b61481f565b6108ee676ae93f6bf114c2f760c01b61481f565b610902677a7ed0c4e584401460c01b61481f565b6109166745d4f9869d13660b60c01b61481f565b600060016000848152602001908152602001600020600001540361096f576040517f08c379a000000000000000000000000000000000000000000000000000000000815260040161096690616c35565b60405180910390fd5b610983671cbdd7add0b2dd5c60c01b61481f565b61099767f2a3b9ba0bc2281e60c01b61481f565b6109ab679859be0913bc1e1760c01b61481f565b6000826040516020016109be9190616ccd565b6040516020818303038152906040528051906020012090506109ea678f5912fc196c66fb60c01b61481f565b6109fe67d451ad32aab430b860c01b61481f565b610a67817fd646ae07eb0d0f77457502a65e7407930dff4cd4fd99abc6aac87a753f4c8a4285604051602001610a349190616cf3565b604051602081830303815290604052604051602001610a539190616d65565b604051602081830303815290604052614822565b610a7b672f872260ec70aa8060c01b61481f565b610a8f67e28d98831e470a0e60c01b61481f565b818015610b005750600015156004600083815260200190815260200160002060030160003373ffffffffffffffffffffffffffffffffffffffff1673ffffffffffffffffffffffffffffffffffffffff16815260200190815260200160002060009054906101000a900460ff161515145b15610bc157610b196770e61a765dfb20aa60c01b61481f565b610b2d6768c3bd0af40a1b5d60c01b61481f565b610b41672bc4242ebebe428960c01b61481f565b610b5d60046000838152602001908152602001600020336149c6565b610b7167e87324c8c42b714760c01b61481f565b610b85672c4d7d6a241e4b8960c01b61481f565b7fb431a69783a2491a0c400ff16dab32cd442abf8fe5af63a526a7248d730192f881604051610bb491906163bf565b60405180910390a1610cc7565b610bd567f2f486595854747960c01b61481f565b610be9678e01888c80102d3760c01b61481f565b6000151582151503610cb157610c0967bc51f865c49130a860c01b61481f565b610c1d67f8b6ac0350413cde60c01b61481f565b610c31674f5571dc82a8340f60c01b61481f565b610c4d6004600083815260200190815260200160002033614c48565b610c6167df20ef43cd86120a60c01b61481f565b610c7567f9332553eceb56d860c01b61481f565b7fb431a69783a2491a0c400ff16dab32cd442abf8fe5af63a526a7248d730192f881604051610ca491906163bf565b60405180910390a1610cc6565b610cc5677d4cea3f8d4622d560c01b61481f565b5b5b610cdb67eb262170ab108a0360c01b61481f565b610cef67978f6ecc8f60681960c01b61481f565b610d55605060ff16600360007fd646ae07eb0d0f77457502a65e7407930dff4cd4fd99abc6aac87a753f4c8a42815260200190815260200160002060000160009054906101000a900463ffffffff16610d489190616dca565b63ffffffff1660646136f3565b6004600083815260200190815260200160002060020160009054906101000a900460ff1660ff1610610e6d57610d9567d61646692ed40d1060c01b61481f565b610da967281f41604962ef6360c01b61481f565b610dbd6701dc47e9dc7e2d4960c01b61481f565b610dd860046000838152602001908152602001600020614e00565b610dec67e00c6e3f0d9a678b60c01b61481f565b610e0067211496b55cb50cff60c01b61481f565b7f562618dbcf74b61ae5b0f229fe40ba6d5b6ae6b4248f8c89a870dda7c77135f681604051610e2f91906163bf565b60405180910390a1610e4b67fa27c246eee8a08b60c01b61481f565b610e5f67ba7a7d4f3ff1ed8260c01b61481f565b610e6883614f4d565b610e82565b610e816719a84e662ed6d2e460c01b61481f565b5b505050565b6001602052806000526040600020600091509050806000015490806001018054610eb090616e36565b80601f0160208091040260200160405190810160405280929190818152602001828054610edc90616e36565b8015610f295780601f10610efe57610100808354040283529160200191610f29565b820191906000526020600020905b815481529060010190602001808311610f0c57829003601f168201915b505050505090806002018054610f3e90616e36565b80601f0160208091040260200160405190810160405280929190818152602001828054610f6a90616e36565b8015610fb75780601f10610f8c57610100808354040283529160200191610fb7565b820191906000526020600020905b815481529060010190602001808311610f9a57829003601f168201915b5050505050908060030154905084565b605081565b60046020528060005260406000206000915090508060000160009054906101000a900460ff16908060010154908060020160009054906101000a900460ff16908060020160019054906101000a900460ff169080600501805461102e90616e36565b80601f016020809104026020016040519081016040528092919081815260200182805461105a90616e36565b80156110a75780601f1061107c576101008083540402835291602001916110a7565b820191906000526020600020905b81548152906001019060200180831161108a57829003601f168201915b5050505050905085565b605081565b6000806000838152602001908152602001600020600101549050919050565b605081565b6110e3826110b6565b6110ec8161512f565b6110f68383615143565b505050565b600281565b61111467515d414290ef63a760c01b61481f565b61112867408d4005470649cf60c01b61481f565b61113c679c54a3cc10a34a3d60c01b61481f565b6040517f08c379a000000000000000000000000000000000000000000000000000000000815260040161116e90616ed9565b60405180910390fd5b6008602052816000526040600020818154811061119357600080fd5b90600052602060002001600091509150505481565b605081565b600f81565b6111ba615fa7565b6111ce67cb790d03a7518f8360c01b615223565b6111e267b555f135a018a11560c01b615223565b6111f6674ae94c950c3986de60c01b615223565b61120a67f53eec60b023ab8f60c01b615223565b6000600160008481526020019081526020016000206000015403611263576040517f08c379a000000000000000000000000000000000000000000000000000000000815260040161125a90616f45565b60405180910390fd5b61127767b92caeff1e2c4e7160c01b615223565b61128b67a48a759f9639db6460c01b615223565b61129f67aed08070e6bcf4c660c01b615223565b60016000838152602001908152602001600020604051806080016040529081600082015481526020016001820180546112d790616e36565b80601f016020809104026020016040519081016040528092919081815260200182805461130390616e36565b80156113505780601f1061132557610100808354040283529160200191611350565b820191906000526020600020905b81548152906001019060200180831161133357829003601f168201915b5050505050815260200160028201805461136990616e36565b80601f016020809104026020016040519081016040528092919081815260200182805461139590616e36565b80156113e25780601f106113b7576101008083540402835291602001916113e2565b820191906000526020600020905b8154815290600101906020018083116113c557829003601f168201915b505050505081526020016003820154815250509050919050565b603381565b61141567d285a5263ec8e0f560c01b61481f565b6114296705e4cbcc73c151f360c01b61481f565b61143d6760f35a062167334760c01b61481f565b6000600360008581526020019081526020016000209050611468676596486d69562b7760c01b61481f565b61147c67acefc79e49d8d98e60c01b61481f565b611490670f1dd76d34c817f860c01b61481f565b8060000160009054906101000a900463ffffffff1663ffffffff168160000160089054906101000a900463ffffffff1663ffffffff161181600201546040516020016114dc9190616f86565b6040516020818303038152906040526040516020016114fb9190616fed565b6040516020818303038152906040529061154b576040517f08c379a00000000000000000000000000000000000000000000000000000000081526004016115429190617022565b60405180910390fd5b50611560676751378d318e7c4060c01b61481f565b611574674f87efa02c74e0f260c01b61481f565b61158867df9346bf5f7ff81560c01b61481f565b61159c6735dc9d0c045e8dea60c01b61481f565b6115aa8160010154336127bc565b81600201546040516020016115bf9190616f86565b6040516020818303038152906040526040516020016115de9190617090565b6040516020818303038152906040529061162e576040517f08c379a00000000000000000000000000000000000000000000000000000000081526004016116259190617022565b60405180910390fd5b5061164367b7dbf79ddba2cab760c01b61481f565b61165767825657e0d56be41860c01b61481f565b61166b67dad7eba3d5ea0fc560c01b61481f565b61167f673d21f2ecda879ac760c01b61481f565b6000151561168d85856127bc565b15151481600201546040516020016116a59190616f86565b6040516020818303038152906040526040516020016116c491906170eb565b60405160208183030381529060405290611714576040517f08c379a000000000000000000000000000000000000000000000000000000000815260040161170b9190617022565b60405180910390fd5b5061172967febe2105280dea4660c01b61481f565b61173d67198f1e6710f1936360c01b61481f565b6117516708fddfcc5363932f60c01b61481f565b600083856040516020016117669291906171a5565b60405160208183030381529060405280519060200120905061179267ee4a48e3db8a324560c01b61481f565b6117a66785550dfb5a2fa17e60c01b61481f565b61181881836001015484600201546040516020016117c49190616f86565b604051602081830303815290604052876040516020016117e491906171dc565b604051602081830303815290604052604051602001611804929190617243565b604051602081830303815290604052614822565b61182c67987f0dd0903d99a060c01b61481f565b6118406765417f529339629360c01b61481f565b8280156118b15750600015156004600083815260200190815260200160002060030160003373ffffffffffffffffffffffffffffffffffffffff1673ffffffffffffffffffffffffffffffffffffffff16815260200190815260200160002060009054906101000a900460ff161515145b15611972576118ca671a036548b9454efa60c01b61481f565b6118de678a81a5a89e7249f260c01b61481f565b6118f26704fadf5af7278b0460c01b61481f565b61190e60046000838152602001908152602001600020336149c6565b61192267a15a5378dc28021c60c01b61481f565b6119366721fc27606240057c60c01b61481f565b7fb431a69783a2491a0c400ff16dab32cd442abf8fe5af63a526a7248d730192f88160405161196591906163bf565b60405180910390a1611a78565b61198667e67f2367de48a39660c01b61481f565b61199a673bba1b125be8f21a60c01b61481f565b6000151583151503611a62576119ba67eb5bb2ac8e80d29b60c01b61481f565b6119ce6755ea1935824a5e1860c01b61481f565b6119e2672a12cac354a8e82360c01b61481f565b6119fe6004600083815260200190815260200160002033614c48565b611a126767ec4da59fbc86a160c01b61481f565b611a26676efdddf06ded552e60c01b61481f565b7fb431a69783a2491a0c400ff16dab32cd442abf8fe5af63a526a7248d730192f881604051611a5591906163bf565b60405180910390a1611a77565b611a76678f6d07b51abb6a2460c01b61481f565b5b5b611a8c67a14fb71ba5e7613f60c01b61481f565b611aa067df7dd5880412d4b960c01b61481f565b611afa82600001600c9054906101000a900460ff1660ff16600360008560010154815260200190815260200160002060000160009054906101000a900463ffffffff16611aed9190616dca565b63ffffffff1660646136f3565b6004600083815260200190815260200160002060020160009054906101000a900460ff1660ff1610611c6957611b3a675ff1c5fac858eec960c01b61481f565b611b4e67fe26844b548a837860c01b61481f565b611b626768a51f3c021201cb60c01b61481f565b611b7d60046000838152602001908152602001600020614e00565b611b9167a21e7ebe78774f9060c01b61481f565b611ba567cd288a479316cb8e60c01b61481f565b7f562618dbcf74b61ae5b0f229fe40ba6d5b6ae6b4248f8c89a870dda7c77135f681604051611bd491906163bf565b60405180910390a1611bf067e62655d9c0da73f460c01b61481f565b611c04675d17b8d48239367360c01b61481f565b611c0e8585615143565b611c2267a680bcc96564015d60c01b61481f565b60018260000160008282829054906101000a900463ffffffff16611c469190617285565b92506101000a81548163ffffffff021916908363ffffffff160217905550611c7e565b611c7d674108a0766fb3770f60c01b61481f565b5b5050505050565b60076020528060005260406000206000915090508060000160009054906101000a900460ff16908060000160019054906101000a900460ff16908060000160029054906101000a900460ff16908060010154908060020160009054906101000a900460ff16908060030154905086565b605081565b611d0e679baa3422236fc69f60c01b61481f565b611d2267c5044043363bb23760c01b61481f565b611d3667bfc6b0f370d7024960c01b61481f565b611d4a679ccb8433f30b7f6160c01b61481f565b611d747fd646ae07eb0d0f77457502a65e7407930dff4cd4fd99abc6aac87a753f4c8a42336127bc565b611db3576040517f08c379a0000000000000000000000000000000000000000000000000000000008152600401611daa90616b5d565b60405180910390fd5b611dc7670842a97201189b8b60c01b61481f565b611ddb67ca8d401c43f5f9d760c01b61481f565b611def67e22dcaa2865f121160c01b61481f565b611e03674aba95960958e73260c01b61481f565b6000600160008781526020019081526020016000206000015403611e5c576040517f08c379a0000000000000000000000000000000000000000000000000000000008152600401611e5390616c35565b60405180910390fd5b611e706730249e749f45b5e460c01b61481f565b611e8467374dfd98b823c8cf60c01b61481f565b611e986720270532058f02e560c01b61481f565b611eac679e04f1a5c5bda7df60c01b61481f565b60006003811115611ec057611ebf6165f0565b5b846003811115611ed357611ed26165f0565b5b10158015611f055750600380811115611eef57611eee6165f0565b5b846003811115611f0257611f016165f0565b5b11155b611f44576040517f08c379a0000000000000000000000000000000000000000000000000000000008152600401611f3b90617309565b60405180910390fd5b611f5867d618060faf473a2a60c01b61481f565b611f6c6759aacab69e3a1cf860c01b61481f565b611f80671f8604b2e035df8c60c01b61481f565b611f94674341521415b393ff60c01b61481f565b60006002811115611fa857611fa76165f0565b5b836002811115611fbb57611fba6165f0565b5b10158015611fed5750600280811115611fd757611fd66165f0565b5b836002811115611fea57611fe96165f0565b5b11155b61202c576040517f08c379a000000000000000000000000000000000000000000000000000000000815260040161202390617375565b60405180910390fd5b612040673abda3db58ee88d660c01b61481f565b61205467d0a65ecdfb35759e60c01b61481f565b61206867fecb9a5516d562ad60c01b61481f565b61207c6711522e4c80b8acf560c01b61481f565b6000600f8111156120905761208f6165f0565b5b82600f8111156120a3576120a26165f0565b5b101580156120d55750600f808111156120bf576120be6165f0565b5b82600f8111156120d2576120d16165f0565b5b11155b612114576040517f08c379a000000000000000000000000000000000000000000000000000000000815260040161210b906173e1565b60405180910390fd5b612128675a87c8131b0f347660c01b61481f565b61213c67b52e37c57f13f03660c01b61481f565b61215067c6bc374fa7feff0160c01b61481f565b6121646786ac1e62d24a349860c01b61481f565b6001151560076000878787876040516020016121839493929190617465565b60405160208183030381529060405280519060200120815260200190815260200160002060020160009054906101000a900460ff161515146121fa576040517f08c379a00000000000000000000000000000000000000000000000000000000081526004016121f1906174ff565b60405180910390fd5b61220e679e5c2cdd766b16de60c01b61481f565b6122226753aaaf9320fe18fd60c01b61481f565b61223667ab49e147b91272b360c01b61481f565b60008585858560405160200161224f949392919061756b565b60405160208183030381529060405280519060200120905061227b679ab8a363c1db47f760c01b61481f565b61228f67c80f0b231c338b2d60c01b61481f565b61235b817fd646ae07eb0d0f77457502a65e7407930dff4cd4fd99abc6aac87a753f4c8a42886040516020016122c59190616cf3565b604051602081830303815290604052886040516020016122e591906175c4565b6040516020818303038152906040528860405160200161230591906175df565b6040516020818303038152906040528860405160200161232591906175fa565b604051602081830303815290604052604051602001612347949392919061763b565b604051602081830303815290604052614822565b61236f675397bbbeef836ad860c01b61481f565b612383679b6d6670acbbe93360c01b61481f565b8180156123f45750600015156004600083815260200190815260200160002060030160003373ffffffffffffffffffffffffffffffffffffffff1673ffffffffffffffffffffffffffffffffffffffff16815260200190815260200160002060009054906101000a900460ff161515145b156124b55761240d678dba3cfcdd7ab4ab60c01b61481f565b612421672e1f532eb4156eb560c01b61481f565b61243567b763b8910a23efee60c01b61481f565b61245160046000838152602001908152602001600020336149c6565b61246567acd6a8c8f4d574b660c01b61481f565b612479677697096d64270cdb60c01b61481f565b7fb431a69783a2491a0c400ff16dab32cd442abf8fe5af63a526a7248d730192f8816040516124a891906163bf565b60405180910390a16125bb565b6124c9673318f6946f78197860c01b61481f565b6124dd67d4c4533d7e9a60a660c01b61481f565b60001515821515036125a5576124fd6732954512786739f560c01b61481f565b6125116724bcd6ffdfbd0d4d60c01b61481f565b612525677338a703ca5a2a9660c01b61481f565b6125416004600083815260200190815260200160002033614c48565b612555673b1e688b7d79d00d60c01b61481f565b612569676bea465bb441461060c01b61481f565b7fb431a69783a2491a0c400ff16dab32cd442abf8fe5af63a526a7248d730192f88160405161259891906163bf565b60405180910390a16125ba565b6125b967e8c1fa74bacd7fbb60c01b61481f565b5b5b6125cf671f5319feb6477e3560c01b61481f565b6125e367f438d58dfb1be18260c01b61481f565b612649605060ff16600360007fd646ae07eb0d0f77457502a65e7407930dff4cd4fd99abc6aac87a753f4c8a42815260200190815260200160002060000160009054906101000a900463ffffffff1661263c9190616dca565b63ffffffff1660646136f3565b6004600083815260200190815260200160002060020160009054906101000a900460ff1660ff161061279f57612689678ef10dcaeac9036f60c01b61481f565b61269d6735f2056c8483d80460c01b61481f565b6126b167c187d7d65cf65af260c01b61481f565b6126cc60046000838152602001908152602001600020614e00565b6126e067ade7a62c071e519d60c01b61481f565b6126f4675439b2c4cd16482360c01b61481f565b7f562618dbcf74b61ae5b0f229fe40ba6d5b6ae6b4248f8c89a870dda7c77135f68160405161272391906163bf565b60405180910390a161273f672f6377f918fc3e7460c01b61481f565b6000600760008888888860405160200161275c9493929190617465565b60405160208183030381529060405280519060200120815260200190815260200160002060020160006101000a81548160ff0219169083151502179055506127b4565b6127b36762c646c22c573f3e60c01b61481f565b5b505050505050565b600080600084815260200190815260200160002060000160008373ffffffffffffffffffffffffffffffffffffffff1673ffffffffffffffffffffffffffffffffffffffff16815260200190815260200160002060009054906101000a900460ff16905092915050565b60056020528060005260406000206000915090505481565b600f81565b61285767fc92d0035d00688e60c01b61481f565b61286b67e5a91bfc65f0c4b160c01b61481f565b61287f674900a3687504079c60c01b61481f565b612893674fce23ae6bb9dc7f60c01b61481f565b6128bd7fd646ae07eb0d0f77457502a65e7407930dff4cd4fd99abc6aac87a753f4c8a42336127bc565b6128fc576040517f08c379a00000000000000000000000000000000000000000000000000000000081526004016128f390616b5d565b60405180910390fd5b61291067a37f82e1ae7b555d60c01b61481f565b61292467db9f0c54e294074460c01b61481f565b61293867e392881a64b85dd960c01b61481f565b61294c673b69b5f7da0fc98560c01b61481f565b6000841161298f576040517f08c379a000000000000000000000000000000000000000000000000000000000815260040161298690616bc9565b60405180910390fd5b6129a36739878fdc39193a5c60c01b61481f565b6129b767efd429d53dea246260c01b61481f565b6129cb67ef5c68bad402a4e060c01b61481f565b6129df67b55b9f6d9d1026af60c01b61481f565b6000835111612a23576040517f08c379a0000000000000000000000000000000000000000000000000000000008152600401612a1a90617701565b60405180910390fd5b612a3767c7765049f91a4ef760c01b61481f565b612a4b67a6d489319a22f36060c01b61481f565b612a5f67a5644b271bdebd0560c01b61481f565b612a736773766d50c37ae17460c01b61481f565b6000825111612ab7576040517f08c379a0000000000000000000000000000000000000000000000000000000008152600401612aae9061776d565b60405180910390fd5b612acb678b979d26b761488e60c01b61481f565b612adf674773b74ca2dfd97760c01b61481f565b612af3673a3c8e3b93c77fd760c01b61481f565b612b0767de5b5a61926c36c960c01b61481f565b60008111612b4a576040517f08c379a0000000000000000000000000000000000000000000000000000000008152600401612b41906177d9565b60405180910390fd5b612b5e67fba333423761151560c01b61481f565b612b7267a458fc201c41f2eb60c01b61481f565b612b866732e4132dad12190060c01b61481f565b612b9a675903462ab1321cac60c01b61481f565b6000600160008681526020019081526020016000206000015414612bf3576040517f08c379a0000000000000000000000000000000000000000000000000000000008152600401612bea90617845565b60405180910390fd5b612c076795a317ec06f83c1060c01b61481f565b612c1b67b1d4635b098ce77a60c01b61481f565b612c2f67a0b843672511ab5560c01b61481f565b612c3b84848484615226565b50505050565b6000801b81565b612c5c677ba3d7ad982f17c160c01b61481f565b612c70675ff2fe70f0a1650860c01b61481f565b612c846739d9fb6b575ba4e360c01b61481f565b612c9867248dca5c34ff865b60c01b61481f565b612cc27fd646ae07eb0d0f77457502a65e7407930dff4cd4fd99abc6aac87a753f4c8a42336127bc565b612d01576040517f08c379a0000000000000000000000000000000000000000000000000000000008152600401612cf890616b5d565b60405180910390fd5b612d156752d84047f7ec1fd860c01b61481f565b612d2967ae030a65c15f875560c01b61481f565b612d3d674dbd682bd4fc310660c01b61481f565b612d516714f96b5406597f9960c01b61481f565b6000600160008781526020019081526020016000206000015403612daa576040517f08c379a0000000000000000000000000000000000000000000000000000000008152600401612da190616c35565b60405180910390fd5b612dbe670df07991caef353d60c01b61481f565b612dd267ae62ea1482f5a88360c01b61481f565b612de667163e0e75e54e0c8a60c01b61481f565b612dfa67a4e6a19cbfe5167960c01b61481f565b60006003811115612e0e57612e0d6165f0565b5b846003811115612e2157612e206165f0565b5b10158015612e535750600380811115612e3d57612e3c6165f0565b5b846003811115612e5057612e4f6165f0565b5b11155b612e92576040517f08c379a0000000000000000000000000000000000000000000000000000000008152600401612e8990617309565b60405180910390fd5b612ea6675c78a7177eb1a8fb60c01b61481f565b612eba67bf4499ff51c0c22160c01b61481f565b612ece67822948be4d3ef9a760c01b61481f565b612ee26796129956313adf1b60c01b61481f565b60006002811115612ef657612ef56165f0565b5b836002811115612f0957612f086165f0565b5b10158015612f3b5750600280811115612f2557612f246165f0565b5b836002811115612f3857612f376165f0565b5b11155b612f7a576040517f08c379a0000000000000000000000000000000000000000000000000000000008152600401612f7190617375565b60405180910390fd5b612f8e67a37df02138054e5260c01b61481f565b612fa267b057154329c49bf860c01b61481f565b612fb667e3a8e90515cce0b760c01b61481f565b612fca67b5a228e10270e22560c01b61481f565b6000600f811115612fde57612fdd6165f0565b5b82600f811115612ff157612ff06165f0565b5b101580156130235750600f8081111561300d5761300c6165f0565b5b82600f8111156130205761301f6165f0565b5b11155b613062576040517f08c379a0000000000000000000000000000000000000000000000000000000008152600401613059906173e1565b60405180910390fd5b613076673ddb288b7f8fde5860c01b61481f565b61308a6728ffed5c4bbb136d60c01b61481f565b61309e671a14e86b1536e0c460c01b61481f565b6130b2678190894182f1322760c01b61481f565b6000151560076000878787876040516020016130d19493929190617465565b60405160208183030381529060405280519060200120815260200190815260200160002060020160009054906101000a900460ff16151514613148576040517f08c379a000000000000000000000000000000000000000000000000000000000815260040161313f906178b1565b60405180910390fd5b61315c675e914cc764a08bdc60c01b61481f565b6131706759cb1221e0215d5e60c01b61481f565b613184676d76b91fe9de0f8c60c01b61481f565b60008585858560405160200161319d949392919061791d565b6040516020818303038152906040528051906020012090506131c967bdf8a12455256e9760c01b61481f565b6131dd67ed9c0b858915e64660c01b61481f565b6132a9817fd646ae07eb0d0f77457502a65e7407930dff4cd4fd99abc6aac87a753f4c8a42886040516020016132139190616cf3565b6040516020818303038152906040528860405160200161323391906175c4565b6040516020818303038152906040528860405160200161325391906175df565b6040516020818303038152906040528860405160200161327391906175fa565b604051602081830303815290604052604051602001613295949392919061799c565b604051602081830303815290604052614822565b6132bd67649bd458a200725760c01b61481f565b6132d1670b6b16ea080ccdb260c01b61481f565b8180156133425750600015156004600083815260200190815260200160002060030160003373ffffffffffffffffffffffffffffffffffffffff1673ffffffffffffffffffffffffffffffffffffffff16815260200190815260200160002060009054906101000a900460ff161515145b156134035761335b67689b85ae64f251bf60c01b61481f565b61336f6735e2a6e6763de1be60c01b61481f565b6133836709e04ae92e1584c060c01b61481f565b61339f60046000838152602001908152602001600020336149c6565b6133b3672117bb302f321a4960c01b61481f565b6133c767918f30a7fad8441260c01b61481f565b7fb431a69783a2491a0c400ff16dab32cd442abf8fe5af63a526a7248d730192f8816040516133f691906163bf565b60405180910390a1613509565b613417679d26a0bcae16f15560c01b61481f565b61342b6762560a22786c9d8960c01b61481f565b60001515821515036134f35761344b676ad05dd6ad0c5e8e60c01b61481f565b61345f67b018fb771a8f126a60c01b61481f565b613473673838e17e05cad86e60c01b61481f565b61348f6004600083815260200190815260200160002033614c48565b6134a3673b992ef7312a36a260c01b61481f565b6134b767d1937d9a9d9ede4b60c01b61481f565b7fb431a69783a2491a0c400ff16dab32cd442abf8fe5af63a526a7248d730192f8816040516134e691906163bf565b60405180910390a1613508565b61350767eba93d2f1c3a372560c01b61481f565b5b5b61351d67e583d3490fb5c11a60c01b61481f565b6135316703c216aef0914c7d60c01b61481f565b613597603360ff16600360007fd646ae07eb0d0f77457502a65e7407930dff4cd4fd99abc6aac87a753f4c8a42815260200190815260200160002060000160009054906101000a900463ffffffff1661358a9190616dca565b63ffffffff1660646136f3565b6004600083815260200190815260200160002060020160009054906101000a900460ff1660ff16106136b2576135d767e929230dacd39fc460c01b61481f565b6135eb67f0423ad893494d1f60c01b61481f565b6135ff670e4635f8420cba4d60c01b61481f565b61361a60046000838152602001908152602001600020614e00565b61362e67a8f356ae64e80fb260c01b61481f565b6136426787081979864afeae60c01b61481f565b7f562618dbcf74b61ae5b0f229fe40ba6d5b6ae6b4248f8c89a870dda7c77135f68160405161367191906163bf565b60405180910390a161368d677547dde3e6de66c160c01b61481f565b6136a16776a3d74fa8fa545760c01b61481f565b6136ad868686866154bd565b6136c7565b6136c6674ed9ea8c9338f00060c01b61481f565b5b505050505050565b7fd646ae07eb0d0f77457502a65e7407930dff4cd4fd99abc6aac87a753f4c8a4281565b6000613709676a2ae2a06afe198060c01b61574a565b61371d67e21ac2f9ac7c436060c01b61574a565b61373167b73a8c950c3a10be60c01b61574a565b6000828461373f9190617a45565b0361379357613758672a4e30eba7f2d24560c01b61574a565b61376c67e751e11bf7e00e7560c01b61574a565b61378067c1f8bcae3beada7f60c01b61574a565b818361378c9190617a76565b90506137ea565b6137a767ad8f2ea651454d1d60c01b61574a565b6137bb67b2b9fdbd62eed15560c01b61574a565b6137cf672d541561a735e8b860c01b61574a565b600182846137dd9190617a76565b6137e79190617aa7565b90505b92915050565b61380467553b9ae776c1ac0760c01b61481f565b6138186776e3a440f346f78b60c01b61481f565b61382c672fe19dd197ae71b760c01b61481f565b613840674dadad20973e5e5d60c01b61481f565b61386a7fd646ae07eb0d0f77457502a65e7407930dff4cd4fd99abc6aac87a753f4c8a42336127bc565b6138a9576040517f08c379a00000000000000000000000000000000000000000000000000000000081526004016138a090616b5d565b60405180910390fd5b6138bd67dcfd845b2fe814ee60c01b61481f565b6138d16787c8ea0feda3ada560c01b61481f565b6138e567124f1dad53c69bc560c01b61481f565b6138f9676e8d3572b8c8ba0b60c01b61481f565b6000841161393c576040517f08c379a000000000000000000000000000000000000000000000000000000000815260040161393390616bc9565b60405180910390fd5b61395067ec4e2bcd0646233360c01b61481f565b6139646771868017dd9ea9a260c01b61481f565b61397867ab1bd67fcc0dc4e660c01b61481f565b61398c6714693ce83117a4a660c01b61481f565b60006001600086815260200190815260200160002060000154036139e5576040517f08c379a00000000000000000000000000000000000000000000000000000000081526004016139dc90616c35565b60405180910390fd5b6139f9671ee91d41820de70160c01b61481f565b613a0d6765714ee521157c1660c01b61481f565b613a2167647b5b224d6b094960c01b61481f565b613a2d8484848461574d565b50505050565b605081565b613a4c6737c85746c2f8f06560c01b61481f565b613a60672011fab2eac0049160c01b61481f565b613a746744a1b5a674d397ba60c01b61481f565b6000600360008581526020019081526020016000209050613a9f67356380150091118d60c01b61481f565b613ab367d1da6e531bb5433e60c01b61481f565b613ac7672ee69ee77814874360c01b61481f565b8060000160049054906101000a900463ffffffff1663ffffffff168160000160009054906101000a900463ffffffff1663ffffffff16118160020154604051602001613b139190616f86565b604051602081830303815290604052604051602001613b329190617b01565b60405160208183030381529060405290613b82576040517f08c379a0000000000000000000000000000000000000000000000000000000008152600401613b799190617022565b60405180910390fd5b50613b97671b9e414ab197e55f60c01b61481f565b613bab6714f85a465318971d60c01b61481f565b613bbf67e79b395de5e6d68460c01b61481f565b613bd3675ea5fd91e72c501360c01b61481f565b613bdd84846127bc565b8160020154604051602001613bf29190616f86565b604051602081830303815290604052604051602001613c119190617b5c565b60405160208183030381529060405290613c61576040517f08c379a0000000000000000000000000000000000000000000000000000000008152600401613c589190617022565b60405180910390fd5b50613c766740b5effbe6fbc4ba60c01b61481f565b613c8a67d72dd4e9f32df2a660c01b61481f565b613c9e670ed0a2a914fd84f760c01b61481f565b613cb26787de25c771ec258260c01b61481f565b613cc08160010154336127bc565b8160020154604051602001613cd59190616f86565b604051602081830303815290604052604051602001613cf49190617090565b60405160208183030381529060405290613d44576040517f08c379a0000000000000000000000000000000000000000000000000000000008152600401613d3b9190617022565b60405180910390fd5b50613d59679a8cdfcabcb0dacb60c01b61481f565b613d6d67772e58326b3683ce60c01b61481f565b613d8167f33d304923bb8f1760c01b61481f565b60008385604051602001613d96929190617bce565b604051602081830303815290604052805190602001209050613dc26730dbd22aa968d27a60c01b61481f565b613dd6671045bc06e9ec4a8360c01b61481f565b613e488183600101548460020154604051602001613df49190616f86565b60405160208183030381529060405287604051602001613e1491906171dc565b604051602081830303815290604052604051602001613e34929190617c2b565b604051602081830303815290604052614822565b613e5c67bf20874ded53a20860c01b61481f565b613e7067e36f7f130cb3f21360c01b61481f565b828015613ee15750600015156004600083815260200190815260200160002060030160003373ffffffffffffffffffffffffffffffffffffffff1673ffffffffffffffffffffffffffffffffffffffff16815260200190815260200160002060009054906101000a900460ff161515145b15613fa257613efa6715bd5e551d188d8360c01b61481f565b613f0e67580bbbb9ccbb13be60c01b61481f565b613f226766006dd0f09419f560c01b61481f565b613f3e60046000838152602001908152602001600020336149c6565b613f526720ceeb0471d394b660c01b61481f565b613f6667213863767febee4a60c01b61481f565b7fb431a69783a2491a0c400ff16dab32cd442abf8fe5af63a526a7248d730192f881604051613f9591906163bf565b60405180910390a16140a8565b613fb6672d86523e849fc68d60c01b61481f565b613fca67689f9d36814699ed60c01b61481f565b600015158315150361409257613fea67f194d1ffc0447ea960c01b61481f565b613ffe6789a333387d41a6b660c01b61481f565b614012675da07d83cb2bab9d60c01b61481f565b61402e6004600083815260200190815260200160002033614c48565b61404267f25ac83becfb3ba860c01b61481f565b61405667386935278dae822660c01b61481f565b7fb431a69783a2491a0c400ff16dab32cd442abf8fe5af63a526a7248d730192f88160405161408591906163bf565b60405180910390a16140a7565b6140a667ccb3b5b8af78b2cb60c01b61481f565b5b5b6140bc67e0f5824ede3cb57d60c01b61481f565b6140d067f4b14bead3785a6660c01b61481f565b81600101548514158015614163575061413982600001600d9054906101000a900460ff1660ff16600360008560010154815260200190815260200160002060000160009054906101000a900463ffffffff1661412c9190616dca565b63ffffffff1660646136f3565b6004600083815260200190815260200160002060020160009054906101000a900460ff1660ff1610155b801561417f575061417e6743d8ba5b87e2e64860c01b615bc2565b5b80614240575081600101548514801561422357506141f982600001600d9054906101000a900460ff1660ff166001600360008660010154815260200190815260200160002060000160009054906101000a900463ffffffff166141e29190617c6d565b6141ec9190616dca565b63ffffffff1660646136f3565b6004600083815260200190815260200160002060020160009054906101000a900460ff1660ff1610155b801561423f575061423e675882f3b1b847165d60c01b615bc2565b5b5b156145e05761425967ec6dbc09e6a8d3c360c01b61481f565b61426d6787fec01562de0d7760c01b61481f565b61428167b815fa764d360f8060c01b61481f565b60005b6006548110156144b0576142a2676c848ca2d28cc2e760c01b61481f565b6142b66762a5c10409c68fa660c01b61481f565b60011515600460006005600085815260200190815260200160002054815260200190815260200160002060030160008773ffffffffffffffffffffffffffffffffffffffff1673ffffffffffffffffffffffffffffffffffffffff16815260200190815260200160002060009054906101000a900460ff161515148015614365575085600460006005600085815260200190815260200160002054815260200190815260200160002060010154145b156144885761437e6767be7bcfb8b646a360c01b61481f565b61439267ab4b51ef7195398660c01b61481f565b6001600460006005600085815260200190815260200160002054815260200190815260200160002060020160008282829054906101000a900460ff166143d89190617ca5565b92506101000a81548160ff021916908360ff1602179055506144046745513953a8aaed3b60c01b61481f565b6000600460006005600085815260200190815260200160002054815260200190815260200160002060030160008773ffffffffffffffffffffffffffffffffffffffff1673ffffffffffffffffffffffffffffffffffffffff16815260200190815260200160002060006101000a81548160ff02191690831515021790555061449d565b61449c67a0247630c45fc01060c01b61481f565b5b80806144a890617cda565b915050614284565b506144c567cb56c9dffef6c09b60c01b61481f565b6144d9670f6c466182e7daf460c01b61481f565b6144f460046000838152602001908152602001600020614e00565b6145086796af1b9e171f5d0c60c01b61481f565b61451c676ea5a5cfdd40ca7760c01b61481f565b7f562618dbcf74b61ae5b0f229fe40ba6d5b6ae6b4248f8c89a870dda7c77135f68160405161454b91906163bf565b60405180910390a16145676734c805801ad925b460c01b61481f565b61457b67de2808851ea8535860c01b61481f565b6145858585615bcd565b614599677ab469cc82d327c160c01b61481f565b60018260000160008282829054906101000a900463ffffffff166145bd9190617c6d565b92506101000a81548163ffffffff021916908363ffffffff1602179055506145f5565b6145f46734fccb1c2034803560c01b61481f565b5b5050505050565b614605826110b6565b61460e8161512f565b6146188383615bcd565b505050565b6002818154811061462d57600080fd5b906000526020600020016000915090505481565b7f4bbeb6fd3e5222e55f2f8b0c35bc228e0a06a25d0da772fdb02c3b92fa004f8881565b606061467b67220ad4741fc3df5d60c01b61481f565b61468f6799a0b0988af0867760c01b61481f565b6146a3675d49ac61be8ebd7160c01b61481f565b6146b767ac18a9a1ec69e6b860c01b61481f565b6000600160008481526020019081526020016000206000015403614710576040517f08c379a000000000000000000000000000000000000000000000000000000000815260040161470790616c35565b60405180910390fd5b61472467698bf9a5753ef89160c01b61481f565b614738674a780f79854977d860c01b61481f565b61474c6769ad2177cecd222f60c01b61481f565b600860008381526020019081526020016000208054806020026020016040519081016040528092919081815260200182805480156147a957602002820191906000526020600020905b815481526020019060010190808311614795575b50505050509050919050565b60007f01ffc9a7000000000000000000000000000000000000000000000000000000007bffffffffffffffffffffffffffffffffffffffffffffffffffffffff1916827bffffffffffffffffffffffffffffffffffffffffffffffffffffffff1916149050919050565b50565b6148366706ddd2fa1476c45260c01b61481f565b61484a67476c17a0b8385f1760c01b61481f565b61485e671c07e5a9226be91660c01b61481f565b600015156004600085815260200190815260200160002060000160009054906101000a900460ff161515036149ac576148a16707862d5c1055513b60c01b61481f565b6148b56792f115933ddba31c60c01b61481f565b60016004600085815260200190815260200160002060000160006101000a81548160ff0219169083151502179055506148f867f700b95d536177f360c01b61481f565b82600560006006548152602001908152602001600020819055506149266782a82f6f1bd2c11660c01b61481f565b6001600660008282546149399190617aa7565b92505081905550614954672e2eef9c059dc20760c01b61481f565b816004600085815260200190815260200160002060010181905550614983672071df197b17f30b60c01b61481f565b806004600085815260200190815260200160002060050190816149a69190617ece565b506149c1565b6149c06707b5a83c26feac2860c01b61481f565b5b505050565b6149da675a3c9011d611774460c01b615cae565b6149ee67ee7f0288f9c0fba360c01b615cae565b614a02673e2d95fab5502c9660c01b615cae565b614a166722234fe55e6f93b260c01b615cae565b600015158260030160008373ffffffffffffffffffffffffffffffffffffffff1673ffffffffffffffffffffffffffffffffffffffff16815260200190815260200160002060009054906101000a900460ff16151514614aab576040517f08c379a0000000000000000000000000000000000000000000000000000000008152600401614aa290617fec565b60405180910390fd5b614abf677c18081af493925660c01b615cae565b614ad367e206f5f987142d0660c01b615cae565b808260040160008460020160019054906101000a900460ff1660ff16815260200190815260200160002060006101000a81548173ffffffffffffffffffffffffffffffffffffffff021916908373ffffffffffffffffffffffffffffffffffffffff160217905550614b4f67c0944e3d88bb4a8260c01b615cae565b81600201600181819054906101000a900460ff1680929190614b709061800c565b91906101000a81548160ff021916908360ff16021790555050614b9d67a952d7f984e5cfe860c01b615cae565b60018260030160008373ffffffffffffffffffffffffffffffffffffffff1673ffffffffffffffffffffffffffffffffffffffff16815260200190815260200160002060006101000a81548160ff021916908315150217905550614c0b674d5e6664c3071ac860c01b615cae565b60018260020160008282829054906101000a900460ff16614c2c9190618035565b92506101000a81548160ff021916908360ff1602179055505050565b614c5c6789e241db9bf0943f60c01b615cae565b614c7067604845014888505d60c01b615cae565b614c8467889629c1ed764b5f60c01b615cae565b614c986703e522659fdf1c6460c01b615cae565b600115158260030160008373ffffffffffffffffffffffffffffffffffffffff1673ffffffffffffffffffffffffffffffffffffffff16815260200190815260200160002060009054906101000a900460ff16151514614d2d576040517f08c379a0000000000000000000000000000000000000000000000000000000008152600401614d24906180dc565b60405180910390fd5b614d41670cb913ef7320953a60c01b615cae565b614d55670d0be123f3aad8b560c01b615cae565b60008260030160008373ffffffffffffffffffffffffffffffffffffffff1673ffffffffffffffffffffffffffffffffffffffff16815260200190815260200160002060006101000a81548160ff021916908315150217905550614dc36782fb380a6e59325060c01b615cae565b60018260020160008282829054906101000a900460ff16614de49190617ca5565b92506101000a81548160ff021916908360ff1602179055505050565b614e1467a8840dc1501026d660c01b615cae565b614e2867284402450de6975b60c01b615cae565b60008160020160006101000a81548160ff021916908360ff160217905550614e5a6716cc54606c5522e860c01b615cae565b614e6e67e9ad335776b7ef0d60c01b615cae565b60005b8160020160019054906101000a900460ff1660ff168160ff161015614f4957614ea467f9c0079586222d2660c01b615cae565b60008260030160008460040160008560ff16815260200190815260200160002060009054906101000a900473ffffffffffffffffffffffffffffffffffffffff1673ffffffffffffffffffffffffffffffffffffffff1673ffffffffffffffffffffffffffffffffffffffff16815260200190815260200160002060006101000a81548160ff0219169083151502179055508080614f419061800c565b915050614e71565b5050565b614f61674f519b1e053efb5460c01b615223565b614f7567aec0a71526ccaba060c01b615223565b60016000828152602001908152602001600020600080820160009055600182016000614fa19190615fcf565b600282016000614fb19190615fcf565b60038201600090555050614fcf6737b3e1505cacbb5c60c01b615223565b614fe3670caebcbad414c98960c01b615223565b60005b6002805490508110156150cc5761500767e5575fcbd78b3a8c60c01b615223565b61501b67f92c5cce75da192d60c01b615223565b81600282815481106150305761502f6180fc565b5b9060005260206000200154036150a557615054672197159ad936e06660c01b615223565b6150686710506af5eb8dbd9360c01b615223565b60006002828154811061507e5761507d6180fc565b5b90600052602060002001819055506150a067479521140d75f96060c01b615223565b6150cc565b6150b9674a0abbdd4bfb40f360c01b615223565b80806150c490617cda565b915050614fe6565b506150e167fb7138474997668360c01b615223565b6150f567cabf37fb9b0fe09360c01b615223565b7f34de6b871245ed0a89b82912e8e5ee6d9c3104b3e5bb1d67a71ad7e68239e41c816040516151249190616a16565b60405180910390a150565b6151408161513b615cb1565b615cb9565b50565b61514d82826127bc565b61521f57600160008084815260200190815260200160002060000160008373ffffffffffffffffffffffffffffffffffffffff1673ffffffffffffffffffffffffffffffffffffffff16815260200190815260200160002060006101000a81548160ff0219169083151502179055506151c4615cb1565b73ffffffffffffffffffffffffffffffffffffffff168173ffffffffffffffffffffffffffffffffffffffff16837f2f8788117e7eff1d82e926ec794901d17c78024a50270940304540a733656f0d60405160405180910390a45b5050565b50565b61523a673abd118e698f57c460c01b615223565b61524e67945b6dfd81ed0b9960c01b615223565b61526267174bf75761bddef660c01b615223565b61527667d4d55f133ba9aebb60c01b615223565b60006001600086815260200190815260200160002060000154146152cf576040517f08c379a00000000000000000000000000000000000000000000000000000000081526004016152c690618177565b60405180910390fd5b6152e36740fe773e1cb7aee860c01b615223565b6152f767db3f8feb92715f8960c01b615223565b61530b674fa302755311227760c01b615223565b61531f67b2e0009661c2df8c60c01b615223565b60008403615362576040517f08c379a0000000000000000000000000000000000000000000000000000000008152600401615359906181e3565b60405180910390fd5b615376674ba1c2b0a31bf16a60c01b615223565b61538a672175c4db49308e0560c01b615223565b604051806080016040528085815260200184815260200183815260200182815250600160008681526020019081526020016000206000820151816000015560208201518160010190816153dd9190617ece565b5060408201518160020190816153f39190617ece565b506060820151816003015590505061541567f2040cc31830c96860c01b615223565b61542967219acd0535b5e94f60c01b615223565b6002849080600181540180825580915050600190039060005260206000200160009091909190915055615466677cdd76207fc5bcab60c01b615223565b61547a67449ffde15d725c8460c01b615223565b7fb6767d1c89515962142b00b5577569c92a74381d9441a528911c66e0c3cea1f8848484846040516154af9493929190616269565b60405180910390a150505050565b6154d16765b7e103c94a229d60c01b61481f565b6154e56712792db49bd8000860c01b61481f565b6040518060c00160405280846003811115615503576155026165f0565b5b815260200183600281111561551b5761551a6165f0565b5b815260200182600f811115615533576155326165f0565b5b81526020014281526020016001151581526020018581525060076000868686866040516020016155669493929190617465565b60405160208183030381529060405280519060200120815260200190815260200160002060008201518160000160006101000a81548160ff021916908360038111156155b5576155b46165f0565b5b021790555060208201518160000160016101000a81548160ff021916908360028111156155e5576155e46165f0565b5b021790555060408201518160000160026101000a81548160ff0219169083600f811115615615576156146165f0565b5b02179055506060820151816001015560808201518160020160006101000a81548160ff02191690831515021790555060a08201518160030155905050615665673a5a274be22801d260c01b61481f565b61567967493634455e2d80e960c01b61481f565b60086000858152602001908152602001600020848484846040516020016156a39493929190617465565b6040516020818303038152906040528051906020012090806001815401808255809150506001900390600052602060002001600090919091909150556156f3671175e050037a7c2760c01b61481f565b615707675137f0b970b59aa760c01b61481f565b7fb55811dd01470a227956304b027c610c7cdf9dd622dcc47791380261d56dc6ed8484848460405161573c9493929190618203565b60405180910390a150505050565b50565b615761678f0d48f9169a161c60c01b615223565b615775676f1c6119a0e8189b60c01b615223565b615789671efbc114ca82ba3a60c01b615223565b61579d67b5e10ccf1dfb2cbf60c01b615223565b60006001600086815260200190815260200160002060000154036157f6576040517f08c379a00000000000000000000000000000000000000000000000000000000081526004016157ed90618294565b60405180910390fd5b61580a6724af5e47dd5e209b60c01b615223565b61581e67b5b158cd02c2fb4b60c01b615223565b61583267a1ea6a203d9b892560c01b615223565b600160008581526020019081526020016000206001016040516020016158589190618337565b604051602081830303815290604052805190602001208360405160200161587f919061834e565b60405160208183030381529060405280519060200120141580156158ed57506040516020016158ad9061838b565b60405160208183030381529060405280519060200120836040516020016158d4919061834e565b6040516020818303038152906040528051906020012014155b1561594357615906675ac7e0755718f33860c01b615223565b61591a670404365a798c3bee60c01b615223565b8260016000868152602001908152602001600020600101908161593d9190617ece565b50615958565b615957678f52ef164f30557160c01b615223565b5b61596c6796e591cc4057d14160c01b615223565b6159806708507b1a7ed5d4af60c01b615223565b600160008581526020019081526020016000206002016040516020016159a69190618337565b60405160208183030381529060405280519060200120826040516020016159cd919061834e565b6040516020818303038152906040528051906020012014158015615a3b57506040516020016159fb9061838b565b6040516020818303038152906040528051906020012082604051602001615a22919061834e565b6040516020818303038152906040528051906020012014155b15615a9157615a5467559f3e42497b232560c01b615223565b615a686728097c31405ae1f360c01b615223565b81600160008681526020019081526020016000206002019081615a8b9190617ece565b50615aa6565b615aa5673c7b5fe1417d860b60c01b615223565b5b615aba67c98d308dd86a644b60c01b615223565b615ace678571e9a913979a0160c01b615223565b60016000858152602001908152602001600020600301548114158015615af5575060008114155b15615b4257615b0e67d9f02e438eeb9bdb60c01b615223565b615b22670fc1ccf2c3e5a43d60c01b615223565b806001600086815260200190815260200160002060030181905550615b57565b615b5667120ca5c9cebebfb860c01b615223565b5b615b6b672ca296637aa2ca0460c01b615223565b615b7f676578dfbde5bca09660c01b615223565b7f03e10a3f40e9af2a5e61cb5a3de55fd67286470c35b3cf345b04a83cf3f4907784848484604051615bb49493929190616269565b60405180910390a150505050565b600060019050919050565b615bd782826127bc565b15615caa57600080600084815260200190815260200160002060000160008373ffffffffffffffffffffffffffffffffffffffff1673ffffffffffffffffffffffffffffffffffffffff16815260200190815260200160002060006101000a81548160ff021916908315150217905550615c4f615cb1565b73ffffffffffffffffffffffffffffffffffffffff168173ffffffffffffffffffffffffffffffffffffffff16837ff6391f5c32d9c69d2a47ea670b442974b53935d1edc7fd64eb21e047a839171b60405160405180910390a45b5050565b50565b600033905090565b615cc382826127bc565b615d3a57615cd081615d3e565b615cde8360001c6020615d6b565b604051602001615cef929190618438565b6040516020818303038152906040526040517f08c379a0000000000000000000000000000000000000000000000000000000008152600401615d319190617022565b60405180910390fd5b5050565b6060615d648273ffffffffffffffffffffffffffffffffffffffff16601460ff16615d6b565b9050919050565b606060006002836002615d7e9190618472565b615d889190617aa7565b67ffffffffffffffff811115615da157615da061684c565b5b6040519080825280601f01601f191660200182016040528015615dd35781602001600182028036833780820191505090505b5090507f300000000000000000000000000000000000000000000000000000000000000081600081518110615e0b57615e0a6180fc565b5b60200101907effffffffffffffffffffffffffffffffffffffffffffffffffffffffffffff1916908160001a9053507f780000000000000000000000000000000000000000000000000000000000000081600181518110615e6f57615e6e6180fc565b5b60200101907effffffffffffffffffffffffffffffffffffffffffffffffffffffffffffff1916908160001a90535060006001846002615eaf9190618472565b615eb99190617aa7565b90505b6001811115615f59577f3031323334353637383961626364656600000000000000000000000000000000600f861660108110615efb57615efa6180fc565b5b1a60f81b828281518110615f1257615f116180fc565b5b60200101907effffffffffffffffffffffffffffffffffffffffffffffffffffffffffffff1916908160001a905350600485901c945080615f52906184b4565b9050615ebc565b5060008414615f9d576040517f08c379a0000000000000000000000000000000000000000000000000000000008152600401615f9490618529565b60405180910390fd5b8091505092915050565b6040518060800160405280600081526020016060815260200160608152602001600081525090565b508054615fdb90616e36565b6000825580601f10615fed575061600c565b601f01602090049060005260206000209081019061600b919061600f565b5b50565b5b80821115616028576000816000905550600101616010565b5090565b6000604051905090565b600080fd5b600080fd5b60007fffffffff0000000000000000000000000000000000000000000000000000000082169050919050565b61607581616040565b811461608057600080fd5b50565b6000813590506160928161606c565b92915050565b6000602082840312156160ae576160ad616036565b5b60006160bc84828501616083565b91505092915050565b60008115159050919050565b6160da816160c5565b82525050565b60006020820190506160f560008301846160d1565b92915050565b6000819050919050565b61610e816160fb565b811461611957600080fd5b50565b60008135905061612b81616105565b92915050565b61613a816160c5565b811461614557600080fd5b50565b60008135905061615781616131565b92915050565b6000806040838503121561617457616173616036565b5b60006161828582860161611c565b925050602061619385828601616148565b9150509250929050565b6000602082840312156161b3576161b2616036565b5b60006161c18482850161611c565b91505092915050565b6161d3816160fb565b82525050565b600081519050919050565b600082825260208201905092915050565b60005b838110156162135780820151818401526020810190506161f8565b60008484015250505050565b6000601f19601f8301169050919050565b600061623b826161d9565b61624581856161e4565b93506162558185602086016161f5565b61625e8161621f565b840191505092915050565b600060808201905061627e60008301876161ca565b81810360208301526162908186616230565b905081810360408301526162a48185616230565b90506162b360608301846161ca565b95945050505050565b600060ff82169050919050565b6162d2816162bc565b82525050565b60006020820190506162ed60008301846162c9565b92915050565b6000819050919050565b616306816162f3565b811461631157600080fd5b50565b600081359050616323816162fd565b92915050565b60006020828403121561633f5761633e616036565b5b600061634d84828501616314565b91505092915050565b61635f816162f3565b82525050565b600060a08201905061637a60008301886160d1565b6163876020830187616356565b61639460408301866162c9565b6163a160608301856162c9565b81810360808301526163b38184616230565b90509695505050505050565b60006020820190506163d46000830184616356565b92915050565b600073ffffffffffffffffffffffffffffffffffffffff82169050919050565b6000616405826163da565b9050919050565b616415816163fa565b811461642057600080fd5b50565b6000813590506164328161640c565b92915050565b6000806040838503121561644f5761644e616036565b5b600061645d85828601616314565b925050602061646e85828601616423565b9150509250929050565b6000806040838503121561648f5761648e616036565b5b600061649d8582860161611c565b92505060206164ae8582860161611c565b9150509250929050565b6164c1816160fb565b82525050565b600082825260208201905092915050565b60006164e3826161d9565b6164ed81856164c7565b93506164fd8185602086016161f5565b6165068161621f565b840191505092915050565b600060808301600083015161652960008601826164b8565b506020830151848203602086015261654182826164d8565b9150506040830151848203604086015261655b82826164d8565b915050606083015161657060608601826164b8565b508091505092915050565b600060208201905081810360008301526165958184616511565b905092915050565b6000806000606084860312156165b6576165b5616036565b5b60006165c486828701616314565b93505060206165d586828701616423565b92505060406165e686828701616148565b9150509250925092565b7f4e487b7100000000000000000000000000000000000000000000000000000000600052602160045260246000fd5b600481106166305761662f6165f0565b5b50565b60008190506166418261661f565b919050565b600061665182616633565b9050919050565b61666181616646565b82525050565b60038110616678576166776165f0565b5b50565b600081905061668982616667565b919050565b60006166998261667b565b9050919050565b6166a98161668e565b82525050565b601081106166c0576166bf6165f0565b5b50565b60008190506166d1826166af565b919050565b60006166e1826166c3565b9050919050565b6166f1816166d6565b82525050565b600060c08201905061670c6000830189616658565b61671960208301886166a0565b61672660408301876166e8565b61673360608301866161ca565b61674060808301856160d1565b61674d60a08301846161ca565b979650505050505050565b6004811061676557600080fd5b50565b60008135905061677781616758565b92915050565b6003811061678a57600080fd5b50565b60008135905061679c8161677d565b92915050565b601081106167af57600080fd5b50565b6000813590506167c1816167a2565b92915050565b600080600080600060a086880312156167e3576167e2616036565b5b60006167f18882890161611c565b955050602061680288828901616768565b94505060406168138882890161678d565b9350506060616824888289016167b2565b925050608061683588828901616148565b9150509295509295909350565b600080fd5b600080fd5b7f4e487b7100000000000000000000000000000000000000000000000000000000600052604160045260246000fd5b6168848261621f565b810181811067ffffffffffffffff821117156168a3576168a261684c565b5b80604052505050565b60006168b661602c565b90506168c2828261687b565b919050565b600067ffffffffffffffff8211156168e2576168e161684c565b5b6168eb8261621f565b9050602081019050919050565b82818337600083830152505050565b600061691a616915846168c7565b6168ac565b90508281526020810184848401111561693657616935616847565b5b6169418482856168f8565b509392505050565b600082601f83011261695e5761695d616842565b5b813561696e848260208601616907565b91505092915050565b6000806000806080858703121561699157616990616036565b5b600061699f8782880161611c565b945050602085013567ffffffffffffffff8111156169c0576169bf61603b565b5b6169cc87828801616949565b935050604085013567ffffffffffffffff8111156169ed576169ec61603b565b5b6169f987828801616949565b9250506060616a0a8782880161611c565b91505092959194509250565b6000602082019050616a2b60008301846161ca565b92915050565b600081519050919050565b600082825260208201905092915050565b6000819050602082019050919050565b616a66816162f3565b82525050565b6000616a788383616a5d565b60208301905092915050565b6000602082019050919050565b6000616a9c82616a31565b616aa68185616a3c565b9350616ab183616a4d565b8060005b83811015616ae2578151616ac98882616a6c565b9750616ad483616a84565b925050600181019050616ab5565b5085935050505092915050565b60006020820190508181036000830152616b098184616a91565b905092915050565b7f43616c6c6572206973206e6f7420612063657274696669657200000000000000600082015250565b6000616b476019836161e4565b9150616b5282616b11565b602082019050919050565b60006020820190508181036000830152616b7681616b3a565b9050919050565b7f4964206d7573742062652067726561746572207468616e203000000000000000600082015250565b6000616bb36019836161e4565b9150616bbe82616b7d565b602082019050919050565b60006020820190508181036000830152616be281616ba6565b9050919050565b7f546869732073747564656e7420646f65736e2774206578697374000000000000600082015250565b6000616c1f601a836161e4565b9150616c2a82616be9565b602082019050919050565b60006020820190508181036000830152616c4e81616c12565b9050919050565b6000819050919050565b616c70616c6b826160fb565b616c55565b82525050565b600081905092915050565b7f44454c4554452053545544454e54000000000000000000000000000000000000600082015250565b6000616cb7600e83616c76565b9150616cc282616c81565b600e82019050919050565b6000616cd98284616c5f565b602082019150616ce882616caa565b915081905092915050565b6000616cff8284616c5f565b60208201915081905092915050565b7f44656c6574652073747564656e74200000000000000000000000000000000000815250565b6000616d3f826161d9565b616d498185616c76565b9350616d598185602086016161f5565b80840191505092915050565b6000616d7082616d0e565b600f82019150616d808284616d34565b915081905092915050565b600063ffffffff82169050919050565b7f4e487b7100000000000000000000000000000000000000000000000000000000600052601160045260246000fd5b6000616dd582616d8b565b9150616de083616d8b565b9250828202616dee81616d8b565b9150808214616e0057616dff616d9b565b5b5092915050565b7f4e487b7100000000000000000000000000000000000000000000000000000000600052602260045260246000fd5b60006002820490506001821680616e4e57607f821691505b602082108103616e6157616e60616e07565b5b50919050565b7f596f752063616e27742072656e6f756e636520746f20796f757220726f6c652e60008201527f20506c6561736520636f6e746163742061646d696e7300000000000000000000602082015250565b6000616ec36036836161e4565b9150616ece82616e67565b604082019050919050565b60006020820190508181036000830152616ef281616eb6565b9050919050565b7f53747564656e7420646f65736e27742065786973740000000000000000000000600082015250565b6000616f2f6015836161e4565b9150616f3a82616ef9565b602082019050919050565b60006020820190508181036000830152616f5e81616f22565b9050919050565b6000819050919050565b616f80616f7b826162f3565b616f65565b82525050565b6000616f928284616f6f565b60208201915081905092915050565b7f4d61782000000000000000000000000000000000000000000000000000000000815250565b7f2072656163686564000000000000000000000000000000000000000000000000815250565b6000616ff882616fa1565b6004820191506170088284616d34565b915061701382616fc7565b60088201915081905092915050565b6000602082019050818103600083015261703c8184616230565b905092915050565b7f43616c6c6572206973206e6f7420612000000000000000000000000000000000815250565b7f2061646d696e0000000000000000000000000000000000000000000000000000815250565b600061709b82617044565b6010820191506170ab8284616d34565b91506170b68261706a565b60068201915081905092915050565b7f54686973206164647265737320697320616c7265616479206120000000000000815250565b60006170f6826170c5565b601a820191506171068284616d34565b915081905092915050565b60008160601b9050919050565b600061712982617111565b9050919050565b600061713b8261711e565b9050919050565b61715361714e826163fa565b617130565b82525050565b7f4752414e54000000000000000000000000000000000000000000000000000000600082015250565b600061718f600583616c76565b915061719a82617159565b600582019050919050565b60006171b18285617142565b6014820191506171c082617182565b91506171cc8284616f6f565b6020820191508190509392505050565b60006171e88284617142565b60148201915081905092915050565b7f4772616e74200000000000000000000000000000000000000000000000000000815250565b7f2000000000000000000000000000000000000000000000000000000000000000815250565b600061724e826171f7565b60068201915061725e8285616d34565b91506172698261721d565b6001820191506172798284616d34565b91508190509392505050565b600061729082616d8b565b915061729b83616d8b565b9250828201905063ffffffff8111156172b7576172b6616d9b565b5b92915050565b7f417070726563696174696f6e206973206e6f742076616c696400000000000000600082015250565b60006172f36019836161e4565b91506172fe826172bd565b602082019050919050565b60006020820190508181036000830152617322816172e6565b9050919050565b7f446567726565206973206e6f742076616c696400000000000000000000000000600082015250565b600061735f6013836161e4565b915061736a82617329565b602082019050919050565b6000602082019050818103600083015261738e81617352565b9050919050565b7f50726f6772616d206973206e6f742076616c6964000000000000000000000000600082015250565b60006173cb6014836161e4565b91506173d682617395565b602082019050919050565b600060208201905081810360008301526173fa816173be565b9050919050565b60008160f81b9050919050565b600061741982617401565b9050919050565b61743161742c82616646565b61740e565b82525050565b6174486174438261668e565b61740e565b82525050565b61745f61745a826166d6565b61740e565b82525050565b60006174718287616c5f565b6020820191506174818286617420565b6001820191506174918285617437565b6001820191506174a1828461744e565b60018201915081905095945050505050565b7f5468697320636572746966696361746520646f65736e27742065786973740000600082015250565b60006174e9601e836161e4565b91506174f4826174b3565b602082019050919050565b60006020820190508181036000830152617518816174dc565b9050919050565b7f44454c4554450000000000000000000000000000000000000000000000000000600082015250565b6000617555600683616c76565b91506175608261751f565b600682019050919050565b60006175778287616c5f565b6020820191506175878286617420565b6001820191506175978285617437565b6001820191506175a7828461744e565b6001820191506175b682617548565b915081905095945050505050565b60006175d08284617420565b60018201915081905092915050565b60006175eb8284617437565b60018201915081905092915050565b6000617606828461744e565b60018201915081905092915050565b7f44656c6574652000000000000000000000000000000000000000000000000000815250565b600061764682617615565b6007820191506176568287616d34565b91506176618261721d565b6001820191506176718286616d34565b915061767c8261721d565b60018201915061768c8285616d34565b91506176978261721d565b6001820191506176a78284616d34565b915081905095945050505050565b7f46697273746e616d652063616e6e6f7420626520656d70747900000000000000600082015250565b60006176eb6019836161e4565b91506176f6826176b5565b602082019050919050565b6000602082019050818103600083015261771a816176de565b9050919050565b7f4c6173746e616d652063616e6e6f7420626520656d7074790000000000000000600082015250565b60006177576018836161e4565b915061776282617721565b602082019050919050565b600060208201905081810360008301526177868161774a565b9050919050565b7f426972746864617465206d7573742062652067726561746572207468616e2030600082015250565b60006177c36020836161e4565b91506177ce8261778d565b602082019050919050565b600060208201905081810360008301526177f2816177b6565b9050919050565b7f546869732073747564656e7420616c7265616479206578697374730000000000600082015250565b600061782f601b836161e4565b915061783a826177f9565b602082019050919050565b6000602082019050818103600083015261785e81617822565b9050919050565b7f5468697320636572746966696361746520616c72656164792065786973747300600082015250565b600061789b601f836161e4565b91506178a682617865565b602082019050919050565b600060208201905081810360008301526178ca8161788e565b9050919050565b7f4345525449465900000000000000000000000000000000000000000000000000600082015250565b6000617907600783616c76565b9150617912826178d1565b600782019050919050565b60006179298287616c5f565b6020820191506179398286617420565b6001820191506179498285617437565b600182019150617959828461744e565b600182019150617968826178fa565b915081905095945050505050565b7f4365727469667920000000000000000000000000000000000000000000000000815250565b60006179a782617976565b6008820191506179b78287616d34565b91506179c28261721d565b6001820191506179d28286616d34565b91506179dd8261721d565b6001820191506179ed8285616d34565b91506179f88261721d565b600182019150617a088284616d34565b915081905095945050505050565b7f4e487b7100000000000000000000000000000000000000000000000000000000600052601260045260246000fd5b6000617a50826160fb565b9150617a5b836160fb565b925082617a6b57617a6a617a16565b5b828206905092915050565b6000617a81826160fb565b9150617a8c836160fb565b925082617a9c57617a9b617a16565b5b828204905092915050565b6000617ab2826160fb565b9150617abd836160fb565b9250828201905080821115617ad557617ad4616d9b565b5b92915050565b7f4d696e2000000000000000000000000000000000000000000000000000000000815250565b6000617b0c82617adb565b600482019150617b1c8284616d34565b9150617b2782616fc7565b60088201915081905092915050565b7f546869732061646472657373206973206e6f7420612000000000000000000000815250565b6000617b6782617b36565b601682019150617b778284616d34565b915081905092915050565b7f5245564f4b450000000000000000000000000000000000000000000000000000600082015250565b6000617bb8600683616c76565b9150617bc382617b82565b600682019050919050565b6000617bda8285617142565b601482019150617be982617bab565b9150617bf58284616f6f565b6020820191508190509392505050565b7f5265766f6b652000000000000000000000000000000000000000000000000000815250565b6000617c3682617c05565b600782019150617c468285616d34565b9150617c518261721d565b600182019150617c618284616d34565b91508190509392505050565b6000617c7882616d8b565b9150617c8383616d8b565b9250828203905063ffffffff811115617c9f57617c9e616d9b565b5b92915050565b6000617cb0826162bc565b9150617cbb836162bc565b9250828203905060ff811115617cd457617cd3616d9b565b5b92915050565b6000617ce5826160fb565b91507fffffffffffffffffffffffffffffffffffffffffffffffffffffffffffffffff8203617d1757617d16616d9b565b5b600182019050919050565b60008190508160005260206000209050919050565b60006020601f8301049050919050565b600082821b905092915050565b600060088302617d847fffffffffffffffffffffffffffffffffffffffffffffffffffffffffffffffff82617d47565b617d8e8683617d47565b95508019841693508086168417925050509392505050565b6000819050919050565b6000617dcb617dc6617dc1846160fb565b617da6565b6160fb565b9050919050565b6000819050919050565b617de583617db0565b617df9617df182617dd2565b848454617d54565b825550505050565b600090565b617e0e617e01565b617e19818484617ddc565b505050565b5b81811015617e3d57617e32600082617e06565b600181019050617e1f565b5050565b601f821115617e8257617e5381617d22565b617e5c84617d37565b81016020851015617e6b578190505b617e7f617e7785617d37565b830182617e1e565b50505b505050565b600082821c905092915050565b6000617ea560001984600802617e87565b1980831691505092915050565b6000617ebe8383617e94565b9150826002028217905092915050565b617ed7826161d9565b67ffffffffffffffff811115617ef057617eef61684c565b5b617efa8254616e36565b617f05828285617e41565b600060209050601f831160018114617f385760008415617f26578287015190505b617f308582617eb2565b865550617f98565b601f198416617f4686617d22565b60005b82811015617f6e57848901518255600182019150602085019450602081019050617f49565b86831015617f8b5784890151617f87601f891682617e94565b8355505b6001600288020188555050505b505050505050565b7f596f7520616c7265616479207369676e65642074686973206d756c7469736967600082015250565b6000617fd66020836161e4565b9150617fe182617fa0565b602082019050919050565b6000602082019050818103600083015261800581617fc9565b9050919050565b6000618017826162bc565b915060ff820361802a57618029616d9b565b5b600182019050919050565b6000618040826162bc565b915061804b836162bc565b9250828201905060ff81111561806457618063616d9b565b5b92915050565b7f596f752068617665206e6f7465207369676e65642074686973206d756c74697360008201527f6967207965740000000000000000000000000000000000000000000000000000602082015250565b60006180c66026836161e4565b91506180d18261806a565b604082019050919050565b600060208201905081810360008301526180f5816180b9565b9050919050565b7f4e487b7100000000000000000000000000000000000000000000000000000000600052603260045260246000fd5b7f53747564656e7420616c72656164792065786973747300000000000000000000600082015250565b60006181616016836161e4565b915061816c8261812b565b602082019050919050565b6000602082019050818103600083015261819081618154565b9050919050565b7f49642063616e2774206265203000000000000000000000000000000000000000600082015250565b60006181cd600d836161e4565b91506181d882618197565b602082019050919050565b600060208201905081810360008301526181fc816181c0565b9050919050565b600060808201905061821860008301876161ca565b6182256020830186616658565b61823260408301856166a0565b61823f60608301846166e8565b95945050505050565b7f53747564656e7420646f6573206e6f7420657869737400000000000000000000600082015250565b600061827e6016836161e4565b915061828982618248565b602082019050919050565b600060208201905081810360008301526182ad81618271565b9050919050565b600081546182c181616e36565b6182cb8186616c76565b945060018216600081146182e657600181146182fb5761832e565b60ff198316865281151582028601935061832e565b61830485617d22565b60005b8381101561832657815481890152600182019150602081019050618307565b838801955050505b50505092915050565b600061834382846182b4565b915081905092915050565b600061835a8284616d34565b915081905092915050565b50565b6000618375600083616c76565b915061838082618365565b600082019050919050565b600061839682618368565b9150819050919050565b7f416363657373436f6e74726f6c3a206163636f756e7420000000000000000000600082015250565b60006183d6601783616c76565b91506183e1826183a0565b601782019050919050565b7f206973206d697373696e6720726f6c6520000000000000000000000000000000600082015250565b6000618422601183616c76565b915061842d826183ec565b601182019050919050565b6000618443826183c9565b915061844f8285616d34565b915061845a82618415565b91506184668284616d34565b91508190509392505050565b600061847d826160fb565b9150618488836160fb565b9250828202618496816160fb565b915082820484148315176184ad576184ac616d9b565b5b5092915050565b60006184bf826160fb565b9150600082036184d2576184d1616d9b565b5b600182039050919050565b7f537472696e67733a20686578206c656e67746820696e73756666696369656e74600082015250565b60006185136020836161e4565b915061851e826184dd565b602082019050919050565b6000602082019050818103600083015261854281618506565b905091905056fea2646970667358221220135438759950cbc60a001065cbfafeed7df48106778d6f547e2f8e5270d8410264736f6c63430008130033",
  "linkReferences": {},
  "deployedLinkReferences": {}
}