{
  "_format": "hh-sol-artifact-1",
  "contractName": "Certifications",
  "sourceName": "contracts/Certifications.sol",
  "abi": [
    {
      "inputs": [
        {
          "internalType": "address",
          "name": "certifier_admin1",
          "type": "address"
        },
        {
          "internalType": "address",
          "name": "certifier_admin2",
          "type": "address"
        }
      ],
      "stateMutability": "nonpayable",
      "type": "constructor"
    },
    {
      "anonymous": false,
      "inputs": [
        {
          "indexed": true,
          "internalType": "bytes32",
          "name": "role",
          "type": "bytes32"
        },
        {
          "indexed": true,
          "internalType": "bytes32",
          "name": "previousAdminRole",
          "type": "bytes32"
        },
        {
          "indexed": true,
          "internalType": "bytes32",
          "name": "newAdminRole",
          "type": "bytes32"
        }
      ],
      "name": "RoleAdminChanged",
      "type": "event"
    },
    {
      "anonymous": false,
      "inputs": [
        {
          "indexed": true,
          "internalType": "bytes32",
          "name": "role",
          "type": "bytes32"
        },
        {
          "indexed": true,
          "internalType": "address",
          "name": "account",
          "type": "address"
        },
        {
          "indexed": true,
          "internalType": "address",
          "name": "sender",
          "type": "address"
        }
      ],
      "name": "RoleGranted",
      "type": "event"
    },
    {
      "anonymous": false,
      "inputs": [
        {
          "indexed": true,
          "internalType": "bytes32",
          "name": "role",
          "type": "bytes32"
        },
        {
          "indexed": true,
          "internalType": "address",
          "name": "account",
          "type": "address"
        },
        {
          "indexed": true,
          "internalType": "address",
          "name": "sender",
          "type": "address"
        }
      ],
      "name": "RoleRevoked",
      "type": "event"
    },
    {
      "anonymous": false,
      "inputs": [
        {
          "indexed": false,
          "internalType": "uint256",
          "name": "id",
          "type": "uint256"
        },
        {
          "indexed": false,
          "internalType": "string",
          "name": "firstname",
          "type": "string"
        },
        {
          "indexed": false,
          "internalType": "string",
          "name": "lastname",
          "type": "string"
        },
        {
          "indexed": false,
          "internalType": "uint256",
          "name": "birthdate",
          "type": "uint256"
        }
      ],
      "name": "StudentAdded",
      "type": "event"
    },
    {
      "anonymous": false,
      "inputs": [
        {
          "indexed": false,
          "internalType": "uint256",
          "name": "id",
          "type": "uint256"
        }
      ],
      "name": "StudentDeleted",
      "type": "event"
    },
    {
      "anonymous": false,
      "inputs": [
        {
          "indexed": false,
          "internalType": "uint256",
          "name": "id",
          "type": "uint256"
        },
        {
          "indexed": false,
          "internalType": "string",
          "name": "firstname",
          "type": "string"
        },
        {
          "indexed": false,
          "internalType": "string",
          "name": "lastname",
          "type": "string"
        },
        {
          "indexed": false,
          "internalType": "uint256",
          "name": "birthdate",
          "type": "uint256"
        }
      ],
      "name": "StudentEdited",
      "type": "event"
    },
    {
      "anonymous": false,
      "inputs": [
        {
          "indexed": false,
          "internalType": "uint256",
          "name": "studentId",
          "type": "uint256"
        },
        {
          "indexed": false,
          "internalType": "enum Certifications.appreciation",
          "name": "appreciation",
          "type": "uint8"
        },
        {
          "indexed": false,
          "internalType": "enum Certifications.degree",
          "name": "degree",
          "type": "uint8"
        },
        {
          "indexed": false,
          "internalType": "enum Certifications.program",
          "name": "program",
          "type": "uint8"
        }
      ],
      "name": "certificationEmited",
      "type": "event"
    },
    {
      "anonymous": false,
      "inputs": [
        {
          "indexed": false,
          "internalType": "bytes32",
          "name": "multiSigName",
          "type": "bytes32"
        }
      ],
      "name": "multiSigCleared",
      "type": "event"
    },
    {
      "anonymous": false,
      "inputs": [
        {
          "indexed": false,
          "internalType": "bytes32",
          "name": "multiSigName",
          "type": "bytes32"
        }
      ],
      "name": "multiSigSigned",
      "type": "event"
    },
    {
      "inputs": [],
      "name": "CERTIFIER",
      "outputs": [
        {
          "internalType": "bytes32",
          "name": "",
          "type": "bytes32"
        }
      ],
      "stateMutability": "view",
      "type": "function"
    },
    {
      "inputs": [],
      "name": "CERTIFIER_ADMIN",
      "outputs": [
        {
          "internalType": "bytes32",
          "name": "",
          "type": "bytes32"
        }
      ],
      "stateMutability": "view",
      "type": "function"
    },
    {
      "inputs": [],
      "name": "DEFAULT_ADMIN_ROLE",
      "outputs": [
        {
          "internalType": "bytes32",
          "name": "",
          "type": "bytes32"
        }
      ],
      "stateMutability": "view",
      "type": "function"
    },
    {
      "inputs": [],
      "name": "MAX_CERTIFIERS",
      "outputs": [
        {
          "internalType": "uint8",
          "name": "",
          "type": "uint8"
        }
      ],
      "stateMutability": "view",
      "type": "function"
    },
    {
      "inputs": [],
      "name": "MAX_CERTIFIERS_ADMIN",
      "outputs": [
        {
          "internalType": "uint8",
          "name": "",
          "type": "uint8"
        }
      ],
      "stateMutability": "view",
      "type": "function"
    },
    {
      "inputs": [],
      "name": "MIN_CERTIFIERS_ADMIN",
      "outputs": [
        {
          "internalType": "uint8",
          "name": "",
          "type": "uint8"
        }
      ],
      "stateMutability": "view",
      "type": "function"
    },
    {
      "inputs": [],
      "name": "PERCENT_TO_CERTIFY",
      "outputs": [
        {
          "internalType": "uint8",
          "name": "",
          "type": "uint8"
        }
      ],
      "stateMutability": "view",
      "type": "function"
    },
    {
      "inputs": [],
      "name": "PERCENT_TO_DELETE_STUDENT",
      "outputs": [
        {
          "internalType": "uint8",
          "name": "",
          "type": "uint8"
        }
      ],
      "stateMutability": "view",
      "type": "function"
    },
    {
      "inputs": [],
      "name": "PERCENT_TO_EDIT_CERTIFICATE",
      "outputs": [
        {
          "internalType": "uint8",
          "name": "",
          "type": "uint8"
        }
      ],
      "stateMutability": "view",
      "type": "function"
    },
    {
      "inputs": [],
      "name": "PERCENT_TO_GRANT_CERTIFIER",
      "outputs": [
        {
          "internalType": "uint8",
          "name": "",
          "type": "uint8"
        }
      ],
      "stateMutability": "view",
      "type": "function"
    },
    {
      "inputs": [],
      "name": "PERCENT_TO_GRANT_CERTIFIER_ADMIN",
      "outputs": [
        {
          "internalType": "uint8",
          "name": "",
          "type": "uint8"
        }
      ],
      "stateMutability": "view",
      "type": "function"
    },
    {
      "inputs": [],
      "name": "PERCENT_TO_REVOKE_CERTIFIER",
      "outputs": [
        {
          "internalType": "uint8",
          "name": "",
          "type": "uint8"
        }
      ],
      "stateMutability": "view",
      "type": "function"
    },
    {
      "inputs": [],
      "name": "PERCENT_TO_REVOKE_CERTIFIER_ADMIN",
      "outputs": [
        {
          "internalType": "uint8",
          "name": "",
          "type": "uint8"
        }
      ],
      "stateMutability": "view",
      "type": "function"
    },
    {
      "inputs": [
        {
          "internalType": "uint256",
          "name": "a",
          "type": "uint256"
        },
        {
          "internalType": "uint256",
          "name": "b",
          "type": "uint256"
        }
      ],
      "name": "ceilUDiv",
      "outputs": [
        {
          "internalType": "uint256",
          "name": "",
          "type": "uint256"
        }
      ],
      "stateMutability": "pure",
      "type": "function"
    },
    {
      "inputs": [
        {
          "internalType": "bytes32",
          "name": "",
          "type": "bytes32"
        }
      ],
      "name": "certificates",
      "outputs": [
        {
          "internalType": "enum Certifications.appreciation",
          "name": "appreciation",
          "type": "uint8"
        },
        {
          "internalType": "enum Certifications.degree",
          "name": "degree",
          "type": "uint8"
        },
        {
          "internalType": "enum Certifications.program",
          "name": "program",
          "type": "uint8"
        },
        {
          "internalType": "uint256",
          "name": "creation_date",
          "type": "uint256"
        },
        {
          "internalType": "bool",
          "name": "validity",
          "type": "bool"
        },
        {
          "internalType": "uint256",
          "name": "stud_id",
          "type": "uint256"
        }
      ],
      "stateMutability": "view",
      "type": "function"
    },
    {
      "inputs": [
        {
          "internalType": "uint256",
          "name": "studentId",
          "type": "uint256"
        },
        {
          "internalType": "enum Certifications.appreciation",
          "name": "app",
          "type": "uint8"
        },
        {
          "internalType": "enum Certifications.degree",
          "name": "deg",
          "type": "uint8"
        },
        {
          "internalType": "enum Certifications.program",
          "name": "prog",
          "type": "uint8"
        },
        {
          "internalType": "bool",
          "name": "approve",
          "type": "bool"
        }
      ],
      "name": "certify",
      "outputs": [],
      "stateMutability": "nonpayable",
      "type": "function"
    },
    {
      "inputs": [
        {
          "internalType": "uint256",
          "name": "_id",
          "type": "uint256"
        },
        {
          "internalType": "string",
          "name": "_firstname",
          "type": "string"
        },
        {
          "internalType": "string",
          "name": "_lastname",
          "type": "string"
        },
        {
          "internalType": "uint256",
          "name": "_birthdate",
          "type": "uint256"
        }
      ],
      "name": "createStudent",
      "outputs": [],
      "stateMutability": "nonpayable",
      "type": "function"
    },
    {
      "inputs": [
        {
          "internalType": "uint256",
          "name": "studentId",
          "type": "uint256"
        },
        {
          "internalType": "enum Certifications.appreciation",
          "name": "app",
          "type": "uint8"
        },
        {
          "internalType": "enum Certifications.degree",
          "name": "deg",
          "type": "uint8"
        },
        {
          "internalType": "enum Certifications.program",
          "name": "prog",
          "type": "uint8"
        },
        {
          "internalType": "bool",
          "name": "approve",
          "type": "bool"
        }
      ],
      "name": "deleteCertificate",
      "outputs": [],
      "stateMutability": "nonpayable",
      "type": "function"
    },
    {
      "inputs": [
        {
          "internalType": "uint256",
          "name": "_id",
          "type": "uint256"
        },
        {
          "internalType": "string",
          "name": "_firstname",
          "type": "string"
        },
        {
          "internalType": "string",
          "name": "_lastname",
          "type": "string"
        },
        {
          "internalType": "uint256",
          "name": "_birthdate",
          "type": "uint256"
        }
      ],
      "name": "editStudentById",
      "outputs": [],
      "stateMutability": "nonpayable",
      "type": "function"
    },
    {
      "inputs": [
        {
          "internalType": "bytes32",
          "name": "role",
          "type": "bytes32"
        }
      ],
      "name": "getRoleAdmin",
      "outputs": [
        {
          "internalType": "bytes32",
          "name": "",
          "type": "bytes32"
        }
      ],
      "stateMutability": "view",
      "type": "function"
    },
    {
      "inputs": [
        {
          "internalType": "uint256",
          "name": "_id",
          "type": "uint256"
        }
      ],
      "name": "getStudent",
      "outputs": [
        {
          "components": [
            {
              "internalType": "uint256",
              "name": "id",
              "type": "uint256"
            },
            {
              "internalType": "string",
              "name": "firstname",
              "type": "string"
            },
            {
              "internalType": "string",
              "name": "lastname",
              "type": "string"
            },
            {
              "internalType": "uint256",
              "name": "birthdate",
              "type": "uint256"
            }
          ],
          "internalType": "struct Students.Student",
          "name": "",
          "type": "tuple"
        }
      ],
      "stateMutability": "view",
      "type": "function"
    },
    {
      "inputs": [
        {
          "internalType": "bytes32",
          "name": "roleHash",
          "type": "bytes32"
        },
        {
          "internalType": "address",
          "name": "target",
          "type": "address"
        },
        {
          "internalType": "bool",
          "name": "approve",
          "type": "bool"
        }
      ],
      "name": "grantAnyRole",
      "outputs": [],
      "stateMutability": "nonpayable",
      "type": "function"
    },
    {
      "inputs": [
        {
          "internalType": "bytes32",
          "name": "role",
          "type": "bytes32"
        },
        {
          "internalType": "address",
          "name": "account",
          "type": "address"
        }
      ],
      "name": "grantRole",
      "outputs": [],
      "stateMutability": "nonpayable",
      "type": "function"
    },
    {
      "inputs": [
        {
          "internalType": "bytes32",
          "name": "role",
          "type": "bytes32"
        },
        {
          "internalType": "address",
          "name": "account",
          "type": "address"
        }
      ],
      "name": "hasRole",
      "outputs": [
        {
          "internalType": "bool",
          "name": "",
          "type": "bool"
        }
      ],
      "stateMutability": "view",
      "type": "function"
    },
    {
      "inputs": [
        {
          "internalType": "bytes32",
          "name": "",
          "type": "bytes32"
        }
      ],
      "name": "multiSig",
      "outputs": [
        {
          "internalType": "bool",
          "name": "created",
          "type": "bool"
        },
        {
          "internalType": "bytes32",
          "name": "role",
          "type": "bytes32"
        },
        {
          "internalType": "uint8",
          "name": "count",
          "type": "uint8"
        },
        {
          "internalType": "uint8",
          "name": "id",
          "type": "uint8"
        },
        {
          "internalType": "string",
          "name": "info",
          "type": "string"
        }
      ],
      "stateMutability": "view",
      "type": "function"
    },
    {
      "inputs": [
        {
          "internalType": "uint256",
          "name": "",
          "type": "uint256"
        }
      ],
      "name": "multiSigId",
      "outputs": [
        {
          "internalType": "bytes32",
          "name": "",
          "type": "bytes32"
        }
      ],
      "stateMutability": "view",
      "type": "function"
    },
    {
      "inputs": [
        {
          "internalType": "uint256",
          "name": "_id",
          "type": "uint256"
        },
        {
          "internalType": "bool",
          "name": "_approve",
          "type": "bool"
        }
      ],
      "name": "removeStudentById",
      "outputs": [],
      "stateMutability": "nonpayable",
      "type": "function"
    },
    {
      "inputs": [
        {
          "internalType": "bytes32",
          "name": "",
          "type": "bytes32"
        },
        {
          "internalType": "address",
          "name": "",
          "type": "address"
        }
      ],
      "name": "renounceRole",
      "outputs": [],
      "stateMutability": "nonpayable",
      "type": "function"
    },
    {
      "inputs": [
        {
          "internalType": "bytes32",
          "name": "roleHash",
          "type": "bytes32"
        },
        {
          "internalType": "address",
          "name": "target",
          "type": "address"
        },
        {
          "internalType": "bool",
          "name": "approve",
          "type": "bool"
        }
      ],
      "name": "revokeAnyRole",
      "outputs": [],
      "stateMutability": "nonpayable",
      "type": "function"
    },
    {
      "inputs": [
        {
          "internalType": "bytes32",
          "name": "role",
          "type": "bytes32"
        },
        {
          "internalType": "address",
          "name": "account",
          "type": "address"
        }
      ],
      "name": "revokeRole",
      "outputs": [],
      "stateMutability": "nonpayable",
      "type": "function"
    },
    {
      "inputs": [
        {
          "internalType": "uint256",
          "name": "",
          "type": "uint256"
        }
      ],
      "name": "students",
      "outputs": [
        {
          "internalType": "uint256",
          "name": "id",
          "type": "uint256"
        },
        {
          "internalType": "string",
          "name": "firstname",
          "type": "string"
        },
        {
          "internalType": "string",
          "name": "lastname",
          "type": "string"
        },
        {
          "internalType": "uint256",
          "name": "birthdate",
          "type": "uint256"
        }
      ],
      "stateMutability": "view",
      "type": "function"
    },
    {
      "inputs": [
        {
          "internalType": "bytes4",
          "name": "interfaceId",
          "type": "bytes4"
        }
      ],
      "name": "supportsInterface",
      "outputs": [
        {
          "internalType": "bool",
          "name": "",
          "type": "bool"
        }
      ],
      "stateMutability": "view",
      "type": "function"
    }
  ],
  "bytecode": "0x60806040523480156200001157600080fd5b5060405162008ba238038062008ba283398181016040528101906200003791906200099c565b62000053674346da88ac06a84360c01b620007b660201b60201c565b6200006f6739aba34486adf0da60c01b620007b660201b60201c565b6200008b670a6059053a04f96460c01b620007b660201b60201c565b620000a767ae953caa734ab3b060c01b620007b660201b60201c565b600073ffffffffffffffffffffffffffffffffffffffff168273ffffffffffffffffffffffffffffffffffffffff160362000119576040517f08c379a0000000000000000000000000000000000000000000000000000000008152600401620001109062000a6a565b60405180910390fd5b6200013567f5900fc41a1b03e060c01b620007b660201b60201c565b62000151678f048ba93c318bdf60c01b620007b660201b60201c565b6200016d67eabba9f8cd63b62060c01b620007b660201b60201c565b6200018967a6b100261d7ca0a160c01b620007b660201b60201c565b600073ffffffffffffffffffffffffffffffffffffffff168173ffffffffffffffffffffffffffffffffffffffff1603620001fb576040517f08c379a0000000000000000000000000000000000000000000000000000000008152600401620001f29062000b02565b60405180910390fd5b62000217677c8571a546cd703b60c01b620007b660201b60201c565b62000233676174d0f42c37649a60c01b620007b660201b60201c565b6200024f672212cda1dcb9ea1260c01b620007b660201b60201c565b6200026b67a83a11a74eb277ae60c01b620007b660201b60201c565b8073ffffffffffffffffffffffffffffffffffffffff168273ffffffffffffffffffffffffffffffffffffffff1603620002dc576040517f08c379a0000000000000000000000000000000000000000000000000000000008152600401620002d39062000b9a565b60405180910390fd5b620002f86706ddd2fa1476c45260c01b620007b660201b60201c565b6200031467476c17a0b8385f1760c01b620007b660201b60201c565b62000330671c07e5a9226be91660c01b620007b660201b60201c565b620003627f4bbeb6fd3e5222e55f2f8b0c35bc228e0a06a25d0da772fdb02c3b92fa004f8883620007b960201b60201c565b6200037e6707862d5c1055513b60c01b620007b660201b60201c565b6200039a6792f115933ddba31c60c01b620007b660201b60201c565b620003cc7f4bbeb6fd3e5222e55f2f8b0c35bc228e0a06a25d0da772fdb02c3b92fa004f8882620007cf60201b60201c565b620003e867f700b95d536177f360c01b620007b660201b60201c565b6040518060e00160405280600263ffffffff168152602001600260ff1663ffffffff168152602001600f60ff1663ffffffff168152602001605060ff168152602001605060ff1681526020017f4bbeb6fd3e5222e55f2f8b0c35bc228e0a06a25d0da772fdb02c3b92fa004f8881526020016040516020016200046b9062000c17565b604051602081830303815290604052620004859062000c77565b815250600260007f4bbeb6fd3e5222e55f2f8b0c35bc228e0a06a25d0da772fdb02c3b92fa004f88815260200190815260200160002060008201518160000160006101000a81548163ffffffff021916908363ffffffff16021790555060208201518160000160046101000a81548163ffffffff021916908363ffffffff16021790555060408201518160000160086101000a81548163ffffffff021916908363ffffffff160217905550606082015181600001600c6101000a81548160ff021916908360ff160217905550608082015181600001600d6101000a81548160ff021916908360ff16021790555060a0820151816001015560c08201518160020155905050620005a56782a82f6f1bd2c11660c01b620007b660201b60201c565b620005c1672e2eef9c059dc20760c01b620007b660201b60201c565b620005f47fd646ae07eb0d0f77457502a65e7407930dff4cd4fd99abc6aac87a753f4c8a426000620007b960201b60201c565b62000610672071df197b17f30b60c01b620007b660201b60201c565b6040518060e00160405280600063ffffffff168152602001600063ffffffff168152602001600f60ff1663ffffffff168152602001605060ff168152602001605060ff1681526020017f4bbeb6fd3e5222e55f2f8b0c35bc228e0a06a25d0da772fdb02c3b92fa004f888152602001604051602001620006909062000d37565b604051602081830303815290604052620006aa9062000c77565b815250600260007fd646ae07eb0d0f77457502a65e7407930dff4cd4fd99abc6aac87a753f4c8a42815260200190815260200160002060008201518160000160006101000a81548163ffffffff021916908363ffffffff16021790555060208201518160000160046101000a81548163ffffffff021916908363ffffffff16021790555060408201518160000160086101000a81548163ffffffff021916908363ffffffff160217905550606082015181600001600c6101000a81548160ff021916908360ff160217905550608082015181600001600d6101000a81548160ff021916908360ff16021790555060a0820151816001015560c08201518160020155905050505062000d4e565b50565b620007cb8282620007cf60201b60201c565b5050565b620007e18282620008c060201b60201c565b620008bc57600160008084815260200190815260200160002060000160008373ffffffffffffffffffffffffffffffffffffffff1673ffffffffffffffffffffffffffffffffffffffff16815260200190815260200160002060006101000a81548160ff021916908315150217905550620008616200092a60201b60201c565b73ffffffffffffffffffffffffffffffffffffffff168173ffffffffffffffffffffffffffffffffffffffff16837f2f8788117e7eff1d82e926ec794901d17c78024a50270940304540a733656f0d60405160405180910390a45b5050565b600080600084815260200190815260200160002060000160008373ffffffffffffffffffffffffffffffffffffffff1673ffffffffffffffffffffffffffffffffffffffff16815260200190815260200160002060009054906101000a900460ff16905092915050565b600033905090565b600080fd5b600073ffffffffffffffffffffffffffffffffffffffff82169050919050565b6000620009648262000937565b9050919050565b620009768162000957565b81146200098257600080fd5b50565b60008151905062000996816200096b565b92915050565b60008060408385031215620009b657620009b562000932565b5b6000620009c68582860162000985565b9250506020620009d98582860162000985565b9150509250929050565b600082825260208201905092915050565b7f4365727469666965722061646d696e3120616464726573732063616e6e6f742060008201527f6265203000000000000000000000000000000000000000000000000000000000602082015250565b600062000a52602483620009e3565b915062000a5f82620009f4565b604082019050919050565b6000602082019050818103600083015262000a858162000a43565b9050919050565b7f4365727469666965722061646d696e3220616464726573732063616e6e6f742060008201527f6265203000000000000000000000000000000000000000000000000000000000602082015250565b600062000aea602483620009e3565b915062000af78262000a8c565b604082019050919050565b6000602082019050818103600083015262000b1d8162000adb565b9050919050565b7f436572746966696572206164647265737365732063616e6e6f7420626520746860008201527f652073616d650000000000000000000000000000000000000000000000000000602082015250565b600062000b82602683620009e3565b915062000b8f8262000b24565b604082019050919050565b6000602082019050818103600083015262000bb58162000b73565b9050919050565b600081905092915050565b7f4345525449464945525f41444d494e0000000000000000000000000000000000600082015250565b600062000bff600f8362000bbc565b915062000c0c8262000bc7565b600f82019050919050565b600062000c248262000bf0565b9150819050919050565b600081519050919050565b6000819050602082019050919050565b6000819050919050565b600062000c61825162000c49565b80915050919050565b600082821b905092915050565b600062000c848262000c2e565b8262000c908462000c39565b905062000c9d8162000c53565b9250602082101562000ce05762000cdb7fffffffffffffffffffffffffffffffffffffffffffffffffffffffffffffffff8360200360080262000c6a565b831692505b5050919050565b7f4345525449464945520000000000000000000000000000000000000000000000600082015250565b600062000d1f60098362000bbc565b915062000d2c8262000ce7565b600982019050919050565b600062000d448262000d10565b9150819050919050565b617e448062000d5e6000396000f3fe608060405234801561001057600080fd5b50600436106101f05760003560e01c8063742f06881161010f578063ace81910116100a2578063d0fb68c711610071578063d0fb68c7146105db578063d3243ad8146105f9578063d547741f14610615578063e05f2fb414610631576101f0565b8063ace8191014610555578063b86bc74f14610571578063bf8020911461058f578063c9dbcfda146105bf576101f0565b80639dd09a73116100de5780639dd09a73146104cd5780639e339909146104fd578063a1cebf521461051b578063a217fddf14610537576101f0565b8063742f06881461042e5780637cd29fb7146104635780638856a0e91461048157806391d148541461049d576101f0565b80632f2ff15d116101875780635907ebea116101565780635907ebea146103a6578063642f9163146103c45780636bc6421b146103f4578063719129be14610412576101f0565b80632f2ff15d1461033257806333b72e491461034e57806336568abe1461036c5780634da11a2014610388576101f0565b80631a968069116101c35780631a968069146102925780631a9cfe28146102c6578063248a9ca3146102e45780632cd94e4f14610314576101f0565b806301ffc9a7146101f557806305f84d451461022557806306ead22e146102415780630f68794a14610274575b600080fd5b61020f600480360381019061020a9190615b15565b61064f565b60405161021c9190615b5d565b60405180910390f35b61023f600480360381019061023a9190615bda565b6106c9565b005b61025b60048036038101906102569190615c1a565b610dd6565b60405161026b9493929190615ce6565b60405180910390f35b61027c610f16565b6040516102899190615d55565b60405180910390f35b6102ac60048036038101906102a79190615da6565b610f1b565b6040516102bd959493929190615de2565b60405180910390f35b6102ce611000565b6040516102db9190615d55565b60405180910390f35b6102fe60048036038101906102f99190615da6565b611005565b60405161030b9190615e3c565b60405180910390f35b61031c611024565b6040516103299190615d55565b60405180910390f35b61034c60048036038101906103479190615eb5565b611029565b005b61035661104a565b6040516103639190615d55565b60405180910390f35b61038660048036038101906103819190615eb5565b61104f565b005b6103906110c6565b60405161039d9190615d55565b60405180910390f35b6103ae6110cb565b6040516103bb9190615d55565b60405180910390f35b6103de60048036038101906103d99190615c1a565b6110d0565b6040516103eb9190615fb8565b60405180910390f35b6103fc61131a565b6040516104099190615d55565b60405180910390f35b61042c60048036038101906104279190615fda565b61131f565b005b61044860048036038101906104439190615da6565b611ba3565b60405161045a96959493929190616134565b60405180910390f35b61046b611c13565b6040516104789190615d55565b60405180910390f35b61049b60048036038101906104969190616204565b611c18565b005b6104b760048036038101906104b29190615eb5565b6126da565b6040516104c49190615b5d565b60405180910390f35b6104e760048036038101906104e29190615c1a565b612744565b6040516104f49190615e3c565b60405180910390f35b61050561275c565b6040516105129190615d55565b60405180910390f35b610535600480360381019061053091906163b4565b612761565b005b61053f612b5f565b60405161054c9190615e3c565b60405180910390f35b61056f600480360381019061056a9190616204565b612b66565b005b6105796135ed565b6040516105869190615e3c565b60405180910390f35b6105a960048036038101906105a49190616453565b613611565b6040516105b69190616493565b60405180910390f35b6105d960048036038101906105d491906163b4565b61370e565b005b6105e3613951565b6040516105f09190615d55565b60405180910390f35b610613600480360381019061060e9190615fda565b613956565b005b61062f600480360381019061062a9190615eb5565b61451a565b005b61063961453b565b6040516106469190615e3c565b60405180910390f35b60007f7965db0b000000000000000000000000000000000000000000000000000000007bffffffffffffffffffffffffffffffffffffffffffffffffffffffff1916827bffffffffffffffffffffffffffffffffffffffffffffffffffffffff191614806106c257506106c18261455f565b5b9050919050565b6106dd676ae93f6bf114c2f760c01b6145c9565b6106f1677a7ed0c4e584401460c01b6145c9565b6107056745d4f9869d13660b60c01b6145c9565b610719671cbdd7add0b2dd5c60c01b6145c9565b6107437fd646ae07eb0d0f77457502a65e7407930dff4cd4fd99abc6aac87a753f4c8a42336126da565b610782576040517f08c379a0000000000000000000000000000000000000000000000000000000008152600401610779906164fa565b60405180910390fd5b61079667f2a3b9ba0bc2281e60c01b6145c9565b6107aa679859be0913bc1e1760c01b6145c9565b6107be678f5912fc196c66fb60c01b6145c9565b6107d267d451ad32aab430b860c01b6145c9565b60008211610815576040517f08c379a000000000000000000000000000000000000000000000000000000000815260040161080c90616566565b60405180910390fd5b610829672f872260ec70aa8060c01b6145c9565b61083d67e28d98831e470a0e60c01b6145c9565b6108516770e61a765dfb20aa60c01b6145c9565b6108656768c3bd0af40a1b5d60c01b6145c9565b60006001600084815260200190815260200160002060000154036108be576040517f08c379a00000000000000000000000000000000000000000000000000000000081526004016108b5906165d2565b60405180910390fd5b6108d2672bc4242ebebe428960c01b6145c9565b6108e667e87324c8c42b714760c01b6145c9565b6108fa672c4d7d6a241e4b8960c01b6145c9565b60008260405160200161090d919061666a565b60405160208183030381529060405280519060200120905061093967f2f486595854747960c01b6145c9565b61094d678e01888c80102d3760c01b6145c9565b6109b6817fd646ae07eb0d0f77457502a65e7407930dff4cd4fd99abc6aac87a753f4c8a42856040516020016109839190616690565b6040516020818303038152906040526040516020016109a29190616702565b6040516020818303038152906040526145cc565b6109ca67bc51f865c49130a860c01b6145c9565b6109de67f8b6ac0350413cde60c01b6145c9565b818015610a4f5750600015156003600083815260200190815260200160002060030160003373ffffffffffffffffffffffffffffffffffffffff1673ffffffffffffffffffffffffffffffffffffffff16815260200190815260200160002060009054906101000a900460ff161515145b15610b1057610a68674f5571dc82a8340f60c01b6145c9565b610a7c67df20ef43cd86120a60c01b6145c9565b610a9067f9332553eceb56d860c01b6145c9565b610aac6003600083815260200190815260200160002033614770565b610ac0677d4cea3f8d4622d560c01b6145c9565b610ad467eb262170ab108a0360c01b6145c9565b7fb431a69783a2491a0c400ff16dab32cd442abf8fe5af63a526a7248d730192f881604051610b039190615e3c565b60405180910390a1610c16565b610b2467978f6ecc8f60681960c01b6145c9565b610b3867d61646692ed40d1060c01b6145c9565b6000151582151503610c0057610b5867281f41604962ef6360c01b6145c9565b610b6c6701dc47e9dc7e2d4960c01b6145c9565b610b8067e00c6e3f0d9a678b60c01b6145c9565b610b9c60036000838152602001908152602001600020336149f2565b610bb067211496b55cb50cff60c01b6145c9565b610bc467fa27c246eee8a08b60c01b6145c9565b7fb431a69783a2491a0c400ff16dab32cd442abf8fe5af63a526a7248d730192f881604051610bf39190615e3c565b60405180910390a1610c15565b610c1467ba7a7d4f3ff1ed8260c01b6145c9565b5b5b610c2a6719a84e662ed6d2e460c01b6145c9565b610c3e67553b9ae776c1ac0760c01b6145c9565b610ca4605060ff16600260007fd646ae07eb0d0f77457502a65e7407930dff4cd4fd99abc6aac87a753f4c8a42815260200190815260200160002060000160009054906101000a900463ffffffff16610c979190616767565b63ffffffff166064613611565b6003600083815260200190815260200160002060020160009054906101000a900460ff1660ff1610610dbc57610ce46776e3a440f346f78b60c01b6145c9565b610cf8672fe19dd197ae71b760c01b6145c9565b610d0c674dadad20973e5e5d60c01b6145c9565b610d2760036000838152602001908152602001600020614baa565b610d3b67dcfd845b2fe814ee60c01b6145c9565b610d4f6787c8ea0feda3ada560c01b6145c9565b7f562618dbcf74b61ae5b0f229fe40ba6d5b6ae6b4248f8c89a870dda7c77135f681604051610d7e9190615e3c565b60405180910390a1610d9a67124f1dad53c69bc560c01b6145c9565b610dae676e8d3572b8c8ba0b60c01b6145c9565b610db783614cf7565b610dd1565b610dd067ec4e2bcd0646233360c01b6145c9565b5b505050565b6001602052806000526040600020600091509050806000015490806001018054610dff906167d3565b80601f0160208091040260200160405190810160405280929190818152602001828054610e2b906167d3565b8015610e785780601f10610e4d57610100808354040283529160200191610e78565b820191906000526020600020905b815481529060010190602001808311610e5b57829003601f168201915b505050505090806002018054610e8d906167d3565b80601f0160208091040260200160405190810160405280929190818152602001828054610eb9906167d3565b8015610f065780601f10610edb57610100808354040283529160200191610f06565b820191906000526020600020905b815481529060010190602001808311610ee957829003601f168201915b5050505050908060030154905084565b605081565b60036020528060005260406000206000915090508060000160009054906101000a900460ff16908060010154908060020160009054906101000a900460ff16908060020160019054906101000a900460ff1690806005018054610f7d906167d3565b80601f0160208091040260200160405190810160405280929190818152602001828054610fa9906167d3565b8015610ff65780601f10610fcb57610100808354040283529160200191610ff6565b820191906000526020600020905b815481529060010190602001808311610fd957829003601f168201915b5050505050905085565b605081565b6000806000838152602001908152602001600020600101549050919050565b605081565b61103282611005565b61103b81614dc7565b6110458383614ddb565b505050565b600281565b61106367515d414290ef63a760c01b6145c9565b61107767408d4005470649cf60c01b6145c9565b61108b679c54a3cc10a34a3d60c01b6145c9565b6040517f08c379a00000000000000000000000000000000000000000000000000000000081526004016110bd90616876565b60405180910390fd5b605081565b600f81565b6110d8615a24565b6110ec67fb7138474997668360c01b614ebb565b61110067cabf37fb9b0fe09360c01b614ebb565b611114678f0d48f9169a161c60c01b614ebb565b611128676f1c6119a0e8189b60c01b614ebb565b6000600160008481526020019081526020016000206000015403611181576040517f08c379a0000000000000000000000000000000000000000000000000000000008152600401611178906168e2565b60405180910390fd5b611195671efbc114ca82ba3a60c01b614ebb565b6111a967b5e10ccf1dfb2cbf60c01b614ebb565b6111bd6724af5e47dd5e209b60c01b614ebb565b60016000838152602001908152602001600020604051806080016040529081600082015481526020016001820180546111f5906167d3565b80601f0160208091040260200160405190810160405280929190818152602001828054611221906167d3565b801561126e5780601f106112435761010080835404028352916020019161126e565b820191906000526020600020905b81548152906001019060200180831161125157829003601f168201915b50505050508152602001600282018054611287906167d3565b80601f01602080910402602001604051908101604052809291908181526020018280546112b3906167d3565b80156113005780601f106112d557610100808354040283529160200191611300565b820191906000526020600020905b8154815290600101906020018083116112e357829003601f168201915b505050505081526020016003820154815250509050919050565b603381565b6113336735dc9d0c045e8dea60c01b6145c9565b61134767b7dbf79ddba2cab760c01b6145c9565b61135b67825657e0d56be41860c01b6145c9565b600060026000858152602001908152602001600020905061138667dad7eba3d5ea0fc560c01b6145c9565b61139a673d21f2ecda879ac760c01b6145c9565b6113ae67febe2105280dea4660c01b6145c9565b8060000160009054906101000a900463ffffffff1663ffffffff168160000160089054906101000a900463ffffffff1663ffffffff161181600201546040516020016113fa9190616923565b604051602081830303815290604052604051602001611419919061698a565b60405160208183030381529060405290611469576040517f08c379a000000000000000000000000000000000000000000000000000000000815260040161146091906169bf565b60405180910390fd5b5061147e67198f1e6710f1936360c01b6145c9565b6114926708fddfcc5363932f60c01b6145c9565b6114a667ee4a48e3db8a324560c01b6145c9565b6114ba6785550dfb5a2fa17e60c01b6145c9565b6114c88160010154336126da565b81600201546040516020016114dd9190616923565b6040516020818303038152906040526040516020016114fc9190616a2d565b6040516020818303038152906040529061154c576040517f08c379a000000000000000000000000000000000000000000000000000000000815260040161154391906169bf565b60405180910390fd5b5061156167987f0dd0903d99a060c01b6145c9565b6115756765417f529339629360c01b6145c9565b611589671a036548b9454efa60c01b6145c9565b61159d678a81a5a89e7249f260c01b6145c9565b600015156115ab85856126da565b15151481600201546040516020016115c39190616923565b6040516020818303038152906040526040516020016115e29190616a88565b60405160208183030381529060405290611632576040517f08c379a000000000000000000000000000000000000000000000000000000000815260040161162991906169bf565b60405180910390fd5b506116476704fadf5af7278b0460c01b6145c9565b61165b67a15a5378dc28021c60c01b6145c9565b61166f6721fc27606240057c60c01b6145c9565b60008385604051602001611684929190616b42565b6040516020818303038152906040528051906020012090506116b067e67f2367de48a39660c01b6145c9565b6116c4673bba1b125be8f21a60c01b6145c9565b61173681836001015484600201546040516020016116e29190616923565b604051602081830303815290604052876040516020016117029190616b79565b604051602081830303815290604052604051602001611722929190616be0565b6040516020818303038152906040526145cc565b61174a67eb5bb2ac8e80d29b60c01b6145c9565b61175e6755ea1935824a5e1860c01b6145c9565b8280156117cf5750600015156003600083815260200190815260200160002060030160003373ffffffffffffffffffffffffffffffffffffffff1673ffffffffffffffffffffffffffffffffffffffff16815260200190815260200160002060009054906101000a900460ff161515145b15611890576117e8672a12cac354a8e82360c01b6145c9565b6117fc6767ec4da59fbc86a160c01b6145c9565b611810676efdddf06ded552e60c01b6145c9565b61182c6003600083815260200190815260200160002033614770565b611840678f6d07b51abb6a2460c01b6145c9565b61185467a14fb71ba5e7613f60c01b6145c9565b7fb431a69783a2491a0c400ff16dab32cd442abf8fe5af63a526a7248d730192f8816040516118839190615e3c565b60405180910390a1611996565b6118a467df7dd5880412d4b960c01b6145c9565b6118b8675ff1c5fac858eec960c01b6145c9565b6000151583151503611980576118d867fe26844b548a837860c01b6145c9565b6118ec6768a51f3c021201cb60c01b6145c9565b61190067a21e7ebe78774f9060c01b6145c9565b61191c60036000838152602001908152602001600020336149f2565b61193067cd288a479316cb8e60c01b6145c9565b61194467e62655d9c0da73f460c01b6145c9565b7fb431a69783a2491a0c400ff16dab32cd442abf8fe5af63a526a7248d730192f8816040516119739190615e3c565b60405180910390a1611995565b611994675d17b8d48239367360c01b6145c9565b5b5b6119aa67a680bcc96564015d60c01b6145c9565b6119be674108a0766fb3770f60c01b6145c9565b611a1882600001600c9054906101000a900460ff1660ff16600260008560010154815260200190815260200160002060000160009054906101000a900463ffffffff16611a0b9190616767565b63ffffffff166064613611565b6003600083815260200190815260200160002060020160009054906101000a900460ff1660ff1610611b8757611a586737c85746c2f8f06560c01b6145c9565b611a6c672011fab2eac0049160c01b6145c9565b611a806744a1b5a674d397ba60c01b6145c9565b611a9b60036000838152602001908152602001600020614baa565b611aaf67356380150091118d60c01b6145c9565b611ac367d1da6e531bb5433e60c01b6145c9565b7f562618dbcf74b61ae5b0f229fe40ba6d5b6ae6b4248f8c89a870dda7c77135f681604051611af29190615e3c565b60405180910390a1611b0e672ee69ee77814874360c01b6145c9565b611b22671b9e414ab197e55f60c01b6145c9565b611b2c8585614ddb565b611b406714f85a465318971d60c01b6145c9565b60018260000160008282829054906101000a900463ffffffff16611b649190616c22565b92506101000a81548163ffffffff021916908363ffffffff160217905550611b9c565b611b9b67e79b395de5e6d68460c01b6145c9565b5b5050505050565b60066020528060005260406000206000915090508060000160009054906101000a900460ff16908060000160019054906101000a900460ff16908060000160029054906101000a900460ff16908060010154908060020160009054906101000a900460ff16908060030154905086565b605081565b611c2c674aba95960958e73260c01b6145c9565b611c406730249e749f45b5e460c01b6145c9565b611c5467374dfd98b823c8cf60c01b6145c9565b611c686720270532058f02e560c01b6145c9565b611c927fd646ae07eb0d0f77457502a65e7407930dff4cd4fd99abc6aac87a753f4c8a42336126da565b611cd1576040517f08c379a0000000000000000000000000000000000000000000000000000000008152600401611cc8906164fa565b60405180910390fd5b611ce5679e04f1a5c5bda7df60c01b6145c9565b611cf967d618060faf473a2a60c01b6145c9565b611d0d6759aacab69e3a1cf860c01b6145c9565b611d21671f8604b2e035df8c60c01b6145c9565b6000600160008781526020019081526020016000206000015403611d7a576040517f08c379a0000000000000000000000000000000000000000000000000000000008152600401611d71906165d2565b60405180910390fd5b611d8e674341521415b393ff60c01b6145c9565b611da2673abda3db58ee88d660c01b6145c9565b611db667d0a65ecdfb35759e60c01b6145c9565b611dca67fecb9a5516d562ad60c01b6145c9565b60006003811115611dde57611ddd61602d565b5b846003811115611df157611df061602d565b5b10158015611e235750600380811115611e0d57611e0c61602d565b5b846003811115611e2057611e1f61602d565b5b11155b611e62576040517f08c379a0000000000000000000000000000000000000000000000000000000008152600401611e5990616ca6565b60405180910390fd5b611e766711522e4c80b8acf560c01b6145c9565b611e8a675a87c8131b0f347660c01b6145c9565b611e9e67b52e37c57f13f03660c01b6145c9565b611eb267c6bc374fa7feff0160c01b6145c9565b60006002811115611ec657611ec561602d565b5b836002811115611ed957611ed861602d565b5b10158015611f0b5750600280811115611ef557611ef461602d565b5b836002811115611f0857611f0761602d565b5b11155b611f4a576040517f08c379a0000000000000000000000000000000000000000000000000000000008152600401611f4190616d12565b60405180910390fd5b611f5e6786ac1e62d24a349860c01b6145c9565b611f72679e5c2cdd766b16de60c01b6145c9565b611f866753aaaf9320fe18fd60c01b6145c9565b611f9a67ab49e147b91272b360c01b6145c9565b6000600f811115611fae57611fad61602d565b5b82600f811115611fc157611fc061602d565b5b10158015611ff35750600f80811115611fdd57611fdc61602d565b5b82600f811115611ff057611fef61602d565b5b11155b612032576040517f08c379a000000000000000000000000000000000000000000000000000000000815260040161202990616d7e565b60405180910390fd5b612046679ab8a363c1db47f760c01b6145c9565b61205a67c80f0b231c338b2d60c01b6145c9565b61206e675397bbbeef836ad860c01b6145c9565b612082679b6d6670acbbe93360c01b6145c9565b6001151560066000878787876040516020016120a19493929190616e02565b60405160208183030381529060405280519060200120815260200190815260200160002060020160009054906101000a900460ff16151514612118576040517f08c379a000000000000000000000000000000000000000000000000000000000815260040161210f90616e9c565b60405180910390fd5b61212c678dba3cfcdd7ab4ab60c01b6145c9565b612140672e1f532eb4156eb560c01b6145c9565b61215467b763b8910a23efee60c01b6145c9565b60008585858560405160200161216d9493929190616f08565b60405160208183030381529060405280519060200120905061219967acd6a8c8f4d574b660c01b6145c9565b6121ad677697096d64270cdb60c01b6145c9565b612279817fd646ae07eb0d0f77457502a65e7407930dff4cd4fd99abc6aac87a753f4c8a42886040516020016121e39190616690565b604051602081830303815290604052886040516020016122039190616f61565b604051602081830303815290604052886040516020016122239190616f7c565b604051602081830303815290604052886040516020016122439190616f97565b6040516020818303038152906040526040516020016122659493929190616fd8565b6040516020818303038152906040526145cc565b61228d673318f6946f78197860c01b6145c9565b6122a167d4c4533d7e9a60a660c01b6145c9565b8180156123125750600015156003600083815260200190815260200160002060030160003373ffffffffffffffffffffffffffffffffffffffff1673ffffffffffffffffffffffffffffffffffffffff16815260200190815260200160002060009054906101000a900460ff161515145b156123d35761232b6732954512786739f560c01b6145c9565b61233f6724bcd6ffdfbd0d4d60c01b6145c9565b612353677338a703ca5a2a9660c01b6145c9565b61236f6003600083815260200190815260200160002033614770565b612383673b1e688b7d79d00d60c01b6145c9565b612397676bea465bb441461060c01b6145c9565b7fb431a69783a2491a0c400ff16dab32cd442abf8fe5af63a526a7248d730192f8816040516123c69190615e3c565b60405180910390a16124d9565b6123e767e8c1fa74bacd7fbb60c01b6145c9565b6123fb671f5319feb6477e3560c01b6145c9565b60001515821515036124c35761241b67f438d58dfb1be18260c01b6145c9565b61242f678ef10dcaeac9036f60c01b6145c9565b6124436735f2056c8483d80460c01b6145c9565b61245f60036000838152602001908152602001600020336149f2565b61247367c187d7d65cf65af260c01b6145c9565b61248767ade7a62c071e519d60c01b6145c9565b7fb431a69783a2491a0c400ff16dab32cd442abf8fe5af63a526a7248d730192f8816040516124b69190615e3c565b60405180910390a16124d8565b6124d7675439b2c4cd16482360c01b6145c9565b5b5b6124ed672f6377f918fc3e7460c01b6145c9565b6125016762c646c22c573f3e60c01b6145c9565b612567605060ff16600260007fd646ae07eb0d0f77457502a65e7407930dff4cd4fd99abc6aac87a753f4c8a42815260200190815260200160002060000160009054906101000a900463ffffffff1661255a9190616767565b63ffffffff166064613611565b6003600083815260200190815260200160002060020160009054906101000a900460ff1660ff16106126bd576125a767220ad4741fc3df5d60c01b6145c9565b6125bb6799a0b0988af0867760c01b6145c9565b6125cf675d49ac61be8ebd7160c01b6145c9565b6125ea60036000838152602001908152602001600020614baa565b6125fe67ac18a9a1ec69e6b860c01b6145c9565b61261267698bf9a5753ef89160c01b6145c9565b7f562618dbcf74b61ae5b0f229fe40ba6d5b6ae6b4248f8c89a870dda7c77135f6816040516126419190615e3c565b60405180910390a161265d674a780f79854977d860c01b6145c9565b6000600660008888888860405160200161267a9493929190616e02565b60405160208183030381529060405280519060200120815260200190815260200160002060020160006101000a81548160ff0219169083151502179055506126d2565b6126d16769ad2177cecd222f60c01b6145c9565b5b505050505050565b600080600084815260200190815260200160002060000160008373ffffffffffffffffffffffffffffffffffffffff1673ffffffffffffffffffffffffffffffffffffffff16815260200190815260200160002060009054906101000a900460ff16905092915050565b60046020528060005260406000206000915090505481565b600f81565b61277567efd429d53dea246260c01b6145c9565b61278967ef5c68bad402a4e060c01b6145c9565b61279d67b55b9f6d9d1026af60c01b6145c9565b6127b167c7765049f91a4ef760c01b6145c9565b6127db7fd646ae07eb0d0f77457502a65e7407930dff4cd4fd99abc6aac87a753f4c8a42336126da565b61281a576040517f08c379a0000000000000000000000000000000000000000000000000000000008152600401612811906164fa565b60405180910390fd5b61282e67a6d489319a22f36060c01b6145c9565b61284267a5644b271bdebd0560c01b6145c9565b6128566773766d50c37ae17460c01b6145c9565b61286a678b979d26b761488e60c01b6145c9565b600084116128ad576040517f08c379a00000000000000000000000000000000000000000000000000000000081526004016128a490616566565b60405180910390fd5b6128c1674773b74ca2dfd97760c01b6145c9565b6128d5673a3c8e3b93c77fd760c01b6145c9565b6128e967de5b5a61926c36c960c01b6145c9565b6128fd67fba333423761151560c01b6145c9565b6000835111612941576040517f08c379a00000000000000000000000000000000000000000000000000000000081526004016129389061709e565b60405180910390fd5b61295567a458fc201c41f2eb60c01b6145c9565b6129696732e4132dad12190060c01b6145c9565b61297d675903462ab1321cac60c01b6145c9565b6129916795a317ec06f83c1060c01b6145c9565b60008251116129d5576040517f08c379a00000000000000000000000000000000000000000000000000000000081526004016129cc9061710a565b60405180910390fd5b6129e967b1d4635b098ce77a60c01b6145c9565b6129fd67a0b843672511ab5560c01b6145c9565b612a11677c7927e4b5bd48f460c01b6145c9565b612a2567a4ebbaf8faac82d260c01b6145c9565b60008111612a68576040517f08c379a0000000000000000000000000000000000000000000000000000000008152600401612a5f90617176565b60405180910390fd5b612a7c6797b47e77a9a7b3fc60c01b6145c9565b612a9067758438fa606727d960c01b6145c9565b612aa467589e0c39053cad2660c01b6145c9565b612ab86759de4f2a505f6c6d60c01b6145c9565b6000600160008681526020019081526020016000206000015414612b11576040517f08c379a0000000000000000000000000000000000000000000000000000000008152600401612b08906171e2565b60405180910390fd5b612b25676d4a2d08a14ea23160c01b6145c9565b612b3967c3b37424d9c469d060c01b6145c9565b612b4d67740ce2464856c2b360c01b6145c9565b612b5984848484614ebe565b50505050565b6000801b81565b612b7a6714f96b5406597f9960c01b6145c9565b612b8e670df07991caef353d60c01b6145c9565b612ba267ae62ea1482f5a88360c01b6145c9565b612bb667163e0e75e54e0c8a60c01b6145c9565b612be07fd646ae07eb0d0f77457502a65e7407930dff4cd4fd99abc6aac87a753f4c8a42336126da565b612c1f576040517f08c379a0000000000000000000000000000000000000000000000000000000008152600401612c16906164fa565b60405180910390fd5b612c3367a4e6a19cbfe5167960c01b6145c9565b612c47675c78a7177eb1a8fb60c01b6145c9565b612c5b67bf4499ff51c0c22160c01b6145c9565b612c6f67822948be4d3ef9a760c01b6145c9565b6000600160008781526020019081526020016000206000015403612cc8576040517f08c379a0000000000000000000000000000000000000000000000000000000008152600401612cbf906165d2565b60405180910390fd5b612cdc6796129956313adf1b60c01b6145c9565b612cf067a37df02138054e5260c01b6145c9565b612d0467b057154329c49bf860c01b6145c9565b612d1867e3a8e90515cce0b760c01b6145c9565b60006003811115612d2c57612d2b61602d565b5b846003811115612d3f57612d3e61602d565b5b10158015612d715750600380811115612d5b57612d5a61602d565b5b846003811115612d6e57612d6d61602d565b5b11155b612db0576040517f08c379a0000000000000000000000000000000000000000000000000000000008152600401612da790616ca6565b60405180910390fd5b612dc467b5a228e10270e22560c01b6145c9565b612dd8673ddb288b7f8fde5860c01b6145c9565b612dec6728ffed5c4bbb136d60c01b6145c9565b612e00671a14e86b1536e0c460c01b6145c9565b60006002811115612e1457612e1361602d565b5b836002811115612e2757612e2661602d565b5b10158015612e595750600280811115612e4357612e4261602d565b5b836002811115612e5657612e5561602d565b5b11155b612e98576040517f08c379a0000000000000000000000000000000000000000000000000000000008152600401612e8f90616d12565b60405180910390fd5b612eac678190894182f1322760c01b6145c9565b612ec0675e914cc764a08bdc60c01b6145c9565b612ed46759cb1221e0215d5e60c01b6145c9565b612ee8676d76b91fe9de0f8c60c01b6145c9565b6000600f811115612efc57612efb61602d565b5b82600f811115612f0f57612f0e61602d565b5b10158015612f415750600f80811115612f2b57612f2a61602d565b5b82600f811115612f3e57612f3d61602d565b5b11155b612f80576040517f08c379a0000000000000000000000000000000000000000000000000000000008152600401612f7790616d7e565b60405180910390fd5b612f9467bdf8a12455256e9760c01b6145c9565b612fa867ed9c0b858915e64660c01b6145c9565b612fbc67649bd458a200725760c01b6145c9565b612fd0670b6b16ea080ccdb260c01b6145c9565b600015156006600087878787604051602001612fef9493929190616e02565b60405160208183030381529060405280519060200120815260200190815260200160002060020160009054906101000a900460ff16151514613066576040517f08c379a000000000000000000000000000000000000000000000000000000000815260040161305d9061724e565b60405180910390fd5b61307a67689b85ae64f251bf60c01b6145c9565b61308e6735e2a6e6763de1be60c01b6145c9565b6130a26709e04ae92e1584c060c01b6145c9565b6000858585856040516020016130bb94939291906172ba565b6040516020818303038152906040528051906020012090506130e7672117bb302f321a4960c01b6145c9565b6130fb67918f30a7fad8441260c01b6145c9565b6131c7817fd646ae07eb0d0f77457502a65e7407930dff4cd4fd99abc6aac87a753f4c8a42886040516020016131319190616690565b604051602081830303815290604052886040516020016131519190616f61565b604051602081830303815290604052886040516020016131719190616f7c565b604051602081830303815290604052886040516020016131919190616f97565b6040516020818303038152906040526040516020016131b39493929190617339565b6040516020818303038152906040526145cc565b6131db679d26a0bcae16f15560c01b6145c9565b6131ef6762560a22786c9d8960c01b6145c9565b8180156132605750600015156003600083815260200190815260200160002060030160003373ffffffffffffffffffffffffffffffffffffffff1673ffffffffffffffffffffffffffffffffffffffff16815260200190815260200160002060009054906101000a900460ff161515145b1561332157613279676ad05dd6ad0c5e8e60c01b6145c9565b61328d67b018fb771a8f126a60c01b6145c9565b6132a1673838e17e05cad86e60c01b6145c9565b6132bd6003600083815260200190815260200160002033614770565b6132d1673b992ef7312a36a260c01b6145c9565b6132e567d1937d9a9d9ede4b60c01b6145c9565b7fb431a69783a2491a0c400ff16dab32cd442abf8fe5af63a526a7248d730192f8816040516133149190615e3c565b60405180910390a1613427565b61333567eba93d2f1c3a372560c01b6145c9565b61334967e583d3490fb5c11a60c01b6145c9565b6000151582151503613411576133696703c216aef0914c7d60c01b6145c9565b61337d67e929230dacd39fc460c01b6145c9565b61339167f0423ad893494d1f60c01b6145c9565b6133ad60036000838152602001908152602001600020336149f2565b6133c1670e4635f8420cba4d60c01b6145c9565b6133d567a8f356ae64e80fb260c01b6145c9565b7fb431a69783a2491a0c400ff16dab32cd442abf8fe5af63a526a7248d730192f8816040516134049190615e3c565b60405180910390a1613426565b6134256787081979864afeae60c01b6145c9565b5b5b61343b677547dde3e6de66c160c01b6145c9565b61344f6776a3d74fa8fa545760c01b6145c9565b6134b5603360ff16600260007fd646ae07eb0d0f77457502a65e7407930dff4cd4fd99abc6aac87a753f4c8a42815260200190815260200160002060000160009054906101000a900463ffffffff166134a89190616767565b63ffffffff166064613611565b6003600083815260200190815260200160002060020160009054906101000a900460ff1660ff16106135d0576134f5674ed9ea8c9338f00060c01b6145c9565b613509679baa3422236fc69f60c01b6145c9565b61351d67c5044043363bb23760c01b6145c9565b61353860036000838152602001908152602001600020614baa565b61354c67bfc6b0f370d7024960c01b6145c9565b613560679ccb8433f30b7f6160c01b6145c9565b7f562618dbcf74b61ae5b0f229fe40ba6d5b6ae6b4248f8c89a870dda7c77135f68160405161358f9190615e3c565b60405180910390a16135ab670842a97201189b8b60c01b6145c9565b6135bf67ca8d401c43f5f9d760c01b6145c9565b6135cb86868686614fc8565b6135e5565b6135e467e22dcaa2865f121160c01b6145c9565b5b505050505050565b7fd646ae07eb0d0f77457502a65e7407930dff4cd4fd99abc6aac87a753f4c8a4281565b600061362767171d99280850d93c60c01b6151c7565b61363b671f1ce49847f98dcc60c01b6151c7565b61364f67ee187a4831fc40a060c01b6151c7565b6000828461365d91906173e2565b036136b15761367667b04b052c3829f66960c01b6151c7565b61368a674689b2288e41404460c01b6151c7565b61369e677b89166db061c85d60c01b6151c7565b81836136aa9190617413565b9050613708565b6136c567ac3b39e2188a30ca60c01b6151c7565b6136d96749ab266d1fee3fed60c01b6151c7565b6136ed673b294661b66e36a560c01b6151c7565b600182846136fb9190617413565b6137059190617444565b90505b92915050565b6137226771868017dd9ea9a260c01b6145c9565b61373667ab1bd67fcc0dc4e660c01b6145c9565b61374a6714693ce83117a4a660c01b6145c9565b61375e671ee91d41820de70160c01b6145c9565b6137887fd646ae07eb0d0f77457502a65e7407930dff4cd4fd99abc6aac87a753f4c8a42336126da565b6137c7576040517f08c379a00000000000000000000000000000000000000000000000000000000081526004016137be906164fa565b60405180910390fd5b6137db6765714ee521157c1660c01b6145c9565b6137ef67647b5b224d6b094960c01b6145c9565b6138036765b7e103c94a229d60c01b6145c9565b6138176712792db49bd8000860c01b6145c9565b6000841161385a576040517f08c379a000000000000000000000000000000000000000000000000000000000815260040161385190616566565b60405180910390fd5b61386e673a5a274be22801d260c01b6145c9565b61388267493634455e2d80e960c01b6145c9565b613896671175e050037a7c2760c01b6145c9565b6138aa675137f0b970b59aa760c01b6145c9565b6000600160008681526020019081526020016000206000015403613903576040517f08c379a00000000000000000000000000000000000000000000000000000000081526004016138fa906165d2565b60405180910390fd5b613917677ba3d7ad982f17c160c01b6145c9565b61392b675ff2fe70f0a1650860c01b6145c9565b61393f6739d9fb6b575ba4e360c01b6145c9565b61394b848484846151ca565b50505050565b605081565b61396a675ea5fd91e72c501360c01b6145c9565b61397e6740b5effbe6fbc4ba60c01b6145c9565b61399267d72dd4e9f32df2a660c01b6145c9565b60006002600085815260200190815260200160002090506139bd670ed0a2a914fd84f760c01b6145c9565b6139d16787de25c771ec258260c01b6145c9565b6139e5679a8cdfcabcb0dacb60c01b6145c9565b8060000160049054906101000a900463ffffffff1663ffffffff168160000160009054906101000a900463ffffffff1663ffffffff16118160020154604051602001613a319190616923565b604051602081830303815290604052604051602001613a50919061749e565b60405160208183030381529060405290613aa0576040517f08c379a0000000000000000000000000000000000000000000000000000000008152600401613a9791906169bf565b60405180910390fd5b50613ab567772e58326b3683ce60c01b6145c9565b613ac967f33d304923bb8f1760c01b6145c9565b613add6730dbd22aa968d27a60c01b6145c9565b613af1671045bc06e9ec4a8360c01b6145c9565b613afb84846126da565b8160020154604051602001613b109190616923565b604051602081830303815290604052604051602001613b2f91906174f9565b60405160208183030381529060405290613b7f576040517f08c379a0000000000000000000000000000000000000000000000000000000008152600401613b7691906169bf565b60405180910390fd5b50613b9467bf20874ded53a20860c01b6145c9565b613ba867e36f7f130cb3f21360c01b6145c9565b613bbc6715bd5e551d188d8360c01b6145c9565b613bd067580bbbb9ccbb13be60c01b6145c9565b613bde8160010154336126da565b8160020154604051602001613bf39190616923565b604051602081830303815290604052604051602001613c129190616a2d565b60405160208183030381529060405290613c62576040517f08c379a0000000000000000000000000000000000000000000000000000000008152600401613c5991906169bf565b60405180910390fd5b50613c776766006dd0f09419f560c01b6145c9565b613c8b6720ceeb0471d394b660c01b6145c9565b613c9f67213863767febee4a60c01b6145c9565b60008385604051602001613cb492919061756b565b604051602081830303815290604052805190602001209050613ce0672d86523e849fc68d60c01b6145c9565b613cf467689f9d36814699ed60c01b6145c9565b613d668183600101548460020154604051602001613d129190616923565b60405160208183030381529060405287604051602001613d329190616b79565b604051602081830303815290604052604051602001613d529291906175c8565b6040516020818303038152906040526145cc565b613d7a67f194d1ffc0447ea960c01b6145c9565b613d8e6789a333387d41a6b660c01b6145c9565b828015613dff5750600015156003600083815260200190815260200160002060030160003373ffffffffffffffffffffffffffffffffffffffff1673ffffffffffffffffffffffffffffffffffffffff16815260200190815260200160002060009054906101000a900460ff161515145b15613ec057613e18675da07d83cb2bab9d60c01b6145c9565b613e2c67f25ac83becfb3ba860c01b6145c9565b613e4067386935278dae822660c01b6145c9565b613e5c6003600083815260200190815260200160002033614770565b613e7067ccb3b5b8af78b2cb60c01b6145c9565b613e8467e0f5824ede3cb57d60c01b6145c9565b7fb431a69783a2491a0c400ff16dab32cd442abf8fe5af63a526a7248d730192f881604051613eb39190615e3c565b60405180910390a1613fc6565b613ed467f4b14bead3785a6660c01b6145c9565b613ee86743d8ba5b87e2e64860c01b6145c9565b6000151583151503613fb057613f08675882f3b1b847165d60c01b6145c9565b613f1c67ec6dbc09e6a8d3c360c01b6145c9565b613f306787fec01562de0d7760c01b6145c9565b613f4c60036000838152602001908152602001600020336149f2565b613f6067b815fa764d360f8060c01b6145c9565b613f74676c848ca2d28cc2e760c01b6145c9565b7fb431a69783a2491a0c400ff16dab32cd442abf8fe5af63a526a7248d730192f881604051613fa39190615e3c565b60405180910390a1613fc5565b613fc46762a5c10409c68fa660c01b6145c9565b5b5b613fda6767be7bcfb8b646a360c01b6145c9565b613fee67ab4b51ef7195398660c01b6145c9565b81600101548514158015614081575061405782600001600d9054906101000a900460ff1660ff16600260008560010154815260200190815260200160002060000160009054906101000a900463ffffffff1661404a9190616767565b63ffffffff166064613611565b6003600083815260200190815260200160002060020160009054906101000a900460ff1660ff1610155b801561409d575061409c6745513953a8aaed3b60c01b61563f565b5b8061415e5750816001015485148015614141575061411782600001600d9054906101000a900460ff1660ff166001600260008660010154815260200190815260200160002060000160009054906101000a900463ffffffff16614100919061760a565b61410a9190616767565b63ffffffff166064613611565b6003600083815260200190815260200160002060020160009054906101000a900460ff1660ff1610155b801561415d575061415c67a0247630c45fc01060c01b61563f565b5b5b156144fe5761417767cb56c9dffef6c09b60c01b6145c9565b61418b670f6c466182e7daf460c01b6145c9565b61419f6796af1b9e171f5d0c60c01b6145c9565b60005b6005548110156143ce576141c0676ea5a5cfdd40ca7760c01b6145c9565b6141d46734c805801ad925b460c01b6145c9565b60011515600360006004600085815260200190815260200160002054815260200190815260200160002060030160008773ffffffffffffffffffffffffffffffffffffffff1673ffffffffffffffffffffffffffffffffffffffff16815260200190815260200160002060009054906101000a900460ff161515148015614283575085600360006004600085815260200190815260200160002054815260200190815260200160002060010154145b156143a65761429c67de2808851ea8535860c01b6145c9565b6142b0677ab469cc82d327c160c01b6145c9565b6001600360006004600085815260200190815260200160002054815260200190815260200160002060020160008282829054906101000a900460ff166142f69190617642565b92506101000a81548160ff021916908360ff1602179055506143226734fccb1c2034803560c01b6145c9565b6000600360006004600085815260200190815260200160002054815260200190815260200160002060030160008773ffffffffffffffffffffffffffffffffffffffff1673ffffffffffffffffffffffffffffffffffffffff16815260200190815260200160002060006101000a81548160ff0219169083151502179055506143bb565b6143ba67fc92d0035d00688e60c01b6145c9565b5b80806143c690617677565b9150506141a2565b506143e367e5a91bfc65f0c4b160c01b6145c9565b6143f7674900a3687504079c60c01b6145c9565b61441260036000838152602001908152602001600020614baa565b614426674fce23ae6bb9dc7f60c01b6145c9565b61443a67a37f82e1ae7b555d60c01b6145c9565b7f562618dbcf74b61ae5b0f229fe40ba6d5b6ae6b4248f8c89a870dda7c77135f6816040516144699190615e3c565b60405180910390a161448567db9f0c54e294074460c01b6145c9565b61449967e392881a64b85dd960c01b6145c9565b6144a3858561564a565b6144b7673b69b5f7da0fc98560c01b6145c9565b60018260000160008282829054906101000a900463ffffffff166144db919061760a565b92506101000a81548163ffffffff021916908363ffffffff160217905550614513565b6145126739878fdc39193a5c60c01b6145c9565b5b5050505050565b61452382611005565b61452c81614dc7565b614536838361564a565b505050565b7f4bbeb6fd3e5222e55f2f8b0c35bc228e0a06a25d0da772fdb02c3b92fa004f8881565b60007f01ffc9a7000000000000000000000000000000000000000000000000000000007bffffffffffffffffffffffffffffffffffffffffffffffffffffffff1916827bffffffffffffffffffffffffffffffffffffffffffffffffffffffff1916149050919050565b50565b6145e06707b5a83c26feac2860c01b6145c9565b6145f467d285a5263ec8e0f560c01b6145c9565b6146086705e4cbcc73c151f360c01b6145c9565b600015156003600085815260200190815260200160002060000160009054906101000a900460ff161515036147565761464b6760f35a062167334760c01b6145c9565b61465f676596486d69562b7760c01b6145c9565b60016003600085815260200190815260200160002060000160006101000a81548160ff0219169083151502179055506146a267acefc79e49d8d98e60c01b6145c9565b82600460006005548152602001908152602001600020819055506146d0670f1dd76d34c817f860c01b6145c9565b6001600560008282546146e39190617444565b925050819055506146fe676751378d318e7c4060c01b6145c9565b81600360008581526020019081526020016000206001018190555061472d674f87efa02c74e0f260c01b6145c9565b80600360008581526020019081526020016000206005019081614750919061786b565b5061476b565b61476a67df9346bf5f7ff81560c01b6145c9565b5b505050565b61478467797c64b14075c8f960c01b61572b565b61479867ac145f749c9e99c160c01b61572b565b6147ac67b695eb22eefba2bf60c01b61572b565b6147c067fcb479ff5aeb66b560c01b61572b565b600015158260030160008373ffffffffffffffffffffffffffffffffffffffff1673ffffffffffffffffffffffffffffffffffffffff16815260200190815260200160002060009054906101000a900460ff16151514614855576040517f08c379a000000000000000000000000000000000000000000000000000000000815260040161484c90617989565b60405180910390fd5b614869675bc11c9de63db59560c01b61572b565b61487d676be8a1c3691fad8b60c01b61572b565b808260040160008460020160019054906101000a900460ff1660ff16815260200190815260200160002060006101000a81548173ffffffffffffffffffffffffffffffffffffffff021916908373ffffffffffffffffffffffffffffffffffffffff1602179055506148f9671a4585e7f05081b360c01b61572b565b81600201600181819054906101000a900460ff168092919061491a906179a9565b91906101000a81548160ff021916908360ff1602179055505061494767b25fdccc717fd03460c01b61572b565b60018260030160008373ffffffffffffffffffffffffffffffffffffffff1673ffffffffffffffffffffffffffffffffffffffff16815260200190815260200160002060006101000a81548160ff0219169083151502179055506149b5671462dd328c4718ac60c01b61572b565b60018260020160008282829054906101000a900460ff166149d691906179d2565b92506101000a81548160ff021916908360ff1602179055505050565b614a06675d04d83d8dde623260c01b61572b565b614a1a67d3245e2d553e4f4d60c01b61572b565b614a2e670779cd5c9944b98260c01b61572b565b614a4267c1b2f784a22f15e160c01b61572b565b600115158260030160008373ffffffffffffffffffffffffffffffffffffffff1673ffffffffffffffffffffffffffffffffffffffff16815260200190815260200160002060009054906101000a900460ff16151514614ad7576040517f08c379a0000000000000000000000000000000000000000000000000000000008152600401614ace90617a79565b60405180910390fd5b614aeb67b9bc76488916507360c01b61572b565b614aff67405798a3de3077e160c01b61572b565b60008260030160008373ffffffffffffffffffffffffffffffffffffffff1673ffffffffffffffffffffffffffffffffffffffff16815260200190815260200160002060006101000a81548160ff021916908315150217905550614b6d67362f4144a4dbb29660c01b61572b565b60018260020160008282829054906101000a900460ff16614b8e9190617642565b92506101000a81548160ff021916908360ff1602179055505050565b614bbe67644df46897ff8c4560c01b61572b565b614bd26730a71e31c726828d60c01b61572b565b60008160020160006101000a81548160ff021916908360ff160217905550614c046710846983d352cded60c01b61572b565b614c1867f73822457046625560c01b61572b565b60005b8160020160019054906101000a900460ff1660ff168160ff161015614cf357614c4e677e83ee00cb15687860c01b61572b565b60008260030160008460040160008560ff16815260200190815260200160002060009054906101000a900473ffffffffffffffffffffffffffffffffffffffff1673ffffffffffffffffffffffffffffffffffffffff1673ffffffffffffffffffffffffffffffffffffffff16815260200190815260200160002060006101000a81548160ff0219169083151502179055508080614ceb906179a9565b915050614c1b565b5050565b614d0b67b5b158cd02c2fb4b60c01b614ebb565b614d1f67a1ea6a203d9b892560c01b614ebb565b60016000828152602001908152602001600020600080820160009055600182016000614d4b9190615a4c565b600282016000614d5b9190615a4c565b60038201600090555050614d79675ac7e0755718f33860c01b614ebb565b614d8d670404365a798c3bee60c01b614ebb565b7f34de6b871245ed0a89b82912e8e5ee6d9c3104b3e5bb1d67a71ad7e68239e41c81604051614dbc9190616493565b60405180910390a150565b614dd881614dd361572e565b615736565b50565b614de582826126da565b614eb757600160008084815260200190815260200160002060000160008373ffffffffffffffffffffffffffffffffffffffff1673ffffffffffffffffffffffffffffffffffffffff16815260200190815260200160002060006101000a81548160ff021916908315150217905550614e5c61572e565b73ffffffffffffffffffffffffffffffffffffffff168173ffffffffffffffffffffffffffffffffffffffff16837f2f8788117e7eff1d82e926ec794901d17c78024a50270940304540a733656f0d60405160405180910390a45b5050565b50565b614ed2672197159ad936e06660c01b614ebb565b614ee66710506af5eb8dbd9360c01b614ebb565b60405180608001604052808581526020018481526020018381526020018281525060016000868152602001908152602001600020600082015181600001556020820151816001019081614f39919061786b565b506040820151816002019081614f4f919061786b565b5060608201518160030155905050614f7167479521140d75f96060c01b614ebb565b614f85674a0abbdd4bfb40f360c01b614ebb565b7fb6767d1c89515962142b00b5577569c92a74381d9441a528911c66e0c3cea1f884848484604051614fba9493929190615ce6565b60405180910390a150505050565b614fdc67248dca5c34ff865b60c01b6145c9565b614ff06752d84047f7ec1fd860c01b6145c9565b6040518060c0016040528084600381111561500e5761500d61602d565b5b81526020018360028111156150265761502561602d565b5b815260200182600f81111561503e5761503d61602d565b5b81526020014281526020016001151581526020018581525060066000868686866040516020016150719493929190616e02565b60405160208183030381529060405280519060200120815260200190815260200160002060008201518160000160006101000a81548160ff021916908360038111156150c0576150bf61602d565b5b021790555060208201518160000160016101000a81548160ff021916908360028111156150f0576150ef61602d565b5b021790555060408201518160000160026101000a81548160ff0219169083600f8111156151205761511f61602d565b5b02179055506060820151816001015560808201518160020160006101000a81548160ff02191690831515021790555060a0820151816003015590505061517067ae030a65c15f875560c01b6145c9565b615184674dbd682bd4fc310660c01b6145c9565b7fb55811dd01470a227956304b027c610c7cdf9dd622dcc47791380261d56dc6ed848484846040516151b99493929190617a99565b60405180910390a150505050565b50565b6151de678f52ef164f30557160c01b614ebb565b6151f26796e591cc4057d14160c01b614ebb565b6152066708507b1a7ed5d4af60c01b614ebb565b61521a67559f3e42497b232560c01b614ebb565b6000600160008681526020019081526020016000206000015403615273576040517f08c379a000000000000000000000000000000000000000000000000000000000815260040161526a90617b2a565b60405180910390fd5b6152876728097c31405ae1f360c01b614ebb565b61529b673c7b5fe1417d860b60c01b614ebb565b6152af67c98d308dd86a644b60c01b614ebb565b600160008581526020019081526020016000206001016040516020016152d59190617bcd565b60405160208183030381529060405280519060200120836040516020016152fc9190617be4565b604051602081830303815290604052805190602001201415801561536a575060405160200161532a90617c21565b60405160208183030381529060405280519060200120836040516020016153519190617be4565b6040516020818303038152906040528051906020012014155b156153c057615383678571e9a913979a0160c01b614ebb565b61539767d9f02e438eeb9bdb60c01b614ebb565b826001600086815260200190815260200160002060010190816153ba919061786b565b506153d5565b6153d4670fc1ccf2c3e5a43d60c01b614ebb565b5b6153e967120ca5c9cebebfb860c01b614ebb565b6153fd672ca296637aa2ca0460c01b614ebb565b600160008581526020019081526020016000206002016040516020016154239190617bcd565b604051602081830303815290604052805190602001208260405160200161544a9190617be4565b60405160208183030381529060405280519060200120141580156154b8575060405160200161547890617c21565b604051602081830303815290604052805190602001208260405160200161549f9190617be4565b6040516020818303038152906040528051906020012014155b1561550e576154d1676578dfbde5bca09660c01b614ebb565b6154e5678d1d7f67bc5e936560c01b614ebb565b81600160008681526020019081526020016000206002019081615508919061786b565b50615523565b615522672d3ef2662851587c60c01b614ebb565b5b6155376767fb5d25c227c3ec60c01b614ebb565b61554b6743e5feeb1299172560c01b614ebb565b60016000858152602001908152602001600020600301548114158015615572575060008114155b156155bf5761558b67d26d79b8805f390660c01b614ebb565b61559f67ee045ade4a472cb760c01b614ebb565b8060016000868152602001908152602001600020600301819055506155d4565b6155d367fcc4096a20e6949f60c01b614ebb565b5b6155e8677a3bf015895a932e60c01b614ebb565b6155fc6725d22f3bc4f6e9bb60c01b614ebb565b7f03e10a3f40e9af2a5e61cb5a3de55fd67286470c35b3cf345b04a83cf3f49077848484846040516156319493929190615ce6565b60405180910390a150505050565b600060019050919050565b61565482826126da565b1561572757600080600084815260200190815260200160002060000160008373ffffffffffffffffffffffffffffffffffffffff1673ffffffffffffffffffffffffffffffffffffffff16815260200190815260200160002060006101000a81548160ff0219169083151502179055506156cc61572e565b73ffffffffffffffffffffffffffffffffffffffff168173ffffffffffffffffffffffffffffffffffffffff16837ff6391f5c32d9c69d2a47ea670b442974b53935d1edc7fd64eb21e047a839171b60405160405180910390a45b5050565b50565b600033905090565b61574082826126da565b6157b75761574d816157bb565b61575b8360001c60206157e8565b60405160200161576c929190617cce565b6040516020818303038152906040526040517f08c379a00000000000000000000000000000000000000000000000000000000081526004016157ae91906169bf565b60405180910390fd5b5050565b60606157e18273ffffffffffffffffffffffffffffffffffffffff16601460ff166157e8565b9050919050565b6060600060028360026157fb9190617d08565b6158059190617444565b67ffffffffffffffff81111561581e5761581d616289565b5b6040519080825280601f01601f1916602001820160405280156158505781602001600182028036833780820191505090505b5090507f30000000000000000000000000000000000000000000000000000000000000008160008151811061588857615887617d4a565b5b60200101907effffffffffffffffffffffffffffffffffffffffffffffffffffffffffffff1916908160001a9053507f7800000000000000000000000000000000000000000000000000000000000000816001815181106158ec576158eb617d4a565b5b60200101907effffffffffffffffffffffffffffffffffffffffffffffffffffffffffffff1916908160001a9053506000600184600261592c9190617d08565b6159369190617444565b90505b60018111156159d6577f3031323334353637383961626364656600000000000000000000000000000000600f86166010811061597857615977617d4a565b5b1a60f81b82828151811061598f5761598e617d4a565b5b60200101907effffffffffffffffffffffffffffffffffffffffffffffffffffffffffffff1916908160001a905350600485901c9450806159cf90617d79565b9050615939565b5060008414615a1a576040517f08c379a0000000000000000000000000000000000000000000000000000000008152600401615a1190617dee565b60405180910390fd5b8091505092915050565b6040518060800160405280600081526020016060815260200160608152602001600081525090565b508054615a58906167d3565b6000825580601f10615a6a5750615a89565b601f016020900490600052602060002090810190615a889190615a8c565b5b50565b5b80821115615aa5576000816000905550600101615a8d565b5090565b6000604051905090565b600080fd5b600080fd5b60007fffffffff0000000000000000000000000000000000000000000000000000000082169050919050565b615af281615abd565b8114615afd57600080fd5b50565b600081359050615b0f81615ae9565b92915050565b600060208284031215615b2b57615b2a615ab3565b5b6000615b3984828501615b00565b91505092915050565b60008115159050919050565b615b5781615b42565b82525050565b6000602082019050615b726000830184615b4e565b92915050565b6000819050919050565b615b8b81615b78565b8114615b9657600080fd5b50565b600081359050615ba881615b82565b92915050565b615bb781615b42565b8114615bc257600080fd5b50565b600081359050615bd481615bae565b92915050565b60008060408385031215615bf157615bf0615ab3565b5b6000615bff85828601615b99565b9250506020615c1085828601615bc5565b9150509250929050565b600060208284031215615c3057615c2f615ab3565b5b6000615c3e84828501615b99565b91505092915050565b615c5081615b78565b82525050565b600081519050919050565b600082825260208201905092915050565b60005b83811015615c90578082015181840152602081019050615c75565b60008484015250505050565b6000601f19601f8301169050919050565b6000615cb882615c56565b615cc28185615c61565b9350615cd2818560208601615c72565b615cdb81615c9c565b840191505092915050565b6000608082019050615cfb6000830187615c47565b8181036020830152615d0d8186615cad565b90508181036040830152615d218185615cad565b9050615d306060830184615c47565b95945050505050565b600060ff82169050919050565b615d4f81615d39565b82525050565b6000602082019050615d6a6000830184615d46565b92915050565b6000819050919050565b615d8381615d70565b8114615d8e57600080fd5b50565b600081359050615da081615d7a565b92915050565b600060208284031215615dbc57615dbb615ab3565b5b6000615dca84828501615d91565b91505092915050565b615ddc81615d70565b82525050565b600060a082019050615df76000830188615b4e565b615e046020830187615dd3565b615e116040830186615d46565b615e1e6060830185615d46565b8181036080830152615e308184615cad565b90509695505050505050565b6000602082019050615e516000830184615dd3565b92915050565b600073ffffffffffffffffffffffffffffffffffffffff82169050919050565b6000615e8282615e57565b9050919050565b615e9281615e77565b8114615e9d57600080fd5b50565b600081359050615eaf81615e89565b92915050565b60008060408385031215615ecc57615ecb615ab3565b5b6000615eda85828601615d91565b9250506020615eeb85828601615ea0565b9150509250929050565b615efe81615b78565b82525050565b600082825260208201905092915050565b6000615f2082615c56565b615f2a8185615f04565b9350615f3a818560208601615c72565b615f4381615c9c565b840191505092915050565b6000608083016000830151615f666000860182615ef5565b5060208301518482036020860152615f7e8282615f15565b91505060408301518482036040860152615f988282615f15565b9150506060830151615fad6060860182615ef5565b508091505092915050565b60006020820190508181036000830152615fd28184615f4e565b905092915050565b600080600060608486031215615ff357615ff2615ab3565b5b600061600186828701615d91565b935050602061601286828701615ea0565b925050604061602386828701615bc5565b9150509250925092565b7f4e487b7100000000000000000000000000000000000000000000000000000000600052602160045260246000fd5b6004811061606d5761606c61602d565b5b50565b600081905061607e8261605c565b919050565b600061608e82616070565b9050919050565b61609e81616083565b82525050565b600381106160b5576160b461602d565b5b50565b60008190506160c6826160a4565b919050565b60006160d6826160b8565b9050919050565b6160e6816160cb565b82525050565b601081106160fd576160fc61602d565b5b50565b600081905061610e826160ec565b919050565b600061611e82616100565b9050919050565b61612e81616113565b82525050565b600060c0820190506161496000830189616095565b61615660208301886160dd565b6161636040830187616125565b6161706060830186615c47565b61617d6080830185615b4e565b61618a60a0830184615c47565b979650505050505050565b600481106161a257600080fd5b50565b6000813590506161b481616195565b92915050565b600381106161c757600080fd5b50565b6000813590506161d9816161ba565b92915050565b601081106161ec57600080fd5b50565b6000813590506161fe816161df565b92915050565b600080600080600060a086880312156162205761621f615ab3565b5b600061622e88828901615b99565b955050602061623f888289016161a5565b9450506040616250888289016161ca565b9350506060616261888289016161ef565b925050608061627288828901615bc5565b9150509295509295909350565b600080fd5b600080fd5b7f4e487b7100000000000000000000000000000000000000000000000000000000600052604160045260246000fd5b6162c182615c9c565b810181811067ffffffffffffffff821117156162e0576162df616289565b5b80604052505050565b60006162f3615aa9565b90506162ff82826162b8565b919050565b600067ffffffffffffffff82111561631f5761631e616289565b5b61632882615c9c565b9050602081019050919050565b82818337600083830152505050565b600061635761635284616304565b6162e9565b90508281526020810184848401111561637357616372616284565b5b61637e848285616335565b509392505050565b600082601f83011261639b5761639a61627f565b5b81356163ab848260208601616344565b91505092915050565b600080600080608085870312156163ce576163cd615ab3565b5b60006163dc87828801615b99565b945050602085013567ffffffffffffffff8111156163fd576163fc615ab8565b5b61640987828801616386565b935050604085013567ffffffffffffffff81111561642a57616429615ab8565b5b61643687828801616386565b925050606061644787828801615b99565b91505092959194509250565b6000806040838503121561646a57616469615ab3565b5b600061647885828601615b99565b925050602061648985828601615b99565b9150509250929050565b60006020820190506164a86000830184615c47565b92915050565b7f43616c6c6572206973206e6f7420612063657274696669657200000000000000600082015250565b60006164e4601983615c61565b91506164ef826164ae565b602082019050919050565b60006020820190508181036000830152616513816164d7565b9050919050565b7f4964206d7573742062652067726561746572207468616e203000000000000000600082015250565b6000616550601983615c61565b915061655b8261651a565b602082019050919050565b6000602082019050818103600083015261657f81616543565b9050919050565b7f546869732073747564656e7420646f65736e2774206578697374000000000000600082015250565b60006165bc601a83615c61565b91506165c782616586565b602082019050919050565b600060208201905081810360008301526165eb816165af565b9050919050565b6000819050919050565b61660d61660882615b78565b6165f2565b82525050565b600081905092915050565b7f44454c4554452053545544454e54000000000000000000000000000000000000600082015250565b6000616654600e83616613565b915061665f8261661e565b600e82019050919050565b600061667682846165fc565b60208201915061668582616647565b915081905092915050565b600061669c82846165fc565b60208201915081905092915050565b7f44656c6574652073747564656e74200000000000000000000000000000000000815250565b60006166dc82615c56565b6166e68185616613565b93506166f6818560208601615c72565b80840191505092915050565b600061670d826166ab565b600f8201915061671d82846166d1565b915081905092915050565b600063ffffffff82169050919050565b7f4e487b7100000000000000000000000000000000000000000000000000000000600052601160045260246000fd5b600061677282616728565b915061677d83616728565b925082820261678b81616728565b915080821461679d5761679c616738565b5b5092915050565b7f4e487b7100000000000000000000000000000000000000000000000000000000600052602260045260246000fd5b600060028204905060018216806167eb57607f821691505b6020821081036167fe576167fd6167a4565b5b50919050565b7f596f752063616e27742072656e6f756e636520746f20796f757220726f6c652e60008201527f20506c6561736520636f6e746163742061646d696e7300000000000000000000602082015250565b6000616860603683615c61565b915061686b82616804565b604082019050919050565b6000602082019050818103600083015261688f81616853565b9050919050565b7f53747564656e7420646f65736e27742065786973740000000000000000000000600082015250565b60006168cc601583615c61565b91506168d782616896565b602082019050919050565b600060208201905081810360008301526168fb816168bf565b9050919050565b6000819050919050565b61691d61691882615d70565b616902565b82525050565b600061692f828461690c565b60208201915081905092915050565b7f4d61782000000000000000000000000000000000000000000000000000000000815250565b7f2072656163686564000000000000000000000000000000000000000000000000815250565b60006169958261693e565b6004820191506169a582846166d1565b91506169b082616964565b60088201915081905092915050565b600060208201905081810360008301526169d98184615cad565b905092915050565b7f43616c6c6572206973206e6f7420612000000000000000000000000000000000815250565b7f2061646d696e0000000000000000000000000000000000000000000000000000815250565b6000616a38826169e1565b601082019150616a4882846166d1565b9150616a5382616a07565b60068201915081905092915050565b7f54686973206164647265737320697320616c7265616479206120000000000000815250565b6000616a9382616a62565b601a82019150616aa382846166d1565b915081905092915050565b60008160601b9050919050565b6000616ac682616aae565b9050919050565b6000616ad882616abb565b9050919050565b616af0616aeb82615e77565b616acd565b82525050565b7f4752414e54000000000000000000000000000000000000000000000000000000600082015250565b6000616b2c600583616613565b9150616b3782616af6565b600582019050919050565b6000616b4e8285616adf565b601482019150616b5d82616b1f565b9150616b69828461690c565b6020820191508190509392505050565b6000616b858284616adf565b60148201915081905092915050565b7f4772616e74200000000000000000000000000000000000000000000000000000815250565b7f2000000000000000000000000000000000000000000000000000000000000000815250565b6000616beb82616b94565b600682019150616bfb82856166d1565b9150616c0682616bba565b600182019150616c1682846166d1565b91508190509392505050565b6000616c2d82616728565b9150616c3883616728565b9250828201905063ffffffff811115616c5457616c53616738565b5b92915050565b7f417070726563696174696f6e206973206e6f742076616c696400000000000000600082015250565b6000616c90601983615c61565b9150616c9b82616c5a565b602082019050919050565b60006020820190508181036000830152616cbf81616c83565b9050919050565b7f446567726565206973206e6f742076616c696400000000000000000000000000600082015250565b6000616cfc601383615c61565b9150616d0782616cc6565b602082019050919050565b60006020820190508181036000830152616d2b81616cef565b9050919050565b7f50726f6772616d206973206e6f742076616c6964000000000000000000000000600082015250565b6000616d68601483615c61565b9150616d7382616d32565b602082019050919050565b60006020820190508181036000830152616d9781616d5b565b9050919050565b60008160f81b9050919050565b6000616db682616d9e565b9050919050565b616dce616dc982616083565b616dab565b82525050565b616de5616de0826160cb565b616dab565b82525050565b616dfc616df782616113565b616dab565b82525050565b6000616e0e82876165fc565b602082019150616e1e8286616dbd565b600182019150616e2e8285616dd4565b600182019150616e3e8284616deb565b60018201915081905095945050505050565b7f5468697320636572746966696361746520646f65736e27742065786973740000600082015250565b6000616e86601e83615c61565b9150616e9182616e50565b602082019050919050565b60006020820190508181036000830152616eb581616e79565b9050919050565b7f44454c4554450000000000000000000000000000000000000000000000000000600082015250565b6000616ef2600683616613565b9150616efd82616ebc565b600682019050919050565b6000616f1482876165fc565b602082019150616f248286616dbd565b600182019150616f348285616dd4565b600182019150616f448284616deb565b600182019150616f5382616ee5565b915081905095945050505050565b6000616f6d8284616dbd565b60018201915081905092915050565b6000616f888284616dd4565b60018201915081905092915050565b6000616fa38284616deb565b60018201915081905092915050565b7f44656c6574652000000000000000000000000000000000000000000000000000815250565b6000616fe382616fb2565b600782019150616ff382876166d1565b9150616ffe82616bba565b60018201915061700e82866166d1565b915061701982616bba565b60018201915061702982856166d1565b915061703482616bba565b60018201915061704482846166d1565b915081905095945050505050565b7f46697273746e616d652063616e6e6f7420626520656d70747900000000000000600082015250565b6000617088601983615c61565b915061709382617052565b602082019050919050565b600060208201905081810360008301526170b78161707b565b9050919050565b7f4c6173746e616d652063616e6e6f7420626520656d7074790000000000000000600082015250565b60006170f4601883615c61565b91506170ff826170be565b602082019050919050565b60006020820190508181036000830152617123816170e7565b9050919050565b7f426972746864617465206d7573742062652067726561746572207468616e2030600082015250565b6000617160602083615c61565b915061716b8261712a565b602082019050919050565b6000602082019050818103600083015261718f81617153565b9050919050565b7f546869732073747564656e7420616c7265616479206578697374730000000000600082015250565b60006171cc601b83615c61565b91506171d782617196565b602082019050919050565b600060208201905081810360008301526171fb816171bf565b9050919050565b7f5468697320636572746966696361746520616c72656164792065786973747300600082015250565b6000617238601f83615c61565b915061724382617202565b602082019050919050565b600060208201905081810360008301526172678161722b565b9050919050565b7f4345525449465900000000000000000000000000000000000000000000000000600082015250565b60006172a4600783616613565b91506172af8261726e565b600782019050919050565b60006172c682876165fc565b6020820191506172d68286616dbd565b6001820191506172e68285616dd4565b6001820191506172f68284616deb565b60018201915061730582617297565b915081905095945050505050565b7f4365727469667920000000000000000000000000000000000000000000000000815250565b600061734482617313565b60088201915061735482876166d1565b915061735f82616bba565b60018201915061736f82866166d1565b915061737a82616bba565b60018201915061738a82856166d1565b915061739582616bba565b6001820191506173a582846166d1565b915081905095945050505050565b7f4e487b7100000000000000000000000000000000000000000000000000000000600052601260045260246000fd5b60006173ed82615b78565b91506173f883615b78565b925082617408576174076173b3565b5b828206905092915050565b600061741e82615b78565b915061742983615b78565b925082617439576174386173b3565b5b828204905092915050565b600061744f82615b78565b915061745a83615b78565b925082820190508082111561747257617471616738565b5b92915050565b7f4d696e2000000000000000000000000000000000000000000000000000000000815250565b60006174a982617478565b6004820191506174b982846166d1565b91506174c482616964565b60088201915081905092915050565b7f546869732061646472657373206973206e6f7420612000000000000000000000815250565b6000617504826174d3565b60168201915061751482846166d1565b915081905092915050565b7f5245564f4b450000000000000000000000000000000000000000000000000000600082015250565b6000617555600683616613565b91506175608261751f565b600682019050919050565b60006175778285616adf565b60148201915061758682617548565b9150617592828461690c565b6020820191508190509392505050565b7f5265766f6b652000000000000000000000000000000000000000000000000000815250565b60006175d3826175a2565b6007820191506175e382856166d1565b91506175ee82616bba565b6001820191506175fe82846166d1565b91508190509392505050565b600061761582616728565b915061762083616728565b9250828203905063ffffffff81111561763c5761763b616738565b5b92915050565b600061764d82615d39565b915061765883615d39565b9250828203905060ff81111561767157617670616738565b5b92915050565b600061768282615b78565b91507fffffffffffffffffffffffffffffffffffffffffffffffffffffffffffffffff82036176b4576176b3616738565b5b600182019050919050565b60008190508160005260206000209050919050565b60006020601f8301049050919050565b600082821b905092915050565b6000600883026177217fffffffffffffffffffffffffffffffffffffffffffffffffffffffffffffffff826176e4565b61772b86836176e4565b95508019841693508086168417925050509392505050565b6000819050919050565b600061776861776361775e84615b78565b617743565b615b78565b9050919050565b6000819050919050565b6177828361774d565b61779661778e8261776f565b8484546176f1565b825550505050565b600090565b6177ab61779e565b6177b6818484617779565b505050565b5b818110156177da576177cf6000826177a3565b6001810190506177bc565b5050565b601f82111561781f576177f0816176bf565b6177f9846176d4565b81016020851015617808578190505b61781c617814856176d4565b8301826177bb565b50505b505050565b600082821c905092915050565b600061784260001984600802617824565b1980831691505092915050565b600061785b8383617831565b9150826002028217905092915050565b61787482615c56565b67ffffffffffffffff81111561788d5761788c616289565b5b61789782546167d3565b6178a28282856177de565b600060209050601f8311600181146178d557600084156178c3578287015190505b6178cd858261784f565b865550617935565b601f1984166178e3866176bf565b60005b8281101561790b578489015182556001820191506020850194506020810190506178e6565b868310156179285784890151617924601f891682617831565b8355505b6001600288020188555050505b505050505050565b7f596f7520616c7265616479207369676e65642074686973206d756c7469736967600082015250565b6000617973602083615c61565b915061797e8261793d565b602082019050919050565b600060208201905081810360008301526179a281617966565b9050919050565b60006179b482615d39565b915060ff82036179c7576179c6616738565b5b600182019050919050565b60006179dd82615d39565b91506179e883615d39565b9250828201905060ff811115617a0157617a00616738565b5b92915050565b7f596f752068617665206e6f7465207369676e65642074686973206d756c74697360008201527f6967207965740000000000000000000000000000000000000000000000000000602082015250565b6000617a63602683615c61565b9150617a6e82617a07565b604082019050919050565b60006020820190508181036000830152617a9281617a56565b9050919050565b6000608082019050617aae6000830187615c47565b617abb6020830186616095565b617ac860408301856160dd565b617ad56060830184616125565b95945050505050565b7f53747564656e7420646f6573206e6f7420657869737400000000000000000000600082015250565b6000617b14601683615c61565b9150617b1f82617ade565b602082019050919050565b60006020820190508181036000830152617b4381617b07565b9050919050565b60008154617b57816167d3565b617b618186616613565b94506001821660008114617b7c5760018114617b9157617bc4565b60ff1983168652811515820286019350617bc4565b617b9a856176bf565b60005b83811015617bbc57815481890152600182019150602081019050617b9d565b838801955050505b50505092915050565b6000617bd98284617b4a565b915081905092915050565b6000617bf082846166d1565b915081905092915050565b50565b6000617c0b600083616613565b9150617c1682617bfb565b600082019050919050565b6000617c2c82617bfe565b9150819050919050565b7f416363657373436f6e74726f6c3a206163636f756e7420000000000000000000600082015250565b6000617c6c601783616613565b9150617c7782617c36565b601782019050919050565b7f206973206d697373696e6720726f6c6520000000000000000000000000000000600082015250565b6000617cb8601183616613565b9150617cc382617c82565b601182019050919050565b6000617cd982617c5f565b9150617ce582856166d1565b9150617cf082617cab565b9150617cfc82846166d1565b91508190509392505050565b6000617d1382615b78565b9150617d1e83615b78565b9250828202617d2c81615b78565b91508282048414831517617d4357617d42616738565b5b5092915050565b7f4e487b7100000000000000000000000000000000000000000000000000000000600052603260045260246000fd5b6000617d8482615b78565b915060008203617d9757617d96616738565b5b600182039050919050565b7f537472696e67733a20686578206c656e67746820696e73756666696369656e74600082015250565b6000617dd8602083615c61565b9150617de382617da2565b602082019050919050565b60006020820190508181036000830152617e0781617dcb565b905091905056fea2646970667358221220c66d9b849f231a7bc83efa40f4584f4f7488dc262f3b24f8d5d8ce8f3d873f7c64736f6c63430008130033",
  "linkReferences": {},
  "deployedLinkReferences": {}
}