{
  "_format": "hh-sol-artifact-1",
  "contractName": "Certifications",
  "sourceName": "contracts/Certifications.sol",
  "abi": [
    {
      "inputs": [
        {
          "internalType": "address",
          "name": "certifier_admin1",
          "type": "address"
        },
        {
          "internalType": "address",
          "name": "certifier_admin2",
          "type": "address"
        }
      ],
      "stateMutability": "nonpayable",
      "type": "constructor"
    },
    {
      "anonymous": false,
      "inputs": [
        {
          "indexed": true,
          "internalType": "bytes32",
          "name": "role",
          "type": "bytes32"
        },
        {
          "indexed": true,
          "internalType": "bytes32",
          "name": "previousAdminRole",
          "type": "bytes32"
        },
        {
          "indexed": true,
          "internalType": "bytes32",
          "name": "newAdminRole",
          "type": "bytes32"
        }
      ],
      "name": "RoleAdminChanged",
      "type": "event"
    },
    {
      "anonymous": false,
      "inputs": [
        {
          "indexed": true,
          "internalType": "bytes32",
          "name": "role",
          "type": "bytes32"
        },
        {
          "indexed": true,
          "internalType": "address",
          "name": "account",
          "type": "address"
        },
        {
          "indexed": true,
          "internalType": "address",
          "name": "sender",
          "type": "address"
        }
      ],
      "name": "RoleGranted",
      "type": "event"
    },
    {
      "anonymous": false,
      "inputs": [
        {
          "indexed": true,
          "internalType": "bytes32",
          "name": "role",
          "type": "bytes32"
        },
        {
          "indexed": true,
          "internalType": "address",
          "name": "account",
          "type": "address"
        },
        {
          "indexed": true,
          "internalType": "address",
          "name": "sender",
          "type": "address"
        }
      ],
      "name": "RoleRevoked",
      "type": "event"
    },
    {
      "anonymous": false,
      "inputs": [
        {
          "indexed": false,
          "internalType": "uint256",
          "name": "id",
          "type": "uint256"
        },
        {
          "indexed": false,
          "internalType": "string",
          "name": "firstname",
          "type": "string"
        },
        {
          "indexed": false,
          "internalType": "string",
          "name": "lastname",
          "type": "string"
        },
        {
          "indexed": false,
          "internalType": "uint256",
          "name": "birthdate",
          "type": "uint256"
        }
      ],
      "name": "StudentAdded",
      "type": "event"
    },
    {
      "anonymous": false,
      "inputs": [
        {
          "indexed": false,
          "internalType": "uint256",
          "name": "id",
          "type": "uint256"
        }
      ],
      "name": "StudentDeleted",
      "type": "event"
    },
    {
      "anonymous": false,
      "inputs": [
        {
          "indexed": false,
          "internalType": "uint256",
          "name": "id",
          "type": "uint256"
        },
        {
          "indexed": false,
          "internalType": "string",
          "name": "firstname",
          "type": "string"
        },
        {
          "indexed": false,
          "internalType": "string",
          "name": "lastname",
          "type": "string"
        },
        {
          "indexed": false,
          "internalType": "uint256",
          "name": "birthdate",
          "type": "uint256"
        }
      ],
      "name": "StudentEdited",
      "type": "event"
    },
    {
      "anonymous": false,
      "inputs": [
        {
          "indexed": false,
          "internalType": "uint256",
          "name": "studentId",
          "type": "uint256"
        },
        {
          "indexed": false,
          "internalType": "enum Certifications.appreciation",
          "name": "appreciation",
          "type": "uint8"
        },
        {
          "indexed": false,
          "internalType": "enum Certifications.degree",
          "name": "degree",
          "type": "uint8"
        },
        {
          "indexed": false,
          "internalType": "enum Certifications.program",
          "name": "program",
          "type": "uint8"
        }
      ],
      "name": "certificationEmited",
      "type": "event"
    },
    {
      "anonymous": false,
      "inputs": [
        {
          "indexed": false,
          "internalType": "bytes32",
          "name": "multiSigName",
          "type": "bytes32"
        }
      ],
      "name": "multiSigCleared",
      "type": "event"
    },
    {
      "anonymous": false,
      "inputs": [
        {
          "indexed": false,
          "internalType": "bytes32",
          "name": "multiSigName",
          "type": "bytes32"
        }
      ],
      "name": "multiSigSigned",
      "type": "event"
    },
    {
      "inputs": [],
      "name": "CERTIFIER",
      "outputs": [
        {
          "internalType": "bytes32",
          "name": "",
          "type": "bytes32"
        }
      ],
      "stateMutability": "view",
      "type": "function"
    },
    {
      "inputs": [],
      "name": "CERTIFIER_ADMIN",
      "outputs": [
        {
          "internalType": "bytes32",
          "name": "",
          "type": "bytes32"
        }
      ],
      "stateMutability": "view",
      "type": "function"
    },
    {
      "inputs": [],
      "name": "DEFAULT_ADMIN_ROLE",
      "outputs": [
        {
          "internalType": "bytes32",
          "name": "",
          "type": "bytes32"
        }
      ],
      "stateMutability": "view",
      "type": "function"
    },
    {
      "inputs": [],
      "name": "MAX_CERTIFIERS",
      "outputs": [
        {
          "internalType": "uint8",
          "name": "",
          "type": "uint8"
        }
      ],
      "stateMutability": "view",
      "type": "function"
    },
    {
      "inputs": [],
      "name": "MAX_CERTIFIERS_ADMIN",
      "outputs": [
        {
          "internalType": "uint8",
          "name": "",
          "type": "uint8"
        }
      ],
      "stateMutability": "view",
      "type": "function"
    },
    {
      "inputs": [],
      "name": "MIN_CERTIFIERS_ADMIN",
      "outputs": [
        {
          "internalType": "uint8",
          "name": "",
          "type": "uint8"
        }
      ],
      "stateMutability": "view",
      "type": "function"
    },
    {
      "inputs": [],
      "name": "PERCENT_TO_CERTIFY",
      "outputs": [
        {
          "internalType": "uint8",
          "name": "",
          "type": "uint8"
        }
      ],
      "stateMutability": "view",
      "type": "function"
    },
    {
      "inputs": [],
      "name": "PERCENT_TO_DELETE_STUDENT",
      "outputs": [
        {
          "internalType": "uint8",
          "name": "",
          "type": "uint8"
        }
      ],
      "stateMutability": "view",
      "type": "function"
    },
    {
      "inputs": [],
      "name": "PERCENT_TO_EDIT_CERTIFICATE",
      "outputs": [
        {
          "internalType": "uint8",
          "name": "",
          "type": "uint8"
        }
      ],
      "stateMutability": "view",
      "type": "function"
    },
    {
      "inputs": [],
      "name": "PERCENT_TO_GRANT_CERTIFIER",
      "outputs": [
        {
          "internalType": "uint8",
          "name": "",
          "type": "uint8"
        }
      ],
      "stateMutability": "view",
      "type": "function"
    },
    {
      "inputs": [],
      "name": "PERCENT_TO_GRANT_CERTIFIER_ADMIN",
      "outputs": [
        {
          "internalType": "uint8",
          "name": "",
          "type": "uint8"
        }
      ],
      "stateMutability": "view",
      "type": "function"
    },
    {
      "inputs": [],
      "name": "PERCENT_TO_REVOKE_CERTIFIER",
      "outputs": [
        {
          "internalType": "uint8",
          "name": "",
          "type": "uint8"
        }
      ],
      "stateMutability": "view",
      "type": "function"
    },
    {
      "inputs": [],
      "name": "PERCENT_TO_REVOKE_CERTIFIER_ADMIN",
      "outputs": [
        {
          "internalType": "uint8",
          "name": "",
          "type": "uint8"
        }
      ],
      "stateMutability": "view",
      "type": "function"
    },
    {
      "inputs": [
        {
          "internalType": "uint256",
          "name": "a",
          "type": "uint256"
        },
        {
          "internalType": "uint256",
          "name": "b",
          "type": "uint256"
        }
      ],
      "name": "ceilUDiv",
      "outputs": [
        {
          "internalType": "uint256",
          "name": "",
          "type": "uint256"
        }
      ],
      "stateMutability": "pure",
      "type": "function"
    },
    {
      "inputs": [
        {
          "internalType": "bytes32",
          "name": "",
          "type": "bytes32"
        }
      ],
      "name": "certificates",
      "outputs": [
        {
          "internalType": "enum Certifications.appreciation",
          "name": "appreciation",
          "type": "uint8"
        },
        {
          "internalType": "enum Certifications.degree",
          "name": "degree",
          "type": "uint8"
        },
        {
          "internalType": "enum Certifications.program",
          "name": "program",
          "type": "uint8"
        },
        {
          "internalType": "uint256",
          "name": "creation_date",
          "type": "uint256"
        },
        {
          "internalType": "bool",
          "name": "validity",
          "type": "bool"
        },
        {
          "internalType": "uint256",
          "name": "stud_id",
          "type": "uint256"
        }
      ],
      "stateMutability": "view",
      "type": "function"
    },
    {
      "inputs": [
        {
          "internalType": "uint256",
          "name": "",
          "type": "uint256"
        },
        {
          "internalType": "uint256",
          "name": "",
          "type": "uint256"
        }
      ],
      "name": "certificatesByStudent",
      "outputs": [
        {
          "internalType": "bytes32",
          "name": "",
          "type": "bytes32"
        }
      ],
      "stateMutability": "view",
      "type": "function"
    },
    {
      "inputs": [
        {
          "internalType": "uint256",
          "name": "studentId",
          "type": "uint256"
        },
        {
          "internalType": "enum Certifications.appreciation",
          "name": "app",
          "type": "uint8"
        },
        {
          "internalType": "enum Certifications.degree",
          "name": "deg",
          "type": "uint8"
        },
        {
          "internalType": "enum Certifications.program",
          "name": "prog",
          "type": "uint8"
        },
        {
          "internalType": "bool",
          "name": "approve",
          "type": "bool"
        }
      ],
      "name": "certify",
      "outputs": [],
      "stateMutability": "nonpayable",
      "type": "function"
    },
    {
      "inputs": [
        {
          "internalType": "uint256",
          "name": "_id",
          "type": "uint256"
        },
        {
          "internalType": "string",
          "name": "_firstname",
          "type": "string"
        },
        {
          "internalType": "string",
          "name": "_lastname",
          "type": "string"
        },
        {
          "internalType": "uint256",
          "name": "_birthdate",
          "type": "uint256"
        }
      ],
      "name": "createStudent",
      "outputs": [],
      "stateMutability": "nonpayable",
      "type": "function"
    },
    {
      "inputs": [
        {
          "internalType": "uint256",
          "name": "studentId",
          "type": "uint256"
        },
        {
          "internalType": "enum Certifications.appreciation",
          "name": "app",
          "type": "uint8"
        },
        {
          "internalType": "enum Certifications.degree",
          "name": "deg",
          "type": "uint8"
        },
        {
          "internalType": "enum Certifications.program",
          "name": "prog",
          "type": "uint8"
        },
        {
          "internalType": "bool",
          "name": "approve",
          "type": "bool"
        }
      ],
      "name": "deleteCertificate",
      "outputs": [],
      "stateMutability": "nonpayable",
      "type": "function"
    },
    {
      "inputs": [
        {
          "internalType": "uint256",
          "name": "_id",
          "type": "uint256"
        },
        {
          "internalType": "string",
          "name": "_firstname",
          "type": "string"
        },
        {
          "internalType": "string",
          "name": "_lastname",
          "type": "string"
        },
        {
          "internalType": "uint256",
          "name": "_birthdate",
          "type": "uint256"
        }
      ],
      "name": "editStudentById",
      "outputs": [],
      "stateMutability": "nonpayable",
      "type": "function"
    },
    {
      "inputs": [
        {
          "internalType": "uint256",
          "name": "_id",
          "type": "uint256"
        }
      ],
      "name": "getCertificatesByStudent",
      "outputs": [
        {
          "internalType": "bytes32[]",
          "name": "",
          "type": "bytes32[]"
        }
      ],
      "stateMutability": "view",
      "type": "function"
    },
    {
      "inputs": [
        {
          "internalType": "bytes32",
          "name": "role",
          "type": "bytes32"
        }
      ],
      "name": "getRoleAdmin",
      "outputs": [
        {
          "internalType": "bytes32",
          "name": "",
          "type": "bytes32"
        }
      ],
      "stateMutability": "view",
      "type": "function"
    },
    {
      "inputs": [
        {
          "internalType": "uint256",
          "name": "_id",
          "type": "uint256"
        }
      ],
      "name": "getStudent",
      "outputs": [
        {
          "components": [
            {
              "internalType": "uint256",
              "name": "id",
              "type": "uint256"
            },
            {
              "internalType": "string",
              "name": "firstname",
              "type": "string"
            },
            {
              "internalType": "string",
              "name": "lastname",
              "type": "string"
            },
            {
              "internalType": "uint256",
              "name": "birthdate",
              "type": "uint256"
            }
          ],
          "internalType": "struct Students.Student",
          "name": "",
          "type": "tuple"
        }
      ],
      "stateMutability": "view",
      "type": "function"
    },
    {
      "inputs": [
        {
          "internalType": "bytes32",
          "name": "roleHash",
          "type": "bytes32"
        },
        {
          "internalType": "address",
          "name": "target",
          "type": "address"
        },
        {
          "internalType": "bool",
          "name": "approve",
          "type": "bool"
        }
      ],
      "name": "grantAnyRole",
      "outputs": [],
      "stateMutability": "nonpayable",
      "type": "function"
    },
    {
      "inputs": [
        {
          "internalType": "bytes32",
          "name": "role",
          "type": "bytes32"
        },
        {
          "internalType": "address",
          "name": "account",
          "type": "address"
        }
      ],
      "name": "grantRole",
      "outputs": [],
      "stateMutability": "nonpayable",
      "type": "function"
    },
    {
      "inputs": [
        {
          "internalType": "bytes32",
          "name": "role",
          "type": "bytes32"
        },
        {
          "internalType": "address",
          "name": "account",
          "type": "address"
        }
      ],
      "name": "hasRole",
      "outputs": [
        {
          "internalType": "bool",
          "name": "",
          "type": "bool"
        }
      ],
      "stateMutability": "view",
      "type": "function"
    },
    {
      "inputs": [
        {
          "internalType": "bytes32",
          "name": "",
          "type": "bytes32"
        }
      ],
      "name": "multiSig",
      "outputs": [
        {
          "internalType": "bool",
          "name": "created",
          "type": "bool"
        },
        {
          "internalType": "bytes32",
          "name": "role",
          "type": "bytes32"
        },
        {
          "internalType": "uint8",
          "name": "count",
          "type": "uint8"
        },
        {
          "internalType": "uint8",
          "name": "id",
          "type": "uint8"
        },
        {
          "internalType": "string",
          "name": "info",
          "type": "string"
        }
      ],
      "stateMutability": "view",
      "type": "function"
    },
    {
      "inputs": [
        {
          "internalType": "uint256",
          "name": "",
          "type": "uint256"
        }
      ],
      "name": "multiSigId",
      "outputs": [
        {
          "internalType": "bytes32",
          "name": "",
          "type": "bytes32"
        }
      ],
      "stateMutability": "view",
      "type": "function"
    },
    {
      "inputs": [
        {
          "internalType": "uint256",
          "name": "_id",
          "type": "uint256"
        },
        {
          "internalType": "bool",
          "name": "_approve",
          "type": "bool"
        }
      ],
      "name": "removeStudentById",
      "outputs": [],
      "stateMutability": "nonpayable",
      "type": "function"
    },
    {
      "inputs": [
        {
          "internalType": "bytes32",
          "name": "",
          "type": "bytes32"
        },
        {
          "internalType": "address",
          "name": "",
          "type": "address"
        }
      ],
      "name": "renounceRole",
      "outputs": [],
      "stateMutability": "nonpayable",
      "type": "function"
    },
    {
      "inputs": [
        {
          "internalType": "bytes32",
          "name": "roleHash",
          "type": "bytes32"
        },
        {
          "internalType": "address",
          "name": "target",
          "type": "address"
        },
        {
          "internalType": "bool",
          "name": "approve",
          "type": "bool"
        }
      ],
      "name": "revokeAnyRole",
      "outputs": [],
      "stateMutability": "nonpayable",
      "type": "function"
    },
    {
      "inputs": [
        {
          "internalType": "bytes32",
          "name": "role",
          "type": "bytes32"
        },
        {
          "internalType": "address",
          "name": "account",
          "type": "address"
        }
      ],
      "name": "revokeRole",
      "outputs": [],
      "stateMutability": "nonpayable",
      "type": "function"
    },
    {
      "inputs": [
        {
          "internalType": "uint256",
          "name": "",
          "type": "uint256"
        }
      ],
      "name": "students",
      "outputs": [
        {
          "internalType": "uint256",
          "name": "id",
          "type": "uint256"
        },
        {
          "internalType": "string",
          "name": "firstname",
          "type": "string"
        },
        {
          "internalType": "string",
          "name": "lastname",
          "type": "string"
        },
        {
          "internalType": "uint256",
          "name": "birthdate",
          "type": "uint256"
        }
      ],
      "stateMutability": "view",
      "type": "function"
    },
    {
      "inputs": [
        {
          "internalType": "uint256",
          "name": "",
          "type": "uint256"
        }
      ],
      "name": "studentsIds",
      "outputs": [
        {
          "internalType": "uint256",
          "name": "",
          "type": "uint256"
        }
      ],
      "stateMutability": "view",
      "type": "function"
    },
    {
      "inputs": [
        {
          "internalType": "bytes4",
          "name": "interfaceId",
          "type": "bytes4"
        }
      ],
      "name": "supportsInterface",
      "outputs": [
        {
          "internalType": "bool",
          "name": "",
          "type": "bool"
        }
      ],
      "stateMutability": "view",
      "type": "function"
    }
  ],
  "bytecode": "0x60806040523480156200001157600080fd5b5060405162004302380380620043028339810160408190526200003491620005de565b6001600160a01b0382166200009c5760405162461bcd60e51b8152602060048201526024808201527f4365727469666965722061646d696e3120616464726573732063616e6e6f74206044820152630626520360e41b60648201526084015b60405180910390fd5b6001600160a01b038116620001005760405162461bcd60e51b8152602060048201526024808201527f4365727469666965722061646d696e3220616464726573732063616e6e6f74206044820152630626520360e41b606482015260840162000093565b806001600160a01b0316826001600160a01b031603620001725760405162461bcd60e51b815260206004820152602660248201527f436572746966696572206164647265737365732063616e6e6f74206265207468604482015265652073616d6560d01b606482015260840162000093565b6200018d600080516020620042c28339815191528362000511565b620001a8600080516020620042c28339815191528262000521565b6040805160e0810182526002808252602080830191909152600f828401526050606083018190526080830152600080516020620042c283398151915260a08301529151909160c08301916200021391016e21a2a92a24a324a2a92fa0a226a4a760891b8152600f0190565b6040516020818303038152906040526200022d9062000616565b9052600080516020620042c283398151915260009081526003602090815282517f996892c26f58715b0987b59a23f94e8ef0c02cd4cae9fdbc7a2316b6cd446de080549285015160408601516060870151608088015160ff908116600160681b0260ff60681b19919092166c010000000000000000000000000260ff60601b1963ffffffff94851668010000000000000000021664ffffffffff60401b19958516640100000000026001600160401b03199099169490971693909317969096179290921693909317929092179290921617905560a08201517f996892c26f58715b0987b59a23f94e8ef0c02cd4cae9fdbc7a2316b6cd446de15560c0909101517f996892c26f58715b0987b59a23f94e8ef0c02cd4cae9fdbc7a2316b6cd446de2556200036b90600080516020620042e28339815191529062000511565b6040805160e0810182526000808252602080830191909152600f828401526050606083018190526080830152600080516020620042c283398151915260a08301529151909160c0830191620003d091016821a2a92a24a324a2a960b91b815260090190565b604051602081830303815290604052620003ea9062000616565b9052600080516020620042e28339815191526000526003602090815281517f04ed60087a82bd97d8afa881e356d9b31a57e1f4fa6c3493c1181428b0c3356280549284015160408501516060860151608087015160ff908116600160681b0260ff60681b19919092166c010000000000000000000000000260ff60601b1963ffffffff94851668010000000000000000021664ffffffffff60401b19958516640100000000026001600160401b03199099169490971693909317969096179290921693909317929092179290921617905560a08101517f04ed60087a82bd97d8afa881e356d9b31a57e1f4fa6c3493c1181428b0c335635560c001517f04ed60087a82bd97d8afa881e356d9b31a57e1f4fa6c3493c1181428b0c3356455506200063e9050565b6200051d828262000521565b5050565b6000828152602081815260408083206001600160a01b038516845290915290205460ff166200051d576000828152602081815260408083206001600160a01b03851684529091529020805460ff191660011790556200057d3390565b6001600160a01b0316816001600160a01b0316837f2f8788117e7eff1d82e926ec794901d17c78024a50270940304540a733656f0d60405160405180910390a45050565b80516001600160a01b0381168114620005d957600080fd5b919050565b60008060408385031215620005f257600080fd5b620005fd83620005c1565b91506200060d60208401620005c1565b90509250929050565b8051602080830151919081101562000638576000198160200360031b1b821691505b50919050565b613c74806200064e6000396000f3fe608060405234801561001057600080fd5b50600436106102115760003560e01c8063742f068811610125578063b86bc74f116100ad578063d3243ad81161007c578063d3243ad814610476578063d547741f14610489578063df3a12dd1461049c578063e05f2fb4146104af578063e5a357f5146104d657600080fd5b8063b86bc74f1461043b578063bf80209114610450578063c9dbcfda14610463578063d0fb68c71461027657600080fd5b80639dd09a73116100f45780639dd09a73146103ed5780639e33990914610326578063a1cebf521461040d578063a217fddf14610420578063ace819101461042857600080fd5b8063742f0688146103695780637cd29fb7146102765780638856a0e9146103c757806391d14854146103da57600080fd5b80632f2ff15d116101a85780634da11a20116101775780634da11a20146102765780635907ebea14610326578063642f91631461032e5780636bc6421b1461034e578063719129be1461035657600080fd5b80632f2ff15d146102e557806333b72e49146102f857806336568abe146103005780634cce913b1461031357600080fd5b80631a968069116101e45780631a968069146102905780631a9cfe2814610276578063248a9ca3146102b45780632cd94e4f1461027657600080fd5b806301ffc9a71461021657806305f84d451461023e57806306ead22e146102535780630f68794a14610276575b600080fd5b610229610224366004612e60565b6104f6565b60405190151581526020015b60405180910390f35b61025161024c366004612e9f565b61052d565b005b610266610261366004612ecb565b6107bf565b6040516102359493929190612f34565b61027e605081565b60405160ff9091168152602001610235565b6102a361029e366004612ecb565b6108f7565b604051610235959493929190612f71565b6102d76102c2366004612ecb565b60009081526020819052604090206001015490565b604051908152602001610235565b6102516102f3366004612fc6565b6109b9565b61027e600281565b61025161030e366004612fc6565b6109de565b6102d7610321366004612fe9565b610a45565b61027e600f81565b61034161033c366004612ecb565b610a76565b604051610235919061300b565b61027e603381565b610251610364366004613065565b610c4c565b6103b5610377366004612ecb565b600760205260009081526040902080546001820154600283015460039093015460ff8084169461010085048216946201000090048216939291169086565b604051610235969594939291906130eb565b6102516103d5366004613130565b610fdf565b6102296103e8366004612fc6565b6114c7565b6102d76103fb366004612ecb565b60056020526000908152604090205481565b61025161041b366004613243565b6114f0565b6102d7600081565b610251610436366004613130565b6116a4565b6102d7600080516020613c1f83398151915281565b6102d761045e366004612fe9565b611b37565b610251610471366004613243565b611b70565b610251610484366004613065565b611bfd565b610251610497366004612fc6565b6120f2565b6102d76104aa366004612ecb565b612117565b6102d77f4bbeb6fd3e5222e55f2f8b0c35bc228e0a06a25d0da772fdb02c3b92fa004f8881565b6104e96104e4366004612ecb565b612138565b60405161023591906132b8565b60006001600160e01b03198216637965db0b60e01b148061052757506301ffc9a760e01b6001600160e01b03198316145b92915050565b610545600080516020613c1f833981519152336114c7565b61056a5760405162461bcd60e51b8152600401610561906132fc565b60405180910390fd5b6000821161058a5760405162461bcd60e51b815260040161056190613333565b60008281526001602052604081205490036105b75760405162461bcd60e51b81526004016105619061336a565b6000826040516020016105e39181526d1111531155114814d5155111539560921b6020820152602e0190565b60405160208183030381529060405280519060200120905061065281600080516020613c1f8339815191528560405160200161062191815260200190565b60408051601f198184030181529082905261063e916020016133a1565b6040516020818303038152906040526121c7565b81801561067c5750600081815260046020908152604080832033845260030190915290205460ff16155b156106bf5760008181526004602052604090206106999033612248565b604051818152600080516020613bdf8339815191529060200160405180910390a1610703565b8115156000036107035760008181526004602052604090206106e19033612375565b604051818152600080516020613bdf8339815191529060200160405180910390a15b600080516020613c1f83398151915260005260036020527f04ed60087a82bd97d8afa881e356d9b31a57e1f4fa6c3493c1181428b0c335625461075f906107529060509063ffffffff166133ee565b63ffffffff166064611b37565b60008281526004602052604090206002015460ff16106107ba5760008181526004602052604090206107909061242d565b604051818152600080516020613bff8339815191529060200160405180910390a16107ba8361249e565b505050565b6001602081905260009182526040909120805491810180546107e090613416565b80601f016020809104026020016040519081016040528092919081815260200182805461080c90613416565b80156108595780601f1061082e57610100808354040283529160200191610859565b820191906000526020600020905b81548152906001019060200180831161083c57829003601f168201915b50505050509080600201805461086e90613416565b80601f016020809104026020016040519081016040528092919081815260200182805461089a90613416565b80156108e75780601f106108bc576101008083540402835291602001916108e7565b820191906000526020600020905b8154815290600101906020018083116108ca57829003601f168201915b5050505050908060030154905084565b600460205260009081526040902080546001820154600283015460058401805460ff948516959394838116946101009094041692919061093690613416565b80601f016020809104026020016040519081016040528092919081815260200182805461096290613416565b80156109af5780601f10610984576101008083540402835291602001916109af565b820191906000526020600020905b81548152906001019060200180831161099257829003601f168201915b5050505050905085565b6000828152602081905260409020600101546109d481612577565b6107ba8383612584565b60405162461bcd60e51b815260206004820152603660248201527f596f752063616e27742072656e6f756e636520746f20796f757220726f6c652e60448201527520506c6561736520636f6e746163742061646d696e7360501b6064820152608401610561565b60086020528160005260406000208181548110610a6157600080fd5b90600052602060002001600091509150505481565b610aa16040518060800160405280600081526020016060815260200160608152602001600081525090565b6000828152600160205260408120549003610af65760405162461bcd60e51b815260206004820152601560248201527414dd1d59195b9d08191bd95cdb89dd08195e1a5cdd605a1b6044820152606401610561565b60008281526001602081815260409283902083516080810190945280548452918201805491840191610b2790613416565b80601f0160208091040260200160405190810160405280929190818152602001828054610b5390613416565b8015610ba05780601f10610b7557610100808354040283529160200191610ba0565b820191906000526020600020905b815481529060010190602001808311610b8357829003601f168201915b50505050508152602001600282018054610bb990613416565b80601f0160208091040260200160405190810160405280929190818152602001828054610be590613416565b8015610c325780601f10610c0757610100808354040283529160200191610c32565b820191906000526020600020905b815481529060010190602001808311610c1557829003601f168201915b505050505081526020016003820154815250509050919050565b60008381526003602090815260409182902080546002820154845193840152909263ffffffff808316680100000000000000009093041691909111910160408051601f1981840301815290829052610ca691602001613450565b60405160208183030381529060405290610cd35760405162461bcd60e51b8152600401610561919061348e565b50610ce28160010154336114c7565b8160020154604051602001610cf991815260200190565b60408051601f1981840301815290829052610d16916020016134a1565b60405160208183030381529060405290610d435760405162461bcd60e51b8152600401610561919061348e565b50610d4e84846114c7565b60028201546040805160208101929092529115910160408051601f1981840301815290829052610d80916020016134e9565b60405160208183030381529060405290610dad5760405162461bcd60e51b8152600401610561919061348e565b506040516001600160601b0319606085901b1660208201526411d490539560da1b603482015260398101859052600090605901604051602081830303815290604052805190602001209050610e5c8183600101548460020154604051602001610e1891815260200190565b60408051808303601f1901815282825260608a901b6001600160601b0319166020840152815160148185030181526034840190925261063e9290919060540161352e565b828015610e865750600081815260046020908152604080832033845260030190915290205460ff16155b15610ec9576000818152600460205260409020610ea39033612248565b604051818152600080516020613bdf8339815191529060200160405180910390a1610f0d565b821515600003610f0d576000818152600460205260409020610eeb9033612375565b604051818152600080516020613bdf8339815191529060200160405180910390a15b81546001830154600090815260036020526040902054610f429161075291600160601b90910460ff169063ffffffff166133ee565b60008281526004602052604090206002015460ff1610610fd8576000818152600460205260409020610f739061242d565b604051818152600080516020613bff8339815191529060200160405180910390a1610f9e8585612584565b81546001908390600090610fb990849063ffffffff1661357c565b92506101000a81548163ffffffff021916908363ffffffff1602179055505b5050505050565b610ff7600080516020613c1f833981519152336114c7565b6110135760405162461bcd60e51b8152600401610561906132fc565b60008581526001602052604081205490036110405760405162461bcd60e51b81526004016105619061336a565b6000846003811115611054576110546130a1565b1015801561107457506003846003811115611071576110716130a1565b11155b6110bc5760405162461bcd60e51b8152602060048201526019602482015278105c1c1c9958da585d1a5bdb881a5cc81b9bdd081d985b1a59603a1b6044820152606401610561565b60008360028111156110d0576110d06130a1565b101580156110f0575060028360028111156110ed576110ed6130a1565b11155b6111325760405162461bcd60e51b8152602060048201526013602482015272111959dc9959481a5cc81b9bdd081d985b1a59606a1b6044820152606401610561565b600082600f811115611146576111466130a1565b101580156111665750600f82600f811115611163576111636130a1565b11155b6111a95760405162461bcd60e51b8152602060048201526014602482015273141c9bd9dc985b481a5cc81b9bdd081d985b1a5960621b6044820152606401610561565b60076000868686866040516020016111c494939291906135d7565b60408051601f198184030181529181528151602092830120835290820192909252016000206002015460ff1615156001146112415760405162461bcd60e51b815260206004820152601e60248201527f5468697320636572746966696361746520646f65736e277420657869737400006044820152606401610561565b60008585858560405160200161125a949392919061360c565b60405160208183030381529060405280519060200120905061131881600080516020613c1f8339815191528860405160200161129891815260200190565b604051602081830303815290604052886040516020016112b89190613650565b604051602081830303815290604052886040516020016112d89190613662565b604051602081830303815290604052886040516020016112f8919061366c565b60408051601f198184030181529082905261063e94939291602001613676565b8180156113425750600081815260046020908152604080832033845260030190915290205460ff16155b1561138557600081815260046020526040902061135f9033612248565b604051818152600080516020613bdf8339815191529060200160405180910390a16113c9565b8115156000036113c95760008181526004602052604090206113a79033612375565b604051818152600080516020613bdf8339815191529060200160405180910390a15b600080516020613c1f83398151915260005260036020527f04ed60087a82bd97d8afa881e356d9b31a57e1f4fa6c3493c1181428b0c3356254611418906107529060509063ffffffff166133ee565b60008281526004602052604090206002015460ff16106114bf5760008181526004602052604090206114499061242d565b604051818152600080516020613bff8339815191529060200160405180910390a16000600760008888888860405160200161148794939291906135d7565b60408051808303601f19018152918152815160209283012083529082019290925201600020600201805460ff19169115159190911790555b505050505050565b6000918252602082815260408084206001600160a01b0393909316845291905290205460ff1690565b611508600080516020613c1f833981519152336114c7565b6115245760405162461bcd60e51b8152600401610561906132fc565b600084116115445760405162461bcd60e51b815260040161056190613333565b60008351116115955760405162461bcd60e51b815260206004820152601960248201527f46697273746e616d652063616e6e6f7420626520656d707479000000000000006044820152606401610561565b60008251116115e65760405162461bcd60e51b815260206004820152601860248201527f4c6173746e616d652063616e6e6f7420626520656d70747900000000000000006044820152606401610561565b600081116116365760405162461bcd60e51b815260206004820181905260248201527f426972746864617465206d7573742062652067726561746572207468616e20306044820152606401610561565b600084815260016020526040902054156116925760405162461bcd60e51b815260206004820152601b60248201527f546869732073747564656e7420616c72656164792065786973747300000000006044820152606401610561565b61169e84848484612608565b50505050565b6116bc600080516020613c1f833981519152336114c7565b6116d85760405162461bcd60e51b8152600401610561906132fc565b60008581526001602052604081205490036117055760405162461bcd60e51b81526004016105619061336a565b6000846003811115611719576117196130a1565b1015801561173957506003846003811115611736576117366130a1565b11155b6117815760405162461bcd60e51b8152602060048201526019602482015278105c1c1c9958da585d1a5bdb881a5cc81b9bdd081d985b1a59603a1b6044820152606401610561565b6000836002811115611795576117956130a1565b101580156117b5575060028360028111156117b2576117b26130a1565b11155b6117f75760405162461bcd60e51b8152602060048201526013602482015272111959dc9959481a5cc81b9bdd081d985b1a59606a1b6044820152606401610561565b600082600f81111561180b5761180b6130a1565b1015801561182b5750600f82600f811115611828576118286130a1565b11155b61186e5760405162461bcd60e51b8152602060048201526014602482015273141c9bd9dc985b481a5cc81b9bdd081d985b1a5960621b6044820152606401610561565b600760008686868660405160200161188994939291906135d7565b60408051601f198184030181529181528151602092830120835290820192909252016000206002015460ff16156119025760405162461bcd60e51b815260206004820152601f60248201527f5468697320636572746966696361746520616c726561647920657869737473006044820152606401610561565b60008585858560405160200161191b9493929190613701565b6040516020818303038152906040528051906020012090506119d981600080516020613c1f8339815191528860405160200161195991815260200190565b604051602081830303815290604052886040516020016119799190613650565b604051602081830303815290604052886040516020016119999190613662565b604051602081830303815290604052886040516020016119b9919061366c565b60408051601f198184030181529082905261063e94939291602001613746565b818015611a035750600081815260046020908152604080832033845260030190915290205460ff16155b15611a46576000818152600460205260409020611a209033612248565b604051818152600080516020613bdf8339815191529060200160405180910390a1611a8a565b811515600003611a8a576000818152600460205260409020611a689033612375565b604051818152600080516020613bdf8339815191529060200160405180910390a15b600080516020613c1f83398151915260005260036020527f04ed60087a82bd97d8afa881e356d9b31a57e1f4fa6c3493c1181428b0c3356254611ad9906107529060339063ffffffff166133ee565b60008281526004602052604090206002015460ff16106114bf576000818152600460205260409020611b0a9061242d565b604051818152600080516020613bff8339815191529060200160405180910390a16114bf86868686612781565b6000611b4382846137e8565b600003611b5b57611b5482846137fc565b9050610527565b611b6582846137fc565b611b54906001613810565b611b88600080516020613c1f833981519152336114c7565b611ba45760405162461bcd60e51b8152600401610561906132fc565b60008411611bc45760405162461bcd60e51b815260040161056190613333565b6000848152600160205260408120549003611bf15760405162461bcd60e51b81526004016105619061336a565b61169e8484848461294f565b60008381526003602090815260409182902080546002820154845193840152909263ffffffff64010000000083048116921691909111910160408051601f1981840301815290829052611c5291602001613823565b60405160208183030381529060405290611c7f5760405162461bcd60e51b8152600401610561919061348e565b50611c8a84846114c7565b8160020154604051602001611ca191815260200190565b60408051601f1981840301815290829052611cbe91602001613842565b60405160208183030381529060405290611ceb5760405162461bcd60e51b8152600401610561919061348e565b50611cfa8160010154336114c7565b8160020154604051602001611d1191815260200190565b60408051601f1981840301815290829052611d2e916020016134a1565b60405160208183030381529060405290611d5b5760405162461bcd60e51b8152600401610561919061348e565b506040516001600160601b0319606085901b166020820152655245564f4b4560d01b6034820152603a8101859052600090605a01604051602081830303815290604052805190602001209050611e0b8183600101548460020154604051602001611dc791815260200190565b60408051808303601f1901815282825260608a901b6001600160601b0319166020840152815160148185030181526034840190925261063e92909190605401613880565b828015611e355750600081815260046020908152604080832033845260030190915290205460ff16155b15611e78576000818152600460205260409020611e529033612248565b604051818152600080516020613bdf8339815191529060200160405180910390a1611ebc565b821515600003611ebc576000818152600460205260409020611e9a9033612375565b604051818152600080516020613bdf8339815191529060200160405180910390a15b81600101548514158015611f18575081546001830154600090815260036020526040902054611f009161075291600160681b90910460ff169063ffffffff166133ee565b60008281526004602052604090206002015460ff1610155b80611f835750816001015485148015611f8357508154600180840154600090815260036020526040902054611f6b92600160681b900460ff1691611f619163ffffffff166138cf565b61075291906133ee565b60008281526004602052604090206002015460ff1610155b15610fd85760005b600654811015612094576000818152600560209081526040808320548352600482528083206001600160a01b038916845260030190915290205460ff1615156001148015611ff657506000818152600560209081526040808320548352600490915290206001015486145b156120825760008181526005602090815260408083205483526004909152812060020180546001929061202d90849060ff166138ec565b825460ff9182166101009390930a9283029190920219909116179055506000818152600560209081526040808320548352600482528083206001600160a01b03891684526003019091529020805460ff191690555b8061208c81613905565b915050611f8b565b5060008181526004602052604090206120ac9061242d565b604051818152600080516020613bff8339815191529060200160405180910390a16120d78585612b9f565b81546001908390600090610fb990849063ffffffff166138cf565b60008281526020819052604090206001015461210d81612577565b6107ba8383612b9f565b6002818154811061212757600080fd5b600091825260209091200154905081565b600081815260016020526040812054606091036121675760405162461bcd60e51b81526004016105619061336a565b600082815260086020908152604091829020805483518184028101840190945280845290918301828280156121bb57602002820191906000526020600020905b8154815260200190600101908083116121a7575b50505050509050919050565b60008381526004602052604081205460ff16151590036107ba576000838152600460209081526040808320805460ff1916600190811790915560068054855260059093529083208690558154909290612221908490613810565b909155505060008381526004602052604090206001810183905560050161169e8282613964565b6001600160a01b038116600090815260038301602052604090205460ff16156122b35760405162461bcd60e51b815260206004820181905260248201527f596f7520616c7265616479207369676e65642074686973206d756c74697369676044820152606401610561565b6002820180546101009081900460ff9081166000908152600486016020526040902080546001600160a01b0319166001600160a01b0386161790558254919091041690600161230183613a24565b82546101009290920a60ff8181021990931691831602179091556001600160a01b03831660009081526003850160205260408120805460ff191660019081179091556002860180549194509261235991859116613a43565b92506101000a81548160ff021916908360ff1602179055505050565b6001600160a01b038116600090815260038301602052604090205460ff1615156001146123f35760405162461bcd60e51b815260206004820152602660248201527f596f752068617665206e6f7465207369676e65642074686973206d756c7469736044820152651a59c81e595d60d21b6064820152608401610561565b6001600160a01b03811660009081526003830160205260408120805460ff191690556002830180546001929061235990849060ff166138ec565b60028101805460ff1916905560005b600282015460ff6101009091048116908216101561249a5760ff811660009081526004830160209081526040808320546001600160a01b03168352600385019091529020805460ff191690558061249281613a24565b91505061243c565b5050565b6000818152600160208190526040822082815591906124bf90830182612e12565b6124cd600283016000612e12565b6003820160009055505060005b6002548110156125405781600282815481106124f8576124f8613a5c565b90600052602060002001540361252e5760006002828154811061251d5761251d613a5c565b600091825260209091200155612540565b8061253881613905565b9150506124da565b506040518181527f34de6b871245ed0a89b82912e8e5ee6d9c3104b3e5bb1d67a71ad7e68239e41c9060200160405180910390a150565b6125818133612c04565b50565b61258e82826114c7565b61249a576000828152602081815260408083206001600160a01b03851684529091529020805460ff191660011790556125c43390565b6001600160a01b0316816001600160a01b0316837f2f8788117e7eff1d82e926ec794901d17c78024a50270940304540a733656f0d60405160405180910390a45050565b6000848152600160205260409020541561265d5760405162461bcd60e51b815260206004820152601660248201527553747564656e7420616c72656164792065786973747360501b6044820152606401610561565b8360000361269d5760405162461bcd60e51b815260206004820152600d60248201526c049642063616e2774206265203609c1b6044820152606401610561565b60408051608081018252858152602080820186815282840186905260608301859052600088815260019283905293909320825181559251919291908201906126e59082613964565b50604082015160028201906126fa9082613964565b5060609190910151600390910155600280546001810182556000919091527f405787fa12a823e0f2b7631cc41b3ba8828b3321ca811111fa75cd3aa3bb5ace018490556040517fb6767d1c89515962142b00b5577569c92a74381d9441a528911c66e0c3cea1f890612773908690869086908690612f34565b60405180910390a150505050565b6040518060c0016040528084600381111561279e5761279e6130a1565b81526020018360028111156127b5576127b56130a1565b815260200182600f8111156127cc576127cc6130a1565b81526020014281526020016001151581526020018581525060076000868686866040516020016127ff94939291906135d7565b60408051601f1981840301815291815281516020928301208352908201929092520160002081518154829060ff19166001836003811115612842576128426130a1565b021790555060208201518154829061ff00191661010083600281111561286a5761286a6130a1565b021790555060408201518154829062ff000019166201000083600f811115612894576128946130a1565b021790555060608201516001820155608082015160028201805460ff191691151591909117905560a09091015160039091015560008481526008602090815260409182902091516128ed918791879187918791016135d7565b60408051601f19818403018152908290528051602091820120835460018101855560009485529190932001919091557fb55811dd01470a227956304b027c610c7cdf9dd622dcc47791380261d56dc6ed90612773908690869086908690613a72565b60008481526001602052604081205490036129a55760405162461bcd60e51b815260206004820152601660248201527514dd1d59195b9d08191bd95cc81b9bdd08195e1a5cdd60521b6044820152606401610561565b600160008581526020019081526020016000206001016040516020016129cb9190613aa9565b60405160208183030381529060405280519060200120836040516020016129f29190613b1f565b6040516020818303038152906040528051906020012014158015612a4a57506040805160008152602081018083528151902091612a3191869101613b1f565b6040516020818303038152906040528051906020012014155b15612a6d57600084815260016020819052604090912001612a6b8482613964565b505b6000848152600160209081526040918290209151612a8f926002019101613aa9565b6040516020818303038152906040528051906020012082604051602001612ab69190613b1f565b6040516020818303038152906040528051906020012014158015612b0e57506040805160008152602081018083528151902091612af591859101613b1f565b6040516020818303038152906040528051906020012014155b15612b30576000848152600160205260409020600201612b2e8382613964565b505b6000848152600160205260409020600301548114801590612b5057508015155b15612b6a5760008481526001602052604090206003018190555b7f03e10a3f40e9af2a5e61cb5a3de55fd67286470c35b3cf345b04a83cf3f49077848484846040516127739493929190612f34565b612ba982826114c7565b1561249a576000828152602081815260408083206001600160a01b0385168085529252808320805460ff1916905551339285917ff6391f5c32d9c69d2a47ea670b442974b53935d1edc7fd64eb21e047a839171b9190a45050565b612c0e82826114c7565b61249a57612c1b81612c5d565b612c26836020612c6f565b604051602001612c37929190613b3b565b60408051601f198184030181529082905262461bcd60e51b82526105619160040161348e565b60606105276001600160a01b03831660145b60606000612c7e836002613bb0565b612c89906002613810565b67ffffffffffffffff811115612ca157612ca16131a0565b6040519080825280601f01601f191660200182016040528015612ccb576020820181803683370190505b509050600360fc1b81600081518110612ce657612ce6613a5c565b60200101906001600160f81b031916908160001a905350600f60fb1b81600181518110612d1557612d15613a5c565b60200101906001600160f81b031916908160001a9053506000612d39846002613bb0565b612d44906001613810565b90505b6001811115612dbc576f181899199a1a9b1b9c1cb0b131b232b360811b85600f1660108110612d7857612d78613a5c565b1a60f81b828281518110612d8e57612d8e613a5c565b60200101906001600160f81b031916908160001a90535060049490941c93612db581613bc7565b9050612d47565b508315612e0b5760405162461bcd60e51b815260206004820181905260248201527f537472696e67733a20686578206c656e67746820696e73756666696369656e746044820152606401610561565b9392505050565b508054612e1e90613416565b6000825580601f10612e2e575050565b601f01602090049060005260206000209081019061258191905b80821115612e5c5760008155600101612e48565b5090565b600060208284031215612e7257600080fd5b81356001600160e01b031981168114612e0b57600080fd5b80358015158114612e9a57600080fd5b919050565b60008060408385031215612eb257600080fd5b82359150612ec260208401612e8a565b90509250929050565b600060208284031215612edd57600080fd5b5035919050565b60005b83811015612eff578181015183820152602001612ee7565b50506000910152565b60008151808452612f20816020860160208601612ee4565b601f01601f19169290920160200192915050565b848152608060208201526000612f4d6080830186612f08565b8281036040840152612f5f8186612f08565b91505082606083015295945050505050565b851515815284602082015260ff8416604082015260ff8316606082015260a060808201526000612fa460a0830184612f08565b979650505050505050565b80356001600160a01b0381168114612e9a57600080fd5b60008060408385031215612fd957600080fd5b82359150612ec260208401612faf565b60008060408385031215612ffc57600080fd5b50508035926020909101359150565b6020815281516020820152600060208301516080604084015261303160a0840182612f08565b90506040840151601f1984830301606085015261304e8282612f08565b915050606084015160808401528091505092915050565b60008060006060848603121561307a57600080fd5b8335925061308a60208501612faf565b915061309860408501612e8a565b90509250925092565b634e487b7160e01b600052602160045260246000fd5b600481106130c7576130c76130a1565b9052565b600381106130c7576130c76130a1565b601081106130c7576130c76130a1565b60c081016130f982896130b7565b61310660208301886130cb565b61311360408301876130db565b6060820194909452911515608083015260a0909101529392505050565b600080600080600060a0868803121561314857600080fd5b8535945060208601356004811061315e57600080fd5b935060408601356003811061317257600080fd5b925060608601356010811061318657600080fd5b915061319460808701612e8a565b90509295509295909350565b634e487b7160e01b600052604160045260246000fd5b600082601f8301126131c757600080fd5b813567ffffffffffffffff808211156131e2576131e26131a0565b604051601f8301601f19908116603f0116810190828211818310171561320a5761320a6131a0565b8160405283815286602085880101111561322357600080fd5b836020870160208301376000602085830101528094505050505092915050565b6000806000806080858703121561325957600080fd5b84359350602085013567ffffffffffffffff8082111561327857600080fd5b613284888389016131b6565b9450604087013591508082111561329a57600080fd5b506132a7878288016131b6565b949793965093946060013593505050565b6020808252825182820181905260009190848201906040850190845b818110156132f0578351835292840192918401916001016132d4565b50909695505050505050565b60208082526019908201527f43616c6c6572206973206e6f7420612063657274696669657200000000000000604082015260600190565b60208082526019908201527f4964206d7573742062652067726561746572207468616e203000000000000000604082015260600190565b6020808252601a908201527f546869732073747564656e7420646f65736e2774206578697374000000000000604082015260600190565b6e02232b632ba329039ba3ab232b73a1608d1b8152600082516133cb81600f850160208701612ee4565b91909101600f0192915050565b634e487b7160e01b600052601160045260246000fd5b63ffffffff81811683821602808216919082811461340e5761340e6133d8565b505092915050565b600181811c9082168061342a57607f821691505b60208210810361344a57634e487b7160e01b600052602260045260246000fd5b50919050565b63026b0bc160e51b81526000825161346f816004850160208701612ee4565b67081c995858da195960c21b6004939091019283015250600c01919050565b602081526000612e0b6020830184612f08565b6f021b0b63632b91034b9903737ba1030960851b8152600082516134cc816010850160208701612ee4565b651030b236b4b760d11b6010939091019283015250601601919050565b7f54686973206164647265737320697320616c726561647920612000000000000081526000825161352181601a850160208701612ee4565b91909101601a0192915050565b65023b930b73a160d51b81526000835161354f816006850160208801612ee4565b600160fd1b6006918401918201528351613570816007840160208801612ee4565b01600701949350505050565b63ffffffff818116838216019080821115613599576135996133d8565b5092915050565b600481106135b0576135b06130a1565b60f81b9052565b600381106135b0576135b06130a1565b601081106135b0576135b06130a1565b8481526135e760208201856135a0565b6135f460218201846135b7565b61360160228201836135c7565b602301949350505050565b84815261361c60208201856135a0565b61362960218201846135b7565b61363660228201836135c7565b6544454c45544560d01b6023820152602901949350505050565b61365a81836135a0565b600101919050565b61365a81836135b7565b61365a81836135c7565b6602232b632ba32960cd1b815260008551613698816007850160208a01612ee4565b8083019050600160fd1b80600783015286516136bb816008850160208b01612ee4565b6008920191820181905285516136d8816009850160208a01612ee4565b600992019182015283516136f381600a840160208801612ee4565b01600a019695505050505050565b84815261371160208201856135a0565b61371e60218201846135b7565b61372b60228201836135c7565b664345525449465960c81b6023820152602a01949350505050565b67021b2b93a34b33c960c51b815260008551613769816008850160208a01612ee4565b8083019050600160fd1b806008830152865161378c816009850160208b01612ee4565b6009920191820181905285516137a981600a850160208a01612ee4565b600a92019182015283516137c481600b840160208801612ee4565b01600b019695505050505050565b634e487b7160e01b600052601260045260246000fd5b6000826137f7576137f76137d2565b500690565b60008261380b5761380b6137d2565b500490565b80820180821115610527576105276133d8565b63026b4b7160e51b81526000825161346f816004850160208701612ee4565b7502a3434b99030b2323932b9b99034b9903737ba1030960551b815260008251613873816016850160208701612ee4565b9190910160160192915050565b6602932bb37b5b2960cd1b8152600083516138a2816007850160208801612ee4565b600160fd1b60079184019182015283516138c3816008840160208801612ee4565b01600801949350505050565b63ffffffff828116828216039080821115613599576135996133d8565b60ff8281168282160390811115610527576105276133d8565b600060018201613917576139176133d8565b5060010190565b601f8211156107ba57600081815260208120601f850160051c810160208610156139455750805b601f850160051c820191505b818110156114bf57828155600101613951565b815167ffffffffffffffff81111561397e5761397e6131a0565b6139928161398c8454613416565b8461391e565b602080601f8311600181146139c757600084156139af5750858301515b600019600386901b1c1916600185901b1785556114bf565b600085815260208120601f198616915b828110156139f6578886015182559484019460019091019084016139d7565b5085821015613a145787850151600019600388901b60f8161c191681555b5050505050600190811b01905550565b600060ff821660ff8103613a3a57613a3a6133d8565b60010192915050565b60ff8181168382160190811115610527576105276133d8565b634e487b7160e01b600052603260045260246000fd5b84815260808101613a8660208301866130b7565b613a9360408301856130cb565b613aa060608301846130db565b95945050505050565b6000808354613ab781613416565b60018281168015613acf5760018114613ae457613b13565b60ff1984168752821515830287019450613b13565b8760005260208060002060005b85811015613b0a5781548a820152908401908201613af1565b50505082870194505b50929695505050505050565b60008251613b31818460208701612ee4565b9190910192915050565b7f416363657373436f6e74726f6c3a206163636f756e7420000000000000000000815260008351613b73816017850160208801612ee4565b7001034b99036b4b9b9b4b733903937b6329607d1b6017918401918201528351613ba4816028840160208801612ee4565b01602801949350505050565b8082028115828204841417610527576105276133d8565b600081613bd657613bd66133d8565b50600019019056feb431a69783a2491a0c400ff16dab32cd442abf8fe5af63a526a7248d730192f8562618dbcf74b61ae5b0f229fe40ba6d5b6ae6b4248f8c89a870dda7c77135f6d646ae07eb0d0f77457502a65e7407930dff4cd4fd99abc6aac87a753f4c8a42a26469706673582212202c194a53fba68796369b3d382481ee86257adbe77e3fc816c05ff157bfb5d46564736f6c634300081300334bbeb6fd3e5222e55f2f8b0c35bc228e0a06a25d0da772fdb02c3b92fa004f88d646ae07eb0d0f77457502a65e7407930dff4cd4fd99abc6aac87a753f4c8a42",
  "linkReferences": {},
  "deployedLinkReferences": {}
}