{
  "_format": "hh-sol-artifact-1",
  "contractName": "Certifications",
  "sourceName": "contracts/Certifications.sol",
  "abi": [
    {
      "inputs": [
        {
          "internalType": "address",
          "name": "certifier_admin1",
          "type": "address"
        },
        {
          "internalType": "address",
          "name": "certifier_admin2",
          "type": "address"
        }
      ],
      "stateMutability": "nonpayable",
      "type": "constructor"
    },
    {
      "anonymous": false,
      "inputs": [
        {
          "indexed": true,
          "internalType": "bytes32",
          "name": "role",
          "type": "bytes32"
        },
        {
          "indexed": true,
          "internalType": "bytes32",
          "name": "previousAdminRole",
          "type": "bytes32"
        },
        {
          "indexed": true,
          "internalType": "bytes32",
          "name": "newAdminRole",
          "type": "bytes32"
        }
      ],
      "name": "RoleAdminChanged",
      "type": "event"
    },
    {
      "anonymous": false,
      "inputs": [
        {
          "indexed": true,
          "internalType": "bytes32",
          "name": "role",
          "type": "bytes32"
        },
        {
          "indexed": true,
          "internalType": "address",
          "name": "account",
          "type": "address"
        },
        {
          "indexed": true,
          "internalType": "address",
          "name": "sender",
          "type": "address"
        }
      ],
      "name": "RoleGranted",
      "type": "event"
    },
    {
      "anonymous": false,
      "inputs": [
        {
          "indexed": true,
          "internalType": "bytes32",
          "name": "role",
          "type": "bytes32"
        },
        {
          "indexed": true,
          "internalType": "address",
          "name": "account",
          "type": "address"
        },
        {
          "indexed": true,
          "internalType": "address",
          "name": "sender",
          "type": "address"
        }
      ],
      "name": "RoleRevoked",
      "type": "event"
    },
    {
      "anonymous": false,
      "inputs": [
        {
          "indexed": false,
          "internalType": "uint256",
          "name": "studentId",
          "type": "uint256"
        },
        {
          "indexed": false,
          "internalType": "enum Certifications.appreciation",
          "name": "appreciation",
          "type": "uint8"
        },
        {
          "indexed": false,
          "internalType": "enum Certifications.degree",
          "name": "degree",
          "type": "uint8"
        },
        {
          "indexed": false,
          "internalType": "enum Certifications.program",
          "name": "program",
          "type": "uint8"
        }
      ],
      "name": "certificationEmited",
      "type": "event"
    },
    {
      "anonymous": false,
      "inputs": [
        {
          "indexed": false,
          "internalType": "bytes32",
          "name": "multiSigName",
          "type": "bytes32"
        }
      ],
      "name": "multiSigCleared",
      "type": "event"
    },
    {
      "anonymous": false,
      "inputs": [
        {
          "indexed": false,
          "internalType": "bytes32",
          "name": "multiSigName",
          "type": "bytes32"
        }
      ],
      "name": "multiSigSigned",
      "type": "event"
    },
    {
      "inputs": [],
      "name": "CERTIFIER",
      "outputs": [
        {
          "internalType": "bytes32",
          "name": "",
          "type": "bytes32"
        }
      ],
      "stateMutability": "view",
      "type": "function"
    },
    {
      "inputs": [],
      "name": "CERTIFIER_ADMIN",
      "outputs": [
        {
          "internalType": "bytes32",
          "name": "",
          "type": "bytes32"
        }
      ],
      "stateMutability": "view",
      "type": "function"
    },
    {
      "inputs": [],
      "name": "DEFAULT_ADMIN_ROLE",
      "outputs": [
        {
          "internalType": "bytes32",
          "name": "",
          "type": "bytes32"
        }
      ],
      "stateMutability": "view",
      "type": "function"
    },
    {
      "inputs": [],
      "name": "MAX_CERTIFIERS",
      "outputs": [
        {
          "internalType": "uint8",
          "name": "",
          "type": "uint8"
        }
      ],
      "stateMutability": "view",
      "type": "function"
    },
    {
      "inputs": [],
      "name": "MAX_CERTIFIERS_ADMIN",
      "outputs": [
        {
          "internalType": "uint8",
          "name": "",
          "type": "uint8"
        }
      ],
      "stateMutability": "view",
      "type": "function"
    },
    {
      "inputs": [],
      "name": "MIN_CERTIFIERS_ADMIN",
      "outputs": [
        {
          "internalType": "uint8",
          "name": "",
          "type": "uint8"
        }
      ],
      "stateMutability": "view",
      "type": "function"
    },
    {
      "inputs": [],
      "name": "PERCENT_TO_CERTIFY",
      "outputs": [
        {
          "internalType": "uint8",
          "name": "",
          "type": "uint8"
        }
      ],
      "stateMutability": "view",
      "type": "function"
    },
    {
      "inputs": [],
      "name": "PERCENT_TO_EDIT_CERTIFICATE",
      "outputs": [
        {
          "internalType": "uint8",
          "name": "",
          "type": "uint8"
        }
      ],
      "stateMutability": "view",
      "type": "function"
    },
    {
      "inputs": [],
      "name": "PERCENT_TO_GRANT_CERTIFIER",
      "outputs": [
        {
          "internalType": "uint8",
          "name": "",
          "type": "uint8"
        }
      ],
      "stateMutability": "view",
      "type": "function"
    },
    {
      "inputs": [],
      "name": "PERCENT_TO_GRANT_CERTIFIER_ADMIN",
      "outputs": [
        {
          "internalType": "uint8",
          "name": "",
          "type": "uint8"
        }
      ],
      "stateMutability": "view",
      "type": "function"
    },
    {
      "inputs": [],
      "name": "PERCENT_TO_REVOKE_CERTIFIER",
      "outputs": [
        {
          "internalType": "uint8",
          "name": "",
          "type": "uint8"
        }
      ],
      "stateMutability": "view",
      "type": "function"
    },
    {
      "inputs": [],
      "name": "PERCENT_TO_REVOKE_CERTIFIER_ADMIN",
      "outputs": [
        {
          "internalType": "uint8",
          "name": "",
          "type": "uint8"
        }
      ],
      "stateMutability": "view",
      "type": "function"
    },
    {
      "inputs": [
        {
          "internalType": "uint256",
          "name": "a",
          "type": "uint256"
        },
        {
          "internalType": "uint256",
          "name": "b",
          "type": "uint256"
        }
      ],
      "name": "ceilUDiv",
      "outputs": [
        {
          "internalType": "uint256",
          "name": "",
          "type": "uint256"
        }
      ],
      "stateMutability": "pure",
      "type": "function"
    },
    {
      "inputs": [
        {
          "internalType": "bytes32",
          "name": "",
          "type": "bytes32"
        }
      ],
      "name": "certificates",
      "outputs": [
        {
          "internalType": "enum Certifications.appreciation",
          "name": "appreciation",
          "type": "uint8"
        },
        {
          "internalType": "enum Certifications.degree",
          "name": "degree",
          "type": "uint8"
        },
        {
          "internalType": "enum Certifications.program",
          "name": "program",
          "type": "uint8"
        },
        {
          "internalType": "uint256",
          "name": "emition_date",
          "type": "uint256"
        },
        {
          "internalType": "bool",
          "name": "validity",
          "type": "bool"
        },
        {
          "internalType": "uint256",
          "name": "stud_id",
          "type": "uint256"
        }
      ],
      "stateMutability": "view",
      "type": "function"
    },
    {
      "inputs": [
        {
          "internalType": "uint256",
          "name": "studentId",
          "type": "uint256"
        },
        {
          "internalType": "enum Certifications.appreciation",
          "name": "app",
          "type": "uint8"
        },
        {
          "internalType": "enum Certifications.degree",
          "name": "deg",
          "type": "uint8"
        },
        {
          "internalType": "enum Certifications.program",
          "name": "prog",
          "type": "uint8"
        },
        {
          "internalType": "bool",
          "name": "approve",
          "type": "bool"
        }
      ],
      "name": "certify",
      "outputs": [],
      "stateMutability": "nonpayable",
      "type": "function"
    },
    {
      "inputs": [
        {
          "internalType": "uint256",
          "name": "studentId",
          "type": "uint256"
        },
        {
          "internalType": "enum Certifications.appreciation",
          "name": "app",
          "type": "uint8"
        },
        {
          "internalType": "enum Certifications.degree",
          "name": "deg",
          "type": "uint8"
        },
        {
          "internalType": "enum Certifications.program",
          "name": "prog",
          "type": "uint8"
        },
        {
          "internalType": "bool",
          "name": "approve",
          "type": "bool"
        }
      ],
      "name": "deleteCertificate",
      "outputs": [],
      "stateMutability": "nonpayable",
      "type": "function"
    },
    {
      "inputs": [
        {
          "internalType": "bytes32",
          "name": "role",
          "type": "bytes32"
        }
      ],
      "name": "getRoleAdmin",
      "outputs": [
        {
          "internalType": "bytes32",
          "name": "",
          "type": "bytes32"
        }
      ],
      "stateMutability": "view",
      "type": "function"
    },
    {
      "inputs": [
        {
          "internalType": "bytes32",
          "name": "roleHash",
          "type": "bytes32"
        },
        {
          "internalType": "address",
          "name": "target",
          "type": "address"
        },
        {
          "internalType": "bool",
          "name": "approve",
          "type": "bool"
        }
      ],
      "name": "grantAnyRole",
      "outputs": [],
      "stateMutability": "nonpayable",
      "type": "function"
    },
    {
      "inputs": [
        {
          "internalType": "bytes32",
          "name": "role",
          "type": "bytes32"
        },
        {
          "internalType": "address",
          "name": "account",
          "type": "address"
        }
      ],
      "name": "grantRole",
      "outputs": [],
      "stateMutability": "nonpayable",
      "type": "function"
    },
    {
      "inputs": [
        {
          "internalType": "bytes32",
          "name": "role",
          "type": "bytes32"
        },
        {
          "internalType": "address",
          "name": "account",
          "type": "address"
        }
      ],
      "name": "hasRole",
      "outputs": [
        {
          "internalType": "bool",
          "name": "",
          "type": "bool"
        }
      ],
      "stateMutability": "view",
      "type": "function"
    },
    {
      "inputs": [
        {
          "internalType": "bytes32",
          "name": "",
          "type": "bytes32"
        }
      ],
      "name": "multiSig",
      "outputs": [
        {
          "internalType": "bool",
          "name": "created",
          "type": "bool"
        },
        {
          "internalType": "bytes32",
          "name": "role",
          "type": "bytes32"
        },
        {
          "internalType": "uint8",
          "name": "count",
          "type": "uint8"
        },
        {
          "internalType": "uint8",
          "name": "id",
          "type": "uint8"
        },
        {
          "internalType": "string",
          "name": "info",
          "type": "string"
        }
      ],
      "stateMutability": "view",
      "type": "function"
    },
    {
      "inputs": [
        {
          "internalType": "uint256",
          "name": "",
          "type": "uint256"
        }
      ],
      "name": "multiSigId",
      "outputs": [
        {
          "internalType": "bytes32",
          "name": "",
          "type": "bytes32"
        }
      ],
      "stateMutability": "view",
      "type": "function"
    },
    {
      "inputs": [
        {
          "internalType": "bytes32",
          "name": "",
          "type": "bytes32"
        },
        {
          "internalType": "address",
          "name": "",
          "type": "address"
        }
      ],
      "name": "renounceRole",
      "outputs": [],
      "stateMutability": "nonpayable",
      "type": "function"
    },
    {
      "inputs": [
        {
          "internalType": "bytes32",
          "name": "roleHash",
          "type": "bytes32"
        },
        {
          "internalType": "address",
          "name": "target",
          "type": "address"
        },
        {
          "internalType": "bool",
          "name": "approve",
          "type": "bool"
        }
      ],
      "name": "revokeAnyRole",
      "outputs": [],
      "stateMutability": "nonpayable",
      "type": "function"
    },
    {
      "inputs": [
        {
          "internalType": "bytes32",
          "name": "role",
          "type": "bytes32"
        },
        {
          "internalType": "address",
          "name": "account",
          "type": "address"
        }
      ],
      "name": "revokeRole",
      "outputs": [],
      "stateMutability": "nonpayable",
      "type": "function"
    },
    {
      "inputs": [
        {
          "internalType": "bytes4",
          "name": "interfaceId",
          "type": "bytes4"
        }
      ],
      "name": "supportsInterface",
      "outputs": [
        {
          "internalType": "bool",
          "name": "",
          "type": "bool"
        }
      ],
      "stateMutability": "view",
      "type": "function"
    }
  ],
  "bytecode": "0x60806040523480156200001157600080fd5b506040516200692e3803806200692e83398181016040528101906200003791906200099c565b6200005367213863767febee4a60c01b620007b660201b60201c565b6200006f672d86523e849fc68d60c01b620007b660201b60201c565b6200008b67689f9d36814699ed60c01b620007b660201b60201c565b620000a767f194d1ffc0447ea960c01b620007b660201b60201c565b600073ffffffffffffffffffffffffffffffffffffffff168273ffffffffffffffffffffffffffffffffffffffff160362000119576040517f08c379a0000000000000000000000000000000000000000000000000000000008152600401620001109062000a6a565b60405180910390fd5b620001356789a333387d41a6b660c01b620007b660201b60201c565b62000151675da07d83cb2bab9d60c01b620007b660201b60201c565b6200016d67f25ac83becfb3ba860c01b620007b660201b60201c565b6200018967386935278dae822660c01b620007b660201b60201c565b600073ffffffffffffffffffffffffffffffffffffffff168173ffffffffffffffffffffffffffffffffffffffff1603620001fb576040517f08c379a0000000000000000000000000000000000000000000000000000000008152600401620001f29062000b02565b60405180910390fd5b6200021767ccb3b5b8af78b2cb60c01b620007b660201b60201c565b6200023367e0f5824ede3cb57d60c01b620007b660201b60201c565b6200024f67f4b14bead3785a6660c01b620007b660201b60201c565b6200026b6743d8ba5b87e2e64860c01b620007b660201b60201c565b8073ffffffffffffffffffffffffffffffffffffffff168273ffffffffffffffffffffffffffffffffffffffff1603620002dc576040517f08c379a0000000000000000000000000000000000000000000000000000000008152600401620002d39062000b9a565b60405180910390fd5b620002f8675882f3b1b847165d60c01b620007b660201b60201c565b6200031467ec6dbc09e6a8d3c360c01b620007b660201b60201c565b620003306787fec01562de0d7760c01b620007b660201b60201c565b620003627f4bbeb6fd3e5222e55f2f8b0c35bc228e0a06a25d0da772fdb02c3b92fa004f8883620007b960201b60201c565b6200037e67b815fa764d360f8060c01b620007b660201b60201c565b6200039a676c848ca2d28cc2e760c01b620007b660201b60201c565b620003cc7f4bbeb6fd3e5222e55f2f8b0c35bc228e0a06a25d0da772fdb02c3b92fa004f8882620007cf60201b60201c565b620003e86762a5c10409c68fa660c01b620007b660201b60201c565b6040518060e00160405280600263ffffffff168152602001600260ff1663ffffffff168152602001600f60ff1663ffffffff168152602001605060ff168152602001605060ff1681526020017f4bbeb6fd3e5222e55f2f8b0c35bc228e0a06a25d0da772fdb02c3b92fa004f8881526020016040516020016200046b9062000c17565b604051602081830303815290604052620004859062000c77565b815250600160007f4bbeb6fd3e5222e55f2f8b0c35bc228e0a06a25d0da772fdb02c3b92fa004f88815260200190815260200160002060008201518160000160006101000a81548163ffffffff021916908363ffffffff16021790555060208201518160000160046101000a81548163ffffffff021916908363ffffffff16021790555060408201518160000160086101000a81548163ffffffff021916908363ffffffff160217905550606082015181600001600c6101000a81548160ff021916908360ff160217905550608082015181600001600d6101000a81548160ff021916908360ff16021790555060a0820151816001015560c08201518160020155905050620005a56767be7bcfb8b646a360c01b620007b660201b60201c565b620005c167ab4b51ef7195398660c01b620007b660201b60201c565b620005f47fd646ae07eb0d0f77457502a65e7407930dff4cd4fd99abc6aac87a753f4c8a426000620007b960201b60201c565b620006106745513953a8aaed3b60c01b620007b660201b60201c565b6040518060e00160405280600063ffffffff168152602001600063ffffffff168152602001600f60ff1663ffffffff168152602001605060ff168152602001605060ff1681526020017f4bbeb6fd3e5222e55f2f8b0c35bc228e0a06a25d0da772fdb02c3b92fa004f888152602001604051602001620006909062000d37565b604051602081830303815290604052620006aa9062000c77565b815250600160007fd646ae07eb0d0f77457502a65e7407930dff4cd4fd99abc6aac87a753f4c8a42815260200190815260200160002060008201518160000160006101000a81548163ffffffff021916908363ffffffff16021790555060208201518160000160046101000a81548163ffffffff021916908363ffffffff16021790555060408201518160000160086101000a81548163ffffffff021916908363ffffffff160217905550606082015181600001600c6101000a81548160ff021916908360ff160217905550608082015181600001600d6101000a81548160ff021916908360ff16021790555060a0820151816001015560c08201518160020155905050505062000d4e565b50565b620007cb8282620007cf60201b60201c565b5050565b620007e18282620008c060201b60201c565b620008bc57600160008084815260200190815260200160002060000160008373ffffffffffffffffffffffffffffffffffffffff1673ffffffffffffffffffffffffffffffffffffffff16815260200190815260200160002060006101000a81548160ff021916908315150217905550620008616200092a60201b60201c565b73ffffffffffffffffffffffffffffffffffffffff168173ffffffffffffffffffffffffffffffffffffffff16837f2f8788117e7eff1d82e926ec794901d17c78024a50270940304540a733656f0d60405160405180910390a45b5050565b600080600084815260200190815260200160002060000160008373ffffffffffffffffffffffffffffffffffffffff1673ffffffffffffffffffffffffffffffffffffffff16815260200190815260200160002060009054906101000a900460ff16905092915050565b600033905090565b600080fd5b600073ffffffffffffffffffffffffffffffffffffffff82169050919050565b6000620009648262000937565b9050919050565b620009768162000957565b81146200098257600080fd5b50565b60008151905062000996816200096b565b92915050565b60008060408385031215620009b657620009b562000932565b5b6000620009c68582860162000985565b9250506020620009d98582860162000985565b9150509250929050565b600082825260208201905092915050565b7f4365727469666965722061646d696e3120616464726573732063616e6e6f742060008201527f6265203000000000000000000000000000000000000000000000000000000000602082015250565b600062000a52602483620009e3565b915062000a5f82620009f4565b604082019050919050565b6000602082019050818103600083015262000a858162000a43565b9050919050565b7f4365727469666965722061646d696e3220616464726573732063616e6e6f742060008201527f6265203000000000000000000000000000000000000000000000000000000000602082015250565b600062000aea602483620009e3565b915062000af78262000a8c565b604082019050919050565b6000602082019050818103600083015262000b1d8162000adb565b9050919050565b7f436572746966696572206164647265737365732063616e6e6f7420626520746860008201527f652073616d650000000000000000000000000000000000000000000000000000602082015250565b600062000b82602683620009e3565b915062000b8f8262000b24565b604082019050919050565b6000602082019050818103600083015262000bb58162000b73565b9050919050565b600081905092915050565b7f4345525449464945525f41444d494e0000000000000000000000000000000000600082015250565b600062000bff600f8362000bbc565b915062000c0c8262000bc7565b600f82019050919050565b600062000c248262000bf0565b9150819050919050565b600081519050919050565b6000819050602082019050919050565b6000819050919050565b600062000c61825162000c49565b80915050919050565b600082821b905092915050565b600062000c848262000c2e565b8262000c908462000c39565b905062000c9d8162000c53565b9250602082101562000ce05762000cdb7fffffffffffffffffffffffffffffffffffffffffffffffffffffffffffffffff8360200360080262000c6a565b831692505b5050919050565b7f4345525449464945520000000000000000000000000000000000000000000000600082015250565b600062000d1f60098362000bbc565b915062000d2c8262000ce7565b600982019050919050565b600062000d448262000d10565b9150819050919050565b615bd08062000d5e6000396000f3fe608060405234801561001057600080fd5b506004361061018e5760003560e01c8063742f0688116100de578063a217fddf11610097578063bf80209111610071578063bf80209114610492578063d3243ad8146104c2578063d547741f146104de578063e05f2fb4146104fa5761018e565b8063a217fddf1461043a578063ace8191014610458578063b86bc74f146104745761018e565b8063742f06881461034d5780637cd29fb7146103825780638856a0e9146103a057806391d14854146103bc5780639dd09a73146103ec5780639e3399091461041c5761018e565b80632f2ff15d1161014b5780634da11a20116101255780634da11a20146102d75780635907ebea146102f55780636bc6421b14610313578063719129be146103315761018e565b80632f2ff15d1461028157806333b72e491461029d57806336568abe146102bb5761018e565b806301ffc9a7146101935780630f68794a146101c35780631a968069146101e15780631a9cfe2814610215578063248a9ca3146102335780632cd94e4f14610263575b600080fd5b6101ad60048036038101906101a891906140c8565b610518565b6040516101ba9190614110565b60405180910390f35b6101cb610592565b6040516101d89190614147565b60405180910390f35b6101fb60048036038101906101f69190614198565b610597565b60405161020c959493929190614264565b60405180910390f35b61021d61067c565b60405161022a9190614147565b60405180910390f35b61024d60048036038101906102489190614198565b610681565b60405161025a91906142be565b60405180910390f35b61026b6106a0565b6040516102789190614147565b60405180910390f35b61029b60048036038101906102969190614337565b6106a5565b005b6102a56106c6565b6040516102b29190614147565b60405180910390f35b6102d560048036038101906102d09190614337565b6106cb565b005b6102df610742565b6040516102ec9190614147565b60405180910390f35b6102fd610747565b60405161030a9190614147565b60405180910390f35b61031b61074c565b6040516103289190614147565b60405180910390f35b61034b600480360381019061034691906143a3565b610751565b005b61036760048036038101906103629190614198565b610fd5565b60405161037996959493929190614516565b60405180910390f35b61038a611045565b6040516103979190614147565b60405180910390f35b6103ba60048036038101906103b59190614612565b61104a565b005b6103d660048036038101906103d19190614337565b611a63565b6040516103e39190614110565b60405180910390f35b6104066004803603810190610401919061468d565b611acd565b60405161041391906142be565b60405180910390f35b610424611ae5565b6040516104319190614147565b60405180910390f35b610442611aea565b60405161044f91906142be565b60405180910390f35b610472600480360381019061046d9190614612565b611af1565b005b61047c6124cf565b60405161048991906142be565b60405180910390f35b6104ac60048036038101906104a791906146ba565b6124f3565b6040516104b991906146fa565b60405180910390f35b6104dc60048036038101906104d791906143a3565b6125f0565b005b6104f860048036038101906104f39190614337565b6131b3565b005b6105026131d4565b60405161050f91906142be565b60405180910390f35b60007f7965db0b000000000000000000000000000000000000000000000000000000007bffffffffffffffffffffffffffffffffffffffffffffffffffffffff1916827bffffffffffffffffffffffffffffffffffffffffffffffffffffffff1916148061058b575061058a826131f8565b5b9050919050565b605081565b60026020528060005260406000206000915090508060000160009054906101000a900460ff16908060010154908060020160009054906101000a900460ff16908060020160019054906101000a900460ff16908060050180546105f990614744565b80601f016020809104026020016040519081016040528092919081815260200182805461062590614744565b80156106725780601f1061064757610100808354040283529160200191610672565b820191906000526020600020905b81548152906001019060200180831161065557829003601f168201915b5050505050905085565b605081565b6000806000838152602001908152602001600020600101549050919050565b605081565b6106ae82610681565b6106b781613262565b6106c18383613276565b505050565b600281565b6106df67515d414290ef63a760c01b613356565b6106f367408d4005470649cf60c01b613356565b610707679c54a3cc10a34a3d60c01b613356565b6040517f08c379a0000000000000000000000000000000000000000000000000000000008152600401610739906147e7565b60405180910390fd5b605081565b600f81565b603381565b61076567e5a91bfc65f0c4b160c01b613356565b610779674900a3687504079c60c01b613356565b61078d674fce23ae6bb9dc7f60c01b613356565b60006001600085815260200190815260200160002090506107b867a37f82e1ae7b555d60c01b613356565b6107cc67db9f0c54e294074460c01b613356565b6107e067e392881a64b85dd960c01b613356565b8060000160009054906101000a900463ffffffff1663ffffffff168160000160089054906101000a900463ffffffff1663ffffffff1611816002015460405160200161082c9190614828565b60405160208183030381529060405260405160200161084b91906148cb565b6040516020818303038152906040529061089b576040517f08c379a00000000000000000000000000000000000000000000000000000000081526004016108929190614900565b60405180910390fd5b506108b0673b69b5f7da0fc98560c01b613356565b6108c46739878fdc39193a5c60c01b613356565b6108d867efd429d53dea246260c01b613356565b6108ec67ef5c68bad402a4e060c01b613356565b6108fa816001015433611a63565b816002015460405160200161090f9190614828565b60405160208183030381529060405260405160200161092e919061496e565b6040516020818303038152906040529061097e576040517f08c379a00000000000000000000000000000000000000000000000000000000081526004016109759190614900565b60405180910390fd5b5061099367b55b9f6d9d1026af60c01b613356565b6109a767c7765049f91a4ef760c01b613356565b6109bb67a6d489319a22f36060c01b613356565b6109cf67a5644b271bdebd0560c01b613356565b600015156109dd8585611a63565b15151481600201546040516020016109f59190614828565b604051602081830303815290604052604051602001610a1491906149c9565b60405160208183030381529060405290610a64576040517f08c379a0000000000000000000000000000000000000000000000000000000008152600401610a5b9190614900565b60405180910390fd5b50610a796773766d50c37ae17460c01b613356565b610a8d678b979d26b761488e60c01b613356565b610aa1674773b74ca2dfd97760c01b613356565b60008385604051602001610ab6929190614a83565b604051602081830303815290604052805190602001209050610ae2673a3c8e3b93c77fd760c01b613356565b610af667de5b5a61926c36c960c01b613356565b610b688183600101548460020154604051602001610b149190614828565b60405160208183030381529060405287604051602001610b349190614aba565b604051602081830303815290604052604051602001610b54929190614b21565b604051602081830303815290604052613359565b610b7c67fba333423761151560c01b613356565b610b9067a458fc201c41f2eb60c01b613356565b828015610c015750600015156002600083815260200190815260200160002060030160003373ffffffffffffffffffffffffffffffffffffffff1673ffffffffffffffffffffffffffffffffffffffff16815260200190815260200160002060009054906101000a900460ff161515145b15610cc257610c1a6732e4132dad12190060c01b613356565b610c2e675903462ab1321cac60c01b613356565b610c426795a317ec06f83c1060c01b613356565b610c5e60026000838152602001908152602001600020336134fd565b610c7267b1d4635b098ce77a60c01b613356565b610c8667a0b843672511ab5560c01b613356565b7fb431a69783a2491a0c400ff16dab32cd442abf8fe5af63a526a7248d730192f881604051610cb591906142be565b60405180910390a1610dc8565b610cd6677c7927e4b5bd48f460c01b613356565b610cea67a4ebbaf8faac82d260c01b613356565b6000151583151503610db257610d0a6797b47e77a9a7b3fc60c01b613356565b610d1e67758438fa606727d960c01b613356565b610d3267589e0c39053cad2660c01b613356565b610d4e600260008381526020019081526020016000203361377f565b610d626759de4f2a505f6c6d60c01b613356565b610d76676d4a2d08a14ea23160c01b613356565b7fb431a69783a2491a0c400ff16dab32cd442abf8fe5af63a526a7248d730192f881604051610da591906142be565b60405180910390a1610dc7565b610dc667c3b37424d9c469d060c01b613356565b5b5b610ddc67740ce2464856c2b360c01b613356565b610df0676ae93f6bf114c2f760c01b613356565b610e4a82600001600c9054906101000a900460ff1660ff16600160008560010154815260200190815260200160002060000160009054906101000a900463ffffffff16610e3d9190614ba2565b63ffffffff1660646124f3565b6002600083815260200190815260200160002060020160009054906101000a900460ff1660ff1610610fb957610e8a677a7ed0c4e584401460c01b613356565b610e9e6745d4f9869d13660b60c01b613356565b610eb2671cbdd7add0b2dd5c60c01b613356565b610ecd60026000838152602001908152602001600020613937565b610ee167f2a3b9ba0bc2281e60c01b613356565b610ef5679859be0913bc1e1760c01b613356565b7f562618dbcf74b61ae5b0f229fe40ba6d5b6ae6b4248f8c89a870dda7c77135f681604051610f2491906142be565b60405180910390a1610f40678f5912fc196c66fb60c01b613356565b610f5467d451ad32aab430b860c01b613356565b610f5e8585613276565b610f72672f872260ec70aa8060c01b613356565b60018260000160008282829054906101000a900463ffffffff16610f969190614bdf565b92506101000a81548163ffffffff021916908363ffffffff160217905550610fce565b610fcd67e28d98831e470a0e60c01b613356565b5b5050505050565b60056020528060005260406000206000915090508060000160009054906101000a900460ff16908060000160019054906101000a900460ff16908060000160029054906101000a900460ff16908060010154908060020160009054906101000a900460ff16908060030154905086565b605081565b61105e679e04f1a5c5bda7df60c01b613356565b61107267d618060faf473a2a60c01b613356565b6110866759aacab69e3a1cf860c01b613356565b61109a671f8604b2e035df8c60c01b613356565b6110c47fd646ae07eb0d0f77457502a65e7407930dff4cd4fd99abc6aac87a753f4c8a4233611a63565b611103576040517f08c379a00000000000000000000000000000000000000000000000000000000081526004016110fa90614c63565b60405180910390fd5b611117674341521415b393ff60c01b613356565b61112b673abda3db58ee88d660c01b613356565b61113f67d0a65ecdfb35759e60c01b613356565b61115367fecb9a5516d562ad60c01b613356565b60006003811115611167576111666143f6565b5b84600381111561117a576111796143f6565b5b101580156111ac5750600380811115611196576111956143f6565b5b8460038111156111a9576111a86143f6565b5b11155b6111eb576040517f08c379a00000000000000000000000000000000000000000000000000000000081526004016111e290614ccf565b60405180910390fd5b6111ff6711522e4c80b8acf560c01b613356565b611213675a87c8131b0f347660c01b613356565b61122767b52e37c57f13f03660c01b613356565b61123b67c6bc374fa7feff0160c01b613356565b6000600281111561124f5761124e6143f6565b5b836002811115611262576112616143f6565b5b10158015611294575060028081111561127e5761127d6143f6565b5b836002811115611291576112906143f6565b5b11155b6112d3576040517f08c379a00000000000000000000000000000000000000000000000000000000081526004016112ca90614d3b565b60405180910390fd5b6112e76786ac1e62d24a349860c01b613356565b6112fb679e5c2cdd766b16de60c01b613356565b61130f6753aaaf9320fe18fd60c01b613356565b61132367ab49e147b91272b360c01b613356565b6000600f811115611337576113366143f6565b5b82600f81111561134a576113496143f6565b5b1015801561137c5750600f80811115611366576113656143f6565b5b82600f811115611379576113786143f6565b5b11155b6113bb576040517f08c379a00000000000000000000000000000000000000000000000000000000081526004016113b290614da7565b60405180910390fd5b6113cf679ab8a363c1db47f760c01b613356565b6113e367c80f0b231c338b2d60c01b613356565b6113f7675397bbbeef836ad860c01b613356565b61140b679b6d6670acbbe93360c01b613356565b60011515600560008787878760405160200161142a9493929190614e4c565b60405160208183030381529060405280519060200120815260200190815260200160002060020160009054906101000a900460ff161515146114a1576040517f08c379a000000000000000000000000000000000000000000000000000000000815260040161149890614ee6565b60405180910390fd5b6114b5678dba3cfcdd7ab4ab60c01b613356565b6114c9672e1f532eb4156eb560c01b613356565b6114dd67b763b8910a23efee60c01b613356565b6000858585856040516020016114f69493929190614f52565b60405160208183030381529060405280519060200120905061152267acd6a8c8f4d574b660c01b613356565b611536677697096d64270cdb60c01b613356565b611602817fd646ae07eb0d0f77457502a65e7407930dff4cd4fd99abc6aac87a753f4c8a428860405160200161156c9190614fab565b6040516020818303038152906040528860405160200161158c9190614fc6565b604051602081830303815290604052886040516020016115ac9190614fe1565b604051602081830303815290604052886040516020016115cc9190614ffc565b6040516020818303038152906040526040516020016115ee949392919061503d565b604051602081830303815290604052613359565b611616673318f6946f78197860c01b613356565b61162a67d4c4533d7e9a60a660c01b613356565b81801561169b5750600015156002600083815260200190815260200160002060030160003373ffffffffffffffffffffffffffffffffffffffff1673ffffffffffffffffffffffffffffffffffffffff16815260200190815260200160002060009054906101000a900460ff161515145b1561175c576116b46732954512786739f560c01b613356565b6116c86724bcd6ffdfbd0d4d60c01b613356565b6116dc677338a703ca5a2a9660c01b613356565b6116f860026000838152602001908152602001600020336134fd565b61170c673b1e688b7d79d00d60c01b613356565b611720676bea465bb441461060c01b613356565b7fb431a69783a2491a0c400ff16dab32cd442abf8fe5af63a526a7248d730192f88160405161174f91906142be565b60405180910390a1611862565b61177067e8c1fa74bacd7fbb60c01b613356565b611784671f5319feb6477e3560c01b613356565b600015158215150361184c576117a467f438d58dfb1be18260c01b613356565b6117b8678ef10dcaeac9036f60c01b613356565b6117cc6735f2056c8483d80460c01b613356565b6117e8600260008381526020019081526020016000203361377f565b6117fc67c187d7d65cf65af260c01b613356565b61181067ade7a62c071e519d60c01b613356565b7fb431a69783a2491a0c400ff16dab32cd442abf8fe5af63a526a7248d730192f88160405161183f91906142be565b60405180910390a1611861565b611860675439b2c4cd16482360c01b613356565b5b5b611876672f6377f918fc3e7460c01b613356565b61188a6762c646c22c573f3e60c01b613356565b6118f0605060ff16600160007fd646ae07eb0d0f77457502a65e7407930dff4cd4fd99abc6aac87a753f4c8a42815260200190815260200160002060000160009054906101000a900463ffffffff166118e39190614ba2565b63ffffffff1660646124f3565b6002600083815260200190815260200160002060020160009054906101000a900460ff1660ff1610611a465761193067220ad4741fc3df5d60c01b613356565b6119446799a0b0988af0867760c01b613356565b611958675d49ac61be8ebd7160c01b613356565b61197360026000838152602001908152602001600020613937565b61198767ac18a9a1ec69e6b860c01b613356565b61199b67698bf9a5753ef89160c01b613356565b7f562618dbcf74b61ae5b0f229fe40ba6d5b6ae6b4248f8c89a870dda7c77135f6816040516119ca91906142be565b60405180910390a16119e6674a780f79854977d860c01b613356565b60006005600088888888604051602001611a039493929190614e4c565b60405160208183030381529060405280519060200120815260200190815260200160002060020160006101000a81548160ff021916908315150217905550611a5b565b611a5a6769ad2177cecd222f60c01b613356565b5b505050505050565b600080600084815260200190815260200160002060000160008373ffffffffffffffffffffffffffffffffffffffff1673ffffffffffffffffffffffffffffffffffffffff16815260200190815260200160002060009054906101000a900460ff16905092915050565b60036020528060005260406000206000915090505481565b600f81565b6000801b81565b611b056796129956313adf1b60c01b613356565b611b1967a37df02138054e5260c01b613356565b611b2d67b057154329c49bf860c01b613356565b611b4167e3a8e90515cce0b760c01b613356565b611b6b7fd646ae07eb0d0f77457502a65e7407930dff4cd4fd99abc6aac87a753f4c8a4233611a63565b611baa576040517f08c379a0000000000000000000000000000000000000000000000000000000008152600401611ba190614c63565b60405180910390fd5b611bbe67b5a228e10270e22560c01b613356565b611bd2673ddb288b7f8fde5860c01b613356565b611be66728ffed5c4bbb136d60c01b613356565b611bfa671a14e86b1536e0c460c01b613356565b60006003811115611c0e57611c0d6143f6565b5b846003811115611c2157611c206143f6565b5b10158015611c535750600380811115611c3d57611c3c6143f6565b5b846003811115611c5057611c4f6143f6565b5b11155b611c92576040517f08c379a0000000000000000000000000000000000000000000000000000000008152600401611c8990614ccf565b60405180910390fd5b611ca6678190894182f1322760c01b613356565b611cba675e914cc764a08bdc60c01b613356565b611cce6759cb1221e0215d5e60c01b613356565b611ce2676d76b91fe9de0f8c60c01b613356565b60006002811115611cf657611cf56143f6565b5b836002811115611d0957611d086143f6565b5b10158015611d3b5750600280811115611d2557611d246143f6565b5b836002811115611d3857611d376143f6565b5b11155b611d7a576040517f08c379a0000000000000000000000000000000000000000000000000000000008152600401611d7190614d3b565b60405180910390fd5b611d8e67bdf8a12455256e9760c01b613356565b611da267ed9c0b858915e64660c01b613356565b611db667649bd458a200725760c01b613356565b611dca670b6b16ea080ccdb260c01b613356565b6000600f811115611dde57611ddd6143f6565b5b82600f811115611df157611df06143f6565b5b10158015611e235750600f80811115611e0d57611e0c6143f6565b5b82600f811115611e2057611e1f6143f6565b5b11155b611e62576040517f08c379a0000000000000000000000000000000000000000000000000000000008152600401611e5990614da7565b60405180910390fd5b611e7667689b85ae64f251bf60c01b613356565b611e8a6735e2a6e6763de1be60c01b613356565b611e9e6709e04ae92e1584c060c01b613356565b611eb2672117bb302f321a4960c01b613356565b600015156005600087878787604051602001611ed19493929190614e4c565b60405160208183030381529060405280519060200120815260200190815260200160002060020160009054906101000a900460ff16151514611f48576040517f08c379a0000000000000000000000000000000000000000000000000000000008152600401611f3f90615103565b60405180910390fd5b611f5c67918f30a7fad8441260c01b613356565b611f70679d26a0bcae16f15560c01b613356565b611f846762560a22786c9d8960c01b613356565b600085858585604051602001611f9d949392919061516f565b604051602081830303815290604052805190602001209050611fc9676ad05dd6ad0c5e8e60c01b613356565b611fdd67b018fb771a8f126a60c01b613356565b6120a9817fd646ae07eb0d0f77457502a65e7407930dff4cd4fd99abc6aac87a753f4c8a42886040516020016120139190614fab565b604051602081830303815290604052886040516020016120339190614fc6565b604051602081830303815290604052886040516020016120539190614fe1565b604051602081830303815290604052886040516020016120739190614ffc565b60405160208183030381529060405260405160200161209594939291906151ee565b604051602081830303815290604052613359565b6120bd673838e17e05cad86e60c01b613356565b6120d1673b992ef7312a36a260c01b613356565b8180156121425750600015156002600083815260200190815260200160002060030160003373ffffffffffffffffffffffffffffffffffffffff1673ffffffffffffffffffffffffffffffffffffffff16815260200190815260200160002060009054906101000a900460ff161515145b156122035761215b67d1937d9a9d9ede4b60c01b613356565b61216f67eba93d2f1c3a372560c01b613356565b61218367e583d3490fb5c11a60c01b613356565b61219f60026000838152602001908152602001600020336134fd565b6121b36703c216aef0914c7d60c01b613356565b6121c767e929230dacd39fc460c01b613356565b7fb431a69783a2491a0c400ff16dab32cd442abf8fe5af63a526a7248d730192f8816040516121f691906142be565b60405180910390a1612309565b61221767f0423ad893494d1f60c01b613356565b61222b670e4635f8420cba4d60c01b613356565b60001515821515036122f35761224b67a8f356ae64e80fb260c01b613356565b61225f6787081979864afeae60c01b613356565b612273677547dde3e6de66c160c01b613356565b61228f600260008381526020019081526020016000203361377f565b6122a36776a3d74fa8fa545760c01b613356565b6122b7674ed9ea8c9338f00060c01b613356565b7fb431a69783a2491a0c400ff16dab32cd442abf8fe5af63a526a7248d730192f8816040516122e691906142be565b60405180910390a1612308565b612307679baa3422236fc69f60c01b613356565b5b5b61231d67c5044043363bb23760c01b613356565b61233167bfc6b0f370d7024960c01b613356565b612397603360ff16600160007fd646ae07eb0d0f77457502a65e7407930dff4cd4fd99abc6aac87a753f4c8a42815260200190815260200160002060000160009054906101000a900463ffffffff1661238a9190614ba2565b63ffffffff1660646124f3565b6002600083815260200190815260200160002060020160009054906101000a900460ff1660ff16106124b2576123d7679ccb8433f30b7f6160c01b613356565b6123eb670842a97201189b8b60c01b613356565b6123ff67ca8d401c43f5f9d760c01b613356565b61241a60026000838152602001908152602001600020613937565b61242e67e22dcaa2865f121160c01b613356565b612442674aba95960958e73260c01b613356565b7f562618dbcf74b61ae5b0f229fe40ba6d5b6ae6b4248f8c89a870dda7c77135f68160405161247191906142be565b60405180910390a161248d6730249e749f45b5e460c01b613356565b6124a167374dfd98b823c8cf60c01b613356565b6124ad86868686613a84565b6124c7565b6124c66720270532058f02e560c01b613356565b5b505050505050565b7fd646ae07eb0d0f77457502a65e7407930dff4cd4fd99abc6aac87a753f4c8a4281565b60006125096781ec30575acdfcda60c01b613c83565b61251d6782dd669ff696d28260c01b613c83565b61253167832c73ccbe439b9160c01b613c83565b6000828461253f9190615297565b036125935761255867a7e29dd6442a81da60c01b613c83565b61256c677f6e93298effc57760c01b613c83565b61258067f79f009c55d6c1fe60c01b613c83565b818361258c91906152c8565b90506125ea565b6125a767c5eb65d730ac892160c01b613c83565b6125bb67b7c0510cc6ac22c560c01b613c83565b6125cf67a46511ac2baa58d960c01b613c83565b600182846125dd91906152c8565b6125e791906152f9565b90505b92915050565b6126046770e61a765dfb20aa60c01b613356565b6126186768c3bd0af40a1b5d60c01b613356565b61262c672bc4242ebebe428960c01b613356565b600060016000858152602001908152602001600020905061265767e87324c8c42b714760c01b613356565b61266b672c4d7d6a241e4b8960c01b613356565b61267f67f2f486595854747960c01b613356565b8060000160049054906101000a900463ffffffff1663ffffffff168160000160009054906101000a900463ffffffff1663ffffffff161181600201546040516020016126cb9190614828565b6040516020818303038152906040526040516020016126ea9190615353565b6040516020818303038152906040529061273a576040517f08c379a00000000000000000000000000000000000000000000000000000000081526004016127319190614900565b60405180910390fd5b5061274f678e01888c80102d3760c01b613356565b61276367bc51f865c49130a860c01b613356565b61277767f8b6ac0350413cde60c01b613356565b61278b674f5571dc82a8340f60c01b613356565b6127958484611a63565b81600201546040516020016127aa9190614828565b6040516020818303038152906040526040516020016127c991906153ae565b60405160208183030381529060405290612819576040517f08c379a00000000000000000000000000000000000000000000000000000000081526004016128109190614900565b60405180910390fd5b5061282e67df20ef43cd86120a60c01b613356565b61284267f9332553eceb56d860c01b613356565b612856677d4cea3f8d4622d560c01b613356565b61286a67eb262170ab108a0360c01b613356565b612878816001015433611a63565b816002015460405160200161288d9190614828565b6040516020818303038152906040526040516020016128ac919061496e565b604051602081830303815290604052906128fc576040517f08c379a00000000000000000000000000000000000000000000000000000000081526004016128f39190614900565b60405180910390fd5b5061291167978f6ecc8f60681960c01b613356565b61292567d61646692ed40d1060c01b613356565b61293967281f41604962ef6360c01b613356565b6000838560405160200161294e929190615420565b60405160208183030381529060405280519060200120905061297a6701dc47e9dc7e2d4960c01b613356565b61298e67e00c6e3f0d9a678b60c01b613356565b612a0081836001015484600201546040516020016129ac9190614828565b604051602081830303815290604052876040516020016129cc9190614aba565b6040516020818303038152906040526040516020016129ec92919061547d565b604051602081830303815290604052613359565b612a1467211496b55cb50cff60c01b613356565b612a2867fa27c246eee8a08b60c01b613356565b828015612a995750600015156002600083815260200190815260200160002060030160003373ffffffffffffffffffffffffffffffffffffffff1673ffffffffffffffffffffffffffffffffffffffff16815260200190815260200160002060009054906101000a900460ff161515145b15612b5a57612ab267ba7a7d4f3ff1ed8260c01b613356565b612ac66719a84e662ed6d2e460c01b613356565b612ada67553b9ae776c1ac0760c01b613356565b612af660026000838152602001908152602001600020336134fd565b612b0a6776e3a440f346f78b60c01b613356565b612b1e672fe19dd197ae71b760c01b613356565b7fb431a69783a2491a0c400ff16dab32cd442abf8fe5af63a526a7248d730192f881604051612b4d91906142be565b60405180910390a1612c60565b612b6e674dadad20973e5e5d60c01b613356565b612b8267dcfd845b2fe814ee60c01b613356565b6000151583151503612c4a57612ba26787c8ea0feda3ada560c01b613356565b612bb667124f1dad53c69bc560c01b613356565b612bca676e8d3572b8c8ba0b60c01b613356565b612be6600260008381526020019081526020016000203361377f565b612bfa67ec4e2bcd0646233360c01b613356565b612c0e6771868017dd9ea9a260c01b613356565b7fb431a69783a2491a0c400ff16dab32cd442abf8fe5af63a526a7248d730192f881604051612c3d91906142be565b60405180910390a1612c5f565b612c5e67ab1bd67fcc0dc4e660c01b613356565b5b5b612c746714693ce83117a4a660c01b613356565b612c88671ee91d41820de70160c01b613356565b81600101548514158015612d1b5750612cf182600001600d9054906101000a900460ff1660ff16600160008560010154815260200190815260200160002060000160009054906101000a900463ffffffff16612ce49190614ba2565b63ffffffff1660646124f3565b6002600083815260200190815260200160002060020160009054906101000a900460ff1660ff1610155b8015612d375750612d366765714ee521157c1660c01b613c86565b5b80612df75750816001015485148015612dda5750612db082600001600d9054906101000a900460ff1660ff1660018060008660010154815260200190815260200160002060000160009054906101000a900463ffffffff16612d9991906154bf565b612da39190614ba2565b63ffffffff1660646124f3565b6002600083815260200190815260200160002060020160009054906101000a900460ff1660ff1610155b8015612df65750612df567647b5b224d6b094960c01b613c86565b5b5b1561319757612e106765b7e103c94a229d60c01b613356565b612e246712792db49bd8000860c01b613356565b612e38673a5a274be22801d260c01b613356565b60005b60045481101561306757612e5967493634455e2d80e960c01b613356565b612e6d671175e050037a7c2760c01b613356565b60011515600260006003600085815260200190815260200160002054815260200190815260200160002060030160008773ffffffffffffffffffffffffffffffffffffffff1673ffffffffffffffffffffffffffffffffffffffff16815260200190815260200160002060009054906101000a900460ff161515148015612f1c575085600260006003600085815260200190815260200160002054815260200190815260200160002060010154145b1561303f57612f35675137f0b970b59aa760c01b613356565b612f49677ba3d7ad982f17c160c01b613356565b6001600260006003600085815260200190815260200160002054815260200190815260200160002060020160008282829054906101000a900460ff16612f8f91906154f7565b92506101000a81548160ff021916908360ff160217905550612fbb675ff2fe70f0a1650860c01b613356565b6000600260006003600085815260200190815260200160002054815260200190815260200160002060030160008773ffffffffffffffffffffffffffffffffffffffff1673ffffffffffffffffffffffffffffffffffffffff16815260200190815260200160002060006101000a81548160ff021916908315150217905550613054565b6130536739d9fb6b575ba4e360c01b613356565b5b808061305f9061552c565b915050612e3b565b5061307c67248dca5c34ff865b60c01b613356565b6130906752d84047f7ec1fd860c01b613356565b6130ab60026000838152602001908152602001600020613937565b6130bf67ae030a65c15f875560c01b613356565b6130d3674dbd682bd4fc310660c01b613356565b7f562618dbcf74b61ae5b0f229fe40ba6d5b6ae6b4248f8c89a870dda7c77135f68160405161310291906142be565b60405180910390a161311e6714f96b5406597f9960c01b613356565b613132670df07991caef353d60c01b613356565b61313c8585613c91565b61315067ae62ea1482f5a88360c01b613356565b60018260000160008282829054906101000a900463ffffffff1661317491906154bf565b92506101000a81548163ffffffff021916908363ffffffff1602179055506131ac565b6131ab67163e0e75e54e0c8a60c01b613356565b5b5050505050565b6131bc82610681565b6131c581613262565b6131cf8383613c91565b505050565b7f4bbeb6fd3e5222e55f2f8b0c35bc228e0a06a25d0da772fdb02c3b92fa004f8881565b60007f01ffc9a7000000000000000000000000000000000000000000000000000000007bffffffffffffffffffffffffffffffffffffffffffffffffffffffff1916827bffffffffffffffffffffffffffffffffffffffffffffffffffffffff1916149050919050565b6132738161326e613d72565b613d7a565b50565b6132808282611a63565b61335257600160008084815260200190815260200160002060000160008373ffffffffffffffffffffffffffffffffffffffff1673ffffffffffffffffffffffffffffffffffffffff16815260200190815260200160002060006101000a81548160ff0219169083151502179055506132f7613d72565b73ffffffffffffffffffffffffffffffffffffffff168173ffffffffffffffffffffffffffffffffffffffff16837f2f8788117e7eff1d82e926ec794901d17c78024a50270940304540a733656f0d60405160405180910390a45b5050565b50565b61336d67a0247630c45fc01060c01b613356565b61338167cb56c9dffef6c09b60c01b613356565b613395670f6c466182e7daf460c01b613356565b600015156002600085815260200190815260200160002060000160009054906101000a900460ff161515036134e3576133d86796af1b9e171f5d0c60c01b613356565b6133ec676ea5a5cfdd40ca7760c01b613356565b60016002600085815260200190815260200160002060000160006101000a81548160ff02191690831515021790555061342f6734c805801ad925b460c01b613356565b826003600060045481526020019081526020016000208190555061345d67de2808851ea8535860c01b613356565b60016004600082825461347091906152f9565b9250508190555061348b677ab469cc82d327c160c01b613356565b8160026000858152602001908152602001600020600101819055506134ba6734fccb1c2034803560c01b613356565b806002600085815260200190815260200160002060050190816134dd919061574f565b506134f8565b6134f767fc92d0035d00688e60c01b613356565b5b505050565b61351167ea8284493f6fbf2960c01b613dff565b6135256737d5072686f3bd6060c01b613dff565b6135396766545a946de59f8d60c01b613dff565b61354d6731eaad2fffbc28cf60c01b613dff565b600015158260030160008373ffffffffffffffffffffffffffffffffffffffff1673ffffffffffffffffffffffffffffffffffffffff16815260200190815260200160002060009054906101000a900460ff161515146135e2576040517f08c379a00000000000000000000000000000000000000000000000000000000081526004016135d99061586d565b60405180910390fd5b6135f667f6d6508d26f3f5e560c01b613dff565b61360a67cdae7870d52eb87960c01b613dff565b808260040160008460020160019054906101000a900460ff1660ff16815260200190815260200160002060006101000a81548173ffffffffffffffffffffffffffffffffffffffff021916908373ffffffffffffffffffffffffffffffffffffffff16021790555061368667c2b6f3d8c6b4518560c01b613dff565b81600201600181819054906101000a900460ff16809291906136a79061588d565b91906101000a81548160ff021916908360ff160217905550506136d467683b58ce757835d160c01b613dff565b60018260030160008373ffffffffffffffffffffffffffffffffffffffff1673ffffffffffffffffffffffffffffffffffffffff16815260200190815260200160002060006101000a81548160ff021916908315150217905550613742677eb5646afe662d2b60c01b613dff565b60018260020160008282829054906101000a900460ff1661376391906158b6565b92506101000a81548160ff021916908360ff1602179055505050565b6137936751cd9add8177cb1e60c01b613dff565b6137a7676ebd3423ee3b665a60c01b613dff565b6137bb6769fdcbe1983a162660c01b613dff565b6137cf67ec9d93ff10f153e760c01b613dff565b600115158260030160008373ffffffffffffffffffffffffffffffffffffffff1673ffffffffffffffffffffffffffffffffffffffff16815260200190815260200160002060009054906101000a900460ff16151514613864576040517f08c379a000000000000000000000000000000000000000000000000000000000815260040161385b9061595d565b60405180910390fd5b6138786750584b137311d37460c01b613dff565b61388c6755e8d06217dde6ba60c01b613dff565b60008260030160008373ffffffffffffffffffffffffffffffffffffffff1673ffffffffffffffffffffffffffffffffffffffff16815260200190815260200160002060006101000a81548160ff0219169083151502179055506138fa67b945e5d11d41832a60c01b613dff565b60018260020160008282829054906101000a900460ff1661391b91906154f7565b92506101000a81548160ff021916908360ff1602179055505050565b61394b67343bee6a3141a1f860c01b613dff565b61395f67c55b4c989e4320fa60c01b613dff565b60008160020160006101000a81548160ff021916908360ff16021790555061399167d1d487718112cde860c01b613dff565b6139a567a3de6bd1a15b6e6a60c01b613dff565b60005b8160020160019054906101000a900460ff1660ff168160ff161015613a80576139db67715c20b636ac690e60c01b613dff565b60008260030160008460040160008560ff16815260200190815260200160002060009054906101000a900473ffffffffffffffffffffffffffffffffffffffff1673ffffffffffffffffffffffffffffffffffffffff1673ffffffffffffffffffffffffffffffffffffffff16815260200190815260200160002060006101000a81548160ff0219169083151502179055508080613a789061588d565b9150506139a8565b5050565b613a9867a4e6a19cbfe5167960c01b613356565b613aac675c78a7177eb1a8fb60c01b613356565b6040518060c00160405280846003811115613aca57613ac96143f6565b5b8152602001836002811115613ae257613ae16143f6565b5b815260200182600f811115613afa57613af96143f6565b5b8152602001428152602001600115158152602001858152506005600086868686604051602001613b2d9493929190614e4c565b60405160208183030381529060405280519060200120815260200190815260200160002060008201518160000160006101000a81548160ff02191690836003811115613b7c57613b7b6143f6565b5b021790555060208201518160000160016101000a81548160ff02191690836002811115613bac57613bab6143f6565b5b021790555060408201518160000160026101000a81548160ff0219169083600f811115613bdc57613bdb6143f6565b5b02179055506060820151816001015560808201518160020160006101000a81548160ff02191690831515021790555060a08201518160030155905050613c2c67bf4499ff51c0c22160c01b613356565b613c4067822948be4d3ef9a760c01b613356565b7fb55811dd01470a227956304b027c610c7cdf9dd622dcc47791380261d56dc6ed84848484604051613c75949392919061597d565b60405180910390a150505050565b50565b600060019050919050565b613c9b8282611a63565b15613d6e57600080600084815260200190815260200160002060000160008373ffffffffffffffffffffffffffffffffffffffff1673ffffffffffffffffffffffffffffffffffffffff16815260200190815260200160002060006101000a81548160ff021916908315150217905550613d13613d72565b73ffffffffffffffffffffffffffffffffffffffff168173ffffffffffffffffffffffffffffffffffffffff16837ff6391f5c32d9c69d2a47ea670b442974b53935d1edc7fd64eb21e047a839171b60405160405180910390a45b5050565b600033905090565b613d848282611a63565b613dfb57613d9181613e02565b613d9f8360001c6020613e2f565b604051602001613db0929190615a5a565b6040516020818303038152906040526040517f08c379a0000000000000000000000000000000000000000000000000000000008152600401613df29190614900565b60405180910390fd5b5050565b50565b6060613e288273ffffffffffffffffffffffffffffffffffffffff16601460ff16613e2f565b9050919050565b606060006002836002613e429190615a94565b613e4c91906152f9565b67ffffffffffffffff811115613e6557613e64615574565b5b6040519080825280601f01601f191660200182016040528015613e975781602001600182028036833780820191505090505b5090507f300000000000000000000000000000000000000000000000000000000000000081600081518110613ecf57613ece615ad6565b5b60200101907effffffffffffffffffffffffffffffffffffffffffffffffffffffffffffff1916908160001a9053507f780000000000000000000000000000000000000000000000000000000000000081600181518110613f3357613f32615ad6565b5b60200101907effffffffffffffffffffffffffffffffffffffffffffffffffffffffffffff1916908160001a90535060006001846002613f739190615a94565b613f7d91906152f9565b90505b600181111561401d577f3031323334353637383961626364656600000000000000000000000000000000600f861660108110613fbf57613fbe615ad6565b5b1a60f81b828281518110613fd657613fd5615ad6565b5b60200101907effffffffffffffffffffffffffffffffffffffffffffffffffffffffffffff1916908160001a905350600485901c94508061401690615b05565b9050613f80565b5060008414614061576040517f08c379a000000000000000000000000000000000000000000000000000000000815260040161405890615b7a565b60405180910390fd5b8091505092915050565b600080fd5b60007fffffffff0000000000000000000000000000000000000000000000000000000082169050919050565b6140a581614070565b81146140b057600080fd5b50565b6000813590506140c28161409c565b92915050565b6000602082840312156140de576140dd61406b565b5b60006140ec848285016140b3565b91505092915050565b60008115159050919050565b61410a816140f5565b82525050565b60006020820190506141256000830184614101565b92915050565b600060ff82169050919050565b6141418161412b565b82525050565b600060208201905061415c6000830184614138565b92915050565b6000819050919050565b61417581614162565b811461418057600080fd5b50565b6000813590506141928161416c565b92915050565b6000602082840312156141ae576141ad61406b565b5b60006141bc84828501614183565b91505092915050565b6141ce81614162565b82525050565b600081519050919050565b600082825260208201905092915050565b60005b8381101561420e5780820151818401526020810190506141f3565b60008484015250505050565b6000601f19601f8301169050919050565b6000614236826141d4565b61424081856141df565b93506142508185602086016141f0565b6142598161421a565b840191505092915050565b600060a0820190506142796000830188614101565b61428660208301876141c5565b6142936040830186614138565b6142a06060830185614138565b81810360808301526142b2818461422b565b90509695505050505050565b60006020820190506142d360008301846141c5565b92915050565b600073ffffffffffffffffffffffffffffffffffffffff82169050919050565b6000614304826142d9565b9050919050565b614314816142f9565b811461431f57600080fd5b50565b6000813590506143318161430b565b92915050565b6000806040838503121561434e5761434d61406b565b5b600061435c85828601614183565b925050602061436d85828601614322565b9150509250929050565b614380816140f5565b811461438b57600080fd5b50565b60008135905061439d81614377565b92915050565b6000806000606084860312156143bc576143bb61406b565b5b60006143ca86828701614183565b93505060206143db86828701614322565b92505060406143ec8682870161438e565b9150509250925092565b7f4e487b7100000000000000000000000000000000000000000000000000000000600052602160045260246000fd5b60048110614436576144356143f6565b5b50565b600081905061444782614425565b919050565b600061445782614439565b9050919050565b6144678161444c565b82525050565b6003811061447e5761447d6143f6565b5b50565b600081905061448f8261446d565b919050565b600061449f82614481565b9050919050565b6144af81614494565b82525050565b601081106144c6576144c56143f6565b5b50565b60008190506144d7826144b5565b919050565b60006144e7826144c9565b9050919050565b6144f7816144dc565b82525050565b6000819050919050565b614510816144fd565b82525050565b600060c08201905061452b600083018961445e565b61453860208301886144a6565b61454560408301876144ee565b6145526060830186614507565b61455f6080830185614101565b61456c60a0830184614507565b979650505050505050565b614580816144fd565b811461458b57600080fd5b50565b60008135905061459d81614577565b92915050565b600481106145b057600080fd5b50565b6000813590506145c2816145a3565b92915050565b600381106145d557600080fd5b50565b6000813590506145e7816145c8565b92915050565b601081106145fa57600080fd5b50565b60008135905061460c816145ed565b92915050565b600080600080600060a0868803121561462e5761462d61406b565b5b600061463c8882890161458e565b955050602061464d888289016145b3565b945050604061465e888289016145d8565b935050606061466f888289016145fd565b92505060806146808882890161438e565b9150509295509295909350565b6000602082840312156146a3576146a261406b565b5b60006146b18482850161458e565b91505092915050565b600080604083850312156146d1576146d061406b565b5b60006146df8582860161458e565b92505060206146f08582860161458e565b9150509250929050565b600060208201905061470f6000830184614507565b92915050565b7f4e487b7100000000000000000000000000000000000000000000000000000000600052602260045260246000fd5b6000600282049050600182168061475c57607f821691505b60208210810361476f5761476e614715565b5b50919050565b7f596f752063616e27742072656e6f756e636520746f20796f757220726f6c652e60008201527f20506c6561736520636f6e746163742061646d696e7300000000000000000000602082015250565b60006147d16036836141df565b91506147dc82614775565b604082019050919050565b60006020820190508181036000830152614800816147c4565b9050919050565b6000819050919050565b61482261481d82614162565b614807565b82525050565b60006148348284614811565b60208201915081905092915050565b7f4d61782000000000000000000000000000000000000000000000000000000000815250565b600081905092915050565b600061487f826141d4565b6148898185614869565b93506148998185602086016141f0565b80840191505092915050565b7f2072656163686564000000000000000000000000000000000000000000000000815250565b60006148d682614843565b6004820191506148e68284614874565b91506148f1826148a5565b60088201915081905092915050565b6000602082019050818103600083015261491a818461422b565b905092915050565b7f43616c6c6572206973206e6f7420612000000000000000000000000000000000815250565b7f2061646d696e0000000000000000000000000000000000000000000000000000815250565b600061497982614922565b6010820191506149898284614874565b915061499482614948565b60068201915081905092915050565b7f54686973206164647265737320697320616c7265616479206120000000000000815250565b60006149d4826149a3565b601a820191506149e48284614874565b915081905092915050565b60008160601b9050919050565b6000614a07826149ef565b9050919050565b6000614a19826149fc565b9050919050565b614a31614a2c826142f9565b614a0e565b82525050565b7f4752414e54000000000000000000000000000000000000000000000000000000600082015250565b6000614a6d600583614869565b9150614a7882614a37565b600582019050919050565b6000614a8f8285614a20565b601482019150614a9e82614a60565b9150614aaa8284614811565b6020820191508190509392505050565b6000614ac68284614a20565b60148201915081905092915050565b7f4772616e74200000000000000000000000000000000000000000000000000000815250565b7f2000000000000000000000000000000000000000000000000000000000000000815250565b6000614b2c82614ad5565b600682019150614b3c8285614874565b9150614b4782614afb565b600182019150614b578284614874565b91508190509392505050565b600063ffffffff82169050919050565b7f4e487b7100000000000000000000000000000000000000000000000000000000600052601160045260246000fd5b6000614bad82614b63565b9150614bb883614b63565b9250828202614bc681614b63565b9150808214614bd857614bd7614b73565b5b5092915050565b6000614bea82614b63565b9150614bf583614b63565b9250828201905063ffffffff811115614c1157614c10614b73565b5b92915050565b7f43616c6c6572206973206e6f7420612063657274696669657200000000000000600082015250565b6000614c4d6019836141df565b9150614c5882614c17565b602082019050919050565b60006020820190508181036000830152614c7c81614c40565b9050919050565b7f417070726563696174696f6e206973206e6f742076616c696400000000000000600082015250565b6000614cb96019836141df565b9150614cc482614c83565b602082019050919050565b60006020820190508181036000830152614ce881614cac565b9050919050565b7f446567726565206973206e6f742076616c696400000000000000000000000000600082015250565b6000614d256013836141df565b9150614d3082614cef565b602082019050919050565b60006020820190508181036000830152614d5481614d18565b9050919050565b7f50726f6772616d206973206e6f742076616c6964000000000000000000000000600082015250565b6000614d916014836141df565b9150614d9c82614d5b565b602082019050919050565b60006020820190508181036000830152614dc081614d84565b9050919050565b6000819050919050565b614de2614ddd826144fd565b614dc7565b82525050565b60008160f81b9050919050565b6000614e0082614de8565b9050919050565b614e18614e138261444c565b614df5565b82525050565b614e2f614e2a82614494565b614df5565b82525050565b614e46614e41826144dc565b614df5565b82525050565b6000614e588287614dd1565b602082019150614e688286614e07565b600182019150614e788285614e1e565b600182019150614e888284614e35565b60018201915081905095945050505050565b7f5468697320636572746966696361746520646f65736e27742065786973740000600082015250565b6000614ed0601e836141df565b9150614edb82614e9a565b602082019050919050565b60006020820190508181036000830152614eff81614ec3565b9050919050565b7f44454c4554450000000000000000000000000000000000000000000000000000600082015250565b6000614f3c600683614869565b9150614f4782614f06565b600682019050919050565b6000614f5e8287614dd1565b602082019150614f6e8286614e07565b600182019150614f7e8285614e1e565b600182019150614f8e8284614e35565b600182019150614f9d82614f2f565b915081905095945050505050565b6000614fb78284614dd1565b60208201915081905092915050565b6000614fd28284614e07565b60018201915081905092915050565b6000614fed8284614e1e565b60018201915081905092915050565b60006150088284614e35565b60018201915081905092915050565b7f44656c6574652000000000000000000000000000000000000000000000000000815250565b600061504882615017565b6007820191506150588287614874565b915061506382614afb565b6001820191506150738286614874565b915061507e82614afb565b60018201915061508e8285614874565b915061509982614afb565b6001820191506150a98284614874565b915081905095945050505050565b7f5468697320636572746966696361746520616c72656164792065786973747300600082015250565b60006150ed601f836141df565b91506150f8826150b7565b602082019050919050565b6000602082019050818103600083015261511c816150e0565b9050919050565b7f4345525449465900000000000000000000000000000000000000000000000000600082015250565b6000615159600783614869565b915061516482615123565b600782019050919050565b600061517b8287614dd1565b60208201915061518b8286614e07565b60018201915061519b8285614e1e565b6001820191506151ab8284614e35565b6001820191506151ba8261514c565b915081905095945050505050565b7f4365727469667920000000000000000000000000000000000000000000000000815250565b60006151f9826151c8565b6008820191506152098287614874565b915061521482614afb565b6001820191506152248286614874565b915061522f82614afb565b60018201915061523f8285614874565b915061524a82614afb565b60018201915061525a8284614874565b915081905095945050505050565b7f4e487b7100000000000000000000000000000000000000000000000000000000600052601260045260246000fd5b60006152a2826144fd565b91506152ad836144fd565b9250826152bd576152bc615268565b5b828206905092915050565b60006152d3826144fd565b91506152de836144fd565b9250826152ee576152ed615268565b5b828204905092915050565b6000615304826144fd565b915061530f836144fd565b925082820190508082111561532757615326614b73565b5b92915050565b7f4d696e2000000000000000000000000000000000000000000000000000000000815250565b600061535e8261532d565b60048201915061536e8284614874565b9150615379826148a5565b60088201915081905092915050565b7f546869732061646472657373206973206e6f7420612000000000000000000000815250565b60006153b982615388565b6016820191506153c98284614874565b915081905092915050565b7f5245564f4b450000000000000000000000000000000000000000000000000000600082015250565b600061540a600683614869565b9150615415826153d4565b600682019050919050565b600061542c8285614a20565b60148201915061543b826153fd565b91506154478284614811565b6020820191508190509392505050565b7f5265766f6b652000000000000000000000000000000000000000000000000000815250565b600061548882615457565b6007820191506154988285614874565b91506154a382614afb565b6001820191506154b38284614874565b91508190509392505050565b60006154ca82614b63565b91506154d583614b63565b9250828203905063ffffffff8111156154f1576154f0614b73565b5b92915050565b60006155028261412b565b915061550d8361412b565b9250828203905060ff81111561552657615525614b73565b5b92915050565b6000615537826144fd565b91507fffffffffffffffffffffffffffffffffffffffffffffffffffffffffffffffff820361556957615568614b73565b5b600182019050919050565b7f4e487b7100000000000000000000000000000000000000000000000000000000600052604160045260246000fd5b60008190508160005260206000209050919050565b60006020601f8301049050919050565b600082821b905092915050565b6000600883026156057fffffffffffffffffffffffffffffffffffffffffffffffffffffffffffffffff826155c8565b61560f86836155c8565b95508019841693508086168417925050509392505050565b6000819050919050565b600061564c615647615642846144fd565b615627565b6144fd565b9050919050565b6000819050919050565b61566683615631565b61567a61567282615653565b8484546155d5565b825550505050565b600090565b61568f615682565b61569a81848461565d565b505050565b5b818110156156be576156b3600082615687565b6001810190506156a0565b5050565b601f821115615703576156d4816155a3565b6156dd846155b8565b810160208510156156ec578190505b6157006156f8856155b8565b83018261569f565b50505b505050565b600082821c905092915050565b600061572660001984600802615708565b1980831691505092915050565b600061573f8383615715565b9150826002028217905092915050565b615758826141d4565b67ffffffffffffffff81111561577157615770615574565b5b61577b8254614744565b6157868282856156c2565b600060209050601f8311600181146157b957600084156157a7578287015190505b6157b18582615733565b865550615819565b601f1984166157c7866155a3565b60005b828110156157ef578489015182556001820191506020850194506020810190506157ca565b8683101561580c5784890151615808601f891682615715565b8355505b6001600288020188555050505b505050505050565b7f596f7520616c7265616479207369676e65642074686973206d756c7469736967600082015250565b60006158576020836141df565b915061586282615821565b602082019050919050565b600060208201905081810360008301526158868161584a565b9050919050565b60006158988261412b565b915060ff82036158ab576158aa614b73565b5b600182019050919050565b60006158c18261412b565b91506158cc8361412b565b9250828201905060ff8111156158e5576158e4614b73565b5b92915050565b7f596f752068617665206e6f7465207369676e65642074686973206d756c74697360008201527f6967207965740000000000000000000000000000000000000000000000000000602082015250565b60006159476026836141df565b9150615952826158eb565b604082019050919050565b600060208201905081810360008301526159768161593a565b9050919050565b60006080820190506159926000830187614507565b61599f602083018661445e565b6159ac60408301856144a6565b6159b960608301846144ee565b95945050505050565b7f416363657373436f6e74726f6c3a206163636f756e7420000000000000000000600082015250565b60006159f8601783614869565b9150615a03826159c2565b601782019050919050565b7f206973206d697373696e6720726f6c6520000000000000000000000000000000600082015250565b6000615a44601183614869565b9150615a4f82615a0e565b601182019050919050565b6000615a65826159eb565b9150615a718285614874565b9150615a7c82615a37565b9150615a888284614874565b91508190509392505050565b6000615a9f826144fd565b9150615aaa836144fd565b9250828202615ab8816144fd565b91508282048414831517615acf57615ace614b73565b5b5092915050565b7f4e487b7100000000000000000000000000000000000000000000000000000000600052603260045260246000fd5b6000615b10826144fd565b915060008203615b2357615b22614b73565b5b600182039050919050565b7f537472696e67733a20686578206c656e67746820696e73756666696369656e74600082015250565b6000615b646020836141df565b9150615b6f82615b2e565b602082019050919050565b60006020820190508181036000830152615b9381615b57565b905091905056fea26469706673582212204bb0005dba6de7cec4a66bf32725c28dfa8f5233fa65e3877ed9c7c8b4a5abab64736f6c63430008130033",
  "linkReferences": {},
  "deployedLinkReferences": {}
}